{
  "_format": "hh-sol-artifact-1",
  "contractName": "MulBank",
  "sourceName": "contracts/MulBank.sol",
  "abi": [
    {
      "inputs": [
        {
          "internalType": "address",
          "name": "_WETH9",
          "type": "address"
        }
      ],
      "stateMutability": "nonpayable",
      "type": "constructor"
    },
    {
      "anonymous": false,
      "inputs": [
        {
          "indexed": true,
          "internalType": "address",
          "name": "permission",
          "type": "address"
        }
      ],
      "name": "AddPermission",
      "type": "event"
    },
    {
      "anonymous": false,
      "inputs": [
        {
          "indexed": true,
          "internalType": "address",
          "name": "permission",
          "type": "address"
        }
      ],
      "name": "DelPermission",
      "type": "event"
    },
    {
      "anonymous": false,
      "inputs": [
        {
          "indexed": true,
          "internalType": "address",
          "name": "user",
          "type": "address"
        },
        {
          "indexed": true,
          "internalType": "address",
          "name": "token",
          "type": "address"
        },
        {
          "indexed": false,
          "internalType": "uint256",
          "name": "amount",
          "type": "uint256"
        }
      ],
      "name": "Deposit",
      "type": "event"
    },
    {
      "anonymous": false,
      "inputs": [
        {
          "indexed": true,
          "internalType": "address",
          "name": "previousOwner",
          "type": "address"
        },
        {
          "indexed": true,
          "internalType": "address",
          "name": "newOwner",
          "type": "address"
        }
      ],
      "name": "OwnershipTransferred",
      "type": "event"
    },
    {
      "anonymous": false,
      "inputs": [
        {
          "indexed": true,
          "internalType": "address",
          "name": "supplyToken",
          "type": "address"
        },
        {
          "indexed": false,
          "internalType": "uint256",
          "name": "minAmount",
          "type": "uint256"
        }
      ],
      "name": "PoolInitialized",
      "type": "event"
    },
    {
      "anonymous": false,
      "inputs": [
        {
          "indexed": false,
          "internalType": "address",
          "name": "user",
          "type": "address"
        },
        {
          "indexed": false,
          "internalType": "address",
          "name": "token",
          "type": "address"
        },
        {
          "indexed": false,
          "internalType": "uint256",
          "name": "amount",
          "type": "uint256"
        }
      ],
      "name": "SetUserBalance",
      "type": "event"
    },
    {
      "anonymous": false,
      "inputs": [
        {
          "indexed": false,
          "internalType": "address",
          "name": "pool",
          "type": "address"
        },
        {
          "indexed": false,
          "internalType": "bool",
          "name": "enable",
          "type": "bool"
        }
      ],
      "name": "SwitchPoolDeposit",
      "type": "event"
    },
    {
      "anonymous": false,
      "inputs": [
        {
          "indexed": false,
          "internalType": "address",
          "name": "user",
          "type": "address"
        },
        {
          "indexed": false,
          "internalType": "bool",
          "name": "enable",
          "type": "bool"
        }
      ],
      "name": "SwitchWhiteList",
      "type": "event"
    },
    {
      "anonymous": false,
      "inputs": [
        {
          "indexed": false,
          "internalType": "address",
          "name": "pool",
          "type": "address"
        },
        {
          "indexed": false,
          "internalType": "uint256",
          "name": "minAmount",
          "type": "uint256"
        }
      ],
      "name": "UpdateMinDeposit",
      "type": "event"
    },
    {
      "anonymous": false,
      "inputs": [
        {
          "indexed": false,
          "internalType": "enum MulBank.Period",
          "name": "period",
          "type": "uint8"
        }
      ],
      "name": "UpdatePeriod",
      "type": "event"
    },
    {
      "anonymous": false,
      "inputs": [
        {
          "indexed": true,
          "internalType": "address",
          "name": "user",
          "type": "address"
        },
        {
          "indexed": true,
          "internalType": "address",
          "name": "token",
          "type": "address"
        },
        {
          "indexed": false,
          "internalType": "uint256",
          "name": "amount",
          "type": "uint256"
        }
      ],
      "name": "Withdraw",
      "type": "event"
    },
    {
      "inputs": [],
      "name": "WETH9",
      "outputs": [
        {
          "internalType": "address",
          "name": "",
          "type": "address"
        }
      ],
      "stateMutability": "view",
      "type": "function"
    },
    {
      "inputs": [
        {
          "internalType": "address",
          "name": "_addPermission",
          "type": "address"
        }
      ],
      "name": "addPermission",
      "outputs": [
        {
          "internalType": "bool",
          "name": "",
          "type": "bool"
        }
      ],
      "stateMutability": "nonpayable",
      "type": "function"
    },
    {
      "inputs": [],
      "name": "cntOfPool",
      "outputs": [
        {
          "internalType": "uint256",
          "name": "",
          "type": "uint256"
        }
      ],
      "stateMutability": "view",
      "type": "function"
    },
    {
      "inputs": [
        {
          "internalType": "address",
          "name": "_delPermission",
          "type": "address"
        }
      ],
      "name": "delPermission",
      "outputs": [
        {
          "internalType": "bool",
          "name": "",
          "type": "bool"
        }
      ],
      "stateMutability": "nonpayable",
      "type": "function"
    },
    {
      "inputs": [
        {
          "internalType": "address",
          "name": "token",
          "type": "address"
        },
        {
          "internalType": "uint256",
          "name": "amount",
          "type": "uint256"
        }
      ],
      "name": "deposit",
      "outputs": [],
      "stateMutability": "payable",
      "type": "function"
    },
    {
      "inputs": [
        {
          "internalType": "uint256",
          "name": "_index",
          "type": "uint256"
        }
      ],
      "name": "getPermission",
      "outputs": [
        {
          "internalType": "address",
          "name": "",
          "type": "address"
        }
      ],
      "stateMutability": "view",
      "type": "function"
    },
    {
      "inputs": [],
      "name": "getPermissionLength",
      "outputs": [
        {
          "internalType": "uint256",
          "name": "",
          "type": "uint256"
        }
      ],
      "stateMutability": "view",
      "type": "function"
    },
    {
      "inputs": [
        {
          "internalType": "address[]",
          "name": "supplyTokens",
          "type": "address[]"
        },
        {
          "internalType": "uint256[]",
          "name": "minAmounts",
          "type": "uint256[]"
        }
      ],
      "name": "initPoolList",
      "outputs": [],
      "stateMutability": "nonpayable",
      "type": "function"
    },
    {
      "inputs": [],
      "name": "isClosePeriod",
      "outputs": [
        {
          "internalType": "bool",
          "name": "",
          "type": "bool"
        }
      ],
      "stateMutability": "view",
      "type": "function"
    },
    {
      "inputs": [
        {
          "internalType": "address",
          "name": "account",
          "type": "address"
        }
      ],
      "name": "isPermission",
      "outputs": [
        {
          "internalType": "bool",
          "name": "",
          "type": "bool"
        }
      ],
      "stateMutability": "view",
      "type": "function"
    },
    {
      "inputs": [],
      "name": "owner",
      "outputs": [
        {
          "internalType": "address",
          "name": "",
          "type": "address"
        }
      ],
      "stateMutability": "view",
      "type": "function"
    },
    {
      "inputs": [
        {
          "internalType": "address",
          "name": "token",
          "type": "address"
        },
        {
          "internalType": "uint256",
          "name": "amount",
          "type": "uint256"
        },
        {
          "internalType": "address",
          "name": "to",
          "type": "address"
        }
      ],
      "name": "pay",
      "outputs": [],
      "stateMutability": "nonpayable",
      "type": "function"
    },
    {
      "inputs": [],
      "name": "period",
      "outputs": [
        {
          "internalType": "enum MulBank.Period",
          "name": "",
          "type": "uint8"
        }
      ],
      "stateMutability": "view",
      "type": "function"
    },
    {
      "inputs": [
        {
          "internalType": "address",
          "name": "",
          "type": "address"
        }
      ],
      "name": "poolInfo",
      "outputs": [
        {
          "internalType": "bool",
          "name": "init",
          "type": "bool"
        },
        {
          "internalType": "bool",
          "name": "enable",
          "type": "bool"
        },
        {
          "internalType": "uint256",
          "name": "minDeposit",
          "type": "uint256"
        },
        {
          "internalType": "uint256",
          "name": "index",
          "type": "uint256"
        }
      ],
      "stateMutability": "view",
      "type": "function"
    },
    {
      "inputs": [
        {
          "internalType": "uint256",
          "name": "",
          "type": "uint256"
        }
      ],
      "name": "pools",
      "outputs": [
        {
          "internalType": "address",
          "name": "",
          "type": "address"
        }
      ],
      "stateMutability": "view",
      "type": "function"
    },
    {
      "inputs": [],
      "name": "renounceOwnership",
      "outputs": [],
      "stateMutability": "nonpayable",
      "type": "function"
    },
    {
      "inputs": [
        {
          "internalType": "enum MulBank.Period",
          "name": "_period",
          "type": "uint8"
        }
      ],
      "name": "setPeriod",
      "outputs": [],
      "stateMutability": "nonpayable",
      "type": "function"
    },
    {
      "inputs": [
        {
          "internalType": "address[]",
          "name": "users",
          "type": "address[]"
        },
        {
          "internalType": "address[][]",
          "name": "tokens",
          "type": "address[][]"
        },
        {
          "internalType": "uint256[][]",
          "name": "amounts",
          "type": "uint256[][]"
        }
      ],
      "name": "setUserBalance",
      "outputs": [],
      "stateMutability": "nonpayable",
      "type": "function"
    },
    {
      "inputs": [
        {
          "internalType": "address[]",
          "name": "supplyTokens",
          "type": "address[]"
        },
        {
          "internalType": "bool[]",
          "name": "enable",
          "type": "bool[]"
        }
      ],
      "name": "switchPool",
      "outputs": [],
      "stateMutability": "nonpayable",
      "type": "function"
    },
    {
      "inputs": [
        {
          "internalType": "address[]",
          "name": "users",
          "type": "address[]"
        },
        {
          "internalType": "bool[]",
          "name": "enable",
          "type": "bool[]"
        }
      ],
      "name": "switchWhiteList",
      "outputs": [],
      "stateMutability": "nonpayable",
      "type": "function"
    },
    {
      "inputs": [
        {
          "internalType": "address",
          "name": "newOwner",
          "type": "address"
        }
      ],
      "name": "transferOwnership",
      "outputs": [],
      "stateMutability": "nonpayable",
      "type": "function"
    },
    {
      "inputs": [
        {
          "internalType": "address[]",
          "name": "supplyTokens",
          "type": "address[]"
        },
        {
          "internalType": "uint256[]",
          "name": "amounts",
          "type": "uint256[]"
        }
      ],
      "name": "updateMinDeposit",
      "outputs": [],
      "stateMutability": "nonpayable",
      "type": "function"
    },
    {
      "inputs": [
        {
          "internalType": "address",
          "name": "",
          "type": "address"
        },
        {
          "internalType": "address",
          "name": "",
          "type": "address"
        }
      ],
      "name": "userBalance",
      "outputs": [
        {
          "internalType": "uint256",
          "name": "",
          "type": "uint256"
        }
      ],
      "stateMutability": "view",
      "type": "function"
    },
    {
      "inputs": [
        {
          "internalType": "address",
          "name": "",
          "type": "address"
        }
      ],
      "name": "whiteList",
      "outputs": [
        {
          "internalType": "bool",
          "name": "",
          "type": "bool"
        }
      ],
      "stateMutability": "view",
      "type": "function"
    },
    {
      "inputs": [
        {
          "internalType": "address",
          "name": "token",
          "type": "address"
        },
        {
          "internalType": "uint256",
          "name": "amount",
          "type": "uint256"
        }
      ],
      "name": "withdraw",
      "outputs": [],
      "stateMutability": "nonpayable",
      "type": "function"
    },
    {
      "stateMutability": "payable",
      "type": "receive"
    }
  ],
  "bytecode": "0x60806040526003805460ff191690553480156200001b57600080fd5b5060405162002a5438038062002a548339810160408190526200003e91620000be565b60006200004a620000ba565b600080546001600160a01b0319166001600160a01b0383169081178255604051929350917f8be0079c531659141344cd1fd0a4f28419497f9722a3daafe3b4186f6b6457e0908290a350600880546001600160a01b0319166001600160a01b0392909216919091179055620000ee565b3390565b600060208284031215620000d0578081fd5b81516001600160a01b0381168114620000e7578182fd5b9392505050565b61295680620000fe6000396000f3fe60806040526004361061016a5760003560e01c8063a54dd6a8116100d1578063e0fe5f621161008a578063f0fcc6bb11610064578063f0fcc6bb1461043c578063f2fde38b1461045c578063f3fef3a31461047c578063ffb5e2761461049c576101a4565b8063e0fe5f62146103da578063ef78d4fd146103fa578063ef976e7e1461041c576101a4565b8063a54dd6a81461031a578063a5dfc4671461033a578063a832fcd41461035a578063ac4afa381461037a578063b1af99cf1461039a578063e0faa9a2146103ba576101a4565b806362a4b0a91161012357806362a4b0a91461026b578063715018a61461028b57806373e02998146102a05780638da5cb5b146102b55780638fabd12e146102ca5780639a7b5f11146102ea576101a4565b8063372c12b1146101a95780634641ca17146101df57806347e7ef24146102015780634aa4a4fc146102145780634d0a5dbd146102365780634ffc82ea14610256576101a4565b366101a4576008546001600160a01b031633146101a25760405162461bcd60e51b8152600401610199906126d8565b60405180910390fd5b005b600080fd5b3480156101b557600080fd5b506101c96101c4366004612265565b6104bc565b6040516101d691906125c9565b60405180910390f35b3480156101eb57600080fd5b506101f46104d1565b6040516101d691906127c5565b6101a261020f3660046122b1565b6104d7565b34801561022057600080fd5b506102296106e9565b6040516101d6919061255d565b34801561024257600080fd5b506101c9610251366004612265565b6106f8565b34801561026257600080fd5b506101f46107e8565b34801561027757600080fd5b506101f461028636600461227f565b6107f9565b34801561029757600080fd5b506101a2610816565b3480156102ac57600080fd5b506101c96108c2565b3480156102c157600080fd5b506102296108dc565b3480156102d657600080fd5b506101a26102e536600461250e565b6108eb565b3480156102f657600080fd5b5061030a610305366004612265565b6109a4565b6040516101d694939291906125d4565b34801561032657600080fd5b506101a26103353660046124ad565b6109d1565b34801561034657600080fd5b506101a2610355366004612315565b610b72565b34801561036657600080fd5b506101a26103753660046123e7565b610f4d565b34801561038657600080fd5b5061022961039536600461252d565b6110a6565b3480156103a657600080fd5b506101c96103b5366004612265565b6110d0565b3480156103c657600080fd5b506101c96103d5366004612265565b6111b8565b3480156103e657600080fd5b506101a26103f53660046123e7565b6111c5565b34801561040657600080fd5b5061040f611374565b6040516101d691906125f1565b34801561042857600080fd5b506101a26104373660046124ad565b61137d565b34801561044857600080fd5b506101a26104573660046122da565b6115d9565b34801561046857600080fd5b506101a2610477366004612265565b6116e3565b34801561048857600080fd5b506101a26104973660046122b1565b6117e5565b3480156104a857600080fd5b506102296104b736600461252d565b611a33565b60056020526000908152604090205460ff1681565b60075481565b818160006003805460ff16908111156104ec57fe5b146105095760405162461bcd60e51b815260040161019990612770565b6001600160a01b03821660009081526004602052604090205460ff16801561054e57506001600160a01b038216600090815260046020526040902054610100900460ff165b61056a5760405162461bcd60e51b81526004016101999061279c565b60008111801561059557506001600160a01b0382166000908152600460205260409020600101548110155b6105b15760405162461bcd60e51b8152600401610199906126a8565b3360009081526005602052604090205460ff166105e05760405162461bcd60e51b815260040161019990612605565b6008546001600160a01b0385811691161415610683578234146106155760405162461bcd60e51b815260040161019990612745565b600860009054906101000a90046001600160a01b03166001600160a01b031663d0e30db0346040518263ffffffff1660e01b81526004016000604051808303818588803b15801561066557600080fd5b505af1158015610679573d6000803e3d6000fd5b5050505050610698565b6106986001600160a01b038516333086611b01565b836001600160a01b0316336001600160a01b03167f5548c837ab068cf56a2c2479df0882a4922fd203edb7517321831d95078c5f62856040516106db91906127c5565b60405180910390a350505050565b6008546001600160a01b031681565b6000610702611b61565b6001600160a01b03166107136108dc565b6001600160a01b03161461075c576040805162461bcd60e51b815260206004820181905260248201526000805160206128d7833981519152604482015290519081900360640190fd5b6001600160a01b0382166107a15760405162461bcd60e51b815260040180806020018281038252602c815260200180612811602c913960400191505060405180910390fd5b6040516001600160a01b038316907fd8dc9578ceae094520aff2ba139a77dd24473034f8dbc74d85f6b02768c3377990600090a26107e0600183611b65565b90505b919050565b60006107f46001611b83565b905090565b600660209081526000928352604080842090915290825290205481565b61081e611b61565b6001600160a01b031661082f6108dc565b6001600160a01b031614610878576040805162461bcd60e51b815260206004820181905260248201526000805160206128d7833981519152604482015290519081900360640190fd5b600080546040516001600160a01b03909116907f8be0079c531659141344cd1fd0a4f28419497f9722a3daafe3b4186f6b6457e0908390a3600080546001600160a01b0319169055565b6000806003805460ff16908111156108d657fe5b14905090565b6000546001600160a01b031690565b6108f3611b61565b6001600160a01b03166109046108dc565b6001600160a01b03161461094d576040805162461bcd60e51b815260206004820181905260248201526000805160206128d7833981519152604482015290519081900360640190fd5b6003805482919060ff19166001838381111561096557fe5b02179055507f236ea21d111c4b50186bc38b75c922aabc94eb8a2826dd16321dd805e3fd7eee8160405161099991906125f1565b60405180910390a150565b60046020526000908152604090208054600182015460029092015460ff8083169361010090930416919084565b6109d9611b61565b6001600160a01b03166109ea6108dc565b6001600160a01b031614610a33576040805162461bcd60e51b815260206004820181905260248201526000805160206128d7833981519152604482015290519081900360640190fd5b8051825114610a545760405162461bcd60e51b8152600401610199906126fb565b60005b8251811015610b6d5760046000848381518110610a7057fe5b6020908102919091018101516001600160a01b031682528101919091526040016000205460ff16610ab35760405162461bcd60e51b815260040161019990612723565b818181518110610abf57fe5b602002602001015160046000858481518110610ad757fe5b60200260200101516001600160a01b03166001600160a01b03168152602001908152602001600020600101819055507f7701252c9f27dee26918005a63d77270b4e89bde7984a89bdf4b0b7c9c2776b9838281518110610b3357fe5b6020026020010151838381518110610b4757fe5b6020026020010151604051610b5d9291906125b0565b60405180910390a1600101610a57565b505050565b610b7a611b61565b6001600160a01b0316610b8b6108dc565b6001600160a01b031614610bd4576040805162461bcd60e51b815260206004820181905260248201526000805160206128d7833981519152604482015290519081900360640190fd5b825160095460009067ffffffffffffffff81118015610bf257600080fd5b50604051908082528060200260200182016040528015610c1c578160200160208202803683370190505b50905060005b82811015610e26576000858281518110610c3857fe5b602002602001015190506000858381518110610c5057fe5b602002602001015190508051825114610c7b5760405162461bcd60e51b8152600401610199906126fb565b60005b8251811015610e1b57818181518110610c9357fe5b6020026020010151600660008b8781518110610cab57fe5b60200260200101516001600160a01b03166001600160a01b031681526020019081526020016000206000858481518110610ce157fe5b60200260200101516001600160a01b03166001600160a01b0316815260200190815260200160002081905550600060046000858481518110610d1f57fe5b60200260200101516001600160a01b03166001600160a01b03168152602001908152602001600020600201549050610d86838381518110610d5c57fe5b6020026020010151878381518110610d7057fe5b6020026020010151611b8e90919063ffffffff16565b868281518110610d9257fe5b6020026020010181815250507f80a1c669936df5508eab7f539d2913ff4142eb7880616f2df4beee6e83e91b358a8681518110610dcb57fe5b6020026020010151858481518110610ddf57fe5b6020026020010151858581518110610df357fe5b6020026020010151604051610e0a93929190612571565b60405180910390a150600101610c7e565b505050600101610c22565b5060005b600954811015610f455760006004600060098481548110610e4757fe5b60009182526020808320909101546001600160a01b03168352820192909252604001902060020154600980549192509083908110610e8157fe5b6000918252602090912001546040516370a0823160e01b81526001600160a01b03909116906370a0823190610eba90309060040161255d565b60206040518083038186803b158015610ed257600080fd5b505afa158015610ee6573d6000803e3d6000fd5b505050506040513d601f19601f82011682018060405250810190610f0a9190612545565b838281518110610f1657fe5b60200260200101511115610f3c5760405162461bcd60e51b81526004016101999061267e565b50600101610e2a565b505050505050565b610f55611b61565b6001600160a01b0316610f666108dc565b6001600160a01b031614610faf576040805162461bcd60e51b815260206004820181905260248201526000805160206128d7833981519152604482015290519081900360640190fd5b8051825114610fd05760405162461bcd60e51b8152600401610199906126fb565b60005b8251811015610b6d57818181518110610fe857fe5b60200260200101516005600085848151811061100057fe5b60200260200101516001600160a01b03166001600160a01b0316815260200190815260200160002060006101000a81548160ff0219169083151502179055507f0a915e652c19cda0ac2f707ba1cb81df8996d4508f603490118a91c316eab1cc83828151811061106c57fe5b602002602001015183838151811061108057fe5b6020026020010151604051611096929190612595565b60405180910390a1600101610fd3565b600981815481106110b657600080fd5b6000918252602090912001546001600160a01b0316905081565b60006110da611b61565b6001600160a01b03166110eb6108dc565b6001600160a01b031614611134576040805162461bcd60e51b815260206004820181905260248201526000805160206128d7833981519152604482015290519081900360640190fd5b6001600160a01b0382166111795760405162461bcd60e51b815260040180806020018281038252602c8152602001806128ab602c913960400191505060405180910390fd5b6040516001600160a01b038316907ff63eb610adad478002288c0957a6037ba30c916a12eb8b9fc01fed014f1dc15790600090a26107e0600183611be8565b60006107e0600183611bfd565b6111cd611b61565b6001600160a01b03166111de6108dc565b6001600160a01b031614611227576040805162461bcd60e51b815260206004820181905260248201526000805160206128d7833981519152604482015290519081900360640190fd5b80518251146112485760405162461bcd60e51b8152600401610199906126fb565b60005b8251811015610b6d576004600084838151811061126457fe5b6020908102919091018101516001600160a01b031682528101919091526040016000205460ff166112a75760405162461bcd60e51b815260040161019990612723565b8181815181106112b357fe5b6020026020010151600460008584815181106112cb57fe5b60200260200101516001600160a01b03166001600160a01b0316815260200190815260200160002060000160016101000a81548160ff0219169083151502179055507fe56fb831eb6e613e8914b7f5bbb52481f9174d8397cfea104b264676465df2d983828151811061133a57fe5b602002602001015183838151811061134e57fe5b6020026020010151604051611364929190612595565b60405180910390a160010161124b565b60035460ff1681565b611385611b61565b6001600160a01b03166113966108dc565b6001600160a01b0316146113df576040805162461bcd60e51b815260206004820181905260248201526000805160206128d7833981519152604482015290519081900360640190fd5b80518251146114005760405162461bcd60e51b8152600401610199906126fb565b815160005b818110156115cb576004600085838151811061141d57fe5b6020908102919091018101516001600160a01b031682528101919091526040016000205460ff16156114615760405162461bcd60e51b815260040161019990612658565b604051806080016040528060011515815260200160011515815260200184838151811061148a57fe5b602002602001015181526020018260075401815250600460008684815181106114af57fe5b6020908102919091018101516001600160a01b03168252818101929092526040908101600020835181549385015115156101000261ff001991151560ff1990951694909417169290921782558201516001820155606090910151600290910155835184908290811061151d57fe5b60200260200101516001600160a01b03167f865db32d629b778510d2a2bd16751d214bd4a78253e6670dcebb9d1e5e3d632784838151811061155b57fe5b602002602001015160405161157091906127c5565b60405180910390a2600984828151811061158657fe5b60209081029190910181015182546001808201855560009485529290932090920180546001600160a01b0319166001600160a01b039093169290921790915501611405565b506007805490910190555050565b6115e2336111b8565b611633576040805162461bcd60e51b815260206004820152601c60248201527f63616c6c6572206973206e6f7420746865207065726d697373696f6e00000000604482015290519081900360640190fd5b6040516370a0823160e01b815282906001600160a01b038516906370a082319061166190309060040161255d565b60206040518083038186803b15801561167957600080fd5b505afa15801561168d573d6000803e3d6000fd5b505050506040513d601f19601f820116820180604052508101906116b19190612545565b10156116cf5760405162461bcd60e51b81526004016101999061267e565b610b6d6001600160a01b0384168284611c12565b6116eb611b61565b6001600160a01b03166116fc6108dc565b6001600160a01b031614611745576040805162461bcd60e51b815260206004820181905260248201526000805160206128d7833981519152604482015290519081900360640190fd5b6001600160a01b03811661178a5760405162461bcd60e51b815260040180806020018281038252602681526020018061285f6026913960400191505060405180910390fd5b600080546040516001600160a01b03808516939216917f8be0079c531659141344cd1fd0a4f28419497f9722a3daafe3b4186f6b6457e091a3600080546001600160a01b0319166001600160a01b0392909216919091179055565b818160026003805460ff16908111156117fa57fe5b146118175760405162461bcd60e51b815260040161019990612770565b3360009081526006602090815260408083206001600160a01b038616845290915290205481111561184757600080fd5b6040516370a0823160e01b815281906001600160a01b038416906370a082319061187590309060040161255d565b60206040518083038186803b15801561188d57600080fd5b505afa1580156118a1573d6000803e3d6000fd5b505050506040513d601f19601f820116820180604052508101906118c59190612545565b10156118e35760405162461bcd60e51b81526004016101999061262d565b3360009081526006602090815260408083206001600160a01b03881684529091529020546119119084611c64565b3360009081526006602090815260408083206001600160a01b038981168086529190935292209290925560085490911614156119dc57600854604051632e1a7d4d60e01b81526001600160a01b0390911690632e1a7d4d906119779086906004016127c5565b600060405180830381600087803b15801561199157600080fd5b505af11580156119a5573d6000803e3d6000fd5b505060405133925085156108fc02915085906000818181858888f193505050501580156119d6573d6000803e3d6000fd5b506119f0565b6119f06001600160a01b0385163385611c12565b836001600160a01b0316336001600160a01b03167f9b1bfa7fa9ee420a16e124f794c35ac9f90472acc99140eb2f6447c714cad8eb856040516106db91906127c5565b6000611a3d611b61565b6001600160a01b0316611a4e6108dc565b6001600160a01b031614611a97576040805162461bcd60e51b815260206004820181905260248201526000805160206128d7833981519152604482015290519081900360640190fd5b6001611aa16107e8565b03821115611af6576040805162461bcd60e51b815260206004820152601d60248201527f4d756c7469706c653a20696e646578206f7574206f6620626f756e6473000000604482015290519081900360640190fd5b6107e0600183611cc1565b604080516001600160a01b0380861660248301528416604482015260648082018490528251808303909101815260849091019091526020810180516001600160e01b03166323b872dd60e01b179052611b5b908590611ccd565b50505050565b3390565b6000611b7a836001600160a01b038416611d7e565b90505b92915050565b60006107e082611dc8565b600082820183811015611b7a576040805162461bcd60e51b815260206004820152601b60248201527f536166654d6174683a206164646974696f6e206f766572666c6f770000000000604482015290519081900360640190fd5b6000611b7a836001600160a01b038416611dcc565b6000611b7a836001600160a01b038416611e92565b604080516001600160a01b038416602482015260448082018490528251808303909101815260649091019091526020810180516001600160e01b031663a9059cbb60e01b179052610b6d908490611ccd565b600082821115611cbb576040805162461bcd60e51b815260206004820152601e60248201527f536166654d6174683a207375627472616374696f6e206f766572666c6f770000604482015290519081900360640190fd5b50900390565b6000611b7a8383611eaa565b6000611d22826040518060400160405280602081526020017f5361666545524332303a206c6f772d6c6576656c2063616c6c206661696c6564815250856001600160a01b0316611f0e9092919063ffffffff16565b805190915015610b6d57808060200190516020811015611d4157600080fd5b5051610b6d5760405162461bcd60e51b815260040180806020018281038252602a8152602001806128f7602a913960400191505060405180910390fd5b6000611d8a8383611e92565b611dc057508154600181810184556000848152602080822090930184905584548482528286019093526040902091909155611b7d565b506000611b7d565b5490565b60008181526001830160205260408120548015611e885783546000198083019190810190600090879083908110611dff57fe5b9060005260206000200154905080876000018481548110611e1c57fe5b600091825260208083209091019290925582815260018981019092526040902090840190558654879080611e4c57fe5b60019003818190600052602060002001600090559055866001016000878152602001908152602001600020600090556001945050505050611b7d565b6000915050611b7d565b60009081526001919091016020526040902054151590565b81546000908210611eec5760405162461bcd60e51b815260040180806020018281038252602281526020018061283d6022913960400191505060405180910390fd5b826000018281548110611efb57fe5b9060005260206000200154905092915050565b6060611f1d8484600085611f27565b90505b9392505050565b606082471015611f685760405162461bcd60e51b81526004018080602001828103825260268152602001806128856026913960400191505060405180910390fd5b611f7185612082565b611fc2576040805162461bcd60e51b815260206004820152601d60248201527f416464726573733a2063616c6c20746f206e6f6e2d636f6e7472616374000000604482015290519081900360640190fd5b600080866001600160a01b031685876040518082805190602001908083835b602083106120005780518252601f199092019160209182019101611fe1565b6001836020036101000a03801982511681845116808217855250505050505090500191505060006040518083038185875af1925050503d8060008114612062576040519150601f19603f3d011682016040523d82523d6000602084013e612067565b606091505b5091509150612077828286612088565b979650505050505050565b3b151590565b60608315612097575081611f20565b8251156120a75782518084602001fd5b8160405162461bcd60e51b81526004018080602001828103825283818151815260200191508051906020019080838360005b838110156120f15781810151838201526020016120d9565b50505050905090810190601f16801561211e5780820380516001836020036101000a031916815260200191505b509250505060405180910390fd5b80356001600160a01b03811681146107e357600080fd5b600082601f830112612153578081fd5b81356020612168612163836127f2565b6127ce565b8281528181019085830183850287018401881015612184578586fd5b855b858110156121a9576121978261212c565b84529284019290840190600101612186565b5090979650505050505050565b600082601f8301126121c6578081fd5b813560206121d6612163836127f2565b82815281810190858301855b858110156121a9576121f9898684358b010161220b565b845292840192908401906001016121e2565b600082601f83011261221b578081fd5b8135602061222b612163836127f2565b8281528181019085830183850287018401881015612247578586fd5b855b858110156121a957813584529284019290840190600101612249565b600060208284031215612276578081fd5b611b7a8261212c565b60008060408385031215612291578081fd5b61229a8361212c565b91506122a86020840161212c565b90509250929050565b600080604083850312156122c3578182fd5b6122cc8361212c565b946020939093013593505050565b6000806000606084860312156122ee578081fd5b6122f78461212c565b92506020840135915061230c6040850161212c565b90509250925092565b600080600060608486031215612329578283fd5b833567ffffffffffffffff80821115612340578485fd5b61234c87838801612143565b9450602091508186013581811115612362578485fd5b8601601f81018813612372578485fd5b8035612380612163826127f2565b81815284810190838601885b848110156123b5576123a38d898435890101612143565b8452928701929087019060010161238c565b509097505050506040870135925050808211156123d0578283fd5b506123dd868287016121b6565b9150509250925092565b600080604083850312156123f9578182fd5b823567ffffffffffffffff80821115612410578384fd5b61241c86838701612143565b9350602091508185013581811115612432578384fd5b85019050601f81018613612444578283fd5b8035612452612163826127f2565b81815283810190838501858402850186018a101561246e578687fd5b8694505b8385101561249d5780358015158114612489578788fd5b835260019490940193918501918501612472565b5080955050505050509250929050565b600080604083850312156124bf578182fd5b823567ffffffffffffffff808211156124d6578384fd5b6124e286838701612143565b935060208501359150808211156124f7578283fd5b506125048582860161220b565b9150509250929050565b60006020828403121561251f578081fd5b813560048110611b7a578182fd5b60006020828403121561253e578081fd5b5035919050565b600060208284031215612556578081fd5b5051919050565b6001600160a01b0391909116815260200190565b6001600160a01b039384168152919092166020820152604081019190915260600190565b6001600160a01b039290921682521515602082015260400190565b6001600160a01b03929092168252602082015260400190565b901515815260200190565b931515845291151560208401526040830152606082015260800190565b60208101600483106125ff57fe5b91905290565b6020808252600e908201526d1393d50815d212551148131254d560921b604082015260600190565b6020808252601190820152701393d508115393d551d208105353d55395607a1b604082015260600190565b6020808252600c908201526b10531491505116481253925560a21b604082015260600190565b60208082526010908201526f4e4f5420454e4f554748204d4f4e455960801b604082015260600190565b602080825260169082015275125395905312510811115413d4d25508105353d5539560521b604082015260600190565b6020808252600990820152684e6f7420574554483960b81b604082015260600190565b6020808252600e908201526d12539590531251081193d493505560921b604082015260600190565b6020808252600890820152671393d5081253925560c21b604082015260600190565b602080825260119082015270494e56414c4944204554482056414c554560781b604082015260600190565b60208082526012908201527143414e4e4f54204445504f534954204e4f5760701b604082015260600190565b6020808252600f908201526e4e4f5420535550504f5254204e4f5760881b604082015260600190565b90815260200190565b60405181810167ffffffffffffffff811182821017156127ea57fe5b604052919050565b600067ffffffffffffffff82111561280657fe5b506020908102019056fe4d756c7469706c653a205f6164645065726d697373696f6e20697320746865207a65726f2061646472657373456e756d657261626c655365743a20696e646578206f7574206f6620626f756e64734f776e61626c653a206e6577206f776e657220697320746865207a65726f2061646472657373416464726573733a20696e73756666696369656e742062616c616e636520666f722063616c6c4d756c7469706c653a205f64656c5065726d697373696f6e20697320746865207a65726f20616464726573734f776e61626c653a2063616c6c6572206973206e6f7420746865206f776e65725361666545524332303a204552433230206f7065726174696f6e20646964206e6f742073756363656564a264697066735822122073650e72976062a5f6cd00d8a7512341644a11fafe9dcac66157db4f3a2250c964736f6c63430007060033",
  "linkReferences": {},
  "deployedLinkReferences": {}
}