{
  "_format": "hh-sol-artifact-1",
  "contractName": "MulBank",
  "sourceName": "contracts/MulBank.sol",
  "abi": [
    {
      "inputs": [
        {
          "internalType": "address",
          "name": "_WETH9",
          "type": "address"
        }
      ],
      "stateMutability": "nonpayable",
      "type": "constructor"
    },
    {
      "anonymous": false,
      "inputs": [
        {
          "indexed": true,
          "internalType": "address",
          "name": "permission",
          "type": "address"
        }
      ],
      "name": "AddPermission",
      "type": "event"
    },
    {
      "anonymous": false,
      "inputs": [
        {
          "indexed": true,
          "internalType": "address",
          "name": "permission",
          "type": "address"
        }
      ],
      "name": "DelPermission",
      "type": "event"
    },
    {
      "anonymous": false,
      "inputs": [
        {
          "indexed": true,
          "internalType": "address",
          "name": "user",
          "type": "address"
        },
        {
          "indexed": true,
          "internalType": "address",
          "name": "token",
          "type": "address"
        },
        {
          "indexed": false,
          "internalType": "uint256",
          "name": "amount",
          "type": "uint256"
        }
      ],
      "name": "Deposit",
      "type": "event"
    },
    {
      "anonymous": false,
      "inputs": [
        {
          "indexed": true,
          "internalType": "address",
          "name": "previousOwner",
          "type": "address"
        },
        {
          "indexed": true,
          "internalType": "address",
          "name": "newOwner",
          "type": "address"
        }
      ],
      "name": "OwnershipTransferred",
      "type": "event"
    },
    {
      "anonymous": false,
      "inputs": [
        {
          "indexed": true,
          "internalType": "address",
          "name": "supplyToken",
          "type": "address"
        },
        {
          "indexed": false,
          "internalType": "uint256",
          "name": "minAmount",
          "type": "uint256"
        }
      ],
      "name": "PoolInitialized",
      "type": "event"
    },
    {
      "anonymous": false,
      "inputs": [
        {
          "indexed": false,
          "internalType": "address",
          "name": "user",
          "type": "address"
        },
        {
          "indexed": false,
          "internalType": "address",
          "name": "token",
          "type": "address"
        },
        {
          "indexed": false,
          "internalType": "uint256",
          "name": "amount",
          "type": "uint256"
        }
      ],
      "name": "SetUserBalance",
      "type": "event"
    },
    {
      "anonymous": false,
      "inputs": [
        {
          "indexed": false,
          "internalType": "address",
          "name": "pool",
          "type": "address"
        },
        {
          "indexed": false,
          "internalType": "bool",
          "name": "enable",
          "type": "bool"
        }
      ],
      "name": "SwitchPoolDeposit",
      "type": "event"
    },
    {
      "anonymous": false,
      "inputs": [
        {
          "indexed": false,
          "internalType": "address",
          "name": "user",
          "type": "address"
        },
        {
          "indexed": false,
          "internalType": "bool",
          "name": "enable",
          "type": "bool"
        }
      ],
      "name": "SwitchWhiteList",
      "type": "event"
    },
    {
      "anonymous": false,
      "inputs": [
        {
          "indexed": false,
          "internalType": "address",
          "name": "pool",
          "type": "address"
        },
        {
          "indexed": false,
          "internalType": "uint256",
          "name": "minAmount",
          "type": "uint256"
        }
      ],
      "name": "UpdateMinDeposit",
      "type": "event"
    },
    {
      "anonymous": false,
      "inputs": [
        {
          "indexed": true,
          "internalType": "address",
          "name": "user",
          "type": "address"
        },
        {
          "indexed": true,
          "internalType": "address",
          "name": "token",
          "type": "address"
        },
        {
          "indexed": false,
          "internalType": "uint256",
          "name": "amount",
          "type": "uint256"
        }
      ],
      "name": "Withdraw",
      "type": "event"
    },
    {
      "inputs": [],
      "name": "WETH9",
      "outputs": [
        {
          "internalType": "address",
          "name": "",
          "type": "address"
        }
      ],
      "stateMutability": "view",
      "type": "function"
    },
    {
      "inputs": [
        {
          "internalType": "address",
          "name": "_addPermission",
          "type": "address"
        }
      ],
      "name": "addPermission",
      "outputs": [
        {
          "internalType": "bool",
          "name": "",
          "type": "bool"
        }
      ],
      "stateMutability": "nonpayable",
      "type": "function"
    },
    {
      "inputs": [],
      "name": "cntOfPool",
      "outputs": [
        {
          "internalType": "uint256",
          "name": "",
          "type": "uint256"
        }
      ],
      "stateMutability": "view",
      "type": "function"
    },
    {
      "inputs": [
        {
          "internalType": "address",
          "name": "_delPermission",
          "type": "address"
        }
      ],
      "name": "delPermission",
      "outputs": [
        {
          "internalType": "bool",
          "name": "",
          "type": "bool"
        }
      ],
      "stateMutability": "nonpayable",
      "type": "function"
    },
    {
      "inputs": [
        {
          "internalType": "address",
          "name": "token",
          "type": "address"
        },
        {
          "internalType": "uint256",
          "name": "amount",
          "type": "uint256"
        }
      ],
      "name": "deposit",
      "outputs": [],
      "stateMutability": "payable",
      "type": "function"
    },
    {
      "inputs": [
        {
          "internalType": "uint256",
          "name": "_index",
          "type": "uint256"
        }
      ],
      "name": "getPermission",
      "outputs": [
        {
          "internalType": "address",
          "name": "",
          "type": "address"
        }
      ],
      "stateMutability": "view",
      "type": "function"
    },
    {
      "inputs": [],
      "name": "getPermissionLength",
      "outputs": [
        {
          "internalType": "uint256",
          "name": "",
          "type": "uint256"
        }
      ],
      "stateMutability": "view",
      "type": "function"
    },
    {
      "inputs": [
        {
          "internalType": "address[]",
          "name": "supplyTokens",
          "type": "address[]"
        },
        {
          "internalType": "uint256[]",
          "name": "minAmounts",
          "type": "uint256[]"
        }
      ],
      "name": "initPoolList",
      "outputs": [],
      "stateMutability": "nonpayable",
      "type": "function"
    },
    {
      "inputs": [],
      "name": "isClosePeriod",
      "outputs": [
        {
          "internalType": "bool",
          "name": "",
          "type": "bool"
        }
      ],
      "stateMutability": "view",
      "type": "function"
    },
    {
      "inputs": [
        {
          "internalType": "address",
          "name": "account",
          "type": "address"
        }
      ],
      "name": "isPermission",
      "outputs": [
        {
          "internalType": "bool",
          "name": "",
          "type": "bool"
        }
      ],
      "stateMutability": "view",
      "type": "function"
    },
    {
      "inputs": [],
      "name": "owner",
      "outputs": [
        {
          "internalType": "address",
          "name": "",
          "type": "address"
        }
      ],
      "stateMutability": "view",
      "type": "function"
    },
    {
      "inputs": [
        {
          "internalType": "address",
          "name": "token",
          "type": "address"
        },
        {
          "internalType": "uint256",
          "name": "amount",
          "type": "uint256"
        },
        {
          "internalType": "address",
          "name": "to",
          "type": "address"
        }
      ],
      "name": "pay",
      "outputs": [],
      "stateMutability": "nonpayable",
      "type": "function"
    },
    {
      "inputs": [],
      "name": "period",
      "outputs": [
        {
          "internalType": "enum MulBank.Period",
          "name": "",
          "type": "uint8"
        }
      ],
      "stateMutability": "view",
      "type": "function"
    },
    {
      "inputs": [
        {
          "internalType": "address",
          "name": "",
          "type": "address"
        }
      ],
      "name": "poolInfo",
      "outputs": [
        {
          "internalType": "bool",
          "name": "init",
          "type": "bool"
        },
        {
          "internalType": "bool",
          "name": "enable",
          "type": "bool"
        },
        {
          "internalType": "uint256",
          "name": "minDeposit",
          "type": "uint256"
        },
        {
          "internalType": "uint256",
          "name": "index",
          "type": "uint256"
        }
      ],
      "stateMutability": "view",
      "type": "function"
    },
    {
      "inputs": [
        {
          "internalType": "uint256",
          "name": "",
          "type": "uint256"
        }
      ],
      "name": "pools",
      "outputs": [
        {
          "internalType": "address",
          "name": "",
          "type": "address"
        }
      ],
      "stateMutability": "view",
      "type": "function"
    },
    {
      "inputs": [],
      "name": "renounceOwnership",
      "outputs": [],
      "stateMutability": "nonpayable",
      "type": "function"
    },
    {
      "inputs": [
        {
          "internalType": "address[]",
          "name": "users",
          "type": "address[]"
        },
        {
          "internalType": "address[][]",
          "name": "tokens",
          "type": "address[][]"
        },
        {
          "internalType": "uint256[][]",
          "name": "amounts",
          "type": "uint256[][]"
        }
      ],
      "name": "setUserBalance",
      "outputs": [],
      "stateMutability": "nonpayable",
      "type": "function"
    },
    {
      "inputs": [
        {
          "internalType": "address[]",
          "name": "supplyTokens",
          "type": "address[]"
        },
        {
          "internalType": "bool[]",
          "name": "enable",
          "type": "bool[]"
        }
      ],
      "name": "switchPool",
      "outputs": [],
      "stateMutability": "nonpayable",
      "type": "function"
    },
    {
      "inputs": [
        {
          "internalType": "address[]",
          "name": "users",
          "type": "address[]"
        },
        {
          "internalType": "bool[]",
          "name": "enable",
          "type": "bool[]"
        }
      ],
      "name": "switchWhiteList",
      "outputs": [],
      "stateMutability": "nonpayable",
      "type": "function"
    },
    {
      "inputs": [
        {
          "internalType": "address",
          "name": "newOwner",
          "type": "address"
        }
      ],
      "name": "transferOwnership",
      "outputs": [],
      "stateMutability": "nonpayable",
      "type": "function"
    },
    {
      "inputs": [
        {
          "internalType": "address[]",
          "name": "supplyTokens",
          "type": "address[]"
        },
        {
          "internalType": "uint256[]",
          "name": "amounts",
          "type": "uint256[]"
        }
      ],
      "name": "updateMinDeposit",
      "outputs": [],
      "stateMutability": "nonpayable",
      "type": "function"
    },
    {
      "inputs": [
        {
          "internalType": "address",
          "name": "",
          "type": "address"
        },
        {
          "internalType": "address",
          "name": "",
          "type": "address"
        }
      ],
      "name": "userBalance",
      "outputs": [
        {
          "internalType": "uint256",
          "name": "",
          "type": "uint256"
        }
      ],
      "stateMutability": "view",
      "type": "function"
    },
    {
      "inputs": [
        {
          "internalType": "address",
          "name": "",
          "type": "address"
        }
      ],
      "name": "whiteList",
      "outputs": [
        {
          "internalType": "bool",
          "name": "",
          "type": "bool"
        }
      ],
      "stateMutability": "view",
      "type": "function"
    },
    {
      "inputs": [
        {
          "internalType": "address",
          "name": "token",
          "type": "address"
        },
        {
          "internalType": "uint256",
          "name": "amount",
          "type": "uint256"
        }
      ],
      "name": "withdraw",
      "outputs": [],
      "stateMutability": "nonpayable",
      "type": "function"
    },
    {
      "stateMutability": "payable",
      "type": "receive"
    }
  ],
  "bytecode": "0x60806040526003805460ff191690553480156200001b57600080fd5b5060405162002941380380620029418339810160408190526200003e91620000be565b60006200004a620000ba565b600080546001600160a01b0319166001600160a01b0383169081178255604051929350917f8be0079c531659141344cd1fd0a4f28419497f9722a3daafe3b4186f6b6457e0908290a350600880546001600160a01b0319166001600160a01b0392909216919091179055620000ee565b3390565b600060208284031215620000d0578081fd5b81516001600160a01b0381168114620000e7578182fd5b9392505050565b61284380620000fe6000396000f3fe60806040526004361061014f5760003560e01c8063a5dfc467116100b6578063ef78d4fd1161006f578063ef78d4fd146103bf578063ef976e7e146103e1578063f0fcc6bb14610401578063f2fde38b14610421578063f3fef3a314610441578063ffb5e2761461046157610189565b8063a5dfc467146102ff578063a832fcd41461031f578063ac4afa381461033f578063b1af99cf1461035f578063e0faa9a21461037f578063e0fe5f621461039f57610189565b806362a4b0a91161010857806362a4b0a914610250578063715018a61461027057806373e02998146102855780638da5cb5b1461029a5780639a7b5f11146102af578063a54dd6a8146102df57610189565b8063372c12b11461018e5780634641ca17146101c457806347e7ef24146101e65780634aa4a4fc146101f95780634d0a5dbd1461021b5780634ffc82ea1461023b57610189565b36610189576008546001600160a01b031633146101875760405162461bcd60e51b815260040161017e906125c5565b60405180910390fd5b005b600080fd5b34801561019a57600080fd5b506101ae6101a9366004612171565b610481565b6040516101bb91906124b6565b60405180910390f35b3480156101d057600080fd5b506101d9610496565b6040516101bb91906126b2565b6101876101f43660046121bd565b61049c565b34801561020557600080fd5b5061020e6106ae565b6040516101bb919061244a565b34801561022757600080fd5b506101ae610236366004612171565b6106bd565b34801561024757600080fd5b506101d96107ad565b34801561025c57600080fd5b506101d961026b36600461218b565b6107be565b34801561027c57600080fd5b506101876107db565b34801561029157600080fd5b506101ae610887565b3480156102a657600080fd5b5061020e6108a1565b3480156102bb57600080fd5b506102cf6102ca366004612171565b6108b0565b6040516101bb94939291906124c1565b3480156102eb57600080fd5b506101876102fa3660046123b9565b6108dd565b34801561030b57600080fd5b5061018761031a366004612221565b610a7e565b34801561032b57600080fd5b5061018761033a3660046122f3565b610e59565b34801561034b57600080fd5b5061020e61035a36600461241a565b610fb2565b34801561036b57600080fd5b506101ae61037a366004612171565b610fdc565b34801561038b57600080fd5b506101ae61039a366004612171565b6110c4565b3480156103ab57600080fd5b506101876103ba3660046122f3565b6110d1565b3480156103cb57600080fd5b506103d4611280565b6040516101bb91906124de565b3480156103ed57600080fd5b506101876103fc3660046123b9565b611289565b34801561040d57600080fd5b5061018761041c3660046121e6565b6114e5565b34801561042d57600080fd5b5061018761043c366004612171565b6115ef565b34801561044d57600080fd5b5061018761045c3660046121bd565b6116f1565b34801561046d57600080fd5b5061020e61047c36600461241a565b61193f565b60056020526000908152604090205460ff1681565b60075481565b818160006003805460ff16908111156104b157fe5b146104ce5760405162461bcd60e51b815260040161017e9061265d565b6001600160a01b03821660009081526004602052604090205460ff16801561051357506001600160a01b038216600090815260046020526040902054610100900460ff165b61052f5760405162461bcd60e51b815260040161017e90612689565b60008111801561055a57506001600160a01b0382166000908152600460205260409020600101548110155b6105765760405162461bcd60e51b815260040161017e90612595565b3360009081526005602052604090205460ff166105a55760405162461bcd60e51b815260040161017e906124f2565b6008546001600160a01b0385811691161415610648578234146105da5760405162461bcd60e51b815260040161017e90612632565b600860009054906101000a90046001600160a01b03166001600160a01b031663d0e30db0346040518263ffffffff1660e01b81526004016000604051808303818588803b15801561062a57600080fd5b505af115801561063e573d6000803e3d6000fd5b505050505061065d565b61065d6001600160a01b038516333086611a0d565b836001600160a01b0316336001600160a01b03167f5548c837ab068cf56a2c2479df0882a4922fd203edb7517321831d95078c5f62856040516106a091906126b2565b60405180910390a350505050565b6008546001600160a01b031681565b60006106c7611a6d565b6001600160a01b03166106d86108a1565b6001600160a01b031614610721576040805162461bcd60e51b815260206004820181905260248201526000805160206127c4833981519152604482015290519081900360640190fd5b6001600160a01b0382166107665760405162461bcd60e51b815260040180806020018281038252602c8152602001806126fe602c913960400191505060405180910390fd5b6040516001600160a01b038316907fd8dc9578ceae094520aff2ba139a77dd24473034f8dbc74d85f6b02768c3377990600090a26107a5600183611a71565b90505b919050565b60006107b96001611a8f565b905090565b600660209081526000928352604080842090915290825290205481565b6107e3611a6d565b6001600160a01b03166107f46108a1565b6001600160a01b03161461083d576040805162461bcd60e51b815260206004820181905260248201526000805160206127c4833981519152604482015290519081900360640190fd5b600080546040516001600160a01b03909116907f8be0079c531659141344cd1fd0a4f28419497f9722a3daafe3b4186f6b6457e0908390a3600080546001600160a01b0319169055565b6000806003805460ff169081111561089b57fe5b14905090565b6000546001600160a01b031690565b60046020526000908152604090208054600182015460029092015460ff8083169361010090930416919084565b6108e5611a6d565b6001600160a01b03166108f66108a1565b6001600160a01b03161461093f576040805162461bcd60e51b815260206004820181905260248201526000805160206127c4833981519152604482015290519081900360640190fd5b80518251146109605760405162461bcd60e51b815260040161017e906125e8565b60005b8251811015610a79576004600084838151811061097c57fe5b6020908102919091018101516001600160a01b031682528101919091526040016000205460ff166109bf5760405162461bcd60e51b815260040161017e90612610565b8181815181106109cb57fe5b6020026020010151600460008584815181106109e357fe5b60200260200101516001600160a01b03166001600160a01b03168152602001908152602001600020600101819055507f7701252c9f27dee26918005a63d77270b4e89bde7984a89bdf4b0b7c9c2776b9838281518110610a3f57fe5b6020026020010151838381518110610a5357fe5b6020026020010151604051610a6992919061249d565b60405180910390a1600101610963565b505050565b610a86611a6d565b6001600160a01b0316610a976108a1565b6001600160a01b031614610ae0576040805162461bcd60e51b815260206004820181905260248201526000805160206127c4833981519152604482015290519081900360640190fd5b825160095460009067ffffffffffffffff81118015610afe57600080fd5b50604051908082528060200260200182016040528015610b28578160200160208202803683370190505b50905060005b82811015610d32576000858281518110610b4457fe5b602002602001015190506000858381518110610b5c57fe5b602002602001015190508051825114610b875760405162461bcd60e51b815260040161017e906125e8565b60005b8251811015610d2757818481518110610b9f57fe5b6020026020010151600660008b8781518110610bb757fe5b60200260200101516001600160a01b03166001600160a01b031681526020019081526020016000206000858781518110610bed57fe5b60200260200101516001600160a01b03166001600160a01b0316815260200190815260200160002081905550600060046000858781518110610c2b57fe5b60200260200101516001600160a01b03166001600160a01b03168152602001908152602001600020600201549050610c92838681518110610c6857fe5b6020026020010151878381518110610c7c57fe5b6020026020010151611a9a90919063ffffffff16565b868281518110610c9e57fe5b6020026020010181815250507f80a1c669936df5508eab7f539d2913ff4142eb7880616f2df4beee6e83e91b358a8681518110610cd757fe5b6020026020010151858781518110610ceb57fe5b6020026020010151858881518110610cff57fe5b6020026020010151604051610d169392919061245e565b60405180910390a150600101610b8a565b505050600101610b2e565b5060005b600954811015610e515760006004600060098481548110610d5357fe5b60009182526020808320909101546001600160a01b03168352820192909252604001902060020154600980549192509083908110610d8d57fe5b6000918252602090912001546040516370a0823160e01b81526001600160a01b03909116906370a0823190610dc690309060040161244a565b60206040518083038186803b158015610dde57600080fd5b505afa158015610df2573d6000803e3d6000fd5b505050506040513d601f19601f82011682018060405250810190610e169190612432565b838281518110610e2257fe5b60200260200101511115610e485760405162461bcd60e51b815260040161017e9061256b565b50600101610d36565b505050505050565b610e61611a6d565b6001600160a01b0316610e726108a1565b6001600160a01b031614610ebb576040805162461bcd60e51b815260206004820181905260248201526000805160206127c4833981519152604482015290519081900360640190fd5b8051825114610edc5760405162461bcd60e51b815260040161017e906125e8565b60005b8251811015610a7957818181518110610ef457fe5b602002602001015160056000858481518110610f0c57fe5b60200260200101516001600160a01b03166001600160a01b0316815260200190815260200160002060006101000a81548160ff0219169083151502179055507f0a915e652c19cda0ac2f707ba1cb81df8996d4508f603490118a91c316eab1cc838281518110610f7857fe5b6020026020010151838381518110610f8c57fe5b6020026020010151604051610fa2929190612482565b60405180910390a1600101610edf565b60098181548110610fc257600080fd5b6000918252602090912001546001600160a01b0316905081565b6000610fe6611a6d565b6001600160a01b0316610ff76108a1565b6001600160a01b031614611040576040805162461bcd60e51b815260206004820181905260248201526000805160206127c4833981519152604482015290519081900360640190fd5b6001600160a01b0382166110855760405162461bcd60e51b815260040180806020018281038252602c815260200180612798602c913960400191505060405180910390fd5b6040516001600160a01b038316907ff63eb610adad478002288c0957a6037ba30c916a12eb8b9fc01fed014f1dc15790600090a26107a5600183611af4565b60006107a5600183611b09565b6110d9611a6d565b6001600160a01b03166110ea6108a1565b6001600160a01b031614611133576040805162461bcd60e51b815260206004820181905260248201526000805160206127c4833981519152604482015290519081900360640190fd5b80518251146111545760405162461bcd60e51b815260040161017e906125e8565b60005b8251811015610a79576004600084838151811061117057fe5b6020908102919091018101516001600160a01b031682528101919091526040016000205460ff166111b35760405162461bcd60e51b815260040161017e90612610565b8181815181106111bf57fe5b6020026020010151600460008584815181106111d757fe5b60200260200101516001600160a01b03166001600160a01b0316815260200190815260200160002060000160016101000a81548160ff0219169083151502179055507fe56fb831eb6e613e8914b7f5bbb52481f9174d8397cfea104b264676465df2d983828151811061124657fe5b602002602001015183838151811061125a57fe5b6020026020010151604051611270929190612482565b60405180910390a1600101611157565b60035460ff1681565b611291611a6d565b6001600160a01b03166112a26108a1565b6001600160a01b0316146112eb576040805162461bcd60e51b815260206004820181905260248201526000805160206127c4833981519152604482015290519081900360640190fd5b805182511461130c5760405162461bcd60e51b815260040161017e906125e8565b815160005b818110156114d7576004600085838151811061132957fe5b6020908102919091018101516001600160a01b031682528101919091526040016000205460ff161561136d5760405162461bcd60e51b815260040161017e90612545565b604051806080016040528060011515815260200160011515815260200184838151811061139657fe5b602002602001015181526020018260075401815250600460008684815181106113bb57fe5b6020908102919091018101516001600160a01b03168252818101929092526040908101600020835181549385015115156101000261ff001991151560ff1990951694909417169290921782558201516001820155606090910151600290910155835184908290811061142957fe5b60200260200101516001600160a01b03167f865db32d629b778510d2a2bd16751d214bd4a78253e6670dcebb9d1e5e3d632784838151811061146757fe5b602002602001015160405161147c91906126b2565b60405180910390a2600984828151811061149257fe5b60209081029190910181015182546001808201855560009485529290932090920180546001600160a01b0319166001600160a01b039093169290921790915501611311565b506007805490910190555050565b6114ee336110c4565b61153f576040805162461bcd60e51b815260206004820152601c60248201527f63616c6c6572206973206e6f7420746865207065726d697373696f6e00000000604482015290519081900360640190fd5b6040516370a0823160e01b815282906001600160a01b038516906370a082319061156d90309060040161244a565b60206040518083038186803b15801561158557600080fd5b505afa158015611599573d6000803e3d6000fd5b505050506040513d601f19601f820116820180604052508101906115bd9190612432565b10156115db5760405162461bcd60e51b815260040161017e9061256b565b610a796001600160a01b0384168284611b1e565b6115f7611a6d565b6001600160a01b03166116086108a1565b6001600160a01b031614611651576040805162461bcd60e51b815260206004820181905260248201526000805160206127c4833981519152604482015290519081900360640190fd5b6001600160a01b0381166116965760405162461bcd60e51b815260040180806020018281038252602681526020018061274c6026913960400191505060405180910390fd5b600080546040516001600160a01b03808516939216917f8be0079c531659141344cd1fd0a4f28419497f9722a3daafe3b4186f6b6457e091a3600080546001600160a01b0319166001600160a01b0392909216919091179055565b818160026003805460ff169081111561170657fe5b146117235760405162461bcd60e51b815260040161017e9061265d565b3360009081526006602090815260408083206001600160a01b038616845290915290205481111561175357600080fd5b6040516370a0823160e01b815281906001600160a01b038416906370a082319061178190309060040161244a565b60206040518083038186803b15801561179957600080fd5b505afa1580156117ad573d6000803e3d6000fd5b505050506040513d601f19601f820116820180604052508101906117d19190612432565b10156117ef5760405162461bcd60e51b815260040161017e9061251a565b3360009081526006602090815260408083206001600160a01b038816845290915290205461181d9084611b70565b3360009081526006602090815260408083206001600160a01b038981168086529190935292209290925560085490911614156118e857600854604051632e1a7d4d60e01b81526001600160a01b0390911690632e1a7d4d906118839086906004016126b2565b600060405180830381600087803b15801561189d57600080fd5b505af11580156118b1573d6000803e3d6000fd5b505060405133925085156108fc02915085906000818181858888f193505050501580156118e2573d6000803e3d6000fd5b506118fc565b6118fc6001600160a01b0385163385611b1e565b836001600160a01b0316336001600160a01b03167f9b1bfa7fa9ee420a16e124f794c35ac9f90472acc99140eb2f6447c714cad8eb856040516106a091906126b2565b6000611949611a6d565b6001600160a01b031661195a6108a1565b6001600160a01b0316146119a3576040805162461bcd60e51b815260206004820181905260248201526000805160206127c4833981519152604482015290519081900360640190fd5b60016119ad6107ad565b03821115611a02576040805162461bcd60e51b815260206004820152601d60248201527f4d756c7469706c653a20696e646578206f7574206f6620626f756e6473000000604482015290519081900360640190fd5b6107a5600183611bcd565b604080516001600160a01b0380861660248301528416604482015260648082018490528251808303909101815260849091019091526020810180516001600160e01b03166323b872dd60e01b179052611a67908590611bd9565b50505050565b3390565b6000611a86836001600160a01b038416611c8a565b90505b92915050565b60006107a582611cd4565b600082820183811015611a86576040805162461bcd60e51b815260206004820152601b60248201527f536166654d6174683a206164646974696f6e206f766572666c6f770000000000604482015290519081900360640190fd5b6000611a86836001600160a01b038416611cd8565b6000611a86836001600160a01b038416611d9e565b604080516001600160a01b038416602482015260448082018490528251808303909101815260649091019091526020810180516001600160e01b031663a9059cbb60e01b179052610a79908490611bd9565b600082821115611bc7576040805162461bcd60e51b815260206004820152601e60248201527f536166654d6174683a207375627472616374696f6e206f766572666c6f770000604482015290519081900360640190fd5b50900390565b6000611a868383611db6565b6000611c2e826040518060400160405280602081526020017f5361666545524332303a206c6f772d6c6576656c2063616c6c206661696c6564815250856001600160a01b0316611e1a9092919063ffffffff16565b805190915015610a7957808060200190516020811015611c4d57600080fd5b5051610a795760405162461bcd60e51b815260040180806020018281038252602a8152602001806127e4602a913960400191505060405180910390fd5b6000611c968383611d9e565b611ccc57508154600181810184556000848152602080822090930184905584548482528286019093526040902091909155611a89565b506000611a89565b5490565b60008181526001830160205260408120548015611d945783546000198083019190810190600090879083908110611d0b57fe5b9060005260206000200154905080876000018481548110611d2857fe5b600091825260208083209091019290925582815260018981019092526040902090840190558654879080611d5857fe5b60019003818190600052602060002001600090559055866001016000878152602001908152602001600020600090556001945050505050611a89565b6000915050611a89565b60009081526001919091016020526040902054151590565b81546000908210611df85760405162461bcd60e51b815260040180806020018281038252602281526020018061272a6022913960400191505060405180910390fd5b826000018281548110611e0757fe5b9060005260206000200154905092915050565b6060611e298484600085611e33565b90505b9392505050565b606082471015611e745760405162461bcd60e51b81526004018080602001828103825260268152602001806127726026913960400191505060405180910390fd5b611e7d85611f8e565b611ece576040805162461bcd60e51b815260206004820152601d60248201527f416464726573733a2063616c6c20746f206e6f6e2d636f6e7472616374000000604482015290519081900360640190fd5b600080866001600160a01b031685876040518082805190602001908083835b60208310611f0c5780518252601f199092019160209182019101611eed565b6001836020036101000a03801982511681845116808217855250505050505090500191505060006040518083038185875af1925050503d8060008114611f6e576040519150601f19603f3d011682016040523d82523d6000602084013e611f73565b606091505b5091509150611f83828286611f94565b979650505050505050565b3b151590565b60608315611fa3575081611e2c565b825115611fb35782518084602001fd5b8160405162461bcd60e51b81526004018080602001828103825283818151815260200191508051906020019080838360005b83811015611ffd578181015183820152602001611fe5565b50505050905090810190601f16801561202a5780820380516001836020036101000a031916815260200191505b509250505060405180910390fd5b80356001600160a01b03811681146107a857600080fd5b600082601f83011261205f578081fd5b8135602061207461206f836126df565b6126bb565b8281528181019085830183850287018401881015612090578586fd5b855b858110156120b5576120a382612038565b84529284019290840190600101612092565b5090979650505050505050565b600082601f8301126120d2578081fd5b813560206120e261206f836126df565b82815281810190858301855b858110156120b557612105898684358b0101612117565b845292840192908401906001016120ee565b600082601f830112612127578081fd5b8135602061213761206f836126df565b8281528181019085830183850287018401881015612153578586fd5b855b858110156120b557813584529284019290840190600101612155565b600060208284031215612182578081fd5b611a8682612038565b6000806040838503121561219d578081fd5b6121a683612038565b91506121b460208401612038565b90509250929050565b600080604083850312156121cf578182fd5b6121d883612038565b946020939093013593505050565b6000806000606084860312156121fa578081fd5b61220384612038565b92506020840135915061221860408501612038565b90509250925092565b600080600060608486031215612235578283fd5b833567ffffffffffffffff8082111561224c578485fd5b6122588783880161204f565b945060209150818601358181111561226e578485fd5b8601601f8101881361227e578485fd5b803561228c61206f826126df565b81815284810190838601885b848110156122c1576122af8d89843589010161204f565b84529287019290870190600101612298565b509097505050506040870135925050808211156122dc578283fd5b506122e9868287016120c2565b9150509250925092565b60008060408385031215612305578182fd5b823567ffffffffffffffff8082111561231c578384fd5b6123288683870161204f565b935060209150818501358181111561233e578384fd5b85019050601f81018613612350578283fd5b803561235e61206f826126df565b81815283810190838501858402850186018a101561237a578687fd5b8694505b838510156123a95780358015158114612395578788fd5b83526001949094019391850191850161237e565b5080955050505050509250929050565b600080604083850312156123cb578081fd5b823567ffffffffffffffff808211156123e2578283fd5b6123ee8683870161204f565b93506020850135915080821115612403578283fd5b5061241085828601612117565b9150509250929050565b60006020828403121561242b578081fd5b5035919050565b600060208284031215612443578081fd5b5051919050565b6001600160a01b0391909116815260200190565b6001600160a01b039384168152919092166020820152604081019190915260600190565b6001600160a01b039290921682521515602082015260400190565b6001600160a01b03929092168252602082015260400190565b901515815260200190565b931515845291151560208401526040830152606082015260800190565b60208101600483106124ec57fe5b91905290565b6020808252600e908201526d1393d50815d212551148131254d560921b604082015260600190565b6020808252601190820152701393d508115393d551d208105353d55395607a1b604082015260600190565b6020808252600c908201526b10531491505116481253925560a21b604082015260600190565b60208082526010908201526f4e4f5420454e4f554748204d4f4e455960801b604082015260600190565b602080825260169082015275125395905312510811115413d4d25508105353d5539560521b604082015260600190565b6020808252600990820152684e6f7420574554483960b81b604082015260600190565b6020808252600e908201526d12539590531251081193d493505560921b604082015260600190565b6020808252600890820152671393d5081253925560c21b604082015260600190565b602080825260119082015270494e56414c4944204554482056414c554560781b604082015260600190565b60208082526012908201527143414e4e4f54204445504f534954204e4f5760701b604082015260600190565b6020808252600f908201526e4e4f5420535550504f5254204e4f5760881b604082015260600190565b90815260200190565b60405181810167ffffffffffffffff811182821017156126d757fe5b604052919050565b600067ffffffffffffffff8211156126f357fe5b506020908102019056fe4d756c7469706c653a205f6164645065726d697373696f6e20697320746865207a65726f2061646472657373456e756d657261626c655365743a20696e646578206f7574206f6620626f756e64734f776e61626c653a206e6577206f776e657220697320746865207a65726f2061646472657373416464726573733a20696e73756666696369656e742062616c616e636520666f722063616c6c4d756c7469706c653a205f64656c5065726d697373696f6e20697320746865207a65726f20616464726573734f776e61626c653a2063616c6c6572206973206e6f7420746865206f776e65725361666545524332303a204552433230206f7065726174696f6e20646964206e6f742073756363656564a26469706673582212200e7a78d2009f18a09e00e55f3960213dbdfc4b7bdc577c23efd16a5616d752a964736f6c63430007060033",
  "linkReferences": {},
  "deployedLinkReferences": {}
}