{
  "_format": "hh-sol-artifact-1",
  "contractName": "MulBank",
  "sourceName": "contracts/MulBank.sol",
  "abi": [
    {
      "inputs": [
        {
          "internalType": "address",
          "name": "_WETH9",
          "type": "address"
        }
      ],
      "stateMutability": "nonpayable",
      "type": "constructor"
    },
    {
      "anonymous": false,
      "inputs": [
        {
          "indexed": true,
          "internalType": "address",
          "name": "permission",
          "type": "address"
        }
      ],
      "name": "AddPermission",
      "type": "event"
    },
    {
      "anonymous": false,
      "inputs": [
        {
          "indexed": true,
          "internalType": "address",
          "name": "permission",
          "type": "address"
        }
      ],
      "name": "DelPermission",
      "type": "event"
    },
    {
      "anonymous": false,
      "inputs": [
        {
          "indexed": true,
          "internalType": "address",
          "name": "user",
          "type": "address"
        },
        {
          "indexed": true,
          "internalType": "address",
          "name": "token",
          "type": "address"
        },
        {
          "indexed": false,
          "internalType": "uint256",
          "name": "amount",
          "type": "uint256"
        },
        {
          "indexed": false,
          "internalType": "uint256",
          "name": "share",
          "type": "uint256"
        }
      ],
      "name": "Deposit",
      "type": "event"
    },
    {
      "anonymous": false,
      "inputs": [
        {
          "indexed": true,
          "internalType": "address",
          "name": "previousOwner",
          "type": "address"
        },
        {
          "indexed": true,
          "internalType": "address",
          "name": "newOwner",
          "type": "address"
        }
      ],
      "name": "OwnershipTransferred",
      "type": "event"
    },
    {
      "anonymous": false,
      "inputs": [
        {
          "indexed": true,
          "internalType": "address",
          "name": "supplyToken",
          "type": "address"
        },
        {
          "indexed": false,
          "internalType": "address",
          "name": "shareToken",
          "type": "address"
        }
      ],
      "name": "PoolInitialized",
      "type": "event"
    },
    {
      "anonymous": false,
      "inputs": [
        {
          "indexed": true,
          "internalType": "address",
          "name": "user",
          "type": "address"
        },
        {
          "indexed": true,
          "internalType": "address",
          "name": "token",
          "type": "address"
        },
        {
          "indexed": false,
          "internalType": "uint256",
          "name": "amount",
          "type": "uint256"
        },
        {
          "indexed": false,
          "internalType": "uint256",
          "name": "share",
          "type": "uint256"
        }
      ],
      "name": "Withdraw",
      "type": "event"
    },
    {
      "inputs": [],
      "name": "WETH9",
      "outputs": [
        {
          "internalType": "address",
          "name": "",
          "type": "address"
        }
      ],
      "stateMutability": "view",
      "type": "function"
    },
    {
      "inputs": [
        {
          "internalType": "address",
          "name": "_addPermission",
          "type": "address"
        }
      ],
      "name": "addPermission",
      "outputs": [
        {
          "internalType": "bool",
          "name": "",
          "type": "bool"
        }
      ],
      "stateMutability": "nonpayable",
      "type": "function"
    },
    {
      "inputs": [
        {
          "internalType": "address[]",
          "name": "tokens",
          "type": "address[]"
        },
        {
          "internalType": "uint256[]",
          "name": "amounts",
          "type": "uint256[]"
        }
      ],
      "name": "addRemains",
      "outputs": [],
      "stateMutability": "nonpayable",
      "type": "function"
    },
    {
      "inputs": [
        {
          "internalType": "address",
          "name": "token",
          "type": "address"
        },
        {
          "internalType": "uint256",
          "name": "amount",
          "type": "uint256"
        },
        {
          "internalType": "address",
          "name": "to",
          "type": "address"
        }
      ],
      "name": "borrow",
      "outputs": [],
      "stateMutability": "nonpayable",
      "type": "function"
    },
    {
      "inputs": [],
      "name": "cntOfPool",
      "outputs": [
        {
          "internalType": "uint256",
          "name": "",
          "type": "uint256"
        }
      ],
      "stateMutability": "view",
      "type": "function"
    },
    {
      "inputs": [
        {
          "internalType": "address",
          "name": "_delPermission",
          "type": "address"
        }
      ],
      "name": "delPermission",
      "outputs": [
        {
          "internalType": "bool",
          "name": "",
          "type": "bool"
        }
      ],
      "stateMutability": "nonpayable",
      "type": "function"
    },
    {
      "inputs": [
        {
          "internalType": "address",
          "name": "token",
          "type": "address"
        },
        {
          "internalType": "uint256",
          "name": "amount",
          "type": "uint256"
        }
      ],
      "name": "deposit",
      "outputs": [],
      "stateMutability": "payable",
      "type": "function"
    },
    {
      "inputs": [
        {
          "internalType": "uint256",
          "name": "_index",
          "type": "uint256"
        }
      ],
      "name": "getPermission",
      "outputs": [
        {
          "internalType": "address",
          "name": "",
          "type": "address"
        }
      ],
      "stateMutability": "view",
      "type": "function"
    },
    {
      "inputs": [],
      "name": "getPermissionLength",
      "outputs": [
        {
          "internalType": "uint256",
          "name": "",
          "type": "uint256"
        }
      ],
      "stateMutability": "view",
      "type": "function"
    },
    {
      "inputs": [
        {
          "internalType": "address",
          "name": "token",
          "type": "address"
        }
      ],
      "name": "getTotalShare",
      "outputs": [
        {
          "internalType": "uint256",
          "name": "",
          "type": "uint256"
        }
      ],
      "stateMutability": "view",
      "type": "function"
    },
    {
      "inputs": [
        {
          "internalType": "address",
          "name": "",
          "type": "address"
        }
      ],
      "name": "hasInit",
      "outputs": [
        {
          "internalType": "bool",
          "name": "",
          "type": "bool"
        }
      ],
      "stateMutability": "view",
      "type": "function"
    },
    {
      "inputs": [
        {
          "internalType": "contract ERC20",
          "name": "supplyToken",
          "type": "address"
        }
      ],
      "name": "initPool",
      "outputs": [],
      "stateMutability": "nonpayable",
      "type": "function"
    },
    {
      "inputs": [],
      "name": "isClosePeriod",
      "outputs": [
        {
          "internalType": "bool",
          "name": "",
          "type": "bool"
        }
      ],
      "stateMutability": "view",
      "type": "function"
    },
    {
      "inputs": [
        {
          "internalType": "address",
          "name": "account",
          "type": "address"
        }
      ],
      "name": "isPermission",
      "outputs": [
        {
          "internalType": "bool",
          "name": "",
          "type": "bool"
        }
      ],
      "stateMutability": "view",
      "type": "function"
    },
    {
      "inputs": [
        {
          "internalType": "address",
          "name": "token",
          "type": "address"
        },
        {
          "internalType": "uint256",
          "name": "amount",
          "type": "uint256"
        }
      ],
      "name": "notifyRepay",
      "outputs": [],
      "stateMutability": "nonpayable",
      "type": "function"
    },
    {
      "inputs": [],
      "name": "owner",
      "outputs": [
        {
          "internalType": "address",
          "name": "",
          "type": "address"
        }
      ],
      "stateMutability": "view",
      "type": "function"
    },
    {
      "inputs": [
        {
          "internalType": "address",
          "name": "token",
          "type": "address"
        },
        {
          "internalType": "uint256",
          "name": "amount",
          "type": "uint256"
        },
        {
          "internalType": "address",
          "name": "to",
          "type": "address"
        }
      ],
      "name": "payCommision",
      "outputs": [],
      "stateMutability": "nonpayable",
      "type": "function"
    },
    {
      "inputs": [],
      "name": "period",
      "outputs": [
        {
          "internalType": "enum MulBank.Period",
          "name": "",
          "type": "uint8"
        }
      ],
      "stateMutability": "view",
      "type": "function"
    },
    {
      "inputs": [
        {
          "internalType": "address",
          "name": "",
          "type": "address"
        }
      ],
      "name": "poolInfo",
      "outputs": [
        {
          "internalType": "contract ERC20",
          "name": "supplyToken",
          "type": "address"
        },
        {
          "internalType": "contract MulERC20",
          "name": "shareToken",
          "type": "address"
        },
        {
          "internalType": "uint256",
          "name": "totalBorrow",
          "type": "uint256"
        }
      ],
      "stateMutability": "view",
      "type": "function"
    },
    {
      "inputs": [
        {
          "internalType": "address",
          "name": "",
          "type": "address"
        }
      ],
      "name": "remains",
      "outputs": [
        {
          "internalType": "uint256",
          "name": "",
          "type": "uint256"
        }
      ],
      "stateMutability": "view",
      "type": "function"
    },
    {
      "inputs": [],
      "name": "renounceOwnership",
      "outputs": [],
      "stateMutability": "nonpayable",
      "type": "function"
    },
    {
      "inputs": [
        {
          "internalType": "address",
          "name": "newOwner",
          "type": "address"
        }
      ],
      "name": "transferOwnership",
      "outputs": [],
      "stateMutability": "nonpayable",
      "type": "function"
    },
    {
      "inputs": [
        {
          "internalType": "address",
          "name": "token",
          "type": "address"
        },
        {
          "internalType": "uint256",
          "name": "share",
          "type": "uint256"
        }
      ],
      "name": "withdraw",
      "outputs": [],
      "stateMutability": "nonpayable",
      "type": "function"
    },
    {
      "stateMutability": "payable",
      "type": "receive"
    }
  ],
  "bytecode": "0x60806040526003805460ff1916905534801561001a57600080fd5b50604051620040cc380380620040cc8339818101604052602081101561003f57600080fd5b5051600061004b6100ba565b600080546001600160a01b0319166001600160a01b0383169081178255604051929350917f8be0079c531659141344cd1fd0a4f28419497f9722a3daafe3b4186f6b6457e0908290a350600880546001600160a01b0319166001600160a01b03929092169190911790556100be565b3390565b613ffe80620000ce6000396000f3fe608060405260043610620001635760003560e01c80638da5cb5b11620000c7578063ef78d4fd1162000079578063ef78d4fd1462000533578063f2fde38b146200056d578063f3dffca514620005a4578063f3fef3a314620006de578063f7d372f1146200071b578063ffb5e276146200075257620001b7565b80638da5cb5b14620003de5780639a7b5f1114620003f6578063a96f090c1462000457578063b1af99cf146200048e578063e0faa9a214620004c5578063ed5c345814620004fc57620001b7565b80634aa4a4fc11620001215780634aa4a4fc14620002d05780634d0a5dbd14620003045780634ffc82ea146200034f5780636c665a551462000367578063715018a614620003ae57806373e0299814620003c657620001b7565b8063192400d314620001bc5780631c5b0f7e14620001f957806342c9f9b114620002425780634641ca17146200028957806347e7ef2414620002a157620001b7565b36620001b7576008546001600160a01b03163314620001b5576040805162461bcd60e51b81526020600482015260096024820152684e6f7420574554483960b81b604482015290519081900360640190fd5b005b600080fd5b348015620001c957600080fd5b50620001b560048036036040811015620001e257600080fd5b506001600160a01b03813516906020013562000780565b3480156200020657600080fd5b5062000230600480360360208110156200021f57600080fd5b50356001600160a01b031662000861565b60408051918252519081900360200190f35b3480156200024f57600080fd5b50620001b5600480360360608110156200026857600080fd5b506001600160a01b0381358116916020810135916040909101351662000925565b3480156200029657600080fd5b506200023062000a75565b620001b560048036036040811015620002b957600080fd5b506001600160a01b03813516906020013562000a7b565b348015620002dd57600080fd5b50620002e862000e8e565b604080516001600160a01b039092168252519081900360200190f35b3480156200031157600080fd5b506200033b600480360360208110156200032a57600080fd5b50356001600160a01b031662000e9d565b604080519115158252519081900360200190f35b3480156200035c57600080fd5b506200023062000f95565b3480156200037457600080fd5b50620001b5600480360360608110156200038d57600080fd5b506001600160a01b0381358116916020810135916040909101351662000fa8565b348015620003bb57600080fd5b50620001b56200110e565b348015620003d357600080fd5b506200033b620011c0565b348015620003eb57600080fd5b50620002e8620011db565b3480156200040357600080fd5b506200042d600480360360208110156200041c57600080fd5b50356001600160a01b0316620011ea565b604080516001600160a01b0394851681529290931660208301528183015290519081900360600190f35b3480156200046457600080fd5b5062000230600480360360208110156200047d57600080fd5b50356001600160a01b031662001218565b3480156200049b57600080fd5b506200033b60048036036020811015620004b457600080fd5b50356001600160a01b03166200122a565b348015620004d257600080fd5b506200033b60048036036020811015620004eb57600080fd5b50356001600160a01b03166200131c565b3480156200050957600080fd5b506200033b600480360360208110156200052257600080fd5b50356001600160a01b03166200132b565b3480156200054057600080fd5b506200054b62001340565b604051808260028111156200055c57fe5b815260200191505060405180910390f35b3480156200057a57600080fd5b50620001b5600480360360208110156200059357600080fd5b50356001600160a01b031662001349565b348015620005b157600080fd5b50620001b560048036036040811015620005ca57600080fd5b810190602081018135600160201b811115620005e557600080fd5b820183602082011115620005f857600080fd5b803590602001918460208302840111600160201b831117156200061a57600080fd5b9190808060200260200160405190810160405280939291908181526020018383602002808284376000920191909152509295949360208101935035915050600160201b8111156200066a57600080fd5b8201836020820111156200067d57600080fd5b803590602001918460208302840111600160201b831117156200069f57600080fd5b91908080602002602001604051908101604052809392919081815260200183836020028082843760009201919091525092955062001453945050505050565b348015620006eb57600080fd5b50620001b5600480360360408110156200070457600080fd5b506001600160a01b038135169060200135620015c3565b3480156200072857600080fd5b50620001b5600480360360208110156200074157600080fd5b50356001600160a01b0316620019f5565b3480156200075f57600080fd5b50620002e8600480360360208110156200077857600080fd5b5035620021c4565b6200078b336200131c565b620007dd576040805162461bcd60e51b815260206004820152601c60248201527f63616c6c6572206973206e6f7420746865207065726d697373696f6e00000000604482015290519081900360640190fd5b6001600160a01b0382166000908152600660205260409020600281015482111562000846576040805162461bcd60e51b81526020600482015260146024820152731253959053125108149154105648105353d5539560621b604482015290519081900360640190fd5b60028101546200085790836200229d565b6002909101555050565b6001600160a01b0380821660009081526006602090815260408083208151606081018352815486168082526001830154909616818501526002909101548183015281516370a0823160e01b81523060048201529151939490936200091e9391926370a08231926024808301939192829003018186803b158015620008e457600080fd5b505afa158015620008f9573d6000803e3d6000fd5b505050506040513d60208110156200091057600080fd5b5051604083015190620022fb565b9392505050565b62000930336200131c565b62000982576040805162461bcd60e51b815260206004820152601c60248201527f63616c6c6572206973206e6f7420746865207065726d697373696f6e00000000604482015290519081900360640190fd5b6001600160a01b03808416600090815260066020908152604091829020805483516370a0823160e01b81523060048201529351919487949116926370a0823192602480840193829003018186803b158015620009dd57600080fd5b505afa158015620009f2573d6000803e3d6000fd5b505050506040513d602081101562000a0957600080fd5b5051101562000a57576040805162461bcd60e51b815260206004820152601560248201527412539590531251081093d49493d5c8105353d55395605a1b604482015290519081900360640190fd5b805462000a6f906001600160a01b0316838562002356565b50505050565b60075481565b600060035460ff16600281111562000a8f57fe5b1462000ad7576040805162461bcd60e51b815260206004820152601260248201527143414e4e4f54204445504f534954204e4f5760701b604482015290519081900360640190fd5b6001600160a01b03821660009081526005602052604090205460ff1662000b37576040805162461bcd60e51b815260206004820152600f60248201526e4e4f5420535550504f5254204e4f5760881b604482015290519081900360640190fd5b6000811162000b86576040805162461bcd60e51b8152602060048201526016602482015275125395905312510811115413d4d25508105353d5539560521b604482015290519081900360640190fd5b6001600160a01b038216600090815260066020908152604080832060049092529091205482111562000beb576040805162461bcd60e51b815260206004820152600960248201526813d59154931253525560ba1b604482015290519081900360640190fd5b6001600160a01b03831660009081526004602052604090205462000c1090836200229d565b6001600160a01b03841660009081526004602052604081209190915562000c378462000861565b90506000811562000cdf5762000cd98262000cd28560010160009054906101000a90046001600160a01b03166001600160a01b03166318160ddd6040518163ffffffff1660e01b815260040160206040518083038186803b15801562000c9c57600080fd5b505afa15801562000cb1573d6000803e3d6000fd5b505050506040513d602081101562000cc857600080fd5b50518790620023aa565b9062002408565b62000ce1565b835b6001840154604080516340c10f1960e01b81523360048201526024810184905290519293506001600160a01b03909116916340c10f199160448082019260009290919082900301818387803b15801562000d3a57600080fd5b505af115801562000d4f573d6000803e3d6000fd5b50506008546001600160a01b0388811691161415915062000e2690505783341462000db5576040805162461bcd60e51b8152602060048201526011602482015270494e56414c4944204554482056414c554560781b604482015290519081900360640190fd5b600860009054906101000a90046001600160a01b03166001600160a01b031663d0e30db0346040518263ffffffff1660e01b81526004016000604051808303818588803b15801562000e0657600080fd5b505af115801562000e1b573d6000803e3d6000fd5b505050505062000e3f565b825462000e3f906001600160a01b031633308762002471565b604080518581526020810183905281516001600160a01b0388169233927fdcbc1c05240f31ff3ad067ef1ee35ce4997762752e3a095284754544f4c709d7929081900390910190a35050505050565b6008546001600160a01b031681565b600062000ea9620024cd565b6001600160a01b031662000ebc620011db565b6001600160a01b03161462000f07576040805162461bcd60e51b8152602060048201819052602482015260008051602062003f7f833981519152604482015290519081900360640190fd5b6001600160a01b03821662000f4e5760405162461bcd60e51b815260040180806020018281038252602c81526020018062003ebe602c913960400191505060405180910390fd5b6040516001600160a01b038316907fd8dc9578ceae094520aff2ba139a77dd24473034f8dbc74d85f6b02768c3377990600090a262000f8f600183620024d1565b92915050565b600062000fa36001620024e8565b905090565b62000fb3336200131c565b62001005576040805162461bcd60e51b815260206004820152601c60248201527f63616c6c6572206973206e6f7420746865207065726d697373696f6e00000000604482015290519081900360640190fd5b6001600160a01b03808416600090815260066020908152604091829020805483516370a0823160e01b81523060048201529351919487949116926370a0823192602480840193829003018186803b1580156200106057600080fd5b505afa15801562001075573d6000803e3d6000fd5b505050506040513d60208110156200108c57600080fd5b50511015620010da576040805162461bcd60e51b815260206004820152601560248201527412539590531251081093d49493d5c8105353d55395605a1b604482015290519081900360640190fd5b8054620010f2906001600160a01b0316838562002356565b6002810154620011039084620022fb565b600290910155505050565b62001118620024cd565b6001600160a01b03166200112b620011db565b6001600160a01b03161462001176576040805162461bcd60e51b8152602060048201819052602482015260008051602062003f7f833981519152604482015290519081900360640190fd5b600080546040516001600160a01b03909116907f8be0079c531659141344cd1fd0a4f28419497f9722a3daafe3b4186f6b6457e0908390a3600080546001600160a01b0319169055565b60008060035460ff166002811115620011d557fe5b14905090565b6000546001600160a01b031690565b6006602052600090815260409020805460018201546002909201546001600160a01b03918216929091169083565b60046020526000908152604090205481565b600062001236620024cd565b6001600160a01b031662001249620011db565b6001600160a01b03161462001294576040805162461bcd60e51b8152602060048201819052602482015260008051602062003f7f833981519152604482015290519081900360640190fd5b6001600160a01b038216620012db5760405162461bcd60e51b815260040180806020018281038252602c81526020018062003f32602c913960400191505060405180910390fd5b6040516001600160a01b038316907ff63eb610adad478002288c0957a6037ba30c916a12eb8b9fc01fed014f1dc15790600090a262000f8f600183620024f5565b600062000f8f6001836200250c565b60056020526000908152604090205460ff1681565b60035460ff1681565b62001353620024cd565b6001600160a01b031662001366620011db565b6001600160a01b031614620013b1576040805162461bcd60e51b8152602060048201819052602482015260008051602062003f7f833981519152604482015290519081900360640190fd5b6001600160a01b038116620013f85760405162461bcd60e51b815260040180806020018281038252602681526020018062003f0c6026913960400191505060405180910390fd5b600080546040516001600160a01b03808516939216917f8be0079c531659141344cd1fd0a4f28419497f9722a3daafe3b4186f6b6457e091a3600080546001600160a01b0319166001600160a01b0392909216919091179055565b6200145d620024cd565b6001600160a01b031662001470620011db565b6001600160a01b031614620014bb576040805162461bcd60e51b8152602060048201819052602482015260008051602062003f7f833981519152604482015290519081900360640190fd5b60008251118015620014ce575080518251145b62001511576040805162461bcd60e51b815260206004820152600e60248201526d494e56414c494420504152414d5360901b604482015290519081900360640190fd5b60005b8251811015620015be57620015808282815181106200152f57fe5b6020026020010151600460008685815181106200154857fe5b60200260200101516001600160a01b03166001600160a01b0316815260200190815260200160002054620022fb90919063ffffffff16565b600460008584815181106200159157fe5b6020908102919091018101516001600160a01b031682528101919091526040016000205560010162001514565b505050565b600260035460ff166002811115620015d757fe5b1462001620576040805162461bcd60e51b815260206004820152601360248201527243414e4e4f54205749544844524157204e4f5760681b604482015290519081900360640190fd5b6001600160a01b03808316600090815260066020908152604091829020600181015483516370a0823160e01b81523360048201529351919486949116926370a0823192602480840193829003018186803b1580156200167e57600080fd5b505afa15801562001693573d6000803e3d6000fd5b505050506040513d6020811015620016aa57600080fd5b50511015620016f9576040805162461bcd60e51b8152602060048201526016602482015275494e56414c494420574954484452415720534841524560501b604482015290519081900360640190fd5b805460009062001712906001600160a01b031662000861565b90506000620017a58360010160009054906101000a90046001600160a01b03166001600160a01b03166318160ddd6040518163ffffffff1660e01b815260040160206040518083038186803b1580156200176b57600080fd5b505afa15801562001780573d6000803e3d6000fd5b505050506040513d60208110156200179757600080fd5b505162000cd28685620023aa565b8354604080516370a0823160e01b8152306004820152905192935083926001600160a01b03909216916370a0823191602480820192602092909190829003018186803b158015620017f557600080fd5b505afa1580156200180a573d6000803e3d6000fd5b505050506040513d60208110156200182157600080fd5b505110156200186a576040805162461bcd60e51b815260206004820152601060248201526f1393c8115393d551d208105353d5539560821b604482015290519081900360640190fd5b600183015460408051632770a7eb60e21b81523360048201526024810187905290516001600160a01b0390921691639dc29fac9160448082019260009290919082900301818387803b158015620018c057600080fd5b505af1158015620018d5573d6000803e3d6000fd5b50506008546001600160a01b038881169116141591506200198e90505760085460408051632e1a7d4d60e01b81526004810184905290516001600160a01b0390921691632e1a7d4d9160248082019260009290919082900301818387803b1580156200194057600080fd5b505af115801562001955573d6000803e3d6000fd5b505060405133925083156108fc02915083906000818181858888f1935050505015801562001987573d6000803e3d6000fd5b50620019a6565b8254620019a6906001600160a01b0316338362002356565b604080518281526020810186905281516001600160a01b0388169233927ff341246adaac6f497bc2a656f546ab9e182111d630394f0c57c710a59a2cb567929081900390910190a35050505050565b620019ff620024cd565b6001600160a01b031662001a12620011db565b6001600160a01b03161462001a5d576040805162461bcd60e51b8152602060048201819052602482015260008051602062003f7f833981519152604482015290519081900360640190fd5b6001600160a01b03811660009081526005602052604090205460ff161562001abb576040805162461bcd60e51b815260206004820152600c60248201526b10531491505116481253925560a21b604482015290519081900360640190fd5b6001600160a01b038116600081815260056020526040808220805460ff1916600117905580516395d89b4160e01b815290519192916395d89b41916004808201928692909190829003018186803b15801562001b1657600080fd5b505afa15801562001b2b573d6000803e3d6000fd5b505050506040513d6000823e601f3d908101601f19168201604052602081101562001b5557600080fd5b8101908080516040519392919084600160201b82111562001b7557600080fd5b90830190602082018581111562001b8b57600080fd5b8251600160201b81118282018810171562001ba557600080fd5b82525081516020918201929091019080838360005b8381101562001bd457818101518382015260200162001bba565b50505050905090810190601f16801562001c025780820380516001836020036101000a031916815260200191505b5060405250505060405160200180806213555360ea1b81525060030182805190602001908083835b6020831062001c4b5780518252601f19909201916020918201910162001c2a565b6001836020036101000a03801982511681845116808217855250505050505090500191505060405160208183030381529060405290506000826001600160a01b03166395d89b416040518163ffffffff1660e01b815260040160006040518083038186803b15801562001cbd57600080fd5b505afa15801562001cd2573d6000803e3d6000fd5b505050506040513d6000823e601f3d908101601f19168201604052602081101562001cfc57600080fd5b8101908080516040519392919084600160201b82111562001d1c57600080fd5b90830190602082018581111562001d3257600080fd5b8251600160201b81118282018810171562001d4c57600080fd5b82525081516020918201929091019080838360005b8381101562001d7b57818101518382015260200162001d61565b50505050905090810190601f16801562001da95780820380516001836020036101000a031916815260200191505b5060405250505060405160200180806213555360ea1b81525060030182805190602001908083835b6020831062001df25780518252601f19909201916020918201910162001dd1565b6001836020036101000a038019825116818451168082178552505050505050905001915050604051602081830303815290604052905060006040518060200162001e3c9062002a81565b6020820181038252601f19601f820116604052508284604051602001808060200180602001838103835285818151815260200191508051906020019080838360005b8381101562001e9857818101518382015260200162001e7e565b50505050905090810190601f16801562001ec65780820380516001836020036101000a031916815260200191505b50838103825284518152845160209182019186019080838360005b8381101562001efb57818101518382015260200162001ee1565b50505050905090810190601f16801562001f295780820380516001836020036101000a031916815260200191505b509450505050506040516020818303038152906040526040516020018083805190602001908083835b6020831062001f735780518252601f19909201916020918201910162001f52565b51815160209384036101000a600019018019909216911617905285519190930192850191508083835b6020831062001fbd5780518252601f19909201916020918201910162001f9c565b51815160209384036101000a60001901801990921691161790526040805192909401828103601f1901835280855233606090811b828401528c901b6bffffffffffffffffffffffff19166034820152845180820360280181526048909101909452835193019290922091955090935060009250620020419150829050838562002523565b9050806001600160a01b0316631a9a0426876001600160a01b031663313ce5676040518163ffffffff1660e01b815260040160206040518083038186803b1580156200208c57600080fd5b505afa158015620020a1573d6000803e3d6000fd5b505050506040513d6020811015620020b857600080fd5b5051604080516001600160e01b031960e085901b16815260ff909216600483015251602480830192600092919082900301818387803b158015620020fb57600080fd5b505af115801562002110573d6000803e3d6000fd5b5050604080516060810182526001600160a01b03808b16808352868216602080850182815260008688018181528582526006845290889020875181549088166001600160a01b031991821617825592516001820180549190981693169290921790955593516002909401939093558451908152935192955093507f24f32f0e548f877ea0850bab3fdc7f2392f24a08ad93179b7ba7b78fc5d5b37d928290030190a250506007805460010190555050505050565b6000620021d0620024cd565b6001600160a01b0316620021e3620011db565b6001600160a01b0316146200222e576040805162461bcd60e51b8152602060048201819052602482015260008051602062003f7f833981519152604482015290519081900360640190fd5b60016200223a62000f95565b0382111562002290576040805162461bcd60e51b815260206004820152601d60248201527f4d756c7469706c653a20696e646578206f7574206f6620626f756e6473000000604482015290519081900360640190fd5b62000f8f6001836200263f565b600082821115620022f5576040805162461bcd60e51b815260206004820152601e60248201527f536166654d6174683a207375627472616374696f6e206f766572666c6f770000604482015290519081900360640190fd5b50900390565b6000828201838110156200091e576040805162461bcd60e51b815260206004820152601b60248201527f536166654d6174683a206164646974696f6e206f766572666c6f770000000000604482015290519081900360640190fd5b604080516001600160a01b038416602482015260448082018490528251808303909101815260649091019091526020810180516001600160e01b031663a9059cbb60e01b179052620015be9084906200264d565b600082620023bb5750600062000f8f565b82820282848281620023c957fe5b04146200091e5760405162461bcd60e51b815260040180806020018281038252602181526020018062003f5e6021913960400191505060405180910390fd5b60008082116200245f576040805162461bcd60e51b815260206004820152601a60248201527f536166654d6174683a206469766973696f6e206279207a65726f000000000000604482015290519081900360640190fd5b8183816200246957fe5b049392505050565b604080516001600160a01b0380861660248301528416604482015260648082018490528251808303909101815260849091019091526020810180516001600160e01b03166323b872dd60e01b17905262000a6f9085906200264d565b3390565b60006200091e836001600160a01b03841662002704565b600062000f8f8262002753565b60006200091e836001600160a01b03841662002757565b60006200091e836001600160a01b03841662002823565b600080844710156200257c576040805162461bcd60e51b815260206004820152601d60248201527f437265617465323a20696e73756666696369656e742062616c616e6365000000604482015290519081900360640190fd5b8251620025d0576040805162461bcd60e51b815260206004820181905260248201527f437265617465323a2062797465636f6465206c656e677468206973207a65726f604482015290519081900360640190fd5b8383516020850187f590506001600160a01b03811662002637576040805162461bcd60e51b815260206004820152601960248201527f437265617465323a204661696c6564206f6e206465706c6f7900000000000000604482015290519081900360640190fd5b949350505050565b60006200091e83836200283b565b6000620026a4826040518060400160405280602081526020017f5361666545524332303a206c6f772d6c6576656c2063616c6c206661696c6564815250856001600160a01b0316620028a29092919063ffffffff16565b805190915015620015be57808060200190516020811015620026c557600080fd5b5051620015be5760405162461bcd60e51b815260040180806020018281038252602a81526020018062003f9f602a913960400191505060405180910390fd5b600062002712838362002823565b6200274a5750815460018181018455600084815260208082209093018490558454848252828601909352604090209190915562000f8f565b50600062000f8f565b5490565b600081815260018301602052604081205480156200281857835460001980830191908101906000908790839081106200278c57fe5b9060005260206000200154905080876000018481548110620027aa57fe5b600091825260208083209091019290925582815260018981019092526040902090840190558654879080620027db57fe5b6001900381819060005260206000200160009055905586600101600087815260200190815260200160002060009055600194505050505062000f8f565b600091505062000f8f565b60009081526001919091016020526040902054151590565b815460009082106200287f5760405162461bcd60e51b815260040180806020018281038252602281526020018062003eea6022913960400191505060405180910390fd5b8260000182815481106200288f57fe5b9060005260206000200154905092915050565b606062002637848460008585620028b985620029d1565b6200290b576040805162461bcd60e51b815260206004820152601d60248201527f416464726573733a2063616c6c20746f206e6f6e2d636f6e7472616374000000604482015290519081900360640190fd5b600080866001600160a01b031685876040518082805190602001908083835b602083106200294b5780518252601f1990920191602091820191016200292a565b6001836020036101000a03801982511681845116808217855250505050505090500191505060006040518083038185875af1925050503d8060008114620029af576040519150601f19603f3d011682016040523d82523d6000602084013e620029b4565b606091505b5091509150620029c6828286620029d7565b979650505050505050565b3b151590565b60608315620029e85750816200091e565b825115620029f95782518084602001fd5b8160405162461bcd60e51b81526004018080602001828103825283818151815260200191508051906020019080838360005b8381101562002a4557818101518382015260200162002a2b565b50505050905090810190601f16801562002a735780820380516001836020036101000a031916815260200191505b509250505060405180910390fd5b61142e8062002a908339019056fe60806040523480156200001157600080fd5b506040516200142e3803806200142e833981810160405260408110156200003757600080fd5b81019080805160405193929190846401000000008211156200005857600080fd5b9083019060208201858111156200006e57600080fd5b82516401000000008111828201881017156200008957600080fd5b82525081516020918201929091019080838360005b83811015620000b85781810151838201526020016200009e565b50505050905090810190601f168015620000e65780820380516001836020036101000a031916815260200191505b50604052602001805160405193929190846401000000008211156200010a57600080fd5b9083019060208201858111156200012057600080fd5b82516401000000008111828201881017156200013b57600080fd5b82525081516020918201929091019080838360005b838110156200016a57818101518382015260200162000150565b50505050905090810190601f168015620001985780820380516001836020036101000a031916815260200191505b50604052505082518391508290620001b89060039060208501906200024c565b508051620001ce9060049060208401906200024c565b50506005805460ff19166012179055506000620001ea62000248565b60058054610100600160a81b0319166101006001600160a01b03841690810291909117909155604051919250906000907f8be0079c531659141344cd1fd0a4f28419497f9722a3daafe3b4186f6b6457e0908290a3505050620002f8565b3390565b828054600181600116156101000203166002900490600052602060002090601f016020900481019282620002845760008555620002cf565b82601f106200029f57805160ff1916838001178555620002cf565b82800160010185558215620002cf579182015b82811115620002cf578251825591602001919060010190620002b2565b50620002dd929150620002e1565b5090565b5b80821115620002dd5760008155600101620002e2565b61112680620003086000396000f3fe608060405234801561001057600080fd5b506004361061010b5760003560e01c806370a08231116100a25780639dc29fac116100715780639dc29fac1461030f578063a457c2d71461033b578063a9059cbb14610367578063dd62ed3e14610393578063f2fde38b146103c15761010b565b806370a08231146102b5578063715018a6146102db5780638da5cb5b146102e357806395d89b41146103075761010b565b806323b872dd116100de57806323b872dd14610209578063313ce5671461023f578063395093511461025d57806340c10f19146102895761010b565b806306fdde0314610110578063095ea7b31461018d57806318160ddd146101cd5780631a9a0426146101e7575b600080fd5b6101186103e7565b6040805160208082528351818301528351919283929083019185019080838360005b8381101561015257818101518382015260200161013a565b50505050905090810190601f16801561017f5780820380516001836020036101000a031916815260200191505b509250505060405180910390f35b6101b9600480360360408110156101a357600080fd5b506001600160a01b03813516906020013561047d565b604080519115158252519081900360200190f35b6101d561049a565b60408051918252519081900360200190f35b610207600480360360208110156101fd57600080fd5b503560ff166104a0565b005b6101b96004803603606081101561021f57600080fd5b506001600160a01b0381358116916020810135909116906040013561050e565b610247610595565b6040805160ff9092168252519081900360200190f35b6101b96004803603604081101561027357600080fd5b506001600160a01b03813516906020013561059e565b6102076004803603604081101561029f57600080fd5b506001600160a01b0381351690602001356105ec565b6101d5600480360360208110156102cb57600080fd5b50356001600160a01b031661065c565b610207610677565b6102eb610729565b604080516001600160a01b039092168252519081900360200190f35b61011861073d565b6102076004803603604081101561032557600080fd5b506001600160a01b03813516906020013561079e565b6101b96004803603604081101561035157600080fd5b506001600160a01b03813516906020013561080a565b6101b96004803603604081101561037d57600080fd5b506001600160a01b038135169060200135610872565b6101d5600480360360408110156103a957600080fd5b506001600160a01b0381358116916020013516610886565b610207600480360360208110156103d757600080fd5b50356001600160a01b03166108b1565b60038054604080516020601f60026000196101006001881615020190951694909404938401819004810282018101909252828152606093909290918301828280156104735780601f1061044857610100808354040283529160200191610473565b820191906000526020600020905b81548152906001019060200180831161045657829003601f168201915b5050505050905090565b600061049161048a6109bf565b84846109c3565b50600192915050565b60025490565b6104a86109bf565b6001600160a01b03166104b9610729565b6001600160a01b031614610502576040805162461bcd60e51b81526020600482018190526024820152600080516020611042833981519152604482015290519081900360640190fd5b61050b81610aaf565b50565b600061051b848484610ac5565b61058b846105276109bf565b6105868560405180606001604052806028815260200161101a602891396001600160a01b038a166000908152600160205260408120906105656109bf565b6001600160a01b031681526020810191909152604001600020549190610c20565b6109c3565b5060019392505050565b60055460ff1690565b60006104916105ab6109bf565b8461058685600160006105bc6109bf565b6001600160a01b03908116825260208083019390935260409182016000908120918c168152925290205490610cb7565b6105f46109bf565b6001600160a01b0316610605610729565b6001600160a01b03161461064e576040805162461bcd60e51b81526020600482018190526024820152600080516020611042833981519152604482015290519081900360640190fd5b6106588282610d18565b5050565b6001600160a01b031660009081526020819052604090205490565b61067f6109bf565b6001600160a01b0316610690610729565b6001600160a01b0316146106d9576040805162461bcd60e51b81526020600482018190526024820152600080516020611042833981519152604482015290519081900360640190fd5b60055460405160009161010090046001600160a01b0316907f8be0079c531659141344cd1fd0a4f28419497f9722a3daafe3b4186f6b6457e0908390a360058054610100600160a81b0319169055565b60055461010090046001600160a01b031690565b60048054604080516020601f60026000196101006001881615020190951694909404938401819004810282018101909252828152606093909290918301828280156104735780601f1061044857610100808354040283529160200191610473565b6107a66109bf565b6001600160a01b03166107b7610729565b6001600160a01b031614610800576040805162461bcd60e51b81526020600482018190526024820152600080516020611042833981519152604482015290519081900360640190fd5b6106588282610e08565b60006104916108176109bf565b84610586856040518060600160405280602581526020016110cc60259139600160006108416109bf565b6001600160a01b03908116825260208083019390935260409182016000908120918d16815292529020549190610c20565b600061049161087f6109bf565b8484610ac5565b6001600160a01b03918216600090815260016020908152604080832093909416825291909152205490565b6108b96109bf565b6001600160a01b03166108ca610729565b6001600160a01b031614610913576040805162461bcd60e51b81526020600482018190526024820152600080516020611042833981519152604482015290519081900360640190fd5b6001600160a01b0381166109585760405162461bcd60e51b8152600401808060200182810382526026815260200180610fac6026913960400191505060405180910390fd5b6005546040516001600160a01b0380841692610100900416907f8be0079c531659141344cd1fd0a4f28419497f9722a3daafe3b4186f6b6457e090600090a3600580546001600160a01b0390921661010002610100600160a81b0319909216919091179055565b3390565b6001600160a01b038316610a085760405162461bcd60e51b81526004018080602001828103825260248152602001806110a86024913960400191505060405180910390fd5b6001600160a01b038216610a4d5760405162461bcd60e51b8152600401808060200182810382526022815260200180610fd26022913960400191505060405180910390fd5b6001600160a01b03808416600081815260016020908152604080832094871680845294825291829020859055815185815291517f8c5be1e5ebec7d5bd14f71427d1e84f3dd0314c0f7b2291e5b200ac8c7c3b9259281900390910190a3505050565b6005805460ff191660ff92909216919091179055565b6001600160a01b038316610b0a5760405162461bcd60e51b81526004018080602001828103825260258152602001806110836025913960400191505060405180910390fd5b6001600160a01b038216610b4f5760405162461bcd60e51b8152600401808060200182810382526023815260200180610f676023913960400191505060405180910390fd5b610b5a838383610f04565b610b9781604051806060016040528060268152602001610ff4602691396001600160a01b0386166000908152602081905260409020549190610c20565b6001600160a01b038085166000908152602081905260408082209390935590841681522054610bc69082610cb7565b6001600160a01b038084166000818152602081815260409182902094909455805185815290519193928716927fddf252ad1be2c89b69c2b068fc378daa952ba7f163c4a11628f55a4df523b3ef92918290030190a3505050565b60008184841115610caf5760405162461bcd60e51b81526004018080602001828103825283818151815260200191508051906020019080838360005b83811015610c74578181015183820152602001610c5c565b50505050905090810190601f168015610ca15780820380516001836020036101000a031916815260200191505b509250505060405180910390fd5b505050900390565b600082820183811015610d11576040805162461bcd60e51b815260206004820152601b60248201527f536166654d6174683a206164646974696f6e206f766572666c6f770000000000604482015290519081900360640190fd5b9392505050565b6001600160a01b038216610d73576040805162461bcd60e51b815260206004820152601f60248201527f45524332303a206d696e7420746f20746865207a65726f206164647265737300604482015290519081900360640190fd5b610d7f60008383610f04565b600254610d8c9082610cb7565b6002556001600160a01b038216600090815260208190526040902054610db29082610cb7565b6001600160a01b0383166000818152602081815260408083209490945583518581529351929391927fddf252ad1be2c89b69c2b068fc378daa952ba7f163c4a11628f55a4df523b3ef9281900390910190a35050565b6001600160a01b038216610e4d5760405162461bcd60e51b81526004018080602001828103825260218152602001806110626021913960400191505060405180910390fd5b610e5982600083610f04565b610e9681604051806060016040528060228152602001610f8a602291396001600160a01b0385166000908152602081905260409020549190610c20565b6001600160a01b038316600090815260208190526040902055600254610ebc9082610f09565b6002556040805182815290516000916001600160a01b038516917fddf252ad1be2c89b69c2b068fc378daa952ba7f163c4a11628f55a4df523b3ef9181900360200190a35050565b505050565b600082821115610f60576040805162461bcd60e51b815260206004820152601e60248201527f536166654d6174683a207375627472616374696f6e206f766572666c6f770000604482015290519081900360640190fd5b5090039056fe45524332303a207472616e7366657220746f20746865207a65726f206164647265737345524332303a206275726e20616d6f756e7420657863656564732062616c616e63654f776e61626c653a206e6577206f776e657220697320746865207a65726f206164647265737345524332303a20617070726f766520746f20746865207a65726f206164647265737345524332303a207472616e7366657220616d6f756e7420657863656564732062616c616e636545524332303a207472616e7366657220616d6f756e74206578636565647320616c6c6f77616e63654f776e61626c653a2063616c6c6572206973206e6f7420746865206f776e657245524332303a206275726e2066726f6d20746865207a65726f206164647265737345524332303a207472616e736665722066726f6d20746865207a65726f206164647265737345524332303a20617070726f76652066726f6d20746865207a65726f206164647265737345524332303a2064656372656173656420616c6c6f77616e63652062656c6f77207a65726fa26469706673582212205d4db7ab5d6b87696ead3791068bb19ac48e8e0f44426cf49aa9fdeccfd6bd4164736f6c634300070600334d756c7469706c653a205f6164645065726d697373696f6e20697320746865207a65726f2061646472657373456e756d657261626c655365743a20696e646578206f7574206f6620626f756e64734f776e61626c653a206e6577206f776e657220697320746865207a65726f20616464726573734d756c7469706c653a205f64656c5065726d697373696f6e20697320746865207a65726f2061646472657373536166654d6174683a206d756c7469706c69636174696f6e206f766572666c6f774f776e61626c653a2063616c6c6572206973206e6f7420746865206f776e65725361666545524332303a204552433230206f7065726174696f6e20646964206e6f742073756363656564a2646970667358221220fd066c8edaba7bee0314347f8e568f72f82719b3e1d2c245fa02c339958e464f64736f6c63430007060033",
  "linkReferences": {},
  "deployedLinkReferences": {}
}