{
  "_format": "hh-sol-artifact-1",
  "contractName": "MulBank",
  "sourceName": "contracts/MulBank.sol",
  "abi": [
    {
      "inputs": [
        {
          "internalType": "address",
          "name": "_WETH9",
          "type": "address"
        }
      ],
      "stateMutability": "nonpayable",
      "type": "constructor"
    },
    {
      "anonymous": false,
      "inputs": [
        {
          "indexed": true,
          "internalType": "address",
          "name": "permission",
          "type": "address"
        }
      ],
      "name": "AddPermission",
      "type": "event"
    },
    {
      "anonymous": false,
      "inputs": [
        {
          "indexed": true,
          "internalType": "address",
          "name": "permission",
          "type": "address"
        }
      ],
      "name": "DelPermission",
      "type": "event"
    },
    {
      "anonymous": false,
      "inputs": [
        {
          "indexed": true,
          "internalType": "address",
          "name": "user",
          "type": "address"
        },
        {
          "indexed": true,
          "internalType": "address",
          "name": "token",
          "type": "address"
        },
        {
          "indexed": false,
          "internalType": "uint256",
          "name": "amount",
          "type": "uint256"
        }
      ],
      "name": "Deposit",
      "type": "event"
    },
    {
      "anonymous": false,
      "inputs": [
        {
          "indexed": true,
          "internalType": "address",
          "name": "previousOwner",
          "type": "address"
        },
        {
          "indexed": true,
          "internalType": "address",
          "name": "newOwner",
          "type": "address"
        }
      ],
      "name": "OwnershipTransferred",
      "type": "event"
    },
    {
      "anonymous": false,
      "inputs": [
        {
          "indexed": true,
          "internalType": "address",
          "name": "supplyToken",
          "type": "address"
        },
        {
          "indexed": false,
          "internalType": "uint256",
          "name": "minAmount",
          "type": "uint256"
        }
      ],
      "name": "PoolInitialized",
      "type": "event"
    },
    {
      "anonymous": false,
      "inputs": [
        {
          "indexed": false,
          "internalType": "address[]",
          "name": "users",
          "type": "address[]"
        },
        {
          "indexed": false,
          "internalType": "address[][]",
          "name": "tokens",
          "type": "address[][]"
        },
        {
          "indexed": false,
          "internalType": "uint256[][]",
          "name": "amounts",
          "type": "uint256[][]"
        }
      ],
      "name": "SetUserBalance",
      "type": "event"
    },
    {
      "anonymous": false,
      "inputs": [
        {
          "indexed": false,
          "internalType": "address",
          "name": "pool",
          "type": "address"
        },
        {
          "indexed": false,
          "internalType": "bool",
          "name": "enable",
          "type": "bool"
        }
      ],
      "name": "SwitchPoolDeposit",
      "type": "event"
    },
    {
      "anonymous": false,
      "inputs": [
        {
          "indexed": false,
          "internalType": "address",
          "name": "user",
          "type": "address"
        },
        {
          "indexed": false,
          "internalType": "bool",
          "name": "enable",
          "type": "bool"
        }
      ],
      "name": "SwitchWhiteList",
      "type": "event"
    },
    {
      "anonymous": false,
      "inputs": [
        {
          "indexed": false,
          "internalType": "address",
          "name": "pool",
          "type": "address"
        },
        {
          "indexed": false,
          "internalType": "uint256",
          "name": "minAmount",
          "type": "uint256"
        }
      ],
      "name": "UpdateMinDeposit",
      "type": "event"
    },
    {
      "anonymous": false,
      "inputs": [
        {
          "indexed": true,
          "internalType": "address",
          "name": "user",
          "type": "address"
        },
        {
          "indexed": true,
          "internalType": "address",
          "name": "token",
          "type": "address"
        },
        {
          "indexed": false,
          "internalType": "uint256",
          "name": "amount",
          "type": "uint256"
        }
      ],
      "name": "Withdraw",
      "type": "event"
    },
    {
      "inputs": [],
      "name": "WETH9",
      "outputs": [
        {
          "internalType": "address",
          "name": "",
          "type": "address"
        }
      ],
      "stateMutability": "view",
      "type": "function"
    },
    {
      "inputs": [
        {
          "internalType": "address",
          "name": "_addPermission",
          "type": "address"
        }
      ],
      "name": "addPermission",
      "outputs": [
        {
          "internalType": "bool",
          "name": "",
          "type": "bool"
        }
      ],
      "stateMutability": "nonpayable",
      "type": "function"
    },
    {
      "inputs": [],
      "name": "cntOfPool",
      "outputs": [
        {
          "internalType": "uint256",
          "name": "",
          "type": "uint256"
        }
      ],
      "stateMutability": "view",
      "type": "function"
    },
    {
      "inputs": [
        {
          "internalType": "address",
          "name": "_delPermission",
          "type": "address"
        }
      ],
      "name": "delPermission",
      "outputs": [
        {
          "internalType": "bool",
          "name": "",
          "type": "bool"
        }
      ],
      "stateMutability": "nonpayable",
      "type": "function"
    },
    {
      "inputs": [
        {
          "internalType": "address",
          "name": "token",
          "type": "address"
        },
        {
          "internalType": "uint256",
          "name": "amount",
          "type": "uint256"
        }
      ],
      "name": "deposit",
      "outputs": [],
      "stateMutability": "payable",
      "type": "function"
    },
    {
      "inputs": [
        {
          "internalType": "uint256",
          "name": "_index",
          "type": "uint256"
        }
      ],
      "name": "getPermission",
      "outputs": [
        {
          "internalType": "address",
          "name": "",
          "type": "address"
        }
      ],
      "stateMutability": "view",
      "type": "function"
    },
    {
      "inputs": [],
      "name": "getPermissionLength",
      "outputs": [
        {
          "internalType": "uint256",
          "name": "",
          "type": "uint256"
        }
      ],
      "stateMutability": "view",
      "type": "function"
    },
    {
      "inputs": [
        {
          "internalType": "address[]",
          "name": "supplyTokens",
          "type": "address[]"
        },
        {
          "internalType": "uint256[]",
          "name": "minAmounts",
          "type": "uint256[]"
        }
      ],
      "name": "initPoolList",
      "outputs": [],
      "stateMutability": "nonpayable",
      "type": "function"
    },
    {
      "inputs": [],
      "name": "isClosePeriod",
      "outputs": [
        {
          "internalType": "bool",
          "name": "",
          "type": "bool"
        }
      ],
      "stateMutability": "view",
      "type": "function"
    },
    {
      "inputs": [
        {
          "internalType": "address",
          "name": "account",
          "type": "address"
        }
      ],
      "name": "isPermission",
      "outputs": [
        {
          "internalType": "bool",
          "name": "",
          "type": "bool"
        }
      ],
      "stateMutability": "view",
      "type": "function"
    },
    {
      "inputs": [],
      "name": "owner",
      "outputs": [
        {
          "internalType": "address",
          "name": "",
          "type": "address"
        }
      ],
      "stateMutability": "view",
      "type": "function"
    },
    {
      "inputs": [
        {
          "internalType": "address",
          "name": "token",
          "type": "address"
        },
        {
          "internalType": "uint256",
          "name": "amount",
          "type": "uint256"
        },
        {
          "internalType": "address",
          "name": "to",
          "type": "address"
        }
      ],
      "name": "pay",
      "outputs": [],
      "stateMutability": "nonpayable",
      "type": "function"
    },
    {
      "inputs": [],
      "name": "period",
      "outputs": [
        {
          "internalType": "enum MulBank.Period",
          "name": "",
          "type": "uint8"
        }
      ],
      "stateMutability": "view",
      "type": "function"
    },
    {
      "inputs": [
        {
          "internalType": "address",
          "name": "",
          "type": "address"
        }
      ],
      "name": "poolInfo",
      "outputs": [
        {
          "internalType": "bool",
          "name": "init",
          "type": "bool"
        },
        {
          "internalType": "bool",
          "name": "enable",
          "type": "bool"
        },
        {
          "internalType": "uint256",
          "name": "minDeposit",
          "type": "uint256"
        },
        {
          "internalType": "uint256",
          "name": "index",
          "type": "uint256"
        }
      ],
      "stateMutability": "view",
      "type": "function"
    },
    {
      "inputs": [
        {
          "internalType": "uint256",
          "name": "",
          "type": "uint256"
        }
      ],
      "name": "pools",
      "outputs": [
        {
          "internalType": "address",
          "name": "",
          "type": "address"
        }
      ],
      "stateMutability": "view",
      "type": "function"
    },
    {
      "inputs": [],
      "name": "renounceOwnership",
      "outputs": [],
      "stateMutability": "nonpayable",
      "type": "function"
    },
    {
      "inputs": [
        {
          "internalType": "address[]",
          "name": "users",
          "type": "address[]"
        },
        {
          "internalType": "address[][]",
          "name": "tokens",
          "type": "address[][]"
        },
        {
          "internalType": "uint256[][]",
          "name": "amounts",
          "type": "uint256[][]"
        }
      ],
      "name": "setUserBalance",
      "outputs": [],
      "stateMutability": "nonpayable",
      "type": "function"
    },
    {
      "inputs": [
        {
          "internalType": "address[]",
          "name": "supplyTokens",
          "type": "address[]"
        },
        {
          "internalType": "bool[]",
          "name": "enable",
          "type": "bool[]"
        }
      ],
      "name": "switchPool",
      "outputs": [],
      "stateMutability": "nonpayable",
      "type": "function"
    },
    {
      "inputs": [
        {
          "internalType": "address[]",
          "name": "users",
          "type": "address[]"
        },
        {
          "internalType": "bool[]",
          "name": "enable",
          "type": "bool[]"
        }
      ],
      "name": "switchWhiteList",
      "outputs": [],
      "stateMutability": "nonpayable",
      "type": "function"
    },
    {
      "inputs": [
        {
          "internalType": "address",
          "name": "newOwner",
          "type": "address"
        }
      ],
      "name": "transferOwnership",
      "outputs": [],
      "stateMutability": "nonpayable",
      "type": "function"
    },
    {
      "inputs": [
        {
          "internalType": "address[]",
          "name": "supplyTokens",
          "type": "address[]"
        },
        {
          "internalType": "uint256[]",
          "name": "amounts",
          "type": "uint256[]"
        }
      ],
      "name": "updateMinDeposit",
      "outputs": [],
      "stateMutability": "nonpayable",
      "type": "function"
    },
    {
      "inputs": [
        {
          "internalType": "address",
          "name": "",
          "type": "address"
        },
        {
          "internalType": "address",
          "name": "",
          "type": "address"
        }
      ],
      "name": "userBalance",
      "outputs": [
        {
          "internalType": "uint256",
          "name": "",
          "type": "uint256"
        }
      ],
      "stateMutability": "view",
      "type": "function"
    },
    {
      "inputs": [
        {
          "internalType": "address",
          "name": "",
          "type": "address"
        }
      ],
      "name": "whiteList",
      "outputs": [
        {
          "internalType": "bool",
          "name": "",
          "type": "bool"
        }
      ],
      "stateMutability": "view",
      "type": "function"
    },
    {
      "inputs": [
        {
          "internalType": "address",
          "name": "token",
          "type": "address"
        },
        {
          "internalType": "uint256",
          "name": "amount",
          "type": "uint256"
        }
      ],
      "name": "withdraw",
      "outputs": [],
      "stateMutability": "nonpayable",
      "type": "function"
    },
    {
      "stateMutability": "payable",
      "type": "receive"
    }
  ],
  "bytecode": "0x60806040526003805460ff191690553480156200001b57600080fd5b5060405162002947380380620029478339810160408190526200003e91620000be565b60006200004a620000ba565b600080546001600160a01b0319166001600160a01b0383169081178255604051929350917f8be0079c531659141344cd1fd0a4f28419497f9722a3daafe3b4186f6b6457e0908290a350600880546001600160a01b0319166001600160a01b0392909216919091179055620000ee565b3390565b600060208284031215620000d0578081fd5b81516001600160a01b0381168114620000e7578182fd5b9392505050565b61284980620000fe6000396000f3fe60806040526004361061014f5760003560e01c8063a5dfc467116100b6578063ef78d4fd1161006f578063ef78d4fd146103bf578063ef976e7e146103e1578063f0fcc6bb14610401578063f2fde38b14610421578063f3fef3a314610441578063ffb5e2761461046157610189565b8063a5dfc467146102ff578063a832fcd41461031f578063ac4afa381461033f578063b1af99cf1461035f578063e0faa9a21461037f578063e0fe5f621461039f57610189565b806362a4b0a91161010857806362a4b0a914610250578063715018a61461027057806373e02998146102855780638da5cb5b1461029a5780639a7b5f11146102af578063a54dd6a8146102df57610189565b8063372c12b11461018e5780634641ca17146101c457806347e7ef24146101e65780634aa4a4fc146101f95780634d0a5dbd1461021b5780634ffc82ea1461023b57610189565b36610189576008546001600160a01b031633146101875760405162461bcd60e51b815260040161017e906125cb565b60405180910390fd5b005b600080fd5b34801561019a57600080fd5b506101ae6101a936600461209b565b610481565b6040516101bb91906124e7565b60405180910390f35b3480156101d057600080fd5b506101d9610496565b6040516101bb91906126b8565b6101876101f43660046120e7565b61049c565b34801561020557600080fd5b5061020e6106ae565b6040516101bb91906123b7565b34801561022757600080fd5b506101ae61023636600461209b565b6106bd565b34801561024757600080fd5b506101d96107ad565b34801561025c57600080fd5b506101d961026b3660046120b5565b6107be565b34801561027c57600080fd5b506101876107db565b34801561029157600080fd5b506101ae610887565b3480156102a657600080fd5b5061020e6108a1565b3480156102bb57600080fd5b506102cf6102ca36600461209b565b6108b0565b6040516101bb94939291906124f2565b3480156102eb57600080fd5b506101876102fa3660046122e3565b6108dd565b34801561030b57600080fd5b5061018761031a36600461214b565b610a7e565b34801561032b57600080fd5b5061018761033a36600461221d565b610e1f565b34801561034b57600080fd5b5061020e61035a366004612344565b610f78565b34801561036b57600080fd5b506101ae61037a36600461209b565b610fa2565b34801561038b57600080fd5b506101ae61039a36600461209b565b61108a565b3480156103ab57600080fd5b506101876103ba36600461221d565b611097565b3480156103cb57600080fd5b506103d4611246565b6040516101bb919061250f565b3480156103ed57600080fd5b506101876103fc3660046122e3565b61124f565b34801561040d57600080fd5b5061018761041c366004612110565b6114ab565b34801561042d57600080fd5b5061018761043c36600461209b565b6115b5565b34801561044d57600080fd5b5061018761045c3660046120e7565b6116b7565b34801561046d57600080fd5b5061020e61047c366004612344565b611869565b60056020526000908152604090205460ff1681565b60075481565b818160006003805460ff16908111156104b157fe5b146104ce5760405162461bcd60e51b815260040161017e90612663565b6001600160a01b03821660009081526004602052604090205460ff16801561051357506001600160a01b038216600090815260046020526040902054610100900460ff165b61052f5760405162461bcd60e51b815260040161017e9061268f565b60008111801561055a57506001600160a01b0382166000908152600460205260409020600101548110155b6105765760405162461bcd60e51b815260040161017e9061259b565b3360009081526005602052604090205460ff166105a55760405162461bcd60e51b815260040161017e90612523565b6008546001600160a01b0385811691161415610648578234146105da5760405162461bcd60e51b815260040161017e90612638565b600860009054906101000a90046001600160a01b03166001600160a01b031663d0e30db0346040518263ffffffff1660e01b81526004016000604051808303818588803b15801561062a57600080fd5b505af115801561063e573d6000803e3d6000fd5b505050505061065d565b61065d6001600160a01b038516333086611937565b836001600160a01b0316336001600160a01b03167f5548c837ab068cf56a2c2479df0882a4922fd203edb7517321831d95078c5f62856040516106a091906126b8565b60405180910390a350505050565b6008546001600160a01b031681565b60006106c7611997565b6001600160a01b03166106d86108a1565b6001600160a01b031614610721576040805162461bcd60e51b815260206004820181905260248201526000805160206127ca833981519152604482015290519081900360640190fd5b6001600160a01b0382166107665760405162461bcd60e51b815260040180806020018281038252602c815260200180612704602c913960400191505060405180910390fd5b6040516001600160a01b038316907fd8dc9578ceae094520aff2ba139a77dd24473034f8dbc74d85f6b02768c3377990600090a26107a560018361199b565b90505b919050565b60006107b960016119b9565b905090565b600660209081526000928352604080842090915290825290205481565b6107e3611997565b6001600160a01b03166107f46108a1565b6001600160a01b03161461083d576040805162461bcd60e51b815260206004820181905260248201526000805160206127ca833981519152604482015290519081900360640190fd5b600080546040516001600160a01b03909116907f8be0079c531659141344cd1fd0a4f28419497f9722a3daafe3b4186f6b6457e0908390a3600080546001600160a01b0319169055565b6000806003805460ff169081111561089b57fe5b14905090565b6000546001600160a01b031690565b60046020526000908152604090208054600182015460029092015460ff8083169361010090930416919084565b6108e5611997565b6001600160a01b03166108f66108a1565b6001600160a01b03161461093f576040805162461bcd60e51b815260206004820181905260248201526000805160206127ca833981519152604482015290519081900360640190fd5b80518251146109605760405162461bcd60e51b815260040161017e906125ee565b60005b8251811015610a79576004600084838151811061097c57fe5b6020908102919091018101516001600160a01b031682528101919091526040016000205460ff166109bf5760405162461bcd60e51b815260040161017e90612616565b8181815181106109cb57fe5b6020026020010151600460008584815181106109e357fe5b60200260200101516001600160a01b03166001600160a01b03168152602001908152602001600020600101819055507f7701252c9f27dee26918005a63d77270b4e89bde7984a89bdf4b0b7c9c2776b9838281518110610a3f57fe5b6020026020010151838381518110610a5357fe5b6020026020010151604051610a699291906123e6565b60405180910390a1600101610963565b505050565b610a86611997565b6001600160a01b0316610a976108a1565b6001600160a01b031614610ae0576040805162461bcd60e51b815260206004820181905260248201526000805160206127ca833981519152604482015290519081900360640190fd5b825160095460009067ffffffffffffffff81118015610afe57600080fd5b50604051908082528060200260200182016040528015610b28578160200160208202803683370190505b50905060005b82811015610cbd576000858281518110610b4457fe5b602002602001015190506000858381518110610b5c57fe5b602002602001015190508051825114610b875760405162461bcd60e51b815260040161017e906125ee565b60005b8251811015610cb257818481518110610b9f57fe5b6020026020010151600660008b8781518110610bb757fe5b60200260200101516001600160a01b03166001600160a01b031681526020019081526020016000206000858781518110610bed57fe5b60200260200101516001600160a01b03166001600160a01b0316815260200190815260200160002081905550600060046000858781518110610c2b57fe5b60200260200101516001600160a01b03166001600160a01b03168152602001908152602001600020600201549050610c92838681518110610c6857fe5b6020026020010151878381518110610c7c57fe5b60200260200101516119c490919063ffffffff16565b868281518110610c9e57fe5b602090810291909101015250600101610b8a565b505050600101610b2e565b5060005b600954811015610ddc5760006004600060098481548110610cde57fe5b60009182526020808320909101546001600160a01b03168352820192909252604001902060020154600980549192509083908110610d1857fe5b6000918252602090912001546040516370a0823160e01b81526001600160a01b03909116906370a0823190610d519030906004016123b7565b60206040518083038186803b158015610d6957600080fd5b505afa158015610d7d573d6000803e3d6000fd5b505050506040513d601f19601f82011682018060405250810190610da1919061235c565b838281518110610dad57fe5b60200260200101511115610dd35760405162461bcd60e51b815260040161017e90612571565b50600101610cc1565b507f385fb2bd738736389980f50760c38229ea83e5866f40e0850cfa4114f4cbf9a0858585604051610e10939291906123ff565b60405180910390a15050505050565b610e27611997565b6001600160a01b0316610e386108a1565b6001600160a01b031614610e81576040805162461bcd60e51b815260206004820181905260248201526000805160206127ca833981519152604482015290519081900360640190fd5b8051825114610ea25760405162461bcd60e51b815260040161017e906125ee565b60005b8251811015610a7957818181518110610eba57fe5b602002602001015160056000858481518110610ed257fe5b60200260200101516001600160a01b03166001600160a01b0316815260200190815260200160002060006101000a81548160ff0219169083151502179055507f0a915e652c19cda0ac2f707ba1cb81df8996d4508f603490118a91c316eab1cc838281518110610f3e57fe5b6020026020010151838381518110610f5257fe5b6020026020010151604051610f689291906123cb565b60405180910390a1600101610ea5565b60098181548110610f8857600080fd5b6000918252602090912001546001600160a01b0316905081565b6000610fac611997565b6001600160a01b0316610fbd6108a1565b6001600160a01b031614611006576040805162461bcd60e51b815260206004820181905260248201526000805160206127ca833981519152604482015290519081900360640190fd5b6001600160a01b03821661104b5760405162461bcd60e51b815260040180806020018281038252602c81526020018061279e602c913960400191505060405180910390fd5b6040516001600160a01b038316907ff63eb610adad478002288c0957a6037ba30c916a12eb8b9fc01fed014f1dc15790600090a26107a5600183611a1e565b60006107a5600183611a33565b61109f611997565b6001600160a01b03166110b06108a1565b6001600160a01b0316146110f9576040805162461bcd60e51b815260206004820181905260248201526000805160206127ca833981519152604482015290519081900360640190fd5b805182511461111a5760405162461bcd60e51b815260040161017e906125ee565b60005b8251811015610a79576004600084838151811061113657fe5b6020908102919091018101516001600160a01b031682528101919091526040016000205460ff166111795760405162461bcd60e51b815260040161017e90612616565b81818151811061118557fe5b60200260200101516004600085848151811061119d57fe5b60200260200101516001600160a01b03166001600160a01b0316815260200190815260200160002060000160016101000a81548160ff0219169083151502179055507fe56fb831eb6e613e8914b7f5bbb52481f9174d8397cfea104b264676465df2d983828151811061120c57fe5b602002602001015183838151811061122057fe5b60200260200101516040516112369291906123cb565b60405180910390a160010161111d565b60035460ff1681565b611257611997565b6001600160a01b03166112686108a1565b6001600160a01b0316146112b1576040805162461bcd60e51b815260206004820181905260248201526000805160206127ca833981519152604482015290519081900360640190fd5b80518251146112d25760405162461bcd60e51b815260040161017e906125ee565b815160005b8181101561149d57600460008583815181106112ef57fe5b6020908102919091018101516001600160a01b031682528101919091526040016000205460ff16156113335760405162461bcd60e51b815260040161017e9061254b565b604051806080016040528060011515815260200160011515815260200184838151811061135c57fe5b6020026020010151815260200182600754018152506004600086848151811061138157fe5b6020908102919091018101516001600160a01b03168252818101929092526040908101600020835181549385015115156101000261ff001991151560ff199095169490941716929092178255820151600182015560609091015160029091015583518490829081106113ef57fe5b60200260200101516001600160a01b03167f865db32d629b778510d2a2bd16751d214bd4a78253e6670dcebb9d1e5e3d632784838151811061142d57fe5b602002602001015160405161144291906126b8565b60405180910390a2600984828151811061145857fe5b60209081029190910181015182546001808201855560009485529290932090920180546001600160a01b0319166001600160a01b0390931692909217909155016112d7565b506007805490910190555050565b6114b43361108a565b611505576040805162461bcd60e51b815260206004820152601c60248201527f63616c6c6572206973206e6f7420746865207065726d697373696f6e00000000604482015290519081900360640190fd5b6040516370a0823160e01b815282906001600160a01b038516906370a08231906115339030906004016123b7565b60206040518083038186803b15801561154b57600080fd5b505afa15801561155f573d6000803e3d6000fd5b505050506040513d601f19601f82011682018060405250810190611583919061235c565b10156115a15760405162461bcd60e51b815260040161017e90612571565b610a796001600160a01b0384168284611a48565b6115bd611997565b6001600160a01b03166115ce6108a1565b6001600160a01b031614611617576040805162461bcd60e51b815260206004820181905260248201526000805160206127ca833981519152604482015290519081900360640190fd5b6001600160a01b03811661165c5760405162461bcd60e51b81526004018080602001828103825260268152602001806127526026913960400191505060405180910390fd5b600080546040516001600160a01b03808516939216917f8be0079c531659141344cd1fd0a4f28419497f9722a3daafe3b4186f6b6457e091a3600080546001600160a01b0319166001600160a01b0392909216919091179055565b818160026003805460ff16908111156116cc57fe5b146116e95760405162461bcd60e51b815260040161017e90612663565b3360009081526006602090815260408083206001600160a01b038616845290915290205481111561171957600080fd5b3360009081526006602090815260408083206001600160a01b03881684529091529020546117479084611a9a565b3360009081526006602090815260408083206001600160a01b0389811680865291909352922092909255600854909116141561181257600854604051632e1a7d4d60e01b81526001600160a01b0390911690632e1a7d4d906117ad9086906004016126b8565b600060405180830381600087803b1580156117c757600080fd5b505af11580156117db573d6000803e3d6000fd5b505060405133925085156108fc02915085906000818181858888f1935050505015801561180c573d6000803e3d6000fd5b50611826565b6118266001600160a01b0385163385611a48565b836001600160a01b0316336001600160a01b03167f9b1bfa7fa9ee420a16e124f794c35ac9f90472acc99140eb2f6447c714cad8eb856040516106a091906126b8565b6000611873611997565b6001600160a01b03166118846108a1565b6001600160a01b0316146118cd576040805162461bcd60e51b815260206004820181905260248201526000805160206127ca833981519152604482015290519081900360640190fd5b60016118d76107ad565b0382111561192c576040805162461bcd60e51b815260206004820152601d60248201527f4d756c7469706c653a20696e646578206f7574206f6620626f756e6473000000604482015290519081900360640190fd5b6107a5600183611af7565b604080516001600160a01b0380861660248301528416604482015260648082018490528251808303909101815260849091019091526020810180516001600160e01b03166323b872dd60e01b179052611991908590611b03565b50505050565b3390565b60006119b0836001600160a01b038416611bb4565b90505b92915050565b60006107a582611bfe565b6000828201838110156119b0576040805162461bcd60e51b815260206004820152601b60248201527f536166654d6174683a206164646974696f6e206f766572666c6f770000000000604482015290519081900360640190fd5b60006119b0836001600160a01b038416611c02565b60006119b0836001600160a01b038416611cc8565b604080516001600160a01b038416602482015260448082018490528251808303909101815260649091019091526020810180516001600160e01b031663a9059cbb60e01b179052610a79908490611b03565b600082821115611af1576040805162461bcd60e51b815260206004820152601e60248201527f536166654d6174683a207375627472616374696f6e206f766572666c6f770000604482015290519081900360640190fd5b50900390565b60006119b08383611ce0565b6000611b58826040518060400160405280602081526020017f5361666545524332303a206c6f772d6c6576656c2063616c6c206661696c6564815250856001600160a01b0316611d449092919063ffffffff16565b805190915015610a7957808060200190516020811015611b7757600080fd5b5051610a795760405162461bcd60e51b815260040180806020018281038252602a8152602001806127ea602a913960400191505060405180910390fd5b6000611bc08383611cc8565b611bf6575081546001818101845560008481526020808220909301849055845484825282860190935260409020919091556119b3565b5060006119b3565b5490565b60008181526001830160205260408120548015611cbe5783546000198083019190810190600090879083908110611c3557fe5b9060005260206000200154905080876000018481548110611c5257fe5b600091825260208083209091019290925582815260018981019092526040902090840190558654879080611c8257fe5b600190038181906000526020600020016000905590558660010160008781526020019081526020016000206000905560019450505050506119b3565b60009150506119b3565b60009081526001919091016020526040902054151590565b81546000908210611d225760405162461bcd60e51b81526004018080602001828103825260228152602001806127306022913960400191505060405180910390fd5b826000018281548110611d3157fe5b9060005260206000200154905092915050565b6060611d538484600085611d5d565b90505b9392505050565b606082471015611d9e5760405162461bcd60e51b81526004018080602001828103825260268152602001806127786026913960400191505060405180910390fd5b611da785611eb8565b611df8576040805162461bcd60e51b815260206004820152601d60248201527f416464726573733a2063616c6c20746f206e6f6e2d636f6e7472616374000000604482015290519081900360640190fd5b600080866001600160a01b031685876040518082805190602001908083835b60208310611e365780518252601f199092019160209182019101611e17565b6001836020036101000a03801982511681845116808217855250505050505090500191505060006040518083038185875af1925050503d8060008114611e98576040519150601f19603f3d011682016040523d82523d6000602084013e611e9d565b606091505b5091509150611ead828286611ebe565b979650505050505050565b3b151590565b60608315611ecd575081611d56565b825115611edd5782518084602001fd5b8160405162461bcd60e51b81526004018080602001828103825283818151815260200191508051906020019080838360005b83811015611f27578181015183820152602001611f0f565b50505050905090810190601f168015611f545780820380516001836020036101000a031916815260200191505b509250505060405180910390fd5b80356001600160a01b03811681146107a857600080fd5b600082601f830112611f89578081fd5b81356020611f9e611f99836126e5565b6126c1565b8281528181019085830183850287018401881015611fba578586fd5b855b85811015611fdf57611fcd82611f62565b84529284019290840190600101611fbc565b5090979650505050505050565b600082601f830112611ffc578081fd5b8135602061200c611f99836126e5565b82815281810190858301855b85811015611fdf5761202f898684358b0101612041565b84529284019290840190600101612018565b600082601f830112612051578081fd5b81356020612061611f99836126e5565b828152818101908583018385028701840188101561207d578586fd5b855b85811015611fdf5781358452928401929084019060010161207f565b6000602082840312156120ac578081fd5b6119b082611f62565b600080604083850312156120c7578081fd5b6120d083611f62565b91506120de60208401611f62565b90509250929050565b600080604083850312156120f9578182fd5b61210283611f62565b946020939093013593505050565b600080600060608486031215612124578081fd5b61212d84611f62565b92506020840135915061214260408501611f62565b90509250925092565b60008060006060848603121561215f578283fd5b833567ffffffffffffffff80821115612176578485fd5b61218287838801611f79565b9450602091508186013581811115612198578485fd5b8601601f810188136121a8578485fd5b80356121b6611f99826126e5565b81815284810190838601885b848110156121eb576121d98d898435890101611f79565b845292870192908701906001016121c2565b50909750505050604087013592505080821115612206578283fd5b5061221386828701611fec565b9150509250925092565b6000806040838503121561222f578182fd5b823567ffffffffffffffff80821115612246578384fd5b61225286838701611f79565b9350602091508185013581811115612268578384fd5b85019050601f8101861361227a578283fd5b8035612288611f99826126e5565b81815283810190838501858402850186018a10156122a4578687fd5b8694505b838510156122d357803580151581146122bf578788fd5b8352600194909401939185019185016122a8565b5080955050505050509250929050565b600080604083850312156122f5578081fd5b823567ffffffffffffffff8082111561230c578283fd5b61231886838701611f79565b9350602085013591508082111561232d578283fd5b5061233a85828601612041565b9150509250929050565b600060208284031215612355578081fd5b5035919050565b60006020828403121561236d578081fd5b5051919050565b6000815180845260208085019450808401835b838110156123ac5781516001600160a01b031687529582019590820190600101612387565b509495945050505050565b6001600160a01b0391909116815260200190565b6001600160a01b039290921682521515602082015260400190565b6001600160a01b03929092168252602082015260400190565b6000606082526124126060830186612374565b602083820381850152818651808452828401915082838202850101838901865b8381101561246057601f1987840301855261244e838351612374565b94860194925090850190600101612432565b50508681036040880152875180825284820195509250838302810184019150838801865b848110156124d757828403601f190187528151805180865290870190878601908a5b818110156124c2578351835292890192918901916001016124a6565b50509787019794505090850190600101612484565b50919a9950505050505050505050565b901515815260200190565b931515845291151560208401526040830152606082015260800190565b602081016004831061251d57fe5b91905290565b6020808252600e908201526d1393d50815d212551148131254d560921b604082015260600190565b6020808252600c908201526b10531491505116481253925560a21b604082015260600190565b60208082526010908201526f4e4f5420454e4f554748204d4f4e455960801b604082015260600190565b602080825260169082015275125395905312510811115413d4d25508105353d5539560521b604082015260600190565b6020808252600990820152684e6f7420574554483960b81b604082015260600190565b6020808252600e908201526d12539590531251081193d493505560921b604082015260600190565b6020808252600890820152671393d5081253925560c21b604082015260600190565b602080825260119082015270494e56414c4944204554482056414c554560781b604082015260600190565b60208082526012908201527143414e4e4f54204445504f534954204e4f5760701b604082015260600190565b6020808252600f908201526e4e4f5420535550504f5254204e4f5760881b604082015260600190565b90815260200190565b60405181810167ffffffffffffffff811182821017156126dd57fe5b604052919050565b600067ffffffffffffffff8211156126f957fe5b506020908102019056fe4d756c7469706c653a205f6164645065726d697373696f6e20697320746865207a65726f2061646472657373456e756d657261626c655365743a20696e646578206f7574206f6620626f756e64734f776e61626c653a206e6577206f776e657220697320746865207a65726f2061646472657373416464726573733a20696e73756666696369656e742062616c616e636520666f722063616c6c4d756c7469706c653a205f64656c5065726d697373696f6e20697320746865207a65726f20616464726573734f776e61626c653a2063616c6c6572206973206e6f7420746865206f776e65725361666545524332303a204552433230206f7065726174696f6e20646964206e6f742073756363656564a26469706673582212204dfe6ddead3d8cfb54dc5110e75da6e0dfcdd36317b144fcf6ee10e4d2f95a4364736f6c63430007060033",
  "linkReferences": {},
  "deployedLinkReferences": {}
}