{
  "_format": "hh-sol-artifact-1",
  "contractName": "Sandbox",
  "sourceName": "contracts/Sandbox.sol",
  "abi": [
    {
      "inputs": [
        {
          "internalType": "contract IUniswapV3Factory",
          "name": "_factory",
          "type": "address"
        }
      ],
      "stateMutability": "nonpayable",
      "type": "constructor"
    },
    {
      "inputs": [
        {
          "components": [
            {
              "internalType": "address",
              "name": "token0",
              "type": "address"
            },
            {
              "internalType": "address",
              "name": "token1",
              "type": "address"
            },
            {
              "internalType": "uint24",
              "name": "fee",
              "type": "uint24"
            }
          ],
          "internalType": "struct Sandbox.Pool",
          "name": "pool",
          "type": "tuple"
        },
        {
          "internalType": "int24",
          "name": "tickLower",
          "type": "int24"
        },
        {
          "internalType": "int24",
          "name": "tickUpper",
          "type": "int24"
        },
        {
          "internalType": "uint128",
          "name": "amount",
          "type": "uint128"
        }
      ],
      "name": "burn",
      "outputs": [],
      "stateMutability": "nonpayable",
      "type": "function"
    },
    {
      "inputs": [],
      "name": "factory",
      "outputs": [
        {
          "internalType": "contract IUniswapV3Factory",
          "name": "",
          "type": "address"
        }
      ],
      "stateMutability": "view",
      "type": "function"
    },
    {
      "inputs": [
        {
          "components": [
            {
              "internalType": "address",
              "name": "token0",
              "type": "address"
            },
            {
              "internalType": "address",
              "name": "token1",
              "type": "address"
            },
            {
              "internalType": "uint24",
              "name": "fee",
              "type": "uint24"
            }
          ],
          "internalType": "struct Sandbox.Pool",
          "name": "pool",
          "type": "tuple"
        },
        {
          "internalType": "uint160",
          "name": "sqrtPriceX96",
          "type": "uint160"
        }
      ],
      "name": "initialize",
      "outputs": [],
      "stateMutability": "nonpayable",
      "type": "function"
    },
    {
      "inputs": [
        {
          "components": [
            {
              "internalType": "address",
              "name": "token0",
              "type": "address"
            },
            {
              "internalType": "address",
              "name": "token1",
              "type": "address"
            },
            {
              "internalType": "uint24",
              "name": "fee",
              "type": "uint24"
            }
          ],
          "internalType": "struct Sandbox.Pool",
          "name": "pool",
          "type": "tuple"
        },
        {
          "internalType": "int24",
          "name": "tickLower",
          "type": "int24"
        },
        {
          "internalType": "int24",
          "name": "tickUpper",
          "type": "int24"
        },
        {
          "internalType": "uint128",
          "name": "amount",
          "type": "uint128"
        }
      ],
      "name": "mint",
      "outputs": [],
      "stateMutability": "nonpayable",
      "type": "function"
    },
    {
      "inputs": [
        {
          "internalType": "bytes[]",
          "name": "data",
          "type": "bytes[]"
        }
      ],
      "name": "multicall",
      "outputs": [
        {
          "internalType": "bytes[]",
          "name": "results",
          "type": "bytes[]"
        }
      ],
      "stateMutability": "payable",
      "type": "function"
    },
    {
      "inputs": [],
      "name": "owner",
      "outputs": [
        {
          "internalType": "address",
          "name": "",
          "type": "address"
        }
      ],
      "stateMutability": "view",
      "type": "function"
    },
    {
      "inputs": [
        {
          "components": [
            {
              "internalType": "address",
              "name": "token0",
              "type": "address"
            },
            {
              "internalType": "address",
              "name": "token1",
              "type": "address"
            },
            {
              "internalType": "uint24",
              "name": "fee",
              "type": "uint24"
            }
          ],
          "internalType": "struct Sandbox.Pool",
          "name": "pool",
          "type": "tuple"
        },
        {
          "internalType": "uint256",
          "name": "amountSpecified",
          "type": "uint256"
        },
        {
          "internalType": "bool",
          "name": "zeroForOne",
          "type": "bool"
        }
      ],
      "name": "swap",
      "outputs": [
        {
          "internalType": "uint160",
          "name": "sqrtPriceX96",
          "type": "uint160"
        },
        {
          "internalType": "int24",
          "name": "tick",
          "type": "int24"
        }
      ],
      "stateMutability": "nonpayable",
      "type": "function"
    },
    {
      "inputs": [
        {
          "internalType": "uint256",
          "name": "amount0Owed",
          "type": "uint256"
        },
        {
          "internalType": "uint256",
          "name": "amount1Owed",
          "type": "uint256"
        },
        {
          "internalType": "bytes",
          "name": "data",
          "type": "bytes"
        }
      ],
      "name": "uniswapV3MintCallback",
      "outputs": [],
      "stateMutability": "nonpayable",
      "type": "function"
    },
    {
      "inputs": [
        {
          "internalType": "int256",
          "name": "amount0Delta",
          "type": "int256"
        },
        {
          "internalType": "int256",
          "name": "amount1Delta",
          "type": "int256"
        },
        {
          "internalType": "bytes",
          "name": "_data",
          "type": "bytes"
        }
      ],
      "name": "uniswapV3SwapCallback",
      "outputs": [],
      "stateMutability": "nonpayable",
      "type": "function"
    },
    {
      "inputs": [
        {
          "internalType": "contract IERC20",
          "name": "token",
          "type": "address"
        }
      ],
      "name": "withdraw",
      "outputs": [],
      "stateMutability": "nonpayable",
      "type": "function"
    }
  ],
  "bytecode": "0x608060405234801561001057600080fd5b506040516116c23803806116c283398101604081905261002f9161005d565b600180546001600160a01b039092166001600160a01b0319928316179055600080549091163317905561008b565b60006020828403121561006e578081fd5b81516001600160a01b0381168114610084578182fd5b9392505050565b6116288061009a6000396000f3fe6080604052600436106100915760003560e01c8063be4c053711610059578063be4c053714610151578063c45a015514610171578063d348799714610186578063f3f3e900146101a6578063fa461e33146101c657610091565b806351cff8d9146100965780637600b8f7146100b85780638da5cb5b146100d8578063a4f17f1c14610103578063ac9650d814610131575b600080fd5b3480156100a257600080fd5b506100b66100b1366004610fe2565b6101e6565b005b3480156100c457600080fd5b506100b66100d3366004611124565b6102f6565b3480156100e457600080fd5b506100ed61046a565b6040516100fa919061130d565b60405180910390f35b34801561010f57600080fd5b5061012361011e3660046111b5565b610479565b6040516100fa929190611517565b61014461013f366004610f57565b610693565b6040516100fa9190611427565b34801561015d57600080fd5b506100b661016c36600461117e565b6107d3565b34801561017d57600080fd5b506100ed6108ec565b34801561019257600080fd5b506100b66101a1366004611021565b6108fb565b3480156101b257600080fd5b506100b66101c1366004611124565b610ae8565b3480156101d257600080fd5b506100b66101e1366004611021565b610cb1565b6000546001600160a01b031633146101fd57600080fd5b6040516370a0823160e01b81526001600160a01b0382169063a9059cbb90339083906370a082319061023390309060040161130d565b60206040518083038186803b15801561024b57600080fd5b505afa15801561025f573d6000803e3d6000fd5b505050506040513d601f19601f8201168201806040525081019061028391906112b9565b6040518363ffffffff1660e01b81526004016102a0929190611321565b602060405180830381600087803b1580156102ba57600080fd5b505af11580156102ce573d6000803e3d6000fd5b505050506040513d601f19601f820116820180604052508101906102f29190610fc6565b5050565b6000546001600160a01b031633146103295760405162461bcd60e51b8152600401610320906114c0565b60405180910390fd5b600154845160208601516040808801519051630b4c774160e11b81526000946001600160a01b031693631698ee829361036993919290919060040161133a565b602060405180830381600087803b15801561038357600080fd5b505af1158015610397573d6000803e3d6000fd5b505050506040513d601f19601f820116820180604052508101906103bb9190610f34565b9050806001600160a01b0316633c8a7d8d308686868a6040516020016103e191906114e3565b6040516020818303038152906040526040518663ffffffff1660e01b81526004016104109594939291906113a8565b6040805180830381600087803b15801561042957600080fd5b505af115801561043d573d6000803e3d6000fd5b505050506040513d601f19601f820116820180604052508101906104619190610ffe565b50505050505050565b6000546001600160a01b031681565b6000805481906001600160a01b031633146104a65760405162461bcd60e51b8152600401610320906114c0565b600154855160208701516040808901519051630b4c774160e11b81526000946001600160a01b031693631698ee82936104e693919290919060040161133a565b602060405180830381600087803b15801561050057600080fd5b505af1158015610514573d6000803e3d6000fd5b505050506040513d601f19601f820116820180604052508101906105389190610f34565b9050806001600160a01b031663128acb08308661055489610e49565b886105735773fffd8963efd1fc6a506488495d951d5263988d2561057a565b6401000276a45b8b60405160200161058b91906114e3565b6040516020818303038152906040526040518663ffffffff1660e01b81526004016105ba959493929190611362565b6040805180830381600087803b1580156105d357600080fd5b505af11580156105e7573d6000803e3d6000fd5b505050506040513d601f19601f8201168201806040525081019061060b9190610ffe565b5050806001600160a01b0316633850c7bd6040518163ffffffff1660e01b815260040160e060405180830381600087803b15801561064857600080fd5b505af115801561065c573d6000803e3d6000fd5b505050506040513d601f19601f820116820180604052508101906106809190611223565b50949b939a509298505050505050505050565b60608167ffffffffffffffff811180156106ac57600080fd5b506040519080825280602002602001820160405280156106e057816020015b60608152602001906001900390816106cb5790505b50905060005b828110156107cc57600080308686858181106106fe57fe5b90506020028101906107109190611533565b60405161071e9291906112fd565b600060405180830381855af49150503d8060008114610759576040519150601f19603f3d011682016040523d82523d6000602084013e61075e565b606091505b5091509150816107aa5760448151101561077757600080fd5b600481019050808060200190518101906107919190611072565b60405162461bcd60e51b815260040161032091906114ad565b808484815181106107b757fe5b602090810291909101015250506001016106e6565b5092915050565b6000546001600160a01b031633146107fd5760405162461bcd60e51b8152600401610320906114c0565b600154825160208401516040808601519051630b4c774160e11b81526000946001600160a01b031693631698ee829361083d93919290919060040161133a565b602060405180830381600087803b15801561085757600080fd5b505af115801561086b573d6000803e3d6000fd5b505050506040513d601f19601f8201168201806040525081019061088f9190610f34565b60405163f637731d60e01b81529091506001600160a01b0382169063f637731d906108be90859060040161130d565b600060405180830381600087803b1580156108d857600080fd5b505af1158015610461573d6000803e3d6000fd5b6001546001600160a01b031681565b600061090982840184611109565b600154815160208301516040808501519051630b4c774160e11b81529495506001600160a01b0390931693631698ee829361094893929160040161133a565b602060405180830381600087803b15801561096257600080fd5b505af1158015610976573d6000803e3d6000fd5b505050506040513d601f19601f8201168201806040525081019061099a9190610f34565b6001600160a01b0316336001600160a01b0316146109ca5760405162461bcd60e51b8152600401610320906114c0565b8415610a5557805160405163a9059cbb60e01b81526001600160a01b039091169063a9059cbb90610a019033908990600401611321565b602060405180830381600087803b158015610a1b57600080fd5b505af1158015610a2f573d6000803e3d6000fd5b505050506040513d601f19601f82011682018060405250810190610a539190610fc6565b505b8315610ae15780602001516001600160a01b031663a9059cbb33866040518363ffffffff1660e01b8152600401610a8d929190611321565b602060405180830381600087803b158015610aa757600080fd5b505af1158015610abb573d6000803e3d6000fd5b505050506040513d601f19601f82011682018060405250810190610adf9190610fc6565b505b5050505050565b6000546001600160a01b03163314610b125760405162461bcd60e51b8152600401610320906114c0565b600154845160208601516040808801519051630b4c774160e11b81526000946001600160a01b031693631698ee8293610b5293919290919060040161133a565b602060405180830381600087803b158015610b6c57600080fd5b505af1158015610b80573d6000803e3d6000fd5b505050506040513d601f19601f82011682018060405250810190610ba49190610f34565b60405163a34123a760e01b81529091506001600160a01b0382169063a34123a790610bd790879087908790600401611487565b6040805180830381600087803b158015610bf057600080fd5b505af1158015610c04573d6000803e3d6000fd5b505050506040513d601f19601f82011682018060405250810190610c289190610ffe565b50506040516309e3d67b60e31b81526001600160a01b03821690634f1eb3d890610c60903090889088906000199081906004016113ea565b6040805180830381600087803b158015610c7957600080fd5b505af1158015610c8d573d6000803e3d6000fd5b505050506040513d601f19601f8201168201806040525081019061046191906111f5565b6000610cbf82840184611109565b600154815160208301516040808501519051630b4c774160e11b81529495506001600160a01b0390931693631698ee8293610cfe93929160040161133a565b602060405180830381600087803b158015610d1857600080fd5b505af1158015610d2c573d6000803e3d6000fd5b505050506040513d601f19601f82011682018060405250810190610d509190610f34565b6001600160a01b0316336001600160a01b031614610d805760405162461bcd60e51b8152600401610320906114c0565b6000851315610e0e57805160405163a9059cbb60e01b81526001600160a01b039091169063a9059cbb90610dba9033908990600401611321565b602060405180830381600087803b158015610dd457600080fd5b505af1158015610de8573d6000803e3d6000fd5b505050506040513d601f19601f82011682018060405250810190610e0c9190610fc6565b505b6000841315610ae15780602001516001600160a01b031663a9059cbb33866040518363ffffffff1660e01b8152600401610a8d929190611321565b6000600160ff1b8210610e5b57600080fd5b5090565b60008083601f840112610e70578182fd5b50813567ffffffffffffffff811115610e87578182fd5b602083019150836020828501011115610e9f57600080fd5b9250929050565b600060608284031215610eb7578081fd5b6040516060810181811067ffffffffffffffff82111715610ed457fe5b6040529050808235610ee5816115a8565b81526020830135610ef5816115a8565b6020820152604083013562ffffff81168114610f1057600080fd5b6040919091015292915050565b805161ffff81168114610f2f57600080fd5b919050565b600060208284031215610f45578081fd5b8151610f50816115a8565b9392505050565b60008060208385031215610f69578081fd5b823567ffffffffffffffff80821115610f80578283fd5b818501915085601f830112610f93578283fd5b813581811115610fa1578384fd5b8660208083028501011115610fb4578384fd5b60209290920196919550909350505050565b600060208284031215610fd7578081fd5b8151610f50816115c0565b600060208284031215610ff3578081fd5b8135610f50816115a8565b60008060408385031215611010578182fd5b505080516020909101519092909150565b60008060008060608587031215611036578182fd5b8435935060208501359250604085013567ffffffffffffffff81111561105a578283fd5b61106687828801610e5f565b95989497509550505050565b600060208284031215611083578081fd5b815167ffffffffffffffff8082111561109a578283fd5b818401915084601f8301126110ad578283fd5b8151818111156110b957fe5b604051601f8201601f1916810160200183811182821017156110d757fe5b6040528181528382016020018710156110ee578485fd5b6110ff826020830160208701611578565b9695505050505050565b60006060828403121561111a578081fd5b610f508383610ea6565b60008060008060c08587031215611139578182fd5b6111438686610ea6565b93506060850135611153816115ce565b92506080850135611163816115ce565b915060a0850135611173816115dd565b939692955090935050565b60008060808385031215611190578182fd5b61119a8484610ea6565b915060608301356111aa816115a8565b809150509250929050565b600080600060a084860312156111c9578081fd5b6111d38585610ea6565b92506060840135915060808401356111ea816115c0565b809150509250925092565b60008060408385031215611207578182fd5b8251611212816115dd565b60208401519092506111aa816115dd565b600080600080600080600060e0888a03121561123d578485fd5b8751611248816115a8565b6020890151909750611259816115ce565b955061126760408901610f1d565b945061127560608901610f1d565b935061128360808901610f1d565b925060a088015160ff81168114611298578283fd5b60c08901519092506112a9816115c0565b8091505092959891949750929550565b6000602082840312156112ca578081fd5b5051919050565b600081518084526112e9816020860160208601611578565b601f01601f19169290920160200192915050565b6000828483379101908152919050565b6001600160a01b0391909116815260200190565b6001600160a01b03929092168252602082015260400190565b6001600160a01b03938416815291909216602082015262ffffff909116604082015260600190565b6001600160a01b0386811682528515156020830152604082018590528316606082015260a06080820181905260009061139d908301846112d1565b979650505050505050565b600060018060a01b03871682528560020b60208301528460020b60408301526001600160801b038416606083015260a0608083015261139d60a08301846112d1565b6001600160a01b03959095168552600293840b60208601529190920b60408401526001600160801b03918216606084015216608082015260a00190565b6000602080830181845280855180835260408601915060408482028701019250838701855b8281101561147a57603f198886030184526114688583516112d1565b9450928501929085019060010161144c565b5092979650505050505050565b600293840b81529190920b60208201526001600160801b03909116604082015260600190565b600060208252610f5060208301846112d1565b6020808252600990820152682327a92124a22222a760b91b604082015260600190565b81516001600160a01b0390811682526020808401519091169082015260409182015162ffffff169181019190915260600190565b6001600160a01b0392909216825260020b602082015260400190565b6000808335601e19843603018112611549578283fd5b83018035915067ffffffffffffffff821115611563578283fd5b602001915036819003821315610e9f57600080fd5b60005b8381101561159357818101518382015260200161157b565b838111156115a2576000848401525b50505050565b6001600160a01b03811681146115bd57600080fd5b50565b80151581146115bd57600080fd5b8060020b81146115bd57600080fd5b6001600160801b03811681146115bd57600080fdfea26469706673582212200bf469967785acd88f002d5bfbfd05c3804195b49cc4f705c4df0466e8ea9f9b64736f6c63430007060033",
  "linkReferences": {},
  "deployedLinkReferences": {}
}