{
  "_format": "hh-sol-artifact-1",
  "contractName": "MulAuction",
  "sourceName": "contracts/MulAuction.sol",
  "abi": [
    {
      "inputs": [
        {
          "internalType": "contract IERC721",
          "name": "_GPToken",
          "type": "address"
        },
        {
          "internalType": "contract IERC20",
          "name": "_MulToken",
          "type": "address"
        }
      ],
      "stateMutability": "nonpayable",
      "type": "constructor"
    },
    {
      "anonymous": false,
      "inputs": [
        {
          "indexed": false,
          "internalType": "uint256",
          "name": "pid",
          "type": "uint256"
        },
        {
          "indexed": true,
          "internalType": "address",
          "name": "bidder",
          "type": "address"
        },
        {
          "indexed": false,
          "internalType": "uint256",
          "name": "bidPrice",
          "type": "uint256"
        }
      ],
      "name": "Bid",
      "type": "event"
    },
    {
      "anonymous": false,
      "inputs": [
        {
          "indexed": false,
          "internalType": "uint256",
          "name": "pid",
          "type": "uint256"
        },
        {
          "indexed": false,
          "internalType": "uint256",
          "name": "dealPrice",
          "type": "uint256"
        },
        {
          "indexed": true,
          "internalType": "address",
          "name": "bidder",
          "type": "address"
        }
      ],
      "name": "Claim",
      "type": "event"
    },
    {
      "anonymous": false,
      "inputs": [
        {
          "indexed": false,
          "internalType": "uint256",
          "name": "pid",
          "type": "uint256"
        },
        {
          "indexed": false,
          "internalType": "uint256",
          "name": "tokenId",
          "type": "uint256"
        },
        {
          "indexed": false,
          "internalType": "uint256",
          "name": "base",
          "type": "uint256"
        },
        {
          "indexed": false,
          "internalType": "uint256",
          "name": "add",
          "type": "uint256"
        },
        {
          "indexed": false,
          "internalType": "uint256",
          "name": "plusTime",
          "type": "uint256"
        },
        {
          "indexed": false,
          "internalType": "uint256",
          "name": "maxTime",
          "type": "uint256"
        }
      ],
      "name": "Create",
      "type": "event"
    },
    {
      "anonymous": false,
      "inputs": [
        {
          "indexed": true,
          "internalType": "address",
          "name": "previousOwner",
          "type": "address"
        },
        {
          "indexed": true,
          "internalType": "address",
          "name": "newOwner",
          "type": "address"
        }
      ],
      "name": "OwnershipTransferred",
      "type": "event"
    },
    {
      "anonymous": false,
      "inputs": [
        {
          "indexed": false,
          "internalType": "uint256",
          "name": "pid",
          "type": "uint256"
        }
      ],
      "name": "Stop",
      "type": "event"
    },
    {
      "inputs": [],
      "name": "GPToken",
      "outputs": [
        {
          "internalType": "contract IERC721",
          "name": "",
          "type": "address"
        }
      ],
      "stateMutability": "view",
      "type": "function"
    },
    {
      "inputs": [],
      "name": "MulToken",
      "outputs": [
        {
          "internalType": "contract IERC20",
          "name": "",
          "type": "address"
        }
      ],
      "stateMutability": "view",
      "type": "function"
    },
    {
      "inputs": [
        {
          "internalType": "uint256",
          "name": "pid",
          "type": "uint256"
        },
        {
          "internalType": "uint256",
          "name": "bidPrice",
          "type": "uint256"
        }
      ],
      "name": "bid",
      "outputs": [],
      "stateMutability": "nonpayable",
      "type": "function"
    },
    {
      "inputs": [
        {
          "internalType": "uint256",
          "name": "pid",
          "type": "uint256"
        }
      ],
      "name": "claim",
      "outputs": [],
      "stateMutability": "nonpayable",
      "type": "function"
    },
    {
      "inputs": [],
      "name": "cntOfPool",
      "outputs": [
        {
          "internalType": "uint256",
          "name": "",
          "type": "uint256"
        }
      ],
      "stateMutability": "view",
      "type": "function"
    },
    {
      "inputs": [
        {
          "internalType": "uint256",
          "name": "startTime",
          "type": "uint256"
        },
        {
          "internalType": "uint256",
          "name": "maxTime",
          "type": "uint256"
        },
        {
          "internalType": "uint256",
          "name": "plusTime",
          "type": "uint256"
        },
        {
          "internalType": "uint256",
          "name": "basePrice",
          "type": "uint256"
        },
        {
          "internalType": "uint256",
          "name": "addPrice",
          "type": "uint256"
        },
        {
          "internalType": "uint256",
          "name": "tokenId",
          "type": "uint256"
        }
      ],
      "name": "create",
      "outputs": [],
      "stateMutability": "nonpayable",
      "type": "function"
    },
    {
      "inputs": [],
      "name": "owner",
      "outputs": [
        {
          "internalType": "address",
          "name": "",
          "type": "address"
        }
      ],
      "stateMutability": "view",
      "type": "function"
    },
    {
      "inputs": [
        {
          "internalType": "uint256",
          "name": "",
          "type": "uint256"
        }
      ],
      "name": "pools",
      "outputs": [
        {
          "internalType": "bool",
          "name": "end",
          "type": "bool"
        },
        {
          "internalType": "uint256",
          "name": "closeTime",
          "type": "uint256"
        },
        {
          "internalType": "uint256",
          "name": "maxTime",
          "type": "uint256"
        },
        {
          "internalType": "uint256",
          "name": "plusTime",
          "type": "uint256"
        },
        {
          "internalType": "uint256",
          "name": "addPrice",
          "type": "uint256"
        },
        {
          "internalType": "uint256",
          "name": "tokenId",
          "type": "uint256"
        },
        {
          "internalType": "address",
          "name": "bidder",
          "type": "address"
        },
        {
          "internalType": "uint256",
          "name": "currentPrice",
          "type": "uint256"
        }
      ],
      "stateMutability": "view",
      "type": "function"
    },
    {
      "inputs": [],
      "name": "renounceOwnership",
      "outputs": [],
      "stateMutability": "nonpayable",
      "type": "function"
    },
    {
      "inputs": [
        {
          "internalType": "uint256",
          "name": "pid",
          "type": "uint256"
        }
      ],
      "name": "stop",
      "outputs": [],
      "stateMutability": "nonpayable",
      "type": "function"
    },
    {
      "inputs": [
        {
          "internalType": "address",
          "name": "newOwner",
          "type": "address"
        }
      ],
      "name": "transferOwnership",
      "outputs": [],
      "stateMutability": "nonpayable",
      "type": "function"
    }
  ],
  "bytecode": "0x608060405234801561001057600080fd5b506040516113df3803806113df8339818101604052604081101561003357600080fd5b508051602090910151600061004661015b565b600080546001600160a01b0319166001600160a01b0383169081178255604051929350917f8be0079c531659141344cd1fd0a4f28419497f9722a3daafe3b4186f6b6457e0908290a3506001600160a01b0382166100dd576040805162461bcd60e51b815260206004820152600f60248201526e494e56414c49445f4144445245535360881b604482015290519081900360640190fd5b6001600160a01b03811661012a576040805162461bcd60e51b815260206004820152600f60248201526e494e56414c49445f4144445245535360881b604482015290519081900360640190fd5b600180546001600160a01b039384166001600160a01b0319918216179091556002805492909316911617905561015f565b3390565b6112718061016e6000396000f3fe608060405234801561001057600080fd5b50600436106100a95760003560e01c80636e4ae82c116100715780636e4ae82c1461014b578063715018a6146101865780638da5cb5b1461018e578063ac4afa3814610196578063c4d16083146101ff578063f2fde38b14610207576100a9565b8063379607f5146100ae5780634641ca17146100cd578063598647f8146100e75780635a604f8a1461010a5780636299f8cf1461012e575b600080fd5b6100cb600480360360208110156100c457600080fd5b503561022d565b005b6100d561043b565b60408051918252519081900360200190f35b6100cb600480360360408110156100fd57600080fd5b5080359060200135610441565b61011261063b565b604080516001600160a01b039092168252519081900360200190f35b6100cb6004803603602081101561014457600080fd5b503561064a565b6100cb600480360360c081101561016157600080fd5b5080359060208101359060408101359060608101359060808101359060a00135610865565b6100cb610b74565b610112610c20565b6101b3600480360360208110156101ac57600080fd5b5035610c2f565b6040805198151589526020890197909752878701959095526060870193909352608086019190915260a08501526001600160a01b031660c084015260e083015251908190036101000190f35b610112610c95565b6100cb6004803603602081101561021d57600080fd5b50356001600160a01b0316610ca4565b80600354811061027a576040805162461bcd60e51b8152602060048201526013602482015272141bdbdb08191bd95cc81b9bdd08195e1a5cdd606a1b604482015290519081900360640190fd5b60006004838154811061028957fe5b60009182526020909120600890910201805490915060ff16156102de576040805162461bcd60e51b8152602060048201526008602482015267141bdbdb08115b9960c21b604482015290519081900360640190fd5b8060010154431015610327576040805162461bcd60e51b815260206004820152600d60248201526c4e6f7420436c6f7365204e6f7760981b604482015290519081900360640190fd5b805460ff1916600117815560068101546001600160a01b0316156103e5576001546006820154600583015460408051632142170760e11b81523060048201526001600160a01b03938416602482015260448101929092525191909216916342842e0e91606480830192600092919082900301818387803b1580156103aa57600080fd5b505af11580156103be573d6000803e3d6000fd5b505050506103e56103cd610c20565b60078301546002546001600160a01b03169190610da6565b6006810154600782015460408051868152602081019290925280516001600160a01b03909316927fd79254e5daba749baa8ba954e77bbbb18efef113a8070d00df9a188d819324269281900390910190a2505050565b60035481565b81600354811061048e576040805162461bcd60e51b8152602060048201526013602482015272141bdbdb08191bd95cc81b9bdd08195e1a5cdd606a1b604482015290519081900360640190fd5b60006004848154811061049d57fe5b60009182526020909120600890910201805490915060ff16156104f2576040805162461bcd60e51b8152602060048201526008602482015267141bdbdb08115b9960c21b604482015290519081900360640190fd5b8060010154431061053b576040805162461bcd60e51b815260206004820152600e60248201526d43616e6e6f7420426964204e6f7760901b604482015290519081900360640190fd5b6004810154600782015461054e91610dfd565b83101561055a57600080fd5b600254610572906001600160a01b0316333086610e5e565b60068101546001600160a01b0316156105aa57600681015460078201546002546105aa926001600160a01b0391821692911690610da6565b60078101839055600381015460018201546105de916105c99190610dfd565b60028301546105d9904390610dfd565b610ebe565b60018201556006810180546001600160a01b03191633908117909155604080518681526020810186905281517fdcd726e11f8b5e160f00290f0fe3a1abb547474e53a8e7a8f49a85e7b1ca3199929181900390910190a250505050565b6001546001600160a01b031681565b610652610ed4565b6001600160a01b0316610663610c20565b6001600160a01b0316146106ac576040805162461bcd60e51b815260206004820181905260248201526000805160206111f2833981519152604482015290519081900360640190fd5b8060035481106106f9576040805162461bcd60e51b8152602060048201526013602482015272141bdbdb08191bd95cc81b9bdd08195e1a5cdd606a1b604482015290519081900360640190fd5b60006004838154811061070857fe5b60009182526020909120600890910201805490915060ff161561075d576040805162461bcd60e51b8152602060048201526008602482015267141bdbdb08115b9960c21b604482015290519081900360640190fd5b805460ff191660019081178255546001600160a01b03166342842e0e30610782610c20565b84600501546040518463ffffffff1660e01b815260040180846001600160a01b03168152602001836001600160a01b031681526020018281526020019350505050600060405180830381600087803b1580156107dd57600080fd5b505af11580156107f1573d6000803e3d6000fd5b5050505060068101546001600160a01b03161561082d576006810154600782015460025461082d926001600160a01b0391821692911690610da6565b6040805184815290517fcb38e238b49e69e3623869d1353344c0959f480b5b0d5bdbeff071a1308cff529181900360200190a1505050565b61086d610ed4565b6001600160a01b031661087e610c20565b6001600160a01b0316146108c7576040805162461bcd60e51b815260206004820181905260248201526000805160206111f2833981519152604482015290519081900360640190fd5b60015460408051632142170760e11b81523360048201523060248201526044810184905290516001600160a01b03909216916342842e0e9160648082019260009290919082900301818387803b15801561092057600080fd5b505af1158015610934573d6000803e3d6000fd5b5050604080516101008101909152600080825292509050602081016109598989610dfd565b81526020808201899052604080830189905260608084018890526080808501889052600060a080870182905260c09687018c905260048054600180820183559190935288517f8a35acfbc15ff81a39ae7d344fd709f28e8600b4aa8c65c6b64bfe7fe36bd19b6008909402938401805460ff1916911515919091179055888701517f8a35acfbc15ff81a39ae7d344fd709f28e8600b4aa8c65c6b64bfe7fe36bd19c840155888601517f8a35acfbc15ff81a39ae7d344fd709f28e8600b4aa8c65c6b64bfe7fe36bd19d840155888501517f8a35acfbc15ff81a39ae7d344fd709f28e8600b4aa8c65c6b64bfe7fe36bd19e840155888401517f8a35acfbc15ff81a39ae7d344fd709f28e8600b4aa8c65c6b64bfe7fe36bd19f840155888201517f8a35acfbc15ff81a39ae7d344fd709f28e8600b4aa8c65c6b64bfe7fe36bd1a0840155888801517f8a35acfbc15ff81a39ae7d344fd709f28e8600b4aa8c65c6b64bfe7fe36bd1a1840180546001600160a01b0319166001600160a01b0390921691909117905560e08901517f8a35acfbc15ff81a39ae7d344fd709f28e8600b4aa8c65c6b64bfe7fe36bd1a290930192909255600380549092019182905584519182529481018990528084018b905291820189905281018a90529182018a9052519293507fe67bc7994d282c0fbf31557abeca3bf42c2dc7e627c6aff056739bfd6609b5d6929081900390910190a150505050505050565b610b7c610ed4565b6001600160a01b0316610b8d610c20565b6001600160a01b031614610bd6576040805162461bcd60e51b815260206004820181905260248201526000805160206111f2833981519152604482015290519081900360640190fd5b600080546040516001600160a01b03909116907f8be0079c531659141344cd1fd0a4f28419497f9722a3daafe3b4186f6b6457e0908390a3600080546001600160a01b0319169055565b6000546001600160a01b031690565b60048181548110610c3f57600080fd5b60009182526020909120600890910201805460018201546002830154600384015460048501546005860154600687015460079097015460ff9096169750939592949193909290916001600160a01b039091169088565b6002546001600160a01b031681565b610cac610ed4565b6001600160a01b0316610cbd610c20565b6001600160a01b031614610d06576040805162461bcd60e51b815260206004820181905260248201526000805160206111f2833981519152604482015290519081900360640190fd5b6001600160a01b038116610d4b5760405162461bcd60e51b81526004018080602001828103825260268152602001806111a66026913960400191505060405180910390fd5b600080546040516001600160a01b03808516939216917f8be0079c531659141344cd1fd0a4f28419497f9722a3daafe3b4186f6b6457e091a3600080546001600160a01b0319166001600160a01b0392909216919091179055565b604080516001600160a01b038416602482015260448082018490528251808303909101815260649091019091526020810180516001600160e01b031663a9059cbb60e01b179052610df8908490610ed8565b505050565b600082820183811015610e57576040805162461bcd60e51b815260206004820152601b60248201527f536166654d6174683a206164646974696f6e206f766572666c6f770000000000604482015290519081900360640190fd5b9392505050565b604080516001600160a01b0380861660248301528416604482015260648082018490528251808303909101815260849091019091526020810180516001600160e01b03166323b872dd60e01b179052610eb8908590610ed8565b50505050565b6000818310610ecd5781610e57565b5090919050565b3390565b6000610f2d826040518060400160405280602081526020017f5361666545524332303a206c6f772d6c6576656c2063616c6c206661696c6564815250856001600160a01b0316610f899092919063ffffffff16565b805190915015610df857808060200190516020811015610f4c57600080fd5b5051610df85760405162461bcd60e51b815260040180806020018281038252602a815260200180611212602a913960400191505060405180910390fd5b6060610f988484600085610fa0565b949350505050565b606082471015610fe15760405162461bcd60e51b81526004018080602001828103825260268152602001806111cc6026913960400191505060405180910390fd5b610fea856110fb565b61103b576040805162461bcd60e51b815260206004820152601d60248201527f416464726573733a2063616c6c20746f206e6f6e2d636f6e7472616374000000604482015290519081900360640190fd5b600080866001600160a01b031685876040518082805190602001908083835b602083106110795780518252601f19909201916020918201910161105a565b6001836020036101000a03801982511681845116808217855250505050505090500191505060006040518083038185875af1925050503d80600081146110db576040519150601f19603f3d011682016040523d82523d6000602084013e6110e0565b606091505b50915091506110f0828286611101565b979650505050505050565b3b151590565b60608315611110575081610e57565b8251156111205782518084602001fd5b8160405162461bcd60e51b81526004018080602001828103825283818151815260200191508051906020019080838360005b8381101561116a578181015183820152602001611152565b50505050905090810190601f1680156111975780820380516001836020036101000a031916815260200191505b509250505060405180910390fdfe4f776e61626c653a206e6577206f776e657220697320746865207a65726f2061646472657373416464726573733a20696e73756666696369656e742062616c616e636520666f722063616c6c4f776e61626c653a2063616c6c6572206973206e6f7420746865206f776e65725361666545524332303a204552433230206f7065726174696f6e20646964206e6f742073756363656564a2646970667358221220c1b2b90cbde7c23bbc2a3ceb3d2f71b19dda3dc3f5f6d96c68040c7bc1d1325464736f6c63430007060033",
  "linkReferences": {},
  "deployedLinkReferences": {}
}