{
  "abi": [
    {
      "anonymous": false,
      "inputs": [
        {
          "indexed": false,
          "internalType": "uint256",
          "name": "cashPrior",
          "type": "uint256"
        },
        {
          "indexed": false,
          "internalType": "uint256",
          "name": "interestAccumulated",
          "type": "uint256"
        },
        {
          "indexed": false,
          "internalType": "uint256",
          "name": "borrowIndex",
          "type": "uint256"
        },
        {
          "indexed": false,
          "internalType": "uint256",
          "name": "totalBorrows",
          "type": "uint256"
        }
      ],
      "name": "AccrueInterest",
      "type": "event"
    },
    {
      "anonymous": false,
      "inputs": [
        {
          "indexed": true,
          "internalType": "address",
          "name": "owner",
          "type": "address"
        },
        {
          "indexed": true,
          "internalType": "address",
          "name": "spender",
          "type": "address"
        },
        {
          "indexed": false,
          "internalType": "uint256",
          "name": "amount",
          "type": "uint256"
        }
      ],
      "name": "Approval",
      "type": "event"
    },
    {
      "anonymous": false,
      "inputs": [
        {
          "indexed": false,
          "internalType": "address",
          "name": "borrower",
          "type": "address"
        },
        {
          "indexed": false,
          "internalType": "uint256",
          "name": "borrowAmount",
          "type": "uint256"
        },
        {
          "indexed": false,
          "internalType": "uint256",
          "name": "accountBorrows",
          "type": "uint256"
        },
        {
          "indexed": false,
          "internalType": "uint256",
          "name": "totalBorrows",
          "type": "uint256"
        }
      ],
      "name": "Borrow",
      "type": "event"
    },
    {
      "anonymous": false,
      "inputs": [
        {
          "indexed": false,
          "internalType": "uint256",
          "name": "error",
          "type": "uint256"
        },
        {
          "indexed": false,
          "internalType": "uint256",
          "name": "info",
          "type": "uint256"
        },
        {
          "indexed": false,
          "internalType": "uint256",
          "name": "detail",
          "type": "uint256"
        }
      ],
      "name": "Failure",
      "type": "event"
    },
    {
      "anonymous": false,
      "inputs": [
        {
          "indexed": false,
          "internalType": "address",
          "name": "liquidator",
          "type": "address"
        },
        {
          "indexed": false,
          "internalType": "address",
          "name": "borrower",
          "type": "address"
        },
        {
          "indexed": false,
          "internalType": "uint256",
          "name": "repayAmount",
          "type": "uint256"
        },
        {
          "indexed": false,
          "internalType": "address",
          "name": "cTokenCollateral",
          "type": "address"
        },
        {
          "indexed": false,
          "internalType": "uint256",
          "name": "seizeTokens",
          "type": "uint256"
        }
      ],
      "name": "LiquidateBorrow",
      "type": "event"
    },
    {
      "anonymous": false,
      "inputs": [
        {
          "indexed": false,
          "internalType": "address",
          "name": "minter",
          "type": "address"
        },
        {
          "indexed": false,
          "internalType": "uint256",
          "name": "mintAmount",
          "type": "uint256"
        },
        {
          "indexed": false,
          "internalType": "uint256",
          "name": "mintTokens",
          "type": "uint256"
        }
      ],
      "name": "Mint",
      "type": "event"
    },
    {
      "anonymous": false,
      "inputs": [
        {
          "indexed": false,
          "internalType": "address",
          "name": "oldAdmin",
          "type": "address"
        },
        {
          "indexed": false,
          "internalType": "address",
          "name": "newAdmin",
          "type": "address"
        }
      ],
      "name": "NewAdmin",
      "type": "event"
    },
    {
      "anonymous": false,
      "inputs": [
        {
          "indexed": false,
          "internalType": "contract ComptrollerInterface",
          "name": "oldComptroller",
          "type": "address"
        },
        {
          "indexed": false,
          "internalType": "contract ComptrollerInterface",
          "name": "newComptroller",
          "type": "address"
        }
      ],
      "name": "NewComptroller",
      "type": "event"
    },
    {
      "anonymous": false,
      "inputs": [
        {
          "indexed": false,
          "internalType": "contract InterestRateModel",
          "name": "oldInterestRateModel",
          "type": "address"
        },
        {
          "indexed": false,
          "internalType": "contract InterestRateModel",
          "name": "newInterestRateModel",
          "type": "address"
        }
      ],
      "name": "NewMarketInterestRateModel",
      "type": "event"
    },
    {
      "anonymous": false,
      "inputs": [
        {
          "indexed": false,
          "internalType": "address",
          "name": "oldPendingAdmin",
          "type": "address"
        },
        {
          "indexed": false,
          "internalType": "address",
          "name": "newPendingAdmin",
          "type": "address"
        }
      ],
      "name": "NewPendingAdmin",
      "type": "event"
    },
    {
      "anonymous": false,
      "inputs": [
        {
          "indexed": false,
          "internalType": "uint256",
          "name": "oldReserveFactorMantissa",
          "type": "uint256"
        },
        {
          "indexed": false,
          "internalType": "uint256",
          "name": "newReserveFactorMantissa",
          "type": "uint256"
        }
      ],
      "name": "NewReserveFactor",
      "type": "event"
    },
    {
      "anonymous": false,
      "inputs": [
        {
          "indexed": false,
          "internalType": "address",
          "name": "redeemer",
          "type": "address"
        },
        {
          "indexed": false,
          "internalType": "uint256",
          "name": "redeemAmount",
          "type": "uint256"
        },
        {
          "indexed": false,
          "internalType": "uint256",
          "name": "redeemTokens",
          "type": "uint256"
        }
      ],
      "name": "Redeem",
      "type": "event"
    },
    {
      "anonymous": false,
      "inputs": [
        {
          "indexed": false,
          "internalType": "address",
          "name": "payer",
          "type": "address"
        },
        {
          "indexed": false,
          "internalType": "address",
          "name": "borrower",
          "type": "address"
        },
        {
          "indexed": false,
          "internalType": "uint256",
          "name": "repayAmount",
          "type": "uint256"
        },
        {
          "indexed": false,
          "internalType": "uint256",
          "name": "accountBorrows",
          "type": "uint256"
        },
        {
          "indexed": false,
          "internalType": "uint256",
          "name": "totalBorrows",
          "type": "uint256"
        }
      ],
      "name": "RepayBorrow",
      "type": "event"
    },
    {
      "anonymous": false,
      "inputs": [
        {
          "indexed": false,
          "internalType": "address",
          "name": "benefactor",
          "type": "address"
        },
        {
          "indexed": false,
          "internalType": "uint256",
          "name": "addAmount",
          "type": "uint256"
        },
        {
          "indexed": false,
          "internalType": "uint256",
          "name": "newTotalReserves",
          "type": "uint256"
        }
      ],
      "name": "ReservesAdded",
      "type": "event"
    },
    {
      "anonymous": false,
      "inputs": [
        {
          "indexed": false,
          "internalType": "address",
          "name": "admin",
          "type": "address"
        },
        {
          "indexed": false,
          "internalType": "uint256",
          "name": "reduceAmount",
          "type": "uint256"
        },
        {
          "indexed": false,
          "internalType": "uint256",
          "name": "newTotalReserves",
          "type": "uint256"
        }
      ],
      "name": "ReservesReduced",
      "type": "event"
    },
    {
      "anonymous": false,
      "inputs": [
        {
          "indexed": true,
          "internalType": "address",
          "name": "from",
          "type": "address"
        },
        {
          "indexed": true,
          "internalType": "address",
          "name": "to",
          "type": "address"
        },
        {
          "indexed": false,
          "internalType": "uint256",
          "name": "amount",
          "type": "uint256"
        }
      ],
      "name": "Transfer",
      "type": "event"
    },
    {
      "constant": false,
      "inputs": [],
      "name": "_acceptAdmin",
      "outputs": [
        {
          "internalType": "uint256",
          "name": "",
          "type": "uint256"
        }
      ],
      "payable": false,
      "stateMutability": "nonpayable",
      "type": "function"
    },
    {
      "constant": false,
      "inputs": [
        {
          "internalType": "uint256",
          "name": "addAmount",
          "type": "uint256"
        }
      ],
      "name": "_addReserves",
      "outputs": [
        {
          "internalType": "uint256",
          "name": "",
          "type": "uint256"
        }
      ],
      "payable": false,
      "stateMutability": "nonpayable",
      "type": "function"
    },
    {
      "constant": false,
      "inputs": [
        {
          "internalType": "bytes",
          "name": "data",
          "type": "bytes"
        }
      ],
      "name": "_becomeImplementation",
      "outputs": [],
      "payable": false,
      "stateMutability": "nonpayable",
      "type": "function"
    },
    {
      "constant": false,
      "inputs": [
        {
          "internalType": "uint256",
          "name": "reduceAmount",
          "type": "uint256"
        }
      ],
      "name": "_reduceReserves",
      "outputs": [
        {
          "internalType": "uint256",
          "name": "",
          "type": "uint256"
        }
      ],
      "payable": false,
      "stateMutability": "nonpayable",
      "type": "function"
    },
    {
      "constant": false,
      "inputs": [],
      "name": "_resignImplementation",
      "outputs": [],
      "payable": false,
      "stateMutability": "nonpayable",
      "type": "function"
    },
    {
      "constant": false,
      "inputs": [
        {
          "internalType": "contract ComptrollerInterface",
          "name": "newComptroller",
          "type": "address"
        }
      ],
      "name": "_setComptroller",
      "outputs": [
        {
          "internalType": "uint256",
          "name": "",
          "type": "uint256"
        }
      ],
      "payable": false,
      "stateMutability": "nonpayable",
      "type": "function"
    },
    {
      "constant": false,
      "inputs": [
        {
          "internalType": "contract InterestRateModel",
          "name": "newInterestRateModel",
          "type": "address"
        }
      ],
      "name": "_setInterestRateModel",
      "outputs": [
        {
          "internalType": "uint256",
          "name": "",
          "type": "uint256"
        }
      ],
      "payable": false,
      "stateMutability": "nonpayable",
      "type": "function"
    },
    {
      "constant": false,
      "inputs": [
        {
          "internalType": "address payable",
          "name": "newPendingAdmin",
          "type": "address"
        }
      ],
      "name": "_setPendingAdmin",
      "outputs": [
        {
          "internalType": "uint256",
          "name": "",
          "type": "uint256"
        }
      ],
      "payable": false,
      "stateMutability": "nonpayable",
      "type": "function"
    },
    {
      "constant": false,
      "inputs": [
        {
          "internalType": "uint256",
          "name": "newReserveFactorMantissa",
          "type": "uint256"
        }
      ],
      "name": "_setReserveFactor",
      "outputs": [
        {
          "internalType": "uint256",
          "name": "",
          "type": "uint256"
        }
      ],
      "payable": false,
      "stateMutability": "nonpayable",
      "type": "function"
    },
    {
      "constant": true,
      "inputs": [],
      "name": "accrualBlockNumber",
      "outputs": [
        {
          "internalType": "uint256",
          "name": "",
          "type": "uint256"
        }
      ],
      "payable": false,
      "stateMutability": "view",
      "type": "function"
    },
    {
      "constant": false,
      "inputs": [],
      "name": "accrueInterest",
      "outputs": [
        {
          "internalType": "uint256",
          "name": "",
          "type": "uint256"
        }
      ],
      "payable": false,
      "stateMutability": "nonpayable",
      "type": "function"
    },
    {
      "constant": true,
      "inputs": [],
      "name": "admin",
      "outputs": [
        {
          "internalType": "address payable",
          "name": "",
          "type": "address"
        }
      ],
      "payable": false,
      "stateMutability": "view",
      "type": "function"
    },
    {
      "constant": true,
      "inputs": [
        {
          "internalType": "address",
          "name": "owner",
          "type": "address"
        },
        {
          "internalType": "address",
          "name": "spender",
          "type": "address"
        }
      ],
      "name": "allowance",
      "outputs": [
        {
          "internalType": "uint256",
          "name": "",
          "type": "uint256"
        }
      ],
      "payable": false,
      "stateMutability": "view",
      "type": "function"
    },
    {
      "constant": false,
      "inputs": [
        {
          "internalType": "address",
          "name": "spender",
          "type": "address"
        },
        {
          "internalType": "uint256",
          "name": "amount",
          "type": "uint256"
        }
      ],
      "name": "approve",
      "outputs": [
        {
          "internalType": "bool",
          "name": "",
          "type": "bool"
        }
      ],
      "payable": false,
      "stateMutability": "nonpayable",
      "type": "function"
    },
    {
      "constant": true,
      "inputs": [
        {
          "internalType": "address",
          "name": "owner",
          "type": "address"
        }
      ],
      "name": "balanceOf",
      "outputs": [
        {
          "internalType": "uint256",
          "name": "",
          "type": "uint256"
        }
      ],
      "payable": false,
      "stateMutability": "view",
      "type": "function"
    },
    {
      "constant": false,
      "inputs": [
        {
          "internalType": "address",
          "name": "owner",
          "type": "address"
        }
      ],
      "name": "balanceOfUnderlying",
      "outputs": [
        {
          "internalType": "uint256",
          "name": "",
          "type": "uint256"
        }
      ],
      "payable": false,
      "stateMutability": "nonpayable",
      "type": "function"
    },
    {
      "constant": false,
      "inputs": [
        {
          "internalType": "uint256",
          "name": "borrowAmount",
          "type": "uint256"
        }
      ],
      "name": "borrow",
      "outputs": [
        {
          "internalType": "uint256",
          "name": "",
          "type": "uint256"
        }
      ],
      "payable": false,
      "stateMutability": "nonpayable",
      "type": "function"
    },
    {
      "constant": false,
      "inputs": [
        {
          "internalType": "address",
          "name": "account",
          "type": "address"
        }
      ],
      "name": "borrowBalanceCurrent",
      "outputs": [
        {
          "internalType": "uint256",
          "name": "",
          "type": "uint256"
        }
      ],
      "payable": false,
      "stateMutability": "nonpayable",
      "type": "function"
    },
    {
      "constant": true,
      "inputs": [
        {
          "internalType": "address",
          "name": "account",
          "type": "address"
        }
      ],
      "name": "borrowBalanceStored",
      "outputs": [
        {
          "internalType": "uint256",
          "name": "",
          "type": "uint256"
        }
      ],
      "payable": false,
      "stateMutability": "view",
      "type": "function"
    },
    {
      "constant": true,
      "inputs": [],
      "name": "borrowIndex",
      "outputs": [
        {
          "internalType": "uint256",
          "name": "",
          "type": "uint256"
        }
      ],
      "payable": false,
      "stateMutability": "view",
      "type": "function"
    },
    {
      "constant": true,
      "inputs": [],
      "name": "borrowRatePerBlock",
      "outputs": [
        {
          "internalType": "uint256",
          "name": "",
          "type": "uint256"
        }
      ],
      "payable": false,
      "stateMutability": "view",
      "type": "function"
    },
    {
      "constant": true,
      "inputs": [],
      "name": "comptroller",
      "outputs": [
        {
          "internalType": "contract ComptrollerInterface",
          "name": "",
          "type": "address"
        }
      ],
      "payable": false,
      "stateMutability": "view",
      "type": "function"
    },
    {
      "constant": true,
      "inputs": [],
      "name": "daiJoinAddress",
      "outputs": [
        {
          "internalType": "address",
          "name": "",
          "type": "address"
        }
      ],
      "payable": false,
      "stateMutability": "view",
      "type": "function"
    },
    {
      "constant": true,
      "inputs": [],
      "name": "decimals",
      "outputs": [
        {
          "internalType": "uint8",
          "name": "",
          "type": "uint8"
        }
      ],
      "payable": false,
      "stateMutability": "view",
      "type": "function"
    },
    {
      "constant": false,
      "inputs": [],
      "name": "exchangeRateCurrent",
      "outputs": [
        {
          "internalType": "uint256",
          "name": "",
          "type": "uint256"
        }
      ],
      "payable": false,
      "stateMutability": "nonpayable",
      "type": "function"
    },
    {
      "constant": true,
      "inputs": [],
      "name": "exchangeRateStored",
      "outputs": [
        {
          "internalType": "uint256",
          "name": "",
          "type": "uint256"
        }
      ],
      "payable": false,
      "stateMutability": "view",
      "type": "function"
    },
    {
      "constant": true,
      "inputs": [
        {
          "internalType": "address",
          "name": "account",
          "type": "address"
        }
      ],
      "name": "getAccountSnapshot",
      "outputs": [
        {
          "internalType": "uint256",
          "name": "",
          "type": "uint256"
        },
        {
          "internalType": "uint256",
          "name": "",
          "type": "uint256"
        },
        {
          "internalType": "uint256",
          "name": "",
          "type": "uint256"
        },
        {
          "internalType": "uint256",
          "name": "",
          "type": "uint256"
        }
      ],
      "payable": false,
      "stateMutability": "view",
      "type": "function"
    },
    {
      "constant": true,
      "inputs": [],
      "name": "getCash",
      "outputs": [
        {
          "internalType": "uint256",
          "name": "",
          "type": "uint256"
        }
      ],
      "payable": false,
      "stateMutability": "view",
      "type": "function"
    },
    {
      "constant": true,
      "inputs": [],
      "name": "implementation",
      "outputs": [
        {
          "internalType": "address",
          "name": "",
          "type": "address"
        }
      ],
      "payable": false,
      "stateMutability": "view",
      "type": "function"
    },
    {
      "constant": false,
      "inputs": [
        {
          "internalType": "address",
          "name": "underlying_",
          "type": "address"
        },
        {
          "internalType": "contract ComptrollerInterface",
          "name": "comptroller_",
          "type": "address"
        },
        {
          "internalType": "contract InterestRateModel",
          "name": "interestRateModel_",
          "type": "address"
        },
        {
          "internalType": "uint256",
          "name": "initialExchangeRateMantissa_",
          "type": "uint256"
        },
        {
          "internalType": "string",
          "name": "name_",
          "type": "string"
        },
        {
          "internalType": "string",
          "name": "symbol_",
          "type": "string"
        },
        {
          "internalType": "uint8",
          "name": "decimals_",
          "type": "uint8"
        }
      ],
      "name": "initialize",
      "outputs": [],
      "payable": false,
      "stateMutability": "nonpayable",
      "type": "function"
    },
    {
      "constant": false,
      "inputs": [
        {
          "internalType": "contract ComptrollerInterface",
          "name": "comptroller_",
          "type": "address"
        },
        {
          "internalType": "contract InterestRateModel",
          "name": "interestRateModel_",
          "type": "address"
        },
        {
          "internalType": "uint256",
          "name": "initialExchangeRateMantissa_",
          "type": "uint256"
        },
        {
          "internalType": "string",
          "name": "name_",
          "type": "string"
        },
        {
          "internalType": "string",
          "name": "symbol_",
          "type": "string"
        },
        {
          "internalType": "uint8",
          "name": "decimals_",
          "type": "uint8"
        }
      ],
      "name": "initialize",
      "outputs": [],
      "payable": false,
      "stateMutability": "nonpayable",
      "type": "function"
    },
    {
      "constant": true,
      "inputs": [],
      "name": "interestRateModel",
      "outputs": [
        {
          "internalType": "contract InterestRateModel",
          "name": "",
          "type": "address"
        }
      ],
      "payable": false,
      "stateMutability": "view",
      "type": "function"
    },
    {
      "constant": true,
      "inputs": [],
      "name": "isCToken",
      "outputs": [
        {
          "internalType": "bool",
          "name": "",
          "type": "bool"
        }
      ],
      "payable": false,
      "stateMutability": "view",
      "type": "function"
    },
    {
      "constant": false,
      "inputs": [
        {
          "internalType": "address",
          "name": "borrower",
          "type": "address"
        },
        {
          "internalType": "uint256",
          "name": "repayAmount",
          "type": "uint256"
        },
        {
          "internalType": "contract CTokenInterface",
          "name": "cTokenCollateral",
          "type": "address"
        }
      ],
      "name": "liquidateBorrow",
      "outputs": [
        {
          "internalType": "uint256",
          "name": "",
          "type": "uint256"
        }
      ],
      "payable": false,
      "stateMutability": "nonpayable",
      "type": "function"
    },
    {
      "constant": false,
      "inputs": [
        {
          "internalType": "uint256",
          "name": "mintAmount",
          "type": "uint256"
        }
      ],
      "name": "mint",
      "outputs": [
        {
          "internalType": "uint256",
          "name": "",
          "type": "uint256"
        }
      ],
      "payable": false,
      "stateMutability": "nonpayable",
      "type": "function"
    },
    {
      "constant": true,
      "inputs": [],
      "name": "name",
      "outputs": [
        {
          "internalType": "string",
          "name": "",
          "type": "string"
        }
      ],
      "payable": false,
      "stateMutability": "view",
      "type": "function"
    },
    {
      "constant": true,
      "inputs": [],
      "name": "pendingAdmin",
      "outputs": [
        {
          "internalType": "address payable",
          "name": "",
          "type": "address"
        }
      ],
      "payable": false,
      "stateMutability": "view",
      "type": "function"
    },
    {
      "constant": true,
      "inputs": [],
      "name": "potAddress",
      "outputs": [
        {
          "internalType": "address",
          "name": "",
          "type": "address"
        }
      ],
      "payable": false,
      "stateMutability": "view",
      "type": "function"
    },
    {
      "constant": false,
      "inputs": [
        {
          "internalType": "uint256",
          "name": "redeemTokens",
          "type": "uint256"
        }
      ],
      "name": "redeem",
      "outputs": [
        {
          "internalType": "uint256",
          "name": "",
          "type": "uint256"
        }
      ],
      "payable": false,
      "stateMutability": "nonpayable",
      "type": "function"
    },
    {
      "constant": false,
      "inputs": [
        {
          "internalType": "uint256",
          "name": "redeemAmount",
          "type": "uint256"
        }
      ],
      "name": "redeemUnderlying",
      "outputs": [
        {
          "internalType": "uint256",
          "name": "",
          "type": "uint256"
        }
      ],
      "payable": false,
      "stateMutability": "nonpayable",
      "type": "function"
    },
    {
      "constant": false,
      "inputs": [
        {
          "internalType": "uint256",
          "name": "repayAmount",
          "type": "uint256"
        }
      ],
      "name": "repayBorrow",
      "outputs": [
        {
          "internalType": "uint256",
          "name": "",
          "type": "uint256"
        }
      ],
      "payable": false,
      "stateMutability": "nonpayable",
      "type": "function"
    },
    {
      "constant": false,
      "inputs": [
        {
          "internalType": "address",
          "name": "borrower",
          "type": "address"
        },
        {
          "internalType": "uint256",
          "name": "repayAmount",
          "type": "uint256"
        }
      ],
      "name": "repayBorrowBehalf",
      "outputs": [
        {
          "internalType": "uint256",
          "name": "",
          "type": "uint256"
        }
      ],
      "payable": false,
      "stateMutability": "nonpayable",
      "type": "function"
    },
    {
      "constant": true,
      "inputs": [],
      "name": "reserveFactorMantissa",
      "outputs": [
        {
          "internalType": "uint256",
          "name": "",
          "type": "uint256"
        }
      ],
      "payable": false,
      "stateMutability": "view",
      "type": "function"
    },
    {
      "constant": false,
      "inputs": [
        {
          "internalType": "address",
          "name": "liquidator",
          "type": "address"
        },
        {
          "internalType": "address",
          "name": "borrower",
          "type": "address"
        },
        {
          "internalType": "uint256",
          "name": "seizeTokens",
          "type": "uint256"
        }
      ],
      "name": "seize",
      "outputs": [
        {
          "internalType": "uint256",
          "name": "",
          "type": "uint256"
        }
      ],
      "payable": false,
      "stateMutability": "nonpayable",
      "type": "function"
    },
    {
      "constant": true,
      "inputs": [],
      "name": "supplyRatePerBlock",
      "outputs": [
        {
          "internalType": "uint256",
          "name": "",
          "type": "uint256"
        }
      ],
      "payable": false,
      "stateMutability": "view",
      "type": "function"
    },
    {
      "constant": false,
      "inputs": [
        {
          "internalType": "contract EIP20NonStandardInterface",
          "name": "token",
          "type": "address"
        }
      ],
      "name": "sweepToken",
      "outputs": [],
      "payable": false,
      "stateMutability": "nonpayable",
      "type": "function"
    },
    {
      "constant": true,
      "inputs": [],
      "name": "symbol",
      "outputs": [
        {
          "internalType": "string",
          "name": "",
          "type": "string"
        }
      ],
      "payable": false,
      "stateMutability": "view",
      "type": "function"
    },
    {
      "constant": true,
      "inputs": [],
      "name": "totalBorrows",
      "outputs": [
        {
          "internalType": "uint256",
          "name": "",
          "type": "uint256"
        }
      ],
      "payable": false,
      "stateMutability": "view",
      "type": "function"
    },
    {
      "constant": false,
      "inputs": [],
      "name": "totalBorrowsCurrent",
      "outputs": [
        {
          "internalType": "uint256",
          "name": "",
          "type": "uint256"
        }
      ],
      "payable": false,
      "stateMutability": "nonpayable",
      "type": "function"
    },
    {
      "constant": true,
      "inputs": [],
      "name": "totalReserves",
      "outputs": [
        {
          "internalType": "uint256",
          "name": "",
          "type": "uint256"
        }
      ],
      "payable": false,
      "stateMutability": "view",
      "type": "function"
    },
    {
      "constant": true,
      "inputs": [],
      "name": "totalSupply",
      "outputs": [
        {
          "internalType": "uint256",
          "name": "",
          "type": "uint256"
        }
      ],
      "payable": false,
      "stateMutability": "view",
      "type": "function"
    },
    {
      "constant": false,
      "inputs": [
        {
          "internalType": "address",
          "name": "dst",
          "type": "address"
        },
        {
          "internalType": "uint256",
          "name": "amount",
          "type": "uint256"
        }
      ],
      "name": "transfer",
      "outputs": [
        {
          "internalType": "bool",
          "name": "",
          "type": "bool"
        }
      ],
      "payable": false,
      "stateMutability": "nonpayable",
      "type": "function"
    },
    {
      "constant": false,
      "inputs": [
        {
          "internalType": "address",
          "name": "src",
          "type": "address"
        },
        {
          "internalType": "address",
          "name": "dst",
          "type": "address"
        },
        {
          "internalType": "uint256",
          "name": "amount",
          "type": "uint256"
        }
      ],
      "name": "transferFrom",
      "outputs": [
        {
          "internalType": "bool",
          "name": "",
          "type": "bool"
        }
      ],
      "payable": false,
      "stateMutability": "nonpayable",
      "type": "function"
    },
    {
      "constant": true,
      "inputs": [],
      "name": "underlying",
      "outputs": [
        {
          "internalType": "address",
          "name": "",
          "type": "address"
        }
      ],
      "payable": false,
      "stateMutability": "view",
      "type": "function"
    },
    {
      "constant": true,
      "inputs": [],
      "name": "vatAddress",
      "outputs": [
        {
          "internalType": "address",
          "name": "",
          "type": "address"
        }
      ],
      "payable": false,
      "stateMutability": "view",
      "type": "function"
    }
  ],
  "evm": {
    "bytecode": {
      "linkReferences": {},
      "object": "6080604052615a91806100136000396000f3fe608060405234801561001057600080fd5b506004361061035d5760003560e01c806373acee98116101d3578063b71d1a0c11610104578063f2b3abbd116100a2578063f851a4401161007c578063f851a44014610bdc578063f8f9da2814610be4578063fca7820b14610bec578063fe9c44ae14610c095761035d565b8063f2b3abbd14610b78578063f3fdb15a14610b9e578063f5e3c46214610ba65761035d565b8063c5ebeaec116100de578063c5ebeaec14610b08578063db006a7514610b25578063dd62ed3e14610b42578063e9c714f214610b705761035d565b8063b71d1a0c14610a8e578063bd6d894d14610ab4578063c37f68e214610abc5761035d565b806399d8c1b411610171578063a9059cbb1161014b578063a9059cbb14610a1c578063aa5af0fd14610a48578063ae9d70b014610a50578063b2a02ff114610a585761035d565b806399d8c1b4146108a9578063a0712d68146109f7578063a6afed9514610a145761035d565b80638d925ccd116101ad5780638d925ccd1461086b5780638f840ddd1461087357806395d89b411461087b57806395dd9193146108835761035d565b806373acee981461083e578063852a12e3146108465780638a8df2e6146108635761035d565b8063313ce567116102ad5780635c60da1b1161024b57806366ced6021161022557806366ced602146108005780636c540baf146108085780636f307dc31461081057806370a08231146108185761035d565b80635c60da1b146107d35780635fe3b567146107db578063601a0bf1146107e35761035d565b80633e941010116102875780633e941010146106e45780634576b5db1461070157806347bd37181461072757806356e677281461072f5761035d565b8063313ce567146106985780633af9e669146106b65780633b1d21a2146106dc5761035d565b806318160ddd1161031a5780631be19560116102f45780631be19560146105ec57806323b872dd146106125780632608f8181461064857806326782247146106745761035d565b806318160ddd14610486578063182df0f51461048e5780631a31d465146104965761035d565b806306fdde0314610362578063095ea7b3146103df5780630e7527021461041f578063153ab5051461044e578063173b99041461045857806317bfdfbc14610460575b600080fd5b61036a610c11565b6040805160208082528351818301528351919283929083019185019080838360005b838110156103a457818101518382015260200161038c565b50505050905090810190601f1680156103d15780820380516001836020036101000a031916815260200191505b509250505060405180910390f35b61040b600480360360408110156103f557600080fd5b506001600160a01b038135169060200135610c9e565b604080519115158252519081900360200190f35b61043c6004803603602081101561043557600080fd5b5035610d0b565b60408051918252519081900360200190f35b610456610d21565b005b61043c610fbf565b61043c6004803603602081101561047657600080fd5b50356001600160a01b0316610fc5565b61043c611085565b61043c61108b565b610456600480360360e08110156104ac57600080fd5b6001600160a01b03823581169260208101358216926040820135909216916060820135919081019060a081016080820135600160201b8111156104ee57600080fd5b82018360208201111561050057600080fd5b803590602001918460018302840111600160201b8311171561052157600080fd5b91908080601f0160208091040260200160405190810160405280939291908181526020018383808284376000920191909152509295949360208101935035915050600160201b81111561057357600080fd5b82018360208201111561058557600080fd5b803590602001918460018302840111600160201b831117156105a657600080fd5b91908080601f0160208091040260200160405190810160405280939291908181526020018383808284376000920191909152509295505050903560ff1691506110ee9050565b6104566004803603602081101561060257600080fd5b50356001600160a01b0316611182565b61040b6004803603606081101561062857600080fd5b506001600160a01b038135811691602081013590911690604001356112be565b61043c6004803603604081101561065e57600080fd5b506001600160a01b038135169060200135611330565b61067c611346565b604080516001600160a01b039092168252519081900360200190f35b6106a0611355565b6040805160ff9092168252519081900360200190f35b61043c600480360360208110156106cc57600080fd5b50356001600160a01b031661135e565b61043c611414565b61043c600480360360208110156106fa57600080fd5b5035611423565b61043c6004803603602081101561071757600080fd5b50356001600160a01b031661142e565b61043c611583565b6104566004803603602081101561074557600080fd5b810190602081018135600160201b81111561075f57600080fd5b82018360208201111561077157600080fd5b803590602001918460018302840111600160201b8311171561079257600080fd5b91908080601f016020809104026020016040519081016040528093929190818152602001838380828437600092019190915250929550611589945050505050565b61067c61160c565b61067c61161b565b61043c600480360360208110156107f957600080fd5b503561162a565b61067c6116c5565b61043c6116d4565b61067c6116da565b61043c6004803603602081101561082e57600080fd5b50356001600160a01b03166116e9565b61043c611704565b61043c6004803603602081101561085c57600080fd5b50356117ba565b61067c6117c5565b61067c6117d4565b61043c6117e3565b61036a6117e9565b61043c6004803603602081101561089957600080fd5b50356001600160a01b0316611841565b610456600480360360c08110156108bf57600080fd5b6001600160a01b03823581169260208101359091169160408201359190810190608081016060820135600160201b8111156108f957600080fd5b82018360208201111561090b57600080fd5b803590602001918460018302840111600160201b8311171561092c57600080fd5b91908080601f0160208091040260200160405190810160405280939291908181526020018383808284376000920191909152509295949360208101935035915050600160201b81111561097e57600080fd5b82018360208201111561099057600080fd5b803590602001918460018302840111600160201b831117156109b157600080fd5b91908080601f0160208091040260200160405190810160405280939291908181526020018383808284376000920191909152509295505050903560ff16915061189e9050565b61043c60048036036020811015610a0d57600080fd5b5035611a85565b61043c611a91565b61040b60048036036040811015610a3257600080fd5b506001600160a01b038135169060200135611b0c565b61043c611b7d565b61043c611b83565b61043c60048036036060811015610a6e57600080fd5b506001600160a01b03813581169160208101359091169060400135611c22565b61043c60048036036020811015610aa457600080fd5b50356001600160a01b0316611c93565b61043c611d1f565b610ae260048036036020811015610ad257600080fd5b50356001600160a01b0316611ddb565b604080519485526020850193909352838301919091526060830152519081900360800190f35b61043c60048036036020811015610b1e57600080fd5b5035611e70565b61043c60048036036020811015610b3b57600080fd5b5035611e7b565b61043c60048036036040811015610b5857600080fd5b506001600160a01b0381358116916020013516611e86565b61043c611eb1565b61043c60048036036020811015610b8e57600080fd5b50356001600160a01b0316611fb4565b61067c611fee565b61043c60048036036060811015610bbc57600080fd5b506001600160a01b03813581169160208101359160409091013516611ffd565b61067c612015565b61043c612029565b61043c60048036036020811015610c0257600080fd5b503561208d565b61040b61210b565b60018054604080516020600284861615610100026000190190941693909304601f81018490048402820184019092528181529291830182828015610c965780601f10610c6b57610100808354040283529160200191610c96565b820191906000526020600020905b815481529060010190602001808311610c7957829003601f168201915b505050505081565b336000818152600f602090815260408083206001600160a01b03871680855290835281842086905581518681529151939493909284927f8c5be1e5ebec7d5bd14f71427d1e84f3dd0314c0f7b2291e5b200ac8c7c3b925929081900390910190a360019150505b92915050565b600080610d1783612110565b509150505b919050565b60035461010090046001600160a01b03163314610d6f5760405162461bcd60e51b815260040180806020018281038252602d815260200180615815602d913960400191505060405180910390fd5b60135460145460155460408051634fb3c66560e11b815290516001600160a01b039485169493841693909216918391639f678cca9160048083019260209291908290030181600087803b158015610dc557600080fd5b505af1158015610dd9573d6000803e3d6000fd5b505050506040513d6020811015610def57600080fd5b5050604080516305f5d64360e11b815230600482015290516000916001600160a01b03851691630bebac8691602480820192602092909190829003018186803b158015610e3b57600080fd5b505afa158015610e4f573d6000803e3d6000fd5b505050506040513d6020811015610e6557600080fd5b505160408051637f8661a160e01b81526004810183905290519192506001600160a01b03851691637f8661a19160248082019260009290919082900301818387803b158015610eb357600080fd5b505af1158015610ec7573d6000803e3d6000fd5b505060408051633612d9a360e11b81523060048201529051600093506001600160a01b0386169250636c25b34691602480820192602092909190829003018186803b158015610f1557600080fd5b505afa158015610f29573d6000803e3d6000fd5b505050506040513d6020811015610f3f57600080fd5b50516040805163ef693bed60e01b81523060048201526b033b2e3c9fd0803ce80000008304602482015290519192506001600160a01b0387169163ef693bed9160448082019260009290919082900301818387803b158015610fa057600080fd5b505af1158015610fb4573d6000803e3d6000fd5b505050505050505050565b60085481565b6000805460ff1661100a576040805162461bcd60e51b815260206004820152600a6024820152691c994b595b9d195c995960b21b604482015290519081900360640190fd5b6000805460ff1916815561101c611a91565b14611067576040805162461bcd60e51b81526020600482015260166024820152751858d8dc9d59481a5b9d195c995cdd0819985a5b195960521b604482015290519081900360640190fd5b61107082611841565b90505b6000805460ff19166001179055919050565b600d5481565b60008060006110986121b9565b909250905060008260038111156110ab57fe5b146110e75760405162461bcd60e51b81526004018080602001828103825260358152602001806159a86035913960400191505060405180910390fd5b9150505b90565b6110fc86868686868661189e565b601180546001600160a01b0319166001600160a01b038981169190911791829055604080516318160ddd60e01b8152905192909116916318160ddd91600480820192602092909190829003018186803b15801561115857600080fd5b505afa15801561116c573d6000803e3d6000fd5b505050506040513d6020811015610fb457600080fd5b6011546001600160a01b03828116911614156111cf5760405162461bcd60e51b81526004018080602001828103825260328152602001806157616032913960400191505060405180910390fd5b604080516370a0823160e01b815230600482015290516000916001600160a01b038416916370a0823191602480820192602092909190829003018186803b15801561121957600080fd5b505afa15801561122d573d6000803e3d6000fd5b505050506040513d602081101561124357600080fd5b50516003546040805163a9059cbb60e01b81526101009092046001600160a01b03908116600484015260248301849052905192935084169163a9059cbb9160448082019260009290919082900301818387803b1580156112a257600080fd5b505af11580156112b6573d6000803e3d6000fd5b505050505050565b6000805460ff16611303576040805162461bcd60e51b815260206004820152600a6024820152691c994b595b9d195c995960b21b604482015290519081900360640190fd5b6000805460ff1916815561131933868686612268565b1490506000805460ff191660011790559392505050565b60008061133d84846124f4565b50949350505050565b6004546001600160a01b031681565b60035460ff1681565b60006113686155c1565b604051806020016040528061137b611d1f565b90526001600160a01b0384166000908152600e60205260408120549192509081906113a790849061259f565b909250905060008260038111156113ba57fe5b1461140c576040805162461bcd60e51b815260206004820152601f60248201527f62616c616e636520636f756c64206e6f742062652063616c63756c6174656400604482015290519081900360640190fd5b949350505050565b600061141e6125f3565b905090565b6000610d0582612705565b60035460009061010090046001600160a01b0316331461145b576114546001603f612799565b9050610d1c565b60055460408051623f1ee960e11b815290516001600160a01b0392831692851691627e3dd2916004808301926020929190829003018186803b1580156114a057600080fd5b505afa1580156114b4573d6000803e3d6000fd5b505050506040513d60208110156114ca57600080fd5b505161151d576040805162461bcd60e51b815260206004820152601c60248201527f6d61726b6572206d6574686f642072657475726e65642066616c736500000000604482015290519081900360640190fd5b600580546001600160a01b0319166001600160a01b03858116918217909255604080519284168352602083019190915280517f7ac369dbd14fa5ea3f473ed67cc9d598964a77501540ba6751eb0b3decf5870d9281900390910190a160005b9392505050565b600b5481565b60035461010090046001600160a01b031633146115d75760405162461bcd60e51b81526004018080602001828103825260308152602001806157936030913960400191505060405180910390fd5b6000808280602001905160408110156115ef57600080fd5b508051602090910151909250905061160782826127ff565b505050565b6012546001600160a01b031681565b6005546001600160a01b031681565b6000805460ff1661166f576040805162461bcd60e51b815260206004820152600a6024820152691c994b595b9d195c995960b21b604482015290519081900360640190fd5b6000805460ff19168155611681611a91565b905080156116a75761169f81601081111561169857fe5b6030612799565b915050611073565b6116b083612b1a565b9150506000805460ff19166001179055919050565b6014546001600160a01b031681565b60095481565b6011546001600160a01b031681565b6001600160a01b03166000908152600e602052604090205490565b6000805460ff16611749576040805162461bcd60e51b815260206004820152600a6024820152691c994b595b9d195c995960b21b604482015290519081900360640190fd5b6000805460ff1916815561175b611a91565b146117a6576040805162461bcd60e51b81526020600482015260166024820152751858d8dc9d59481a5b9d195c995cdd0819985a5b195960521b604482015290519081900360640190fd5b50600b546000805460ff1916600117905590565b6000610d0582612c4d565b6013546001600160a01b031681565b6015546001600160a01b031681565b600c5481565b6002805460408051602060018416156101000260001901909316849004601f81018490048402820184019092528181529291830182828015610c965780601f10610c6b57610100808354040283529160200191610c96565b600080600061184f84612cce565b9092509050600082600381111561186257fe5b1461157c5760405162461bcd60e51b815260040180806020018281038252603781526020018061586d6037913960400191505060405180910390fd5b60035461010090046001600160a01b031633146118ec5760405162461bcd60e51b815260040180806020018281038252602481526020018061571a6024913960400191505060405180910390fd5b6009541580156118fc5750600a54155b6119375760405162461bcd60e51b815260040180806020018281038252602381526020018061573e6023913960400191505060405180910390fd5b6007849055836119785760405162461bcd60e51b81526004018080602001828103825260308152602001806157c36030913960400191505060405180910390fd5b60006119838761142e565b905080156119d8576040805162461bcd60e51b815260206004820152601a60248201527f73657474696e6720636f6d7074726f6c6c6572206661696c6564000000000000604482015290519081900360640190fd5b6119e0612d82565b600955670de0b6b3a7640000600a556119f886612d86565b90508015611a375760405162461bcd60e51b81526004018080602001828103825260228152602001806157f36022913960400191505060405180910390fd5b8351611a4a9060019060208701906155d4565b508251611a5e9060029060208601906155d4565b50506003805460ff90921660ff199283161790556000805490911660011790555050505050565b600080610d1783612efb565b60145460408051634fb3c66560e11b815290516000926001600160a01b031691639f678cca91600480830192602092919082900301818787803b158015611ad757600080fd5b505af1158015611aeb573d6000803e3d6000fd5b505050506040513d6020811015611b0157600080fd5b5061141e9050612f7c565b6000805460ff16611b51576040805162461bcd60e51b815260206004820152600a6024820152691c994b595b9d195c995960b21b604482015290519081900360640190fd5b6000805460ff19168155611b6733338686612268565b1490506000805460ff1916600117905592915050565b600a5481565b6006546000906001600160a01b031663b8168816611b9f6125f3565b600b54600c546008546040518563ffffffff1660e01b81526004018085815260200184815260200183815260200182815260200194505050505060206040518083038186803b158015611bf157600080fd5b505afa158015611c05573d6000803e3d6000fd5b505050506040513d6020811015611c1b57600080fd5b5051905090565b6000805460ff16611c67576040805162461bcd60e51b815260206004820152600a6024820152691c994b595b9d195c995960b21b604482015290519081900360640190fd5b6000805460ff19169055611c7d338585856132d4565b90506000805460ff191660011790559392505050565b60035460009061010090046001600160a01b03163314611cb95761145460016045612799565b600480546001600160a01b038481166001600160a01b0319831681179093556040805191909216808252602082019390935281517fca4f2f25d0898edd99413412fb94012f9e54ec8142f9b093e7720646a95b16a9929181900390910190a1600061157c565b6000805460ff16611d64576040805162461bcd60e51b815260206004820152600a6024820152691c994b595b9d195c995960b21b604482015290519081900360640190fd5b6000805460ff19168155611d76611a91565b14611dc1576040805162461bcd60e51b81526020600482015260166024820152751858d8dc9d59481a5b9d195c995cdd0819985a5b195960521b604482015290519081900360640190fd5b611dc961108b565b90506000805460ff1916600117905590565b6001600160a01b0381166000908152600e6020526040812054819081908190818080611e0689612cce565b935090506000816003811115611e1857fe5b14611e365760095b975060009650869550859450611e699350505050565b611e3e6121b9565b925090506000816003811115611e5057fe5b14611e5c576009611e20565b5060009650919450925090505b9193509193565b6000610d05826134b0565b6000610d058261352f565b6001600160a01b039182166000908152600f6020908152604080832093909416825291909152205490565b6004546000906001600160a01b031633141580611ecc575033155b15611ee457611edd60016000612799565b90506110eb565b60038054600480546001600160a01b03818116610100818102610100600160a81b0319871617968790556001600160a01b031990931690935560408051948390048216808652929095041660208401528351909391927ff9ffabca9c8276e99321725bcb43fb076a6c66a54b7f21c4e8146d8519b417dc92908290030190a1600454604080516001600160a01b038085168252909216602083015280517fca4f2f25d0898edd99413412fb94012f9e54ec8142f9b093e7720646a95b16a99281900390910190a160009250505090565b600080611fbf611a91565b90508015611fe557611fdd816010811115611fd657fe5b6040612799565b915050610d1c565b61157c83612d86565b6006546001600160a01b031681565b60008061200b8585856135a9565b5095945050505050565b60035461010090046001600160a01b031681565b6006546000906001600160a01b03166315f240536120456125f3565b600b54600c546040518463ffffffff1660e01b815260040180848152602001838152602001828152602001935050505060206040518083038186803b158015611bf157600080fd5b6000805460ff166120d2576040805162461bcd60e51b815260206004820152600a6024820152691c994b595b9d195c995960b21b604482015290519081900360640190fd5b6000805460ff191681556120e4611a91565b905080156121025761169f8160108111156120fb57fe5b6046612799565b6116b0836136db565b600181565b60008054819060ff16612157576040805162461bcd60e51b815260206004820152600a6024820152691c994b595b9d195c995960b21b604482015290519081900360640190fd5b6000805460ff19168155612169611a91565b905080156121945761218781601081111561218057fe5b6036612799565b9250600091506121a59050565b61219f333386613783565b92509250505b6000805460ff191660011790559092909150565b600d546000908190806121d457505060075460009150612264565b60006121de6125f3565b905060006121ea6155c1565b60006121fb84600b54600c54613ad3565b93509050600081600381111561220d57fe5b14612222579550600094506122649350505050565b61222c8386613b1f565b92509050600081600381111561223e57fe5b14612253579550600094506122649350505050565b505160009550935061226492505050565b9091565b600554604080516317b9b84b60e31b81523060048201526001600160a01b03868116602483015285811660448301526064820185905291516000938493169163bdcdc25891608480830192602092919082900301818787803b1580156122cd57600080fd5b505af11580156122e1573d6000803e3d6000fd5b505050506040513d60208110156122f757600080fd5b5051905080156123165761230e6003604a83613bcf565b91505061140c565b836001600160a01b0316856001600160a01b0316141561233c5761230e6002604b612799565b60006001600160a01b03878116908716141561235b5750600019612383565b506001600160a01b038086166000908152600f60209081526040808320938a16835292905220545b6000806000806123938589613c35565b909450925060008460038111156123a657fe5b146123c4576123b76009604b612799565b965050505050505061140c565b6001600160a01b038a166000908152600e60205260409020546123e79089613c35565b909450915060008460038111156123fa57fe5b1461240b576123b76009604c612799565b6001600160a01b0389166000908152600e602052604090205461242e9089613c58565b9094509050600084600381111561244157fe5b14612452576123b76009604d612799565b6001600160a01b03808b166000908152600e6020526040808220859055918b1681522081905560001985146124aa576001600160a01b03808b166000908152600f60209081526040808320938f168352929052208390555b886001600160a01b03168a6001600160a01b03166000805160206159008339815191528a6040518082815260200191505060405180910390a35060009a9950505050505050505050565b60008054819060ff1661253b576040805162461bcd60e51b815260206004820152600a6024820152691c994b595b9d195c995960b21b604482015290519081900360640190fd5b6000805460ff1916815561254d611a91565b905080156125785761256b81601081111561256457fe5b6035612799565b9250600091506125899050565b612583338686613783565b92509250505b6000805460ff1916600117905590939092509050565b60008060006125ac6155c1565b6125b68686613c7e565b909250905060008260038111156125c957fe5b146125da57509150600090506125ec565b60006125e582613ce6565b9350935050505b9250929050565b601454604080516305f5d64360e11b815230600482015290516000926001600160a01b03169183918391630bebac86916024808301926020929190829003018186803b15801561264257600080fd5b505afa158015612656573d6000803e3d6000fd5b505050506040513d602081101561266c57600080fd5b50516040805163324abb3160e21b815290519192506b033b2e3c9fd0803ce8000000916126f6916001600160a01b0386169163c92aecc491600480820192602092909190829003018186803b1580156126c457600080fd5b505afa1580156126d8573d6000803e3d6000fd5b505050506040513d60208110156126ee57600080fd5b505183613cf5565b816126fd57fe5b049250505090565b6000805460ff1661274a576040805162461bcd60e51b815260206004820152600a6024820152691c994b595b9d195c995960b21b604482015290519081900360640190fd5b6000805460ff1916815561275c611a91565b9050801561277a5761169f81601081111561277357fe5b604e612799565b61278383613d50565b509150506000805460ff19166001179055919050565b60007f45b96fe442630264581b197e84bbada861235052c5a1aadfff9ea4e40a969aa08360108111156127c857fe5b8360508111156127d457fe5b604080519283526020830191909152600082820152519081900360600190a182601081111561157c57fe5b600082905060008290506000826001600160a01b031663f4b9fa756040518163ffffffff1660e01b8152600401602060405180830381600087803b15801561284657600080fd5b505af115801561285a573d6000803e3d6000fd5b505050506040513d602081101561287057600080fd5b5051604080516336569e7760e01b815290519192506000916001600160a01b038616916336569e7791600480830192602092919082900301818787803b1580156128b957600080fd5b505af11580156128cd573d6000803e3d6000fd5b505050506040513d60208110156128e357600080fd5b50516011549091506001600160a01b038381169116146129345760405162461bcd60e51b81526004018080602001828103825260228152602001806158a46022913960400191505060405180910390fd5b601380546001600160a01b038089166001600160a01b0319928316179283905560148054898316908416179055601580548583169316929092179091556040805163095ea7b360e01b815292821660048401526000196024840152519084169163095ea7b391604480830192600092919082900301818387803b1580156129ba57600080fd5b505af11580156129ce573d6000803e3d6000fd5b5050601454604080516328ec8bf160e21b81526001600160a01b0392831660048201529051918516935063a3b22fc4925060248082019260009290919082900301818387803b158015612a2057600080fd5b505af1158015612a34573d6000803e3d6000fd5b5050601354604080516328ec8bf160e21b81526001600160a01b0392831660048201529051918516935063a3b22fc4925060248082019260009290919082900301818387803b158015612a8657600080fd5b505af1158015612a9a573d6000803e3d6000fd5b50505050826001600160a01b0316639f678cca6040518163ffffffff1660e01b8152600401602060405180830381600087803b158015612ad957600080fd5b505af1158015612aed573d6000803e3d6000fd5b505050506040513d6020811015612b0357600080fd5b50612b119050306000613e38565b50505050505050565b600354600090819061010090046001600160a01b03163314612b4257611fdd60016031612799565b612b4a612d82565b60095414612b5e57611fdd600a6033612799565b82612b676125f3565b1015612b7957611fdd600e6032612799565b600c54831115612b8f57611fdd60026034612799565b50600c5482810390811115612bd55760405162461bcd60e51b8152600401808060200182810382526024815260200180615a396024913960400191505060405180910390fd5b600c819055600354612bf59061010090046001600160a01b03168461415d565b600354604080516101009092046001600160a01b0316825260208201859052818101839052517f3bad0c59cf2f06e7314077049f48a93578cd16f5ef92329f1dab1420a99c177e916060908290030190a1600061157c565b6000805460ff16612c92576040805162461bcd60e51b815260206004820152600a6024820152691c994b595b9d195c995960b21b604482015290519081900360640190fd5b6000805460ff19168155612ca4611a91565b90508015612cc25761169f816010811115612cbb57fe5b6027612799565b6116b0336000856142c2565b6001600160a01b038116600090815260106020526040812080548291829182918291612d05575060009450849350612d7d92505050565b612d158160000154600a546147b9565b90945092506000846003811115612d2857fe5b14612d3d575091935060009250612d7d915050565b612d4b8382600101546147f8565b90945091506000846003811115612d5e57fe5b14612d73575091935060009250612d7d915050565b5060009450925050505b915091565b4390565b600354600090819061010090046001600160a01b03163314612dae57611fdd60016042612799565b612db6612d82565b60095414612dca57611fdd600a6041612799565b600660009054906101000a90046001600160a01b03169050826001600160a01b0316632191f92a6040518163ffffffff1660e01b815260040160206040518083038186803b158015612e1b57600080fd5b505afa158015612e2f573d6000803e3d6000fd5b505050506040513d6020811015612e4557600080fd5b5051612e98576040805162461bcd60e51b815260206004820152601c60248201527f6d61726b6572206d6574686f642072657475726e65642066616c736500000000604482015290519081900360640190fd5b600680546001600160a01b0319166001600160a01b03858116918217909255604080519284168352602083019190915280517fedffc32e068c7c95dfd4bdfd5c4d939a084d6b11c4199eac8436ed234d72f9269281900390910190a1600061157c565b60008054819060ff16612f42576040805162461bcd60e51b815260206004820152600a6024820152691c994b595b9d195c995960b21b604482015290519081900360640190fd5b6000805460ff19168155612f54611a91565b90508015612f7257612187816010811115612f6b57fe5b601e612799565b61219f3385614823565b600080612f87612d82565b60095490915080821415612fa0576000925050506110eb565b6000612faa6125f3565b600b54600c54600a54600654604080516315f2405360e01b815260048101879052602481018690526044810185905290519596509394929391926000926001600160a01b03909216916315f24053916064808301926020929190829003018186803b15801561301857600080fd5b505afa15801561302c573d6000803e3d6000fd5b505050506040513d602081101561304257600080fd5b5051905065048c273950008111156130a1576040805162461bcd60e51b815260206004820152601c60248201527f626f72726f772072617465206973206162737572646c79206869676800000000604482015290519081900360640190fd5b6000806130ae8989613c35565b909250905060008260038111156130c157fe5b14613113576040805162461bcd60e51b815260206004820152601f60248201527f636f756c64206e6f742063616c63756c61746520626c6f636b2064656c746100604482015290519081900360640190fd5b61311b6155c1565b60008060008061313960405180602001604052808a81525087613c7e565b9097509450600087600381111561314c57fe5b1461317e576131696009600689600381111561316457fe5b613bcf565b9e5050505050505050505050505050506110eb565b613188858c61259f565b9097509350600087600381111561319b57fe5b146131b3576131696009600189600381111561316457fe5b6131bd848c613c58565b909750925060008760038111156131d057fe5b146131e8576131696009600489600381111561316457fe5b6132036040518060200160405280600854815250858c614bf3565b9097509150600087600381111561321657fe5b1461322e576131696009600589600381111561316457fe5b613239858a8b614bf3565b9097509050600087600381111561324c57fe5b14613264576131696009600389600381111561316457fe5b60098e9055600a819055600b839055600c829055604080518d8152602081018690528082018390526060810185905290517f4dec04e750ca11537cabcd8a9eab06494de08da3735bc8871cd41250e190bc049181900360800190a160009e50505050505050505050505050505090565b6005546040805163d02f735160e01b81523060048201526001600160a01b038781166024830152868116604483015285811660648301526084820185905291516000938493169163d02f73519160a480830192602092919082900301818787803b15801561334157600080fd5b505af1158015613355573d6000803e3d6000fd5b505050506040513d602081101561336b57600080fd5b5051905080156133825761230e6003601b83613bcf565b846001600160a01b0316846001600160a01b031614156133a85761230e6006601c612799565b6001600160a01b0384166000908152600e6020526040812054819081906133cf9087613c35565b909350915060008360038111156133e257fe5b14613405576133fa6009601a85600381111561316457fe5b94505050505061140c565b6001600160a01b0388166000908152600e60205260409020546134289087613c58565b9093509050600083600381111561343b57fe5b14613453576133fa6009601985600381111561316457fe5b6001600160a01b038088166000818152600e60209081526040808320879055938c168083529184902085905583518a815293519193600080516020615900833981519152929081900390910190a360009998505050505050505050565b6000805460ff166134f5576040805162461bcd60e51b815260206004820152600a6024820152691c994b595b9d195c995960b21b604482015290519081900360640190fd5b6000805460ff19168155613507611a91565b905080156135255761169f81601081111561351e57fe5b6008612799565b6116b03384614c40565b6000805460ff16613574576040805162461bcd60e51b815260206004820152600a6024820152691c994b595b9d195c995960b21b604482015290519081900360640190fd5b6000805460ff19168155613586611a91565b9050801561359d5761169f816010811115612cbb57fe5b6116b0338460006142c2565b60008054819060ff166135f0576040805162461bcd60e51b815260206004820152600a6024820152691c994b595b9d195c995960b21b604482015290519081900360640190fd5b6000805460ff19168155613602611a91565b9050801561362d5761362081601081111561361957fe5b600f612799565b9250600091506136c49050565b836001600160a01b031663a6afed956040518163ffffffff1660e01b8152600401602060405180830381600087803b15801561366857600080fd5b505af115801561367c573d6000803e3d6000fd5b505050506040513d602081101561369257600080fd5b5051905080156136b2576136208160108111156136ab57fe5b6010612799565b6136be33878787614ed4565b92509250505b6000805460ff191660011790559094909350915050565b60035460009061010090046001600160a01b031633146137015761145460016047612799565b613709612d82565b6009541461371d57611454600a6048612799565b670de0b6b3a76400008211156137395761145460026049612799565b6008805490839055604080518281526020810185905281517faaa68312e2ea9d50e16af5068410ab56e1a1fd06037b1a35664812c30f821460929181900390910190a1600061157c565b60055460408051631200453160e11b81523060048201526001600160a01b0386811660248301528581166044830152606482018590529151600093849384939116916324008a629160848082019260209290919082900301818787803b1580156137ec57600080fd5b505af1158015613800573d6000803e3d6000fd5b505050506040513d602081101561381657600080fd5b50519050801561383a5761382d6003603883613bcf565b925060009150613acb9050565b613842612d82565b600954146138565761382d600a6039612799565b61385e615652565b6001600160a01b038616600090815260106020526040902060010154606082015261388886612cce565b608083018190526020830182600381111561389f57fe5b60038111156138aa57fe5b90525060009050816020015160038111156138c157fe5b146138eb576138dd600960378360200151600381111561316457fe5b935060009250613acb915050565b600019851415613904576080810151604082015261390c565b604081018590525b61391a878260400151613e38565b60e08201819052608082015161392f91613c35565b60a083018190526020830182600381111561394657fe5b600381111561395157fe5b905250600090508160200151600381111561396857fe5b146139a45760405162461bcd60e51b815260040180806020018281038252603a8152602001806158c6603a913960400191505060405180910390fd5b6139b4600b548260e00151613c35565b60c08301819052602083018260038111156139cb57fe5b60038111156139d657fe5b90525060009050816020015160038111156139ed57fe5b14613a295760405162461bcd60e51b81526004018080602001828103825260318152602001806159206031913960400191505060405180910390fd5b60a080820180516001600160a01b03808a16600081815260106020908152604091829020948555600a5460019095019490945560c0870151600b81905560e088015195518251948f16855294840192909252828101949094526060820192909252608081019190915290517f1a2a22cb034d26d1854bdc6666a5b91fe25efbbb5dcad3b0355478d6f5c362a1929181900390910190a160e00151600093509150505b935093915050565b600080600080613ae38787613c58565b90925090506000826003811115613af657fe5b14613b075750915060009050613acb565b613b118186613c35565b935093505050935093915050565b6000613b296155c1565b600080613b3e86670de0b6b3a76400006147b9565b90925090506000826003811115613b5157fe5b14613b70575060408051602081019091526000815290925090506125ec565b600080613b7d83886147f8565b90925090506000826003811115613b9057fe5b14613bb2575060408051602081019091526000815290945092506125ec915050565b604080516020810190915290815260009890975095505050505050565b60007f45b96fe442630264581b197e84bbada861235052c5a1aadfff9ea4e40a969aa0846010811115613bfe57fe5b846050811115613c0a57fe5b604080519283526020830191909152818101859052519081900360600190a183601081111561140c57fe5b600080838311613c4c5750600090508183036125ec565b506003905060006125ec565b600080838301848110613c70576000925090506125ec565b5060029150600090506125ec565b6000613c886155c1565b600080613c998660000151866147b9565b90925090506000826003811115613cac57fe5b14613ccb575060408051602081019091526000815290925090506125ec565b60408051602081019091529081526000969095509350505050565b51670de0b6b3a7640000900490565b6000811580613d1057505080820282828281613d0d57fe5b04145b610d05576040805162461bcd60e51b815260206004820152600c60248201526b6d756c2d6f766572666c6f7760a01b604482015290519081900360640190fd5b600080600080613d5e612d82565b60095414613d7d57613d72600a604f612799565b93509150612d7d9050565b613d873386613e38565b905080600c54019150600c54821015613de7576040805162461bcd60e51b815260206004820181905260248201527f61646420726573657276657320756e6578706563746564206f766572666c6f77604482015290519081900360640190fd5b600c829055604080513381526020810183905280820184905290517fa91e67c5ea634cd43a12c5a482724b03de01e85ca68702a53d0c2f45cb7c1dc59181900360600190a160009350915050915091565b601154604080516323b872dd60e01b81526001600160a01b038581166004830152306024830152604482018590529151600093929092169182916323b872dd91606480830192602092919082900301818887803b158015613e9857600080fd5b505af1158015613eac573d6000803e3d6000fd5b505050506040513d6020811015613ec257600080fd5b5051613eff5760405162461bcd60e51b81526004018080602001828103825260248152602001806159846024913960400191505060405180910390fd5b601354601154601454601554604080516370a0823160e01b8152306004820181905291516001600160a01b03968716969586169594851694909316928692633b4da69f92909187916370a08231916024808301926020929190829003018186803b158015613f6c57600080fd5b505afa158015613f80573d6000803e3d6000fd5b505050506040513d6020811015613f9657600080fd5b5051604080516001600160e01b031960e086901b1681526001600160a01b039093166004840152602483019190915251604480830192600092919082900301818387803b158015613fe657600080fd5b505af1158015613ffa573d6000803e3d6000fd5b505060408051633612d9a360e11b81523060048201529051600093506001600160a01b0385169250636c25b34691602480820192602092909190829003018186803b15801561404857600080fd5b505afa15801561405c573d6000803e3d6000fd5b505050506040513d602081101561407257600080fd5b50516040805163324abb3160e21b815290519192506000916001600160a01b0386169163c92aecc4916004808301926020929190829003018186803b1580156140ba57600080fd5b505afa1580156140ce573d6000803e3d6000fd5b505050506040513d60208110156140e457600080fd5b505182816140ee57fe5b049050836001600160a01b031663049878f3826040518263ffffffff1660e01b815260040180828152602001915050600060405180830381600087803b15801561413757600080fd5b505af115801561414b573d6000803e3d6000fd5b509a9c9b505050505050505050505050565b6013546014546040805163324abb3160e21b815290516001600160a01b03938416939092169160009161420291849163c92aecc4916004808301926020929190829003018186803b1580156141b157600080fd5b505afa1580156141c5573d6000803e3d6000fd5b505050506040513d60208110156141db57600080fd5b50516141f3866b033b2e3c9fd0803ce8000000613cf5565b816141fa57fe5b0460016153c6565b9050816001600160a01b0316637f8661a1826040518263ffffffff1660e01b815260040180828152602001915050600060405180830381600087803b15801561424a57600080fd5b505af115801561425e573d6000803e3d6000fd5b50505050826001600160a01b031663ef693bed86866040518363ffffffff1660e01b815260040180836001600160a01b03166001600160a01b0316815260200182815260200192505050600060405180830381600087803b158015610fa057600080fd5b60008215806142cf575081155b61430a5760405162461bcd60e51b8152600401808060200182810382526034815260200180615a056034913960400191505060405180910390fd5b614312615698565b61431a6121b9565b604083018190526020830182600381111561433157fe5b600381111561433c57fe5b905250600090508160200151600381111561435357fe5b146143775761436f6009602b8360200151600381111561316457fe5b91505061157c565b831561442857606081018490526040805160208101825290820151815261439e908561259f565b60808301819052602083018260038111156143b557fe5b60038111156143c057fe5b90525060009050816020015160038111156143d757fe5b146143f35761436f600960298360200151600381111561316457fe5b608081015161441e9061440d90606463ffffffff61540d16565b60808301519063ffffffff61544f16565b60808201526144a1565b61444483604051806020016040528084604001518152506154a9565b606083018190526020830182600381111561445b57fe5b600381111561446657fe5b905250600090508160200151600381111561447d57fe5b146144995761436f6009602a8360200151600381111561316457fe5b608081018390525b60055460608201516040805163eabe7d9160e01b81523060048201526001600160a01b03898116602483015260448201939093529051600093929092169163eabe7d919160648082019260209290919082900301818787803b15801561450657600080fd5b505af115801561451a573d6000803e3d6000fd5b505050506040513d602081101561453057600080fd5b505190508015614550576145476003602883613bcf565b9250505061157c565b614558612d82565b6009541461456c57614547600a602c612799565b61457c600d548360600151613c35565b60a084018190526020840182600381111561459357fe5b600381111561459e57fe5b90525060009050826020015160038111156145b557fe5b146145d1576145476009602e8460200151600381111561316457fe5b6001600160a01b0386166000908152600e602052604090205460608301516145f99190613c35565b60c084018190526020840182600381111561461057fe5b600381111561461b57fe5b905250600090508260200151600381111561463257fe5b1461464e576145476009602d8460200151600381111561316457fe5b816080015161465b6125f3565b101561466d57614547600e602f612799565b61467b86836080015161415d565b60a0820151600d5560c08201516001600160a01b0387166000818152600e6020908152604091829020939093556060850151815190815290513093600080516020615900833981519152928290030190a36080820151606080840151604080516001600160a01b038b168152602081019490945283810191909152517fe5b754fb1abb7f01b499791d0b820ae3b6af3424ac1c59768edb53f4ec31a9299281900390910190a160055460808301516060840151604080516351dff98960e01b81523060048201526001600160a01b038b81166024830152604482019490945260648101929092525191909216916351dff98991608480830192600092919082900301818387803b15801561478e57600080fd5b505af11580156147a2573d6000803e3d6000fd5b50600092506147af915050565b9695505050505050565b600080836147cc575060009050806125ec565b838302838582816147d957fe5b04146147ed575060029150600090506125ec565b6000925090506125ec565b6000808261480c57506001905060006125ec565b600083858161481757fe5b04915091509250929050565b60055460408051634ef4c3e160e01b81523060048201526001600160a01b03858116602483015260448201859052915160009384938493911691634ef4c3e19160648082019260209290919082900301818787803b15801561488457600080fd5b505af1158015614898573d6000803e3d6000fd5b505050506040513d60208110156148ae57600080fd5b5051905080156148d2576148c56003601f83613bcf565b9250600091506125ec9050565b6148da612d82565b600954146148ee576148c5600a6022612799565b6148f6615698565b6148fe6121b9565b604083018190526020830182600381111561491557fe5b600381111561492057fe5b905250600090508160200151600381111561493757fe5b1461496157614953600960218360200151600381111561316457fe5b9350600092506125ec915050565b61496b8686613e38565b60c082018190526040805160208101825290830151815261498c91906154a9565b60608301819052602083018260038111156149a357fe5b60038111156149ae57fe5b90525060009050816020015160038111156149c557fe5b14614a17576040805162461bcd60e51b815260206004820181905260248201527f4d494e545f45584348414e47455f43414c43554c4154494f4e5f4641494c4544604482015290519081900360640190fd5b614a27600d548260600151613c58565b6080830181905260208301826003811115614a3e57fe5b6003811115614a4957fe5b9052506000905081602001516003811115614a6057fe5b14614a9c5760405162461bcd60e51b81526004018080602001828103825260288152602001806159dd6028913960400191505060405180910390fd5b6001600160a01b0386166000908152600e60205260409020546060820151614ac49190613c58565b60a0830181905260208301826003811115614adb57fe5b6003811115614ae657fe5b9052506000905081602001516003811115614afd57fe5b14614b395760405162461bcd60e51b815260040180806020018281038252602b815260200180615842602b913960400191505060405180910390fd5b6080810151600d5560a08101516001600160a01b0387166000818152600e60209081526040918290209390935560c084015160608086015183519485529484019190915282820193909352517f4c209b5fc8ad50758f13e2e1088ba56a560dff690a1c6fef26394f4c03821c4f929181900390910190a1606081015160408051918252516001600160a01b0388169130916000805160206159008339815191529181900360200190a360c001516000969095509350505050565b6000806000614c006155c1565b614c0a8787613c7e565b90925090506000826003811115614c1d57fe5b14614c2e5750915060009050613acb565b613b11614c3a82613ce6565b86613c58565b6005546040805163368f515360e21b81523060048201526001600160a01b0385811660248301526044820185905291516000938493169163da3d454c91606480830192602092919082900301818787803b158015614c9d57600080fd5b505af1158015614cb1573d6000803e3d6000fd5b505050506040513d6020811015614cc757600080fd5b505190508015614ce657614cde6003600e83613bcf565b915050610d05565b614cee612d82565b60095414614d0157614cde600a80612799565b82614d0a6125f3565b1015614d1c57614cde600e6009612799565b614d246156d6565b614d2d85612cce565b6020830181905282826003811115614d4157fe5b6003811115614d4c57fe5b9052506000905081516003811115614d6057fe5b14614d8557614d7c600960078360000151600381111561316457fe5b92505050610d05565b614d93816020015185613c58565b6040830181905282826003811115614da757fe5b6003811115614db257fe5b9052506000905081516003811115614dc657fe5b14614de257614d7c6009600c8360000151600381111561316457fe5b614dee600b5485613c58565b6060830181905282826003811115614e0257fe5b6003811115614e0d57fe5b9052506000905081516003811115614e2157fe5b14614e3d57614d7c6009600b8360000151600381111561316457fe5b614e47858561415d565b604080820180516001600160a01b03881660008181526010602090815290859020928355600a54600190930192909255606080860151600b81905593518551928352928201899052818501929092529081019190915290517f13ed6866d4e1ee6da46f845c46d7e54120883d75c5ea9a2dacc1c4ca8984ab809181900360800190a1600095945050505050565b60055460408051632fe3f38f60e11b81523060048201526001600160a01b0384811660248301528781166044830152868116606483015260848201869052915160009384938493911691635fc7e71e9160a48082019260209290919082900301818787803b158015614f4557600080fd5b505af1158015614f59573d6000803e3d6000fd5b505050506040513d6020811015614f6f57600080fd5b505190508015614f9357614f866003601283613bcf565b9250600091506153bd9050565b614f9b612d82565b60095414614faf57614f86600a6016612799565b614fb7612d82565b846001600160a01b0316636c540baf6040518163ffffffff1660e01b815260040160206040518083038186803b158015614ff057600080fd5b505afa158015615004573d6000803e3d6000fd5b505050506040513d602081101561501a57600080fd5b50511461502d57614f86600a6011612799565b866001600160a01b0316866001600160a01b0316141561505357614f8660066017612799565b8461506457614f8660076015612799565b60001985141561507a57614f8660076014612799565b600080615088898989613783565b909250905081156150b8576150a98260108111156150a257fe5b6018612799565b9450600093506153bd92505050565b6005546040805163c488847b60e01b81523060048201526001600160a01b038981166024830152604482018590528251600094859492169263c488847b926064808301939192829003018186803b15801561511257600080fd5b505afa158015615126573d6000803e3d6000fd5b505050506040513d604081101561513c57600080fd5b508051602090910151909250905081156151875760405162461bcd60e51b81526004018080602001828103825260338152602001806159516033913960400191505060405180910390fd5b80886001600160a01b03166370a082318c6040518263ffffffff1660e01b815260040180826001600160a01b03166001600160a01b0316815260200191505060206040518083038186803b1580156151de57600080fd5b505afa1580156151f2573d6000803e3d6000fd5b505050506040513d602081101561520857600080fd5b5051101561525d576040805162461bcd60e51b815260206004820152601860248201527f4c49515549444154455f5345495a455f544f4f5f4d5543480000000000000000604482015290519081900360640190fd5b60006001600160a01b0389163014156152835761527c308d8d856132d4565b905061530d565b6040805163b2a02ff160e01b81526001600160a01b038e811660048301528d81166024830152604482018590529151918b169163b2a02ff1916064808201926020929091908290030181600087803b1580156152de57600080fd5b505af11580156152f2573d6000803e3d6000fd5b505050506040513d602081101561530857600080fd5b505190505b8015615357576040805162461bcd60e51b81526020600482015260146024820152731d1bdad95b881cd95a5e9d5c994819985a5b195960621b604482015290519081900360640190fd5b604080516001600160a01b03808f168252808e1660208301528183018790528b1660608201526080810184905290517f298637f684da70674f26509b10f07ec2fbc77a335ab1e7d6215a4b2484d8bb529181900360a00190a16000975092955050505050505b94509492505050565b80820182811015610d05576040805162461bcd60e51b815260206004820152600c60248201526b6164642d6f766572666c6f7760a01b604482015290519081900360640190fd5b600061157c83836040518060400160405280601a81526020017f536166654d6174683a206469766973696f6e206279207a65726f0000000000008152506154c0565b60008282018381101561157c576040805162461bcd60e51b815260206004820152601b60248201527f536166654d6174683a206164646974696f6e206f766572666c6f770000000000604482015290519081900360640190fd5b60008060006154b66155c1565b6125b68686615562565b6000818361554c5760405162461bcd60e51b81526004018080602001828103825283818151815260200191508051906020019080838360005b838110156155115781810151838201526020016154f9565b50505050905090810190601f16801561553e5780820380516001836020036101000a031916815260200191505b509250505060405180910390fd5b50600083858161555857fe5b0495945050505050565b600061556c6155c1565b600080615581670de0b6b3a7640000876147b9565b9092509050600082600381111561559457fe5b146155b3575060408051602081019091526000815290925090506125ec565b6125e5818660000151613b1f565b6040518060200160405280600081525090565b828054600181600116156101000203166002900490600052602060002090601f016020900481019282601f1061561557805160ff1916838001178555615642565b82800160010185558215615642579182015b82811115615642578251825591602001919060010190615627565b5061564e9291506156ff565b5090565b6040805161010081019091528060008152602001600081526020016000815260200160008152602001600081526020016000815260200160008152602001600081525090565b6040805160e0810190915280600081526020016000815260200160008152602001600081526020016000815260200160008152602001600081525090565b604080516080810190915280600081526020016000815260200160008152602001600081525090565b6110eb91905b8082111561564e576000815560010161570556fe6f6e6c792061646d696e206d617920696e697469616c697a6520746865206d61726b65746d61726b6574206d6179206f6e6c7920626520696e697469616c697a6564206f6e63654345726332303a3a7377656570546f6b656e3a2063616e206e6f7420737765657020756e6465726c79696e6720746f6b656e6f6e6c79207468652061646d696e206d617920696e697469616c697a652074686520696d706c656d656e746174696f6e696e697469616c2065786368616e67652072617465206d7573742062652067726561746572207468616e207a65726f2e73657474696e6720696e7465726573742072617465206d6f64656c206661696c65646f6e6c79207468652061646d696e206d6179206162616e646f6e2074686520696d706c656d656e746174696f6e4d494e545f4e45575f4143434f554e545f42414c414e43455f43414c43554c4154494f4e5f4641494c4544626f72726f7742616c616e636553746f7265643a20626f72726f7742616c616e636553746f726564496e7465726e616c206661696c6564444149206d757374206265207468652073616d6520617320756e6465726c79696e6752455041595f424f52524f575f4e45575f4143434f554e545f424f52524f575f42414c414e43455f43414c43554c4154494f4e5f4641494c4544ddf252ad1be2c89b69c2b068fc378daa952ba7f163c4a11628f55a4df523b3ef52455041595f424f52524f575f4e45575f544f54414c5f42414c414e43455f43414c43554c4154494f4e5f4641494c45444c49515549444154455f434f4d5054524f4c4c45525f43414c43554c4154455f414d4f554e545f5345495a455f4641494c4544756e6578706563746564204549502d3230207472616e7366657220696e2072657475726e65786368616e67655261746553746f7265643a2065786368616e67655261746553746f726564496e7465726e616c206661696c65644d494e545f4e45575f544f54414c5f535550504c595f43414c43554c4154494f4e5f4641494c45446f6e65206f662072656465656d546f6b656e73496e206f722072656465656d416d6f756e74496e206d757374206265207a65726f72656475636520726573657276657320756e657870656374656420756e646572666c6f77a265627a7a72315820aabcdd835d937a1ac652f31cc5316c3fafe0b5c10da4011224b73d3f9c1e1bc464736f6c63430005110032",
      "opcodes": "PUSH1 0x80 PUSH1 0x40 MSTORE PUSH2 0x5A91 DUP1 PUSH2 0x13 PUSH1 0x0 CODECOPY PUSH1 0x0 RETURN INVALID PUSH1 0x80 PUSH1 0x40 MSTORE CALLVALUE DUP1 ISZERO PUSH2 0x10 JUMPI PUSH1 0x0 DUP1 REVERT JUMPDEST POP PUSH1 0x4 CALLDATASIZE LT PUSH2 0x35D JUMPI PUSH1 0x0 CALLDATALOAD PUSH1 0xE0 SHR DUP1 PUSH4 0x73ACEE98 GT PUSH2 0x1D3 JUMPI DUP1 PUSH4 0xB71D1A0C GT PUSH2 0x104 JUMPI DUP1 PUSH4 0xF2B3ABBD GT PUSH2 0xA2 JUMPI DUP1 PUSH4 0xF851A440 GT PUSH2 0x7C JUMPI DUP1 PUSH4 0xF851A440 EQ PUSH2 0xBDC JUMPI DUP1 PUSH4 0xF8F9DA28 EQ PUSH2 0xBE4 JUMPI DUP1 PUSH4 0xFCA7820B EQ PUSH2 0xBEC JUMPI DUP1 PUSH4 0xFE9C44AE EQ PUSH2 0xC09 JUMPI PUSH2 0x35D JUMP JUMPDEST DUP1 PUSH4 0xF2B3ABBD EQ PUSH2 0xB78 JUMPI DUP1 PUSH4 0xF3FDB15A EQ PUSH2 0xB9E JUMPI DUP1 PUSH4 0xF5E3C462 EQ PUSH2 0xBA6 JUMPI PUSH2 0x35D JUMP JUMPDEST DUP1 PUSH4 0xC5EBEAEC GT PUSH2 0xDE JUMPI DUP1 PUSH4 0xC5EBEAEC EQ PUSH2 0xB08 JUMPI DUP1 PUSH4 0xDB006A75 EQ PUSH2 0xB25 JUMPI DUP1 PUSH4 0xDD62ED3E EQ PUSH2 0xB42 JUMPI DUP1 PUSH4 0xE9C714F2 EQ PUSH2 0xB70 JUMPI PUSH2 0x35D JUMP JUMPDEST DUP1 PUSH4 0xB71D1A0C EQ PUSH2 0xA8E JUMPI DUP1 PUSH4 0xBD6D894D EQ PUSH2 0xAB4 JUMPI DUP1 PUSH4 0xC37F68E2 EQ PUSH2 0xABC JUMPI PUSH2 0x35D JUMP JUMPDEST DUP1 PUSH4 0x99D8C1B4 GT PUSH2 0x171 JUMPI DUP1 PUSH4 0xA9059CBB GT PUSH2 0x14B JUMPI DUP1 PUSH4 0xA9059CBB EQ PUSH2 0xA1C JUMPI DUP1 PUSH4 0xAA5AF0FD EQ PUSH2 0xA48 JUMPI DUP1 PUSH4 0xAE9D70B0 EQ PUSH2 0xA50 JUMPI DUP1 PUSH4 0xB2A02FF1 EQ PUSH2 0xA58 JUMPI PUSH2 0x35D JUMP JUMPDEST DUP1 PUSH4 0x99D8C1B4 EQ PUSH2 0x8A9 JUMPI DUP1 PUSH4 0xA0712D68 EQ PUSH2 0x9F7 JUMPI DUP1 PUSH4 0xA6AFED95 EQ PUSH2 0xA14 JUMPI PUSH2 0x35D JUMP JUMPDEST DUP1 PUSH4 0x8D925CCD GT PUSH2 0x1AD JUMPI DUP1 PUSH4 0x8D925CCD EQ PUSH2 0x86B JUMPI DUP1 PUSH4 0x8F840DDD EQ PUSH2 0x873 JUMPI DUP1 PUSH4 0x95D89B41 EQ PUSH2 0x87B JUMPI DUP1 PUSH4 0x95DD9193 EQ PUSH2 0x883 JUMPI PUSH2 0x35D JUMP JUMPDEST DUP1 PUSH4 0x73ACEE98 EQ PUSH2 0x83E JUMPI DUP1 PUSH4 0x852A12E3 EQ PUSH2 0x846 JUMPI DUP1 PUSH4 0x8A8DF2E6 EQ PUSH2 0x863 JUMPI PUSH2 0x35D JUMP JUMPDEST DUP1 PUSH4 0x313CE567 GT PUSH2 0x2AD JUMPI DUP1 PUSH4 0x5C60DA1B GT PUSH2 0x24B JUMPI DUP1 PUSH4 0x66CED602 GT PUSH2 0x225 JUMPI DUP1 PUSH4 0x66CED602 EQ PUSH2 0x800 JUMPI DUP1 PUSH4 0x6C540BAF EQ PUSH2 0x808 JUMPI DUP1 PUSH4 0x6F307DC3 EQ PUSH2 0x810 JUMPI DUP1 PUSH4 0x70A08231 EQ PUSH2 0x818 JUMPI PUSH2 0x35D JUMP JUMPDEST DUP1 PUSH4 0x5C60DA1B EQ PUSH2 0x7D3 JUMPI DUP1 PUSH4 0x5FE3B567 EQ PUSH2 0x7DB JUMPI DUP1 PUSH4 0x601A0BF1 EQ PUSH2 0x7E3 JUMPI PUSH2 0x35D JUMP JUMPDEST DUP1 PUSH4 0x3E941010 GT PUSH2 0x287 JUMPI DUP1 PUSH4 0x3E941010 EQ PUSH2 0x6E4 JUMPI DUP1 PUSH4 0x4576B5DB EQ PUSH2 0x701 JUMPI DUP1 PUSH4 0x47BD3718 EQ PUSH2 0x727 JUMPI DUP1 PUSH4 0x56E67728 EQ PUSH2 0x72F JUMPI PUSH2 0x35D JUMP JUMPDEST DUP1 PUSH4 0x313CE567 EQ PUSH2 0x698 JUMPI DUP1 PUSH4 0x3AF9E669 EQ PUSH2 0x6B6 JUMPI DUP1 PUSH4 0x3B1D21A2 EQ PUSH2 0x6DC JUMPI PUSH2 0x35D JUMP JUMPDEST DUP1 PUSH4 0x18160DDD GT PUSH2 0x31A JUMPI DUP1 PUSH4 0x1BE19560 GT PUSH2 0x2F4 JUMPI DUP1 PUSH4 0x1BE19560 EQ PUSH2 0x5EC JUMPI DUP1 PUSH4 0x23B872DD EQ PUSH2 0x612 JUMPI DUP1 PUSH4 0x2608F818 EQ PUSH2 0x648 JUMPI DUP1 PUSH4 0x26782247 EQ PUSH2 0x674 JUMPI PUSH2 0x35D JUMP JUMPDEST DUP1 PUSH4 0x18160DDD EQ PUSH2 0x486 JUMPI DUP1 PUSH4 0x182DF0F5 EQ PUSH2 0x48E JUMPI DUP1 PUSH4 0x1A31D465 EQ PUSH2 0x496 JUMPI PUSH2 0x35D JUMP JUMPDEST DUP1 PUSH4 0x6FDDE03 EQ PUSH2 0x362 JUMPI DUP1 PUSH4 0x95EA7B3 EQ PUSH2 0x3DF JUMPI DUP1 PUSH4 0xE752702 EQ PUSH2 0x41F JUMPI DUP1 PUSH4 0x153AB505 EQ PUSH2 0x44E JUMPI DUP1 PUSH4 0x173B9904 EQ PUSH2 0x458 JUMPI DUP1 PUSH4 0x17BFDFBC EQ PUSH2 0x460 JUMPI JUMPDEST PUSH1 0x0 DUP1 REVERT JUMPDEST PUSH2 0x36A PUSH2 0xC11 JUMP JUMPDEST PUSH1 0x40 DUP1 MLOAD PUSH1 0x20 DUP1 DUP3 MSTORE DUP4 MLOAD DUP2 DUP4 ADD MSTORE DUP4 MLOAD SWAP2 SWAP3 DUP4 SWAP3 SWAP1 DUP4 ADD SWAP2 DUP6 ADD SWAP1 DUP1 DUP4 DUP4 PUSH1 0x0 JUMPDEST DUP4 DUP2 LT ISZERO PUSH2 0x3A4 JUMPI DUP2 DUP2 ADD MLOAD DUP4 DUP3 ADD MSTORE PUSH1 0x20 ADD PUSH2 0x38C JUMP JUMPDEST POP POP POP POP SWAP1 POP SWAP1 DUP2 ADD SWAP1 PUSH1 0x1F AND DUP1 ISZERO PUSH2 0x3D1 JUMPI DUP1 DUP3 SUB DUP1 MLOAD PUSH1 0x1 DUP4 PUSH1 0x20 SUB PUSH2 0x100 EXP SUB NOT AND DUP2 MSTORE PUSH1 0x20 ADD SWAP2 POP JUMPDEST POP SWAP3 POP POP POP PUSH1 0x40 MLOAD DUP1 SWAP2 SUB SWAP1 RETURN JUMPDEST PUSH2 0x40B PUSH1 0x4 DUP1 CALLDATASIZE SUB PUSH1 0x40 DUP2 LT ISZERO PUSH2 0x3F5 JUMPI PUSH1 0x0 DUP1 REVERT JUMPDEST POP PUSH1 0x1 PUSH1 0x1 PUSH1 0xA0 SHL SUB DUP2 CALLDATALOAD AND SWAP1 PUSH1 0x20 ADD CALLDATALOAD PUSH2 0xC9E JUMP JUMPDEST PUSH1 0x40 DUP1 MLOAD SWAP2 ISZERO ISZERO DUP3 MSTORE MLOAD SWAP1 DUP2 SWAP1 SUB PUSH1 0x20 ADD SWAP1 RETURN JUMPDEST PUSH2 0x43C PUSH1 0x4 DUP1 CALLDATASIZE SUB PUSH1 0x20 DUP2 LT ISZERO PUSH2 0x435 JUMPI PUSH1 0x0 DUP1 REVERT JUMPDEST POP CALLDATALOAD PUSH2 0xD0B JUMP JUMPDEST PUSH1 0x40 DUP1 MLOAD SWAP2 DUP3 MSTORE MLOAD SWAP1 DUP2 SWAP1 SUB PUSH1 0x20 ADD SWAP1 RETURN JUMPDEST PUSH2 0x456 PUSH2 0xD21 JUMP JUMPDEST STOP JUMPDEST PUSH2 0x43C PUSH2 0xFBF JUMP JUMPDEST PUSH2 0x43C PUSH1 0x4 DUP1 CALLDATASIZE SUB PUSH1 0x20 DUP2 LT ISZERO PUSH2 0x476 JUMPI PUSH1 0x0 DUP1 REVERT JUMPDEST POP CALLDATALOAD PUSH1 0x1 PUSH1 0x1 PUSH1 0xA0 SHL SUB AND PUSH2 0xFC5 JUMP JUMPDEST PUSH2 0x43C PUSH2 0x1085 JUMP JUMPDEST PUSH2 0x43C PUSH2 0x108B JUMP JUMPDEST PUSH2 0x456 PUSH1 0x4 DUP1 CALLDATASIZE SUB PUSH1 0xE0 DUP2 LT ISZERO PUSH2 0x4AC JUMPI PUSH1 0x0 DUP1 REVERT JUMPDEST PUSH1 0x1 PUSH1 0x1 PUSH1 0xA0 SHL SUB DUP3 CALLDATALOAD DUP2 AND SWAP3 PUSH1 0x20 DUP2 ADD CALLDATALOAD DUP3 AND SWAP3 PUSH1 0x40 DUP3 ADD CALLDATALOAD SWAP1 SWAP3 AND SWAP2 PUSH1 0x60 DUP3 ADD CALLDATALOAD SWAP2 SWAP1 DUP2 ADD SWAP1 PUSH1 0xA0 DUP2 ADD PUSH1 0x80 DUP3 ADD CALLDATALOAD PUSH1 0x1 PUSH1 0x20 SHL DUP2 GT ISZERO PUSH2 0x4EE JUMPI PUSH1 0x0 DUP1 REVERT JUMPDEST DUP3 ADD DUP4 PUSH1 0x20 DUP3 ADD GT ISZERO PUSH2 0x500 JUMPI PUSH1 0x0 DUP1 REVERT JUMPDEST DUP1 CALLDATALOAD SWAP1 PUSH1 0x20 ADD SWAP2 DUP5 PUSH1 0x1 DUP4 MUL DUP5 ADD GT PUSH1 0x1 PUSH1 0x20 SHL DUP4 GT OR ISZERO PUSH2 0x521 JUMPI PUSH1 0x0 DUP1 REVERT JUMPDEST SWAP2 SWAP1 DUP1 DUP1 PUSH1 0x1F ADD PUSH1 0x20 DUP1 SWAP2 DIV MUL PUSH1 0x20 ADD PUSH1 0x40 MLOAD SWAP1 DUP2 ADD PUSH1 0x40 MSTORE DUP1 SWAP4 SWAP3 SWAP2 SWAP1 DUP2 DUP2 MSTORE PUSH1 0x20 ADD DUP4 DUP4 DUP1 DUP3 DUP5 CALLDATACOPY PUSH1 0x0 SWAP3 ADD SWAP2 SWAP1 SWAP2 MSTORE POP SWAP3 SWAP6 SWAP5 SWAP4 PUSH1 0x20 DUP2 ADD SWAP4 POP CALLDATALOAD SWAP2 POP POP PUSH1 0x1 PUSH1 0x20 SHL DUP2 GT ISZERO PUSH2 0x573 JUMPI PUSH1 0x0 DUP1 REVERT JUMPDEST DUP3 ADD DUP4 PUSH1 0x20 DUP3 ADD GT ISZERO PUSH2 0x585 JUMPI PUSH1 0x0 DUP1 REVERT JUMPDEST DUP1 CALLDATALOAD SWAP1 PUSH1 0x20 ADD SWAP2 DUP5 PUSH1 0x1 DUP4 MUL DUP5 ADD GT PUSH1 0x1 PUSH1 0x20 SHL DUP4 GT OR ISZERO PUSH2 0x5A6 JUMPI PUSH1 0x0 DUP1 REVERT JUMPDEST SWAP2 SWAP1 DUP1 DUP1 PUSH1 0x1F ADD PUSH1 0x20 DUP1 SWAP2 DIV MUL PUSH1 0x20 ADD PUSH1 0x40 MLOAD SWAP1 DUP2 ADD PUSH1 0x40 MSTORE DUP1 SWAP4 SWAP3 SWAP2 SWAP1 DUP2 DUP2 MSTORE PUSH1 0x20 ADD DUP4 DUP4 DUP1 DUP3 DUP5 CALLDATACOPY PUSH1 0x0 SWAP3 ADD SWAP2 SWAP1 SWAP2 MSTORE POP SWAP3 SWAP6 POP POP POP SWAP1 CALLDATALOAD PUSH1 0xFF AND SWAP2 POP PUSH2 0x10EE SWAP1 POP JUMP JUMPDEST PUSH2 0x456 PUSH1 0x4 DUP1 CALLDATASIZE SUB PUSH1 0x20 DUP2 LT ISZERO PUSH2 0x602 JUMPI PUSH1 0x0 DUP1 REVERT JUMPDEST POP CALLDATALOAD PUSH1 0x1 PUSH1 0x1 PUSH1 0xA0 SHL SUB AND PUSH2 0x1182 JUMP JUMPDEST PUSH2 0x40B PUSH1 0x4 DUP1 CALLDATASIZE SUB PUSH1 0x60 DUP2 LT ISZERO PUSH2 0x628 JUMPI PUSH1 0x0 DUP1 REVERT JUMPDEST POP PUSH1 0x1 PUSH1 0x1 PUSH1 0xA0 SHL SUB DUP2 CALLDATALOAD DUP2 AND SWAP2 PUSH1 0x20 DUP2 ADD CALLDATALOAD SWAP1 SWAP2 AND SWAP1 PUSH1 0x40 ADD CALLDATALOAD PUSH2 0x12BE JUMP JUMPDEST PUSH2 0x43C PUSH1 0x4 DUP1 CALLDATASIZE SUB PUSH1 0x40 DUP2 LT ISZERO PUSH2 0x65E JUMPI PUSH1 0x0 DUP1 REVERT JUMPDEST POP PUSH1 0x1 PUSH1 0x1 PUSH1 0xA0 SHL SUB DUP2 CALLDATALOAD AND SWAP1 PUSH1 0x20 ADD CALLDATALOAD PUSH2 0x1330 JUMP JUMPDEST PUSH2 0x67C PUSH2 0x1346 JUMP JUMPDEST PUSH1 0x40 DUP1 MLOAD PUSH1 0x1 PUSH1 0x1 PUSH1 0xA0 SHL SUB SWAP1 SWAP3 AND DUP3 MSTORE MLOAD SWAP1 DUP2 SWAP1 SUB PUSH1 0x20 ADD SWAP1 RETURN JUMPDEST PUSH2 0x6A0 PUSH2 0x1355 JUMP JUMPDEST PUSH1 0x40 DUP1 MLOAD PUSH1 0xFF SWAP1 SWAP3 AND DUP3 MSTORE MLOAD SWAP1 DUP2 SWAP1 SUB PUSH1 0x20 ADD SWAP1 RETURN JUMPDEST PUSH2 0x43C PUSH1 0x4 DUP1 CALLDATASIZE SUB PUSH1 0x20 DUP2 LT ISZERO PUSH2 0x6CC JUMPI PUSH1 0x0 DUP1 REVERT JUMPDEST POP CALLDATALOAD PUSH1 0x1 PUSH1 0x1 PUSH1 0xA0 SHL SUB AND PUSH2 0x135E JUMP JUMPDEST PUSH2 0x43C PUSH2 0x1414 JUMP JUMPDEST PUSH2 0x43C PUSH1 0x4 DUP1 CALLDATASIZE SUB PUSH1 0x20 DUP2 LT ISZERO PUSH2 0x6FA JUMPI PUSH1 0x0 DUP1 REVERT JUMPDEST POP CALLDATALOAD PUSH2 0x1423 JUMP JUMPDEST PUSH2 0x43C PUSH1 0x4 DUP1 CALLDATASIZE SUB PUSH1 0x20 DUP2 LT ISZERO PUSH2 0x717 JUMPI PUSH1 0x0 DUP1 REVERT JUMPDEST POP CALLDATALOAD PUSH1 0x1 PUSH1 0x1 PUSH1 0xA0 SHL SUB AND PUSH2 0x142E JUMP JUMPDEST PUSH2 0x43C PUSH2 0x1583 JUMP JUMPDEST PUSH2 0x456 PUSH1 0x4 DUP1 CALLDATASIZE SUB PUSH1 0x20 DUP2 LT ISZERO PUSH2 0x745 JUMPI PUSH1 0x0 DUP1 REVERT JUMPDEST DUP2 ADD SWAP1 PUSH1 0x20 DUP2 ADD DUP2 CALLDATALOAD PUSH1 0x1 PUSH1 0x20 SHL DUP2 GT ISZERO PUSH2 0x75F JUMPI PUSH1 0x0 DUP1 REVERT JUMPDEST DUP3 ADD DUP4 PUSH1 0x20 DUP3 ADD GT ISZERO PUSH2 0x771 JUMPI PUSH1 0x0 DUP1 REVERT JUMPDEST DUP1 CALLDATALOAD SWAP1 PUSH1 0x20 ADD SWAP2 DUP5 PUSH1 0x1 DUP4 MUL DUP5 ADD GT PUSH1 0x1 PUSH1 0x20 SHL DUP4 GT OR ISZERO PUSH2 0x792 JUMPI PUSH1 0x0 DUP1 REVERT JUMPDEST SWAP2 SWAP1 DUP1 DUP1 PUSH1 0x1F ADD PUSH1 0x20 DUP1 SWAP2 DIV MUL PUSH1 0x20 ADD PUSH1 0x40 MLOAD SWAP1 DUP2 ADD PUSH1 0x40 MSTORE DUP1 SWAP4 SWAP3 SWAP2 SWAP1 DUP2 DUP2 MSTORE PUSH1 0x20 ADD DUP4 DUP4 DUP1 DUP3 DUP5 CALLDATACOPY PUSH1 0x0 SWAP3 ADD SWAP2 SWAP1 SWAP2 MSTORE POP SWAP3 SWAP6 POP PUSH2 0x1589 SWAP5 POP POP POP POP POP JUMP JUMPDEST PUSH2 0x67C PUSH2 0x160C JUMP JUMPDEST PUSH2 0x67C PUSH2 0x161B JUMP JUMPDEST PUSH2 0x43C PUSH1 0x4 DUP1 CALLDATASIZE SUB PUSH1 0x20 DUP2 LT ISZERO PUSH2 0x7F9 JUMPI PUSH1 0x0 DUP1 REVERT JUMPDEST POP CALLDATALOAD PUSH2 0x162A JUMP JUMPDEST PUSH2 0x67C PUSH2 0x16C5 JUMP JUMPDEST PUSH2 0x43C PUSH2 0x16D4 JUMP JUMPDEST PUSH2 0x67C PUSH2 0x16DA JUMP JUMPDEST PUSH2 0x43C PUSH1 0x4 DUP1 CALLDATASIZE SUB PUSH1 0x20 DUP2 LT ISZERO PUSH2 0x82E JUMPI PUSH1 0x0 DUP1 REVERT JUMPDEST POP CALLDATALOAD PUSH1 0x1 PUSH1 0x1 PUSH1 0xA0 SHL SUB AND PUSH2 0x16E9 JUMP JUMPDEST PUSH2 0x43C PUSH2 0x1704 JUMP JUMPDEST PUSH2 0x43C PUSH1 0x4 DUP1 CALLDATASIZE SUB PUSH1 0x20 DUP2 LT ISZERO PUSH2 0x85C JUMPI PUSH1 0x0 DUP1 REVERT JUMPDEST POP CALLDATALOAD PUSH2 0x17BA JUMP JUMPDEST PUSH2 0x67C PUSH2 0x17C5 JUMP JUMPDEST PUSH2 0x67C PUSH2 0x17D4 JUMP JUMPDEST PUSH2 0x43C PUSH2 0x17E3 JUMP JUMPDEST PUSH2 0x36A PUSH2 0x17E9 JUMP JUMPDEST PUSH2 0x43C PUSH1 0x4 DUP1 CALLDATASIZE SUB PUSH1 0x20 DUP2 LT ISZERO PUSH2 0x899 JUMPI PUSH1 0x0 DUP1 REVERT JUMPDEST POP CALLDATALOAD PUSH1 0x1 PUSH1 0x1 PUSH1 0xA0 SHL SUB AND PUSH2 0x1841 JUMP JUMPDEST PUSH2 0x456 PUSH1 0x4 DUP1 CALLDATASIZE SUB PUSH1 0xC0 DUP2 LT ISZERO PUSH2 0x8BF JUMPI PUSH1 0x0 DUP1 REVERT JUMPDEST PUSH1 0x1 PUSH1 0x1 PUSH1 0xA0 SHL SUB DUP3 CALLDATALOAD DUP2 AND SWAP3 PUSH1 0x20 DUP2 ADD CALLDATALOAD SWAP1 SWAP2 AND SWAP2 PUSH1 0x40 DUP3 ADD CALLDATALOAD SWAP2 SWAP1 DUP2 ADD SWAP1 PUSH1 0x80 DUP2 ADD PUSH1 0x60 DUP3 ADD CALLDATALOAD PUSH1 0x1 PUSH1 0x20 SHL DUP2 GT ISZERO PUSH2 0x8F9 JUMPI PUSH1 0x0 DUP1 REVERT JUMPDEST DUP3 ADD DUP4 PUSH1 0x20 DUP3 ADD GT ISZERO PUSH2 0x90B JUMPI PUSH1 0x0 DUP1 REVERT JUMPDEST DUP1 CALLDATALOAD SWAP1 PUSH1 0x20 ADD SWAP2 DUP5 PUSH1 0x1 DUP4 MUL DUP5 ADD GT PUSH1 0x1 PUSH1 0x20 SHL DUP4 GT OR ISZERO PUSH2 0x92C JUMPI PUSH1 0x0 DUP1 REVERT JUMPDEST SWAP2 SWAP1 DUP1 DUP1 PUSH1 0x1F ADD PUSH1 0x20 DUP1 SWAP2 DIV MUL PUSH1 0x20 ADD PUSH1 0x40 MLOAD SWAP1 DUP2 ADD PUSH1 0x40 MSTORE DUP1 SWAP4 SWAP3 SWAP2 SWAP1 DUP2 DUP2 MSTORE PUSH1 0x20 ADD DUP4 DUP4 DUP1 DUP3 DUP5 CALLDATACOPY PUSH1 0x0 SWAP3 ADD SWAP2 SWAP1 SWAP2 MSTORE POP SWAP3 SWAP6 SWAP5 SWAP4 PUSH1 0x20 DUP2 ADD SWAP4 POP CALLDATALOAD SWAP2 POP POP PUSH1 0x1 PUSH1 0x20 SHL DUP2 GT ISZERO PUSH2 0x97E JUMPI PUSH1 0x0 DUP1 REVERT JUMPDEST DUP3 ADD DUP4 PUSH1 0x20 DUP3 ADD GT ISZERO PUSH2 0x990 JUMPI PUSH1 0x0 DUP1 REVERT JUMPDEST DUP1 CALLDATALOAD SWAP1 PUSH1 0x20 ADD SWAP2 DUP5 PUSH1 0x1 DUP4 MUL DUP5 ADD GT PUSH1 0x1 PUSH1 0x20 SHL DUP4 GT OR ISZERO PUSH2 0x9B1 JUMPI PUSH1 0x0 DUP1 REVERT JUMPDEST SWAP2 SWAP1 DUP1 DUP1 PUSH1 0x1F ADD PUSH1 0x20 DUP1 SWAP2 DIV MUL PUSH1 0x20 ADD PUSH1 0x40 MLOAD SWAP1 DUP2 ADD PUSH1 0x40 MSTORE DUP1 SWAP4 SWAP3 SWAP2 SWAP1 DUP2 DUP2 MSTORE PUSH1 0x20 ADD DUP4 DUP4 DUP1 DUP3 DUP5 CALLDATACOPY PUSH1 0x0 SWAP3 ADD SWAP2 SWAP1 SWAP2 MSTORE POP SWAP3 SWAP6 POP POP POP SWAP1 CALLDATALOAD PUSH1 0xFF AND SWAP2 POP PUSH2 0x189E SWAP1 POP JUMP JUMPDEST PUSH2 0x43C PUSH1 0x4 DUP1 CALLDATASIZE SUB PUSH1 0x20 DUP2 LT ISZERO PUSH2 0xA0D JUMPI PUSH1 0x0 DUP1 REVERT JUMPDEST POP CALLDATALOAD PUSH2 0x1A85 JUMP JUMPDEST PUSH2 0x43C PUSH2 0x1A91 JUMP JUMPDEST PUSH2 0x40B PUSH1 0x4 DUP1 CALLDATASIZE SUB PUSH1 0x40 DUP2 LT ISZERO PUSH2 0xA32 JUMPI PUSH1 0x0 DUP1 REVERT JUMPDEST POP PUSH1 0x1 PUSH1 0x1 PUSH1 0xA0 SHL SUB DUP2 CALLDATALOAD AND SWAP1 PUSH1 0x20 ADD CALLDATALOAD PUSH2 0x1B0C JUMP JUMPDEST PUSH2 0x43C PUSH2 0x1B7D JUMP JUMPDEST PUSH2 0x43C PUSH2 0x1B83 JUMP JUMPDEST PUSH2 0x43C PUSH1 0x4 DUP1 CALLDATASIZE SUB PUSH1 0x60 DUP2 LT ISZERO PUSH2 0xA6E JUMPI PUSH1 0x0 DUP1 REVERT JUMPDEST POP PUSH1 0x1 PUSH1 0x1 PUSH1 0xA0 SHL SUB DUP2 CALLDATALOAD DUP2 AND SWAP2 PUSH1 0x20 DUP2 ADD CALLDATALOAD SWAP1 SWAP2 AND SWAP1 PUSH1 0x40 ADD CALLDATALOAD PUSH2 0x1C22 JUMP JUMPDEST PUSH2 0x43C PUSH1 0x4 DUP1 CALLDATASIZE SUB PUSH1 0x20 DUP2 LT ISZERO PUSH2 0xAA4 JUMPI PUSH1 0x0 DUP1 REVERT JUMPDEST POP CALLDATALOAD PUSH1 0x1 PUSH1 0x1 PUSH1 0xA0 SHL SUB AND PUSH2 0x1C93 JUMP JUMPDEST PUSH2 0x43C PUSH2 0x1D1F JUMP JUMPDEST PUSH2 0xAE2 PUSH1 0x4 DUP1 CALLDATASIZE SUB PUSH1 0x20 DUP2 LT ISZERO PUSH2 0xAD2 JUMPI PUSH1 0x0 DUP1 REVERT JUMPDEST POP CALLDATALOAD PUSH1 0x1 PUSH1 0x1 PUSH1 0xA0 SHL SUB AND PUSH2 0x1DDB JUMP JUMPDEST PUSH1 0x40 DUP1 MLOAD SWAP5 DUP6 MSTORE PUSH1 0x20 DUP6 ADD SWAP4 SWAP1 SWAP4 MSTORE DUP4 DUP4 ADD SWAP2 SWAP1 SWAP2 MSTORE PUSH1 0x60 DUP4 ADD MSTORE MLOAD SWAP1 DUP2 SWAP1 SUB PUSH1 0x80 ADD SWAP1 RETURN JUMPDEST PUSH2 0x43C PUSH1 0x4 DUP1 CALLDATASIZE SUB PUSH1 0x20 DUP2 LT ISZERO PUSH2 0xB1E JUMPI PUSH1 0x0 DUP1 REVERT JUMPDEST POP CALLDATALOAD PUSH2 0x1E70 JUMP JUMPDEST PUSH2 0x43C PUSH1 0x4 DUP1 CALLDATASIZE SUB PUSH1 0x20 DUP2 LT ISZERO PUSH2 0xB3B JUMPI PUSH1 0x0 DUP1 REVERT JUMPDEST POP CALLDATALOAD PUSH2 0x1E7B JUMP JUMPDEST PUSH2 0x43C PUSH1 0x4 DUP1 CALLDATASIZE SUB PUSH1 0x40 DUP2 LT ISZERO PUSH2 0xB58 JUMPI PUSH1 0x0 DUP1 REVERT JUMPDEST POP PUSH1 0x1 PUSH1 0x1 PUSH1 0xA0 SHL SUB DUP2 CALLDATALOAD DUP2 AND SWAP2 PUSH1 0x20 ADD CALLDATALOAD AND PUSH2 0x1E86 JUMP JUMPDEST PUSH2 0x43C PUSH2 0x1EB1 JUMP JUMPDEST PUSH2 0x43C PUSH1 0x4 DUP1 CALLDATASIZE SUB PUSH1 0x20 DUP2 LT ISZERO PUSH2 0xB8E JUMPI PUSH1 0x0 DUP1 REVERT JUMPDEST POP CALLDATALOAD PUSH1 0x1 PUSH1 0x1 PUSH1 0xA0 SHL SUB AND PUSH2 0x1FB4 JUMP JUMPDEST PUSH2 0x67C PUSH2 0x1FEE JUMP JUMPDEST PUSH2 0x43C PUSH1 0x4 DUP1 CALLDATASIZE SUB PUSH1 0x60 DUP2 LT ISZERO PUSH2 0xBBC JUMPI PUSH1 0x0 DUP1 REVERT JUMPDEST POP PUSH1 0x1 PUSH1 0x1 PUSH1 0xA0 SHL SUB DUP2 CALLDATALOAD DUP2 AND SWAP2 PUSH1 0x20 DUP2 ADD CALLDATALOAD SWAP2 PUSH1 0x40 SWAP1 SWAP2 ADD CALLDATALOAD AND PUSH2 0x1FFD JUMP JUMPDEST PUSH2 0x67C PUSH2 0x2015 JUMP JUMPDEST PUSH2 0x43C PUSH2 0x2029 JUMP JUMPDEST PUSH2 0x43C PUSH1 0x4 DUP1 CALLDATASIZE SUB PUSH1 0x20 DUP2 LT ISZERO PUSH2 0xC02 JUMPI PUSH1 0x0 DUP1 REVERT JUMPDEST POP CALLDATALOAD PUSH2 0x208D JUMP JUMPDEST PUSH2 0x40B PUSH2 0x210B JUMP JUMPDEST PUSH1 0x1 DUP1 SLOAD PUSH1 0x40 DUP1 MLOAD PUSH1 0x20 PUSH1 0x2 DUP5 DUP7 AND ISZERO PUSH2 0x100 MUL PUSH1 0x0 NOT ADD SWAP1 SWAP5 AND SWAP4 SWAP1 SWAP4 DIV PUSH1 0x1F DUP2 ADD DUP5 SWAP1 DIV DUP5 MUL DUP3 ADD DUP5 ADD SWAP1 SWAP3 MSTORE DUP2 DUP2 MSTORE SWAP3 SWAP2 DUP4 ADD DUP3 DUP3 DUP1 ISZERO PUSH2 0xC96 JUMPI DUP1 PUSH1 0x1F LT PUSH2 0xC6B JUMPI PUSH2 0x100 DUP1 DUP4 SLOAD DIV MUL DUP4 MSTORE SWAP2 PUSH1 0x20 ADD SWAP2 PUSH2 0xC96 JUMP JUMPDEST DUP3 ADD SWAP2 SWAP1 PUSH1 0x0 MSTORE PUSH1 0x20 PUSH1 0x0 KECCAK256 SWAP1 JUMPDEST DUP2 SLOAD DUP2 MSTORE SWAP1 PUSH1 0x1 ADD SWAP1 PUSH1 0x20 ADD DUP1 DUP4 GT PUSH2 0xC79 JUMPI DUP3 SWAP1 SUB PUSH1 0x1F AND DUP3 ADD SWAP2 JUMPDEST POP POP POP POP POP DUP2 JUMP JUMPDEST CALLER PUSH1 0x0 DUP2 DUP2 MSTORE PUSH1 0xF PUSH1 0x20 SWAP1 DUP2 MSTORE PUSH1 0x40 DUP1 DUP4 KECCAK256 PUSH1 0x1 PUSH1 0x1 PUSH1 0xA0 SHL SUB DUP8 AND DUP1 DUP6 MSTORE SWAP1 DUP4 MSTORE DUP2 DUP5 KECCAK256 DUP7 SWAP1 SSTORE DUP2 MLOAD DUP7 DUP2 MSTORE SWAP2 MLOAD SWAP4 SWAP5 SWAP4 SWAP1 SWAP3 DUP5 SWAP3 PUSH32 0x8C5BE1E5EBEC7D5BD14F71427D1E84F3DD0314C0F7B2291E5B200AC8C7C3B925 SWAP3 SWAP1 DUP2 SWAP1 SUB SWAP1 SWAP2 ADD SWAP1 LOG3 PUSH1 0x1 SWAP2 POP POP JUMPDEST SWAP3 SWAP2 POP POP JUMP JUMPDEST PUSH1 0x0 DUP1 PUSH2 0xD17 DUP4 PUSH2 0x2110 JUMP JUMPDEST POP SWAP2 POP POP JUMPDEST SWAP2 SWAP1 POP JUMP JUMPDEST PUSH1 0x3 SLOAD PUSH2 0x100 SWAP1 DIV PUSH1 0x1 PUSH1 0x1 PUSH1 0xA0 SHL SUB AND CALLER EQ PUSH2 0xD6F JUMPI PUSH1 0x40 MLOAD PUSH3 0x461BCD PUSH1 0xE5 SHL DUP2 MSTORE PUSH1 0x4 ADD DUP1 DUP1 PUSH1 0x20 ADD DUP3 DUP2 SUB DUP3 MSTORE PUSH1 0x2D DUP2 MSTORE PUSH1 0x20 ADD DUP1 PUSH2 0x5815 PUSH1 0x2D SWAP2 CODECOPY PUSH1 0x40 ADD SWAP2 POP POP PUSH1 0x40 MLOAD DUP1 SWAP2 SUB SWAP1 REVERT JUMPDEST PUSH1 0x13 SLOAD PUSH1 0x14 SLOAD PUSH1 0x15 SLOAD PUSH1 0x40 DUP1 MLOAD PUSH4 0x4FB3C665 PUSH1 0xE1 SHL DUP2 MSTORE SWAP1 MLOAD PUSH1 0x1 PUSH1 0x1 PUSH1 0xA0 SHL SUB SWAP5 DUP6 AND SWAP5 SWAP4 DUP5 AND SWAP4 SWAP1 SWAP3 AND SWAP2 DUP4 SWAP2 PUSH4 0x9F678CCA SWAP2 PUSH1 0x4 DUP1 DUP4 ADD SWAP3 PUSH1 0x20 SWAP3 SWAP2 SWAP1 DUP3 SWAP1 SUB ADD DUP2 PUSH1 0x0 DUP8 DUP1 EXTCODESIZE ISZERO DUP1 ISZERO PUSH2 0xDC5 JUMPI PUSH1 0x0 DUP1 REVERT JUMPDEST POP GAS CALL ISZERO DUP1 ISZERO PUSH2 0xDD9 JUMPI RETURNDATASIZE PUSH1 0x0 DUP1 RETURNDATACOPY RETURNDATASIZE PUSH1 0x0 REVERT JUMPDEST POP POP POP POP PUSH1 0x40 MLOAD RETURNDATASIZE PUSH1 0x20 DUP2 LT ISZERO PUSH2 0xDEF JUMPI PUSH1 0x0 DUP1 REVERT JUMPDEST POP POP PUSH1 0x40 DUP1 MLOAD PUSH4 0x5F5D643 PUSH1 0xE1 SHL DUP2 MSTORE ADDRESS PUSH1 0x4 DUP3 ADD MSTORE SWAP1 MLOAD PUSH1 0x0 SWAP2 PUSH1 0x1 PUSH1 0x1 PUSH1 0xA0 SHL SUB DUP6 AND SWAP2 PUSH4 0xBEBAC86 SWAP2 PUSH1 0x24 DUP1 DUP3 ADD SWAP3 PUSH1 0x20 SWAP3 SWAP1 SWAP2 SWAP1 DUP3 SWAP1 SUB ADD DUP2 DUP7 DUP1 EXTCODESIZE ISZERO DUP1 ISZERO PUSH2 0xE3B JUMPI PUSH1 0x0 DUP1 REVERT JUMPDEST POP GAS STATICCALL ISZERO DUP1 ISZERO PUSH2 0xE4F JUMPI RETURNDATASIZE PUSH1 0x0 DUP1 RETURNDATACOPY RETURNDATASIZE PUSH1 0x0 REVERT JUMPDEST POP POP POP POP PUSH1 0x40 MLOAD RETURNDATASIZE PUSH1 0x20 DUP2 LT ISZERO PUSH2 0xE65 JUMPI PUSH1 0x0 DUP1 REVERT JUMPDEST POP MLOAD PUSH1 0x40 DUP1 MLOAD PUSH4 0x7F8661A1 PUSH1 0xE0 SHL DUP2 MSTORE PUSH1 0x4 DUP2 ADD DUP4 SWAP1 MSTORE SWAP1 MLOAD SWAP2 SWAP3 POP PUSH1 0x1 PUSH1 0x1 PUSH1 0xA0 SHL SUB DUP6 AND SWAP2 PUSH4 0x7F8661A1 SWAP2 PUSH1 0x24 DUP1 DUP3 ADD SWAP3 PUSH1 0x0 SWAP3 SWAP1 SWAP2 SWAP1 DUP3 SWAP1 SUB ADD DUP2 DUP4 DUP8 DUP1 EXTCODESIZE ISZERO DUP1 ISZERO PUSH2 0xEB3 JUMPI PUSH1 0x0 DUP1 REVERT JUMPDEST POP GAS CALL ISZERO DUP1 ISZERO PUSH2 0xEC7 JUMPI RETURNDATASIZE PUSH1 0x0 DUP1 RETURNDATACOPY RETURNDATASIZE PUSH1 0x0 REVERT JUMPDEST POP POP PUSH1 0x40 DUP1 MLOAD PUSH4 0x3612D9A3 PUSH1 0xE1 SHL DUP2 MSTORE ADDRESS PUSH1 0x4 DUP3 ADD MSTORE SWAP1 MLOAD PUSH1 0x0 SWAP4 POP PUSH1 0x1 PUSH1 0x1 PUSH1 0xA0 SHL SUB DUP7 AND SWAP3 POP PUSH4 0x6C25B346 SWAP2 PUSH1 0x24 DUP1 DUP3 ADD SWAP3 PUSH1 0x20 SWAP3 SWAP1 SWAP2 SWAP1 DUP3 SWAP1 SUB ADD DUP2 DUP7 DUP1 EXTCODESIZE ISZERO DUP1 ISZERO PUSH2 0xF15 JUMPI PUSH1 0x0 DUP1 REVERT JUMPDEST POP GAS STATICCALL ISZERO DUP1 ISZERO PUSH2 0xF29 JUMPI RETURNDATASIZE PUSH1 0x0 DUP1 RETURNDATACOPY RETURNDATASIZE PUSH1 0x0 REVERT JUMPDEST POP POP POP POP PUSH1 0x40 MLOAD RETURNDATASIZE PUSH1 0x20 DUP2 LT ISZERO PUSH2 0xF3F JUMPI PUSH1 0x0 DUP1 REVERT JUMPDEST POP MLOAD PUSH1 0x40 DUP1 MLOAD PUSH4 0xEF693BED PUSH1 0xE0 SHL DUP2 MSTORE ADDRESS PUSH1 0x4 DUP3 ADD MSTORE PUSH12 0x33B2E3C9FD0803CE8000000 DUP4 DIV PUSH1 0x24 DUP3 ADD MSTORE SWAP1 MLOAD SWAP2 SWAP3 POP PUSH1 0x1 PUSH1 0x1 PUSH1 0xA0 SHL SUB DUP8 AND SWAP2 PUSH4 0xEF693BED SWAP2 PUSH1 0x44 DUP1 DUP3 ADD SWAP3 PUSH1 0x0 SWAP3 SWAP1 SWAP2 SWAP1 DUP3 SWAP1 SUB ADD DUP2 DUP4 DUP8 DUP1 EXTCODESIZE ISZERO DUP1 ISZERO PUSH2 0xFA0 JUMPI PUSH1 0x0 DUP1 REVERT JUMPDEST POP GAS CALL ISZERO DUP1 ISZERO PUSH2 0xFB4 JUMPI RETURNDATASIZE PUSH1 0x0 DUP1 RETURNDATACOPY RETURNDATASIZE PUSH1 0x0 REVERT JUMPDEST POP POP POP POP POP POP POP POP POP JUMP JUMPDEST PUSH1 0x8 SLOAD DUP2 JUMP JUMPDEST PUSH1 0x0 DUP1 SLOAD PUSH1 0xFF AND PUSH2 0x100A JUMPI PUSH1 0x40 DUP1 MLOAD PUSH3 0x461BCD PUSH1 0xE5 SHL DUP2 MSTORE PUSH1 0x20 PUSH1 0x4 DUP3 ADD MSTORE PUSH1 0xA PUSH1 0x24 DUP3 ADD MSTORE PUSH10 0x1C994B595B9D195C9959 PUSH1 0xB2 SHL PUSH1 0x44 DUP3 ADD MSTORE SWAP1 MLOAD SWAP1 DUP2 SWAP1 SUB PUSH1 0x64 ADD SWAP1 REVERT JUMPDEST PUSH1 0x0 DUP1 SLOAD PUSH1 0xFF NOT AND DUP2 SSTORE PUSH2 0x101C PUSH2 0x1A91 JUMP JUMPDEST EQ PUSH2 0x1067 JUMPI PUSH1 0x40 DUP1 MLOAD PUSH3 0x461BCD PUSH1 0xE5 SHL DUP2 MSTORE PUSH1 0x20 PUSH1 0x4 DUP3 ADD MSTORE PUSH1 0x16 PUSH1 0x24 DUP3 ADD MSTORE PUSH22 0x1858D8DC9D59481A5B9D195C995CDD0819985A5B1959 PUSH1 0x52 SHL PUSH1 0x44 DUP3 ADD MSTORE SWAP1 MLOAD SWAP1 DUP2 SWAP1 SUB PUSH1 0x64 ADD SWAP1 REVERT JUMPDEST PUSH2 0x1070 DUP3 PUSH2 0x1841 JUMP JUMPDEST SWAP1 POP JUMPDEST PUSH1 0x0 DUP1 SLOAD PUSH1 0xFF NOT AND PUSH1 0x1 OR SWAP1 SSTORE SWAP2 SWAP1 POP JUMP JUMPDEST PUSH1 0xD SLOAD DUP2 JUMP JUMPDEST PUSH1 0x0 DUP1 PUSH1 0x0 PUSH2 0x1098 PUSH2 0x21B9 JUMP JUMPDEST SWAP1 SWAP3 POP SWAP1 POP PUSH1 0x0 DUP3 PUSH1 0x3 DUP2 GT ISZERO PUSH2 0x10AB JUMPI INVALID JUMPDEST EQ PUSH2 0x10E7 JUMPI PUSH1 0x40 MLOAD PUSH3 0x461BCD PUSH1 0xE5 SHL DUP2 MSTORE PUSH1 0x4 ADD DUP1 DUP1 PUSH1 0x20 ADD DUP3 DUP2 SUB DUP3 MSTORE PUSH1 0x35 DUP2 MSTORE PUSH1 0x20 ADD DUP1 PUSH2 0x59A8 PUSH1 0x35 SWAP2 CODECOPY PUSH1 0x40 ADD SWAP2 POP POP PUSH1 0x40 MLOAD DUP1 SWAP2 SUB SWAP1 REVERT JUMPDEST SWAP2 POP POP JUMPDEST SWAP1 JUMP JUMPDEST PUSH2 0x10FC DUP7 DUP7 DUP7 DUP7 DUP7 DUP7 PUSH2 0x189E JUMP JUMPDEST PUSH1 0x11 DUP1 SLOAD PUSH1 0x1 PUSH1 0x1 PUSH1 0xA0 SHL SUB NOT AND PUSH1 0x1 PUSH1 0x1 PUSH1 0xA0 SHL SUB DUP10 DUP2 AND SWAP2 SWAP1 SWAP2 OR SWAP2 DUP3 SWAP1 SSTORE PUSH1 0x40 DUP1 MLOAD PUSH4 0x18160DDD PUSH1 0xE0 SHL DUP2 MSTORE SWAP1 MLOAD SWAP3 SWAP1 SWAP2 AND SWAP2 PUSH4 0x18160DDD SWAP2 PUSH1 0x4 DUP1 DUP3 ADD SWAP3 PUSH1 0x20 SWAP3 SWAP1 SWAP2 SWAP1 DUP3 SWAP1 SUB ADD DUP2 DUP7 DUP1 EXTCODESIZE ISZERO DUP1 ISZERO PUSH2 0x1158 JUMPI PUSH1 0x0 DUP1 REVERT JUMPDEST POP GAS STATICCALL ISZERO DUP1 ISZERO PUSH2 0x116C JUMPI RETURNDATASIZE PUSH1 0x0 DUP1 RETURNDATACOPY RETURNDATASIZE PUSH1 0x0 REVERT JUMPDEST POP POP POP POP PUSH1 0x40 MLOAD RETURNDATASIZE PUSH1 0x20 DUP2 LT ISZERO PUSH2 0xFB4 JUMPI PUSH1 0x0 DUP1 REVERT JUMPDEST PUSH1 0x11 SLOAD PUSH1 0x1 PUSH1 0x1 PUSH1 0xA0 SHL SUB DUP3 DUP2 AND SWAP2 AND EQ ISZERO PUSH2 0x11CF JUMPI PUSH1 0x40 MLOAD PUSH3 0x461BCD PUSH1 0xE5 SHL DUP2 MSTORE PUSH1 0x4 ADD DUP1 DUP1 PUSH1 0x20 ADD DUP3 DUP2 SUB DUP3 MSTORE PUSH1 0x32 DUP2 MSTORE PUSH1 0x20 ADD DUP1 PUSH2 0x5761 PUSH1 0x32 SWAP2 CODECOPY PUSH1 0x40 ADD SWAP2 POP POP PUSH1 0x40 MLOAD DUP1 SWAP2 SUB SWAP1 REVERT JUMPDEST PUSH1 0x40 DUP1 MLOAD PUSH4 0x70A08231 PUSH1 0xE0 SHL DUP2 MSTORE ADDRESS PUSH1 0x4 DUP3 ADD MSTORE SWAP1 MLOAD PUSH1 0x0 SWAP2 PUSH1 0x1 PUSH1 0x1 PUSH1 0xA0 SHL SUB DUP5 AND SWAP2 PUSH4 0x70A08231 SWAP2 PUSH1 0x24 DUP1 DUP3 ADD SWAP3 PUSH1 0x20 SWAP3 SWAP1 SWAP2 SWAP1 DUP3 SWAP1 SUB ADD DUP2 DUP7 DUP1 EXTCODESIZE ISZERO DUP1 ISZERO PUSH2 0x1219 JUMPI PUSH1 0x0 DUP1 REVERT JUMPDEST POP GAS STATICCALL ISZERO DUP1 ISZERO PUSH2 0x122D JUMPI RETURNDATASIZE PUSH1 0x0 DUP1 RETURNDATACOPY RETURNDATASIZE PUSH1 0x0 REVERT JUMPDEST POP POP POP POP PUSH1 0x40 MLOAD RETURNDATASIZE PUSH1 0x20 DUP2 LT ISZERO PUSH2 0x1243 JUMPI PUSH1 0x0 DUP1 REVERT JUMPDEST POP MLOAD PUSH1 0x3 SLOAD PUSH1 0x40 DUP1 MLOAD PUSH4 0xA9059CBB PUSH1 0xE0 SHL DUP2 MSTORE PUSH2 0x100 SWAP1 SWAP3 DIV PUSH1 0x1 PUSH1 0x1 PUSH1 0xA0 SHL SUB SWAP1 DUP2 AND PUSH1 0x4 DUP5 ADD MSTORE PUSH1 0x24 DUP4 ADD DUP5 SWAP1 MSTORE SWAP1 MLOAD SWAP3 SWAP4 POP DUP5 AND SWAP2 PUSH4 0xA9059CBB SWAP2 PUSH1 0x44 DUP1 DUP3 ADD SWAP3 PUSH1 0x0 SWAP3 SWAP1 SWAP2 SWAP1 DUP3 SWAP1 SUB ADD DUP2 DUP4 DUP8 DUP1 EXTCODESIZE ISZERO DUP1 ISZERO PUSH2 0x12A2 JUMPI PUSH1 0x0 DUP1 REVERT JUMPDEST POP GAS CALL ISZERO DUP1 ISZERO PUSH2 0x12B6 JUMPI RETURNDATASIZE PUSH1 0x0 DUP1 RETURNDATACOPY RETURNDATASIZE PUSH1 0x0 REVERT JUMPDEST POP POP POP POP POP POP JUMP JUMPDEST PUSH1 0x0 DUP1 SLOAD PUSH1 0xFF AND PUSH2 0x1303 JUMPI PUSH1 0x40 DUP1 MLOAD PUSH3 0x461BCD PUSH1 0xE5 SHL DUP2 MSTORE PUSH1 0x20 PUSH1 0x4 DUP3 ADD MSTORE PUSH1 0xA PUSH1 0x24 DUP3 ADD MSTORE PUSH10 0x1C994B595B9D195C9959 PUSH1 0xB2 SHL PUSH1 0x44 DUP3 ADD MSTORE SWAP1 MLOAD SWAP1 DUP2 SWAP1 SUB PUSH1 0x64 ADD SWAP1 REVERT JUMPDEST PUSH1 0x0 DUP1 SLOAD PUSH1 0xFF NOT AND DUP2 SSTORE PUSH2 0x1319 CALLER DUP7 DUP7 DUP7 PUSH2 0x2268 JUMP JUMPDEST EQ SWAP1 POP PUSH1 0x0 DUP1 SLOAD PUSH1 0xFF NOT AND PUSH1 0x1 OR SWAP1 SSTORE SWAP4 SWAP3 POP POP POP JUMP JUMPDEST PUSH1 0x0 DUP1 PUSH2 0x133D DUP5 DUP5 PUSH2 0x24F4 JUMP JUMPDEST POP SWAP5 SWAP4 POP POP POP POP JUMP JUMPDEST PUSH1 0x4 SLOAD PUSH1 0x1 PUSH1 0x1 PUSH1 0xA0 SHL SUB AND DUP2 JUMP JUMPDEST PUSH1 0x3 SLOAD PUSH1 0xFF AND DUP2 JUMP JUMPDEST PUSH1 0x0 PUSH2 0x1368 PUSH2 0x55C1 JUMP JUMPDEST PUSH1 0x40 MLOAD DUP1 PUSH1 0x20 ADD PUSH1 0x40 MSTORE DUP1 PUSH2 0x137B PUSH2 0x1D1F JUMP JUMPDEST SWAP1 MSTORE PUSH1 0x1 PUSH1 0x1 PUSH1 0xA0 SHL SUB DUP5 AND PUSH1 0x0 SWAP1 DUP2 MSTORE PUSH1 0xE PUSH1 0x20 MSTORE PUSH1 0x40 DUP2 KECCAK256 SLOAD SWAP2 SWAP3 POP SWAP1 DUP2 SWAP1 PUSH2 0x13A7 SWAP1 DUP5 SWAP1 PUSH2 0x259F JUMP JUMPDEST SWAP1 SWAP3 POP SWAP1 POP PUSH1 0x0 DUP3 PUSH1 0x3 DUP2 GT ISZERO PUSH2 0x13BA JUMPI INVALID JUMPDEST EQ PUSH2 0x140C JUMPI PUSH1 0x40 DUP1 MLOAD PUSH3 0x461BCD PUSH1 0xE5 SHL DUP2 MSTORE PUSH1 0x20 PUSH1 0x4 DUP3 ADD MSTORE PUSH1 0x1F PUSH1 0x24 DUP3 ADD MSTORE PUSH32 0x62616C616E636520636F756C64206E6F742062652063616C63756C6174656400 PUSH1 0x44 DUP3 ADD MSTORE SWAP1 MLOAD SWAP1 DUP2 SWAP1 SUB PUSH1 0x64 ADD SWAP1 REVERT JUMPDEST SWAP5 SWAP4 POP POP POP POP JUMP JUMPDEST PUSH1 0x0 PUSH2 0x141E PUSH2 0x25F3 JUMP JUMPDEST SWAP1 POP SWAP1 JUMP JUMPDEST PUSH1 0x0 PUSH2 0xD05 DUP3 PUSH2 0x2705 JUMP JUMPDEST PUSH1 0x3 SLOAD PUSH1 0x0 SWAP1 PUSH2 0x100 SWAP1 DIV PUSH1 0x1 PUSH1 0x1 PUSH1 0xA0 SHL SUB AND CALLER EQ PUSH2 0x145B JUMPI PUSH2 0x1454 PUSH1 0x1 PUSH1 0x3F PUSH2 0x2799 JUMP JUMPDEST SWAP1 POP PUSH2 0xD1C JUMP JUMPDEST PUSH1 0x5 SLOAD PUSH1 0x40 DUP1 MLOAD PUSH3 0x3F1EE9 PUSH1 0xE1 SHL DUP2 MSTORE SWAP1 MLOAD PUSH1 0x1 PUSH1 0x1 PUSH1 0xA0 SHL SUB SWAP3 DUP4 AND SWAP3 DUP6 AND SWAP2 PUSH3 0x7E3DD2 SWAP2 PUSH1 0x4 DUP1 DUP4 ADD SWAP3 PUSH1 0x20 SWAP3 SWAP2 SWAP1 DUP3 SWAP1 SUB ADD DUP2 DUP7 DUP1 EXTCODESIZE ISZERO DUP1 ISZERO PUSH2 0x14A0 JUMPI PUSH1 0x0 DUP1 REVERT JUMPDEST POP GAS STATICCALL ISZERO DUP1 ISZERO PUSH2 0x14B4 JUMPI RETURNDATASIZE PUSH1 0x0 DUP1 RETURNDATACOPY RETURNDATASIZE PUSH1 0x0 REVERT JUMPDEST POP POP POP POP PUSH1 0x40 MLOAD RETURNDATASIZE PUSH1 0x20 DUP2 LT ISZERO PUSH2 0x14CA JUMPI PUSH1 0x0 DUP1 REVERT JUMPDEST POP MLOAD PUSH2 0x151D JUMPI PUSH1 0x40 DUP1 MLOAD PUSH3 0x461BCD PUSH1 0xE5 SHL DUP2 MSTORE PUSH1 0x20 PUSH1 0x4 DUP3 ADD MSTORE PUSH1 0x1C PUSH1 0x24 DUP3 ADD MSTORE PUSH32 0x6D61726B6572206D6574686F642072657475726E65642066616C736500000000 PUSH1 0x44 DUP3 ADD MSTORE SWAP1 MLOAD SWAP1 DUP2 SWAP1 SUB PUSH1 0x64 ADD SWAP1 REVERT JUMPDEST PUSH1 0x5 DUP1 SLOAD PUSH1 0x1 PUSH1 0x1 PUSH1 0xA0 SHL SUB NOT AND PUSH1 0x1 PUSH1 0x1 PUSH1 0xA0 SHL SUB DUP6 DUP2 AND SWAP2 DUP3 OR SWAP1 SWAP3 SSTORE PUSH1 0x40 DUP1 MLOAD SWAP3 DUP5 AND DUP4 MSTORE PUSH1 0x20 DUP4 ADD SWAP2 SWAP1 SWAP2 MSTORE DUP1 MLOAD PUSH32 0x7AC369DBD14FA5EA3F473ED67CC9D598964A77501540BA6751EB0B3DECF5870D SWAP3 DUP2 SWAP1 SUB SWAP1 SWAP2 ADD SWAP1 LOG1 PUSH1 0x0 JUMPDEST SWAP4 SWAP3 POP POP POP JUMP JUMPDEST PUSH1 0xB SLOAD DUP2 JUMP JUMPDEST PUSH1 0x3 SLOAD PUSH2 0x100 SWAP1 DIV PUSH1 0x1 PUSH1 0x1 PUSH1 0xA0 SHL SUB AND CALLER EQ PUSH2 0x15D7 JUMPI PUSH1 0x40 MLOAD PUSH3 0x461BCD PUSH1 0xE5 SHL DUP2 MSTORE PUSH1 0x4 ADD DUP1 DUP1 PUSH1 0x20 ADD DUP3 DUP2 SUB DUP3 MSTORE PUSH1 0x30 DUP2 MSTORE PUSH1 0x20 ADD DUP1 PUSH2 0x5793 PUSH1 0x30 SWAP2 CODECOPY PUSH1 0x40 ADD SWAP2 POP POP PUSH1 0x40 MLOAD DUP1 SWAP2 SUB SWAP1 REVERT JUMPDEST PUSH1 0x0 DUP1 DUP3 DUP1 PUSH1 0x20 ADD SWAP1 MLOAD PUSH1 0x40 DUP2 LT ISZERO PUSH2 0x15EF JUMPI PUSH1 0x0 DUP1 REVERT JUMPDEST POP DUP1 MLOAD PUSH1 0x20 SWAP1 SWAP2 ADD MLOAD SWAP1 SWAP3 POP SWAP1 POP PUSH2 0x1607 DUP3 DUP3 PUSH2 0x27FF JUMP JUMPDEST POP POP POP JUMP JUMPDEST PUSH1 0x12 SLOAD PUSH1 0x1 PUSH1 0x1 PUSH1 0xA0 SHL SUB AND DUP2 JUMP JUMPDEST PUSH1 0x5 SLOAD PUSH1 0x1 PUSH1 0x1 PUSH1 0xA0 SHL SUB AND DUP2 JUMP JUMPDEST PUSH1 0x0 DUP1 SLOAD PUSH1 0xFF AND PUSH2 0x166F JUMPI PUSH1 0x40 DUP1 MLOAD PUSH3 0x461BCD PUSH1 0xE5 SHL DUP2 MSTORE PUSH1 0x20 PUSH1 0x4 DUP3 ADD MSTORE PUSH1 0xA PUSH1 0x24 DUP3 ADD MSTORE PUSH10 0x1C994B595B9D195C9959 PUSH1 0xB2 SHL PUSH1 0x44 DUP3 ADD MSTORE SWAP1 MLOAD SWAP1 DUP2 SWAP1 SUB PUSH1 0x64 ADD SWAP1 REVERT JUMPDEST PUSH1 0x0 DUP1 SLOAD PUSH1 0xFF NOT AND DUP2 SSTORE PUSH2 0x1681 PUSH2 0x1A91 JUMP JUMPDEST SWAP1 POP DUP1 ISZERO PUSH2 0x16A7 JUMPI PUSH2 0x169F DUP2 PUSH1 0x10 DUP2 GT ISZERO PUSH2 0x1698 JUMPI INVALID JUMPDEST PUSH1 0x30 PUSH2 0x2799 JUMP JUMPDEST SWAP2 POP POP PUSH2 0x1073 JUMP JUMPDEST PUSH2 0x16B0 DUP4 PUSH2 0x2B1A JUMP JUMPDEST SWAP2 POP POP PUSH1 0x0 DUP1 SLOAD PUSH1 0xFF NOT AND PUSH1 0x1 OR SWAP1 SSTORE SWAP2 SWAP1 POP JUMP JUMPDEST PUSH1 0x14 SLOAD PUSH1 0x1 PUSH1 0x1 PUSH1 0xA0 SHL SUB AND DUP2 JUMP JUMPDEST PUSH1 0x9 SLOAD DUP2 JUMP JUMPDEST PUSH1 0x11 SLOAD PUSH1 0x1 PUSH1 0x1 PUSH1 0xA0 SHL SUB AND DUP2 JUMP JUMPDEST PUSH1 0x1 PUSH1 0x1 PUSH1 0xA0 SHL SUB AND PUSH1 0x0 SWAP1 DUP2 MSTORE PUSH1 0xE PUSH1 0x20 MSTORE PUSH1 0x40 SWAP1 KECCAK256 SLOAD SWAP1 JUMP JUMPDEST PUSH1 0x0 DUP1 SLOAD PUSH1 0xFF AND PUSH2 0x1749 JUMPI PUSH1 0x40 DUP1 MLOAD PUSH3 0x461BCD PUSH1 0xE5 SHL DUP2 MSTORE PUSH1 0x20 PUSH1 0x4 DUP3 ADD MSTORE PUSH1 0xA PUSH1 0x24 DUP3 ADD MSTORE PUSH10 0x1C994B595B9D195C9959 PUSH1 0xB2 SHL PUSH1 0x44 DUP3 ADD MSTORE SWAP1 MLOAD SWAP1 DUP2 SWAP1 SUB PUSH1 0x64 ADD SWAP1 REVERT JUMPDEST PUSH1 0x0 DUP1 SLOAD PUSH1 0xFF NOT AND DUP2 SSTORE PUSH2 0x175B PUSH2 0x1A91 JUMP JUMPDEST EQ PUSH2 0x17A6 JUMPI PUSH1 0x40 DUP1 MLOAD PUSH3 0x461BCD PUSH1 0xE5 SHL DUP2 MSTORE PUSH1 0x20 PUSH1 0x4 DUP3 ADD MSTORE PUSH1 0x16 PUSH1 0x24 DUP3 ADD MSTORE PUSH22 0x1858D8DC9D59481A5B9D195C995CDD0819985A5B1959 PUSH1 0x52 SHL PUSH1 0x44 DUP3 ADD MSTORE SWAP1 MLOAD SWAP1 DUP2 SWAP1 SUB PUSH1 0x64 ADD SWAP1 REVERT JUMPDEST POP PUSH1 0xB SLOAD PUSH1 0x0 DUP1 SLOAD PUSH1 0xFF NOT AND PUSH1 0x1 OR SWAP1 SSTORE SWAP1 JUMP JUMPDEST PUSH1 0x0 PUSH2 0xD05 DUP3 PUSH2 0x2C4D JUMP JUMPDEST PUSH1 0x13 SLOAD PUSH1 0x1 PUSH1 0x1 PUSH1 0xA0 SHL SUB AND DUP2 JUMP JUMPDEST PUSH1 0x15 SLOAD PUSH1 0x1 PUSH1 0x1 PUSH1 0xA0 SHL SUB AND DUP2 JUMP JUMPDEST PUSH1 0xC SLOAD DUP2 JUMP JUMPDEST PUSH1 0x2 DUP1 SLOAD PUSH1 0x40 DUP1 MLOAD PUSH1 0x20 PUSH1 0x1 DUP5 AND ISZERO PUSH2 0x100 MUL PUSH1 0x0 NOT ADD SWAP1 SWAP4 AND DUP5 SWAP1 DIV PUSH1 0x1F DUP2 ADD DUP5 SWAP1 DIV DUP5 MUL DUP3 ADD DUP5 ADD SWAP1 SWAP3 MSTORE DUP2 DUP2 MSTORE SWAP3 SWAP2 DUP4 ADD DUP3 DUP3 DUP1 ISZERO PUSH2 0xC96 JUMPI DUP1 PUSH1 0x1F LT PUSH2 0xC6B JUMPI PUSH2 0x100 DUP1 DUP4 SLOAD DIV MUL DUP4 MSTORE SWAP2 PUSH1 0x20 ADD SWAP2 PUSH2 0xC96 JUMP JUMPDEST PUSH1 0x0 DUP1 PUSH1 0x0 PUSH2 0x184F DUP5 PUSH2 0x2CCE JUMP JUMPDEST SWAP1 SWAP3 POP SWAP1 POP PUSH1 0x0 DUP3 PUSH1 0x3 DUP2 GT ISZERO PUSH2 0x1862 JUMPI INVALID JUMPDEST EQ PUSH2 0x157C JUMPI PUSH1 0x40 MLOAD PUSH3 0x461BCD PUSH1 0xE5 SHL DUP2 MSTORE PUSH1 0x4 ADD DUP1 DUP1 PUSH1 0x20 ADD DUP3 DUP2 SUB DUP3 MSTORE PUSH1 0x37 DUP2 MSTORE PUSH1 0x20 ADD DUP1 PUSH2 0x586D PUSH1 0x37 SWAP2 CODECOPY PUSH1 0x40 ADD SWAP2 POP POP PUSH1 0x40 MLOAD DUP1 SWAP2 SUB SWAP1 REVERT JUMPDEST PUSH1 0x3 SLOAD PUSH2 0x100 SWAP1 DIV PUSH1 0x1 PUSH1 0x1 PUSH1 0xA0 SHL SUB AND CALLER EQ PUSH2 0x18EC JUMPI PUSH1 0x40 MLOAD PUSH3 0x461BCD PUSH1 0xE5 SHL DUP2 MSTORE PUSH1 0x4 ADD DUP1 DUP1 PUSH1 0x20 ADD DUP3 DUP2 SUB DUP3 MSTORE PUSH1 0x24 DUP2 MSTORE PUSH1 0x20 ADD DUP1 PUSH2 0x571A PUSH1 0x24 SWAP2 CODECOPY PUSH1 0x40 ADD SWAP2 POP POP PUSH1 0x40 MLOAD DUP1 SWAP2 SUB SWAP1 REVERT JUMPDEST PUSH1 0x9 SLOAD ISZERO DUP1 ISZERO PUSH2 0x18FC JUMPI POP PUSH1 0xA SLOAD ISZERO JUMPDEST PUSH2 0x1937 JUMPI PUSH1 0x40 MLOAD PUSH3 0x461BCD PUSH1 0xE5 SHL DUP2 MSTORE PUSH1 0x4 ADD DUP1 DUP1 PUSH1 0x20 ADD DUP3 DUP2 SUB DUP3 MSTORE PUSH1 0x23 DUP2 MSTORE PUSH1 0x20 ADD DUP1 PUSH2 0x573E PUSH1 0x23 SWAP2 CODECOPY PUSH1 0x40 ADD SWAP2 POP POP PUSH1 0x40 MLOAD DUP1 SWAP2 SUB SWAP1 REVERT JUMPDEST PUSH1 0x7 DUP5 SWAP1 SSTORE DUP4 PUSH2 0x1978 JUMPI PUSH1 0x40 MLOAD PUSH3 0x461BCD PUSH1 0xE5 SHL DUP2 MSTORE PUSH1 0x4 ADD DUP1 DUP1 PUSH1 0x20 ADD DUP3 DUP2 SUB DUP3 MSTORE PUSH1 0x30 DUP2 MSTORE PUSH1 0x20 ADD DUP1 PUSH2 0x57C3 PUSH1 0x30 SWAP2 CODECOPY PUSH1 0x40 ADD SWAP2 POP POP PUSH1 0x40 MLOAD DUP1 SWAP2 SUB SWAP1 REVERT JUMPDEST PUSH1 0x0 PUSH2 0x1983 DUP8 PUSH2 0x142E JUMP JUMPDEST SWAP1 POP DUP1 ISZERO PUSH2 0x19D8 JUMPI PUSH1 0x40 DUP1 MLOAD PUSH3 0x461BCD PUSH1 0xE5 SHL DUP2 MSTORE PUSH1 0x20 PUSH1 0x4 DUP3 ADD MSTORE PUSH1 0x1A PUSH1 0x24 DUP3 ADD MSTORE PUSH32 0x73657474696E6720636F6D7074726F6C6C6572206661696C6564000000000000 PUSH1 0x44 DUP3 ADD MSTORE SWAP1 MLOAD SWAP1 DUP2 SWAP1 SUB PUSH1 0x64 ADD SWAP1 REVERT JUMPDEST PUSH2 0x19E0 PUSH2 0x2D82 JUMP JUMPDEST PUSH1 0x9 SSTORE PUSH8 0xDE0B6B3A7640000 PUSH1 0xA SSTORE PUSH2 0x19F8 DUP7 PUSH2 0x2D86 JUMP JUMPDEST SWAP1 POP DUP1 ISZERO PUSH2 0x1A37 JUMPI PUSH1 0x40 MLOAD PUSH3 0x461BCD PUSH1 0xE5 SHL DUP2 MSTORE PUSH1 0x4 ADD DUP1 DUP1 PUSH1 0x20 ADD DUP3 DUP2 SUB DUP3 MSTORE PUSH1 0x22 DUP2 MSTORE PUSH1 0x20 ADD DUP1 PUSH2 0x57F3 PUSH1 0x22 SWAP2 CODECOPY PUSH1 0x40 ADD SWAP2 POP POP PUSH1 0x40 MLOAD DUP1 SWAP2 SUB SWAP1 REVERT JUMPDEST DUP4 MLOAD PUSH2 0x1A4A SWAP1 PUSH1 0x1 SWAP1 PUSH1 0x20 DUP8 ADD SWAP1 PUSH2 0x55D4 JUMP JUMPDEST POP DUP3 MLOAD PUSH2 0x1A5E SWAP1 PUSH1 0x2 SWAP1 PUSH1 0x20 DUP7 ADD SWAP1 PUSH2 0x55D4 JUMP JUMPDEST POP POP PUSH1 0x3 DUP1 SLOAD PUSH1 0xFF SWAP1 SWAP3 AND PUSH1 0xFF NOT SWAP3 DUP4 AND OR SWAP1 SSTORE PUSH1 0x0 DUP1 SLOAD SWAP1 SWAP2 AND PUSH1 0x1 OR SWAP1 SSTORE POP POP POP POP POP JUMP JUMPDEST PUSH1 0x0 DUP1 PUSH2 0xD17 DUP4 PUSH2 0x2EFB JUMP JUMPDEST PUSH1 0x14 SLOAD PUSH1 0x40 DUP1 MLOAD PUSH4 0x4FB3C665 PUSH1 0xE1 SHL DUP2 MSTORE SWAP1 MLOAD PUSH1 0x0 SWAP3 PUSH1 0x1 PUSH1 0x1 PUSH1 0xA0 SHL SUB AND SWAP2 PUSH4 0x9F678CCA SWAP2 PUSH1 0x4 DUP1 DUP4 ADD SWAP3 PUSH1 0x20 SWAP3 SWAP2 SWAP1 DUP3 SWAP1 SUB ADD DUP2 DUP8 DUP8 DUP1 EXTCODESIZE ISZERO DUP1 ISZERO PUSH2 0x1AD7 JUMPI PUSH1 0x0 DUP1 REVERT JUMPDEST POP GAS CALL ISZERO DUP1 ISZERO PUSH2 0x1AEB JUMPI RETURNDATASIZE PUSH1 0x0 DUP1 RETURNDATACOPY RETURNDATASIZE PUSH1 0x0 REVERT JUMPDEST POP POP POP POP PUSH1 0x40 MLOAD RETURNDATASIZE PUSH1 0x20 DUP2 LT ISZERO PUSH2 0x1B01 JUMPI PUSH1 0x0 DUP1 REVERT JUMPDEST POP PUSH2 0x141E SWAP1 POP PUSH2 0x2F7C JUMP JUMPDEST PUSH1 0x0 DUP1 SLOAD PUSH1 0xFF AND PUSH2 0x1B51 JUMPI PUSH1 0x40 DUP1 MLOAD PUSH3 0x461BCD PUSH1 0xE5 SHL DUP2 MSTORE PUSH1 0x20 PUSH1 0x4 DUP3 ADD MSTORE PUSH1 0xA PUSH1 0x24 DUP3 ADD MSTORE PUSH10 0x1C994B595B9D195C9959 PUSH1 0xB2 SHL PUSH1 0x44 DUP3 ADD MSTORE SWAP1 MLOAD SWAP1 DUP2 SWAP1 SUB PUSH1 0x64 ADD SWAP1 REVERT JUMPDEST PUSH1 0x0 DUP1 SLOAD PUSH1 0xFF NOT AND DUP2 SSTORE PUSH2 0x1B67 CALLER CALLER DUP7 DUP7 PUSH2 0x2268 JUMP JUMPDEST EQ SWAP1 POP PUSH1 0x0 DUP1 SLOAD PUSH1 0xFF NOT AND PUSH1 0x1 OR SWAP1 SSTORE SWAP3 SWAP2 POP POP JUMP JUMPDEST PUSH1 0xA SLOAD DUP2 JUMP JUMPDEST PUSH1 0x6 SLOAD PUSH1 0x0 SWAP1 PUSH1 0x1 PUSH1 0x1 PUSH1 0xA0 SHL SUB AND PUSH4 0xB8168816 PUSH2 0x1B9F PUSH2 0x25F3 JUMP JUMPDEST PUSH1 0xB SLOAD PUSH1 0xC SLOAD PUSH1 0x8 SLOAD PUSH1 0x40 MLOAD DUP6 PUSH4 0xFFFFFFFF AND PUSH1 0xE0 SHL DUP2 MSTORE PUSH1 0x4 ADD DUP1 DUP6 DUP2 MSTORE PUSH1 0x20 ADD DUP5 DUP2 MSTORE PUSH1 0x20 ADD DUP4 DUP2 MSTORE PUSH1 0x20 ADD DUP3 DUP2 MSTORE PUSH1 0x20 ADD SWAP5 POP POP POP POP POP PUSH1 0x20 PUSH1 0x40 MLOAD DUP1 DUP4 SUB DUP2 DUP7 DUP1 EXTCODESIZE ISZERO DUP1 ISZERO PUSH2 0x1BF1 JUMPI PUSH1 0x0 DUP1 REVERT JUMPDEST POP GAS STATICCALL ISZERO DUP1 ISZERO PUSH2 0x1C05 JUMPI RETURNDATASIZE PUSH1 0x0 DUP1 RETURNDATACOPY RETURNDATASIZE PUSH1 0x0 REVERT JUMPDEST POP POP POP POP PUSH1 0x40 MLOAD RETURNDATASIZE PUSH1 0x20 DUP2 LT ISZERO PUSH2 0x1C1B JUMPI PUSH1 0x0 DUP1 REVERT JUMPDEST POP MLOAD SWAP1 POP SWAP1 JUMP JUMPDEST PUSH1 0x0 DUP1 SLOAD PUSH1 0xFF AND PUSH2 0x1C67 JUMPI PUSH1 0x40 DUP1 MLOAD PUSH3 0x461BCD PUSH1 0xE5 SHL DUP2 MSTORE PUSH1 0x20 PUSH1 0x4 DUP3 ADD MSTORE PUSH1 0xA PUSH1 0x24 DUP3 ADD MSTORE PUSH10 0x1C994B595B9D195C9959 PUSH1 0xB2 SHL PUSH1 0x44 DUP3 ADD MSTORE SWAP1 MLOAD SWAP1 DUP2 SWAP1 SUB PUSH1 0x64 ADD SWAP1 REVERT JUMPDEST PUSH1 0x0 DUP1 SLOAD PUSH1 0xFF NOT AND SWAP1 SSTORE PUSH2 0x1C7D CALLER DUP6 DUP6 DUP6 PUSH2 0x32D4 JUMP JUMPDEST SWAP1 POP PUSH1 0x0 DUP1 SLOAD PUSH1 0xFF NOT AND PUSH1 0x1 OR SWAP1 SSTORE SWAP4 SWAP3 POP POP POP JUMP JUMPDEST PUSH1 0x3 SLOAD PUSH1 0x0 SWAP1 PUSH2 0x100 SWAP1 DIV PUSH1 0x1 PUSH1 0x1 PUSH1 0xA0 SHL SUB AND CALLER EQ PUSH2 0x1CB9 JUMPI PUSH2 0x1454 PUSH1 0x1 PUSH1 0x45 PUSH2 0x2799 JUMP JUMPDEST PUSH1 0x4 DUP1 SLOAD PUSH1 0x1 PUSH1 0x1 PUSH1 0xA0 SHL SUB DUP5 DUP2 AND PUSH1 0x1 PUSH1 0x1 PUSH1 0xA0 SHL SUB NOT DUP4 AND DUP2 OR SWAP1 SWAP4 SSTORE PUSH1 0x40 DUP1 MLOAD SWAP2 SWAP1 SWAP3 AND DUP1 DUP3 MSTORE PUSH1 0x20 DUP3 ADD SWAP4 SWAP1 SWAP4 MSTORE DUP2 MLOAD PUSH32 0xCA4F2F25D0898EDD99413412FB94012F9E54EC8142F9B093E7720646A95B16A9 SWAP3 SWAP2 DUP2 SWAP1 SUB SWAP1 SWAP2 ADD SWAP1 LOG1 PUSH1 0x0 PUSH2 0x157C JUMP JUMPDEST PUSH1 0x0 DUP1 SLOAD PUSH1 0xFF AND PUSH2 0x1D64 JUMPI PUSH1 0x40 DUP1 MLOAD PUSH3 0x461BCD PUSH1 0xE5 SHL DUP2 MSTORE PUSH1 0x20 PUSH1 0x4 DUP3 ADD MSTORE PUSH1 0xA PUSH1 0x24 DUP3 ADD MSTORE PUSH10 0x1C994B595B9D195C9959 PUSH1 0xB2 SHL PUSH1 0x44 DUP3 ADD MSTORE SWAP1 MLOAD SWAP1 DUP2 SWAP1 SUB PUSH1 0x64 ADD SWAP1 REVERT JUMPDEST PUSH1 0x0 DUP1 SLOAD PUSH1 0xFF NOT AND DUP2 SSTORE PUSH2 0x1D76 PUSH2 0x1A91 JUMP JUMPDEST EQ PUSH2 0x1DC1 JUMPI PUSH1 0x40 DUP1 MLOAD PUSH3 0x461BCD PUSH1 0xE5 SHL DUP2 MSTORE PUSH1 0x20 PUSH1 0x4 DUP3 ADD MSTORE PUSH1 0x16 PUSH1 0x24 DUP3 ADD MSTORE PUSH22 0x1858D8DC9D59481A5B9D195C995CDD0819985A5B1959 PUSH1 0x52 SHL PUSH1 0x44 DUP3 ADD MSTORE SWAP1 MLOAD SWAP1 DUP2 SWAP1 SUB PUSH1 0x64 ADD SWAP1 REVERT JUMPDEST PUSH2 0x1DC9 PUSH2 0x108B JUMP JUMPDEST SWAP1 POP PUSH1 0x0 DUP1 SLOAD PUSH1 0xFF NOT AND PUSH1 0x1 OR SWAP1 SSTORE SWAP1 JUMP JUMPDEST PUSH1 0x1 PUSH1 0x1 PUSH1 0xA0 SHL SUB DUP2 AND PUSH1 0x0 SWAP1 DUP2 MSTORE PUSH1 0xE PUSH1 0x20 MSTORE PUSH1 0x40 DUP2 KECCAK256 SLOAD DUP2 SWAP1 DUP2 SWAP1 DUP2 SWAP1 DUP2 DUP1 DUP1 PUSH2 0x1E06 DUP10 PUSH2 0x2CCE JUMP JUMPDEST SWAP4 POP SWAP1 POP PUSH1 0x0 DUP2 PUSH1 0x3 DUP2 GT ISZERO PUSH2 0x1E18 JUMPI INVALID JUMPDEST EQ PUSH2 0x1E36 JUMPI PUSH1 0x9 JUMPDEST SWAP8 POP PUSH1 0x0 SWAP7 POP DUP7 SWAP6 POP DUP6 SWAP5 POP PUSH2 0x1E69 SWAP4 POP POP POP POP JUMP JUMPDEST PUSH2 0x1E3E PUSH2 0x21B9 JUMP JUMPDEST SWAP3 POP SWAP1 POP PUSH1 0x0 DUP2 PUSH1 0x3 DUP2 GT ISZERO PUSH2 0x1E50 JUMPI INVALID JUMPDEST EQ PUSH2 0x1E5C JUMPI PUSH1 0x9 PUSH2 0x1E20 JUMP JUMPDEST POP PUSH1 0x0 SWAP7 POP SWAP2 SWAP5 POP SWAP3 POP SWAP1 POP JUMPDEST SWAP2 SWAP4 POP SWAP2 SWAP4 JUMP JUMPDEST PUSH1 0x0 PUSH2 0xD05 DUP3 PUSH2 0x34B0 JUMP JUMPDEST PUSH1 0x0 PUSH2 0xD05 DUP3 PUSH2 0x352F JUMP JUMPDEST PUSH1 0x1 PUSH1 0x1 PUSH1 0xA0 SHL SUB SWAP2 DUP3 AND PUSH1 0x0 SWAP1 DUP2 MSTORE PUSH1 0xF PUSH1 0x20 SWAP1 DUP2 MSTORE PUSH1 0x40 DUP1 DUP4 KECCAK256 SWAP4 SWAP1 SWAP5 AND DUP3 MSTORE SWAP2 SWAP1 SWAP2 MSTORE KECCAK256 SLOAD SWAP1 JUMP JUMPDEST PUSH1 0x4 SLOAD PUSH1 0x0 SWAP1 PUSH1 0x1 PUSH1 0x1 PUSH1 0xA0 SHL SUB AND CALLER EQ ISZERO DUP1 PUSH2 0x1ECC JUMPI POP CALLER ISZERO JUMPDEST ISZERO PUSH2 0x1EE4 JUMPI PUSH2 0x1EDD PUSH1 0x1 PUSH1 0x0 PUSH2 0x2799 JUMP JUMPDEST SWAP1 POP PUSH2 0x10EB JUMP JUMPDEST PUSH1 0x3 DUP1 SLOAD PUSH1 0x4 DUP1 SLOAD PUSH1 0x1 PUSH1 0x1 PUSH1 0xA0 SHL SUB DUP2 DUP2 AND PUSH2 0x100 DUP2 DUP2 MUL PUSH2 0x100 PUSH1 0x1 PUSH1 0xA8 SHL SUB NOT DUP8 AND OR SWAP7 DUP8 SWAP1 SSTORE PUSH1 0x1 PUSH1 0x1 PUSH1 0xA0 SHL SUB NOT SWAP1 SWAP4 AND SWAP1 SWAP4 SSTORE PUSH1 0x40 DUP1 MLOAD SWAP5 DUP4 SWAP1 DIV DUP3 AND DUP1 DUP7 MSTORE SWAP3 SWAP1 SWAP6 DIV AND PUSH1 0x20 DUP5 ADD MSTORE DUP4 MLOAD SWAP1 SWAP4 SWAP2 SWAP3 PUSH32 0xF9FFABCA9C8276E99321725BCB43FB076A6C66A54B7F21C4E8146D8519B417DC SWAP3 SWAP1 DUP3 SWAP1 SUB ADD SWAP1 LOG1 PUSH1 0x4 SLOAD PUSH1 0x40 DUP1 MLOAD PUSH1 0x1 PUSH1 0x1 PUSH1 0xA0 SHL SUB DUP1 DUP6 AND DUP3 MSTORE SWAP1 SWAP3 AND PUSH1 0x20 DUP4 ADD MSTORE DUP1 MLOAD PUSH32 0xCA4F2F25D0898EDD99413412FB94012F9E54EC8142F9B093E7720646A95B16A9 SWAP3 DUP2 SWAP1 SUB SWAP1 SWAP2 ADD SWAP1 LOG1 PUSH1 0x0 SWAP3 POP POP POP SWAP1 JUMP JUMPDEST PUSH1 0x0 DUP1 PUSH2 0x1FBF PUSH2 0x1A91 JUMP JUMPDEST SWAP1 POP DUP1 ISZERO PUSH2 0x1FE5 JUMPI PUSH2 0x1FDD DUP2 PUSH1 0x10 DUP2 GT ISZERO PUSH2 0x1FD6 JUMPI INVALID JUMPDEST PUSH1 0x40 PUSH2 0x2799 JUMP JUMPDEST SWAP2 POP POP PUSH2 0xD1C JUMP JUMPDEST PUSH2 0x157C DUP4 PUSH2 0x2D86 JUMP JUMPDEST PUSH1 0x6 SLOAD PUSH1 0x1 PUSH1 0x1 PUSH1 0xA0 SHL SUB AND DUP2 JUMP JUMPDEST PUSH1 0x0 DUP1 PUSH2 0x200B DUP6 DUP6 DUP6 PUSH2 0x35A9 JUMP JUMPDEST POP SWAP6 SWAP5 POP POP POP POP POP JUMP JUMPDEST PUSH1 0x3 SLOAD PUSH2 0x100 SWAP1 DIV PUSH1 0x1 PUSH1 0x1 PUSH1 0xA0 SHL SUB AND DUP2 JUMP JUMPDEST PUSH1 0x6 SLOAD PUSH1 0x0 SWAP1 PUSH1 0x1 PUSH1 0x1 PUSH1 0xA0 SHL SUB AND PUSH4 0x15F24053 PUSH2 0x2045 PUSH2 0x25F3 JUMP JUMPDEST PUSH1 0xB SLOAD PUSH1 0xC SLOAD PUSH1 0x40 MLOAD DUP5 PUSH4 0xFFFFFFFF AND PUSH1 0xE0 SHL DUP2 MSTORE PUSH1 0x4 ADD DUP1 DUP5 DUP2 MSTORE PUSH1 0x20 ADD DUP4 DUP2 MSTORE PUSH1 0x20 ADD DUP3 DUP2 MSTORE PUSH1 0x20 ADD SWAP4 POP POP POP POP PUSH1 0x20 PUSH1 0x40 MLOAD DUP1 DUP4 SUB DUP2 DUP7 DUP1 EXTCODESIZE ISZERO DUP1 ISZERO PUSH2 0x1BF1 JUMPI PUSH1 0x0 DUP1 REVERT JUMPDEST PUSH1 0x0 DUP1 SLOAD PUSH1 0xFF AND PUSH2 0x20D2 JUMPI PUSH1 0x40 DUP1 MLOAD PUSH3 0x461BCD PUSH1 0xE5 SHL DUP2 MSTORE PUSH1 0x20 PUSH1 0x4 DUP3 ADD MSTORE PUSH1 0xA PUSH1 0x24 DUP3 ADD MSTORE PUSH10 0x1C994B595B9D195C9959 PUSH1 0xB2 SHL PUSH1 0x44 DUP3 ADD MSTORE SWAP1 MLOAD SWAP1 DUP2 SWAP1 SUB PUSH1 0x64 ADD SWAP1 REVERT JUMPDEST PUSH1 0x0 DUP1 SLOAD PUSH1 0xFF NOT AND DUP2 SSTORE PUSH2 0x20E4 PUSH2 0x1A91 JUMP JUMPDEST SWAP1 POP DUP1 ISZERO PUSH2 0x2102 JUMPI PUSH2 0x169F DUP2 PUSH1 0x10 DUP2 GT ISZERO PUSH2 0x20FB JUMPI INVALID JUMPDEST PUSH1 0x46 PUSH2 0x2799 JUMP JUMPDEST PUSH2 0x16B0 DUP4 PUSH2 0x36DB JUMP JUMPDEST PUSH1 0x1 DUP2 JUMP JUMPDEST PUSH1 0x0 DUP1 SLOAD DUP2 SWAP1 PUSH1 0xFF AND PUSH2 0x2157 JUMPI PUSH1 0x40 DUP1 MLOAD PUSH3 0x461BCD PUSH1 0xE5 SHL DUP2 MSTORE PUSH1 0x20 PUSH1 0x4 DUP3 ADD MSTORE PUSH1 0xA PUSH1 0x24 DUP3 ADD MSTORE PUSH10 0x1C994B595B9D195C9959 PUSH1 0xB2 SHL PUSH1 0x44 DUP3 ADD MSTORE SWAP1 MLOAD SWAP1 DUP2 SWAP1 SUB PUSH1 0x64 ADD SWAP1 REVERT JUMPDEST PUSH1 0x0 DUP1 SLOAD PUSH1 0xFF NOT AND DUP2 SSTORE PUSH2 0x2169 PUSH2 0x1A91 JUMP JUMPDEST SWAP1 POP DUP1 ISZERO PUSH2 0x2194 JUMPI PUSH2 0x2187 DUP2 PUSH1 0x10 DUP2 GT ISZERO PUSH2 0x2180 JUMPI INVALID JUMPDEST PUSH1 0x36 PUSH2 0x2799 JUMP JUMPDEST SWAP3 POP PUSH1 0x0 SWAP2 POP PUSH2 0x21A5 SWAP1 POP JUMP JUMPDEST PUSH2 0x219F CALLER CALLER DUP7 PUSH2 0x3783 JUMP JUMPDEST SWAP3 POP SWAP3 POP POP JUMPDEST PUSH1 0x0 DUP1 SLOAD PUSH1 0xFF NOT AND PUSH1 0x1 OR SWAP1 SSTORE SWAP1 SWAP3 SWAP1 SWAP2 POP JUMP JUMPDEST PUSH1 0xD SLOAD PUSH1 0x0 SWAP1 DUP2 SWAP1 DUP1 PUSH2 0x21D4 JUMPI POP POP PUSH1 0x7 SLOAD PUSH1 0x0 SWAP2 POP PUSH2 0x2264 JUMP JUMPDEST PUSH1 0x0 PUSH2 0x21DE PUSH2 0x25F3 JUMP JUMPDEST SWAP1 POP PUSH1 0x0 PUSH2 0x21EA PUSH2 0x55C1 JUMP JUMPDEST PUSH1 0x0 PUSH2 0x21FB DUP5 PUSH1 0xB SLOAD PUSH1 0xC SLOAD PUSH2 0x3AD3 JUMP JUMPDEST SWAP4 POP SWAP1 POP PUSH1 0x0 DUP2 PUSH1 0x3 DUP2 GT ISZERO PUSH2 0x220D JUMPI INVALID JUMPDEST EQ PUSH2 0x2222 JUMPI SWAP6 POP PUSH1 0x0 SWAP5 POP PUSH2 0x2264 SWAP4 POP POP POP POP JUMP JUMPDEST PUSH2 0x222C DUP4 DUP7 PUSH2 0x3B1F JUMP JUMPDEST SWAP3 POP SWAP1 POP PUSH1 0x0 DUP2 PUSH1 0x3 DUP2 GT ISZERO PUSH2 0x223E JUMPI INVALID JUMPDEST EQ PUSH2 0x2253 JUMPI SWAP6 POP PUSH1 0x0 SWAP5 POP PUSH2 0x2264 SWAP4 POP POP POP POP JUMP JUMPDEST POP MLOAD PUSH1 0x0 SWAP6 POP SWAP4 POP PUSH2 0x2264 SWAP3 POP POP POP JUMP JUMPDEST SWAP1 SWAP2 JUMP JUMPDEST PUSH1 0x5 SLOAD PUSH1 0x40 DUP1 MLOAD PUSH4 0x17B9B84B PUSH1 0xE3 SHL DUP2 MSTORE ADDRESS PUSH1 0x4 DUP3 ADD MSTORE PUSH1 0x1 PUSH1 0x1 PUSH1 0xA0 SHL SUB DUP7 DUP2 AND PUSH1 0x24 DUP4 ADD MSTORE DUP6 DUP2 AND PUSH1 0x44 DUP4 ADD MSTORE PUSH1 0x64 DUP3 ADD DUP6 SWAP1 MSTORE SWAP2 MLOAD PUSH1 0x0 SWAP4 DUP5 SWAP4 AND SWAP2 PUSH4 0xBDCDC258 SWAP2 PUSH1 0x84 DUP1 DUP4 ADD SWAP3 PUSH1 0x20 SWAP3 SWAP2 SWAP1 DUP3 SWAP1 SUB ADD DUP2 DUP8 DUP8 DUP1 EXTCODESIZE ISZERO DUP1 ISZERO PUSH2 0x22CD JUMPI PUSH1 0x0 DUP1 REVERT JUMPDEST POP GAS CALL ISZERO DUP1 ISZERO PUSH2 0x22E1 JUMPI RETURNDATASIZE PUSH1 0x0 DUP1 RETURNDATACOPY RETURNDATASIZE PUSH1 0x0 REVERT JUMPDEST POP POP POP POP PUSH1 0x40 MLOAD RETURNDATASIZE PUSH1 0x20 DUP2 LT ISZERO PUSH2 0x22F7 JUMPI PUSH1 0x0 DUP1 REVERT JUMPDEST POP MLOAD SWAP1 POP DUP1 ISZERO PUSH2 0x2316 JUMPI PUSH2 0x230E PUSH1 0x3 PUSH1 0x4A DUP4 PUSH2 0x3BCF JUMP JUMPDEST SWAP2 POP POP PUSH2 0x140C JUMP JUMPDEST DUP4 PUSH1 0x1 PUSH1 0x1 PUSH1 0xA0 SHL SUB AND DUP6 PUSH1 0x1 PUSH1 0x1 PUSH1 0xA0 SHL SUB AND EQ ISZERO PUSH2 0x233C JUMPI PUSH2 0x230E PUSH1 0x2 PUSH1 0x4B PUSH2 0x2799 JUMP JUMPDEST PUSH1 0x0 PUSH1 0x1 PUSH1 0x1 PUSH1 0xA0 SHL SUB DUP8 DUP2 AND SWAP1 DUP8 AND EQ ISZERO PUSH2 0x235B JUMPI POP PUSH1 0x0 NOT PUSH2 0x2383 JUMP JUMPDEST POP PUSH1 0x1 PUSH1 0x1 PUSH1 0xA0 SHL SUB DUP1 DUP7 AND PUSH1 0x0 SWAP1 DUP2 MSTORE PUSH1 0xF PUSH1 0x20 SWAP1 DUP2 MSTORE PUSH1 0x40 DUP1 DUP4 KECCAK256 SWAP4 DUP11 AND DUP4 MSTORE SWAP3 SWAP1 MSTORE KECCAK256 SLOAD JUMPDEST PUSH1 0x0 DUP1 PUSH1 0x0 DUP1 PUSH2 0x2393 DUP6 DUP10 PUSH2 0x3C35 JUMP JUMPDEST SWAP1 SWAP5 POP SWAP3 POP PUSH1 0x0 DUP5 PUSH1 0x3 DUP2 GT ISZERO PUSH2 0x23A6 JUMPI INVALID JUMPDEST EQ PUSH2 0x23C4 JUMPI PUSH2 0x23B7 PUSH1 0x9 PUSH1 0x4B PUSH2 0x2799 JUMP JUMPDEST SWAP7 POP POP POP POP POP POP POP PUSH2 0x140C JUMP JUMPDEST PUSH1 0x1 PUSH1 0x1 PUSH1 0xA0 SHL SUB DUP11 AND PUSH1 0x0 SWAP1 DUP2 MSTORE PUSH1 0xE PUSH1 0x20 MSTORE PUSH1 0x40 SWAP1 KECCAK256 SLOAD PUSH2 0x23E7 SWAP1 DUP10 PUSH2 0x3C35 JUMP JUMPDEST SWAP1 SWAP5 POP SWAP2 POP PUSH1 0x0 DUP5 PUSH1 0x3 DUP2 GT ISZERO PUSH2 0x23FA JUMPI INVALID JUMPDEST EQ PUSH2 0x240B JUMPI PUSH2 0x23B7 PUSH1 0x9 PUSH1 0x4C PUSH2 0x2799 JUMP JUMPDEST PUSH1 0x1 PUSH1 0x1 PUSH1 0xA0 SHL SUB DUP10 AND PUSH1 0x0 SWAP1 DUP2 MSTORE PUSH1 0xE PUSH1 0x20 MSTORE PUSH1 0x40 SWAP1 KECCAK256 SLOAD PUSH2 0x242E SWAP1 DUP10 PUSH2 0x3C58 JUMP JUMPDEST SWAP1 SWAP5 POP SWAP1 POP PUSH1 0x0 DUP5 PUSH1 0x3 DUP2 GT ISZERO PUSH2 0x2441 JUMPI INVALID JUMPDEST EQ PUSH2 0x2452 JUMPI PUSH2 0x23B7 PUSH1 0x9 PUSH1 0x4D PUSH2 0x2799 JUMP JUMPDEST PUSH1 0x1 PUSH1 0x1 PUSH1 0xA0 SHL SUB DUP1 DUP12 AND PUSH1 0x0 SWAP1 DUP2 MSTORE PUSH1 0xE PUSH1 0x20 MSTORE PUSH1 0x40 DUP1 DUP3 KECCAK256 DUP6 SWAP1 SSTORE SWAP2 DUP12 AND DUP2 MSTORE KECCAK256 DUP2 SWAP1 SSTORE PUSH1 0x0 NOT DUP6 EQ PUSH2 0x24AA JUMPI PUSH1 0x1 PUSH1 0x1 PUSH1 0xA0 SHL SUB DUP1 DUP12 AND PUSH1 0x0 SWAP1 DUP2 MSTORE PUSH1 0xF PUSH1 0x20 SWAP1 DUP2 MSTORE PUSH1 0x40 DUP1 DUP4 KECCAK256 SWAP4 DUP16 AND DUP4 MSTORE SWAP3 SWAP1 MSTORE KECCAK256 DUP4 SWAP1 SSTORE JUMPDEST DUP9 PUSH1 0x1 PUSH1 0x1 PUSH1 0xA0 SHL SUB AND DUP11 PUSH1 0x1 PUSH1 0x1 PUSH1 0xA0 SHL SUB AND PUSH1 0x0 DUP1 MLOAD PUSH1 0x20 PUSH2 0x5900 DUP4 CODECOPY DUP2 MLOAD SWAP2 MSTORE DUP11 PUSH1 0x40 MLOAD DUP1 DUP3 DUP2 MSTORE PUSH1 0x20 ADD SWAP2 POP POP PUSH1 0x40 MLOAD DUP1 SWAP2 SUB SWAP1 LOG3 POP PUSH1 0x0 SWAP11 SWAP10 POP POP POP POP POP POP POP POP POP POP JUMP JUMPDEST PUSH1 0x0 DUP1 SLOAD DUP2 SWAP1 PUSH1 0xFF AND PUSH2 0x253B JUMPI PUSH1 0x40 DUP1 MLOAD PUSH3 0x461BCD PUSH1 0xE5 SHL DUP2 MSTORE PUSH1 0x20 PUSH1 0x4 DUP3 ADD MSTORE PUSH1 0xA PUSH1 0x24 DUP3 ADD MSTORE PUSH10 0x1C994B595B9D195C9959 PUSH1 0xB2 SHL PUSH1 0x44 DUP3 ADD MSTORE SWAP1 MLOAD SWAP1 DUP2 SWAP1 SUB PUSH1 0x64 ADD SWAP1 REVERT JUMPDEST PUSH1 0x0 DUP1 SLOAD PUSH1 0xFF NOT AND DUP2 SSTORE PUSH2 0x254D PUSH2 0x1A91 JUMP JUMPDEST SWAP1 POP DUP1 ISZERO PUSH2 0x2578 JUMPI PUSH2 0x256B DUP2 PUSH1 0x10 DUP2 GT ISZERO PUSH2 0x2564 JUMPI INVALID JUMPDEST PUSH1 0x35 PUSH2 0x2799 JUMP JUMPDEST SWAP3 POP PUSH1 0x0 SWAP2 POP PUSH2 0x2589 SWAP1 POP JUMP JUMPDEST PUSH2 0x2583 CALLER DUP7 DUP7 PUSH2 0x3783 JUMP JUMPDEST SWAP3 POP SWAP3 POP POP JUMPDEST PUSH1 0x0 DUP1 SLOAD PUSH1 0xFF NOT AND PUSH1 0x1 OR SWAP1 SSTORE SWAP1 SWAP4 SWAP1 SWAP3 POP SWAP1 POP JUMP JUMPDEST PUSH1 0x0 DUP1 PUSH1 0x0 PUSH2 0x25AC PUSH2 0x55C1 JUMP JUMPDEST PUSH2 0x25B6 DUP7 DUP7 PUSH2 0x3C7E JUMP JUMPDEST SWAP1 SWAP3 POP SWAP1 POP PUSH1 0x0 DUP3 PUSH1 0x3 DUP2 GT ISZERO PUSH2 0x25C9 JUMPI INVALID JUMPDEST EQ PUSH2 0x25DA JUMPI POP SWAP2 POP PUSH1 0x0 SWAP1 POP PUSH2 0x25EC JUMP JUMPDEST PUSH1 0x0 PUSH2 0x25E5 DUP3 PUSH2 0x3CE6 JUMP JUMPDEST SWAP4 POP SWAP4 POP POP POP JUMPDEST SWAP3 POP SWAP3 SWAP1 POP JUMP JUMPDEST PUSH1 0x14 SLOAD PUSH1 0x40 DUP1 MLOAD PUSH4 0x5F5D643 PUSH1 0xE1 SHL DUP2 MSTORE ADDRESS PUSH1 0x4 DUP3 ADD MSTORE SWAP1 MLOAD PUSH1 0x0 SWAP3 PUSH1 0x1 PUSH1 0x1 PUSH1 0xA0 SHL SUB AND SWAP2 DUP4 SWAP2 DUP4 SWAP2 PUSH4 0xBEBAC86 SWAP2 PUSH1 0x24 DUP1 DUP4 ADD SWAP3 PUSH1 0x20 SWAP3 SWAP2 SWAP1 DUP3 SWAP1 SUB ADD DUP2 DUP7 DUP1 EXTCODESIZE ISZERO DUP1 ISZERO PUSH2 0x2642 JUMPI PUSH1 0x0 DUP1 REVERT JUMPDEST POP GAS STATICCALL ISZERO DUP1 ISZERO PUSH2 0x2656 JUMPI RETURNDATASIZE PUSH1 0x0 DUP1 RETURNDATACOPY RETURNDATASIZE PUSH1 0x0 REVERT JUMPDEST POP POP POP POP PUSH1 0x40 MLOAD RETURNDATASIZE PUSH1 0x20 DUP2 LT ISZERO PUSH2 0x266C JUMPI PUSH1 0x0 DUP1 REVERT JUMPDEST POP MLOAD PUSH1 0x40 DUP1 MLOAD PUSH4 0x324ABB31 PUSH1 0xE2 SHL DUP2 MSTORE SWAP1 MLOAD SWAP2 SWAP3 POP PUSH12 0x33B2E3C9FD0803CE8000000 SWAP2 PUSH2 0x26F6 SWAP2 PUSH1 0x1 PUSH1 0x1 PUSH1 0xA0 SHL SUB DUP7 AND SWAP2 PUSH4 0xC92AECC4 SWAP2 PUSH1 0x4 DUP1 DUP3 ADD SWAP3 PUSH1 0x20 SWAP3 SWAP1 SWAP2 SWAP1 DUP3 SWAP1 SUB ADD DUP2 DUP7 DUP1 EXTCODESIZE ISZERO DUP1 ISZERO PUSH2 0x26C4 JUMPI PUSH1 0x0 DUP1 REVERT JUMPDEST POP GAS STATICCALL ISZERO DUP1 ISZERO PUSH2 0x26D8 JUMPI RETURNDATASIZE PUSH1 0x0 DUP1 RETURNDATACOPY RETURNDATASIZE PUSH1 0x0 REVERT JUMPDEST POP POP POP POP PUSH1 0x40 MLOAD RETURNDATASIZE PUSH1 0x20 DUP2 LT ISZERO PUSH2 0x26EE JUMPI PUSH1 0x0 DUP1 REVERT JUMPDEST POP MLOAD DUP4 PUSH2 0x3CF5 JUMP JUMPDEST DUP2 PUSH2 0x26FD JUMPI INVALID JUMPDEST DIV SWAP3 POP POP POP SWAP1 JUMP JUMPDEST PUSH1 0x0 DUP1 SLOAD PUSH1 0xFF AND PUSH2 0x274A JUMPI PUSH1 0x40 DUP1 MLOAD PUSH3 0x461BCD PUSH1 0xE5 SHL DUP2 MSTORE PUSH1 0x20 PUSH1 0x4 DUP3 ADD MSTORE PUSH1 0xA PUSH1 0x24 DUP3 ADD MSTORE PUSH10 0x1C994B595B9D195C9959 PUSH1 0xB2 SHL PUSH1 0x44 DUP3 ADD MSTORE SWAP1 MLOAD SWAP1 DUP2 SWAP1 SUB PUSH1 0x64 ADD SWAP1 REVERT JUMPDEST PUSH1 0x0 DUP1 SLOAD PUSH1 0xFF NOT AND DUP2 SSTORE PUSH2 0x275C PUSH2 0x1A91 JUMP JUMPDEST SWAP1 POP DUP1 ISZERO PUSH2 0x277A JUMPI PUSH2 0x169F DUP2 PUSH1 0x10 DUP2 GT ISZERO PUSH2 0x2773 JUMPI INVALID JUMPDEST PUSH1 0x4E PUSH2 0x2799 JUMP JUMPDEST PUSH2 0x2783 DUP4 PUSH2 0x3D50 JUMP JUMPDEST POP SWAP2 POP POP PUSH1 0x0 DUP1 SLOAD PUSH1 0xFF NOT AND PUSH1 0x1 OR SWAP1 SSTORE SWAP2 SWAP1 POP JUMP JUMPDEST PUSH1 0x0 PUSH32 0x45B96FE442630264581B197E84BBADA861235052C5A1AADFFF9EA4E40A969AA0 DUP4 PUSH1 0x10 DUP2 GT ISZERO PUSH2 0x27C8 JUMPI INVALID JUMPDEST DUP4 PUSH1 0x50 DUP2 GT ISZERO PUSH2 0x27D4 JUMPI INVALID JUMPDEST PUSH1 0x40 DUP1 MLOAD SWAP3 DUP4 MSTORE PUSH1 0x20 DUP4 ADD SWAP2 SWAP1 SWAP2 MSTORE PUSH1 0x0 DUP3 DUP3 ADD MSTORE MLOAD SWAP1 DUP2 SWAP1 SUB PUSH1 0x60 ADD SWAP1 LOG1 DUP3 PUSH1 0x10 DUP2 GT ISZERO PUSH2 0x157C JUMPI INVALID JUMPDEST PUSH1 0x0 DUP3 SWAP1 POP PUSH1 0x0 DUP3 SWAP1 POP PUSH1 0x0 DUP3 PUSH1 0x1 PUSH1 0x1 PUSH1 0xA0 SHL SUB AND PUSH4 0xF4B9FA75 PUSH1 0x40 MLOAD DUP2 PUSH4 0xFFFFFFFF AND PUSH1 0xE0 SHL DUP2 MSTORE PUSH1 0x4 ADD PUSH1 0x20 PUSH1 0x40 MLOAD DUP1 DUP4 SUB DUP2 PUSH1 0x0 DUP8 DUP1 EXTCODESIZE ISZERO DUP1 ISZERO PUSH2 0x2846 JUMPI PUSH1 0x0 DUP1 REVERT JUMPDEST POP GAS CALL ISZERO DUP1 ISZERO PUSH2 0x285A JUMPI RETURNDATASIZE PUSH1 0x0 DUP1 RETURNDATACOPY RETURNDATASIZE PUSH1 0x0 REVERT JUMPDEST POP POP POP POP PUSH1 0x40 MLOAD RETURNDATASIZE PUSH1 0x20 DUP2 LT ISZERO PUSH2 0x2870 JUMPI PUSH1 0x0 DUP1 REVERT JUMPDEST POP MLOAD PUSH1 0x40 DUP1 MLOAD PUSH4 0x36569E77 PUSH1 0xE0 SHL DUP2 MSTORE SWAP1 MLOAD SWAP2 SWAP3 POP PUSH1 0x0 SWAP2 PUSH1 0x1 PUSH1 0x1 PUSH1 0xA0 SHL SUB DUP7 AND SWAP2 PUSH4 0x36569E77 SWAP2 PUSH1 0x4 DUP1 DUP4 ADD SWAP3 PUSH1 0x20 SWAP3 SWAP2 SWAP1 DUP3 SWAP1 SUB ADD DUP2 DUP8 DUP8 DUP1 EXTCODESIZE ISZERO DUP1 ISZERO PUSH2 0x28B9 JUMPI PUSH1 0x0 DUP1 REVERT JUMPDEST POP GAS CALL ISZERO DUP1 ISZERO PUSH2 0x28CD JUMPI RETURNDATASIZE PUSH1 0x0 DUP1 RETURNDATACOPY RETURNDATASIZE PUSH1 0x0 REVERT JUMPDEST POP POP POP POP PUSH1 0x40 MLOAD RETURNDATASIZE PUSH1 0x20 DUP2 LT ISZERO PUSH2 0x28E3 JUMPI PUSH1 0x0 DUP1 REVERT JUMPDEST POP MLOAD PUSH1 0x11 SLOAD SWAP1 SWAP2 POP PUSH1 0x1 PUSH1 0x1 PUSH1 0xA0 SHL SUB DUP4 DUP2 AND SWAP2 AND EQ PUSH2 0x2934 JUMPI PUSH1 0x40 MLOAD PUSH3 0x461BCD PUSH1 0xE5 SHL DUP2 MSTORE PUSH1 0x4 ADD DUP1 DUP1 PUSH1 0x20 ADD DUP3 DUP2 SUB DUP3 MSTORE PUSH1 0x22 DUP2 MSTORE PUSH1 0x20 ADD DUP1 PUSH2 0x58A4 PUSH1 0x22 SWAP2 CODECOPY PUSH1 0x40 ADD SWAP2 POP POP PUSH1 0x40 MLOAD DUP1 SWAP2 SUB SWAP1 REVERT JUMPDEST PUSH1 0x13 DUP1 SLOAD PUSH1 0x1 PUSH1 0x1 PUSH1 0xA0 SHL SUB DUP1 DUP10 AND PUSH1 0x1 PUSH1 0x1 PUSH1 0xA0 SHL SUB NOT SWAP3 DUP4 AND OR SWAP3 DUP4 SWAP1 SSTORE PUSH1 0x14 DUP1 SLOAD DUP10 DUP4 AND SWAP1 DUP5 AND OR SWAP1 SSTORE PUSH1 0x15 DUP1 SLOAD DUP6 DUP4 AND SWAP4 AND SWAP3 SWAP1 SWAP3 OR SWAP1 SWAP2 SSTORE PUSH1 0x40 DUP1 MLOAD PUSH4 0x95EA7B3 PUSH1 0xE0 SHL DUP2 MSTORE SWAP3 DUP3 AND PUSH1 0x4 DUP5 ADD MSTORE PUSH1 0x0 NOT PUSH1 0x24 DUP5 ADD MSTORE MLOAD SWAP1 DUP5 AND SWAP2 PUSH4 0x95EA7B3 SWAP2 PUSH1 0x44 DUP1 DUP4 ADD SWAP3 PUSH1 0x0 SWAP3 SWAP2 SWAP1 DUP3 SWAP1 SUB ADD DUP2 DUP4 DUP8 DUP1 EXTCODESIZE ISZERO DUP1 ISZERO PUSH2 0x29BA JUMPI PUSH1 0x0 DUP1 REVERT JUMPDEST POP GAS CALL ISZERO DUP1 ISZERO PUSH2 0x29CE JUMPI RETURNDATASIZE PUSH1 0x0 DUP1 RETURNDATACOPY RETURNDATASIZE PUSH1 0x0 REVERT JUMPDEST POP POP PUSH1 0x14 SLOAD PUSH1 0x40 DUP1 MLOAD PUSH4 0x28EC8BF1 PUSH1 0xE2 SHL DUP2 MSTORE PUSH1 0x1 PUSH1 0x1 PUSH1 0xA0 SHL SUB SWAP3 DUP4 AND PUSH1 0x4 DUP3 ADD MSTORE SWAP1 MLOAD SWAP2 DUP6 AND SWAP4 POP PUSH4 0xA3B22FC4 SWAP3 POP PUSH1 0x24 DUP1 DUP3 ADD SWAP3 PUSH1 0x0 SWAP3 SWAP1 SWAP2 SWAP1 DUP3 SWAP1 SUB ADD DUP2 DUP4 DUP8 DUP1 EXTCODESIZE ISZERO DUP1 ISZERO PUSH2 0x2A20 JUMPI PUSH1 0x0 DUP1 REVERT JUMPDEST POP GAS CALL ISZERO DUP1 ISZERO PUSH2 0x2A34 JUMPI RETURNDATASIZE PUSH1 0x0 DUP1 RETURNDATACOPY RETURNDATASIZE PUSH1 0x0 REVERT JUMPDEST POP POP PUSH1 0x13 SLOAD PUSH1 0x40 DUP1 MLOAD PUSH4 0x28EC8BF1 PUSH1 0xE2 SHL DUP2 MSTORE PUSH1 0x1 PUSH1 0x1 PUSH1 0xA0 SHL SUB SWAP3 DUP4 AND PUSH1 0x4 DUP3 ADD MSTORE SWAP1 MLOAD SWAP2 DUP6 AND SWAP4 POP PUSH4 0xA3B22FC4 SWAP3 POP PUSH1 0x24 DUP1 DUP3 ADD SWAP3 PUSH1 0x0 SWAP3 SWAP1 SWAP2 SWAP1 DUP3 SWAP1 SUB ADD DUP2 DUP4 DUP8 DUP1 EXTCODESIZE ISZERO DUP1 ISZERO PUSH2 0x2A86 JUMPI PUSH1 0x0 DUP1 REVERT JUMPDEST POP GAS CALL ISZERO DUP1 ISZERO PUSH2 0x2A9A JUMPI RETURNDATASIZE PUSH1 0x0 DUP1 RETURNDATACOPY RETURNDATASIZE PUSH1 0x0 REVERT JUMPDEST POP POP POP POP DUP3 PUSH1 0x1 PUSH1 0x1 PUSH1 0xA0 SHL SUB AND PUSH4 0x9F678CCA PUSH1 0x40 MLOAD DUP2 PUSH4 0xFFFFFFFF AND PUSH1 0xE0 SHL DUP2 MSTORE PUSH1 0x4 ADD PUSH1 0x20 PUSH1 0x40 MLOAD DUP1 DUP4 SUB DUP2 PUSH1 0x0 DUP8 DUP1 EXTCODESIZE ISZERO DUP1 ISZERO PUSH2 0x2AD9 JUMPI PUSH1 0x0 DUP1 REVERT JUMPDEST POP GAS CALL ISZERO DUP1 ISZERO PUSH2 0x2AED JUMPI RETURNDATASIZE PUSH1 0x0 DUP1 RETURNDATACOPY RETURNDATASIZE PUSH1 0x0 REVERT JUMPDEST POP POP POP POP PUSH1 0x40 MLOAD RETURNDATASIZE PUSH1 0x20 DUP2 LT ISZERO PUSH2 0x2B03 JUMPI PUSH1 0x0 DUP1 REVERT JUMPDEST POP PUSH2 0x2B11 SWAP1 POP ADDRESS PUSH1 0x0 PUSH2 0x3E38 JUMP JUMPDEST POP POP POP POP POP POP POP JUMP JUMPDEST PUSH1 0x3 SLOAD PUSH1 0x0 SWAP1 DUP2 SWAP1 PUSH2 0x100 SWAP1 DIV PUSH1 0x1 PUSH1 0x1 PUSH1 0xA0 SHL SUB AND CALLER EQ PUSH2 0x2B42 JUMPI PUSH2 0x1FDD PUSH1 0x1 PUSH1 0x31 PUSH2 0x2799 JUMP JUMPDEST PUSH2 0x2B4A PUSH2 0x2D82 JUMP JUMPDEST PUSH1 0x9 SLOAD EQ PUSH2 0x2B5E JUMPI PUSH2 0x1FDD PUSH1 0xA PUSH1 0x33 PUSH2 0x2799 JUMP JUMPDEST DUP3 PUSH2 0x2B67 PUSH2 0x25F3 JUMP JUMPDEST LT ISZERO PUSH2 0x2B79 JUMPI PUSH2 0x1FDD PUSH1 0xE PUSH1 0x32 PUSH2 0x2799 JUMP JUMPDEST PUSH1 0xC SLOAD DUP4 GT ISZERO PUSH2 0x2B8F JUMPI PUSH2 0x1FDD PUSH1 0x2 PUSH1 0x34 PUSH2 0x2799 JUMP JUMPDEST POP PUSH1 0xC SLOAD DUP3 DUP2 SUB SWAP1 DUP2 GT ISZERO PUSH2 0x2BD5 JUMPI PUSH1 0x40 MLOAD PUSH3 0x461BCD PUSH1 0xE5 SHL DUP2 MSTORE PUSH1 0x4 ADD DUP1 DUP1 PUSH1 0x20 ADD DUP3 DUP2 SUB DUP3 MSTORE PUSH1 0x24 DUP2 MSTORE PUSH1 0x20 ADD DUP1 PUSH2 0x5A39 PUSH1 0x24 SWAP2 CODECOPY PUSH1 0x40 ADD SWAP2 POP POP PUSH1 0x40 MLOAD DUP1 SWAP2 SUB SWAP1 REVERT JUMPDEST PUSH1 0xC DUP2 SWAP1 SSTORE PUSH1 0x3 SLOAD PUSH2 0x2BF5 SWAP1 PUSH2 0x100 SWAP1 DIV PUSH1 0x1 PUSH1 0x1 PUSH1 0xA0 SHL SUB AND DUP5 PUSH2 0x415D JUMP JUMPDEST PUSH1 0x3 SLOAD PUSH1 0x40 DUP1 MLOAD PUSH2 0x100 SWAP1 SWAP3 DIV PUSH1 0x1 PUSH1 0x1 PUSH1 0xA0 SHL SUB AND DUP3 MSTORE PUSH1 0x20 DUP3 ADD DUP6 SWAP1 MSTORE DUP2 DUP2 ADD DUP4 SWAP1 MSTORE MLOAD PUSH32 0x3BAD0C59CF2F06E7314077049F48A93578CD16F5EF92329F1DAB1420A99C177E SWAP2 PUSH1 0x60 SWAP1 DUP3 SWAP1 SUB ADD SWAP1 LOG1 PUSH1 0x0 PUSH2 0x157C JUMP JUMPDEST PUSH1 0x0 DUP1 SLOAD PUSH1 0xFF AND PUSH2 0x2C92 JUMPI PUSH1 0x40 DUP1 MLOAD PUSH3 0x461BCD PUSH1 0xE5 SHL DUP2 MSTORE PUSH1 0x20 PUSH1 0x4 DUP3 ADD MSTORE PUSH1 0xA PUSH1 0x24 DUP3 ADD MSTORE PUSH10 0x1C994B595B9D195C9959 PUSH1 0xB2 SHL PUSH1 0x44 DUP3 ADD MSTORE SWAP1 MLOAD SWAP1 DUP2 SWAP1 SUB PUSH1 0x64 ADD SWAP1 REVERT JUMPDEST PUSH1 0x0 DUP1 SLOAD PUSH1 0xFF NOT AND DUP2 SSTORE PUSH2 0x2CA4 PUSH2 0x1A91 JUMP JUMPDEST SWAP1 POP DUP1 ISZERO PUSH2 0x2CC2 JUMPI PUSH2 0x169F DUP2 PUSH1 0x10 DUP2 GT ISZERO PUSH2 0x2CBB JUMPI INVALID JUMPDEST PUSH1 0x27 PUSH2 0x2799 JUMP JUMPDEST PUSH2 0x16B0 CALLER PUSH1 0x0 DUP6 PUSH2 0x42C2 JUMP JUMPDEST PUSH1 0x1 PUSH1 0x1 PUSH1 0xA0 SHL SUB DUP2 AND PUSH1 0x0 SWAP1 DUP2 MSTORE PUSH1 0x10 PUSH1 0x20 MSTORE PUSH1 0x40 DUP2 KECCAK256 DUP1 SLOAD DUP3 SWAP2 DUP3 SWAP2 DUP3 SWAP2 DUP3 SWAP2 PUSH2 0x2D05 JUMPI POP PUSH1 0x0 SWAP5 POP DUP5 SWAP4 POP PUSH2 0x2D7D SWAP3 POP POP POP JUMP JUMPDEST PUSH2 0x2D15 DUP2 PUSH1 0x0 ADD SLOAD PUSH1 0xA SLOAD PUSH2 0x47B9 JUMP JUMPDEST SWAP1 SWAP5 POP SWAP3 POP PUSH1 0x0 DUP5 PUSH1 0x3 DUP2 GT ISZERO PUSH2 0x2D28 JUMPI INVALID JUMPDEST EQ PUSH2 0x2D3D JUMPI POP SWAP2 SWAP4 POP PUSH1 0x0 SWAP3 POP PUSH2 0x2D7D SWAP2 POP POP JUMP JUMPDEST PUSH2 0x2D4B DUP4 DUP3 PUSH1 0x1 ADD SLOAD PUSH2 0x47F8 JUMP JUMPDEST SWAP1 SWAP5 POP SWAP2 POP PUSH1 0x0 DUP5 PUSH1 0x3 DUP2 GT ISZERO PUSH2 0x2D5E JUMPI INVALID JUMPDEST EQ PUSH2 0x2D73 JUMPI POP SWAP2 SWAP4 POP PUSH1 0x0 SWAP3 POP PUSH2 0x2D7D SWAP2 POP POP JUMP JUMPDEST POP PUSH1 0x0 SWAP5 POP SWAP3 POP POP POP JUMPDEST SWAP2 POP SWAP2 JUMP JUMPDEST NUMBER SWAP1 JUMP JUMPDEST PUSH1 0x3 SLOAD PUSH1 0x0 SWAP1 DUP2 SWAP1 PUSH2 0x100 SWAP1 DIV PUSH1 0x1 PUSH1 0x1 PUSH1 0xA0 SHL SUB AND CALLER EQ PUSH2 0x2DAE JUMPI PUSH2 0x1FDD PUSH1 0x1 PUSH1 0x42 PUSH2 0x2799 JUMP JUMPDEST PUSH2 0x2DB6 PUSH2 0x2D82 JUMP JUMPDEST PUSH1 0x9 SLOAD EQ PUSH2 0x2DCA JUMPI PUSH2 0x1FDD PUSH1 0xA PUSH1 0x41 PUSH2 0x2799 JUMP JUMPDEST PUSH1 0x6 PUSH1 0x0 SWAP1 SLOAD SWAP1 PUSH2 0x100 EXP SWAP1 DIV PUSH1 0x1 PUSH1 0x1 PUSH1 0xA0 SHL SUB AND SWAP1 POP DUP3 PUSH1 0x1 PUSH1 0x1 PUSH1 0xA0 SHL SUB AND PUSH4 0x2191F92A PUSH1 0x40 MLOAD DUP2 PUSH4 0xFFFFFFFF AND PUSH1 0xE0 SHL DUP2 MSTORE PUSH1 0x4 ADD PUSH1 0x20 PUSH1 0x40 MLOAD DUP1 DUP4 SUB DUP2 DUP7 DUP1 EXTCODESIZE ISZERO DUP1 ISZERO PUSH2 0x2E1B JUMPI PUSH1 0x0 DUP1 REVERT JUMPDEST POP GAS STATICCALL ISZERO DUP1 ISZERO PUSH2 0x2E2F JUMPI RETURNDATASIZE PUSH1 0x0 DUP1 RETURNDATACOPY RETURNDATASIZE PUSH1 0x0 REVERT JUMPDEST POP POP POP POP PUSH1 0x40 MLOAD RETURNDATASIZE PUSH1 0x20 DUP2 LT ISZERO PUSH2 0x2E45 JUMPI PUSH1 0x0 DUP1 REVERT JUMPDEST POP MLOAD PUSH2 0x2E98 JUMPI PUSH1 0x40 DUP1 MLOAD PUSH3 0x461BCD PUSH1 0xE5 SHL DUP2 MSTORE PUSH1 0x20 PUSH1 0x4 DUP3 ADD MSTORE PUSH1 0x1C PUSH1 0x24 DUP3 ADD MSTORE PUSH32 0x6D61726B6572206D6574686F642072657475726E65642066616C736500000000 PUSH1 0x44 DUP3 ADD MSTORE SWAP1 MLOAD SWAP1 DUP2 SWAP1 SUB PUSH1 0x64 ADD SWAP1 REVERT JUMPDEST PUSH1 0x6 DUP1 SLOAD PUSH1 0x1 PUSH1 0x1 PUSH1 0xA0 SHL SUB NOT AND PUSH1 0x1 PUSH1 0x1 PUSH1 0xA0 SHL SUB DUP6 DUP2 AND SWAP2 DUP3 OR SWAP1 SWAP3 SSTORE PUSH1 0x40 DUP1 MLOAD SWAP3 DUP5 AND DUP4 MSTORE PUSH1 0x20 DUP4 ADD SWAP2 SWAP1 SWAP2 MSTORE DUP1 MLOAD PUSH32 0xEDFFC32E068C7C95DFD4BDFD5C4D939A084D6B11C4199EAC8436ED234D72F926 SWAP3 DUP2 SWAP1 SUB SWAP1 SWAP2 ADD SWAP1 LOG1 PUSH1 0x0 PUSH2 0x157C JUMP JUMPDEST PUSH1 0x0 DUP1 SLOAD DUP2 SWAP1 PUSH1 0xFF AND PUSH2 0x2F42 JUMPI PUSH1 0x40 DUP1 MLOAD PUSH3 0x461BCD PUSH1 0xE5 SHL DUP2 MSTORE PUSH1 0x20 PUSH1 0x4 DUP3 ADD MSTORE PUSH1 0xA PUSH1 0x24 DUP3 ADD MSTORE PUSH10 0x1C994B595B9D195C9959 PUSH1 0xB2 SHL PUSH1 0x44 DUP3 ADD MSTORE SWAP1 MLOAD SWAP1 DUP2 SWAP1 SUB PUSH1 0x64 ADD SWAP1 REVERT JUMPDEST PUSH1 0x0 DUP1 SLOAD PUSH1 0xFF NOT AND DUP2 SSTORE PUSH2 0x2F54 PUSH2 0x1A91 JUMP JUMPDEST SWAP1 POP DUP1 ISZERO PUSH2 0x2F72 JUMPI PUSH2 0x2187 DUP2 PUSH1 0x10 DUP2 GT ISZERO PUSH2 0x2F6B JUMPI INVALID JUMPDEST PUSH1 0x1E PUSH2 0x2799 JUMP JUMPDEST PUSH2 0x219F CALLER DUP6 PUSH2 0x4823 JUMP JUMPDEST PUSH1 0x0 DUP1 PUSH2 0x2F87 PUSH2 0x2D82 JUMP JUMPDEST PUSH1 0x9 SLOAD SWAP1 SWAP2 POP DUP1 DUP3 EQ ISZERO PUSH2 0x2FA0 JUMPI PUSH1 0x0 SWAP3 POP POP POP PUSH2 0x10EB JUMP JUMPDEST PUSH1 0x0 PUSH2 0x2FAA PUSH2 0x25F3 JUMP JUMPDEST PUSH1 0xB SLOAD PUSH1 0xC SLOAD PUSH1 0xA SLOAD PUSH1 0x6 SLOAD PUSH1 0x40 DUP1 MLOAD PUSH4 0x15F24053 PUSH1 0xE0 SHL DUP2 MSTORE PUSH1 0x4 DUP2 ADD DUP8 SWAP1 MSTORE PUSH1 0x24 DUP2 ADD DUP7 SWAP1 MSTORE PUSH1 0x44 DUP2 ADD DUP6 SWAP1 MSTORE SWAP1 MLOAD SWAP6 SWAP7 POP SWAP4 SWAP5 SWAP3 SWAP4 SWAP2 SWAP3 PUSH1 0x0 SWAP3 PUSH1 0x1 PUSH1 0x1 PUSH1 0xA0 SHL SUB SWAP1 SWAP3 AND SWAP2 PUSH4 0x15F24053 SWAP2 PUSH1 0x64 DUP1 DUP4 ADD SWAP3 PUSH1 0x20 SWAP3 SWAP2 SWAP1 DUP3 SWAP1 SUB ADD DUP2 DUP7 DUP1 EXTCODESIZE ISZERO DUP1 ISZERO PUSH2 0x3018 JUMPI PUSH1 0x0 DUP1 REVERT JUMPDEST POP GAS STATICCALL ISZERO DUP1 ISZERO PUSH2 0x302C JUMPI RETURNDATASIZE PUSH1 0x0 DUP1 RETURNDATACOPY RETURNDATASIZE PUSH1 0x0 REVERT JUMPDEST POP POP POP POP PUSH1 0x40 MLOAD RETURNDATASIZE PUSH1 0x20 DUP2 LT ISZERO PUSH2 0x3042 JUMPI PUSH1 0x0 DUP1 REVERT JUMPDEST POP MLOAD SWAP1 POP PUSH6 0x48C27395000 DUP2 GT ISZERO PUSH2 0x30A1 JUMPI PUSH1 0x40 DUP1 MLOAD PUSH3 0x461BCD PUSH1 0xE5 SHL DUP2 MSTORE PUSH1 0x20 PUSH1 0x4 DUP3 ADD MSTORE PUSH1 0x1C PUSH1 0x24 DUP3 ADD MSTORE PUSH32 0x626F72726F772072617465206973206162737572646C79206869676800000000 PUSH1 0x44 DUP3 ADD MSTORE SWAP1 MLOAD SWAP1 DUP2 SWAP1 SUB PUSH1 0x64 ADD SWAP1 REVERT JUMPDEST PUSH1 0x0 DUP1 PUSH2 0x30AE DUP10 DUP10 PUSH2 0x3C35 JUMP JUMPDEST SWAP1 SWAP3 POP SWAP1 POP PUSH1 0x0 DUP3 PUSH1 0x3 DUP2 GT ISZERO PUSH2 0x30C1 JUMPI INVALID JUMPDEST EQ PUSH2 0x3113 JUMPI PUSH1 0x40 DUP1 MLOAD PUSH3 0x461BCD PUSH1 0xE5 SHL DUP2 MSTORE PUSH1 0x20 PUSH1 0x4 DUP3 ADD MSTORE PUSH1 0x1F PUSH1 0x24 DUP3 ADD MSTORE PUSH32 0x636F756C64206E6F742063616C63756C61746520626C6F636B2064656C746100 PUSH1 0x44 DUP3 ADD MSTORE SWAP1 MLOAD SWAP1 DUP2 SWAP1 SUB PUSH1 0x64 ADD SWAP1 REVERT JUMPDEST PUSH2 0x311B PUSH2 0x55C1 JUMP JUMPDEST PUSH1 0x0 DUP1 PUSH1 0x0 DUP1 PUSH2 0x3139 PUSH1 0x40 MLOAD DUP1 PUSH1 0x20 ADD PUSH1 0x40 MSTORE DUP1 DUP11 DUP2 MSTORE POP DUP8 PUSH2 0x3C7E JUMP JUMPDEST SWAP1 SWAP8 POP SWAP5 POP PUSH1 0x0 DUP8 PUSH1 0x3 DUP2 GT ISZERO PUSH2 0x314C JUMPI INVALID JUMPDEST EQ PUSH2 0x317E JUMPI PUSH2 0x3169 PUSH1 0x9 PUSH1 0x6 DUP10 PUSH1 0x3 DUP2 GT ISZERO PUSH2 0x3164 JUMPI INVALID JUMPDEST PUSH2 0x3BCF JUMP JUMPDEST SWAP15 POP POP POP POP POP POP POP POP POP POP POP POP POP POP POP PUSH2 0x10EB JUMP JUMPDEST PUSH2 0x3188 DUP6 DUP13 PUSH2 0x259F JUMP JUMPDEST SWAP1 SWAP8 POP SWAP4 POP PUSH1 0x0 DUP8 PUSH1 0x3 DUP2 GT ISZERO PUSH2 0x319B JUMPI INVALID JUMPDEST EQ PUSH2 0x31B3 JUMPI PUSH2 0x3169 PUSH1 0x9 PUSH1 0x1 DUP10 PUSH1 0x3 DUP2 GT ISZERO PUSH2 0x3164 JUMPI INVALID JUMPDEST PUSH2 0x31BD DUP5 DUP13 PUSH2 0x3C58 JUMP JUMPDEST SWAP1 SWAP8 POP SWAP3 POP PUSH1 0x0 DUP8 PUSH1 0x3 DUP2 GT ISZERO PUSH2 0x31D0 JUMPI INVALID JUMPDEST EQ PUSH2 0x31E8 JUMPI PUSH2 0x3169 PUSH1 0x9 PUSH1 0x4 DUP10 PUSH1 0x3 DUP2 GT ISZERO PUSH2 0x3164 JUMPI INVALID JUMPDEST PUSH2 0x3203 PUSH1 0x40 MLOAD DUP1 PUSH1 0x20 ADD PUSH1 0x40 MSTORE DUP1 PUSH1 0x8 SLOAD DUP2 MSTORE POP DUP6 DUP13 PUSH2 0x4BF3 JUMP JUMPDEST SWAP1 SWAP8 POP SWAP2 POP PUSH1 0x0 DUP8 PUSH1 0x3 DUP2 GT ISZERO PUSH2 0x3216 JUMPI INVALID JUMPDEST EQ PUSH2 0x322E JUMPI PUSH2 0x3169 PUSH1 0x9 PUSH1 0x5 DUP10 PUSH1 0x3 DUP2 GT ISZERO PUSH2 0x3164 JUMPI INVALID JUMPDEST PUSH2 0x3239 DUP6 DUP11 DUP12 PUSH2 0x4BF3 JUMP JUMPDEST SWAP1 SWAP8 POP SWAP1 POP PUSH1 0x0 DUP8 PUSH1 0x3 DUP2 GT ISZERO PUSH2 0x324C JUMPI INVALID JUMPDEST EQ PUSH2 0x3264 JUMPI PUSH2 0x3169 PUSH1 0x9 PUSH1 0x3 DUP10 PUSH1 0x3 DUP2 GT ISZERO PUSH2 0x3164 JUMPI INVALID JUMPDEST PUSH1 0x9 DUP15 SWAP1 SSTORE PUSH1 0xA DUP2 SWAP1 SSTORE PUSH1 0xB DUP4 SWAP1 SSTORE PUSH1 0xC DUP3 SWAP1 SSTORE PUSH1 0x40 DUP1 MLOAD DUP14 DUP2 MSTORE PUSH1 0x20 DUP2 ADD DUP7 SWAP1 MSTORE DUP1 DUP3 ADD DUP4 SWAP1 MSTORE PUSH1 0x60 DUP2 ADD DUP6 SWAP1 MSTORE SWAP1 MLOAD PUSH32 0x4DEC04E750CA11537CABCD8A9EAB06494DE08DA3735BC8871CD41250E190BC04 SWAP2 DUP2 SWAP1 SUB PUSH1 0x80 ADD SWAP1 LOG1 PUSH1 0x0 SWAP15 POP POP POP POP POP POP POP POP POP POP POP POP POP POP POP SWAP1 JUMP JUMPDEST PUSH1 0x5 SLOAD PUSH1 0x40 DUP1 MLOAD PUSH4 0xD02F7351 PUSH1 0xE0 SHL DUP2 MSTORE ADDRESS PUSH1 0x4 DUP3 ADD MSTORE PUSH1 0x1 PUSH1 0x1 PUSH1 0xA0 SHL SUB DUP8 DUP2 AND PUSH1 0x24 DUP4 ADD MSTORE DUP7 DUP2 AND PUSH1 0x44 DUP4 ADD MSTORE DUP6 DUP2 AND PUSH1 0x64 DUP4 ADD MSTORE PUSH1 0x84 DUP3 ADD DUP6 SWAP1 MSTORE SWAP2 MLOAD PUSH1 0x0 SWAP4 DUP5 SWAP4 AND SWAP2 PUSH4 0xD02F7351 SWAP2 PUSH1 0xA4 DUP1 DUP4 ADD SWAP3 PUSH1 0x20 SWAP3 SWAP2 SWAP1 DUP3 SWAP1 SUB ADD DUP2 DUP8 DUP8 DUP1 EXTCODESIZE ISZERO DUP1 ISZERO PUSH2 0x3341 JUMPI PUSH1 0x0 DUP1 REVERT JUMPDEST POP GAS CALL ISZERO DUP1 ISZERO PUSH2 0x3355 JUMPI RETURNDATASIZE PUSH1 0x0 DUP1 RETURNDATACOPY RETURNDATASIZE PUSH1 0x0 REVERT JUMPDEST POP POP POP POP PUSH1 0x40 MLOAD RETURNDATASIZE PUSH1 0x20 DUP2 LT ISZERO PUSH2 0x336B JUMPI PUSH1 0x0 DUP1 REVERT JUMPDEST POP MLOAD SWAP1 POP DUP1 ISZERO PUSH2 0x3382 JUMPI PUSH2 0x230E PUSH1 0x3 PUSH1 0x1B DUP4 PUSH2 0x3BCF JUMP JUMPDEST DUP5 PUSH1 0x1 PUSH1 0x1 PUSH1 0xA0 SHL SUB AND DUP5 PUSH1 0x1 PUSH1 0x1 PUSH1 0xA0 SHL SUB AND EQ ISZERO PUSH2 0x33A8 JUMPI PUSH2 0x230E PUSH1 0x6 PUSH1 0x1C PUSH2 0x2799 JUMP JUMPDEST PUSH1 0x1 PUSH1 0x1 PUSH1 0xA0 SHL SUB DUP5 AND PUSH1 0x0 SWAP1 DUP2 MSTORE PUSH1 0xE PUSH1 0x20 MSTORE PUSH1 0x40 DUP2 KECCAK256 SLOAD DUP2 SWAP1 DUP2 SWAP1 PUSH2 0x33CF SWAP1 DUP8 PUSH2 0x3C35 JUMP JUMPDEST SWAP1 SWAP4 POP SWAP2 POP PUSH1 0x0 DUP4 PUSH1 0x3 DUP2 GT ISZERO PUSH2 0x33E2 JUMPI INVALID JUMPDEST EQ PUSH2 0x3405 JUMPI PUSH2 0x33FA PUSH1 0x9 PUSH1 0x1A DUP6 PUSH1 0x3 DUP2 GT ISZERO PUSH2 0x3164 JUMPI INVALID JUMPDEST SWAP5 POP POP POP POP POP PUSH2 0x140C JUMP JUMPDEST PUSH1 0x1 PUSH1 0x1 PUSH1 0xA0 SHL SUB DUP9 AND PUSH1 0x0 SWAP1 DUP2 MSTORE PUSH1 0xE PUSH1 0x20 MSTORE PUSH1 0x40 SWAP1 KECCAK256 SLOAD PUSH2 0x3428 SWAP1 DUP8 PUSH2 0x3C58 JUMP JUMPDEST SWAP1 SWAP4 POP SWAP1 POP PUSH1 0x0 DUP4 PUSH1 0x3 DUP2 GT ISZERO PUSH2 0x343B JUMPI INVALID JUMPDEST EQ PUSH2 0x3453 JUMPI PUSH2 0x33FA PUSH1 0x9 PUSH1 0x19 DUP6 PUSH1 0x3 DUP2 GT ISZERO PUSH2 0x3164 JUMPI INVALID JUMPDEST PUSH1 0x1 PUSH1 0x1 PUSH1 0xA0 SHL SUB DUP1 DUP9 AND PUSH1 0x0 DUP2 DUP2 MSTORE PUSH1 0xE PUSH1 0x20 SWAP1 DUP2 MSTORE PUSH1 0x40 DUP1 DUP4 KECCAK256 DUP8 SWAP1 SSTORE SWAP4 DUP13 AND DUP1 DUP4 MSTORE SWAP2 DUP5 SWAP1 KECCAK256 DUP6 SWAP1 SSTORE DUP4 MLOAD DUP11 DUP2 MSTORE SWAP4 MLOAD SWAP2 SWAP4 PUSH1 0x0 DUP1 MLOAD PUSH1 0x20 PUSH2 0x5900 DUP4 CODECOPY DUP2 MLOAD SWAP2 MSTORE SWAP3 SWAP1 DUP2 SWAP1 SUB SWAP1 SWAP2 ADD SWAP1 LOG3 PUSH1 0x0 SWAP10 SWAP9 POP POP POP POP POP POP POP POP POP JUMP JUMPDEST PUSH1 0x0 DUP1 SLOAD PUSH1 0xFF AND PUSH2 0x34F5 JUMPI PUSH1 0x40 DUP1 MLOAD PUSH3 0x461BCD PUSH1 0xE5 SHL DUP2 MSTORE PUSH1 0x20 PUSH1 0x4 DUP3 ADD MSTORE PUSH1 0xA PUSH1 0x24 DUP3 ADD MSTORE PUSH10 0x1C994B595B9D195C9959 PUSH1 0xB2 SHL PUSH1 0x44 DUP3 ADD MSTORE SWAP1 MLOAD SWAP1 DUP2 SWAP1 SUB PUSH1 0x64 ADD SWAP1 REVERT JUMPDEST PUSH1 0x0 DUP1 SLOAD PUSH1 0xFF NOT AND DUP2 SSTORE PUSH2 0x3507 PUSH2 0x1A91 JUMP JUMPDEST SWAP1 POP DUP1 ISZERO PUSH2 0x3525 JUMPI PUSH2 0x169F DUP2 PUSH1 0x10 DUP2 GT ISZERO PUSH2 0x351E JUMPI INVALID JUMPDEST PUSH1 0x8 PUSH2 0x2799 JUMP JUMPDEST PUSH2 0x16B0 CALLER DUP5 PUSH2 0x4C40 JUMP JUMPDEST PUSH1 0x0 DUP1 SLOAD PUSH1 0xFF AND PUSH2 0x3574 JUMPI PUSH1 0x40 DUP1 MLOAD PUSH3 0x461BCD PUSH1 0xE5 SHL DUP2 MSTORE PUSH1 0x20 PUSH1 0x4 DUP3 ADD MSTORE PUSH1 0xA PUSH1 0x24 DUP3 ADD MSTORE PUSH10 0x1C994B595B9D195C9959 PUSH1 0xB2 SHL PUSH1 0x44 DUP3 ADD MSTORE SWAP1 MLOAD SWAP1 DUP2 SWAP1 SUB PUSH1 0x64 ADD SWAP1 REVERT JUMPDEST PUSH1 0x0 DUP1 SLOAD PUSH1 0xFF NOT AND DUP2 SSTORE PUSH2 0x3586 PUSH2 0x1A91 JUMP JUMPDEST SWAP1 POP DUP1 ISZERO PUSH2 0x359D JUMPI PUSH2 0x169F DUP2 PUSH1 0x10 DUP2 GT ISZERO PUSH2 0x2CBB JUMPI INVALID JUMPDEST PUSH2 0x16B0 CALLER DUP5 PUSH1 0x0 PUSH2 0x42C2 JUMP JUMPDEST PUSH1 0x0 DUP1 SLOAD DUP2 SWAP1 PUSH1 0xFF AND PUSH2 0x35F0 JUMPI PUSH1 0x40 DUP1 MLOAD PUSH3 0x461BCD PUSH1 0xE5 SHL DUP2 MSTORE PUSH1 0x20 PUSH1 0x4 DUP3 ADD MSTORE PUSH1 0xA PUSH1 0x24 DUP3 ADD MSTORE PUSH10 0x1C994B595B9D195C9959 PUSH1 0xB2 SHL PUSH1 0x44 DUP3 ADD MSTORE SWAP1 MLOAD SWAP1 DUP2 SWAP1 SUB PUSH1 0x64 ADD SWAP1 REVERT JUMPDEST PUSH1 0x0 DUP1 SLOAD PUSH1 0xFF NOT AND DUP2 SSTORE PUSH2 0x3602 PUSH2 0x1A91 JUMP JUMPDEST SWAP1 POP DUP1 ISZERO PUSH2 0x362D JUMPI PUSH2 0x3620 DUP2 PUSH1 0x10 DUP2 GT ISZERO PUSH2 0x3619 JUMPI INVALID JUMPDEST PUSH1 0xF PUSH2 0x2799 JUMP JUMPDEST SWAP3 POP PUSH1 0x0 SWAP2 POP PUSH2 0x36C4 SWAP1 POP JUMP JUMPDEST DUP4 PUSH1 0x1 PUSH1 0x1 PUSH1 0xA0 SHL SUB AND PUSH4 0xA6AFED95 PUSH1 0x40 MLOAD DUP2 PUSH4 0xFFFFFFFF AND PUSH1 0xE0 SHL DUP2 MSTORE PUSH1 0x4 ADD PUSH1 0x20 PUSH1 0x40 MLOAD DUP1 DUP4 SUB DUP2 PUSH1 0x0 DUP8 DUP1 EXTCODESIZE ISZERO DUP1 ISZERO PUSH2 0x3668 JUMPI PUSH1 0x0 DUP1 REVERT JUMPDEST POP GAS CALL ISZERO DUP1 ISZERO PUSH2 0x367C JUMPI RETURNDATASIZE PUSH1 0x0 DUP1 RETURNDATACOPY RETURNDATASIZE PUSH1 0x0 REVERT JUMPDEST POP POP POP POP PUSH1 0x40 MLOAD RETURNDATASIZE PUSH1 0x20 DUP2 LT ISZERO PUSH2 0x3692 JUMPI PUSH1 0x0 DUP1 REVERT JUMPDEST POP MLOAD SWAP1 POP DUP1 ISZERO PUSH2 0x36B2 JUMPI PUSH2 0x3620 DUP2 PUSH1 0x10 DUP2 GT ISZERO PUSH2 0x36AB JUMPI INVALID JUMPDEST PUSH1 0x10 PUSH2 0x2799 JUMP JUMPDEST PUSH2 0x36BE CALLER DUP8 DUP8 DUP8 PUSH2 0x4ED4 JUMP JUMPDEST SWAP3 POP SWAP3 POP POP JUMPDEST PUSH1 0x0 DUP1 SLOAD PUSH1 0xFF NOT AND PUSH1 0x1 OR SWAP1 SSTORE SWAP1 SWAP5 SWAP1 SWAP4 POP SWAP2 POP POP JUMP JUMPDEST PUSH1 0x3 SLOAD PUSH1 0x0 SWAP1 PUSH2 0x100 SWAP1 DIV PUSH1 0x1 PUSH1 0x1 PUSH1 0xA0 SHL SUB AND CALLER EQ PUSH2 0x3701 JUMPI PUSH2 0x1454 PUSH1 0x1 PUSH1 0x47 PUSH2 0x2799 JUMP JUMPDEST PUSH2 0x3709 PUSH2 0x2D82 JUMP JUMPDEST PUSH1 0x9 SLOAD EQ PUSH2 0x371D JUMPI PUSH2 0x1454 PUSH1 0xA PUSH1 0x48 PUSH2 0x2799 JUMP JUMPDEST PUSH8 0xDE0B6B3A7640000 DUP3 GT ISZERO PUSH2 0x3739 JUMPI PUSH2 0x1454 PUSH1 0x2 PUSH1 0x49 PUSH2 0x2799 JUMP JUMPDEST PUSH1 0x8 DUP1 SLOAD SWAP1 DUP4 SWAP1 SSTORE PUSH1 0x40 DUP1 MLOAD DUP3 DUP2 MSTORE PUSH1 0x20 DUP2 ADD DUP6 SWAP1 MSTORE DUP2 MLOAD PUSH32 0xAAA68312E2EA9D50E16AF5068410AB56E1A1FD06037B1A35664812C30F821460 SWAP3 SWAP2 DUP2 SWAP1 SUB SWAP1 SWAP2 ADD SWAP1 LOG1 PUSH1 0x0 PUSH2 0x157C JUMP JUMPDEST PUSH1 0x5 SLOAD PUSH1 0x40 DUP1 MLOAD PUSH4 0x12004531 PUSH1 0xE1 SHL DUP2 MSTORE ADDRESS PUSH1 0x4 DUP3 ADD MSTORE PUSH1 0x1 PUSH1 0x1 PUSH1 0xA0 SHL SUB DUP7 DUP2 AND PUSH1 0x24 DUP4 ADD MSTORE DUP6 DUP2 AND PUSH1 0x44 DUP4 ADD MSTORE PUSH1 0x64 DUP3 ADD DUP6 SWAP1 MSTORE SWAP2 MLOAD PUSH1 0x0 SWAP4 DUP5 SWAP4 DUP5 SWAP4 SWAP2 AND SWAP2 PUSH4 0x24008A62 SWAP2 PUSH1 0x84 DUP1 DUP3 ADD SWAP3 PUSH1 0x20 SWAP3 SWAP1 SWAP2 SWAP1 DUP3 SWAP1 SUB ADD DUP2 DUP8 DUP8 DUP1 EXTCODESIZE ISZERO DUP1 ISZERO PUSH2 0x37EC JUMPI PUSH1 0x0 DUP1 REVERT JUMPDEST POP GAS CALL ISZERO DUP1 ISZERO PUSH2 0x3800 JUMPI RETURNDATASIZE PUSH1 0x0 DUP1 RETURNDATACOPY RETURNDATASIZE PUSH1 0x0 REVERT JUMPDEST POP POP POP POP PUSH1 0x40 MLOAD RETURNDATASIZE PUSH1 0x20 DUP2 LT ISZERO PUSH2 0x3816 JUMPI PUSH1 0x0 DUP1 REVERT JUMPDEST POP MLOAD SWAP1 POP DUP1 ISZERO PUSH2 0x383A JUMPI PUSH2 0x382D PUSH1 0x3 PUSH1 0x38 DUP4 PUSH2 0x3BCF JUMP JUMPDEST SWAP3 POP PUSH1 0x0 SWAP2 POP PUSH2 0x3ACB SWAP1 POP JUMP JUMPDEST PUSH2 0x3842 PUSH2 0x2D82 JUMP JUMPDEST PUSH1 0x9 SLOAD EQ PUSH2 0x3856 JUMPI PUSH2 0x382D PUSH1 0xA PUSH1 0x39 PUSH2 0x2799 JUMP JUMPDEST PUSH2 0x385E PUSH2 0x5652 JUMP JUMPDEST PUSH1 0x1 PUSH1 0x1 PUSH1 0xA0 SHL SUB DUP7 AND PUSH1 0x0 SWAP1 DUP2 MSTORE PUSH1 0x10 PUSH1 0x20 MSTORE PUSH1 0x40 SWAP1 KECCAK256 PUSH1 0x1 ADD SLOAD PUSH1 0x60 DUP3 ADD MSTORE PUSH2 0x3888 DUP7 PUSH2 0x2CCE JUMP JUMPDEST PUSH1 0x80 DUP4 ADD DUP2 SWAP1 MSTORE PUSH1 0x20 DUP4 ADD DUP3 PUSH1 0x3 DUP2 GT ISZERO PUSH2 0x389F JUMPI INVALID JUMPDEST PUSH1 0x3 DUP2 GT ISZERO PUSH2 0x38AA JUMPI INVALID JUMPDEST SWAP1 MSTORE POP PUSH1 0x0 SWAP1 POP DUP2 PUSH1 0x20 ADD MLOAD PUSH1 0x3 DUP2 GT ISZERO PUSH2 0x38C1 JUMPI INVALID JUMPDEST EQ PUSH2 0x38EB JUMPI PUSH2 0x38DD PUSH1 0x9 PUSH1 0x37 DUP4 PUSH1 0x20 ADD MLOAD PUSH1 0x3 DUP2 GT ISZERO PUSH2 0x3164 JUMPI INVALID JUMPDEST SWAP4 POP PUSH1 0x0 SWAP3 POP PUSH2 0x3ACB SWAP2 POP POP JUMP JUMPDEST PUSH1 0x0 NOT DUP6 EQ ISZERO PUSH2 0x3904 JUMPI PUSH1 0x80 DUP2 ADD MLOAD PUSH1 0x40 DUP3 ADD MSTORE PUSH2 0x390C JUMP JUMPDEST PUSH1 0x40 DUP2 ADD DUP6 SWAP1 MSTORE JUMPDEST PUSH2 0x391A DUP8 DUP3 PUSH1 0x40 ADD MLOAD PUSH2 0x3E38 JUMP JUMPDEST PUSH1 0xE0 DUP3 ADD DUP2 SWAP1 MSTORE PUSH1 0x80 DUP3 ADD MLOAD PUSH2 0x392F SWAP2 PUSH2 0x3C35 JUMP JUMPDEST PUSH1 0xA0 DUP4 ADD DUP2 SWAP1 MSTORE PUSH1 0x20 DUP4 ADD DUP3 PUSH1 0x3 DUP2 GT ISZERO PUSH2 0x3946 JUMPI INVALID JUMPDEST PUSH1 0x3 DUP2 GT ISZERO PUSH2 0x3951 JUMPI INVALID JUMPDEST SWAP1 MSTORE POP PUSH1 0x0 SWAP1 POP DUP2 PUSH1 0x20 ADD MLOAD PUSH1 0x3 DUP2 GT ISZERO PUSH2 0x3968 JUMPI INVALID JUMPDEST EQ PUSH2 0x39A4 JUMPI PUSH1 0x40 MLOAD PUSH3 0x461BCD PUSH1 0xE5 SHL DUP2 MSTORE PUSH1 0x4 ADD DUP1 DUP1 PUSH1 0x20 ADD DUP3 DUP2 SUB DUP3 MSTORE PUSH1 0x3A DUP2 MSTORE PUSH1 0x20 ADD DUP1 PUSH2 0x58C6 PUSH1 0x3A SWAP2 CODECOPY PUSH1 0x40 ADD SWAP2 POP POP PUSH1 0x40 MLOAD DUP1 SWAP2 SUB SWAP1 REVERT JUMPDEST PUSH2 0x39B4 PUSH1 0xB SLOAD DUP3 PUSH1 0xE0 ADD MLOAD PUSH2 0x3C35 JUMP JUMPDEST PUSH1 0xC0 DUP4 ADD DUP2 SWAP1 MSTORE PUSH1 0x20 DUP4 ADD DUP3 PUSH1 0x3 DUP2 GT ISZERO PUSH2 0x39CB JUMPI INVALID JUMPDEST PUSH1 0x3 DUP2 GT ISZERO PUSH2 0x39D6 JUMPI INVALID JUMPDEST SWAP1 MSTORE POP PUSH1 0x0 SWAP1 POP DUP2 PUSH1 0x20 ADD MLOAD PUSH1 0x3 DUP2 GT ISZERO PUSH2 0x39ED JUMPI INVALID JUMPDEST EQ PUSH2 0x3A29 JUMPI PUSH1 0x40 MLOAD PUSH3 0x461BCD PUSH1 0xE5 SHL DUP2 MSTORE PUSH1 0x4 ADD DUP1 DUP1 PUSH1 0x20 ADD DUP3 DUP2 SUB DUP3 MSTORE PUSH1 0x31 DUP2 MSTORE PUSH1 0x20 ADD DUP1 PUSH2 0x5920 PUSH1 0x31 SWAP2 CODECOPY PUSH1 0x40 ADD SWAP2 POP POP PUSH1 0x40 MLOAD DUP1 SWAP2 SUB SWAP1 REVERT JUMPDEST PUSH1 0xA0 DUP1 DUP3 ADD DUP1 MLOAD PUSH1 0x1 PUSH1 0x1 PUSH1 0xA0 SHL SUB DUP1 DUP11 AND PUSH1 0x0 DUP2 DUP2 MSTORE PUSH1 0x10 PUSH1 0x20 SWAP1 DUP2 MSTORE PUSH1 0x40 SWAP2 DUP3 SWAP1 KECCAK256 SWAP5 DUP6 SSTORE PUSH1 0xA SLOAD PUSH1 0x1 SWAP1 SWAP6 ADD SWAP5 SWAP1 SWAP5 SSTORE PUSH1 0xC0 DUP8 ADD MLOAD PUSH1 0xB DUP2 SWAP1 SSTORE PUSH1 0xE0 DUP9 ADD MLOAD SWAP6 MLOAD DUP3 MLOAD SWAP5 DUP16 AND DUP6 MSTORE SWAP5 DUP5 ADD SWAP3 SWAP1 SWAP3 MSTORE DUP3 DUP2 ADD SWAP5 SWAP1 SWAP5 MSTORE PUSH1 0x60 DUP3 ADD SWAP3 SWAP1 SWAP3 MSTORE PUSH1 0x80 DUP2 ADD SWAP2 SWAP1 SWAP2 MSTORE SWAP1 MLOAD PUSH32 0x1A2A22CB034D26D1854BDC6666A5B91FE25EFBBB5DCAD3B0355478D6F5C362A1 SWAP3 SWAP2 DUP2 SWAP1 SUB SWAP1 SWAP2 ADD SWAP1 LOG1 PUSH1 0xE0 ADD MLOAD PUSH1 0x0 SWAP4 POP SWAP2 POP POP JUMPDEST SWAP4 POP SWAP4 SWAP2 POP POP JUMP JUMPDEST PUSH1 0x0 DUP1 PUSH1 0x0 DUP1 PUSH2 0x3AE3 DUP8 DUP8 PUSH2 0x3C58 JUMP JUMPDEST SWAP1 SWAP3 POP SWAP1 POP PUSH1 0x0 DUP3 PUSH1 0x3 DUP2 GT ISZERO PUSH2 0x3AF6 JUMPI INVALID JUMPDEST EQ PUSH2 0x3B07 JUMPI POP SWAP2 POP PUSH1 0x0 SWAP1 POP PUSH2 0x3ACB JUMP JUMPDEST PUSH2 0x3B11 DUP2 DUP7 PUSH2 0x3C35 JUMP JUMPDEST SWAP4 POP SWAP4 POP POP POP SWAP4 POP SWAP4 SWAP2 POP POP JUMP JUMPDEST PUSH1 0x0 PUSH2 0x3B29 PUSH2 0x55C1 JUMP JUMPDEST PUSH1 0x0 DUP1 PUSH2 0x3B3E DUP7 PUSH8 0xDE0B6B3A7640000 PUSH2 0x47B9 JUMP JUMPDEST SWAP1 SWAP3 POP SWAP1 POP PUSH1 0x0 DUP3 PUSH1 0x3 DUP2 GT ISZERO PUSH2 0x3B51 JUMPI INVALID JUMPDEST EQ PUSH2 0x3B70 JUMPI POP PUSH1 0x40 DUP1 MLOAD PUSH1 0x20 DUP2 ADD SWAP1 SWAP2 MSTORE PUSH1 0x0 DUP2 MSTORE SWAP1 SWAP3 POP SWAP1 POP PUSH2 0x25EC JUMP JUMPDEST PUSH1 0x0 DUP1 PUSH2 0x3B7D DUP4 DUP9 PUSH2 0x47F8 JUMP JUMPDEST SWAP1 SWAP3 POP SWAP1 POP PUSH1 0x0 DUP3 PUSH1 0x3 DUP2 GT ISZERO PUSH2 0x3B90 JUMPI INVALID JUMPDEST EQ PUSH2 0x3BB2 JUMPI POP PUSH1 0x40 DUP1 MLOAD PUSH1 0x20 DUP2 ADD SWAP1 SWAP2 MSTORE PUSH1 0x0 DUP2 MSTORE SWAP1 SWAP5 POP SWAP3 POP PUSH2 0x25EC SWAP2 POP POP JUMP JUMPDEST PUSH1 0x40 DUP1 MLOAD PUSH1 0x20 DUP2 ADD SWAP1 SWAP2 MSTORE SWAP1 DUP2 MSTORE PUSH1 0x0 SWAP9 SWAP1 SWAP8 POP SWAP6 POP POP POP POP POP POP JUMP JUMPDEST PUSH1 0x0 PUSH32 0x45B96FE442630264581B197E84BBADA861235052C5A1AADFFF9EA4E40A969AA0 DUP5 PUSH1 0x10 DUP2 GT ISZERO PUSH2 0x3BFE JUMPI INVALID JUMPDEST DUP5 PUSH1 0x50 DUP2 GT ISZERO PUSH2 0x3C0A JUMPI INVALID JUMPDEST PUSH1 0x40 DUP1 MLOAD SWAP3 DUP4 MSTORE PUSH1 0x20 DUP4 ADD SWAP2 SWAP1 SWAP2 MSTORE DUP2 DUP2 ADD DUP6 SWAP1 MSTORE MLOAD SWAP1 DUP2 SWAP1 SUB PUSH1 0x60 ADD SWAP1 LOG1 DUP4 PUSH1 0x10 DUP2 GT ISZERO PUSH2 0x140C JUMPI INVALID JUMPDEST PUSH1 0x0 DUP1 DUP4 DUP4 GT PUSH2 0x3C4C JUMPI POP PUSH1 0x0 SWAP1 POP DUP2 DUP4 SUB PUSH2 0x25EC JUMP JUMPDEST POP PUSH1 0x3 SWAP1 POP PUSH1 0x0 PUSH2 0x25EC JUMP JUMPDEST PUSH1 0x0 DUP1 DUP4 DUP4 ADD DUP5 DUP2 LT PUSH2 0x3C70 JUMPI PUSH1 0x0 SWAP3 POP SWAP1 POP PUSH2 0x25EC JUMP JUMPDEST POP PUSH1 0x2 SWAP2 POP PUSH1 0x0 SWAP1 POP PUSH2 0x25EC JUMP JUMPDEST PUSH1 0x0 PUSH2 0x3C88 PUSH2 0x55C1 JUMP JUMPDEST PUSH1 0x0 DUP1 PUSH2 0x3C99 DUP7 PUSH1 0x0 ADD MLOAD DUP7 PUSH2 0x47B9 JUMP JUMPDEST SWAP1 SWAP3 POP SWAP1 POP PUSH1 0x0 DUP3 PUSH1 0x3 DUP2 GT ISZERO PUSH2 0x3CAC JUMPI INVALID JUMPDEST EQ PUSH2 0x3CCB JUMPI POP PUSH1 0x40 DUP1 MLOAD PUSH1 0x20 DUP2 ADD SWAP1 SWAP2 MSTORE PUSH1 0x0 DUP2 MSTORE SWAP1 SWAP3 POP SWAP1 POP PUSH2 0x25EC JUMP JUMPDEST PUSH1 0x40 DUP1 MLOAD PUSH1 0x20 DUP2 ADD SWAP1 SWAP2 MSTORE SWAP1 DUP2 MSTORE PUSH1 0x0 SWAP7 SWAP1 SWAP6 POP SWAP4 POP POP POP POP JUMP JUMPDEST MLOAD PUSH8 0xDE0B6B3A7640000 SWAP1 DIV SWAP1 JUMP JUMPDEST PUSH1 0x0 DUP2 ISZERO DUP1 PUSH2 0x3D10 JUMPI POP POP DUP1 DUP3 MUL DUP3 DUP3 DUP3 DUP2 PUSH2 0x3D0D JUMPI INVALID JUMPDEST DIV EQ JUMPDEST PUSH2 0xD05 JUMPI PUSH1 0x40 DUP1 MLOAD PUSH3 0x461BCD PUSH1 0xE5 SHL DUP2 MSTORE PUSH1 0x20 PUSH1 0x4 DUP3 ADD MSTORE PUSH1 0xC PUSH1 0x24 DUP3 ADD MSTORE PUSH12 0x6D756C2D6F766572666C6F77 PUSH1 0xA0 SHL PUSH1 0x44 DUP3 ADD MSTORE SWAP1 MLOAD SWAP1 DUP2 SWAP1 SUB PUSH1 0x64 ADD SWAP1 REVERT JUMPDEST PUSH1 0x0 DUP1 PUSH1 0x0 DUP1 PUSH2 0x3D5E PUSH2 0x2D82 JUMP JUMPDEST PUSH1 0x9 SLOAD EQ PUSH2 0x3D7D JUMPI PUSH2 0x3D72 PUSH1 0xA PUSH1 0x4F PUSH2 0x2799 JUMP JUMPDEST SWAP4 POP SWAP2 POP PUSH2 0x2D7D SWAP1 POP JUMP JUMPDEST PUSH2 0x3D87 CALLER DUP7 PUSH2 0x3E38 JUMP JUMPDEST SWAP1 POP DUP1 PUSH1 0xC SLOAD ADD SWAP2 POP PUSH1 0xC SLOAD DUP3 LT ISZERO PUSH2 0x3DE7 JUMPI PUSH1 0x40 DUP1 MLOAD PUSH3 0x461BCD PUSH1 0xE5 SHL DUP2 MSTORE PUSH1 0x20 PUSH1 0x4 DUP3 ADD DUP2 SWAP1 MSTORE PUSH1 0x24 DUP3 ADD MSTORE PUSH32 0x61646420726573657276657320756E6578706563746564206F766572666C6F77 PUSH1 0x44 DUP3 ADD MSTORE SWAP1 MLOAD SWAP1 DUP2 SWAP1 SUB PUSH1 0x64 ADD SWAP1 REVERT JUMPDEST PUSH1 0xC DUP3 SWAP1 SSTORE PUSH1 0x40 DUP1 MLOAD CALLER DUP2 MSTORE PUSH1 0x20 DUP2 ADD DUP4 SWAP1 MSTORE DUP1 DUP3 ADD DUP5 SWAP1 MSTORE SWAP1 MLOAD PUSH32 0xA91E67C5EA634CD43A12C5A482724B03DE01E85CA68702A53D0C2F45CB7C1DC5 SWAP2 DUP2 SWAP1 SUB PUSH1 0x60 ADD SWAP1 LOG1 PUSH1 0x0 SWAP4 POP SWAP2 POP POP SWAP2 POP SWAP2 JUMP JUMPDEST PUSH1 0x11 SLOAD PUSH1 0x40 DUP1 MLOAD PUSH4 0x23B872DD PUSH1 0xE0 SHL DUP2 MSTORE PUSH1 0x1 PUSH1 0x1 PUSH1 0xA0 SHL SUB DUP6 DUP2 AND PUSH1 0x4 DUP4 ADD MSTORE ADDRESS PUSH1 0x24 DUP4 ADD MSTORE PUSH1 0x44 DUP3 ADD DUP6 SWAP1 MSTORE SWAP2 MLOAD PUSH1 0x0 SWAP4 SWAP3 SWAP1 SWAP3 AND SWAP2 DUP3 SWAP2 PUSH4 0x23B872DD SWAP2 PUSH1 0x64 DUP1 DUP4 ADD SWAP3 PUSH1 0x20 SWAP3 SWAP2 SWAP1 DUP3 SWAP1 SUB ADD DUP2 DUP9 DUP8 DUP1 EXTCODESIZE ISZERO DUP1 ISZERO PUSH2 0x3E98 JUMPI PUSH1 0x0 DUP1 REVERT JUMPDEST POP GAS CALL ISZERO DUP1 ISZERO PUSH2 0x3EAC JUMPI RETURNDATASIZE PUSH1 0x0 DUP1 RETURNDATACOPY RETURNDATASIZE PUSH1 0x0 REVERT JUMPDEST POP POP POP POP PUSH1 0x40 MLOAD RETURNDATASIZE PUSH1 0x20 DUP2 LT ISZERO PUSH2 0x3EC2 JUMPI PUSH1 0x0 DUP1 REVERT JUMPDEST POP MLOAD PUSH2 0x3EFF JUMPI PUSH1 0x40 MLOAD PUSH3 0x461BCD PUSH1 0xE5 SHL DUP2 MSTORE PUSH1 0x4 ADD DUP1 DUP1 PUSH1 0x20 ADD DUP3 DUP2 SUB DUP3 MSTORE PUSH1 0x24 DUP2 MSTORE PUSH1 0x20 ADD DUP1 PUSH2 0x5984 PUSH1 0x24 SWAP2 CODECOPY PUSH1 0x40 ADD SWAP2 POP POP PUSH1 0x40 MLOAD DUP1 SWAP2 SUB SWAP1 REVERT JUMPDEST PUSH1 0x13 SLOAD PUSH1 0x11 SLOAD PUSH1 0x14 SLOAD PUSH1 0x15 SLOAD PUSH1 0x40 DUP1 MLOAD PUSH4 0x70A08231 PUSH1 0xE0 SHL DUP2 MSTORE ADDRESS PUSH1 0x4 DUP3 ADD DUP2 SWAP1 MSTORE SWAP2 MLOAD PUSH1 0x1 PUSH1 0x1 PUSH1 0xA0 SHL SUB SWAP7 DUP8 AND SWAP7 SWAP6 DUP7 AND SWAP6 SWAP5 DUP6 AND SWAP5 SWAP1 SWAP4 AND SWAP3 DUP7 SWAP3 PUSH4 0x3B4DA69F SWAP3 SWAP1 SWAP2 DUP8 SWAP2 PUSH4 0x70A08231 SWAP2 PUSH1 0x24 DUP1 DUP4 ADD SWAP3 PUSH1 0x20 SWAP3 SWAP2 SWAP1 DUP3 SWAP1 SUB ADD DUP2 DUP7 DUP1 EXTCODESIZE ISZERO DUP1 ISZERO PUSH2 0x3F6C JUMPI PUSH1 0x0 DUP1 REVERT JUMPDEST POP GAS STATICCALL ISZERO DUP1 ISZERO PUSH2 0x3F80 JUMPI RETURNDATASIZE PUSH1 0x0 DUP1 RETURNDATACOPY RETURNDATASIZE PUSH1 0x0 REVERT JUMPDEST POP POP POP POP PUSH1 0x40 MLOAD RETURNDATASIZE PUSH1 0x20 DUP2 LT ISZERO PUSH2 0x3F96 JUMPI PUSH1 0x0 DUP1 REVERT JUMPDEST POP MLOAD PUSH1 0x40 DUP1 MLOAD PUSH1 0x1 PUSH1 0x1 PUSH1 0xE0 SHL SUB NOT PUSH1 0xE0 DUP7 SWAP1 SHL AND DUP2 MSTORE PUSH1 0x1 PUSH1 0x1 PUSH1 0xA0 SHL SUB SWAP1 SWAP4 AND PUSH1 0x4 DUP5 ADD MSTORE PUSH1 0x24 DUP4 ADD SWAP2 SWAP1 SWAP2 MSTORE MLOAD PUSH1 0x44 DUP1 DUP4 ADD SWAP3 PUSH1 0x0 SWAP3 SWAP2 SWAP1 DUP3 SWAP1 SUB ADD DUP2 DUP4 DUP8 DUP1 EXTCODESIZE ISZERO DUP1 ISZERO PUSH2 0x3FE6 JUMPI PUSH1 0x0 DUP1 REVERT JUMPDEST POP GAS CALL ISZERO DUP1 ISZERO PUSH2 0x3FFA JUMPI RETURNDATASIZE PUSH1 0x0 DUP1 RETURNDATACOPY RETURNDATASIZE PUSH1 0x0 REVERT JUMPDEST POP POP PUSH1 0x40 DUP1 MLOAD PUSH4 0x3612D9A3 PUSH1 0xE1 SHL DUP2 MSTORE ADDRESS PUSH1 0x4 DUP3 ADD MSTORE SWAP1 MLOAD PUSH1 0x0 SWAP4 POP PUSH1 0x1 PUSH1 0x1 PUSH1 0xA0 SHL SUB DUP6 AND SWAP3 POP PUSH4 0x6C25B346 SWAP2 PUSH1 0x24 DUP1 DUP3 ADD SWAP3 PUSH1 0x20 SWAP3 SWAP1 SWAP2 SWAP1 DUP3 SWAP1 SUB ADD DUP2 DUP7 DUP1 EXTCODESIZE ISZERO DUP1 ISZERO PUSH2 0x4048 JUMPI PUSH1 0x0 DUP1 REVERT JUMPDEST POP GAS STATICCALL ISZERO DUP1 ISZERO PUSH2 0x405C JUMPI RETURNDATASIZE PUSH1 0x0 DUP1 RETURNDATACOPY RETURNDATASIZE PUSH1 0x0 REVERT JUMPDEST POP POP POP POP PUSH1 0x40 MLOAD RETURNDATASIZE PUSH1 0x20 DUP2 LT ISZERO PUSH2 0x4072 JUMPI PUSH1 0x0 DUP1 REVERT JUMPDEST POP MLOAD PUSH1 0x40 DUP1 MLOAD PUSH4 0x324ABB31 PUSH1 0xE2 SHL DUP2 MSTORE SWAP1 MLOAD SWAP2 SWAP3 POP PUSH1 0x0 SWAP2 PUSH1 0x1 PUSH1 0x1 PUSH1 0xA0 SHL SUB DUP7 AND SWAP2 PUSH4 0xC92AECC4 SWAP2 PUSH1 0x4 DUP1 DUP4 ADD SWAP3 PUSH1 0x20 SWAP3 SWAP2 SWAP1 DUP3 SWAP1 SUB ADD DUP2 DUP7 DUP1 EXTCODESIZE ISZERO DUP1 ISZERO PUSH2 0x40BA JUMPI PUSH1 0x0 DUP1 REVERT JUMPDEST POP GAS STATICCALL ISZERO DUP1 ISZERO PUSH2 0x40CE JUMPI RETURNDATASIZE PUSH1 0x0 DUP1 RETURNDATACOPY RETURNDATASIZE PUSH1 0x0 REVERT JUMPDEST POP POP POP POP PUSH1 0x40 MLOAD RETURNDATASIZE PUSH1 0x20 DUP2 LT ISZERO PUSH2 0x40E4 JUMPI PUSH1 0x0 DUP1 REVERT JUMPDEST POP MLOAD DUP3 DUP2 PUSH2 0x40EE JUMPI INVALID JUMPDEST DIV SWAP1 POP DUP4 PUSH1 0x1 PUSH1 0x1 PUSH1 0xA0 SHL SUB AND PUSH4 0x49878F3 DUP3 PUSH1 0x40 MLOAD DUP3 PUSH4 0xFFFFFFFF AND PUSH1 0xE0 SHL DUP2 MSTORE PUSH1 0x4 ADD DUP1 DUP3 DUP2 MSTORE PUSH1 0x20 ADD SWAP2 POP POP PUSH1 0x0 PUSH1 0x40 MLOAD DUP1 DUP4 SUB DUP2 PUSH1 0x0 DUP8 DUP1 EXTCODESIZE ISZERO DUP1 ISZERO PUSH2 0x4137 JUMPI PUSH1 0x0 DUP1 REVERT JUMPDEST POP GAS CALL ISZERO DUP1 ISZERO PUSH2 0x414B JUMPI RETURNDATASIZE PUSH1 0x0 DUP1 RETURNDATACOPY RETURNDATASIZE PUSH1 0x0 REVERT JUMPDEST POP SWAP11 SWAP13 SWAP12 POP POP POP POP POP POP POP POP POP POP POP POP JUMP JUMPDEST PUSH1 0x13 SLOAD PUSH1 0x14 SLOAD PUSH1 0x40 DUP1 MLOAD PUSH4 0x324ABB31 PUSH1 0xE2 SHL DUP2 MSTORE SWAP1 MLOAD PUSH1 0x1 PUSH1 0x1 PUSH1 0xA0 SHL SUB SWAP4 DUP5 AND SWAP4 SWAP1 SWAP3 AND SWAP2 PUSH1 0x0 SWAP2 PUSH2 0x4202 SWAP2 DUP5 SWAP2 PUSH4 0xC92AECC4 SWAP2 PUSH1 0x4 DUP1 DUP4 ADD SWAP3 PUSH1 0x20 SWAP3 SWAP2 SWAP1 DUP3 SWAP1 SUB ADD DUP2 DUP7 DUP1 EXTCODESIZE ISZERO DUP1 ISZERO PUSH2 0x41B1 JUMPI PUSH1 0x0 DUP1 REVERT JUMPDEST POP GAS STATICCALL ISZERO DUP1 ISZERO PUSH2 0x41C5 JUMPI RETURNDATASIZE PUSH1 0x0 DUP1 RETURNDATACOPY RETURNDATASIZE PUSH1 0x0 REVERT JUMPDEST POP POP POP POP PUSH1 0x40 MLOAD RETURNDATASIZE PUSH1 0x20 DUP2 LT ISZERO PUSH2 0x41DB JUMPI PUSH1 0x0 DUP1 REVERT JUMPDEST POP MLOAD PUSH2 0x41F3 DUP7 PUSH12 0x33B2E3C9FD0803CE8000000 PUSH2 0x3CF5 JUMP JUMPDEST DUP2 PUSH2 0x41FA JUMPI INVALID JUMPDEST DIV PUSH1 0x1 PUSH2 0x53C6 JUMP JUMPDEST SWAP1 POP DUP2 PUSH1 0x1 PUSH1 0x1 PUSH1 0xA0 SHL SUB AND PUSH4 0x7F8661A1 DUP3 PUSH1 0x40 MLOAD DUP3 PUSH4 0xFFFFFFFF AND PUSH1 0xE0 SHL DUP2 MSTORE PUSH1 0x4 ADD DUP1 DUP3 DUP2 MSTORE PUSH1 0x20 ADD SWAP2 POP POP PUSH1 0x0 PUSH1 0x40 MLOAD DUP1 DUP4 SUB DUP2 PUSH1 0x0 DUP8 DUP1 EXTCODESIZE ISZERO DUP1 ISZERO PUSH2 0x424A JUMPI PUSH1 0x0 DUP1 REVERT JUMPDEST POP GAS CALL ISZERO DUP1 ISZERO PUSH2 0x425E JUMPI RETURNDATASIZE PUSH1 0x0 DUP1 RETURNDATACOPY RETURNDATASIZE PUSH1 0x0 REVERT JUMPDEST POP POP POP POP DUP3 PUSH1 0x1 PUSH1 0x1 PUSH1 0xA0 SHL SUB AND PUSH4 0xEF693BED DUP7 DUP7 PUSH1 0x40 MLOAD DUP4 PUSH4 0xFFFFFFFF AND PUSH1 0xE0 SHL DUP2 MSTORE PUSH1 0x4 ADD DUP1 DUP4 PUSH1 0x1 PUSH1 0x1 PUSH1 0xA0 SHL SUB AND PUSH1 0x1 PUSH1 0x1 PUSH1 0xA0 SHL SUB AND DUP2 MSTORE PUSH1 0x20 ADD DUP3 DUP2 MSTORE PUSH1 0x20 ADD SWAP3 POP POP POP PUSH1 0x0 PUSH1 0x40 MLOAD DUP1 DUP4 SUB DUP2 PUSH1 0x0 DUP8 DUP1 EXTCODESIZE ISZERO DUP1 ISZERO PUSH2 0xFA0 JUMPI PUSH1 0x0 DUP1 REVERT JUMPDEST PUSH1 0x0 DUP3 ISZERO DUP1 PUSH2 0x42CF JUMPI POP DUP2 ISZERO JUMPDEST PUSH2 0x430A JUMPI PUSH1 0x40 MLOAD PUSH3 0x461BCD PUSH1 0xE5 SHL DUP2 MSTORE PUSH1 0x4 ADD DUP1 DUP1 PUSH1 0x20 ADD DUP3 DUP2 SUB DUP3 MSTORE PUSH1 0x34 DUP2 MSTORE PUSH1 0x20 ADD DUP1 PUSH2 0x5A05 PUSH1 0x34 SWAP2 CODECOPY PUSH1 0x40 ADD SWAP2 POP POP PUSH1 0x40 MLOAD DUP1 SWAP2 SUB SWAP1 REVERT JUMPDEST PUSH2 0x4312 PUSH2 0x5698 JUMP JUMPDEST PUSH2 0x431A PUSH2 0x21B9 JUMP JUMPDEST PUSH1 0x40 DUP4 ADD DUP2 SWAP1 MSTORE PUSH1 0x20 DUP4 ADD DUP3 PUSH1 0x3 DUP2 GT ISZERO PUSH2 0x4331 JUMPI INVALID JUMPDEST PUSH1 0x3 DUP2 GT ISZERO PUSH2 0x433C JUMPI INVALID JUMPDEST SWAP1 MSTORE POP PUSH1 0x0 SWAP1 POP DUP2 PUSH1 0x20 ADD MLOAD PUSH1 0x3 DUP2 GT ISZERO PUSH2 0x4353 JUMPI INVALID JUMPDEST EQ PUSH2 0x4377 JUMPI PUSH2 0x436F PUSH1 0x9 PUSH1 0x2B DUP4 PUSH1 0x20 ADD MLOAD PUSH1 0x3 DUP2 GT ISZERO PUSH2 0x3164 JUMPI INVALID JUMPDEST SWAP2 POP POP PUSH2 0x157C JUMP JUMPDEST DUP4 ISZERO PUSH2 0x4428 JUMPI PUSH1 0x60 DUP2 ADD DUP5 SWAP1 MSTORE PUSH1 0x40 DUP1 MLOAD PUSH1 0x20 DUP2 ADD DUP3 MSTORE SWAP1 DUP3 ADD MLOAD DUP2 MSTORE PUSH2 0x439E SWAP1 DUP6 PUSH2 0x259F JUMP JUMPDEST PUSH1 0x80 DUP4 ADD DUP2 SWAP1 MSTORE PUSH1 0x20 DUP4 ADD DUP3 PUSH1 0x3 DUP2 GT ISZERO PUSH2 0x43B5 JUMPI INVALID JUMPDEST PUSH1 0x3 DUP2 GT ISZERO PUSH2 0x43C0 JUMPI INVALID JUMPDEST SWAP1 MSTORE POP PUSH1 0x0 SWAP1 POP DUP2 PUSH1 0x20 ADD MLOAD PUSH1 0x3 DUP2 GT ISZERO PUSH2 0x43D7 JUMPI INVALID JUMPDEST EQ PUSH2 0x43F3 JUMPI PUSH2 0x436F PUSH1 0x9 PUSH1 0x29 DUP4 PUSH1 0x20 ADD MLOAD PUSH1 0x3 DUP2 GT ISZERO PUSH2 0x3164 JUMPI INVALID JUMPDEST PUSH1 0x80 DUP2 ADD MLOAD PUSH2 0x441E SWAP1 PUSH2 0x440D SWAP1 PUSH1 0x64 PUSH4 0xFFFFFFFF PUSH2 0x540D AND JUMP JUMPDEST PUSH1 0x80 DUP4 ADD MLOAD SWAP1 PUSH4 0xFFFFFFFF PUSH2 0x544F AND JUMP JUMPDEST PUSH1 0x80 DUP3 ADD MSTORE PUSH2 0x44A1 JUMP JUMPDEST PUSH2 0x4444 DUP4 PUSH1 0x40 MLOAD DUP1 PUSH1 0x20 ADD PUSH1 0x40 MSTORE DUP1 DUP5 PUSH1 0x40 ADD MLOAD DUP2 MSTORE POP PUSH2 0x54A9 JUMP JUMPDEST PUSH1 0x60 DUP4 ADD DUP2 SWAP1 MSTORE PUSH1 0x20 DUP4 ADD DUP3 PUSH1 0x3 DUP2 GT ISZERO PUSH2 0x445B JUMPI INVALID JUMPDEST PUSH1 0x3 DUP2 GT ISZERO PUSH2 0x4466 JUMPI INVALID JUMPDEST SWAP1 MSTORE POP PUSH1 0x0 SWAP1 POP DUP2 PUSH1 0x20 ADD MLOAD PUSH1 0x3 DUP2 GT ISZERO PUSH2 0x447D JUMPI INVALID JUMPDEST EQ PUSH2 0x4499 JUMPI PUSH2 0x436F PUSH1 0x9 PUSH1 0x2A DUP4 PUSH1 0x20 ADD MLOAD PUSH1 0x3 DUP2 GT ISZERO PUSH2 0x3164 JUMPI INVALID JUMPDEST PUSH1 0x80 DUP2 ADD DUP4 SWAP1 MSTORE JUMPDEST PUSH1 0x5 SLOAD PUSH1 0x60 DUP3 ADD MLOAD PUSH1 0x40 DUP1 MLOAD PUSH4 0xEABE7D91 PUSH1 0xE0 SHL DUP2 MSTORE ADDRESS PUSH1 0x4 DUP3 ADD MSTORE PUSH1 0x1 PUSH1 0x1 PUSH1 0xA0 SHL SUB DUP10 DUP2 AND PUSH1 0x24 DUP4 ADD MSTORE PUSH1 0x44 DUP3 ADD SWAP4 SWAP1 SWAP4 MSTORE SWAP1 MLOAD PUSH1 0x0 SWAP4 SWAP3 SWAP1 SWAP3 AND SWAP2 PUSH4 0xEABE7D91 SWAP2 PUSH1 0x64 DUP1 DUP3 ADD SWAP3 PUSH1 0x20 SWAP3 SWAP1 SWAP2 SWAP1 DUP3 SWAP1 SUB ADD DUP2 DUP8 DUP8 DUP1 EXTCODESIZE ISZERO DUP1 ISZERO PUSH2 0x4506 JUMPI PUSH1 0x0 DUP1 REVERT JUMPDEST POP GAS CALL ISZERO DUP1 ISZERO PUSH2 0x451A JUMPI RETURNDATASIZE PUSH1 0x0 DUP1 RETURNDATACOPY RETURNDATASIZE PUSH1 0x0 REVERT JUMPDEST POP POP POP POP PUSH1 0x40 MLOAD RETURNDATASIZE PUSH1 0x20 DUP2 LT ISZERO PUSH2 0x4530 JUMPI PUSH1 0x0 DUP1 REVERT JUMPDEST POP MLOAD SWAP1 POP DUP1 ISZERO PUSH2 0x4550 JUMPI PUSH2 0x4547 PUSH1 0x3 PUSH1 0x28 DUP4 PUSH2 0x3BCF JUMP JUMPDEST SWAP3 POP POP POP PUSH2 0x157C JUMP JUMPDEST PUSH2 0x4558 PUSH2 0x2D82 JUMP JUMPDEST PUSH1 0x9 SLOAD EQ PUSH2 0x456C JUMPI PUSH2 0x4547 PUSH1 0xA PUSH1 0x2C PUSH2 0x2799 JUMP JUMPDEST PUSH2 0x457C PUSH1 0xD SLOAD DUP4 PUSH1 0x60 ADD MLOAD PUSH2 0x3C35 JUMP JUMPDEST PUSH1 0xA0 DUP5 ADD DUP2 SWAP1 MSTORE PUSH1 0x20 DUP5 ADD DUP3 PUSH1 0x3 DUP2 GT ISZERO PUSH2 0x4593 JUMPI INVALID JUMPDEST PUSH1 0x3 DUP2 GT ISZERO PUSH2 0x459E JUMPI INVALID JUMPDEST SWAP1 MSTORE POP PUSH1 0x0 SWAP1 POP DUP3 PUSH1 0x20 ADD MLOAD PUSH1 0x3 DUP2 GT ISZERO PUSH2 0x45B5 JUMPI INVALID JUMPDEST EQ PUSH2 0x45D1 JUMPI PUSH2 0x4547 PUSH1 0x9 PUSH1 0x2E DUP5 PUSH1 0x20 ADD MLOAD PUSH1 0x3 DUP2 GT ISZERO PUSH2 0x3164 JUMPI INVALID JUMPDEST PUSH1 0x1 PUSH1 0x1 PUSH1 0xA0 SHL SUB DUP7 AND PUSH1 0x0 SWAP1 DUP2 MSTORE PUSH1 0xE PUSH1 0x20 MSTORE PUSH1 0x40 SWAP1 KECCAK256 SLOAD PUSH1 0x60 DUP4 ADD MLOAD PUSH2 0x45F9 SWAP2 SWAP1 PUSH2 0x3C35 JUMP JUMPDEST PUSH1 0xC0 DUP5 ADD DUP2 SWAP1 MSTORE PUSH1 0x20 DUP5 ADD DUP3 PUSH1 0x3 DUP2 GT ISZERO PUSH2 0x4610 JUMPI INVALID JUMPDEST PUSH1 0x3 DUP2 GT ISZERO PUSH2 0x461B JUMPI INVALID JUMPDEST SWAP1 MSTORE POP PUSH1 0x0 SWAP1 POP DUP3 PUSH1 0x20 ADD MLOAD PUSH1 0x3 DUP2 GT ISZERO PUSH2 0x4632 JUMPI INVALID JUMPDEST EQ PUSH2 0x464E JUMPI PUSH2 0x4547 PUSH1 0x9 PUSH1 0x2D DUP5 PUSH1 0x20 ADD MLOAD PUSH1 0x3 DUP2 GT ISZERO PUSH2 0x3164 JUMPI INVALID JUMPDEST DUP2 PUSH1 0x80 ADD MLOAD PUSH2 0x465B PUSH2 0x25F3 JUMP JUMPDEST LT ISZERO PUSH2 0x466D JUMPI PUSH2 0x4547 PUSH1 0xE PUSH1 0x2F PUSH2 0x2799 JUMP JUMPDEST PUSH2 0x467B DUP7 DUP4 PUSH1 0x80 ADD MLOAD PUSH2 0x415D JUMP JUMPDEST PUSH1 0xA0 DUP3 ADD MLOAD PUSH1 0xD SSTORE PUSH1 0xC0 DUP3 ADD MLOAD PUSH1 0x1 PUSH1 0x1 PUSH1 0xA0 SHL SUB DUP8 AND PUSH1 0x0 DUP2 DUP2 MSTORE PUSH1 0xE PUSH1 0x20 SWAP1 DUP2 MSTORE PUSH1 0x40 SWAP2 DUP3 SWAP1 KECCAK256 SWAP4 SWAP1 SWAP4 SSTORE PUSH1 0x60 DUP6 ADD MLOAD DUP2 MLOAD SWAP1 DUP2 MSTORE SWAP1 MLOAD ADDRESS SWAP4 PUSH1 0x0 DUP1 MLOAD PUSH1 0x20 PUSH2 0x5900 DUP4 CODECOPY DUP2 MLOAD SWAP2 MSTORE SWAP3 DUP3 SWAP1 SUB ADD SWAP1 LOG3 PUSH1 0x80 DUP3 ADD MLOAD PUSH1 0x60 DUP1 DUP5 ADD MLOAD PUSH1 0x40 DUP1 MLOAD PUSH1 0x1 PUSH1 0x1 PUSH1 0xA0 SHL SUB DUP12 AND DUP2 MSTORE PUSH1 0x20 DUP2 ADD SWAP5 SWAP1 SWAP5 MSTORE DUP4 DUP2 ADD SWAP2 SWAP1 SWAP2 MSTORE MLOAD PUSH32 0xE5B754FB1ABB7F01B499791D0B820AE3B6AF3424AC1C59768EDB53F4EC31A929 SWAP3 DUP2 SWAP1 SUB SWAP1 SWAP2 ADD SWAP1 LOG1 PUSH1 0x5 SLOAD PUSH1 0x80 DUP4 ADD MLOAD PUSH1 0x60 DUP5 ADD MLOAD PUSH1 0x40 DUP1 MLOAD PUSH4 0x51DFF989 PUSH1 0xE0 SHL DUP2 MSTORE ADDRESS PUSH1 0x4 DUP3 ADD MSTORE PUSH1 0x1 PUSH1 0x1 PUSH1 0xA0 SHL SUB DUP12 DUP2 AND PUSH1 0x24 DUP4 ADD MSTORE PUSH1 0x44 DUP3 ADD SWAP5 SWAP1 SWAP5 MSTORE PUSH1 0x64 DUP2 ADD SWAP3 SWAP1 SWAP3 MSTORE MLOAD SWAP2 SWAP1 SWAP3 AND SWAP2 PUSH4 0x51DFF989 SWAP2 PUSH1 0x84 DUP1 DUP4 ADD SWAP3 PUSH1 0x0 SWAP3 SWAP2 SWAP1 DUP3 SWAP1 SUB ADD DUP2 DUP4 DUP8 DUP1 EXTCODESIZE ISZERO DUP1 ISZERO PUSH2 0x478E JUMPI PUSH1 0x0 DUP1 REVERT JUMPDEST POP GAS CALL ISZERO DUP1 ISZERO PUSH2 0x47A2 JUMPI RETURNDATASIZE PUSH1 0x0 DUP1 RETURNDATACOPY RETURNDATASIZE PUSH1 0x0 REVERT JUMPDEST POP PUSH1 0x0 SWAP3 POP PUSH2 0x47AF SWAP2 POP POP JUMP JUMPDEST SWAP7 SWAP6 POP POP POP POP POP POP JUMP JUMPDEST PUSH1 0x0 DUP1 DUP4 PUSH2 0x47CC JUMPI POP PUSH1 0x0 SWAP1 POP DUP1 PUSH2 0x25EC JUMP JUMPDEST DUP4 DUP4 MUL DUP4 DUP6 DUP3 DUP2 PUSH2 0x47D9 JUMPI INVALID JUMPDEST DIV EQ PUSH2 0x47ED JUMPI POP PUSH1 0x2 SWAP2 POP PUSH1 0x0 SWAP1 POP PUSH2 0x25EC JUMP JUMPDEST PUSH1 0x0 SWAP3 POP SWAP1 POP PUSH2 0x25EC JUMP JUMPDEST PUSH1 0x0 DUP1 DUP3 PUSH2 0x480C JUMPI POP PUSH1 0x1 SWAP1 POP PUSH1 0x0 PUSH2 0x25EC JUMP JUMPDEST PUSH1 0x0 DUP4 DUP6 DUP2 PUSH2 0x4817 JUMPI INVALID JUMPDEST DIV SWAP2 POP SWAP2 POP SWAP3 POP SWAP3 SWAP1 POP JUMP JUMPDEST PUSH1 0x5 SLOAD PUSH1 0x40 DUP1 MLOAD PUSH4 0x4EF4C3E1 PUSH1 0xE0 SHL DUP2 MSTORE ADDRESS PUSH1 0x4 DUP3 ADD MSTORE PUSH1 0x1 PUSH1 0x1 PUSH1 0xA0 SHL SUB DUP6 DUP2 AND PUSH1 0x24 DUP4 ADD MSTORE PUSH1 0x44 DUP3 ADD DUP6 SWAP1 MSTORE SWAP2 MLOAD PUSH1 0x0 SWAP4 DUP5 SWAP4 DUP5 SWAP4 SWAP2 AND SWAP2 PUSH4 0x4EF4C3E1 SWAP2 PUSH1 0x64 DUP1 DUP3 ADD SWAP3 PUSH1 0x20 SWAP3 SWAP1 SWAP2 SWAP1 DUP3 SWAP1 SUB ADD DUP2 DUP8 DUP8 DUP1 EXTCODESIZE ISZERO DUP1 ISZERO PUSH2 0x4884 JUMPI PUSH1 0x0 DUP1 REVERT JUMPDEST POP GAS CALL ISZERO DUP1 ISZERO PUSH2 0x4898 JUMPI RETURNDATASIZE PUSH1 0x0 DUP1 RETURNDATACOPY RETURNDATASIZE PUSH1 0x0 REVERT JUMPDEST POP POP POP POP PUSH1 0x40 MLOAD RETURNDATASIZE PUSH1 0x20 DUP2 LT ISZERO PUSH2 0x48AE JUMPI PUSH1 0x0 DUP1 REVERT JUMPDEST POP MLOAD SWAP1 POP DUP1 ISZERO PUSH2 0x48D2 JUMPI PUSH2 0x48C5 PUSH1 0x3 PUSH1 0x1F DUP4 PUSH2 0x3BCF JUMP JUMPDEST SWAP3 POP PUSH1 0x0 SWAP2 POP PUSH2 0x25EC SWAP1 POP JUMP JUMPDEST PUSH2 0x48DA PUSH2 0x2D82 JUMP JUMPDEST PUSH1 0x9 SLOAD EQ PUSH2 0x48EE JUMPI PUSH2 0x48C5 PUSH1 0xA PUSH1 0x22 PUSH2 0x2799 JUMP JUMPDEST PUSH2 0x48F6 PUSH2 0x5698 JUMP JUMPDEST PUSH2 0x48FE PUSH2 0x21B9 JUMP JUMPDEST PUSH1 0x40 DUP4 ADD DUP2 SWAP1 MSTORE PUSH1 0x20 DUP4 ADD DUP3 PUSH1 0x3 DUP2 GT ISZERO PUSH2 0x4915 JUMPI INVALID JUMPDEST PUSH1 0x3 DUP2 GT ISZERO PUSH2 0x4920 JUMPI INVALID JUMPDEST SWAP1 MSTORE POP PUSH1 0x0 SWAP1 POP DUP2 PUSH1 0x20 ADD MLOAD PUSH1 0x3 DUP2 GT ISZERO PUSH2 0x4937 JUMPI INVALID JUMPDEST EQ PUSH2 0x4961 JUMPI PUSH2 0x4953 PUSH1 0x9 PUSH1 0x21 DUP4 PUSH1 0x20 ADD MLOAD PUSH1 0x3 DUP2 GT ISZERO PUSH2 0x3164 JUMPI INVALID JUMPDEST SWAP4 POP PUSH1 0x0 SWAP3 POP PUSH2 0x25EC SWAP2 POP POP JUMP JUMPDEST PUSH2 0x496B DUP7 DUP7 PUSH2 0x3E38 JUMP JUMPDEST PUSH1 0xC0 DUP3 ADD DUP2 SWAP1 MSTORE PUSH1 0x40 DUP1 MLOAD PUSH1 0x20 DUP2 ADD DUP3 MSTORE SWAP1 DUP4 ADD MLOAD DUP2 MSTORE PUSH2 0x498C SWAP2 SWAP1 PUSH2 0x54A9 JUMP JUMPDEST PUSH1 0x60 DUP4 ADD DUP2 SWAP1 MSTORE PUSH1 0x20 DUP4 ADD DUP3 PUSH1 0x3 DUP2 GT ISZERO PUSH2 0x49A3 JUMPI INVALID JUMPDEST PUSH1 0x3 DUP2 GT ISZERO PUSH2 0x49AE JUMPI INVALID JUMPDEST SWAP1 MSTORE POP PUSH1 0x0 SWAP1 POP DUP2 PUSH1 0x20 ADD MLOAD PUSH1 0x3 DUP2 GT ISZERO PUSH2 0x49C5 JUMPI INVALID JUMPDEST EQ PUSH2 0x4A17 JUMPI PUSH1 0x40 DUP1 MLOAD PUSH3 0x461BCD PUSH1 0xE5 SHL DUP2 MSTORE PUSH1 0x20 PUSH1 0x4 DUP3 ADD DUP2 SWAP1 MSTORE PUSH1 0x24 DUP3 ADD MSTORE PUSH32 0x4D494E545F45584348414E47455F43414C43554C4154494F4E5F4641494C4544 PUSH1 0x44 DUP3 ADD MSTORE SWAP1 MLOAD SWAP1 DUP2 SWAP1 SUB PUSH1 0x64 ADD SWAP1 REVERT JUMPDEST PUSH2 0x4A27 PUSH1 0xD SLOAD DUP3 PUSH1 0x60 ADD MLOAD PUSH2 0x3C58 JUMP JUMPDEST PUSH1 0x80 DUP4 ADD DUP2 SWAP1 MSTORE PUSH1 0x20 DUP4 ADD DUP3 PUSH1 0x3 DUP2 GT ISZERO PUSH2 0x4A3E JUMPI INVALID JUMPDEST PUSH1 0x3 DUP2 GT ISZERO PUSH2 0x4A49 JUMPI INVALID JUMPDEST SWAP1 MSTORE POP PUSH1 0x0 SWAP1 POP DUP2 PUSH1 0x20 ADD MLOAD PUSH1 0x3 DUP2 GT ISZERO PUSH2 0x4A60 JUMPI INVALID JUMPDEST EQ PUSH2 0x4A9C JUMPI PUSH1 0x40 MLOAD PUSH3 0x461BCD PUSH1 0xE5 SHL DUP2 MSTORE PUSH1 0x4 ADD DUP1 DUP1 PUSH1 0x20 ADD DUP3 DUP2 SUB DUP3 MSTORE PUSH1 0x28 DUP2 MSTORE PUSH1 0x20 ADD DUP1 PUSH2 0x59DD PUSH1 0x28 SWAP2 CODECOPY PUSH1 0x40 ADD SWAP2 POP POP PUSH1 0x40 MLOAD DUP1 SWAP2 SUB SWAP1 REVERT JUMPDEST PUSH1 0x1 PUSH1 0x1 PUSH1 0xA0 SHL SUB DUP7 AND PUSH1 0x0 SWAP1 DUP2 MSTORE PUSH1 0xE PUSH1 0x20 MSTORE PUSH1 0x40 SWAP1 KECCAK256 SLOAD PUSH1 0x60 DUP3 ADD MLOAD PUSH2 0x4AC4 SWAP2 SWAP1 PUSH2 0x3C58 JUMP JUMPDEST PUSH1 0xA0 DUP4 ADD DUP2 SWAP1 MSTORE PUSH1 0x20 DUP4 ADD DUP3 PUSH1 0x3 DUP2 GT ISZERO PUSH2 0x4ADB JUMPI INVALID JUMPDEST PUSH1 0x3 DUP2 GT ISZERO PUSH2 0x4AE6 JUMPI INVALID JUMPDEST SWAP1 MSTORE POP PUSH1 0x0 SWAP1 POP DUP2 PUSH1 0x20 ADD MLOAD PUSH1 0x3 DUP2 GT ISZERO PUSH2 0x4AFD JUMPI INVALID JUMPDEST EQ PUSH2 0x4B39 JUMPI PUSH1 0x40 MLOAD PUSH3 0x461BCD PUSH1 0xE5 SHL DUP2 MSTORE PUSH1 0x4 ADD DUP1 DUP1 PUSH1 0x20 ADD DUP3 DUP2 SUB DUP3 MSTORE PUSH1 0x2B DUP2 MSTORE PUSH1 0x20 ADD DUP1 PUSH2 0x5842 PUSH1 0x2B SWAP2 CODECOPY PUSH1 0x40 ADD SWAP2 POP POP PUSH1 0x40 MLOAD DUP1 SWAP2 SUB SWAP1 REVERT JUMPDEST PUSH1 0x80 DUP2 ADD MLOAD PUSH1 0xD SSTORE PUSH1 0xA0 DUP2 ADD MLOAD PUSH1 0x1 PUSH1 0x1 PUSH1 0xA0 SHL SUB DUP8 AND PUSH1 0x0 DUP2 DUP2 MSTORE PUSH1 0xE PUSH1 0x20 SWAP1 DUP2 MSTORE PUSH1 0x40 SWAP2 DUP3 SWAP1 KECCAK256 SWAP4 SWAP1 SWAP4 SSTORE PUSH1 0xC0 DUP5 ADD MLOAD PUSH1 0x60 DUP1 DUP7 ADD MLOAD DUP4 MLOAD SWAP5 DUP6 MSTORE SWAP5 DUP5 ADD SWAP2 SWAP1 SWAP2 MSTORE DUP3 DUP3 ADD SWAP4 SWAP1 SWAP4 MSTORE MLOAD PUSH32 0x4C209B5FC8AD50758F13E2E1088BA56A560DFF690A1C6FEF26394F4C03821C4F SWAP3 SWAP2 DUP2 SWAP1 SUB SWAP1 SWAP2 ADD SWAP1 LOG1 PUSH1 0x60 DUP2 ADD MLOAD PUSH1 0x40 DUP1 MLOAD SWAP2 DUP3 MSTORE MLOAD PUSH1 0x1 PUSH1 0x1 PUSH1 0xA0 SHL SUB DUP9 AND SWAP2 ADDRESS SWAP2 PUSH1 0x0 DUP1 MLOAD PUSH1 0x20 PUSH2 0x5900 DUP4 CODECOPY DUP2 MLOAD SWAP2 MSTORE SWAP2 DUP2 SWAP1 SUB PUSH1 0x20 ADD SWAP1 LOG3 PUSH1 0xC0 ADD MLOAD PUSH1 0x0 SWAP7 SWAP1 SWAP6 POP SWAP4 POP POP POP POP JUMP JUMPDEST PUSH1 0x0 DUP1 PUSH1 0x0 PUSH2 0x4C00 PUSH2 0x55C1 JUMP JUMPDEST PUSH2 0x4C0A DUP8 DUP8 PUSH2 0x3C7E JUMP JUMPDEST SWAP1 SWAP3 POP SWAP1 POP PUSH1 0x0 DUP3 PUSH1 0x3 DUP2 GT ISZERO PUSH2 0x4C1D JUMPI INVALID JUMPDEST EQ PUSH2 0x4C2E JUMPI POP SWAP2 POP PUSH1 0x0 SWAP1 POP PUSH2 0x3ACB JUMP JUMPDEST PUSH2 0x3B11 PUSH2 0x4C3A DUP3 PUSH2 0x3CE6 JUMP JUMPDEST DUP7 PUSH2 0x3C58 JUMP JUMPDEST PUSH1 0x5 SLOAD PUSH1 0x40 DUP1 MLOAD PUSH4 0x368F5153 PUSH1 0xE2 SHL DUP2 MSTORE ADDRESS PUSH1 0x4 DUP3 ADD MSTORE PUSH1 0x1 PUSH1 0x1 PUSH1 0xA0 SHL SUB DUP6 DUP2 AND PUSH1 0x24 DUP4 ADD MSTORE PUSH1 0x44 DUP3 ADD DUP6 SWAP1 MSTORE SWAP2 MLOAD PUSH1 0x0 SWAP4 DUP5 SWAP4 AND SWAP2 PUSH4 0xDA3D454C SWAP2 PUSH1 0x64 DUP1 DUP4 ADD SWAP3 PUSH1 0x20 SWAP3 SWAP2 SWAP1 DUP3 SWAP1 SUB ADD DUP2 DUP8 DUP8 DUP1 EXTCODESIZE ISZERO DUP1 ISZERO PUSH2 0x4C9D JUMPI PUSH1 0x0 DUP1 REVERT JUMPDEST POP GAS CALL ISZERO DUP1 ISZERO PUSH2 0x4CB1 JUMPI RETURNDATASIZE PUSH1 0x0 DUP1 RETURNDATACOPY RETURNDATASIZE PUSH1 0x0 REVERT JUMPDEST POP POP POP POP PUSH1 0x40 MLOAD RETURNDATASIZE PUSH1 0x20 DUP2 LT ISZERO PUSH2 0x4CC7 JUMPI PUSH1 0x0 DUP1 REVERT JUMPDEST POP MLOAD SWAP1 POP DUP1 ISZERO PUSH2 0x4CE6 JUMPI PUSH2 0x4CDE PUSH1 0x3 PUSH1 0xE DUP4 PUSH2 0x3BCF JUMP JUMPDEST SWAP2 POP POP PUSH2 0xD05 JUMP JUMPDEST PUSH2 0x4CEE PUSH2 0x2D82 JUMP JUMPDEST PUSH1 0x9 SLOAD EQ PUSH2 0x4D01 JUMPI PUSH2 0x4CDE PUSH1 0xA DUP1 PUSH2 0x2799 JUMP JUMPDEST DUP3 PUSH2 0x4D0A PUSH2 0x25F3 JUMP JUMPDEST LT ISZERO PUSH2 0x4D1C JUMPI PUSH2 0x4CDE PUSH1 0xE PUSH1 0x9 PUSH2 0x2799 JUMP JUMPDEST PUSH2 0x4D24 PUSH2 0x56D6 JUMP JUMPDEST PUSH2 0x4D2D DUP6 PUSH2 0x2CCE JUMP JUMPDEST PUSH1 0x20 DUP4 ADD DUP2 SWAP1 MSTORE DUP3 DUP3 PUSH1 0x3 DUP2 GT ISZERO PUSH2 0x4D41 JUMPI INVALID JUMPDEST PUSH1 0x3 DUP2 GT ISZERO PUSH2 0x4D4C JUMPI INVALID JUMPDEST SWAP1 MSTORE POP PUSH1 0x0 SWAP1 POP DUP2 MLOAD PUSH1 0x3 DUP2 GT ISZERO PUSH2 0x4D60 JUMPI INVALID JUMPDEST EQ PUSH2 0x4D85 JUMPI PUSH2 0x4D7C PUSH1 0x9 PUSH1 0x7 DUP4 PUSH1 0x0 ADD MLOAD PUSH1 0x3 DUP2 GT ISZERO PUSH2 0x3164 JUMPI INVALID JUMPDEST SWAP3 POP POP POP PUSH2 0xD05 JUMP JUMPDEST PUSH2 0x4D93 DUP2 PUSH1 0x20 ADD MLOAD DUP6 PUSH2 0x3C58 JUMP JUMPDEST PUSH1 0x40 DUP4 ADD DUP2 SWAP1 MSTORE DUP3 DUP3 PUSH1 0x3 DUP2 GT ISZERO PUSH2 0x4DA7 JUMPI INVALID JUMPDEST PUSH1 0x3 DUP2 GT ISZERO PUSH2 0x4DB2 JUMPI INVALID JUMPDEST SWAP1 MSTORE POP PUSH1 0x0 SWAP1 POP DUP2 MLOAD PUSH1 0x3 DUP2 GT ISZERO PUSH2 0x4DC6 JUMPI INVALID JUMPDEST EQ PUSH2 0x4DE2 JUMPI PUSH2 0x4D7C PUSH1 0x9 PUSH1 0xC DUP4 PUSH1 0x0 ADD MLOAD PUSH1 0x3 DUP2 GT ISZERO PUSH2 0x3164 JUMPI INVALID JUMPDEST PUSH2 0x4DEE PUSH1 0xB SLOAD DUP6 PUSH2 0x3C58 JUMP JUMPDEST PUSH1 0x60 DUP4 ADD DUP2 SWAP1 MSTORE DUP3 DUP3 PUSH1 0x3 DUP2 GT ISZERO PUSH2 0x4E02 JUMPI INVALID JUMPDEST PUSH1 0x3 DUP2 GT ISZERO PUSH2 0x4E0D JUMPI INVALID JUMPDEST SWAP1 MSTORE POP PUSH1 0x0 SWAP1 POP DUP2 MLOAD PUSH1 0x3 DUP2 GT ISZERO PUSH2 0x4E21 JUMPI INVALID JUMPDEST EQ PUSH2 0x4E3D JUMPI PUSH2 0x4D7C PUSH1 0x9 PUSH1 0xB DUP4 PUSH1 0x0 ADD MLOAD PUSH1 0x3 DUP2 GT ISZERO PUSH2 0x3164 JUMPI INVALID JUMPDEST PUSH2 0x4E47 DUP6 DUP6 PUSH2 0x415D JUMP JUMPDEST PUSH1 0x40 DUP1 DUP3 ADD DUP1 MLOAD PUSH1 0x1 PUSH1 0x1 PUSH1 0xA0 SHL SUB DUP9 AND PUSH1 0x0 DUP2 DUP2 MSTORE PUSH1 0x10 PUSH1 0x20 SWAP1 DUP2 MSTORE SWAP1 DUP6 SWAP1 KECCAK256 SWAP3 DUP4 SSTORE PUSH1 0xA SLOAD PUSH1 0x1 SWAP1 SWAP4 ADD SWAP3 SWAP1 SWAP3 SSTORE PUSH1 0x60 DUP1 DUP7 ADD MLOAD PUSH1 0xB DUP2 SWAP1 SSTORE SWAP4 MLOAD DUP6 MLOAD SWAP3 DUP4 MSTORE SWAP3 DUP3 ADD DUP10 SWAP1 MSTORE DUP2 DUP6 ADD SWAP3 SWAP1 SWAP3 MSTORE SWAP1 DUP2 ADD SWAP2 SWAP1 SWAP2 MSTORE SWAP1 MLOAD PUSH32 0x13ED6866D4E1EE6DA46F845C46D7E54120883D75C5EA9A2DACC1C4CA8984AB80 SWAP2 DUP2 SWAP1 SUB PUSH1 0x80 ADD SWAP1 LOG1 PUSH1 0x0 SWAP6 SWAP5 POP POP POP POP POP JUMP JUMPDEST PUSH1 0x5 SLOAD PUSH1 0x40 DUP1 MLOAD PUSH4 0x2FE3F38F PUSH1 0xE1 SHL DUP2 MSTORE ADDRESS PUSH1 0x4 DUP3 ADD MSTORE PUSH1 0x1 PUSH1 0x1 PUSH1 0xA0 SHL SUB DUP5 DUP2 AND PUSH1 0x24 DUP4 ADD MSTORE DUP8 DUP2 AND PUSH1 0x44 DUP4 ADD MSTORE DUP7 DUP2 AND PUSH1 0x64 DUP4 ADD MSTORE PUSH1 0x84 DUP3 ADD DUP7 SWAP1 MSTORE SWAP2 MLOAD PUSH1 0x0 SWAP4 DUP5 SWAP4 DUP5 SWAP4 SWAP2 AND SWAP2 PUSH4 0x5FC7E71E SWAP2 PUSH1 0xA4 DUP1 DUP3 ADD SWAP3 PUSH1 0x20 SWAP3 SWAP1 SWAP2 SWAP1 DUP3 SWAP1 SUB ADD DUP2 DUP8 DUP8 DUP1 EXTCODESIZE ISZERO DUP1 ISZERO PUSH2 0x4F45 JUMPI PUSH1 0x0 DUP1 REVERT JUMPDEST POP GAS CALL ISZERO DUP1 ISZERO PUSH2 0x4F59 JUMPI RETURNDATASIZE PUSH1 0x0 DUP1 RETURNDATACOPY RETURNDATASIZE PUSH1 0x0 REVERT JUMPDEST POP POP POP POP PUSH1 0x40 MLOAD RETURNDATASIZE PUSH1 0x20 DUP2 LT ISZERO PUSH2 0x4F6F JUMPI PUSH1 0x0 DUP1 REVERT JUMPDEST POP MLOAD SWAP1 POP DUP1 ISZERO PUSH2 0x4F93 JUMPI PUSH2 0x4F86 PUSH1 0x3 PUSH1 0x12 DUP4 PUSH2 0x3BCF JUMP JUMPDEST SWAP3 POP PUSH1 0x0 SWAP2 POP PUSH2 0x53BD SWAP1 POP JUMP JUMPDEST PUSH2 0x4F9B PUSH2 0x2D82 JUMP JUMPDEST PUSH1 0x9 SLOAD EQ PUSH2 0x4FAF JUMPI PUSH2 0x4F86 PUSH1 0xA PUSH1 0x16 PUSH2 0x2799 JUMP JUMPDEST PUSH2 0x4FB7 PUSH2 0x2D82 JUMP JUMPDEST DUP5 PUSH1 0x1 PUSH1 0x1 PUSH1 0xA0 SHL SUB AND PUSH4 0x6C540BAF PUSH1 0x40 MLOAD DUP2 PUSH4 0xFFFFFFFF AND PUSH1 0xE0 SHL DUP2 MSTORE PUSH1 0x4 ADD PUSH1 0x20 PUSH1 0x40 MLOAD DUP1 DUP4 SUB DUP2 DUP7 DUP1 EXTCODESIZE ISZERO DUP1 ISZERO PUSH2 0x4FF0 JUMPI PUSH1 0x0 DUP1 REVERT JUMPDEST POP GAS STATICCALL ISZERO DUP1 ISZERO PUSH2 0x5004 JUMPI RETURNDATASIZE PUSH1 0x0 DUP1 RETURNDATACOPY RETURNDATASIZE PUSH1 0x0 REVERT JUMPDEST POP POP POP POP PUSH1 0x40 MLOAD RETURNDATASIZE PUSH1 0x20 DUP2 LT ISZERO PUSH2 0x501A JUMPI PUSH1 0x0 DUP1 REVERT JUMPDEST POP MLOAD EQ PUSH2 0x502D JUMPI PUSH2 0x4F86 PUSH1 0xA PUSH1 0x11 PUSH2 0x2799 JUMP JUMPDEST DUP7 PUSH1 0x1 PUSH1 0x1 PUSH1 0xA0 SHL SUB AND DUP7 PUSH1 0x1 PUSH1 0x1 PUSH1 0xA0 SHL SUB AND EQ ISZERO PUSH2 0x5053 JUMPI PUSH2 0x4F86 PUSH1 0x6 PUSH1 0x17 PUSH2 0x2799 JUMP JUMPDEST DUP5 PUSH2 0x5064 JUMPI PUSH2 0x4F86 PUSH1 0x7 PUSH1 0x15 PUSH2 0x2799 JUMP JUMPDEST PUSH1 0x0 NOT DUP6 EQ ISZERO PUSH2 0x507A JUMPI PUSH2 0x4F86 PUSH1 0x7 PUSH1 0x14 PUSH2 0x2799 JUMP JUMPDEST PUSH1 0x0 DUP1 PUSH2 0x5088 DUP10 DUP10 DUP10 PUSH2 0x3783 JUMP JUMPDEST SWAP1 SWAP3 POP SWAP1 POP DUP2 ISZERO PUSH2 0x50B8 JUMPI PUSH2 0x50A9 DUP3 PUSH1 0x10 DUP2 GT ISZERO PUSH2 0x50A2 JUMPI INVALID JUMPDEST PUSH1 0x18 PUSH2 0x2799 JUMP JUMPDEST SWAP5 POP PUSH1 0x0 SWAP4 POP PUSH2 0x53BD SWAP3 POP POP POP JUMP JUMPDEST PUSH1 0x5 SLOAD PUSH1 0x40 DUP1 MLOAD PUSH4 0xC488847B PUSH1 0xE0 SHL DUP2 MSTORE ADDRESS PUSH1 0x4 DUP3 ADD MSTORE PUSH1 0x1 PUSH1 0x1 PUSH1 0xA0 SHL SUB DUP10 DUP2 AND PUSH1 0x24 DUP4 ADD MSTORE PUSH1 0x44 DUP3 ADD DUP6 SWAP1 MSTORE DUP3 MLOAD PUSH1 0x0 SWAP5 DUP6 SWAP5 SWAP3 AND SWAP3 PUSH4 0xC488847B SWAP3 PUSH1 0x64 DUP1 DUP4 ADD SWAP4 SWAP2 SWAP3 DUP3 SWAP1 SUB ADD DUP2 DUP7 DUP1 EXTCODESIZE ISZERO DUP1 ISZERO PUSH2 0x5112 JUMPI PUSH1 0x0 DUP1 REVERT JUMPDEST POP GAS STATICCALL ISZERO DUP1 ISZERO PUSH2 0x5126 JUMPI RETURNDATASIZE PUSH1 0x0 DUP1 RETURNDATACOPY RETURNDATASIZE PUSH1 0x0 REVERT JUMPDEST POP POP POP POP PUSH1 0x40 MLOAD RETURNDATASIZE PUSH1 0x40 DUP2 LT ISZERO PUSH2 0x513C JUMPI PUSH1 0x0 DUP1 REVERT JUMPDEST POP DUP1 MLOAD PUSH1 0x20 SWAP1 SWAP2 ADD MLOAD SWAP1 SWAP3 POP SWAP1 POP DUP2 ISZERO PUSH2 0x5187 JUMPI PUSH1 0x40 MLOAD PUSH3 0x461BCD PUSH1 0xE5 SHL DUP2 MSTORE PUSH1 0x4 ADD DUP1 DUP1 PUSH1 0x20 ADD DUP3 DUP2 SUB DUP3 MSTORE PUSH1 0x33 DUP2 MSTORE PUSH1 0x20 ADD DUP1 PUSH2 0x5951 PUSH1 0x33 SWAP2 CODECOPY PUSH1 0x40 ADD SWAP2 POP POP PUSH1 0x40 MLOAD DUP1 SWAP2 SUB SWAP1 REVERT JUMPDEST DUP1 DUP9 PUSH1 0x1 PUSH1 0x1 PUSH1 0xA0 SHL SUB AND PUSH4 0x70A08231 DUP13 PUSH1 0x40 MLOAD DUP3 PUSH4 0xFFFFFFFF AND PUSH1 0xE0 SHL DUP2 MSTORE PUSH1 0x4 ADD DUP1 DUP3 PUSH1 0x1 PUSH1 0x1 PUSH1 0xA0 SHL SUB AND PUSH1 0x1 PUSH1 0x1 PUSH1 0xA0 SHL SUB AND DUP2 MSTORE PUSH1 0x20 ADD SWAP2 POP POP PUSH1 0x20 PUSH1 0x40 MLOAD DUP1 DUP4 SUB DUP2 DUP7 DUP1 EXTCODESIZE ISZERO DUP1 ISZERO PUSH2 0x51DE JUMPI PUSH1 0x0 DUP1 REVERT JUMPDEST POP GAS STATICCALL ISZERO DUP1 ISZERO PUSH2 0x51F2 JUMPI RETURNDATASIZE PUSH1 0x0 DUP1 RETURNDATACOPY RETURNDATASIZE PUSH1 0x0 REVERT JUMPDEST POP POP POP POP PUSH1 0x40 MLOAD RETURNDATASIZE PUSH1 0x20 DUP2 LT ISZERO PUSH2 0x5208 JUMPI PUSH1 0x0 DUP1 REVERT JUMPDEST POP MLOAD LT ISZERO PUSH2 0x525D JUMPI PUSH1 0x40 DUP1 MLOAD PUSH3 0x461BCD PUSH1 0xE5 SHL DUP2 MSTORE PUSH1 0x20 PUSH1 0x4 DUP3 ADD MSTORE PUSH1 0x18 PUSH1 0x24 DUP3 ADD MSTORE PUSH32 0x4C49515549444154455F5345495A455F544F4F5F4D5543480000000000000000 PUSH1 0x44 DUP3 ADD MSTORE SWAP1 MLOAD SWAP1 DUP2 SWAP1 SUB PUSH1 0x64 ADD SWAP1 REVERT JUMPDEST PUSH1 0x0 PUSH1 0x1 PUSH1 0x1 PUSH1 0xA0 SHL SUB DUP10 AND ADDRESS EQ ISZERO PUSH2 0x5283 JUMPI PUSH2 0x527C ADDRESS DUP14 DUP14 DUP6 PUSH2 0x32D4 JUMP JUMPDEST SWAP1 POP PUSH2 0x530D JUMP JUMPDEST PUSH1 0x40 DUP1 MLOAD PUSH4 0xB2A02FF1 PUSH1 0xE0 SHL DUP2 MSTORE PUSH1 0x1 PUSH1 0x1 PUSH1 0xA0 SHL SUB DUP15 DUP2 AND PUSH1 0x4 DUP4 ADD MSTORE DUP14 DUP2 AND PUSH1 0x24 DUP4 ADD MSTORE PUSH1 0x44 DUP3 ADD DUP6 SWAP1 MSTORE SWAP2 MLOAD SWAP2 DUP12 AND SWAP2 PUSH4 0xB2A02FF1 SWAP2 PUSH1 0x64 DUP1 DUP3 ADD SWAP3 PUSH1 0x20 SWAP3 SWAP1 SWAP2 SWAP1 DUP3 SWAP1 SUB ADD DUP2 PUSH1 0x0 DUP8 DUP1 EXTCODESIZE ISZERO DUP1 ISZERO PUSH2 0x52DE JUMPI PUSH1 0x0 DUP1 REVERT JUMPDEST POP GAS CALL ISZERO DUP1 ISZERO PUSH2 0x52F2 JUMPI RETURNDATASIZE PUSH1 0x0 DUP1 RETURNDATACOPY RETURNDATASIZE PUSH1 0x0 REVERT JUMPDEST POP POP POP POP PUSH1 0x40 MLOAD RETURNDATASIZE PUSH1 0x20 DUP2 LT ISZERO PUSH2 0x5308 JUMPI PUSH1 0x0 DUP1 REVERT JUMPDEST POP MLOAD SWAP1 POP JUMPDEST DUP1 ISZERO PUSH2 0x5357 JUMPI PUSH1 0x40 DUP1 MLOAD PUSH3 0x461BCD PUSH1 0xE5 SHL DUP2 MSTORE PUSH1 0x20 PUSH1 0x4 DUP3 ADD MSTORE PUSH1 0x14 PUSH1 0x24 DUP3 ADD MSTORE PUSH20 0x1D1BDAD95B881CD95A5E9D5C994819985A5B1959 PUSH1 0x62 SHL PUSH1 0x44 DUP3 ADD MSTORE SWAP1 MLOAD SWAP1 DUP2 SWAP1 SUB PUSH1 0x64 ADD SWAP1 REVERT JUMPDEST PUSH1 0x40 DUP1 MLOAD PUSH1 0x1 PUSH1 0x1 PUSH1 0xA0 SHL SUB DUP1 DUP16 AND DUP3 MSTORE DUP1 DUP15 AND PUSH1 0x20 DUP4 ADD MSTORE DUP2 DUP4 ADD DUP8 SWAP1 MSTORE DUP12 AND PUSH1 0x60 DUP3 ADD MSTORE PUSH1 0x80 DUP2 ADD DUP5 SWAP1 MSTORE SWAP1 MLOAD PUSH32 0x298637F684DA70674F26509B10F07EC2FBC77A335AB1E7D6215A4B2484D8BB52 SWAP2 DUP2 SWAP1 SUB PUSH1 0xA0 ADD SWAP1 LOG1 PUSH1 0x0 SWAP8 POP SWAP3 SWAP6 POP POP POP POP POP POP JUMPDEST SWAP5 POP SWAP5 SWAP3 POP POP POP JUMP JUMPDEST DUP1 DUP3 ADD DUP3 DUP2 LT ISZERO PUSH2 0xD05 JUMPI PUSH1 0x40 DUP1 MLOAD PUSH3 0x461BCD PUSH1 0xE5 SHL DUP2 MSTORE PUSH1 0x20 PUSH1 0x4 DUP3 ADD MSTORE PUSH1 0xC PUSH1 0x24 DUP3 ADD MSTORE PUSH12 0x6164642D6F766572666C6F77 PUSH1 0xA0 SHL PUSH1 0x44 DUP3 ADD MSTORE SWAP1 MLOAD SWAP1 DUP2 SWAP1 SUB PUSH1 0x64 ADD SWAP1 REVERT JUMPDEST PUSH1 0x0 PUSH2 0x157C DUP4 DUP4 PUSH1 0x40 MLOAD DUP1 PUSH1 0x40 ADD PUSH1 0x40 MSTORE DUP1 PUSH1 0x1A DUP2 MSTORE PUSH1 0x20 ADD PUSH32 0x536166654D6174683A206469766973696F6E206279207A65726F000000000000 DUP2 MSTORE POP PUSH2 0x54C0 JUMP JUMPDEST PUSH1 0x0 DUP3 DUP3 ADD DUP4 DUP2 LT ISZERO PUSH2 0x157C JUMPI PUSH1 0x40 DUP1 MLOAD PUSH3 0x461BCD PUSH1 0xE5 SHL DUP2 MSTORE PUSH1 0x20 PUSH1 0x4 DUP3 ADD MSTORE PUSH1 0x1B PUSH1 0x24 DUP3 ADD MSTORE PUSH32 0x536166654D6174683A206164646974696F6E206F766572666C6F770000000000 PUSH1 0x44 DUP3 ADD MSTORE SWAP1 MLOAD SWAP1 DUP2 SWAP1 SUB PUSH1 0x64 ADD SWAP1 REVERT JUMPDEST PUSH1 0x0 DUP1 PUSH1 0x0 PUSH2 0x54B6 PUSH2 0x55C1 JUMP JUMPDEST PUSH2 0x25B6 DUP7 DUP7 PUSH2 0x5562 JUMP JUMPDEST PUSH1 0x0 DUP2 DUP4 PUSH2 0x554C JUMPI PUSH1 0x40 MLOAD PUSH3 0x461BCD PUSH1 0xE5 SHL DUP2 MSTORE PUSH1 0x4 ADD DUP1 DUP1 PUSH1 0x20 ADD DUP3 DUP2 SUB DUP3 MSTORE DUP4 DUP2 DUP2 MLOAD DUP2 MSTORE PUSH1 0x20 ADD SWAP2 POP DUP1 MLOAD SWAP1 PUSH1 0x20 ADD SWAP1 DUP1 DUP4 DUP4 PUSH1 0x0 JUMPDEST DUP4 DUP2 LT ISZERO PUSH2 0x5511 JUMPI DUP2 DUP2 ADD MLOAD DUP4 DUP3 ADD MSTORE PUSH1 0x20 ADD PUSH2 0x54F9 JUMP JUMPDEST POP POP POP POP SWAP1 POP SWAP1 DUP2 ADD SWAP1 PUSH1 0x1F AND DUP1 ISZERO PUSH2 0x553E JUMPI DUP1 DUP3 SUB DUP1 MLOAD PUSH1 0x1 DUP4 PUSH1 0x20 SUB PUSH2 0x100 EXP SUB NOT AND DUP2 MSTORE PUSH1 0x20 ADD SWAP2 POP JUMPDEST POP SWAP3 POP POP POP PUSH1 0x40 MLOAD DUP1 SWAP2 SUB SWAP1 REVERT JUMPDEST POP PUSH1 0x0 DUP4 DUP6 DUP2 PUSH2 0x5558 JUMPI INVALID JUMPDEST DIV SWAP6 SWAP5 POP POP POP POP POP JUMP JUMPDEST PUSH1 0x0 PUSH2 0x556C PUSH2 0x55C1 JUMP JUMPDEST PUSH1 0x0 DUP1 PUSH2 0x5581 PUSH8 0xDE0B6B3A7640000 DUP8 PUSH2 0x47B9 JUMP JUMPDEST SWAP1 SWAP3 POP SWAP1 POP PUSH1 0x0 DUP3 PUSH1 0x3 DUP2 GT ISZERO PUSH2 0x5594 JUMPI INVALID JUMPDEST EQ PUSH2 0x55B3 JUMPI POP PUSH1 0x40 DUP1 MLOAD PUSH1 0x20 DUP2 ADD SWAP1 SWAP2 MSTORE PUSH1 0x0 DUP2 MSTORE SWAP1 SWAP3 POP SWAP1 POP PUSH2 0x25EC JUMP JUMPDEST PUSH2 0x25E5 DUP2 DUP7 PUSH1 0x0 ADD MLOAD PUSH2 0x3B1F JUMP JUMPDEST PUSH1 0x40 MLOAD DUP1 PUSH1 0x20 ADD PUSH1 0x40 MSTORE DUP1 PUSH1 0x0 DUP2 MSTORE POP SWAP1 JUMP JUMPDEST DUP3 DUP1 SLOAD PUSH1 0x1 DUP2 PUSH1 0x1 AND ISZERO PUSH2 0x100 MUL SUB AND PUSH1 0x2 SWAP1 DIV SWAP1 PUSH1 0x0 MSTORE PUSH1 0x20 PUSH1 0x0 KECCAK256 SWAP1 PUSH1 0x1F ADD PUSH1 0x20 SWAP1 DIV DUP2 ADD SWAP3 DUP3 PUSH1 0x1F LT PUSH2 0x5615 JUMPI DUP1 MLOAD PUSH1 0xFF NOT AND DUP4 DUP1 ADD OR DUP6 SSTORE PUSH2 0x5642 JUMP JUMPDEST DUP3 DUP1 ADD PUSH1 0x1 ADD DUP6 SSTORE DUP3 ISZERO PUSH2 0x5642 JUMPI SWAP2 DUP3 ADD JUMPDEST DUP3 DUP2 GT ISZERO PUSH2 0x5642 JUMPI DUP3 MLOAD DUP3 SSTORE SWAP2 PUSH1 0x20 ADD SWAP2 SWAP1 PUSH1 0x1 ADD SWAP1 PUSH2 0x5627 JUMP JUMPDEST POP PUSH2 0x564E SWAP3 SWAP2 POP PUSH2 0x56FF JUMP JUMPDEST POP SWAP1 JUMP JUMPDEST PUSH1 0x40 DUP1 MLOAD PUSH2 0x100 DUP2 ADD SWAP1 SWAP2 MSTORE DUP1 PUSH1 0x0 DUP2 MSTORE PUSH1 0x20 ADD PUSH1 0x0 DUP2 MSTORE PUSH1 0x20 ADD PUSH1 0x0 DUP2 MSTORE PUSH1 0x20 ADD PUSH1 0x0 DUP2 MSTORE PUSH1 0x20 ADD PUSH1 0x0 DUP2 MSTORE PUSH1 0x20 ADD PUSH1 0x0 DUP2 MSTORE PUSH1 0x20 ADD PUSH1 0x0 DUP2 MSTORE PUSH1 0x20 ADD PUSH1 0x0 DUP2 MSTORE POP SWAP1 JUMP JUMPDEST PUSH1 0x40 DUP1 MLOAD PUSH1 0xE0 DUP2 ADD SWAP1 SWAP2 MSTORE DUP1 PUSH1 0x0 DUP2 MSTORE PUSH1 0x20 ADD PUSH1 0x0 DUP2 MSTORE PUSH1 0x20 ADD PUSH1 0x0 DUP2 MSTORE PUSH1 0x20 ADD PUSH1 0x0 DUP2 MSTORE PUSH1 0x20 ADD PUSH1 0x0 DUP2 MSTORE PUSH1 0x20 ADD PUSH1 0x0 DUP2 MSTORE PUSH1 0x20 ADD PUSH1 0x0 DUP2 MSTORE POP SWAP1 JUMP JUMPDEST PUSH1 0x40 DUP1 MLOAD PUSH1 0x80 DUP2 ADD SWAP1 SWAP2 MSTORE DUP1 PUSH1 0x0 DUP2 MSTORE PUSH1 0x20 ADD PUSH1 0x0 DUP2 MSTORE PUSH1 0x20 ADD PUSH1 0x0 DUP2 MSTORE PUSH1 0x20 ADD PUSH1 0x0 DUP2 MSTORE POP SWAP1 JUMP JUMPDEST PUSH2 0x10EB SWAP2 SWAP1 JUMPDEST DUP1 DUP3 GT ISZERO PUSH2 0x564E JUMPI PUSH1 0x0 DUP2 SSTORE PUSH1 0x1 ADD PUSH2 0x5705 JUMP INVALID PUSH16 0x6E6C792061646D696E206D617920696E PUSH10 0x7469616C697A65207468 PUSH6 0x206D61726B65 PUSH21 0x6D61726B6574206D6179206F6E6C7920626520696E PUSH10 0x7469616C697A6564206F PUSH15 0x63654345726332303A3A7377656570 SLOAD PUSH16 0x6B656E3A2063616E206E6F7420737765 PUSH6 0x7020756E6465 PUSH19 0x6C79696E6720746F6B656E6F6E6C7920746865 KECCAK256 PUSH2 0x646D PUSH10 0x6E206D617920696E6974 PUSH10 0x616C697A652074686520 PUSH10 0x6D706C656D656E746174 PUSH10 0x6F6E696E697469616C20 PUSH6 0x786368616E67 PUSH6 0x207261746520 PUSH14 0x7573742062652067726561746572 KECCAK256 PUSH21 0x68616E207A65726F2E73657474696E6720696E7465 PUSH19 0x6573742072617465206D6F64656C206661696C PUSH6 0x646F6E6C7920 PUSH21 0x68652061646D696E206D6179206162616E646F6E20 PUSH21 0x686520696D706C656D656E746174696F6E4D494E54 0x5F 0x4E GASLIMIT JUMPI 0x5F COINBASE NUMBER NUMBER 0x4F SSTORE 0x4E SLOAD 0x5F TIMESTAMP COINBASE 0x4C COINBASE 0x4E NUMBER GASLIMIT 0x5F NUMBER COINBASE 0x4C NUMBER SSTORE 0x4C COINBASE SLOAD 0x49 0x4F 0x4E 0x5F CHAINID COINBASE 0x49 0x4C GASLIMIT DIFFICULTY PUSH3 0x6F7272 PUSH16 0x7742616C616E636553746F7265643A20 PUSH3 0x6F7272 PUSH16 0x7742616C616E636553746F726564496E PUSH21 0x65726E616C206661696C6564444149206D75737420 PUSH3 0x652074 PUSH9 0x652073616D65206173 KECCAK256 PUSH22 0x6E6465726C79696E6752455041595F424F52524F575F 0x4E GASLIMIT JUMPI 0x5F COINBASE NUMBER NUMBER 0x4F SSTORE 0x4E SLOAD 0x5F TIMESTAMP 0x4F MSTORE MSTORE 0x4F JUMPI 0x5F TIMESTAMP COINBASE 0x4C COINBASE 0x4E NUMBER GASLIMIT 0x5F NUMBER COINBASE 0x4C NUMBER SSTORE 0x4C COINBASE SLOAD 0x49 0x4F 0x4E 0x5F CHAINID COINBASE 0x49 0x4C GASLIMIT DIFFICULTY 0xDD CALLCODE MSTORE 0xAD SHL 0xE2 0xC8 SWAP12 PUSH10 0xC2B068FC378DAA952BA7 CALL PUSH4 0xC4A11628 CREATE2 GAS 0x4D CREATE2 0x23 0xB3 0xEF MSTORE GASLIMIT POP COINBASE MSIZE 0x5F TIMESTAMP 0x4F MSTORE MSTORE 0x4F JUMPI 0x5F 0x4E GASLIMIT JUMPI 0x5F SLOAD 0x4F SLOAD COINBASE 0x4C 0x5F TIMESTAMP COINBASE 0x4C COINBASE 0x4E NUMBER GASLIMIT 0x5F NUMBER COINBASE 0x4C NUMBER SSTORE 0x4C COINBASE SLOAD 0x49 0x4F 0x4E 0x5F CHAINID COINBASE 0x49 0x4C GASLIMIT DIFFICULTY 0x4C 0x49 MLOAD SSTORE 0x49 DIFFICULTY COINBASE SLOAD GASLIMIT 0x5F NUMBER 0x4F 0x4D POP SLOAD MSTORE 0x4F 0x4C 0x4C GASLIMIT MSTORE 0x5F NUMBER COINBASE 0x4C NUMBER SSTORE 0x4C COINBASE SLOAD GASLIMIT 0x5F COINBASE 0x4D 0x4F SSTORE 0x4E SLOAD 0x5F MSTORE8 GASLIMIT 0x49 GAS GASLIMIT 0x5F CHAINID COINBASE 0x49 0x4C GASLIMIT DIFFICULTY PUSH22 0x6E6578706563746564204549502D3230207472616E73 PUSH7 0x657220696E2072 PUSH6 0x7475726E6578 PUSH4 0x68616E67 PUSH6 0x526174655374 PUSH16 0x7265643A2065786368616E6765526174 PUSH6 0x53746F726564 0x49 PUSH15 0x7465726E616C206661696C65644D49 0x4E SLOAD 0x5F 0x4E GASLIMIT JUMPI 0x5F SLOAD 0x4F SLOAD COINBASE 0x4C 0x5F MSTORE8 SSTORE POP POP 0x4C MSIZE 0x5F NUMBER COINBASE 0x4C NUMBER SSTORE 0x4C COINBASE SLOAD 0x49 0x4F 0x4E 0x5F CHAINID COINBASE 0x49 0x4C GASLIMIT DIFFICULTY PUSH16 0x6E65206F662072656465656D546F6B65 PUSH15 0x73496E206F722072656465656D416D PUSH16 0x756E74496E206D757374206265207A65 PUSH19 0x6F72656475636520726573657276657320756E PUSH6 0x787065637465 PUSH5 0x20756E6465 PUSH19 0x666C6F77A265627A7A72315820AABCDD835D93 PUSH27 0x1AC652F31CC5316C3FAFE0B5C10DA4011224B73D3F9C1E1BC46473 PUSH16 0x6C634300051100320000000000000000 "
    }
  },
  "humanReadableAbi": [
    "event AccrueInterest(uint256 cashPrior, uint256 interestAccumulated, uint256 borrowIndex, uint256 totalBorrows)",
    "event Approval(address indexed owner, address indexed spender, uint256 amount)",
    "event Borrow(address borrower, uint256 borrowAmount, uint256 accountBorrows, uint256 totalBorrows)",
    "event Failure(uint256 error, uint256 info, uint256 detail)",
    "event LiquidateBorrow(address liquidator, address borrower, uint256 repayAmount, address cTokenCollateral, uint256 seizeTokens)",
    "event Mint(address minter, uint256 mintAmount, uint256 mintTokens)",
    "event NewAdmin(address oldAdmin, address newAdmin)",
    "event NewComptroller(address oldComptroller, address newComptroller)",
    "event NewMarketInterestRateModel(address oldInterestRateModel, address newInterestRateModel)",
    "event NewPendingAdmin(address oldPendingAdmin, address newPendingAdmin)",
    "event NewReserveFactor(uint256 oldReserveFactorMantissa, uint256 newReserveFactorMantissa)",
    "event Redeem(address redeemer, uint256 redeemAmount, uint256 redeemTokens)",
    "event RepayBorrow(address payer, address borrower, uint256 repayAmount, uint256 accountBorrows, uint256 totalBorrows)",
    "event ReservesAdded(address benefactor, uint256 addAmount, uint256 newTotalReserves)",
    "event ReservesReduced(address admin, uint256 reduceAmount, uint256 newTotalReserves)",
    "event Transfer(address indexed from, address indexed to, uint256 amount)",
    "function _acceptAdmin() returns(uint256)",
    "function _addReserves(uint256 addAmount) returns(uint256)",
    "function _becomeImplementation(bytes data)",
    "function _reduceReserves(uint256 reduceAmount) returns(uint256)",
    "function _resignImplementation()",
    "function _setComptroller(address newComptroller) returns(uint256)",
    "function _setInterestRateModel(address newInterestRateModel) returns(uint256)",
    "function _setPendingAdmin(address newPendingAdmin) returns(uint256)",
    "function _setReserveFactor(uint256 newReserveFactorMantissa) returns(uint256)",
    "function accrualBlockNumber() view returns(uint256)",
    "function accrueInterest() returns(uint256)",
    "function admin() view returns(address)",
    "function allowance(address owner, address spender) view returns(uint256)",
    "function approve(address spender, uint256 amount) returns(bool)",
    "function balanceOf(address owner) view returns(uint256)",
    "function balanceOfUnderlying(address owner) returns(uint256)",
    "function borrow(uint256 borrowAmount) returns(uint256)",
    "function borrowBalanceCurrent(address account) returns(uint256)",
    "function borrowBalanceStored(address account) view returns(uint256)",
    "function borrowIndex() view returns(uint256)",
    "function borrowRatePerBlock() view returns(uint256)",
    "function comptroller() view returns(address)",
    "function daiJoinAddress() view returns(address)",
    "function decimals() view returns(uint8)",
    "function exchangeRateCurrent() returns(uint256)",
    "function exchangeRateStored() view returns(uint256)",
    "function getAccountSnapshot(address account) view returns(uint256, uint256, uint256, uint256)",
    "function getCash() view returns(uint256)",
    "function implementation() view returns(address)",
    "function initialize(address underlying_, address comptroller_, address interestRateModel_, uint256 initialExchangeRateMantissa_, string name_, string symbol_, uint8 decimals_)",
    "function initialize(address comptroller_, address interestRateModel_, uint256 initialExchangeRateMantissa_, string name_, string symbol_, uint8 decimals_)",
    "function interestRateModel() view returns(address)",
    "function isCToken() view returns(bool)",
    "function liquidateBorrow(address borrower, uint256 repayAmount, address cTokenCollateral) returns(uint256)",
    "function mint(uint256 mintAmount) returns(uint256)",
    "function name() view returns(string)",
    "function pendingAdmin() view returns(address)",
    "function potAddress() view returns(address)",
    "function redeem(uint256 redeemTokens) returns(uint256)",
    "function redeemUnderlying(uint256 redeemAmount) returns(uint256)",
    "function repayBorrow(uint256 repayAmount) returns(uint256)",
    "function repayBorrowBehalf(address borrower, uint256 repayAmount) returns(uint256)",
    "function reserveFactorMantissa() view returns(uint256)",
    "function seize(address liquidator, address borrower, uint256 seizeTokens) returns(uint256)",
    "function supplyRatePerBlock() view returns(uint256)",
    "function sweepToken(address token)",
    "function symbol() view returns(string)",
    "function totalBorrows() view returns(uint256)",
    "function totalBorrowsCurrent() returns(uint256)",
    "function totalReserves() view returns(uint256)",
    "function totalSupply() view returns(uint256)",
    "function transfer(address dst, uint256 amount) returns(bool)",
    "function transferFrom(address src, address dst, uint256 amount) returns(bool)",
    "function underlying() view returns(address)",
    "function vatAddress() view returns(address)"
  ]
}