{
  "abi": [
    {
      "constant": false,
      "inputs": [
        {
          "internalType": "contract CToken",
          "name": "cToken",
          "type": "address"
        },
        {
          "internalType": "address payable",
          "name": "account",
          "type": "address"
        }
      ],
      "name": "cTokenBalances",
      "outputs": [
        {
          "components": [
            {
              "internalType": "address",
              "name": "cToken",
              "type": "address"
            },
            {
              "internalType": "uint256",
              "name": "balanceOf",
              "type": "uint256"
            },
            {
              "internalType": "uint256",
              "name": "borrowBalanceCurrent",
              "type": "uint256"
            },
            {
              "internalType": "uint256",
              "name": "balanceOfUnderlying",
              "type": "uint256"
            },
            {
              "internalType": "uint256",
              "name": "tokenBalance",
              "type": "uint256"
            },
            {
              "internalType": "uint256",
              "name": "tokenAllowance",
              "type": "uint256"
            }
          ],
          "internalType": "struct CompoundLens.CTokenBalances",
          "name": "",
          "type": "tuple"
        }
      ],
      "payable": false,
      "stateMutability": "nonpayable",
      "type": "function"
    },
    {
      "constant": false,
      "inputs": [
        {
          "internalType": "contract CToken[]",
          "name": "cTokens",
          "type": "address[]"
        },
        {
          "internalType": "address payable",
          "name": "account",
          "type": "address"
        }
      ],
      "name": "cTokenBalancesAll",
      "outputs": [
        {
          "components": [
            {
              "internalType": "address",
              "name": "cToken",
              "type": "address"
            },
            {
              "internalType": "uint256",
              "name": "balanceOf",
              "type": "uint256"
            },
            {
              "internalType": "uint256",
              "name": "borrowBalanceCurrent",
              "type": "uint256"
            },
            {
              "internalType": "uint256",
              "name": "balanceOfUnderlying",
              "type": "uint256"
            },
            {
              "internalType": "uint256",
              "name": "tokenBalance",
              "type": "uint256"
            },
            {
              "internalType": "uint256",
              "name": "tokenAllowance",
              "type": "uint256"
            }
          ],
          "internalType": "struct CompoundLens.CTokenBalances[]",
          "name": "",
          "type": "tuple[]"
        }
      ],
      "payable": false,
      "stateMutability": "nonpayable",
      "type": "function"
    },
    {
      "constant": false,
      "inputs": [
        {
          "internalType": "contract CToken",
          "name": "cToken",
          "type": "address"
        }
      ],
      "name": "cTokenMetadata",
      "outputs": [
        {
          "components": [
            {
              "internalType": "address",
              "name": "cToken",
              "type": "address"
            },
            {
              "internalType": "uint256",
              "name": "exchangeRateCurrent",
              "type": "uint256"
            },
            {
              "internalType": "uint256",
              "name": "supplyRatePerBlock",
              "type": "uint256"
            },
            {
              "internalType": "uint256",
              "name": "borrowRatePerBlock",
              "type": "uint256"
            },
            {
              "internalType": "uint256",
              "name": "reserveFactorMantissa",
              "type": "uint256"
            },
            {
              "internalType": "uint256",
              "name": "totalBorrows",
              "type": "uint256"
            },
            {
              "internalType": "uint256",
              "name": "totalReserves",
              "type": "uint256"
            },
            {
              "internalType": "uint256",
              "name": "totalSupply",
              "type": "uint256"
            },
            {
              "internalType": "uint256",
              "name": "totalCash",
              "type": "uint256"
            },
            {
              "internalType": "bool",
              "name": "isListed",
              "type": "bool"
            },
            {
              "internalType": "uint256",
              "name": "collateralFactorMantissa",
              "type": "uint256"
            },
            {
              "internalType": "address",
              "name": "underlyingAssetAddress",
              "type": "address"
            },
            {
              "internalType": "uint256",
              "name": "cTokenDecimals",
              "type": "uint256"
            },
            {
              "internalType": "uint256",
              "name": "underlyingDecimals",
              "type": "uint256"
            }
          ],
          "internalType": "struct CompoundLens.CTokenMetadata",
          "name": "",
          "type": "tuple"
        }
      ],
      "payable": false,
      "stateMutability": "nonpayable",
      "type": "function"
    },
    {
      "constant": false,
      "inputs": [
        {
          "internalType": "contract CToken[]",
          "name": "cTokens",
          "type": "address[]"
        }
      ],
      "name": "cTokenMetadataAll",
      "outputs": [
        {
          "components": [
            {
              "internalType": "address",
              "name": "cToken",
              "type": "address"
            },
            {
              "internalType": "uint256",
              "name": "exchangeRateCurrent",
              "type": "uint256"
            },
            {
              "internalType": "uint256",
              "name": "supplyRatePerBlock",
              "type": "uint256"
            },
            {
              "internalType": "uint256",
              "name": "borrowRatePerBlock",
              "type": "uint256"
            },
            {
              "internalType": "uint256",
              "name": "reserveFactorMantissa",
              "type": "uint256"
            },
            {
              "internalType": "uint256",
              "name": "totalBorrows",
              "type": "uint256"
            },
            {
              "internalType": "uint256",
              "name": "totalReserves",
              "type": "uint256"
            },
            {
              "internalType": "uint256",
              "name": "totalSupply",
              "type": "uint256"
            },
            {
              "internalType": "uint256",
              "name": "totalCash",
              "type": "uint256"
            },
            {
              "internalType": "bool",
              "name": "isListed",
              "type": "bool"
            },
            {
              "internalType": "uint256",
              "name": "collateralFactorMantissa",
              "type": "uint256"
            },
            {
              "internalType": "address",
              "name": "underlyingAssetAddress",
              "type": "address"
            },
            {
              "internalType": "uint256",
              "name": "cTokenDecimals",
              "type": "uint256"
            },
            {
              "internalType": "uint256",
              "name": "underlyingDecimals",
              "type": "uint256"
            }
          ],
          "internalType": "struct CompoundLens.CTokenMetadata[]",
          "name": "",
          "type": "tuple[]"
        }
      ],
      "payable": false,
      "stateMutability": "nonpayable",
      "type": "function"
    },
    {
      "constant": false,
      "inputs": [
        {
          "internalType": "contract CToken",
          "name": "cToken",
          "type": "address"
        }
      ],
      "name": "cTokenUnderlyingPrice",
      "outputs": [
        {
          "components": [
            {
              "internalType": "address",
              "name": "cToken",
              "type": "address"
            },
            {
              "internalType": "uint256",
              "name": "underlyingPrice",
              "type": "uint256"
            }
          ],
          "internalType": "struct CompoundLens.CTokenUnderlyingPrice",
          "name": "",
          "type": "tuple"
        }
      ],
      "payable": false,
      "stateMutability": "nonpayable",
      "type": "function"
    },
    {
      "constant": false,
      "inputs": [
        {
          "internalType": "contract CToken[]",
          "name": "cTokens",
          "type": "address[]"
        }
      ],
      "name": "cTokenUnderlyingPriceAll",
      "outputs": [
        {
          "components": [
            {
              "internalType": "address",
              "name": "cToken",
              "type": "address"
            },
            {
              "internalType": "uint256",
              "name": "underlyingPrice",
              "type": "uint256"
            }
          ],
          "internalType": "struct CompoundLens.CTokenUnderlyingPrice[]",
          "name": "",
          "type": "tuple[]"
        }
      ],
      "payable": false,
      "stateMutability": "nonpayable",
      "type": "function"
    },
    {
      "constant": false,
      "inputs": [
        {
          "internalType": "contract ComptrollerLensInterface",
          "name": "comptroller",
          "type": "address"
        },
        {
          "internalType": "address",
          "name": "account",
          "type": "address"
        }
      ],
      "name": "getAccountLimits",
      "outputs": [
        {
          "components": [
            {
              "internalType": "contract CToken[]",
              "name": "markets",
              "type": "address[]"
            },
            {
              "internalType": "uint256",
              "name": "liquidity",
              "type": "uint256"
            },
            {
              "internalType": "uint256",
              "name": "shortfall",
              "type": "uint256"
            }
          ],
          "internalType": "struct CompoundLens.AccountLimits",
          "name": "",
          "type": "tuple"
        }
      ],
      "payable": false,
      "stateMutability": "nonpayable",
      "type": "function"
    },
    {
      "constant": true,
      "inputs": [
        {
          "internalType": "contract Comp",
          "name": "comp",
          "type": "address"
        },
        {
          "internalType": "address",
          "name": "account",
          "type": "address"
        }
      ],
      "name": "getCompBalanceMetadata",
      "outputs": [
        {
          "components": [
            {
              "internalType": "uint256",
              "name": "balance",
              "type": "uint256"
            },
            {
              "internalType": "uint256",
              "name": "votes",
              "type": "uint256"
            },
            {
              "internalType": "address",
              "name": "delegate",
              "type": "address"
            }
          ],
          "internalType": "struct CompoundLens.CompBalanceMetadata",
          "name": "",
          "type": "tuple"
        }
      ],
      "payable": false,
      "stateMutability": "view",
      "type": "function"
    },
    {
      "constant": false,
      "inputs": [
        {
          "internalType": "contract Comp",
          "name": "comp",
          "type": "address"
        },
        {
          "internalType": "contract ComptrollerLensInterface",
          "name": "comptroller",
          "type": "address"
        },
        {
          "internalType": "address",
          "name": "account",
          "type": "address"
        }
      ],
      "name": "getCompBalanceMetadataExt",
      "outputs": [
        {
          "components": [
            {
              "internalType": "uint256",
              "name": "balance",
              "type": "uint256"
            },
            {
              "internalType": "uint256",
              "name": "votes",
              "type": "uint256"
            },
            {
              "internalType": "address",
              "name": "delegate",
              "type": "address"
            },
            {
              "internalType": "uint256",
              "name": "allocated",
              "type": "uint256"
            }
          ],
          "internalType": "struct CompoundLens.CompBalanceMetadataExt",
          "name": "",
          "type": "tuple"
        }
      ],
      "payable": false,
      "stateMutability": "nonpayable",
      "type": "function"
    },
    {
      "constant": true,
      "inputs": [
        {
          "internalType": "contract Comp",
          "name": "comp",
          "type": "address"
        },
        {
          "internalType": "address",
          "name": "account",
          "type": "address"
        },
        {
          "internalType": "uint32[]",
          "name": "blockNumbers",
          "type": "uint32[]"
        }
      ],
      "name": "getCompVotes",
      "outputs": [
        {
          "components": [
            {
              "internalType": "uint256",
              "name": "blockNumber",
              "type": "uint256"
            },
            {
              "internalType": "uint256",
              "name": "votes",
              "type": "uint256"
            }
          ],
          "internalType": "struct CompoundLens.CompVotes[]",
          "name": "",
          "type": "tuple[]"
        }
      ],
      "payable": false,
      "stateMutability": "view",
      "type": "function"
    },
    {
      "constant": true,
      "inputs": [
        {
          "internalType": "contract GovernorBravoInterface",
          "name": "governor",
          "type": "address"
        },
        {
          "internalType": "uint256[]",
          "name": "proposalIds",
          "type": "uint256[]"
        }
      ],
      "name": "getGovBravoProposals",
      "outputs": [
        {
          "components": [
            {
              "internalType": "uint256",
              "name": "proposalId",
              "type": "uint256"
            },
            {
              "internalType": "address",
              "name": "proposer",
              "type": "address"
            },
            {
              "internalType": "uint256",
              "name": "eta",
              "type": "uint256"
            },
            {
              "internalType": "address[]",
              "name": "targets",
              "type": "address[]"
            },
            {
              "internalType": "uint256[]",
              "name": "values",
              "type": "uint256[]"
            },
            {
              "internalType": "string[]",
              "name": "signatures",
              "type": "string[]"
            },
            {
              "internalType": "bytes[]",
              "name": "calldatas",
              "type": "bytes[]"
            },
            {
              "internalType": "uint256",
              "name": "startBlock",
              "type": "uint256"
            },
            {
              "internalType": "uint256",
              "name": "endBlock",
              "type": "uint256"
            },
            {
              "internalType": "uint256",
              "name": "forVotes",
              "type": "uint256"
            },
            {
              "internalType": "uint256",
              "name": "againstVotes",
              "type": "uint256"
            },
            {
              "internalType": "uint256",
              "name": "abstainVotes",
              "type": "uint256"
            },
            {
              "internalType": "bool",
              "name": "canceled",
              "type": "bool"
            },
            {
              "internalType": "bool",
              "name": "executed",
              "type": "bool"
            }
          ],
          "internalType": "struct CompoundLens.GovBravoProposal[]",
          "name": "",
          "type": "tuple[]"
        }
      ],
      "payable": false,
      "stateMutability": "view",
      "type": "function"
    },
    {
      "constant": true,
      "inputs": [
        {
          "internalType": "contract GovernorBravoInterface",
          "name": "governor",
          "type": "address"
        },
        {
          "internalType": "address",
          "name": "voter",
          "type": "address"
        },
        {
          "internalType": "uint256[]",
          "name": "proposalIds",
          "type": "uint256[]"
        }
      ],
      "name": "getGovBravoReceipts",
      "outputs": [
        {
          "components": [
            {
              "internalType": "uint256",
              "name": "proposalId",
              "type": "uint256"
            },
            {
              "internalType": "bool",
              "name": "hasVoted",
              "type": "bool"
            },
            {
              "internalType": "uint8",
              "name": "support",
              "type": "uint8"
            },
            {
              "internalType": "uint96",
              "name": "votes",
              "type": "uint96"
            }
          ],
          "internalType": "struct CompoundLens.GovBravoReceipt[]",
          "name": "",
          "type": "tuple[]"
        }
      ],
      "payable": false,
      "stateMutability": "view",
      "type": "function"
    },
    {
      "constant": true,
      "inputs": [
        {
          "internalType": "contract GovernorAlpha",
          "name": "governor",
          "type": "address"
        },
        {
          "internalType": "uint256[]",
          "name": "proposalIds",
          "type": "uint256[]"
        }
      ],
      "name": "getGovProposals",
      "outputs": [
        {
          "components": [
            {
              "internalType": "uint256",
              "name": "proposalId",
              "type": "uint256"
            },
            {
              "internalType": "address",
              "name": "proposer",
              "type": "address"
            },
            {
              "internalType": "uint256",
              "name": "eta",
              "type": "uint256"
            },
            {
              "internalType": "address[]",
              "name": "targets",
              "type": "address[]"
            },
            {
              "internalType": "uint256[]",
              "name": "values",
              "type": "uint256[]"
            },
            {
              "internalType": "string[]",
              "name": "signatures",
              "type": "string[]"
            },
            {
              "internalType": "bytes[]",
              "name": "calldatas",
              "type": "bytes[]"
            },
            {
              "internalType": "uint256",
              "name": "startBlock",
              "type": "uint256"
            },
            {
              "internalType": "uint256",
              "name": "endBlock",
              "type": "uint256"
            },
            {
              "internalType": "uint256",
              "name": "forVotes",
              "type": "uint256"
            },
            {
              "internalType": "uint256",
              "name": "againstVotes",
              "type": "uint256"
            },
            {
              "internalType": "bool",
              "name": "canceled",
              "type": "bool"
            },
            {
              "internalType": "bool",
              "name": "executed",
              "type": "bool"
            }
          ],
          "internalType": "struct CompoundLens.GovProposal[]",
          "name": "",
          "type": "tuple[]"
        }
      ],
      "payable": false,
      "stateMutability": "view",
      "type": "function"
    },
    {
      "constant": true,
      "inputs": [
        {
          "internalType": "contract GovernorAlpha",
          "name": "governor",
          "type": "address"
        },
        {
          "internalType": "address",
          "name": "voter",
          "type": "address"
        },
        {
          "internalType": "uint256[]",
          "name": "proposalIds",
          "type": "uint256[]"
        }
      ],
      "name": "getGovReceipts",
      "outputs": [
        {
          "components": [
            {
              "internalType": "uint256",
              "name": "proposalId",
              "type": "uint256"
            },
            {
              "internalType": "bool",
              "name": "hasVoted",
              "type": "bool"
            },
            {
              "internalType": "bool",
              "name": "support",
              "type": "bool"
            },
            {
              "internalType": "uint96",
              "name": "votes",
              "type": "uint96"
            }
          ],
          "internalType": "struct CompoundLens.GovReceipt[]",
          "name": "",
          "type": "tuple[]"
        }
      ],
      "payable": false,
      "stateMutability": "view",
      "type": "function"
    }
  ],
  "evm": {
    "bytecode": {
      "linkReferences": {},
      "object": "608060405234801561001057600080fd5b50613e1f806100206000396000f3fe608060405234801561001057600080fd5b50600436106100ea5760003560e01c8063595642191161008c57806396994869116100665780639699486914610238578063995ed99f14610258578063bdf950c914610278578063c5ae593414610298576100ea565b806359564219146101d857806375d80e90146101f85780637dd8f6d914610218576100ea565b80632b2d5ed6116100c85780632b2d5ed614610158578063416405d71461017857806343c811cc146101985780634b70d84b146101b8576100ea565b80630972bf8b146100ef578063158eca8b146101185780631ea6374114610138575b600080fd5b6101026100fd366004612b46565b6102b8565b60405161010f9190613b5e565b60405180910390f35b61012b610126366004612c08565b61035b565b60405161010f9190613c24565b61014b610146366004612cbd565b610adf565b60405161010f9190613c41565b61016b610166366004612b05565b610e66565b60405161010f9190613b80565b61018b610186366004612c26565b610f02565b60405161010f9190613c4f565b6101ab6101a6366004612d1e565b6110ab565b60405161010f9190613bb3565b6101cb6101c6366004612b05565b611206565b60405161010f9190613b6f565b6101eb6101e6366004612c56565b611297565b60405161010f9190613b91565b61020b610206366004612d78565b6113ef565b60405161010f9190613ba2565b61022b610226366004612c26565b6115b2565b60405161010f9190613c05565b61024b610246366004612d78565b6116ee565b60405161010f9190613bc4565b61026b610266366004612d1e565b6118a1565b60405161010f9190613bd5565b61028b610286366004612c26565b6119fb565b60405161010f9190613c16565b6102ab6102a6366004612c08565b611d9b565b60405161010f9190613c33565b604080518381526020808502820101909152606090839082908280156102f857816020015b6102e561220b565b8152602001906001900390816102dd5790505b50905060005b8281101561034f5761033087878381811061031557fe5b905060200201602061032a9190810190612c08565b866119fb565b82828151811061033c57fe5b60209081029190910101526001016102fe565b509150505b9392505050565b61036361224a565b6000826001600160a01b031663bd6d894d6040518163ffffffff1660e01b8152600401602060405180830381600087803b1580156103a057600080fd5b505af11580156103b4573d6000803e3d6000fd5b505050506040513d601f19601f820116820180604052506103d89190810190612e5c565b90506000836001600160a01b0316635fe3b5676040518163ffffffff1660e01b815260040160206040518083038186803b15801561041557600080fd5b505afa158015610429573d6000803e3d6000fd5b505050506040513d601f19601f8201168201806040525061044d9190810190612d00565b9050600080826001600160a01b0316638e8f294b876040518263ffffffff1660e01b815260040161047e9190613b0c565b604080518083038186803b15801561049557600080fd5b505afa1580156104a9573d6000803e3d6000fd5b505050506040513d601f19601f820116820180604052506104cd9190810190612bce565b9150915060008061056e886001600160a01b03166395d89b416040518163ffffffff1660e01b815260040160006040518083038186803b15801561051057600080fd5b505afa158015610524573d6000803e3d6000fd5b505050506040513d6000823e601f3d908101601f1916820160405261054c9190810190612dcd565b604051806040016040528060048152602001630c68aa8960e31b815250611f2d565b1561057f57506000905060126106df565b6000889050806001600160a01b0316636f307dc36040518163ffffffff1660e01b815260040160206040518083038186803b1580156105bd57600080fd5b505afa1580156105d1573d6000803e3d6000fd5b505050506040513d601f19601f820116820180604052506105f59190810190612a23565b9250806001600160a01b0316636f307dc36040518163ffffffff1660e01b815260040160206040518083038186803b15801561063057600080fd5b505afa158015610644573d6000803e3d6000fd5b505050506040513d601f19601f820116820180604052506106689190810190612a23565b6001600160a01b031663313ce5676040518163ffffffff1660e01b815260040160206040518083038186803b1580156106a057600080fd5b505afa1580156106b4573d6000803e3d6000fd5b505050506040513d601f19601f820116820180604052506106d89190810190612f9f565b60ff169150505b604051806101c00160405280896001600160a01b03168152602001878152602001896001600160a01b031663ae9d70b06040518163ffffffff1660e01b815260040160206040518083038186803b15801561073957600080fd5b505afa15801561074d573d6000803e3d6000fd5b505050506040513d601f19601f820116820180604052506107719190810190612e5c565b8152602001896001600160a01b031663f8f9da286040518163ffffffff1660e01b815260040160206040518083038186803b1580156107af57600080fd5b505afa1580156107c3573d6000803e3d6000fd5b505050506040513d601f19601f820116820180604052506107e79190810190612e5c565b8152602001896001600160a01b031663173b99046040518163ffffffff1660e01b815260040160206040518083038186803b15801561082557600080fd5b505afa158015610839573d6000803e3d6000fd5b505050506040513d601f19601f8201168201806040525061085d9190810190612e5c565b8152602001896001600160a01b03166347bd37186040518163ffffffff1660e01b815260040160206040518083038186803b15801561089b57600080fd5b505afa1580156108af573d6000803e3d6000fd5b505050506040513d601f19601f820116820180604052506108d39190810190612e5c565b8152602001896001600160a01b0316638f840ddd6040518163ffffffff1660e01b815260040160206040518083038186803b15801561091157600080fd5b505afa158015610925573d6000803e3d6000fd5b505050506040513d601f19601f820116820180604052506109499190810190612e5c565b8152602001896001600160a01b03166318160ddd6040518163ffffffff1660e01b815260040160206040518083038186803b15801561098757600080fd5b505afa15801561099b573d6000803e3d6000fd5b505050506040513d601f19601f820116820180604052506109bf9190810190612e5c565b8152602001896001600160a01b0316633b1d21a26040518163ffffffff1660e01b815260040160206040518083038186803b1580156109fd57600080fd5b505afa158015610a11573d6000803e3d6000fd5b505050506040513d601f19601f82011682018060405250610a359190810190612e5c565b81526020018515158152602001848152602001836001600160a01b03168152602001896001600160a01b031663313ce5676040518163ffffffff1660e01b815260040160206040518083038186803b158015610a9057600080fd5b505afa158015610aa4573d6000803e3d6000fd5b505050506040513d601f19601f82011682018060405250610ac89190810190612f9f565b60ff16815260200191909152979650505050505050565b610ae76122cd565b6040516370a0823160e01b81526000906001600160a01b038616906370a0823190610b16908690600401613b0c565b60206040518083038186803b158015610b2e57600080fd5b505afa158015610b42573d6000803e3d6000fd5b505050506040513d601f19601f82011682018060405250610b669190810190612e5c565b6040516374d7814960e11b81529091506001600160a01b0385169063e9af029290610b95908690600401613b0c565b600060405180830381600087803b158015610baf57600080fd5b505af1158015610bc3573d6000803e3d6000fd5b50506040516370a0823160e01b8152600092506001600160a01b03881691506370a0823190610bf6908790600401613b0c565b60206040518083038186803b158015610c0e57600080fd5b505afa158015610c22573d6000803e3d6000fd5b505050506040513d601f19601f82011682018060405250610c469190810190612e5c565b90506000856001600160a01b031663cc7ebdc4866040518263ffffffff1660e01b8152600401610c769190613b0c565b60206040518083038186803b158015610c8e57600080fd5b505afa158015610ca2573d6000803e3d6000fd5b505050506040513d601f19601f82011682018060405250610cc69190810190612e5c565b90506000610cfb82846040518060400160405280600e81526020016d1cdd5b4818dbdb5c081d1bdd185b60921b815250611f86565b90506000610d2f82866040518060400160405280600d81526020016c1cdd5888185b1b1bd8d85d1959609a1b815250611fb6565b905060405180608001604052808681526020018a6001600160a01b031663b4b5ea578a6040518263ffffffff1660e01b8152600401610d6e9190613b0c565b60206040518083038186803b158015610d8657600080fd5b505afa158015610d9a573d6000803e3d6000fd5b505050506040513d601f19601f82011682018060405250610dbe9190810190612fbd565b6001600160601b031681526020018a6001600160a01b031663587cde1e8a6040518263ffffffff1660e01b8152600401610df89190613b0c565b60206040518083038186803b158015610e1057600080fd5b505afa158015610e24573d6000803e3d6000fd5b505050506040513d601f19601f82011682018060405250610e489190810190612a23565b6001600160a01b031681526020019190915298975050505050505050565b60408051828152602080840282010190915260609082908290828015610ea657816020015b610e936122fe565b815260200190600190039081610e8b5790505b50905060005b82811015610ef757610ed8868683818110610ec357fe5b90506020020160206102a69190810190612c08565b828281518110610ee457fe5b6020908102919091010152600101610eac565b509150505b92915050565b610f0a612315565b6040805160608101918290526370a0823160e01b909152806001600160a01b0385166370a08231610f3e8660648501613b0c565b60206040518083038186803b158015610f5657600080fd5b505afa158015610f6a573d6000803e3d6000fd5b505050506040513d601f19601f82011682018060405250610f8e9190810190612e5c565b8152602001846001600160a01b031663b4b5ea57856040518263ffffffff1660e01b8152600401610fbf9190613b0c565b60206040518083038186803b158015610fd757600080fd5b505afa158015610feb573d6000803e3d6000fd5b505050506040513d601f19601f8201168201806040525061100f9190810190612fbd565b6001600160601b03168152602001846001600160a01b031663587cde1e856040518263ffffffff1660e01b81526004016110499190613b0c565b60206040518083038186803b15801561106157600080fd5b505afa158015611075573d6000803e3d6000fd5b505050506040513d601f19601f820116820180604052506110999190810190612a23565b6001600160a01b031690529392505050565b60606000825190506060816040519080825280602002602001820160405280156110ef57816020015b6110dc61233f565b8152602001906001900390816110d45790505b50905060005b8281101561034f57611105612366565b876001600160a01b031663e23a9a5287848151811061112057fe5b6020026020010151896040518363ffffffff1660e01b8152600401611146929190613c6b565b60606040518083038186803b15801561115e57600080fd5b505afa158015611172573d6000803e3d6000fd5b505050506040513d601f19601f820116820180604052506111969190810190612e3e565b905060405180608001604052808784815181106111af57fe5b60200260200101518152602001826000015115158152602001826020015160ff16815260200182604001516001600160601b03168152508383815181106111f257fe5b6020908102919091010152506001016110f5565b6040805182815260208084028201019091526060908290829082801561124657816020015b61123361224a565b81526020019060019003908161122b5790505b50905060005b82811015610ef75761127886868381811061126357fe5b90506020020160206101269190810190612c08565b82828151811061128457fe5b602090810291909101015260010161124c565b606080838390506040519080825280602002602001820160405280156112d757816020015b6112c4612386565b8152602001906001900390816112bc5790505b50905060005b838110156113e55760405180604001604052808686848181106112fc57fe5b90506020020160206113119190810190612f81565b63ffffffff168152602001886001600160a01b031663782d6fe18989898781811061133857fe5b905060200201602061134d9190810190612f81565b6040518363ffffffff1660e01b815260040161136a929190613b43565b60206040518083038186803b15801561138257600080fd5b505afa158015611396573d6000803e3d6000fd5b505050506040513d601f19601f820116820180604052506113ba9190810190612fbd565b6001600160601b03168152508282815181106113d257fe5b60209081029190910101526001016112dd565b5095945050505050565b6060808383905060405190808252806020026020018201604052801561142f57816020015b61141c6123a0565b8152602001906001900390816114145790505b50905060005b838110156115a957606080606080896001600160a01b031663328dd9828a8a8881811061145e57fe5b905060200201356040518263ffffffff1660e01b81526004016114819190613c5d565b60006040518083038186803b15801561149957600080fd5b505afa1580156114ad573d6000803e3d6000fd5b505050506040513d6000823e601f3d908101601f191682016040526114d59190810190612a49565b9350935093509350604051806101c001604052806000815260200160006001600160a01b031681526020016000815260200185815260200184815260200183815260200182815260200160008152602001600081526020016000815260200160008152602001600081526020016000151581526020016000151581525086868151811061155e57fe5b602002602001018190525061159986868151811061157857fe5b60200260200101518b8b8b8981811061158d57fe5b90506020020135611fe2565b5050600190920191506114359050565b50949350505050565b6115ba61241c565b6000806000856001600160a01b0316635ec88c79866040518263ffffffff1660e01b81526004016115eb9190613b0c565b60606040518083038186803b15801561160357600080fd5b505afa158015611617573d6000803e3d6000fd5b505050506040513d601f19601f8201168201806040525061163b9190810190612f3e565b9250925092508260001461164e57600080fd5b604080516060810191829052632aff3bff60e21b909152806001600160a01b03881663abfceffc6116828960648501613b0c565b60006040518083038186803b15801561169a57600080fd5b505afa1580156116ae573d6000803e3d6000fd5b505050506040513d6000823e601f3d908101601f191682016040526116d69190810190612b9a565b81526020810193909352604090920152949350505050565b6060808383905060405190808252806020026020018201604052801561172e57816020015b61171b61243d565b8152602001906001900390816117135790505b50905060005b838110156115a957606080606080896001600160a01b031663328dd9828a8a8881811061175d57fe5b905060200201356040518263ffffffff1660e01b81526004016117809190613c5d565b60006040518083038186803b15801561179857600080fd5b505afa1580156117ac573d6000803e3d6000fd5b505050506040513d6000823e601f3d908101601f191682016040526117d49190810190612a49565b9350935093509350604051806101a001604052806000815260200160006001600160a01b0316815260200160008152602001858152602001848152602001838152602001828152602001600081526020016000815260200160008152602001600081526020016000151581526020016000151581525086868151811061185657fe5b602002602001018190525061189186868151811061187057fe5b60200260200101518b8b8b8981811061188557fe5b905060200201356120e5565b5050600190920191506117349050565b60606000825190506060816040519080825280602002602001820160405280156118e557816020015b6118d261233f565b8152602001906001900390816118ca5790505b50905060005b8281101561034f576118fb612366565b876001600160a01b031663e23a9a5287848151811061191657fe5b6020026020010151896040518363ffffffff1660e01b815260040161193c929190613c6b565b60606040518083038186803b15801561195457600080fd5b505afa158015611968573d6000803e3d6000fd5b505050506040513d601f19601f8201168201806040525061198c9190810190612e20565b905060405180608001604052808784815181106119a557fe5b6020026020010151815260200182600001511515815260200182602001511515815260200182604001516001600160601b03168152508383815181106119e757fe5b6020908102919091010152506001016118eb565b611a0361220b565b6040516370a0823160e01b81526000906001600160a01b038516906370a0823190611a32908690600401613b1a565b60206040518083038186803b158015611a4a57600080fd5b505afa158015611a5e573d6000803e3d6000fd5b505050506040513d601f19601f82011682018060405250611a829190810190612e5c565b90506000846001600160a01b03166317bfdfbc856040518263ffffffff1660e01b8152600401611ab29190613b1a565b602060405180830381600087803b158015611acc57600080fd5b505af1158015611ae0573d6000803e3d6000fd5b505050506040513d601f19601f82011682018060405250611b049190810190612e5c565b90506000856001600160a01b0316633af9e669866040518263ffffffff1660e01b8152600401611b349190613b1a565b602060405180830381600087803b158015611b4e57600080fd5b505af1158015611b62573d6000803e3d6000fd5b505050506040513d601f19601f82011682018060405250611b869190810190612e5c565b9050600080611bc7886001600160a01b03166395d89b416040518163ffffffff1660e01b815260040160006040518083038186803b15801561051057600080fd5b15611be15750506001600160a01b03851680319031611d5e565b60008890506000816001600160a01b0316636f307dc36040518163ffffffff1660e01b815260040160206040518083038186803b158015611c2157600080fd5b505afa158015611c35573d6000803e3d6000fd5b505050506040513d601f19601f82011682018060405250611c599190810190612a23565b6040516370a0823160e01b81529091506001600160a01b038216906370a0823190611c88908c90600401613b1a565b60206040518083038186803b158015611ca057600080fd5b505afa158015611cb4573d6000803e3d6000fd5b505050506040513d601f19601f82011682018060405250611cd89190810190612e5c565b604051636eb1769f60e11b81529094506001600160a01b0382169063dd62ed3e90611d09908c908e90600401613b28565b60206040518083038186803b158015611d2157600080fd5b505afa158015611d35573d6000803e3d6000fd5b505050506040513d601f19601f82011682018060405250611d599190810190612e5c565b925050505b6040805160c0810182526001600160a01b039990991689526020890195909552938701929092526060860152608085015260a08401525090919050565b611da36122fe565b6000826001600160a01b0316635fe3b5676040518163ffffffff1660e01b815260040160206040518083038186803b158015611dde57600080fd5b505afa158015611df2573d6000803e3d6000fd5b505050506040513d601f19601f82011682018060405250611e169190810190612d00565b90506000816001600160a01b0316637dc0d1d06040518163ffffffff1660e01b815260040160206040518083038186803b158015611e5357600080fd5b505afa158015611e67573d6000803e3d6000fd5b505050506040513d601f19601f82011682018060405250611e8b9190810190612d00565b90506040518060400160405280856001600160a01b03168152602001826001600160a01b031663fc57d4df876040518263ffffffff1660e01b8152600401611ed39190613be6565b60206040518083038186803b158015611eeb57600080fd5b505afa158015611eff573d6000803e3d6000fd5b505050506040513d601f19601f82011682018060405250611f239190810190612e5c565b9052949350505050565b600081604051602001611f409190613b00565b6040516020818303038152906040528051906020012083604051602001611f679190613b00565b6040516020818303038152906040528051906020012014905092915050565b600083830182858210156115a95760405162461bcd60e51b8152600401611fad9190613bf4565b60405180910390fd5b60008184841115611fda5760405162461bcd60e51b8152600401611fad9190613bf4565b505050900390565b611fea6124b2565b60405163013cf08b60e01b81526001600160a01b0384169063013cf08b90612016908590600401613c5d565b6101406040518083038186803b15801561202f57600080fd5b505afa158015612043573d6000803e3d6000fd5b505050506040513d601f19601f820116820180604052506120679190810190612e01565b918452506020808201516001600160a01b03169084015260408082015190840152606081015160e08085019190915260808201516101008086019190915260a08301516101208087019190915260c0840151610140870152918301516101608601528201511515610180850152015115156101a09092019190915250565b600080600080600080600080896001600160a01b031663013cf08b8a6040518263ffffffff1660e01b815260040161211d9190613c5d565b6101206040518083038186803b15801561213657600080fd5b505afa15801561214a573d6000803e3d6000fd5b505050506040513d601f19601f8201168201806040525061216e9190810190612e7a565b9850985098509850985098509850985050888b6000018181525050878b602001906001600160a01b031690816001600160a01b031681525050868b6040018181525050858b60e0018181525050848b610100018181525050838b610120018181525050828b610140018181525050818b610160019015159081151581525050808b6101800190151590811515815250505050505050505050505050565b6040518060c0016040528060006001600160a01b0316815260200160008152602001600081526020016000815260200160008152602001600081525090565b604051806101c0016040528060006001600160a01b0316815260200160008152602001600081526020016000815260200160008152602001600081526020016000815260200160008152602001600081526020016000151581526020016000815260200160006001600160a01b0316815260200160008152602001600081525090565b6040518060800160405280600081526020016000815260200160006001600160a01b03168152602001600081525090565b604080518082019091526000808252602082015290565b6040518060600160405280600081526020016000815260200160006001600160a01b031681525090565b60408051608081018252600080825260208201819052918101829052606081019190915290565b604080516060810182526000808252602082018190529181019190915290565b604051806040016040528060008152602001600081525090565b604051806101c001604052806000815260200160006001600160a01b03168152602001600081526020016060815260200160608152602001606081526020016060815260200160008152602001600081526020016000815260200160008152602001600081526020016000151581526020016000151581525090565b60405180606001604052806060815260200160008152602001600081525090565b604051806101a001604052806000815260200160006001600160a01b031681526020016000815260200160608152602001606081526020016060815260200160608152602001600081526020016000815260200160008152602001600081526020016000151581526020016000151581525090565b6040518061014001604052806000815260200160006001600160a01b031681526020016000815260200160008152602001600081526020016000815260200160008152602001600081526020016000151581526020016000151581525090565b8035610efc81613d8f565b8051610efc81613d8f565b600082601f83011261253957600080fd5b815161254c61254782613c9f565b613c79565b9150818183526020840193506020810190508385602084028201111561257157600080fd5b60005b8381101561259d5781612587888261251d565b8452506020928301929190910190600101612574565b5050505092915050565b600082601f8301126125b857600080fd5b81516125c661254782613c9f565b81815260209384019390925082018360005b8381101561259d57815186016125ee8882612804565b84525060209283019291909101906001016125d8565b60008083601f84011261261657600080fd5b5081356001600160401b0381111561262d57600080fd5b60208301915083602082028301111561264557600080fd5b9250929050565b600082601f83011261265d57600080fd5b815161266b61254782613c9f565b9150818183526020840193506020810190508385602084028201111561269057600080fd5b60005b8381101561259d57816126a6888261285e565b8452506020928301929190910190600101612693565b600082601f8301126126cd57600080fd5b81516126db61254782613c9f565b81815260209384019390925082018360005b8381101561259d57815186016127038882612804565b84525060209283019291909101906001016126ed565b600082601f83011261272a57600080fd5b813561273861254782613c9f565b9150818183526020840193506020810190508385602084028201111561275d57600080fd5b60005b8381101561259d578161277388826129ec565b8452506020928301929190910190600101612760565b600082601f83011261279a57600080fd5b81516127a861254782613c9f565b915081818352602084019350602081019050838560208402820111156127cd57600080fd5b60005b8381101561259d57816127e388826129f7565b84525060209283019291909101906001016127d0565b8051610efc81613da6565b600082601f83011261281557600080fd5b815161282361254782613cbf565b9150808252602083016020830185838301111561283f57600080fd5b61284a838284613d59565b50505092915050565b8035610efc81613daf565b8051610efc81613daf565b6000610140828403121561287c57600080fd5b612887610140613c79565b9050600061289584846129f7565b82525060206128a68484830161251d565b60208301525060406128ba848285016129f7565b60408301525060606128ce848285016129f7565b60608301525060806128e2848285016129f7565b60808301525060a06128f6848285016129f7565b60a08301525060c061290a848285016129f7565b60c08301525060e061291e848285016129f7565b60e083015250610100612933848285016127f9565b61010083015250610120612949848285016127f9565b6101208301525092915050565b60006060828403121561296857600080fd5b6129726060613c79565b9050600061298084846127f9565b8252506020612991848483016127f9565b60208301525060406129a584828501612a18565b60408301525092915050565b6000606082840312156129c357600080fd5b6129cd6060613c79565b905060006129db84846127f9565b825250602061299184848301612a0d565b8035610efc81613db8565b8051610efc81613db8565b8035610efc81613dc1565b8051610efc81613dca565b8051610efc81613dd3565b600060208284031215612a3557600080fd5b6000612a41848461251d565b949350505050565b60008060008060808587031215612a5f57600080fd5b84516001600160401b03811115612a7557600080fd5b612a8187828801612528565b94505060208501516001600160401b03811115612a9d57600080fd5b612aa987828801612789565b93505060408501516001600160401b03811115612ac557600080fd5b612ad1878288016126bc565b92505060608501516001600160401b03811115612aed57600080fd5b612af9878288016125a7565b91505092959194509250565b60008060208385031215612b1857600080fd5b82356001600160401b03811115612b2e57600080fd5b612b3a85828601612604565b92509250509250929050565b600080600060408486031215612b5b57600080fd5b83356001600160401b03811115612b7157600080fd5b612b7d86828701612604565b93509350506020612b9086828701612512565b9150509250925092565b600060208284031215612bac57600080fd5b81516001600160401b03811115612bc257600080fd5b612a418482850161264c565b60008060408385031215612be157600080fd5b6000612bed85856127f9565b9250506020612bfe858286016129f7565b9150509250929050565b600060208284031215612c1a57600080fd5b6000612a418484612853565b60008060408385031215612c3957600080fd5b6000612c458585612853565b9250506020612bfe85828601612512565b60008060008060608587031215612c6c57600080fd5b6000612c788787612853565b9450506020612c8987828801612512565b93505060408501356001600160401b03811115612ca557600080fd5b612cb187828801612604565b95989497509550505050565b600080600060608486031215612cd257600080fd5b6000612cde8686612853565b9350506020612cef86828701612853565b9250506040612b9086828701612512565b600060208284031215612d1257600080fd5b6000612a41848461285e565b600080600060608486031215612d3357600080fd5b6000612d3f8686612853565b9350506020612d5086828701612512565b92505060408401356001600160401b03811115612d6c57600080fd5b612b9086828701612719565b600080600060408486031215612d8d57600080fd5b6000612d998686612853565b93505060208401356001600160401b03811115612db557600080fd5b612dc186828701612604565b92509250509250925092565b600060208284031215612ddf57600080fd5b81516001600160401b03811115612df557600080fd5b612a4184828501612804565b60006101408284031215612e1457600080fd5b6000612a418484612869565b600060608284031215612e3257600080fd5b6000612a418484612956565b600060608284031215612e5057600080fd5b6000612a4184846129b1565b600060208284031215612e6e57600080fd5b6000612a4184846129f7565b60008060008060008060008060006101208a8c031215612e9957600080fd5b6000612ea58c8c6129f7565b9950506020612eb68c828d0161251d565b9850506040612ec78c828d016129f7565b9750506060612ed88c828d016129f7565b9650506080612ee98c828d016129f7565b95505060a0612efa8c828d016129f7565b94505060c0612f0b8c828d016129f7565b93505060e0612f1c8c828d016127f9565b925050610100612f2e8c828d016127f9565b9150509295985092959850929598565b600080600060608486031215612f5357600080fd5b6000612f5f86866129f7565b9350506020612f70868287016129f7565b9250506040612b90868287016129f7565b600060208284031215612f9357600080fd5b6000612a418484612a02565b600060208284031215612fb157600080fd5b6000612a418484612a0d565b600060208284031215612fcf57600080fd5b6000612a418484612a18565b6000612fe783836130a3565b505060200190565b6000610354838361350f565b6000612fe78383613547565b600061301383836135c7565b505060c00190565b6000613027838361363d565b50506101c00190565b600061303c8383613752565b505060400190565b600061303c83836137f7565b60006103548383613808565b6000613068838361393c565b505060800190565b60006103548383613986565b60006130688383613aa5565b6000612fe78383613adc565b61309d81613d43565b82525050565b61309d81613cfe565b60006130b782613cec565b6130c18185613cf0565b93506130cc83613ce6565b8060005b838110156130fa5781516130e48882612fdb565b97506130ef83613ce6565b9250506001016130d0565b509495945050505050565b600061311082613cec565b61311a8185613cf0565b93508360208202850161312c85613ce6565b8060005b8581101561316657848403895281516131498582612fef565b945061315483613ce6565b60209a909a0199925050600101613130565b5091979650505050505050565b600061317e82613cec565b6131888185613cf0565b935061319383613ce6565b8060005b838110156130fa5781516131ab8882612ffb565b97506131b683613ce6565b925050600101613197565b60006131cc82613cec565b6131d68185613cf0565b9350836020820285016131e885613ce6565b8060005b8581101561316657848403895281516132058582612fef565b945061321083613ce6565b60209a909a01999250506001016131ec565b600061322d82613cec565b6132378185613cf0565b935061324283613ce6565b8060005b838110156130fa57815161325a8882613007565b975061326583613ce6565b925050600101613246565b600061327b82613cec565b6132858185613cf0565b935061329083613ce6565b8060005b838110156130fa5781516132a8888261301b565b97506132b383613ce6565b925050600101613294565b60006132c982613cec565b6132d38185613cf0565b93506132de83613ce6565b8060005b838110156130fa5781516132f68882613030565b975061330183613ce6565b9250506001016132e2565b600061331782613cec565b6133218185613cf0565b935061332c83613ce6565b8060005b838110156130fa5781516133448882613044565b975061334f83613ce6565b925050600101613330565b600061336582613cec565b61336f8185613cf0565b93508360208202850161338185613ce6565b8060005b85811015613166578484038952815161339e8582613050565b94506133a983613ce6565b60209a909a0199925050600101613385565b60006133c682613cec565b6133d08185613cf0565b93506133db83613ce6565b8060005b838110156130fa5781516133f3888261305c565b97506133fe83613ce6565b9250506001016133df565b600061341482613cec565b61341e8185613cf0565b93508360208202850161343085613ce6565b8060005b85811015613166578484038952815161344d8582613070565b945061345883613ce6565b60209a909a0199925050600101613434565b600061347582613cec565b61347f8185613cf0565b935061348a83613ce6565b8060005b838110156130fa5781516134a2888261307c565b97506134ad83613ce6565b92505060010161348e565b60006134c382613cec565b6134cd8185613cf0565b93506134d883613ce6565b8060005b838110156130fa5781516134f08882613088565b97506134fb83613ce6565b9250506001016134dc565b61309d81613d09565b600061351a82613cec565b6135248185613cf0565b9350613534818560208601613d59565b61353d81613d85565b9093019392505050565b61309d81613d0e565b600061355b82613cec565b6135658185613cf9565b9350613575818560208601613d59565b9290920192915050565b80516060808452600091908401906135978282613173565b91505060208301516135ac6020860182613adc565b5060408301516135bf6040860182613adc565b509392505050565b805160c08301906135d884826130a3565b5060208201516135eb6020850182613adc565b5060408201516135fe6040850182613adc565b5060608201516136116060850182613adc565b5060808201516136246080850182613adc565b5060a082015161363760a0850182613adc565b50505050565b80516101c083019061364f84826130a3565b5060208201516136626020850182613adc565b5060408201516136756040850182613adc565b5060608201516136886060850182613adc565b50608082015161369b6080850182613adc565b5060a08201516136ae60a0850182613adc565b5060c08201516136c160c0850182613adc565b5060e08201516136d460e0850182613adc565b506101008201516136e9610100850182613adc565b506101208201516136fe610120850182613506565b50610140820151613713610140850182613adc565b506101608201516137286101608501826130a3565b5061018082015161373d610180850182613adc565b506101a08201516136376101a0850182613adc565b8051604083019061376384826130a3565b5060208201516136376020850182613adc565b805160808301906137878482613adc565b50602082015161379a6020850182613adc565b5060408201516137ad60408501826130a3565b5060608201516136376060850182613adc565b805160608301906137d18482613adc565b5060208201516137e46020850182613adc565b50604082015161363760408501826130a3565b805160408301906137638482613adc565b80516000906101c084019061381d8582613adc565b50602083015161383060208601826130a3565b5060408301516138436040860182613adc565b506060830151848203606086015261385b82826130ac565b9150506080830151848203608086015261387582826134b8565b91505060a083015184820360a086015261388f82826131c1565b91505060c083015184820360c08601526138a98282613105565b91505060e08301516138be60e0860182613adc565b506101008301516138d3610100860182613adc565b506101208301516138e8610120860182613adc565b506101408301516138fd610140860182613adc565b50610160830151613912610160860182613adc565b50610180830151613927610180860182613506565b506101a08301516135bf6101a0860182613506565b8051608083019061394d8482613adc565b5060208201516139606020850182613506565b5060408201516139736040850182613aee565b5060608201516136376060850182613af7565b80516000906101a084019061399b8582613adc565b5060208301516139ae60208601826130a3565b5060408301516139c16040860182613adc565b50606083015184820360608601526139d982826130ac565b915050608083015184820360808601526139f382826134b8565b91505060a083015184820360a0860152613a0d82826131c1565b91505060c083015184820360c0860152613a278282613105565b91505060e0830151613a3c60e0860182613adc565b50610100830151613a51610100860182613adc565b50610120830151613a66610120860182613adc565b50610140830151613a7b610140860182613adc565b50610160830151613a90610160860182613506565b506101808301516135bf610180860182613506565b80516080830190613ab68482613adc565b506020820151613ac96020850182613506565b5060408201516139736040850182613506565b61309d81613d25565b61309d81613d4e565b61309d81613d31565b61309d81613d37565b60006103548284613550565b60208101610efc82846130a3565b60208101610efc8284613094565b60408101613b368285613094565b61035460208301846130a3565b60408101613b5182856130a3565b6103546020830184613ae5565b602080825281016103548184613222565b602080825281016103548184613270565b6020808252810161035481846132be565b60208082528101610354818461330c565b60208082528101610354818461335a565b6020808252810161035481846133bb565b602080825281016103548184613409565b60208082528101610354818461346a565b60208101610efc8284613547565b60208082528101610354818461350f565b60208082528101610354818461357f565b60c08101610efc82846135c7565b6101c08101610efc828461363d565b60408101610efc8284613752565b60808101610efc8284613776565b60608101610efc82846137c0565b60208101610efc8284613adc565b60408101613b368285613adc565b6040518181016001600160401b0381118282101715613c9757600080fd5b604052919050565b60006001600160401b03821115613cb557600080fd5b5060209081020190565b60006001600160401b03821115613cd557600080fd5b506020601f91909101601f19160190565b60200190565b5190565b90815260200190565b919050565b6000610efc82613d19565b151590565b6000610efc82613cfe565b6001600160a01b031690565b90565b63ffffffff1690565b60ff1690565b6001600160601b031690565b6000610efc82613d0e565b6000610efc82613d28565b60005b83811015613d74578181015183820152602001613d5c565b838111156136375750506000910152565b601f01601f191690565b613d9881613cfe565b8114613da357600080fd5b50565b613d9881613d09565b613d9881613d0e565b613d9881613d25565b613d9881613d28565b613d9881613d31565b613d9881613d3756fea365627a7a723158203bd1027d33a4d71b9ad6f92ce1ffe25d11d7bba21cdeeb5afb0514432d5e8df86c6578706572696d656e74616cf564736f6c63430005110040",
      "opcodes": "PUSH1 0x80 PUSH1 0x40 MSTORE CALLVALUE DUP1 ISZERO PUSH2 0x10 JUMPI PUSH1 0x0 DUP1 REVERT JUMPDEST POP PUSH2 0x3E1F DUP1 PUSH2 0x20 PUSH1 0x0 CODECOPY PUSH1 0x0 RETURN INVALID PUSH1 0x80 PUSH1 0x40 MSTORE CALLVALUE DUP1 ISZERO PUSH2 0x10 JUMPI PUSH1 0x0 DUP1 REVERT JUMPDEST POP PUSH1 0x4 CALLDATASIZE LT PUSH2 0xEA JUMPI PUSH1 0x0 CALLDATALOAD PUSH1 0xE0 SHR DUP1 PUSH4 0x59564219 GT PUSH2 0x8C JUMPI DUP1 PUSH4 0x96994869 GT PUSH2 0x66 JUMPI DUP1 PUSH4 0x96994869 EQ PUSH2 0x238 JUMPI DUP1 PUSH4 0x995ED99F EQ PUSH2 0x258 JUMPI DUP1 PUSH4 0xBDF950C9 EQ PUSH2 0x278 JUMPI DUP1 PUSH4 0xC5AE5934 EQ PUSH2 0x298 JUMPI PUSH2 0xEA JUMP JUMPDEST DUP1 PUSH4 0x59564219 EQ PUSH2 0x1D8 JUMPI DUP1 PUSH4 0x75D80E90 EQ PUSH2 0x1F8 JUMPI DUP1 PUSH4 0x7DD8F6D9 EQ PUSH2 0x218 JUMPI PUSH2 0xEA JUMP JUMPDEST DUP1 PUSH4 0x2B2D5ED6 GT PUSH2 0xC8 JUMPI DUP1 PUSH4 0x2B2D5ED6 EQ PUSH2 0x158 JUMPI DUP1 PUSH4 0x416405D7 EQ PUSH2 0x178 JUMPI DUP1 PUSH4 0x43C811CC EQ PUSH2 0x198 JUMPI DUP1 PUSH4 0x4B70D84B EQ PUSH2 0x1B8 JUMPI PUSH2 0xEA JUMP JUMPDEST DUP1 PUSH4 0x972BF8B EQ PUSH2 0xEF JUMPI DUP1 PUSH4 0x158ECA8B EQ PUSH2 0x118 JUMPI DUP1 PUSH4 0x1EA63741 EQ PUSH2 0x138 JUMPI JUMPDEST PUSH1 0x0 DUP1 REVERT JUMPDEST PUSH2 0x102 PUSH2 0xFD CALLDATASIZE PUSH1 0x4 PUSH2 0x2B46 JUMP JUMPDEST PUSH2 0x2B8 JUMP JUMPDEST PUSH1 0x40 MLOAD PUSH2 0x10F SWAP2 SWAP1 PUSH2 0x3B5E JUMP JUMPDEST PUSH1 0x40 MLOAD DUP1 SWAP2 SUB SWAP1 RETURN JUMPDEST PUSH2 0x12B PUSH2 0x126 CALLDATASIZE PUSH1 0x4 PUSH2 0x2C08 JUMP JUMPDEST PUSH2 0x35B JUMP JUMPDEST PUSH1 0x40 MLOAD PUSH2 0x10F SWAP2 SWAP1 PUSH2 0x3C24 JUMP JUMPDEST PUSH2 0x14B PUSH2 0x146 CALLDATASIZE PUSH1 0x4 PUSH2 0x2CBD JUMP JUMPDEST PUSH2 0xADF JUMP JUMPDEST PUSH1 0x40 MLOAD PUSH2 0x10F SWAP2 SWAP1 PUSH2 0x3C41 JUMP JUMPDEST PUSH2 0x16B PUSH2 0x166 CALLDATASIZE PUSH1 0x4 PUSH2 0x2B05 JUMP JUMPDEST PUSH2 0xE66 JUMP JUMPDEST PUSH1 0x40 MLOAD PUSH2 0x10F SWAP2 SWAP1 PUSH2 0x3B80 JUMP JUMPDEST PUSH2 0x18B PUSH2 0x186 CALLDATASIZE PUSH1 0x4 PUSH2 0x2C26 JUMP JUMPDEST PUSH2 0xF02 JUMP JUMPDEST PUSH1 0x40 MLOAD PUSH2 0x10F SWAP2 SWAP1 PUSH2 0x3C4F JUMP JUMPDEST PUSH2 0x1AB PUSH2 0x1A6 CALLDATASIZE PUSH1 0x4 PUSH2 0x2D1E JUMP JUMPDEST PUSH2 0x10AB JUMP JUMPDEST PUSH1 0x40 MLOAD PUSH2 0x10F SWAP2 SWAP1 PUSH2 0x3BB3 JUMP JUMPDEST PUSH2 0x1CB PUSH2 0x1C6 CALLDATASIZE PUSH1 0x4 PUSH2 0x2B05 JUMP JUMPDEST PUSH2 0x1206 JUMP JUMPDEST PUSH1 0x40 MLOAD PUSH2 0x10F SWAP2 SWAP1 PUSH2 0x3B6F JUMP JUMPDEST PUSH2 0x1EB PUSH2 0x1E6 CALLDATASIZE PUSH1 0x4 PUSH2 0x2C56 JUMP JUMPDEST PUSH2 0x1297 JUMP JUMPDEST PUSH1 0x40 MLOAD PUSH2 0x10F SWAP2 SWAP1 PUSH2 0x3B91 JUMP JUMPDEST PUSH2 0x20B PUSH2 0x206 CALLDATASIZE PUSH1 0x4 PUSH2 0x2D78 JUMP JUMPDEST PUSH2 0x13EF JUMP JUMPDEST PUSH1 0x40 MLOAD PUSH2 0x10F SWAP2 SWAP1 PUSH2 0x3BA2 JUMP JUMPDEST PUSH2 0x22B PUSH2 0x226 CALLDATASIZE PUSH1 0x4 PUSH2 0x2C26 JUMP JUMPDEST PUSH2 0x15B2 JUMP JUMPDEST PUSH1 0x40 MLOAD PUSH2 0x10F SWAP2 SWAP1 PUSH2 0x3C05 JUMP JUMPDEST PUSH2 0x24B PUSH2 0x246 CALLDATASIZE PUSH1 0x4 PUSH2 0x2D78 JUMP JUMPDEST PUSH2 0x16EE JUMP JUMPDEST PUSH1 0x40 MLOAD PUSH2 0x10F SWAP2 SWAP1 PUSH2 0x3BC4 JUMP JUMPDEST PUSH2 0x26B PUSH2 0x266 CALLDATASIZE PUSH1 0x4 PUSH2 0x2D1E JUMP JUMPDEST PUSH2 0x18A1 JUMP JUMPDEST PUSH1 0x40 MLOAD PUSH2 0x10F SWAP2 SWAP1 PUSH2 0x3BD5 JUMP JUMPDEST PUSH2 0x28B PUSH2 0x286 CALLDATASIZE PUSH1 0x4 PUSH2 0x2C26 JUMP JUMPDEST PUSH2 0x19FB JUMP JUMPDEST PUSH1 0x40 MLOAD PUSH2 0x10F SWAP2 SWAP1 PUSH2 0x3C16 JUMP JUMPDEST PUSH2 0x2AB PUSH2 0x2A6 CALLDATASIZE PUSH1 0x4 PUSH2 0x2C08 JUMP JUMPDEST PUSH2 0x1D9B JUMP JUMPDEST PUSH1 0x40 MLOAD PUSH2 0x10F SWAP2 SWAP1 PUSH2 0x3C33 JUMP JUMPDEST PUSH1 0x40 DUP1 MLOAD DUP4 DUP2 MSTORE PUSH1 0x20 DUP1 DUP6 MUL DUP3 ADD ADD SWAP1 SWAP2 MSTORE PUSH1 0x60 SWAP1 DUP4 SWAP1 DUP3 SWAP1 DUP3 DUP1 ISZERO PUSH2 0x2F8 JUMPI DUP2 PUSH1 0x20 ADD JUMPDEST PUSH2 0x2E5 PUSH2 0x220B JUMP JUMPDEST DUP2 MSTORE PUSH1 0x20 ADD SWAP1 PUSH1 0x1 SWAP1 SUB SWAP1 DUP2 PUSH2 0x2DD JUMPI SWAP1 POP JUMPDEST POP SWAP1 POP PUSH1 0x0 JUMPDEST DUP3 DUP2 LT ISZERO PUSH2 0x34F JUMPI PUSH2 0x330 DUP8 DUP8 DUP4 DUP2 DUP2 LT PUSH2 0x315 JUMPI INVALID JUMPDEST SWAP1 POP PUSH1 0x20 MUL ADD PUSH1 0x20 PUSH2 0x32A SWAP2 SWAP1 DUP2 ADD SWAP1 PUSH2 0x2C08 JUMP JUMPDEST DUP7 PUSH2 0x19FB JUMP JUMPDEST DUP3 DUP3 DUP2 MLOAD DUP2 LT PUSH2 0x33C JUMPI INVALID JUMPDEST PUSH1 0x20 SWAP1 DUP2 MUL SWAP2 SWAP1 SWAP2 ADD ADD MSTORE PUSH1 0x1 ADD PUSH2 0x2FE JUMP JUMPDEST POP SWAP2 POP POP JUMPDEST SWAP4 SWAP3 POP POP POP JUMP JUMPDEST PUSH2 0x363 PUSH2 0x224A JUMP JUMPDEST PUSH1 0x0 DUP3 PUSH1 0x1 PUSH1 0x1 PUSH1 0xA0 SHL SUB AND PUSH4 0xBD6D894D PUSH1 0x40 MLOAD DUP2 PUSH4 0xFFFFFFFF AND PUSH1 0xE0 SHL DUP2 MSTORE PUSH1 0x4 ADD PUSH1 0x20 PUSH1 0x40 MLOAD DUP1 DUP4 SUB DUP2 PUSH1 0x0 DUP8 DUP1 EXTCODESIZE ISZERO DUP1 ISZERO PUSH2 0x3A0 JUMPI PUSH1 0x0 DUP1 REVERT JUMPDEST POP GAS CALL ISZERO DUP1 ISZERO PUSH2 0x3B4 JUMPI RETURNDATASIZE PUSH1 0x0 DUP1 RETURNDATACOPY RETURNDATASIZE PUSH1 0x0 REVERT JUMPDEST POP POP POP POP PUSH1 0x40 MLOAD RETURNDATASIZE PUSH1 0x1F NOT PUSH1 0x1F DUP3 ADD AND DUP3 ADD DUP1 PUSH1 0x40 MSTORE POP PUSH2 0x3D8 SWAP2 SWAP1 DUP2 ADD SWAP1 PUSH2 0x2E5C JUMP JUMPDEST SWAP1 POP PUSH1 0x0 DUP4 PUSH1 0x1 PUSH1 0x1 PUSH1 0xA0 SHL SUB AND PUSH4 0x5FE3B567 PUSH1 0x40 MLOAD DUP2 PUSH4 0xFFFFFFFF AND PUSH1 0xE0 SHL DUP2 MSTORE PUSH1 0x4 ADD PUSH1 0x20 PUSH1 0x40 MLOAD DUP1 DUP4 SUB DUP2 DUP7 DUP1 EXTCODESIZE ISZERO DUP1 ISZERO PUSH2 0x415 JUMPI PUSH1 0x0 DUP1 REVERT JUMPDEST POP GAS STATICCALL ISZERO DUP1 ISZERO PUSH2 0x429 JUMPI RETURNDATASIZE PUSH1 0x0 DUP1 RETURNDATACOPY RETURNDATASIZE PUSH1 0x0 REVERT JUMPDEST POP POP POP POP PUSH1 0x40 MLOAD RETURNDATASIZE PUSH1 0x1F NOT PUSH1 0x1F DUP3 ADD AND DUP3 ADD DUP1 PUSH1 0x40 MSTORE POP PUSH2 0x44D SWAP2 SWAP1 DUP2 ADD SWAP1 PUSH2 0x2D00 JUMP JUMPDEST SWAP1 POP PUSH1 0x0 DUP1 DUP3 PUSH1 0x1 PUSH1 0x1 PUSH1 0xA0 SHL SUB AND PUSH4 0x8E8F294B DUP8 PUSH1 0x40 MLOAD DUP3 PUSH4 0xFFFFFFFF AND PUSH1 0xE0 SHL DUP2 MSTORE PUSH1 0x4 ADD PUSH2 0x47E SWAP2 SWAP1 PUSH2 0x3B0C JUMP JUMPDEST PUSH1 0x40 DUP1 MLOAD DUP1 DUP4 SUB DUP2 DUP7 DUP1 EXTCODESIZE ISZERO DUP1 ISZERO PUSH2 0x495 JUMPI PUSH1 0x0 DUP1 REVERT JUMPDEST POP GAS STATICCALL ISZERO DUP1 ISZERO PUSH2 0x4A9 JUMPI RETURNDATASIZE PUSH1 0x0 DUP1 RETURNDATACOPY RETURNDATASIZE PUSH1 0x0 REVERT JUMPDEST POP POP POP POP PUSH1 0x40 MLOAD RETURNDATASIZE PUSH1 0x1F NOT PUSH1 0x1F DUP3 ADD AND DUP3 ADD DUP1 PUSH1 0x40 MSTORE POP PUSH2 0x4CD SWAP2 SWAP1 DUP2 ADD SWAP1 PUSH2 0x2BCE JUMP JUMPDEST SWAP2 POP SWAP2 POP PUSH1 0x0 DUP1 PUSH2 0x56E DUP9 PUSH1 0x1 PUSH1 0x1 PUSH1 0xA0 SHL SUB AND PUSH4 0x95D89B41 PUSH1 0x40 MLOAD DUP2 PUSH4 0xFFFFFFFF AND PUSH1 0xE0 SHL DUP2 MSTORE PUSH1 0x4 ADD PUSH1 0x0 PUSH1 0x40 MLOAD DUP1 DUP4 SUB DUP2 DUP7 DUP1 EXTCODESIZE ISZERO DUP1 ISZERO PUSH2 0x510 JUMPI PUSH1 0x0 DUP1 REVERT JUMPDEST POP GAS STATICCALL ISZERO DUP1 ISZERO PUSH2 0x524 JUMPI RETURNDATASIZE PUSH1 0x0 DUP1 RETURNDATACOPY RETURNDATASIZE PUSH1 0x0 REVERT JUMPDEST POP POP POP POP PUSH1 0x40 MLOAD RETURNDATASIZE PUSH1 0x0 DUP3 RETURNDATACOPY PUSH1 0x1F RETURNDATASIZE SWAP1 DUP2 ADD PUSH1 0x1F NOT AND DUP3 ADD PUSH1 0x40 MSTORE PUSH2 0x54C SWAP2 SWAP1 DUP2 ADD SWAP1 PUSH2 0x2DCD JUMP JUMPDEST PUSH1 0x40 MLOAD DUP1 PUSH1 0x40 ADD PUSH1 0x40 MSTORE DUP1 PUSH1 0x4 DUP2 MSTORE PUSH1 0x20 ADD PUSH4 0xC68AA89 PUSH1 0xE3 SHL DUP2 MSTORE POP PUSH2 0x1F2D JUMP JUMPDEST ISZERO PUSH2 0x57F JUMPI POP PUSH1 0x0 SWAP1 POP PUSH1 0x12 PUSH2 0x6DF JUMP JUMPDEST PUSH1 0x0 DUP9 SWAP1 POP DUP1 PUSH1 0x1 PUSH1 0x1 PUSH1 0xA0 SHL SUB AND PUSH4 0x6F307DC3 PUSH1 0x40 MLOAD DUP2 PUSH4 0xFFFFFFFF AND PUSH1 0xE0 SHL DUP2 MSTORE PUSH1 0x4 ADD PUSH1 0x20 PUSH1 0x40 MLOAD DUP1 DUP4 SUB DUP2 DUP7 DUP1 EXTCODESIZE ISZERO DUP1 ISZERO PUSH2 0x5BD JUMPI PUSH1 0x0 DUP1 REVERT JUMPDEST POP GAS STATICCALL ISZERO DUP1 ISZERO PUSH2 0x5D1 JUMPI RETURNDATASIZE PUSH1 0x0 DUP1 RETURNDATACOPY RETURNDATASIZE PUSH1 0x0 REVERT JUMPDEST POP POP POP POP PUSH1 0x40 MLOAD RETURNDATASIZE PUSH1 0x1F NOT PUSH1 0x1F DUP3 ADD AND DUP3 ADD DUP1 PUSH1 0x40 MSTORE POP PUSH2 0x5F5 SWAP2 SWAP1 DUP2 ADD SWAP1 PUSH2 0x2A23 JUMP JUMPDEST SWAP3 POP DUP1 PUSH1 0x1 PUSH1 0x1 PUSH1 0xA0 SHL SUB AND PUSH4 0x6F307DC3 PUSH1 0x40 MLOAD DUP2 PUSH4 0xFFFFFFFF AND PUSH1 0xE0 SHL DUP2 MSTORE PUSH1 0x4 ADD PUSH1 0x20 PUSH1 0x40 MLOAD DUP1 DUP4 SUB DUP2 DUP7 DUP1 EXTCODESIZE ISZERO DUP1 ISZERO PUSH2 0x630 JUMPI PUSH1 0x0 DUP1 REVERT JUMPDEST POP GAS STATICCALL ISZERO DUP1 ISZERO PUSH2 0x644 JUMPI RETURNDATASIZE PUSH1 0x0 DUP1 RETURNDATACOPY RETURNDATASIZE PUSH1 0x0 REVERT JUMPDEST POP POP POP POP PUSH1 0x40 MLOAD RETURNDATASIZE PUSH1 0x1F NOT PUSH1 0x1F DUP3 ADD AND DUP3 ADD DUP1 PUSH1 0x40 MSTORE POP PUSH2 0x668 SWAP2 SWAP1 DUP2 ADD SWAP1 PUSH2 0x2A23 JUMP JUMPDEST PUSH1 0x1 PUSH1 0x1 PUSH1 0xA0 SHL SUB AND PUSH4 0x313CE567 PUSH1 0x40 MLOAD DUP2 PUSH4 0xFFFFFFFF AND PUSH1 0xE0 SHL DUP2 MSTORE PUSH1 0x4 ADD PUSH1 0x20 PUSH1 0x40 MLOAD DUP1 DUP4 SUB DUP2 DUP7 DUP1 EXTCODESIZE ISZERO DUP1 ISZERO PUSH2 0x6A0 JUMPI PUSH1 0x0 DUP1 REVERT JUMPDEST POP GAS STATICCALL ISZERO DUP1 ISZERO PUSH2 0x6B4 JUMPI RETURNDATASIZE PUSH1 0x0 DUP1 RETURNDATACOPY RETURNDATASIZE PUSH1 0x0 REVERT JUMPDEST POP POP POP POP PUSH1 0x40 MLOAD RETURNDATASIZE PUSH1 0x1F NOT PUSH1 0x1F DUP3 ADD AND DUP3 ADD DUP1 PUSH1 0x40 MSTORE POP PUSH2 0x6D8 SWAP2 SWAP1 DUP2 ADD SWAP1 PUSH2 0x2F9F JUMP JUMPDEST PUSH1 0xFF AND SWAP2 POP POP JUMPDEST PUSH1 0x40 MLOAD DUP1 PUSH2 0x1C0 ADD PUSH1 0x40 MSTORE DUP1 DUP10 PUSH1 0x1 PUSH1 0x1 PUSH1 0xA0 SHL SUB AND DUP2 MSTORE PUSH1 0x20 ADD DUP8 DUP2 MSTORE PUSH1 0x20 ADD DUP10 PUSH1 0x1 PUSH1 0x1 PUSH1 0xA0 SHL SUB AND PUSH4 0xAE9D70B0 PUSH1 0x40 MLOAD DUP2 PUSH4 0xFFFFFFFF AND PUSH1 0xE0 SHL DUP2 MSTORE PUSH1 0x4 ADD PUSH1 0x20 PUSH1 0x40 MLOAD DUP1 DUP4 SUB DUP2 DUP7 DUP1 EXTCODESIZE ISZERO DUP1 ISZERO PUSH2 0x739 JUMPI PUSH1 0x0 DUP1 REVERT JUMPDEST POP GAS STATICCALL ISZERO DUP1 ISZERO PUSH2 0x74D JUMPI RETURNDATASIZE PUSH1 0x0 DUP1 RETURNDATACOPY RETURNDATASIZE PUSH1 0x0 REVERT JUMPDEST POP POP POP POP PUSH1 0x40 MLOAD RETURNDATASIZE PUSH1 0x1F NOT PUSH1 0x1F DUP3 ADD AND DUP3 ADD DUP1 PUSH1 0x40 MSTORE POP PUSH2 0x771 SWAP2 SWAP1 DUP2 ADD SWAP1 PUSH2 0x2E5C JUMP JUMPDEST DUP2 MSTORE PUSH1 0x20 ADD DUP10 PUSH1 0x1 PUSH1 0x1 PUSH1 0xA0 SHL SUB AND PUSH4 0xF8F9DA28 PUSH1 0x40 MLOAD DUP2 PUSH4 0xFFFFFFFF AND PUSH1 0xE0 SHL DUP2 MSTORE PUSH1 0x4 ADD PUSH1 0x20 PUSH1 0x40 MLOAD DUP1 DUP4 SUB DUP2 DUP7 DUP1 EXTCODESIZE ISZERO DUP1 ISZERO PUSH2 0x7AF JUMPI PUSH1 0x0 DUP1 REVERT JUMPDEST POP GAS STATICCALL ISZERO DUP1 ISZERO PUSH2 0x7C3 JUMPI RETURNDATASIZE PUSH1 0x0 DUP1 RETURNDATACOPY RETURNDATASIZE PUSH1 0x0 REVERT JUMPDEST POP POP POP POP PUSH1 0x40 MLOAD RETURNDATASIZE PUSH1 0x1F NOT PUSH1 0x1F DUP3 ADD AND DUP3 ADD DUP1 PUSH1 0x40 MSTORE POP PUSH2 0x7E7 SWAP2 SWAP1 DUP2 ADD SWAP1 PUSH2 0x2E5C JUMP JUMPDEST DUP2 MSTORE PUSH1 0x20 ADD DUP10 PUSH1 0x1 PUSH1 0x1 PUSH1 0xA0 SHL SUB AND PUSH4 0x173B9904 PUSH1 0x40 MLOAD DUP2 PUSH4 0xFFFFFFFF AND PUSH1 0xE0 SHL DUP2 MSTORE PUSH1 0x4 ADD PUSH1 0x20 PUSH1 0x40 MLOAD DUP1 DUP4 SUB DUP2 DUP7 DUP1 EXTCODESIZE ISZERO DUP1 ISZERO PUSH2 0x825 JUMPI PUSH1 0x0 DUP1 REVERT JUMPDEST POP GAS STATICCALL ISZERO DUP1 ISZERO PUSH2 0x839 JUMPI RETURNDATASIZE PUSH1 0x0 DUP1 RETURNDATACOPY RETURNDATASIZE PUSH1 0x0 REVERT JUMPDEST POP POP POP POP PUSH1 0x40 MLOAD RETURNDATASIZE PUSH1 0x1F NOT PUSH1 0x1F DUP3 ADD AND DUP3 ADD DUP1 PUSH1 0x40 MSTORE POP PUSH2 0x85D SWAP2 SWAP1 DUP2 ADD SWAP1 PUSH2 0x2E5C JUMP JUMPDEST DUP2 MSTORE PUSH1 0x20 ADD DUP10 PUSH1 0x1 PUSH1 0x1 PUSH1 0xA0 SHL SUB AND PUSH4 0x47BD3718 PUSH1 0x40 MLOAD DUP2 PUSH4 0xFFFFFFFF AND PUSH1 0xE0 SHL DUP2 MSTORE PUSH1 0x4 ADD PUSH1 0x20 PUSH1 0x40 MLOAD DUP1 DUP4 SUB DUP2 DUP7 DUP1 EXTCODESIZE ISZERO DUP1 ISZERO PUSH2 0x89B JUMPI PUSH1 0x0 DUP1 REVERT JUMPDEST POP GAS STATICCALL ISZERO DUP1 ISZERO PUSH2 0x8AF JUMPI RETURNDATASIZE PUSH1 0x0 DUP1 RETURNDATACOPY RETURNDATASIZE PUSH1 0x0 REVERT JUMPDEST POP POP POP POP PUSH1 0x40 MLOAD RETURNDATASIZE PUSH1 0x1F NOT PUSH1 0x1F DUP3 ADD AND DUP3 ADD DUP1 PUSH1 0x40 MSTORE POP PUSH2 0x8D3 SWAP2 SWAP1 DUP2 ADD SWAP1 PUSH2 0x2E5C JUMP JUMPDEST DUP2 MSTORE PUSH1 0x20 ADD DUP10 PUSH1 0x1 PUSH1 0x1 PUSH1 0xA0 SHL SUB AND PUSH4 0x8F840DDD PUSH1 0x40 MLOAD DUP2 PUSH4 0xFFFFFFFF AND PUSH1 0xE0 SHL DUP2 MSTORE PUSH1 0x4 ADD PUSH1 0x20 PUSH1 0x40 MLOAD DUP1 DUP4 SUB DUP2 DUP7 DUP1 EXTCODESIZE ISZERO DUP1 ISZERO PUSH2 0x911 JUMPI PUSH1 0x0 DUP1 REVERT JUMPDEST POP GAS STATICCALL ISZERO DUP1 ISZERO PUSH2 0x925 JUMPI RETURNDATASIZE PUSH1 0x0 DUP1 RETURNDATACOPY RETURNDATASIZE PUSH1 0x0 REVERT JUMPDEST POP POP POP POP PUSH1 0x40 MLOAD RETURNDATASIZE PUSH1 0x1F NOT PUSH1 0x1F DUP3 ADD AND DUP3 ADD DUP1 PUSH1 0x40 MSTORE POP PUSH2 0x949 SWAP2 SWAP1 DUP2 ADD SWAP1 PUSH2 0x2E5C JUMP JUMPDEST DUP2 MSTORE PUSH1 0x20 ADD DUP10 PUSH1 0x1 PUSH1 0x1 PUSH1 0xA0 SHL SUB AND PUSH4 0x18160DDD PUSH1 0x40 MLOAD DUP2 PUSH4 0xFFFFFFFF AND PUSH1 0xE0 SHL DUP2 MSTORE PUSH1 0x4 ADD PUSH1 0x20 PUSH1 0x40 MLOAD DUP1 DUP4 SUB DUP2 DUP7 DUP1 EXTCODESIZE ISZERO DUP1 ISZERO PUSH2 0x987 JUMPI PUSH1 0x0 DUP1 REVERT JUMPDEST POP GAS STATICCALL ISZERO DUP1 ISZERO PUSH2 0x99B JUMPI RETURNDATASIZE PUSH1 0x0 DUP1 RETURNDATACOPY RETURNDATASIZE PUSH1 0x0 REVERT JUMPDEST POP POP POP POP PUSH1 0x40 MLOAD RETURNDATASIZE PUSH1 0x1F NOT PUSH1 0x1F DUP3 ADD AND DUP3 ADD DUP1 PUSH1 0x40 MSTORE POP PUSH2 0x9BF SWAP2 SWAP1 DUP2 ADD SWAP1 PUSH2 0x2E5C JUMP JUMPDEST DUP2 MSTORE PUSH1 0x20 ADD DUP10 PUSH1 0x1 PUSH1 0x1 PUSH1 0xA0 SHL SUB AND PUSH4 0x3B1D21A2 PUSH1 0x40 MLOAD DUP2 PUSH4 0xFFFFFFFF AND PUSH1 0xE0 SHL DUP2 MSTORE PUSH1 0x4 ADD PUSH1 0x20 PUSH1 0x40 MLOAD DUP1 DUP4 SUB DUP2 DUP7 DUP1 EXTCODESIZE ISZERO DUP1 ISZERO PUSH2 0x9FD JUMPI PUSH1 0x0 DUP1 REVERT JUMPDEST POP GAS STATICCALL ISZERO DUP1 ISZERO PUSH2 0xA11 JUMPI RETURNDATASIZE PUSH1 0x0 DUP1 RETURNDATACOPY RETURNDATASIZE PUSH1 0x0 REVERT JUMPDEST POP POP POP POP PUSH1 0x40 MLOAD RETURNDATASIZE PUSH1 0x1F NOT PUSH1 0x1F DUP3 ADD AND DUP3 ADD DUP1 PUSH1 0x40 MSTORE POP PUSH2 0xA35 SWAP2 SWAP1 DUP2 ADD SWAP1 PUSH2 0x2E5C JUMP JUMPDEST DUP2 MSTORE PUSH1 0x20 ADD DUP6 ISZERO ISZERO DUP2 MSTORE PUSH1 0x20 ADD DUP5 DUP2 MSTORE PUSH1 0x20 ADD DUP4 PUSH1 0x1 PUSH1 0x1 PUSH1 0xA0 SHL SUB AND DUP2 MSTORE PUSH1 0x20 ADD DUP10 PUSH1 0x1 PUSH1 0x1 PUSH1 0xA0 SHL SUB AND PUSH4 0x313CE567 PUSH1 0x40 MLOAD DUP2 PUSH4 0xFFFFFFFF AND PUSH1 0xE0 SHL DUP2 MSTORE PUSH1 0x4 ADD PUSH1 0x20 PUSH1 0x40 MLOAD DUP1 DUP4 SUB DUP2 DUP7 DUP1 EXTCODESIZE ISZERO DUP1 ISZERO PUSH2 0xA90 JUMPI PUSH1 0x0 DUP1 REVERT JUMPDEST POP GAS STATICCALL ISZERO DUP1 ISZERO PUSH2 0xAA4 JUMPI RETURNDATASIZE PUSH1 0x0 DUP1 RETURNDATACOPY RETURNDATASIZE PUSH1 0x0 REVERT JUMPDEST POP POP POP POP PUSH1 0x40 MLOAD RETURNDATASIZE PUSH1 0x1F NOT PUSH1 0x1F DUP3 ADD AND DUP3 ADD DUP1 PUSH1 0x40 MSTORE POP PUSH2 0xAC8 SWAP2 SWAP1 DUP2 ADD SWAP1 PUSH2 0x2F9F JUMP JUMPDEST PUSH1 0xFF AND DUP2 MSTORE PUSH1 0x20 ADD SWAP2 SWAP1 SWAP2 MSTORE SWAP8 SWAP7 POP POP POP POP POP POP POP JUMP JUMPDEST PUSH2 0xAE7 PUSH2 0x22CD JUMP JUMPDEST PUSH1 0x40 MLOAD PUSH4 0x70A08231 PUSH1 0xE0 SHL DUP2 MSTORE PUSH1 0x0 SWAP1 PUSH1 0x1 PUSH1 0x1 PUSH1 0xA0 SHL SUB DUP7 AND SWAP1 PUSH4 0x70A08231 SWAP1 PUSH2 0xB16 SWAP1 DUP7 SWAP1 PUSH1 0x4 ADD PUSH2 0x3B0C JUMP JUMPDEST PUSH1 0x20 PUSH1 0x40 MLOAD DUP1 DUP4 SUB DUP2 DUP7 DUP1 EXTCODESIZE ISZERO DUP1 ISZERO PUSH2 0xB2E JUMPI PUSH1 0x0 DUP1 REVERT JUMPDEST POP GAS STATICCALL ISZERO DUP1 ISZERO PUSH2 0xB42 JUMPI RETURNDATASIZE PUSH1 0x0 DUP1 RETURNDATACOPY RETURNDATASIZE PUSH1 0x0 REVERT JUMPDEST POP POP POP POP PUSH1 0x40 MLOAD RETURNDATASIZE PUSH1 0x1F NOT PUSH1 0x1F DUP3 ADD AND DUP3 ADD DUP1 PUSH1 0x40 MSTORE POP PUSH2 0xB66 SWAP2 SWAP1 DUP2 ADD SWAP1 PUSH2 0x2E5C JUMP JUMPDEST PUSH1 0x40 MLOAD PUSH4 0x74D78149 PUSH1 0xE1 SHL DUP2 MSTORE SWAP1 SWAP2 POP PUSH1 0x1 PUSH1 0x1 PUSH1 0xA0 SHL SUB DUP6 AND SWAP1 PUSH4 0xE9AF0292 SWAP1 PUSH2 0xB95 SWAP1 DUP7 SWAP1 PUSH1 0x4 ADD PUSH2 0x3B0C JUMP JUMPDEST PUSH1 0x0 PUSH1 0x40 MLOAD DUP1 DUP4 SUB DUP2 PUSH1 0x0 DUP8 DUP1 EXTCODESIZE ISZERO DUP1 ISZERO PUSH2 0xBAF JUMPI PUSH1 0x0 DUP1 REVERT JUMPDEST POP GAS CALL ISZERO DUP1 ISZERO PUSH2 0xBC3 JUMPI RETURNDATASIZE PUSH1 0x0 DUP1 RETURNDATACOPY RETURNDATASIZE PUSH1 0x0 REVERT JUMPDEST POP POP PUSH1 0x40 MLOAD PUSH4 0x70A08231 PUSH1 0xE0 SHL DUP2 MSTORE PUSH1 0x0 SWAP3 POP PUSH1 0x1 PUSH1 0x1 PUSH1 0xA0 SHL SUB DUP9 AND SWAP2 POP PUSH4 0x70A08231 SWAP1 PUSH2 0xBF6 SWAP1 DUP8 SWAP1 PUSH1 0x4 ADD PUSH2 0x3B0C JUMP JUMPDEST PUSH1 0x20 PUSH1 0x40 MLOAD DUP1 DUP4 SUB DUP2 DUP7 DUP1 EXTCODESIZE ISZERO DUP1 ISZERO PUSH2 0xC0E JUMPI PUSH1 0x0 DUP1 REVERT JUMPDEST POP GAS STATICCALL ISZERO DUP1 ISZERO PUSH2 0xC22 JUMPI RETURNDATASIZE PUSH1 0x0 DUP1 RETURNDATACOPY RETURNDATASIZE PUSH1 0x0 REVERT JUMPDEST POP POP POP POP PUSH1 0x40 MLOAD RETURNDATASIZE PUSH1 0x1F NOT PUSH1 0x1F DUP3 ADD AND DUP3 ADD DUP1 PUSH1 0x40 MSTORE POP PUSH2 0xC46 SWAP2 SWAP1 DUP2 ADD SWAP1 PUSH2 0x2E5C JUMP JUMPDEST SWAP1 POP PUSH1 0x0 DUP6 PUSH1 0x1 PUSH1 0x1 PUSH1 0xA0 SHL SUB AND PUSH4 0xCC7EBDC4 DUP7 PUSH1 0x40 MLOAD DUP3 PUSH4 0xFFFFFFFF AND PUSH1 0xE0 SHL DUP2 MSTORE PUSH1 0x4 ADD PUSH2 0xC76 SWAP2 SWAP1 PUSH2 0x3B0C JUMP JUMPDEST PUSH1 0x20 PUSH1 0x40 MLOAD DUP1 DUP4 SUB DUP2 DUP7 DUP1 EXTCODESIZE ISZERO DUP1 ISZERO PUSH2 0xC8E JUMPI PUSH1 0x0 DUP1 REVERT JUMPDEST POP GAS STATICCALL ISZERO DUP1 ISZERO PUSH2 0xCA2 JUMPI RETURNDATASIZE PUSH1 0x0 DUP1 RETURNDATACOPY RETURNDATASIZE PUSH1 0x0 REVERT JUMPDEST POP POP POP POP PUSH1 0x40 MLOAD RETURNDATASIZE PUSH1 0x1F NOT PUSH1 0x1F DUP3 ADD AND DUP3 ADD DUP1 PUSH1 0x40 MSTORE POP PUSH2 0xCC6 SWAP2 SWAP1 DUP2 ADD SWAP1 PUSH2 0x2E5C JUMP JUMPDEST SWAP1 POP PUSH1 0x0 PUSH2 0xCFB DUP3 DUP5 PUSH1 0x40 MLOAD DUP1 PUSH1 0x40 ADD PUSH1 0x40 MSTORE DUP1 PUSH1 0xE DUP2 MSTORE PUSH1 0x20 ADD PUSH14 0x1CDD5B4818DBDB5C081D1BDD185B PUSH1 0x92 SHL DUP2 MSTORE POP PUSH2 0x1F86 JUMP JUMPDEST SWAP1 POP PUSH1 0x0 PUSH2 0xD2F DUP3 DUP7 PUSH1 0x40 MLOAD DUP1 PUSH1 0x40 ADD PUSH1 0x40 MSTORE DUP1 PUSH1 0xD DUP2 MSTORE PUSH1 0x20 ADD PUSH13 0x1CDD5888185B1B1BD8D85D1959 PUSH1 0x9A SHL DUP2 MSTORE POP PUSH2 0x1FB6 JUMP JUMPDEST SWAP1 POP PUSH1 0x40 MLOAD DUP1 PUSH1 0x80 ADD PUSH1 0x40 MSTORE DUP1 DUP7 DUP2 MSTORE PUSH1 0x20 ADD DUP11 PUSH1 0x1 PUSH1 0x1 PUSH1 0xA0 SHL SUB AND PUSH4 0xB4B5EA57 DUP11 PUSH1 0x40 MLOAD DUP3 PUSH4 0xFFFFFFFF AND PUSH1 0xE0 SHL DUP2 MSTORE PUSH1 0x4 ADD PUSH2 0xD6E SWAP2 SWAP1 PUSH2 0x3B0C JUMP JUMPDEST PUSH1 0x20 PUSH1 0x40 MLOAD DUP1 DUP4 SUB DUP2 DUP7 DUP1 EXTCODESIZE ISZERO DUP1 ISZERO PUSH2 0xD86 JUMPI PUSH1 0x0 DUP1 REVERT JUMPDEST POP GAS STATICCALL ISZERO DUP1 ISZERO PUSH2 0xD9A JUMPI RETURNDATASIZE PUSH1 0x0 DUP1 RETURNDATACOPY RETURNDATASIZE PUSH1 0x0 REVERT JUMPDEST POP POP POP POP PUSH1 0x40 MLOAD RETURNDATASIZE PUSH1 0x1F NOT PUSH1 0x1F DUP3 ADD AND DUP3 ADD DUP1 PUSH1 0x40 MSTORE POP PUSH2 0xDBE SWAP2 SWAP1 DUP2 ADD SWAP1 PUSH2 0x2FBD JUMP JUMPDEST PUSH1 0x1 PUSH1 0x1 PUSH1 0x60 SHL SUB AND DUP2 MSTORE PUSH1 0x20 ADD DUP11 PUSH1 0x1 PUSH1 0x1 PUSH1 0xA0 SHL SUB AND PUSH4 0x587CDE1E DUP11 PUSH1 0x40 MLOAD DUP3 PUSH4 0xFFFFFFFF AND PUSH1 0xE0 SHL DUP2 MSTORE PUSH1 0x4 ADD PUSH2 0xDF8 SWAP2 SWAP1 PUSH2 0x3B0C JUMP JUMPDEST PUSH1 0x20 PUSH1 0x40 MLOAD DUP1 DUP4 SUB DUP2 DUP7 DUP1 EXTCODESIZE ISZERO DUP1 ISZERO PUSH2 0xE10 JUMPI PUSH1 0x0 DUP1 REVERT JUMPDEST POP GAS STATICCALL ISZERO DUP1 ISZERO PUSH2 0xE24 JUMPI RETURNDATASIZE PUSH1 0x0 DUP1 RETURNDATACOPY RETURNDATASIZE PUSH1 0x0 REVERT JUMPDEST POP POP POP POP PUSH1 0x40 MLOAD RETURNDATASIZE PUSH1 0x1F NOT PUSH1 0x1F DUP3 ADD AND DUP3 ADD DUP1 PUSH1 0x40 MSTORE POP PUSH2 0xE48 SWAP2 SWAP1 DUP2 ADD SWAP1 PUSH2 0x2A23 JUMP JUMPDEST PUSH1 0x1 PUSH1 0x1 PUSH1 0xA0 SHL SUB AND DUP2 MSTORE PUSH1 0x20 ADD SWAP2 SWAP1 SWAP2 MSTORE SWAP9 SWAP8 POP POP POP POP POP POP POP POP JUMP JUMPDEST PUSH1 0x40 DUP1 MLOAD DUP3 DUP2 MSTORE PUSH1 0x20 DUP1 DUP5 MUL DUP3 ADD ADD SWAP1 SWAP2 MSTORE PUSH1 0x60 SWAP1 DUP3 SWAP1 DUP3 SWAP1 DUP3 DUP1 ISZERO PUSH2 0xEA6 JUMPI DUP2 PUSH1 0x20 ADD JUMPDEST PUSH2 0xE93 PUSH2 0x22FE JUMP JUMPDEST DUP2 MSTORE PUSH1 0x20 ADD SWAP1 PUSH1 0x1 SWAP1 SUB SWAP1 DUP2 PUSH2 0xE8B JUMPI SWAP1 POP JUMPDEST POP SWAP1 POP PUSH1 0x0 JUMPDEST DUP3 DUP2 LT ISZERO PUSH2 0xEF7 JUMPI PUSH2 0xED8 DUP7 DUP7 DUP4 DUP2 DUP2 LT PUSH2 0xEC3 JUMPI INVALID JUMPDEST SWAP1 POP PUSH1 0x20 MUL ADD PUSH1 0x20 PUSH2 0x2A6 SWAP2 SWAP1 DUP2 ADD SWAP1 PUSH2 0x2C08 JUMP JUMPDEST DUP3 DUP3 DUP2 MLOAD DUP2 LT PUSH2 0xEE4 JUMPI INVALID JUMPDEST PUSH1 0x20 SWAP1 DUP2 MUL SWAP2 SWAP1 SWAP2 ADD ADD MSTORE PUSH1 0x1 ADD PUSH2 0xEAC JUMP JUMPDEST POP SWAP2 POP POP JUMPDEST SWAP3 SWAP2 POP POP JUMP JUMPDEST PUSH2 0xF0A PUSH2 0x2315 JUMP JUMPDEST PUSH1 0x40 DUP1 MLOAD PUSH1 0x60 DUP2 ADD SWAP2 DUP3 SWAP1 MSTORE PUSH4 0x70A08231 PUSH1 0xE0 SHL SWAP1 SWAP2 MSTORE DUP1 PUSH1 0x1 PUSH1 0x1 PUSH1 0xA0 SHL SUB DUP6 AND PUSH4 0x70A08231 PUSH2 0xF3E DUP7 PUSH1 0x64 DUP6 ADD PUSH2 0x3B0C JUMP JUMPDEST PUSH1 0x20 PUSH1 0x40 MLOAD DUP1 DUP4 SUB DUP2 DUP7 DUP1 EXTCODESIZE ISZERO DUP1 ISZERO PUSH2 0xF56 JUMPI PUSH1 0x0 DUP1 REVERT JUMPDEST POP GAS STATICCALL ISZERO DUP1 ISZERO PUSH2 0xF6A JUMPI RETURNDATASIZE PUSH1 0x0 DUP1 RETURNDATACOPY RETURNDATASIZE PUSH1 0x0 REVERT JUMPDEST POP POP POP POP PUSH1 0x40 MLOAD RETURNDATASIZE PUSH1 0x1F NOT PUSH1 0x1F DUP3 ADD AND DUP3 ADD DUP1 PUSH1 0x40 MSTORE POP PUSH2 0xF8E SWAP2 SWAP1 DUP2 ADD SWAP1 PUSH2 0x2E5C JUMP JUMPDEST DUP2 MSTORE PUSH1 0x20 ADD DUP5 PUSH1 0x1 PUSH1 0x1 PUSH1 0xA0 SHL SUB AND PUSH4 0xB4B5EA57 DUP6 PUSH1 0x40 MLOAD DUP3 PUSH4 0xFFFFFFFF AND PUSH1 0xE0 SHL DUP2 MSTORE PUSH1 0x4 ADD PUSH2 0xFBF SWAP2 SWAP1 PUSH2 0x3B0C JUMP JUMPDEST PUSH1 0x20 PUSH1 0x40 MLOAD DUP1 DUP4 SUB DUP2 DUP7 DUP1 EXTCODESIZE ISZERO DUP1 ISZERO PUSH2 0xFD7 JUMPI PUSH1 0x0 DUP1 REVERT JUMPDEST POP GAS STATICCALL ISZERO DUP1 ISZERO PUSH2 0xFEB JUMPI RETURNDATASIZE PUSH1 0x0 DUP1 RETURNDATACOPY RETURNDATASIZE PUSH1 0x0 REVERT JUMPDEST POP POP POP POP PUSH1 0x40 MLOAD RETURNDATASIZE PUSH1 0x1F NOT PUSH1 0x1F DUP3 ADD AND DUP3 ADD DUP1 PUSH1 0x40 MSTORE POP PUSH2 0x100F SWAP2 SWAP1 DUP2 ADD SWAP1 PUSH2 0x2FBD JUMP JUMPDEST PUSH1 0x1 PUSH1 0x1 PUSH1 0x60 SHL SUB AND DUP2 MSTORE PUSH1 0x20 ADD DUP5 PUSH1 0x1 PUSH1 0x1 PUSH1 0xA0 SHL SUB AND PUSH4 0x587CDE1E DUP6 PUSH1 0x40 MLOAD DUP3 PUSH4 0xFFFFFFFF AND PUSH1 0xE0 SHL DUP2 MSTORE PUSH1 0x4 ADD PUSH2 0x1049 SWAP2 SWAP1 PUSH2 0x3B0C JUMP JUMPDEST PUSH1 0x20 PUSH1 0x40 MLOAD DUP1 DUP4 SUB DUP2 DUP7 DUP1 EXTCODESIZE ISZERO DUP1 ISZERO PUSH2 0x1061 JUMPI PUSH1 0x0 DUP1 REVERT JUMPDEST POP GAS STATICCALL ISZERO DUP1 ISZERO PUSH2 0x1075 JUMPI RETURNDATASIZE PUSH1 0x0 DUP1 RETURNDATACOPY RETURNDATASIZE PUSH1 0x0 REVERT JUMPDEST POP POP POP POP PUSH1 0x40 MLOAD RETURNDATASIZE PUSH1 0x1F NOT PUSH1 0x1F DUP3 ADD AND DUP3 ADD DUP1 PUSH1 0x40 MSTORE POP PUSH2 0x1099 SWAP2 SWAP1 DUP2 ADD SWAP1 PUSH2 0x2A23 JUMP JUMPDEST PUSH1 0x1 PUSH1 0x1 PUSH1 0xA0 SHL SUB AND SWAP1 MSTORE SWAP4 SWAP3 POP POP POP JUMP JUMPDEST PUSH1 0x60 PUSH1 0x0 DUP3 MLOAD SWAP1 POP PUSH1 0x60 DUP2 PUSH1 0x40 MLOAD SWAP1 DUP1 DUP3 MSTORE DUP1 PUSH1 0x20 MUL PUSH1 0x20 ADD DUP3 ADD PUSH1 0x40 MSTORE DUP1 ISZERO PUSH2 0x10EF JUMPI DUP2 PUSH1 0x20 ADD JUMPDEST PUSH2 0x10DC PUSH2 0x233F JUMP JUMPDEST DUP2 MSTORE PUSH1 0x20 ADD SWAP1 PUSH1 0x1 SWAP1 SUB SWAP1 DUP2 PUSH2 0x10D4 JUMPI SWAP1 POP JUMPDEST POP SWAP1 POP PUSH1 0x0 JUMPDEST DUP3 DUP2 LT ISZERO PUSH2 0x34F JUMPI PUSH2 0x1105 PUSH2 0x2366 JUMP JUMPDEST DUP8 PUSH1 0x1 PUSH1 0x1 PUSH1 0xA0 SHL SUB AND PUSH4 0xE23A9A52 DUP8 DUP5 DUP2 MLOAD DUP2 LT PUSH2 0x1120 JUMPI INVALID JUMPDEST PUSH1 0x20 MUL PUSH1 0x20 ADD ADD MLOAD DUP10 PUSH1 0x40 MLOAD DUP4 PUSH4 0xFFFFFFFF AND PUSH1 0xE0 SHL DUP2 MSTORE PUSH1 0x4 ADD PUSH2 0x1146 SWAP3 SWAP2 SWAP1 PUSH2 0x3C6B JUMP JUMPDEST PUSH1 0x60 PUSH1 0x40 MLOAD DUP1 DUP4 SUB DUP2 DUP7 DUP1 EXTCODESIZE ISZERO DUP1 ISZERO PUSH2 0x115E JUMPI PUSH1 0x0 DUP1 REVERT JUMPDEST POP GAS STATICCALL ISZERO DUP1 ISZERO PUSH2 0x1172 JUMPI RETURNDATASIZE PUSH1 0x0 DUP1 RETURNDATACOPY RETURNDATASIZE PUSH1 0x0 REVERT JUMPDEST POP POP POP POP PUSH1 0x40 MLOAD RETURNDATASIZE PUSH1 0x1F NOT PUSH1 0x1F DUP3 ADD AND DUP3 ADD DUP1 PUSH1 0x40 MSTORE POP PUSH2 0x1196 SWAP2 SWAP1 DUP2 ADD SWAP1 PUSH2 0x2E3E JUMP JUMPDEST SWAP1 POP PUSH1 0x40 MLOAD DUP1 PUSH1 0x80 ADD PUSH1 0x40 MSTORE DUP1 DUP8 DUP5 DUP2 MLOAD DUP2 LT PUSH2 0x11AF JUMPI INVALID JUMPDEST PUSH1 0x20 MUL PUSH1 0x20 ADD ADD MLOAD DUP2 MSTORE PUSH1 0x20 ADD DUP3 PUSH1 0x0 ADD MLOAD ISZERO ISZERO DUP2 MSTORE PUSH1 0x20 ADD DUP3 PUSH1 0x20 ADD MLOAD PUSH1 0xFF AND DUP2 MSTORE PUSH1 0x20 ADD DUP3 PUSH1 0x40 ADD MLOAD PUSH1 0x1 PUSH1 0x1 PUSH1 0x60 SHL SUB AND DUP2 MSTORE POP DUP4 DUP4 DUP2 MLOAD DUP2 LT PUSH2 0x11F2 JUMPI INVALID JUMPDEST PUSH1 0x20 SWAP1 DUP2 MUL SWAP2 SWAP1 SWAP2 ADD ADD MSTORE POP PUSH1 0x1 ADD PUSH2 0x10F5 JUMP JUMPDEST PUSH1 0x40 DUP1 MLOAD DUP3 DUP2 MSTORE PUSH1 0x20 DUP1 DUP5 MUL DUP3 ADD ADD SWAP1 SWAP2 MSTORE PUSH1 0x60 SWAP1 DUP3 SWAP1 DUP3 SWAP1 DUP3 DUP1 ISZERO PUSH2 0x1246 JUMPI DUP2 PUSH1 0x20 ADD JUMPDEST PUSH2 0x1233 PUSH2 0x224A JUMP JUMPDEST DUP2 MSTORE PUSH1 0x20 ADD SWAP1 PUSH1 0x1 SWAP1 SUB SWAP1 DUP2 PUSH2 0x122B JUMPI SWAP1 POP JUMPDEST POP SWAP1 POP PUSH1 0x0 JUMPDEST DUP3 DUP2 LT ISZERO PUSH2 0xEF7 JUMPI PUSH2 0x1278 DUP7 DUP7 DUP4 DUP2 DUP2 LT PUSH2 0x1263 JUMPI INVALID JUMPDEST SWAP1 POP PUSH1 0x20 MUL ADD PUSH1 0x20 PUSH2 0x126 SWAP2 SWAP1 DUP2 ADD SWAP1 PUSH2 0x2C08 JUMP JUMPDEST DUP3 DUP3 DUP2 MLOAD DUP2 LT PUSH2 0x1284 JUMPI INVALID JUMPDEST PUSH1 0x20 SWAP1 DUP2 MUL SWAP2 SWAP1 SWAP2 ADD ADD MSTORE PUSH1 0x1 ADD PUSH2 0x124C JUMP JUMPDEST PUSH1 0x60 DUP1 DUP4 DUP4 SWAP1 POP PUSH1 0x40 MLOAD SWAP1 DUP1 DUP3 MSTORE DUP1 PUSH1 0x20 MUL PUSH1 0x20 ADD DUP3 ADD PUSH1 0x40 MSTORE DUP1 ISZERO PUSH2 0x12D7 JUMPI DUP2 PUSH1 0x20 ADD JUMPDEST PUSH2 0x12C4 PUSH2 0x2386 JUMP JUMPDEST DUP2 MSTORE PUSH1 0x20 ADD SWAP1 PUSH1 0x1 SWAP1 SUB SWAP1 DUP2 PUSH2 0x12BC JUMPI SWAP1 POP JUMPDEST POP SWAP1 POP PUSH1 0x0 JUMPDEST DUP4 DUP2 LT ISZERO PUSH2 0x13E5 JUMPI PUSH1 0x40 MLOAD DUP1 PUSH1 0x40 ADD PUSH1 0x40 MSTORE DUP1 DUP7 DUP7 DUP5 DUP2 DUP2 LT PUSH2 0x12FC JUMPI INVALID JUMPDEST SWAP1 POP PUSH1 0x20 MUL ADD PUSH1 0x20 PUSH2 0x1311 SWAP2 SWAP1 DUP2 ADD SWAP1 PUSH2 0x2F81 JUMP JUMPDEST PUSH4 0xFFFFFFFF AND DUP2 MSTORE PUSH1 0x20 ADD DUP9 PUSH1 0x1 PUSH1 0x1 PUSH1 0xA0 SHL SUB AND PUSH4 0x782D6FE1 DUP10 DUP10 DUP10 DUP8 DUP2 DUP2 LT PUSH2 0x1338 JUMPI INVALID JUMPDEST SWAP1 POP PUSH1 0x20 MUL ADD PUSH1 0x20 PUSH2 0x134D SWAP2 SWAP1 DUP2 ADD SWAP1 PUSH2 0x2F81 JUMP JUMPDEST PUSH1 0x40 MLOAD DUP4 PUSH4 0xFFFFFFFF AND PUSH1 0xE0 SHL DUP2 MSTORE PUSH1 0x4 ADD PUSH2 0x136A SWAP3 SWAP2 SWAP1 PUSH2 0x3B43 JUMP JUMPDEST PUSH1 0x20 PUSH1 0x40 MLOAD DUP1 DUP4 SUB DUP2 DUP7 DUP1 EXTCODESIZE ISZERO DUP1 ISZERO PUSH2 0x1382 JUMPI PUSH1 0x0 DUP1 REVERT JUMPDEST POP GAS STATICCALL ISZERO DUP1 ISZERO PUSH2 0x1396 JUMPI RETURNDATASIZE PUSH1 0x0 DUP1 RETURNDATACOPY RETURNDATASIZE PUSH1 0x0 REVERT JUMPDEST POP POP POP POP PUSH1 0x40 MLOAD RETURNDATASIZE PUSH1 0x1F NOT PUSH1 0x1F DUP3 ADD AND DUP3 ADD DUP1 PUSH1 0x40 MSTORE POP PUSH2 0x13BA SWAP2 SWAP1 DUP2 ADD SWAP1 PUSH2 0x2FBD JUMP JUMPDEST PUSH1 0x1 PUSH1 0x1 PUSH1 0x60 SHL SUB AND DUP2 MSTORE POP DUP3 DUP3 DUP2 MLOAD DUP2 LT PUSH2 0x13D2 JUMPI INVALID JUMPDEST PUSH1 0x20 SWAP1 DUP2 MUL SWAP2 SWAP1 SWAP2 ADD ADD MSTORE PUSH1 0x1 ADD PUSH2 0x12DD JUMP JUMPDEST POP SWAP6 SWAP5 POP POP POP POP POP JUMP JUMPDEST PUSH1 0x60 DUP1 DUP4 DUP4 SWAP1 POP PUSH1 0x40 MLOAD SWAP1 DUP1 DUP3 MSTORE DUP1 PUSH1 0x20 MUL PUSH1 0x20 ADD DUP3 ADD PUSH1 0x40 MSTORE DUP1 ISZERO PUSH2 0x142F JUMPI DUP2 PUSH1 0x20 ADD JUMPDEST PUSH2 0x141C PUSH2 0x23A0 JUMP JUMPDEST DUP2 MSTORE PUSH1 0x20 ADD SWAP1 PUSH1 0x1 SWAP1 SUB SWAP1 DUP2 PUSH2 0x1414 JUMPI SWAP1 POP JUMPDEST POP SWAP1 POP PUSH1 0x0 JUMPDEST DUP4 DUP2 LT ISZERO PUSH2 0x15A9 JUMPI PUSH1 0x60 DUP1 PUSH1 0x60 DUP1 DUP10 PUSH1 0x1 PUSH1 0x1 PUSH1 0xA0 SHL SUB AND PUSH4 0x328DD982 DUP11 DUP11 DUP9 DUP2 DUP2 LT PUSH2 0x145E JUMPI INVALID JUMPDEST SWAP1 POP PUSH1 0x20 MUL ADD CALLDATALOAD PUSH1 0x40 MLOAD DUP3 PUSH4 0xFFFFFFFF AND PUSH1 0xE0 SHL DUP2 MSTORE PUSH1 0x4 ADD PUSH2 0x1481 SWAP2 SWAP1 PUSH2 0x3C5D JUMP JUMPDEST PUSH1 0x0 PUSH1 0x40 MLOAD DUP1 DUP4 SUB DUP2 DUP7 DUP1 EXTCODESIZE ISZERO DUP1 ISZERO PUSH2 0x1499 JUMPI PUSH1 0x0 DUP1 REVERT JUMPDEST POP GAS STATICCALL ISZERO DUP1 ISZERO PUSH2 0x14AD JUMPI RETURNDATASIZE PUSH1 0x0 DUP1 RETURNDATACOPY RETURNDATASIZE PUSH1 0x0 REVERT JUMPDEST POP POP POP POP PUSH1 0x40 MLOAD RETURNDATASIZE PUSH1 0x0 DUP3 RETURNDATACOPY PUSH1 0x1F RETURNDATASIZE SWAP1 DUP2 ADD PUSH1 0x1F NOT AND DUP3 ADD PUSH1 0x40 MSTORE PUSH2 0x14D5 SWAP2 SWAP1 DUP2 ADD SWAP1 PUSH2 0x2A49 JUMP JUMPDEST SWAP4 POP SWAP4 POP SWAP4 POP SWAP4 POP PUSH1 0x40 MLOAD DUP1 PUSH2 0x1C0 ADD PUSH1 0x40 MSTORE DUP1 PUSH1 0x0 DUP2 MSTORE PUSH1 0x20 ADD PUSH1 0x0 PUSH1 0x1 PUSH1 0x1 PUSH1 0xA0 SHL SUB AND DUP2 MSTORE PUSH1 0x20 ADD PUSH1 0x0 DUP2 MSTORE PUSH1 0x20 ADD DUP6 DUP2 MSTORE PUSH1 0x20 ADD DUP5 DUP2 MSTORE PUSH1 0x20 ADD DUP4 DUP2 MSTORE PUSH1 0x20 ADD DUP3 DUP2 MSTORE PUSH1 0x20 ADD PUSH1 0x0 DUP2 MSTORE PUSH1 0x20 ADD PUSH1 0x0 DUP2 MSTORE PUSH1 0x20 ADD PUSH1 0x0 DUP2 MSTORE PUSH1 0x20 ADD PUSH1 0x0 DUP2 MSTORE PUSH1 0x20 ADD PUSH1 0x0 DUP2 MSTORE PUSH1 0x20 ADD PUSH1 0x0 ISZERO ISZERO DUP2 MSTORE PUSH1 0x20 ADD PUSH1 0x0 ISZERO ISZERO DUP2 MSTORE POP DUP7 DUP7 DUP2 MLOAD DUP2 LT PUSH2 0x155E JUMPI INVALID JUMPDEST PUSH1 0x20 MUL PUSH1 0x20 ADD ADD DUP2 SWAP1 MSTORE POP PUSH2 0x1599 DUP7 DUP7 DUP2 MLOAD DUP2 LT PUSH2 0x1578 JUMPI INVALID JUMPDEST PUSH1 0x20 MUL PUSH1 0x20 ADD ADD MLOAD DUP12 DUP12 DUP12 DUP10 DUP2 DUP2 LT PUSH2 0x158D JUMPI INVALID JUMPDEST SWAP1 POP PUSH1 0x20 MUL ADD CALLDATALOAD PUSH2 0x1FE2 JUMP JUMPDEST POP POP PUSH1 0x1 SWAP1 SWAP3 ADD SWAP2 POP PUSH2 0x1435 SWAP1 POP JUMP JUMPDEST POP SWAP5 SWAP4 POP POP POP POP JUMP JUMPDEST PUSH2 0x15BA PUSH2 0x241C JUMP JUMPDEST PUSH1 0x0 DUP1 PUSH1 0x0 DUP6 PUSH1 0x1 PUSH1 0x1 PUSH1 0xA0 SHL SUB AND PUSH4 0x5EC88C79 DUP7 PUSH1 0x40 MLOAD DUP3 PUSH4 0xFFFFFFFF AND PUSH1 0xE0 SHL DUP2 MSTORE PUSH1 0x4 ADD PUSH2 0x15EB SWAP2 SWAP1 PUSH2 0x3B0C JUMP JUMPDEST PUSH1 0x60 PUSH1 0x40 MLOAD DUP1 DUP4 SUB DUP2 DUP7 DUP1 EXTCODESIZE ISZERO DUP1 ISZERO PUSH2 0x1603 JUMPI PUSH1 0x0 DUP1 REVERT JUMPDEST POP GAS STATICCALL ISZERO DUP1 ISZERO PUSH2 0x1617 JUMPI RETURNDATASIZE PUSH1 0x0 DUP1 RETURNDATACOPY RETURNDATASIZE PUSH1 0x0 REVERT JUMPDEST POP POP POP POP PUSH1 0x40 MLOAD RETURNDATASIZE PUSH1 0x1F NOT PUSH1 0x1F DUP3 ADD AND DUP3 ADD DUP1 PUSH1 0x40 MSTORE POP PUSH2 0x163B SWAP2 SWAP1 DUP2 ADD SWAP1 PUSH2 0x2F3E JUMP JUMPDEST SWAP3 POP SWAP3 POP SWAP3 POP DUP3 PUSH1 0x0 EQ PUSH2 0x164E JUMPI PUSH1 0x0 DUP1 REVERT JUMPDEST PUSH1 0x40 DUP1 MLOAD PUSH1 0x60 DUP2 ADD SWAP2 DUP3 SWAP1 MSTORE PUSH4 0x2AFF3BFF PUSH1 0xE2 SHL SWAP1 SWAP2 MSTORE DUP1 PUSH1 0x1 PUSH1 0x1 PUSH1 0xA0 SHL SUB DUP9 AND PUSH4 0xABFCEFFC PUSH2 0x1682 DUP10 PUSH1 0x64 DUP6 ADD PUSH2 0x3B0C JUMP JUMPDEST PUSH1 0x0 PUSH1 0x40 MLOAD DUP1 DUP4 SUB DUP2 DUP7 DUP1 EXTCODESIZE ISZERO DUP1 ISZERO PUSH2 0x169A JUMPI PUSH1 0x0 DUP1 REVERT JUMPDEST POP GAS STATICCALL ISZERO DUP1 ISZERO PUSH2 0x16AE JUMPI RETURNDATASIZE PUSH1 0x0 DUP1 RETURNDATACOPY RETURNDATASIZE PUSH1 0x0 REVERT JUMPDEST POP POP POP POP PUSH1 0x40 MLOAD RETURNDATASIZE PUSH1 0x0 DUP3 RETURNDATACOPY PUSH1 0x1F RETURNDATASIZE SWAP1 DUP2 ADD PUSH1 0x1F NOT AND DUP3 ADD PUSH1 0x40 MSTORE PUSH2 0x16D6 SWAP2 SWAP1 DUP2 ADD SWAP1 PUSH2 0x2B9A JUMP JUMPDEST DUP2 MSTORE PUSH1 0x20 DUP2 ADD SWAP4 SWAP1 SWAP4 MSTORE PUSH1 0x40 SWAP1 SWAP3 ADD MSTORE SWAP5 SWAP4 POP POP POP POP JUMP JUMPDEST PUSH1 0x60 DUP1 DUP4 DUP4 SWAP1 POP PUSH1 0x40 MLOAD SWAP1 DUP1 DUP3 MSTORE DUP1 PUSH1 0x20 MUL PUSH1 0x20 ADD DUP3 ADD PUSH1 0x40 MSTORE DUP1 ISZERO PUSH2 0x172E JUMPI DUP2 PUSH1 0x20 ADD JUMPDEST PUSH2 0x171B PUSH2 0x243D JUMP JUMPDEST DUP2 MSTORE PUSH1 0x20 ADD SWAP1 PUSH1 0x1 SWAP1 SUB SWAP1 DUP2 PUSH2 0x1713 JUMPI SWAP1 POP JUMPDEST POP SWAP1 POP PUSH1 0x0 JUMPDEST DUP4 DUP2 LT ISZERO PUSH2 0x15A9 JUMPI PUSH1 0x60 DUP1 PUSH1 0x60 DUP1 DUP10 PUSH1 0x1 PUSH1 0x1 PUSH1 0xA0 SHL SUB AND PUSH4 0x328DD982 DUP11 DUP11 DUP9 DUP2 DUP2 LT PUSH2 0x175D JUMPI INVALID JUMPDEST SWAP1 POP PUSH1 0x20 MUL ADD CALLDATALOAD PUSH1 0x40 MLOAD DUP3 PUSH4 0xFFFFFFFF AND PUSH1 0xE0 SHL DUP2 MSTORE PUSH1 0x4 ADD PUSH2 0x1780 SWAP2 SWAP1 PUSH2 0x3C5D JUMP JUMPDEST PUSH1 0x0 PUSH1 0x40 MLOAD DUP1 DUP4 SUB DUP2 DUP7 DUP1 EXTCODESIZE ISZERO DUP1 ISZERO PUSH2 0x1798 JUMPI PUSH1 0x0 DUP1 REVERT JUMPDEST POP GAS STATICCALL ISZERO DUP1 ISZERO PUSH2 0x17AC JUMPI RETURNDATASIZE PUSH1 0x0 DUP1 RETURNDATACOPY RETURNDATASIZE PUSH1 0x0 REVERT JUMPDEST POP POP POP POP PUSH1 0x40 MLOAD RETURNDATASIZE PUSH1 0x0 DUP3 RETURNDATACOPY PUSH1 0x1F RETURNDATASIZE SWAP1 DUP2 ADD PUSH1 0x1F NOT AND DUP3 ADD PUSH1 0x40 MSTORE PUSH2 0x17D4 SWAP2 SWAP1 DUP2 ADD SWAP1 PUSH2 0x2A49 JUMP JUMPDEST SWAP4 POP SWAP4 POP SWAP4 POP SWAP4 POP PUSH1 0x40 MLOAD DUP1 PUSH2 0x1A0 ADD PUSH1 0x40 MSTORE DUP1 PUSH1 0x0 DUP2 MSTORE PUSH1 0x20 ADD PUSH1 0x0 PUSH1 0x1 PUSH1 0x1 PUSH1 0xA0 SHL SUB AND DUP2 MSTORE PUSH1 0x20 ADD PUSH1 0x0 DUP2 MSTORE PUSH1 0x20 ADD DUP6 DUP2 MSTORE PUSH1 0x20 ADD DUP5 DUP2 MSTORE PUSH1 0x20 ADD DUP4 DUP2 MSTORE PUSH1 0x20 ADD DUP3 DUP2 MSTORE PUSH1 0x20 ADD PUSH1 0x0 DUP2 MSTORE PUSH1 0x20 ADD PUSH1 0x0 DUP2 MSTORE PUSH1 0x20 ADD PUSH1 0x0 DUP2 MSTORE PUSH1 0x20 ADD PUSH1 0x0 DUP2 MSTORE PUSH1 0x20 ADD PUSH1 0x0 ISZERO ISZERO DUP2 MSTORE PUSH1 0x20 ADD PUSH1 0x0 ISZERO ISZERO DUP2 MSTORE POP DUP7 DUP7 DUP2 MLOAD DUP2 LT PUSH2 0x1856 JUMPI INVALID JUMPDEST PUSH1 0x20 MUL PUSH1 0x20 ADD ADD DUP2 SWAP1 MSTORE POP PUSH2 0x1891 DUP7 DUP7 DUP2 MLOAD DUP2 LT PUSH2 0x1870 JUMPI INVALID JUMPDEST PUSH1 0x20 MUL PUSH1 0x20 ADD ADD MLOAD DUP12 DUP12 DUP12 DUP10 DUP2 DUP2 LT PUSH2 0x1885 JUMPI INVALID JUMPDEST SWAP1 POP PUSH1 0x20 MUL ADD CALLDATALOAD PUSH2 0x20E5 JUMP JUMPDEST POP POP PUSH1 0x1 SWAP1 SWAP3 ADD SWAP2 POP PUSH2 0x1734 SWAP1 POP JUMP JUMPDEST PUSH1 0x60 PUSH1 0x0 DUP3 MLOAD SWAP1 POP PUSH1 0x60 DUP2 PUSH1 0x40 MLOAD SWAP1 DUP1 DUP3 MSTORE DUP1 PUSH1 0x20 MUL PUSH1 0x20 ADD DUP3 ADD PUSH1 0x40 MSTORE DUP1 ISZERO PUSH2 0x18E5 JUMPI DUP2 PUSH1 0x20 ADD JUMPDEST PUSH2 0x18D2 PUSH2 0x233F JUMP JUMPDEST DUP2 MSTORE PUSH1 0x20 ADD SWAP1 PUSH1 0x1 SWAP1 SUB SWAP1 DUP2 PUSH2 0x18CA JUMPI SWAP1 POP JUMPDEST POP SWAP1 POP PUSH1 0x0 JUMPDEST DUP3 DUP2 LT ISZERO PUSH2 0x34F JUMPI PUSH2 0x18FB PUSH2 0x2366 JUMP JUMPDEST DUP8 PUSH1 0x1 PUSH1 0x1 PUSH1 0xA0 SHL SUB AND PUSH4 0xE23A9A52 DUP8 DUP5 DUP2 MLOAD DUP2 LT PUSH2 0x1916 JUMPI INVALID JUMPDEST PUSH1 0x20 MUL PUSH1 0x20 ADD ADD MLOAD DUP10 PUSH1 0x40 MLOAD DUP4 PUSH4 0xFFFFFFFF AND PUSH1 0xE0 SHL DUP2 MSTORE PUSH1 0x4 ADD PUSH2 0x193C SWAP3 SWAP2 SWAP1 PUSH2 0x3C6B JUMP JUMPDEST PUSH1 0x60 PUSH1 0x40 MLOAD DUP1 DUP4 SUB DUP2 DUP7 DUP1 EXTCODESIZE ISZERO DUP1 ISZERO PUSH2 0x1954 JUMPI PUSH1 0x0 DUP1 REVERT JUMPDEST POP GAS STATICCALL ISZERO DUP1 ISZERO PUSH2 0x1968 JUMPI RETURNDATASIZE PUSH1 0x0 DUP1 RETURNDATACOPY RETURNDATASIZE PUSH1 0x0 REVERT JUMPDEST POP POP POP POP PUSH1 0x40 MLOAD RETURNDATASIZE PUSH1 0x1F NOT PUSH1 0x1F DUP3 ADD AND DUP3 ADD DUP1 PUSH1 0x40 MSTORE POP PUSH2 0x198C SWAP2 SWAP1 DUP2 ADD SWAP1 PUSH2 0x2E20 JUMP JUMPDEST SWAP1 POP PUSH1 0x40 MLOAD DUP1 PUSH1 0x80 ADD PUSH1 0x40 MSTORE DUP1 DUP8 DUP5 DUP2 MLOAD DUP2 LT PUSH2 0x19A5 JUMPI INVALID JUMPDEST PUSH1 0x20 MUL PUSH1 0x20 ADD ADD MLOAD DUP2 MSTORE PUSH1 0x20 ADD DUP3 PUSH1 0x0 ADD MLOAD ISZERO ISZERO DUP2 MSTORE PUSH1 0x20 ADD DUP3 PUSH1 0x20 ADD MLOAD ISZERO ISZERO DUP2 MSTORE PUSH1 0x20 ADD DUP3 PUSH1 0x40 ADD MLOAD PUSH1 0x1 PUSH1 0x1 PUSH1 0x60 SHL SUB AND DUP2 MSTORE POP DUP4 DUP4 DUP2 MLOAD DUP2 LT PUSH2 0x19E7 JUMPI INVALID JUMPDEST PUSH1 0x20 SWAP1 DUP2 MUL SWAP2 SWAP1 SWAP2 ADD ADD MSTORE POP PUSH1 0x1 ADD PUSH2 0x18EB JUMP JUMPDEST PUSH2 0x1A03 PUSH2 0x220B JUMP JUMPDEST PUSH1 0x40 MLOAD PUSH4 0x70A08231 PUSH1 0xE0 SHL DUP2 MSTORE PUSH1 0x0 SWAP1 PUSH1 0x1 PUSH1 0x1 PUSH1 0xA0 SHL SUB DUP6 AND SWAP1 PUSH4 0x70A08231 SWAP1 PUSH2 0x1A32 SWAP1 DUP7 SWAP1 PUSH1 0x4 ADD PUSH2 0x3B1A JUMP JUMPDEST PUSH1 0x20 PUSH1 0x40 MLOAD DUP1 DUP4 SUB DUP2 DUP7 DUP1 EXTCODESIZE ISZERO DUP1 ISZERO PUSH2 0x1A4A JUMPI PUSH1 0x0 DUP1 REVERT JUMPDEST POP GAS STATICCALL ISZERO DUP1 ISZERO PUSH2 0x1A5E JUMPI RETURNDATASIZE PUSH1 0x0 DUP1 RETURNDATACOPY RETURNDATASIZE PUSH1 0x0 REVERT JUMPDEST POP POP POP POP PUSH1 0x40 MLOAD RETURNDATASIZE PUSH1 0x1F NOT PUSH1 0x1F DUP3 ADD AND DUP3 ADD DUP1 PUSH1 0x40 MSTORE POP PUSH2 0x1A82 SWAP2 SWAP1 DUP2 ADD SWAP1 PUSH2 0x2E5C JUMP JUMPDEST SWAP1 POP PUSH1 0x0 DUP5 PUSH1 0x1 PUSH1 0x1 PUSH1 0xA0 SHL SUB AND PUSH4 0x17BFDFBC DUP6 PUSH1 0x40 MLOAD DUP3 PUSH4 0xFFFFFFFF AND PUSH1 0xE0 SHL DUP2 MSTORE PUSH1 0x4 ADD PUSH2 0x1AB2 SWAP2 SWAP1 PUSH2 0x3B1A JUMP JUMPDEST PUSH1 0x20 PUSH1 0x40 MLOAD DUP1 DUP4 SUB DUP2 PUSH1 0x0 DUP8 DUP1 EXTCODESIZE ISZERO DUP1 ISZERO PUSH2 0x1ACC JUMPI PUSH1 0x0 DUP1 REVERT JUMPDEST POP GAS CALL ISZERO DUP1 ISZERO PUSH2 0x1AE0 JUMPI RETURNDATASIZE PUSH1 0x0 DUP1 RETURNDATACOPY RETURNDATASIZE PUSH1 0x0 REVERT JUMPDEST POP POP POP POP PUSH1 0x40 MLOAD RETURNDATASIZE PUSH1 0x1F NOT PUSH1 0x1F DUP3 ADD AND DUP3 ADD DUP1 PUSH1 0x40 MSTORE POP PUSH2 0x1B04 SWAP2 SWAP1 DUP2 ADD SWAP1 PUSH2 0x2E5C JUMP JUMPDEST SWAP1 POP PUSH1 0x0 DUP6 PUSH1 0x1 PUSH1 0x1 PUSH1 0xA0 SHL SUB AND PUSH4 0x3AF9E669 DUP7 PUSH1 0x40 MLOAD DUP3 PUSH4 0xFFFFFFFF AND PUSH1 0xE0 SHL DUP2 MSTORE PUSH1 0x4 ADD PUSH2 0x1B34 SWAP2 SWAP1 PUSH2 0x3B1A JUMP JUMPDEST PUSH1 0x20 PUSH1 0x40 MLOAD DUP1 DUP4 SUB DUP2 PUSH1 0x0 DUP8 DUP1 EXTCODESIZE ISZERO DUP1 ISZERO PUSH2 0x1B4E JUMPI PUSH1 0x0 DUP1 REVERT JUMPDEST POP GAS CALL ISZERO DUP1 ISZERO PUSH2 0x1B62 JUMPI RETURNDATASIZE PUSH1 0x0 DUP1 RETURNDATACOPY RETURNDATASIZE PUSH1 0x0 REVERT JUMPDEST POP POP POP POP PUSH1 0x40 MLOAD RETURNDATASIZE PUSH1 0x1F NOT PUSH1 0x1F DUP3 ADD AND DUP3 ADD DUP1 PUSH1 0x40 MSTORE POP PUSH2 0x1B86 SWAP2 SWAP1 DUP2 ADD SWAP1 PUSH2 0x2E5C JUMP JUMPDEST SWAP1 POP PUSH1 0x0 DUP1 PUSH2 0x1BC7 DUP9 PUSH1 0x1 PUSH1 0x1 PUSH1 0xA0 SHL SUB AND PUSH4 0x95D89B41 PUSH1 0x40 MLOAD DUP2 PUSH4 0xFFFFFFFF AND PUSH1 0xE0 SHL DUP2 MSTORE PUSH1 0x4 ADD PUSH1 0x0 PUSH1 0x40 MLOAD DUP1 DUP4 SUB DUP2 DUP7 DUP1 EXTCODESIZE ISZERO DUP1 ISZERO PUSH2 0x510 JUMPI PUSH1 0x0 DUP1 REVERT JUMPDEST ISZERO PUSH2 0x1BE1 JUMPI POP POP PUSH1 0x1 PUSH1 0x1 PUSH1 0xA0 SHL SUB DUP6 AND DUP1 BALANCE SWAP1 BALANCE PUSH2 0x1D5E JUMP JUMPDEST PUSH1 0x0 DUP9 SWAP1 POP PUSH1 0x0 DUP2 PUSH1 0x1 PUSH1 0x1 PUSH1 0xA0 SHL SUB AND PUSH4 0x6F307DC3 PUSH1 0x40 MLOAD DUP2 PUSH4 0xFFFFFFFF AND PUSH1 0xE0 SHL DUP2 MSTORE PUSH1 0x4 ADD PUSH1 0x20 PUSH1 0x40 MLOAD DUP1 DUP4 SUB DUP2 DUP7 DUP1 EXTCODESIZE ISZERO DUP1 ISZERO PUSH2 0x1C21 JUMPI PUSH1 0x0 DUP1 REVERT JUMPDEST POP GAS STATICCALL ISZERO DUP1 ISZERO PUSH2 0x1C35 JUMPI RETURNDATASIZE PUSH1 0x0 DUP1 RETURNDATACOPY RETURNDATASIZE PUSH1 0x0 REVERT JUMPDEST POP POP POP POP PUSH1 0x40 MLOAD RETURNDATASIZE PUSH1 0x1F NOT PUSH1 0x1F DUP3 ADD AND DUP3 ADD DUP1 PUSH1 0x40 MSTORE POP PUSH2 0x1C59 SWAP2 SWAP1 DUP2 ADD SWAP1 PUSH2 0x2A23 JUMP JUMPDEST PUSH1 0x40 MLOAD PUSH4 0x70A08231 PUSH1 0xE0 SHL DUP2 MSTORE SWAP1 SWAP2 POP PUSH1 0x1 PUSH1 0x1 PUSH1 0xA0 SHL SUB DUP3 AND SWAP1 PUSH4 0x70A08231 SWAP1 PUSH2 0x1C88 SWAP1 DUP13 SWAP1 PUSH1 0x4 ADD PUSH2 0x3B1A JUMP JUMPDEST PUSH1 0x20 PUSH1 0x40 MLOAD DUP1 DUP4 SUB DUP2 DUP7 DUP1 EXTCODESIZE ISZERO DUP1 ISZERO PUSH2 0x1CA0 JUMPI PUSH1 0x0 DUP1 REVERT JUMPDEST POP GAS STATICCALL ISZERO DUP1 ISZERO PUSH2 0x1CB4 JUMPI RETURNDATASIZE PUSH1 0x0 DUP1 RETURNDATACOPY RETURNDATASIZE PUSH1 0x0 REVERT JUMPDEST POP POP POP POP PUSH1 0x40 MLOAD RETURNDATASIZE PUSH1 0x1F NOT PUSH1 0x1F DUP3 ADD AND DUP3 ADD DUP1 PUSH1 0x40 MSTORE POP PUSH2 0x1CD8 SWAP2 SWAP1 DUP2 ADD SWAP1 PUSH2 0x2E5C JUMP JUMPDEST PUSH1 0x40 MLOAD PUSH4 0x6EB1769F PUSH1 0xE1 SHL DUP2 MSTORE SWAP1 SWAP5 POP PUSH1 0x1 PUSH1 0x1 PUSH1 0xA0 SHL SUB DUP3 AND SWAP1 PUSH4 0xDD62ED3E SWAP1 PUSH2 0x1D09 SWAP1 DUP13 SWAP1 DUP15 SWAP1 PUSH1 0x4 ADD PUSH2 0x3B28 JUMP JUMPDEST PUSH1 0x20 PUSH1 0x40 MLOAD DUP1 DUP4 SUB DUP2 DUP7 DUP1 EXTCODESIZE ISZERO DUP1 ISZERO PUSH2 0x1D21 JUMPI PUSH1 0x0 DUP1 REVERT JUMPDEST POP GAS STATICCALL ISZERO DUP1 ISZERO PUSH2 0x1D35 JUMPI RETURNDATASIZE PUSH1 0x0 DUP1 RETURNDATACOPY RETURNDATASIZE PUSH1 0x0 REVERT JUMPDEST POP POP POP POP PUSH1 0x40 MLOAD RETURNDATASIZE PUSH1 0x1F NOT PUSH1 0x1F DUP3 ADD AND DUP3 ADD DUP1 PUSH1 0x40 MSTORE POP PUSH2 0x1D59 SWAP2 SWAP1 DUP2 ADD SWAP1 PUSH2 0x2E5C JUMP JUMPDEST SWAP3 POP POP POP JUMPDEST PUSH1 0x40 DUP1 MLOAD PUSH1 0xC0 DUP2 ADD DUP3 MSTORE PUSH1 0x1 PUSH1 0x1 PUSH1 0xA0 SHL SUB SWAP10 SWAP1 SWAP10 AND DUP10 MSTORE PUSH1 0x20 DUP10 ADD SWAP6 SWAP1 SWAP6 MSTORE SWAP4 DUP8 ADD SWAP3 SWAP1 SWAP3 MSTORE PUSH1 0x60 DUP7 ADD MSTORE PUSH1 0x80 DUP6 ADD MSTORE PUSH1 0xA0 DUP5 ADD MSTORE POP SWAP1 SWAP2 SWAP1 POP JUMP JUMPDEST PUSH2 0x1DA3 PUSH2 0x22FE JUMP JUMPDEST PUSH1 0x0 DUP3 PUSH1 0x1 PUSH1 0x1 PUSH1 0xA0 SHL SUB AND PUSH4 0x5FE3B567 PUSH1 0x40 MLOAD DUP2 PUSH4 0xFFFFFFFF AND PUSH1 0xE0 SHL DUP2 MSTORE PUSH1 0x4 ADD PUSH1 0x20 PUSH1 0x40 MLOAD DUP1 DUP4 SUB DUP2 DUP7 DUP1 EXTCODESIZE ISZERO DUP1 ISZERO PUSH2 0x1DDE JUMPI PUSH1 0x0 DUP1 REVERT JUMPDEST POP GAS STATICCALL ISZERO DUP1 ISZERO PUSH2 0x1DF2 JUMPI RETURNDATASIZE PUSH1 0x0 DUP1 RETURNDATACOPY RETURNDATASIZE PUSH1 0x0 REVERT JUMPDEST POP POP POP POP PUSH1 0x40 MLOAD RETURNDATASIZE PUSH1 0x1F NOT PUSH1 0x1F DUP3 ADD AND DUP3 ADD DUP1 PUSH1 0x40 MSTORE POP PUSH2 0x1E16 SWAP2 SWAP1 DUP2 ADD SWAP1 PUSH2 0x2D00 JUMP JUMPDEST SWAP1 POP PUSH1 0x0 DUP2 PUSH1 0x1 PUSH1 0x1 PUSH1 0xA0 SHL SUB AND PUSH4 0x7DC0D1D0 PUSH1 0x40 MLOAD DUP2 PUSH4 0xFFFFFFFF AND PUSH1 0xE0 SHL DUP2 MSTORE PUSH1 0x4 ADD PUSH1 0x20 PUSH1 0x40 MLOAD DUP1 DUP4 SUB DUP2 DUP7 DUP1 EXTCODESIZE ISZERO DUP1 ISZERO PUSH2 0x1E53 JUMPI PUSH1 0x0 DUP1 REVERT JUMPDEST POP GAS STATICCALL ISZERO DUP1 ISZERO PUSH2 0x1E67 JUMPI RETURNDATASIZE PUSH1 0x0 DUP1 RETURNDATACOPY RETURNDATASIZE PUSH1 0x0 REVERT JUMPDEST POP POP POP POP PUSH1 0x40 MLOAD RETURNDATASIZE PUSH1 0x1F NOT PUSH1 0x1F DUP3 ADD AND DUP3 ADD DUP1 PUSH1 0x40 MSTORE POP PUSH2 0x1E8B SWAP2 SWAP1 DUP2 ADD SWAP1 PUSH2 0x2D00 JUMP JUMPDEST SWAP1 POP PUSH1 0x40 MLOAD DUP1 PUSH1 0x40 ADD PUSH1 0x40 MSTORE DUP1 DUP6 PUSH1 0x1 PUSH1 0x1 PUSH1 0xA0 SHL SUB AND DUP2 MSTORE PUSH1 0x20 ADD DUP3 PUSH1 0x1 PUSH1 0x1 PUSH1 0xA0 SHL SUB AND PUSH4 0xFC57D4DF DUP8 PUSH1 0x40 MLOAD DUP3 PUSH4 0xFFFFFFFF AND PUSH1 0xE0 SHL DUP2 MSTORE PUSH1 0x4 ADD PUSH2 0x1ED3 SWAP2 SWAP1 PUSH2 0x3BE6 JUMP JUMPDEST PUSH1 0x20 PUSH1 0x40 MLOAD DUP1 DUP4 SUB DUP2 DUP7 DUP1 EXTCODESIZE ISZERO DUP1 ISZERO PUSH2 0x1EEB JUMPI PUSH1 0x0 DUP1 REVERT JUMPDEST POP GAS STATICCALL ISZERO DUP1 ISZERO PUSH2 0x1EFF JUMPI RETURNDATASIZE PUSH1 0x0 DUP1 RETURNDATACOPY RETURNDATASIZE PUSH1 0x0 REVERT JUMPDEST POP POP POP POP PUSH1 0x40 MLOAD RETURNDATASIZE PUSH1 0x1F NOT PUSH1 0x1F DUP3 ADD AND DUP3 ADD DUP1 PUSH1 0x40 MSTORE POP PUSH2 0x1F23 SWAP2 SWAP1 DUP2 ADD SWAP1 PUSH2 0x2E5C JUMP JUMPDEST SWAP1 MSTORE SWAP5 SWAP4 POP POP POP POP JUMP JUMPDEST PUSH1 0x0 DUP2 PUSH1 0x40 MLOAD PUSH1 0x20 ADD PUSH2 0x1F40 SWAP2 SWAP1 PUSH2 0x3B00 JUMP JUMPDEST PUSH1 0x40 MLOAD PUSH1 0x20 DUP2 DUP4 SUB SUB DUP2 MSTORE SWAP1 PUSH1 0x40 MSTORE DUP1 MLOAD SWAP1 PUSH1 0x20 ADD KECCAK256 DUP4 PUSH1 0x40 MLOAD PUSH1 0x20 ADD PUSH2 0x1F67 SWAP2 SWAP1 PUSH2 0x3B00 JUMP JUMPDEST PUSH1 0x40 MLOAD PUSH1 0x20 DUP2 DUP4 SUB SUB DUP2 MSTORE SWAP1 PUSH1 0x40 MSTORE DUP1 MLOAD SWAP1 PUSH1 0x20 ADD KECCAK256 EQ SWAP1 POP SWAP3 SWAP2 POP POP JUMP JUMPDEST PUSH1 0x0 DUP4 DUP4 ADD DUP3 DUP6 DUP3 LT ISZERO PUSH2 0x15A9 JUMPI PUSH1 0x40 MLOAD PUSH3 0x461BCD PUSH1 0xE5 SHL DUP2 MSTORE PUSH1 0x4 ADD PUSH2 0x1FAD SWAP2 SWAP1 PUSH2 0x3BF4 JUMP JUMPDEST PUSH1 0x40 MLOAD DUP1 SWAP2 SUB SWAP1 REVERT JUMPDEST PUSH1 0x0 DUP2 DUP5 DUP5 GT ISZERO PUSH2 0x1FDA JUMPI PUSH1 0x40 MLOAD PUSH3 0x461BCD PUSH1 0xE5 SHL DUP2 MSTORE PUSH1 0x4 ADD PUSH2 0x1FAD SWAP2 SWAP1 PUSH2 0x3BF4 JUMP JUMPDEST POP POP POP SWAP1 SUB SWAP1 JUMP JUMPDEST PUSH2 0x1FEA PUSH2 0x24B2 JUMP JUMPDEST PUSH1 0x40 MLOAD PUSH4 0x13CF08B PUSH1 0xE0 SHL DUP2 MSTORE PUSH1 0x1 PUSH1 0x1 PUSH1 0xA0 SHL SUB DUP5 AND SWAP1 PUSH4 0x13CF08B SWAP1 PUSH2 0x2016 SWAP1 DUP6 SWAP1 PUSH1 0x4 ADD PUSH2 0x3C5D JUMP JUMPDEST PUSH2 0x140 PUSH1 0x40 MLOAD DUP1 DUP4 SUB DUP2 DUP7 DUP1 EXTCODESIZE ISZERO DUP1 ISZERO PUSH2 0x202F JUMPI PUSH1 0x0 DUP1 REVERT JUMPDEST POP GAS STATICCALL ISZERO DUP1 ISZERO PUSH2 0x2043 JUMPI RETURNDATASIZE PUSH1 0x0 DUP1 RETURNDATACOPY RETURNDATASIZE PUSH1 0x0 REVERT JUMPDEST POP POP POP POP PUSH1 0x40 MLOAD RETURNDATASIZE PUSH1 0x1F NOT PUSH1 0x1F DUP3 ADD AND DUP3 ADD DUP1 PUSH1 0x40 MSTORE POP PUSH2 0x2067 SWAP2 SWAP1 DUP2 ADD SWAP1 PUSH2 0x2E01 JUMP JUMPDEST SWAP2 DUP5 MSTORE POP PUSH1 0x20 DUP1 DUP3 ADD MLOAD PUSH1 0x1 PUSH1 0x1 PUSH1 0xA0 SHL SUB AND SWAP1 DUP5 ADD MSTORE PUSH1 0x40 DUP1 DUP3 ADD MLOAD SWAP1 DUP5 ADD MSTORE PUSH1 0x60 DUP2 ADD MLOAD PUSH1 0xE0 DUP1 DUP6 ADD SWAP2 SWAP1 SWAP2 MSTORE PUSH1 0x80 DUP3 ADD MLOAD PUSH2 0x100 DUP1 DUP7 ADD SWAP2 SWAP1 SWAP2 MSTORE PUSH1 0xA0 DUP4 ADD MLOAD PUSH2 0x120 DUP1 DUP8 ADD SWAP2 SWAP1 SWAP2 MSTORE PUSH1 0xC0 DUP5 ADD MLOAD PUSH2 0x140 DUP8 ADD MSTORE SWAP2 DUP4 ADD MLOAD PUSH2 0x160 DUP7 ADD MSTORE DUP3 ADD MLOAD ISZERO ISZERO PUSH2 0x180 DUP6 ADD MSTORE ADD MLOAD ISZERO ISZERO PUSH2 0x1A0 SWAP1 SWAP3 ADD SWAP2 SWAP1 SWAP2 MSTORE POP JUMP JUMPDEST PUSH1 0x0 DUP1 PUSH1 0x0 DUP1 PUSH1 0x0 DUP1 PUSH1 0x0 DUP1 DUP10 PUSH1 0x1 PUSH1 0x1 PUSH1 0xA0 SHL SUB AND PUSH4 0x13CF08B DUP11 PUSH1 0x40 MLOAD DUP3 PUSH4 0xFFFFFFFF AND PUSH1 0xE0 SHL DUP2 MSTORE PUSH1 0x4 ADD PUSH2 0x211D SWAP2 SWAP1 PUSH2 0x3C5D JUMP JUMPDEST PUSH2 0x120 PUSH1 0x40 MLOAD DUP1 DUP4 SUB DUP2 DUP7 DUP1 EXTCODESIZE ISZERO DUP1 ISZERO PUSH2 0x2136 JUMPI PUSH1 0x0 DUP1 REVERT JUMPDEST POP GAS STATICCALL ISZERO DUP1 ISZERO PUSH2 0x214A JUMPI RETURNDATASIZE PUSH1 0x0 DUP1 RETURNDATACOPY RETURNDATASIZE PUSH1 0x0 REVERT JUMPDEST POP POP POP POP PUSH1 0x40 MLOAD RETURNDATASIZE PUSH1 0x1F NOT PUSH1 0x1F DUP3 ADD AND DUP3 ADD DUP1 PUSH1 0x40 MSTORE POP PUSH2 0x216E SWAP2 SWAP1 DUP2 ADD SWAP1 PUSH2 0x2E7A JUMP JUMPDEST SWAP9 POP SWAP9 POP SWAP9 POP SWAP9 POP SWAP9 POP SWAP9 POP SWAP9 POP SWAP9 POP POP DUP9 DUP12 PUSH1 0x0 ADD DUP2 DUP2 MSTORE POP POP DUP8 DUP12 PUSH1 0x20 ADD SWAP1 PUSH1 0x1 PUSH1 0x1 PUSH1 0xA0 SHL SUB AND SWAP1 DUP2 PUSH1 0x1 PUSH1 0x1 PUSH1 0xA0 SHL SUB AND DUP2 MSTORE POP POP DUP7 DUP12 PUSH1 0x40 ADD DUP2 DUP2 MSTORE POP POP DUP6 DUP12 PUSH1 0xE0 ADD DUP2 DUP2 MSTORE POP POP DUP5 DUP12 PUSH2 0x100 ADD DUP2 DUP2 MSTORE POP POP DUP4 DUP12 PUSH2 0x120 ADD DUP2 DUP2 MSTORE POP POP DUP3 DUP12 PUSH2 0x140 ADD DUP2 DUP2 MSTORE POP POP DUP2 DUP12 PUSH2 0x160 ADD SWAP1 ISZERO ISZERO SWAP1 DUP2 ISZERO ISZERO DUP2 MSTORE POP POP DUP1 DUP12 PUSH2 0x180 ADD SWAP1 ISZERO ISZERO SWAP1 DUP2 ISZERO ISZERO DUP2 MSTORE POP POP POP POP POP POP POP POP POP POP POP POP POP JUMP JUMPDEST PUSH1 0x40 MLOAD DUP1 PUSH1 0xC0 ADD PUSH1 0x40 MSTORE DUP1 PUSH1 0x0 PUSH1 0x1 PUSH1 0x1 PUSH1 0xA0 SHL SUB AND DUP2 MSTORE PUSH1 0x20 ADD PUSH1 0x0 DUP2 MSTORE PUSH1 0x20 ADD PUSH1 0x0 DUP2 MSTORE PUSH1 0x20 ADD PUSH1 0x0 DUP2 MSTORE PUSH1 0x20 ADD PUSH1 0x0 DUP2 MSTORE PUSH1 0x20 ADD PUSH1 0x0 DUP2 MSTORE POP SWAP1 JUMP JUMPDEST PUSH1 0x40 MLOAD DUP1 PUSH2 0x1C0 ADD PUSH1 0x40 MSTORE DUP1 PUSH1 0x0 PUSH1 0x1 PUSH1 0x1 PUSH1 0xA0 SHL SUB AND DUP2 MSTORE PUSH1 0x20 ADD PUSH1 0x0 DUP2 MSTORE PUSH1 0x20 ADD PUSH1 0x0 DUP2 MSTORE PUSH1 0x20 ADD PUSH1 0x0 DUP2 MSTORE PUSH1 0x20 ADD PUSH1 0x0 DUP2 MSTORE PUSH1 0x20 ADD PUSH1 0x0 DUP2 MSTORE PUSH1 0x20 ADD PUSH1 0x0 DUP2 MSTORE PUSH1 0x20 ADD PUSH1 0x0 DUP2 MSTORE PUSH1 0x20 ADD PUSH1 0x0 DUP2 MSTORE PUSH1 0x20 ADD PUSH1 0x0 ISZERO ISZERO DUP2 MSTORE PUSH1 0x20 ADD PUSH1 0x0 DUP2 MSTORE PUSH1 0x20 ADD PUSH1 0x0 PUSH1 0x1 PUSH1 0x1 PUSH1 0xA0 SHL SUB AND DUP2 MSTORE PUSH1 0x20 ADD PUSH1 0x0 DUP2 MSTORE PUSH1 0x20 ADD PUSH1 0x0 DUP2 MSTORE POP SWAP1 JUMP JUMPDEST PUSH1 0x40 MLOAD DUP1 PUSH1 0x80 ADD PUSH1 0x40 MSTORE DUP1 PUSH1 0x0 DUP2 MSTORE PUSH1 0x20 ADD PUSH1 0x0 DUP2 MSTORE PUSH1 0x20 ADD PUSH1 0x0 PUSH1 0x1 PUSH1 0x1 PUSH1 0xA0 SHL SUB AND DUP2 MSTORE PUSH1 0x20 ADD PUSH1 0x0 DUP2 MSTORE POP SWAP1 JUMP JUMPDEST PUSH1 0x40 DUP1 MLOAD DUP1 DUP3 ADD SWAP1 SWAP2 MSTORE PUSH1 0x0 DUP1 DUP3 MSTORE PUSH1 0x20 DUP3 ADD MSTORE SWAP1 JUMP JUMPDEST PUSH1 0x40 MLOAD DUP1 PUSH1 0x60 ADD PUSH1 0x40 MSTORE DUP1 PUSH1 0x0 DUP2 MSTORE PUSH1 0x20 ADD PUSH1 0x0 DUP2 MSTORE PUSH1 0x20 ADD PUSH1 0x0 PUSH1 0x1 PUSH1 0x1 PUSH1 0xA0 SHL SUB AND DUP2 MSTORE POP SWAP1 JUMP JUMPDEST PUSH1 0x40 DUP1 MLOAD PUSH1 0x80 DUP2 ADD DUP3 MSTORE PUSH1 0x0 DUP1 DUP3 MSTORE PUSH1 0x20 DUP3 ADD DUP2 SWAP1 MSTORE SWAP2 DUP2 ADD DUP3 SWAP1 MSTORE PUSH1 0x60 DUP2 ADD SWAP2 SWAP1 SWAP2 MSTORE SWAP1 JUMP JUMPDEST PUSH1 0x40 DUP1 MLOAD PUSH1 0x60 DUP2 ADD DUP3 MSTORE PUSH1 0x0 DUP1 DUP3 MSTORE PUSH1 0x20 DUP3 ADD DUP2 SWAP1 MSTORE SWAP2 DUP2 ADD SWAP2 SWAP1 SWAP2 MSTORE SWAP1 JUMP JUMPDEST PUSH1 0x40 MLOAD DUP1 PUSH1 0x40 ADD PUSH1 0x40 MSTORE DUP1 PUSH1 0x0 DUP2 MSTORE PUSH1 0x20 ADD PUSH1 0x0 DUP2 MSTORE POP SWAP1 JUMP JUMPDEST PUSH1 0x40 MLOAD DUP1 PUSH2 0x1C0 ADD PUSH1 0x40 MSTORE DUP1 PUSH1 0x0 DUP2 MSTORE PUSH1 0x20 ADD PUSH1 0x0 PUSH1 0x1 PUSH1 0x1 PUSH1 0xA0 SHL SUB AND DUP2 MSTORE PUSH1 0x20 ADD PUSH1 0x0 DUP2 MSTORE PUSH1 0x20 ADD PUSH1 0x60 DUP2 MSTORE PUSH1 0x20 ADD PUSH1 0x60 DUP2 MSTORE PUSH1 0x20 ADD PUSH1 0x60 DUP2 MSTORE PUSH1 0x20 ADD PUSH1 0x60 DUP2 MSTORE PUSH1 0x20 ADD PUSH1 0x0 DUP2 MSTORE PUSH1 0x20 ADD PUSH1 0x0 DUP2 MSTORE PUSH1 0x20 ADD PUSH1 0x0 DUP2 MSTORE PUSH1 0x20 ADD PUSH1 0x0 DUP2 MSTORE PUSH1 0x20 ADD PUSH1 0x0 DUP2 MSTORE PUSH1 0x20 ADD PUSH1 0x0 ISZERO ISZERO DUP2 MSTORE PUSH1 0x20 ADD PUSH1 0x0 ISZERO ISZERO DUP2 MSTORE POP SWAP1 JUMP JUMPDEST PUSH1 0x40 MLOAD DUP1 PUSH1 0x60 ADD PUSH1 0x40 MSTORE DUP1 PUSH1 0x60 DUP2 MSTORE PUSH1 0x20 ADD PUSH1 0x0 DUP2 MSTORE PUSH1 0x20 ADD PUSH1 0x0 DUP2 MSTORE POP SWAP1 JUMP JUMPDEST PUSH1 0x40 MLOAD DUP1 PUSH2 0x1A0 ADD PUSH1 0x40 MSTORE DUP1 PUSH1 0x0 DUP2 MSTORE PUSH1 0x20 ADD PUSH1 0x0 PUSH1 0x1 PUSH1 0x1 PUSH1 0xA0 SHL SUB AND DUP2 MSTORE PUSH1 0x20 ADD PUSH1 0x0 DUP2 MSTORE PUSH1 0x20 ADD PUSH1 0x60 DUP2 MSTORE PUSH1 0x20 ADD PUSH1 0x60 DUP2 MSTORE PUSH1 0x20 ADD PUSH1 0x60 DUP2 MSTORE PUSH1 0x20 ADD PUSH1 0x60 DUP2 MSTORE PUSH1 0x20 ADD PUSH1 0x0 DUP2 MSTORE PUSH1 0x20 ADD PUSH1 0x0 DUP2 MSTORE PUSH1 0x20 ADD PUSH1 0x0 DUP2 MSTORE PUSH1 0x20 ADD PUSH1 0x0 DUP2 MSTORE PUSH1 0x20 ADD PUSH1 0x0 ISZERO ISZERO DUP2 MSTORE PUSH1 0x20 ADD PUSH1 0x0 ISZERO ISZERO DUP2 MSTORE POP SWAP1 JUMP JUMPDEST PUSH1 0x40 MLOAD DUP1 PUSH2 0x140 ADD PUSH1 0x40 MSTORE DUP1 PUSH1 0x0 DUP2 MSTORE PUSH1 0x20 ADD PUSH1 0x0 PUSH1 0x1 PUSH1 0x1 PUSH1 0xA0 SHL SUB AND DUP2 MSTORE PUSH1 0x20 ADD PUSH1 0x0 DUP2 MSTORE PUSH1 0x20 ADD PUSH1 0x0 DUP2 MSTORE PUSH1 0x20 ADD PUSH1 0x0 DUP2 MSTORE PUSH1 0x20 ADD PUSH1 0x0 DUP2 MSTORE PUSH1 0x20 ADD PUSH1 0x0 DUP2 MSTORE PUSH1 0x20 ADD PUSH1 0x0 DUP2 MSTORE PUSH1 0x20 ADD PUSH1 0x0 ISZERO ISZERO DUP2 MSTORE PUSH1 0x20 ADD PUSH1 0x0 ISZERO ISZERO DUP2 MSTORE POP SWAP1 JUMP JUMPDEST DUP1 CALLDATALOAD PUSH2 0xEFC DUP2 PUSH2 0x3D8F JUMP JUMPDEST DUP1 MLOAD PUSH2 0xEFC DUP2 PUSH2 0x3D8F JUMP JUMPDEST PUSH1 0x0 DUP3 PUSH1 0x1F DUP4 ADD SLT PUSH2 0x2539 JUMPI PUSH1 0x0 DUP1 REVERT JUMPDEST DUP2 MLOAD PUSH2 0x254C PUSH2 0x2547 DUP3 PUSH2 0x3C9F JUMP JUMPDEST PUSH2 0x3C79 JUMP JUMPDEST SWAP2 POP DUP2 DUP2 DUP4 MSTORE PUSH1 0x20 DUP5 ADD SWAP4 POP PUSH1 0x20 DUP2 ADD SWAP1 POP DUP4 DUP6 PUSH1 0x20 DUP5 MUL DUP3 ADD GT ISZERO PUSH2 0x2571 JUMPI PUSH1 0x0 DUP1 REVERT JUMPDEST PUSH1 0x0 JUMPDEST DUP4 DUP2 LT ISZERO PUSH2 0x259D JUMPI DUP2 PUSH2 0x2587 DUP9 DUP3 PUSH2 0x251D JUMP JUMPDEST DUP5 MSTORE POP PUSH1 0x20 SWAP3 DUP4 ADD SWAP3 SWAP2 SWAP1 SWAP2 ADD SWAP1 PUSH1 0x1 ADD PUSH2 0x2574 JUMP JUMPDEST POP POP POP POP SWAP3 SWAP2 POP POP JUMP JUMPDEST PUSH1 0x0 DUP3 PUSH1 0x1F DUP4 ADD SLT PUSH2 0x25B8 JUMPI PUSH1 0x0 DUP1 REVERT JUMPDEST DUP2 MLOAD PUSH2 0x25C6 PUSH2 0x2547 DUP3 PUSH2 0x3C9F JUMP JUMPDEST DUP2 DUP2 MSTORE PUSH1 0x20 SWAP4 DUP5 ADD SWAP4 SWAP1 SWAP3 POP DUP3 ADD DUP4 PUSH1 0x0 JUMPDEST DUP4 DUP2 LT ISZERO PUSH2 0x259D JUMPI DUP2 MLOAD DUP7 ADD PUSH2 0x25EE DUP9 DUP3 PUSH2 0x2804 JUMP JUMPDEST DUP5 MSTORE POP PUSH1 0x20 SWAP3 DUP4 ADD SWAP3 SWAP2 SWAP1 SWAP2 ADD SWAP1 PUSH1 0x1 ADD PUSH2 0x25D8 JUMP JUMPDEST PUSH1 0x0 DUP1 DUP4 PUSH1 0x1F DUP5 ADD SLT PUSH2 0x2616 JUMPI PUSH1 0x0 DUP1 REVERT JUMPDEST POP DUP2 CALLDATALOAD PUSH1 0x1 PUSH1 0x1 PUSH1 0x40 SHL SUB DUP2 GT ISZERO PUSH2 0x262D JUMPI PUSH1 0x0 DUP1 REVERT JUMPDEST PUSH1 0x20 DUP4 ADD SWAP2 POP DUP4 PUSH1 0x20 DUP3 MUL DUP4 ADD GT ISZERO PUSH2 0x2645 JUMPI PUSH1 0x0 DUP1 REVERT JUMPDEST SWAP3 POP SWAP3 SWAP1 POP JUMP JUMPDEST PUSH1 0x0 DUP3 PUSH1 0x1F DUP4 ADD SLT PUSH2 0x265D JUMPI PUSH1 0x0 DUP1 REVERT JUMPDEST DUP2 MLOAD PUSH2 0x266B PUSH2 0x2547 DUP3 PUSH2 0x3C9F JUMP JUMPDEST SWAP2 POP DUP2 DUP2 DUP4 MSTORE PUSH1 0x20 DUP5 ADD SWAP4 POP PUSH1 0x20 DUP2 ADD SWAP1 POP DUP4 DUP6 PUSH1 0x20 DUP5 MUL DUP3 ADD GT ISZERO PUSH2 0x2690 JUMPI PUSH1 0x0 DUP1 REVERT JUMPDEST PUSH1 0x0 JUMPDEST DUP4 DUP2 LT ISZERO PUSH2 0x259D JUMPI DUP2 PUSH2 0x26A6 DUP9 DUP3 PUSH2 0x285E JUMP JUMPDEST DUP5 MSTORE POP PUSH1 0x20 SWAP3 DUP4 ADD SWAP3 SWAP2 SWAP1 SWAP2 ADD SWAP1 PUSH1 0x1 ADD PUSH2 0x2693 JUMP JUMPDEST PUSH1 0x0 DUP3 PUSH1 0x1F DUP4 ADD SLT PUSH2 0x26CD JUMPI PUSH1 0x0 DUP1 REVERT JUMPDEST DUP2 MLOAD PUSH2 0x26DB PUSH2 0x2547 DUP3 PUSH2 0x3C9F JUMP JUMPDEST DUP2 DUP2 MSTORE PUSH1 0x20 SWAP4 DUP5 ADD SWAP4 SWAP1 SWAP3 POP DUP3 ADD DUP4 PUSH1 0x0 JUMPDEST DUP4 DUP2 LT ISZERO PUSH2 0x259D JUMPI DUP2 MLOAD DUP7 ADD PUSH2 0x2703 DUP9 DUP3 PUSH2 0x2804 JUMP JUMPDEST DUP5 MSTORE POP PUSH1 0x20 SWAP3 DUP4 ADD SWAP3 SWAP2 SWAP1 SWAP2 ADD SWAP1 PUSH1 0x1 ADD PUSH2 0x26ED JUMP JUMPDEST PUSH1 0x0 DUP3 PUSH1 0x1F DUP4 ADD SLT PUSH2 0x272A JUMPI PUSH1 0x0 DUP1 REVERT JUMPDEST DUP2 CALLDATALOAD PUSH2 0x2738 PUSH2 0x2547 DUP3 PUSH2 0x3C9F JUMP JUMPDEST SWAP2 POP DUP2 DUP2 DUP4 MSTORE PUSH1 0x20 DUP5 ADD SWAP4 POP PUSH1 0x20 DUP2 ADD SWAP1 POP DUP4 DUP6 PUSH1 0x20 DUP5 MUL DUP3 ADD GT ISZERO PUSH2 0x275D JUMPI PUSH1 0x0 DUP1 REVERT JUMPDEST PUSH1 0x0 JUMPDEST DUP4 DUP2 LT ISZERO PUSH2 0x259D JUMPI DUP2 PUSH2 0x2773 DUP9 DUP3 PUSH2 0x29EC JUMP JUMPDEST DUP5 MSTORE POP PUSH1 0x20 SWAP3 DUP4 ADD SWAP3 SWAP2 SWAP1 SWAP2 ADD SWAP1 PUSH1 0x1 ADD PUSH2 0x2760 JUMP JUMPDEST PUSH1 0x0 DUP3 PUSH1 0x1F DUP4 ADD SLT PUSH2 0x279A JUMPI PUSH1 0x0 DUP1 REVERT JUMPDEST DUP2 MLOAD PUSH2 0x27A8 PUSH2 0x2547 DUP3 PUSH2 0x3C9F JUMP JUMPDEST SWAP2 POP DUP2 DUP2 DUP4 MSTORE PUSH1 0x20 DUP5 ADD SWAP4 POP PUSH1 0x20 DUP2 ADD SWAP1 POP DUP4 DUP6 PUSH1 0x20 DUP5 MUL DUP3 ADD GT ISZERO PUSH2 0x27CD JUMPI PUSH1 0x0 DUP1 REVERT JUMPDEST PUSH1 0x0 JUMPDEST DUP4 DUP2 LT ISZERO PUSH2 0x259D JUMPI DUP2 PUSH2 0x27E3 DUP9 DUP3 PUSH2 0x29F7 JUMP JUMPDEST DUP5 MSTORE POP PUSH1 0x20 SWAP3 DUP4 ADD SWAP3 SWAP2 SWAP1 SWAP2 ADD SWAP1 PUSH1 0x1 ADD PUSH2 0x27D0 JUMP JUMPDEST DUP1 MLOAD PUSH2 0xEFC DUP2 PUSH2 0x3DA6 JUMP JUMPDEST PUSH1 0x0 DUP3 PUSH1 0x1F DUP4 ADD SLT PUSH2 0x2815 JUMPI PUSH1 0x0 DUP1 REVERT JUMPDEST DUP2 MLOAD PUSH2 0x2823 PUSH2 0x2547 DUP3 PUSH2 0x3CBF JUMP JUMPDEST SWAP2 POP DUP1 DUP3 MSTORE PUSH1 0x20 DUP4 ADD PUSH1 0x20 DUP4 ADD DUP6 DUP4 DUP4 ADD GT ISZERO PUSH2 0x283F JUMPI PUSH1 0x0 DUP1 REVERT JUMPDEST PUSH2 0x284A DUP4 DUP3 DUP5 PUSH2 0x3D59 JUMP JUMPDEST POP POP POP SWAP3 SWAP2 POP POP JUMP JUMPDEST DUP1 CALLDATALOAD PUSH2 0xEFC DUP2 PUSH2 0x3DAF JUMP JUMPDEST DUP1 MLOAD PUSH2 0xEFC DUP2 PUSH2 0x3DAF JUMP JUMPDEST PUSH1 0x0 PUSH2 0x140 DUP3 DUP5 SUB SLT ISZERO PUSH2 0x287C JUMPI PUSH1 0x0 DUP1 REVERT JUMPDEST PUSH2 0x2887 PUSH2 0x140 PUSH2 0x3C79 JUMP JUMPDEST SWAP1 POP PUSH1 0x0 PUSH2 0x2895 DUP5 DUP5 PUSH2 0x29F7 JUMP JUMPDEST DUP3 MSTORE POP PUSH1 0x20 PUSH2 0x28A6 DUP5 DUP5 DUP4 ADD PUSH2 0x251D JUMP JUMPDEST PUSH1 0x20 DUP4 ADD MSTORE POP PUSH1 0x40 PUSH2 0x28BA DUP5 DUP3 DUP6 ADD PUSH2 0x29F7 JUMP JUMPDEST PUSH1 0x40 DUP4 ADD MSTORE POP PUSH1 0x60 PUSH2 0x28CE DUP5 DUP3 DUP6 ADD PUSH2 0x29F7 JUMP JUMPDEST PUSH1 0x60 DUP4 ADD MSTORE POP PUSH1 0x80 PUSH2 0x28E2 DUP5 DUP3 DUP6 ADD PUSH2 0x29F7 JUMP JUMPDEST PUSH1 0x80 DUP4 ADD MSTORE POP PUSH1 0xA0 PUSH2 0x28F6 DUP5 DUP3 DUP6 ADD PUSH2 0x29F7 JUMP JUMPDEST PUSH1 0xA0 DUP4 ADD MSTORE POP PUSH1 0xC0 PUSH2 0x290A DUP5 DUP3 DUP6 ADD PUSH2 0x29F7 JUMP JUMPDEST PUSH1 0xC0 DUP4 ADD MSTORE POP PUSH1 0xE0 PUSH2 0x291E DUP5 DUP3 DUP6 ADD PUSH2 0x29F7 JUMP JUMPDEST PUSH1 0xE0 DUP4 ADD MSTORE POP PUSH2 0x100 PUSH2 0x2933 DUP5 DUP3 DUP6 ADD PUSH2 0x27F9 JUMP JUMPDEST PUSH2 0x100 DUP4 ADD MSTORE POP PUSH2 0x120 PUSH2 0x2949 DUP5 DUP3 DUP6 ADD PUSH2 0x27F9 JUMP JUMPDEST PUSH2 0x120 DUP4 ADD MSTORE POP SWAP3 SWAP2 POP POP JUMP JUMPDEST PUSH1 0x0 PUSH1 0x60 DUP3 DUP5 SUB SLT ISZERO PUSH2 0x2968 JUMPI PUSH1 0x0 DUP1 REVERT JUMPDEST PUSH2 0x2972 PUSH1 0x60 PUSH2 0x3C79 JUMP JUMPDEST SWAP1 POP PUSH1 0x0 PUSH2 0x2980 DUP5 DUP5 PUSH2 0x27F9 JUMP JUMPDEST DUP3 MSTORE POP PUSH1 0x20 PUSH2 0x2991 DUP5 DUP5 DUP4 ADD PUSH2 0x27F9 JUMP JUMPDEST PUSH1 0x20 DUP4 ADD MSTORE POP PUSH1 0x40 PUSH2 0x29A5 DUP5 DUP3 DUP6 ADD PUSH2 0x2A18 JUMP JUMPDEST PUSH1 0x40 DUP4 ADD MSTORE POP SWAP3 SWAP2 POP POP JUMP JUMPDEST PUSH1 0x0 PUSH1 0x60 DUP3 DUP5 SUB SLT ISZERO PUSH2 0x29C3 JUMPI PUSH1 0x0 DUP1 REVERT JUMPDEST PUSH2 0x29CD PUSH1 0x60 PUSH2 0x3C79 JUMP JUMPDEST SWAP1 POP PUSH1 0x0 PUSH2 0x29DB DUP5 DUP5 PUSH2 0x27F9 JUMP JUMPDEST DUP3 MSTORE POP PUSH1 0x20 PUSH2 0x2991 DUP5 DUP5 DUP4 ADD PUSH2 0x2A0D JUMP JUMPDEST DUP1 CALLDATALOAD PUSH2 0xEFC DUP2 PUSH2 0x3DB8 JUMP JUMPDEST DUP1 MLOAD PUSH2 0xEFC DUP2 PUSH2 0x3DB8 JUMP JUMPDEST DUP1 CALLDATALOAD PUSH2 0xEFC DUP2 PUSH2 0x3DC1 JUMP JUMPDEST DUP1 MLOAD PUSH2 0xEFC DUP2 PUSH2 0x3DCA JUMP JUMPDEST DUP1 MLOAD PUSH2 0xEFC DUP2 PUSH2 0x3DD3 JUMP JUMPDEST PUSH1 0x0 PUSH1 0x20 DUP3 DUP5 SUB SLT ISZERO PUSH2 0x2A35 JUMPI PUSH1 0x0 DUP1 REVERT JUMPDEST PUSH1 0x0 PUSH2 0x2A41 DUP5 DUP5 PUSH2 0x251D JUMP JUMPDEST SWAP5 SWAP4 POP POP POP POP JUMP JUMPDEST PUSH1 0x0 DUP1 PUSH1 0x0 DUP1 PUSH1 0x80 DUP6 DUP8 SUB SLT ISZERO PUSH2 0x2A5F JUMPI PUSH1 0x0 DUP1 REVERT JUMPDEST DUP5 MLOAD PUSH1 0x1 PUSH1 0x1 PUSH1 0x40 SHL SUB DUP2 GT ISZERO PUSH2 0x2A75 JUMPI PUSH1 0x0 DUP1 REVERT JUMPDEST PUSH2 0x2A81 DUP8 DUP3 DUP9 ADD PUSH2 0x2528 JUMP JUMPDEST SWAP5 POP POP PUSH1 0x20 DUP6 ADD MLOAD PUSH1 0x1 PUSH1 0x1 PUSH1 0x40 SHL SUB DUP2 GT ISZERO PUSH2 0x2A9D JUMPI PUSH1 0x0 DUP1 REVERT JUMPDEST PUSH2 0x2AA9 DUP8 DUP3 DUP9 ADD PUSH2 0x2789 JUMP JUMPDEST SWAP4 POP POP PUSH1 0x40 DUP6 ADD MLOAD PUSH1 0x1 PUSH1 0x1 PUSH1 0x40 SHL SUB DUP2 GT ISZERO PUSH2 0x2AC5 JUMPI PUSH1 0x0 DUP1 REVERT JUMPDEST PUSH2 0x2AD1 DUP8 DUP3 DUP9 ADD PUSH2 0x26BC JUMP JUMPDEST SWAP3 POP POP PUSH1 0x60 DUP6 ADD MLOAD PUSH1 0x1 PUSH1 0x1 PUSH1 0x40 SHL SUB DUP2 GT ISZERO PUSH2 0x2AED JUMPI PUSH1 0x0 DUP1 REVERT JUMPDEST PUSH2 0x2AF9 DUP8 DUP3 DUP9 ADD PUSH2 0x25A7 JUMP JUMPDEST SWAP2 POP POP SWAP3 SWAP6 SWAP2 SWAP5 POP SWAP3 POP JUMP JUMPDEST PUSH1 0x0 DUP1 PUSH1 0x20 DUP4 DUP6 SUB SLT ISZERO PUSH2 0x2B18 JUMPI PUSH1 0x0 DUP1 REVERT JUMPDEST DUP3 CALLDATALOAD PUSH1 0x1 PUSH1 0x1 PUSH1 0x40 SHL SUB DUP2 GT ISZERO PUSH2 0x2B2E JUMPI PUSH1 0x0 DUP1 REVERT JUMPDEST PUSH2 0x2B3A DUP6 DUP3 DUP7 ADD PUSH2 0x2604 JUMP JUMPDEST SWAP3 POP SWAP3 POP POP SWAP3 POP SWAP3 SWAP1 POP JUMP JUMPDEST PUSH1 0x0 DUP1 PUSH1 0x0 PUSH1 0x40 DUP5 DUP7 SUB SLT ISZERO PUSH2 0x2B5B JUMPI PUSH1 0x0 DUP1 REVERT JUMPDEST DUP4 CALLDATALOAD PUSH1 0x1 PUSH1 0x1 PUSH1 0x40 SHL SUB DUP2 GT ISZERO PUSH2 0x2B71 JUMPI PUSH1 0x0 DUP1 REVERT JUMPDEST PUSH2 0x2B7D DUP7 DUP3 DUP8 ADD PUSH2 0x2604 JUMP JUMPDEST SWAP4 POP SWAP4 POP POP PUSH1 0x20 PUSH2 0x2B90 DUP7 DUP3 DUP8 ADD PUSH2 0x2512 JUMP JUMPDEST SWAP2 POP POP SWAP3 POP SWAP3 POP SWAP3 JUMP JUMPDEST PUSH1 0x0 PUSH1 0x20 DUP3 DUP5 SUB SLT ISZERO PUSH2 0x2BAC JUMPI PUSH1 0x0 DUP1 REVERT JUMPDEST DUP2 MLOAD PUSH1 0x1 PUSH1 0x1 PUSH1 0x40 SHL SUB DUP2 GT ISZERO PUSH2 0x2BC2 JUMPI PUSH1 0x0 DUP1 REVERT JUMPDEST PUSH2 0x2A41 DUP5 DUP3 DUP6 ADD PUSH2 0x264C JUMP JUMPDEST PUSH1 0x0 DUP1 PUSH1 0x40 DUP4 DUP6 SUB SLT ISZERO PUSH2 0x2BE1 JUMPI PUSH1 0x0 DUP1 REVERT JUMPDEST PUSH1 0x0 PUSH2 0x2BED DUP6 DUP6 PUSH2 0x27F9 JUMP JUMPDEST SWAP3 POP POP PUSH1 0x20 PUSH2 0x2BFE DUP6 DUP3 DUP7 ADD PUSH2 0x29F7 JUMP JUMPDEST SWAP2 POP POP SWAP3 POP SWAP3 SWAP1 POP JUMP JUMPDEST PUSH1 0x0 PUSH1 0x20 DUP3 DUP5 SUB SLT ISZERO PUSH2 0x2C1A JUMPI PUSH1 0x0 DUP1 REVERT JUMPDEST PUSH1 0x0 PUSH2 0x2A41 DUP5 DUP5 PUSH2 0x2853 JUMP JUMPDEST PUSH1 0x0 DUP1 PUSH1 0x40 DUP4 DUP6 SUB SLT ISZERO PUSH2 0x2C39 JUMPI PUSH1 0x0 DUP1 REVERT JUMPDEST PUSH1 0x0 PUSH2 0x2C45 DUP6 DUP6 PUSH2 0x2853 JUMP JUMPDEST SWAP3 POP POP PUSH1 0x20 PUSH2 0x2BFE DUP6 DUP3 DUP7 ADD PUSH2 0x2512 JUMP JUMPDEST PUSH1 0x0 DUP1 PUSH1 0x0 DUP1 PUSH1 0x60 DUP6 DUP8 SUB SLT ISZERO PUSH2 0x2C6C JUMPI PUSH1 0x0 DUP1 REVERT JUMPDEST PUSH1 0x0 PUSH2 0x2C78 DUP8 DUP8 PUSH2 0x2853 JUMP JUMPDEST SWAP5 POP POP PUSH1 0x20 PUSH2 0x2C89 DUP8 DUP3 DUP9 ADD PUSH2 0x2512 JUMP JUMPDEST SWAP4 POP POP PUSH1 0x40 DUP6 ADD CALLDATALOAD PUSH1 0x1 PUSH1 0x1 PUSH1 0x40 SHL SUB DUP2 GT ISZERO PUSH2 0x2CA5 JUMPI PUSH1 0x0 DUP1 REVERT JUMPDEST PUSH2 0x2CB1 DUP8 DUP3 DUP9 ADD PUSH2 0x2604 JUMP JUMPDEST SWAP6 SWAP9 SWAP5 SWAP8 POP SWAP6 POP POP POP POP JUMP JUMPDEST PUSH1 0x0 DUP1 PUSH1 0x0 PUSH1 0x60 DUP5 DUP7 SUB SLT ISZERO PUSH2 0x2CD2 JUMPI PUSH1 0x0 DUP1 REVERT JUMPDEST PUSH1 0x0 PUSH2 0x2CDE DUP7 DUP7 PUSH2 0x2853 JUMP JUMPDEST SWAP4 POP POP PUSH1 0x20 PUSH2 0x2CEF DUP7 DUP3 DUP8 ADD PUSH2 0x2853 JUMP JUMPDEST SWAP3 POP POP PUSH1 0x40 PUSH2 0x2B90 DUP7 DUP3 DUP8 ADD PUSH2 0x2512 JUMP JUMPDEST PUSH1 0x0 PUSH1 0x20 DUP3 DUP5 SUB SLT ISZERO PUSH2 0x2D12 JUMPI PUSH1 0x0 DUP1 REVERT JUMPDEST PUSH1 0x0 PUSH2 0x2A41 DUP5 DUP5 PUSH2 0x285E JUMP JUMPDEST PUSH1 0x0 DUP1 PUSH1 0x0 PUSH1 0x60 DUP5 DUP7 SUB SLT ISZERO PUSH2 0x2D33 JUMPI PUSH1 0x0 DUP1 REVERT JUMPDEST PUSH1 0x0 PUSH2 0x2D3F DUP7 DUP7 PUSH2 0x2853 JUMP JUMPDEST SWAP4 POP POP PUSH1 0x20 PUSH2 0x2D50 DUP7 DUP3 DUP8 ADD PUSH2 0x2512 JUMP JUMPDEST SWAP3 POP POP PUSH1 0x40 DUP5 ADD CALLDATALOAD PUSH1 0x1 PUSH1 0x1 PUSH1 0x40 SHL SUB DUP2 GT ISZERO PUSH2 0x2D6C JUMPI PUSH1 0x0 DUP1 REVERT JUMPDEST PUSH2 0x2B90 DUP7 DUP3 DUP8 ADD PUSH2 0x2719 JUMP JUMPDEST PUSH1 0x0 DUP1 PUSH1 0x0 PUSH1 0x40 DUP5 DUP7 SUB SLT ISZERO PUSH2 0x2D8D JUMPI PUSH1 0x0 DUP1 REVERT JUMPDEST PUSH1 0x0 PUSH2 0x2D99 DUP7 DUP7 PUSH2 0x2853 JUMP JUMPDEST SWAP4 POP POP PUSH1 0x20 DUP5 ADD CALLDATALOAD PUSH1 0x1 PUSH1 0x1 PUSH1 0x40 SHL SUB DUP2 GT ISZERO PUSH2 0x2DB5 JUMPI PUSH1 0x0 DUP1 REVERT JUMPDEST PUSH2 0x2DC1 DUP7 DUP3 DUP8 ADD PUSH2 0x2604 JUMP JUMPDEST SWAP3 POP SWAP3 POP POP SWAP3 POP SWAP3 POP SWAP3 JUMP JUMPDEST PUSH1 0x0 PUSH1 0x20 DUP3 DUP5 SUB SLT ISZERO PUSH2 0x2DDF JUMPI PUSH1 0x0 DUP1 REVERT JUMPDEST DUP2 MLOAD PUSH1 0x1 PUSH1 0x1 PUSH1 0x40 SHL SUB DUP2 GT ISZERO PUSH2 0x2DF5 JUMPI PUSH1 0x0 DUP1 REVERT JUMPDEST PUSH2 0x2A41 DUP5 DUP3 DUP6 ADD PUSH2 0x2804 JUMP JUMPDEST PUSH1 0x0 PUSH2 0x140 DUP3 DUP5 SUB SLT ISZERO PUSH2 0x2E14 JUMPI PUSH1 0x0 DUP1 REVERT JUMPDEST PUSH1 0x0 PUSH2 0x2A41 DUP5 DUP5 PUSH2 0x2869 JUMP JUMPDEST PUSH1 0x0 PUSH1 0x60 DUP3 DUP5 SUB SLT ISZERO PUSH2 0x2E32 JUMPI PUSH1 0x0 DUP1 REVERT JUMPDEST PUSH1 0x0 PUSH2 0x2A41 DUP5 DUP5 PUSH2 0x2956 JUMP JUMPDEST PUSH1 0x0 PUSH1 0x60 DUP3 DUP5 SUB SLT ISZERO PUSH2 0x2E50 JUMPI PUSH1 0x0 DUP1 REVERT JUMPDEST PUSH1 0x0 PUSH2 0x2A41 DUP5 DUP5 PUSH2 0x29B1 JUMP JUMPDEST PUSH1 0x0 PUSH1 0x20 DUP3 DUP5 SUB SLT ISZERO PUSH2 0x2E6E JUMPI PUSH1 0x0 DUP1 REVERT JUMPDEST PUSH1 0x0 PUSH2 0x2A41 DUP5 DUP5 PUSH2 0x29F7 JUMP JUMPDEST PUSH1 0x0 DUP1 PUSH1 0x0 DUP1 PUSH1 0x0 DUP1 PUSH1 0x0 DUP1 PUSH1 0x0 PUSH2 0x120 DUP11 DUP13 SUB SLT ISZERO PUSH2 0x2E99 JUMPI PUSH1 0x0 DUP1 REVERT JUMPDEST PUSH1 0x0 PUSH2 0x2EA5 DUP13 DUP13 PUSH2 0x29F7 JUMP JUMPDEST SWAP10 POP POP PUSH1 0x20 PUSH2 0x2EB6 DUP13 DUP3 DUP14 ADD PUSH2 0x251D JUMP JUMPDEST SWAP9 POP POP PUSH1 0x40 PUSH2 0x2EC7 DUP13 DUP3 DUP14 ADD PUSH2 0x29F7 JUMP JUMPDEST SWAP8 POP POP PUSH1 0x60 PUSH2 0x2ED8 DUP13 DUP3 DUP14 ADD PUSH2 0x29F7 JUMP JUMPDEST SWAP7 POP POP PUSH1 0x80 PUSH2 0x2EE9 DUP13 DUP3 DUP14 ADD PUSH2 0x29F7 JUMP JUMPDEST SWAP6 POP POP PUSH1 0xA0 PUSH2 0x2EFA DUP13 DUP3 DUP14 ADD PUSH2 0x29F7 JUMP JUMPDEST SWAP5 POP POP PUSH1 0xC0 PUSH2 0x2F0B DUP13 DUP3 DUP14 ADD PUSH2 0x29F7 JUMP JUMPDEST SWAP4 POP POP PUSH1 0xE0 PUSH2 0x2F1C DUP13 DUP3 DUP14 ADD PUSH2 0x27F9 JUMP JUMPDEST SWAP3 POP POP PUSH2 0x100 PUSH2 0x2F2E DUP13 DUP3 DUP14 ADD PUSH2 0x27F9 JUMP JUMPDEST SWAP2 POP POP SWAP3 SWAP6 SWAP9 POP SWAP3 SWAP6 SWAP9 POP SWAP3 SWAP6 SWAP9 JUMP JUMPDEST PUSH1 0x0 DUP1 PUSH1 0x0 PUSH1 0x60 DUP5 DUP7 SUB SLT ISZERO PUSH2 0x2F53 JUMPI PUSH1 0x0 DUP1 REVERT JUMPDEST PUSH1 0x0 PUSH2 0x2F5F DUP7 DUP7 PUSH2 0x29F7 JUMP JUMPDEST SWAP4 POP POP PUSH1 0x20 PUSH2 0x2F70 DUP7 DUP3 DUP8 ADD PUSH2 0x29F7 JUMP JUMPDEST SWAP3 POP POP PUSH1 0x40 PUSH2 0x2B90 DUP7 DUP3 DUP8 ADD PUSH2 0x29F7 JUMP JUMPDEST PUSH1 0x0 PUSH1 0x20 DUP3 DUP5 SUB SLT ISZERO PUSH2 0x2F93 JUMPI PUSH1 0x0 DUP1 REVERT JUMPDEST PUSH1 0x0 PUSH2 0x2A41 DUP5 DUP5 PUSH2 0x2A02 JUMP JUMPDEST PUSH1 0x0 PUSH1 0x20 DUP3 DUP5 SUB SLT ISZERO PUSH2 0x2FB1 JUMPI PUSH1 0x0 DUP1 REVERT JUMPDEST PUSH1 0x0 PUSH2 0x2A41 DUP5 DUP5 PUSH2 0x2A0D JUMP JUMPDEST PUSH1 0x0 PUSH1 0x20 DUP3 DUP5 SUB SLT ISZERO PUSH2 0x2FCF JUMPI PUSH1 0x0 DUP1 REVERT JUMPDEST PUSH1 0x0 PUSH2 0x2A41 DUP5 DUP5 PUSH2 0x2A18 JUMP JUMPDEST PUSH1 0x0 PUSH2 0x2FE7 DUP4 DUP4 PUSH2 0x30A3 JUMP JUMPDEST POP POP PUSH1 0x20 ADD SWAP1 JUMP JUMPDEST PUSH1 0x0 PUSH2 0x354 DUP4 DUP4 PUSH2 0x350F JUMP JUMPDEST PUSH1 0x0 PUSH2 0x2FE7 DUP4 DUP4 PUSH2 0x3547 JUMP JUMPDEST PUSH1 0x0 PUSH2 0x3013 DUP4 DUP4 PUSH2 0x35C7 JUMP JUMPDEST POP POP PUSH1 0xC0 ADD SWAP1 JUMP JUMPDEST PUSH1 0x0 PUSH2 0x3027 DUP4 DUP4 PUSH2 0x363D JUMP JUMPDEST POP POP PUSH2 0x1C0 ADD SWAP1 JUMP JUMPDEST PUSH1 0x0 PUSH2 0x303C DUP4 DUP4 PUSH2 0x3752 JUMP JUMPDEST POP POP PUSH1 0x40 ADD SWAP1 JUMP JUMPDEST PUSH1 0x0 PUSH2 0x303C DUP4 DUP4 PUSH2 0x37F7 JUMP JUMPDEST PUSH1 0x0 PUSH2 0x354 DUP4 DUP4 PUSH2 0x3808 JUMP JUMPDEST PUSH1 0x0 PUSH2 0x3068 DUP4 DUP4 PUSH2 0x393C JUMP JUMPDEST POP POP PUSH1 0x80 ADD SWAP1 JUMP JUMPDEST PUSH1 0x0 PUSH2 0x354 DUP4 DUP4 PUSH2 0x3986 JUMP JUMPDEST PUSH1 0x0 PUSH2 0x3068 DUP4 DUP4 PUSH2 0x3AA5 JUMP JUMPDEST PUSH1 0x0 PUSH2 0x2FE7 DUP4 DUP4 PUSH2 0x3ADC JUMP JUMPDEST PUSH2 0x309D DUP2 PUSH2 0x3D43 JUMP JUMPDEST DUP3 MSTORE POP POP JUMP JUMPDEST PUSH2 0x309D DUP2 PUSH2 0x3CFE JUMP JUMPDEST PUSH1 0x0 PUSH2 0x30B7 DUP3 PUSH2 0x3CEC JUMP JUMPDEST PUSH2 0x30C1 DUP2 DUP6 PUSH2 0x3CF0 JUMP JUMPDEST SWAP4 POP PUSH2 0x30CC DUP4 PUSH2 0x3CE6 JUMP JUMPDEST DUP1 PUSH1 0x0 JUMPDEST DUP4 DUP2 LT ISZERO PUSH2 0x30FA JUMPI DUP2 MLOAD PUSH2 0x30E4 DUP9 DUP3 PUSH2 0x2FDB JUMP JUMPDEST SWAP8 POP PUSH2 0x30EF DUP4 PUSH2 0x3CE6 JUMP JUMPDEST SWAP3 POP POP PUSH1 0x1 ADD PUSH2 0x30D0 JUMP JUMPDEST POP SWAP5 SWAP6 SWAP5 POP POP POP POP POP JUMP JUMPDEST PUSH1 0x0 PUSH2 0x3110 DUP3 PUSH2 0x3CEC JUMP JUMPDEST PUSH2 0x311A DUP2 DUP6 PUSH2 0x3CF0 JUMP JUMPDEST SWAP4 POP DUP4 PUSH1 0x20 DUP3 MUL DUP6 ADD PUSH2 0x312C DUP6 PUSH2 0x3CE6 JUMP JUMPDEST DUP1 PUSH1 0x0 JUMPDEST DUP6 DUP2 LT ISZERO PUSH2 0x3166 JUMPI DUP5 DUP5 SUB DUP10 MSTORE DUP2 MLOAD PUSH2 0x3149 DUP6 DUP3 PUSH2 0x2FEF JUMP JUMPDEST SWAP5 POP PUSH2 0x3154 DUP4 PUSH2 0x3CE6 JUMP JUMPDEST PUSH1 0x20 SWAP11 SWAP1 SWAP11 ADD SWAP10 SWAP3 POP POP PUSH1 0x1 ADD PUSH2 0x3130 JUMP JUMPDEST POP SWAP2 SWAP8 SWAP7 POP POP POP POP POP POP POP JUMP JUMPDEST PUSH1 0x0 PUSH2 0x317E DUP3 PUSH2 0x3CEC JUMP JUMPDEST PUSH2 0x3188 DUP2 DUP6 PUSH2 0x3CF0 JUMP JUMPDEST SWAP4 POP PUSH2 0x3193 DUP4 PUSH2 0x3CE6 JUMP JUMPDEST DUP1 PUSH1 0x0 JUMPDEST DUP4 DUP2 LT ISZERO PUSH2 0x30FA JUMPI DUP2 MLOAD PUSH2 0x31AB DUP9 DUP3 PUSH2 0x2FFB JUMP JUMPDEST SWAP8 POP PUSH2 0x31B6 DUP4 PUSH2 0x3CE6 JUMP JUMPDEST SWAP3 POP POP PUSH1 0x1 ADD PUSH2 0x3197 JUMP JUMPDEST PUSH1 0x0 PUSH2 0x31CC DUP3 PUSH2 0x3CEC JUMP JUMPDEST PUSH2 0x31D6 DUP2 DUP6 PUSH2 0x3CF0 JUMP JUMPDEST SWAP4 POP DUP4 PUSH1 0x20 DUP3 MUL DUP6 ADD PUSH2 0x31E8 DUP6 PUSH2 0x3CE6 JUMP JUMPDEST DUP1 PUSH1 0x0 JUMPDEST DUP6 DUP2 LT ISZERO PUSH2 0x3166 JUMPI DUP5 DUP5 SUB DUP10 MSTORE DUP2 MLOAD PUSH2 0x3205 DUP6 DUP3 PUSH2 0x2FEF JUMP JUMPDEST SWAP5 POP PUSH2 0x3210 DUP4 PUSH2 0x3CE6 JUMP JUMPDEST PUSH1 0x20 SWAP11 SWAP1 SWAP11 ADD SWAP10 SWAP3 POP POP PUSH1 0x1 ADD PUSH2 0x31EC JUMP JUMPDEST PUSH1 0x0 PUSH2 0x322D DUP3 PUSH2 0x3CEC JUMP JUMPDEST PUSH2 0x3237 DUP2 DUP6 PUSH2 0x3CF0 JUMP JUMPDEST SWAP4 POP PUSH2 0x3242 DUP4 PUSH2 0x3CE6 JUMP JUMPDEST DUP1 PUSH1 0x0 JUMPDEST DUP4 DUP2 LT ISZERO PUSH2 0x30FA JUMPI DUP2 MLOAD PUSH2 0x325A DUP9 DUP3 PUSH2 0x3007 JUMP JUMPDEST SWAP8 POP PUSH2 0x3265 DUP4 PUSH2 0x3CE6 JUMP JUMPDEST SWAP3 POP POP PUSH1 0x1 ADD PUSH2 0x3246 JUMP JUMPDEST PUSH1 0x0 PUSH2 0x327B DUP3 PUSH2 0x3CEC JUMP JUMPDEST PUSH2 0x3285 DUP2 DUP6 PUSH2 0x3CF0 JUMP JUMPDEST SWAP4 POP PUSH2 0x3290 DUP4 PUSH2 0x3CE6 JUMP JUMPDEST DUP1 PUSH1 0x0 JUMPDEST DUP4 DUP2 LT ISZERO PUSH2 0x30FA JUMPI DUP2 MLOAD PUSH2 0x32A8 DUP9 DUP3 PUSH2 0x301B JUMP JUMPDEST SWAP8 POP PUSH2 0x32B3 DUP4 PUSH2 0x3CE6 JUMP JUMPDEST SWAP3 POP POP PUSH1 0x1 ADD PUSH2 0x3294 JUMP JUMPDEST PUSH1 0x0 PUSH2 0x32C9 DUP3 PUSH2 0x3CEC JUMP JUMPDEST PUSH2 0x32D3 DUP2 DUP6 PUSH2 0x3CF0 JUMP JUMPDEST SWAP4 POP PUSH2 0x32DE DUP4 PUSH2 0x3CE6 JUMP JUMPDEST DUP1 PUSH1 0x0 JUMPDEST DUP4 DUP2 LT ISZERO PUSH2 0x30FA JUMPI DUP2 MLOAD PUSH2 0x32F6 DUP9 DUP3 PUSH2 0x3030 JUMP JUMPDEST SWAP8 POP PUSH2 0x3301 DUP4 PUSH2 0x3CE6 JUMP JUMPDEST SWAP3 POP POP PUSH1 0x1 ADD PUSH2 0x32E2 JUMP JUMPDEST PUSH1 0x0 PUSH2 0x3317 DUP3 PUSH2 0x3CEC JUMP JUMPDEST PUSH2 0x3321 DUP2 DUP6 PUSH2 0x3CF0 JUMP JUMPDEST SWAP4 POP PUSH2 0x332C DUP4 PUSH2 0x3CE6 JUMP JUMPDEST DUP1 PUSH1 0x0 JUMPDEST DUP4 DUP2 LT ISZERO PUSH2 0x30FA JUMPI DUP2 MLOAD PUSH2 0x3344 DUP9 DUP3 PUSH2 0x3044 JUMP JUMPDEST SWAP8 POP PUSH2 0x334F DUP4 PUSH2 0x3CE6 JUMP JUMPDEST SWAP3 POP POP PUSH1 0x1 ADD PUSH2 0x3330 JUMP JUMPDEST PUSH1 0x0 PUSH2 0x3365 DUP3 PUSH2 0x3CEC JUMP JUMPDEST PUSH2 0x336F DUP2 DUP6 PUSH2 0x3CF0 JUMP JUMPDEST SWAP4 POP DUP4 PUSH1 0x20 DUP3 MUL DUP6 ADD PUSH2 0x3381 DUP6 PUSH2 0x3CE6 JUMP JUMPDEST DUP1 PUSH1 0x0 JUMPDEST DUP6 DUP2 LT ISZERO PUSH2 0x3166 JUMPI DUP5 DUP5 SUB DUP10 MSTORE DUP2 MLOAD PUSH2 0x339E DUP6 DUP3 PUSH2 0x3050 JUMP JUMPDEST SWAP5 POP PUSH2 0x33A9 DUP4 PUSH2 0x3CE6 JUMP JUMPDEST PUSH1 0x20 SWAP11 SWAP1 SWAP11 ADD SWAP10 SWAP3 POP POP PUSH1 0x1 ADD PUSH2 0x3385 JUMP JUMPDEST PUSH1 0x0 PUSH2 0x33C6 DUP3 PUSH2 0x3CEC JUMP JUMPDEST PUSH2 0x33D0 DUP2 DUP6 PUSH2 0x3CF0 JUMP JUMPDEST SWAP4 POP PUSH2 0x33DB DUP4 PUSH2 0x3CE6 JUMP JUMPDEST DUP1 PUSH1 0x0 JUMPDEST DUP4 DUP2 LT ISZERO PUSH2 0x30FA JUMPI DUP2 MLOAD PUSH2 0x33F3 DUP9 DUP3 PUSH2 0x305C JUMP JUMPDEST SWAP8 POP PUSH2 0x33FE DUP4 PUSH2 0x3CE6 JUMP JUMPDEST SWAP3 POP POP PUSH1 0x1 ADD PUSH2 0x33DF JUMP JUMPDEST PUSH1 0x0 PUSH2 0x3414 DUP3 PUSH2 0x3CEC JUMP JUMPDEST PUSH2 0x341E DUP2 DUP6 PUSH2 0x3CF0 JUMP JUMPDEST SWAP4 POP DUP4 PUSH1 0x20 DUP3 MUL DUP6 ADD PUSH2 0x3430 DUP6 PUSH2 0x3CE6 JUMP JUMPDEST DUP1 PUSH1 0x0 JUMPDEST DUP6 DUP2 LT ISZERO PUSH2 0x3166 JUMPI DUP5 DUP5 SUB DUP10 MSTORE DUP2 MLOAD PUSH2 0x344D DUP6 DUP3 PUSH2 0x3070 JUMP JUMPDEST SWAP5 POP PUSH2 0x3458 DUP4 PUSH2 0x3CE6 JUMP JUMPDEST PUSH1 0x20 SWAP11 SWAP1 SWAP11 ADD SWAP10 SWAP3 POP POP PUSH1 0x1 ADD PUSH2 0x3434 JUMP JUMPDEST PUSH1 0x0 PUSH2 0x3475 DUP3 PUSH2 0x3CEC JUMP JUMPDEST PUSH2 0x347F DUP2 DUP6 PUSH2 0x3CF0 JUMP JUMPDEST SWAP4 POP PUSH2 0x348A DUP4 PUSH2 0x3CE6 JUMP JUMPDEST DUP1 PUSH1 0x0 JUMPDEST DUP4 DUP2 LT ISZERO PUSH2 0x30FA JUMPI DUP2 MLOAD PUSH2 0x34A2 DUP9 DUP3 PUSH2 0x307C JUMP JUMPDEST SWAP8 POP PUSH2 0x34AD DUP4 PUSH2 0x3CE6 JUMP JUMPDEST SWAP3 POP POP PUSH1 0x1 ADD PUSH2 0x348E JUMP JUMPDEST PUSH1 0x0 PUSH2 0x34C3 DUP3 PUSH2 0x3CEC JUMP JUMPDEST PUSH2 0x34CD DUP2 DUP6 PUSH2 0x3CF0 JUMP JUMPDEST SWAP4 POP PUSH2 0x34D8 DUP4 PUSH2 0x3CE6 JUMP JUMPDEST DUP1 PUSH1 0x0 JUMPDEST DUP4 DUP2 LT ISZERO PUSH2 0x30FA JUMPI DUP2 MLOAD PUSH2 0x34F0 DUP9 DUP3 PUSH2 0x3088 JUMP JUMPDEST SWAP8 POP PUSH2 0x34FB DUP4 PUSH2 0x3CE6 JUMP JUMPDEST SWAP3 POP POP PUSH1 0x1 ADD PUSH2 0x34DC JUMP JUMPDEST PUSH2 0x309D DUP2 PUSH2 0x3D09 JUMP JUMPDEST PUSH1 0x0 PUSH2 0x351A DUP3 PUSH2 0x3CEC JUMP JUMPDEST PUSH2 0x3524 DUP2 DUP6 PUSH2 0x3CF0 JUMP JUMPDEST SWAP4 POP PUSH2 0x3534 DUP2 DUP6 PUSH1 0x20 DUP7 ADD PUSH2 0x3D59 JUMP JUMPDEST PUSH2 0x353D DUP2 PUSH2 0x3D85 JUMP JUMPDEST SWAP1 SWAP4 ADD SWAP4 SWAP3 POP POP POP JUMP JUMPDEST PUSH2 0x309D DUP2 PUSH2 0x3D0E JUMP JUMPDEST PUSH1 0x0 PUSH2 0x355B DUP3 PUSH2 0x3CEC JUMP JUMPDEST PUSH2 0x3565 DUP2 DUP6 PUSH2 0x3CF9 JUMP JUMPDEST SWAP4 POP PUSH2 0x3575 DUP2 DUP6 PUSH1 0x20 DUP7 ADD PUSH2 0x3D59 JUMP JUMPDEST SWAP3 SWAP1 SWAP3 ADD SWAP3 SWAP2 POP POP JUMP JUMPDEST DUP1 MLOAD PUSH1 0x60 DUP1 DUP5 MSTORE PUSH1 0x0 SWAP2 SWAP1 DUP5 ADD SWAP1 PUSH2 0x3597 DUP3 DUP3 PUSH2 0x3173 JUMP JUMPDEST SWAP2 POP POP PUSH1 0x20 DUP4 ADD MLOAD PUSH2 0x35AC PUSH1 0x20 DUP7 ADD DUP3 PUSH2 0x3ADC JUMP JUMPDEST POP PUSH1 0x40 DUP4 ADD MLOAD PUSH2 0x35BF PUSH1 0x40 DUP7 ADD DUP3 PUSH2 0x3ADC JUMP JUMPDEST POP SWAP4 SWAP3 POP POP POP JUMP JUMPDEST DUP1 MLOAD PUSH1 0xC0 DUP4 ADD SWAP1 PUSH2 0x35D8 DUP5 DUP3 PUSH2 0x30A3 JUMP JUMPDEST POP PUSH1 0x20 DUP3 ADD MLOAD PUSH2 0x35EB PUSH1 0x20 DUP6 ADD DUP3 PUSH2 0x3ADC JUMP JUMPDEST POP PUSH1 0x40 DUP3 ADD MLOAD PUSH2 0x35FE PUSH1 0x40 DUP6 ADD DUP3 PUSH2 0x3ADC JUMP JUMPDEST POP PUSH1 0x60 DUP3 ADD MLOAD PUSH2 0x3611 PUSH1 0x60 DUP6 ADD DUP3 PUSH2 0x3ADC JUMP JUMPDEST POP PUSH1 0x80 DUP3 ADD MLOAD PUSH2 0x3624 PUSH1 0x80 DUP6 ADD DUP3 PUSH2 0x3ADC JUMP JUMPDEST POP PUSH1 0xA0 DUP3 ADD MLOAD PUSH2 0x3637 PUSH1 0xA0 DUP6 ADD DUP3 PUSH2 0x3ADC JUMP JUMPDEST POP POP POP POP JUMP JUMPDEST DUP1 MLOAD PUSH2 0x1C0 DUP4 ADD SWAP1 PUSH2 0x364F DUP5 DUP3 PUSH2 0x30A3 JUMP JUMPDEST POP PUSH1 0x20 DUP3 ADD MLOAD PUSH2 0x3662 PUSH1 0x20 DUP6 ADD DUP3 PUSH2 0x3ADC JUMP JUMPDEST POP PUSH1 0x40 DUP3 ADD MLOAD PUSH2 0x3675 PUSH1 0x40 DUP6 ADD DUP3 PUSH2 0x3ADC JUMP JUMPDEST POP PUSH1 0x60 DUP3 ADD MLOAD PUSH2 0x3688 PUSH1 0x60 DUP6 ADD DUP3 PUSH2 0x3ADC JUMP JUMPDEST POP PUSH1 0x80 DUP3 ADD MLOAD PUSH2 0x369B PUSH1 0x80 DUP6 ADD DUP3 PUSH2 0x3ADC JUMP JUMPDEST POP PUSH1 0xA0 DUP3 ADD MLOAD PUSH2 0x36AE PUSH1 0xA0 DUP6 ADD DUP3 PUSH2 0x3ADC JUMP JUMPDEST POP PUSH1 0xC0 DUP3 ADD MLOAD PUSH2 0x36C1 PUSH1 0xC0 DUP6 ADD DUP3 PUSH2 0x3ADC JUMP JUMPDEST POP PUSH1 0xE0 DUP3 ADD MLOAD PUSH2 0x36D4 PUSH1 0xE0 DUP6 ADD DUP3 PUSH2 0x3ADC JUMP JUMPDEST POP PUSH2 0x100 DUP3 ADD MLOAD PUSH2 0x36E9 PUSH2 0x100 DUP6 ADD DUP3 PUSH2 0x3ADC JUMP JUMPDEST POP PUSH2 0x120 DUP3 ADD MLOAD PUSH2 0x36FE PUSH2 0x120 DUP6 ADD DUP3 PUSH2 0x3506 JUMP JUMPDEST POP PUSH2 0x140 DUP3 ADD MLOAD PUSH2 0x3713 PUSH2 0x140 DUP6 ADD DUP3 PUSH2 0x3ADC JUMP JUMPDEST POP PUSH2 0x160 DUP3 ADD MLOAD PUSH2 0x3728 PUSH2 0x160 DUP6 ADD DUP3 PUSH2 0x30A3 JUMP JUMPDEST POP PUSH2 0x180 DUP3 ADD MLOAD PUSH2 0x373D PUSH2 0x180 DUP6 ADD DUP3 PUSH2 0x3ADC JUMP JUMPDEST POP PUSH2 0x1A0 DUP3 ADD MLOAD PUSH2 0x3637 PUSH2 0x1A0 DUP6 ADD DUP3 PUSH2 0x3ADC JUMP JUMPDEST DUP1 MLOAD PUSH1 0x40 DUP4 ADD SWAP1 PUSH2 0x3763 DUP5 DUP3 PUSH2 0x30A3 JUMP JUMPDEST POP PUSH1 0x20 DUP3 ADD MLOAD PUSH2 0x3637 PUSH1 0x20 DUP6 ADD DUP3 PUSH2 0x3ADC JUMP JUMPDEST DUP1 MLOAD PUSH1 0x80 DUP4 ADD SWAP1 PUSH2 0x3787 DUP5 DUP3 PUSH2 0x3ADC JUMP JUMPDEST POP PUSH1 0x20 DUP3 ADD MLOAD PUSH2 0x379A PUSH1 0x20 DUP6 ADD DUP3 PUSH2 0x3ADC JUMP JUMPDEST POP PUSH1 0x40 DUP3 ADD MLOAD PUSH2 0x37AD PUSH1 0x40 DUP6 ADD DUP3 PUSH2 0x30A3 JUMP JUMPDEST POP PUSH1 0x60 DUP3 ADD MLOAD PUSH2 0x3637 PUSH1 0x60 DUP6 ADD DUP3 PUSH2 0x3ADC JUMP JUMPDEST DUP1 MLOAD PUSH1 0x60 DUP4 ADD SWAP1 PUSH2 0x37D1 DUP5 DUP3 PUSH2 0x3ADC JUMP JUMPDEST POP PUSH1 0x20 DUP3 ADD MLOAD PUSH2 0x37E4 PUSH1 0x20 DUP6 ADD DUP3 PUSH2 0x3ADC JUMP JUMPDEST POP PUSH1 0x40 DUP3 ADD MLOAD PUSH2 0x3637 PUSH1 0x40 DUP6 ADD DUP3 PUSH2 0x30A3 JUMP JUMPDEST DUP1 MLOAD PUSH1 0x40 DUP4 ADD SWAP1 PUSH2 0x3763 DUP5 DUP3 PUSH2 0x3ADC JUMP JUMPDEST DUP1 MLOAD PUSH1 0x0 SWAP1 PUSH2 0x1C0 DUP5 ADD SWAP1 PUSH2 0x381D DUP6 DUP3 PUSH2 0x3ADC JUMP JUMPDEST POP PUSH1 0x20 DUP4 ADD MLOAD PUSH2 0x3830 PUSH1 0x20 DUP7 ADD DUP3 PUSH2 0x30A3 JUMP JUMPDEST POP PUSH1 0x40 DUP4 ADD MLOAD PUSH2 0x3843 PUSH1 0x40 DUP7 ADD DUP3 PUSH2 0x3ADC JUMP JUMPDEST POP PUSH1 0x60 DUP4 ADD MLOAD DUP5 DUP3 SUB PUSH1 0x60 DUP7 ADD MSTORE PUSH2 0x385B DUP3 DUP3 PUSH2 0x30AC JUMP JUMPDEST SWAP2 POP POP PUSH1 0x80 DUP4 ADD MLOAD DUP5 DUP3 SUB PUSH1 0x80 DUP7 ADD MSTORE PUSH2 0x3875 DUP3 DUP3 PUSH2 0x34B8 JUMP JUMPDEST SWAP2 POP POP PUSH1 0xA0 DUP4 ADD MLOAD DUP5 DUP3 SUB PUSH1 0xA0 DUP7 ADD MSTORE PUSH2 0x388F DUP3 DUP3 PUSH2 0x31C1 JUMP JUMPDEST SWAP2 POP POP PUSH1 0xC0 DUP4 ADD MLOAD DUP5 DUP3 SUB PUSH1 0xC0 DUP7 ADD MSTORE PUSH2 0x38A9 DUP3 DUP3 PUSH2 0x3105 JUMP JUMPDEST SWAP2 POP POP PUSH1 0xE0 DUP4 ADD MLOAD PUSH2 0x38BE PUSH1 0xE0 DUP7 ADD DUP3 PUSH2 0x3ADC JUMP JUMPDEST POP PUSH2 0x100 DUP4 ADD MLOAD PUSH2 0x38D3 PUSH2 0x100 DUP7 ADD DUP3 PUSH2 0x3ADC JUMP JUMPDEST POP PUSH2 0x120 DUP4 ADD MLOAD PUSH2 0x38E8 PUSH2 0x120 DUP7 ADD DUP3 PUSH2 0x3ADC JUMP JUMPDEST POP PUSH2 0x140 DUP4 ADD MLOAD PUSH2 0x38FD PUSH2 0x140 DUP7 ADD DUP3 PUSH2 0x3ADC JUMP JUMPDEST POP PUSH2 0x160 DUP4 ADD MLOAD PUSH2 0x3912 PUSH2 0x160 DUP7 ADD DUP3 PUSH2 0x3ADC JUMP JUMPDEST POP PUSH2 0x180 DUP4 ADD MLOAD PUSH2 0x3927 PUSH2 0x180 DUP7 ADD DUP3 PUSH2 0x3506 JUMP JUMPDEST POP PUSH2 0x1A0 DUP4 ADD MLOAD PUSH2 0x35BF PUSH2 0x1A0 DUP7 ADD DUP3 PUSH2 0x3506 JUMP JUMPDEST DUP1 MLOAD PUSH1 0x80 DUP4 ADD SWAP1 PUSH2 0x394D DUP5 DUP3 PUSH2 0x3ADC JUMP JUMPDEST POP PUSH1 0x20 DUP3 ADD MLOAD PUSH2 0x3960 PUSH1 0x20 DUP6 ADD DUP3 PUSH2 0x3506 JUMP JUMPDEST POP PUSH1 0x40 DUP3 ADD MLOAD PUSH2 0x3973 PUSH1 0x40 DUP6 ADD DUP3 PUSH2 0x3AEE JUMP JUMPDEST POP PUSH1 0x60 DUP3 ADD MLOAD PUSH2 0x3637 PUSH1 0x60 DUP6 ADD DUP3 PUSH2 0x3AF7 JUMP JUMPDEST DUP1 MLOAD PUSH1 0x0 SWAP1 PUSH2 0x1A0 DUP5 ADD SWAP1 PUSH2 0x399B DUP6 DUP3 PUSH2 0x3ADC JUMP JUMPDEST POP PUSH1 0x20 DUP4 ADD MLOAD PUSH2 0x39AE PUSH1 0x20 DUP7 ADD DUP3 PUSH2 0x30A3 JUMP JUMPDEST POP PUSH1 0x40 DUP4 ADD MLOAD PUSH2 0x39C1 PUSH1 0x40 DUP7 ADD DUP3 PUSH2 0x3ADC JUMP JUMPDEST POP PUSH1 0x60 DUP4 ADD MLOAD DUP5 DUP3 SUB PUSH1 0x60 DUP7 ADD MSTORE PUSH2 0x39D9 DUP3 DUP3 PUSH2 0x30AC JUMP JUMPDEST SWAP2 POP POP PUSH1 0x80 DUP4 ADD MLOAD DUP5 DUP3 SUB PUSH1 0x80 DUP7 ADD MSTORE PUSH2 0x39F3 DUP3 DUP3 PUSH2 0x34B8 JUMP JUMPDEST SWAP2 POP POP PUSH1 0xA0 DUP4 ADD MLOAD DUP5 DUP3 SUB PUSH1 0xA0 DUP7 ADD MSTORE PUSH2 0x3A0D DUP3 DUP3 PUSH2 0x31C1 JUMP JUMPDEST SWAP2 POP POP PUSH1 0xC0 DUP4 ADD MLOAD DUP5 DUP3 SUB PUSH1 0xC0 DUP7 ADD MSTORE PUSH2 0x3A27 DUP3 DUP3 PUSH2 0x3105 JUMP JUMPDEST SWAP2 POP POP PUSH1 0xE0 DUP4 ADD MLOAD PUSH2 0x3A3C PUSH1 0xE0 DUP7 ADD DUP3 PUSH2 0x3ADC JUMP JUMPDEST POP PUSH2 0x100 DUP4 ADD MLOAD PUSH2 0x3A51 PUSH2 0x100 DUP7 ADD DUP3 PUSH2 0x3ADC JUMP JUMPDEST POP PUSH2 0x120 DUP4 ADD MLOAD PUSH2 0x3A66 PUSH2 0x120 DUP7 ADD DUP3 PUSH2 0x3ADC JUMP JUMPDEST POP PUSH2 0x140 DUP4 ADD MLOAD PUSH2 0x3A7B PUSH2 0x140 DUP7 ADD DUP3 PUSH2 0x3ADC JUMP JUMPDEST POP PUSH2 0x160 DUP4 ADD MLOAD PUSH2 0x3A90 PUSH2 0x160 DUP7 ADD DUP3 PUSH2 0x3506 JUMP JUMPDEST POP PUSH2 0x180 DUP4 ADD MLOAD PUSH2 0x35BF PUSH2 0x180 DUP7 ADD DUP3 PUSH2 0x3506 JUMP JUMPDEST DUP1 MLOAD PUSH1 0x80 DUP4 ADD SWAP1 PUSH2 0x3AB6 DUP5 DUP3 PUSH2 0x3ADC JUMP JUMPDEST POP PUSH1 0x20 DUP3 ADD MLOAD PUSH2 0x3AC9 PUSH1 0x20 DUP6 ADD DUP3 PUSH2 0x3506 JUMP JUMPDEST POP PUSH1 0x40 DUP3 ADD MLOAD PUSH2 0x3973 PUSH1 0x40 DUP6 ADD DUP3 PUSH2 0x3506 JUMP JUMPDEST PUSH2 0x309D DUP2 PUSH2 0x3D25 JUMP JUMPDEST PUSH2 0x309D DUP2 PUSH2 0x3D4E JUMP JUMPDEST PUSH2 0x309D DUP2 PUSH2 0x3D31 JUMP JUMPDEST PUSH2 0x309D DUP2 PUSH2 0x3D37 JUMP JUMPDEST PUSH1 0x0 PUSH2 0x354 DUP3 DUP5 PUSH2 0x3550 JUMP JUMPDEST PUSH1 0x20 DUP2 ADD PUSH2 0xEFC DUP3 DUP5 PUSH2 0x30A3 JUMP JUMPDEST PUSH1 0x20 DUP2 ADD PUSH2 0xEFC DUP3 DUP5 PUSH2 0x3094 JUMP JUMPDEST PUSH1 0x40 DUP2 ADD PUSH2 0x3B36 DUP3 DUP6 PUSH2 0x3094 JUMP JUMPDEST PUSH2 0x354 PUSH1 0x20 DUP4 ADD DUP5 PUSH2 0x30A3 JUMP JUMPDEST PUSH1 0x40 DUP2 ADD PUSH2 0x3B51 DUP3 DUP6 PUSH2 0x30A3 JUMP JUMPDEST PUSH2 0x354 PUSH1 0x20 DUP4 ADD DUP5 PUSH2 0x3AE5 JUMP JUMPDEST PUSH1 0x20 DUP1 DUP3 MSTORE DUP2 ADD PUSH2 0x354 DUP2 DUP5 PUSH2 0x3222 JUMP JUMPDEST PUSH1 0x20 DUP1 DUP3 MSTORE DUP2 ADD PUSH2 0x354 DUP2 DUP5 PUSH2 0x3270 JUMP JUMPDEST PUSH1 0x20 DUP1 DUP3 MSTORE DUP2 ADD PUSH2 0x354 DUP2 DUP5 PUSH2 0x32BE JUMP JUMPDEST PUSH1 0x20 DUP1 DUP3 MSTORE DUP2 ADD PUSH2 0x354 DUP2 DUP5 PUSH2 0x330C JUMP JUMPDEST PUSH1 0x20 DUP1 DUP3 MSTORE DUP2 ADD PUSH2 0x354 DUP2 DUP5 PUSH2 0x335A JUMP JUMPDEST PUSH1 0x20 DUP1 DUP3 MSTORE DUP2 ADD PUSH2 0x354 DUP2 DUP5 PUSH2 0x33BB JUMP JUMPDEST PUSH1 0x20 DUP1 DUP3 MSTORE DUP2 ADD PUSH2 0x354 DUP2 DUP5 PUSH2 0x3409 JUMP JUMPDEST PUSH1 0x20 DUP1 DUP3 MSTORE DUP2 ADD PUSH2 0x354 DUP2 DUP5 PUSH2 0x346A JUMP JUMPDEST PUSH1 0x20 DUP2 ADD PUSH2 0xEFC DUP3 DUP5 PUSH2 0x3547 JUMP JUMPDEST PUSH1 0x20 DUP1 DUP3 MSTORE DUP2 ADD PUSH2 0x354 DUP2 DUP5 PUSH2 0x350F JUMP JUMPDEST PUSH1 0x20 DUP1 DUP3 MSTORE DUP2 ADD PUSH2 0x354 DUP2 DUP5 PUSH2 0x357F JUMP JUMPDEST PUSH1 0xC0 DUP2 ADD PUSH2 0xEFC DUP3 DUP5 PUSH2 0x35C7 JUMP JUMPDEST PUSH2 0x1C0 DUP2 ADD PUSH2 0xEFC DUP3 DUP5 PUSH2 0x363D JUMP JUMPDEST PUSH1 0x40 DUP2 ADD PUSH2 0xEFC DUP3 DUP5 PUSH2 0x3752 JUMP JUMPDEST PUSH1 0x80 DUP2 ADD PUSH2 0xEFC DUP3 DUP5 PUSH2 0x3776 JUMP JUMPDEST PUSH1 0x60 DUP2 ADD PUSH2 0xEFC DUP3 DUP5 PUSH2 0x37C0 JUMP JUMPDEST PUSH1 0x20 DUP2 ADD PUSH2 0xEFC DUP3 DUP5 PUSH2 0x3ADC JUMP JUMPDEST PUSH1 0x40 DUP2 ADD PUSH2 0x3B36 DUP3 DUP6 PUSH2 0x3ADC JUMP JUMPDEST PUSH1 0x40 MLOAD DUP2 DUP2 ADD PUSH1 0x1 PUSH1 0x1 PUSH1 0x40 SHL SUB DUP2 GT DUP3 DUP3 LT OR ISZERO PUSH2 0x3C97 JUMPI PUSH1 0x0 DUP1 REVERT JUMPDEST PUSH1 0x40 MSTORE SWAP2 SWAP1 POP JUMP JUMPDEST PUSH1 0x0 PUSH1 0x1 PUSH1 0x1 PUSH1 0x40 SHL SUB DUP3 GT ISZERO PUSH2 0x3CB5 JUMPI PUSH1 0x0 DUP1 REVERT JUMPDEST POP PUSH1 0x20 SWAP1 DUP2 MUL ADD SWAP1 JUMP JUMPDEST PUSH1 0x0 PUSH1 0x1 PUSH1 0x1 PUSH1 0x40 SHL SUB DUP3 GT ISZERO PUSH2 0x3CD5 JUMPI PUSH1 0x0 DUP1 REVERT JUMPDEST POP PUSH1 0x20 PUSH1 0x1F SWAP2 SWAP1 SWAP2 ADD PUSH1 0x1F NOT AND ADD SWAP1 JUMP JUMPDEST PUSH1 0x20 ADD SWAP1 JUMP JUMPDEST MLOAD SWAP1 JUMP JUMPDEST SWAP1 DUP2 MSTORE PUSH1 0x20 ADD SWAP1 JUMP JUMPDEST SWAP2 SWAP1 POP JUMP JUMPDEST PUSH1 0x0 PUSH2 0xEFC DUP3 PUSH2 0x3D19 JUMP JUMPDEST ISZERO ISZERO SWAP1 JUMP JUMPDEST PUSH1 0x0 PUSH2 0xEFC DUP3 PUSH2 0x3CFE JUMP JUMPDEST PUSH1 0x1 PUSH1 0x1 PUSH1 0xA0 SHL SUB AND SWAP1 JUMP JUMPDEST SWAP1 JUMP JUMPDEST PUSH4 0xFFFFFFFF AND SWAP1 JUMP JUMPDEST PUSH1 0xFF AND SWAP1 JUMP JUMPDEST PUSH1 0x1 PUSH1 0x1 PUSH1 0x60 SHL SUB AND SWAP1 JUMP JUMPDEST PUSH1 0x0 PUSH2 0xEFC DUP3 PUSH2 0x3D0E JUMP JUMPDEST PUSH1 0x0 PUSH2 0xEFC DUP3 PUSH2 0x3D28 JUMP JUMPDEST PUSH1 0x0 JUMPDEST DUP4 DUP2 LT ISZERO PUSH2 0x3D74 JUMPI DUP2 DUP2 ADD MLOAD DUP4 DUP3 ADD MSTORE PUSH1 0x20 ADD PUSH2 0x3D5C JUMP JUMPDEST DUP4 DUP2 GT ISZERO PUSH2 0x3637 JUMPI POP POP PUSH1 0x0 SWAP2 ADD MSTORE JUMP JUMPDEST PUSH1 0x1F ADD PUSH1 0x1F NOT AND SWAP1 JUMP JUMPDEST PUSH2 0x3D98 DUP2 PUSH2 0x3CFE JUMP JUMPDEST DUP2 EQ PUSH2 0x3DA3 JUMPI PUSH1 0x0 DUP1 REVERT JUMPDEST POP JUMP JUMPDEST PUSH2 0x3D98 DUP2 PUSH2 0x3D09 JUMP JUMPDEST PUSH2 0x3D98 DUP2 PUSH2 0x3D0E JUMP JUMPDEST PUSH2 0x3D98 DUP2 PUSH2 0x3D25 JUMP JUMPDEST PUSH2 0x3D98 DUP2 PUSH2 0x3D28 JUMP JUMPDEST PUSH2 0x3D98 DUP2 PUSH2 0x3D31 JUMP JUMPDEST PUSH2 0x3D98 DUP2 PUSH2 0x3D37 JUMP INVALID LOG3 PUSH6 0x627A7A723158 KECCAK256 EXTCODESIZE 0xD1 MUL PUSH30 0x33A4D71B9AD6F92CE1FFE25D11D7BBA21CDEEB5AFB0514432D5E8DF86C65 PUSH25 0x706572696D656E74616CF564736F6C63430005110040000000 "
    }
  },
  "humanReadableAbi": [
    "function cTokenBalances(address cToken, address account) returns(tuple(address cToken, uint256 balanceOf, uint256 borrowBalanceCurrent, uint256 balanceOfUnderlying, uint256 tokenBalance, uint256 tokenAllowance))",
    "function cTokenBalancesAll(address[] cTokens, address account) returns(tuple(address cToken, uint256 balanceOf, uint256 borrowBalanceCurrent, uint256 balanceOfUnderlying, uint256 tokenBalance, uint256 tokenAllowance)[])",
    "function cTokenMetadata(address cToken) returns(tuple(address cToken, uint256 exchangeRateCurrent, uint256 supplyRatePerBlock, uint256 borrowRatePerBlock, uint256 reserveFactorMantissa, uint256 totalBorrows, uint256 totalReserves, uint256 totalSupply, uint256 totalCash, bool isListed, uint256 collateralFactorMantissa, address underlyingAssetAddress, uint256 cTokenDecimals, uint256 underlyingDecimals))",
    "function cTokenMetadataAll(address[] cTokens) returns(tuple(address cToken, uint256 exchangeRateCurrent, uint256 supplyRatePerBlock, uint256 borrowRatePerBlock, uint256 reserveFactorMantissa, uint256 totalBorrows, uint256 totalReserves, uint256 totalSupply, uint256 totalCash, bool isListed, uint256 collateralFactorMantissa, address underlyingAssetAddress, uint256 cTokenDecimals, uint256 underlyingDecimals)[])",
    "function cTokenUnderlyingPrice(address cToken) returns(tuple(address cToken, uint256 underlyingPrice))",
    "function cTokenUnderlyingPriceAll(address[] cTokens) returns(tuple(address cToken, uint256 underlyingPrice)[])",
    "function getAccountLimits(address comptroller, address account) returns(tuple(address[] markets, uint256 liquidity, uint256 shortfall))",
    "function getCompBalanceMetadata(address comp, address account) view returns(tuple(uint256 balance, uint256 votes, address delegate))",
    "function getCompBalanceMetadataExt(address comp, address comptroller, address account) returns(tuple(uint256 balance, uint256 votes, address delegate, uint256 allocated))",
    "function getCompVotes(address comp, address account, uint32[] blockNumbers) view returns(tuple(uint256 blockNumber, uint256 votes)[])",
    "function getGovBravoProposals(address governor, uint256[] proposalIds) view returns(tuple(uint256 proposalId, address proposer, uint256 eta, address[] targets, uint256[] values, string[] signatures, bytes[] calldatas, uint256 startBlock, uint256 endBlock, uint256 forVotes, uint256 againstVotes, uint256 abstainVotes, bool canceled, bool executed)[])",
    "function getGovBravoReceipts(address governor, address voter, uint256[] proposalIds) view returns(tuple(uint256 proposalId, bool hasVoted, uint8 support, uint96 votes)[])",
    "function getGovProposals(address governor, uint256[] proposalIds) view returns(tuple(uint256 proposalId, address proposer, uint256 eta, address[] targets, uint256[] values, string[] signatures, bytes[] calldatas, uint256 startBlock, uint256 endBlock, uint256 forVotes, uint256 againstVotes, bool canceled, bool executed)[])",
    "function getGovReceipts(address governor, address voter, uint256[] proposalIds) view returns(tuple(uint256 proposalId, bool hasVoted, bool support, uint96 votes)[])"
  ]
}