{
  "abi": [
    {
      "inputs": [],
      "payable": false,
      "stateMutability": "nonpayable",
      "type": "constructor"
    },
    {
      "anonymous": false,
      "inputs": [
        {
          "indexed": false,
          "internalType": "string",
          "name": "action",
          "type": "string"
        },
        {
          "indexed": false,
          "internalType": "bool",
          "name": "pauseState",
          "type": "bool"
        }
      ],
      "name": "ActionPaused",
      "type": "event"
    },
    {
      "anonymous": false,
      "inputs": [
        {
          "indexed": false,
          "internalType": "contract CToken",
          "name": "cToken",
          "type": "address"
        },
        {
          "indexed": false,
          "internalType": "string",
          "name": "action",
          "type": "string"
        },
        {
          "indexed": false,
          "internalType": "bool",
          "name": "pauseState",
          "type": "bool"
        }
      ],
      "name": "ActionPaused",
      "type": "event"
    },
    {
      "anonymous": false,
      "inputs": [
        {
          "indexed": false,
          "internalType": "uint256",
          "name": "error",
          "type": "uint256"
        },
        {
          "indexed": false,
          "internalType": "uint256",
          "name": "info",
          "type": "uint256"
        },
        {
          "indexed": false,
          "internalType": "uint256",
          "name": "detail",
          "type": "uint256"
        }
      ],
      "name": "Failure",
      "type": "event"
    },
    {
      "anonymous": false,
      "inputs": [
        {
          "indexed": false,
          "internalType": "contract CToken",
          "name": "cToken",
          "type": "address"
        },
        {
          "indexed": false,
          "internalType": "address",
          "name": "account",
          "type": "address"
        }
      ],
      "name": "MarketEntered",
      "type": "event"
    },
    {
      "anonymous": false,
      "inputs": [
        {
          "indexed": false,
          "internalType": "contract CToken",
          "name": "cToken",
          "type": "address"
        },
        {
          "indexed": false,
          "internalType": "address",
          "name": "account",
          "type": "address"
        }
      ],
      "name": "MarketExited",
      "type": "event"
    },
    {
      "anonymous": false,
      "inputs": [
        {
          "indexed": false,
          "internalType": "contract CToken",
          "name": "cToken",
          "type": "address"
        }
      ],
      "name": "MarketListed",
      "type": "event"
    },
    {
      "anonymous": false,
      "inputs": [
        {
          "indexed": false,
          "internalType": "uint256",
          "name": "oldCloseFactorMantissa",
          "type": "uint256"
        },
        {
          "indexed": false,
          "internalType": "uint256",
          "name": "newCloseFactorMantissa",
          "type": "uint256"
        }
      ],
      "name": "NewCloseFactor",
      "type": "event"
    },
    {
      "anonymous": false,
      "inputs": [
        {
          "indexed": false,
          "internalType": "contract CToken",
          "name": "cToken",
          "type": "address"
        },
        {
          "indexed": false,
          "internalType": "uint256",
          "name": "oldCollateralFactorMantissa",
          "type": "uint256"
        },
        {
          "indexed": false,
          "internalType": "uint256",
          "name": "newCollateralFactorMantissa",
          "type": "uint256"
        }
      ],
      "name": "NewCollateralFactor",
      "type": "event"
    },
    {
      "anonymous": false,
      "inputs": [
        {
          "indexed": false,
          "internalType": "uint256",
          "name": "oldLiquidationIncentiveMantissa",
          "type": "uint256"
        },
        {
          "indexed": false,
          "internalType": "uint256",
          "name": "newLiquidationIncentiveMantissa",
          "type": "uint256"
        }
      ],
      "name": "NewLiquidationIncentive",
      "type": "event"
    },
    {
      "anonymous": false,
      "inputs": [
        {
          "indexed": false,
          "internalType": "uint256",
          "name": "oldMaxAssets",
          "type": "uint256"
        },
        {
          "indexed": false,
          "internalType": "uint256",
          "name": "newMaxAssets",
          "type": "uint256"
        }
      ],
      "name": "NewMaxAssets",
      "type": "event"
    },
    {
      "anonymous": false,
      "inputs": [
        {
          "indexed": false,
          "internalType": "address",
          "name": "oldPauseGuardian",
          "type": "address"
        },
        {
          "indexed": false,
          "internalType": "address",
          "name": "newPauseGuardian",
          "type": "address"
        }
      ],
      "name": "NewPauseGuardian",
      "type": "event"
    },
    {
      "anonymous": false,
      "inputs": [
        {
          "indexed": false,
          "internalType": "contract PriceOracle",
          "name": "oldPriceOracle",
          "type": "address"
        },
        {
          "indexed": false,
          "internalType": "contract PriceOracle",
          "name": "newPriceOracle",
          "type": "address"
        }
      ],
      "name": "NewPriceOracle",
      "type": "event"
    },
    {
      "constant": false,
      "inputs": [
        {
          "internalType": "contract Unitroller",
          "name": "unitroller",
          "type": "address"
        }
      ],
      "name": "_become",
      "outputs": [],
      "payable": false,
      "stateMutability": "nonpayable",
      "type": "function"
    },
    {
      "constant": true,
      "inputs": [],
      "name": "_borrowGuardianPaused",
      "outputs": [
        {
          "internalType": "bool",
          "name": "",
          "type": "bool"
        }
      ],
      "payable": false,
      "stateMutability": "view",
      "type": "function"
    },
    {
      "constant": true,
      "inputs": [],
      "name": "_mintGuardianPaused",
      "outputs": [
        {
          "internalType": "bool",
          "name": "",
          "type": "bool"
        }
      ],
      "payable": false,
      "stateMutability": "view",
      "type": "function"
    },
    {
      "constant": false,
      "inputs": [
        {
          "internalType": "contract CToken",
          "name": "cToken",
          "type": "address"
        },
        {
          "internalType": "bool",
          "name": "state",
          "type": "bool"
        }
      ],
      "name": "_setBorrowPaused",
      "outputs": [
        {
          "internalType": "bool",
          "name": "",
          "type": "bool"
        }
      ],
      "payable": false,
      "stateMutability": "nonpayable",
      "type": "function"
    },
    {
      "constant": false,
      "inputs": [
        {
          "internalType": "uint256",
          "name": "newCloseFactorMantissa",
          "type": "uint256"
        }
      ],
      "name": "_setCloseFactor",
      "outputs": [
        {
          "internalType": "uint256",
          "name": "",
          "type": "uint256"
        }
      ],
      "payable": false,
      "stateMutability": "nonpayable",
      "type": "function"
    },
    {
      "constant": false,
      "inputs": [
        {
          "internalType": "contract CToken",
          "name": "cToken",
          "type": "address"
        },
        {
          "internalType": "uint256",
          "name": "newCollateralFactorMantissa",
          "type": "uint256"
        }
      ],
      "name": "_setCollateralFactor",
      "outputs": [
        {
          "internalType": "uint256",
          "name": "",
          "type": "uint256"
        }
      ],
      "payable": false,
      "stateMutability": "nonpayable",
      "type": "function"
    },
    {
      "constant": false,
      "inputs": [
        {
          "internalType": "uint256",
          "name": "newLiquidationIncentiveMantissa",
          "type": "uint256"
        }
      ],
      "name": "_setLiquidationIncentive",
      "outputs": [
        {
          "internalType": "uint256",
          "name": "",
          "type": "uint256"
        }
      ],
      "payable": false,
      "stateMutability": "nonpayable",
      "type": "function"
    },
    {
      "constant": false,
      "inputs": [
        {
          "internalType": "uint256",
          "name": "newMaxAssets",
          "type": "uint256"
        }
      ],
      "name": "_setMaxAssets",
      "outputs": [
        {
          "internalType": "uint256",
          "name": "",
          "type": "uint256"
        }
      ],
      "payable": false,
      "stateMutability": "nonpayable",
      "type": "function"
    },
    {
      "constant": false,
      "inputs": [
        {
          "internalType": "contract CToken",
          "name": "cToken",
          "type": "address"
        },
        {
          "internalType": "bool",
          "name": "state",
          "type": "bool"
        }
      ],
      "name": "_setMintPaused",
      "outputs": [
        {
          "internalType": "bool",
          "name": "",
          "type": "bool"
        }
      ],
      "payable": false,
      "stateMutability": "nonpayable",
      "type": "function"
    },
    {
      "constant": false,
      "inputs": [
        {
          "internalType": "address",
          "name": "newPauseGuardian",
          "type": "address"
        }
      ],
      "name": "_setPauseGuardian",
      "outputs": [
        {
          "internalType": "uint256",
          "name": "",
          "type": "uint256"
        }
      ],
      "payable": false,
      "stateMutability": "nonpayable",
      "type": "function"
    },
    {
      "constant": false,
      "inputs": [
        {
          "internalType": "contract PriceOracle",
          "name": "newOracle",
          "type": "address"
        }
      ],
      "name": "_setPriceOracle",
      "outputs": [
        {
          "internalType": "uint256",
          "name": "",
          "type": "uint256"
        }
      ],
      "payable": false,
      "stateMutability": "nonpayable",
      "type": "function"
    },
    {
      "constant": false,
      "inputs": [
        {
          "internalType": "bool",
          "name": "state",
          "type": "bool"
        }
      ],
      "name": "_setSeizePaused",
      "outputs": [
        {
          "internalType": "bool",
          "name": "",
          "type": "bool"
        }
      ],
      "payable": false,
      "stateMutability": "nonpayable",
      "type": "function"
    },
    {
      "constant": false,
      "inputs": [
        {
          "internalType": "bool",
          "name": "state",
          "type": "bool"
        }
      ],
      "name": "_setTransferPaused",
      "outputs": [
        {
          "internalType": "bool",
          "name": "",
          "type": "bool"
        }
      ],
      "payable": false,
      "stateMutability": "nonpayable",
      "type": "function"
    },
    {
      "constant": false,
      "inputs": [
        {
          "internalType": "contract CToken",
          "name": "cToken",
          "type": "address"
        }
      ],
      "name": "_supportMarket",
      "outputs": [
        {
          "internalType": "uint256",
          "name": "",
          "type": "uint256"
        }
      ],
      "payable": false,
      "stateMutability": "nonpayable",
      "type": "function"
    },
    {
      "constant": true,
      "inputs": [
        {
          "internalType": "address",
          "name": "",
          "type": "address"
        },
        {
          "internalType": "uint256",
          "name": "",
          "type": "uint256"
        }
      ],
      "name": "accountAssets",
      "outputs": [
        {
          "internalType": "contract CToken",
          "name": "",
          "type": "address"
        }
      ],
      "payable": false,
      "stateMutability": "view",
      "type": "function"
    },
    {
      "constant": true,
      "inputs": [],
      "name": "admin",
      "outputs": [
        {
          "internalType": "address",
          "name": "",
          "type": "address"
        }
      ],
      "payable": false,
      "stateMutability": "view",
      "type": "function"
    },
    {
      "constant": false,
      "inputs": [
        {
          "internalType": "address",
          "name": "cToken",
          "type": "address"
        },
        {
          "internalType": "address",
          "name": "borrower",
          "type": "address"
        },
        {
          "internalType": "uint256",
          "name": "borrowAmount",
          "type": "uint256"
        }
      ],
      "name": "borrowAllowed",
      "outputs": [
        {
          "internalType": "uint256",
          "name": "",
          "type": "uint256"
        }
      ],
      "payable": false,
      "stateMutability": "nonpayable",
      "type": "function"
    },
    {
      "constant": true,
      "inputs": [
        {
          "internalType": "address",
          "name": "",
          "type": "address"
        }
      ],
      "name": "borrowGuardianPaused",
      "outputs": [
        {
          "internalType": "bool",
          "name": "",
          "type": "bool"
        }
      ],
      "payable": false,
      "stateMutability": "view",
      "type": "function"
    },
    {
      "constant": false,
      "inputs": [
        {
          "internalType": "address",
          "name": "cToken",
          "type": "address"
        },
        {
          "internalType": "address",
          "name": "borrower",
          "type": "address"
        },
        {
          "internalType": "uint256",
          "name": "borrowAmount",
          "type": "uint256"
        }
      ],
      "name": "borrowVerify",
      "outputs": [],
      "payable": false,
      "stateMutability": "nonpayable",
      "type": "function"
    },
    {
      "constant": true,
      "inputs": [
        {
          "internalType": "address",
          "name": "account",
          "type": "address"
        },
        {
          "internalType": "contract CToken",
          "name": "cToken",
          "type": "address"
        }
      ],
      "name": "checkMembership",
      "outputs": [
        {
          "internalType": "bool",
          "name": "",
          "type": "bool"
        }
      ],
      "payable": false,
      "stateMutability": "view",
      "type": "function"
    },
    {
      "constant": true,
      "inputs": [],
      "name": "closeFactorMantissa",
      "outputs": [
        {
          "internalType": "uint256",
          "name": "",
          "type": "uint256"
        }
      ],
      "payable": false,
      "stateMutability": "view",
      "type": "function"
    },
    {
      "constant": true,
      "inputs": [],
      "name": "comptrollerImplementation",
      "outputs": [
        {
          "internalType": "address",
          "name": "",
          "type": "address"
        }
      ],
      "payable": false,
      "stateMutability": "view",
      "type": "function"
    },
    {
      "constant": false,
      "inputs": [
        {
          "internalType": "address[]",
          "name": "cTokens",
          "type": "address[]"
        }
      ],
      "name": "enterMarkets",
      "outputs": [
        {
          "internalType": "uint256[]",
          "name": "",
          "type": "uint256[]"
        }
      ],
      "payable": false,
      "stateMutability": "nonpayable",
      "type": "function"
    },
    {
      "constant": false,
      "inputs": [
        {
          "internalType": "address",
          "name": "cTokenAddress",
          "type": "address"
        }
      ],
      "name": "exitMarket",
      "outputs": [
        {
          "internalType": "uint256",
          "name": "",
          "type": "uint256"
        }
      ],
      "payable": false,
      "stateMutability": "nonpayable",
      "type": "function"
    },
    {
      "constant": true,
      "inputs": [
        {
          "internalType": "address",
          "name": "account",
          "type": "address"
        }
      ],
      "name": "getAccountLiquidity",
      "outputs": [
        {
          "internalType": "uint256",
          "name": "",
          "type": "uint256"
        },
        {
          "internalType": "uint256",
          "name": "",
          "type": "uint256"
        },
        {
          "internalType": "uint256",
          "name": "",
          "type": "uint256"
        }
      ],
      "payable": false,
      "stateMutability": "view",
      "type": "function"
    },
    {
      "constant": true,
      "inputs": [
        {
          "internalType": "address",
          "name": "account",
          "type": "address"
        }
      ],
      "name": "getAssetsIn",
      "outputs": [
        {
          "internalType": "contract CToken[]",
          "name": "",
          "type": "address[]"
        }
      ],
      "payable": false,
      "stateMutability": "view",
      "type": "function"
    },
    {
      "constant": true,
      "inputs": [
        {
          "internalType": "address",
          "name": "account",
          "type": "address"
        },
        {
          "internalType": "address",
          "name": "cTokenModify",
          "type": "address"
        },
        {
          "internalType": "uint256",
          "name": "redeemTokens",
          "type": "uint256"
        },
        {
          "internalType": "uint256",
          "name": "borrowAmount",
          "type": "uint256"
        }
      ],
      "name": "getHypotheticalAccountLiquidity",
      "outputs": [
        {
          "internalType": "uint256",
          "name": "",
          "type": "uint256"
        },
        {
          "internalType": "uint256",
          "name": "",
          "type": "uint256"
        },
        {
          "internalType": "uint256",
          "name": "",
          "type": "uint256"
        }
      ],
      "payable": false,
      "stateMutability": "view",
      "type": "function"
    },
    {
      "constant": true,
      "inputs": [],
      "name": "isComptroller",
      "outputs": [
        {
          "internalType": "bool",
          "name": "",
          "type": "bool"
        }
      ],
      "payable": false,
      "stateMutability": "view",
      "type": "function"
    },
    {
      "constant": false,
      "inputs": [
        {
          "internalType": "address",
          "name": "cTokenBorrowed",
          "type": "address"
        },
        {
          "internalType": "address",
          "name": "cTokenCollateral",
          "type": "address"
        },
        {
          "internalType": "address",
          "name": "liquidator",
          "type": "address"
        },
        {
          "internalType": "address",
          "name": "borrower",
          "type": "address"
        },
        {
          "internalType": "uint256",
          "name": "repayAmount",
          "type": "uint256"
        }
      ],
      "name": "liquidateBorrowAllowed",
      "outputs": [
        {
          "internalType": "uint256",
          "name": "",
          "type": "uint256"
        }
      ],
      "payable": false,
      "stateMutability": "nonpayable",
      "type": "function"
    },
    {
      "constant": false,
      "inputs": [
        {
          "internalType": "address",
          "name": "cTokenBorrowed",
          "type": "address"
        },
        {
          "internalType": "address",
          "name": "cTokenCollateral",
          "type": "address"
        },
        {
          "internalType": "address",
          "name": "liquidator",
          "type": "address"
        },
        {
          "internalType": "address",
          "name": "borrower",
          "type": "address"
        },
        {
          "internalType": "uint256",
          "name": "actualRepayAmount",
          "type": "uint256"
        },
        {
          "internalType": "uint256",
          "name": "seizeTokens",
          "type": "uint256"
        }
      ],
      "name": "liquidateBorrowVerify",
      "outputs": [],
      "payable": false,
      "stateMutability": "nonpayable",
      "type": "function"
    },
    {
      "constant": true,
      "inputs": [
        {
          "internalType": "address",
          "name": "cTokenBorrowed",
          "type": "address"
        },
        {
          "internalType": "address",
          "name": "cTokenCollateral",
          "type": "address"
        },
        {
          "internalType": "uint256",
          "name": "actualRepayAmount",
          "type": "uint256"
        }
      ],
      "name": "liquidateCalculateSeizeTokens",
      "outputs": [
        {
          "internalType": "uint256",
          "name": "",
          "type": "uint256"
        },
        {
          "internalType": "uint256",
          "name": "",
          "type": "uint256"
        }
      ],
      "payable": false,
      "stateMutability": "view",
      "type": "function"
    },
    {
      "constant": true,
      "inputs": [],
      "name": "liquidationIncentiveMantissa",
      "outputs": [
        {
          "internalType": "uint256",
          "name": "",
          "type": "uint256"
        }
      ],
      "payable": false,
      "stateMutability": "view",
      "type": "function"
    },
    {
      "constant": true,
      "inputs": [
        {
          "internalType": "address",
          "name": "",
          "type": "address"
        }
      ],
      "name": "markets",
      "outputs": [
        {
          "internalType": "bool",
          "name": "isListed",
          "type": "bool"
        },
        {
          "internalType": "uint256",
          "name": "collateralFactorMantissa",
          "type": "uint256"
        },
        {
          "internalType": "bool",
          "name": "isComped",
          "type": "bool"
        }
      ],
      "payable": false,
      "stateMutability": "view",
      "type": "function"
    },
    {
      "constant": true,
      "inputs": [],
      "name": "maxAssets",
      "outputs": [
        {
          "internalType": "uint256",
          "name": "",
          "type": "uint256"
        }
      ],
      "payable": false,
      "stateMutability": "view",
      "type": "function"
    },
    {
      "constant": false,
      "inputs": [
        {
          "internalType": "address",
          "name": "cToken",
          "type": "address"
        },
        {
          "internalType": "address",
          "name": "minter",
          "type": "address"
        },
        {
          "internalType": "uint256",
          "name": "mintAmount",
          "type": "uint256"
        }
      ],
      "name": "mintAllowed",
      "outputs": [
        {
          "internalType": "uint256",
          "name": "",
          "type": "uint256"
        }
      ],
      "payable": false,
      "stateMutability": "nonpayable",
      "type": "function"
    },
    {
      "constant": true,
      "inputs": [
        {
          "internalType": "address",
          "name": "",
          "type": "address"
        }
      ],
      "name": "mintGuardianPaused",
      "outputs": [
        {
          "internalType": "bool",
          "name": "",
          "type": "bool"
        }
      ],
      "payable": false,
      "stateMutability": "view",
      "type": "function"
    },
    {
      "constant": false,
      "inputs": [
        {
          "internalType": "address",
          "name": "cToken",
          "type": "address"
        },
        {
          "internalType": "address",
          "name": "minter",
          "type": "address"
        },
        {
          "internalType": "uint256",
          "name": "actualMintAmount",
          "type": "uint256"
        },
        {
          "internalType": "uint256",
          "name": "mintTokens",
          "type": "uint256"
        }
      ],
      "name": "mintVerify",
      "outputs": [],
      "payable": false,
      "stateMutability": "nonpayable",
      "type": "function"
    },
    {
      "constant": true,
      "inputs": [],
      "name": "oracle",
      "outputs": [
        {
          "internalType": "contract PriceOracle",
          "name": "",
          "type": "address"
        }
      ],
      "payable": false,
      "stateMutability": "view",
      "type": "function"
    },
    {
      "constant": true,
      "inputs": [],
      "name": "pauseGuardian",
      "outputs": [
        {
          "internalType": "address",
          "name": "",
          "type": "address"
        }
      ],
      "payable": false,
      "stateMutability": "view",
      "type": "function"
    },
    {
      "constant": true,
      "inputs": [],
      "name": "pendingAdmin",
      "outputs": [
        {
          "internalType": "address",
          "name": "",
          "type": "address"
        }
      ],
      "payable": false,
      "stateMutability": "view",
      "type": "function"
    },
    {
      "constant": true,
      "inputs": [],
      "name": "pendingComptrollerImplementation",
      "outputs": [
        {
          "internalType": "address",
          "name": "",
          "type": "address"
        }
      ],
      "payable": false,
      "stateMutability": "view",
      "type": "function"
    },
    {
      "constant": false,
      "inputs": [
        {
          "internalType": "address",
          "name": "cToken",
          "type": "address"
        },
        {
          "internalType": "address",
          "name": "redeemer",
          "type": "address"
        },
        {
          "internalType": "uint256",
          "name": "redeemTokens",
          "type": "uint256"
        }
      ],
      "name": "redeemAllowed",
      "outputs": [
        {
          "internalType": "uint256",
          "name": "",
          "type": "uint256"
        }
      ],
      "payable": false,
      "stateMutability": "nonpayable",
      "type": "function"
    },
    {
      "constant": false,
      "inputs": [
        {
          "internalType": "address",
          "name": "cToken",
          "type": "address"
        },
        {
          "internalType": "address",
          "name": "redeemer",
          "type": "address"
        },
        {
          "internalType": "uint256",
          "name": "redeemAmount",
          "type": "uint256"
        },
        {
          "internalType": "uint256",
          "name": "redeemTokens",
          "type": "uint256"
        }
      ],
      "name": "redeemVerify",
      "outputs": [],
      "payable": false,
      "stateMutability": "nonpayable",
      "type": "function"
    },
    {
      "constant": false,
      "inputs": [
        {
          "internalType": "address",
          "name": "cToken",
          "type": "address"
        },
        {
          "internalType": "address",
          "name": "payer",
          "type": "address"
        },
        {
          "internalType": "address",
          "name": "borrower",
          "type": "address"
        },
        {
          "internalType": "uint256",
          "name": "repayAmount",
          "type": "uint256"
        }
      ],
      "name": "repayBorrowAllowed",
      "outputs": [
        {
          "internalType": "uint256",
          "name": "",
          "type": "uint256"
        }
      ],
      "payable": false,
      "stateMutability": "nonpayable",
      "type": "function"
    },
    {
      "constant": false,
      "inputs": [
        {
          "internalType": "address",
          "name": "cToken",
          "type": "address"
        },
        {
          "internalType": "address",
          "name": "payer",
          "type": "address"
        },
        {
          "internalType": "address",
          "name": "borrower",
          "type": "address"
        },
        {
          "internalType": "uint256",
          "name": "actualRepayAmount",
          "type": "uint256"
        },
        {
          "internalType": "uint256",
          "name": "borrowerIndex",
          "type": "uint256"
        }
      ],
      "name": "repayBorrowVerify",
      "outputs": [],
      "payable": false,
      "stateMutability": "nonpayable",
      "type": "function"
    },
    {
      "constant": false,
      "inputs": [
        {
          "internalType": "address",
          "name": "cTokenCollateral",
          "type": "address"
        },
        {
          "internalType": "address",
          "name": "cTokenBorrowed",
          "type": "address"
        },
        {
          "internalType": "address",
          "name": "liquidator",
          "type": "address"
        },
        {
          "internalType": "address",
          "name": "borrower",
          "type": "address"
        },
        {
          "internalType": "uint256",
          "name": "seizeTokens",
          "type": "uint256"
        }
      ],
      "name": "seizeAllowed",
      "outputs": [
        {
          "internalType": "uint256",
          "name": "",
          "type": "uint256"
        }
      ],
      "payable": false,
      "stateMutability": "nonpayable",
      "type": "function"
    },
    {
      "constant": true,
      "inputs": [],
      "name": "seizeGuardianPaused",
      "outputs": [
        {
          "internalType": "bool",
          "name": "",
          "type": "bool"
        }
      ],
      "payable": false,
      "stateMutability": "view",
      "type": "function"
    },
    {
      "constant": false,
      "inputs": [
        {
          "internalType": "address",
          "name": "cTokenCollateral",
          "type": "address"
        },
        {
          "internalType": "address",
          "name": "cTokenBorrowed",
          "type": "address"
        },
        {
          "internalType": "address",
          "name": "liquidator",
          "type": "address"
        },
        {
          "internalType": "address",
          "name": "borrower",
          "type": "address"
        },
        {
          "internalType": "uint256",
          "name": "seizeTokens",
          "type": "uint256"
        }
      ],
      "name": "seizeVerify",
      "outputs": [],
      "payable": false,
      "stateMutability": "nonpayable",
      "type": "function"
    },
    {
      "constant": false,
      "inputs": [
        {
          "internalType": "address",
          "name": "cToken",
          "type": "address"
        },
        {
          "internalType": "address",
          "name": "src",
          "type": "address"
        },
        {
          "internalType": "address",
          "name": "dst",
          "type": "address"
        },
        {
          "internalType": "uint256",
          "name": "transferTokens",
          "type": "uint256"
        }
      ],
      "name": "transferAllowed",
      "outputs": [
        {
          "internalType": "uint256",
          "name": "",
          "type": "uint256"
        }
      ],
      "payable": false,
      "stateMutability": "nonpayable",
      "type": "function"
    },
    {
      "constant": true,
      "inputs": [],
      "name": "transferGuardianPaused",
      "outputs": [
        {
          "internalType": "bool",
          "name": "",
          "type": "bool"
        }
      ],
      "payable": false,
      "stateMutability": "view",
      "type": "function"
    },
    {
      "constant": false,
      "inputs": [
        {
          "internalType": "address",
          "name": "cToken",
          "type": "address"
        },
        {
          "internalType": "address",
          "name": "src",
          "type": "address"
        },
        {
          "internalType": "address",
          "name": "dst",
          "type": "address"
        },
        {
          "internalType": "uint256",
          "name": "transferTokens",
          "type": "uint256"
        }
      ],
      "name": "transferVerify",
      "outputs": [],
      "payable": false,
      "stateMutability": "nonpayable",
      "type": "function"
    }
  ],
  "evm": {
    "bytecode": {
      "linkReferences": {},
      "object": "608060405234801561001057600080fd5b50600080546001600160a01b03191633179055613500806100326000396000f3fe608060405234801561001057600080fd5b50600436106102f05760003560e01c80636d35bf911161019d578063c2998238116100e9578063dcfbc0c7116100a2578063e87554461161007c578063e875544614610b52578063eabe7d9114610b5a578063ede4edd014610b90578063f851a44014610bb6576102f0565b8063dcfbc0c714610b16578063e4028eee14610b1e578063e6653f3d14610b4a576102f0565b8063c29982381461095f578063c488847b14610a02578063d02f735114610a51578063d9226ced14610a97578063da3d454c14610ab4578063dce1544914610aea576102f0565b8063929fe9a111610156578063abfceffc11610130578063abfceffc1461089d578063ac0b0bb714610913578063bb82aa5e1461091b578063bdcdc25814610923576102f0565b8063929fe9a11461084157806394b2294b1461086f578063a76b3fda14610877576102f0565b80636d35bf911461075e578063731f0c2b146107a45780637dc0d1d0146107ca57806387f76303146107d25780638e8f294b146107da5780638ebf636414610822576102f0565b806347ef3b3b1161025c57806355ee1fe1116102155780635f5af1aa116101ef5780635f5af1aa146106905780635fc7e71e146106b65780636a56947e146106fc5780636d154ea514610738576102f0565b806355ee1fe11461060e5780635c778605146106345780635ec88c791461066a576102f0565b806347ef3b3b146104d15780634ada90af1461051d5780634e79238f146105255780634ef4c3e11461057f5780634fd42e17146105b557806351dff989146105d2576102f0565b806326782247116102ae578063267822471461041b5780632d70db7814610423578063317b0b77146104425780633bcf7ec11461045f5780633c94786f1461048d57806341c728b914610495576102f0565b80627e3dd2146102f557806318c882a5146103115780631d504dc61461033f5780631ededc911461036757806324008a62146103a957806324a3d622146103f7575b600080fd5b6102fd610bbe565b604080519115158252519081900360200190f35b6102fd6004803603604081101561032757600080fd5b506001600160a01b0381351690602001351515610bc3565b6103656004803603602081101561035557600080fd5b50356001600160a01b0316610d63565b005b610365600480360360a081101561037d57600080fd5b506001600160a01b03813581169160208101358216916040820135169060608101359060800135610ec8565b6103e5600480360360808110156103bf57600080fd5b506001600160a01b03813581169160208101358216916040820135169060600135610ecf565b60408051918252519081900360200190f35b6103ff610f05565b604080516001600160a01b039092168252519081900360200190f35b6103ff610f14565b6102fd6004803603602081101561043957600080fd5b50351515610f23565b6103e56004803603602081101561045857600080fd5b503561105d565b6102fd6004803603604081101561047557600080fd5b506001600160a01b038135169060200135151561116e565b6102fd611309565b610365600480360360808110156104ab57600080fd5b506001600160a01b03813581169160208101359091169060408101359060600135611319565b610365600480360360c08110156104e757600080fd5b506001600160a01b0381358116916020810135821691604082013581169160608101359091169060808101359060a0013561131f565b6103e5611327565b6105616004803603608081101561053b57600080fd5b506001600160a01b0381358116916020810135909116906040810135906060013561132d565b60408051938452602084019290925282820152519081900360600190f35b6103e56004803603606081101561059557600080fd5b506001600160a01b03813581169160208101359091169060400135611367565b6103e5600480360360208110156105cb57600080fd5b50356113fd565b610365600480360360808110156105e857600080fd5b506001600160a01b038135811691602081013590911690604081013590606001356114f1565b6103e56004803603602081101561062457600080fd5b50356001600160a01b0316611545565b6103656004803603606081101561064a57600080fd5b506001600160a01b038135811691602081013590911690604001356115cc565b6105616004803603602081101561068057600080fd5b50356001600160a01b03166115d1565b6103e5600480360360208110156106a657600080fd5b50356001600160a01b0316611606565b6103e5600480360360a08110156106cc57600080fd5b506001600160a01b038135811691602081013582169160408201358116916060810135909116906080013561168a565b6103656004803603608081101561071257600080fd5b506001600160a01b03813581169160208101358216916040820135169060600135611319565b6102fd6004803603602081101561074e57600080fd5b50356001600160a01b0316611811565b610365600480360360a081101561077457600080fd5b506001600160a01b0381358116916020810135821691604082013581169160608101359091169060800135610ec8565b6102fd600480360360208110156107ba57600080fd5b50356001600160a01b0316611826565b6103ff61183b565b6102fd61184a565b610800600480360360208110156107f057600080fd5b50356001600160a01b031661185a565b6040805193151584526020840192909252151582820152519081900360600190f35b6102fd6004803603602081101561083857600080fd5b50351515611880565b6102fd6004803603604081101561085757600080fd5b506001600160a01b03813581169160200135166119b9565b6103e56119ec565b6103e56004803603602081101561088d57600080fd5b50356001600160a01b03166119f2565b6108c3600480360360208110156108b357600080fd5b50356001600160a01b0316611b40565b60408051602080825283518183015283519192839290830191858101910280838360005b838110156108ff5781810151838201526020016108e7565b505050509050019250505060405180910390f35b6102fd611bc9565b6103ff611bd9565b6103e56004803603608081101561093957600080fd5b506001600160a01b03813581169160208101358216916040820135169060600135611be8565b6108c36004803603602081101561097557600080fd5b81019060208101813564010000000081111561099057600080fd5b8201836020820111156109a257600080fd5b803590602001918460208302840111640100000000831117156109c457600080fd5b919080806020026020016040519081016040528093929190818152602001838360200280828437600092019190915250929550611c4a945050505050565b610a3860048036036060811015610a1857600080fd5b506001600160a01b03813581169160208101359091169060400135611ce1565b6040805192835260208301919091528051918290030190f35b6103e5600480360360a0811015610a6757600080fd5b506001600160a01b0381358116916020810135821691604082013581169160608101359091169060800135611f56565b6103e560048036036020811015610aad57600080fd5b50356120ed565b6103e560048036036060811015610aca57600080fd5b506001600160a01b03813581169160208101359091169060400135612156565b6103ff60048036036040811015610b0057600080fd5b506001600160a01b0381351690602001356123a3565b6103ff6123d8565b6103e560048036036040811015610b3457600080fd5b506001600160a01b0381351690602001356123e7565b6102fd612597565b6103e56125a7565b6103e560048036036060811015610b7057600080fd5b506001600160a01b038135811691602081013590911690604001356125ad565b6103e560048036036020811015610ba657600080fd5b50356001600160a01b03166125ba565b6103ff6128cd565b600181565b6001600160a01b03821660009081526009602052604081205460ff16610c1a5760405162461bcd60e51b81526004018080602001828103825260288152602001806134316028913960400191505060405180910390fd5b600a546001600160a01b0316331480610c3d57506000546001600160a01b031633145b610c785760405162461bcd60e51b81526004018080602001828103825260278152602001806134596027913960400191505060405180910390fd5b6000546001600160a01b0316331480610c9357506001821515145b610cdd576040805162461bcd60e51b81526020600482015260166024820152756f6e6c792061646d696e2063616e20756e706175736560501b604482015290519081900360640190fd5b6001600160a01b0383166000818152600c6020908152604091829020805486151560ff199091168117909155825193845283830152606090830181905260069083015265426f72726f7760d01b6080830152517f71aec636243f9709bb0007ae15e9afb8150ab01716d75fd7573be5cc096e03b09181900360a00190a150805b92915050565b806001600160a01b031663f851a4406040518163ffffffff1660e01b815260040160206040518083038186803b158015610d9c57600080fd5b505afa158015610db0573d6000803e3d6000fd5b505050506040513d6020811015610dc657600080fd5b50516001600160a01b03163314610e0e5760405162461bcd60e51b81526004018080602001828103825260278152602001806134a56027913960400191505060405180910390fd5b6000816001600160a01b031663c1e803346040518163ffffffff1660e01b8152600401602060405180830381600087803b158015610e4b57600080fd5b505af1158015610e5f573d6000803e3d6000fd5b505050506040513d6020811015610e7557600080fd5b505190508015610ec4576040805162461bcd60e51b815260206004820152601560248201527418da185b99d9481b9bdd08185d5d1a1bdc9a5e9959605a1b604482015290519081900360640190fd5b5050565b5050505050565b6001600160a01b03841660009081526009602052604081205460ff16610ef757506009610efd565b60005b90505b949350505050565b600a546001600160a01b031681565b6001546001600160a01b031681565b600a546000906001600160a01b0316331480610f4957506000546001600160a01b031633145b610f845760405162461bcd60e51b81526004018080602001828103825260278152602001806134596027913960400191505060405180910390fd5b6000546001600160a01b0316331480610f9f57506001821515145b610fe9576040805162461bcd60e51b81526020600482015260166024820152756f6e6c792061646d696e2063616e20756e706175736560501b604482015290519081900360640190fd5b600a8054831515600160b81b810260ff60b81b1990921691909117909155604080516020810192909252808252600582820152645365697a6560d81b6060830152517fef159d9a32b2472e32b098f954f3ce62d232939f1c207070b584df1814de2de09181900360800190a150805b919050565b600080546001600160a01b031633146110835761107c600160046128dc565b9050611058565b61108b61336e565b5060408051602081019091528281526110a261336e565b50604080516020810190915266b1a2bc2ec5000081526110c28282612942565b156110db576110d26005806128dc565b92505050611058565b6110e361336e565b506040805160208101909152670c7d713b49da00008152611104818461294a565b1561111e576111146005806128dc565b9350505050611058565b6005805490869055604080518281526020810188905281517f3b9670cf975d26958e754b57098eaa2ac914d8d2a31b83257997b9f346110fd9929181900390910190a160005b9695505050505050565b6001600160a01b03821660009081526009602052604081205460ff166111c55760405162461bcd60e51b81526004018080602001828103825260288152602001806134316028913960400191505060405180910390fd5b600a546001600160a01b03163314806111e857506000546001600160a01b031633145b6112235760405162461bcd60e51b81526004018080602001828103825260278152602001806134596027913960400191505060405180910390fd5b6000546001600160a01b031633148061123e57506001821515145b611288576040805162461bcd60e51b81526020600482015260166024820152756f6e6c792061646d696e2063616e20756e706175736560501b604482015290519081900360640190fd5b6001600160a01b0383166000818152600b6020908152604091829020805486151560ff199091168117909155825193845283830152606090830181905260049083015263135a5b9d60e21b6080830152517f71aec636243f9709bb0007ae15e9afb8150ab01716d75fd7573be5cc096e03b09181900360a00190a150919050565b600a54600160a01b900460ff1681565b50505050565b505050505050565b60065481565b6000806000806000806113428a8a8a8a612951565b92509250925082601181111561135457fe5b95509093509150505b9450945094915050565b6001600160a01b0383166000908152600b602052604081205460ff16156113c6576040805162461bcd60e51b815260206004820152600e60248201526d1b5a5b9d081a5cc81c185d5cd95960921b604482015290519081900360640190fd5b6001600160a01b03841660009081526009602052604090205460ff166113f05760095b90506113f6565b60005b90505b9392505050565b600080546001600160a01b0316331461141c5761107c6001600b6128dc565b61142461336e565b50604080516020810190915282815261143b61336e565b506040805160208101909152670de0b6b3a7640000815261145c828261294a565b1561146d576110d26007600c6128dc565b61147561336e565b5060408051602081019091526714d1120d7b1600008152611496818461294a565b156114a7576111146007600c6128dc565b6006805490869055604080518281526020810188905281517faeba5a6c40a8ac138134bff1aaa65debf25971188a58804bad717f82f0ec1316929181900390910190a16000611164565b801580156114ff5750600082115b15611319576040805162461bcd60e51b815260206004820152601160248201527072656465656d546f6b656e73207a65726f60781b604482015290519081900360640190fd5b600080546001600160a01b031633146115645761107c600160106128dc565b600480546001600160a01b038481166001600160a01b0319831681179093556040805191909216808252602082019390935281517fd52b2b9b7e9ee655fcb95d2e5b9e0c9f69e7ef2b8e9d2d0ea78402d576d22e22929181900390910190a160009392505050565b505050565b6000806000806000806115e8876000806000612951565b9250925092508260118111156115fa57fe5b97919650945092505050565b600080546001600160a01b031633146116255761107c600160136128dc565b600a80546001600160a01b038481166001600160a01b0319831617928390556040805192821680845293909116602083015280517f0613b6ee6a04f0d09f390e4d9318894b9f6ac7fd83897cd8d18896ba579c401e9281900390910190a160006113f6565b6001600160a01b03851660009081526009602052604081205460ff1615806116cb57506001600160a01b03851660009081526009602052604090205460ff16155b156116da5760095b9050611808565b6000806116e685612d6c565b919350909150600090508260118111156116fc57fe5b146117165781601181111561170d57fe5b92505050611808565b8061172257600361170d565b6000886001600160a01b03166395dd9193876040518263ffffffff1660e01b815260040180826001600160a01b03166001600160a01b0316815260200191505060206040518083038186803b15801561177a57600080fd5b505afa15801561178e573d6000803e3d6000fd5b505050506040513d60208110156117a457600080fd5b50516040805160208101909152600554815290915060009081906117c89084612d8c565b909250905060008260038111156117db57fe5b146117ef57600b5b95505050505050611808565b808711156117fe5760116117e3565b6000955050505050505b95945050505050565b600c6020526000908152604090205460ff1681565b600b6020526000908152604090205460ff1681565b6004546001600160a01b031681565b600a54600160b01b900460ff1681565b60096020526000908152604090208054600182015460039092015460ff91821692911683565b600a546000906001600160a01b03163314806118a657506000546001600160a01b031633145b6118e15760405162461bcd60e51b81526004018080602001828103825260278152602001806134596027913960400191505060405180910390fd5b6000546001600160a01b03163314806118fc57506001821515145b611946576040805162461bcd60e51b81526020600482015260166024820152756f6e6c792061646d696e2063616e20756e706175736560501b604482015290519081900360640190fd5b600a8054831515600160b01b810260ff60b01b1990921691909117909155604080516020810192909252808252600882820152672a3930b739b332b960c11b6060830152517fef159d9a32b2472e32b098f954f3ce62d232939f1c207070b584df1814de2de09181900360800190a15090565b6001600160a01b038082166000908152600960209081526040808320938616835260029093019052205460ff1692915050565b60075481565b600080546001600160a01b03163314611a115761107c600160126128dc565b6001600160a01b03821660009081526009602052604090205460ff1615611a3e5761107c600a60116128dc565b816001600160a01b031663fe9c44ae6040518163ffffffff1660e01b815260040160206040518083038186803b158015611a7757600080fd5b505afa158015611a8b573d6000803e3d6000fd5b505050506040513d6020811015611aa157600080fd5b5050604080516060810182526001808252600060208381018281528486018381526001600160a01b03891680855260098452938790209551865490151560ff199182161787559151948601949094559251600390940180549415159490931693909317909155825190815291517fcf583bb0c569eb967f806b11601c4cb93c10310485c67add5f8362c2f212321f9281900390910190a1600092915050565b60608060086000846001600160a01b03166001600160a01b03168152602001908152602001600020805480602002602001604051908101604052809291908181526020018280548015611bbc57602002820191906000526020600020905b81546001600160a01b03168152600190910190602001808311611b9e575b5093979650505050505050565b600a54600160b81b900460ff1681565b6002546001600160a01b031681565b600a54600090600160b01b900460ff1615611c3f576040805162461bcd60e51b81526020600482015260126024820152711d1c985b9cd9995c881a5cc81c185d5cd95960721b604482015290519081900360640190fd5b610efa858584612de0565b6060600082519050606081604051908082528060200260200182016040528015611c7e578160200160208202803883390190505b50905060005b82811015611cd9576000858281518110611c9a57fe5b60200260200101519050611cae8133612e4f565b6011811115611cb957fe5b838381518110611cc557fe5b602090810291909101015250600101611c84565b509392505050565b600480546040805163fc57d4df60e01b81526001600160a01b038781169482019490945290516000938493849391169163fc57d4df91602480820192602092909190829003018186803b158015611d3757600080fd5b505afa158015611d4b573d6000803e3d6000fd5b505050506040513d6020811015611d6157600080fd5b5051600480546040805163fc57d4df60e01b81526001600160a01b038a8116948201949094529051939450600093929091169163fc57d4df91602480820192602092909190829003018186803b158015611dba57600080fd5b505afa158015611dce573d6000803e3d6000fd5b505050506040513d6020811015611de457600080fd5b50519050811580611df3575080155b15611e0857600d935060009250611f4e915050565b6000866001600160a01b031663182df0f56040518163ffffffff1660e01b815260040160206040518083038186803b158015611e4357600080fd5b505afa158015611e57573d6000803e3d6000fd5b505050506040513d6020811015611e6d57600080fd5b505190506000611e7b61336e565b611e8361336e565b611e8b61336e565b6000611e9960065489612f70565b945090506000816003811115611eab57fe5b14611ec757600b5b995060009850611f4e975050505050505050565b611ed18787612f70565b935090506000816003811115611ee357fe5b14611eef57600b611eb3565b611ef98484612fab565b925090506000816003811115611f0b57fe5b14611f1757600b611eb3565b611f21828c612d8c565b955090506000816003811115611f3357fe5b14611f3f57600b611eb3565b60009950939750505050505050505b935093915050565b600a54600090600160b81b900460ff1615611faa576040805162461bcd60e51b815260206004820152600f60248201526e1cd95a5e99481a5cc81c185d5cd959608a1b604482015290519081900360640190fd5b6001600160a01b03861660009081526009602052604090205460ff161580611feb57506001600160a01b03851660009081526009602052604090205460ff16155b15611ff75760096116d3565b846001600160a01b0316635fe3b5676040518163ffffffff1660e01b815260040160206040518083038186803b15801561203057600080fd5b505afa158015612044573d6000803e3d6000fd5b505050506040513d602081101561205a57600080fd5b505160408051635fe3b56760e01b815290516001600160a01b0392831692891691635fe3b567916004808301926020929190829003018186803b1580156120a057600080fd5b505afa1580156120b4573d6000803e3d6000fd5b505050506040513d60208110156120ca57600080fd5b50516001600160a01b0316146120e15760026116d3565b60009695505050505050565b600080546001600160a01b0316331461210c5761107c6001600d6128dc565b6007805490839055604080518281526020810185905281517f7093cf1eb653f749c3ff531d6df7f92764536a7fa0d13530cd26e070780c32ea929181900390910190a160006113f6565b6001600160a01b0383166000908152600c602052604081205460ff16156121b7576040805162461bcd60e51b815260206004820152601060248201526f189bdc9c9bddc81a5cc81c185d5cd95960821b604482015290519081900360640190fd5b6001600160a01b03841660009081526009602052604090205460ff166121de5760096113e9565b6001600160a01b038085166000908152600960209081526040808320938716835260029093019052205460ff166122ce57336001600160a01b03851614612264576040805162461bcd60e51b815260206004820152601560248201527439b2b73232b91036bab9ba1031329031aa37b5b2b760591b604482015290519081900360640190fd5b60006122703385612e4f565b9050600081601181111561228057fe5b146122995780601181111561229157fe5b9150506113f6565b6001600160a01b038086166000908152600960209081526040808320938816835260029093019052205460ff166122cc57fe5b505b600480546040805163fc57d4df60e01b81526001600160a01b03888116948201949094529051929091169163fc57d4df91602480820192602092909190829003018186803b15801561231f57600080fd5b505afa158015612333573d6000803e3d6000fd5b505050506040513d602081101561234957600080fd5b505161235657600d6113e9565b6000806123668587600087612951565b9193509091506000905082601181111561237c57fe5b146123965781601181111561238d57fe5b925050506113f6565b80156120e157600461238d565b600860205281600052604060002081815481106123bc57fe5b6000918252602090912001546001600160a01b03169150829050565b6003546001600160a01b031681565b600080546001600160a01b0316331461240d57612406600160066128dc565b9050610d5d565b6001600160a01b0383166000908152600960205260409020805460ff166124425761243a600960076128dc565b915050610d5d565b61244a61336e565b50604080516020810190915283815261246161336e565b506040805160208101909152670c7d713b49da00008152612482818361294a565b1561249d57612493600660086128dc565b9350505050610d5d565b84158015906125265750600480546040805163fc57d4df60e01b81526001600160a01b038a8116948201949094529051929091169163fc57d4df91602480820192602092909190829003018186803b1580156124f857600080fd5b505afa15801561250c573d6000803e3d6000fd5b505050506040513d602081101561252257600080fd5b5051155b1561253757612493600d60096128dc565b60018301805490869055604080516001600160a01b03891681526020810183905280820188905290517f70483e6592cd5182d45ac970e05bc62cdcc90e9d8ef2c2dbe686cf383bcd7fc59181900360600190a16000979650505050505050565b600a54600160a81b900460ff1681565b60055481565b60006113f3848484612de0565b6000808290506000806000836001600160a01b031663c37f68e2336040518263ffffffff1660e01b815260040180826001600160a01b03166001600160a01b0316815260200191505060806040518083038186803b15801561261b57600080fd5b505afa15801561262f573d6000803e3d6000fd5b505050506040513d608081101561264557600080fd5b5080516020820151604090920151909450909250905082156126985760405162461bcd60e51b81526004018080602001828103825260258152602001806134806025913960400191505060405180910390fd5b80156126b5576126aa600c60026128dc565b945050505050611058565b60006126c2873385612de0565b905080156126e3576126d7600e600383612fc3565b95505050505050611058565b6001600160a01b0385166000908152600960209081526040808320338452600281019092529091205460ff166127225760009650505050505050611058565b3360009081526002820160209081526040808320805460ff19169055600882529182902080548351818402810184019094528084526060939283018282801561279457602002820191906000526020600020905b81546001600160a01b03168152600190910190602001808311612776575b5050835193945083925060009150505b828110156127e957896001600160a01b03168482815181106127c257fe5b60200260200101516001600160a01b031614156127e1578091506127e9565b6001016127a4565b508181106127f357fe5b33600090815260086020526040902080548190600019810190811061281457fe5b9060005260206000200160009054906101000a90046001600160a01b031681838154811061283e57fe5b600091825260209091200180546001600160a01b0319166001600160a01b03929092169190911790558054612877826000198301613381565b50604080516001600160a01b038c16815233602082015281517fe699a64c18b07ac5b7301aa273f36a2287239eb9501d81950672794afba29a0d929181900390910190a160009c9b505050505050505050505050565b6000546001600160a01b031681565b60007f45b96fe442630264581b197e84bbada861235052c5a1aadfff9ea4e40a969aa083601181111561290b57fe5b83601381111561291757fe5b604080519283526020830191909152600082820152519081900360600190a18260118111156113f657fe5b519051111590565b5190511090565b600080600061295e6133a5565b6001600160a01b0388166000908152600860209081526040808320805482518185028101850190935280835284936060939291908301828280156129cb57602002820191906000526020600020905b81546001600160a01b031681526001909101906020018083116129ad575b50939450600093505050505b8151811015612d275760008282815181106129ee57fe5b60200260200101519050806001600160a01b031663c37f68e28e6040518263ffffffff1660e01b815260040180826001600160a01b03166001600160a01b0316815260200191505060806040518083038186803b158015612a4e57600080fd5b505afa158015612a62573d6000803e3d6000fd5b505050506040513d6080811015612a7857600080fd5b508051602082015160408084015160609485015160808c0152938a01939093529188019190915294508415612abe5750600f97506000965086955061135d945050505050565b60408051602080820183526001600160a01b0380851660008181526009845285902060010154845260c08b01939093528351808301855260808b0151815260e08b015260048054855163fc57d4df60e01b815291820194909452935192169263fc57d4df9260248083019392829003018186803b158015612b3e57600080fd5b505afa158015612b52573d6000803e3d6000fd5b505050506040513d6020811015612b6857600080fd5b505160a08701819052612b8c5750600d97506000965086955061135d945050505050565b604080516020810190915260a08701518152610100870181905260c087015160e0880151612bb992613029565b61012088015293506000846003811115612bcf57fe5b14612beb5750600b97506000965086955061135d945050505050565b612c0386610120015187604001518860000151613081565b875293506000846003811115612c1557fe5b14612c315750600b97506000965086955061135d945050505050565b612c4986610100015187606001518860200151613081565b602088015293506000846003811115612c5e57fe5b14612c7a5750600b97506000965086955061135d945050505050565b8b6001600160a01b0316816001600160a01b03161415612d1e57612ca88661012001518c8860200151613081565b602088015293506000846003811115612cbd57fe5b14612cd95750600b97506000965086955061135d945050505050565b612ced8661010001518b8860200151613081565b602088015293506000846003811115612d0257fe5b14612d1e5750600b97506000965086955061135d945050505050565b506001016129d7565b50602084015184511115612d4e57505050602081015190516000945003915082905061135d565b505081516020909201516000955085945091909103915061135d9050565b6000806000612d7f846000806000612951565b9250925092509193909250565b6000806000612d9961336e565b612da386866130ce565b90925090506000826003811115612db657fe5b14612dc75750915060009050612dd9565b6000612dd282613136565b9350935050505b9250929050565b6001600160a01b03831660009081526009602052604081205460ff16612e075760096113e9565b6001600160a01b038085166000908152600960209081526040808320938716835260029093019052205460ff16612e3f5760006113e9565b6000806123668587866000612951565b6001600160a01b0382166000908152600960205260408120805460ff16612e7a576009915050610d5d565b6001600160a01b038316600090815260028201602052604090205460ff16151560011415612eac576000915050610d5d565b6007546001600160a01b03841660009081526008602052604090205410612ed7576010915050610d5d565b6001600160a01b0380841660008181526002840160209081526040808320805460ff19166001908117909155600883528184208054918201815584529282902090920180549489166001600160a01b031990951685179055815193845283019190915280517f3ab23ab0d51cccc0c3085aec51f99228625aa1a922b3a8ca89a26b0f2027a1a59281900390910190a15060009392505050565b6000612f7a61336e565b612fa0604051806020016040528086815250604051806020016040528086815250613145565b915091509250929050565b6000612fb561336e565b83518351612fa0919061322e565b60007f45b96fe442630264581b197e84bbada861235052c5a1aadfff9ea4e40a969aa0846011811115612ff257fe5b846013811115612ffe57fe5b604080519283526020830191909152818101859052519081900360600190a18360118111156113f357fe5b600061303361336e565b600061303d61336e565b6130478787613145565b9092509050600082600381111561305a57fe5b14613069579092509050611f4e565b6130738186613145565b935093505050935093915050565b600080600061308e61336e565b61309887876130ce565b909250905060008260038111156130ab57fe5b146130bc5750915060009050611f4e565b6130736130c882613136565b866132de565b60006130d861336e565b6000806130e9866000015186613304565b909250905060008260038111156130fc57fe5b1461311b57506040805160208101909152600081529092509050612dd9565b60408051602081019091529081526000969095509350505050565b51670de0b6b3a7640000900490565b600061314f61336e565b60008061316486600001518660000151613304565b9092509050600082600381111561317757fe5b1461319657506040805160208101909152600081529092509050612dd9565b6000806131ab6706f05b59d3b20000846132de565b909250905060008260038111156131be57fe5b146131e057506040805160208101909152600081529094509250612dd9915050565b6000806131f583670de0b6b3a7640000613343565b9092509050600082600381111561320857fe5b1461320f57fe5b604080516020810190915290815260009a909950975050505050505050565b600061323861336e565b60008061324d86670de0b6b3a7640000613304565b9092509050600082600381111561326057fe5b1461327f57506040805160208101909152600081529092509050612dd9565b60008061328c8388613343565b9092509050600082600381111561329f57fe5b146132c157506040805160208101909152600081529094509250612dd9915050565b604080516020810190915290815260009890975095505050505050565b6000808383018481106132f657600092509050612dd9565b506002915060009050612dd9565b6000808361331757506000905080612dd9565b8383028385828161332457fe5b041461333857506002915060009050612dd9565b600092509050612dd9565b600080826133575750600190506000612dd9565b600083858161336257fe5b04915091509250929050565b6040518060200160405280600081525090565b8154818355818111156115cc576000838152602090206115cc91810190830161340f565b6040518061014001604052806000815260200160008152602001600081526020016000815260200160008152602001600081526020016133e361336e565b81526020016133f061336e565b81526020016133fd61336e565b815260200161340a61336e565b905290565b61342d91905b808211156134295760008155600101613415565b5090565b9056fe63616e6e6f742070617573652061206d61726b65742074686174206973206e6f74206c69737465646f6e6c7920706175736520677561726469616e20616e642061646d696e2063616e207061757365657869744d61726b65743a206765744163636f756e74536e617073686f74206661696c65646f6e6c7920756e6974726f6c6c65722061646d696e2063616e206368616e676520627261696e73a265627a7a72315820a97b2d87e403f69c4761a10890480634fcea659761cf1d6562648371d633fadc64736f6c63430005110032",
      "opcodes": "PUSH1 0x80 PUSH1 0x40 MSTORE CALLVALUE DUP1 ISZERO PUSH2 0x10 JUMPI PUSH1 0x0 DUP1 REVERT JUMPDEST POP PUSH1 0x0 DUP1 SLOAD PUSH1 0x1 PUSH1 0x1 PUSH1 0xA0 SHL SUB NOT AND CALLER OR SWAP1 SSTORE PUSH2 0x3500 DUP1 PUSH2 0x32 PUSH1 0x0 CODECOPY PUSH1 0x0 RETURN INVALID PUSH1 0x80 PUSH1 0x40 MSTORE CALLVALUE DUP1 ISZERO PUSH2 0x10 JUMPI PUSH1 0x0 DUP1 REVERT JUMPDEST POP PUSH1 0x4 CALLDATASIZE LT PUSH2 0x2F0 JUMPI PUSH1 0x0 CALLDATALOAD PUSH1 0xE0 SHR DUP1 PUSH4 0x6D35BF91 GT PUSH2 0x19D JUMPI DUP1 PUSH4 0xC2998238 GT PUSH2 0xE9 JUMPI DUP1 PUSH4 0xDCFBC0C7 GT PUSH2 0xA2 JUMPI DUP1 PUSH4 0xE8755446 GT PUSH2 0x7C JUMPI DUP1 PUSH4 0xE8755446 EQ PUSH2 0xB52 JUMPI DUP1 PUSH4 0xEABE7D91 EQ PUSH2 0xB5A JUMPI DUP1 PUSH4 0xEDE4EDD0 EQ PUSH2 0xB90 JUMPI DUP1 PUSH4 0xF851A440 EQ PUSH2 0xBB6 JUMPI PUSH2 0x2F0 JUMP JUMPDEST DUP1 PUSH4 0xDCFBC0C7 EQ PUSH2 0xB16 JUMPI DUP1 PUSH4 0xE4028EEE EQ PUSH2 0xB1E JUMPI DUP1 PUSH4 0xE6653F3D EQ PUSH2 0xB4A JUMPI PUSH2 0x2F0 JUMP JUMPDEST DUP1 PUSH4 0xC2998238 EQ PUSH2 0x95F JUMPI DUP1 PUSH4 0xC488847B EQ PUSH2 0xA02 JUMPI DUP1 PUSH4 0xD02F7351 EQ PUSH2 0xA51 JUMPI DUP1 PUSH4 0xD9226CED EQ PUSH2 0xA97 JUMPI DUP1 PUSH4 0xDA3D454C EQ PUSH2 0xAB4 JUMPI DUP1 PUSH4 0xDCE15449 EQ PUSH2 0xAEA JUMPI PUSH2 0x2F0 JUMP JUMPDEST DUP1 PUSH4 0x929FE9A1 GT PUSH2 0x156 JUMPI DUP1 PUSH4 0xABFCEFFC GT PUSH2 0x130 JUMPI DUP1 PUSH4 0xABFCEFFC EQ PUSH2 0x89D JUMPI DUP1 PUSH4 0xAC0B0BB7 EQ PUSH2 0x913 JUMPI DUP1 PUSH4 0xBB82AA5E EQ PUSH2 0x91B JUMPI DUP1 PUSH4 0xBDCDC258 EQ PUSH2 0x923 JUMPI PUSH2 0x2F0 JUMP JUMPDEST DUP1 PUSH4 0x929FE9A1 EQ PUSH2 0x841 JUMPI DUP1 PUSH4 0x94B2294B EQ PUSH2 0x86F JUMPI DUP1 PUSH4 0xA76B3FDA EQ PUSH2 0x877 JUMPI PUSH2 0x2F0 JUMP JUMPDEST DUP1 PUSH4 0x6D35BF91 EQ PUSH2 0x75E JUMPI DUP1 PUSH4 0x731F0C2B EQ PUSH2 0x7A4 JUMPI DUP1 PUSH4 0x7DC0D1D0 EQ PUSH2 0x7CA JUMPI DUP1 PUSH4 0x87F76303 EQ PUSH2 0x7D2 JUMPI DUP1 PUSH4 0x8E8F294B EQ PUSH2 0x7DA JUMPI DUP1 PUSH4 0x8EBF6364 EQ PUSH2 0x822 JUMPI PUSH2 0x2F0 JUMP JUMPDEST DUP1 PUSH4 0x47EF3B3B GT PUSH2 0x25C JUMPI DUP1 PUSH4 0x55EE1FE1 GT PUSH2 0x215 JUMPI DUP1 PUSH4 0x5F5AF1AA GT PUSH2 0x1EF JUMPI DUP1 PUSH4 0x5F5AF1AA EQ PUSH2 0x690 JUMPI DUP1 PUSH4 0x5FC7E71E EQ PUSH2 0x6B6 JUMPI DUP1 PUSH4 0x6A56947E EQ PUSH2 0x6FC JUMPI DUP1 PUSH4 0x6D154EA5 EQ PUSH2 0x738 JUMPI PUSH2 0x2F0 JUMP JUMPDEST DUP1 PUSH4 0x55EE1FE1 EQ PUSH2 0x60E JUMPI DUP1 PUSH4 0x5C778605 EQ PUSH2 0x634 JUMPI DUP1 PUSH4 0x5EC88C79 EQ PUSH2 0x66A JUMPI PUSH2 0x2F0 JUMP JUMPDEST DUP1 PUSH4 0x47EF3B3B EQ PUSH2 0x4D1 JUMPI DUP1 PUSH4 0x4ADA90AF EQ PUSH2 0x51D JUMPI DUP1 PUSH4 0x4E79238F EQ PUSH2 0x525 JUMPI DUP1 PUSH4 0x4EF4C3E1 EQ PUSH2 0x57F JUMPI DUP1 PUSH4 0x4FD42E17 EQ PUSH2 0x5B5 JUMPI DUP1 PUSH4 0x51DFF989 EQ PUSH2 0x5D2 JUMPI PUSH2 0x2F0 JUMP JUMPDEST DUP1 PUSH4 0x26782247 GT PUSH2 0x2AE JUMPI DUP1 PUSH4 0x26782247 EQ PUSH2 0x41B JUMPI DUP1 PUSH4 0x2D70DB78 EQ PUSH2 0x423 JUMPI DUP1 PUSH4 0x317B0B77 EQ PUSH2 0x442 JUMPI DUP1 PUSH4 0x3BCF7EC1 EQ PUSH2 0x45F JUMPI DUP1 PUSH4 0x3C94786F EQ PUSH2 0x48D JUMPI DUP1 PUSH4 0x41C728B9 EQ PUSH2 0x495 JUMPI PUSH2 0x2F0 JUMP JUMPDEST DUP1 PUSH3 0x7E3DD2 EQ PUSH2 0x2F5 JUMPI DUP1 PUSH4 0x18C882A5 EQ PUSH2 0x311 JUMPI DUP1 PUSH4 0x1D504DC6 EQ PUSH2 0x33F JUMPI DUP1 PUSH4 0x1EDEDC91 EQ PUSH2 0x367 JUMPI DUP1 PUSH4 0x24008A62 EQ PUSH2 0x3A9 JUMPI DUP1 PUSH4 0x24A3D622 EQ PUSH2 0x3F7 JUMPI JUMPDEST PUSH1 0x0 DUP1 REVERT JUMPDEST PUSH2 0x2FD PUSH2 0xBBE JUMP JUMPDEST PUSH1 0x40 DUP1 MLOAD SWAP2 ISZERO ISZERO DUP3 MSTORE MLOAD SWAP1 DUP2 SWAP1 SUB PUSH1 0x20 ADD SWAP1 RETURN JUMPDEST PUSH2 0x2FD PUSH1 0x4 DUP1 CALLDATASIZE SUB PUSH1 0x40 DUP2 LT ISZERO PUSH2 0x327 JUMPI PUSH1 0x0 DUP1 REVERT JUMPDEST POP PUSH1 0x1 PUSH1 0x1 PUSH1 0xA0 SHL SUB DUP2 CALLDATALOAD AND SWAP1 PUSH1 0x20 ADD CALLDATALOAD ISZERO ISZERO PUSH2 0xBC3 JUMP JUMPDEST PUSH2 0x365 PUSH1 0x4 DUP1 CALLDATASIZE SUB PUSH1 0x20 DUP2 LT ISZERO PUSH2 0x355 JUMPI PUSH1 0x0 DUP1 REVERT JUMPDEST POP CALLDATALOAD PUSH1 0x1 PUSH1 0x1 PUSH1 0xA0 SHL SUB AND PUSH2 0xD63 JUMP JUMPDEST STOP JUMPDEST PUSH2 0x365 PUSH1 0x4 DUP1 CALLDATASIZE SUB PUSH1 0xA0 DUP2 LT ISZERO PUSH2 0x37D JUMPI PUSH1 0x0 DUP1 REVERT JUMPDEST POP PUSH1 0x1 PUSH1 0x1 PUSH1 0xA0 SHL SUB DUP2 CALLDATALOAD DUP2 AND SWAP2 PUSH1 0x20 DUP2 ADD CALLDATALOAD DUP3 AND SWAP2 PUSH1 0x40 DUP3 ADD CALLDATALOAD AND SWAP1 PUSH1 0x60 DUP2 ADD CALLDATALOAD SWAP1 PUSH1 0x80 ADD CALLDATALOAD PUSH2 0xEC8 JUMP JUMPDEST PUSH2 0x3E5 PUSH1 0x4 DUP1 CALLDATASIZE SUB PUSH1 0x80 DUP2 LT ISZERO PUSH2 0x3BF JUMPI PUSH1 0x0 DUP1 REVERT JUMPDEST POP PUSH1 0x1 PUSH1 0x1 PUSH1 0xA0 SHL SUB DUP2 CALLDATALOAD DUP2 AND SWAP2 PUSH1 0x20 DUP2 ADD CALLDATALOAD DUP3 AND SWAP2 PUSH1 0x40 DUP3 ADD CALLDATALOAD AND SWAP1 PUSH1 0x60 ADD CALLDATALOAD PUSH2 0xECF JUMP JUMPDEST PUSH1 0x40 DUP1 MLOAD SWAP2 DUP3 MSTORE MLOAD SWAP1 DUP2 SWAP1 SUB PUSH1 0x20 ADD SWAP1 RETURN JUMPDEST PUSH2 0x3FF PUSH2 0xF05 JUMP JUMPDEST PUSH1 0x40 DUP1 MLOAD PUSH1 0x1 PUSH1 0x1 PUSH1 0xA0 SHL SUB SWAP1 SWAP3 AND DUP3 MSTORE MLOAD SWAP1 DUP2 SWAP1 SUB PUSH1 0x20 ADD SWAP1 RETURN JUMPDEST PUSH2 0x3FF PUSH2 0xF14 JUMP JUMPDEST PUSH2 0x2FD PUSH1 0x4 DUP1 CALLDATASIZE SUB PUSH1 0x20 DUP2 LT ISZERO PUSH2 0x439 JUMPI PUSH1 0x0 DUP1 REVERT JUMPDEST POP CALLDATALOAD ISZERO ISZERO PUSH2 0xF23 JUMP JUMPDEST PUSH2 0x3E5 PUSH1 0x4 DUP1 CALLDATASIZE SUB PUSH1 0x20 DUP2 LT ISZERO PUSH2 0x458 JUMPI PUSH1 0x0 DUP1 REVERT JUMPDEST POP CALLDATALOAD PUSH2 0x105D JUMP JUMPDEST PUSH2 0x2FD PUSH1 0x4 DUP1 CALLDATASIZE SUB PUSH1 0x40 DUP2 LT ISZERO PUSH2 0x475 JUMPI PUSH1 0x0 DUP1 REVERT JUMPDEST POP PUSH1 0x1 PUSH1 0x1 PUSH1 0xA0 SHL SUB DUP2 CALLDATALOAD AND SWAP1 PUSH1 0x20 ADD CALLDATALOAD ISZERO ISZERO PUSH2 0x116E JUMP JUMPDEST PUSH2 0x2FD PUSH2 0x1309 JUMP JUMPDEST PUSH2 0x365 PUSH1 0x4 DUP1 CALLDATASIZE SUB PUSH1 0x80 DUP2 LT ISZERO PUSH2 0x4AB JUMPI PUSH1 0x0 DUP1 REVERT JUMPDEST POP PUSH1 0x1 PUSH1 0x1 PUSH1 0xA0 SHL SUB DUP2 CALLDATALOAD DUP2 AND SWAP2 PUSH1 0x20 DUP2 ADD CALLDATALOAD SWAP1 SWAP2 AND SWAP1 PUSH1 0x40 DUP2 ADD CALLDATALOAD SWAP1 PUSH1 0x60 ADD CALLDATALOAD PUSH2 0x1319 JUMP JUMPDEST PUSH2 0x365 PUSH1 0x4 DUP1 CALLDATASIZE SUB PUSH1 0xC0 DUP2 LT ISZERO PUSH2 0x4E7 JUMPI PUSH1 0x0 DUP1 REVERT JUMPDEST POP PUSH1 0x1 PUSH1 0x1 PUSH1 0xA0 SHL SUB DUP2 CALLDATALOAD DUP2 AND SWAP2 PUSH1 0x20 DUP2 ADD CALLDATALOAD DUP3 AND SWAP2 PUSH1 0x40 DUP3 ADD CALLDATALOAD DUP2 AND SWAP2 PUSH1 0x60 DUP2 ADD CALLDATALOAD SWAP1 SWAP2 AND SWAP1 PUSH1 0x80 DUP2 ADD CALLDATALOAD SWAP1 PUSH1 0xA0 ADD CALLDATALOAD PUSH2 0x131F JUMP JUMPDEST PUSH2 0x3E5 PUSH2 0x1327 JUMP JUMPDEST PUSH2 0x561 PUSH1 0x4 DUP1 CALLDATASIZE SUB PUSH1 0x80 DUP2 LT ISZERO PUSH2 0x53B JUMPI PUSH1 0x0 DUP1 REVERT JUMPDEST POP PUSH1 0x1 PUSH1 0x1 PUSH1 0xA0 SHL SUB DUP2 CALLDATALOAD DUP2 AND SWAP2 PUSH1 0x20 DUP2 ADD CALLDATALOAD SWAP1 SWAP2 AND SWAP1 PUSH1 0x40 DUP2 ADD CALLDATALOAD SWAP1 PUSH1 0x60 ADD CALLDATALOAD PUSH2 0x132D JUMP JUMPDEST PUSH1 0x40 DUP1 MLOAD SWAP4 DUP5 MSTORE PUSH1 0x20 DUP5 ADD SWAP3 SWAP1 SWAP3 MSTORE DUP3 DUP3 ADD MSTORE MLOAD SWAP1 DUP2 SWAP1 SUB PUSH1 0x60 ADD SWAP1 RETURN JUMPDEST PUSH2 0x3E5 PUSH1 0x4 DUP1 CALLDATASIZE SUB PUSH1 0x60 DUP2 LT ISZERO PUSH2 0x595 JUMPI PUSH1 0x0 DUP1 REVERT JUMPDEST POP PUSH1 0x1 PUSH1 0x1 PUSH1 0xA0 SHL SUB DUP2 CALLDATALOAD DUP2 AND SWAP2 PUSH1 0x20 DUP2 ADD CALLDATALOAD SWAP1 SWAP2 AND SWAP1 PUSH1 0x40 ADD CALLDATALOAD PUSH2 0x1367 JUMP JUMPDEST PUSH2 0x3E5 PUSH1 0x4 DUP1 CALLDATASIZE SUB PUSH1 0x20 DUP2 LT ISZERO PUSH2 0x5CB JUMPI PUSH1 0x0 DUP1 REVERT JUMPDEST POP CALLDATALOAD PUSH2 0x13FD JUMP JUMPDEST PUSH2 0x365 PUSH1 0x4 DUP1 CALLDATASIZE SUB PUSH1 0x80 DUP2 LT ISZERO PUSH2 0x5E8 JUMPI PUSH1 0x0 DUP1 REVERT JUMPDEST POP PUSH1 0x1 PUSH1 0x1 PUSH1 0xA0 SHL SUB DUP2 CALLDATALOAD DUP2 AND SWAP2 PUSH1 0x20 DUP2 ADD CALLDATALOAD SWAP1 SWAP2 AND SWAP1 PUSH1 0x40 DUP2 ADD CALLDATALOAD SWAP1 PUSH1 0x60 ADD CALLDATALOAD PUSH2 0x14F1 JUMP JUMPDEST PUSH2 0x3E5 PUSH1 0x4 DUP1 CALLDATASIZE SUB PUSH1 0x20 DUP2 LT ISZERO PUSH2 0x624 JUMPI PUSH1 0x0 DUP1 REVERT JUMPDEST POP CALLDATALOAD PUSH1 0x1 PUSH1 0x1 PUSH1 0xA0 SHL SUB AND PUSH2 0x1545 JUMP JUMPDEST PUSH2 0x365 PUSH1 0x4 DUP1 CALLDATASIZE SUB PUSH1 0x60 DUP2 LT ISZERO PUSH2 0x64A JUMPI PUSH1 0x0 DUP1 REVERT JUMPDEST POP PUSH1 0x1 PUSH1 0x1 PUSH1 0xA0 SHL SUB DUP2 CALLDATALOAD DUP2 AND SWAP2 PUSH1 0x20 DUP2 ADD CALLDATALOAD SWAP1 SWAP2 AND SWAP1 PUSH1 0x40 ADD CALLDATALOAD PUSH2 0x15CC JUMP JUMPDEST PUSH2 0x561 PUSH1 0x4 DUP1 CALLDATASIZE SUB PUSH1 0x20 DUP2 LT ISZERO PUSH2 0x680 JUMPI PUSH1 0x0 DUP1 REVERT JUMPDEST POP CALLDATALOAD PUSH1 0x1 PUSH1 0x1 PUSH1 0xA0 SHL SUB AND PUSH2 0x15D1 JUMP JUMPDEST PUSH2 0x3E5 PUSH1 0x4 DUP1 CALLDATASIZE SUB PUSH1 0x20 DUP2 LT ISZERO PUSH2 0x6A6 JUMPI PUSH1 0x0 DUP1 REVERT JUMPDEST POP CALLDATALOAD PUSH1 0x1 PUSH1 0x1 PUSH1 0xA0 SHL SUB AND PUSH2 0x1606 JUMP JUMPDEST PUSH2 0x3E5 PUSH1 0x4 DUP1 CALLDATASIZE SUB PUSH1 0xA0 DUP2 LT ISZERO PUSH2 0x6CC JUMPI PUSH1 0x0 DUP1 REVERT JUMPDEST POP PUSH1 0x1 PUSH1 0x1 PUSH1 0xA0 SHL SUB DUP2 CALLDATALOAD DUP2 AND SWAP2 PUSH1 0x20 DUP2 ADD CALLDATALOAD DUP3 AND SWAP2 PUSH1 0x40 DUP3 ADD CALLDATALOAD DUP2 AND SWAP2 PUSH1 0x60 DUP2 ADD CALLDATALOAD SWAP1 SWAP2 AND SWAP1 PUSH1 0x80 ADD CALLDATALOAD PUSH2 0x168A JUMP JUMPDEST PUSH2 0x365 PUSH1 0x4 DUP1 CALLDATASIZE SUB PUSH1 0x80 DUP2 LT ISZERO PUSH2 0x712 JUMPI PUSH1 0x0 DUP1 REVERT JUMPDEST POP PUSH1 0x1 PUSH1 0x1 PUSH1 0xA0 SHL SUB DUP2 CALLDATALOAD DUP2 AND SWAP2 PUSH1 0x20 DUP2 ADD CALLDATALOAD DUP3 AND SWAP2 PUSH1 0x40 DUP3 ADD CALLDATALOAD AND SWAP1 PUSH1 0x60 ADD CALLDATALOAD PUSH2 0x1319 JUMP JUMPDEST PUSH2 0x2FD PUSH1 0x4 DUP1 CALLDATASIZE SUB PUSH1 0x20 DUP2 LT ISZERO PUSH2 0x74E JUMPI PUSH1 0x0 DUP1 REVERT JUMPDEST POP CALLDATALOAD PUSH1 0x1 PUSH1 0x1 PUSH1 0xA0 SHL SUB AND PUSH2 0x1811 JUMP JUMPDEST PUSH2 0x365 PUSH1 0x4 DUP1 CALLDATASIZE SUB PUSH1 0xA0 DUP2 LT ISZERO PUSH2 0x774 JUMPI PUSH1 0x0 DUP1 REVERT JUMPDEST POP PUSH1 0x1 PUSH1 0x1 PUSH1 0xA0 SHL SUB DUP2 CALLDATALOAD DUP2 AND SWAP2 PUSH1 0x20 DUP2 ADD CALLDATALOAD DUP3 AND SWAP2 PUSH1 0x40 DUP3 ADD CALLDATALOAD DUP2 AND SWAP2 PUSH1 0x60 DUP2 ADD CALLDATALOAD SWAP1 SWAP2 AND SWAP1 PUSH1 0x80 ADD CALLDATALOAD PUSH2 0xEC8 JUMP JUMPDEST PUSH2 0x2FD PUSH1 0x4 DUP1 CALLDATASIZE SUB PUSH1 0x20 DUP2 LT ISZERO PUSH2 0x7BA JUMPI PUSH1 0x0 DUP1 REVERT JUMPDEST POP CALLDATALOAD PUSH1 0x1 PUSH1 0x1 PUSH1 0xA0 SHL SUB AND PUSH2 0x1826 JUMP JUMPDEST PUSH2 0x3FF PUSH2 0x183B JUMP JUMPDEST PUSH2 0x2FD PUSH2 0x184A JUMP JUMPDEST PUSH2 0x800 PUSH1 0x4 DUP1 CALLDATASIZE SUB PUSH1 0x20 DUP2 LT ISZERO PUSH2 0x7F0 JUMPI PUSH1 0x0 DUP1 REVERT JUMPDEST POP CALLDATALOAD PUSH1 0x1 PUSH1 0x1 PUSH1 0xA0 SHL SUB AND PUSH2 0x185A JUMP JUMPDEST PUSH1 0x40 DUP1 MLOAD SWAP4 ISZERO ISZERO DUP5 MSTORE PUSH1 0x20 DUP5 ADD SWAP3 SWAP1 SWAP3 MSTORE ISZERO ISZERO DUP3 DUP3 ADD MSTORE MLOAD SWAP1 DUP2 SWAP1 SUB PUSH1 0x60 ADD SWAP1 RETURN JUMPDEST PUSH2 0x2FD PUSH1 0x4 DUP1 CALLDATASIZE SUB PUSH1 0x20 DUP2 LT ISZERO PUSH2 0x838 JUMPI PUSH1 0x0 DUP1 REVERT JUMPDEST POP CALLDATALOAD ISZERO ISZERO PUSH2 0x1880 JUMP JUMPDEST PUSH2 0x2FD PUSH1 0x4 DUP1 CALLDATASIZE SUB PUSH1 0x40 DUP2 LT ISZERO PUSH2 0x857 JUMPI PUSH1 0x0 DUP1 REVERT JUMPDEST POP PUSH1 0x1 PUSH1 0x1 PUSH1 0xA0 SHL SUB DUP2 CALLDATALOAD DUP2 AND SWAP2 PUSH1 0x20 ADD CALLDATALOAD AND PUSH2 0x19B9 JUMP JUMPDEST PUSH2 0x3E5 PUSH2 0x19EC JUMP JUMPDEST PUSH2 0x3E5 PUSH1 0x4 DUP1 CALLDATASIZE SUB PUSH1 0x20 DUP2 LT ISZERO PUSH2 0x88D JUMPI PUSH1 0x0 DUP1 REVERT JUMPDEST POP CALLDATALOAD PUSH1 0x1 PUSH1 0x1 PUSH1 0xA0 SHL SUB AND PUSH2 0x19F2 JUMP JUMPDEST PUSH2 0x8C3 PUSH1 0x4 DUP1 CALLDATASIZE SUB PUSH1 0x20 DUP2 LT ISZERO PUSH2 0x8B3 JUMPI PUSH1 0x0 DUP1 REVERT JUMPDEST POP CALLDATALOAD PUSH1 0x1 PUSH1 0x1 PUSH1 0xA0 SHL SUB AND PUSH2 0x1B40 JUMP JUMPDEST PUSH1 0x40 DUP1 MLOAD PUSH1 0x20 DUP1 DUP3 MSTORE DUP4 MLOAD DUP2 DUP4 ADD MSTORE DUP4 MLOAD SWAP2 SWAP3 DUP4 SWAP3 SWAP1 DUP4 ADD SWAP2 DUP6 DUP2 ADD SWAP2 MUL DUP1 DUP4 DUP4 PUSH1 0x0 JUMPDEST DUP4 DUP2 LT ISZERO PUSH2 0x8FF JUMPI DUP2 DUP2 ADD MLOAD DUP4 DUP3 ADD MSTORE PUSH1 0x20 ADD PUSH2 0x8E7 JUMP JUMPDEST POP POP POP POP SWAP1 POP ADD SWAP3 POP POP POP PUSH1 0x40 MLOAD DUP1 SWAP2 SUB SWAP1 RETURN JUMPDEST PUSH2 0x2FD PUSH2 0x1BC9 JUMP JUMPDEST PUSH2 0x3FF PUSH2 0x1BD9 JUMP JUMPDEST PUSH2 0x3E5 PUSH1 0x4 DUP1 CALLDATASIZE SUB PUSH1 0x80 DUP2 LT ISZERO PUSH2 0x939 JUMPI PUSH1 0x0 DUP1 REVERT JUMPDEST POP PUSH1 0x1 PUSH1 0x1 PUSH1 0xA0 SHL SUB DUP2 CALLDATALOAD DUP2 AND SWAP2 PUSH1 0x20 DUP2 ADD CALLDATALOAD DUP3 AND SWAP2 PUSH1 0x40 DUP3 ADD CALLDATALOAD AND SWAP1 PUSH1 0x60 ADD CALLDATALOAD PUSH2 0x1BE8 JUMP JUMPDEST PUSH2 0x8C3 PUSH1 0x4 DUP1 CALLDATASIZE SUB PUSH1 0x20 DUP2 LT ISZERO PUSH2 0x975 JUMPI PUSH1 0x0 DUP1 REVERT JUMPDEST DUP2 ADD SWAP1 PUSH1 0x20 DUP2 ADD DUP2 CALLDATALOAD PUSH5 0x100000000 DUP2 GT ISZERO PUSH2 0x990 JUMPI PUSH1 0x0 DUP1 REVERT JUMPDEST DUP3 ADD DUP4 PUSH1 0x20 DUP3 ADD GT ISZERO PUSH2 0x9A2 JUMPI PUSH1 0x0 DUP1 REVERT JUMPDEST DUP1 CALLDATALOAD SWAP1 PUSH1 0x20 ADD SWAP2 DUP5 PUSH1 0x20 DUP4 MUL DUP5 ADD GT PUSH5 0x100000000 DUP4 GT OR ISZERO PUSH2 0x9C4 JUMPI PUSH1 0x0 DUP1 REVERT JUMPDEST SWAP2 SWAP1 DUP1 DUP1 PUSH1 0x20 MUL PUSH1 0x20 ADD PUSH1 0x40 MLOAD SWAP1 DUP2 ADD PUSH1 0x40 MSTORE DUP1 SWAP4 SWAP3 SWAP2 SWAP1 DUP2 DUP2 MSTORE PUSH1 0x20 ADD DUP4 DUP4 PUSH1 0x20 MUL DUP1 DUP3 DUP5 CALLDATACOPY PUSH1 0x0 SWAP3 ADD SWAP2 SWAP1 SWAP2 MSTORE POP SWAP3 SWAP6 POP PUSH2 0x1C4A SWAP5 POP POP POP POP POP JUMP JUMPDEST PUSH2 0xA38 PUSH1 0x4 DUP1 CALLDATASIZE SUB PUSH1 0x60 DUP2 LT ISZERO PUSH2 0xA18 JUMPI PUSH1 0x0 DUP1 REVERT JUMPDEST POP PUSH1 0x1 PUSH1 0x1 PUSH1 0xA0 SHL SUB DUP2 CALLDATALOAD DUP2 AND SWAP2 PUSH1 0x20 DUP2 ADD CALLDATALOAD SWAP1 SWAP2 AND SWAP1 PUSH1 0x40 ADD CALLDATALOAD PUSH2 0x1CE1 JUMP JUMPDEST PUSH1 0x40 DUP1 MLOAD SWAP3 DUP4 MSTORE PUSH1 0x20 DUP4 ADD SWAP2 SWAP1 SWAP2 MSTORE DUP1 MLOAD SWAP2 DUP3 SWAP1 SUB ADD SWAP1 RETURN JUMPDEST PUSH2 0x3E5 PUSH1 0x4 DUP1 CALLDATASIZE SUB PUSH1 0xA0 DUP2 LT ISZERO PUSH2 0xA67 JUMPI PUSH1 0x0 DUP1 REVERT JUMPDEST POP PUSH1 0x1 PUSH1 0x1 PUSH1 0xA0 SHL SUB DUP2 CALLDATALOAD DUP2 AND SWAP2 PUSH1 0x20 DUP2 ADD CALLDATALOAD DUP3 AND SWAP2 PUSH1 0x40 DUP3 ADD CALLDATALOAD DUP2 AND SWAP2 PUSH1 0x60 DUP2 ADD CALLDATALOAD SWAP1 SWAP2 AND SWAP1 PUSH1 0x80 ADD CALLDATALOAD PUSH2 0x1F56 JUMP JUMPDEST PUSH2 0x3E5 PUSH1 0x4 DUP1 CALLDATASIZE SUB PUSH1 0x20 DUP2 LT ISZERO PUSH2 0xAAD JUMPI PUSH1 0x0 DUP1 REVERT JUMPDEST POP CALLDATALOAD PUSH2 0x20ED JUMP JUMPDEST PUSH2 0x3E5 PUSH1 0x4 DUP1 CALLDATASIZE SUB PUSH1 0x60 DUP2 LT ISZERO PUSH2 0xACA JUMPI PUSH1 0x0 DUP1 REVERT JUMPDEST POP PUSH1 0x1 PUSH1 0x1 PUSH1 0xA0 SHL SUB DUP2 CALLDATALOAD DUP2 AND SWAP2 PUSH1 0x20 DUP2 ADD CALLDATALOAD SWAP1 SWAP2 AND SWAP1 PUSH1 0x40 ADD CALLDATALOAD PUSH2 0x2156 JUMP JUMPDEST PUSH2 0x3FF PUSH1 0x4 DUP1 CALLDATASIZE SUB PUSH1 0x40 DUP2 LT ISZERO PUSH2 0xB00 JUMPI PUSH1 0x0 DUP1 REVERT JUMPDEST POP PUSH1 0x1 PUSH1 0x1 PUSH1 0xA0 SHL SUB DUP2 CALLDATALOAD AND SWAP1 PUSH1 0x20 ADD CALLDATALOAD PUSH2 0x23A3 JUMP JUMPDEST PUSH2 0x3FF PUSH2 0x23D8 JUMP JUMPDEST PUSH2 0x3E5 PUSH1 0x4 DUP1 CALLDATASIZE SUB PUSH1 0x40 DUP2 LT ISZERO PUSH2 0xB34 JUMPI PUSH1 0x0 DUP1 REVERT JUMPDEST POP PUSH1 0x1 PUSH1 0x1 PUSH1 0xA0 SHL SUB DUP2 CALLDATALOAD AND SWAP1 PUSH1 0x20 ADD CALLDATALOAD PUSH2 0x23E7 JUMP JUMPDEST PUSH2 0x2FD PUSH2 0x2597 JUMP JUMPDEST PUSH2 0x3E5 PUSH2 0x25A7 JUMP JUMPDEST PUSH2 0x3E5 PUSH1 0x4 DUP1 CALLDATASIZE SUB PUSH1 0x60 DUP2 LT ISZERO PUSH2 0xB70 JUMPI PUSH1 0x0 DUP1 REVERT JUMPDEST POP PUSH1 0x1 PUSH1 0x1 PUSH1 0xA0 SHL SUB DUP2 CALLDATALOAD DUP2 AND SWAP2 PUSH1 0x20 DUP2 ADD CALLDATALOAD SWAP1 SWAP2 AND SWAP1 PUSH1 0x40 ADD CALLDATALOAD PUSH2 0x25AD JUMP JUMPDEST PUSH2 0x3E5 PUSH1 0x4 DUP1 CALLDATASIZE SUB PUSH1 0x20 DUP2 LT ISZERO PUSH2 0xBA6 JUMPI PUSH1 0x0 DUP1 REVERT JUMPDEST POP CALLDATALOAD PUSH1 0x1 PUSH1 0x1 PUSH1 0xA0 SHL SUB AND PUSH2 0x25BA JUMP JUMPDEST PUSH2 0x3FF PUSH2 0x28CD JUMP JUMPDEST PUSH1 0x1 DUP2 JUMP JUMPDEST PUSH1 0x1 PUSH1 0x1 PUSH1 0xA0 SHL SUB DUP3 AND PUSH1 0x0 SWAP1 DUP2 MSTORE PUSH1 0x9 PUSH1 0x20 MSTORE PUSH1 0x40 DUP2 KECCAK256 SLOAD PUSH1 0xFF AND PUSH2 0xC1A JUMPI PUSH1 0x40 MLOAD PUSH3 0x461BCD PUSH1 0xE5 SHL DUP2 MSTORE PUSH1 0x4 ADD DUP1 DUP1 PUSH1 0x20 ADD DUP3 DUP2 SUB DUP3 MSTORE PUSH1 0x28 DUP2 MSTORE PUSH1 0x20 ADD DUP1 PUSH2 0x3431 PUSH1 0x28 SWAP2 CODECOPY PUSH1 0x40 ADD SWAP2 POP POP PUSH1 0x40 MLOAD DUP1 SWAP2 SUB SWAP1 REVERT JUMPDEST PUSH1 0xA SLOAD PUSH1 0x1 PUSH1 0x1 PUSH1 0xA0 SHL SUB AND CALLER EQ DUP1 PUSH2 0xC3D JUMPI POP PUSH1 0x0 SLOAD PUSH1 0x1 PUSH1 0x1 PUSH1 0xA0 SHL SUB AND CALLER EQ JUMPDEST PUSH2 0xC78 JUMPI PUSH1 0x40 MLOAD PUSH3 0x461BCD PUSH1 0xE5 SHL DUP2 MSTORE PUSH1 0x4 ADD DUP1 DUP1 PUSH1 0x20 ADD DUP3 DUP2 SUB DUP3 MSTORE PUSH1 0x27 DUP2 MSTORE PUSH1 0x20 ADD DUP1 PUSH2 0x3459 PUSH1 0x27 SWAP2 CODECOPY PUSH1 0x40 ADD SWAP2 POP POP PUSH1 0x40 MLOAD DUP1 SWAP2 SUB SWAP1 REVERT JUMPDEST PUSH1 0x0 SLOAD PUSH1 0x1 PUSH1 0x1 PUSH1 0xA0 SHL SUB AND CALLER EQ DUP1 PUSH2 0xC93 JUMPI POP PUSH1 0x1 DUP3 ISZERO ISZERO EQ JUMPDEST PUSH2 0xCDD JUMPI PUSH1 0x40 DUP1 MLOAD PUSH3 0x461BCD PUSH1 0xE5 SHL DUP2 MSTORE PUSH1 0x20 PUSH1 0x4 DUP3 ADD MSTORE PUSH1 0x16 PUSH1 0x24 DUP3 ADD MSTORE PUSH22 0x6F6E6C792061646D696E2063616E20756E7061757365 PUSH1 0x50 SHL PUSH1 0x44 DUP3 ADD MSTORE SWAP1 MLOAD SWAP1 DUP2 SWAP1 SUB PUSH1 0x64 ADD SWAP1 REVERT JUMPDEST PUSH1 0x1 PUSH1 0x1 PUSH1 0xA0 SHL SUB DUP4 AND PUSH1 0x0 DUP2 DUP2 MSTORE PUSH1 0xC PUSH1 0x20 SWAP1 DUP2 MSTORE PUSH1 0x40 SWAP2 DUP3 SWAP1 KECCAK256 DUP1 SLOAD DUP7 ISZERO ISZERO PUSH1 0xFF NOT SWAP1 SWAP2 AND DUP2 OR SWAP1 SWAP2 SSTORE DUP3 MLOAD SWAP4 DUP5 MSTORE DUP4 DUP4 ADD MSTORE PUSH1 0x60 SWAP1 DUP4 ADD DUP2 SWAP1 MSTORE PUSH1 0x6 SWAP1 DUP4 ADD MSTORE PUSH6 0x426F72726F77 PUSH1 0xD0 SHL PUSH1 0x80 DUP4 ADD MSTORE MLOAD PUSH32 0x71AEC636243F9709BB0007AE15E9AFB8150AB01716D75FD7573BE5CC096E03B0 SWAP2 DUP2 SWAP1 SUB PUSH1 0xA0 ADD SWAP1 LOG1 POP DUP1 JUMPDEST SWAP3 SWAP2 POP POP JUMP JUMPDEST DUP1 PUSH1 0x1 PUSH1 0x1 PUSH1 0xA0 SHL SUB AND PUSH4 0xF851A440 PUSH1 0x40 MLOAD DUP2 PUSH4 0xFFFFFFFF AND PUSH1 0xE0 SHL DUP2 MSTORE PUSH1 0x4 ADD PUSH1 0x20 PUSH1 0x40 MLOAD DUP1 DUP4 SUB DUP2 DUP7 DUP1 EXTCODESIZE ISZERO DUP1 ISZERO PUSH2 0xD9C JUMPI PUSH1 0x0 DUP1 REVERT JUMPDEST POP GAS STATICCALL ISZERO DUP1 ISZERO PUSH2 0xDB0 JUMPI RETURNDATASIZE PUSH1 0x0 DUP1 RETURNDATACOPY RETURNDATASIZE PUSH1 0x0 REVERT JUMPDEST POP POP POP POP PUSH1 0x40 MLOAD RETURNDATASIZE PUSH1 0x20 DUP2 LT ISZERO PUSH2 0xDC6 JUMPI PUSH1 0x0 DUP1 REVERT JUMPDEST POP MLOAD PUSH1 0x1 PUSH1 0x1 PUSH1 0xA0 SHL SUB AND CALLER EQ PUSH2 0xE0E JUMPI PUSH1 0x40 MLOAD PUSH3 0x461BCD PUSH1 0xE5 SHL DUP2 MSTORE PUSH1 0x4 ADD DUP1 DUP1 PUSH1 0x20 ADD DUP3 DUP2 SUB DUP3 MSTORE PUSH1 0x27 DUP2 MSTORE PUSH1 0x20 ADD DUP1 PUSH2 0x34A5 PUSH1 0x27 SWAP2 CODECOPY PUSH1 0x40 ADD SWAP2 POP POP PUSH1 0x40 MLOAD DUP1 SWAP2 SUB SWAP1 REVERT JUMPDEST PUSH1 0x0 DUP2 PUSH1 0x1 PUSH1 0x1 PUSH1 0xA0 SHL SUB AND PUSH4 0xC1E80334 PUSH1 0x40 MLOAD DUP2 PUSH4 0xFFFFFFFF AND PUSH1 0xE0 SHL DUP2 MSTORE PUSH1 0x4 ADD PUSH1 0x20 PUSH1 0x40 MLOAD DUP1 DUP4 SUB DUP2 PUSH1 0x0 DUP8 DUP1 EXTCODESIZE ISZERO DUP1 ISZERO PUSH2 0xE4B JUMPI PUSH1 0x0 DUP1 REVERT JUMPDEST POP GAS CALL ISZERO DUP1 ISZERO PUSH2 0xE5F JUMPI RETURNDATASIZE PUSH1 0x0 DUP1 RETURNDATACOPY RETURNDATASIZE PUSH1 0x0 REVERT JUMPDEST POP POP POP POP PUSH1 0x40 MLOAD RETURNDATASIZE PUSH1 0x20 DUP2 LT ISZERO PUSH2 0xE75 JUMPI PUSH1 0x0 DUP1 REVERT JUMPDEST POP MLOAD SWAP1 POP DUP1 ISZERO PUSH2 0xEC4 JUMPI PUSH1 0x40 DUP1 MLOAD PUSH3 0x461BCD PUSH1 0xE5 SHL DUP2 MSTORE PUSH1 0x20 PUSH1 0x4 DUP3 ADD MSTORE PUSH1 0x15 PUSH1 0x24 DUP3 ADD MSTORE PUSH21 0x18DA185B99D9481B9BDD08185D5D1A1BDC9A5E9959 PUSH1 0x5A SHL PUSH1 0x44 DUP3 ADD MSTORE SWAP1 MLOAD SWAP1 DUP2 SWAP1 SUB PUSH1 0x64 ADD SWAP1 REVERT JUMPDEST POP POP JUMP JUMPDEST POP POP POP POP POP JUMP JUMPDEST PUSH1 0x1 PUSH1 0x1 PUSH1 0xA0 SHL SUB DUP5 AND PUSH1 0x0 SWAP1 DUP2 MSTORE PUSH1 0x9 PUSH1 0x20 MSTORE PUSH1 0x40 DUP2 KECCAK256 SLOAD PUSH1 0xFF AND PUSH2 0xEF7 JUMPI POP PUSH1 0x9 PUSH2 0xEFD JUMP JUMPDEST PUSH1 0x0 JUMPDEST SWAP1 POP JUMPDEST SWAP5 SWAP4 POP POP POP POP JUMP JUMPDEST PUSH1 0xA SLOAD PUSH1 0x1 PUSH1 0x1 PUSH1 0xA0 SHL SUB AND DUP2 JUMP JUMPDEST PUSH1 0x1 SLOAD PUSH1 0x1 PUSH1 0x1 PUSH1 0xA0 SHL SUB AND DUP2 JUMP JUMPDEST PUSH1 0xA SLOAD PUSH1 0x0 SWAP1 PUSH1 0x1 PUSH1 0x1 PUSH1 0xA0 SHL SUB AND CALLER EQ DUP1 PUSH2 0xF49 JUMPI POP PUSH1 0x0 SLOAD PUSH1 0x1 PUSH1 0x1 PUSH1 0xA0 SHL SUB AND CALLER EQ JUMPDEST PUSH2 0xF84 JUMPI PUSH1 0x40 MLOAD PUSH3 0x461BCD PUSH1 0xE5 SHL DUP2 MSTORE PUSH1 0x4 ADD DUP1 DUP1 PUSH1 0x20 ADD DUP3 DUP2 SUB DUP3 MSTORE PUSH1 0x27 DUP2 MSTORE PUSH1 0x20 ADD DUP1 PUSH2 0x3459 PUSH1 0x27 SWAP2 CODECOPY PUSH1 0x40 ADD SWAP2 POP POP PUSH1 0x40 MLOAD DUP1 SWAP2 SUB SWAP1 REVERT JUMPDEST PUSH1 0x0 SLOAD PUSH1 0x1 PUSH1 0x1 PUSH1 0xA0 SHL SUB AND CALLER EQ DUP1 PUSH2 0xF9F JUMPI POP PUSH1 0x1 DUP3 ISZERO ISZERO EQ JUMPDEST PUSH2 0xFE9 JUMPI PUSH1 0x40 DUP1 MLOAD PUSH3 0x461BCD PUSH1 0xE5 SHL DUP2 MSTORE PUSH1 0x20 PUSH1 0x4 DUP3 ADD MSTORE PUSH1 0x16 PUSH1 0x24 DUP3 ADD MSTORE PUSH22 0x6F6E6C792061646D696E2063616E20756E7061757365 PUSH1 0x50 SHL PUSH1 0x44 DUP3 ADD MSTORE SWAP1 MLOAD SWAP1 DUP2 SWAP1 SUB PUSH1 0x64 ADD SWAP1 REVERT JUMPDEST PUSH1 0xA DUP1 SLOAD DUP4 ISZERO ISZERO PUSH1 0x1 PUSH1 0xB8 SHL DUP2 MUL PUSH1 0xFF PUSH1 0xB8 SHL NOT SWAP1 SWAP3 AND SWAP2 SWAP1 SWAP2 OR SWAP1 SWAP2 SSTORE PUSH1 0x40 DUP1 MLOAD PUSH1 0x20 DUP2 ADD SWAP3 SWAP1 SWAP3 MSTORE DUP1 DUP3 MSTORE PUSH1 0x5 DUP3 DUP3 ADD MSTORE PUSH5 0x5365697A65 PUSH1 0xD8 SHL PUSH1 0x60 DUP4 ADD MSTORE MLOAD PUSH32 0xEF159D9A32B2472E32B098F954F3CE62D232939F1C207070B584DF1814DE2DE0 SWAP2 DUP2 SWAP1 SUB PUSH1 0x80 ADD SWAP1 LOG1 POP DUP1 JUMPDEST SWAP2 SWAP1 POP JUMP JUMPDEST PUSH1 0x0 DUP1 SLOAD PUSH1 0x1 PUSH1 0x1 PUSH1 0xA0 SHL SUB AND CALLER EQ PUSH2 0x1083 JUMPI PUSH2 0x107C PUSH1 0x1 PUSH1 0x4 PUSH2 0x28DC JUMP JUMPDEST SWAP1 POP PUSH2 0x1058 JUMP JUMPDEST PUSH2 0x108B PUSH2 0x336E JUMP JUMPDEST POP PUSH1 0x40 DUP1 MLOAD PUSH1 0x20 DUP2 ADD SWAP1 SWAP2 MSTORE DUP3 DUP2 MSTORE PUSH2 0x10A2 PUSH2 0x336E JUMP JUMPDEST POP PUSH1 0x40 DUP1 MLOAD PUSH1 0x20 DUP2 ADD SWAP1 SWAP2 MSTORE PUSH7 0xB1A2BC2EC50000 DUP2 MSTORE PUSH2 0x10C2 DUP3 DUP3 PUSH2 0x2942 JUMP JUMPDEST ISZERO PUSH2 0x10DB JUMPI PUSH2 0x10D2 PUSH1 0x5 DUP1 PUSH2 0x28DC JUMP JUMPDEST SWAP3 POP POP POP PUSH2 0x1058 JUMP JUMPDEST PUSH2 0x10E3 PUSH2 0x336E JUMP JUMPDEST POP PUSH1 0x40 DUP1 MLOAD PUSH1 0x20 DUP2 ADD SWAP1 SWAP2 MSTORE PUSH8 0xC7D713B49DA0000 DUP2 MSTORE PUSH2 0x1104 DUP2 DUP5 PUSH2 0x294A JUMP JUMPDEST ISZERO PUSH2 0x111E JUMPI PUSH2 0x1114 PUSH1 0x5 DUP1 PUSH2 0x28DC JUMP JUMPDEST SWAP4 POP POP POP POP PUSH2 0x1058 JUMP JUMPDEST PUSH1 0x5 DUP1 SLOAD SWAP1 DUP7 SWAP1 SSTORE PUSH1 0x40 DUP1 MLOAD DUP3 DUP2 MSTORE PUSH1 0x20 DUP2 ADD DUP9 SWAP1 MSTORE DUP2 MLOAD PUSH32 0x3B9670CF975D26958E754B57098EAA2AC914D8D2A31B83257997B9F346110FD9 SWAP3 SWAP2 DUP2 SWAP1 SUB SWAP1 SWAP2 ADD SWAP1 LOG1 PUSH1 0x0 JUMPDEST SWAP7 SWAP6 POP POP POP POP POP POP JUMP JUMPDEST PUSH1 0x1 PUSH1 0x1 PUSH1 0xA0 SHL SUB DUP3 AND PUSH1 0x0 SWAP1 DUP2 MSTORE PUSH1 0x9 PUSH1 0x20 MSTORE PUSH1 0x40 DUP2 KECCAK256 SLOAD PUSH1 0xFF AND PUSH2 0x11C5 JUMPI PUSH1 0x40 MLOAD PUSH3 0x461BCD PUSH1 0xE5 SHL DUP2 MSTORE PUSH1 0x4 ADD DUP1 DUP1 PUSH1 0x20 ADD DUP3 DUP2 SUB DUP3 MSTORE PUSH1 0x28 DUP2 MSTORE PUSH1 0x20 ADD DUP1 PUSH2 0x3431 PUSH1 0x28 SWAP2 CODECOPY PUSH1 0x40 ADD SWAP2 POP POP PUSH1 0x40 MLOAD DUP1 SWAP2 SUB SWAP1 REVERT JUMPDEST PUSH1 0xA SLOAD PUSH1 0x1 PUSH1 0x1 PUSH1 0xA0 SHL SUB AND CALLER EQ DUP1 PUSH2 0x11E8 JUMPI POP PUSH1 0x0 SLOAD PUSH1 0x1 PUSH1 0x1 PUSH1 0xA0 SHL SUB AND CALLER EQ JUMPDEST PUSH2 0x1223 JUMPI PUSH1 0x40 MLOAD PUSH3 0x461BCD PUSH1 0xE5 SHL DUP2 MSTORE PUSH1 0x4 ADD DUP1 DUP1 PUSH1 0x20 ADD DUP3 DUP2 SUB DUP3 MSTORE PUSH1 0x27 DUP2 MSTORE PUSH1 0x20 ADD DUP1 PUSH2 0x3459 PUSH1 0x27 SWAP2 CODECOPY PUSH1 0x40 ADD SWAP2 POP POP PUSH1 0x40 MLOAD DUP1 SWAP2 SUB SWAP1 REVERT JUMPDEST PUSH1 0x0 SLOAD PUSH1 0x1 PUSH1 0x1 PUSH1 0xA0 SHL SUB AND CALLER EQ DUP1 PUSH2 0x123E JUMPI POP PUSH1 0x1 DUP3 ISZERO ISZERO EQ JUMPDEST PUSH2 0x1288 JUMPI PUSH1 0x40 DUP1 MLOAD PUSH3 0x461BCD PUSH1 0xE5 SHL DUP2 MSTORE PUSH1 0x20 PUSH1 0x4 DUP3 ADD MSTORE PUSH1 0x16 PUSH1 0x24 DUP3 ADD MSTORE PUSH22 0x6F6E6C792061646D696E2063616E20756E7061757365 PUSH1 0x50 SHL PUSH1 0x44 DUP3 ADD MSTORE SWAP1 MLOAD SWAP1 DUP2 SWAP1 SUB PUSH1 0x64 ADD SWAP1 REVERT JUMPDEST PUSH1 0x1 PUSH1 0x1 PUSH1 0xA0 SHL SUB DUP4 AND PUSH1 0x0 DUP2 DUP2 MSTORE PUSH1 0xB PUSH1 0x20 SWAP1 DUP2 MSTORE PUSH1 0x40 SWAP2 DUP3 SWAP1 KECCAK256 DUP1 SLOAD DUP7 ISZERO ISZERO PUSH1 0xFF NOT SWAP1 SWAP2 AND DUP2 OR SWAP1 SWAP2 SSTORE DUP3 MLOAD SWAP4 DUP5 MSTORE DUP4 DUP4 ADD MSTORE PUSH1 0x60 SWAP1 DUP4 ADD DUP2 SWAP1 MSTORE PUSH1 0x4 SWAP1 DUP4 ADD MSTORE PUSH4 0x135A5B9D PUSH1 0xE2 SHL PUSH1 0x80 DUP4 ADD MSTORE MLOAD PUSH32 0x71AEC636243F9709BB0007AE15E9AFB8150AB01716D75FD7573BE5CC096E03B0 SWAP2 DUP2 SWAP1 SUB PUSH1 0xA0 ADD SWAP1 LOG1 POP SWAP2 SWAP1 POP JUMP JUMPDEST PUSH1 0xA SLOAD PUSH1 0x1 PUSH1 0xA0 SHL SWAP1 DIV PUSH1 0xFF AND DUP2 JUMP JUMPDEST POP POP POP POP JUMP JUMPDEST POP POP POP POP POP POP JUMP JUMPDEST PUSH1 0x6 SLOAD DUP2 JUMP JUMPDEST PUSH1 0x0 DUP1 PUSH1 0x0 DUP1 PUSH1 0x0 DUP1 PUSH2 0x1342 DUP11 DUP11 DUP11 DUP11 PUSH2 0x2951 JUMP JUMPDEST SWAP3 POP SWAP3 POP SWAP3 POP DUP3 PUSH1 0x11 DUP2 GT ISZERO PUSH2 0x1354 JUMPI INVALID JUMPDEST SWAP6 POP SWAP1 SWAP4 POP SWAP2 POP POP JUMPDEST SWAP5 POP SWAP5 POP SWAP5 SWAP2 POP POP JUMP JUMPDEST PUSH1 0x1 PUSH1 0x1 PUSH1 0xA0 SHL SUB DUP4 AND PUSH1 0x0 SWAP1 DUP2 MSTORE PUSH1 0xB PUSH1 0x20 MSTORE PUSH1 0x40 DUP2 KECCAK256 SLOAD PUSH1 0xFF AND ISZERO PUSH2 0x13C6 JUMPI PUSH1 0x40 DUP1 MLOAD PUSH3 0x461BCD PUSH1 0xE5 SHL DUP2 MSTORE PUSH1 0x20 PUSH1 0x4 DUP3 ADD MSTORE PUSH1 0xE PUSH1 0x24 DUP3 ADD MSTORE PUSH14 0x1B5A5B9D081A5CC81C185D5CD959 PUSH1 0x92 SHL PUSH1 0x44 DUP3 ADD MSTORE SWAP1 MLOAD SWAP1 DUP2 SWAP1 SUB PUSH1 0x64 ADD SWAP1 REVERT JUMPDEST PUSH1 0x1 PUSH1 0x1 PUSH1 0xA0 SHL SUB DUP5 AND PUSH1 0x0 SWAP1 DUP2 MSTORE PUSH1 0x9 PUSH1 0x20 MSTORE PUSH1 0x40 SWAP1 KECCAK256 SLOAD PUSH1 0xFF AND PUSH2 0x13F0 JUMPI PUSH1 0x9 JUMPDEST SWAP1 POP PUSH2 0x13F6 JUMP JUMPDEST PUSH1 0x0 JUMPDEST SWAP1 POP JUMPDEST SWAP4 SWAP3 POP POP POP JUMP JUMPDEST PUSH1 0x0 DUP1 SLOAD PUSH1 0x1 PUSH1 0x1 PUSH1 0xA0 SHL SUB AND CALLER EQ PUSH2 0x141C JUMPI PUSH2 0x107C PUSH1 0x1 PUSH1 0xB PUSH2 0x28DC JUMP JUMPDEST PUSH2 0x1424 PUSH2 0x336E JUMP JUMPDEST POP PUSH1 0x40 DUP1 MLOAD PUSH1 0x20 DUP2 ADD SWAP1 SWAP2 MSTORE DUP3 DUP2 MSTORE PUSH2 0x143B PUSH2 0x336E JUMP JUMPDEST POP PUSH1 0x40 DUP1 MLOAD PUSH1 0x20 DUP2 ADD SWAP1 SWAP2 MSTORE PUSH8 0xDE0B6B3A7640000 DUP2 MSTORE PUSH2 0x145C DUP3 DUP3 PUSH2 0x294A JUMP JUMPDEST ISZERO PUSH2 0x146D JUMPI PUSH2 0x10D2 PUSH1 0x7 PUSH1 0xC PUSH2 0x28DC JUMP JUMPDEST PUSH2 0x1475 PUSH2 0x336E JUMP JUMPDEST POP PUSH1 0x40 DUP1 MLOAD PUSH1 0x20 DUP2 ADD SWAP1 SWAP2 MSTORE PUSH8 0x14D1120D7B160000 DUP2 MSTORE PUSH2 0x1496 DUP2 DUP5 PUSH2 0x294A JUMP JUMPDEST ISZERO PUSH2 0x14A7 JUMPI PUSH2 0x1114 PUSH1 0x7 PUSH1 0xC PUSH2 0x28DC JUMP JUMPDEST PUSH1 0x6 DUP1 SLOAD SWAP1 DUP7 SWAP1 SSTORE PUSH1 0x40 DUP1 MLOAD DUP3 DUP2 MSTORE PUSH1 0x20 DUP2 ADD DUP9 SWAP1 MSTORE DUP2 MLOAD PUSH32 0xAEBA5A6C40A8AC138134BFF1AAA65DEBF25971188A58804BAD717F82F0EC1316 SWAP3 SWAP2 DUP2 SWAP1 SUB SWAP1 SWAP2 ADD SWAP1 LOG1 PUSH1 0x0 PUSH2 0x1164 JUMP JUMPDEST DUP1 ISZERO DUP1 ISZERO PUSH2 0x14FF JUMPI POP PUSH1 0x0 DUP3 GT JUMPDEST ISZERO PUSH2 0x1319 JUMPI PUSH1 0x40 DUP1 MLOAD PUSH3 0x461BCD PUSH1 0xE5 SHL DUP2 MSTORE PUSH1 0x20 PUSH1 0x4 DUP3 ADD MSTORE PUSH1 0x11 PUSH1 0x24 DUP3 ADD MSTORE PUSH17 0x72656465656D546F6B656E73207A65726F PUSH1 0x78 SHL PUSH1 0x44 DUP3 ADD MSTORE SWAP1 MLOAD SWAP1 DUP2 SWAP1 SUB PUSH1 0x64 ADD SWAP1 REVERT JUMPDEST PUSH1 0x0 DUP1 SLOAD PUSH1 0x1 PUSH1 0x1 PUSH1 0xA0 SHL SUB AND CALLER EQ PUSH2 0x1564 JUMPI PUSH2 0x107C PUSH1 0x1 PUSH1 0x10 PUSH2 0x28DC JUMP JUMPDEST PUSH1 0x4 DUP1 SLOAD PUSH1 0x1 PUSH1 0x1 PUSH1 0xA0 SHL SUB DUP5 DUP2 AND PUSH1 0x1 PUSH1 0x1 PUSH1 0xA0 SHL SUB NOT DUP4 AND DUP2 OR SWAP1 SWAP4 SSTORE PUSH1 0x40 DUP1 MLOAD SWAP2 SWAP1 SWAP3 AND DUP1 DUP3 MSTORE PUSH1 0x20 DUP3 ADD SWAP4 SWAP1 SWAP4 MSTORE DUP2 MLOAD PUSH32 0xD52B2B9B7E9EE655FCB95D2E5B9E0C9F69E7EF2B8E9D2D0EA78402D576D22E22 SWAP3 SWAP2 DUP2 SWAP1 SUB SWAP1 SWAP2 ADD SWAP1 LOG1 PUSH1 0x0 SWAP4 SWAP3 POP POP POP JUMP JUMPDEST POP POP POP JUMP JUMPDEST PUSH1 0x0 DUP1 PUSH1 0x0 DUP1 PUSH1 0x0 DUP1 PUSH2 0x15E8 DUP8 PUSH1 0x0 DUP1 PUSH1 0x0 PUSH2 0x2951 JUMP JUMPDEST SWAP3 POP SWAP3 POP SWAP3 POP DUP3 PUSH1 0x11 DUP2 GT ISZERO PUSH2 0x15FA JUMPI INVALID JUMPDEST SWAP8 SWAP2 SWAP7 POP SWAP5 POP SWAP3 POP POP POP JUMP JUMPDEST PUSH1 0x0 DUP1 SLOAD PUSH1 0x1 PUSH1 0x1 PUSH1 0xA0 SHL SUB AND CALLER EQ PUSH2 0x1625 JUMPI PUSH2 0x107C PUSH1 0x1 PUSH1 0x13 PUSH2 0x28DC JUMP JUMPDEST PUSH1 0xA DUP1 SLOAD PUSH1 0x1 PUSH1 0x1 PUSH1 0xA0 SHL SUB DUP5 DUP2 AND PUSH1 0x1 PUSH1 0x1 PUSH1 0xA0 SHL SUB NOT DUP4 AND OR SWAP3 DUP4 SWAP1 SSTORE PUSH1 0x40 DUP1 MLOAD SWAP3 DUP3 AND DUP1 DUP5 MSTORE SWAP4 SWAP1 SWAP2 AND PUSH1 0x20 DUP4 ADD MSTORE DUP1 MLOAD PUSH32 0x613B6EE6A04F0D09F390E4D9318894B9F6AC7FD83897CD8D18896BA579C401E SWAP3 DUP2 SWAP1 SUB SWAP1 SWAP2 ADD SWAP1 LOG1 PUSH1 0x0 PUSH2 0x13F6 JUMP JUMPDEST PUSH1 0x1 PUSH1 0x1 PUSH1 0xA0 SHL SUB DUP6 AND PUSH1 0x0 SWAP1 DUP2 MSTORE PUSH1 0x9 PUSH1 0x20 MSTORE PUSH1 0x40 DUP2 KECCAK256 SLOAD PUSH1 0xFF AND ISZERO DUP1 PUSH2 0x16CB JUMPI POP PUSH1 0x1 PUSH1 0x1 PUSH1 0xA0 SHL SUB DUP6 AND PUSH1 0x0 SWAP1 DUP2 MSTORE PUSH1 0x9 PUSH1 0x20 MSTORE PUSH1 0x40 SWAP1 KECCAK256 SLOAD PUSH1 0xFF AND ISZERO JUMPDEST ISZERO PUSH2 0x16DA JUMPI PUSH1 0x9 JUMPDEST SWAP1 POP PUSH2 0x1808 JUMP JUMPDEST PUSH1 0x0 DUP1 PUSH2 0x16E6 DUP6 PUSH2 0x2D6C JUMP JUMPDEST SWAP2 SWAP4 POP SWAP1 SWAP2 POP PUSH1 0x0 SWAP1 POP DUP3 PUSH1 0x11 DUP2 GT ISZERO PUSH2 0x16FC JUMPI INVALID JUMPDEST EQ PUSH2 0x1716 JUMPI DUP2 PUSH1 0x11 DUP2 GT ISZERO PUSH2 0x170D JUMPI INVALID JUMPDEST SWAP3 POP POP POP PUSH2 0x1808 JUMP JUMPDEST DUP1 PUSH2 0x1722 JUMPI PUSH1 0x3 PUSH2 0x170D JUMP JUMPDEST PUSH1 0x0 DUP9 PUSH1 0x1 PUSH1 0x1 PUSH1 0xA0 SHL SUB AND PUSH4 0x95DD9193 DUP8 PUSH1 0x40 MLOAD DUP3 PUSH4 0xFFFFFFFF AND PUSH1 0xE0 SHL DUP2 MSTORE PUSH1 0x4 ADD DUP1 DUP3 PUSH1 0x1 PUSH1 0x1 PUSH1 0xA0 SHL SUB AND PUSH1 0x1 PUSH1 0x1 PUSH1 0xA0 SHL SUB AND DUP2 MSTORE PUSH1 0x20 ADD SWAP2 POP POP PUSH1 0x20 PUSH1 0x40 MLOAD DUP1 DUP4 SUB DUP2 DUP7 DUP1 EXTCODESIZE ISZERO DUP1 ISZERO PUSH2 0x177A JUMPI PUSH1 0x0 DUP1 REVERT JUMPDEST POP GAS STATICCALL ISZERO DUP1 ISZERO PUSH2 0x178E JUMPI RETURNDATASIZE PUSH1 0x0 DUP1 RETURNDATACOPY RETURNDATASIZE PUSH1 0x0 REVERT JUMPDEST POP POP POP POP PUSH1 0x40 MLOAD RETURNDATASIZE PUSH1 0x20 DUP2 LT ISZERO PUSH2 0x17A4 JUMPI PUSH1 0x0 DUP1 REVERT JUMPDEST POP MLOAD PUSH1 0x40 DUP1 MLOAD PUSH1 0x20 DUP2 ADD SWAP1 SWAP2 MSTORE PUSH1 0x5 SLOAD DUP2 MSTORE SWAP1 SWAP2 POP PUSH1 0x0 SWAP1 DUP2 SWAP1 PUSH2 0x17C8 SWAP1 DUP5 PUSH2 0x2D8C JUMP JUMPDEST SWAP1 SWAP3 POP SWAP1 POP PUSH1 0x0 DUP3 PUSH1 0x3 DUP2 GT ISZERO PUSH2 0x17DB JUMPI INVALID JUMPDEST EQ PUSH2 0x17EF JUMPI PUSH1 0xB JUMPDEST SWAP6 POP POP POP POP POP POP PUSH2 0x1808 JUMP JUMPDEST DUP1 DUP8 GT ISZERO PUSH2 0x17FE JUMPI PUSH1 0x11 PUSH2 0x17E3 JUMP JUMPDEST PUSH1 0x0 SWAP6 POP POP POP POP POP POP JUMPDEST SWAP6 SWAP5 POP POP POP POP POP JUMP JUMPDEST PUSH1 0xC PUSH1 0x20 MSTORE PUSH1 0x0 SWAP1 DUP2 MSTORE PUSH1 0x40 SWAP1 KECCAK256 SLOAD PUSH1 0xFF AND DUP2 JUMP JUMPDEST PUSH1 0xB PUSH1 0x20 MSTORE PUSH1 0x0 SWAP1 DUP2 MSTORE PUSH1 0x40 SWAP1 KECCAK256 SLOAD PUSH1 0xFF AND DUP2 JUMP JUMPDEST PUSH1 0x4 SLOAD PUSH1 0x1 PUSH1 0x1 PUSH1 0xA0 SHL SUB AND DUP2 JUMP JUMPDEST PUSH1 0xA SLOAD PUSH1 0x1 PUSH1 0xB0 SHL SWAP1 DIV PUSH1 0xFF AND DUP2 JUMP JUMPDEST PUSH1 0x9 PUSH1 0x20 MSTORE PUSH1 0x0 SWAP1 DUP2 MSTORE PUSH1 0x40 SWAP1 KECCAK256 DUP1 SLOAD PUSH1 0x1 DUP3 ADD SLOAD PUSH1 0x3 SWAP1 SWAP3 ADD SLOAD PUSH1 0xFF SWAP2 DUP3 AND SWAP3 SWAP2 AND DUP4 JUMP JUMPDEST PUSH1 0xA SLOAD PUSH1 0x0 SWAP1 PUSH1 0x1 PUSH1 0x1 PUSH1 0xA0 SHL SUB AND CALLER EQ DUP1 PUSH2 0x18A6 JUMPI POP PUSH1 0x0 SLOAD PUSH1 0x1 PUSH1 0x1 PUSH1 0xA0 SHL SUB AND CALLER EQ JUMPDEST PUSH2 0x18E1 JUMPI PUSH1 0x40 MLOAD PUSH3 0x461BCD PUSH1 0xE5 SHL DUP2 MSTORE PUSH1 0x4 ADD DUP1 DUP1 PUSH1 0x20 ADD DUP3 DUP2 SUB DUP3 MSTORE PUSH1 0x27 DUP2 MSTORE PUSH1 0x20 ADD DUP1 PUSH2 0x3459 PUSH1 0x27 SWAP2 CODECOPY PUSH1 0x40 ADD SWAP2 POP POP PUSH1 0x40 MLOAD DUP1 SWAP2 SUB SWAP1 REVERT JUMPDEST PUSH1 0x0 SLOAD PUSH1 0x1 PUSH1 0x1 PUSH1 0xA0 SHL SUB AND CALLER EQ DUP1 PUSH2 0x18FC JUMPI POP PUSH1 0x1 DUP3 ISZERO ISZERO EQ JUMPDEST PUSH2 0x1946 JUMPI PUSH1 0x40 DUP1 MLOAD PUSH3 0x461BCD PUSH1 0xE5 SHL DUP2 MSTORE PUSH1 0x20 PUSH1 0x4 DUP3 ADD MSTORE PUSH1 0x16 PUSH1 0x24 DUP3 ADD MSTORE PUSH22 0x6F6E6C792061646D696E2063616E20756E7061757365 PUSH1 0x50 SHL PUSH1 0x44 DUP3 ADD MSTORE SWAP1 MLOAD SWAP1 DUP2 SWAP1 SUB PUSH1 0x64 ADD SWAP1 REVERT JUMPDEST PUSH1 0xA DUP1 SLOAD DUP4 ISZERO ISZERO PUSH1 0x1 PUSH1 0xB0 SHL DUP2 MUL PUSH1 0xFF PUSH1 0xB0 SHL NOT SWAP1 SWAP3 AND SWAP2 SWAP1 SWAP2 OR SWAP1 SWAP2 SSTORE PUSH1 0x40 DUP1 MLOAD PUSH1 0x20 DUP2 ADD SWAP3 SWAP1 SWAP3 MSTORE DUP1 DUP3 MSTORE PUSH1 0x8 DUP3 DUP3 ADD MSTORE PUSH8 0x2A3930B739B332B9 PUSH1 0xC1 SHL PUSH1 0x60 DUP4 ADD MSTORE MLOAD PUSH32 0xEF159D9A32B2472E32B098F954F3CE62D232939F1C207070B584DF1814DE2DE0 SWAP2 DUP2 SWAP1 SUB PUSH1 0x80 ADD SWAP1 LOG1 POP SWAP1 JUMP JUMPDEST PUSH1 0x1 PUSH1 0x1 PUSH1 0xA0 SHL SUB DUP1 DUP3 AND PUSH1 0x0 SWAP1 DUP2 MSTORE PUSH1 0x9 PUSH1 0x20 SWAP1 DUP2 MSTORE PUSH1 0x40 DUP1 DUP4 KECCAK256 SWAP4 DUP7 AND DUP4 MSTORE PUSH1 0x2 SWAP1 SWAP4 ADD SWAP1 MSTORE KECCAK256 SLOAD PUSH1 0xFF AND SWAP3 SWAP2 POP POP JUMP JUMPDEST PUSH1 0x7 SLOAD DUP2 JUMP JUMPDEST PUSH1 0x0 DUP1 SLOAD PUSH1 0x1 PUSH1 0x1 PUSH1 0xA0 SHL SUB AND CALLER EQ PUSH2 0x1A11 JUMPI PUSH2 0x107C PUSH1 0x1 PUSH1 0x12 PUSH2 0x28DC JUMP JUMPDEST PUSH1 0x1 PUSH1 0x1 PUSH1 0xA0 SHL SUB DUP3 AND PUSH1 0x0 SWAP1 DUP2 MSTORE PUSH1 0x9 PUSH1 0x20 MSTORE PUSH1 0x40 SWAP1 KECCAK256 SLOAD PUSH1 0xFF AND ISZERO PUSH2 0x1A3E JUMPI PUSH2 0x107C PUSH1 0xA PUSH1 0x11 PUSH2 0x28DC JUMP JUMPDEST DUP2 PUSH1 0x1 PUSH1 0x1 PUSH1 0xA0 SHL SUB AND PUSH4 0xFE9C44AE PUSH1 0x40 MLOAD DUP2 PUSH4 0xFFFFFFFF AND PUSH1 0xE0 SHL DUP2 MSTORE PUSH1 0x4 ADD PUSH1 0x20 PUSH1 0x40 MLOAD DUP1 DUP4 SUB DUP2 DUP7 DUP1 EXTCODESIZE ISZERO DUP1 ISZERO PUSH2 0x1A77 JUMPI PUSH1 0x0 DUP1 REVERT JUMPDEST POP GAS STATICCALL ISZERO DUP1 ISZERO PUSH2 0x1A8B JUMPI RETURNDATASIZE PUSH1 0x0 DUP1 RETURNDATACOPY RETURNDATASIZE PUSH1 0x0 REVERT JUMPDEST POP POP POP POP PUSH1 0x40 MLOAD RETURNDATASIZE PUSH1 0x20 DUP2 LT ISZERO PUSH2 0x1AA1 JUMPI PUSH1 0x0 DUP1 REVERT JUMPDEST POP POP PUSH1 0x40 DUP1 MLOAD PUSH1 0x60 DUP2 ADD DUP3 MSTORE PUSH1 0x1 DUP1 DUP3 MSTORE PUSH1 0x0 PUSH1 0x20 DUP4 DUP2 ADD DUP3 DUP2 MSTORE DUP5 DUP7 ADD DUP4 DUP2 MSTORE PUSH1 0x1 PUSH1 0x1 PUSH1 0xA0 SHL SUB DUP10 AND DUP1 DUP6 MSTORE PUSH1 0x9 DUP5 MSTORE SWAP4 DUP8 SWAP1 KECCAK256 SWAP6 MLOAD DUP7 SLOAD SWAP1 ISZERO ISZERO PUSH1 0xFF NOT SWAP2 DUP3 AND OR DUP8 SSTORE SWAP2 MLOAD SWAP5 DUP7 ADD SWAP5 SWAP1 SWAP5 SSTORE SWAP3 MLOAD PUSH1 0x3 SWAP1 SWAP5 ADD DUP1 SLOAD SWAP5 ISZERO ISZERO SWAP5 SWAP1 SWAP4 AND SWAP4 SWAP1 SWAP4 OR SWAP1 SWAP2 SSTORE DUP3 MLOAD SWAP1 DUP2 MSTORE SWAP2 MLOAD PUSH32 0xCF583BB0C569EB967F806B11601C4CB93C10310485C67ADD5F8362C2F212321F SWAP3 DUP2 SWAP1 SUB SWAP1 SWAP2 ADD SWAP1 LOG1 PUSH1 0x0 SWAP3 SWAP2 POP POP JUMP JUMPDEST PUSH1 0x60 DUP1 PUSH1 0x8 PUSH1 0x0 DUP5 PUSH1 0x1 PUSH1 0x1 PUSH1 0xA0 SHL SUB AND PUSH1 0x1 PUSH1 0x1 PUSH1 0xA0 SHL SUB AND DUP2 MSTORE PUSH1 0x20 ADD SWAP1 DUP2 MSTORE PUSH1 0x20 ADD PUSH1 0x0 KECCAK256 DUP1 SLOAD DUP1 PUSH1 0x20 MUL PUSH1 0x20 ADD PUSH1 0x40 MLOAD SWAP1 DUP2 ADD PUSH1 0x40 MSTORE DUP1 SWAP3 SWAP2 SWAP1 DUP2 DUP2 MSTORE PUSH1 0x20 ADD DUP3 DUP1 SLOAD DUP1 ISZERO PUSH2 0x1BBC JUMPI PUSH1 0x20 MUL DUP3 ADD SWAP2 SWAP1 PUSH1 0x0 MSTORE PUSH1 0x20 PUSH1 0x0 KECCAK256 SWAP1 JUMPDEST DUP2 SLOAD PUSH1 0x1 PUSH1 0x1 PUSH1 0xA0 SHL SUB AND DUP2 MSTORE PUSH1 0x1 SWAP1 SWAP2 ADD SWAP1 PUSH1 0x20 ADD DUP1 DUP4 GT PUSH2 0x1B9E JUMPI JUMPDEST POP SWAP4 SWAP8 SWAP7 POP POP POP POP POP POP POP JUMP JUMPDEST PUSH1 0xA SLOAD PUSH1 0x1 PUSH1 0xB8 SHL SWAP1 DIV PUSH1 0xFF AND DUP2 JUMP JUMPDEST PUSH1 0x2 SLOAD PUSH1 0x1 PUSH1 0x1 PUSH1 0xA0 SHL SUB AND DUP2 JUMP JUMPDEST PUSH1 0xA SLOAD PUSH1 0x0 SWAP1 PUSH1 0x1 PUSH1 0xB0 SHL SWAP1 DIV PUSH1 0xFF AND ISZERO PUSH2 0x1C3F JUMPI PUSH1 0x40 DUP1 MLOAD PUSH3 0x461BCD PUSH1 0xE5 SHL DUP2 MSTORE PUSH1 0x20 PUSH1 0x4 DUP3 ADD MSTORE PUSH1 0x12 PUSH1 0x24 DUP3 ADD MSTORE PUSH18 0x1D1C985B9CD9995C881A5CC81C185D5CD959 PUSH1 0x72 SHL PUSH1 0x44 DUP3 ADD MSTORE SWAP1 MLOAD SWAP1 DUP2 SWAP1 SUB PUSH1 0x64 ADD SWAP1 REVERT JUMPDEST PUSH2 0xEFA DUP6 DUP6 DUP5 PUSH2 0x2DE0 JUMP JUMPDEST PUSH1 0x60 PUSH1 0x0 DUP3 MLOAD SWAP1 POP PUSH1 0x60 DUP2 PUSH1 0x40 MLOAD SWAP1 DUP1 DUP3 MSTORE DUP1 PUSH1 0x20 MUL PUSH1 0x20 ADD DUP3 ADD PUSH1 0x40 MSTORE DUP1 ISZERO PUSH2 0x1C7E JUMPI DUP2 PUSH1 0x20 ADD PUSH1 0x20 DUP3 MUL DUP1 CODESIZE DUP4 CODECOPY ADD SWAP1 POP JUMPDEST POP SWAP1 POP PUSH1 0x0 JUMPDEST DUP3 DUP2 LT ISZERO PUSH2 0x1CD9 JUMPI PUSH1 0x0 DUP6 DUP3 DUP2 MLOAD DUP2 LT PUSH2 0x1C9A JUMPI INVALID JUMPDEST PUSH1 0x20 MUL PUSH1 0x20 ADD ADD MLOAD SWAP1 POP PUSH2 0x1CAE DUP2 CALLER PUSH2 0x2E4F JUMP JUMPDEST PUSH1 0x11 DUP2 GT ISZERO PUSH2 0x1CB9 JUMPI INVALID JUMPDEST DUP4 DUP4 DUP2 MLOAD DUP2 LT PUSH2 0x1CC5 JUMPI INVALID JUMPDEST PUSH1 0x20 SWAP1 DUP2 MUL SWAP2 SWAP1 SWAP2 ADD ADD MSTORE POP PUSH1 0x1 ADD PUSH2 0x1C84 JUMP JUMPDEST POP SWAP4 SWAP3 POP POP POP JUMP JUMPDEST PUSH1 0x4 DUP1 SLOAD PUSH1 0x40 DUP1 MLOAD PUSH4 0xFC57D4DF PUSH1 0xE0 SHL DUP2 MSTORE PUSH1 0x1 PUSH1 0x1 PUSH1 0xA0 SHL SUB DUP8 DUP2 AND SWAP5 DUP3 ADD SWAP5 SWAP1 SWAP5 MSTORE SWAP1 MLOAD PUSH1 0x0 SWAP4 DUP5 SWAP4 DUP5 SWAP4 SWAP2 AND SWAP2 PUSH4 0xFC57D4DF SWAP2 PUSH1 0x24 DUP1 DUP3 ADD SWAP3 PUSH1 0x20 SWAP3 SWAP1 SWAP2 SWAP1 DUP3 SWAP1 SUB ADD DUP2 DUP7 DUP1 EXTCODESIZE ISZERO DUP1 ISZERO PUSH2 0x1D37 JUMPI PUSH1 0x0 DUP1 REVERT JUMPDEST POP GAS STATICCALL ISZERO DUP1 ISZERO PUSH2 0x1D4B JUMPI RETURNDATASIZE PUSH1 0x0 DUP1 RETURNDATACOPY RETURNDATASIZE PUSH1 0x0 REVERT JUMPDEST POP POP POP POP PUSH1 0x40 MLOAD RETURNDATASIZE PUSH1 0x20 DUP2 LT ISZERO PUSH2 0x1D61 JUMPI PUSH1 0x0 DUP1 REVERT JUMPDEST POP MLOAD PUSH1 0x4 DUP1 SLOAD PUSH1 0x40 DUP1 MLOAD PUSH4 0xFC57D4DF PUSH1 0xE0 SHL DUP2 MSTORE PUSH1 0x1 PUSH1 0x1 PUSH1 0xA0 SHL SUB DUP11 DUP2 AND SWAP5 DUP3 ADD SWAP5 SWAP1 SWAP5 MSTORE SWAP1 MLOAD SWAP4 SWAP5 POP PUSH1 0x0 SWAP4 SWAP3 SWAP1 SWAP2 AND SWAP2 PUSH4 0xFC57D4DF SWAP2 PUSH1 0x24 DUP1 DUP3 ADD SWAP3 PUSH1 0x20 SWAP3 SWAP1 SWAP2 SWAP1 DUP3 SWAP1 SUB ADD DUP2 DUP7 DUP1 EXTCODESIZE ISZERO DUP1 ISZERO PUSH2 0x1DBA JUMPI PUSH1 0x0 DUP1 REVERT JUMPDEST POP GAS STATICCALL ISZERO DUP1 ISZERO PUSH2 0x1DCE JUMPI RETURNDATASIZE PUSH1 0x0 DUP1 RETURNDATACOPY RETURNDATASIZE PUSH1 0x0 REVERT JUMPDEST POP POP POP POP PUSH1 0x40 MLOAD RETURNDATASIZE PUSH1 0x20 DUP2 LT ISZERO PUSH2 0x1DE4 JUMPI PUSH1 0x0 DUP1 REVERT JUMPDEST POP MLOAD SWAP1 POP DUP2 ISZERO DUP1 PUSH2 0x1DF3 JUMPI POP DUP1 ISZERO JUMPDEST ISZERO PUSH2 0x1E08 JUMPI PUSH1 0xD SWAP4 POP PUSH1 0x0 SWAP3 POP PUSH2 0x1F4E SWAP2 POP POP JUMP JUMPDEST PUSH1 0x0 DUP7 PUSH1 0x1 PUSH1 0x1 PUSH1 0xA0 SHL SUB AND PUSH4 0x182DF0F5 PUSH1 0x40 MLOAD DUP2 PUSH4 0xFFFFFFFF AND PUSH1 0xE0 SHL DUP2 MSTORE PUSH1 0x4 ADD PUSH1 0x20 PUSH1 0x40 MLOAD DUP1 DUP4 SUB DUP2 DUP7 DUP1 EXTCODESIZE ISZERO DUP1 ISZERO PUSH2 0x1E43 JUMPI PUSH1 0x0 DUP1 REVERT JUMPDEST POP GAS STATICCALL ISZERO DUP1 ISZERO PUSH2 0x1E57 JUMPI RETURNDATASIZE PUSH1 0x0 DUP1 RETURNDATACOPY RETURNDATASIZE PUSH1 0x0 REVERT JUMPDEST POP POP POP POP PUSH1 0x40 MLOAD RETURNDATASIZE PUSH1 0x20 DUP2 LT ISZERO PUSH2 0x1E6D JUMPI PUSH1 0x0 DUP1 REVERT JUMPDEST POP MLOAD SWAP1 POP PUSH1 0x0 PUSH2 0x1E7B PUSH2 0x336E JUMP JUMPDEST PUSH2 0x1E83 PUSH2 0x336E JUMP JUMPDEST PUSH2 0x1E8B PUSH2 0x336E JUMP JUMPDEST PUSH1 0x0 PUSH2 0x1E99 PUSH1 0x6 SLOAD DUP10 PUSH2 0x2F70 JUMP JUMPDEST SWAP5 POP SWAP1 POP PUSH1 0x0 DUP2 PUSH1 0x3 DUP2 GT ISZERO PUSH2 0x1EAB JUMPI INVALID JUMPDEST EQ PUSH2 0x1EC7 JUMPI PUSH1 0xB JUMPDEST SWAP10 POP PUSH1 0x0 SWAP9 POP PUSH2 0x1F4E SWAP8 POP POP POP POP POP POP POP POP JUMP JUMPDEST PUSH2 0x1ED1 DUP8 DUP8 PUSH2 0x2F70 JUMP JUMPDEST SWAP4 POP SWAP1 POP PUSH1 0x0 DUP2 PUSH1 0x3 DUP2 GT ISZERO PUSH2 0x1EE3 JUMPI INVALID JUMPDEST EQ PUSH2 0x1EEF JUMPI PUSH1 0xB PUSH2 0x1EB3 JUMP JUMPDEST PUSH2 0x1EF9 DUP5 DUP5 PUSH2 0x2FAB JUMP JUMPDEST SWAP3 POP SWAP1 POP PUSH1 0x0 DUP2 PUSH1 0x3 DUP2 GT ISZERO PUSH2 0x1F0B JUMPI INVALID JUMPDEST EQ PUSH2 0x1F17 JUMPI PUSH1 0xB PUSH2 0x1EB3 JUMP JUMPDEST PUSH2 0x1F21 DUP3 DUP13 PUSH2 0x2D8C JUMP JUMPDEST SWAP6 POP SWAP1 POP PUSH1 0x0 DUP2 PUSH1 0x3 DUP2 GT ISZERO PUSH2 0x1F33 JUMPI INVALID JUMPDEST EQ PUSH2 0x1F3F JUMPI PUSH1 0xB PUSH2 0x1EB3 JUMP JUMPDEST PUSH1 0x0 SWAP10 POP SWAP4 SWAP8 POP POP POP POP POP POP POP POP JUMPDEST SWAP4 POP SWAP4 SWAP2 POP POP JUMP JUMPDEST PUSH1 0xA SLOAD PUSH1 0x0 SWAP1 PUSH1 0x1 PUSH1 0xB8 SHL SWAP1 DIV PUSH1 0xFF AND ISZERO PUSH2 0x1FAA JUMPI PUSH1 0x40 DUP1 MLOAD PUSH3 0x461BCD PUSH1 0xE5 SHL DUP2 MSTORE PUSH1 0x20 PUSH1 0x4 DUP3 ADD MSTORE PUSH1 0xF PUSH1 0x24 DUP3 ADD MSTORE PUSH15 0x1CD95A5E99481A5CC81C185D5CD959 PUSH1 0x8A SHL PUSH1 0x44 DUP3 ADD MSTORE SWAP1 MLOAD SWAP1 DUP2 SWAP1 SUB PUSH1 0x64 ADD SWAP1 REVERT JUMPDEST PUSH1 0x1 PUSH1 0x1 PUSH1 0xA0 SHL SUB DUP7 AND PUSH1 0x0 SWAP1 DUP2 MSTORE PUSH1 0x9 PUSH1 0x20 MSTORE PUSH1 0x40 SWAP1 KECCAK256 SLOAD PUSH1 0xFF AND ISZERO DUP1 PUSH2 0x1FEB JUMPI POP PUSH1 0x1 PUSH1 0x1 PUSH1 0xA0 SHL SUB DUP6 AND PUSH1 0x0 SWAP1 DUP2 MSTORE PUSH1 0x9 PUSH1 0x20 MSTORE PUSH1 0x40 SWAP1 KECCAK256 SLOAD PUSH1 0xFF AND ISZERO JUMPDEST ISZERO PUSH2 0x1FF7 JUMPI PUSH1 0x9 PUSH2 0x16D3 JUMP JUMPDEST DUP5 PUSH1 0x1 PUSH1 0x1 PUSH1 0xA0 SHL SUB AND PUSH4 0x5FE3B567 PUSH1 0x40 MLOAD DUP2 PUSH4 0xFFFFFFFF AND PUSH1 0xE0 SHL DUP2 MSTORE PUSH1 0x4 ADD PUSH1 0x20 PUSH1 0x40 MLOAD DUP1 DUP4 SUB DUP2 DUP7 DUP1 EXTCODESIZE ISZERO DUP1 ISZERO PUSH2 0x2030 JUMPI PUSH1 0x0 DUP1 REVERT JUMPDEST POP GAS STATICCALL ISZERO DUP1 ISZERO PUSH2 0x2044 JUMPI RETURNDATASIZE PUSH1 0x0 DUP1 RETURNDATACOPY RETURNDATASIZE PUSH1 0x0 REVERT JUMPDEST POP POP POP POP PUSH1 0x40 MLOAD RETURNDATASIZE PUSH1 0x20 DUP2 LT ISZERO PUSH2 0x205A JUMPI PUSH1 0x0 DUP1 REVERT JUMPDEST POP MLOAD PUSH1 0x40 DUP1 MLOAD PUSH4 0x5FE3B567 PUSH1 0xE0 SHL DUP2 MSTORE SWAP1 MLOAD PUSH1 0x1 PUSH1 0x1 PUSH1 0xA0 SHL SUB SWAP3 DUP4 AND SWAP3 DUP10 AND SWAP2 PUSH4 0x5FE3B567 SWAP2 PUSH1 0x4 DUP1 DUP4 ADD SWAP3 PUSH1 0x20 SWAP3 SWAP2 SWAP1 DUP3 SWAP1 SUB ADD DUP2 DUP7 DUP1 EXTCODESIZE ISZERO DUP1 ISZERO PUSH2 0x20A0 JUMPI PUSH1 0x0 DUP1 REVERT JUMPDEST POP GAS STATICCALL ISZERO DUP1 ISZERO PUSH2 0x20B4 JUMPI RETURNDATASIZE PUSH1 0x0 DUP1 RETURNDATACOPY RETURNDATASIZE PUSH1 0x0 REVERT JUMPDEST POP POP POP POP PUSH1 0x40 MLOAD RETURNDATASIZE PUSH1 0x20 DUP2 LT ISZERO PUSH2 0x20CA JUMPI PUSH1 0x0 DUP1 REVERT JUMPDEST POP MLOAD PUSH1 0x1 PUSH1 0x1 PUSH1 0xA0 SHL SUB AND EQ PUSH2 0x20E1 JUMPI PUSH1 0x2 PUSH2 0x16D3 JUMP JUMPDEST PUSH1 0x0 SWAP7 SWAP6 POP POP POP POP POP POP JUMP JUMPDEST PUSH1 0x0 DUP1 SLOAD PUSH1 0x1 PUSH1 0x1 PUSH1 0xA0 SHL SUB AND CALLER EQ PUSH2 0x210C JUMPI PUSH2 0x107C PUSH1 0x1 PUSH1 0xD PUSH2 0x28DC JUMP JUMPDEST PUSH1 0x7 DUP1 SLOAD SWAP1 DUP4 SWAP1 SSTORE PUSH1 0x40 DUP1 MLOAD DUP3 DUP2 MSTORE PUSH1 0x20 DUP2 ADD DUP6 SWAP1 MSTORE DUP2 MLOAD PUSH32 0x7093CF1EB653F749C3FF531D6DF7F92764536A7FA0D13530CD26E070780C32EA SWAP3 SWAP2 DUP2 SWAP1 SUB SWAP1 SWAP2 ADD SWAP1 LOG1 PUSH1 0x0 PUSH2 0x13F6 JUMP JUMPDEST PUSH1 0x1 PUSH1 0x1 PUSH1 0xA0 SHL SUB DUP4 AND PUSH1 0x0 SWAP1 DUP2 MSTORE PUSH1 0xC PUSH1 0x20 MSTORE PUSH1 0x40 DUP2 KECCAK256 SLOAD PUSH1 0xFF AND ISZERO PUSH2 0x21B7 JUMPI PUSH1 0x40 DUP1 MLOAD PUSH3 0x461BCD PUSH1 0xE5 SHL DUP2 MSTORE PUSH1 0x20 PUSH1 0x4 DUP3 ADD MSTORE PUSH1 0x10 PUSH1 0x24 DUP3 ADD MSTORE PUSH16 0x189BDC9C9BDDC81A5CC81C185D5CD959 PUSH1 0x82 SHL PUSH1 0x44 DUP3 ADD MSTORE SWAP1 MLOAD SWAP1 DUP2 SWAP1 SUB PUSH1 0x64 ADD SWAP1 REVERT JUMPDEST PUSH1 0x1 PUSH1 0x1 PUSH1 0xA0 SHL SUB DUP5 AND PUSH1 0x0 SWAP1 DUP2 MSTORE PUSH1 0x9 PUSH1 0x20 MSTORE PUSH1 0x40 SWAP1 KECCAK256 SLOAD PUSH1 0xFF AND PUSH2 0x21DE JUMPI PUSH1 0x9 PUSH2 0x13E9 JUMP JUMPDEST PUSH1 0x1 PUSH1 0x1 PUSH1 0xA0 SHL SUB DUP1 DUP6 AND PUSH1 0x0 SWAP1 DUP2 MSTORE PUSH1 0x9 PUSH1 0x20 SWAP1 DUP2 MSTORE PUSH1 0x40 DUP1 DUP4 KECCAK256 SWAP4 DUP8 AND DUP4 MSTORE PUSH1 0x2 SWAP1 SWAP4 ADD SWAP1 MSTORE KECCAK256 SLOAD PUSH1 0xFF AND PUSH2 0x22CE JUMPI CALLER PUSH1 0x1 PUSH1 0x1 PUSH1 0xA0 SHL SUB DUP6 AND EQ PUSH2 0x2264 JUMPI PUSH1 0x40 DUP1 MLOAD PUSH3 0x461BCD PUSH1 0xE5 SHL DUP2 MSTORE PUSH1 0x20 PUSH1 0x4 DUP3 ADD MSTORE PUSH1 0x15 PUSH1 0x24 DUP3 ADD MSTORE PUSH21 0x39B2B73232B91036BAB9BA1031329031AA37B5B2B7 PUSH1 0x59 SHL PUSH1 0x44 DUP3 ADD MSTORE SWAP1 MLOAD SWAP1 DUP2 SWAP1 SUB PUSH1 0x64 ADD SWAP1 REVERT JUMPDEST PUSH1 0x0 PUSH2 0x2270 CALLER DUP6 PUSH2 0x2E4F JUMP JUMPDEST SWAP1 POP PUSH1 0x0 DUP2 PUSH1 0x11 DUP2 GT ISZERO PUSH2 0x2280 JUMPI INVALID JUMPDEST EQ PUSH2 0x2299 JUMPI DUP1 PUSH1 0x11 DUP2 GT ISZERO PUSH2 0x2291 JUMPI INVALID JUMPDEST SWAP2 POP POP PUSH2 0x13F6 JUMP JUMPDEST PUSH1 0x1 PUSH1 0x1 PUSH1 0xA0 SHL SUB DUP1 DUP7 AND PUSH1 0x0 SWAP1 DUP2 MSTORE PUSH1 0x9 PUSH1 0x20 SWAP1 DUP2 MSTORE PUSH1 0x40 DUP1 DUP4 KECCAK256 SWAP4 DUP9 AND DUP4 MSTORE PUSH1 0x2 SWAP1 SWAP4 ADD SWAP1 MSTORE KECCAK256 SLOAD PUSH1 0xFF AND PUSH2 0x22CC JUMPI INVALID JUMPDEST POP JUMPDEST PUSH1 0x4 DUP1 SLOAD PUSH1 0x40 DUP1 MLOAD PUSH4 0xFC57D4DF PUSH1 0xE0 SHL DUP2 MSTORE PUSH1 0x1 PUSH1 0x1 PUSH1 0xA0 SHL SUB DUP9 DUP2 AND SWAP5 DUP3 ADD SWAP5 SWAP1 SWAP5 MSTORE SWAP1 MLOAD SWAP3 SWAP1 SWAP2 AND SWAP2 PUSH4 0xFC57D4DF SWAP2 PUSH1 0x24 DUP1 DUP3 ADD SWAP3 PUSH1 0x20 SWAP3 SWAP1 SWAP2 SWAP1 DUP3 SWAP1 SUB ADD DUP2 DUP7 DUP1 EXTCODESIZE ISZERO DUP1 ISZERO PUSH2 0x231F JUMPI PUSH1 0x0 DUP1 REVERT JUMPDEST POP GAS STATICCALL ISZERO DUP1 ISZERO PUSH2 0x2333 JUMPI RETURNDATASIZE PUSH1 0x0 DUP1 RETURNDATACOPY RETURNDATASIZE PUSH1 0x0 REVERT JUMPDEST POP POP POP POP PUSH1 0x40 MLOAD RETURNDATASIZE PUSH1 0x20 DUP2 LT ISZERO PUSH2 0x2349 JUMPI PUSH1 0x0 DUP1 REVERT JUMPDEST POP MLOAD PUSH2 0x2356 JUMPI PUSH1 0xD PUSH2 0x13E9 JUMP JUMPDEST PUSH1 0x0 DUP1 PUSH2 0x2366 DUP6 DUP8 PUSH1 0x0 DUP8 PUSH2 0x2951 JUMP JUMPDEST SWAP2 SWAP4 POP SWAP1 SWAP2 POP PUSH1 0x0 SWAP1 POP DUP3 PUSH1 0x11 DUP2 GT ISZERO PUSH2 0x237C JUMPI INVALID JUMPDEST EQ PUSH2 0x2396 JUMPI DUP2 PUSH1 0x11 DUP2 GT ISZERO PUSH2 0x238D JUMPI INVALID JUMPDEST SWAP3 POP POP POP PUSH2 0x13F6 JUMP JUMPDEST DUP1 ISZERO PUSH2 0x20E1 JUMPI PUSH1 0x4 PUSH2 0x238D JUMP JUMPDEST PUSH1 0x8 PUSH1 0x20 MSTORE DUP2 PUSH1 0x0 MSTORE PUSH1 0x40 PUSH1 0x0 KECCAK256 DUP2 DUP2 SLOAD DUP2 LT PUSH2 0x23BC JUMPI INVALID JUMPDEST PUSH1 0x0 SWAP2 DUP3 MSTORE PUSH1 0x20 SWAP1 SWAP2 KECCAK256 ADD SLOAD PUSH1 0x1 PUSH1 0x1 PUSH1 0xA0 SHL SUB AND SWAP2 POP DUP3 SWAP1 POP JUMP JUMPDEST PUSH1 0x3 SLOAD PUSH1 0x1 PUSH1 0x1 PUSH1 0xA0 SHL SUB AND DUP2 JUMP JUMPDEST PUSH1 0x0 DUP1 SLOAD PUSH1 0x1 PUSH1 0x1 PUSH1 0xA0 SHL SUB AND CALLER EQ PUSH2 0x240D JUMPI PUSH2 0x2406 PUSH1 0x1 PUSH1 0x6 PUSH2 0x28DC JUMP JUMPDEST SWAP1 POP PUSH2 0xD5D JUMP JUMPDEST PUSH1 0x1 PUSH1 0x1 PUSH1 0xA0 SHL SUB DUP4 AND PUSH1 0x0 SWAP1 DUP2 MSTORE PUSH1 0x9 PUSH1 0x20 MSTORE PUSH1 0x40 SWAP1 KECCAK256 DUP1 SLOAD PUSH1 0xFF AND PUSH2 0x2442 JUMPI PUSH2 0x243A PUSH1 0x9 PUSH1 0x7 PUSH2 0x28DC JUMP JUMPDEST SWAP2 POP POP PUSH2 0xD5D JUMP JUMPDEST PUSH2 0x244A PUSH2 0x336E JUMP JUMPDEST POP PUSH1 0x40 DUP1 MLOAD PUSH1 0x20 DUP2 ADD SWAP1 SWAP2 MSTORE DUP4 DUP2 MSTORE PUSH2 0x2461 PUSH2 0x336E JUMP JUMPDEST POP PUSH1 0x40 DUP1 MLOAD PUSH1 0x20 DUP2 ADD SWAP1 SWAP2 MSTORE PUSH8 0xC7D713B49DA0000 DUP2 MSTORE PUSH2 0x2482 DUP2 DUP4 PUSH2 0x294A JUMP JUMPDEST ISZERO PUSH2 0x249D JUMPI PUSH2 0x2493 PUSH1 0x6 PUSH1 0x8 PUSH2 0x28DC JUMP JUMPDEST SWAP4 POP POP POP POP PUSH2 0xD5D JUMP JUMPDEST DUP5 ISZERO DUP1 ISZERO SWAP1 PUSH2 0x2526 JUMPI POP PUSH1 0x4 DUP1 SLOAD PUSH1 0x40 DUP1 MLOAD PUSH4 0xFC57D4DF PUSH1 0xE0 SHL DUP2 MSTORE PUSH1 0x1 PUSH1 0x1 PUSH1 0xA0 SHL SUB DUP11 DUP2 AND SWAP5 DUP3 ADD SWAP5 SWAP1 SWAP5 MSTORE SWAP1 MLOAD SWAP3 SWAP1 SWAP2 AND SWAP2 PUSH4 0xFC57D4DF SWAP2 PUSH1 0x24 DUP1 DUP3 ADD SWAP3 PUSH1 0x20 SWAP3 SWAP1 SWAP2 SWAP1 DUP3 SWAP1 SUB ADD DUP2 DUP7 DUP1 EXTCODESIZE ISZERO DUP1 ISZERO PUSH2 0x24F8 JUMPI PUSH1 0x0 DUP1 REVERT JUMPDEST POP GAS STATICCALL ISZERO DUP1 ISZERO PUSH2 0x250C JUMPI RETURNDATASIZE PUSH1 0x0 DUP1 RETURNDATACOPY RETURNDATASIZE PUSH1 0x0 REVERT JUMPDEST POP POP POP POP PUSH1 0x40 MLOAD RETURNDATASIZE PUSH1 0x20 DUP2 LT ISZERO PUSH2 0x2522 JUMPI PUSH1 0x0 DUP1 REVERT JUMPDEST POP MLOAD ISZERO JUMPDEST ISZERO PUSH2 0x2537 JUMPI PUSH2 0x2493 PUSH1 0xD PUSH1 0x9 PUSH2 0x28DC JUMP JUMPDEST PUSH1 0x1 DUP4 ADD DUP1 SLOAD SWAP1 DUP7 SWAP1 SSTORE PUSH1 0x40 DUP1 MLOAD PUSH1 0x1 PUSH1 0x1 PUSH1 0xA0 SHL SUB DUP10 AND DUP2 MSTORE PUSH1 0x20 DUP2 ADD DUP4 SWAP1 MSTORE DUP1 DUP3 ADD DUP9 SWAP1 MSTORE SWAP1 MLOAD PUSH32 0x70483E6592CD5182D45AC970E05BC62CDCC90E9D8EF2C2DBE686CF383BCD7FC5 SWAP2 DUP2 SWAP1 SUB PUSH1 0x60 ADD SWAP1 LOG1 PUSH1 0x0 SWAP8 SWAP7 POP POP POP POP POP POP POP JUMP JUMPDEST PUSH1 0xA SLOAD PUSH1 0x1 PUSH1 0xA8 SHL SWAP1 DIV PUSH1 0xFF AND DUP2 JUMP JUMPDEST PUSH1 0x5 SLOAD DUP2 JUMP JUMPDEST PUSH1 0x0 PUSH2 0x13F3 DUP5 DUP5 DUP5 PUSH2 0x2DE0 JUMP JUMPDEST PUSH1 0x0 DUP1 DUP3 SWAP1 POP PUSH1 0x0 DUP1 PUSH1 0x0 DUP4 PUSH1 0x1 PUSH1 0x1 PUSH1 0xA0 SHL SUB AND PUSH4 0xC37F68E2 CALLER PUSH1 0x40 MLOAD DUP3 PUSH4 0xFFFFFFFF AND PUSH1 0xE0 SHL DUP2 MSTORE PUSH1 0x4 ADD DUP1 DUP3 PUSH1 0x1 PUSH1 0x1 PUSH1 0xA0 SHL SUB AND PUSH1 0x1 PUSH1 0x1 PUSH1 0xA0 SHL SUB AND DUP2 MSTORE PUSH1 0x20 ADD SWAP2 POP POP PUSH1 0x80 PUSH1 0x40 MLOAD DUP1 DUP4 SUB DUP2 DUP7 DUP1 EXTCODESIZE ISZERO DUP1 ISZERO PUSH2 0x261B JUMPI PUSH1 0x0 DUP1 REVERT JUMPDEST POP GAS STATICCALL ISZERO DUP1 ISZERO PUSH2 0x262F JUMPI RETURNDATASIZE PUSH1 0x0 DUP1 RETURNDATACOPY RETURNDATASIZE PUSH1 0x0 REVERT JUMPDEST POP POP POP POP PUSH1 0x40 MLOAD RETURNDATASIZE PUSH1 0x80 DUP2 LT ISZERO PUSH2 0x2645 JUMPI PUSH1 0x0 DUP1 REVERT JUMPDEST POP DUP1 MLOAD PUSH1 0x20 DUP3 ADD MLOAD PUSH1 0x40 SWAP1 SWAP3 ADD MLOAD SWAP1 SWAP5 POP SWAP1 SWAP3 POP SWAP1 POP DUP3 ISZERO PUSH2 0x2698 JUMPI PUSH1 0x40 MLOAD PUSH3 0x461BCD PUSH1 0xE5 SHL DUP2 MSTORE PUSH1 0x4 ADD DUP1 DUP1 PUSH1 0x20 ADD DUP3 DUP2 SUB DUP3 MSTORE PUSH1 0x25 DUP2 MSTORE PUSH1 0x20 ADD DUP1 PUSH2 0x3480 PUSH1 0x25 SWAP2 CODECOPY PUSH1 0x40 ADD SWAP2 POP POP PUSH1 0x40 MLOAD DUP1 SWAP2 SUB SWAP1 REVERT JUMPDEST DUP1 ISZERO PUSH2 0x26B5 JUMPI PUSH2 0x26AA PUSH1 0xC PUSH1 0x2 PUSH2 0x28DC JUMP JUMPDEST SWAP5 POP POP POP POP POP PUSH2 0x1058 JUMP JUMPDEST PUSH1 0x0 PUSH2 0x26C2 DUP8 CALLER DUP6 PUSH2 0x2DE0 JUMP JUMPDEST SWAP1 POP DUP1 ISZERO PUSH2 0x26E3 JUMPI PUSH2 0x26D7 PUSH1 0xE PUSH1 0x3 DUP4 PUSH2 0x2FC3 JUMP JUMPDEST SWAP6 POP POP POP POP POP POP PUSH2 0x1058 JUMP JUMPDEST PUSH1 0x1 PUSH1 0x1 PUSH1 0xA0 SHL SUB DUP6 AND PUSH1 0x0 SWAP1 DUP2 MSTORE PUSH1 0x9 PUSH1 0x20 SWAP1 DUP2 MSTORE PUSH1 0x40 DUP1 DUP4 KECCAK256 CALLER DUP5 MSTORE PUSH1 0x2 DUP2 ADD SWAP1 SWAP3 MSTORE SWAP1 SWAP2 KECCAK256 SLOAD PUSH1 0xFF AND PUSH2 0x2722 JUMPI PUSH1 0x0 SWAP7 POP POP POP POP POP POP POP PUSH2 0x1058 JUMP JUMPDEST CALLER PUSH1 0x0 SWAP1 DUP2 MSTORE PUSH1 0x2 DUP3 ADD PUSH1 0x20 SWAP1 DUP2 MSTORE PUSH1 0x40 DUP1 DUP4 KECCAK256 DUP1 SLOAD PUSH1 0xFF NOT AND SWAP1 SSTORE PUSH1 0x8 DUP3 MSTORE SWAP2 DUP3 SWAP1 KECCAK256 DUP1 SLOAD DUP4 MLOAD DUP2 DUP5 MUL DUP2 ADD DUP5 ADD SWAP1 SWAP5 MSTORE DUP1 DUP5 MSTORE PUSH1 0x60 SWAP4 SWAP3 DUP4 ADD DUP3 DUP3 DUP1 ISZERO PUSH2 0x2794 JUMPI PUSH1 0x20 MUL DUP3 ADD SWAP2 SWAP1 PUSH1 0x0 MSTORE PUSH1 0x20 PUSH1 0x0 KECCAK256 SWAP1 JUMPDEST DUP2 SLOAD PUSH1 0x1 PUSH1 0x1 PUSH1 0xA0 SHL SUB AND DUP2 MSTORE PUSH1 0x1 SWAP1 SWAP2 ADD SWAP1 PUSH1 0x20 ADD DUP1 DUP4 GT PUSH2 0x2776 JUMPI JUMPDEST POP POP DUP4 MLOAD SWAP4 SWAP5 POP DUP4 SWAP3 POP PUSH1 0x0 SWAP2 POP POP JUMPDEST DUP3 DUP2 LT ISZERO PUSH2 0x27E9 JUMPI DUP10 PUSH1 0x1 PUSH1 0x1 PUSH1 0xA0 SHL SUB AND DUP5 DUP3 DUP2 MLOAD DUP2 LT PUSH2 0x27C2 JUMPI INVALID JUMPDEST PUSH1 0x20 MUL PUSH1 0x20 ADD ADD MLOAD PUSH1 0x1 PUSH1 0x1 PUSH1 0xA0 SHL SUB AND EQ ISZERO PUSH2 0x27E1 JUMPI DUP1 SWAP2 POP PUSH2 0x27E9 JUMP JUMPDEST PUSH1 0x1 ADD PUSH2 0x27A4 JUMP JUMPDEST POP DUP2 DUP2 LT PUSH2 0x27F3 JUMPI INVALID JUMPDEST CALLER PUSH1 0x0 SWAP1 DUP2 MSTORE PUSH1 0x8 PUSH1 0x20 MSTORE PUSH1 0x40 SWAP1 KECCAK256 DUP1 SLOAD DUP2 SWAP1 PUSH1 0x0 NOT DUP2 ADD SWAP1 DUP2 LT PUSH2 0x2814 JUMPI INVALID JUMPDEST SWAP1 PUSH1 0x0 MSTORE PUSH1 0x20 PUSH1 0x0 KECCAK256 ADD PUSH1 0x0 SWAP1 SLOAD SWAP1 PUSH2 0x100 EXP SWAP1 DIV PUSH1 0x1 PUSH1 0x1 PUSH1 0xA0 SHL SUB AND DUP2 DUP4 DUP2 SLOAD DUP2 LT PUSH2 0x283E JUMPI INVALID JUMPDEST PUSH1 0x0 SWAP2 DUP3 MSTORE PUSH1 0x20 SWAP1 SWAP2 KECCAK256 ADD DUP1 SLOAD PUSH1 0x1 PUSH1 0x1 PUSH1 0xA0 SHL SUB NOT AND PUSH1 0x1 PUSH1 0x1 PUSH1 0xA0 SHL SUB SWAP3 SWAP1 SWAP3 AND SWAP2 SWAP1 SWAP2 OR SWAP1 SSTORE DUP1 SLOAD PUSH2 0x2877 DUP3 PUSH1 0x0 NOT DUP4 ADD PUSH2 0x3381 JUMP JUMPDEST POP PUSH1 0x40 DUP1 MLOAD PUSH1 0x1 PUSH1 0x1 PUSH1 0xA0 SHL SUB DUP13 AND DUP2 MSTORE CALLER PUSH1 0x20 DUP3 ADD MSTORE DUP2 MLOAD PUSH32 0xE699A64C18B07AC5B7301AA273F36A2287239EB9501D81950672794AFBA29A0D SWAP3 SWAP2 DUP2 SWAP1 SUB SWAP1 SWAP2 ADD SWAP1 LOG1 PUSH1 0x0 SWAP13 SWAP12 POP POP POP POP POP POP POP POP POP POP POP POP JUMP JUMPDEST PUSH1 0x0 SLOAD PUSH1 0x1 PUSH1 0x1 PUSH1 0xA0 SHL SUB AND DUP2 JUMP JUMPDEST PUSH1 0x0 PUSH32 0x45B96FE442630264581B197E84BBADA861235052C5A1AADFFF9EA4E40A969AA0 DUP4 PUSH1 0x11 DUP2 GT ISZERO PUSH2 0x290B JUMPI INVALID JUMPDEST DUP4 PUSH1 0x13 DUP2 GT ISZERO PUSH2 0x2917 JUMPI INVALID JUMPDEST PUSH1 0x40 DUP1 MLOAD SWAP3 DUP4 MSTORE PUSH1 0x20 DUP4 ADD SWAP2 SWAP1 SWAP2 MSTORE PUSH1 0x0 DUP3 DUP3 ADD MSTORE MLOAD SWAP1 DUP2 SWAP1 SUB PUSH1 0x60 ADD SWAP1 LOG1 DUP3 PUSH1 0x11 DUP2 GT ISZERO PUSH2 0x13F6 JUMPI INVALID JUMPDEST MLOAD SWAP1 MLOAD GT ISZERO SWAP1 JUMP JUMPDEST MLOAD SWAP1 MLOAD LT SWAP1 JUMP JUMPDEST PUSH1 0x0 DUP1 PUSH1 0x0 PUSH2 0x295E PUSH2 0x33A5 JUMP JUMPDEST PUSH1 0x1 PUSH1 0x1 PUSH1 0xA0 SHL SUB DUP9 AND PUSH1 0x0 SWAP1 DUP2 MSTORE PUSH1 0x8 PUSH1 0x20 SWAP1 DUP2 MSTORE PUSH1 0x40 DUP1 DUP4 KECCAK256 DUP1 SLOAD DUP3 MLOAD DUP2 DUP6 MUL DUP2 ADD DUP6 ADD SWAP1 SWAP4 MSTORE DUP1 DUP4 MSTORE DUP5 SWAP4 PUSH1 0x60 SWAP4 SWAP3 SWAP2 SWAP1 DUP4 ADD DUP3 DUP3 DUP1 ISZERO PUSH2 0x29CB JUMPI PUSH1 0x20 MUL DUP3 ADD SWAP2 SWAP1 PUSH1 0x0 MSTORE PUSH1 0x20 PUSH1 0x0 KECCAK256 SWAP1 JUMPDEST DUP2 SLOAD PUSH1 0x1 PUSH1 0x1 PUSH1 0xA0 SHL SUB AND DUP2 MSTORE PUSH1 0x1 SWAP1 SWAP2 ADD SWAP1 PUSH1 0x20 ADD DUP1 DUP4 GT PUSH2 0x29AD JUMPI JUMPDEST POP SWAP4 SWAP5 POP PUSH1 0x0 SWAP4 POP POP POP POP JUMPDEST DUP2 MLOAD DUP2 LT ISZERO PUSH2 0x2D27 JUMPI PUSH1 0x0 DUP3 DUP3 DUP2 MLOAD DUP2 LT PUSH2 0x29EE JUMPI INVALID JUMPDEST PUSH1 0x20 MUL PUSH1 0x20 ADD ADD MLOAD SWAP1 POP DUP1 PUSH1 0x1 PUSH1 0x1 PUSH1 0xA0 SHL SUB AND PUSH4 0xC37F68E2 DUP15 PUSH1 0x40 MLOAD DUP3 PUSH4 0xFFFFFFFF AND PUSH1 0xE0 SHL DUP2 MSTORE PUSH1 0x4 ADD DUP1 DUP3 PUSH1 0x1 PUSH1 0x1 PUSH1 0xA0 SHL SUB AND PUSH1 0x1 PUSH1 0x1 PUSH1 0xA0 SHL SUB AND DUP2 MSTORE PUSH1 0x20 ADD SWAP2 POP POP PUSH1 0x80 PUSH1 0x40 MLOAD DUP1 DUP4 SUB DUP2 DUP7 DUP1 EXTCODESIZE ISZERO DUP1 ISZERO PUSH2 0x2A4E JUMPI PUSH1 0x0 DUP1 REVERT JUMPDEST POP GAS STATICCALL ISZERO DUP1 ISZERO PUSH2 0x2A62 JUMPI RETURNDATASIZE PUSH1 0x0 DUP1 RETURNDATACOPY RETURNDATASIZE PUSH1 0x0 REVERT JUMPDEST POP POP POP POP PUSH1 0x40 MLOAD RETURNDATASIZE PUSH1 0x80 DUP2 LT ISZERO PUSH2 0x2A78 JUMPI PUSH1 0x0 DUP1 REVERT JUMPDEST POP DUP1 MLOAD PUSH1 0x20 DUP3 ADD MLOAD PUSH1 0x40 DUP1 DUP5 ADD MLOAD PUSH1 0x60 SWAP5 DUP6 ADD MLOAD PUSH1 0x80 DUP13 ADD MSTORE SWAP4 DUP11 ADD SWAP4 SWAP1 SWAP4 MSTORE SWAP2 DUP9 ADD SWAP2 SWAP1 SWAP2 MSTORE SWAP5 POP DUP5 ISZERO PUSH2 0x2ABE JUMPI POP PUSH1 0xF SWAP8 POP PUSH1 0x0 SWAP7 POP DUP7 SWAP6 POP PUSH2 0x135D SWAP5 POP POP POP POP POP JUMP JUMPDEST PUSH1 0x40 DUP1 MLOAD PUSH1 0x20 DUP1 DUP3 ADD DUP4 MSTORE PUSH1 0x1 PUSH1 0x1 PUSH1 0xA0 SHL SUB DUP1 DUP6 AND PUSH1 0x0 DUP2 DUP2 MSTORE PUSH1 0x9 DUP5 MSTORE DUP6 SWAP1 KECCAK256 PUSH1 0x1 ADD SLOAD DUP5 MSTORE PUSH1 0xC0 DUP12 ADD SWAP4 SWAP1 SWAP4 MSTORE DUP4 MLOAD DUP1 DUP4 ADD DUP6 MSTORE PUSH1 0x80 DUP12 ADD MLOAD DUP2 MSTORE PUSH1 0xE0 DUP12 ADD MSTORE PUSH1 0x4 DUP1 SLOAD DUP6 MLOAD PUSH4 0xFC57D4DF PUSH1 0xE0 SHL DUP2 MSTORE SWAP2 DUP3 ADD SWAP5 SWAP1 SWAP5 MSTORE SWAP4 MLOAD SWAP3 AND SWAP3 PUSH4 0xFC57D4DF SWAP3 PUSH1 0x24 DUP1 DUP4 ADD SWAP4 SWAP3 DUP3 SWAP1 SUB ADD DUP2 DUP7 DUP1 EXTCODESIZE ISZERO DUP1 ISZERO PUSH2 0x2B3E JUMPI PUSH1 0x0 DUP1 REVERT JUMPDEST POP GAS STATICCALL ISZERO DUP1 ISZERO PUSH2 0x2B52 JUMPI RETURNDATASIZE PUSH1 0x0 DUP1 RETURNDATACOPY RETURNDATASIZE PUSH1 0x0 REVERT JUMPDEST POP POP POP POP PUSH1 0x40 MLOAD RETURNDATASIZE PUSH1 0x20 DUP2 LT ISZERO PUSH2 0x2B68 JUMPI PUSH1 0x0 DUP1 REVERT JUMPDEST POP MLOAD PUSH1 0xA0 DUP8 ADD DUP2 SWAP1 MSTORE PUSH2 0x2B8C JUMPI POP PUSH1 0xD SWAP8 POP PUSH1 0x0 SWAP7 POP DUP7 SWAP6 POP PUSH2 0x135D SWAP5 POP POP POP POP POP JUMP JUMPDEST PUSH1 0x40 DUP1 MLOAD PUSH1 0x20 DUP2 ADD SWAP1 SWAP2 MSTORE PUSH1 0xA0 DUP8 ADD MLOAD DUP2 MSTORE PUSH2 0x100 DUP8 ADD DUP2 SWAP1 MSTORE PUSH1 0xC0 DUP8 ADD MLOAD PUSH1 0xE0 DUP9 ADD MLOAD PUSH2 0x2BB9 SWAP3 PUSH2 0x3029 JUMP JUMPDEST PUSH2 0x120 DUP9 ADD MSTORE SWAP4 POP PUSH1 0x0 DUP5 PUSH1 0x3 DUP2 GT ISZERO PUSH2 0x2BCF JUMPI INVALID JUMPDEST EQ PUSH2 0x2BEB JUMPI POP PUSH1 0xB SWAP8 POP PUSH1 0x0 SWAP7 POP DUP7 SWAP6 POP PUSH2 0x135D SWAP5 POP POP POP POP POP JUMP JUMPDEST PUSH2 0x2C03 DUP7 PUSH2 0x120 ADD MLOAD DUP8 PUSH1 0x40 ADD MLOAD DUP9 PUSH1 0x0 ADD MLOAD PUSH2 0x3081 JUMP JUMPDEST DUP8 MSTORE SWAP4 POP PUSH1 0x0 DUP5 PUSH1 0x3 DUP2 GT ISZERO PUSH2 0x2C15 JUMPI INVALID JUMPDEST EQ PUSH2 0x2C31 JUMPI POP PUSH1 0xB SWAP8 POP PUSH1 0x0 SWAP7 POP DUP7 SWAP6 POP PUSH2 0x135D SWAP5 POP POP POP POP POP JUMP JUMPDEST PUSH2 0x2C49 DUP7 PUSH2 0x100 ADD MLOAD DUP8 PUSH1 0x60 ADD MLOAD DUP9 PUSH1 0x20 ADD MLOAD PUSH2 0x3081 JUMP JUMPDEST PUSH1 0x20 DUP9 ADD MSTORE SWAP4 POP PUSH1 0x0 DUP5 PUSH1 0x3 DUP2 GT ISZERO PUSH2 0x2C5E JUMPI INVALID JUMPDEST EQ PUSH2 0x2C7A JUMPI POP PUSH1 0xB SWAP8 POP PUSH1 0x0 SWAP7 POP DUP7 SWAP6 POP PUSH2 0x135D SWAP5 POP POP POP POP POP JUMP JUMPDEST DUP12 PUSH1 0x1 PUSH1 0x1 PUSH1 0xA0 SHL SUB AND DUP2 PUSH1 0x1 PUSH1 0x1 PUSH1 0xA0 SHL SUB AND EQ ISZERO PUSH2 0x2D1E JUMPI PUSH2 0x2CA8 DUP7 PUSH2 0x120 ADD MLOAD DUP13 DUP9 PUSH1 0x20 ADD MLOAD PUSH2 0x3081 JUMP JUMPDEST PUSH1 0x20 DUP9 ADD MSTORE SWAP4 POP PUSH1 0x0 DUP5 PUSH1 0x3 DUP2 GT ISZERO PUSH2 0x2CBD JUMPI INVALID JUMPDEST EQ PUSH2 0x2CD9 JUMPI POP PUSH1 0xB SWAP8 POP PUSH1 0x0 SWAP7 POP DUP7 SWAP6 POP PUSH2 0x135D SWAP5 POP POP POP POP POP JUMP JUMPDEST PUSH2 0x2CED DUP7 PUSH2 0x100 ADD MLOAD DUP12 DUP9 PUSH1 0x20 ADD MLOAD PUSH2 0x3081 JUMP JUMPDEST PUSH1 0x20 DUP9 ADD MSTORE SWAP4 POP PUSH1 0x0 DUP5 PUSH1 0x3 DUP2 GT ISZERO PUSH2 0x2D02 JUMPI INVALID JUMPDEST EQ PUSH2 0x2D1E JUMPI POP PUSH1 0xB SWAP8 POP PUSH1 0x0 SWAP7 POP DUP7 SWAP6 POP PUSH2 0x135D SWAP5 POP POP POP POP POP JUMP JUMPDEST POP PUSH1 0x1 ADD PUSH2 0x29D7 JUMP JUMPDEST POP PUSH1 0x20 DUP5 ADD MLOAD DUP5 MLOAD GT ISZERO PUSH2 0x2D4E JUMPI POP POP POP PUSH1 0x20 DUP2 ADD MLOAD SWAP1 MLOAD PUSH1 0x0 SWAP5 POP SUB SWAP2 POP DUP3 SWAP1 POP PUSH2 0x135D JUMP JUMPDEST POP POP DUP2 MLOAD PUSH1 0x20 SWAP1 SWAP3 ADD MLOAD PUSH1 0x0 SWAP6 POP DUP6 SWAP5 POP SWAP2 SWAP1 SWAP2 SUB SWAP2 POP PUSH2 0x135D SWAP1 POP JUMP JUMPDEST PUSH1 0x0 DUP1 PUSH1 0x0 PUSH2 0x2D7F DUP5 PUSH1 0x0 DUP1 PUSH1 0x0 PUSH2 0x2951 JUMP JUMPDEST SWAP3 POP SWAP3 POP SWAP3 POP SWAP2 SWAP4 SWAP1 SWAP3 POP JUMP JUMPDEST PUSH1 0x0 DUP1 PUSH1 0x0 PUSH2 0x2D99 PUSH2 0x336E JUMP JUMPDEST PUSH2 0x2DA3 DUP7 DUP7 PUSH2 0x30CE JUMP JUMPDEST SWAP1 SWAP3 POP SWAP1 POP PUSH1 0x0 DUP3 PUSH1 0x3 DUP2 GT ISZERO PUSH2 0x2DB6 JUMPI INVALID JUMPDEST EQ PUSH2 0x2DC7 JUMPI POP SWAP2 POP PUSH1 0x0 SWAP1 POP PUSH2 0x2DD9 JUMP JUMPDEST PUSH1 0x0 PUSH2 0x2DD2 DUP3 PUSH2 0x3136 JUMP JUMPDEST SWAP4 POP SWAP4 POP POP POP JUMPDEST SWAP3 POP SWAP3 SWAP1 POP JUMP JUMPDEST PUSH1 0x1 PUSH1 0x1 PUSH1 0xA0 SHL SUB DUP4 AND PUSH1 0x0 SWAP1 DUP2 MSTORE PUSH1 0x9 PUSH1 0x20 MSTORE PUSH1 0x40 DUP2 KECCAK256 SLOAD PUSH1 0xFF AND PUSH2 0x2E07 JUMPI PUSH1 0x9 PUSH2 0x13E9 JUMP JUMPDEST PUSH1 0x1 PUSH1 0x1 PUSH1 0xA0 SHL SUB DUP1 DUP6 AND PUSH1 0x0 SWAP1 DUP2 MSTORE PUSH1 0x9 PUSH1 0x20 SWAP1 DUP2 MSTORE PUSH1 0x40 DUP1 DUP4 KECCAK256 SWAP4 DUP8 AND DUP4 MSTORE PUSH1 0x2 SWAP1 SWAP4 ADD SWAP1 MSTORE KECCAK256 SLOAD PUSH1 0xFF AND PUSH2 0x2E3F JUMPI PUSH1 0x0 PUSH2 0x13E9 JUMP JUMPDEST PUSH1 0x0 DUP1 PUSH2 0x2366 DUP6 DUP8 DUP7 PUSH1 0x0 PUSH2 0x2951 JUMP JUMPDEST PUSH1 0x1 PUSH1 0x1 PUSH1 0xA0 SHL SUB DUP3 AND PUSH1 0x0 SWAP1 DUP2 MSTORE PUSH1 0x9 PUSH1 0x20 MSTORE PUSH1 0x40 DUP2 KECCAK256 DUP1 SLOAD PUSH1 0xFF AND PUSH2 0x2E7A JUMPI PUSH1 0x9 SWAP2 POP POP PUSH2 0xD5D JUMP JUMPDEST PUSH1 0x1 PUSH1 0x1 PUSH1 0xA0 SHL SUB DUP4 AND PUSH1 0x0 SWAP1 DUP2 MSTORE PUSH1 0x2 DUP3 ADD PUSH1 0x20 MSTORE PUSH1 0x40 SWAP1 KECCAK256 SLOAD PUSH1 0xFF AND ISZERO ISZERO PUSH1 0x1 EQ ISZERO PUSH2 0x2EAC JUMPI PUSH1 0x0 SWAP2 POP POP PUSH2 0xD5D JUMP JUMPDEST PUSH1 0x7 SLOAD PUSH1 0x1 PUSH1 0x1 PUSH1 0xA0 SHL SUB DUP5 AND PUSH1 0x0 SWAP1 DUP2 MSTORE PUSH1 0x8 PUSH1 0x20 MSTORE PUSH1 0x40 SWAP1 KECCAK256 SLOAD LT PUSH2 0x2ED7 JUMPI PUSH1 0x10 SWAP2 POP POP PUSH2 0xD5D JUMP JUMPDEST PUSH1 0x1 PUSH1 0x1 PUSH1 0xA0 SHL SUB DUP1 DUP5 AND PUSH1 0x0 DUP2 DUP2 MSTORE PUSH1 0x2 DUP5 ADD PUSH1 0x20 SWAP1 DUP2 MSTORE PUSH1 0x40 DUP1 DUP4 KECCAK256 DUP1 SLOAD PUSH1 0xFF NOT AND PUSH1 0x1 SWAP1 DUP2 OR SWAP1 SWAP2 SSTORE PUSH1 0x8 DUP4 MSTORE DUP2 DUP5 KECCAK256 DUP1 SLOAD SWAP2 DUP3 ADD DUP2 SSTORE DUP5 MSTORE SWAP3 DUP3 SWAP1 KECCAK256 SWAP1 SWAP3 ADD DUP1 SLOAD SWAP5 DUP10 AND PUSH1 0x1 PUSH1 0x1 PUSH1 0xA0 SHL SUB NOT SWAP1 SWAP6 AND DUP6 OR SWAP1 SSTORE DUP2 MLOAD SWAP4 DUP5 MSTORE DUP4 ADD SWAP2 SWAP1 SWAP2 MSTORE DUP1 MLOAD PUSH32 0x3AB23AB0D51CCCC0C3085AEC51F99228625AA1A922B3A8CA89A26B0F2027A1A5 SWAP3 DUP2 SWAP1 SUB SWAP1 SWAP2 ADD SWAP1 LOG1 POP PUSH1 0x0 SWAP4 SWAP3 POP POP POP JUMP JUMPDEST PUSH1 0x0 PUSH2 0x2F7A PUSH2 0x336E JUMP JUMPDEST PUSH2 0x2FA0 PUSH1 0x40 MLOAD DUP1 PUSH1 0x20 ADD PUSH1 0x40 MSTORE DUP1 DUP7 DUP2 MSTORE POP PUSH1 0x40 MLOAD DUP1 PUSH1 0x20 ADD PUSH1 0x40 MSTORE DUP1 DUP7 DUP2 MSTORE POP PUSH2 0x3145 JUMP JUMPDEST SWAP2 POP SWAP2 POP SWAP3 POP SWAP3 SWAP1 POP JUMP JUMPDEST PUSH1 0x0 PUSH2 0x2FB5 PUSH2 0x336E JUMP JUMPDEST DUP4 MLOAD DUP4 MLOAD PUSH2 0x2FA0 SWAP2 SWAP1 PUSH2 0x322E JUMP JUMPDEST PUSH1 0x0 PUSH32 0x45B96FE442630264581B197E84BBADA861235052C5A1AADFFF9EA4E40A969AA0 DUP5 PUSH1 0x11 DUP2 GT ISZERO PUSH2 0x2FF2 JUMPI INVALID JUMPDEST DUP5 PUSH1 0x13 DUP2 GT ISZERO PUSH2 0x2FFE JUMPI INVALID JUMPDEST PUSH1 0x40 DUP1 MLOAD SWAP3 DUP4 MSTORE PUSH1 0x20 DUP4 ADD SWAP2 SWAP1 SWAP2 MSTORE DUP2 DUP2 ADD DUP6 SWAP1 MSTORE MLOAD SWAP1 DUP2 SWAP1 SUB PUSH1 0x60 ADD SWAP1 LOG1 DUP4 PUSH1 0x11 DUP2 GT ISZERO PUSH2 0x13F3 JUMPI INVALID JUMPDEST PUSH1 0x0 PUSH2 0x3033 PUSH2 0x336E JUMP JUMPDEST PUSH1 0x0 PUSH2 0x303D PUSH2 0x336E JUMP JUMPDEST PUSH2 0x3047 DUP8 DUP8 PUSH2 0x3145 JUMP JUMPDEST SWAP1 SWAP3 POP SWAP1 POP PUSH1 0x0 DUP3 PUSH1 0x3 DUP2 GT ISZERO PUSH2 0x305A JUMPI INVALID JUMPDEST EQ PUSH2 0x3069 JUMPI SWAP1 SWAP3 POP SWAP1 POP PUSH2 0x1F4E JUMP JUMPDEST PUSH2 0x3073 DUP2 DUP7 PUSH2 0x3145 JUMP JUMPDEST SWAP4 POP SWAP4 POP POP POP SWAP4 POP SWAP4 SWAP2 POP POP JUMP JUMPDEST PUSH1 0x0 DUP1 PUSH1 0x0 PUSH2 0x308E PUSH2 0x336E JUMP JUMPDEST PUSH2 0x3098 DUP8 DUP8 PUSH2 0x30CE JUMP JUMPDEST SWAP1 SWAP3 POP SWAP1 POP PUSH1 0x0 DUP3 PUSH1 0x3 DUP2 GT ISZERO PUSH2 0x30AB JUMPI INVALID JUMPDEST EQ PUSH2 0x30BC JUMPI POP SWAP2 POP PUSH1 0x0 SWAP1 POP PUSH2 0x1F4E JUMP JUMPDEST PUSH2 0x3073 PUSH2 0x30C8 DUP3 PUSH2 0x3136 JUMP JUMPDEST DUP7 PUSH2 0x32DE JUMP JUMPDEST PUSH1 0x0 PUSH2 0x30D8 PUSH2 0x336E JUMP JUMPDEST PUSH1 0x0 DUP1 PUSH2 0x30E9 DUP7 PUSH1 0x0 ADD MLOAD DUP7 PUSH2 0x3304 JUMP JUMPDEST SWAP1 SWAP3 POP SWAP1 POP PUSH1 0x0 DUP3 PUSH1 0x3 DUP2 GT ISZERO PUSH2 0x30FC JUMPI INVALID JUMPDEST EQ PUSH2 0x311B JUMPI POP PUSH1 0x40 DUP1 MLOAD PUSH1 0x20 DUP2 ADD SWAP1 SWAP2 MSTORE PUSH1 0x0 DUP2 MSTORE SWAP1 SWAP3 POP SWAP1 POP PUSH2 0x2DD9 JUMP JUMPDEST PUSH1 0x40 DUP1 MLOAD PUSH1 0x20 DUP2 ADD SWAP1 SWAP2 MSTORE SWAP1 DUP2 MSTORE PUSH1 0x0 SWAP7 SWAP1 SWAP6 POP SWAP4 POP POP POP POP JUMP JUMPDEST MLOAD PUSH8 0xDE0B6B3A7640000 SWAP1 DIV SWAP1 JUMP JUMPDEST PUSH1 0x0 PUSH2 0x314F PUSH2 0x336E JUMP JUMPDEST PUSH1 0x0 DUP1 PUSH2 0x3164 DUP7 PUSH1 0x0 ADD MLOAD DUP7 PUSH1 0x0 ADD MLOAD PUSH2 0x3304 JUMP JUMPDEST SWAP1 SWAP3 POP SWAP1 POP PUSH1 0x0 DUP3 PUSH1 0x3 DUP2 GT ISZERO PUSH2 0x3177 JUMPI INVALID JUMPDEST EQ PUSH2 0x3196 JUMPI POP PUSH1 0x40 DUP1 MLOAD PUSH1 0x20 DUP2 ADD SWAP1 SWAP2 MSTORE PUSH1 0x0 DUP2 MSTORE SWAP1 SWAP3 POP SWAP1 POP PUSH2 0x2DD9 JUMP JUMPDEST PUSH1 0x0 DUP1 PUSH2 0x31AB PUSH8 0x6F05B59D3B20000 DUP5 PUSH2 0x32DE JUMP JUMPDEST SWAP1 SWAP3 POP SWAP1 POP PUSH1 0x0 DUP3 PUSH1 0x3 DUP2 GT ISZERO PUSH2 0x31BE JUMPI INVALID JUMPDEST EQ PUSH2 0x31E0 JUMPI POP PUSH1 0x40 DUP1 MLOAD PUSH1 0x20 DUP2 ADD SWAP1 SWAP2 MSTORE PUSH1 0x0 DUP2 MSTORE SWAP1 SWAP5 POP SWAP3 POP PUSH2 0x2DD9 SWAP2 POP POP JUMP JUMPDEST PUSH1 0x0 DUP1 PUSH2 0x31F5 DUP4 PUSH8 0xDE0B6B3A7640000 PUSH2 0x3343 JUMP JUMPDEST SWAP1 SWAP3 POP SWAP1 POP PUSH1 0x0 DUP3 PUSH1 0x3 DUP2 GT ISZERO PUSH2 0x3208 JUMPI INVALID JUMPDEST EQ PUSH2 0x320F JUMPI INVALID JUMPDEST PUSH1 0x40 DUP1 MLOAD PUSH1 0x20 DUP2 ADD SWAP1 SWAP2 MSTORE SWAP1 DUP2 MSTORE PUSH1 0x0 SWAP11 SWAP1 SWAP10 POP SWAP8 POP POP POP POP POP POP POP POP JUMP JUMPDEST PUSH1 0x0 PUSH2 0x3238 PUSH2 0x336E JUMP JUMPDEST PUSH1 0x0 DUP1 PUSH2 0x324D DUP7 PUSH8 0xDE0B6B3A7640000 PUSH2 0x3304 JUMP JUMPDEST SWAP1 SWAP3 POP SWAP1 POP PUSH1 0x0 DUP3 PUSH1 0x3 DUP2 GT ISZERO PUSH2 0x3260 JUMPI INVALID JUMPDEST EQ PUSH2 0x327F JUMPI POP PUSH1 0x40 DUP1 MLOAD PUSH1 0x20 DUP2 ADD SWAP1 SWAP2 MSTORE PUSH1 0x0 DUP2 MSTORE SWAP1 SWAP3 POP SWAP1 POP PUSH2 0x2DD9 JUMP JUMPDEST PUSH1 0x0 DUP1 PUSH2 0x328C DUP4 DUP9 PUSH2 0x3343 JUMP JUMPDEST SWAP1 SWAP3 POP SWAP1 POP PUSH1 0x0 DUP3 PUSH1 0x3 DUP2 GT ISZERO PUSH2 0x329F JUMPI INVALID JUMPDEST EQ PUSH2 0x32C1 JUMPI POP PUSH1 0x40 DUP1 MLOAD PUSH1 0x20 DUP2 ADD SWAP1 SWAP2 MSTORE PUSH1 0x0 DUP2 MSTORE SWAP1 SWAP5 POP SWAP3 POP PUSH2 0x2DD9 SWAP2 POP POP JUMP JUMPDEST PUSH1 0x40 DUP1 MLOAD PUSH1 0x20 DUP2 ADD SWAP1 SWAP2 MSTORE SWAP1 DUP2 MSTORE PUSH1 0x0 SWAP9 SWAP1 SWAP8 POP SWAP6 POP POP POP POP POP POP JUMP JUMPDEST PUSH1 0x0 DUP1 DUP4 DUP4 ADD DUP5 DUP2 LT PUSH2 0x32F6 JUMPI PUSH1 0x0 SWAP3 POP SWAP1 POP PUSH2 0x2DD9 JUMP JUMPDEST POP PUSH1 0x2 SWAP2 POP PUSH1 0x0 SWAP1 POP PUSH2 0x2DD9 JUMP JUMPDEST PUSH1 0x0 DUP1 DUP4 PUSH2 0x3317 JUMPI POP PUSH1 0x0 SWAP1 POP DUP1 PUSH2 0x2DD9 JUMP JUMPDEST DUP4 DUP4 MUL DUP4 DUP6 DUP3 DUP2 PUSH2 0x3324 JUMPI INVALID JUMPDEST DIV EQ PUSH2 0x3338 JUMPI POP PUSH1 0x2 SWAP2 POP PUSH1 0x0 SWAP1 POP PUSH2 0x2DD9 JUMP JUMPDEST PUSH1 0x0 SWAP3 POP SWAP1 POP PUSH2 0x2DD9 JUMP JUMPDEST PUSH1 0x0 DUP1 DUP3 PUSH2 0x3357 JUMPI POP PUSH1 0x1 SWAP1 POP PUSH1 0x0 PUSH2 0x2DD9 JUMP JUMPDEST PUSH1 0x0 DUP4 DUP6 DUP2 PUSH2 0x3362 JUMPI INVALID JUMPDEST DIV SWAP2 POP SWAP2 POP SWAP3 POP SWAP3 SWAP1 POP JUMP JUMPDEST PUSH1 0x40 MLOAD DUP1 PUSH1 0x20 ADD PUSH1 0x40 MSTORE DUP1 PUSH1 0x0 DUP2 MSTORE POP SWAP1 JUMP JUMPDEST DUP2 SLOAD DUP2 DUP4 SSTORE DUP2 DUP2 GT ISZERO PUSH2 0x15CC JUMPI PUSH1 0x0 DUP4 DUP2 MSTORE PUSH1 0x20 SWAP1 KECCAK256 PUSH2 0x15CC SWAP2 DUP2 ADD SWAP1 DUP4 ADD PUSH2 0x340F JUMP JUMPDEST PUSH1 0x40 MLOAD DUP1 PUSH2 0x140 ADD PUSH1 0x40 MSTORE DUP1 PUSH1 0x0 DUP2 MSTORE PUSH1 0x20 ADD PUSH1 0x0 DUP2 MSTORE PUSH1 0x20 ADD PUSH1 0x0 DUP2 MSTORE PUSH1 0x20 ADD PUSH1 0x0 DUP2 MSTORE PUSH1 0x20 ADD PUSH1 0x0 DUP2 MSTORE PUSH1 0x20 ADD PUSH1 0x0 DUP2 MSTORE PUSH1 0x20 ADD PUSH2 0x33E3 PUSH2 0x336E JUMP JUMPDEST DUP2 MSTORE PUSH1 0x20 ADD PUSH2 0x33F0 PUSH2 0x336E JUMP JUMPDEST DUP2 MSTORE PUSH1 0x20 ADD PUSH2 0x33FD PUSH2 0x336E JUMP JUMPDEST DUP2 MSTORE PUSH1 0x20 ADD PUSH2 0x340A PUSH2 0x336E JUMP JUMPDEST SWAP1 MSTORE SWAP1 JUMP JUMPDEST PUSH2 0x342D SWAP2 SWAP1 JUMPDEST DUP1 DUP3 GT ISZERO PUSH2 0x3429 JUMPI PUSH1 0x0 DUP2 SSTORE PUSH1 0x1 ADD PUSH2 0x3415 JUMP JUMPDEST POP SWAP1 JUMP JUMPDEST SWAP1 JUMP INVALID PUSH4 0x616E6E6F PUSH21 0x2070617573652061206D61726B6574207468617420 PUSH10 0x73206E6F74206C697374 PUSH6 0x646F6E6C7920 PUSH17 0x6175736520677561726469616E20616E64 KECCAK256 PUSH2 0x646D PUSH10 0x6E2063616E2070617573 PUSH6 0x657869744D61 PUSH19 0x6B65743A206765744163636F756E74536E6170 PUSH20 0x686F74206661696C65646F6E6C7920756E697472 PUSH16 0x6C6C65722061646D696E2063616E2063 PUSH9 0x616E67652062726169 PUSH15 0x73A265627A7A72315820A97B2D87E4 SUB 0xF6 SWAP13 SELFBALANCE PUSH2 0xA108 SWAP1 0x48 MOD CALLVALUE 0xFC 0xEA PUSH6 0x9761CF1D6562 PUSH5 0x8371D633FA 0xDC PUSH5 0x736F6C6343 STOP SDIV GT STOP ORIGIN "
    }
  },
  "humanReadableAbi": [
    "constructor()",
    "event ActionPaused(string action, bool pauseState)",
    "event ActionPaused(address cToken, string action, bool pauseState)",
    "event Failure(uint256 error, uint256 info, uint256 detail)",
    "event MarketEntered(address cToken, address account)",
    "event MarketExited(address cToken, address account)",
    "event MarketListed(address cToken)",
    "event NewCloseFactor(uint256 oldCloseFactorMantissa, uint256 newCloseFactorMantissa)",
    "event NewCollateralFactor(address cToken, uint256 oldCollateralFactorMantissa, uint256 newCollateralFactorMantissa)",
    "event NewLiquidationIncentive(uint256 oldLiquidationIncentiveMantissa, uint256 newLiquidationIncentiveMantissa)",
    "event NewMaxAssets(uint256 oldMaxAssets, uint256 newMaxAssets)",
    "event NewPauseGuardian(address oldPauseGuardian, address newPauseGuardian)",
    "event NewPriceOracle(address oldPriceOracle, address newPriceOracle)",
    "function _become(address unitroller)",
    "function _borrowGuardianPaused() view returns(bool)",
    "function _mintGuardianPaused() view returns(bool)",
    "function _setBorrowPaused(address cToken, bool state) returns(bool)",
    "function _setCloseFactor(uint256 newCloseFactorMantissa) returns(uint256)",
    "function _setCollateralFactor(address cToken, uint256 newCollateralFactorMantissa) returns(uint256)",
    "function _setLiquidationIncentive(uint256 newLiquidationIncentiveMantissa) returns(uint256)",
    "function _setMaxAssets(uint256 newMaxAssets) returns(uint256)",
    "function _setMintPaused(address cToken, bool state) returns(bool)",
    "function _setPauseGuardian(address newPauseGuardian) returns(uint256)",
    "function _setPriceOracle(address newOracle) returns(uint256)",
    "function _setSeizePaused(bool state) returns(bool)",
    "function _setTransferPaused(bool state) returns(bool)",
    "function _supportMarket(address cToken) returns(uint256)",
    "function accountAssets(address, uint256) view returns(address)",
    "function admin() view returns(address)",
    "function borrowAllowed(address cToken, address borrower, uint256 borrowAmount) returns(uint256)",
    "function borrowGuardianPaused(address) view returns(bool)",
    "function borrowVerify(address cToken, address borrower, uint256 borrowAmount)",
    "function checkMembership(address account, address cToken) view returns(bool)",
    "function closeFactorMantissa() view returns(uint256)",
    "function comptrollerImplementation() view returns(address)",
    "function enterMarkets(address[] cTokens) returns(uint256[])",
    "function exitMarket(address cTokenAddress) returns(uint256)",
    "function getAccountLiquidity(address account) view returns(uint256, uint256, uint256)",
    "function getAssetsIn(address account) view returns(address[])",
    "function getHypotheticalAccountLiquidity(address account, address cTokenModify, uint256 redeemTokens, uint256 borrowAmount) view returns(uint256, uint256, uint256)",
    "function isComptroller() view returns(bool)",
    "function liquidateBorrowAllowed(address cTokenBorrowed, address cTokenCollateral, address liquidator, address borrower, uint256 repayAmount) returns(uint256)",
    "function liquidateBorrowVerify(address cTokenBorrowed, address cTokenCollateral, address liquidator, address borrower, uint256 actualRepayAmount, uint256 seizeTokens)",
    "function liquidateCalculateSeizeTokens(address cTokenBorrowed, address cTokenCollateral, uint256 actualRepayAmount) view returns(uint256, uint256)",
    "function liquidationIncentiveMantissa() view returns(uint256)",
    "function markets(address) view returns(bool isListed, uint256 collateralFactorMantissa, bool isComped)",
    "function maxAssets() view returns(uint256)",
    "function mintAllowed(address cToken, address minter, uint256 mintAmount) returns(uint256)",
    "function mintGuardianPaused(address) view returns(bool)",
    "function mintVerify(address cToken, address minter, uint256 actualMintAmount, uint256 mintTokens)",
    "function oracle() view returns(address)",
    "function pauseGuardian() view returns(address)",
    "function pendingAdmin() view returns(address)",
    "function pendingComptrollerImplementation() view returns(address)",
    "function redeemAllowed(address cToken, address redeemer, uint256 redeemTokens) returns(uint256)",
    "function redeemVerify(address cToken, address redeemer, uint256 redeemAmount, uint256 redeemTokens)",
    "function repayBorrowAllowed(address cToken, address payer, address borrower, uint256 repayAmount) returns(uint256)",
    "function repayBorrowVerify(address cToken, address payer, address borrower, uint256 actualRepayAmount, uint256 borrowerIndex)",
    "function seizeAllowed(address cTokenCollateral, address cTokenBorrowed, address liquidator, address borrower, uint256 seizeTokens) returns(uint256)",
    "function seizeGuardianPaused() view returns(bool)",
    "function seizeVerify(address cTokenCollateral, address cTokenBorrowed, address liquidator, address borrower, uint256 seizeTokens)",
    "function transferAllowed(address cToken, address src, address dst, uint256 transferTokens) returns(uint256)",
    "function transferGuardianPaused() view returns(bool)",
    "function transferVerify(address cToken, address src, address dst, uint256 transferTokens)"
  ]
}