{
  "abi": [
    {
      "constant": true,
      "inputs": [],
      "name": "_borrowGuardianPaused",
      "outputs": [
        {
          "internalType": "bool",
          "name": "",
          "type": "bool"
        }
      ],
      "payable": false,
      "stateMutability": "view",
      "type": "function"
    },
    {
      "constant": true,
      "inputs": [],
      "name": "_mintGuardianPaused",
      "outputs": [
        {
          "internalType": "bool",
          "name": "",
          "type": "bool"
        }
      ],
      "payable": false,
      "stateMutability": "view",
      "type": "function"
    },
    {
      "constant": true,
      "inputs": [
        {
          "internalType": "address",
          "name": "",
          "type": "address"
        },
        {
          "internalType": "uint256",
          "name": "",
          "type": "uint256"
        }
      ],
      "name": "accountAssets",
      "outputs": [
        {
          "internalType": "contract CToken",
          "name": "",
          "type": "address"
        }
      ],
      "payable": false,
      "stateMutability": "view",
      "type": "function"
    },
    {
      "constant": true,
      "inputs": [],
      "name": "admin",
      "outputs": [
        {
          "internalType": "address",
          "name": "",
          "type": "address"
        }
      ],
      "payable": false,
      "stateMutability": "view",
      "type": "function"
    },
    {
      "constant": true,
      "inputs": [
        {
          "internalType": "uint256",
          "name": "",
          "type": "uint256"
        }
      ],
      "name": "allMarkets",
      "outputs": [
        {
          "internalType": "contract CToken",
          "name": "",
          "type": "address"
        }
      ],
      "payable": false,
      "stateMutability": "view",
      "type": "function"
    },
    {
      "constant": true,
      "inputs": [],
      "name": "borrowCapGuardian",
      "outputs": [
        {
          "internalType": "address",
          "name": "",
          "type": "address"
        }
      ],
      "payable": false,
      "stateMutability": "view",
      "type": "function"
    },
    {
      "constant": true,
      "inputs": [
        {
          "internalType": "address",
          "name": "",
          "type": "address"
        }
      ],
      "name": "borrowCaps",
      "outputs": [
        {
          "internalType": "uint256",
          "name": "",
          "type": "uint256"
        }
      ],
      "payable": false,
      "stateMutability": "view",
      "type": "function"
    },
    {
      "constant": true,
      "inputs": [
        {
          "internalType": "address",
          "name": "",
          "type": "address"
        }
      ],
      "name": "borrowGuardianPaused",
      "outputs": [
        {
          "internalType": "bool",
          "name": "",
          "type": "bool"
        }
      ],
      "payable": false,
      "stateMutability": "view",
      "type": "function"
    },
    {
      "constant": true,
      "inputs": [],
      "name": "closeFactorMantissa",
      "outputs": [
        {
          "internalType": "uint256",
          "name": "",
          "type": "uint256"
        }
      ],
      "payable": false,
      "stateMutability": "view",
      "type": "function"
    },
    {
      "constant": true,
      "inputs": [
        {
          "internalType": "address",
          "name": "",
          "type": "address"
        }
      ],
      "name": "compAccrued",
      "outputs": [
        {
          "internalType": "uint256",
          "name": "",
          "type": "uint256"
        }
      ],
      "payable": false,
      "stateMutability": "view",
      "type": "function"
    },
    {
      "constant": true,
      "inputs": [
        {
          "internalType": "address",
          "name": "",
          "type": "address"
        }
      ],
      "name": "compBorrowState",
      "outputs": [
        {
          "internalType": "uint224",
          "name": "index",
          "type": "uint224"
        },
        {
          "internalType": "uint32",
          "name": "block",
          "type": "uint32"
        }
      ],
      "payable": false,
      "stateMutability": "view",
      "type": "function"
    },
    {
      "constant": true,
      "inputs": [
        {
          "internalType": "address",
          "name": "",
          "type": "address"
        },
        {
          "internalType": "address",
          "name": "",
          "type": "address"
        }
      ],
      "name": "compBorrowerIndex",
      "outputs": [
        {
          "internalType": "uint256",
          "name": "",
          "type": "uint256"
        }
      ],
      "payable": false,
      "stateMutability": "view",
      "type": "function"
    },
    {
      "constant": true,
      "inputs": [
        {
          "internalType": "address",
          "name": "",
          "type": "address"
        }
      ],
      "name": "compContributorSpeeds",
      "outputs": [
        {
          "internalType": "uint256",
          "name": "",
          "type": "uint256"
        }
      ],
      "payable": false,
      "stateMutability": "view",
      "type": "function"
    },
    {
      "constant": true,
      "inputs": [],
      "name": "compRate",
      "outputs": [
        {
          "internalType": "uint256",
          "name": "",
          "type": "uint256"
        }
      ],
      "payable": false,
      "stateMutability": "view",
      "type": "function"
    },
    {
      "constant": true,
      "inputs": [
        {
          "internalType": "address",
          "name": "",
          "type": "address"
        }
      ],
      "name": "compSpeeds",
      "outputs": [
        {
          "internalType": "uint256",
          "name": "",
          "type": "uint256"
        }
      ],
      "payable": false,
      "stateMutability": "view",
      "type": "function"
    },
    {
      "constant": true,
      "inputs": [
        {
          "internalType": "address",
          "name": "",
          "type": "address"
        },
        {
          "internalType": "address",
          "name": "",
          "type": "address"
        }
      ],
      "name": "compSupplierIndex",
      "outputs": [
        {
          "internalType": "uint256",
          "name": "",
          "type": "uint256"
        }
      ],
      "payable": false,
      "stateMutability": "view",
      "type": "function"
    },
    {
      "constant": true,
      "inputs": [
        {
          "internalType": "address",
          "name": "",
          "type": "address"
        }
      ],
      "name": "compSupplyState",
      "outputs": [
        {
          "internalType": "uint224",
          "name": "index",
          "type": "uint224"
        },
        {
          "internalType": "uint32",
          "name": "block",
          "type": "uint32"
        }
      ],
      "payable": false,
      "stateMutability": "view",
      "type": "function"
    },
    {
      "constant": true,
      "inputs": [],
      "name": "comptrollerImplementation",
      "outputs": [
        {
          "internalType": "address",
          "name": "",
          "type": "address"
        }
      ],
      "payable": false,
      "stateMutability": "view",
      "type": "function"
    },
    {
      "constant": true,
      "inputs": [
        {
          "internalType": "address",
          "name": "",
          "type": "address"
        }
      ],
      "name": "lastContributorBlock",
      "outputs": [
        {
          "internalType": "uint256",
          "name": "",
          "type": "uint256"
        }
      ],
      "payable": false,
      "stateMutability": "view",
      "type": "function"
    },
    {
      "constant": true,
      "inputs": [],
      "name": "liquidationIncentiveMantissa",
      "outputs": [
        {
          "internalType": "uint256",
          "name": "",
          "type": "uint256"
        }
      ],
      "payable": false,
      "stateMutability": "view",
      "type": "function"
    },
    {
      "constant": true,
      "inputs": [
        {
          "internalType": "address",
          "name": "",
          "type": "address"
        }
      ],
      "name": "markets",
      "outputs": [
        {
          "internalType": "bool",
          "name": "isListed",
          "type": "bool"
        },
        {
          "internalType": "uint256",
          "name": "collateralFactorMantissa",
          "type": "uint256"
        },
        {
          "internalType": "bool",
          "name": "isComped",
          "type": "bool"
        }
      ],
      "payable": false,
      "stateMutability": "view",
      "type": "function"
    },
    {
      "constant": true,
      "inputs": [],
      "name": "maxAssets",
      "outputs": [
        {
          "internalType": "uint256",
          "name": "",
          "type": "uint256"
        }
      ],
      "payable": false,
      "stateMutability": "view",
      "type": "function"
    },
    {
      "constant": true,
      "inputs": [
        {
          "internalType": "address",
          "name": "",
          "type": "address"
        }
      ],
      "name": "mintGuardianPaused",
      "outputs": [
        {
          "internalType": "bool",
          "name": "",
          "type": "bool"
        }
      ],
      "payable": false,
      "stateMutability": "view",
      "type": "function"
    },
    {
      "constant": true,
      "inputs": [],
      "name": "oracle",
      "outputs": [
        {
          "internalType": "contract PriceOracle",
          "name": "",
          "type": "address"
        }
      ],
      "payable": false,
      "stateMutability": "view",
      "type": "function"
    },
    {
      "constant": true,
      "inputs": [],
      "name": "pauseGuardian",
      "outputs": [
        {
          "internalType": "address",
          "name": "",
          "type": "address"
        }
      ],
      "payable": false,
      "stateMutability": "view",
      "type": "function"
    },
    {
      "constant": true,
      "inputs": [],
      "name": "pendingAdmin",
      "outputs": [
        {
          "internalType": "address",
          "name": "",
          "type": "address"
        }
      ],
      "payable": false,
      "stateMutability": "view",
      "type": "function"
    },
    {
      "constant": true,
      "inputs": [],
      "name": "pendingComptrollerImplementation",
      "outputs": [
        {
          "internalType": "address",
          "name": "",
          "type": "address"
        }
      ],
      "payable": false,
      "stateMutability": "view",
      "type": "function"
    },
    {
      "constant": true,
      "inputs": [],
      "name": "seizeGuardianPaused",
      "outputs": [
        {
          "internalType": "bool",
          "name": "",
          "type": "bool"
        }
      ],
      "payable": false,
      "stateMutability": "view",
      "type": "function"
    },
    {
      "constant": true,
      "inputs": [],
      "name": "transferGuardianPaused",
      "outputs": [
        {
          "internalType": "bool",
          "name": "",
          "type": "bool"
        }
      ],
      "payable": false,
      "stateMutability": "view",
      "type": "function"
    }
  ],
  "evm": {
    "bytecode": {
      "linkReferences": {},
      "object": "608060405234801561001057600080fd5b50610783806100206000396000f3fe608060405234801561001057600080fd5b50600436106101cf5760003560e01c80638e8f294b11610104578063bea6b8b8116100a2578063dcfbc0c711610071578063dcfbc0c7146104d9578063e6653f3d146104e1578063e8755446146104e9578063f851a440146104f1576101cf565b8063bea6b8b814610433578063ca0af04314610459578063cc7ebdc414610487578063dce15449146104ad576101cf565b8063aa900754116100de578063aa900754146103ed578063ac0b0bb7146103f5578063b21be7fd146103fd578063bb82aa5e1461042b576101cf565b80638e8f294b1461037757806394b2294b146103bf578063986ab838146103c7576101cf565b806352d84d1e11610171578063731f0c2b1161014b578063731f0c2b1461031b5780637dc0d1d01461034157806387f76303146103495780638c57804e14610351576101cf565b806352d84d1e1461028a5780636b79c38d146102a75780636d154ea5146102f5576101cf565b806326782247116101ad57806326782247146102385780633c94786f146102405780634a5844321461025c5780634ada90af14610282576101cf565b80631d7b33d7146101d457806321af45691461020c57806324a3d62214610230575b600080fd5b6101fa600480360360208110156101ea57600080fd5b50356001600160a01b03166104f9565b60408051918252519081900360200190f35b61021461050b565b604080516001600160a01b039092168252519081900360200190f35b61021461051a565b610214610529565b610248610538565b604080519115158252519081900360200190f35b6101fa6004803603602081101561027257600080fd5b50356001600160a01b0316610548565b6101fa61055a565b610214600480360360208110156102a057600080fd5b5035610560565b6102cd600480360360208110156102bd57600080fd5b50356001600160a01b0316610587565b604080516001600160e01b03909316835263ffffffff90911660208301528051918290030190f35b6102486004803603602081101561030b57600080fd5b50356001600160a01b03166105b1565b6102486004803603602081101561033157600080fd5b50356001600160a01b03166105c6565b6102146105db565b6102486105ea565b6102cd6004803603602081101561036757600080fd5b50356001600160a01b03166105fa565b61039d6004803603602081101561038d57600080fd5b50356001600160a01b0316610624565b6040805193151584526020840192909252151582820152519081900360600190f35b6101fa61064a565b6101fa600480360360208110156103dd57600080fd5b50356001600160a01b0316610650565b6101fa610662565b610248610668565b6101fa6004803603604081101561041357600080fd5b506001600160a01b0381358116916020013516610678565b610214610695565b6101fa6004803603602081101561044957600080fd5b50356001600160a01b03166106a4565b6101fa6004803603604081101561046f57600080fd5b506001600160a01b03813581169160200135166106b6565b6101fa6004803603602081101561049d57600080fd5b50356001600160a01b03166106d3565b610214600480360360408110156104c357600080fd5b506001600160a01b0381351690602001356106e5565b61021461071a565b610248610729565b6101fa610739565b61021461073f565b600f6020526000908152604090205481565b6015546001600160a01b031681565b600a546001600160a01b031681565b6001546001600160a01b031681565b600a54600160a01b900460ff1681565b60166020526000908152604090205481565b60065481565b600d818154811061056d57fe5b6000918252602090912001546001600160a01b0316905081565b6010602052600090815260409020546001600160e01b03811690600160e01b900463ffffffff1682565b600c6020526000908152604090205460ff1681565b600b6020526000908152604090205460ff1681565b6004546001600160a01b031681565b600a54600160b01b900460ff1681565b6011602052600090815260409020546001600160e01b03811690600160e01b900463ffffffff1682565b60096020526000908152604090208054600182015460039092015460ff91821692911683565b60075481565b60176020526000908152604090205481565b600e5481565b600a54600160b81b900460ff1681565b601260209081526000928352604080842090915290825290205481565b6002546001600160a01b031681565b60186020526000908152604090205481565b601360209081526000928352604080842090915290825290205481565b60146020526000908152604090205481565b600860205281600052604060002081815481106106fe57fe5b6000918252602090912001546001600160a01b03169150829050565b6003546001600160a01b031681565b600a54600160a81b900460ff1681565b60055481565b6000546001600160a01b03168156fea265627a7a7231582077e1a94a5936a957b432df71bce37adc4be53ad15ce6b9949e13664e4088f83364736f6c63430005110032",
      "opcodes": "PUSH1 0x80 PUSH1 0x40 MSTORE CALLVALUE DUP1 ISZERO PUSH2 0x10 JUMPI PUSH1 0x0 DUP1 REVERT JUMPDEST POP PUSH2 0x783 DUP1 PUSH2 0x20 PUSH1 0x0 CODECOPY PUSH1 0x0 RETURN INVALID PUSH1 0x80 PUSH1 0x40 MSTORE CALLVALUE DUP1 ISZERO PUSH2 0x10 JUMPI PUSH1 0x0 DUP1 REVERT JUMPDEST POP PUSH1 0x4 CALLDATASIZE LT PUSH2 0x1CF JUMPI PUSH1 0x0 CALLDATALOAD PUSH1 0xE0 SHR DUP1 PUSH4 0x8E8F294B GT PUSH2 0x104 JUMPI DUP1 PUSH4 0xBEA6B8B8 GT PUSH2 0xA2 JUMPI DUP1 PUSH4 0xDCFBC0C7 GT PUSH2 0x71 JUMPI DUP1 PUSH4 0xDCFBC0C7 EQ PUSH2 0x4D9 JUMPI DUP1 PUSH4 0xE6653F3D EQ PUSH2 0x4E1 JUMPI DUP1 PUSH4 0xE8755446 EQ PUSH2 0x4E9 JUMPI DUP1 PUSH4 0xF851A440 EQ PUSH2 0x4F1 JUMPI PUSH2 0x1CF JUMP JUMPDEST DUP1 PUSH4 0xBEA6B8B8 EQ PUSH2 0x433 JUMPI DUP1 PUSH4 0xCA0AF043 EQ PUSH2 0x459 JUMPI DUP1 PUSH4 0xCC7EBDC4 EQ PUSH2 0x487 JUMPI DUP1 PUSH4 0xDCE15449 EQ PUSH2 0x4AD JUMPI PUSH2 0x1CF JUMP JUMPDEST DUP1 PUSH4 0xAA900754 GT PUSH2 0xDE JUMPI DUP1 PUSH4 0xAA900754 EQ PUSH2 0x3ED JUMPI DUP1 PUSH4 0xAC0B0BB7 EQ PUSH2 0x3F5 JUMPI DUP1 PUSH4 0xB21BE7FD EQ PUSH2 0x3FD JUMPI DUP1 PUSH4 0xBB82AA5E EQ PUSH2 0x42B JUMPI PUSH2 0x1CF JUMP JUMPDEST DUP1 PUSH4 0x8E8F294B EQ PUSH2 0x377 JUMPI DUP1 PUSH4 0x94B2294B EQ PUSH2 0x3BF JUMPI DUP1 PUSH4 0x986AB838 EQ PUSH2 0x3C7 JUMPI PUSH2 0x1CF JUMP JUMPDEST DUP1 PUSH4 0x52D84D1E GT PUSH2 0x171 JUMPI DUP1 PUSH4 0x731F0C2B GT PUSH2 0x14B JUMPI DUP1 PUSH4 0x731F0C2B EQ PUSH2 0x31B JUMPI DUP1 PUSH4 0x7DC0D1D0 EQ PUSH2 0x341 JUMPI DUP1 PUSH4 0x87F76303 EQ PUSH2 0x349 JUMPI DUP1 PUSH4 0x8C57804E EQ PUSH2 0x351 JUMPI PUSH2 0x1CF JUMP JUMPDEST DUP1 PUSH4 0x52D84D1E EQ PUSH2 0x28A JUMPI DUP1 PUSH4 0x6B79C38D EQ PUSH2 0x2A7 JUMPI DUP1 PUSH4 0x6D154EA5 EQ PUSH2 0x2F5 JUMPI PUSH2 0x1CF JUMP JUMPDEST DUP1 PUSH4 0x26782247 GT PUSH2 0x1AD JUMPI DUP1 PUSH4 0x26782247 EQ PUSH2 0x238 JUMPI DUP1 PUSH4 0x3C94786F EQ PUSH2 0x240 JUMPI DUP1 PUSH4 0x4A584432 EQ PUSH2 0x25C JUMPI DUP1 PUSH4 0x4ADA90AF EQ PUSH2 0x282 JUMPI PUSH2 0x1CF JUMP JUMPDEST DUP1 PUSH4 0x1D7B33D7 EQ PUSH2 0x1D4 JUMPI DUP1 PUSH4 0x21AF4569 EQ PUSH2 0x20C JUMPI DUP1 PUSH4 0x24A3D622 EQ PUSH2 0x230 JUMPI JUMPDEST PUSH1 0x0 DUP1 REVERT JUMPDEST PUSH2 0x1FA PUSH1 0x4 DUP1 CALLDATASIZE SUB PUSH1 0x20 DUP2 LT ISZERO PUSH2 0x1EA JUMPI PUSH1 0x0 DUP1 REVERT JUMPDEST POP CALLDATALOAD PUSH1 0x1 PUSH1 0x1 PUSH1 0xA0 SHL SUB AND PUSH2 0x4F9 JUMP JUMPDEST PUSH1 0x40 DUP1 MLOAD SWAP2 DUP3 MSTORE MLOAD SWAP1 DUP2 SWAP1 SUB PUSH1 0x20 ADD SWAP1 RETURN JUMPDEST PUSH2 0x214 PUSH2 0x50B JUMP JUMPDEST PUSH1 0x40 DUP1 MLOAD PUSH1 0x1 PUSH1 0x1 PUSH1 0xA0 SHL SUB SWAP1 SWAP3 AND DUP3 MSTORE MLOAD SWAP1 DUP2 SWAP1 SUB PUSH1 0x20 ADD SWAP1 RETURN JUMPDEST PUSH2 0x214 PUSH2 0x51A JUMP JUMPDEST PUSH2 0x214 PUSH2 0x529 JUMP JUMPDEST PUSH2 0x248 PUSH2 0x538 JUMP JUMPDEST PUSH1 0x40 DUP1 MLOAD SWAP2 ISZERO ISZERO DUP3 MSTORE MLOAD SWAP1 DUP2 SWAP1 SUB PUSH1 0x20 ADD SWAP1 RETURN JUMPDEST PUSH2 0x1FA PUSH1 0x4 DUP1 CALLDATASIZE SUB PUSH1 0x20 DUP2 LT ISZERO PUSH2 0x272 JUMPI PUSH1 0x0 DUP1 REVERT JUMPDEST POP CALLDATALOAD PUSH1 0x1 PUSH1 0x1 PUSH1 0xA0 SHL SUB AND PUSH2 0x548 JUMP JUMPDEST PUSH2 0x1FA PUSH2 0x55A JUMP JUMPDEST PUSH2 0x214 PUSH1 0x4 DUP1 CALLDATASIZE SUB PUSH1 0x20 DUP2 LT ISZERO PUSH2 0x2A0 JUMPI PUSH1 0x0 DUP1 REVERT JUMPDEST POP CALLDATALOAD PUSH2 0x560 JUMP JUMPDEST PUSH2 0x2CD PUSH1 0x4 DUP1 CALLDATASIZE SUB PUSH1 0x20 DUP2 LT ISZERO PUSH2 0x2BD JUMPI PUSH1 0x0 DUP1 REVERT JUMPDEST POP CALLDATALOAD PUSH1 0x1 PUSH1 0x1 PUSH1 0xA0 SHL SUB AND PUSH2 0x587 JUMP JUMPDEST PUSH1 0x40 DUP1 MLOAD PUSH1 0x1 PUSH1 0x1 PUSH1 0xE0 SHL SUB SWAP1 SWAP4 AND DUP4 MSTORE PUSH4 0xFFFFFFFF SWAP1 SWAP2 AND PUSH1 0x20 DUP4 ADD MSTORE DUP1 MLOAD SWAP2 DUP3 SWAP1 SUB ADD SWAP1 RETURN JUMPDEST PUSH2 0x248 PUSH1 0x4 DUP1 CALLDATASIZE SUB PUSH1 0x20 DUP2 LT ISZERO PUSH2 0x30B JUMPI PUSH1 0x0 DUP1 REVERT JUMPDEST POP CALLDATALOAD PUSH1 0x1 PUSH1 0x1 PUSH1 0xA0 SHL SUB AND PUSH2 0x5B1 JUMP JUMPDEST PUSH2 0x248 PUSH1 0x4 DUP1 CALLDATASIZE SUB PUSH1 0x20 DUP2 LT ISZERO PUSH2 0x331 JUMPI PUSH1 0x0 DUP1 REVERT JUMPDEST POP CALLDATALOAD PUSH1 0x1 PUSH1 0x1 PUSH1 0xA0 SHL SUB AND PUSH2 0x5C6 JUMP JUMPDEST PUSH2 0x214 PUSH2 0x5DB JUMP JUMPDEST PUSH2 0x248 PUSH2 0x5EA JUMP JUMPDEST PUSH2 0x2CD PUSH1 0x4 DUP1 CALLDATASIZE SUB PUSH1 0x20 DUP2 LT ISZERO PUSH2 0x367 JUMPI PUSH1 0x0 DUP1 REVERT JUMPDEST POP CALLDATALOAD PUSH1 0x1 PUSH1 0x1 PUSH1 0xA0 SHL SUB AND PUSH2 0x5FA JUMP JUMPDEST PUSH2 0x39D PUSH1 0x4 DUP1 CALLDATASIZE SUB PUSH1 0x20 DUP2 LT ISZERO PUSH2 0x38D JUMPI PUSH1 0x0 DUP1 REVERT JUMPDEST POP CALLDATALOAD PUSH1 0x1 PUSH1 0x1 PUSH1 0xA0 SHL SUB AND PUSH2 0x624 JUMP JUMPDEST PUSH1 0x40 DUP1 MLOAD SWAP4 ISZERO ISZERO DUP5 MSTORE PUSH1 0x20 DUP5 ADD SWAP3 SWAP1 SWAP3 MSTORE ISZERO ISZERO DUP3 DUP3 ADD MSTORE MLOAD SWAP1 DUP2 SWAP1 SUB PUSH1 0x60 ADD SWAP1 RETURN JUMPDEST PUSH2 0x1FA PUSH2 0x64A JUMP JUMPDEST PUSH2 0x1FA PUSH1 0x4 DUP1 CALLDATASIZE SUB PUSH1 0x20 DUP2 LT ISZERO PUSH2 0x3DD JUMPI PUSH1 0x0 DUP1 REVERT JUMPDEST POP CALLDATALOAD PUSH1 0x1 PUSH1 0x1 PUSH1 0xA0 SHL SUB AND PUSH2 0x650 JUMP JUMPDEST PUSH2 0x1FA PUSH2 0x662 JUMP JUMPDEST PUSH2 0x248 PUSH2 0x668 JUMP JUMPDEST PUSH2 0x1FA PUSH1 0x4 DUP1 CALLDATASIZE SUB PUSH1 0x40 DUP2 LT ISZERO PUSH2 0x413 JUMPI PUSH1 0x0 DUP1 REVERT JUMPDEST POP PUSH1 0x1 PUSH1 0x1 PUSH1 0xA0 SHL SUB DUP2 CALLDATALOAD DUP2 AND SWAP2 PUSH1 0x20 ADD CALLDATALOAD AND PUSH2 0x678 JUMP JUMPDEST PUSH2 0x214 PUSH2 0x695 JUMP JUMPDEST PUSH2 0x1FA PUSH1 0x4 DUP1 CALLDATASIZE SUB PUSH1 0x20 DUP2 LT ISZERO PUSH2 0x449 JUMPI PUSH1 0x0 DUP1 REVERT JUMPDEST POP CALLDATALOAD PUSH1 0x1 PUSH1 0x1 PUSH1 0xA0 SHL SUB AND PUSH2 0x6A4 JUMP JUMPDEST PUSH2 0x1FA PUSH1 0x4 DUP1 CALLDATASIZE SUB PUSH1 0x40 DUP2 LT ISZERO PUSH2 0x46F JUMPI PUSH1 0x0 DUP1 REVERT JUMPDEST POP PUSH1 0x1 PUSH1 0x1 PUSH1 0xA0 SHL SUB DUP2 CALLDATALOAD DUP2 AND SWAP2 PUSH1 0x20 ADD CALLDATALOAD AND PUSH2 0x6B6 JUMP JUMPDEST PUSH2 0x1FA PUSH1 0x4 DUP1 CALLDATASIZE SUB PUSH1 0x20 DUP2 LT ISZERO PUSH2 0x49D JUMPI PUSH1 0x0 DUP1 REVERT JUMPDEST POP CALLDATALOAD PUSH1 0x1 PUSH1 0x1 PUSH1 0xA0 SHL SUB AND PUSH2 0x6D3 JUMP JUMPDEST PUSH2 0x214 PUSH1 0x4 DUP1 CALLDATASIZE SUB PUSH1 0x40 DUP2 LT ISZERO PUSH2 0x4C3 JUMPI PUSH1 0x0 DUP1 REVERT JUMPDEST POP PUSH1 0x1 PUSH1 0x1 PUSH1 0xA0 SHL SUB DUP2 CALLDATALOAD AND SWAP1 PUSH1 0x20 ADD CALLDATALOAD PUSH2 0x6E5 JUMP JUMPDEST PUSH2 0x214 PUSH2 0x71A JUMP JUMPDEST PUSH2 0x248 PUSH2 0x729 JUMP JUMPDEST PUSH2 0x1FA PUSH2 0x739 JUMP JUMPDEST PUSH2 0x214 PUSH2 0x73F JUMP JUMPDEST PUSH1 0xF PUSH1 0x20 MSTORE PUSH1 0x0 SWAP1 DUP2 MSTORE PUSH1 0x40 SWAP1 KECCAK256 SLOAD DUP2 JUMP JUMPDEST PUSH1 0x15 SLOAD PUSH1 0x1 PUSH1 0x1 PUSH1 0xA0 SHL SUB AND DUP2 JUMP JUMPDEST PUSH1 0xA SLOAD PUSH1 0x1 PUSH1 0x1 PUSH1 0xA0 SHL SUB AND DUP2 JUMP JUMPDEST PUSH1 0x1 SLOAD PUSH1 0x1 PUSH1 0x1 PUSH1 0xA0 SHL SUB AND DUP2 JUMP JUMPDEST PUSH1 0xA SLOAD PUSH1 0x1 PUSH1 0xA0 SHL SWAP1 DIV PUSH1 0xFF AND DUP2 JUMP JUMPDEST PUSH1 0x16 PUSH1 0x20 MSTORE PUSH1 0x0 SWAP1 DUP2 MSTORE PUSH1 0x40 SWAP1 KECCAK256 SLOAD DUP2 JUMP JUMPDEST PUSH1 0x6 SLOAD DUP2 JUMP JUMPDEST PUSH1 0xD DUP2 DUP2 SLOAD DUP2 LT PUSH2 0x56D JUMPI INVALID JUMPDEST PUSH1 0x0 SWAP2 DUP3 MSTORE PUSH1 0x20 SWAP1 SWAP2 KECCAK256 ADD SLOAD PUSH1 0x1 PUSH1 0x1 PUSH1 0xA0 SHL SUB AND SWAP1 POP DUP2 JUMP JUMPDEST PUSH1 0x10 PUSH1 0x20 MSTORE PUSH1 0x0 SWAP1 DUP2 MSTORE PUSH1 0x40 SWAP1 KECCAK256 SLOAD PUSH1 0x1 PUSH1 0x1 PUSH1 0xE0 SHL SUB DUP2 AND SWAP1 PUSH1 0x1 PUSH1 0xE0 SHL SWAP1 DIV PUSH4 0xFFFFFFFF AND DUP3 JUMP JUMPDEST PUSH1 0xC PUSH1 0x20 MSTORE PUSH1 0x0 SWAP1 DUP2 MSTORE PUSH1 0x40 SWAP1 KECCAK256 SLOAD PUSH1 0xFF AND DUP2 JUMP JUMPDEST PUSH1 0xB PUSH1 0x20 MSTORE PUSH1 0x0 SWAP1 DUP2 MSTORE PUSH1 0x40 SWAP1 KECCAK256 SLOAD PUSH1 0xFF AND DUP2 JUMP JUMPDEST PUSH1 0x4 SLOAD PUSH1 0x1 PUSH1 0x1 PUSH1 0xA0 SHL SUB AND DUP2 JUMP JUMPDEST PUSH1 0xA SLOAD PUSH1 0x1 PUSH1 0xB0 SHL SWAP1 DIV PUSH1 0xFF AND DUP2 JUMP JUMPDEST PUSH1 0x11 PUSH1 0x20 MSTORE PUSH1 0x0 SWAP1 DUP2 MSTORE PUSH1 0x40 SWAP1 KECCAK256 SLOAD PUSH1 0x1 PUSH1 0x1 PUSH1 0xE0 SHL SUB DUP2 AND SWAP1 PUSH1 0x1 PUSH1 0xE0 SHL SWAP1 DIV PUSH4 0xFFFFFFFF AND DUP3 JUMP JUMPDEST PUSH1 0x9 PUSH1 0x20 MSTORE PUSH1 0x0 SWAP1 DUP2 MSTORE PUSH1 0x40 SWAP1 KECCAK256 DUP1 SLOAD PUSH1 0x1 DUP3 ADD SLOAD PUSH1 0x3 SWAP1 SWAP3 ADD SLOAD PUSH1 0xFF SWAP2 DUP3 AND SWAP3 SWAP2 AND DUP4 JUMP JUMPDEST PUSH1 0x7 SLOAD DUP2 JUMP JUMPDEST PUSH1 0x17 PUSH1 0x20 MSTORE PUSH1 0x0 SWAP1 DUP2 MSTORE PUSH1 0x40 SWAP1 KECCAK256 SLOAD DUP2 JUMP JUMPDEST PUSH1 0xE SLOAD DUP2 JUMP JUMPDEST PUSH1 0xA SLOAD PUSH1 0x1 PUSH1 0xB8 SHL SWAP1 DIV PUSH1 0xFF AND DUP2 JUMP JUMPDEST PUSH1 0x12 PUSH1 0x20 SWAP1 DUP2 MSTORE PUSH1 0x0 SWAP3 DUP4 MSTORE PUSH1 0x40 DUP1 DUP5 KECCAK256 SWAP1 SWAP2 MSTORE SWAP1 DUP3 MSTORE SWAP1 KECCAK256 SLOAD DUP2 JUMP JUMPDEST PUSH1 0x2 SLOAD PUSH1 0x1 PUSH1 0x1 PUSH1 0xA0 SHL SUB AND DUP2 JUMP JUMPDEST PUSH1 0x18 PUSH1 0x20 MSTORE PUSH1 0x0 SWAP1 DUP2 MSTORE PUSH1 0x40 SWAP1 KECCAK256 SLOAD DUP2 JUMP JUMPDEST PUSH1 0x13 PUSH1 0x20 SWAP1 DUP2 MSTORE PUSH1 0x0 SWAP3 DUP4 MSTORE PUSH1 0x40 DUP1 DUP5 KECCAK256 SWAP1 SWAP2 MSTORE SWAP1 DUP3 MSTORE SWAP1 KECCAK256 SLOAD DUP2 JUMP JUMPDEST PUSH1 0x14 PUSH1 0x20 MSTORE PUSH1 0x0 SWAP1 DUP2 MSTORE PUSH1 0x40 SWAP1 KECCAK256 SLOAD DUP2 JUMP JUMPDEST PUSH1 0x8 PUSH1 0x20 MSTORE DUP2 PUSH1 0x0 MSTORE PUSH1 0x40 PUSH1 0x0 KECCAK256 DUP2 DUP2 SLOAD DUP2 LT PUSH2 0x6FE JUMPI INVALID JUMPDEST PUSH1 0x0 SWAP2 DUP3 MSTORE PUSH1 0x20 SWAP1 SWAP2 KECCAK256 ADD SLOAD PUSH1 0x1 PUSH1 0x1 PUSH1 0xA0 SHL SUB AND SWAP2 POP DUP3 SWAP1 POP JUMP JUMPDEST PUSH1 0x3 SLOAD PUSH1 0x1 PUSH1 0x1 PUSH1 0xA0 SHL SUB AND DUP2 JUMP JUMPDEST PUSH1 0xA SLOAD PUSH1 0x1 PUSH1 0xA8 SHL SWAP1 DIV PUSH1 0xFF AND DUP2 JUMP JUMPDEST PUSH1 0x5 SLOAD DUP2 JUMP JUMPDEST PUSH1 0x0 SLOAD PUSH1 0x1 PUSH1 0x1 PUSH1 0xA0 SHL SUB AND DUP2 JUMP INVALID LOG2 PUSH6 0x627A7A723158 KECCAK256 PUSH24 0xE1A94A5936A957B432DF71BCE37ADC4BE53AD15CE6B9949E SGT PUSH7 0x4E4088F8336473 PUSH16 0x6C634300051100320000000000000000 "
    }
  },
  "humanReadableAbi": [
    "function _borrowGuardianPaused() view returns(bool)",
    "function _mintGuardianPaused() view returns(bool)",
    "function accountAssets(address, uint256) view returns(address)",
    "function admin() view returns(address)",
    "function allMarkets(uint256) view returns(address)",
    "function borrowCapGuardian() view returns(address)",
    "function borrowCaps(address) view returns(uint256)",
    "function borrowGuardianPaused(address) view returns(bool)",
    "function closeFactorMantissa() view returns(uint256)",
    "function compAccrued(address) view returns(uint256)",
    "function compBorrowState(address) view returns(uint224 index, uint32 block)",
    "function compBorrowerIndex(address, address) view returns(uint256)",
    "function compContributorSpeeds(address) view returns(uint256)",
    "function compRate() view returns(uint256)",
    "function compSpeeds(address) view returns(uint256)",
    "function compSupplierIndex(address, address) view returns(uint256)",
    "function compSupplyState(address) view returns(uint224 index, uint32 block)",
    "function comptrollerImplementation() view returns(address)",
    "function lastContributorBlock(address) view returns(uint256)",
    "function liquidationIncentiveMantissa() view returns(uint256)",
    "function markets(address) view returns(bool isListed, uint256 collateralFactorMantissa, bool isComped)",
    "function maxAssets() view returns(uint256)",
    "function mintGuardianPaused(address) view returns(bool)",
    "function oracle() view returns(address)",
    "function pauseGuardian() view returns(address)",
    "function pendingAdmin() view returns(address)",
    "function pendingComptrollerImplementation() view returns(address)",
    "function seizeGuardianPaused() view returns(bool)",
    "function transferGuardianPaused() view returns(bool)"
  ]
}