{
  "abi": [
    {
      "inputs": [],
      "payable": false,
      "stateMutability": "nonpayable",
      "type": "constructor"
    },
    {
      "anonymous": false,
      "inputs": [
        {
          "indexed": false,
          "internalType": "uint256",
          "name": "error",
          "type": "uint256"
        },
        {
          "indexed": false,
          "internalType": "uint256",
          "name": "info",
          "type": "uint256"
        },
        {
          "indexed": false,
          "internalType": "uint256",
          "name": "detail",
          "type": "uint256"
        }
      ],
      "name": "Failure",
      "type": "event"
    },
    {
      "anonymous": false,
      "inputs": [
        {
          "indexed": false,
          "internalType": "contract CToken",
          "name": "cToken",
          "type": "address"
        },
        {
          "indexed": false,
          "internalType": "address",
          "name": "account",
          "type": "address"
        }
      ],
      "name": "MarketEntered",
      "type": "event"
    },
    {
      "anonymous": false,
      "inputs": [
        {
          "indexed": false,
          "internalType": "contract CToken",
          "name": "cToken",
          "type": "address"
        },
        {
          "indexed": false,
          "internalType": "address",
          "name": "account",
          "type": "address"
        }
      ],
      "name": "MarketExited",
      "type": "event"
    },
    {
      "anonymous": false,
      "inputs": [
        {
          "indexed": false,
          "internalType": "contract CToken",
          "name": "cToken",
          "type": "address"
        }
      ],
      "name": "MarketListed",
      "type": "event"
    },
    {
      "anonymous": false,
      "inputs": [
        {
          "indexed": false,
          "internalType": "uint256",
          "name": "oldCloseFactorMantissa",
          "type": "uint256"
        },
        {
          "indexed": false,
          "internalType": "uint256",
          "name": "newCloseFactorMantissa",
          "type": "uint256"
        }
      ],
      "name": "NewCloseFactor",
      "type": "event"
    },
    {
      "anonymous": false,
      "inputs": [
        {
          "indexed": false,
          "internalType": "contract CToken",
          "name": "cToken",
          "type": "address"
        },
        {
          "indexed": false,
          "internalType": "uint256",
          "name": "oldCollateralFactorMantissa",
          "type": "uint256"
        },
        {
          "indexed": false,
          "internalType": "uint256",
          "name": "newCollateralFactorMantissa",
          "type": "uint256"
        }
      ],
      "name": "NewCollateralFactor",
      "type": "event"
    },
    {
      "anonymous": false,
      "inputs": [
        {
          "indexed": false,
          "internalType": "uint256",
          "name": "oldLiquidationIncentiveMantissa",
          "type": "uint256"
        },
        {
          "indexed": false,
          "internalType": "uint256",
          "name": "newLiquidationIncentiveMantissa",
          "type": "uint256"
        }
      ],
      "name": "NewLiquidationIncentive",
      "type": "event"
    },
    {
      "anonymous": false,
      "inputs": [
        {
          "indexed": false,
          "internalType": "uint256",
          "name": "oldMaxAssets",
          "type": "uint256"
        },
        {
          "indexed": false,
          "internalType": "uint256",
          "name": "newMaxAssets",
          "type": "uint256"
        }
      ],
      "name": "NewMaxAssets",
      "type": "event"
    },
    {
      "anonymous": false,
      "inputs": [
        {
          "indexed": false,
          "internalType": "contract PriceOracle",
          "name": "oldPriceOracle",
          "type": "address"
        },
        {
          "indexed": false,
          "internalType": "contract PriceOracle",
          "name": "newPriceOracle",
          "type": "address"
        }
      ],
      "name": "NewPriceOracle",
      "type": "event"
    },
    {
      "constant": false,
      "inputs": [
        {
          "internalType": "contract Unitroller",
          "name": "unitroller",
          "type": "address"
        },
        {
          "internalType": "contract PriceOracle",
          "name": "_oracle",
          "type": "address"
        },
        {
          "internalType": "uint256",
          "name": "_closeFactorMantissa",
          "type": "uint256"
        },
        {
          "internalType": "uint256",
          "name": "_maxAssets",
          "type": "uint256"
        },
        {
          "internalType": "bool",
          "name": "reinitializing",
          "type": "bool"
        }
      ],
      "name": "_become",
      "outputs": [],
      "payable": false,
      "stateMutability": "nonpayable",
      "type": "function"
    },
    {
      "constant": false,
      "inputs": [
        {
          "internalType": "uint256",
          "name": "newCloseFactorMantissa",
          "type": "uint256"
        }
      ],
      "name": "_setCloseFactor",
      "outputs": [
        {
          "internalType": "uint256",
          "name": "",
          "type": "uint256"
        }
      ],
      "payable": false,
      "stateMutability": "nonpayable",
      "type": "function"
    },
    {
      "constant": false,
      "inputs": [
        {
          "internalType": "contract CToken",
          "name": "cToken",
          "type": "address"
        },
        {
          "internalType": "uint256",
          "name": "newCollateralFactorMantissa",
          "type": "uint256"
        }
      ],
      "name": "_setCollateralFactor",
      "outputs": [
        {
          "internalType": "uint256",
          "name": "",
          "type": "uint256"
        }
      ],
      "payable": false,
      "stateMutability": "nonpayable",
      "type": "function"
    },
    {
      "constant": false,
      "inputs": [
        {
          "internalType": "uint256",
          "name": "newLiquidationIncentiveMantissa",
          "type": "uint256"
        }
      ],
      "name": "_setLiquidationIncentive",
      "outputs": [
        {
          "internalType": "uint256",
          "name": "",
          "type": "uint256"
        }
      ],
      "payable": false,
      "stateMutability": "nonpayable",
      "type": "function"
    },
    {
      "constant": false,
      "inputs": [
        {
          "internalType": "uint256",
          "name": "newMaxAssets",
          "type": "uint256"
        }
      ],
      "name": "_setMaxAssets",
      "outputs": [
        {
          "internalType": "uint256",
          "name": "",
          "type": "uint256"
        }
      ],
      "payable": false,
      "stateMutability": "nonpayable",
      "type": "function"
    },
    {
      "constant": false,
      "inputs": [
        {
          "internalType": "contract PriceOracle",
          "name": "newOracle",
          "type": "address"
        }
      ],
      "name": "_setPriceOracle",
      "outputs": [
        {
          "internalType": "uint256",
          "name": "",
          "type": "uint256"
        }
      ],
      "payable": false,
      "stateMutability": "nonpayable",
      "type": "function"
    },
    {
      "constant": false,
      "inputs": [
        {
          "internalType": "contract CToken",
          "name": "cToken",
          "type": "address"
        }
      ],
      "name": "_supportMarket",
      "outputs": [
        {
          "internalType": "uint256",
          "name": "",
          "type": "uint256"
        }
      ],
      "payable": false,
      "stateMutability": "nonpayable",
      "type": "function"
    },
    {
      "constant": true,
      "inputs": [
        {
          "internalType": "address",
          "name": "",
          "type": "address"
        },
        {
          "internalType": "uint256",
          "name": "",
          "type": "uint256"
        }
      ],
      "name": "accountAssets",
      "outputs": [
        {
          "internalType": "contract CToken",
          "name": "",
          "type": "address"
        }
      ],
      "payable": false,
      "stateMutability": "view",
      "type": "function"
    },
    {
      "constant": true,
      "inputs": [],
      "name": "admin",
      "outputs": [
        {
          "internalType": "address",
          "name": "",
          "type": "address"
        }
      ],
      "payable": false,
      "stateMutability": "view",
      "type": "function"
    },
    {
      "constant": false,
      "inputs": [
        {
          "internalType": "address",
          "name": "cToken",
          "type": "address"
        },
        {
          "internalType": "address",
          "name": "borrower",
          "type": "address"
        },
        {
          "internalType": "uint256",
          "name": "borrowAmount",
          "type": "uint256"
        }
      ],
      "name": "borrowAllowed",
      "outputs": [
        {
          "internalType": "uint256",
          "name": "",
          "type": "uint256"
        }
      ],
      "payable": false,
      "stateMutability": "nonpayable",
      "type": "function"
    },
    {
      "constant": false,
      "inputs": [
        {
          "internalType": "address",
          "name": "cToken",
          "type": "address"
        },
        {
          "internalType": "address",
          "name": "borrower",
          "type": "address"
        },
        {
          "internalType": "uint256",
          "name": "borrowAmount",
          "type": "uint256"
        }
      ],
      "name": "borrowVerify",
      "outputs": [],
      "payable": false,
      "stateMutability": "nonpayable",
      "type": "function"
    },
    {
      "constant": true,
      "inputs": [
        {
          "internalType": "address",
          "name": "account",
          "type": "address"
        },
        {
          "internalType": "contract CToken",
          "name": "cToken",
          "type": "address"
        }
      ],
      "name": "checkMembership",
      "outputs": [
        {
          "internalType": "bool",
          "name": "",
          "type": "bool"
        }
      ],
      "payable": false,
      "stateMutability": "view",
      "type": "function"
    },
    {
      "constant": true,
      "inputs": [],
      "name": "closeFactorMantissa",
      "outputs": [
        {
          "internalType": "uint256",
          "name": "",
          "type": "uint256"
        }
      ],
      "payable": false,
      "stateMutability": "view",
      "type": "function"
    },
    {
      "constant": true,
      "inputs": [],
      "name": "comptrollerImplementation",
      "outputs": [
        {
          "internalType": "address",
          "name": "",
          "type": "address"
        }
      ],
      "payable": false,
      "stateMutability": "view",
      "type": "function"
    },
    {
      "constant": false,
      "inputs": [
        {
          "internalType": "address[]",
          "name": "cTokens",
          "type": "address[]"
        }
      ],
      "name": "enterMarkets",
      "outputs": [
        {
          "internalType": "uint256[]",
          "name": "",
          "type": "uint256[]"
        }
      ],
      "payable": false,
      "stateMutability": "nonpayable",
      "type": "function"
    },
    {
      "constant": false,
      "inputs": [
        {
          "internalType": "address",
          "name": "cTokenAddress",
          "type": "address"
        }
      ],
      "name": "exitMarket",
      "outputs": [
        {
          "internalType": "uint256",
          "name": "",
          "type": "uint256"
        }
      ],
      "payable": false,
      "stateMutability": "nonpayable",
      "type": "function"
    },
    {
      "constant": true,
      "inputs": [
        {
          "internalType": "address",
          "name": "account",
          "type": "address"
        }
      ],
      "name": "getAccountLiquidity",
      "outputs": [
        {
          "internalType": "uint256",
          "name": "",
          "type": "uint256"
        },
        {
          "internalType": "uint256",
          "name": "",
          "type": "uint256"
        },
        {
          "internalType": "uint256",
          "name": "",
          "type": "uint256"
        }
      ],
      "payable": false,
      "stateMutability": "view",
      "type": "function"
    },
    {
      "constant": true,
      "inputs": [
        {
          "internalType": "address",
          "name": "account",
          "type": "address"
        }
      ],
      "name": "getAssetsIn",
      "outputs": [
        {
          "internalType": "contract CToken[]",
          "name": "",
          "type": "address[]"
        }
      ],
      "payable": false,
      "stateMutability": "view",
      "type": "function"
    },
    {
      "constant": true,
      "inputs": [],
      "name": "isComptroller",
      "outputs": [
        {
          "internalType": "bool",
          "name": "",
          "type": "bool"
        }
      ],
      "payable": false,
      "stateMutability": "view",
      "type": "function"
    },
    {
      "constant": false,
      "inputs": [
        {
          "internalType": "address",
          "name": "cTokenBorrowed",
          "type": "address"
        },
        {
          "internalType": "address",
          "name": "cTokenCollateral",
          "type": "address"
        },
        {
          "internalType": "address",
          "name": "liquidator",
          "type": "address"
        },
        {
          "internalType": "address",
          "name": "borrower",
          "type": "address"
        },
        {
          "internalType": "uint256",
          "name": "repayAmount",
          "type": "uint256"
        }
      ],
      "name": "liquidateBorrowAllowed",
      "outputs": [
        {
          "internalType": "uint256",
          "name": "",
          "type": "uint256"
        }
      ],
      "payable": false,
      "stateMutability": "nonpayable",
      "type": "function"
    },
    {
      "constant": false,
      "inputs": [
        {
          "internalType": "address",
          "name": "cTokenBorrowed",
          "type": "address"
        },
        {
          "internalType": "address",
          "name": "cTokenCollateral",
          "type": "address"
        },
        {
          "internalType": "address",
          "name": "liquidator",
          "type": "address"
        },
        {
          "internalType": "address",
          "name": "borrower",
          "type": "address"
        },
        {
          "internalType": "uint256",
          "name": "repayAmount",
          "type": "uint256"
        },
        {
          "internalType": "uint256",
          "name": "seizeTokens",
          "type": "uint256"
        }
      ],
      "name": "liquidateBorrowVerify",
      "outputs": [],
      "payable": false,
      "stateMutability": "nonpayable",
      "type": "function"
    },
    {
      "constant": true,
      "inputs": [
        {
          "internalType": "address",
          "name": "cTokenBorrowed",
          "type": "address"
        },
        {
          "internalType": "address",
          "name": "cTokenCollateral",
          "type": "address"
        },
        {
          "internalType": "uint256",
          "name": "repayAmount",
          "type": "uint256"
        }
      ],
      "name": "liquidateCalculateSeizeTokens",
      "outputs": [
        {
          "internalType": "uint256",
          "name": "",
          "type": "uint256"
        },
        {
          "internalType": "uint256",
          "name": "",
          "type": "uint256"
        }
      ],
      "payable": false,
      "stateMutability": "view",
      "type": "function"
    },
    {
      "constant": true,
      "inputs": [],
      "name": "liquidationIncentiveMantissa",
      "outputs": [
        {
          "internalType": "uint256",
          "name": "",
          "type": "uint256"
        }
      ],
      "payable": false,
      "stateMutability": "view",
      "type": "function"
    },
    {
      "constant": true,
      "inputs": [
        {
          "internalType": "address",
          "name": "",
          "type": "address"
        }
      ],
      "name": "markets",
      "outputs": [
        {
          "internalType": "bool",
          "name": "isListed",
          "type": "bool"
        },
        {
          "internalType": "uint256",
          "name": "collateralFactorMantissa",
          "type": "uint256"
        }
      ],
      "payable": false,
      "stateMutability": "view",
      "type": "function"
    },
    {
      "constant": true,
      "inputs": [],
      "name": "maxAssets",
      "outputs": [
        {
          "internalType": "uint256",
          "name": "",
          "type": "uint256"
        }
      ],
      "payable": false,
      "stateMutability": "view",
      "type": "function"
    },
    {
      "constant": false,
      "inputs": [
        {
          "internalType": "address",
          "name": "cToken",
          "type": "address"
        },
        {
          "internalType": "address",
          "name": "minter",
          "type": "address"
        },
        {
          "internalType": "uint256",
          "name": "mintAmount",
          "type": "uint256"
        }
      ],
      "name": "mintAllowed",
      "outputs": [
        {
          "internalType": "uint256",
          "name": "",
          "type": "uint256"
        }
      ],
      "payable": false,
      "stateMutability": "nonpayable",
      "type": "function"
    },
    {
      "constant": false,
      "inputs": [
        {
          "internalType": "address",
          "name": "cToken",
          "type": "address"
        },
        {
          "internalType": "address",
          "name": "minter",
          "type": "address"
        },
        {
          "internalType": "uint256",
          "name": "mintAmount",
          "type": "uint256"
        },
        {
          "internalType": "uint256",
          "name": "mintTokens",
          "type": "uint256"
        }
      ],
      "name": "mintVerify",
      "outputs": [],
      "payable": false,
      "stateMutability": "nonpayable",
      "type": "function"
    },
    {
      "constant": true,
      "inputs": [],
      "name": "oracle",
      "outputs": [
        {
          "internalType": "contract PriceOracle",
          "name": "",
          "type": "address"
        }
      ],
      "payable": false,
      "stateMutability": "view",
      "type": "function"
    },
    {
      "constant": true,
      "inputs": [],
      "name": "pendingAdmin",
      "outputs": [
        {
          "internalType": "address",
          "name": "",
          "type": "address"
        }
      ],
      "payable": false,
      "stateMutability": "view",
      "type": "function"
    },
    {
      "constant": true,
      "inputs": [],
      "name": "pendingComptrollerImplementation",
      "outputs": [
        {
          "internalType": "address",
          "name": "",
          "type": "address"
        }
      ],
      "payable": false,
      "stateMutability": "view",
      "type": "function"
    },
    {
      "constant": false,
      "inputs": [
        {
          "internalType": "address",
          "name": "cToken",
          "type": "address"
        },
        {
          "internalType": "address",
          "name": "redeemer",
          "type": "address"
        },
        {
          "internalType": "uint256",
          "name": "redeemTokens",
          "type": "uint256"
        }
      ],
      "name": "redeemAllowed",
      "outputs": [
        {
          "internalType": "uint256",
          "name": "",
          "type": "uint256"
        }
      ],
      "payable": false,
      "stateMutability": "nonpayable",
      "type": "function"
    },
    {
      "constant": false,
      "inputs": [
        {
          "internalType": "address",
          "name": "cToken",
          "type": "address"
        },
        {
          "internalType": "address",
          "name": "redeemer",
          "type": "address"
        },
        {
          "internalType": "uint256",
          "name": "redeemAmount",
          "type": "uint256"
        },
        {
          "internalType": "uint256",
          "name": "redeemTokens",
          "type": "uint256"
        }
      ],
      "name": "redeemVerify",
      "outputs": [],
      "payable": false,
      "stateMutability": "nonpayable",
      "type": "function"
    },
    {
      "constant": false,
      "inputs": [
        {
          "internalType": "address",
          "name": "cToken",
          "type": "address"
        },
        {
          "internalType": "address",
          "name": "payer",
          "type": "address"
        },
        {
          "internalType": "address",
          "name": "borrower",
          "type": "address"
        },
        {
          "internalType": "uint256",
          "name": "repayAmount",
          "type": "uint256"
        }
      ],
      "name": "repayBorrowAllowed",
      "outputs": [
        {
          "internalType": "uint256",
          "name": "",
          "type": "uint256"
        }
      ],
      "payable": false,
      "stateMutability": "nonpayable",
      "type": "function"
    },
    {
      "constant": false,
      "inputs": [
        {
          "internalType": "address",
          "name": "cToken",
          "type": "address"
        },
        {
          "internalType": "address",
          "name": "payer",
          "type": "address"
        },
        {
          "internalType": "address",
          "name": "borrower",
          "type": "address"
        },
        {
          "internalType": "uint256",
          "name": "repayAmount",
          "type": "uint256"
        },
        {
          "internalType": "uint256",
          "name": "borrowerIndex",
          "type": "uint256"
        }
      ],
      "name": "repayBorrowVerify",
      "outputs": [],
      "payable": false,
      "stateMutability": "nonpayable",
      "type": "function"
    },
    {
      "constant": false,
      "inputs": [
        {
          "internalType": "address",
          "name": "cTokenCollateral",
          "type": "address"
        },
        {
          "internalType": "address",
          "name": "cTokenBorrowed",
          "type": "address"
        },
        {
          "internalType": "address",
          "name": "liquidator",
          "type": "address"
        },
        {
          "internalType": "address",
          "name": "borrower",
          "type": "address"
        },
        {
          "internalType": "uint256",
          "name": "seizeTokens",
          "type": "uint256"
        }
      ],
      "name": "seizeAllowed",
      "outputs": [
        {
          "internalType": "uint256",
          "name": "",
          "type": "uint256"
        }
      ],
      "payable": false,
      "stateMutability": "nonpayable",
      "type": "function"
    },
    {
      "constant": false,
      "inputs": [
        {
          "internalType": "address",
          "name": "cTokenCollateral",
          "type": "address"
        },
        {
          "internalType": "address",
          "name": "cTokenBorrowed",
          "type": "address"
        },
        {
          "internalType": "address",
          "name": "liquidator",
          "type": "address"
        },
        {
          "internalType": "address",
          "name": "borrower",
          "type": "address"
        },
        {
          "internalType": "uint256",
          "name": "seizeTokens",
          "type": "uint256"
        }
      ],
      "name": "seizeVerify",
      "outputs": [],
      "payable": false,
      "stateMutability": "nonpayable",
      "type": "function"
    },
    {
      "constant": false,
      "inputs": [
        {
          "internalType": "address",
          "name": "cToken",
          "type": "address"
        },
        {
          "internalType": "address",
          "name": "src",
          "type": "address"
        },
        {
          "internalType": "address",
          "name": "dst",
          "type": "address"
        },
        {
          "internalType": "uint256",
          "name": "transferTokens",
          "type": "uint256"
        }
      ],
      "name": "transferAllowed",
      "outputs": [
        {
          "internalType": "uint256",
          "name": "",
          "type": "uint256"
        }
      ],
      "payable": false,
      "stateMutability": "nonpayable",
      "type": "function"
    },
    {
      "constant": false,
      "inputs": [
        {
          "internalType": "address",
          "name": "cToken",
          "type": "address"
        },
        {
          "internalType": "address",
          "name": "src",
          "type": "address"
        },
        {
          "internalType": "address",
          "name": "dst",
          "type": "address"
        },
        {
          "internalType": "uint256",
          "name": "transferTokens",
          "type": "uint256"
        }
      ],
      "name": "transferVerify",
      "outputs": [],
      "payable": false,
      "stateMutability": "nonpayable",
      "type": "function"
    }
  ],
  "evm": {
    "bytecode": {
      "linkReferences": {},
      "object": "608060405234801561001057600080fd5b50600080546001600160a01b03191633179055612cca806100326000396000f3fe608060405234801561001057600080fd5b50600436106102315760003560e01c80638e8f294b11610130578063d02f7351116100b8578063e4028eee1161007c578063e4028eee1461090e578063e87554461461093a578063eabe7d9114610942578063ede4edd014610978578063f851a4401461099e57610231565b8063d02f735114610841578063d9226ced14610887578063da3d454c146108a4578063dce15449146108da578063dcfbc0c71461090657610231565b8063abfceffc116100ff578063abfceffc14610695578063bb82aa5e1461070b578063bdcdc25814610713578063c29982381461074f578063c488847b146107f257610231565b80638e8f294b146105f8578063929fe9a11461063957806394b2294b14610667578063a76b3fda1461066f57610231565b80634ef4c3e1116101be5780635ec88c79116101825780635ec88c79146104e45780635fc7e71e146105285780636a56947e1461056e5780636d35bf91146105aa5780637dc0d1d0146105f057610231565b80634ef4c3e1146103f95780634fd42e171461042f57806351dff9891461044c57806355ee1fe1146104885780635c778605146104ae57610231565b8063317b0b7711610205578063317b0b771461030857806332000e001461032557806341c728b91461036957806347ef3b3b146103a55780634ada90af146103f157610231565b80627e3dd2146102365780631ededc911461025257806324008a621461029657806326782247146102e4575b600080fd5b61023e6109a6565b604080519115158252519081900360200190f35b610294600480360360a081101561026857600080fd5b506001600160a01b038135811691602081013582169160408201351690606081013590608001356109ab565b005b6102d2600480360360808110156102ac57600080fd5b506001600160a01b038135811691602081013582169160408201351690606001356109b2565b60408051918252519081900360200190f35b6102ec6109e8565b604080516001600160a01b039092168252519081900360200190f35b6102d26004803603602081101561031e57600080fd5b50356109f7565b610294600480360360a081101561033b57600080fd5b506001600160a01b038135811691602081013590911690604081013590606081013590608001351515610b05565b6102946004803603608081101561037f57600080fd5b506001600160a01b03813581169160208101359091169060408101359060600135610f9d565b610294600480360360c08110156103bb57600080fd5b506001600160a01b0381358116916020810135821691604082013581169160608101359091169060808101359060a00135610fa3565b6102d2610fa8565b6102d26004803603606081101561040f57600080fd5b506001600160a01b03813581169160208101359091169060400135610fae565b6102d26004803603602081101561044557600080fd5b5035610fe5565b6102946004803603608081101561046257600080fd5b506001600160a01b038135811691602081013590911690604081013590606001356110d4565b6102d26004803603602081101561049e57600080fd5b50356001600160a01b0316611128565b610294600480360360608110156104c457600080fd5b506001600160a01b038135811691602081013590911690604001356111aa565b61050a600480360360208110156104fa57600080fd5b50356001600160a01b03166111af565b60408051938452602084019290925282820152519081900360600190f35b6102d2600480360360a081101561053e57600080fd5b506001600160a01b03813581169160208101358216916040820135811691606081013590911690608001356111e4565b6102946004803603608081101561058457600080fd5b506001600160a01b03813581169160208101358216916040820135169060600135610f9d565b610294600480360360a08110156105c057600080fd5b506001600160a01b03813581169160208101358216916040820135811691606081013590911690608001356109ab565b6102ec61136b565b61061e6004803603602081101561060e57600080fd5b50356001600160a01b031661137a565b60408051921515835260208301919091528051918290030190f35b61023e6004803603604081101561064f57600080fd5b506001600160a01b0381358116916020013516611399565b6102d26113cd565b6102d26004803603602081101561068557600080fd5b50356001600160a01b03166113d3565b6106bb600480360360208110156106ab57600080fd5b50356001600160a01b0316611502565b60408051602080825283518183015283519192839290830191858101910280838360005b838110156106f75781810151838201526020016106df565b505050509050019250505060405180910390f35b6102ec61158b565b6102d26004803603608081101561072957600080fd5b506001600160a01b0381358116916020810135821691604082013516906060013561159a565b6106bb6004803603602081101561076557600080fd5b81019060208101813564010000000081111561078057600080fd5b82018360208201111561079257600080fd5b803590602001918460208302840111640100000000831117156107b457600080fd5b9190808060200260200160405190810160405280939291908181526020018383602002808284376000920191909152509295506115a7945050505050565b6108286004803603606081101561080857600080fd5b506001600160a01b0381358116916020810135909116906040013561174b565b6040805192835260208301919091528051918290030190f35b6102d2600480360360a081101561085757600080fd5b506001600160a01b03813581169160208101358216916040820135811691606081013590911690608001356119c0565b6102d26004803603602081101561089d57600080fd5b5035611b03565b6102d2600480360360608110156108ba57600080fd5b506001600160a01b03813581169160208101359091169060400135611b67565b6102ec600480360360408110156108f057600080fd5b506001600160a01b038135169060200135611c9b565b6102ec611cd0565b6102d26004803603604081101561092457600080fd5b506001600160a01b038135169060200135611cdf565b6102d2611e8f565b6102d26004803603606081101561095857600080fd5b506001600160a01b03813581169160208101359091169060400135611e95565b6102d26004803603602081101561098e57600080fd5b50356001600160a01b0316611ea2565b6102ec6121b5565b600181565b5050505050565b6001600160a01b03841660009081526009602052604081205460ff166109da575060096109e0565b60005b90505b949350505050565b6001546001600160a01b031681565b6000610a016121c4565b610a1857610a116001600461220f565b9050610b00565b610a20612b8a565b506040805160208101909152828152610a37612b8a565b50604080516020810190915266b1a2bc2ec500008152610a578282612275565b15610a7057610a6760058061220f565b92505050610b00565b610a78612b8a565b506040805160208101909152670c7d713b49da00008152610a99818461227d565b15610ab357610aa960058061220f565b9350505050610b00565b6005805490869055604080518281526020810188905281517f3b9670cf975d26958e754b57098eaa2ac914d8d2a31b83257997b9f346110fd9929181900390910190a160005b9450505050505b919050565b846001600160a01b031663f851a4406040518163ffffffff1660e01b815260040160206040518083038186803b158015610b3e57600080fd5b505afa158015610b52573d6000803e3d6000fd5b505050506040513d6020811015610b6857600080fd5b50516001600160a01b03163314610bb05760405162461bcd60e51b8152600401808060200182810382526027815260200180612c6f6027913960400191505060405180910390fd5b6000856001600160a01b031663c1e803346040518163ffffffff1660e01b8152600401602060405180830381600087803b158015610bed57600080fd5b505af1158015610c01573d6000803e3d6000fd5b505050506040513d6020811015610c1757600080fd5b505190508015610c66576040805162461bcd60e51b815260206004820152601560248201527418da185b99d9481b9bdd08185d5d1a1bdc9a5e9959605a1b604482015290519081900360640190fd5b81610f955760008690506000816001600160a01b03166355ee1fe1886040518263ffffffff1660e01b815260040180826001600160a01b03166001600160a01b03168152602001915050602060405180830381600087803b158015610cca57600080fd5b505af1158015610cde573d6000803e3d6000fd5b505050506040513d6020811015610cf457600080fd5b505190508015610d44576040805162461bcd60e51b815260206004820152601660248201527539b2ba10383934b1b29037b930b1b6329032b93937b960511b604482015290519081900360640190fd5b816001600160a01b031663317b0b77876040518263ffffffff1660e01b815260040180828152602001915050602060405180830381600087803b158015610d8a57600080fd5b505af1158015610d9e573d6000803e3d6000fd5b505050506040513d6020811015610db457600080fd5b505190508015610e04576040805162461bcd60e51b815260206004820152601660248201527539b2ba1031b637b9b2903330b1ba37b91032b93937b960511b604482015290519081900360640190fd5b816001600160a01b031663d9226ced866040518263ffffffff1660e01b815260040180828152602001915050602060405180830381600087803b158015610e4a57600080fd5b505af1158015610e5e573d6000803e3d6000fd5b505050506040513d6020811015610e7457600080fd5b505190508015610ec3576040805162461bcd60e51b815260206004820152601560248201527439b2ba1036b0bc1030b9b9b9b2ba399032b93937b960591b604482015290519081900360640190fd5b816001600160a01b0316634fd42e17670de0b6b3a76400006040518263ffffffff1660e01b815260040180828152602001915050602060405180830381600087803b158015610f1157600080fd5b505af1158015610f25573d6000803e3d6000fd5b505050506040513d6020811015610f3b57600080fd5b505190508015610f92576040805162461bcd60e51b815260206004820152601f60248201527f736574206c69717569646174696f6e20696e63656e74697665206572726f7200604482015290519081900360640190fd5b50505b505050505050565b50505050565b610f95565b60065481565b6001600160a01b03831660009081526009602052604081205460ff16610fd85760095b9050610fde565b60005b90505b9392505050565b6000610fef6121c4565b610fff57610a116001600b61220f565b611007612b8a565b50604080516020810190915282815261101e612b8a565b506040805160208101909152670de0b6b3a7640000815261103f828261227d565b1561105057610a676007600c61220f565b611058612b8a565b5060408051602081019091526714d1120d7b1600008152611079818461227d565b1561108a57610aa96007600c61220f565b6006805490869055604080518281526020810188905281517faeba5a6c40a8ac138134bff1aaa65debf25971188a58804bad717f82f0ec1316929181900390910190a16000610af9565b801580156110e25750600082115b15610f9d576040805162461bcd60e51b815260206004820152601160248201527072656465656d546f6b656e73207a65726f60781b604482015290519081900360640190fd5b60006111326121c4565b61114257610a116001601061220f565b600480546001600160a01b038481166001600160a01b0319831681179093556040805191909216808252602082019390935281517fd52b2b9b7e9ee655fcb95d2e5b9e0c9f69e7ef2b8e9d2d0ea78402d576d22e22929181900390910190a160009392505050565b505050565b6000806000806000806111c6876000806000612284565b9250925092508260118111156111d857fe5b97919650945092505050565b6001600160a01b03851660009081526009602052604081205460ff16158061122557506001600160a01b03851660009081526009602052604090205460ff16155b156112345760095b9050611362565b600080611240856126a9565b9193509091506000905082601181111561125657fe5b146112705781601181111561126757fe5b92505050611362565b8061127c576003611267565b6000886001600160a01b03166395dd9193876040518263ffffffff1660e01b815260040180826001600160a01b03166001600160a01b0316815260200191505060206040518083038186803b1580156112d457600080fd5b505afa1580156112e8573d6000803e3d6000fd5b505050506040513d60208110156112fe57600080fd5b505160408051602081019091526005548152909150600090819061132290846126c9565b9092509050600082600381111561133557fe5b1461134957600b5b95505050505050611362565b8087111561135857601161133d565b6000955050505050505b95945050505050565b6004546001600160a01b031681565b6009602052600090815260409020805460019091015460ff9091169082565b6001600160a01b038082166000908152600960209081526040808320938616835260029093019052205460ff165b92915050565b60075481565b600080546001600160a01b031633146113f257610a116001601261220f565b6001600160a01b03821660009081526009602052604090205460ff161561141f57610a11600a601161220f565b816001600160a01b031663fe9c44ae6040518163ffffffff1660e01b815260040160206040518083038186803b15801561145857600080fd5b505afa15801561146c573d6000803e3d6000fd5b505050506040513d602081101561148257600080fd5b50506040805180820182526001808252600060208084018281526001600160a01b03881680845260098352928690209451855460ff1916901515178555519390920192909255825191825291517fcf583bb0c569eb967f806b11601c4cb93c10310485c67add5f8362c2f212321f929181900390910190a1600092915050565b60608060086000846001600160a01b03166001600160a01b0316815260200190815260200160002080548060200260200160405190810160405280929190818152602001828054801561157e57602002820191906000526020600020905b81546001600160a01b03168152600190910190602001808311611560575b5093979650505050505050565b6002546001600160a01b031681565b60006109dd85858461271d565b60606000825190506060816040519080825280602002602001820160405280156115db578160200160208202803883390190505b50905060005b828110156117435760008582815181106115f757fe5b6020908102919091018101516001600160a01b03811660009081526009909252604090912080549192509060ff1661164b5760095b84848151811061163857fe5b602002602001018181525050505061173b565b33600090815260028201602052604090205460ff1615156001141561167157600061162c565b600754336000908152600860205260409020541061169057601061162c565b3360008181526002830160209081526040808320805460ff19166001908117909155600883528184208054918201815584529282902090920180546001600160a01b0387166001600160a01b0319909116811790915582519081529081019290925280517f3ab23ab0d51cccc0c3085aec51f99228625aa1a922b3a8ca89a26b0f2027a1a59281900390910190a1600084848151811061172c57fe5b60200260200101818152505050505b6001016115e1565b509392505050565b600480546040805163fc57d4df60e01b81526001600160a01b038781169482019490945290516000938493849391169163fc57d4df91602480820192602092909190829003018186803b1580156117a157600080fd5b505afa1580156117b5573d6000803e3d6000fd5b505050506040513d60208110156117cb57600080fd5b5051600480546040805163fc57d4df60e01b81526001600160a01b038a8116948201949094529051939450600093929091169163fc57d4df91602480820192602092909190829003018186803b15801561182457600080fd5b505afa158015611838573d6000803e3d6000fd5b505050506040513d602081101561184e57600080fd5b5051905081158061185d575080155b1561187257600d9350600092506119b8915050565b6000866001600160a01b031663182df0f56040518163ffffffff1660e01b815260040160206040518083038186803b1580156118ad57600080fd5b505afa1580156118c1573d6000803e3d6000fd5b505050506040513d60208110156118d757600080fd5b5051905060006118e5612b8a565b6118ed612b8a565b6118f5612b8a565b60006119036006548961278c565b94509050600081600381111561191557fe5b1461193157600b5b9950600098506119b8975050505050505050565b61193b878761278c565b93509050600081600381111561194d57fe5b1461195957600b61191d565b61196384846127c7565b92509050600081600381111561197557fe5b1461198157600b61191d565b61198b828c6126c9565b95509050600081600381111561199d57fe5b146119a957600b61191d565b60009950939750505050505050505b935093915050565b6001600160a01b03851660009081526009602052604081205460ff161580611a0157506001600160a01b03851660009081526009602052604090205460ff16155b15611a0d57600961122d565b846001600160a01b0316635fe3b5676040518163ffffffff1660e01b815260040160206040518083038186803b158015611a4657600080fd5b505afa158015611a5a573d6000803e3d6000fd5b505050506040513d6020811015611a7057600080fd5b505160408051635fe3b56760e01b815290516001600160a01b0392831692891691635fe3b567916004808301926020929190829003018186803b158015611ab657600080fd5b505afa158015611aca573d6000803e3d6000fd5b505050506040513d6020811015611ae057600080fd5b50516001600160a01b031614611af757600261122d565b60009695505050505050565b6000611b0d6121c4565b611b1d57610a116001600d61220f565b6007805490839055604080518281526020810185905281517f7093cf1eb653f749c3ff531d6df7f92764536a7fa0d13530cd26e070780c32ea929181900390910190a16000610fde565b6001600160a01b03831660009081526009602052604081205460ff16611b8e576009610fd1565b6001600160a01b038085166000908152600960209081526040808320938716835260029093019052205460ff16611bc6576008610fd1565b600480546040805163fc57d4df60e01b81526001600160a01b03888116948201949094529051929091169163fc57d4df91602480820192602092909190829003018186803b158015611c1757600080fd5b505afa158015611c2b573d6000803e3d6000fd5b505050506040513d6020811015611c4157600080fd5b5051611c4e57600d610fd1565b600080611c5e8587600087612284565b91935090915060009050826011811115611c7457fe5b14611c8e57816011811115611c8557fe5b92505050610fde565b8015611af7576004611c85565b60086020528160005260406000208181548110611cb457fe5b6000918252602090912001546001600160a01b03169150829050565b6003546001600160a01b031681565b600080546001600160a01b03163314611d0557611cfe6001600661220f565b90506113c7565b6001600160a01b0383166000908152600960205260409020805460ff16611d3a57611d326009600761220f565b9150506113c7565b611d42612b8a565b506040805160208101909152838152611d59612b8a565b506040805160208101909152670c7d713b49da00008152611d7a818361227d565b15611d9557611d8b6006600861220f565b93505050506113c7565b8415801590611e1e5750600480546040805163fc57d4df60e01b81526001600160a01b038a8116948201949094529051929091169163fc57d4df91602480820192602092909190829003018186803b158015611df057600080fd5b505afa158015611e04573d6000803e3d6000fd5b505050506040513d6020811015611e1a57600080fd5b5051155b15611e2f57611d8b600d600961220f565b60018301805490869055604080516001600160a01b03891681526020810183905280820188905290517f70483e6592cd5182d45ac970e05bc62cdcc90e9d8ef2c2dbe686cf383bcd7fc59181900360600190a16000979650505050505050565b60055481565b6000610fdb84848461271d565b6000808290506000806000836001600160a01b031663c37f68e2336040518263ffffffff1660e01b815260040180826001600160a01b03166001600160a01b0316815260200191505060806040518083038186803b158015611f0357600080fd5b505afa158015611f17573d6000803e3d6000fd5b505050506040513d6080811015611f2d57600080fd5b508051602082015160409092015190945090925090508215611f805760405162461bcd60e51b8152600401808060200182810382526025815260200180612c4a6025913960400191505060405180910390fd5b8015611f9d57611f92600c600261220f565b945050505050610b00565b6000611faa87338561271d565b90508015611fcb57611fbf600e6003836127df565b95505050505050610b00565b6001600160a01b0385166000908152600960209081526040808320338452600281019092529091205460ff1661200a5760009650505050505050610b00565b3360009081526002820160209081526040808320805460ff19169055600882529182902080548351818402810184019094528084526060939283018282801561207c57602002820191906000526020600020905b81546001600160a01b0316815260019091019060200180831161205e575b5050835193945083925060009150505b828110156120d157896001600160a01b03168482815181106120aa57fe5b60200260200101516001600160a01b031614156120c9578091506120d1565b60010161208c565b508181106120db57fe5b3360009081526008602052604090208054819060001981019081106120fc57fe5b9060005260206000200160009054906101000a90046001600160a01b031681838154811061212657fe5b600091825260209091200180546001600160a01b0319166001600160a01b0392909216919091179055805461215f826000198301612b9d565b50604080516001600160a01b038c16815233602082015281517fe699a64c18b07ac5b7301aa273f36a2287239eb9501d81950672794afba29a0d929181900390910190a160009c9b505050505050505050505050565b6000546001600160a01b031681565b60025460009081906001600160a01b0316331480156121ed57506000546001600160a01b031632145b6000549091506001600160a01b0316331480806122075750815b925050505b90565b60007f45b96fe442630264581b197e84bbada861235052c5a1aadfff9ea4e40a969aa083601181111561223e57fe5b83601381111561224a57fe5b604080519283526020830191909152600082820152519081900360600190a1826011811115610fde57fe5b519051111590565b5190511090565b6000806000612291612bc1565b6001600160a01b0388166000908152600860209081526040808320805482518185028101850190935280835284936060939291908301828280156122fe57602002820191906000526020600020905b81546001600160a01b031681526001909101906020018083116122e0575b50939450600093505050505b815181101561265a57600082828151811061232157fe5b60200260200101519050806001600160a01b031663c37f68e28e6040518263ffffffff1660e01b815260040180826001600160a01b03166001600160a01b0316815260200191505060806040518083038186803b15801561238157600080fd5b505afa158015612395573d6000803e3d6000fd5b505050506040513d60808110156123ab57600080fd5b508051602082015160408084015160609485015160808c0152938a019390935291880191909152945084156123f15750600f97506000965086955061269f945050505050565b60408051602080820183526001600160a01b0380851660008181526009845285902060010154845260c08b01939093528351808301855260808b0151815260e08b015260048054855163fc57d4df60e01b815291820194909452935192169263fc57d4df9260248083019392829003018186803b15801561247157600080fd5b505afa158015612485573d6000803e3d6000fd5b505050506040513d602081101561249b57600080fd5b505160a087018190526124bf5750600d97506000965086955061269f945050505050565b604080516020810190915260a08701518152610100870181905260c087015160e08801516124ec92612845565b6101208801529350600084600381111561250257fe5b1461251e5750600b97506000965086955061269f945050505050565b6125368661012001518760400151886000015161289d565b87529350600084600381111561254857fe5b146125645750600b97506000965086955061269f945050505050565b61257c8661010001518760600151886020015161289d565b60208801529350600084600381111561259157fe5b146125ad5750600b97506000965086955061269f945050505050565b8b6001600160a01b0316816001600160a01b03161415612651576125db8661012001518c886020015161289d565b6020880152935060008460038111156125f057fe5b1461260c5750600b97506000965086955061269f945050505050565b6126208661010001518b886020015161289d565b60208801529350600084600381111561263557fe5b146126515750600b97506000965086955061269f945050505050565b5060010161230a565b5060208401518451111561268157505050602081015190516000945003915082905061269f565b505081516020909201516000955085945091909103915061269f9050565b9450945094915050565b60008060006126bc846000806000612284565b9250925092509193909250565b60008060006126d6612b8a565b6126e086866128ea565b909250905060008260038111156126f357fe5b146127045750915060009050612716565b600061270f82612952565b9350935050505b9250929050565b6001600160a01b03831660009081526009602052604081205460ff16612744576009610fd1565b6001600160a01b038085166000908152600960209081526040808320938716835260029093019052205460ff1661277c576000610fd1565b600080611c5e8587866000612284565b6000612796612b8a565b6127bc604051806020016040528086815250604051806020016040528086815250612961565b915091509250929050565b60006127d1612b8a565b835183516127bc9190612a4a565b60007f45b96fe442630264581b197e84bbada861235052c5a1aadfff9ea4e40a969aa084601181111561280e57fe5b84601381111561281a57fe5b604080519283526020830191909152818101859052519081900360600190a1836011811115610fdb57fe5b600061284f612b8a565b6000612859612b8a565b6128638787612961565b9092509050600082600381111561287657fe5b146128855790925090506119b8565b61288f8186612961565b935093505050935093915050565b60008060006128aa612b8a565b6128b487876128ea565b909250905060008260038111156128c757fe5b146128d857509150600090506119b8565b61288f6128e482612952565b86612afa565b60006128f4612b8a565b600080612905866000015186612b20565b9092509050600082600381111561291857fe5b1461293757506040805160208101909152600081529092509050612716565b60408051602081019091529081526000969095509350505050565b51670de0b6b3a7640000900490565b600061296b612b8a565b60008061298086600001518660000151612b20565b9092509050600082600381111561299357fe5b146129b257506040805160208101909152600081529092509050612716565b6000806129c76706f05b59d3b2000084612afa565b909250905060008260038111156129da57fe5b146129fc57506040805160208101909152600081529094509250612716915050565b600080612a1183670de0b6b3a7640000612b5f565b90925090506000826003811115612a2457fe5b14612a2b57fe5b604080516020810190915290815260009a909950975050505050505050565b6000612a54612b8a565b600080612a6986670de0b6b3a7640000612b20565b90925090506000826003811115612a7c57fe5b14612a9b57506040805160208101909152600081529092509050612716565b600080612aa88388612b5f565b90925090506000826003811115612abb57fe5b14612add57506040805160208101909152600081529094509250612716915050565b604080516020810190915290815260009890975095505050505050565b600080838301848110612b1257600092509050612716565b506002915060009050612716565b60008083612b3357506000905080612716565b83830283858281612b4057fe5b0414612b5457506002915060009050612716565b600092509050612716565b60008082612b735750600190506000612716565b6000838581612b7e57fe5b04915091509250929050565b6040518060200160405280600081525090565b8154818355818111156111aa576000838152602090206111aa918101908301612c2b565b604051806101400160405280600081526020016000815260200160008152602001600081526020016000815260200160008152602001612bff612b8a565b8152602001612c0c612b8a565b8152602001612c19612b8a565b8152602001612c26612b8a565b905290565b61220c91905b80821115612c455760008155600101612c31565b509056fe657869744d61726b65743a206765744163636f756e74536e617073686f74206661696c65646f6e6c7920756e6974726f6c6c65722061646d696e2063616e206368616e676520627261696e73a265627a7a72315820db7cad8cff03426dd66818148d57378996acb346847d1c21d13f5e8bfb27554664736f6c63430005110032",
      "opcodes": "PUSH1 0x80 PUSH1 0x40 MSTORE CALLVALUE DUP1 ISZERO PUSH2 0x10 JUMPI PUSH1 0x0 DUP1 REVERT JUMPDEST POP PUSH1 0x0 DUP1 SLOAD PUSH1 0x1 PUSH1 0x1 PUSH1 0xA0 SHL SUB NOT AND CALLER OR SWAP1 SSTORE PUSH2 0x2CCA DUP1 PUSH2 0x32 PUSH1 0x0 CODECOPY PUSH1 0x0 RETURN INVALID PUSH1 0x80 PUSH1 0x40 MSTORE CALLVALUE DUP1 ISZERO PUSH2 0x10 JUMPI PUSH1 0x0 DUP1 REVERT JUMPDEST POP PUSH1 0x4 CALLDATASIZE LT PUSH2 0x231 JUMPI PUSH1 0x0 CALLDATALOAD PUSH1 0xE0 SHR DUP1 PUSH4 0x8E8F294B GT PUSH2 0x130 JUMPI DUP1 PUSH4 0xD02F7351 GT PUSH2 0xB8 JUMPI DUP1 PUSH4 0xE4028EEE GT PUSH2 0x7C JUMPI DUP1 PUSH4 0xE4028EEE EQ PUSH2 0x90E JUMPI DUP1 PUSH4 0xE8755446 EQ PUSH2 0x93A JUMPI DUP1 PUSH4 0xEABE7D91 EQ PUSH2 0x942 JUMPI DUP1 PUSH4 0xEDE4EDD0 EQ PUSH2 0x978 JUMPI DUP1 PUSH4 0xF851A440 EQ PUSH2 0x99E JUMPI PUSH2 0x231 JUMP JUMPDEST DUP1 PUSH4 0xD02F7351 EQ PUSH2 0x841 JUMPI DUP1 PUSH4 0xD9226CED EQ PUSH2 0x887 JUMPI DUP1 PUSH4 0xDA3D454C EQ PUSH2 0x8A4 JUMPI DUP1 PUSH4 0xDCE15449 EQ PUSH2 0x8DA JUMPI DUP1 PUSH4 0xDCFBC0C7 EQ PUSH2 0x906 JUMPI PUSH2 0x231 JUMP JUMPDEST DUP1 PUSH4 0xABFCEFFC GT PUSH2 0xFF JUMPI DUP1 PUSH4 0xABFCEFFC EQ PUSH2 0x695 JUMPI DUP1 PUSH4 0xBB82AA5E EQ PUSH2 0x70B JUMPI DUP1 PUSH4 0xBDCDC258 EQ PUSH2 0x713 JUMPI DUP1 PUSH4 0xC2998238 EQ PUSH2 0x74F JUMPI DUP1 PUSH4 0xC488847B EQ PUSH2 0x7F2 JUMPI PUSH2 0x231 JUMP JUMPDEST DUP1 PUSH4 0x8E8F294B EQ PUSH2 0x5F8 JUMPI DUP1 PUSH4 0x929FE9A1 EQ PUSH2 0x639 JUMPI DUP1 PUSH4 0x94B2294B EQ PUSH2 0x667 JUMPI DUP1 PUSH4 0xA76B3FDA EQ PUSH2 0x66F JUMPI PUSH2 0x231 JUMP JUMPDEST DUP1 PUSH4 0x4EF4C3E1 GT PUSH2 0x1BE JUMPI DUP1 PUSH4 0x5EC88C79 GT PUSH2 0x182 JUMPI DUP1 PUSH4 0x5EC88C79 EQ PUSH2 0x4E4 JUMPI DUP1 PUSH4 0x5FC7E71E EQ PUSH2 0x528 JUMPI DUP1 PUSH4 0x6A56947E EQ PUSH2 0x56E JUMPI DUP1 PUSH4 0x6D35BF91 EQ PUSH2 0x5AA JUMPI DUP1 PUSH4 0x7DC0D1D0 EQ PUSH2 0x5F0 JUMPI PUSH2 0x231 JUMP JUMPDEST DUP1 PUSH4 0x4EF4C3E1 EQ PUSH2 0x3F9 JUMPI DUP1 PUSH4 0x4FD42E17 EQ PUSH2 0x42F JUMPI DUP1 PUSH4 0x51DFF989 EQ PUSH2 0x44C JUMPI DUP1 PUSH4 0x55EE1FE1 EQ PUSH2 0x488 JUMPI DUP1 PUSH4 0x5C778605 EQ PUSH2 0x4AE JUMPI PUSH2 0x231 JUMP JUMPDEST DUP1 PUSH4 0x317B0B77 GT PUSH2 0x205 JUMPI DUP1 PUSH4 0x317B0B77 EQ PUSH2 0x308 JUMPI DUP1 PUSH4 0x32000E00 EQ PUSH2 0x325 JUMPI DUP1 PUSH4 0x41C728B9 EQ PUSH2 0x369 JUMPI DUP1 PUSH4 0x47EF3B3B EQ PUSH2 0x3A5 JUMPI DUP1 PUSH4 0x4ADA90AF EQ PUSH2 0x3F1 JUMPI PUSH2 0x231 JUMP JUMPDEST DUP1 PUSH3 0x7E3DD2 EQ PUSH2 0x236 JUMPI DUP1 PUSH4 0x1EDEDC91 EQ PUSH2 0x252 JUMPI DUP1 PUSH4 0x24008A62 EQ PUSH2 0x296 JUMPI DUP1 PUSH4 0x26782247 EQ PUSH2 0x2E4 JUMPI JUMPDEST PUSH1 0x0 DUP1 REVERT JUMPDEST PUSH2 0x23E PUSH2 0x9A6 JUMP JUMPDEST PUSH1 0x40 DUP1 MLOAD SWAP2 ISZERO ISZERO DUP3 MSTORE MLOAD SWAP1 DUP2 SWAP1 SUB PUSH1 0x20 ADD SWAP1 RETURN JUMPDEST PUSH2 0x294 PUSH1 0x4 DUP1 CALLDATASIZE SUB PUSH1 0xA0 DUP2 LT ISZERO PUSH2 0x268 JUMPI PUSH1 0x0 DUP1 REVERT JUMPDEST POP PUSH1 0x1 PUSH1 0x1 PUSH1 0xA0 SHL SUB DUP2 CALLDATALOAD DUP2 AND SWAP2 PUSH1 0x20 DUP2 ADD CALLDATALOAD DUP3 AND SWAP2 PUSH1 0x40 DUP3 ADD CALLDATALOAD AND SWAP1 PUSH1 0x60 DUP2 ADD CALLDATALOAD SWAP1 PUSH1 0x80 ADD CALLDATALOAD PUSH2 0x9AB JUMP JUMPDEST STOP JUMPDEST PUSH2 0x2D2 PUSH1 0x4 DUP1 CALLDATASIZE SUB PUSH1 0x80 DUP2 LT ISZERO PUSH2 0x2AC JUMPI PUSH1 0x0 DUP1 REVERT JUMPDEST POP PUSH1 0x1 PUSH1 0x1 PUSH1 0xA0 SHL SUB DUP2 CALLDATALOAD DUP2 AND SWAP2 PUSH1 0x20 DUP2 ADD CALLDATALOAD DUP3 AND SWAP2 PUSH1 0x40 DUP3 ADD CALLDATALOAD AND SWAP1 PUSH1 0x60 ADD CALLDATALOAD PUSH2 0x9B2 JUMP JUMPDEST PUSH1 0x40 DUP1 MLOAD SWAP2 DUP3 MSTORE MLOAD SWAP1 DUP2 SWAP1 SUB PUSH1 0x20 ADD SWAP1 RETURN JUMPDEST PUSH2 0x2EC PUSH2 0x9E8 JUMP JUMPDEST PUSH1 0x40 DUP1 MLOAD PUSH1 0x1 PUSH1 0x1 PUSH1 0xA0 SHL SUB SWAP1 SWAP3 AND DUP3 MSTORE MLOAD SWAP1 DUP2 SWAP1 SUB PUSH1 0x20 ADD SWAP1 RETURN JUMPDEST PUSH2 0x2D2 PUSH1 0x4 DUP1 CALLDATASIZE SUB PUSH1 0x20 DUP2 LT ISZERO PUSH2 0x31E JUMPI PUSH1 0x0 DUP1 REVERT JUMPDEST POP CALLDATALOAD PUSH2 0x9F7 JUMP JUMPDEST PUSH2 0x294 PUSH1 0x4 DUP1 CALLDATASIZE SUB PUSH1 0xA0 DUP2 LT ISZERO PUSH2 0x33B JUMPI PUSH1 0x0 DUP1 REVERT JUMPDEST POP PUSH1 0x1 PUSH1 0x1 PUSH1 0xA0 SHL SUB DUP2 CALLDATALOAD DUP2 AND SWAP2 PUSH1 0x20 DUP2 ADD CALLDATALOAD SWAP1 SWAP2 AND SWAP1 PUSH1 0x40 DUP2 ADD CALLDATALOAD SWAP1 PUSH1 0x60 DUP2 ADD CALLDATALOAD SWAP1 PUSH1 0x80 ADD CALLDATALOAD ISZERO ISZERO PUSH2 0xB05 JUMP JUMPDEST PUSH2 0x294 PUSH1 0x4 DUP1 CALLDATASIZE SUB PUSH1 0x80 DUP2 LT ISZERO PUSH2 0x37F JUMPI PUSH1 0x0 DUP1 REVERT JUMPDEST POP PUSH1 0x1 PUSH1 0x1 PUSH1 0xA0 SHL SUB DUP2 CALLDATALOAD DUP2 AND SWAP2 PUSH1 0x20 DUP2 ADD CALLDATALOAD SWAP1 SWAP2 AND SWAP1 PUSH1 0x40 DUP2 ADD CALLDATALOAD SWAP1 PUSH1 0x60 ADD CALLDATALOAD PUSH2 0xF9D JUMP JUMPDEST PUSH2 0x294 PUSH1 0x4 DUP1 CALLDATASIZE SUB PUSH1 0xC0 DUP2 LT ISZERO PUSH2 0x3BB JUMPI PUSH1 0x0 DUP1 REVERT JUMPDEST POP PUSH1 0x1 PUSH1 0x1 PUSH1 0xA0 SHL SUB DUP2 CALLDATALOAD DUP2 AND SWAP2 PUSH1 0x20 DUP2 ADD CALLDATALOAD DUP3 AND SWAP2 PUSH1 0x40 DUP3 ADD CALLDATALOAD DUP2 AND SWAP2 PUSH1 0x60 DUP2 ADD CALLDATALOAD SWAP1 SWAP2 AND SWAP1 PUSH1 0x80 DUP2 ADD CALLDATALOAD SWAP1 PUSH1 0xA0 ADD CALLDATALOAD PUSH2 0xFA3 JUMP JUMPDEST PUSH2 0x2D2 PUSH2 0xFA8 JUMP JUMPDEST PUSH2 0x2D2 PUSH1 0x4 DUP1 CALLDATASIZE SUB PUSH1 0x60 DUP2 LT ISZERO PUSH2 0x40F JUMPI PUSH1 0x0 DUP1 REVERT JUMPDEST POP PUSH1 0x1 PUSH1 0x1 PUSH1 0xA0 SHL SUB DUP2 CALLDATALOAD DUP2 AND SWAP2 PUSH1 0x20 DUP2 ADD CALLDATALOAD SWAP1 SWAP2 AND SWAP1 PUSH1 0x40 ADD CALLDATALOAD PUSH2 0xFAE JUMP JUMPDEST PUSH2 0x2D2 PUSH1 0x4 DUP1 CALLDATASIZE SUB PUSH1 0x20 DUP2 LT ISZERO PUSH2 0x445 JUMPI PUSH1 0x0 DUP1 REVERT JUMPDEST POP CALLDATALOAD PUSH2 0xFE5 JUMP JUMPDEST PUSH2 0x294 PUSH1 0x4 DUP1 CALLDATASIZE SUB PUSH1 0x80 DUP2 LT ISZERO PUSH2 0x462 JUMPI PUSH1 0x0 DUP1 REVERT JUMPDEST POP PUSH1 0x1 PUSH1 0x1 PUSH1 0xA0 SHL SUB DUP2 CALLDATALOAD DUP2 AND SWAP2 PUSH1 0x20 DUP2 ADD CALLDATALOAD SWAP1 SWAP2 AND SWAP1 PUSH1 0x40 DUP2 ADD CALLDATALOAD SWAP1 PUSH1 0x60 ADD CALLDATALOAD PUSH2 0x10D4 JUMP JUMPDEST PUSH2 0x2D2 PUSH1 0x4 DUP1 CALLDATASIZE SUB PUSH1 0x20 DUP2 LT ISZERO PUSH2 0x49E JUMPI PUSH1 0x0 DUP1 REVERT JUMPDEST POP CALLDATALOAD PUSH1 0x1 PUSH1 0x1 PUSH1 0xA0 SHL SUB AND PUSH2 0x1128 JUMP JUMPDEST PUSH2 0x294 PUSH1 0x4 DUP1 CALLDATASIZE SUB PUSH1 0x60 DUP2 LT ISZERO PUSH2 0x4C4 JUMPI PUSH1 0x0 DUP1 REVERT JUMPDEST POP PUSH1 0x1 PUSH1 0x1 PUSH1 0xA0 SHL SUB DUP2 CALLDATALOAD DUP2 AND SWAP2 PUSH1 0x20 DUP2 ADD CALLDATALOAD SWAP1 SWAP2 AND SWAP1 PUSH1 0x40 ADD CALLDATALOAD PUSH2 0x11AA JUMP JUMPDEST PUSH2 0x50A PUSH1 0x4 DUP1 CALLDATASIZE SUB PUSH1 0x20 DUP2 LT ISZERO PUSH2 0x4FA JUMPI PUSH1 0x0 DUP1 REVERT JUMPDEST POP CALLDATALOAD PUSH1 0x1 PUSH1 0x1 PUSH1 0xA0 SHL SUB AND PUSH2 0x11AF JUMP JUMPDEST PUSH1 0x40 DUP1 MLOAD SWAP4 DUP5 MSTORE PUSH1 0x20 DUP5 ADD SWAP3 SWAP1 SWAP3 MSTORE DUP3 DUP3 ADD MSTORE MLOAD SWAP1 DUP2 SWAP1 SUB PUSH1 0x60 ADD SWAP1 RETURN JUMPDEST PUSH2 0x2D2 PUSH1 0x4 DUP1 CALLDATASIZE SUB PUSH1 0xA0 DUP2 LT ISZERO PUSH2 0x53E JUMPI PUSH1 0x0 DUP1 REVERT JUMPDEST POP PUSH1 0x1 PUSH1 0x1 PUSH1 0xA0 SHL SUB DUP2 CALLDATALOAD DUP2 AND SWAP2 PUSH1 0x20 DUP2 ADD CALLDATALOAD DUP3 AND SWAP2 PUSH1 0x40 DUP3 ADD CALLDATALOAD DUP2 AND SWAP2 PUSH1 0x60 DUP2 ADD CALLDATALOAD SWAP1 SWAP2 AND SWAP1 PUSH1 0x80 ADD CALLDATALOAD PUSH2 0x11E4 JUMP JUMPDEST PUSH2 0x294 PUSH1 0x4 DUP1 CALLDATASIZE SUB PUSH1 0x80 DUP2 LT ISZERO PUSH2 0x584 JUMPI PUSH1 0x0 DUP1 REVERT JUMPDEST POP PUSH1 0x1 PUSH1 0x1 PUSH1 0xA0 SHL SUB DUP2 CALLDATALOAD DUP2 AND SWAP2 PUSH1 0x20 DUP2 ADD CALLDATALOAD DUP3 AND SWAP2 PUSH1 0x40 DUP3 ADD CALLDATALOAD AND SWAP1 PUSH1 0x60 ADD CALLDATALOAD PUSH2 0xF9D JUMP JUMPDEST PUSH2 0x294 PUSH1 0x4 DUP1 CALLDATASIZE SUB PUSH1 0xA0 DUP2 LT ISZERO PUSH2 0x5C0 JUMPI PUSH1 0x0 DUP1 REVERT JUMPDEST POP PUSH1 0x1 PUSH1 0x1 PUSH1 0xA0 SHL SUB DUP2 CALLDATALOAD DUP2 AND SWAP2 PUSH1 0x20 DUP2 ADD CALLDATALOAD DUP3 AND SWAP2 PUSH1 0x40 DUP3 ADD CALLDATALOAD DUP2 AND SWAP2 PUSH1 0x60 DUP2 ADD CALLDATALOAD SWAP1 SWAP2 AND SWAP1 PUSH1 0x80 ADD CALLDATALOAD PUSH2 0x9AB JUMP JUMPDEST PUSH2 0x2EC PUSH2 0x136B JUMP JUMPDEST PUSH2 0x61E PUSH1 0x4 DUP1 CALLDATASIZE SUB PUSH1 0x20 DUP2 LT ISZERO PUSH2 0x60E JUMPI PUSH1 0x0 DUP1 REVERT JUMPDEST POP CALLDATALOAD PUSH1 0x1 PUSH1 0x1 PUSH1 0xA0 SHL SUB AND PUSH2 0x137A JUMP JUMPDEST PUSH1 0x40 DUP1 MLOAD SWAP3 ISZERO ISZERO DUP4 MSTORE PUSH1 0x20 DUP4 ADD SWAP2 SWAP1 SWAP2 MSTORE DUP1 MLOAD SWAP2 DUP3 SWAP1 SUB ADD SWAP1 RETURN JUMPDEST PUSH2 0x23E PUSH1 0x4 DUP1 CALLDATASIZE SUB PUSH1 0x40 DUP2 LT ISZERO PUSH2 0x64F JUMPI PUSH1 0x0 DUP1 REVERT JUMPDEST POP PUSH1 0x1 PUSH1 0x1 PUSH1 0xA0 SHL SUB DUP2 CALLDATALOAD DUP2 AND SWAP2 PUSH1 0x20 ADD CALLDATALOAD AND PUSH2 0x1399 JUMP JUMPDEST PUSH2 0x2D2 PUSH2 0x13CD JUMP JUMPDEST PUSH2 0x2D2 PUSH1 0x4 DUP1 CALLDATASIZE SUB PUSH1 0x20 DUP2 LT ISZERO PUSH2 0x685 JUMPI PUSH1 0x0 DUP1 REVERT JUMPDEST POP CALLDATALOAD PUSH1 0x1 PUSH1 0x1 PUSH1 0xA0 SHL SUB AND PUSH2 0x13D3 JUMP JUMPDEST PUSH2 0x6BB PUSH1 0x4 DUP1 CALLDATASIZE SUB PUSH1 0x20 DUP2 LT ISZERO PUSH2 0x6AB JUMPI PUSH1 0x0 DUP1 REVERT JUMPDEST POP CALLDATALOAD PUSH1 0x1 PUSH1 0x1 PUSH1 0xA0 SHL SUB AND PUSH2 0x1502 JUMP JUMPDEST PUSH1 0x40 DUP1 MLOAD PUSH1 0x20 DUP1 DUP3 MSTORE DUP4 MLOAD DUP2 DUP4 ADD MSTORE DUP4 MLOAD SWAP2 SWAP3 DUP4 SWAP3 SWAP1 DUP4 ADD SWAP2 DUP6 DUP2 ADD SWAP2 MUL DUP1 DUP4 DUP4 PUSH1 0x0 JUMPDEST DUP4 DUP2 LT ISZERO PUSH2 0x6F7 JUMPI DUP2 DUP2 ADD MLOAD DUP4 DUP3 ADD MSTORE PUSH1 0x20 ADD PUSH2 0x6DF JUMP JUMPDEST POP POP POP POP SWAP1 POP ADD SWAP3 POP POP POP PUSH1 0x40 MLOAD DUP1 SWAP2 SUB SWAP1 RETURN JUMPDEST PUSH2 0x2EC PUSH2 0x158B JUMP JUMPDEST PUSH2 0x2D2 PUSH1 0x4 DUP1 CALLDATASIZE SUB PUSH1 0x80 DUP2 LT ISZERO PUSH2 0x729 JUMPI PUSH1 0x0 DUP1 REVERT JUMPDEST POP PUSH1 0x1 PUSH1 0x1 PUSH1 0xA0 SHL SUB DUP2 CALLDATALOAD DUP2 AND SWAP2 PUSH1 0x20 DUP2 ADD CALLDATALOAD DUP3 AND SWAP2 PUSH1 0x40 DUP3 ADD CALLDATALOAD AND SWAP1 PUSH1 0x60 ADD CALLDATALOAD PUSH2 0x159A JUMP JUMPDEST PUSH2 0x6BB PUSH1 0x4 DUP1 CALLDATASIZE SUB PUSH1 0x20 DUP2 LT ISZERO PUSH2 0x765 JUMPI PUSH1 0x0 DUP1 REVERT JUMPDEST DUP2 ADD SWAP1 PUSH1 0x20 DUP2 ADD DUP2 CALLDATALOAD PUSH5 0x100000000 DUP2 GT ISZERO PUSH2 0x780 JUMPI PUSH1 0x0 DUP1 REVERT JUMPDEST DUP3 ADD DUP4 PUSH1 0x20 DUP3 ADD GT ISZERO PUSH2 0x792 JUMPI PUSH1 0x0 DUP1 REVERT JUMPDEST DUP1 CALLDATALOAD SWAP1 PUSH1 0x20 ADD SWAP2 DUP5 PUSH1 0x20 DUP4 MUL DUP5 ADD GT PUSH5 0x100000000 DUP4 GT OR ISZERO PUSH2 0x7B4 JUMPI PUSH1 0x0 DUP1 REVERT JUMPDEST SWAP2 SWAP1 DUP1 DUP1 PUSH1 0x20 MUL PUSH1 0x20 ADD PUSH1 0x40 MLOAD SWAP1 DUP2 ADD PUSH1 0x40 MSTORE DUP1 SWAP4 SWAP3 SWAP2 SWAP1 DUP2 DUP2 MSTORE PUSH1 0x20 ADD DUP4 DUP4 PUSH1 0x20 MUL DUP1 DUP3 DUP5 CALLDATACOPY PUSH1 0x0 SWAP3 ADD SWAP2 SWAP1 SWAP2 MSTORE POP SWAP3 SWAP6 POP PUSH2 0x15A7 SWAP5 POP POP POP POP POP JUMP JUMPDEST PUSH2 0x828 PUSH1 0x4 DUP1 CALLDATASIZE SUB PUSH1 0x60 DUP2 LT ISZERO PUSH2 0x808 JUMPI PUSH1 0x0 DUP1 REVERT JUMPDEST POP PUSH1 0x1 PUSH1 0x1 PUSH1 0xA0 SHL SUB DUP2 CALLDATALOAD DUP2 AND SWAP2 PUSH1 0x20 DUP2 ADD CALLDATALOAD SWAP1 SWAP2 AND SWAP1 PUSH1 0x40 ADD CALLDATALOAD PUSH2 0x174B JUMP JUMPDEST PUSH1 0x40 DUP1 MLOAD SWAP3 DUP4 MSTORE PUSH1 0x20 DUP4 ADD SWAP2 SWAP1 SWAP2 MSTORE DUP1 MLOAD SWAP2 DUP3 SWAP1 SUB ADD SWAP1 RETURN JUMPDEST PUSH2 0x2D2 PUSH1 0x4 DUP1 CALLDATASIZE SUB PUSH1 0xA0 DUP2 LT ISZERO PUSH2 0x857 JUMPI PUSH1 0x0 DUP1 REVERT JUMPDEST POP PUSH1 0x1 PUSH1 0x1 PUSH1 0xA0 SHL SUB DUP2 CALLDATALOAD DUP2 AND SWAP2 PUSH1 0x20 DUP2 ADD CALLDATALOAD DUP3 AND SWAP2 PUSH1 0x40 DUP3 ADD CALLDATALOAD DUP2 AND SWAP2 PUSH1 0x60 DUP2 ADD CALLDATALOAD SWAP1 SWAP2 AND SWAP1 PUSH1 0x80 ADD CALLDATALOAD PUSH2 0x19C0 JUMP JUMPDEST PUSH2 0x2D2 PUSH1 0x4 DUP1 CALLDATASIZE SUB PUSH1 0x20 DUP2 LT ISZERO PUSH2 0x89D JUMPI PUSH1 0x0 DUP1 REVERT JUMPDEST POP CALLDATALOAD PUSH2 0x1B03 JUMP JUMPDEST PUSH2 0x2D2 PUSH1 0x4 DUP1 CALLDATASIZE SUB PUSH1 0x60 DUP2 LT ISZERO PUSH2 0x8BA JUMPI PUSH1 0x0 DUP1 REVERT JUMPDEST POP PUSH1 0x1 PUSH1 0x1 PUSH1 0xA0 SHL SUB DUP2 CALLDATALOAD DUP2 AND SWAP2 PUSH1 0x20 DUP2 ADD CALLDATALOAD SWAP1 SWAP2 AND SWAP1 PUSH1 0x40 ADD CALLDATALOAD PUSH2 0x1B67 JUMP JUMPDEST PUSH2 0x2EC PUSH1 0x4 DUP1 CALLDATASIZE SUB PUSH1 0x40 DUP2 LT ISZERO PUSH2 0x8F0 JUMPI PUSH1 0x0 DUP1 REVERT JUMPDEST POP PUSH1 0x1 PUSH1 0x1 PUSH1 0xA0 SHL SUB DUP2 CALLDATALOAD AND SWAP1 PUSH1 0x20 ADD CALLDATALOAD PUSH2 0x1C9B JUMP JUMPDEST PUSH2 0x2EC PUSH2 0x1CD0 JUMP JUMPDEST PUSH2 0x2D2 PUSH1 0x4 DUP1 CALLDATASIZE SUB PUSH1 0x40 DUP2 LT ISZERO PUSH2 0x924 JUMPI PUSH1 0x0 DUP1 REVERT JUMPDEST POP PUSH1 0x1 PUSH1 0x1 PUSH1 0xA0 SHL SUB DUP2 CALLDATALOAD AND SWAP1 PUSH1 0x20 ADD CALLDATALOAD PUSH2 0x1CDF JUMP JUMPDEST PUSH2 0x2D2 PUSH2 0x1E8F JUMP JUMPDEST PUSH2 0x2D2 PUSH1 0x4 DUP1 CALLDATASIZE SUB PUSH1 0x60 DUP2 LT ISZERO PUSH2 0x958 JUMPI PUSH1 0x0 DUP1 REVERT JUMPDEST POP PUSH1 0x1 PUSH1 0x1 PUSH1 0xA0 SHL SUB DUP2 CALLDATALOAD DUP2 AND SWAP2 PUSH1 0x20 DUP2 ADD CALLDATALOAD SWAP1 SWAP2 AND SWAP1 PUSH1 0x40 ADD CALLDATALOAD PUSH2 0x1E95 JUMP JUMPDEST PUSH2 0x2D2 PUSH1 0x4 DUP1 CALLDATASIZE SUB PUSH1 0x20 DUP2 LT ISZERO PUSH2 0x98E JUMPI PUSH1 0x0 DUP1 REVERT JUMPDEST POP CALLDATALOAD PUSH1 0x1 PUSH1 0x1 PUSH1 0xA0 SHL SUB AND PUSH2 0x1EA2 JUMP JUMPDEST PUSH2 0x2EC PUSH2 0x21B5 JUMP JUMPDEST PUSH1 0x1 DUP2 JUMP JUMPDEST POP POP POP POP POP JUMP JUMPDEST PUSH1 0x1 PUSH1 0x1 PUSH1 0xA0 SHL SUB DUP5 AND PUSH1 0x0 SWAP1 DUP2 MSTORE PUSH1 0x9 PUSH1 0x20 MSTORE PUSH1 0x40 DUP2 KECCAK256 SLOAD PUSH1 0xFF AND PUSH2 0x9DA JUMPI POP PUSH1 0x9 PUSH2 0x9E0 JUMP JUMPDEST PUSH1 0x0 JUMPDEST SWAP1 POP JUMPDEST SWAP5 SWAP4 POP POP POP POP JUMP JUMPDEST PUSH1 0x1 SLOAD PUSH1 0x1 PUSH1 0x1 PUSH1 0xA0 SHL SUB AND DUP2 JUMP JUMPDEST PUSH1 0x0 PUSH2 0xA01 PUSH2 0x21C4 JUMP JUMPDEST PUSH2 0xA18 JUMPI PUSH2 0xA11 PUSH1 0x1 PUSH1 0x4 PUSH2 0x220F JUMP JUMPDEST SWAP1 POP PUSH2 0xB00 JUMP JUMPDEST PUSH2 0xA20 PUSH2 0x2B8A JUMP JUMPDEST POP PUSH1 0x40 DUP1 MLOAD PUSH1 0x20 DUP2 ADD SWAP1 SWAP2 MSTORE DUP3 DUP2 MSTORE PUSH2 0xA37 PUSH2 0x2B8A JUMP JUMPDEST POP PUSH1 0x40 DUP1 MLOAD PUSH1 0x20 DUP2 ADD SWAP1 SWAP2 MSTORE PUSH7 0xB1A2BC2EC50000 DUP2 MSTORE PUSH2 0xA57 DUP3 DUP3 PUSH2 0x2275 JUMP JUMPDEST ISZERO PUSH2 0xA70 JUMPI PUSH2 0xA67 PUSH1 0x5 DUP1 PUSH2 0x220F JUMP JUMPDEST SWAP3 POP POP POP PUSH2 0xB00 JUMP JUMPDEST PUSH2 0xA78 PUSH2 0x2B8A JUMP JUMPDEST POP PUSH1 0x40 DUP1 MLOAD PUSH1 0x20 DUP2 ADD SWAP1 SWAP2 MSTORE PUSH8 0xC7D713B49DA0000 DUP2 MSTORE PUSH2 0xA99 DUP2 DUP5 PUSH2 0x227D JUMP JUMPDEST ISZERO PUSH2 0xAB3 JUMPI PUSH2 0xAA9 PUSH1 0x5 DUP1 PUSH2 0x220F JUMP JUMPDEST SWAP4 POP POP POP POP PUSH2 0xB00 JUMP JUMPDEST PUSH1 0x5 DUP1 SLOAD SWAP1 DUP7 SWAP1 SSTORE PUSH1 0x40 DUP1 MLOAD DUP3 DUP2 MSTORE PUSH1 0x20 DUP2 ADD DUP9 SWAP1 MSTORE DUP2 MLOAD PUSH32 0x3B9670CF975D26958E754B57098EAA2AC914D8D2A31B83257997B9F346110FD9 SWAP3 SWAP2 DUP2 SWAP1 SUB SWAP1 SWAP2 ADD SWAP1 LOG1 PUSH1 0x0 JUMPDEST SWAP5 POP POP POP POP POP JUMPDEST SWAP2 SWAP1 POP JUMP JUMPDEST DUP5 PUSH1 0x1 PUSH1 0x1 PUSH1 0xA0 SHL SUB AND PUSH4 0xF851A440 PUSH1 0x40 MLOAD DUP2 PUSH4 0xFFFFFFFF AND PUSH1 0xE0 SHL DUP2 MSTORE PUSH1 0x4 ADD PUSH1 0x20 PUSH1 0x40 MLOAD DUP1 DUP4 SUB DUP2 DUP7 DUP1 EXTCODESIZE ISZERO DUP1 ISZERO PUSH2 0xB3E JUMPI PUSH1 0x0 DUP1 REVERT JUMPDEST POP GAS STATICCALL ISZERO DUP1 ISZERO PUSH2 0xB52 JUMPI RETURNDATASIZE PUSH1 0x0 DUP1 RETURNDATACOPY RETURNDATASIZE PUSH1 0x0 REVERT JUMPDEST POP POP POP POP PUSH1 0x40 MLOAD RETURNDATASIZE PUSH1 0x20 DUP2 LT ISZERO PUSH2 0xB68 JUMPI PUSH1 0x0 DUP1 REVERT JUMPDEST POP MLOAD PUSH1 0x1 PUSH1 0x1 PUSH1 0xA0 SHL SUB AND CALLER EQ PUSH2 0xBB0 JUMPI PUSH1 0x40 MLOAD PUSH3 0x461BCD PUSH1 0xE5 SHL DUP2 MSTORE PUSH1 0x4 ADD DUP1 DUP1 PUSH1 0x20 ADD DUP3 DUP2 SUB DUP3 MSTORE PUSH1 0x27 DUP2 MSTORE PUSH1 0x20 ADD DUP1 PUSH2 0x2C6F PUSH1 0x27 SWAP2 CODECOPY PUSH1 0x40 ADD SWAP2 POP POP PUSH1 0x40 MLOAD DUP1 SWAP2 SUB SWAP1 REVERT JUMPDEST PUSH1 0x0 DUP6 PUSH1 0x1 PUSH1 0x1 PUSH1 0xA0 SHL SUB AND PUSH4 0xC1E80334 PUSH1 0x40 MLOAD DUP2 PUSH4 0xFFFFFFFF AND PUSH1 0xE0 SHL DUP2 MSTORE PUSH1 0x4 ADD PUSH1 0x20 PUSH1 0x40 MLOAD DUP1 DUP4 SUB DUP2 PUSH1 0x0 DUP8 DUP1 EXTCODESIZE ISZERO DUP1 ISZERO PUSH2 0xBED JUMPI PUSH1 0x0 DUP1 REVERT JUMPDEST POP GAS CALL ISZERO DUP1 ISZERO PUSH2 0xC01 JUMPI RETURNDATASIZE PUSH1 0x0 DUP1 RETURNDATACOPY RETURNDATASIZE PUSH1 0x0 REVERT JUMPDEST POP POP POP POP PUSH1 0x40 MLOAD RETURNDATASIZE PUSH1 0x20 DUP2 LT ISZERO PUSH2 0xC17 JUMPI PUSH1 0x0 DUP1 REVERT JUMPDEST POP MLOAD SWAP1 POP DUP1 ISZERO PUSH2 0xC66 JUMPI PUSH1 0x40 DUP1 MLOAD PUSH3 0x461BCD PUSH1 0xE5 SHL DUP2 MSTORE PUSH1 0x20 PUSH1 0x4 DUP3 ADD MSTORE PUSH1 0x15 PUSH1 0x24 DUP3 ADD MSTORE PUSH21 0x18DA185B99D9481B9BDD08185D5D1A1BDC9A5E9959 PUSH1 0x5A SHL PUSH1 0x44 DUP3 ADD MSTORE SWAP1 MLOAD SWAP1 DUP2 SWAP1 SUB PUSH1 0x64 ADD SWAP1 REVERT JUMPDEST DUP2 PUSH2 0xF95 JUMPI PUSH1 0x0 DUP7 SWAP1 POP PUSH1 0x0 DUP2 PUSH1 0x1 PUSH1 0x1 PUSH1 0xA0 SHL SUB AND PUSH4 0x55EE1FE1 DUP9 PUSH1 0x40 MLOAD DUP3 PUSH4 0xFFFFFFFF AND PUSH1 0xE0 SHL DUP2 MSTORE PUSH1 0x4 ADD DUP1 DUP3 PUSH1 0x1 PUSH1 0x1 PUSH1 0xA0 SHL SUB AND PUSH1 0x1 PUSH1 0x1 PUSH1 0xA0 SHL SUB AND DUP2 MSTORE PUSH1 0x20 ADD SWAP2 POP POP PUSH1 0x20 PUSH1 0x40 MLOAD DUP1 DUP4 SUB DUP2 PUSH1 0x0 DUP8 DUP1 EXTCODESIZE ISZERO DUP1 ISZERO PUSH2 0xCCA JUMPI PUSH1 0x0 DUP1 REVERT JUMPDEST POP GAS CALL ISZERO DUP1 ISZERO PUSH2 0xCDE JUMPI RETURNDATASIZE PUSH1 0x0 DUP1 RETURNDATACOPY RETURNDATASIZE PUSH1 0x0 REVERT JUMPDEST POP POP POP POP PUSH1 0x40 MLOAD RETURNDATASIZE PUSH1 0x20 DUP2 LT ISZERO PUSH2 0xCF4 JUMPI PUSH1 0x0 DUP1 REVERT JUMPDEST POP MLOAD SWAP1 POP DUP1 ISZERO PUSH2 0xD44 JUMPI PUSH1 0x40 DUP1 MLOAD PUSH3 0x461BCD PUSH1 0xE5 SHL DUP2 MSTORE PUSH1 0x20 PUSH1 0x4 DUP3 ADD MSTORE PUSH1 0x16 PUSH1 0x24 DUP3 ADD MSTORE PUSH22 0x39B2BA10383934B1B29037B930B1B6329032B93937B9 PUSH1 0x51 SHL PUSH1 0x44 DUP3 ADD MSTORE SWAP1 MLOAD SWAP1 DUP2 SWAP1 SUB PUSH1 0x64 ADD SWAP1 REVERT JUMPDEST DUP2 PUSH1 0x1 PUSH1 0x1 PUSH1 0xA0 SHL SUB AND PUSH4 0x317B0B77 DUP8 PUSH1 0x40 MLOAD DUP3 PUSH4 0xFFFFFFFF AND PUSH1 0xE0 SHL DUP2 MSTORE PUSH1 0x4 ADD DUP1 DUP3 DUP2 MSTORE PUSH1 0x20 ADD SWAP2 POP POP PUSH1 0x20 PUSH1 0x40 MLOAD DUP1 DUP4 SUB DUP2 PUSH1 0x0 DUP8 DUP1 EXTCODESIZE ISZERO DUP1 ISZERO PUSH2 0xD8A JUMPI PUSH1 0x0 DUP1 REVERT JUMPDEST POP GAS CALL ISZERO DUP1 ISZERO PUSH2 0xD9E JUMPI RETURNDATASIZE PUSH1 0x0 DUP1 RETURNDATACOPY RETURNDATASIZE PUSH1 0x0 REVERT JUMPDEST POP POP POP POP PUSH1 0x40 MLOAD RETURNDATASIZE PUSH1 0x20 DUP2 LT ISZERO PUSH2 0xDB4 JUMPI PUSH1 0x0 DUP1 REVERT JUMPDEST POP MLOAD SWAP1 POP DUP1 ISZERO PUSH2 0xE04 JUMPI PUSH1 0x40 DUP1 MLOAD PUSH3 0x461BCD PUSH1 0xE5 SHL DUP2 MSTORE PUSH1 0x20 PUSH1 0x4 DUP3 ADD MSTORE PUSH1 0x16 PUSH1 0x24 DUP3 ADD MSTORE PUSH22 0x39B2BA1031B637B9B2903330B1BA37B91032B93937B9 PUSH1 0x51 SHL PUSH1 0x44 DUP3 ADD MSTORE SWAP1 MLOAD SWAP1 DUP2 SWAP1 SUB PUSH1 0x64 ADD SWAP1 REVERT JUMPDEST DUP2 PUSH1 0x1 PUSH1 0x1 PUSH1 0xA0 SHL SUB AND PUSH4 0xD9226CED DUP7 PUSH1 0x40 MLOAD DUP3 PUSH4 0xFFFFFFFF AND PUSH1 0xE0 SHL DUP2 MSTORE PUSH1 0x4 ADD DUP1 DUP3 DUP2 MSTORE PUSH1 0x20 ADD SWAP2 POP POP PUSH1 0x20 PUSH1 0x40 MLOAD DUP1 DUP4 SUB DUP2 PUSH1 0x0 DUP8 DUP1 EXTCODESIZE ISZERO DUP1 ISZERO PUSH2 0xE4A JUMPI PUSH1 0x0 DUP1 REVERT JUMPDEST POP GAS CALL ISZERO DUP1 ISZERO PUSH2 0xE5E JUMPI RETURNDATASIZE PUSH1 0x0 DUP1 RETURNDATACOPY RETURNDATASIZE PUSH1 0x0 REVERT JUMPDEST POP POP POP POP PUSH1 0x40 MLOAD RETURNDATASIZE PUSH1 0x20 DUP2 LT ISZERO PUSH2 0xE74 JUMPI PUSH1 0x0 DUP1 REVERT JUMPDEST POP MLOAD SWAP1 POP DUP1 ISZERO PUSH2 0xEC3 JUMPI PUSH1 0x40 DUP1 MLOAD PUSH3 0x461BCD PUSH1 0xE5 SHL DUP2 MSTORE PUSH1 0x20 PUSH1 0x4 DUP3 ADD MSTORE PUSH1 0x15 PUSH1 0x24 DUP3 ADD MSTORE PUSH21 0x39B2BA1036B0BC1030B9B9B9B2BA399032B93937B9 PUSH1 0x59 SHL PUSH1 0x44 DUP3 ADD MSTORE SWAP1 MLOAD SWAP1 DUP2 SWAP1 SUB PUSH1 0x64 ADD SWAP1 REVERT JUMPDEST DUP2 PUSH1 0x1 PUSH1 0x1 PUSH1 0xA0 SHL SUB AND PUSH4 0x4FD42E17 PUSH8 0xDE0B6B3A7640000 PUSH1 0x40 MLOAD DUP3 PUSH4 0xFFFFFFFF AND PUSH1 0xE0 SHL DUP2 MSTORE PUSH1 0x4 ADD DUP1 DUP3 DUP2 MSTORE PUSH1 0x20 ADD SWAP2 POP POP PUSH1 0x20 PUSH1 0x40 MLOAD DUP1 DUP4 SUB DUP2 PUSH1 0x0 DUP8 DUP1 EXTCODESIZE ISZERO DUP1 ISZERO PUSH2 0xF11 JUMPI PUSH1 0x0 DUP1 REVERT JUMPDEST POP GAS CALL ISZERO DUP1 ISZERO PUSH2 0xF25 JUMPI RETURNDATASIZE PUSH1 0x0 DUP1 RETURNDATACOPY RETURNDATASIZE PUSH1 0x0 REVERT JUMPDEST POP POP POP POP PUSH1 0x40 MLOAD RETURNDATASIZE PUSH1 0x20 DUP2 LT ISZERO PUSH2 0xF3B JUMPI PUSH1 0x0 DUP1 REVERT JUMPDEST POP MLOAD SWAP1 POP DUP1 ISZERO PUSH2 0xF92 JUMPI PUSH1 0x40 DUP1 MLOAD PUSH3 0x461BCD PUSH1 0xE5 SHL DUP2 MSTORE PUSH1 0x20 PUSH1 0x4 DUP3 ADD MSTORE PUSH1 0x1F PUSH1 0x24 DUP3 ADD MSTORE PUSH32 0x736574206C69717569646174696F6E20696E63656E74697665206572726F7200 PUSH1 0x44 DUP3 ADD MSTORE SWAP1 MLOAD SWAP1 DUP2 SWAP1 SUB PUSH1 0x64 ADD SWAP1 REVERT JUMPDEST POP POP JUMPDEST POP POP POP POP POP POP JUMP JUMPDEST POP POP POP POP JUMP JUMPDEST PUSH2 0xF95 JUMP JUMPDEST PUSH1 0x6 SLOAD DUP2 JUMP JUMPDEST PUSH1 0x1 PUSH1 0x1 PUSH1 0xA0 SHL SUB DUP4 AND PUSH1 0x0 SWAP1 DUP2 MSTORE PUSH1 0x9 PUSH1 0x20 MSTORE PUSH1 0x40 DUP2 KECCAK256 SLOAD PUSH1 0xFF AND PUSH2 0xFD8 JUMPI PUSH1 0x9 JUMPDEST SWAP1 POP PUSH2 0xFDE JUMP JUMPDEST PUSH1 0x0 JUMPDEST SWAP1 POP JUMPDEST SWAP4 SWAP3 POP POP POP JUMP JUMPDEST PUSH1 0x0 PUSH2 0xFEF PUSH2 0x21C4 JUMP JUMPDEST PUSH2 0xFFF JUMPI PUSH2 0xA11 PUSH1 0x1 PUSH1 0xB PUSH2 0x220F JUMP JUMPDEST PUSH2 0x1007 PUSH2 0x2B8A JUMP JUMPDEST POP PUSH1 0x40 DUP1 MLOAD PUSH1 0x20 DUP2 ADD SWAP1 SWAP2 MSTORE DUP3 DUP2 MSTORE PUSH2 0x101E PUSH2 0x2B8A JUMP JUMPDEST POP PUSH1 0x40 DUP1 MLOAD PUSH1 0x20 DUP2 ADD SWAP1 SWAP2 MSTORE PUSH8 0xDE0B6B3A7640000 DUP2 MSTORE PUSH2 0x103F DUP3 DUP3 PUSH2 0x227D JUMP JUMPDEST ISZERO PUSH2 0x1050 JUMPI PUSH2 0xA67 PUSH1 0x7 PUSH1 0xC PUSH2 0x220F JUMP JUMPDEST PUSH2 0x1058 PUSH2 0x2B8A JUMP JUMPDEST POP PUSH1 0x40 DUP1 MLOAD PUSH1 0x20 DUP2 ADD SWAP1 SWAP2 MSTORE PUSH8 0x14D1120D7B160000 DUP2 MSTORE PUSH2 0x1079 DUP2 DUP5 PUSH2 0x227D JUMP JUMPDEST ISZERO PUSH2 0x108A JUMPI PUSH2 0xAA9 PUSH1 0x7 PUSH1 0xC PUSH2 0x220F JUMP JUMPDEST PUSH1 0x6 DUP1 SLOAD SWAP1 DUP7 SWAP1 SSTORE PUSH1 0x40 DUP1 MLOAD DUP3 DUP2 MSTORE PUSH1 0x20 DUP2 ADD DUP9 SWAP1 MSTORE DUP2 MLOAD PUSH32 0xAEBA5A6C40A8AC138134BFF1AAA65DEBF25971188A58804BAD717F82F0EC1316 SWAP3 SWAP2 DUP2 SWAP1 SUB SWAP1 SWAP2 ADD SWAP1 LOG1 PUSH1 0x0 PUSH2 0xAF9 JUMP JUMPDEST DUP1 ISZERO DUP1 ISZERO PUSH2 0x10E2 JUMPI POP PUSH1 0x0 DUP3 GT JUMPDEST ISZERO PUSH2 0xF9D JUMPI PUSH1 0x40 DUP1 MLOAD PUSH3 0x461BCD PUSH1 0xE5 SHL DUP2 MSTORE PUSH1 0x20 PUSH1 0x4 DUP3 ADD MSTORE PUSH1 0x11 PUSH1 0x24 DUP3 ADD MSTORE PUSH17 0x72656465656D546F6B656E73207A65726F PUSH1 0x78 SHL PUSH1 0x44 DUP3 ADD MSTORE SWAP1 MLOAD SWAP1 DUP2 SWAP1 SUB PUSH1 0x64 ADD SWAP1 REVERT JUMPDEST PUSH1 0x0 PUSH2 0x1132 PUSH2 0x21C4 JUMP JUMPDEST PUSH2 0x1142 JUMPI PUSH2 0xA11 PUSH1 0x1 PUSH1 0x10 PUSH2 0x220F JUMP JUMPDEST PUSH1 0x4 DUP1 SLOAD PUSH1 0x1 PUSH1 0x1 PUSH1 0xA0 SHL SUB DUP5 DUP2 AND PUSH1 0x1 PUSH1 0x1 PUSH1 0xA0 SHL SUB NOT DUP4 AND DUP2 OR SWAP1 SWAP4 SSTORE PUSH1 0x40 DUP1 MLOAD SWAP2 SWAP1 SWAP3 AND DUP1 DUP3 MSTORE PUSH1 0x20 DUP3 ADD SWAP4 SWAP1 SWAP4 MSTORE DUP2 MLOAD PUSH32 0xD52B2B9B7E9EE655FCB95D2E5B9E0C9F69E7EF2B8E9D2D0EA78402D576D22E22 SWAP3 SWAP2 DUP2 SWAP1 SUB SWAP1 SWAP2 ADD SWAP1 LOG1 PUSH1 0x0 SWAP4 SWAP3 POP POP POP JUMP JUMPDEST POP POP POP JUMP JUMPDEST PUSH1 0x0 DUP1 PUSH1 0x0 DUP1 PUSH1 0x0 DUP1 PUSH2 0x11C6 DUP8 PUSH1 0x0 DUP1 PUSH1 0x0 PUSH2 0x2284 JUMP JUMPDEST SWAP3 POP SWAP3 POP SWAP3 POP DUP3 PUSH1 0x11 DUP2 GT ISZERO PUSH2 0x11D8 JUMPI INVALID JUMPDEST SWAP8 SWAP2 SWAP7 POP SWAP5 POP SWAP3 POP POP POP JUMP JUMPDEST PUSH1 0x1 PUSH1 0x1 PUSH1 0xA0 SHL SUB DUP6 AND PUSH1 0x0 SWAP1 DUP2 MSTORE PUSH1 0x9 PUSH1 0x20 MSTORE PUSH1 0x40 DUP2 KECCAK256 SLOAD PUSH1 0xFF AND ISZERO DUP1 PUSH2 0x1225 JUMPI POP PUSH1 0x1 PUSH1 0x1 PUSH1 0xA0 SHL SUB DUP6 AND PUSH1 0x0 SWAP1 DUP2 MSTORE PUSH1 0x9 PUSH1 0x20 MSTORE PUSH1 0x40 SWAP1 KECCAK256 SLOAD PUSH1 0xFF AND ISZERO JUMPDEST ISZERO PUSH2 0x1234 JUMPI PUSH1 0x9 JUMPDEST SWAP1 POP PUSH2 0x1362 JUMP JUMPDEST PUSH1 0x0 DUP1 PUSH2 0x1240 DUP6 PUSH2 0x26A9 JUMP JUMPDEST SWAP2 SWAP4 POP SWAP1 SWAP2 POP PUSH1 0x0 SWAP1 POP DUP3 PUSH1 0x11 DUP2 GT ISZERO PUSH2 0x1256 JUMPI INVALID JUMPDEST EQ PUSH2 0x1270 JUMPI DUP2 PUSH1 0x11 DUP2 GT ISZERO PUSH2 0x1267 JUMPI INVALID JUMPDEST SWAP3 POP POP POP PUSH2 0x1362 JUMP JUMPDEST DUP1 PUSH2 0x127C JUMPI PUSH1 0x3 PUSH2 0x1267 JUMP JUMPDEST PUSH1 0x0 DUP9 PUSH1 0x1 PUSH1 0x1 PUSH1 0xA0 SHL SUB AND PUSH4 0x95DD9193 DUP8 PUSH1 0x40 MLOAD DUP3 PUSH4 0xFFFFFFFF AND PUSH1 0xE0 SHL DUP2 MSTORE PUSH1 0x4 ADD DUP1 DUP3 PUSH1 0x1 PUSH1 0x1 PUSH1 0xA0 SHL SUB AND PUSH1 0x1 PUSH1 0x1 PUSH1 0xA0 SHL SUB AND DUP2 MSTORE PUSH1 0x20 ADD SWAP2 POP POP PUSH1 0x20 PUSH1 0x40 MLOAD DUP1 DUP4 SUB DUP2 DUP7 DUP1 EXTCODESIZE ISZERO DUP1 ISZERO PUSH2 0x12D4 JUMPI PUSH1 0x0 DUP1 REVERT JUMPDEST POP GAS STATICCALL ISZERO DUP1 ISZERO PUSH2 0x12E8 JUMPI RETURNDATASIZE PUSH1 0x0 DUP1 RETURNDATACOPY RETURNDATASIZE PUSH1 0x0 REVERT JUMPDEST POP POP POP POP PUSH1 0x40 MLOAD RETURNDATASIZE PUSH1 0x20 DUP2 LT ISZERO PUSH2 0x12FE JUMPI PUSH1 0x0 DUP1 REVERT JUMPDEST POP MLOAD PUSH1 0x40 DUP1 MLOAD PUSH1 0x20 DUP2 ADD SWAP1 SWAP2 MSTORE PUSH1 0x5 SLOAD DUP2 MSTORE SWAP1 SWAP2 POP PUSH1 0x0 SWAP1 DUP2 SWAP1 PUSH2 0x1322 SWAP1 DUP5 PUSH2 0x26C9 JUMP JUMPDEST SWAP1 SWAP3 POP SWAP1 POP PUSH1 0x0 DUP3 PUSH1 0x3 DUP2 GT ISZERO PUSH2 0x1335 JUMPI INVALID JUMPDEST EQ PUSH2 0x1349 JUMPI PUSH1 0xB JUMPDEST SWAP6 POP POP POP POP POP POP PUSH2 0x1362 JUMP JUMPDEST DUP1 DUP8 GT ISZERO PUSH2 0x1358 JUMPI PUSH1 0x11 PUSH2 0x133D JUMP JUMPDEST PUSH1 0x0 SWAP6 POP POP POP POP POP POP JUMPDEST SWAP6 SWAP5 POP POP POP POP POP JUMP JUMPDEST PUSH1 0x4 SLOAD PUSH1 0x1 PUSH1 0x1 PUSH1 0xA0 SHL SUB AND DUP2 JUMP JUMPDEST PUSH1 0x9 PUSH1 0x20 MSTORE PUSH1 0x0 SWAP1 DUP2 MSTORE PUSH1 0x40 SWAP1 KECCAK256 DUP1 SLOAD PUSH1 0x1 SWAP1 SWAP2 ADD SLOAD PUSH1 0xFF SWAP1 SWAP2 AND SWAP1 DUP3 JUMP JUMPDEST PUSH1 0x1 PUSH1 0x1 PUSH1 0xA0 SHL SUB DUP1 DUP3 AND PUSH1 0x0 SWAP1 DUP2 MSTORE PUSH1 0x9 PUSH1 0x20 SWAP1 DUP2 MSTORE PUSH1 0x40 DUP1 DUP4 KECCAK256 SWAP4 DUP7 AND DUP4 MSTORE PUSH1 0x2 SWAP1 SWAP4 ADD SWAP1 MSTORE KECCAK256 SLOAD PUSH1 0xFF AND JUMPDEST SWAP3 SWAP2 POP POP JUMP JUMPDEST PUSH1 0x7 SLOAD DUP2 JUMP JUMPDEST PUSH1 0x0 DUP1 SLOAD PUSH1 0x1 PUSH1 0x1 PUSH1 0xA0 SHL SUB AND CALLER EQ PUSH2 0x13F2 JUMPI PUSH2 0xA11 PUSH1 0x1 PUSH1 0x12 PUSH2 0x220F JUMP JUMPDEST PUSH1 0x1 PUSH1 0x1 PUSH1 0xA0 SHL SUB DUP3 AND PUSH1 0x0 SWAP1 DUP2 MSTORE PUSH1 0x9 PUSH1 0x20 MSTORE PUSH1 0x40 SWAP1 KECCAK256 SLOAD PUSH1 0xFF AND ISZERO PUSH2 0x141F JUMPI PUSH2 0xA11 PUSH1 0xA PUSH1 0x11 PUSH2 0x220F JUMP JUMPDEST DUP2 PUSH1 0x1 PUSH1 0x1 PUSH1 0xA0 SHL SUB AND PUSH4 0xFE9C44AE PUSH1 0x40 MLOAD DUP2 PUSH4 0xFFFFFFFF AND PUSH1 0xE0 SHL DUP2 MSTORE PUSH1 0x4 ADD PUSH1 0x20 PUSH1 0x40 MLOAD DUP1 DUP4 SUB DUP2 DUP7 DUP1 EXTCODESIZE ISZERO DUP1 ISZERO PUSH2 0x1458 JUMPI PUSH1 0x0 DUP1 REVERT JUMPDEST POP GAS STATICCALL ISZERO DUP1 ISZERO PUSH2 0x146C JUMPI RETURNDATASIZE PUSH1 0x0 DUP1 RETURNDATACOPY RETURNDATASIZE PUSH1 0x0 REVERT JUMPDEST POP POP POP POP PUSH1 0x40 MLOAD RETURNDATASIZE PUSH1 0x20 DUP2 LT ISZERO PUSH2 0x1482 JUMPI PUSH1 0x0 DUP1 REVERT JUMPDEST POP POP PUSH1 0x40 DUP1 MLOAD DUP1 DUP3 ADD DUP3 MSTORE PUSH1 0x1 DUP1 DUP3 MSTORE PUSH1 0x0 PUSH1 0x20 DUP1 DUP5 ADD DUP3 DUP2 MSTORE PUSH1 0x1 PUSH1 0x1 PUSH1 0xA0 SHL SUB DUP9 AND DUP1 DUP5 MSTORE PUSH1 0x9 DUP4 MSTORE SWAP3 DUP7 SWAP1 KECCAK256 SWAP5 MLOAD DUP6 SLOAD PUSH1 0xFF NOT AND SWAP1 ISZERO ISZERO OR DUP6 SSTORE MLOAD SWAP4 SWAP1 SWAP3 ADD SWAP3 SWAP1 SWAP3 SSTORE DUP3 MLOAD SWAP2 DUP3 MSTORE SWAP2 MLOAD PUSH32 0xCF583BB0C569EB967F806B11601C4CB93C10310485C67ADD5F8362C2F212321F SWAP3 SWAP2 DUP2 SWAP1 SUB SWAP1 SWAP2 ADD SWAP1 LOG1 PUSH1 0x0 SWAP3 SWAP2 POP POP JUMP JUMPDEST PUSH1 0x60 DUP1 PUSH1 0x8 PUSH1 0x0 DUP5 PUSH1 0x1 PUSH1 0x1 PUSH1 0xA0 SHL SUB AND PUSH1 0x1 PUSH1 0x1 PUSH1 0xA0 SHL SUB AND DUP2 MSTORE PUSH1 0x20 ADD SWAP1 DUP2 MSTORE PUSH1 0x20 ADD PUSH1 0x0 KECCAK256 DUP1 SLOAD DUP1 PUSH1 0x20 MUL PUSH1 0x20 ADD PUSH1 0x40 MLOAD SWAP1 DUP2 ADD PUSH1 0x40 MSTORE DUP1 SWAP3 SWAP2 SWAP1 DUP2 DUP2 MSTORE PUSH1 0x20 ADD DUP3 DUP1 SLOAD DUP1 ISZERO PUSH2 0x157E JUMPI PUSH1 0x20 MUL DUP3 ADD SWAP2 SWAP1 PUSH1 0x0 MSTORE PUSH1 0x20 PUSH1 0x0 KECCAK256 SWAP1 JUMPDEST DUP2 SLOAD PUSH1 0x1 PUSH1 0x1 PUSH1 0xA0 SHL SUB AND DUP2 MSTORE PUSH1 0x1 SWAP1 SWAP2 ADD SWAP1 PUSH1 0x20 ADD DUP1 DUP4 GT PUSH2 0x1560 JUMPI JUMPDEST POP SWAP4 SWAP8 SWAP7 POP POP POP POP POP POP POP JUMP JUMPDEST PUSH1 0x2 SLOAD PUSH1 0x1 PUSH1 0x1 PUSH1 0xA0 SHL SUB AND DUP2 JUMP JUMPDEST PUSH1 0x0 PUSH2 0x9DD DUP6 DUP6 DUP5 PUSH2 0x271D JUMP JUMPDEST PUSH1 0x60 PUSH1 0x0 DUP3 MLOAD SWAP1 POP PUSH1 0x60 DUP2 PUSH1 0x40 MLOAD SWAP1 DUP1 DUP3 MSTORE DUP1 PUSH1 0x20 MUL PUSH1 0x20 ADD DUP3 ADD PUSH1 0x40 MSTORE DUP1 ISZERO PUSH2 0x15DB JUMPI DUP2 PUSH1 0x20 ADD PUSH1 0x20 DUP3 MUL DUP1 CODESIZE DUP4 CODECOPY ADD SWAP1 POP JUMPDEST POP SWAP1 POP PUSH1 0x0 JUMPDEST DUP3 DUP2 LT ISZERO PUSH2 0x1743 JUMPI PUSH1 0x0 DUP6 DUP3 DUP2 MLOAD DUP2 LT PUSH2 0x15F7 JUMPI INVALID JUMPDEST PUSH1 0x20 SWAP1 DUP2 MUL SWAP2 SWAP1 SWAP2 ADD DUP2 ADD MLOAD PUSH1 0x1 PUSH1 0x1 PUSH1 0xA0 SHL SUB DUP2 AND PUSH1 0x0 SWAP1 DUP2 MSTORE PUSH1 0x9 SWAP1 SWAP3 MSTORE PUSH1 0x40 SWAP1 SWAP2 KECCAK256 DUP1 SLOAD SWAP2 SWAP3 POP SWAP1 PUSH1 0xFF AND PUSH2 0x164B JUMPI PUSH1 0x9 JUMPDEST DUP5 DUP5 DUP2 MLOAD DUP2 LT PUSH2 0x1638 JUMPI INVALID JUMPDEST PUSH1 0x20 MUL PUSH1 0x20 ADD ADD DUP2 DUP2 MSTORE POP POP POP POP PUSH2 0x173B JUMP JUMPDEST CALLER PUSH1 0x0 SWAP1 DUP2 MSTORE PUSH1 0x2 DUP3 ADD PUSH1 0x20 MSTORE PUSH1 0x40 SWAP1 KECCAK256 SLOAD PUSH1 0xFF AND ISZERO ISZERO PUSH1 0x1 EQ ISZERO PUSH2 0x1671 JUMPI PUSH1 0x0 PUSH2 0x162C JUMP JUMPDEST PUSH1 0x7 SLOAD CALLER PUSH1 0x0 SWAP1 DUP2 MSTORE PUSH1 0x8 PUSH1 0x20 MSTORE PUSH1 0x40 SWAP1 KECCAK256 SLOAD LT PUSH2 0x1690 JUMPI PUSH1 0x10 PUSH2 0x162C JUMP JUMPDEST CALLER PUSH1 0x0 DUP2 DUP2 MSTORE PUSH1 0x2 DUP4 ADD PUSH1 0x20 SWAP1 DUP2 MSTORE PUSH1 0x40 DUP1 DUP4 KECCAK256 DUP1 SLOAD PUSH1 0xFF NOT AND PUSH1 0x1 SWAP1 DUP2 OR SWAP1 SWAP2 SSTORE PUSH1 0x8 DUP4 MSTORE DUP2 DUP5 KECCAK256 DUP1 SLOAD SWAP2 DUP3 ADD DUP2 SSTORE DUP5 MSTORE SWAP3 DUP3 SWAP1 KECCAK256 SWAP1 SWAP3 ADD DUP1 SLOAD PUSH1 0x1 PUSH1 0x1 PUSH1 0xA0 SHL SUB DUP8 AND PUSH1 0x1 PUSH1 0x1 PUSH1 0xA0 SHL SUB NOT SWAP1 SWAP2 AND DUP2 OR SWAP1 SWAP2 SSTORE DUP3 MLOAD SWAP1 DUP2 MSTORE SWAP1 DUP2 ADD SWAP3 SWAP1 SWAP3 MSTORE DUP1 MLOAD PUSH32 0x3AB23AB0D51CCCC0C3085AEC51F99228625AA1A922B3A8CA89A26B0F2027A1A5 SWAP3 DUP2 SWAP1 SUB SWAP1 SWAP2 ADD SWAP1 LOG1 PUSH1 0x0 DUP5 DUP5 DUP2 MLOAD DUP2 LT PUSH2 0x172C JUMPI INVALID JUMPDEST PUSH1 0x20 MUL PUSH1 0x20 ADD ADD DUP2 DUP2 MSTORE POP POP POP POP JUMPDEST PUSH1 0x1 ADD PUSH2 0x15E1 JUMP JUMPDEST POP SWAP4 SWAP3 POP POP POP JUMP JUMPDEST PUSH1 0x4 DUP1 SLOAD PUSH1 0x40 DUP1 MLOAD PUSH4 0xFC57D4DF PUSH1 0xE0 SHL DUP2 MSTORE PUSH1 0x1 PUSH1 0x1 PUSH1 0xA0 SHL SUB DUP8 DUP2 AND SWAP5 DUP3 ADD SWAP5 SWAP1 SWAP5 MSTORE SWAP1 MLOAD PUSH1 0x0 SWAP4 DUP5 SWAP4 DUP5 SWAP4 SWAP2 AND SWAP2 PUSH4 0xFC57D4DF SWAP2 PUSH1 0x24 DUP1 DUP3 ADD SWAP3 PUSH1 0x20 SWAP3 SWAP1 SWAP2 SWAP1 DUP3 SWAP1 SUB ADD DUP2 DUP7 DUP1 EXTCODESIZE ISZERO DUP1 ISZERO PUSH2 0x17A1 JUMPI PUSH1 0x0 DUP1 REVERT JUMPDEST POP GAS STATICCALL ISZERO DUP1 ISZERO PUSH2 0x17B5 JUMPI RETURNDATASIZE PUSH1 0x0 DUP1 RETURNDATACOPY RETURNDATASIZE PUSH1 0x0 REVERT JUMPDEST POP POP POP POP PUSH1 0x40 MLOAD RETURNDATASIZE PUSH1 0x20 DUP2 LT ISZERO PUSH2 0x17CB JUMPI PUSH1 0x0 DUP1 REVERT JUMPDEST POP MLOAD PUSH1 0x4 DUP1 SLOAD PUSH1 0x40 DUP1 MLOAD PUSH4 0xFC57D4DF PUSH1 0xE0 SHL DUP2 MSTORE PUSH1 0x1 PUSH1 0x1 PUSH1 0xA0 SHL SUB DUP11 DUP2 AND SWAP5 DUP3 ADD SWAP5 SWAP1 SWAP5 MSTORE SWAP1 MLOAD SWAP4 SWAP5 POP PUSH1 0x0 SWAP4 SWAP3 SWAP1 SWAP2 AND SWAP2 PUSH4 0xFC57D4DF SWAP2 PUSH1 0x24 DUP1 DUP3 ADD SWAP3 PUSH1 0x20 SWAP3 SWAP1 SWAP2 SWAP1 DUP3 SWAP1 SUB ADD DUP2 DUP7 DUP1 EXTCODESIZE ISZERO DUP1 ISZERO PUSH2 0x1824 JUMPI PUSH1 0x0 DUP1 REVERT JUMPDEST POP GAS STATICCALL ISZERO DUP1 ISZERO PUSH2 0x1838 JUMPI RETURNDATASIZE PUSH1 0x0 DUP1 RETURNDATACOPY RETURNDATASIZE PUSH1 0x0 REVERT JUMPDEST POP POP POP POP PUSH1 0x40 MLOAD RETURNDATASIZE PUSH1 0x20 DUP2 LT ISZERO PUSH2 0x184E JUMPI PUSH1 0x0 DUP1 REVERT JUMPDEST POP MLOAD SWAP1 POP DUP2 ISZERO DUP1 PUSH2 0x185D JUMPI POP DUP1 ISZERO JUMPDEST ISZERO PUSH2 0x1872 JUMPI PUSH1 0xD SWAP4 POP PUSH1 0x0 SWAP3 POP PUSH2 0x19B8 SWAP2 POP POP JUMP JUMPDEST PUSH1 0x0 DUP7 PUSH1 0x1 PUSH1 0x1 PUSH1 0xA0 SHL SUB AND PUSH4 0x182DF0F5 PUSH1 0x40 MLOAD DUP2 PUSH4 0xFFFFFFFF AND PUSH1 0xE0 SHL DUP2 MSTORE PUSH1 0x4 ADD PUSH1 0x20 PUSH1 0x40 MLOAD DUP1 DUP4 SUB DUP2 DUP7 DUP1 EXTCODESIZE ISZERO DUP1 ISZERO PUSH2 0x18AD JUMPI PUSH1 0x0 DUP1 REVERT JUMPDEST POP GAS STATICCALL ISZERO DUP1 ISZERO PUSH2 0x18C1 JUMPI RETURNDATASIZE PUSH1 0x0 DUP1 RETURNDATACOPY RETURNDATASIZE PUSH1 0x0 REVERT JUMPDEST POP POP POP POP PUSH1 0x40 MLOAD RETURNDATASIZE PUSH1 0x20 DUP2 LT ISZERO PUSH2 0x18D7 JUMPI PUSH1 0x0 DUP1 REVERT JUMPDEST POP MLOAD SWAP1 POP PUSH1 0x0 PUSH2 0x18E5 PUSH2 0x2B8A JUMP JUMPDEST PUSH2 0x18ED PUSH2 0x2B8A JUMP JUMPDEST PUSH2 0x18F5 PUSH2 0x2B8A JUMP JUMPDEST PUSH1 0x0 PUSH2 0x1903 PUSH1 0x6 SLOAD DUP10 PUSH2 0x278C JUMP JUMPDEST SWAP5 POP SWAP1 POP PUSH1 0x0 DUP2 PUSH1 0x3 DUP2 GT ISZERO PUSH2 0x1915 JUMPI INVALID JUMPDEST EQ PUSH2 0x1931 JUMPI PUSH1 0xB JUMPDEST SWAP10 POP PUSH1 0x0 SWAP9 POP PUSH2 0x19B8 SWAP8 POP POP POP POP POP POP POP POP JUMP JUMPDEST PUSH2 0x193B DUP8 DUP8 PUSH2 0x278C JUMP JUMPDEST SWAP4 POP SWAP1 POP PUSH1 0x0 DUP2 PUSH1 0x3 DUP2 GT ISZERO PUSH2 0x194D JUMPI INVALID JUMPDEST EQ PUSH2 0x1959 JUMPI PUSH1 0xB PUSH2 0x191D JUMP JUMPDEST PUSH2 0x1963 DUP5 DUP5 PUSH2 0x27C7 JUMP JUMPDEST SWAP3 POP SWAP1 POP PUSH1 0x0 DUP2 PUSH1 0x3 DUP2 GT ISZERO PUSH2 0x1975 JUMPI INVALID JUMPDEST EQ PUSH2 0x1981 JUMPI PUSH1 0xB PUSH2 0x191D JUMP JUMPDEST PUSH2 0x198B DUP3 DUP13 PUSH2 0x26C9 JUMP JUMPDEST SWAP6 POP SWAP1 POP PUSH1 0x0 DUP2 PUSH1 0x3 DUP2 GT ISZERO PUSH2 0x199D JUMPI INVALID JUMPDEST EQ PUSH2 0x19A9 JUMPI PUSH1 0xB PUSH2 0x191D JUMP JUMPDEST PUSH1 0x0 SWAP10 POP SWAP4 SWAP8 POP POP POP POP POP POP POP POP JUMPDEST SWAP4 POP SWAP4 SWAP2 POP POP JUMP JUMPDEST PUSH1 0x1 PUSH1 0x1 PUSH1 0xA0 SHL SUB DUP6 AND PUSH1 0x0 SWAP1 DUP2 MSTORE PUSH1 0x9 PUSH1 0x20 MSTORE PUSH1 0x40 DUP2 KECCAK256 SLOAD PUSH1 0xFF AND ISZERO DUP1 PUSH2 0x1A01 JUMPI POP PUSH1 0x1 PUSH1 0x1 PUSH1 0xA0 SHL SUB DUP6 AND PUSH1 0x0 SWAP1 DUP2 MSTORE PUSH1 0x9 PUSH1 0x20 MSTORE PUSH1 0x40 SWAP1 KECCAK256 SLOAD PUSH1 0xFF AND ISZERO JUMPDEST ISZERO PUSH2 0x1A0D JUMPI PUSH1 0x9 PUSH2 0x122D JUMP JUMPDEST DUP5 PUSH1 0x1 PUSH1 0x1 PUSH1 0xA0 SHL SUB AND PUSH4 0x5FE3B567 PUSH1 0x40 MLOAD DUP2 PUSH4 0xFFFFFFFF AND PUSH1 0xE0 SHL DUP2 MSTORE PUSH1 0x4 ADD PUSH1 0x20 PUSH1 0x40 MLOAD DUP1 DUP4 SUB DUP2 DUP7 DUP1 EXTCODESIZE ISZERO DUP1 ISZERO PUSH2 0x1A46 JUMPI PUSH1 0x0 DUP1 REVERT JUMPDEST POP GAS STATICCALL ISZERO DUP1 ISZERO PUSH2 0x1A5A JUMPI RETURNDATASIZE PUSH1 0x0 DUP1 RETURNDATACOPY RETURNDATASIZE PUSH1 0x0 REVERT JUMPDEST POP POP POP POP PUSH1 0x40 MLOAD RETURNDATASIZE PUSH1 0x20 DUP2 LT ISZERO PUSH2 0x1A70 JUMPI PUSH1 0x0 DUP1 REVERT JUMPDEST POP MLOAD PUSH1 0x40 DUP1 MLOAD PUSH4 0x5FE3B567 PUSH1 0xE0 SHL DUP2 MSTORE SWAP1 MLOAD PUSH1 0x1 PUSH1 0x1 PUSH1 0xA0 SHL SUB SWAP3 DUP4 AND SWAP3 DUP10 AND SWAP2 PUSH4 0x5FE3B567 SWAP2 PUSH1 0x4 DUP1 DUP4 ADD SWAP3 PUSH1 0x20 SWAP3 SWAP2 SWAP1 DUP3 SWAP1 SUB ADD DUP2 DUP7 DUP1 EXTCODESIZE ISZERO DUP1 ISZERO PUSH2 0x1AB6 JUMPI PUSH1 0x0 DUP1 REVERT JUMPDEST POP GAS STATICCALL ISZERO DUP1 ISZERO PUSH2 0x1ACA JUMPI RETURNDATASIZE PUSH1 0x0 DUP1 RETURNDATACOPY RETURNDATASIZE PUSH1 0x0 REVERT JUMPDEST POP POP POP POP PUSH1 0x40 MLOAD RETURNDATASIZE PUSH1 0x20 DUP2 LT ISZERO PUSH2 0x1AE0 JUMPI PUSH1 0x0 DUP1 REVERT JUMPDEST POP MLOAD PUSH1 0x1 PUSH1 0x1 PUSH1 0xA0 SHL SUB AND EQ PUSH2 0x1AF7 JUMPI PUSH1 0x2 PUSH2 0x122D JUMP JUMPDEST PUSH1 0x0 SWAP7 SWAP6 POP POP POP POP POP POP JUMP JUMPDEST PUSH1 0x0 PUSH2 0x1B0D PUSH2 0x21C4 JUMP JUMPDEST PUSH2 0x1B1D JUMPI PUSH2 0xA11 PUSH1 0x1 PUSH1 0xD PUSH2 0x220F JUMP JUMPDEST PUSH1 0x7 DUP1 SLOAD SWAP1 DUP4 SWAP1 SSTORE PUSH1 0x40 DUP1 MLOAD DUP3 DUP2 MSTORE PUSH1 0x20 DUP2 ADD DUP6 SWAP1 MSTORE DUP2 MLOAD PUSH32 0x7093CF1EB653F749C3FF531D6DF7F92764536A7FA0D13530CD26E070780C32EA SWAP3 SWAP2 DUP2 SWAP1 SUB SWAP1 SWAP2 ADD SWAP1 LOG1 PUSH1 0x0 PUSH2 0xFDE JUMP JUMPDEST PUSH1 0x1 PUSH1 0x1 PUSH1 0xA0 SHL SUB DUP4 AND PUSH1 0x0 SWAP1 DUP2 MSTORE PUSH1 0x9 PUSH1 0x20 MSTORE PUSH1 0x40 DUP2 KECCAK256 SLOAD PUSH1 0xFF AND PUSH2 0x1B8E JUMPI PUSH1 0x9 PUSH2 0xFD1 JUMP JUMPDEST PUSH1 0x1 PUSH1 0x1 PUSH1 0xA0 SHL SUB DUP1 DUP6 AND PUSH1 0x0 SWAP1 DUP2 MSTORE PUSH1 0x9 PUSH1 0x20 SWAP1 DUP2 MSTORE PUSH1 0x40 DUP1 DUP4 KECCAK256 SWAP4 DUP8 AND DUP4 MSTORE PUSH1 0x2 SWAP1 SWAP4 ADD SWAP1 MSTORE KECCAK256 SLOAD PUSH1 0xFF AND PUSH2 0x1BC6 JUMPI PUSH1 0x8 PUSH2 0xFD1 JUMP JUMPDEST PUSH1 0x4 DUP1 SLOAD PUSH1 0x40 DUP1 MLOAD PUSH4 0xFC57D4DF PUSH1 0xE0 SHL DUP2 MSTORE PUSH1 0x1 PUSH1 0x1 PUSH1 0xA0 SHL SUB DUP9 DUP2 AND SWAP5 DUP3 ADD SWAP5 SWAP1 SWAP5 MSTORE SWAP1 MLOAD SWAP3 SWAP1 SWAP2 AND SWAP2 PUSH4 0xFC57D4DF SWAP2 PUSH1 0x24 DUP1 DUP3 ADD SWAP3 PUSH1 0x20 SWAP3 SWAP1 SWAP2 SWAP1 DUP3 SWAP1 SUB ADD DUP2 DUP7 DUP1 EXTCODESIZE ISZERO DUP1 ISZERO PUSH2 0x1C17 JUMPI PUSH1 0x0 DUP1 REVERT JUMPDEST POP GAS STATICCALL ISZERO DUP1 ISZERO PUSH2 0x1C2B JUMPI RETURNDATASIZE PUSH1 0x0 DUP1 RETURNDATACOPY RETURNDATASIZE PUSH1 0x0 REVERT JUMPDEST POP POP POP POP PUSH1 0x40 MLOAD RETURNDATASIZE PUSH1 0x20 DUP2 LT ISZERO PUSH2 0x1C41 JUMPI PUSH1 0x0 DUP1 REVERT JUMPDEST POP MLOAD PUSH2 0x1C4E JUMPI PUSH1 0xD PUSH2 0xFD1 JUMP JUMPDEST PUSH1 0x0 DUP1 PUSH2 0x1C5E DUP6 DUP8 PUSH1 0x0 DUP8 PUSH2 0x2284 JUMP JUMPDEST SWAP2 SWAP4 POP SWAP1 SWAP2 POP PUSH1 0x0 SWAP1 POP DUP3 PUSH1 0x11 DUP2 GT ISZERO PUSH2 0x1C74 JUMPI INVALID JUMPDEST EQ PUSH2 0x1C8E JUMPI DUP2 PUSH1 0x11 DUP2 GT ISZERO PUSH2 0x1C85 JUMPI INVALID JUMPDEST SWAP3 POP POP POP PUSH2 0xFDE JUMP JUMPDEST DUP1 ISZERO PUSH2 0x1AF7 JUMPI PUSH1 0x4 PUSH2 0x1C85 JUMP JUMPDEST PUSH1 0x8 PUSH1 0x20 MSTORE DUP2 PUSH1 0x0 MSTORE PUSH1 0x40 PUSH1 0x0 KECCAK256 DUP2 DUP2 SLOAD DUP2 LT PUSH2 0x1CB4 JUMPI INVALID JUMPDEST PUSH1 0x0 SWAP2 DUP3 MSTORE PUSH1 0x20 SWAP1 SWAP2 KECCAK256 ADD SLOAD PUSH1 0x1 PUSH1 0x1 PUSH1 0xA0 SHL SUB AND SWAP2 POP DUP3 SWAP1 POP JUMP JUMPDEST PUSH1 0x3 SLOAD PUSH1 0x1 PUSH1 0x1 PUSH1 0xA0 SHL SUB AND DUP2 JUMP JUMPDEST PUSH1 0x0 DUP1 SLOAD PUSH1 0x1 PUSH1 0x1 PUSH1 0xA0 SHL SUB AND CALLER EQ PUSH2 0x1D05 JUMPI PUSH2 0x1CFE PUSH1 0x1 PUSH1 0x6 PUSH2 0x220F JUMP JUMPDEST SWAP1 POP PUSH2 0x13C7 JUMP JUMPDEST PUSH1 0x1 PUSH1 0x1 PUSH1 0xA0 SHL SUB DUP4 AND PUSH1 0x0 SWAP1 DUP2 MSTORE PUSH1 0x9 PUSH1 0x20 MSTORE PUSH1 0x40 SWAP1 KECCAK256 DUP1 SLOAD PUSH1 0xFF AND PUSH2 0x1D3A JUMPI PUSH2 0x1D32 PUSH1 0x9 PUSH1 0x7 PUSH2 0x220F JUMP JUMPDEST SWAP2 POP POP PUSH2 0x13C7 JUMP JUMPDEST PUSH2 0x1D42 PUSH2 0x2B8A JUMP JUMPDEST POP PUSH1 0x40 DUP1 MLOAD PUSH1 0x20 DUP2 ADD SWAP1 SWAP2 MSTORE DUP4 DUP2 MSTORE PUSH2 0x1D59 PUSH2 0x2B8A JUMP JUMPDEST POP PUSH1 0x40 DUP1 MLOAD PUSH1 0x20 DUP2 ADD SWAP1 SWAP2 MSTORE PUSH8 0xC7D713B49DA0000 DUP2 MSTORE PUSH2 0x1D7A DUP2 DUP4 PUSH2 0x227D JUMP JUMPDEST ISZERO PUSH2 0x1D95 JUMPI PUSH2 0x1D8B PUSH1 0x6 PUSH1 0x8 PUSH2 0x220F JUMP JUMPDEST SWAP4 POP POP POP POP PUSH2 0x13C7 JUMP JUMPDEST DUP5 ISZERO DUP1 ISZERO SWAP1 PUSH2 0x1E1E JUMPI POP PUSH1 0x4 DUP1 SLOAD PUSH1 0x40 DUP1 MLOAD PUSH4 0xFC57D4DF PUSH1 0xE0 SHL DUP2 MSTORE PUSH1 0x1 PUSH1 0x1 PUSH1 0xA0 SHL SUB DUP11 DUP2 AND SWAP5 DUP3 ADD SWAP5 SWAP1 SWAP5 MSTORE SWAP1 MLOAD SWAP3 SWAP1 SWAP2 AND SWAP2 PUSH4 0xFC57D4DF SWAP2 PUSH1 0x24 DUP1 DUP3 ADD SWAP3 PUSH1 0x20 SWAP3 SWAP1 SWAP2 SWAP1 DUP3 SWAP1 SUB ADD DUP2 DUP7 DUP1 EXTCODESIZE ISZERO DUP1 ISZERO PUSH2 0x1DF0 JUMPI PUSH1 0x0 DUP1 REVERT JUMPDEST POP GAS STATICCALL ISZERO DUP1 ISZERO PUSH2 0x1E04 JUMPI RETURNDATASIZE PUSH1 0x0 DUP1 RETURNDATACOPY RETURNDATASIZE PUSH1 0x0 REVERT JUMPDEST POP POP POP POP PUSH1 0x40 MLOAD RETURNDATASIZE PUSH1 0x20 DUP2 LT ISZERO PUSH2 0x1E1A JUMPI PUSH1 0x0 DUP1 REVERT JUMPDEST POP MLOAD ISZERO JUMPDEST ISZERO PUSH2 0x1E2F JUMPI PUSH2 0x1D8B PUSH1 0xD PUSH1 0x9 PUSH2 0x220F JUMP JUMPDEST PUSH1 0x1 DUP4 ADD DUP1 SLOAD SWAP1 DUP7 SWAP1 SSTORE PUSH1 0x40 DUP1 MLOAD PUSH1 0x1 PUSH1 0x1 PUSH1 0xA0 SHL SUB DUP10 AND DUP2 MSTORE PUSH1 0x20 DUP2 ADD DUP4 SWAP1 MSTORE DUP1 DUP3 ADD DUP9 SWAP1 MSTORE SWAP1 MLOAD PUSH32 0x70483E6592CD5182D45AC970E05BC62CDCC90E9D8EF2C2DBE686CF383BCD7FC5 SWAP2 DUP2 SWAP1 SUB PUSH1 0x60 ADD SWAP1 LOG1 PUSH1 0x0 SWAP8 SWAP7 POP POP POP POP POP POP POP JUMP JUMPDEST PUSH1 0x5 SLOAD DUP2 JUMP JUMPDEST PUSH1 0x0 PUSH2 0xFDB DUP5 DUP5 DUP5 PUSH2 0x271D JUMP JUMPDEST PUSH1 0x0 DUP1 DUP3 SWAP1 POP PUSH1 0x0 DUP1 PUSH1 0x0 DUP4 PUSH1 0x1 PUSH1 0x1 PUSH1 0xA0 SHL SUB AND PUSH4 0xC37F68E2 CALLER PUSH1 0x40 MLOAD DUP3 PUSH4 0xFFFFFFFF AND PUSH1 0xE0 SHL DUP2 MSTORE PUSH1 0x4 ADD DUP1 DUP3 PUSH1 0x1 PUSH1 0x1 PUSH1 0xA0 SHL SUB AND PUSH1 0x1 PUSH1 0x1 PUSH1 0xA0 SHL SUB AND DUP2 MSTORE PUSH1 0x20 ADD SWAP2 POP POP PUSH1 0x80 PUSH1 0x40 MLOAD DUP1 DUP4 SUB DUP2 DUP7 DUP1 EXTCODESIZE ISZERO DUP1 ISZERO PUSH2 0x1F03 JUMPI PUSH1 0x0 DUP1 REVERT JUMPDEST POP GAS STATICCALL ISZERO DUP1 ISZERO PUSH2 0x1F17 JUMPI RETURNDATASIZE PUSH1 0x0 DUP1 RETURNDATACOPY RETURNDATASIZE PUSH1 0x0 REVERT JUMPDEST POP POP POP POP PUSH1 0x40 MLOAD RETURNDATASIZE PUSH1 0x80 DUP2 LT ISZERO PUSH2 0x1F2D JUMPI PUSH1 0x0 DUP1 REVERT JUMPDEST POP DUP1 MLOAD PUSH1 0x20 DUP3 ADD MLOAD PUSH1 0x40 SWAP1 SWAP3 ADD MLOAD SWAP1 SWAP5 POP SWAP1 SWAP3 POP SWAP1 POP DUP3 ISZERO PUSH2 0x1F80 JUMPI PUSH1 0x40 MLOAD PUSH3 0x461BCD PUSH1 0xE5 SHL DUP2 MSTORE PUSH1 0x4 ADD DUP1 DUP1 PUSH1 0x20 ADD DUP3 DUP2 SUB DUP3 MSTORE PUSH1 0x25 DUP2 MSTORE PUSH1 0x20 ADD DUP1 PUSH2 0x2C4A PUSH1 0x25 SWAP2 CODECOPY PUSH1 0x40 ADD SWAP2 POP POP PUSH1 0x40 MLOAD DUP1 SWAP2 SUB SWAP1 REVERT JUMPDEST DUP1 ISZERO PUSH2 0x1F9D JUMPI PUSH2 0x1F92 PUSH1 0xC PUSH1 0x2 PUSH2 0x220F JUMP JUMPDEST SWAP5 POP POP POP POP POP PUSH2 0xB00 JUMP JUMPDEST PUSH1 0x0 PUSH2 0x1FAA DUP8 CALLER DUP6 PUSH2 0x271D JUMP JUMPDEST SWAP1 POP DUP1 ISZERO PUSH2 0x1FCB JUMPI PUSH2 0x1FBF PUSH1 0xE PUSH1 0x3 DUP4 PUSH2 0x27DF JUMP JUMPDEST SWAP6 POP POP POP POP POP POP PUSH2 0xB00 JUMP JUMPDEST PUSH1 0x1 PUSH1 0x1 PUSH1 0xA0 SHL SUB DUP6 AND PUSH1 0x0 SWAP1 DUP2 MSTORE PUSH1 0x9 PUSH1 0x20 SWAP1 DUP2 MSTORE PUSH1 0x40 DUP1 DUP4 KECCAK256 CALLER DUP5 MSTORE PUSH1 0x2 DUP2 ADD SWAP1 SWAP3 MSTORE SWAP1 SWAP2 KECCAK256 SLOAD PUSH1 0xFF AND PUSH2 0x200A JUMPI PUSH1 0x0 SWAP7 POP POP POP POP POP POP POP PUSH2 0xB00 JUMP JUMPDEST CALLER PUSH1 0x0 SWAP1 DUP2 MSTORE PUSH1 0x2 DUP3 ADD PUSH1 0x20 SWAP1 DUP2 MSTORE PUSH1 0x40 DUP1 DUP4 KECCAK256 DUP1 SLOAD PUSH1 0xFF NOT AND SWAP1 SSTORE PUSH1 0x8 DUP3 MSTORE SWAP2 DUP3 SWAP1 KECCAK256 DUP1 SLOAD DUP4 MLOAD DUP2 DUP5 MUL DUP2 ADD DUP5 ADD SWAP1 SWAP5 MSTORE DUP1 DUP5 MSTORE PUSH1 0x60 SWAP4 SWAP3 DUP4 ADD DUP3 DUP3 DUP1 ISZERO PUSH2 0x207C JUMPI PUSH1 0x20 MUL DUP3 ADD SWAP2 SWAP1 PUSH1 0x0 MSTORE PUSH1 0x20 PUSH1 0x0 KECCAK256 SWAP1 JUMPDEST DUP2 SLOAD PUSH1 0x1 PUSH1 0x1 PUSH1 0xA0 SHL SUB AND DUP2 MSTORE PUSH1 0x1 SWAP1 SWAP2 ADD SWAP1 PUSH1 0x20 ADD DUP1 DUP4 GT PUSH2 0x205E JUMPI JUMPDEST POP POP DUP4 MLOAD SWAP4 SWAP5 POP DUP4 SWAP3 POP PUSH1 0x0 SWAP2 POP POP JUMPDEST DUP3 DUP2 LT ISZERO PUSH2 0x20D1 JUMPI DUP10 PUSH1 0x1 PUSH1 0x1 PUSH1 0xA0 SHL SUB AND DUP5 DUP3 DUP2 MLOAD DUP2 LT PUSH2 0x20AA JUMPI INVALID JUMPDEST PUSH1 0x20 MUL PUSH1 0x20 ADD ADD MLOAD PUSH1 0x1 PUSH1 0x1 PUSH1 0xA0 SHL SUB AND EQ ISZERO PUSH2 0x20C9 JUMPI DUP1 SWAP2 POP PUSH2 0x20D1 JUMP JUMPDEST PUSH1 0x1 ADD PUSH2 0x208C JUMP JUMPDEST POP DUP2 DUP2 LT PUSH2 0x20DB JUMPI INVALID JUMPDEST CALLER PUSH1 0x0 SWAP1 DUP2 MSTORE PUSH1 0x8 PUSH1 0x20 MSTORE PUSH1 0x40 SWAP1 KECCAK256 DUP1 SLOAD DUP2 SWAP1 PUSH1 0x0 NOT DUP2 ADD SWAP1 DUP2 LT PUSH2 0x20FC JUMPI INVALID JUMPDEST SWAP1 PUSH1 0x0 MSTORE PUSH1 0x20 PUSH1 0x0 KECCAK256 ADD PUSH1 0x0 SWAP1 SLOAD SWAP1 PUSH2 0x100 EXP SWAP1 DIV PUSH1 0x1 PUSH1 0x1 PUSH1 0xA0 SHL SUB AND DUP2 DUP4 DUP2 SLOAD DUP2 LT PUSH2 0x2126 JUMPI INVALID JUMPDEST PUSH1 0x0 SWAP2 DUP3 MSTORE PUSH1 0x20 SWAP1 SWAP2 KECCAK256 ADD DUP1 SLOAD PUSH1 0x1 PUSH1 0x1 PUSH1 0xA0 SHL SUB NOT AND PUSH1 0x1 PUSH1 0x1 PUSH1 0xA0 SHL SUB SWAP3 SWAP1 SWAP3 AND SWAP2 SWAP1 SWAP2 OR SWAP1 SSTORE DUP1 SLOAD PUSH2 0x215F DUP3 PUSH1 0x0 NOT DUP4 ADD PUSH2 0x2B9D JUMP JUMPDEST POP PUSH1 0x40 DUP1 MLOAD PUSH1 0x1 PUSH1 0x1 PUSH1 0xA0 SHL SUB DUP13 AND DUP2 MSTORE CALLER PUSH1 0x20 DUP3 ADD MSTORE DUP2 MLOAD PUSH32 0xE699A64C18B07AC5B7301AA273F36A2287239EB9501D81950672794AFBA29A0D SWAP3 SWAP2 DUP2 SWAP1 SUB SWAP1 SWAP2 ADD SWAP1 LOG1 PUSH1 0x0 SWAP13 SWAP12 POP POP POP POP POP POP POP POP POP POP POP POP JUMP JUMPDEST PUSH1 0x0 SLOAD PUSH1 0x1 PUSH1 0x1 PUSH1 0xA0 SHL SUB AND DUP2 JUMP JUMPDEST PUSH1 0x2 SLOAD PUSH1 0x0 SWAP1 DUP2 SWAP1 PUSH1 0x1 PUSH1 0x1 PUSH1 0xA0 SHL SUB AND CALLER EQ DUP1 ISZERO PUSH2 0x21ED JUMPI POP PUSH1 0x0 SLOAD PUSH1 0x1 PUSH1 0x1 PUSH1 0xA0 SHL SUB AND ORIGIN EQ JUMPDEST PUSH1 0x0 SLOAD SWAP1 SWAP2 POP PUSH1 0x1 PUSH1 0x1 PUSH1 0xA0 SHL SUB AND CALLER EQ DUP1 DUP1 PUSH2 0x2207 JUMPI POP DUP2 JUMPDEST SWAP3 POP POP POP JUMPDEST SWAP1 JUMP JUMPDEST PUSH1 0x0 PUSH32 0x45B96FE442630264581B197E84BBADA861235052C5A1AADFFF9EA4E40A969AA0 DUP4 PUSH1 0x11 DUP2 GT ISZERO PUSH2 0x223E JUMPI INVALID JUMPDEST DUP4 PUSH1 0x13 DUP2 GT ISZERO PUSH2 0x224A JUMPI INVALID JUMPDEST PUSH1 0x40 DUP1 MLOAD SWAP3 DUP4 MSTORE PUSH1 0x20 DUP4 ADD SWAP2 SWAP1 SWAP2 MSTORE PUSH1 0x0 DUP3 DUP3 ADD MSTORE MLOAD SWAP1 DUP2 SWAP1 SUB PUSH1 0x60 ADD SWAP1 LOG1 DUP3 PUSH1 0x11 DUP2 GT ISZERO PUSH2 0xFDE JUMPI INVALID JUMPDEST MLOAD SWAP1 MLOAD GT ISZERO SWAP1 JUMP JUMPDEST MLOAD SWAP1 MLOAD LT SWAP1 JUMP JUMPDEST PUSH1 0x0 DUP1 PUSH1 0x0 PUSH2 0x2291 PUSH2 0x2BC1 JUMP JUMPDEST PUSH1 0x1 PUSH1 0x1 PUSH1 0xA0 SHL SUB DUP9 AND PUSH1 0x0 SWAP1 DUP2 MSTORE PUSH1 0x8 PUSH1 0x20 SWAP1 DUP2 MSTORE PUSH1 0x40 DUP1 DUP4 KECCAK256 DUP1 SLOAD DUP3 MLOAD DUP2 DUP6 MUL DUP2 ADD DUP6 ADD SWAP1 SWAP4 MSTORE DUP1 DUP4 MSTORE DUP5 SWAP4 PUSH1 0x60 SWAP4 SWAP3 SWAP2 SWAP1 DUP4 ADD DUP3 DUP3 DUP1 ISZERO PUSH2 0x22FE JUMPI PUSH1 0x20 MUL DUP3 ADD SWAP2 SWAP1 PUSH1 0x0 MSTORE PUSH1 0x20 PUSH1 0x0 KECCAK256 SWAP1 JUMPDEST DUP2 SLOAD PUSH1 0x1 PUSH1 0x1 PUSH1 0xA0 SHL SUB AND DUP2 MSTORE PUSH1 0x1 SWAP1 SWAP2 ADD SWAP1 PUSH1 0x20 ADD DUP1 DUP4 GT PUSH2 0x22E0 JUMPI JUMPDEST POP SWAP4 SWAP5 POP PUSH1 0x0 SWAP4 POP POP POP POP JUMPDEST DUP2 MLOAD DUP2 LT ISZERO PUSH2 0x265A JUMPI PUSH1 0x0 DUP3 DUP3 DUP2 MLOAD DUP2 LT PUSH2 0x2321 JUMPI INVALID JUMPDEST PUSH1 0x20 MUL PUSH1 0x20 ADD ADD MLOAD SWAP1 POP DUP1 PUSH1 0x1 PUSH1 0x1 PUSH1 0xA0 SHL SUB AND PUSH4 0xC37F68E2 DUP15 PUSH1 0x40 MLOAD DUP3 PUSH4 0xFFFFFFFF AND PUSH1 0xE0 SHL DUP2 MSTORE PUSH1 0x4 ADD DUP1 DUP3 PUSH1 0x1 PUSH1 0x1 PUSH1 0xA0 SHL SUB AND PUSH1 0x1 PUSH1 0x1 PUSH1 0xA0 SHL SUB AND DUP2 MSTORE PUSH1 0x20 ADD SWAP2 POP POP PUSH1 0x80 PUSH1 0x40 MLOAD DUP1 DUP4 SUB DUP2 DUP7 DUP1 EXTCODESIZE ISZERO DUP1 ISZERO PUSH2 0x2381 JUMPI PUSH1 0x0 DUP1 REVERT JUMPDEST POP GAS STATICCALL ISZERO DUP1 ISZERO PUSH2 0x2395 JUMPI RETURNDATASIZE PUSH1 0x0 DUP1 RETURNDATACOPY RETURNDATASIZE PUSH1 0x0 REVERT JUMPDEST POP POP POP POP PUSH1 0x40 MLOAD RETURNDATASIZE PUSH1 0x80 DUP2 LT ISZERO PUSH2 0x23AB JUMPI PUSH1 0x0 DUP1 REVERT JUMPDEST POP DUP1 MLOAD PUSH1 0x20 DUP3 ADD MLOAD PUSH1 0x40 DUP1 DUP5 ADD MLOAD PUSH1 0x60 SWAP5 DUP6 ADD MLOAD PUSH1 0x80 DUP13 ADD MSTORE SWAP4 DUP11 ADD SWAP4 SWAP1 SWAP4 MSTORE SWAP2 DUP9 ADD SWAP2 SWAP1 SWAP2 MSTORE SWAP5 POP DUP5 ISZERO PUSH2 0x23F1 JUMPI POP PUSH1 0xF SWAP8 POP PUSH1 0x0 SWAP7 POP DUP7 SWAP6 POP PUSH2 0x269F SWAP5 POP POP POP POP POP JUMP JUMPDEST PUSH1 0x40 DUP1 MLOAD PUSH1 0x20 DUP1 DUP3 ADD DUP4 MSTORE PUSH1 0x1 PUSH1 0x1 PUSH1 0xA0 SHL SUB DUP1 DUP6 AND PUSH1 0x0 DUP2 DUP2 MSTORE PUSH1 0x9 DUP5 MSTORE DUP6 SWAP1 KECCAK256 PUSH1 0x1 ADD SLOAD DUP5 MSTORE PUSH1 0xC0 DUP12 ADD SWAP4 SWAP1 SWAP4 MSTORE DUP4 MLOAD DUP1 DUP4 ADD DUP6 MSTORE PUSH1 0x80 DUP12 ADD MLOAD DUP2 MSTORE PUSH1 0xE0 DUP12 ADD MSTORE PUSH1 0x4 DUP1 SLOAD DUP6 MLOAD PUSH4 0xFC57D4DF PUSH1 0xE0 SHL DUP2 MSTORE SWAP2 DUP3 ADD SWAP5 SWAP1 SWAP5 MSTORE SWAP4 MLOAD SWAP3 AND SWAP3 PUSH4 0xFC57D4DF SWAP3 PUSH1 0x24 DUP1 DUP4 ADD SWAP4 SWAP3 DUP3 SWAP1 SUB ADD DUP2 DUP7 DUP1 EXTCODESIZE ISZERO DUP1 ISZERO PUSH2 0x2471 JUMPI PUSH1 0x0 DUP1 REVERT JUMPDEST POP GAS STATICCALL ISZERO DUP1 ISZERO PUSH2 0x2485 JUMPI RETURNDATASIZE PUSH1 0x0 DUP1 RETURNDATACOPY RETURNDATASIZE PUSH1 0x0 REVERT JUMPDEST POP POP POP POP PUSH1 0x40 MLOAD RETURNDATASIZE PUSH1 0x20 DUP2 LT ISZERO PUSH2 0x249B JUMPI PUSH1 0x0 DUP1 REVERT JUMPDEST POP MLOAD PUSH1 0xA0 DUP8 ADD DUP2 SWAP1 MSTORE PUSH2 0x24BF JUMPI POP PUSH1 0xD SWAP8 POP PUSH1 0x0 SWAP7 POP DUP7 SWAP6 POP PUSH2 0x269F SWAP5 POP POP POP POP POP JUMP JUMPDEST PUSH1 0x40 DUP1 MLOAD PUSH1 0x20 DUP2 ADD SWAP1 SWAP2 MSTORE PUSH1 0xA0 DUP8 ADD MLOAD DUP2 MSTORE PUSH2 0x100 DUP8 ADD DUP2 SWAP1 MSTORE PUSH1 0xC0 DUP8 ADD MLOAD PUSH1 0xE0 DUP9 ADD MLOAD PUSH2 0x24EC SWAP3 PUSH2 0x2845 JUMP JUMPDEST PUSH2 0x120 DUP9 ADD MSTORE SWAP4 POP PUSH1 0x0 DUP5 PUSH1 0x3 DUP2 GT ISZERO PUSH2 0x2502 JUMPI INVALID JUMPDEST EQ PUSH2 0x251E JUMPI POP PUSH1 0xB SWAP8 POP PUSH1 0x0 SWAP7 POP DUP7 SWAP6 POP PUSH2 0x269F SWAP5 POP POP POP POP POP JUMP JUMPDEST PUSH2 0x2536 DUP7 PUSH2 0x120 ADD MLOAD DUP8 PUSH1 0x40 ADD MLOAD DUP9 PUSH1 0x0 ADD MLOAD PUSH2 0x289D JUMP JUMPDEST DUP8 MSTORE SWAP4 POP PUSH1 0x0 DUP5 PUSH1 0x3 DUP2 GT ISZERO PUSH2 0x2548 JUMPI INVALID JUMPDEST EQ PUSH2 0x2564 JUMPI POP PUSH1 0xB SWAP8 POP PUSH1 0x0 SWAP7 POP DUP7 SWAP6 POP PUSH2 0x269F SWAP5 POP POP POP POP POP JUMP JUMPDEST PUSH2 0x257C DUP7 PUSH2 0x100 ADD MLOAD DUP8 PUSH1 0x60 ADD MLOAD DUP9 PUSH1 0x20 ADD MLOAD PUSH2 0x289D JUMP JUMPDEST PUSH1 0x20 DUP9 ADD MSTORE SWAP4 POP PUSH1 0x0 DUP5 PUSH1 0x3 DUP2 GT ISZERO PUSH2 0x2591 JUMPI INVALID JUMPDEST EQ PUSH2 0x25AD JUMPI POP PUSH1 0xB SWAP8 POP PUSH1 0x0 SWAP7 POP DUP7 SWAP6 POP PUSH2 0x269F SWAP5 POP POP POP POP POP JUMP JUMPDEST DUP12 PUSH1 0x1 PUSH1 0x1 PUSH1 0xA0 SHL SUB AND DUP2 PUSH1 0x1 PUSH1 0x1 PUSH1 0xA0 SHL SUB AND EQ ISZERO PUSH2 0x2651 JUMPI PUSH2 0x25DB DUP7 PUSH2 0x120 ADD MLOAD DUP13 DUP9 PUSH1 0x20 ADD MLOAD PUSH2 0x289D JUMP JUMPDEST PUSH1 0x20 DUP9 ADD MSTORE SWAP4 POP PUSH1 0x0 DUP5 PUSH1 0x3 DUP2 GT ISZERO PUSH2 0x25F0 JUMPI INVALID JUMPDEST EQ PUSH2 0x260C JUMPI POP PUSH1 0xB SWAP8 POP PUSH1 0x0 SWAP7 POP DUP7 SWAP6 POP PUSH2 0x269F SWAP5 POP POP POP POP POP JUMP JUMPDEST PUSH2 0x2620 DUP7 PUSH2 0x100 ADD MLOAD DUP12 DUP9 PUSH1 0x20 ADD MLOAD PUSH2 0x289D JUMP JUMPDEST PUSH1 0x20 DUP9 ADD MSTORE SWAP4 POP PUSH1 0x0 DUP5 PUSH1 0x3 DUP2 GT ISZERO PUSH2 0x2635 JUMPI INVALID JUMPDEST EQ PUSH2 0x2651 JUMPI POP PUSH1 0xB SWAP8 POP PUSH1 0x0 SWAP7 POP DUP7 SWAP6 POP PUSH2 0x269F SWAP5 POP POP POP POP POP JUMP JUMPDEST POP PUSH1 0x1 ADD PUSH2 0x230A JUMP JUMPDEST POP PUSH1 0x20 DUP5 ADD MLOAD DUP5 MLOAD GT ISZERO PUSH2 0x2681 JUMPI POP POP POP PUSH1 0x20 DUP2 ADD MLOAD SWAP1 MLOAD PUSH1 0x0 SWAP5 POP SUB SWAP2 POP DUP3 SWAP1 POP PUSH2 0x269F JUMP JUMPDEST POP POP DUP2 MLOAD PUSH1 0x20 SWAP1 SWAP3 ADD MLOAD PUSH1 0x0 SWAP6 POP DUP6 SWAP5 POP SWAP2 SWAP1 SWAP2 SUB SWAP2 POP PUSH2 0x269F SWAP1 POP JUMP JUMPDEST SWAP5 POP SWAP5 POP SWAP5 SWAP2 POP POP JUMP JUMPDEST PUSH1 0x0 DUP1 PUSH1 0x0 PUSH2 0x26BC DUP5 PUSH1 0x0 DUP1 PUSH1 0x0 PUSH2 0x2284 JUMP JUMPDEST SWAP3 POP SWAP3 POP SWAP3 POP SWAP2 SWAP4 SWAP1 SWAP3 POP JUMP JUMPDEST PUSH1 0x0 DUP1 PUSH1 0x0 PUSH2 0x26D6 PUSH2 0x2B8A JUMP JUMPDEST PUSH2 0x26E0 DUP7 DUP7 PUSH2 0x28EA JUMP JUMPDEST SWAP1 SWAP3 POP SWAP1 POP PUSH1 0x0 DUP3 PUSH1 0x3 DUP2 GT ISZERO PUSH2 0x26F3 JUMPI INVALID JUMPDEST EQ PUSH2 0x2704 JUMPI POP SWAP2 POP PUSH1 0x0 SWAP1 POP PUSH2 0x2716 JUMP JUMPDEST PUSH1 0x0 PUSH2 0x270F DUP3 PUSH2 0x2952 JUMP JUMPDEST SWAP4 POP SWAP4 POP POP POP JUMPDEST SWAP3 POP SWAP3 SWAP1 POP JUMP JUMPDEST PUSH1 0x1 PUSH1 0x1 PUSH1 0xA0 SHL SUB DUP4 AND PUSH1 0x0 SWAP1 DUP2 MSTORE PUSH1 0x9 PUSH1 0x20 MSTORE PUSH1 0x40 DUP2 KECCAK256 SLOAD PUSH1 0xFF AND PUSH2 0x2744 JUMPI PUSH1 0x9 PUSH2 0xFD1 JUMP JUMPDEST PUSH1 0x1 PUSH1 0x1 PUSH1 0xA0 SHL SUB DUP1 DUP6 AND PUSH1 0x0 SWAP1 DUP2 MSTORE PUSH1 0x9 PUSH1 0x20 SWAP1 DUP2 MSTORE PUSH1 0x40 DUP1 DUP4 KECCAK256 SWAP4 DUP8 AND DUP4 MSTORE PUSH1 0x2 SWAP1 SWAP4 ADD SWAP1 MSTORE KECCAK256 SLOAD PUSH1 0xFF AND PUSH2 0x277C JUMPI PUSH1 0x0 PUSH2 0xFD1 JUMP JUMPDEST PUSH1 0x0 DUP1 PUSH2 0x1C5E DUP6 DUP8 DUP7 PUSH1 0x0 PUSH2 0x2284 JUMP JUMPDEST PUSH1 0x0 PUSH2 0x2796 PUSH2 0x2B8A JUMP JUMPDEST PUSH2 0x27BC PUSH1 0x40 MLOAD DUP1 PUSH1 0x20 ADD PUSH1 0x40 MSTORE DUP1 DUP7 DUP2 MSTORE POP PUSH1 0x40 MLOAD DUP1 PUSH1 0x20 ADD PUSH1 0x40 MSTORE DUP1 DUP7 DUP2 MSTORE POP PUSH2 0x2961 JUMP JUMPDEST SWAP2 POP SWAP2 POP SWAP3 POP SWAP3 SWAP1 POP JUMP JUMPDEST PUSH1 0x0 PUSH2 0x27D1 PUSH2 0x2B8A JUMP JUMPDEST DUP4 MLOAD DUP4 MLOAD PUSH2 0x27BC SWAP2 SWAP1 PUSH2 0x2A4A JUMP JUMPDEST PUSH1 0x0 PUSH32 0x45B96FE442630264581B197E84BBADA861235052C5A1AADFFF9EA4E40A969AA0 DUP5 PUSH1 0x11 DUP2 GT ISZERO PUSH2 0x280E JUMPI INVALID JUMPDEST DUP5 PUSH1 0x13 DUP2 GT ISZERO PUSH2 0x281A JUMPI INVALID JUMPDEST PUSH1 0x40 DUP1 MLOAD SWAP3 DUP4 MSTORE PUSH1 0x20 DUP4 ADD SWAP2 SWAP1 SWAP2 MSTORE DUP2 DUP2 ADD DUP6 SWAP1 MSTORE MLOAD SWAP1 DUP2 SWAP1 SUB PUSH1 0x60 ADD SWAP1 LOG1 DUP4 PUSH1 0x11 DUP2 GT ISZERO PUSH2 0xFDB JUMPI INVALID JUMPDEST PUSH1 0x0 PUSH2 0x284F PUSH2 0x2B8A JUMP JUMPDEST PUSH1 0x0 PUSH2 0x2859 PUSH2 0x2B8A JUMP JUMPDEST PUSH2 0x2863 DUP8 DUP8 PUSH2 0x2961 JUMP JUMPDEST SWAP1 SWAP3 POP SWAP1 POP PUSH1 0x0 DUP3 PUSH1 0x3 DUP2 GT ISZERO PUSH2 0x2876 JUMPI INVALID JUMPDEST EQ PUSH2 0x2885 JUMPI SWAP1 SWAP3 POP SWAP1 POP PUSH2 0x19B8 JUMP JUMPDEST PUSH2 0x288F DUP2 DUP7 PUSH2 0x2961 JUMP JUMPDEST SWAP4 POP SWAP4 POP POP POP SWAP4 POP SWAP4 SWAP2 POP POP JUMP JUMPDEST PUSH1 0x0 DUP1 PUSH1 0x0 PUSH2 0x28AA PUSH2 0x2B8A JUMP JUMPDEST PUSH2 0x28B4 DUP8 DUP8 PUSH2 0x28EA JUMP JUMPDEST SWAP1 SWAP3 POP SWAP1 POP PUSH1 0x0 DUP3 PUSH1 0x3 DUP2 GT ISZERO PUSH2 0x28C7 JUMPI INVALID JUMPDEST EQ PUSH2 0x28D8 JUMPI POP SWAP2 POP PUSH1 0x0 SWAP1 POP PUSH2 0x19B8 JUMP JUMPDEST PUSH2 0x288F PUSH2 0x28E4 DUP3 PUSH2 0x2952 JUMP JUMPDEST DUP7 PUSH2 0x2AFA JUMP JUMPDEST PUSH1 0x0 PUSH2 0x28F4 PUSH2 0x2B8A JUMP JUMPDEST PUSH1 0x0 DUP1 PUSH2 0x2905 DUP7 PUSH1 0x0 ADD MLOAD DUP7 PUSH2 0x2B20 JUMP JUMPDEST SWAP1 SWAP3 POP SWAP1 POP PUSH1 0x0 DUP3 PUSH1 0x3 DUP2 GT ISZERO PUSH2 0x2918 JUMPI INVALID JUMPDEST EQ PUSH2 0x2937 JUMPI POP PUSH1 0x40 DUP1 MLOAD PUSH1 0x20 DUP2 ADD SWAP1 SWAP2 MSTORE PUSH1 0x0 DUP2 MSTORE SWAP1 SWAP3 POP SWAP1 POP PUSH2 0x2716 JUMP JUMPDEST PUSH1 0x40 DUP1 MLOAD PUSH1 0x20 DUP2 ADD SWAP1 SWAP2 MSTORE SWAP1 DUP2 MSTORE PUSH1 0x0 SWAP7 SWAP1 SWAP6 POP SWAP4 POP POP POP POP JUMP JUMPDEST MLOAD PUSH8 0xDE0B6B3A7640000 SWAP1 DIV SWAP1 JUMP JUMPDEST PUSH1 0x0 PUSH2 0x296B PUSH2 0x2B8A JUMP JUMPDEST PUSH1 0x0 DUP1 PUSH2 0x2980 DUP7 PUSH1 0x0 ADD MLOAD DUP7 PUSH1 0x0 ADD MLOAD PUSH2 0x2B20 JUMP JUMPDEST SWAP1 SWAP3 POP SWAP1 POP PUSH1 0x0 DUP3 PUSH1 0x3 DUP2 GT ISZERO PUSH2 0x2993 JUMPI INVALID JUMPDEST EQ PUSH2 0x29B2 JUMPI POP PUSH1 0x40 DUP1 MLOAD PUSH1 0x20 DUP2 ADD SWAP1 SWAP2 MSTORE PUSH1 0x0 DUP2 MSTORE SWAP1 SWAP3 POP SWAP1 POP PUSH2 0x2716 JUMP JUMPDEST PUSH1 0x0 DUP1 PUSH2 0x29C7 PUSH8 0x6F05B59D3B20000 DUP5 PUSH2 0x2AFA JUMP JUMPDEST SWAP1 SWAP3 POP SWAP1 POP PUSH1 0x0 DUP3 PUSH1 0x3 DUP2 GT ISZERO PUSH2 0x29DA JUMPI INVALID JUMPDEST EQ PUSH2 0x29FC JUMPI POP PUSH1 0x40 DUP1 MLOAD PUSH1 0x20 DUP2 ADD SWAP1 SWAP2 MSTORE PUSH1 0x0 DUP2 MSTORE SWAP1 SWAP5 POP SWAP3 POP PUSH2 0x2716 SWAP2 POP POP JUMP JUMPDEST PUSH1 0x0 DUP1 PUSH2 0x2A11 DUP4 PUSH8 0xDE0B6B3A7640000 PUSH2 0x2B5F JUMP JUMPDEST SWAP1 SWAP3 POP SWAP1 POP PUSH1 0x0 DUP3 PUSH1 0x3 DUP2 GT ISZERO PUSH2 0x2A24 JUMPI INVALID JUMPDEST EQ PUSH2 0x2A2B JUMPI INVALID JUMPDEST PUSH1 0x40 DUP1 MLOAD PUSH1 0x20 DUP2 ADD SWAP1 SWAP2 MSTORE SWAP1 DUP2 MSTORE PUSH1 0x0 SWAP11 SWAP1 SWAP10 POP SWAP8 POP POP POP POP POP POP POP POP JUMP JUMPDEST PUSH1 0x0 PUSH2 0x2A54 PUSH2 0x2B8A JUMP JUMPDEST PUSH1 0x0 DUP1 PUSH2 0x2A69 DUP7 PUSH8 0xDE0B6B3A7640000 PUSH2 0x2B20 JUMP JUMPDEST SWAP1 SWAP3 POP SWAP1 POP PUSH1 0x0 DUP3 PUSH1 0x3 DUP2 GT ISZERO PUSH2 0x2A7C JUMPI INVALID JUMPDEST EQ PUSH2 0x2A9B JUMPI POP PUSH1 0x40 DUP1 MLOAD PUSH1 0x20 DUP2 ADD SWAP1 SWAP2 MSTORE PUSH1 0x0 DUP2 MSTORE SWAP1 SWAP3 POP SWAP1 POP PUSH2 0x2716 JUMP JUMPDEST PUSH1 0x0 DUP1 PUSH2 0x2AA8 DUP4 DUP9 PUSH2 0x2B5F JUMP JUMPDEST SWAP1 SWAP3 POP SWAP1 POP PUSH1 0x0 DUP3 PUSH1 0x3 DUP2 GT ISZERO PUSH2 0x2ABB JUMPI INVALID JUMPDEST EQ PUSH2 0x2ADD JUMPI POP PUSH1 0x40 DUP1 MLOAD PUSH1 0x20 DUP2 ADD SWAP1 SWAP2 MSTORE PUSH1 0x0 DUP2 MSTORE SWAP1 SWAP5 POP SWAP3 POP PUSH2 0x2716 SWAP2 POP POP JUMP JUMPDEST PUSH1 0x40 DUP1 MLOAD PUSH1 0x20 DUP2 ADD SWAP1 SWAP2 MSTORE SWAP1 DUP2 MSTORE PUSH1 0x0 SWAP9 SWAP1 SWAP8 POP SWAP6 POP POP POP POP POP POP JUMP JUMPDEST PUSH1 0x0 DUP1 DUP4 DUP4 ADD DUP5 DUP2 LT PUSH2 0x2B12 JUMPI PUSH1 0x0 SWAP3 POP SWAP1 POP PUSH2 0x2716 JUMP JUMPDEST POP PUSH1 0x2 SWAP2 POP PUSH1 0x0 SWAP1 POP PUSH2 0x2716 JUMP JUMPDEST PUSH1 0x0 DUP1 DUP4 PUSH2 0x2B33 JUMPI POP PUSH1 0x0 SWAP1 POP DUP1 PUSH2 0x2716 JUMP JUMPDEST DUP4 DUP4 MUL DUP4 DUP6 DUP3 DUP2 PUSH2 0x2B40 JUMPI INVALID JUMPDEST DIV EQ PUSH2 0x2B54 JUMPI POP PUSH1 0x2 SWAP2 POP PUSH1 0x0 SWAP1 POP PUSH2 0x2716 JUMP JUMPDEST PUSH1 0x0 SWAP3 POP SWAP1 POP PUSH2 0x2716 JUMP JUMPDEST PUSH1 0x0 DUP1 DUP3 PUSH2 0x2B73 JUMPI POP PUSH1 0x1 SWAP1 POP PUSH1 0x0 PUSH2 0x2716 JUMP JUMPDEST PUSH1 0x0 DUP4 DUP6 DUP2 PUSH2 0x2B7E JUMPI INVALID JUMPDEST DIV SWAP2 POP SWAP2 POP SWAP3 POP SWAP3 SWAP1 POP JUMP JUMPDEST PUSH1 0x40 MLOAD DUP1 PUSH1 0x20 ADD PUSH1 0x40 MSTORE DUP1 PUSH1 0x0 DUP2 MSTORE POP SWAP1 JUMP JUMPDEST DUP2 SLOAD DUP2 DUP4 SSTORE DUP2 DUP2 GT ISZERO PUSH2 0x11AA JUMPI PUSH1 0x0 DUP4 DUP2 MSTORE PUSH1 0x20 SWAP1 KECCAK256 PUSH2 0x11AA SWAP2 DUP2 ADD SWAP1 DUP4 ADD PUSH2 0x2C2B JUMP JUMPDEST PUSH1 0x40 MLOAD DUP1 PUSH2 0x140 ADD PUSH1 0x40 MSTORE DUP1 PUSH1 0x0 DUP2 MSTORE PUSH1 0x20 ADD PUSH1 0x0 DUP2 MSTORE PUSH1 0x20 ADD PUSH1 0x0 DUP2 MSTORE PUSH1 0x20 ADD PUSH1 0x0 DUP2 MSTORE PUSH1 0x20 ADD PUSH1 0x0 DUP2 MSTORE PUSH1 0x20 ADD PUSH1 0x0 DUP2 MSTORE PUSH1 0x20 ADD PUSH2 0x2BFF PUSH2 0x2B8A JUMP JUMPDEST DUP2 MSTORE PUSH1 0x20 ADD PUSH2 0x2C0C PUSH2 0x2B8A JUMP JUMPDEST DUP2 MSTORE PUSH1 0x20 ADD PUSH2 0x2C19 PUSH2 0x2B8A JUMP JUMPDEST DUP2 MSTORE PUSH1 0x20 ADD PUSH2 0x2C26 PUSH2 0x2B8A JUMP JUMPDEST SWAP1 MSTORE SWAP1 JUMP JUMPDEST PUSH2 0x220C SWAP2 SWAP1 JUMPDEST DUP1 DUP3 GT ISZERO PUSH2 0x2C45 JUMPI PUSH1 0x0 DUP2 SSTORE PUSH1 0x1 ADD PUSH2 0x2C31 JUMP JUMPDEST POP SWAP1 JUMP INVALID PUSH6 0x7869744D6172 PUSH12 0x65743A206765744163636F75 PUSH15 0x74536E617073686F74206661696C65 PUSH5 0x6F6E6C7920 PUSH22 0x6E6974726F6C6C65722061646D696E2063616E206368 PUSH2 0x6E67 PUSH6 0x20627261696E PUSH20 0xA265627A7A72315820DB7CAD8CFF03426DD66818 EQ DUP14 JUMPI CALLDATACOPY DUP10 SWAP7 0xAC 0xB3 CHAINID DUP5 PUSH30 0x1C21D13F5E8BFB27554664736F6C63430005110032000000000000000000 "
    }
  },
  "humanReadableAbi": [
    "constructor()",
    "event Failure(uint256 error, uint256 info, uint256 detail)",
    "event MarketEntered(address cToken, address account)",
    "event MarketExited(address cToken, address account)",
    "event MarketListed(address cToken)",
    "event NewCloseFactor(uint256 oldCloseFactorMantissa, uint256 newCloseFactorMantissa)",
    "event NewCollateralFactor(address cToken, uint256 oldCollateralFactorMantissa, uint256 newCollateralFactorMantissa)",
    "event NewLiquidationIncentive(uint256 oldLiquidationIncentiveMantissa, uint256 newLiquidationIncentiveMantissa)",
    "event NewMaxAssets(uint256 oldMaxAssets, uint256 newMaxAssets)",
    "event NewPriceOracle(address oldPriceOracle, address newPriceOracle)",
    "function _become(address unitroller, address _oracle, uint256 _closeFactorMantissa, uint256 _maxAssets, bool reinitializing)",
    "function _setCloseFactor(uint256 newCloseFactorMantissa) returns(uint256)",
    "function _setCollateralFactor(address cToken, uint256 newCollateralFactorMantissa) returns(uint256)",
    "function _setLiquidationIncentive(uint256 newLiquidationIncentiveMantissa) returns(uint256)",
    "function _setMaxAssets(uint256 newMaxAssets) returns(uint256)",
    "function _setPriceOracle(address newOracle) returns(uint256)",
    "function _supportMarket(address cToken) returns(uint256)",
    "function accountAssets(address, uint256) view returns(address)",
    "function admin() view returns(address)",
    "function borrowAllowed(address cToken, address borrower, uint256 borrowAmount) returns(uint256)",
    "function borrowVerify(address cToken, address borrower, uint256 borrowAmount)",
    "function checkMembership(address account, address cToken) view returns(bool)",
    "function closeFactorMantissa() view returns(uint256)",
    "function comptrollerImplementation() view returns(address)",
    "function enterMarkets(address[] cTokens) returns(uint256[])",
    "function exitMarket(address cTokenAddress) returns(uint256)",
    "function getAccountLiquidity(address account) view returns(uint256, uint256, uint256)",
    "function getAssetsIn(address account) view returns(address[])",
    "function isComptroller() view returns(bool)",
    "function liquidateBorrowAllowed(address cTokenBorrowed, address cTokenCollateral, address liquidator, address borrower, uint256 repayAmount) returns(uint256)",
    "function liquidateBorrowVerify(address cTokenBorrowed, address cTokenCollateral, address liquidator, address borrower, uint256 repayAmount, uint256 seizeTokens)",
    "function liquidateCalculateSeizeTokens(address cTokenBorrowed, address cTokenCollateral, uint256 repayAmount) view returns(uint256, uint256)",
    "function liquidationIncentiveMantissa() view returns(uint256)",
    "function markets(address) view returns(bool isListed, uint256 collateralFactorMantissa)",
    "function maxAssets() view returns(uint256)",
    "function mintAllowed(address cToken, address minter, uint256 mintAmount) returns(uint256)",
    "function mintVerify(address cToken, address minter, uint256 mintAmount, uint256 mintTokens)",
    "function oracle() view returns(address)",
    "function pendingAdmin() view returns(address)",
    "function pendingComptrollerImplementation() view returns(address)",
    "function redeemAllowed(address cToken, address redeemer, uint256 redeemTokens) returns(uint256)",
    "function redeemVerify(address cToken, address redeemer, uint256 redeemAmount, uint256 redeemTokens)",
    "function repayBorrowAllowed(address cToken, address payer, address borrower, uint256 repayAmount) returns(uint256)",
    "function repayBorrowVerify(address cToken, address payer, address borrower, uint256 repayAmount, uint256 borrowerIndex)",
    "function seizeAllowed(address cTokenCollateral, address cTokenBorrowed, address liquidator, address borrower, uint256 seizeTokens) returns(uint256)",
    "function seizeVerify(address cTokenCollateral, address cTokenBorrowed, address liquidator, address borrower, uint256 seizeTokens)",
    "function transferAllowed(address cToken, address src, address dst, uint256 transferTokens) returns(uint256)",
    "function transferVerify(address cToken, address src, address dst, uint256 transferTokens)"
  ]
}