{
  "abi": [
    {
      "inputs": [],
      "payable": false,
      "stateMutability": "nonpayable",
      "type": "constructor"
    },
    {
      "anonymous": false,
      "inputs": [
        {
          "indexed": false,
          "internalType": "string",
          "name": "action",
          "type": "string"
        },
        {
          "indexed": false,
          "internalType": "bool",
          "name": "pauseState",
          "type": "bool"
        }
      ],
      "name": "ActionPaused",
      "type": "event"
    },
    {
      "anonymous": false,
      "inputs": [
        {
          "indexed": false,
          "internalType": "contract CToken",
          "name": "cToken",
          "type": "address"
        },
        {
          "indexed": false,
          "internalType": "string",
          "name": "action",
          "type": "string"
        },
        {
          "indexed": false,
          "internalType": "bool",
          "name": "pauseState",
          "type": "bool"
        }
      ],
      "name": "ActionPaused",
      "type": "event"
    },
    {
      "anonymous": false,
      "inputs": [
        {
          "indexed": true,
          "internalType": "contract CToken",
          "name": "cToken",
          "type": "address"
        },
        {
          "indexed": false,
          "internalType": "uint256",
          "name": "newSpeed",
          "type": "uint256"
        }
      ],
      "name": "CompSpeedUpdated",
      "type": "event"
    },
    {
      "anonymous": false,
      "inputs": [
        {
          "indexed": true,
          "internalType": "contract CToken",
          "name": "cToken",
          "type": "address"
        },
        {
          "indexed": true,
          "internalType": "address",
          "name": "borrower",
          "type": "address"
        },
        {
          "indexed": false,
          "internalType": "uint256",
          "name": "compDelta",
          "type": "uint256"
        },
        {
          "indexed": false,
          "internalType": "uint256",
          "name": "compBorrowIndex",
          "type": "uint256"
        }
      ],
      "name": "DistributedBorrowerComp",
      "type": "event"
    },
    {
      "anonymous": false,
      "inputs": [
        {
          "indexed": true,
          "internalType": "contract CToken",
          "name": "cToken",
          "type": "address"
        },
        {
          "indexed": true,
          "internalType": "address",
          "name": "supplier",
          "type": "address"
        },
        {
          "indexed": false,
          "internalType": "uint256",
          "name": "compDelta",
          "type": "uint256"
        },
        {
          "indexed": false,
          "internalType": "uint256",
          "name": "compSupplyIndex",
          "type": "uint256"
        }
      ],
      "name": "DistributedSupplierComp",
      "type": "event"
    },
    {
      "anonymous": false,
      "inputs": [
        {
          "indexed": false,
          "internalType": "uint256",
          "name": "error",
          "type": "uint256"
        },
        {
          "indexed": false,
          "internalType": "uint256",
          "name": "info",
          "type": "uint256"
        },
        {
          "indexed": false,
          "internalType": "uint256",
          "name": "detail",
          "type": "uint256"
        }
      ],
      "name": "Failure",
      "type": "event"
    },
    {
      "anonymous": false,
      "inputs": [
        {
          "indexed": false,
          "internalType": "contract CToken",
          "name": "cToken",
          "type": "address"
        },
        {
          "indexed": false,
          "internalType": "bool",
          "name": "isComped",
          "type": "bool"
        }
      ],
      "name": "MarketComped",
      "type": "event"
    },
    {
      "anonymous": false,
      "inputs": [
        {
          "indexed": false,
          "internalType": "contract CToken",
          "name": "cToken",
          "type": "address"
        },
        {
          "indexed": false,
          "internalType": "address",
          "name": "account",
          "type": "address"
        }
      ],
      "name": "MarketEntered",
      "type": "event"
    },
    {
      "anonymous": false,
      "inputs": [
        {
          "indexed": false,
          "internalType": "contract CToken",
          "name": "cToken",
          "type": "address"
        },
        {
          "indexed": false,
          "internalType": "address",
          "name": "account",
          "type": "address"
        }
      ],
      "name": "MarketExited",
      "type": "event"
    },
    {
      "anonymous": false,
      "inputs": [
        {
          "indexed": false,
          "internalType": "contract CToken",
          "name": "cToken",
          "type": "address"
        }
      ],
      "name": "MarketListed",
      "type": "event"
    },
    {
      "anonymous": false,
      "inputs": [
        {
          "indexed": true,
          "internalType": "contract CToken",
          "name": "cToken",
          "type": "address"
        },
        {
          "indexed": false,
          "internalType": "uint256",
          "name": "newBorrowCap",
          "type": "uint256"
        }
      ],
      "name": "NewBorrowCap",
      "type": "event"
    },
    {
      "anonymous": false,
      "inputs": [
        {
          "indexed": false,
          "internalType": "address",
          "name": "oldBorrowCapGuardian",
          "type": "address"
        },
        {
          "indexed": false,
          "internalType": "address",
          "name": "newBorrowCapGuardian",
          "type": "address"
        }
      ],
      "name": "NewBorrowCapGuardian",
      "type": "event"
    },
    {
      "anonymous": false,
      "inputs": [
        {
          "indexed": false,
          "internalType": "uint256",
          "name": "oldCloseFactorMantissa",
          "type": "uint256"
        },
        {
          "indexed": false,
          "internalType": "uint256",
          "name": "newCloseFactorMantissa",
          "type": "uint256"
        }
      ],
      "name": "NewCloseFactor",
      "type": "event"
    },
    {
      "anonymous": false,
      "inputs": [
        {
          "indexed": false,
          "internalType": "contract CToken",
          "name": "cToken",
          "type": "address"
        },
        {
          "indexed": false,
          "internalType": "uint256",
          "name": "oldCollateralFactorMantissa",
          "type": "uint256"
        },
        {
          "indexed": false,
          "internalType": "uint256",
          "name": "newCollateralFactorMantissa",
          "type": "uint256"
        }
      ],
      "name": "NewCollateralFactor",
      "type": "event"
    },
    {
      "anonymous": false,
      "inputs": [
        {
          "indexed": false,
          "internalType": "uint256",
          "name": "oldCompRate",
          "type": "uint256"
        },
        {
          "indexed": false,
          "internalType": "uint256",
          "name": "newCompRate",
          "type": "uint256"
        }
      ],
      "name": "NewCompRate",
      "type": "event"
    },
    {
      "anonymous": false,
      "inputs": [
        {
          "indexed": false,
          "internalType": "uint256",
          "name": "oldLiquidationIncentiveMantissa",
          "type": "uint256"
        },
        {
          "indexed": false,
          "internalType": "uint256",
          "name": "newLiquidationIncentiveMantissa",
          "type": "uint256"
        }
      ],
      "name": "NewLiquidationIncentive",
      "type": "event"
    },
    {
      "anonymous": false,
      "inputs": [
        {
          "indexed": false,
          "internalType": "uint256",
          "name": "oldMaxAssets",
          "type": "uint256"
        },
        {
          "indexed": false,
          "internalType": "uint256",
          "name": "newMaxAssets",
          "type": "uint256"
        }
      ],
      "name": "NewMaxAssets",
      "type": "event"
    },
    {
      "anonymous": false,
      "inputs": [
        {
          "indexed": false,
          "internalType": "address",
          "name": "oldPauseGuardian",
          "type": "address"
        },
        {
          "indexed": false,
          "internalType": "address",
          "name": "newPauseGuardian",
          "type": "address"
        }
      ],
      "name": "NewPauseGuardian",
      "type": "event"
    },
    {
      "anonymous": false,
      "inputs": [
        {
          "indexed": false,
          "internalType": "contract PriceOracle",
          "name": "oldPriceOracle",
          "type": "address"
        },
        {
          "indexed": false,
          "internalType": "contract PriceOracle",
          "name": "newPriceOracle",
          "type": "address"
        }
      ],
      "name": "NewPriceOracle",
      "type": "event"
    },
    {
      "constant": false,
      "inputs": [
        {
          "internalType": "address[]",
          "name": "cTokens",
          "type": "address[]"
        }
      ],
      "name": "_addCompMarkets",
      "outputs": [],
      "payable": false,
      "stateMutability": "nonpayable",
      "type": "function"
    },
    {
      "constant": false,
      "inputs": [
        {
          "internalType": "contract Unitroller",
          "name": "unitroller",
          "type": "address"
        }
      ],
      "name": "_become",
      "outputs": [],
      "payable": false,
      "stateMutability": "nonpayable",
      "type": "function"
    },
    {
      "constant": true,
      "inputs": [],
      "name": "_borrowGuardianPaused",
      "outputs": [
        {
          "internalType": "bool",
          "name": "",
          "type": "bool"
        }
      ],
      "payable": false,
      "stateMutability": "view",
      "type": "function"
    },
    {
      "constant": false,
      "inputs": [
        {
          "internalType": "address",
          "name": "cToken",
          "type": "address"
        }
      ],
      "name": "_dropCompMarket",
      "outputs": [],
      "payable": false,
      "stateMutability": "nonpayable",
      "type": "function"
    },
    {
      "constant": true,
      "inputs": [],
      "name": "_mintGuardianPaused",
      "outputs": [
        {
          "internalType": "bool",
          "name": "",
          "type": "bool"
        }
      ],
      "payable": false,
      "stateMutability": "view",
      "type": "function"
    },
    {
      "constant": false,
      "inputs": [
        {
          "internalType": "address",
          "name": "newBorrowCapGuardian",
          "type": "address"
        }
      ],
      "name": "_setBorrowCapGuardian",
      "outputs": [],
      "payable": false,
      "stateMutability": "nonpayable",
      "type": "function"
    },
    {
      "constant": false,
      "inputs": [
        {
          "internalType": "contract CToken",
          "name": "cToken",
          "type": "address"
        },
        {
          "internalType": "bool",
          "name": "state",
          "type": "bool"
        }
      ],
      "name": "_setBorrowPaused",
      "outputs": [
        {
          "internalType": "bool",
          "name": "",
          "type": "bool"
        }
      ],
      "payable": false,
      "stateMutability": "nonpayable",
      "type": "function"
    },
    {
      "constant": false,
      "inputs": [
        {
          "internalType": "uint256",
          "name": "newCloseFactorMantissa",
          "type": "uint256"
        }
      ],
      "name": "_setCloseFactor",
      "outputs": [
        {
          "internalType": "uint256",
          "name": "",
          "type": "uint256"
        }
      ],
      "payable": false,
      "stateMutability": "nonpayable",
      "type": "function"
    },
    {
      "constant": false,
      "inputs": [
        {
          "internalType": "contract CToken",
          "name": "cToken",
          "type": "address"
        },
        {
          "internalType": "uint256",
          "name": "newCollateralFactorMantissa",
          "type": "uint256"
        }
      ],
      "name": "_setCollateralFactor",
      "outputs": [
        {
          "internalType": "uint256",
          "name": "",
          "type": "uint256"
        }
      ],
      "payable": false,
      "stateMutability": "nonpayable",
      "type": "function"
    },
    {
      "constant": false,
      "inputs": [
        {
          "internalType": "uint256",
          "name": "compRate_",
          "type": "uint256"
        }
      ],
      "name": "_setCompRate",
      "outputs": [],
      "payable": false,
      "stateMutability": "nonpayable",
      "type": "function"
    },
    {
      "constant": false,
      "inputs": [
        {
          "internalType": "uint256",
          "name": "newLiquidationIncentiveMantissa",
          "type": "uint256"
        }
      ],
      "name": "_setLiquidationIncentive",
      "outputs": [
        {
          "internalType": "uint256",
          "name": "",
          "type": "uint256"
        }
      ],
      "payable": false,
      "stateMutability": "nonpayable",
      "type": "function"
    },
    {
      "constant": false,
      "inputs": [
        {
          "internalType": "contract CToken[]",
          "name": "cTokens",
          "type": "address[]"
        },
        {
          "internalType": "uint256[]",
          "name": "newBorrowCaps",
          "type": "uint256[]"
        }
      ],
      "name": "_setMarketBorrowCaps",
      "outputs": [],
      "payable": false,
      "stateMutability": "nonpayable",
      "type": "function"
    },
    {
      "constant": false,
      "inputs": [
        {
          "internalType": "uint256",
          "name": "newMaxAssets",
          "type": "uint256"
        }
      ],
      "name": "_setMaxAssets",
      "outputs": [
        {
          "internalType": "uint256",
          "name": "",
          "type": "uint256"
        }
      ],
      "payable": false,
      "stateMutability": "nonpayable",
      "type": "function"
    },
    {
      "constant": false,
      "inputs": [
        {
          "internalType": "contract CToken",
          "name": "cToken",
          "type": "address"
        },
        {
          "internalType": "bool",
          "name": "state",
          "type": "bool"
        }
      ],
      "name": "_setMintPaused",
      "outputs": [
        {
          "internalType": "bool",
          "name": "",
          "type": "bool"
        }
      ],
      "payable": false,
      "stateMutability": "nonpayable",
      "type": "function"
    },
    {
      "constant": false,
      "inputs": [
        {
          "internalType": "address",
          "name": "newPauseGuardian",
          "type": "address"
        }
      ],
      "name": "_setPauseGuardian",
      "outputs": [
        {
          "internalType": "uint256",
          "name": "",
          "type": "uint256"
        }
      ],
      "payable": false,
      "stateMutability": "nonpayable",
      "type": "function"
    },
    {
      "constant": false,
      "inputs": [
        {
          "internalType": "contract PriceOracle",
          "name": "newOracle",
          "type": "address"
        }
      ],
      "name": "_setPriceOracle",
      "outputs": [
        {
          "internalType": "uint256",
          "name": "",
          "type": "uint256"
        }
      ],
      "payable": false,
      "stateMutability": "nonpayable",
      "type": "function"
    },
    {
      "constant": false,
      "inputs": [
        {
          "internalType": "bool",
          "name": "state",
          "type": "bool"
        }
      ],
      "name": "_setSeizePaused",
      "outputs": [
        {
          "internalType": "bool",
          "name": "",
          "type": "bool"
        }
      ],
      "payable": false,
      "stateMutability": "nonpayable",
      "type": "function"
    },
    {
      "constant": false,
      "inputs": [
        {
          "internalType": "bool",
          "name": "state",
          "type": "bool"
        }
      ],
      "name": "_setTransferPaused",
      "outputs": [
        {
          "internalType": "bool",
          "name": "",
          "type": "bool"
        }
      ],
      "payable": false,
      "stateMutability": "nonpayable",
      "type": "function"
    },
    {
      "constant": false,
      "inputs": [
        {
          "internalType": "contract CToken",
          "name": "cToken",
          "type": "address"
        }
      ],
      "name": "_supportMarket",
      "outputs": [
        {
          "internalType": "uint256",
          "name": "",
          "type": "uint256"
        }
      ],
      "payable": false,
      "stateMutability": "nonpayable",
      "type": "function"
    },
    {
      "constant": true,
      "inputs": [
        {
          "internalType": "address",
          "name": "",
          "type": "address"
        },
        {
          "internalType": "uint256",
          "name": "",
          "type": "uint256"
        }
      ],
      "name": "accountAssets",
      "outputs": [
        {
          "internalType": "contract CToken",
          "name": "",
          "type": "address"
        }
      ],
      "payable": false,
      "stateMutability": "view",
      "type": "function"
    },
    {
      "constant": true,
      "inputs": [],
      "name": "admin",
      "outputs": [
        {
          "internalType": "address",
          "name": "",
          "type": "address"
        }
      ],
      "payable": false,
      "stateMutability": "view",
      "type": "function"
    },
    {
      "constant": true,
      "inputs": [
        {
          "internalType": "uint256",
          "name": "",
          "type": "uint256"
        }
      ],
      "name": "allMarkets",
      "outputs": [
        {
          "internalType": "contract CToken",
          "name": "",
          "type": "address"
        }
      ],
      "payable": false,
      "stateMutability": "view",
      "type": "function"
    },
    {
      "constant": false,
      "inputs": [
        {
          "internalType": "address",
          "name": "cToken",
          "type": "address"
        },
        {
          "internalType": "address",
          "name": "borrower",
          "type": "address"
        },
        {
          "internalType": "uint256",
          "name": "borrowAmount",
          "type": "uint256"
        }
      ],
      "name": "borrowAllowed",
      "outputs": [
        {
          "internalType": "uint256",
          "name": "",
          "type": "uint256"
        }
      ],
      "payable": false,
      "stateMutability": "nonpayable",
      "type": "function"
    },
    {
      "constant": true,
      "inputs": [],
      "name": "borrowCapGuardian",
      "outputs": [
        {
          "internalType": "address",
          "name": "",
          "type": "address"
        }
      ],
      "payable": false,
      "stateMutability": "view",
      "type": "function"
    },
    {
      "constant": true,
      "inputs": [
        {
          "internalType": "address",
          "name": "",
          "type": "address"
        }
      ],
      "name": "borrowCaps",
      "outputs": [
        {
          "internalType": "uint256",
          "name": "",
          "type": "uint256"
        }
      ],
      "payable": false,
      "stateMutability": "view",
      "type": "function"
    },
    {
      "constant": true,
      "inputs": [
        {
          "internalType": "address",
          "name": "",
          "type": "address"
        }
      ],
      "name": "borrowGuardianPaused",
      "outputs": [
        {
          "internalType": "bool",
          "name": "",
          "type": "bool"
        }
      ],
      "payable": false,
      "stateMutability": "view",
      "type": "function"
    },
    {
      "constant": false,
      "inputs": [
        {
          "internalType": "address",
          "name": "cToken",
          "type": "address"
        },
        {
          "internalType": "address",
          "name": "borrower",
          "type": "address"
        },
        {
          "internalType": "uint256",
          "name": "borrowAmount",
          "type": "uint256"
        }
      ],
      "name": "borrowVerify",
      "outputs": [],
      "payable": false,
      "stateMutability": "nonpayable",
      "type": "function"
    },
    {
      "constant": true,
      "inputs": [
        {
          "internalType": "address",
          "name": "account",
          "type": "address"
        },
        {
          "internalType": "contract CToken",
          "name": "cToken",
          "type": "address"
        }
      ],
      "name": "checkMembership",
      "outputs": [
        {
          "internalType": "bool",
          "name": "",
          "type": "bool"
        }
      ],
      "payable": false,
      "stateMutability": "view",
      "type": "function"
    },
    {
      "constant": false,
      "inputs": [
        {
          "internalType": "address",
          "name": "holder",
          "type": "address"
        },
        {
          "internalType": "contract CToken[]",
          "name": "cTokens",
          "type": "address[]"
        }
      ],
      "name": "claimComp",
      "outputs": [],
      "payable": false,
      "stateMutability": "nonpayable",
      "type": "function"
    },
    {
      "constant": false,
      "inputs": [
        {
          "internalType": "address[]",
          "name": "holders",
          "type": "address[]"
        },
        {
          "internalType": "contract CToken[]",
          "name": "cTokens",
          "type": "address[]"
        },
        {
          "internalType": "bool",
          "name": "borrowers",
          "type": "bool"
        },
        {
          "internalType": "bool",
          "name": "suppliers",
          "type": "bool"
        }
      ],
      "name": "claimComp",
      "outputs": [],
      "payable": false,
      "stateMutability": "nonpayable",
      "type": "function"
    },
    {
      "constant": false,
      "inputs": [
        {
          "internalType": "address",
          "name": "holder",
          "type": "address"
        }
      ],
      "name": "claimComp",
      "outputs": [],
      "payable": false,
      "stateMutability": "nonpayable",
      "type": "function"
    },
    {
      "constant": true,
      "inputs": [],
      "name": "closeFactorMantissa",
      "outputs": [
        {
          "internalType": "uint256",
          "name": "",
          "type": "uint256"
        }
      ],
      "payable": false,
      "stateMutability": "view",
      "type": "function"
    },
    {
      "constant": true,
      "inputs": [
        {
          "internalType": "address",
          "name": "",
          "type": "address"
        }
      ],
      "name": "compAccrued",
      "outputs": [
        {
          "internalType": "uint256",
          "name": "",
          "type": "uint256"
        }
      ],
      "payable": false,
      "stateMutability": "view",
      "type": "function"
    },
    {
      "constant": true,
      "inputs": [
        {
          "internalType": "address",
          "name": "",
          "type": "address"
        }
      ],
      "name": "compBorrowState",
      "outputs": [
        {
          "internalType": "uint224",
          "name": "index",
          "type": "uint224"
        },
        {
          "internalType": "uint32",
          "name": "block",
          "type": "uint32"
        }
      ],
      "payable": false,
      "stateMutability": "view",
      "type": "function"
    },
    {
      "constant": true,
      "inputs": [
        {
          "internalType": "address",
          "name": "",
          "type": "address"
        },
        {
          "internalType": "address",
          "name": "",
          "type": "address"
        }
      ],
      "name": "compBorrowerIndex",
      "outputs": [
        {
          "internalType": "uint256",
          "name": "",
          "type": "uint256"
        }
      ],
      "payable": false,
      "stateMutability": "view",
      "type": "function"
    },
    {
      "constant": true,
      "inputs": [],
      "name": "compClaimThreshold",
      "outputs": [
        {
          "internalType": "uint256",
          "name": "",
          "type": "uint256"
        }
      ],
      "payable": false,
      "stateMutability": "view",
      "type": "function"
    },
    {
      "constant": true,
      "inputs": [],
      "name": "compInitialIndex",
      "outputs": [
        {
          "internalType": "uint224",
          "name": "",
          "type": "uint224"
        }
      ],
      "payable": false,
      "stateMutability": "view",
      "type": "function"
    },
    {
      "constant": true,
      "inputs": [],
      "name": "compRate",
      "outputs": [
        {
          "internalType": "uint256",
          "name": "",
          "type": "uint256"
        }
      ],
      "payable": false,
      "stateMutability": "view",
      "type": "function"
    },
    {
      "constant": true,
      "inputs": [
        {
          "internalType": "address",
          "name": "",
          "type": "address"
        }
      ],
      "name": "compSpeeds",
      "outputs": [
        {
          "internalType": "uint256",
          "name": "",
          "type": "uint256"
        }
      ],
      "payable": false,
      "stateMutability": "view",
      "type": "function"
    },
    {
      "constant": true,
      "inputs": [
        {
          "internalType": "address",
          "name": "",
          "type": "address"
        },
        {
          "internalType": "address",
          "name": "",
          "type": "address"
        }
      ],
      "name": "compSupplierIndex",
      "outputs": [
        {
          "internalType": "uint256",
          "name": "",
          "type": "uint256"
        }
      ],
      "payable": false,
      "stateMutability": "view",
      "type": "function"
    },
    {
      "constant": true,
      "inputs": [
        {
          "internalType": "address",
          "name": "",
          "type": "address"
        }
      ],
      "name": "compSupplyState",
      "outputs": [
        {
          "internalType": "uint224",
          "name": "index",
          "type": "uint224"
        },
        {
          "internalType": "uint32",
          "name": "block",
          "type": "uint32"
        }
      ],
      "payable": false,
      "stateMutability": "view",
      "type": "function"
    },
    {
      "constant": true,
      "inputs": [],
      "name": "comptrollerImplementation",
      "outputs": [
        {
          "internalType": "address",
          "name": "",
          "type": "address"
        }
      ],
      "payable": false,
      "stateMutability": "view",
      "type": "function"
    },
    {
      "constant": false,
      "inputs": [
        {
          "internalType": "address[]",
          "name": "cTokens",
          "type": "address[]"
        }
      ],
      "name": "enterMarkets",
      "outputs": [
        {
          "internalType": "uint256[]",
          "name": "",
          "type": "uint256[]"
        }
      ],
      "payable": false,
      "stateMutability": "nonpayable",
      "type": "function"
    },
    {
      "constant": false,
      "inputs": [
        {
          "internalType": "address",
          "name": "cTokenAddress",
          "type": "address"
        }
      ],
      "name": "exitMarket",
      "outputs": [
        {
          "internalType": "uint256",
          "name": "",
          "type": "uint256"
        }
      ],
      "payable": false,
      "stateMutability": "nonpayable",
      "type": "function"
    },
    {
      "constant": true,
      "inputs": [
        {
          "internalType": "address",
          "name": "account",
          "type": "address"
        }
      ],
      "name": "getAccountLiquidity",
      "outputs": [
        {
          "internalType": "uint256",
          "name": "",
          "type": "uint256"
        },
        {
          "internalType": "uint256",
          "name": "",
          "type": "uint256"
        },
        {
          "internalType": "uint256",
          "name": "",
          "type": "uint256"
        }
      ],
      "payable": false,
      "stateMutability": "view",
      "type": "function"
    },
    {
      "constant": true,
      "inputs": [],
      "name": "getAllMarkets",
      "outputs": [
        {
          "internalType": "contract CToken[]",
          "name": "",
          "type": "address[]"
        }
      ],
      "payable": false,
      "stateMutability": "view",
      "type": "function"
    },
    {
      "constant": true,
      "inputs": [
        {
          "internalType": "address",
          "name": "account",
          "type": "address"
        }
      ],
      "name": "getAssetsIn",
      "outputs": [
        {
          "internalType": "contract CToken[]",
          "name": "",
          "type": "address[]"
        }
      ],
      "payable": false,
      "stateMutability": "view",
      "type": "function"
    },
    {
      "constant": true,
      "inputs": [],
      "name": "getBlockNumber",
      "outputs": [
        {
          "internalType": "uint256",
          "name": "",
          "type": "uint256"
        }
      ],
      "payable": false,
      "stateMutability": "view",
      "type": "function"
    },
    {
      "constant": true,
      "inputs": [],
      "name": "getCompAddress",
      "outputs": [
        {
          "internalType": "address",
          "name": "",
          "type": "address"
        }
      ],
      "payable": false,
      "stateMutability": "view",
      "type": "function"
    },
    {
      "constant": true,
      "inputs": [
        {
          "internalType": "address",
          "name": "account",
          "type": "address"
        },
        {
          "internalType": "address",
          "name": "cTokenModify",
          "type": "address"
        },
        {
          "internalType": "uint256",
          "name": "redeemTokens",
          "type": "uint256"
        },
        {
          "internalType": "uint256",
          "name": "borrowAmount",
          "type": "uint256"
        }
      ],
      "name": "getHypotheticalAccountLiquidity",
      "outputs": [
        {
          "internalType": "uint256",
          "name": "",
          "type": "uint256"
        },
        {
          "internalType": "uint256",
          "name": "",
          "type": "uint256"
        },
        {
          "internalType": "uint256",
          "name": "",
          "type": "uint256"
        }
      ],
      "payable": false,
      "stateMutability": "view",
      "type": "function"
    },
    {
      "constant": true,
      "inputs": [],
      "name": "isComptroller",
      "outputs": [
        {
          "internalType": "bool",
          "name": "",
          "type": "bool"
        }
      ],
      "payable": false,
      "stateMutability": "view",
      "type": "function"
    },
    {
      "constant": false,
      "inputs": [
        {
          "internalType": "address",
          "name": "cTokenBorrowed",
          "type": "address"
        },
        {
          "internalType": "address",
          "name": "cTokenCollateral",
          "type": "address"
        },
        {
          "internalType": "address",
          "name": "liquidator",
          "type": "address"
        },
        {
          "internalType": "address",
          "name": "borrower",
          "type": "address"
        },
        {
          "internalType": "uint256",
          "name": "repayAmount",
          "type": "uint256"
        }
      ],
      "name": "liquidateBorrowAllowed",
      "outputs": [
        {
          "internalType": "uint256",
          "name": "",
          "type": "uint256"
        }
      ],
      "payable": false,
      "stateMutability": "nonpayable",
      "type": "function"
    },
    {
      "constant": false,
      "inputs": [
        {
          "internalType": "address",
          "name": "cTokenBorrowed",
          "type": "address"
        },
        {
          "internalType": "address",
          "name": "cTokenCollateral",
          "type": "address"
        },
        {
          "internalType": "address",
          "name": "liquidator",
          "type": "address"
        },
        {
          "internalType": "address",
          "name": "borrower",
          "type": "address"
        },
        {
          "internalType": "uint256",
          "name": "actualRepayAmount",
          "type": "uint256"
        },
        {
          "internalType": "uint256",
          "name": "seizeTokens",
          "type": "uint256"
        }
      ],
      "name": "liquidateBorrowVerify",
      "outputs": [],
      "payable": false,
      "stateMutability": "nonpayable",
      "type": "function"
    },
    {
      "constant": true,
      "inputs": [
        {
          "internalType": "address",
          "name": "cTokenBorrowed",
          "type": "address"
        },
        {
          "internalType": "address",
          "name": "cTokenCollateral",
          "type": "address"
        },
        {
          "internalType": "uint256",
          "name": "actualRepayAmount",
          "type": "uint256"
        }
      ],
      "name": "liquidateCalculateSeizeTokens",
      "outputs": [
        {
          "internalType": "uint256",
          "name": "",
          "type": "uint256"
        },
        {
          "internalType": "uint256",
          "name": "",
          "type": "uint256"
        }
      ],
      "payable": false,
      "stateMutability": "view",
      "type": "function"
    },
    {
      "constant": true,
      "inputs": [],
      "name": "liquidationIncentiveMantissa",
      "outputs": [
        {
          "internalType": "uint256",
          "name": "",
          "type": "uint256"
        }
      ],
      "payable": false,
      "stateMutability": "view",
      "type": "function"
    },
    {
      "constant": true,
      "inputs": [
        {
          "internalType": "address",
          "name": "",
          "type": "address"
        }
      ],
      "name": "markets",
      "outputs": [
        {
          "internalType": "bool",
          "name": "isListed",
          "type": "bool"
        },
        {
          "internalType": "uint256",
          "name": "collateralFactorMantissa",
          "type": "uint256"
        },
        {
          "internalType": "bool",
          "name": "isComped",
          "type": "bool"
        }
      ],
      "payable": false,
      "stateMutability": "view",
      "type": "function"
    },
    {
      "constant": true,
      "inputs": [],
      "name": "maxAssets",
      "outputs": [
        {
          "internalType": "uint256",
          "name": "",
          "type": "uint256"
        }
      ],
      "payable": false,
      "stateMutability": "view",
      "type": "function"
    },
    {
      "constant": false,
      "inputs": [
        {
          "internalType": "address",
          "name": "cToken",
          "type": "address"
        },
        {
          "internalType": "address",
          "name": "minter",
          "type": "address"
        },
        {
          "internalType": "uint256",
          "name": "mintAmount",
          "type": "uint256"
        }
      ],
      "name": "mintAllowed",
      "outputs": [
        {
          "internalType": "uint256",
          "name": "",
          "type": "uint256"
        }
      ],
      "payable": false,
      "stateMutability": "nonpayable",
      "type": "function"
    },
    {
      "constant": true,
      "inputs": [
        {
          "internalType": "address",
          "name": "",
          "type": "address"
        }
      ],
      "name": "mintGuardianPaused",
      "outputs": [
        {
          "internalType": "bool",
          "name": "",
          "type": "bool"
        }
      ],
      "payable": false,
      "stateMutability": "view",
      "type": "function"
    },
    {
      "constant": false,
      "inputs": [
        {
          "internalType": "address",
          "name": "cToken",
          "type": "address"
        },
        {
          "internalType": "address",
          "name": "minter",
          "type": "address"
        },
        {
          "internalType": "uint256",
          "name": "actualMintAmount",
          "type": "uint256"
        },
        {
          "internalType": "uint256",
          "name": "mintTokens",
          "type": "uint256"
        }
      ],
      "name": "mintVerify",
      "outputs": [],
      "payable": false,
      "stateMutability": "nonpayable",
      "type": "function"
    },
    {
      "constant": true,
      "inputs": [],
      "name": "oracle",
      "outputs": [
        {
          "internalType": "contract PriceOracle",
          "name": "",
          "type": "address"
        }
      ],
      "payable": false,
      "stateMutability": "view",
      "type": "function"
    },
    {
      "constant": true,
      "inputs": [],
      "name": "pauseGuardian",
      "outputs": [
        {
          "internalType": "address",
          "name": "",
          "type": "address"
        }
      ],
      "payable": false,
      "stateMutability": "view",
      "type": "function"
    },
    {
      "constant": true,
      "inputs": [],
      "name": "pendingAdmin",
      "outputs": [
        {
          "internalType": "address",
          "name": "",
          "type": "address"
        }
      ],
      "payable": false,
      "stateMutability": "view",
      "type": "function"
    },
    {
      "constant": true,
      "inputs": [],
      "name": "pendingComptrollerImplementation",
      "outputs": [
        {
          "internalType": "address",
          "name": "",
          "type": "address"
        }
      ],
      "payable": false,
      "stateMutability": "view",
      "type": "function"
    },
    {
      "constant": false,
      "inputs": [
        {
          "internalType": "address",
          "name": "cToken",
          "type": "address"
        },
        {
          "internalType": "address",
          "name": "redeemer",
          "type": "address"
        },
        {
          "internalType": "uint256",
          "name": "redeemTokens",
          "type": "uint256"
        }
      ],
      "name": "redeemAllowed",
      "outputs": [
        {
          "internalType": "uint256",
          "name": "",
          "type": "uint256"
        }
      ],
      "payable": false,
      "stateMutability": "nonpayable",
      "type": "function"
    },
    {
      "constant": false,
      "inputs": [
        {
          "internalType": "address",
          "name": "cToken",
          "type": "address"
        },
        {
          "internalType": "address",
          "name": "redeemer",
          "type": "address"
        },
        {
          "internalType": "uint256",
          "name": "redeemAmount",
          "type": "uint256"
        },
        {
          "internalType": "uint256",
          "name": "redeemTokens",
          "type": "uint256"
        }
      ],
      "name": "redeemVerify",
      "outputs": [],
      "payable": false,
      "stateMutability": "nonpayable",
      "type": "function"
    },
    {
      "constant": false,
      "inputs": [],
      "name": "refreshCompSpeeds",
      "outputs": [],
      "payable": false,
      "stateMutability": "nonpayable",
      "type": "function"
    },
    {
      "constant": false,
      "inputs": [
        {
          "internalType": "address",
          "name": "cToken",
          "type": "address"
        },
        {
          "internalType": "address",
          "name": "payer",
          "type": "address"
        },
        {
          "internalType": "address",
          "name": "borrower",
          "type": "address"
        },
        {
          "internalType": "uint256",
          "name": "repayAmount",
          "type": "uint256"
        }
      ],
      "name": "repayBorrowAllowed",
      "outputs": [
        {
          "internalType": "uint256",
          "name": "",
          "type": "uint256"
        }
      ],
      "payable": false,
      "stateMutability": "nonpayable",
      "type": "function"
    },
    {
      "constant": false,
      "inputs": [
        {
          "internalType": "address",
          "name": "cToken",
          "type": "address"
        },
        {
          "internalType": "address",
          "name": "payer",
          "type": "address"
        },
        {
          "internalType": "address",
          "name": "borrower",
          "type": "address"
        },
        {
          "internalType": "uint256",
          "name": "actualRepayAmount",
          "type": "uint256"
        },
        {
          "internalType": "uint256",
          "name": "borrowerIndex",
          "type": "uint256"
        }
      ],
      "name": "repayBorrowVerify",
      "outputs": [],
      "payable": false,
      "stateMutability": "nonpayable",
      "type": "function"
    },
    {
      "constant": false,
      "inputs": [
        {
          "internalType": "address",
          "name": "cTokenCollateral",
          "type": "address"
        },
        {
          "internalType": "address",
          "name": "cTokenBorrowed",
          "type": "address"
        },
        {
          "internalType": "address",
          "name": "liquidator",
          "type": "address"
        },
        {
          "internalType": "address",
          "name": "borrower",
          "type": "address"
        },
        {
          "internalType": "uint256",
          "name": "seizeTokens",
          "type": "uint256"
        }
      ],
      "name": "seizeAllowed",
      "outputs": [
        {
          "internalType": "uint256",
          "name": "",
          "type": "uint256"
        }
      ],
      "payable": false,
      "stateMutability": "nonpayable",
      "type": "function"
    },
    {
      "constant": true,
      "inputs": [],
      "name": "seizeGuardianPaused",
      "outputs": [
        {
          "internalType": "bool",
          "name": "",
          "type": "bool"
        }
      ],
      "payable": false,
      "stateMutability": "view",
      "type": "function"
    },
    {
      "constant": false,
      "inputs": [
        {
          "internalType": "address",
          "name": "cTokenCollateral",
          "type": "address"
        },
        {
          "internalType": "address",
          "name": "cTokenBorrowed",
          "type": "address"
        },
        {
          "internalType": "address",
          "name": "liquidator",
          "type": "address"
        },
        {
          "internalType": "address",
          "name": "borrower",
          "type": "address"
        },
        {
          "internalType": "uint256",
          "name": "seizeTokens",
          "type": "uint256"
        }
      ],
      "name": "seizeVerify",
      "outputs": [],
      "payable": false,
      "stateMutability": "nonpayable",
      "type": "function"
    },
    {
      "constant": false,
      "inputs": [
        {
          "internalType": "address",
          "name": "cToken",
          "type": "address"
        },
        {
          "internalType": "address",
          "name": "src",
          "type": "address"
        },
        {
          "internalType": "address",
          "name": "dst",
          "type": "address"
        },
        {
          "internalType": "uint256",
          "name": "transferTokens",
          "type": "uint256"
        }
      ],
      "name": "transferAllowed",
      "outputs": [
        {
          "internalType": "uint256",
          "name": "",
          "type": "uint256"
        }
      ],
      "payable": false,
      "stateMutability": "nonpayable",
      "type": "function"
    },
    {
      "constant": true,
      "inputs": [],
      "name": "transferGuardianPaused",
      "outputs": [
        {
          "internalType": "bool",
          "name": "",
          "type": "bool"
        }
      ],
      "payable": false,
      "stateMutability": "view",
      "type": "function"
    },
    {
      "constant": false,
      "inputs": [
        {
          "internalType": "address",
          "name": "cToken",
          "type": "address"
        },
        {
          "internalType": "address",
          "name": "src",
          "type": "address"
        },
        {
          "internalType": "address",
          "name": "dst",
          "type": "address"
        },
        {
          "internalType": "uint256",
          "name": "transferTokens",
          "type": "uint256"
        }
      ],
      "name": "transferVerify",
      "outputs": [],
      "payable": false,
      "stateMutability": "nonpayable",
      "type": "function"
    }
  ],
  "evm": {
    "bytecode": {
      "linkReferences": {},
      "object": "608060405234801561001057600080fd5b50600080546001600160a01b03191633179055615f9480620000336000396000f3fe608060405234801561001057600080fd5b50600436106104485760003560e01c80636d154ea511610241578063bb82aa5e1161013b578063da3d454c116100c3578063e875544611610087578063e875544614611208578063e9af029214611210578063eabe7d9114611236578063ede4edd01461126c578063f851a4401461129257610448565b8063da3d454c1461116a578063dce15449146111a0578063dcfbc0c7146111cc578063e4028eee146111d4578063e6653f3d1461120057610448565b8063ca0af0431161010a578063ca0af04314611012578063cc7ebdc414611040578063ce485c5e14611066578063d02f735114611107578063d9226ced1461114d57610448565b8063bb82aa5e14610ede578063bdcdc25814610ee6578063c299823814610f22578063c488847b14610fc357610448565b8063929fe9a1116101c9578063aa9007541161018d578063aa90075414610e22578063abfceffc14610e2a578063ac0b0bb714610ea0578063b0772d0b14610ea8578063b21be7fd14610eb057610448565b8063929fe9a114610d9a57806394b2294b14610dc85780639d1b5a0a14610dd0578063a76b3fda14610dd8578063a7f0e23114610dfe57610448565b80637dc0d1d0116102105780637dc0d1d014610cfd57806387f7630314610d055780638c57804e14610d0d5780638e8f294b14610d335780638ebf636414610d7b57610448565b80636d154ea514610c635780636d35bf9114610c89578063731f0c2b14610ccf578063747026c914610cf557610448565b806347ef3b3b1161035257806355ee1fe1116102da578063607ef6c11161029e578063607ef6c1146109d25780636810dfa614610a905780636a49111214610bbc5780636a56947e14610bd95780636b79c38d14610c1557610448565b806355ee1fe1146108e45780635c7786051461090a5780635ec88c79146109405780635f5af1aa146109665780635fc7e71e1461098c57610448565b80634e79238f116103215780634e79238f146107de5780634ef4c3e1146108385780634fd42e171461086e57806351dff9891461088b57806352d84d1e146108c757610448565b806347ef3b3b1461075c5780634a584432146107a85780634ada90af146107ce5780634d8e5037146107d657610448565b806326782247116103d55780633aa729b4116103a45780633aa729b4146106bc5780633bcf7ec1146106e25780633c94786f1461071057806341c728b91461071857806342cbb15c1461075457610448565b806326782247146106525780632d70db781461065a578063317b0b7714610679578063391957d71461069657610448565b80631d7b33d71161041c5780631d7b33d7146105705780631ededc91146105a857806321af4569146105ea57806324008a621461060e57806324a3d6221461064a57610448565b80627e3dd21461044d57806318c882a5146104695780631c3db2e0146104975780631d504dc61461054a575b600080fd5b61045561129a565b604080519115158252519081900360200190f35b6104556004803603604081101561047f57600080fd5b506001600160a01b038135169060200135151561129f565b610548600480360360408110156104ad57600080fd5b6001600160a01b038235169190810190604081016020820135600160201b8111156104d757600080fd5b8201836020820111156104e957600080fd5b803590602001918460208302840111600160201b8311171561050a57600080fd5b91908080602002602001604051908101604052809392919081815260200183836020028082843760009201919091525092955061143f945050505050565b005b6105486004803603602081101561056057600080fd5b50356001600160a01b03166114a1565b6105966004803603602081101561058657600080fd5b50356001600160a01b0316611600565b60408051918252519081900360200190f35b610548600480360360a08110156105be57600080fd5b506001600160a01b03813581169160208101358216916040820135169060608101359060800135611612565b6105f2611619565b604080516001600160a01b039092168252519081900360200190f35b6105966004803603608081101561062457600080fd5b506001600160a01b03813581169160208101358216916040820135169060600135611628565b6105f26116f1565b6105f2611700565b6104556004803603602081101561067057600080fd5b5035151561170f565b6105966004803603602081101561068f57600080fd5b5035611849565b610548600480360360208110156106ac57600080fd5b50356001600160a01b031661195a565b610548600480360360208110156106d257600080fd5b50356001600160a01b0316611a06565b610455600480360360408110156106f857600080fd5b506001600160a01b0381351690602001351515611b37565b610455611cd2565b6105486004803603608081101561072e57600080fd5b506001600160a01b03813581169160208101359091169060408101359060600135611ce2565b610596611ce8565b610548600480360360c081101561077257600080fd5b506001600160a01b0381358116916020810135821691604082013581169160608101359091169060808101359060a00135611ced565b610596600480360360208110156107be57600080fd5b50356001600160a01b0316611cf5565b610596611d07565b610548611d0d565b61081a600480360360808110156107f457600080fd5b506001600160a01b03813581169160208101359091169060408101359060600135611d55565b60408051938452602084019290925282820152519081900360600190f35b6105966004803603606081101561084e57600080fd5b506001600160a01b03813581169160208101359091169060400135611d8f565b6105966004803603602081101561088457600080fd5b5035611e3a565b610548600480360360808110156108a157600080fd5b506001600160a01b03813581169160208101359091169060408101359060600135611f2e565b6105f2600480360360208110156108dd57600080fd5b5035611f82565b610596600480360360208110156108fa57600080fd5b50356001600160a01b0316611fa9565b6105486004803603606081101561092057600080fd5b506001600160a01b03813581169160208101359091169060400135612030565b61081a6004803603602081101561095657600080fd5b50356001600160a01b0316612035565b6105966004803603602081101561097c57600080fd5b50356001600160a01b031661206a565b610596600480360360a08110156109a257600080fd5b506001600160a01b03813581169160208101358216916040820135811691606081013590911690608001356120ee565b610548600480360360408110156109e857600080fd5b810190602081018135600160201b811115610a0257600080fd5b820183602082011115610a1457600080fd5b803590602001918460208302840111600160201b83111715610a3557600080fd5b919390929091602081019035600160201b811115610a5257600080fd5b820183602082011115610a6457600080fd5b803590602001918460208302840111600160201b83111715610a8557600080fd5b509092509050612275565b61054860048036036080811015610aa657600080fd5b810190602081018135600160201b811115610ac057600080fd5b820183602082011115610ad257600080fd5b803590602001918460208302840111600160201b83111715610af357600080fd5b9190808060200260200160405190810160405280939291908181526020018383602002808284376000920191909152509295949360208101935035915050600160201b811115610b4257600080fd5b820183602082011115610b5457600080fd5b803590602001918460208302840111600160201b83111715610b7557600080fd5b919080806020026020016040519081016040528093929190818152602001838360200280828437600092019190915250929550505050803515159150602001351515612405565b61054860048036036020811015610bd257600080fd5b50356125ae565b61054860048036036080811015610bef57600080fd5b506001600160a01b03813581169160208101358216916040820135169060600135611ce2565b610c3b60048036036020811015610c2b57600080fd5b50356001600160a01b0316612652565b604080516001600160e01b03909316835263ffffffff90911660208301528051918290030190f35b61045560048036036020811015610c7957600080fd5b50356001600160a01b031661267c565b610548600480360360a0811015610c9f57600080fd5b506001600160a01b0381358116916020810135821691604082013581169160608101359091169060800135611612565b61045560048036036020811015610ce557600080fd5b50356001600160a01b0316612691565b6105966126a6565b6105f26126b1565b6104556126c0565b610c3b60048036036020811015610d2357600080fd5b50356001600160a01b03166126d0565b610d5960048036036020811015610d4957600080fd5b50356001600160a01b03166126fa565b6040805193151584526020840192909252151582820152519081900360600190f35b61045560048036036020811015610d9157600080fd5b50351515612720565b61045560048036036040811015610db057600080fd5b506001600160a01b0381358116916020013516612859565b61059661288c565b6105f2612892565b61059660048036036020811015610dee57600080fd5b50356001600160a01b03166128aa565b610e06612a07565b604080516001600160e01b039092168252519081900360200190f35b610596612a1a565b610e5060048036036020811015610e4057600080fd5b50356001600160a01b0316612a20565b60408051602080825283518183015283519192839290830191858101910280838360005b83811015610e8c578181015183820152602001610e74565b505050509050019250505060405180910390f35b610455612aa9565b610e50612ab9565b61059660048036036040811015610ec657600080fd5b506001600160a01b0381358116916020013516612b1b565b6105f2612b38565b61059660048036036080811015610efc57600080fd5b506001600160a01b03813581169160208101358216916040820135169060600135612b47565b610e5060048036036020811015610f3857600080fd5b810190602081018135600160201b811115610f5257600080fd5b820183602082011115610f6457600080fd5b803590602001918460208302840111600160201b83111715610f8557600080fd5b919080806020026020016040519081016040528093929190818152602001838360200280828437600092019190915250929550612bdb945050505050565b610ff960048036036060811015610fd957600080fd5b506001600160a01b03813581169160208101359091169060400135612c72565b6040805192835260208301919091528051918290030190f35b6105966004803603604081101561102857600080fd5b506001600160a01b0381358116916020013516612ee7565b6105966004803603602081101561105657600080fd5b50356001600160a01b0316612f04565b6105486004803603602081101561107c57600080fd5b810190602081018135600160201b81111561109657600080fd5b8201836020820111156110a857600080fd5b803590602001918460208302840111600160201b831117156110c957600080fd5b919080806020026020016040519081016040528093929190818152602001838360200280828437600092019190915250929550612f16945050505050565b610596600480360360a081101561111d57600080fd5b506001600160a01b0381358116916020810135821691604082013581169160608101359091169060800135612fa8565b6105966004803603602081101561116357600080fd5b5035613160565b6105966004803603606081101561118057600080fd5b506001600160a01b038135811691602081013590911690604001356131c9565b6105f2600480360360408110156111b657600080fd5b506001600160a01b038135169060200135613603565b6105f2613638565b610596600480360360408110156111ea57600080fd5b506001600160a01b038135169060200135613647565b6104556137f7565b610596613807565b6105486004803603602081101561122657600080fd5b50356001600160a01b031661380d565b6105966004803603606081101561124c57600080fd5b506001600160a01b03813581169160208101359091169060400135613871565b6105966004803603602081101561128257600080fd5b50356001600160a01b03166138ae565b6105f2613bc1565b600181565b6001600160a01b03821660009081526009602052604081205460ff166112f65760405162461bcd60e51b8152600401808060200182810382526028815260200180615e196028913960400191505060405180910390fd5b600a546001600160a01b031633148061131957506000546001600160a01b031633145b6113545760405162461bcd60e51b8152600401808060200182810382526027815260200180615e726027913960400191505060405180910390fd5b6000546001600160a01b031633148061136f57506001821515145b6113b9576040805162461bcd60e51b81526020600482015260166024820152756f6e6c792061646d696e2063616e20756e706175736560501b604482015290519081900360640190fd5b6001600160a01b0383166000818152600c6020908152604091829020805486151560ff199091168117909155825193845283830152606090830181905260069083015265426f72726f7760d01b6080830152517f71aec636243f9709bb0007ae15e9afb8150ab01716d75fd7573be5cc096e03b09181900360a00190a150805b92915050565b60408051600180825281830190925260609160208083019080388339019050509050828160008151811061146f57fe5b60200260200101906001600160a01b031690816001600160a01b03168152505061149c8183600180612405565b505050565b806001600160a01b031663f851a4406040518163ffffffff1660e01b815260040160206040518083038186803b1580156114da57600080fd5b505afa1580156114ee573d6000803e3d6000fd5b505050506040513d602081101561150457600080fd5b50516001600160a01b0316331461154c5760405162461bcd60e51b8152600401808060200182810382526027815260200180615f396027913960400191505060405180910390fd5b806001600160a01b031663c1e803346040518163ffffffff1660e01b8152600401602060405180830381600087803b15801561158757600080fd5b505af115801561159b573d6000803e3d6000fd5b505050506040513d60208110156115b157600080fd5b5051156115fd576040805162461bcd60e51b815260206004820152601560248201527418da185b99d9481b9bdd08185d5d1a1bdc9a5e9959605a1b604482015290519081900360640190fd5b50565b600f6020526000908152604090205481565b5050505050565b6015546001600160a01b031681565b6001600160a01b03841660009081526009602052604081205460ff16611650575060096116e9565b611658615d59565b6040518060200160405280876001600160a01b031663aa5af0fd6040518163ffffffff1660e01b815260040160206040518083038186803b15801561169c57600080fd5b505afa1580156116b0573d6000803e3d6000fd5b505050506040513d60208110156116c657600080fd5b5051905290506116d68682613bd0565b6116e38685836000613e58565b60009150505b949350505050565b600a546001600160a01b031681565b6001546001600160a01b031681565b600a546000906001600160a01b031633148061173557506000546001600160a01b031633145b6117705760405162461bcd60e51b8152600401808060200182810382526027815260200180615e726027913960400191505060405180910390fd5b6000546001600160a01b031633148061178b57506001821515145b6117d5576040805162461bcd60e51b81526020600482015260166024820152756f6e6c792061646d696e2063616e20756e706175736560501b604482015290519081900360640190fd5b600a8054831515600160b81b810260ff60b81b1990921691909117909155604080516020810192909252808252600582820152645365697a6560d81b6060830152517fef159d9a32b2472e32b098f954f3ce62d232939f1c207070b584df1814de2de09181900360800190a150805b919050565b600080546001600160a01b0316331461186f5761186860016004614042565b9050611844565b611877615d59565b50604080516020810190915282815261188e615d59565b50604080516020810190915266b1a2bc2ec5000081526118ae82826140a8565b156118c7576118be600580614042565b92505050611844565b6118cf615d59565b506040805160208101909152670c7d713b49da000081526118f081846140b0565b1561190a57611900600580614042565b9350505050611844565b6005805490869055604080518281526020810188905281517f3b9670cf975d26958e754b57098eaa2ac914d8d2a31b83257997b9f346110fd9929181900390910190a160005b9695505050505050565b6000546001600160a01b031633146119a35760405162461bcd60e51b8152600401808060200182810382526026815260200180615e996026913960400191505060405180910390fd5b601580546001600160a01b038381166001600160a01b0319831681179093556040805191909216808252602082019390935281517feda98690e518e9a05f8ec6837663e188211b2da8f4906648b323f2c1d4434e29929181900390910190a15050565b6000546001600160a01b03163314611a65576040805162461bcd60e51b815260206004820152601f60248201527f6f6e6c792061646d696e2063616e2064726f7020636f6d70206d61726b657400604482015290519081900360640190fd5b6001600160a01b0381166000908152600960205260409020600381015460ff161515600114611adb576040805162461bcd60e51b815260206004820152601b60248201527f6d61726b6574206973206e6f74206120636f6d70206d61726b65740000000000604482015290519081900360640190fd5b60038101805460ff19169055604080516001600160a01b03841681526000602082015281517f93c1f3e36ed71139f466a4ce8c9751790e2e33f5afb2df0dcfb3aeabe55d5aa2929181900390910190a1611b336140b7565b5050565b6001600160a01b03821660009081526009602052604081205460ff16611b8e5760405162461bcd60e51b8152600401808060200182810382526028815260200180615e196028913960400191505060405180910390fd5b600a546001600160a01b0316331480611bb157506000546001600160a01b031633145b611bec5760405162461bcd60e51b8152600401808060200182810382526027815260200180615e726027913960400191505060405180910390fd5b6000546001600160a01b0316331480611c0757506001821515145b611c51576040805162461bcd60e51b81526020600482015260166024820152756f6e6c792061646d696e2063616e20756e706175736560501b604482015290519081900360640190fd5b6001600160a01b0383166000818152600b6020908152604091829020805486151560ff199091168117909155825193845283830152606090830181905260049083015263135a5b9d60e21b6080830152517f71aec636243f9709bb0007ae15e9afb8150ab01716d75fd7573be5cc096e03b09181900360a00190a150919050565b600a54600160a01b900460ff1681565b50505050565b435b90565b505050505050565b60166020526000908152604090205481565b60065481565b333214611d4b5760405162461bcd60e51b8152600401808060200182810382526031815260200180615e416031913960400191505060405180910390fd5b611d536140b7565b565b600080600080600080611d6a8a8a8a8a61447c565b925092509250826011811115611d7c57fe5b95509093509150505b9450945094915050565b6001600160a01b0383166000908152600b602052604081205460ff1615611dee576040805162461bcd60e51b815260206004820152600e60248201526d1b5a5b9d081a5cc81c185d5cd95960921b604482015290519081900360640190fd5b6001600160a01b03841660009081526009602052604090205460ff16611e185760095b9050611e33565b611e2184614897565b611e2d84846000614b15565b60005b90505b9392505050565b600080546001600160a01b03163314611e59576118686001600b614042565b611e61615d59565b506040805160208101909152828152611e78615d59565b506040805160208101909152670de0b6b3a76400008152611e9982826140b0565b15611eaa576118be6007600c614042565b611eb2615d59565b5060408051602081019091526714d1120d7b1600008152611ed381846140b0565b15611ee4576119006007600c614042565b6006805490869055604080518281526020810188905281517faeba5a6c40a8ac138134bff1aaa65debf25971188a58804bad717f82f0ec1316929181900390910190a16000611950565b80158015611f3c5750600082115b15611ce2576040805162461bcd60e51b815260206004820152601160248201527072656465656d546f6b656e73207a65726f60781b604482015290519081900360640190fd5b600d8181548110611f8f57fe5b6000918252602090912001546001600160a01b0316905081565b600080546001600160a01b03163314611fc85761186860016010614042565b600480546001600160a01b038481166001600160a01b0319831681179093556040805191909216808252602082019390935281517fd52b2b9b7e9ee655fcb95d2e5b9e0c9f69e7ef2b8e9d2d0ea78402d576d22e22929181900390910190a160009392505050565b61149c565b60008060008060008061204c87600080600061447c565b92509250925082601181111561205e57fe5b97919650945092505050565b600080546001600160a01b031633146120895761186860016013614042565b600a80546001600160a01b038481166001600160a01b0319831617928390556040805192821680845293909116602083015280517f0613b6ee6a04f0d09f390e4d9318894b9f6ac7fd83897cd8d18896ba579c401e9281900390910190a16000611e33565b6001600160a01b03851660009081526009602052604081205460ff16158061212f57506001600160a01b03851660009081526009602052604090205460ff16155b1561213e5760095b905061226c565b60008061214a85614d0d565b9193509091506000905082601181111561216057fe5b1461217a5781601181111561217157fe5b9250505061226c565b80612186576003612171565b6000886001600160a01b03166395dd9193876040518263ffffffff1660e01b815260040180826001600160a01b03166001600160a01b0316815260200191505060206040518083038186803b1580156121de57600080fd5b505afa1580156121f2573d6000803e3d6000fd5b505050506040513d602081101561220857600080fd5b505160408051602081019091526005548152909150600090819061222c9084614d2d565b9092509050600082600381111561223f57fe5b1461225357600b5b9550505050505061226c565b80871115612262576011612247565b6000955050505050505b95945050505050565b6000546001600160a01b031633148061229857506015546001600160a01b031633145b6122d35760405162461bcd60e51b8152600401808060200182810382526035815260200180615ebf6035913960400191505060405180910390fd5b828181158015906122e357508082145b612324576040805162461bcd60e51b815260206004820152600d60248201526c1a5b9d985b1a59081a5b9c1d5d609a1b604482015290519081900360640190fd5b60005b828110156123fc5784848281811061233b57fe5b905060200201356016600089898581811061235257fe5b905060200201356001600160a01b03166001600160a01b03166001600160a01b031681526020019081526020016000208190555086868281811061239257fe5b905060200201356001600160a01b03166001600160a01b03167f6f1951b2aad10f3fc81b86d91105b413a5b3f847a34bbc5ce1904201b14438f68686848181106123d857fe5b905060200201356040518082815260200191505060405180910390a2600101612327565b50505050505050565b60005b835181101561161257600084828151811061241f57fe5b6020908102919091018101516001600160a01b0381166000908152600990925260409091205490915060ff16612494576040805162461bcd60e51b81526020600482015260156024820152741b585c9ad95d081b5d5cdd081899481b1a5cdd1959605a1b604482015290519081900360640190fd5b6001841515141561255c576124a7615d59565b6040518060200160405280836001600160a01b031663aa5af0fd6040518163ffffffff1660e01b815260040160206040518083038186803b1580156124eb57600080fd5b505afa1580156124ff573d6000803e3d6000fd5b505050506040513d602081101561251557600080fd5b5051905290506125258282613bd0565b60005b8751811015612559576125518389838151811061254157fe5b6020026020010151846001613e58565b600101612528565b50505b600183151514156125a55761257081614897565b60005b86518110156125a35761259b8288838151811061258c57fe5b60200260200101516001614b15565b600101612573565b505b50600101612408565b6125b6614d81565b612607576040805162461bcd60e51b815260206004820152601f60248201527f6f6e6c792061646d696e2063616e206368616e676520636f6d70207261746500604482015290519081900360640190fd5b600e805490829055604080518281526020810184905281517fc227c9272633c3a307d9845bf2bc2509cefb20d655b5f3c1002d8e1e3f22c8b0929181900390910190a1611b336140b7565b6010602052600090815260409020546001600160e01b03811690600160e01b900463ffffffff1682565b600c6020526000908152604090205460ff1681565b600b6020526000908152604090205460ff1681565b66038d7ea4c6800081565b6004546001600160a01b031681565b600a54600160b01b900460ff1681565b6011602052600090815260409020546001600160e01b03811690600160e01b900463ffffffff1682565b60096020526000908152604090208054600182015460039092015460ff91821692911683565b600a546000906001600160a01b031633148061274657506000546001600160a01b031633145b6127815760405162461bcd60e51b8152600401808060200182810382526027815260200180615e726027913960400191505060405180910390fd5b6000546001600160a01b031633148061279c57506001821515145b6127e6576040805162461bcd60e51b81526020600482015260166024820152756f6e6c792061646d696e2063616e20756e706175736560501b604482015290519081900360640190fd5b600a8054831515600160b01b810260ff60b01b1990921691909117909155604080516020810192909252808252600882820152672a3930b739b332b960c11b6060830152517fef159d9a32b2472e32b098f954f3ce62d232939f1c207070b584df1814de2de09181900360800190a15090565b6001600160a01b038082166000908152600960209081526040808320938616835260029093019052205460ff1692915050565b60075481565b73c00e94cb662c3520282e6f5717214004a7f2688890565b600080546001600160a01b031633146128c95761186860016012614042565b6001600160a01b03821660009081526009602052604090205460ff16156128f657611868600a6011614042565b816001600160a01b031663fe9c44ae6040518163ffffffff1660e01b815260040160206040518083038186803b15801561292f57600080fd5b505afa158015612943573d6000803e3d6000fd5b505050506040513d602081101561295957600080fd5b5050604080516060810182526001808252600060208381018281528486018381526001600160a01b03891684526009909252949091209251835490151560ff199182161784559351918301919091555160039091018054911515919092161790556129c382614daa565b604080516001600160a01b038416815290517fcf583bb0c569eb967f806b11601c4cb93c10310485c67add5f8362c2f212321f9181900360200190a1600092915050565b6ec097ce7bc90715b34b9f100000000081565b600e5481565b60608060086000846001600160a01b03166001600160a01b03168152602001908152602001600020805480602002602001604051908101604052809291908181526020018280548015612a9c57602002820191906000526020600020905b81546001600160a01b03168152600190910190602001808311612a7e575b5093979650505050505050565b600a54600160b81b900460ff1681565b6060600d805480602002602001604051908101604052809291908181526020018280548015612b1157602002820191906000526020600020905b81546001600160a01b03168152600190910190602001808311612af3575b5050505050905090565b601260209081526000928352604080842090915290825290205481565b6002546001600160a01b031681565b600a54600090600160b01b900460ff1615612b9e576040805162461bcd60e51b81526020600482015260126024820152711d1c985b9cd9995c881a5cc81c185d5cd95960721b604482015290519081900360640190fd5b6000612bab868685614e88565b90508015612bba5790506116e9565b612bc386614897565b612bcf86866000614b15565b6116e386856000614b15565b6060600082519050606081604051908082528060200260200182016040528015612c0f578160200160208202803883390190505b50905060005b82811015612c6a576000858281518110612c2b57fe5b60200260200101519050612c3f8133614f34565b6011811115612c4a57fe5b838381518110612c5657fe5b602090810291909101015250600101612c15565b509392505050565b600480546040805163fc57d4df60e01b81526001600160a01b038781169482019490945290516000938493849391169163fc57d4df91602480820192602092909190829003018186803b158015612cc857600080fd5b505afa158015612cdc573d6000803e3d6000fd5b505050506040513d6020811015612cf257600080fd5b5051600480546040805163fc57d4df60e01b81526001600160a01b038a8116948201949094529051939450600093929091169163fc57d4df91602480820192602092909190829003018186803b158015612d4b57600080fd5b505afa158015612d5f573d6000803e3d6000fd5b505050506040513d6020811015612d7557600080fd5b50519050811580612d84575080155b15612d9957600d935060009250612edf915050565b6000866001600160a01b031663182df0f56040518163ffffffff1660e01b815260040160206040518083038186803b158015612dd457600080fd5b505afa158015612de8573d6000803e3d6000fd5b505050506040513d6020811015612dfe57600080fd5b505190506000612e0c615d59565b612e14615d59565b612e1c615d59565b6000612e2a60065489615055565b945090506000816003811115612e3c57fe5b14612e5857600b5b995060009850612edf975050505050505050565b612e628787615055565b935090506000816003811115612e7457fe5b14612e8057600b612e44565b612e8a8484615090565b925090506000816003811115612e9c57fe5b14612ea857600b612e44565b612eb2828c614d2d565b955090506000816003811115612ec457fe5b14612ed057600b612e44565b60009950939750505050505050505b935093915050565b601360209081526000928352604080842090915290825290205481565b60146020526000908152604090205481565b612f1e614d81565b612f6f576040805162461bcd60e51b815260206004820152601e60248201527f6f6e6c792061646d696e2063616e2061646420636f6d70206d61726b65740000604482015290519081900360640190fd5b60005b8151811015612f9f57612f97828281518110612f8a57fe5b60200260200101516150a8565b600101612f72565b506115fd6140b7565b600a54600090600160b81b900460ff1615612ffc576040805162461bcd60e51b815260206004820152600f60248201526e1cd95a5e99481a5cc81c185d5cd959608a1b604482015290519081900360640190fd5b6001600160a01b03861660009081526009602052604090205460ff16158061303d57506001600160a01b03851660009081526009602052604090205460ff16155b15613049576009612137565b846001600160a01b0316635fe3b5676040518163ffffffff1660e01b815260040160206040518083038186803b15801561308257600080fd5b505afa158015613096573d6000803e3d6000fd5b505050506040513d60208110156130ac57600080fd5b505160408051635fe3b56760e01b815290516001600160a01b0392831692891691635fe3b567916004808301926020929190829003018186803b1580156130f257600080fd5b505afa158015613106573d6000803e3d6000fd5b505050506040513d602081101561311c57600080fd5b50516001600160a01b031614613133576002612137565b61313c86614897565b61314886846000614b15565b61315486856000614b15565b60009695505050505050565b600080546001600160a01b0316331461317f576118686001600d614042565b6007805490839055604080518281526020810185905281517f7093cf1eb653f749c3ff531d6df7f92764536a7fa0d13530cd26e070780c32ea929181900390910190a16000611e33565b6001600160a01b0383166000908152600c602052604081205460ff161561322a576040805162461bcd60e51b815260206004820152601060248201526f189bdc9c9bddc81a5cc81c185d5cd95960821b604482015290519081900360640190fd5b6001600160a01b03841660009081526009602052604090205460ff16613251576009611e11565b6001600160a01b038085166000908152600960209081526040808320938716835260029093019052205460ff1661334157336001600160a01b038516146132d7576040805162461bcd60e51b815260206004820152601560248201527439b2b73232b91036bab9ba1031329031aa37b5b2b760591b604482015290519081900360640190fd5b60006132e33385614f34565b905060008160118111156132f357fe5b1461330c5780601181111561330457fe5b915050611e33565b6001600160a01b038086166000908152600960209081526040808320938816835260029093019052205460ff1661333f57fe5b505b600480546040805163fc57d4df60e01b81526001600160a01b03888116948201949094529051929091169163fc57d4df91602480820192602092909190829003018186803b15801561339257600080fd5b505afa1580156133a6573d6000803e3d6000fd5b505050506040513d60208110156133bc57600080fd5b50516133c957600d611e11565b6001600160a01b0384166000908152601660205260409020548015613514576000856001600160a01b03166347bd37186040518163ffffffff1660e01b815260040160206040518083038186803b15801561342357600080fd5b505afa158015613437573d6000803e3d6000fd5b505050506040513d602081101561344d57600080fd5b5051905060008061345e83876153c3565b9092509050600082600381111561347157fe5b146134bc576040805162461bcd60e51b8152602060048201526016602482015275746f74616c20626f72726f7773206f766572666c6f7760501b604482015290519081900360640190fd5b838110613510576040805162461bcd60e51b815260206004820152601960248201527f6d61726b657420626f72726f7720636170207265616368656400000000000000604482015290519081900360640190fd5b5050505b600080613524868860008861447c565b9193509091506000905082601181111561353a57fe5b146135555781601181111561354b57fe5b9350505050611e33565b801561356257600461354b565b61356a615d59565b6040518060200160405280896001600160a01b031663aa5af0fd6040518163ffffffff1660e01b815260040160206040518083038186803b1580156135ae57600080fd5b505afa1580156135c2573d6000803e3d6000fd5b505050506040513d60208110156135d857600080fd5b5051905290506135e88882613bd0565b6135f58888836000613e58565b600098975050505050505050565b6008602052816000526040600020818154811061361c57fe5b6000918252602090912001546001600160a01b03169150829050565b6003546001600160a01b031681565b600080546001600160a01b0316331461366d5761366660016006614042565b9050611439565b6001600160a01b0383166000908152600960205260409020805460ff166136a25761369a60096007614042565b915050611439565b6136aa615d59565b5060408051602081019091528381526136c1615d59565b506040805160208101909152670c7d713b49da000081526136e281836140b0565b156136fd576136f360066008614042565b9350505050611439565b84158015906137865750600480546040805163fc57d4df60e01b81526001600160a01b038a8116948201949094529051929091169163fc57d4df91602480820192602092909190829003018186803b15801561375857600080fd5b505afa15801561376c573d6000803e3d6000fd5b505050506040513d602081101561378257600080fd5b5051155b15613797576136f3600d6009614042565b60018301805490869055604080516001600160a01b03891681526020810183905280820188905290517f70483e6592cd5182d45ac970e05bc62cdcc90e9d8ef2c2dbe686cf383bcd7fc59181900360600190a16000979650505050505050565b600a54600160a81b900460ff1681565b60055481565b6115fd81600d80548060200260200160405190810160405280929190818152602001828054801561386757602002820191906000526020600020905b81546001600160a01b03168152600190910190602001808311613849575b505050505061143f565b60008061387f858585614e88565b9050801561388e579050611e33565b61389785614897565b6138a385856000614b15565b600095945050505050565b6000808290506000806000836001600160a01b031663c37f68e2336040518263ffffffff1660e01b815260040180826001600160a01b03166001600160a01b0316815260200191505060806040518083038186803b15801561390f57600080fd5b505afa158015613923573d6000803e3d6000fd5b505050506040513d608081101561393957600080fd5b50805160208201516040909201519094509092509050821561398c5760405162461bcd60e51b8152600401808060200182810382526025815260200180615ef46025913960400191505060405180910390fd5b80156139a95761399e600c6002614042565b945050505050611844565b60006139b6873385614e88565b905080156139d7576139cb600e6003836153e9565b95505050505050611844565b6001600160a01b0385166000908152600960209081526040808320338452600281019092529091205460ff16613a165760009650505050505050611844565b3360009081526002820160209081526040808320805460ff191690556008825291829020805483518184028101840190945280845260609392830182828015613a8857602002820191906000526020600020905b81546001600160a01b03168152600190910190602001808311613a6a575b5050835193945083925060009150505b82811015613add57896001600160a01b0316848281518110613ab657fe5b60200260200101516001600160a01b03161415613ad557809150613add565b600101613a98565b50818110613ae757fe5b336000908152600860205260409020805481906000198101908110613b0857fe5b9060005260206000200160009054906101000a90046001600160a01b0316818381548110613b3257fe5b600091825260209091200180546001600160a01b0319166001600160a01b03929092169190911790558054613b6b826000198301615d6c565b50604080516001600160a01b038c16815233602082015281517fe699a64c18b07ac5b7301aa273f36a2287239eb9501d81950672794afba29a0d929181900390910190a160009c9b505050505050505050505050565b6000546001600160a01b031681565b6001600160a01b0382166000908152601160209081526040808320600f9092528220549091613bfd611ce8565b8354909150600090613c1d908390600160e01b900463ffffffff1661544f565b9050600081118015613c2f5750600083115b15613dfe576000613ca4876001600160a01b03166347bd37186040518163ffffffff1660e01b815260040160206040518083038186803b158015613c7257600080fd5b505afa158015613c86573d6000803e3d6000fd5b505050506040513d6020811015613c9c57600080fd5b505187615489565b90506000613cb283866154a7565b9050613cbc615d59565b60008311613cd95760405180602001604052806000815250613ce3565b613ce382846154e9565b9050613ced615d59565b604080516020810190915288546001600160e01b03168152613d0f9083615527565b90506040518060400160405280613d5f83600001516040518060400160405280601a81526020017f6e657720696e646578206578636565647320323234206269747300000000000081525061554c565b6001600160e01b03168152602001613d9a886040518060400160405280601c8152602001600080516020615f198339815191528152506155e6565b63ffffffff9081169091526001600160a01b038c166000908152601160209081526040909120835181549490920151909216600160e01b026001600160e01b039182166001600160e01b0319909416939093171691909117905550611ced92505050565b8015611ced57613e31826040518060400160405280601c8152602001600080516020615f198339815191528152506155e6565b845463ffffffff91909116600160e01b026001600160e01b03909116178455505050505050565b6001600160a01b0384166000908152601160205260409020613e78615d59565b50604080516020810190915281546001600160e01b03168152613e99615d59565b5060408051602080820183526001600160a01b03808a16600090815260138352848120918a16808252828452948120805485528651959091529152919091558051156123fc57613ee7615d59565b613ef1838361563b565b90506000613f80896001600160a01b03166395dd91938a6040518263ffffffff1660e01b815260040180826001600160a01b03166001600160a01b0316815260200191505060206040518083038186803b158015613f4e57600080fd5b505afa158015613f62573d6000803e3d6000fd5b505050506040513d6020811015613f7857600080fd5b505188615489565b90506000613f8e8284615660565b6001600160a01b038a1660009081526014602052604081205491925090613fb5908361568f565b9050613fd68a828a613fce5766038d7ea4c68000613fd1565b60005b6156c5565b6001600160a01b03808c1660008181526014602090815260409182902094909455895181518781529485015280519193928f16927f1fc3ecc087d8d2d15e23d0032af5a47059c3892d003d8e139fdcb6bb327c99a6929081900390910190a35050505050505050505050565b60007f45b96fe442630264581b197e84bbada861235052c5a1aadfff9ea4e40a969aa083601181111561407157fe5b83601381111561407d57fe5b604080519283526020830191909152600082820152519081900360600190a1826011811115611e3357fe5b519051111590565b5190511090565b6060600d80548060200260200160405190810160405280929190818152602001828054801561410f57602002820191906000526020600020905b81546001600160a01b031681526001909101906020018083116140f1575b50939450600093505050505b81518110156141d557600082828151811061413257fe5b60200260200101519050614144615d59565b6040518060200160405280836001600160a01b031663aa5af0fd6040518163ffffffff1660e01b815260040160206040518083038186803b15801561418857600080fd5b505afa15801561419c573d6000803e3d6000fd5b505050506040513d60208110156141b257600080fd5b5051905290506141c182614897565b6141cb8282613bd0565b505060010161411b565b506141de615d59565b6040518060200160405280600081525090506060825160405190808252806020026020018201604052801561422d57816020015b61421a615d59565b8152602001906001900390816142125790505b50905060005b83518110156143b357600084828151811061424a57fe5b6020908102919091018101516001600160a01b0381166000908152600990925260409091206003015490915060ff16156143aa57614286615d59565b60408051602080820180845260045463fc57d4df60e01b9091526001600160a01b03868116602485015293519293849391169163fc57d4df916044808601929190818703018186803b1580156142db57600080fd5b505afa1580156142ef573d6000803e3d6000fd5b505050506040513d602081101561430557600080fd5b505190529050614313615d59565b61438182846001600160a01b03166347bd37186040518163ffffffff1660e01b815260040160206040518083038186803b15801561435057600080fd5b505afa158015614364573d6000803e3d6000fd5b505050506040513d602081101561437a57600080fd5b505161580a565b90508085858151811061439057fe5b60200260200101819052506143a58682615527565b955050505b50600101614233565b5060005b8351811015611ce2576000600d82815481106143cf57fe5b600091825260208220015485516001600160a01b0390911692506143f457600061441c565b61441c600e5461441786868151811061440957fe5b60200260200101518861582b565b61585e565b6001600160a01b0383166000818152600f60209081526040918290208490558151848152915193945091927f2ab93f65628379309f36cb125e90d7c902454a545c4f8b8cb0794af75c24b807929181900390910190a250506001016143b7565b6000806000614489615d90565b6001600160a01b0388166000908152600860209081526040808320805482518185028101850190935280835284936060939291908301828280156144f657602002820191906000526020600020905b81546001600160a01b031681526001909101906020018083116144d8575b50939450600093505050505b815181101561485257600082828151811061451957fe5b60200260200101519050806001600160a01b031663c37f68e28e6040518263ffffffff1660e01b815260040180826001600160a01b03166001600160a01b0316815260200191505060806040518083038186803b15801561457957600080fd5b505afa15801561458d573d6000803e3d6000fd5b505050506040513d60808110156145a357600080fd5b508051602082015160408084015160609485015160808c0152938a019390935291880191909152945084156145e95750600f975060009650869550611d85945050505050565b60408051602080820183526001600160a01b0380851660008181526009845285902060010154845260c08b01939093528351808301855260808b0151815260e08b015260048054855163fc57d4df60e01b815291820194909452935192169263fc57d4df9260248083019392829003018186803b15801561466957600080fd5b505afa15801561467d573d6000803e3d6000fd5b505050506040513d602081101561469357600080fd5b505160a087018190526146b75750600d975060009650869550611d85945050505050565b604080516020810190915260a08701518152610100870181905260c087015160e08801516146e492615877565b610120880152935060008460038111156146fa57fe5b146147165750600b975060009650869550611d85945050505050565b61472e866101200151876040015188600001516158cf565b87529350600084600381111561474057fe5b1461475c5750600b975060009650869550611d85945050505050565b614774866101000151876060015188602001516158cf565b60208801529350600084600381111561478957fe5b146147a55750600b975060009650869550611d85945050505050565b8b6001600160a01b0316816001600160a01b03161415614849576147d38661012001518c88602001516158cf565b6020880152935060008460038111156147e857fe5b146148045750600b975060009650869550611d85945050505050565b6148188661010001518b88602001516158cf565b60208801529350600084600381111561482d57fe5b146148495750600b975060009650869550611d85945050505050565b50600101614502565b50602084015184511115614879575050506020810151905160009450039150829050611d85565b5050815160209092015160009550859450919091039150611d859050565b6001600160a01b0381166000908152601060209081526040808320600f90925282205490916148c4611ce8565b83549091506000906148e4908390600160e01b900463ffffffff1661544f565b90506000811180156148f65750600083115b15614abc576000856001600160a01b03166318160ddd6040518163ffffffff1660e01b815260040160206040518083038186803b15801561493657600080fd5b505afa15801561494a573d6000803e3d6000fd5b505050506040513d602081101561496057600080fd5b50519050600061497083866154a7565b905061497a615d59565b6000831161499757604051806020016040528060008152506149a1565b6149a182846154e9565b90506149ab615d59565b604080516020810190915288546001600160e01b031681526149cd9083615527565b90506040518060400160405280614a1d83600001516040518060400160405280601a81526020017f6e657720696e646578206578636565647320323234206269747300000000000081525061554c565b6001600160e01b03168152602001614a58886040518060400160405280601c8152602001600080516020615f198339815191528152506155e6565b63ffffffff9081169091526001600160a01b038b166000908152601060209081526040909120835181549490920151909216600160e01b026001600160e01b039182166001600160e01b031990941693909317169190911790555061161292505050565b801561161257614aef826040518060400160405280601c8152602001600080516020615f198339815191528152506155e6565b845463ffffffff91909116600160e01b026001600160e01b039091161784555050505050565b6001600160a01b0383166000908152601060205260409020614b35615d59565b50604080516020810190915281546001600160e01b03168152614b56615d59565b5060408051602080820183526001600160a01b03808916600090815260128352848120918916808252828452948120805485528651959091529152919091558051158015614ba45750815115155b15614bbc576ec097ce7bc90715b34b9f100000000081525b614bc4615d59565b614bce838361563b565b90506000876001600160a01b03166370a08231886040518263ffffffff1660e01b815260040180826001600160a01b03166001600160a01b0316815260200191505060206040518083038186803b158015614c2857600080fd5b505afa158015614c3c573d6000803e3d6000fd5b505050506040513d6020811015614c5257600080fd5b505190506000614c628284615660565b6001600160a01b03891660009081526014602052604081205491925090614c89908361568f565b9050614ca289828a613fce5766038d7ea4c68000613fd1565b6001600160a01b03808b1660008181526014602090815260409182902094909455895181518781529485015280519193928e16927f2caecd17d02f56fa897705dcc740da2d237c373f70686f4e0d9bd3bf0400ea7a929081900390910190a350505050505050505050565b6000806000614d2084600080600061447c565b9250925092509193909250565b6000806000614d3a615d59565b614d44868661591c565b90925090506000826003811115614d5757fe5b14614d685750915060009050614d7a565b6000614d7382615984565b9350935050505b9250929050565b600080546001600160a01b0316331480614da557506002546001600160a01b031633145b905090565b60005b600d54811015614e3557816001600160a01b0316600d8281548110614dce57fe5b6000918252602090912001546001600160a01b03161415614e2d576040805162461bcd60e51b81526020600482015260146024820152731b585c9ad95d08185b1c9958591e48185919195960621b604482015290519081900360640190fd5b600101614dad565b50600d80546001810182556000919091527fd7b6990105719101dabeb77144f2a3385c8033acd3af97e9423a695e81ad1eb50180546001600160a01b0319166001600160a01b0392909216919091179055565b6001600160a01b03831660009081526009602052604081205460ff16614eaf576009611e11565b6001600160a01b038085166000908152600960209081526040808320938716835260029093019052205460ff16614ee7576000611e11565b600080614ef7858786600061447c565b91935090915060009050826011811115614f0d57fe5b14614f2757816011811115614f1e57fe5b92505050611e33565b8015613154576004614f1e565b6001600160a01b0382166000908152600960205260408120805460ff16614f5f576009915050611439565b6001600160a01b038316600090815260028201602052604090205460ff16151560011415614f91576000915050611439565b6007546001600160a01b03841660009081526008602052604090205410614fbc576010915050611439565b6001600160a01b0380841660008181526002840160209081526040808320805460ff19166001908117909155600883528184208054918201815584529282902090920180549489166001600160a01b031990951685179055815193845283019190915280517f3ab23ab0d51cccc0c3085aec51f99228625aa1a922b3a8ca89a26b0f2027a1a59281900390910190a15060009392505050565b600061505f615d59565b615085604051806020016040528086815250604051806020016040528086815250615993565b915091509250929050565b600061509a615d59565b835183516150859190615a7c565b6001600160a01b0381166000908152600960205260409020805460ff16151560011461511b576040805162461bcd60e51b815260206004820152601960248201527f636f6d70206d61726b6574206973206e6f74206c697374656400000000000000604482015290519081900360640190fd5b600381015460ff1615615175576040805162461bcd60e51b815260206004820152601960248201527f636f6d70206d61726b657420616c726561647920616464656400000000000000604482015290519081900360640190fd5b60038101805460ff19166001908117909155604080516001600160a01b0385168152602081019290925280517f93c1f3e36ed71139f466a4ce8c9751790e2e33f5afb2df0dcfb3aeabe55d5aa29281900390910190a16001600160a01b0382166000908152601060205260409020546001600160e01b031615801561521d57506001600160a01b038216600090815260106020526040902054600160e01b900463ffffffff16155b156152da5760405180604001604052806ec097ce7bc90715b34b9f10000000006001600160e01b0316815260200161527f615256611ce8565b6040518060400160405280601c8152602001600080516020615f198339815191528152506155e6565b63ffffffff9081169091526001600160a01b0384166000908152601060209081526040909120835181549490920151909216600160e01b026001600160e01b039182166001600160e01b031990941693909317169190911790555b6001600160a01b0382166000908152601160205260409020546001600160e01b031615801561532c57506001600160a01b038216600090815260116020526040902054600160e01b900463ffffffff16155b15611b335760405180604001604052806ec097ce7bc90715b34b9f10000000006001600160e01b03168152602001615365615256611ce8565b63ffffffff9081169091526001600160a01b0384166000908152601160209081526040909120835181549490920151909216600160e01b026001600160e01b039182166001600160e01b031990941693909317169190911790555050565b6000808383018481106153db57600092509050614d7a565b506002915060009050614d7a565b60007f45b96fe442630264581b197e84bbada861235052c5a1aadfff9ea4e40a969aa084601181111561541857fe5b84601381111561542457fe5b604080519283526020830191909152818101859052519081900360600190a1836011811115611e3057fe5b6000611e338383604051806040016040528060158152602001747375627472616374696f6e20756e646572666c6f7760581b815250615b2c565b6000611e336154a084670de0b6b3a76400006154a7565b8351615b86565b6000611e3383836040518060400160405280601781526020017f6d756c7469706c69636174696f6e206f766572666c6f77000000000000000000815250615bb9565b6154f1615d59565b604051806020016040528061551e615518866ec097ce7bc90715b34b9f10000000006154a7565b85615b86565b90529392505050565b61552f615d59565b604051806020016040528061551e8560000151856000015161568f565b600081600160e01b84106155de5760405162461bcd60e51b81526004018080602001828103825283818151815260200191508051906020019080838360005b838110156155a357818101518382015260200161558b565b50505050905090810190601f1680156155d05780820380516001836020036101000a031916815260200191505b509250505060405180910390fd5b509192915050565b600081600160201b84106155de5760405162461bcd60e51b81526020600482018181528351602484015283519092839260449091019190850190808383600083156155a357818101518382015260200161558b565b615643615d59565b604051806020016040528061551e8560000151856000015161544f565b60006ec097ce7bc90715b34b9f10000000006156808484600001516154a7565b8161568757fe5b049392505050565b6000611e338383604051806040016040528060118152602001706164646974696f6e206f766572666c6f7760781b815250615c38565b60008183101580156156d75750600083115b156158025760006156e6612892565b604080516370a0823160e01b815230600482015290519192506000916001600160a01b038416916370a08231916024808301926020929190829003018186803b15801561573257600080fd5b505afa158015615746573d6000803e3d6000fd5b505050506040513d602081101561575c57600080fd5b505190508085116157ff57816001600160a01b031663a9059cbb87876040518363ffffffff1660e01b815260040180836001600160a01b03166001600160a01b0316815260200182815260200192505050602060405180830381600087803b1580156157c757600080fd5b505af11580156157db573d6000803e3d6000fd5b505050506040513d60208110156157f157600080fd5b5060009350611e3392505050565b50505b509092915050565b615812615d59565b604051806020016040528061551e8560000151856154a7565b615833615d59565b604051806020016040528061551e6158578660000151670de0b6b3a76400006154a7565b8551615b86565b6000670de0b6b3a76400006156808484600001516154a7565b6000615881615d59565b600061588b615d59565b6158958787615993565b909250905060008260038111156158a857fe5b146158b7579092509050612edf565b6158c18186615993565b935093505050935093915050565b60008060006158dc615d59565b6158e6878761591c565b909250905060008260038111156158f957fe5b1461590a5750915060009050612edf565b6158c161591682615984565b866153c3565b6000615926615d59565b600080615937866000015186615c8d565b9092509050600082600381111561594a57fe5b1461596957506040805160208101909152600081529092509050614d7a565b60408051602081019091529081526000969095509350505050565b51670de0b6b3a7640000900490565b600061599d615d59565b6000806159b286600001518660000151615c8d565b909250905060008260038111156159c557fe5b146159e457506040805160208101909152600081529092509050614d7a565b6000806159f96706f05b59d3b20000846153c3565b90925090506000826003811115615a0c57fe5b14615a2e57506040805160208101909152600081529094509250614d7a915050565b600080615a4383670de0b6b3a7640000615ccc565b90925090506000826003811115615a5657fe5b14615a5d57fe5b604080516020810190915290815260009a909950975050505050505050565b6000615a86615d59565b600080615a9b86670de0b6b3a7640000615c8d565b90925090506000826003811115615aae57fe5b14615acd57506040805160208101909152600081529092509050614d7a565b600080615ada8388615ccc565b90925090506000826003811115615aed57fe5b14615b0f57506040805160208101909152600081529094509250614d7a915050565b604080516020810190915290815260009890975095505050505050565b60008184841115615b7e5760405162461bcd60e51b81526020600482018181528351602484015283519092839260449091019190850190808383600083156155a357818101518382015260200161558b565b505050900390565b6000611e3383836040518060400160405280600e81526020016d646976696465206279207a65726f60901b815250615cf7565b6000831580615bc6575082155b15615bd357506000611e33565b83830283858281615be057fe5b04148390615c2f5760405162461bcd60e51b81526020600482018181528351602484015283519092839260449091019190850190808383600083156155a357818101518382015260200161558b565b50949350505050565b60008383018285821015615c2f5760405162461bcd60e51b81526020600482018181528351602484015283519092839260449091019190850190808383600083156155a357818101518382015260200161558b565b60008083615ca057506000905080614d7a565b83830283858281615cad57fe5b0414615cc157506002915060009050614d7a565b600092509050614d7a565b60008082615ce05750600190506000614d7a565b6000838581615ceb57fe5b04915091509250929050565b60008183615d465760405162461bcd60e51b81526020600482018181528351602484015283519092839260449091019190850190808383600083156155a357818101518382015260200161558b565b50828481615d5057fe5b04949350505050565b6040518060200160405280600081525090565b81548183558181111561149c5760008381526020902061149c918101908301615dfa565b604051806101400160405280600081526020016000815260200160008152602001600081526020016000815260200160008152602001615dce615d59565b8152602001615ddb615d59565b8152602001615de8615d59565b8152602001615df5615d59565b905290565b611cea91905b80821115615e145760008155600101615e00565b509056fe63616e6e6f742070617573652061206d61726b65742074686174206973206e6f74206c69737465646f6e6c792065787465726e616c6c79206f776e6564206163636f756e7473206d61792072656672657368207370656564736f6e6c7920706175736520677561726469616e20616e642061646d696e2063616e2070617573656f6e6c792061646d696e2063616e2073657420626f72726f772063617020677561726469616e6f6e6c792061646d696e206f7220626f72726f772063617020677561726469616e2063616e2073657420626f72726f772063617073657869744d61726b65743a206765744163636f756e74536e617073686f74206661696c6564626c6f636b206e756d62657220657863656564732033322062697473000000006f6e6c7920756e6974726f6c6c65722061646d696e2063616e206368616e676520627261696e73a265627a7a72315820dbe1c00699b2e8832f0d722c459e420b8d0b2bc2de30f22f42c74f4ddfe1697c64736f6c63430005110032",
      "opcodes": "PUSH1 0x80 PUSH1 0x40 MSTORE CALLVALUE DUP1 ISZERO PUSH2 0x10 JUMPI PUSH1 0x0 DUP1 REVERT JUMPDEST POP PUSH1 0x0 DUP1 SLOAD PUSH1 0x1 PUSH1 0x1 PUSH1 0xA0 SHL SUB NOT AND CALLER OR SWAP1 SSTORE PUSH2 0x5F94 DUP1 PUSH3 0x33 PUSH1 0x0 CODECOPY PUSH1 0x0 RETURN INVALID PUSH1 0x80 PUSH1 0x40 MSTORE CALLVALUE DUP1 ISZERO PUSH2 0x10 JUMPI PUSH1 0x0 DUP1 REVERT JUMPDEST POP PUSH1 0x4 CALLDATASIZE LT PUSH2 0x448 JUMPI PUSH1 0x0 CALLDATALOAD PUSH1 0xE0 SHR DUP1 PUSH4 0x6D154EA5 GT PUSH2 0x241 JUMPI DUP1 PUSH4 0xBB82AA5E GT PUSH2 0x13B JUMPI DUP1 PUSH4 0xDA3D454C GT PUSH2 0xC3 JUMPI DUP1 PUSH4 0xE8755446 GT PUSH2 0x87 JUMPI DUP1 PUSH4 0xE8755446 EQ PUSH2 0x1208 JUMPI DUP1 PUSH4 0xE9AF0292 EQ PUSH2 0x1210 JUMPI DUP1 PUSH4 0xEABE7D91 EQ PUSH2 0x1236 JUMPI DUP1 PUSH4 0xEDE4EDD0 EQ PUSH2 0x126C JUMPI DUP1 PUSH4 0xF851A440 EQ PUSH2 0x1292 JUMPI PUSH2 0x448 JUMP JUMPDEST DUP1 PUSH4 0xDA3D454C EQ PUSH2 0x116A JUMPI DUP1 PUSH4 0xDCE15449 EQ PUSH2 0x11A0 JUMPI DUP1 PUSH4 0xDCFBC0C7 EQ PUSH2 0x11CC JUMPI DUP1 PUSH4 0xE4028EEE EQ PUSH2 0x11D4 JUMPI DUP1 PUSH4 0xE6653F3D EQ PUSH2 0x1200 JUMPI PUSH2 0x448 JUMP JUMPDEST DUP1 PUSH4 0xCA0AF043 GT PUSH2 0x10A JUMPI DUP1 PUSH4 0xCA0AF043 EQ PUSH2 0x1012 JUMPI DUP1 PUSH4 0xCC7EBDC4 EQ PUSH2 0x1040 JUMPI DUP1 PUSH4 0xCE485C5E EQ PUSH2 0x1066 JUMPI DUP1 PUSH4 0xD02F7351 EQ PUSH2 0x1107 JUMPI DUP1 PUSH4 0xD9226CED EQ PUSH2 0x114D JUMPI PUSH2 0x448 JUMP JUMPDEST DUP1 PUSH4 0xBB82AA5E EQ PUSH2 0xEDE JUMPI DUP1 PUSH4 0xBDCDC258 EQ PUSH2 0xEE6 JUMPI DUP1 PUSH4 0xC2998238 EQ PUSH2 0xF22 JUMPI DUP1 PUSH4 0xC488847B EQ PUSH2 0xFC3 JUMPI PUSH2 0x448 JUMP JUMPDEST DUP1 PUSH4 0x929FE9A1 GT PUSH2 0x1C9 JUMPI DUP1 PUSH4 0xAA900754 GT PUSH2 0x18D JUMPI DUP1 PUSH4 0xAA900754 EQ PUSH2 0xE22 JUMPI DUP1 PUSH4 0xABFCEFFC EQ PUSH2 0xE2A JUMPI DUP1 PUSH4 0xAC0B0BB7 EQ PUSH2 0xEA0 JUMPI DUP1 PUSH4 0xB0772D0B EQ PUSH2 0xEA8 JUMPI DUP1 PUSH4 0xB21BE7FD EQ PUSH2 0xEB0 JUMPI PUSH2 0x448 JUMP JUMPDEST DUP1 PUSH4 0x929FE9A1 EQ PUSH2 0xD9A JUMPI DUP1 PUSH4 0x94B2294B EQ PUSH2 0xDC8 JUMPI DUP1 PUSH4 0x9D1B5A0A EQ PUSH2 0xDD0 JUMPI DUP1 PUSH4 0xA76B3FDA EQ PUSH2 0xDD8 JUMPI DUP1 PUSH4 0xA7F0E231 EQ PUSH2 0xDFE JUMPI PUSH2 0x448 JUMP JUMPDEST DUP1 PUSH4 0x7DC0D1D0 GT PUSH2 0x210 JUMPI DUP1 PUSH4 0x7DC0D1D0 EQ PUSH2 0xCFD JUMPI DUP1 PUSH4 0x87F76303 EQ PUSH2 0xD05 JUMPI DUP1 PUSH4 0x8C57804E EQ PUSH2 0xD0D JUMPI DUP1 PUSH4 0x8E8F294B EQ PUSH2 0xD33 JUMPI DUP1 PUSH4 0x8EBF6364 EQ PUSH2 0xD7B JUMPI PUSH2 0x448 JUMP JUMPDEST DUP1 PUSH4 0x6D154EA5 EQ PUSH2 0xC63 JUMPI DUP1 PUSH4 0x6D35BF91 EQ PUSH2 0xC89 JUMPI DUP1 PUSH4 0x731F0C2B EQ PUSH2 0xCCF JUMPI DUP1 PUSH4 0x747026C9 EQ PUSH2 0xCF5 JUMPI PUSH2 0x448 JUMP JUMPDEST DUP1 PUSH4 0x47EF3B3B GT PUSH2 0x352 JUMPI DUP1 PUSH4 0x55EE1FE1 GT PUSH2 0x2DA JUMPI DUP1 PUSH4 0x607EF6C1 GT PUSH2 0x29E JUMPI DUP1 PUSH4 0x607EF6C1 EQ PUSH2 0x9D2 JUMPI DUP1 PUSH4 0x6810DFA6 EQ PUSH2 0xA90 JUMPI DUP1 PUSH4 0x6A491112 EQ PUSH2 0xBBC JUMPI DUP1 PUSH4 0x6A56947E EQ PUSH2 0xBD9 JUMPI DUP1 PUSH4 0x6B79C38D EQ PUSH2 0xC15 JUMPI PUSH2 0x448 JUMP JUMPDEST DUP1 PUSH4 0x55EE1FE1 EQ PUSH2 0x8E4 JUMPI DUP1 PUSH4 0x5C778605 EQ PUSH2 0x90A JUMPI DUP1 PUSH4 0x5EC88C79 EQ PUSH2 0x940 JUMPI DUP1 PUSH4 0x5F5AF1AA EQ PUSH2 0x966 JUMPI DUP1 PUSH4 0x5FC7E71E EQ PUSH2 0x98C JUMPI PUSH2 0x448 JUMP JUMPDEST DUP1 PUSH4 0x4E79238F GT PUSH2 0x321 JUMPI DUP1 PUSH4 0x4E79238F EQ PUSH2 0x7DE JUMPI DUP1 PUSH4 0x4EF4C3E1 EQ PUSH2 0x838 JUMPI DUP1 PUSH4 0x4FD42E17 EQ PUSH2 0x86E JUMPI DUP1 PUSH4 0x51DFF989 EQ PUSH2 0x88B JUMPI DUP1 PUSH4 0x52D84D1E EQ PUSH2 0x8C7 JUMPI PUSH2 0x448 JUMP JUMPDEST DUP1 PUSH4 0x47EF3B3B EQ PUSH2 0x75C JUMPI DUP1 PUSH4 0x4A584432 EQ PUSH2 0x7A8 JUMPI DUP1 PUSH4 0x4ADA90AF EQ PUSH2 0x7CE JUMPI DUP1 PUSH4 0x4D8E5037 EQ PUSH2 0x7D6 JUMPI PUSH2 0x448 JUMP JUMPDEST DUP1 PUSH4 0x26782247 GT PUSH2 0x3D5 JUMPI DUP1 PUSH4 0x3AA729B4 GT PUSH2 0x3A4 JUMPI DUP1 PUSH4 0x3AA729B4 EQ PUSH2 0x6BC JUMPI DUP1 PUSH4 0x3BCF7EC1 EQ PUSH2 0x6E2 JUMPI DUP1 PUSH4 0x3C94786F EQ PUSH2 0x710 JUMPI DUP1 PUSH4 0x41C728B9 EQ PUSH2 0x718 JUMPI DUP1 PUSH4 0x42CBB15C EQ PUSH2 0x754 JUMPI PUSH2 0x448 JUMP JUMPDEST DUP1 PUSH4 0x26782247 EQ PUSH2 0x652 JUMPI DUP1 PUSH4 0x2D70DB78 EQ PUSH2 0x65A JUMPI DUP1 PUSH4 0x317B0B77 EQ PUSH2 0x679 JUMPI DUP1 PUSH4 0x391957D7 EQ PUSH2 0x696 JUMPI PUSH2 0x448 JUMP JUMPDEST DUP1 PUSH4 0x1D7B33D7 GT PUSH2 0x41C JUMPI DUP1 PUSH4 0x1D7B33D7 EQ PUSH2 0x570 JUMPI DUP1 PUSH4 0x1EDEDC91 EQ PUSH2 0x5A8 JUMPI DUP1 PUSH4 0x21AF4569 EQ PUSH2 0x5EA JUMPI DUP1 PUSH4 0x24008A62 EQ PUSH2 0x60E JUMPI DUP1 PUSH4 0x24A3D622 EQ PUSH2 0x64A JUMPI PUSH2 0x448 JUMP JUMPDEST DUP1 PUSH3 0x7E3DD2 EQ PUSH2 0x44D JUMPI DUP1 PUSH4 0x18C882A5 EQ PUSH2 0x469 JUMPI DUP1 PUSH4 0x1C3DB2E0 EQ PUSH2 0x497 JUMPI DUP1 PUSH4 0x1D504DC6 EQ PUSH2 0x54A JUMPI JUMPDEST PUSH1 0x0 DUP1 REVERT JUMPDEST PUSH2 0x455 PUSH2 0x129A JUMP JUMPDEST PUSH1 0x40 DUP1 MLOAD SWAP2 ISZERO ISZERO DUP3 MSTORE MLOAD SWAP1 DUP2 SWAP1 SUB PUSH1 0x20 ADD SWAP1 RETURN JUMPDEST PUSH2 0x455 PUSH1 0x4 DUP1 CALLDATASIZE SUB PUSH1 0x40 DUP2 LT ISZERO PUSH2 0x47F JUMPI PUSH1 0x0 DUP1 REVERT JUMPDEST POP PUSH1 0x1 PUSH1 0x1 PUSH1 0xA0 SHL SUB DUP2 CALLDATALOAD AND SWAP1 PUSH1 0x20 ADD CALLDATALOAD ISZERO ISZERO PUSH2 0x129F JUMP JUMPDEST PUSH2 0x548 PUSH1 0x4 DUP1 CALLDATASIZE SUB PUSH1 0x40 DUP2 LT ISZERO PUSH2 0x4AD JUMPI PUSH1 0x0 DUP1 REVERT JUMPDEST PUSH1 0x1 PUSH1 0x1 PUSH1 0xA0 SHL SUB DUP3 CALLDATALOAD AND SWAP2 SWAP1 DUP2 ADD SWAP1 PUSH1 0x40 DUP2 ADD PUSH1 0x20 DUP3 ADD CALLDATALOAD PUSH1 0x1 PUSH1 0x20 SHL DUP2 GT ISZERO PUSH2 0x4D7 JUMPI PUSH1 0x0 DUP1 REVERT JUMPDEST DUP3 ADD DUP4 PUSH1 0x20 DUP3 ADD GT ISZERO PUSH2 0x4E9 JUMPI PUSH1 0x0 DUP1 REVERT JUMPDEST DUP1 CALLDATALOAD SWAP1 PUSH1 0x20 ADD SWAP2 DUP5 PUSH1 0x20 DUP4 MUL DUP5 ADD GT PUSH1 0x1 PUSH1 0x20 SHL DUP4 GT OR ISZERO PUSH2 0x50A JUMPI PUSH1 0x0 DUP1 REVERT JUMPDEST SWAP2 SWAP1 DUP1 DUP1 PUSH1 0x20 MUL PUSH1 0x20 ADD PUSH1 0x40 MLOAD SWAP1 DUP2 ADD PUSH1 0x40 MSTORE DUP1 SWAP4 SWAP3 SWAP2 SWAP1 DUP2 DUP2 MSTORE PUSH1 0x20 ADD DUP4 DUP4 PUSH1 0x20 MUL DUP1 DUP3 DUP5 CALLDATACOPY PUSH1 0x0 SWAP3 ADD SWAP2 SWAP1 SWAP2 MSTORE POP SWAP3 SWAP6 POP PUSH2 0x143F SWAP5 POP POP POP POP POP JUMP JUMPDEST STOP JUMPDEST PUSH2 0x548 PUSH1 0x4 DUP1 CALLDATASIZE SUB PUSH1 0x20 DUP2 LT ISZERO PUSH2 0x560 JUMPI PUSH1 0x0 DUP1 REVERT JUMPDEST POP CALLDATALOAD PUSH1 0x1 PUSH1 0x1 PUSH1 0xA0 SHL SUB AND PUSH2 0x14A1 JUMP JUMPDEST PUSH2 0x596 PUSH1 0x4 DUP1 CALLDATASIZE SUB PUSH1 0x20 DUP2 LT ISZERO PUSH2 0x586 JUMPI PUSH1 0x0 DUP1 REVERT JUMPDEST POP CALLDATALOAD PUSH1 0x1 PUSH1 0x1 PUSH1 0xA0 SHL SUB AND PUSH2 0x1600 JUMP JUMPDEST PUSH1 0x40 DUP1 MLOAD SWAP2 DUP3 MSTORE MLOAD SWAP1 DUP2 SWAP1 SUB PUSH1 0x20 ADD SWAP1 RETURN JUMPDEST PUSH2 0x548 PUSH1 0x4 DUP1 CALLDATASIZE SUB PUSH1 0xA0 DUP2 LT ISZERO PUSH2 0x5BE JUMPI PUSH1 0x0 DUP1 REVERT JUMPDEST POP PUSH1 0x1 PUSH1 0x1 PUSH1 0xA0 SHL SUB DUP2 CALLDATALOAD DUP2 AND SWAP2 PUSH1 0x20 DUP2 ADD CALLDATALOAD DUP3 AND SWAP2 PUSH1 0x40 DUP3 ADD CALLDATALOAD AND SWAP1 PUSH1 0x60 DUP2 ADD CALLDATALOAD SWAP1 PUSH1 0x80 ADD CALLDATALOAD PUSH2 0x1612 JUMP JUMPDEST PUSH2 0x5F2 PUSH2 0x1619 JUMP JUMPDEST PUSH1 0x40 DUP1 MLOAD PUSH1 0x1 PUSH1 0x1 PUSH1 0xA0 SHL SUB SWAP1 SWAP3 AND DUP3 MSTORE MLOAD SWAP1 DUP2 SWAP1 SUB PUSH1 0x20 ADD SWAP1 RETURN JUMPDEST PUSH2 0x596 PUSH1 0x4 DUP1 CALLDATASIZE SUB PUSH1 0x80 DUP2 LT ISZERO PUSH2 0x624 JUMPI PUSH1 0x0 DUP1 REVERT JUMPDEST POP PUSH1 0x1 PUSH1 0x1 PUSH1 0xA0 SHL SUB DUP2 CALLDATALOAD DUP2 AND SWAP2 PUSH1 0x20 DUP2 ADD CALLDATALOAD DUP3 AND SWAP2 PUSH1 0x40 DUP3 ADD CALLDATALOAD AND SWAP1 PUSH1 0x60 ADD CALLDATALOAD PUSH2 0x1628 JUMP JUMPDEST PUSH2 0x5F2 PUSH2 0x16F1 JUMP JUMPDEST PUSH2 0x5F2 PUSH2 0x1700 JUMP JUMPDEST PUSH2 0x455 PUSH1 0x4 DUP1 CALLDATASIZE SUB PUSH1 0x20 DUP2 LT ISZERO PUSH2 0x670 JUMPI PUSH1 0x0 DUP1 REVERT JUMPDEST POP CALLDATALOAD ISZERO ISZERO PUSH2 0x170F JUMP JUMPDEST PUSH2 0x596 PUSH1 0x4 DUP1 CALLDATASIZE SUB PUSH1 0x20 DUP2 LT ISZERO PUSH2 0x68F JUMPI PUSH1 0x0 DUP1 REVERT JUMPDEST POP CALLDATALOAD PUSH2 0x1849 JUMP JUMPDEST PUSH2 0x548 PUSH1 0x4 DUP1 CALLDATASIZE SUB PUSH1 0x20 DUP2 LT ISZERO PUSH2 0x6AC JUMPI PUSH1 0x0 DUP1 REVERT JUMPDEST POP CALLDATALOAD PUSH1 0x1 PUSH1 0x1 PUSH1 0xA0 SHL SUB AND PUSH2 0x195A JUMP JUMPDEST PUSH2 0x548 PUSH1 0x4 DUP1 CALLDATASIZE SUB PUSH1 0x20 DUP2 LT ISZERO PUSH2 0x6D2 JUMPI PUSH1 0x0 DUP1 REVERT JUMPDEST POP CALLDATALOAD PUSH1 0x1 PUSH1 0x1 PUSH1 0xA0 SHL SUB AND PUSH2 0x1A06 JUMP JUMPDEST PUSH2 0x455 PUSH1 0x4 DUP1 CALLDATASIZE SUB PUSH1 0x40 DUP2 LT ISZERO PUSH2 0x6F8 JUMPI PUSH1 0x0 DUP1 REVERT JUMPDEST POP PUSH1 0x1 PUSH1 0x1 PUSH1 0xA0 SHL SUB DUP2 CALLDATALOAD AND SWAP1 PUSH1 0x20 ADD CALLDATALOAD ISZERO ISZERO PUSH2 0x1B37 JUMP JUMPDEST PUSH2 0x455 PUSH2 0x1CD2 JUMP JUMPDEST PUSH2 0x548 PUSH1 0x4 DUP1 CALLDATASIZE SUB PUSH1 0x80 DUP2 LT ISZERO PUSH2 0x72E JUMPI PUSH1 0x0 DUP1 REVERT JUMPDEST POP PUSH1 0x1 PUSH1 0x1 PUSH1 0xA0 SHL SUB DUP2 CALLDATALOAD DUP2 AND SWAP2 PUSH1 0x20 DUP2 ADD CALLDATALOAD SWAP1 SWAP2 AND SWAP1 PUSH1 0x40 DUP2 ADD CALLDATALOAD SWAP1 PUSH1 0x60 ADD CALLDATALOAD PUSH2 0x1CE2 JUMP JUMPDEST PUSH2 0x596 PUSH2 0x1CE8 JUMP JUMPDEST PUSH2 0x548 PUSH1 0x4 DUP1 CALLDATASIZE SUB PUSH1 0xC0 DUP2 LT ISZERO PUSH2 0x772 JUMPI PUSH1 0x0 DUP1 REVERT JUMPDEST POP PUSH1 0x1 PUSH1 0x1 PUSH1 0xA0 SHL SUB DUP2 CALLDATALOAD DUP2 AND SWAP2 PUSH1 0x20 DUP2 ADD CALLDATALOAD DUP3 AND SWAP2 PUSH1 0x40 DUP3 ADD CALLDATALOAD DUP2 AND SWAP2 PUSH1 0x60 DUP2 ADD CALLDATALOAD SWAP1 SWAP2 AND SWAP1 PUSH1 0x80 DUP2 ADD CALLDATALOAD SWAP1 PUSH1 0xA0 ADD CALLDATALOAD PUSH2 0x1CED JUMP JUMPDEST PUSH2 0x596 PUSH1 0x4 DUP1 CALLDATASIZE SUB PUSH1 0x20 DUP2 LT ISZERO PUSH2 0x7BE JUMPI PUSH1 0x0 DUP1 REVERT JUMPDEST POP CALLDATALOAD PUSH1 0x1 PUSH1 0x1 PUSH1 0xA0 SHL SUB AND PUSH2 0x1CF5 JUMP JUMPDEST PUSH2 0x596 PUSH2 0x1D07 JUMP JUMPDEST PUSH2 0x548 PUSH2 0x1D0D JUMP JUMPDEST PUSH2 0x81A PUSH1 0x4 DUP1 CALLDATASIZE SUB PUSH1 0x80 DUP2 LT ISZERO PUSH2 0x7F4 JUMPI PUSH1 0x0 DUP1 REVERT JUMPDEST POP PUSH1 0x1 PUSH1 0x1 PUSH1 0xA0 SHL SUB DUP2 CALLDATALOAD DUP2 AND SWAP2 PUSH1 0x20 DUP2 ADD CALLDATALOAD SWAP1 SWAP2 AND SWAP1 PUSH1 0x40 DUP2 ADD CALLDATALOAD SWAP1 PUSH1 0x60 ADD CALLDATALOAD PUSH2 0x1D55 JUMP JUMPDEST PUSH1 0x40 DUP1 MLOAD SWAP4 DUP5 MSTORE PUSH1 0x20 DUP5 ADD SWAP3 SWAP1 SWAP3 MSTORE DUP3 DUP3 ADD MSTORE MLOAD SWAP1 DUP2 SWAP1 SUB PUSH1 0x60 ADD SWAP1 RETURN JUMPDEST PUSH2 0x596 PUSH1 0x4 DUP1 CALLDATASIZE SUB PUSH1 0x60 DUP2 LT ISZERO PUSH2 0x84E JUMPI PUSH1 0x0 DUP1 REVERT JUMPDEST POP PUSH1 0x1 PUSH1 0x1 PUSH1 0xA0 SHL SUB DUP2 CALLDATALOAD DUP2 AND SWAP2 PUSH1 0x20 DUP2 ADD CALLDATALOAD SWAP1 SWAP2 AND SWAP1 PUSH1 0x40 ADD CALLDATALOAD PUSH2 0x1D8F JUMP JUMPDEST PUSH2 0x596 PUSH1 0x4 DUP1 CALLDATASIZE SUB PUSH1 0x20 DUP2 LT ISZERO PUSH2 0x884 JUMPI PUSH1 0x0 DUP1 REVERT JUMPDEST POP CALLDATALOAD PUSH2 0x1E3A JUMP JUMPDEST PUSH2 0x548 PUSH1 0x4 DUP1 CALLDATASIZE SUB PUSH1 0x80 DUP2 LT ISZERO PUSH2 0x8A1 JUMPI PUSH1 0x0 DUP1 REVERT JUMPDEST POP PUSH1 0x1 PUSH1 0x1 PUSH1 0xA0 SHL SUB DUP2 CALLDATALOAD DUP2 AND SWAP2 PUSH1 0x20 DUP2 ADD CALLDATALOAD SWAP1 SWAP2 AND SWAP1 PUSH1 0x40 DUP2 ADD CALLDATALOAD SWAP1 PUSH1 0x60 ADD CALLDATALOAD PUSH2 0x1F2E JUMP JUMPDEST PUSH2 0x5F2 PUSH1 0x4 DUP1 CALLDATASIZE SUB PUSH1 0x20 DUP2 LT ISZERO PUSH2 0x8DD JUMPI PUSH1 0x0 DUP1 REVERT JUMPDEST POP CALLDATALOAD PUSH2 0x1F82 JUMP JUMPDEST PUSH2 0x596 PUSH1 0x4 DUP1 CALLDATASIZE SUB PUSH1 0x20 DUP2 LT ISZERO PUSH2 0x8FA JUMPI PUSH1 0x0 DUP1 REVERT JUMPDEST POP CALLDATALOAD PUSH1 0x1 PUSH1 0x1 PUSH1 0xA0 SHL SUB AND PUSH2 0x1FA9 JUMP JUMPDEST PUSH2 0x548 PUSH1 0x4 DUP1 CALLDATASIZE SUB PUSH1 0x60 DUP2 LT ISZERO PUSH2 0x920 JUMPI PUSH1 0x0 DUP1 REVERT JUMPDEST POP PUSH1 0x1 PUSH1 0x1 PUSH1 0xA0 SHL SUB DUP2 CALLDATALOAD DUP2 AND SWAP2 PUSH1 0x20 DUP2 ADD CALLDATALOAD SWAP1 SWAP2 AND SWAP1 PUSH1 0x40 ADD CALLDATALOAD PUSH2 0x2030 JUMP JUMPDEST PUSH2 0x81A PUSH1 0x4 DUP1 CALLDATASIZE SUB PUSH1 0x20 DUP2 LT ISZERO PUSH2 0x956 JUMPI PUSH1 0x0 DUP1 REVERT JUMPDEST POP CALLDATALOAD PUSH1 0x1 PUSH1 0x1 PUSH1 0xA0 SHL SUB AND PUSH2 0x2035 JUMP JUMPDEST PUSH2 0x596 PUSH1 0x4 DUP1 CALLDATASIZE SUB PUSH1 0x20 DUP2 LT ISZERO PUSH2 0x97C JUMPI PUSH1 0x0 DUP1 REVERT JUMPDEST POP CALLDATALOAD PUSH1 0x1 PUSH1 0x1 PUSH1 0xA0 SHL SUB AND PUSH2 0x206A JUMP JUMPDEST PUSH2 0x596 PUSH1 0x4 DUP1 CALLDATASIZE SUB PUSH1 0xA0 DUP2 LT ISZERO PUSH2 0x9A2 JUMPI PUSH1 0x0 DUP1 REVERT JUMPDEST POP PUSH1 0x1 PUSH1 0x1 PUSH1 0xA0 SHL SUB DUP2 CALLDATALOAD DUP2 AND SWAP2 PUSH1 0x20 DUP2 ADD CALLDATALOAD DUP3 AND SWAP2 PUSH1 0x40 DUP3 ADD CALLDATALOAD DUP2 AND SWAP2 PUSH1 0x60 DUP2 ADD CALLDATALOAD SWAP1 SWAP2 AND SWAP1 PUSH1 0x80 ADD CALLDATALOAD PUSH2 0x20EE JUMP JUMPDEST PUSH2 0x548 PUSH1 0x4 DUP1 CALLDATASIZE SUB PUSH1 0x40 DUP2 LT ISZERO PUSH2 0x9E8 JUMPI PUSH1 0x0 DUP1 REVERT JUMPDEST DUP2 ADD SWAP1 PUSH1 0x20 DUP2 ADD DUP2 CALLDATALOAD PUSH1 0x1 PUSH1 0x20 SHL DUP2 GT ISZERO PUSH2 0xA02 JUMPI PUSH1 0x0 DUP1 REVERT JUMPDEST DUP3 ADD DUP4 PUSH1 0x20 DUP3 ADD GT ISZERO PUSH2 0xA14 JUMPI PUSH1 0x0 DUP1 REVERT JUMPDEST DUP1 CALLDATALOAD SWAP1 PUSH1 0x20 ADD SWAP2 DUP5 PUSH1 0x20 DUP4 MUL DUP5 ADD GT PUSH1 0x1 PUSH1 0x20 SHL DUP4 GT OR ISZERO PUSH2 0xA35 JUMPI PUSH1 0x0 DUP1 REVERT JUMPDEST SWAP2 SWAP4 SWAP1 SWAP3 SWAP1 SWAP2 PUSH1 0x20 DUP2 ADD SWAP1 CALLDATALOAD PUSH1 0x1 PUSH1 0x20 SHL DUP2 GT ISZERO PUSH2 0xA52 JUMPI PUSH1 0x0 DUP1 REVERT JUMPDEST DUP3 ADD DUP4 PUSH1 0x20 DUP3 ADD GT ISZERO PUSH2 0xA64 JUMPI PUSH1 0x0 DUP1 REVERT JUMPDEST DUP1 CALLDATALOAD SWAP1 PUSH1 0x20 ADD SWAP2 DUP5 PUSH1 0x20 DUP4 MUL DUP5 ADD GT PUSH1 0x1 PUSH1 0x20 SHL DUP4 GT OR ISZERO PUSH2 0xA85 JUMPI PUSH1 0x0 DUP1 REVERT JUMPDEST POP SWAP1 SWAP3 POP SWAP1 POP PUSH2 0x2275 JUMP JUMPDEST PUSH2 0x548 PUSH1 0x4 DUP1 CALLDATASIZE SUB PUSH1 0x80 DUP2 LT ISZERO PUSH2 0xAA6 JUMPI PUSH1 0x0 DUP1 REVERT JUMPDEST DUP2 ADD SWAP1 PUSH1 0x20 DUP2 ADD DUP2 CALLDATALOAD PUSH1 0x1 PUSH1 0x20 SHL DUP2 GT ISZERO PUSH2 0xAC0 JUMPI PUSH1 0x0 DUP1 REVERT JUMPDEST DUP3 ADD DUP4 PUSH1 0x20 DUP3 ADD GT ISZERO PUSH2 0xAD2 JUMPI PUSH1 0x0 DUP1 REVERT JUMPDEST DUP1 CALLDATALOAD SWAP1 PUSH1 0x20 ADD SWAP2 DUP5 PUSH1 0x20 DUP4 MUL DUP5 ADD GT PUSH1 0x1 PUSH1 0x20 SHL DUP4 GT OR ISZERO PUSH2 0xAF3 JUMPI PUSH1 0x0 DUP1 REVERT JUMPDEST SWAP2 SWAP1 DUP1 DUP1 PUSH1 0x20 MUL PUSH1 0x20 ADD PUSH1 0x40 MLOAD SWAP1 DUP2 ADD PUSH1 0x40 MSTORE DUP1 SWAP4 SWAP3 SWAP2 SWAP1 DUP2 DUP2 MSTORE PUSH1 0x20 ADD DUP4 DUP4 PUSH1 0x20 MUL DUP1 DUP3 DUP5 CALLDATACOPY PUSH1 0x0 SWAP3 ADD SWAP2 SWAP1 SWAP2 MSTORE POP SWAP3 SWAP6 SWAP5 SWAP4 PUSH1 0x20 DUP2 ADD SWAP4 POP CALLDATALOAD SWAP2 POP POP PUSH1 0x1 PUSH1 0x20 SHL DUP2 GT ISZERO PUSH2 0xB42 JUMPI PUSH1 0x0 DUP1 REVERT JUMPDEST DUP3 ADD DUP4 PUSH1 0x20 DUP3 ADD GT ISZERO PUSH2 0xB54 JUMPI PUSH1 0x0 DUP1 REVERT JUMPDEST DUP1 CALLDATALOAD SWAP1 PUSH1 0x20 ADD SWAP2 DUP5 PUSH1 0x20 DUP4 MUL DUP5 ADD GT PUSH1 0x1 PUSH1 0x20 SHL DUP4 GT OR ISZERO PUSH2 0xB75 JUMPI PUSH1 0x0 DUP1 REVERT JUMPDEST SWAP2 SWAP1 DUP1 DUP1 PUSH1 0x20 MUL PUSH1 0x20 ADD PUSH1 0x40 MLOAD SWAP1 DUP2 ADD PUSH1 0x40 MSTORE DUP1 SWAP4 SWAP3 SWAP2 SWAP1 DUP2 DUP2 MSTORE PUSH1 0x20 ADD DUP4 DUP4 PUSH1 0x20 MUL DUP1 DUP3 DUP5 CALLDATACOPY PUSH1 0x0 SWAP3 ADD SWAP2 SWAP1 SWAP2 MSTORE POP SWAP3 SWAP6 POP POP POP POP DUP1 CALLDATALOAD ISZERO ISZERO SWAP2 POP PUSH1 0x20 ADD CALLDATALOAD ISZERO ISZERO PUSH2 0x2405 JUMP JUMPDEST PUSH2 0x548 PUSH1 0x4 DUP1 CALLDATASIZE SUB PUSH1 0x20 DUP2 LT ISZERO PUSH2 0xBD2 JUMPI PUSH1 0x0 DUP1 REVERT JUMPDEST POP CALLDATALOAD PUSH2 0x25AE JUMP JUMPDEST PUSH2 0x548 PUSH1 0x4 DUP1 CALLDATASIZE SUB PUSH1 0x80 DUP2 LT ISZERO PUSH2 0xBEF JUMPI PUSH1 0x0 DUP1 REVERT JUMPDEST POP PUSH1 0x1 PUSH1 0x1 PUSH1 0xA0 SHL SUB DUP2 CALLDATALOAD DUP2 AND SWAP2 PUSH1 0x20 DUP2 ADD CALLDATALOAD DUP3 AND SWAP2 PUSH1 0x40 DUP3 ADD CALLDATALOAD AND SWAP1 PUSH1 0x60 ADD CALLDATALOAD PUSH2 0x1CE2 JUMP JUMPDEST PUSH2 0xC3B PUSH1 0x4 DUP1 CALLDATASIZE SUB PUSH1 0x20 DUP2 LT ISZERO PUSH2 0xC2B JUMPI PUSH1 0x0 DUP1 REVERT JUMPDEST POP CALLDATALOAD PUSH1 0x1 PUSH1 0x1 PUSH1 0xA0 SHL SUB AND PUSH2 0x2652 JUMP JUMPDEST PUSH1 0x40 DUP1 MLOAD PUSH1 0x1 PUSH1 0x1 PUSH1 0xE0 SHL SUB SWAP1 SWAP4 AND DUP4 MSTORE PUSH4 0xFFFFFFFF SWAP1 SWAP2 AND PUSH1 0x20 DUP4 ADD MSTORE DUP1 MLOAD SWAP2 DUP3 SWAP1 SUB ADD SWAP1 RETURN JUMPDEST PUSH2 0x455 PUSH1 0x4 DUP1 CALLDATASIZE SUB PUSH1 0x20 DUP2 LT ISZERO PUSH2 0xC79 JUMPI PUSH1 0x0 DUP1 REVERT JUMPDEST POP CALLDATALOAD PUSH1 0x1 PUSH1 0x1 PUSH1 0xA0 SHL SUB AND PUSH2 0x267C JUMP JUMPDEST PUSH2 0x548 PUSH1 0x4 DUP1 CALLDATASIZE SUB PUSH1 0xA0 DUP2 LT ISZERO PUSH2 0xC9F JUMPI PUSH1 0x0 DUP1 REVERT JUMPDEST POP PUSH1 0x1 PUSH1 0x1 PUSH1 0xA0 SHL SUB DUP2 CALLDATALOAD DUP2 AND SWAP2 PUSH1 0x20 DUP2 ADD CALLDATALOAD DUP3 AND SWAP2 PUSH1 0x40 DUP3 ADD CALLDATALOAD DUP2 AND SWAP2 PUSH1 0x60 DUP2 ADD CALLDATALOAD SWAP1 SWAP2 AND SWAP1 PUSH1 0x80 ADD CALLDATALOAD PUSH2 0x1612 JUMP JUMPDEST PUSH2 0x455 PUSH1 0x4 DUP1 CALLDATASIZE SUB PUSH1 0x20 DUP2 LT ISZERO PUSH2 0xCE5 JUMPI PUSH1 0x0 DUP1 REVERT JUMPDEST POP CALLDATALOAD PUSH1 0x1 PUSH1 0x1 PUSH1 0xA0 SHL SUB AND PUSH2 0x2691 JUMP JUMPDEST PUSH2 0x596 PUSH2 0x26A6 JUMP JUMPDEST PUSH2 0x5F2 PUSH2 0x26B1 JUMP JUMPDEST PUSH2 0x455 PUSH2 0x26C0 JUMP JUMPDEST PUSH2 0xC3B PUSH1 0x4 DUP1 CALLDATASIZE SUB PUSH1 0x20 DUP2 LT ISZERO PUSH2 0xD23 JUMPI PUSH1 0x0 DUP1 REVERT JUMPDEST POP CALLDATALOAD PUSH1 0x1 PUSH1 0x1 PUSH1 0xA0 SHL SUB AND PUSH2 0x26D0 JUMP JUMPDEST PUSH2 0xD59 PUSH1 0x4 DUP1 CALLDATASIZE SUB PUSH1 0x20 DUP2 LT ISZERO PUSH2 0xD49 JUMPI PUSH1 0x0 DUP1 REVERT JUMPDEST POP CALLDATALOAD PUSH1 0x1 PUSH1 0x1 PUSH1 0xA0 SHL SUB AND PUSH2 0x26FA JUMP JUMPDEST PUSH1 0x40 DUP1 MLOAD SWAP4 ISZERO ISZERO DUP5 MSTORE PUSH1 0x20 DUP5 ADD SWAP3 SWAP1 SWAP3 MSTORE ISZERO ISZERO DUP3 DUP3 ADD MSTORE MLOAD SWAP1 DUP2 SWAP1 SUB PUSH1 0x60 ADD SWAP1 RETURN JUMPDEST PUSH2 0x455 PUSH1 0x4 DUP1 CALLDATASIZE SUB PUSH1 0x20 DUP2 LT ISZERO PUSH2 0xD91 JUMPI PUSH1 0x0 DUP1 REVERT JUMPDEST POP CALLDATALOAD ISZERO ISZERO PUSH2 0x2720 JUMP JUMPDEST PUSH2 0x455 PUSH1 0x4 DUP1 CALLDATASIZE SUB PUSH1 0x40 DUP2 LT ISZERO PUSH2 0xDB0 JUMPI PUSH1 0x0 DUP1 REVERT JUMPDEST POP PUSH1 0x1 PUSH1 0x1 PUSH1 0xA0 SHL SUB DUP2 CALLDATALOAD DUP2 AND SWAP2 PUSH1 0x20 ADD CALLDATALOAD AND PUSH2 0x2859 JUMP JUMPDEST PUSH2 0x596 PUSH2 0x288C JUMP JUMPDEST PUSH2 0x5F2 PUSH2 0x2892 JUMP JUMPDEST PUSH2 0x596 PUSH1 0x4 DUP1 CALLDATASIZE SUB PUSH1 0x20 DUP2 LT ISZERO PUSH2 0xDEE JUMPI PUSH1 0x0 DUP1 REVERT JUMPDEST POP CALLDATALOAD PUSH1 0x1 PUSH1 0x1 PUSH1 0xA0 SHL SUB AND PUSH2 0x28AA JUMP JUMPDEST PUSH2 0xE06 PUSH2 0x2A07 JUMP JUMPDEST PUSH1 0x40 DUP1 MLOAD PUSH1 0x1 PUSH1 0x1 PUSH1 0xE0 SHL SUB SWAP1 SWAP3 AND DUP3 MSTORE MLOAD SWAP1 DUP2 SWAP1 SUB PUSH1 0x20 ADD SWAP1 RETURN JUMPDEST PUSH2 0x596 PUSH2 0x2A1A JUMP JUMPDEST PUSH2 0xE50 PUSH1 0x4 DUP1 CALLDATASIZE SUB PUSH1 0x20 DUP2 LT ISZERO PUSH2 0xE40 JUMPI PUSH1 0x0 DUP1 REVERT JUMPDEST POP CALLDATALOAD PUSH1 0x1 PUSH1 0x1 PUSH1 0xA0 SHL SUB AND PUSH2 0x2A20 JUMP JUMPDEST PUSH1 0x40 DUP1 MLOAD PUSH1 0x20 DUP1 DUP3 MSTORE DUP4 MLOAD DUP2 DUP4 ADD MSTORE DUP4 MLOAD SWAP2 SWAP3 DUP4 SWAP3 SWAP1 DUP4 ADD SWAP2 DUP6 DUP2 ADD SWAP2 MUL DUP1 DUP4 DUP4 PUSH1 0x0 JUMPDEST DUP4 DUP2 LT ISZERO PUSH2 0xE8C JUMPI DUP2 DUP2 ADD MLOAD DUP4 DUP3 ADD MSTORE PUSH1 0x20 ADD PUSH2 0xE74 JUMP JUMPDEST POP POP POP POP SWAP1 POP ADD SWAP3 POP POP POP PUSH1 0x40 MLOAD DUP1 SWAP2 SUB SWAP1 RETURN JUMPDEST PUSH2 0x455 PUSH2 0x2AA9 JUMP JUMPDEST PUSH2 0xE50 PUSH2 0x2AB9 JUMP JUMPDEST PUSH2 0x596 PUSH1 0x4 DUP1 CALLDATASIZE SUB PUSH1 0x40 DUP2 LT ISZERO PUSH2 0xEC6 JUMPI PUSH1 0x0 DUP1 REVERT JUMPDEST POP PUSH1 0x1 PUSH1 0x1 PUSH1 0xA0 SHL SUB DUP2 CALLDATALOAD DUP2 AND SWAP2 PUSH1 0x20 ADD CALLDATALOAD AND PUSH2 0x2B1B JUMP JUMPDEST PUSH2 0x5F2 PUSH2 0x2B38 JUMP JUMPDEST PUSH2 0x596 PUSH1 0x4 DUP1 CALLDATASIZE SUB PUSH1 0x80 DUP2 LT ISZERO PUSH2 0xEFC JUMPI PUSH1 0x0 DUP1 REVERT JUMPDEST POP PUSH1 0x1 PUSH1 0x1 PUSH1 0xA0 SHL SUB DUP2 CALLDATALOAD DUP2 AND SWAP2 PUSH1 0x20 DUP2 ADD CALLDATALOAD DUP3 AND SWAP2 PUSH1 0x40 DUP3 ADD CALLDATALOAD AND SWAP1 PUSH1 0x60 ADD CALLDATALOAD PUSH2 0x2B47 JUMP JUMPDEST PUSH2 0xE50 PUSH1 0x4 DUP1 CALLDATASIZE SUB PUSH1 0x20 DUP2 LT ISZERO PUSH2 0xF38 JUMPI PUSH1 0x0 DUP1 REVERT JUMPDEST DUP2 ADD SWAP1 PUSH1 0x20 DUP2 ADD DUP2 CALLDATALOAD PUSH1 0x1 PUSH1 0x20 SHL DUP2 GT ISZERO PUSH2 0xF52 JUMPI PUSH1 0x0 DUP1 REVERT JUMPDEST DUP3 ADD DUP4 PUSH1 0x20 DUP3 ADD GT ISZERO PUSH2 0xF64 JUMPI PUSH1 0x0 DUP1 REVERT JUMPDEST DUP1 CALLDATALOAD SWAP1 PUSH1 0x20 ADD SWAP2 DUP5 PUSH1 0x20 DUP4 MUL DUP5 ADD GT PUSH1 0x1 PUSH1 0x20 SHL DUP4 GT OR ISZERO PUSH2 0xF85 JUMPI PUSH1 0x0 DUP1 REVERT JUMPDEST SWAP2 SWAP1 DUP1 DUP1 PUSH1 0x20 MUL PUSH1 0x20 ADD PUSH1 0x40 MLOAD SWAP1 DUP2 ADD PUSH1 0x40 MSTORE DUP1 SWAP4 SWAP3 SWAP2 SWAP1 DUP2 DUP2 MSTORE PUSH1 0x20 ADD DUP4 DUP4 PUSH1 0x20 MUL DUP1 DUP3 DUP5 CALLDATACOPY PUSH1 0x0 SWAP3 ADD SWAP2 SWAP1 SWAP2 MSTORE POP SWAP3 SWAP6 POP PUSH2 0x2BDB SWAP5 POP POP POP POP POP JUMP JUMPDEST PUSH2 0xFF9 PUSH1 0x4 DUP1 CALLDATASIZE SUB PUSH1 0x60 DUP2 LT ISZERO PUSH2 0xFD9 JUMPI PUSH1 0x0 DUP1 REVERT JUMPDEST POP PUSH1 0x1 PUSH1 0x1 PUSH1 0xA0 SHL SUB DUP2 CALLDATALOAD DUP2 AND SWAP2 PUSH1 0x20 DUP2 ADD CALLDATALOAD SWAP1 SWAP2 AND SWAP1 PUSH1 0x40 ADD CALLDATALOAD PUSH2 0x2C72 JUMP JUMPDEST PUSH1 0x40 DUP1 MLOAD SWAP3 DUP4 MSTORE PUSH1 0x20 DUP4 ADD SWAP2 SWAP1 SWAP2 MSTORE DUP1 MLOAD SWAP2 DUP3 SWAP1 SUB ADD SWAP1 RETURN JUMPDEST PUSH2 0x596 PUSH1 0x4 DUP1 CALLDATASIZE SUB PUSH1 0x40 DUP2 LT ISZERO PUSH2 0x1028 JUMPI PUSH1 0x0 DUP1 REVERT JUMPDEST POP PUSH1 0x1 PUSH1 0x1 PUSH1 0xA0 SHL SUB DUP2 CALLDATALOAD DUP2 AND SWAP2 PUSH1 0x20 ADD CALLDATALOAD AND PUSH2 0x2EE7 JUMP JUMPDEST PUSH2 0x596 PUSH1 0x4 DUP1 CALLDATASIZE SUB PUSH1 0x20 DUP2 LT ISZERO PUSH2 0x1056 JUMPI PUSH1 0x0 DUP1 REVERT JUMPDEST POP CALLDATALOAD PUSH1 0x1 PUSH1 0x1 PUSH1 0xA0 SHL SUB AND PUSH2 0x2F04 JUMP JUMPDEST PUSH2 0x548 PUSH1 0x4 DUP1 CALLDATASIZE SUB PUSH1 0x20 DUP2 LT ISZERO PUSH2 0x107C JUMPI PUSH1 0x0 DUP1 REVERT JUMPDEST DUP2 ADD SWAP1 PUSH1 0x20 DUP2 ADD DUP2 CALLDATALOAD PUSH1 0x1 PUSH1 0x20 SHL DUP2 GT ISZERO PUSH2 0x1096 JUMPI PUSH1 0x0 DUP1 REVERT JUMPDEST DUP3 ADD DUP4 PUSH1 0x20 DUP3 ADD GT ISZERO PUSH2 0x10A8 JUMPI PUSH1 0x0 DUP1 REVERT JUMPDEST DUP1 CALLDATALOAD SWAP1 PUSH1 0x20 ADD SWAP2 DUP5 PUSH1 0x20 DUP4 MUL DUP5 ADD GT PUSH1 0x1 PUSH1 0x20 SHL DUP4 GT OR ISZERO PUSH2 0x10C9 JUMPI PUSH1 0x0 DUP1 REVERT JUMPDEST SWAP2 SWAP1 DUP1 DUP1 PUSH1 0x20 MUL PUSH1 0x20 ADD PUSH1 0x40 MLOAD SWAP1 DUP2 ADD PUSH1 0x40 MSTORE DUP1 SWAP4 SWAP3 SWAP2 SWAP1 DUP2 DUP2 MSTORE PUSH1 0x20 ADD DUP4 DUP4 PUSH1 0x20 MUL DUP1 DUP3 DUP5 CALLDATACOPY PUSH1 0x0 SWAP3 ADD SWAP2 SWAP1 SWAP2 MSTORE POP SWAP3 SWAP6 POP PUSH2 0x2F16 SWAP5 POP POP POP POP POP JUMP JUMPDEST PUSH2 0x596 PUSH1 0x4 DUP1 CALLDATASIZE SUB PUSH1 0xA0 DUP2 LT ISZERO PUSH2 0x111D JUMPI PUSH1 0x0 DUP1 REVERT JUMPDEST POP PUSH1 0x1 PUSH1 0x1 PUSH1 0xA0 SHL SUB DUP2 CALLDATALOAD DUP2 AND SWAP2 PUSH1 0x20 DUP2 ADD CALLDATALOAD DUP3 AND SWAP2 PUSH1 0x40 DUP3 ADD CALLDATALOAD DUP2 AND SWAP2 PUSH1 0x60 DUP2 ADD CALLDATALOAD SWAP1 SWAP2 AND SWAP1 PUSH1 0x80 ADD CALLDATALOAD PUSH2 0x2FA8 JUMP JUMPDEST PUSH2 0x596 PUSH1 0x4 DUP1 CALLDATASIZE SUB PUSH1 0x20 DUP2 LT ISZERO PUSH2 0x1163 JUMPI PUSH1 0x0 DUP1 REVERT JUMPDEST POP CALLDATALOAD PUSH2 0x3160 JUMP JUMPDEST PUSH2 0x596 PUSH1 0x4 DUP1 CALLDATASIZE SUB PUSH1 0x60 DUP2 LT ISZERO PUSH2 0x1180 JUMPI PUSH1 0x0 DUP1 REVERT JUMPDEST POP PUSH1 0x1 PUSH1 0x1 PUSH1 0xA0 SHL SUB DUP2 CALLDATALOAD DUP2 AND SWAP2 PUSH1 0x20 DUP2 ADD CALLDATALOAD SWAP1 SWAP2 AND SWAP1 PUSH1 0x40 ADD CALLDATALOAD PUSH2 0x31C9 JUMP JUMPDEST PUSH2 0x5F2 PUSH1 0x4 DUP1 CALLDATASIZE SUB PUSH1 0x40 DUP2 LT ISZERO PUSH2 0x11B6 JUMPI PUSH1 0x0 DUP1 REVERT JUMPDEST POP PUSH1 0x1 PUSH1 0x1 PUSH1 0xA0 SHL SUB DUP2 CALLDATALOAD AND SWAP1 PUSH1 0x20 ADD CALLDATALOAD PUSH2 0x3603 JUMP JUMPDEST PUSH2 0x5F2 PUSH2 0x3638 JUMP JUMPDEST PUSH2 0x596 PUSH1 0x4 DUP1 CALLDATASIZE SUB PUSH1 0x40 DUP2 LT ISZERO PUSH2 0x11EA JUMPI PUSH1 0x0 DUP1 REVERT JUMPDEST POP PUSH1 0x1 PUSH1 0x1 PUSH1 0xA0 SHL SUB DUP2 CALLDATALOAD AND SWAP1 PUSH1 0x20 ADD CALLDATALOAD PUSH2 0x3647 JUMP JUMPDEST PUSH2 0x455 PUSH2 0x37F7 JUMP JUMPDEST PUSH2 0x596 PUSH2 0x3807 JUMP JUMPDEST PUSH2 0x548 PUSH1 0x4 DUP1 CALLDATASIZE SUB PUSH1 0x20 DUP2 LT ISZERO PUSH2 0x1226 JUMPI PUSH1 0x0 DUP1 REVERT JUMPDEST POP CALLDATALOAD PUSH1 0x1 PUSH1 0x1 PUSH1 0xA0 SHL SUB AND PUSH2 0x380D JUMP JUMPDEST PUSH2 0x596 PUSH1 0x4 DUP1 CALLDATASIZE SUB PUSH1 0x60 DUP2 LT ISZERO PUSH2 0x124C JUMPI PUSH1 0x0 DUP1 REVERT JUMPDEST POP PUSH1 0x1 PUSH1 0x1 PUSH1 0xA0 SHL SUB DUP2 CALLDATALOAD DUP2 AND SWAP2 PUSH1 0x20 DUP2 ADD CALLDATALOAD SWAP1 SWAP2 AND SWAP1 PUSH1 0x40 ADD CALLDATALOAD PUSH2 0x3871 JUMP JUMPDEST PUSH2 0x596 PUSH1 0x4 DUP1 CALLDATASIZE SUB PUSH1 0x20 DUP2 LT ISZERO PUSH2 0x1282 JUMPI PUSH1 0x0 DUP1 REVERT JUMPDEST POP CALLDATALOAD PUSH1 0x1 PUSH1 0x1 PUSH1 0xA0 SHL SUB AND PUSH2 0x38AE JUMP JUMPDEST PUSH2 0x5F2 PUSH2 0x3BC1 JUMP JUMPDEST PUSH1 0x1 DUP2 JUMP JUMPDEST PUSH1 0x1 PUSH1 0x1 PUSH1 0xA0 SHL SUB DUP3 AND PUSH1 0x0 SWAP1 DUP2 MSTORE PUSH1 0x9 PUSH1 0x20 MSTORE PUSH1 0x40 DUP2 KECCAK256 SLOAD PUSH1 0xFF AND PUSH2 0x12F6 JUMPI PUSH1 0x40 MLOAD PUSH3 0x461BCD PUSH1 0xE5 SHL DUP2 MSTORE PUSH1 0x4 ADD DUP1 DUP1 PUSH1 0x20 ADD DUP3 DUP2 SUB DUP3 MSTORE PUSH1 0x28 DUP2 MSTORE PUSH1 0x20 ADD DUP1 PUSH2 0x5E19 PUSH1 0x28 SWAP2 CODECOPY PUSH1 0x40 ADD SWAP2 POP POP PUSH1 0x40 MLOAD DUP1 SWAP2 SUB SWAP1 REVERT JUMPDEST PUSH1 0xA SLOAD PUSH1 0x1 PUSH1 0x1 PUSH1 0xA0 SHL SUB AND CALLER EQ DUP1 PUSH2 0x1319 JUMPI POP PUSH1 0x0 SLOAD PUSH1 0x1 PUSH1 0x1 PUSH1 0xA0 SHL SUB AND CALLER EQ JUMPDEST PUSH2 0x1354 JUMPI PUSH1 0x40 MLOAD PUSH3 0x461BCD PUSH1 0xE5 SHL DUP2 MSTORE PUSH1 0x4 ADD DUP1 DUP1 PUSH1 0x20 ADD DUP3 DUP2 SUB DUP3 MSTORE PUSH1 0x27 DUP2 MSTORE PUSH1 0x20 ADD DUP1 PUSH2 0x5E72 PUSH1 0x27 SWAP2 CODECOPY PUSH1 0x40 ADD SWAP2 POP POP PUSH1 0x40 MLOAD DUP1 SWAP2 SUB SWAP1 REVERT JUMPDEST PUSH1 0x0 SLOAD PUSH1 0x1 PUSH1 0x1 PUSH1 0xA0 SHL SUB AND CALLER EQ DUP1 PUSH2 0x136F JUMPI POP PUSH1 0x1 DUP3 ISZERO ISZERO EQ JUMPDEST PUSH2 0x13B9 JUMPI PUSH1 0x40 DUP1 MLOAD PUSH3 0x461BCD PUSH1 0xE5 SHL DUP2 MSTORE PUSH1 0x20 PUSH1 0x4 DUP3 ADD MSTORE PUSH1 0x16 PUSH1 0x24 DUP3 ADD MSTORE PUSH22 0x6F6E6C792061646D696E2063616E20756E7061757365 PUSH1 0x50 SHL PUSH1 0x44 DUP3 ADD MSTORE SWAP1 MLOAD SWAP1 DUP2 SWAP1 SUB PUSH1 0x64 ADD SWAP1 REVERT JUMPDEST PUSH1 0x1 PUSH1 0x1 PUSH1 0xA0 SHL SUB DUP4 AND PUSH1 0x0 DUP2 DUP2 MSTORE PUSH1 0xC PUSH1 0x20 SWAP1 DUP2 MSTORE PUSH1 0x40 SWAP2 DUP3 SWAP1 KECCAK256 DUP1 SLOAD DUP7 ISZERO ISZERO PUSH1 0xFF NOT SWAP1 SWAP2 AND DUP2 OR SWAP1 SWAP2 SSTORE DUP3 MLOAD SWAP4 DUP5 MSTORE DUP4 DUP4 ADD MSTORE PUSH1 0x60 SWAP1 DUP4 ADD DUP2 SWAP1 MSTORE PUSH1 0x6 SWAP1 DUP4 ADD MSTORE PUSH6 0x426F72726F77 PUSH1 0xD0 SHL PUSH1 0x80 DUP4 ADD MSTORE MLOAD PUSH32 0x71AEC636243F9709BB0007AE15E9AFB8150AB01716D75FD7573BE5CC096E03B0 SWAP2 DUP2 SWAP1 SUB PUSH1 0xA0 ADD SWAP1 LOG1 POP DUP1 JUMPDEST SWAP3 SWAP2 POP POP JUMP JUMPDEST PUSH1 0x40 DUP1 MLOAD PUSH1 0x1 DUP1 DUP3 MSTORE DUP2 DUP4 ADD SWAP1 SWAP3 MSTORE PUSH1 0x60 SWAP2 PUSH1 0x20 DUP1 DUP4 ADD SWAP1 DUP1 CODESIZE DUP4 CODECOPY ADD SWAP1 POP POP SWAP1 POP DUP3 DUP2 PUSH1 0x0 DUP2 MLOAD DUP2 LT PUSH2 0x146F JUMPI INVALID JUMPDEST PUSH1 0x20 MUL PUSH1 0x20 ADD ADD SWAP1 PUSH1 0x1 PUSH1 0x1 PUSH1 0xA0 SHL SUB AND SWAP1 DUP2 PUSH1 0x1 PUSH1 0x1 PUSH1 0xA0 SHL SUB AND DUP2 MSTORE POP POP PUSH2 0x149C DUP2 DUP4 PUSH1 0x1 DUP1 PUSH2 0x2405 JUMP JUMPDEST POP POP POP JUMP JUMPDEST DUP1 PUSH1 0x1 PUSH1 0x1 PUSH1 0xA0 SHL SUB AND PUSH4 0xF851A440 PUSH1 0x40 MLOAD DUP2 PUSH4 0xFFFFFFFF AND PUSH1 0xE0 SHL DUP2 MSTORE PUSH1 0x4 ADD PUSH1 0x20 PUSH1 0x40 MLOAD DUP1 DUP4 SUB DUP2 DUP7 DUP1 EXTCODESIZE ISZERO DUP1 ISZERO PUSH2 0x14DA JUMPI PUSH1 0x0 DUP1 REVERT JUMPDEST POP GAS STATICCALL ISZERO DUP1 ISZERO PUSH2 0x14EE JUMPI RETURNDATASIZE PUSH1 0x0 DUP1 RETURNDATACOPY RETURNDATASIZE PUSH1 0x0 REVERT JUMPDEST POP POP POP POP PUSH1 0x40 MLOAD RETURNDATASIZE PUSH1 0x20 DUP2 LT ISZERO PUSH2 0x1504 JUMPI PUSH1 0x0 DUP1 REVERT JUMPDEST POP MLOAD PUSH1 0x1 PUSH1 0x1 PUSH1 0xA0 SHL SUB AND CALLER EQ PUSH2 0x154C JUMPI PUSH1 0x40 MLOAD PUSH3 0x461BCD PUSH1 0xE5 SHL DUP2 MSTORE PUSH1 0x4 ADD DUP1 DUP1 PUSH1 0x20 ADD DUP3 DUP2 SUB DUP3 MSTORE PUSH1 0x27 DUP2 MSTORE PUSH1 0x20 ADD DUP1 PUSH2 0x5F39 PUSH1 0x27 SWAP2 CODECOPY PUSH1 0x40 ADD SWAP2 POP POP PUSH1 0x40 MLOAD DUP1 SWAP2 SUB SWAP1 REVERT JUMPDEST DUP1 PUSH1 0x1 PUSH1 0x1 PUSH1 0xA0 SHL SUB AND PUSH4 0xC1E80334 PUSH1 0x40 MLOAD DUP2 PUSH4 0xFFFFFFFF AND PUSH1 0xE0 SHL DUP2 MSTORE PUSH1 0x4 ADD PUSH1 0x20 PUSH1 0x40 MLOAD DUP1 DUP4 SUB DUP2 PUSH1 0x0 DUP8 DUP1 EXTCODESIZE ISZERO DUP1 ISZERO PUSH2 0x1587 JUMPI PUSH1 0x0 DUP1 REVERT JUMPDEST POP GAS CALL ISZERO DUP1 ISZERO PUSH2 0x159B JUMPI RETURNDATASIZE PUSH1 0x0 DUP1 RETURNDATACOPY RETURNDATASIZE PUSH1 0x0 REVERT JUMPDEST POP POP POP POP PUSH1 0x40 MLOAD RETURNDATASIZE PUSH1 0x20 DUP2 LT ISZERO PUSH2 0x15B1 JUMPI PUSH1 0x0 DUP1 REVERT JUMPDEST POP MLOAD ISZERO PUSH2 0x15FD JUMPI PUSH1 0x40 DUP1 MLOAD PUSH3 0x461BCD PUSH1 0xE5 SHL DUP2 MSTORE PUSH1 0x20 PUSH1 0x4 DUP3 ADD MSTORE PUSH1 0x15 PUSH1 0x24 DUP3 ADD MSTORE PUSH21 0x18DA185B99D9481B9BDD08185D5D1A1BDC9A5E9959 PUSH1 0x5A SHL PUSH1 0x44 DUP3 ADD MSTORE SWAP1 MLOAD SWAP1 DUP2 SWAP1 SUB PUSH1 0x64 ADD SWAP1 REVERT JUMPDEST POP JUMP JUMPDEST PUSH1 0xF PUSH1 0x20 MSTORE PUSH1 0x0 SWAP1 DUP2 MSTORE PUSH1 0x40 SWAP1 KECCAK256 SLOAD DUP2 JUMP JUMPDEST POP POP POP POP POP JUMP JUMPDEST PUSH1 0x15 SLOAD PUSH1 0x1 PUSH1 0x1 PUSH1 0xA0 SHL SUB AND DUP2 JUMP JUMPDEST PUSH1 0x1 PUSH1 0x1 PUSH1 0xA0 SHL SUB DUP5 AND PUSH1 0x0 SWAP1 DUP2 MSTORE PUSH1 0x9 PUSH1 0x20 MSTORE PUSH1 0x40 DUP2 KECCAK256 SLOAD PUSH1 0xFF AND PUSH2 0x1650 JUMPI POP PUSH1 0x9 PUSH2 0x16E9 JUMP JUMPDEST PUSH2 0x1658 PUSH2 0x5D59 JUMP JUMPDEST PUSH1 0x40 MLOAD DUP1 PUSH1 0x20 ADD PUSH1 0x40 MSTORE DUP1 DUP8 PUSH1 0x1 PUSH1 0x1 PUSH1 0xA0 SHL SUB AND PUSH4 0xAA5AF0FD PUSH1 0x40 MLOAD DUP2 PUSH4 0xFFFFFFFF AND PUSH1 0xE0 SHL DUP2 MSTORE PUSH1 0x4 ADD PUSH1 0x20 PUSH1 0x40 MLOAD DUP1 DUP4 SUB DUP2 DUP7 DUP1 EXTCODESIZE ISZERO DUP1 ISZERO PUSH2 0x169C JUMPI PUSH1 0x0 DUP1 REVERT JUMPDEST POP GAS STATICCALL ISZERO DUP1 ISZERO PUSH2 0x16B0 JUMPI RETURNDATASIZE PUSH1 0x0 DUP1 RETURNDATACOPY RETURNDATASIZE PUSH1 0x0 REVERT JUMPDEST POP POP POP POP PUSH1 0x40 MLOAD RETURNDATASIZE PUSH1 0x20 DUP2 LT ISZERO PUSH2 0x16C6 JUMPI PUSH1 0x0 DUP1 REVERT JUMPDEST POP MLOAD SWAP1 MSTORE SWAP1 POP PUSH2 0x16D6 DUP7 DUP3 PUSH2 0x3BD0 JUMP JUMPDEST PUSH2 0x16E3 DUP7 DUP6 DUP4 PUSH1 0x0 PUSH2 0x3E58 JUMP JUMPDEST PUSH1 0x0 SWAP2 POP POP JUMPDEST SWAP5 SWAP4 POP POP POP POP JUMP JUMPDEST PUSH1 0xA SLOAD PUSH1 0x1 PUSH1 0x1 PUSH1 0xA0 SHL SUB AND DUP2 JUMP JUMPDEST PUSH1 0x1 SLOAD PUSH1 0x1 PUSH1 0x1 PUSH1 0xA0 SHL SUB AND DUP2 JUMP JUMPDEST PUSH1 0xA SLOAD PUSH1 0x0 SWAP1 PUSH1 0x1 PUSH1 0x1 PUSH1 0xA0 SHL SUB AND CALLER EQ DUP1 PUSH2 0x1735 JUMPI POP PUSH1 0x0 SLOAD PUSH1 0x1 PUSH1 0x1 PUSH1 0xA0 SHL SUB AND CALLER EQ JUMPDEST PUSH2 0x1770 JUMPI PUSH1 0x40 MLOAD PUSH3 0x461BCD PUSH1 0xE5 SHL DUP2 MSTORE PUSH1 0x4 ADD DUP1 DUP1 PUSH1 0x20 ADD DUP3 DUP2 SUB DUP3 MSTORE PUSH1 0x27 DUP2 MSTORE PUSH1 0x20 ADD DUP1 PUSH2 0x5E72 PUSH1 0x27 SWAP2 CODECOPY PUSH1 0x40 ADD SWAP2 POP POP PUSH1 0x40 MLOAD DUP1 SWAP2 SUB SWAP1 REVERT JUMPDEST PUSH1 0x0 SLOAD PUSH1 0x1 PUSH1 0x1 PUSH1 0xA0 SHL SUB AND CALLER EQ DUP1 PUSH2 0x178B JUMPI POP PUSH1 0x1 DUP3 ISZERO ISZERO EQ JUMPDEST PUSH2 0x17D5 JUMPI PUSH1 0x40 DUP1 MLOAD PUSH3 0x461BCD PUSH1 0xE5 SHL DUP2 MSTORE PUSH1 0x20 PUSH1 0x4 DUP3 ADD MSTORE PUSH1 0x16 PUSH1 0x24 DUP3 ADD MSTORE PUSH22 0x6F6E6C792061646D696E2063616E20756E7061757365 PUSH1 0x50 SHL PUSH1 0x44 DUP3 ADD MSTORE SWAP1 MLOAD SWAP1 DUP2 SWAP1 SUB PUSH1 0x64 ADD SWAP1 REVERT JUMPDEST PUSH1 0xA DUP1 SLOAD DUP4 ISZERO ISZERO PUSH1 0x1 PUSH1 0xB8 SHL DUP2 MUL PUSH1 0xFF PUSH1 0xB8 SHL NOT SWAP1 SWAP3 AND SWAP2 SWAP1 SWAP2 OR SWAP1 SWAP2 SSTORE PUSH1 0x40 DUP1 MLOAD PUSH1 0x20 DUP2 ADD SWAP3 SWAP1 SWAP3 MSTORE DUP1 DUP3 MSTORE PUSH1 0x5 DUP3 DUP3 ADD MSTORE PUSH5 0x5365697A65 PUSH1 0xD8 SHL PUSH1 0x60 DUP4 ADD MSTORE MLOAD PUSH32 0xEF159D9A32B2472E32B098F954F3CE62D232939F1C207070B584DF1814DE2DE0 SWAP2 DUP2 SWAP1 SUB PUSH1 0x80 ADD SWAP1 LOG1 POP DUP1 JUMPDEST SWAP2 SWAP1 POP JUMP JUMPDEST PUSH1 0x0 DUP1 SLOAD PUSH1 0x1 PUSH1 0x1 PUSH1 0xA0 SHL SUB AND CALLER EQ PUSH2 0x186F JUMPI PUSH2 0x1868 PUSH1 0x1 PUSH1 0x4 PUSH2 0x4042 JUMP JUMPDEST SWAP1 POP PUSH2 0x1844 JUMP JUMPDEST PUSH2 0x1877 PUSH2 0x5D59 JUMP JUMPDEST POP PUSH1 0x40 DUP1 MLOAD PUSH1 0x20 DUP2 ADD SWAP1 SWAP2 MSTORE DUP3 DUP2 MSTORE PUSH2 0x188E PUSH2 0x5D59 JUMP JUMPDEST POP PUSH1 0x40 DUP1 MLOAD PUSH1 0x20 DUP2 ADD SWAP1 SWAP2 MSTORE PUSH7 0xB1A2BC2EC50000 DUP2 MSTORE PUSH2 0x18AE DUP3 DUP3 PUSH2 0x40A8 JUMP JUMPDEST ISZERO PUSH2 0x18C7 JUMPI PUSH2 0x18BE PUSH1 0x5 DUP1 PUSH2 0x4042 JUMP JUMPDEST SWAP3 POP POP POP PUSH2 0x1844 JUMP JUMPDEST PUSH2 0x18CF PUSH2 0x5D59 JUMP JUMPDEST POP PUSH1 0x40 DUP1 MLOAD PUSH1 0x20 DUP2 ADD SWAP1 SWAP2 MSTORE PUSH8 0xC7D713B49DA0000 DUP2 MSTORE PUSH2 0x18F0 DUP2 DUP5 PUSH2 0x40B0 JUMP JUMPDEST ISZERO PUSH2 0x190A JUMPI PUSH2 0x1900 PUSH1 0x5 DUP1 PUSH2 0x4042 JUMP JUMPDEST SWAP4 POP POP POP POP PUSH2 0x1844 JUMP JUMPDEST PUSH1 0x5 DUP1 SLOAD SWAP1 DUP7 SWAP1 SSTORE PUSH1 0x40 DUP1 MLOAD DUP3 DUP2 MSTORE PUSH1 0x20 DUP2 ADD DUP9 SWAP1 MSTORE DUP2 MLOAD PUSH32 0x3B9670CF975D26958E754B57098EAA2AC914D8D2A31B83257997B9F346110FD9 SWAP3 SWAP2 DUP2 SWAP1 SUB SWAP1 SWAP2 ADD SWAP1 LOG1 PUSH1 0x0 JUMPDEST SWAP7 SWAP6 POP POP POP POP POP POP JUMP JUMPDEST PUSH1 0x0 SLOAD PUSH1 0x1 PUSH1 0x1 PUSH1 0xA0 SHL SUB AND CALLER EQ PUSH2 0x19A3 JUMPI PUSH1 0x40 MLOAD PUSH3 0x461BCD PUSH1 0xE5 SHL DUP2 MSTORE PUSH1 0x4 ADD DUP1 DUP1 PUSH1 0x20 ADD DUP3 DUP2 SUB DUP3 MSTORE PUSH1 0x26 DUP2 MSTORE PUSH1 0x20 ADD DUP1 PUSH2 0x5E99 PUSH1 0x26 SWAP2 CODECOPY PUSH1 0x40 ADD SWAP2 POP POP PUSH1 0x40 MLOAD DUP1 SWAP2 SUB SWAP1 REVERT JUMPDEST PUSH1 0x15 DUP1 SLOAD PUSH1 0x1 PUSH1 0x1 PUSH1 0xA0 SHL SUB DUP4 DUP2 AND PUSH1 0x1 PUSH1 0x1 PUSH1 0xA0 SHL SUB NOT DUP4 AND DUP2 OR SWAP1 SWAP4 SSTORE PUSH1 0x40 DUP1 MLOAD SWAP2 SWAP1 SWAP3 AND DUP1 DUP3 MSTORE PUSH1 0x20 DUP3 ADD SWAP4 SWAP1 SWAP4 MSTORE DUP2 MLOAD PUSH32 0xEDA98690E518E9A05F8EC6837663E188211B2DA8F4906648B323F2C1D4434E29 SWAP3 SWAP2 DUP2 SWAP1 SUB SWAP1 SWAP2 ADD SWAP1 LOG1 POP POP JUMP JUMPDEST PUSH1 0x0 SLOAD PUSH1 0x1 PUSH1 0x1 PUSH1 0xA0 SHL SUB AND CALLER EQ PUSH2 0x1A65 JUMPI PUSH1 0x40 DUP1 MLOAD PUSH3 0x461BCD PUSH1 0xE5 SHL DUP2 MSTORE PUSH1 0x20 PUSH1 0x4 DUP3 ADD MSTORE PUSH1 0x1F PUSH1 0x24 DUP3 ADD MSTORE PUSH32 0x6F6E6C792061646D696E2063616E2064726F7020636F6D70206D61726B657400 PUSH1 0x44 DUP3 ADD MSTORE SWAP1 MLOAD SWAP1 DUP2 SWAP1 SUB PUSH1 0x64 ADD SWAP1 REVERT JUMPDEST PUSH1 0x1 PUSH1 0x1 PUSH1 0xA0 SHL SUB DUP2 AND PUSH1 0x0 SWAP1 DUP2 MSTORE PUSH1 0x9 PUSH1 0x20 MSTORE PUSH1 0x40 SWAP1 KECCAK256 PUSH1 0x3 DUP2 ADD SLOAD PUSH1 0xFF AND ISZERO ISZERO PUSH1 0x1 EQ PUSH2 0x1ADB JUMPI PUSH1 0x40 DUP1 MLOAD PUSH3 0x461BCD PUSH1 0xE5 SHL DUP2 MSTORE PUSH1 0x20 PUSH1 0x4 DUP3 ADD MSTORE PUSH1 0x1B PUSH1 0x24 DUP3 ADD MSTORE PUSH32 0x6D61726B6574206973206E6F74206120636F6D70206D61726B65740000000000 PUSH1 0x44 DUP3 ADD MSTORE SWAP1 MLOAD SWAP1 DUP2 SWAP1 SUB PUSH1 0x64 ADD SWAP1 REVERT JUMPDEST PUSH1 0x3 DUP2 ADD DUP1 SLOAD PUSH1 0xFF NOT AND SWAP1 SSTORE PUSH1 0x40 DUP1 MLOAD PUSH1 0x1 PUSH1 0x1 PUSH1 0xA0 SHL SUB DUP5 AND DUP2 MSTORE PUSH1 0x0 PUSH1 0x20 DUP3 ADD MSTORE DUP2 MLOAD PUSH32 0x93C1F3E36ED71139F466A4CE8C9751790E2E33F5AFB2DF0DCFB3AEABE55D5AA2 SWAP3 SWAP2 DUP2 SWAP1 SUB SWAP1 SWAP2 ADD SWAP1 LOG1 PUSH2 0x1B33 PUSH2 0x40B7 JUMP JUMPDEST POP POP JUMP JUMPDEST PUSH1 0x1 PUSH1 0x1 PUSH1 0xA0 SHL SUB DUP3 AND PUSH1 0x0 SWAP1 DUP2 MSTORE PUSH1 0x9 PUSH1 0x20 MSTORE PUSH1 0x40 DUP2 KECCAK256 SLOAD PUSH1 0xFF AND PUSH2 0x1B8E JUMPI PUSH1 0x40 MLOAD PUSH3 0x461BCD PUSH1 0xE5 SHL DUP2 MSTORE PUSH1 0x4 ADD DUP1 DUP1 PUSH1 0x20 ADD DUP3 DUP2 SUB DUP3 MSTORE PUSH1 0x28 DUP2 MSTORE PUSH1 0x20 ADD DUP1 PUSH2 0x5E19 PUSH1 0x28 SWAP2 CODECOPY PUSH1 0x40 ADD SWAP2 POP POP PUSH1 0x40 MLOAD DUP1 SWAP2 SUB SWAP1 REVERT JUMPDEST PUSH1 0xA SLOAD PUSH1 0x1 PUSH1 0x1 PUSH1 0xA0 SHL SUB AND CALLER EQ DUP1 PUSH2 0x1BB1 JUMPI POP PUSH1 0x0 SLOAD PUSH1 0x1 PUSH1 0x1 PUSH1 0xA0 SHL SUB AND CALLER EQ JUMPDEST PUSH2 0x1BEC JUMPI PUSH1 0x40 MLOAD PUSH3 0x461BCD PUSH1 0xE5 SHL DUP2 MSTORE PUSH1 0x4 ADD DUP1 DUP1 PUSH1 0x20 ADD DUP3 DUP2 SUB DUP3 MSTORE PUSH1 0x27 DUP2 MSTORE PUSH1 0x20 ADD DUP1 PUSH2 0x5E72 PUSH1 0x27 SWAP2 CODECOPY PUSH1 0x40 ADD SWAP2 POP POP PUSH1 0x40 MLOAD DUP1 SWAP2 SUB SWAP1 REVERT JUMPDEST PUSH1 0x0 SLOAD PUSH1 0x1 PUSH1 0x1 PUSH1 0xA0 SHL SUB AND CALLER EQ DUP1 PUSH2 0x1C07 JUMPI POP PUSH1 0x1 DUP3 ISZERO ISZERO EQ JUMPDEST PUSH2 0x1C51 JUMPI PUSH1 0x40 DUP1 MLOAD PUSH3 0x461BCD PUSH1 0xE5 SHL DUP2 MSTORE PUSH1 0x20 PUSH1 0x4 DUP3 ADD MSTORE PUSH1 0x16 PUSH1 0x24 DUP3 ADD MSTORE PUSH22 0x6F6E6C792061646D696E2063616E20756E7061757365 PUSH1 0x50 SHL PUSH1 0x44 DUP3 ADD MSTORE SWAP1 MLOAD SWAP1 DUP2 SWAP1 SUB PUSH1 0x64 ADD SWAP1 REVERT JUMPDEST PUSH1 0x1 PUSH1 0x1 PUSH1 0xA0 SHL SUB DUP4 AND PUSH1 0x0 DUP2 DUP2 MSTORE PUSH1 0xB PUSH1 0x20 SWAP1 DUP2 MSTORE PUSH1 0x40 SWAP2 DUP3 SWAP1 KECCAK256 DUP1 SLOAD DUP7 ISZERO ISZERO PUSH1 0xFF NOT SWAP1 SWAP2 AND DUP2 OR SWAP1 SWAP2 SSTORE DUP3 MLOAD SWAP4 DUP5 MSTORE DUP4 DUP4 ADD MSTORE PUSH1 0x60 SWAP1 DUP4 ADD DUP2 SWAP1 MSTORE PUSH1 0x4 SWAP1 DUP4 ADD MSTORE PUSH4 0x135A5B9D PUSH1 0xE2 SHL PUSH1 0x80 DUP4 ADD MSTORE MLOAD PUSH32 0x71AEC636243F9709BB0007AE15E9AFB8150AB01716D75FD7573BE5CC096E03B0 SWAP2 DUP2 SWAP1 SUB PUSH1 0xA0 ADD SWAP1 LOG1 POP SWAP2 SWAP1 POP JUMP JUMPDEST PUSH1 0xA SLOAD PUSH1 0x1 PUSH1 0xA0 SHL SWAP1 DIV PUSH1 0xFF AND DUP2 JUMP JUMPDEST POP POP POP POP JUMP JUMPDEST NUMBER JUMPDEST SWAP1 JUMP JUMPDEST POP POP POP POP POP POP JUMP JUMPDEST PUSH1 0x16 PUSH1 0x20 MSTORE PUSH1 0x0 SWAP1 DUP2 MSTORE PUSH1 0x40 SWAP1 KECCAK256 SLOAD DUP2 JUMP JUMPDEST PUSH1 0x6 SLOAD DUP2 JUMP JUMPDEST CALLER ORIGIN EQ PUSH2 0x1D4B JUMPI PUSH1 0x40 MLOAD PUSH3 0x461BCD PUSH1 0xE5 SHL DUP2 MSTORE PUSH1 0x4 ADD DUP1 DUP1 PUSH1 0x20 ADD DUP3 DUP2 SUB DUP3 MSTORE PUSH1 0x31 DUP2 MSTORE PUSH1 0x20 ADD DUP1 PUSH2 0x5E41 PUSH1 0x31 SWAP2 CODECOPY PUSH1 0x40 ADD SWAP2 POP POP PUSH1 0x40 MLOAD DUP1 SWAP2 SUB SWAP1 REVERT JUMPDEST PUSH2 0x1D53 PUSH2 0x40B7 JUMP JUMPDEST JUMP JUMPDEST PUSH1 0x0 DUP1 PUSH1 0x0 DUP1 PUSH1 0x0 DUP1 PUSH2 0x1D6A DUP11 DUP11 DUP11 DUP11 PUSH2 0x447C JUMP JUMPDEST SWAP3 POP SWAP3 POP SWAP3 POP DUP3 PUSH1 0x11 DUP2 GT ISZERO PUSH2 0x1D7C JUMPI INVALID JUMPDEST SWAP6 POP SWAP1 SWAP4 POP SWAP2 POP POP JUMPDEST SWAP5 POP SWAP5 POP SWAP5 SWAP2 POP POP JUMP JUMPDEST PUSH1 0x1 PUSH1 0x1 PUSH1 0xA0 SHL SUB DUP4 AND PUSH1 0x0 SWAP1 DUP2 MSTORE PUSH1 0xB PUSH1 0x20 MSTORE PUSH1 0x40 DUP2 KECCAK256 SLOAD PUSH1 0xFF AND ISZERO PUSH2 0x1DEE JUMPI PUSH1 0x40 DUP1 MLOAD PUSH3 0x461BCD PUSH1 0xE5 SHL DUP2 MSTORE PUSH1 0x20 PUSH1 0x4 DUP3 ADD MSTORE PUSH1 0xE PUSH1 0x24 DUP3 ADD MSTORE PUSH14 0x1B5A5B9D081A5CC81C185D5CD959 PUSH1 0x92 SHL PUSH1 0x44 DUP3 ADD MSTORE SWAP1 MLOAD SWAP1 DUP2 SWAP1 SUB PUSH1 0x64 ADD SWAP1 REVERT JUMPDEST PUSH1 0x1 PUSH1 0x1 PUSH1 0xA0 SHL SUB DUP5 AND PUSH1 0x0 SWAP1 DUP2 MSTORE PUSH1 0x9 PUSH1 0x20 MSTORE PUSH1 0x40 SWAP1 KECCAK256 SLOAD PUSH1 0xFF AND PUSH2 0x1E18 JUMPI PUSH1 0x9 JUMPDEST SWAP1 POP PUSH2 0x1E33 JUMP JUMPDEST PUSH2 0x1E21 DUP5 PUSH2 0x4897 JUMP JUMPDEST PUSH2 0x1E2D DUP5 DUP5 PUSH1 0x0 PUSH2 0x4B15 JUMP JUMPDEST PUSH1 0x0 JUMPDEST SWAP1 POP JUMPDEST SWAP4 SWAP3 POP POP POP JUMP JUMPDEST PUSH1 0x0 DUP1 SLOAD PUSH1 0x1 PUSH1 0x1 PUSH1 0xA0 SHL SUB AND CALLER EQ PUSH2 0x1E59 JUMPI PUSH2 0x1868 PUSH1 0x1 PUSH1 0xB PUSH2 0x4042 JUMP JUMPDEST PUSH2 0x1E61 PUSH2 0x5D59 JUMP JUMPDEST POP PUSH1 0x40 DUP1 MLOAD PUSH1 0x20 DUP2 ADD SWAP1 SWAP2 MSTORE DUP3 DUP2 MSTORE PUSH2 0x1E78 PUSH2 0x5D59 JUMP JUMPDEST POP PUSH1 0x40 DUP1 MLOAD PUSH1 0x20 DUP2 ADD SWAP1 SWAP2 MSTORE PUSH8 0xDE0B6B3A7640000 DUP2 MSTORE PUSH2 0x1E99 DUP3 DUP3 PUSH2 0x40B0 JUMP JUMPDEST ISZERO PUSH2 0x1EAA JUMPI PUSH2 0x18BE PUSH1 0x7 PUSH1 0xC PUSH2 0x4042 JUMP JUMPDEST PUSH2 0x1EB2 PUSH2 0x5D59 JUMP JUMPDEST POP PUSH1 0x40 DUP1 MLOAD PUSH1 0x20 DUP2 ADD SWAP1 SWAP2 MSTORE PUSH8 0x14D1120D7B160000 DUP2 MSTORE PUSH2 0x1ED3 DUP2 DUP5 PUSH2 0x40B0 JUMP JUMPDEST ISZERO PUSH2 0x1EE4 JUMPI PUSH2 0x1900 PUSH1 0x7 PUSH1 0xC PUSH2 0x4042 JUMP JUMPDEST PUSH1 0x6 DUP1 SLOAD SWAP1 DUP7 SWAP1 SSTORE PUSH1 0x40 DUP1 MLOAD DUP3 DUP2 MSTORE PUSH1 0x20 DUP2 ADD DUP9 SWAP1 MSTORE DUP2 MLOAD PUSH32 0xAEBA5A6C40A8AC138134BFF1AAA65DEBF25971188A58804BAD717F82F0EC1316 SWAP3 SWAP2 DUP2 SWAP1 SUB SWAP1 SWAP2 ADD SWAP1 LOG1 PUSH1 0x0 PUSH2 0x1950 JUMP JUMPDEST DUP1 ISZERO DUP1 ISZERO PUSH2 0x1F3C JUMPI POP PUSH1 0x0 DUP3 GT JUMPDEST ISZERO PUSH2 0x1CE2 JUMPI PUSH1 0x40 DUP1 MLOAD PUSH3 0x461BCD PUSH1 0xE5 SHL DUP2 MSTORE PUSH1 0x20 PUSH1 0x4 DUP3 ADD MSTORE PUSH1 0x11 PUSH1 0x24 DUP3 ADD MSTORE PUSH17 0x72656465656D546F6B656E73207A65726F PUSH1 0x78 SHL PUSH1 0x44 DUP3 ADD MSTORE SWAP1 MLOAD SWAP1 DUP2 SWAP1 SUB PUSH1 0x64 ADD SWAP1 REVERT JUMPDEST PUSH1 0xD DUP2 DUP2 SLOAD DUP2 LT PUSH2 0x1F8F JUMPI INVALID JUMPDEST PUSH1 0x0 SWAP2 DUP3 MSTORE PUSH1 0x20 SWAP1 SWAP2 KECCAK256 ADD SLOAD PUSH1 0x1 PUSH1 0x1 PUSH1 0xA0 SHL SUB AND SWAP1 POP DUP2 JUMP JUMPDEST PUSH1 0x0 DUP1 SLOAD PUSH1 0x1 PUSH1 0x1 PUSH1 0xA0 SHL SUB AND CALLER EQ PUSH2 0x1FC8 JUMPI PUSH2 0x1868 PUSH1 0x1 PUSH1 0x10 PUSH2 0x4042 JUMP JUMPDEST PUSH1 0x4 DUP1 SLOAD PUSH1 0x1 PUSH1 0x1 PUSH1 0xA0 SHL SUB DUP5 DUP2 AND PUSH1 0x1 PUSH1 0x1 PUSH1 0xA0 SHL SUB NOT DUP4 AND DUP2 OR SWAP1 SWAP4 SSTORE PUSH1 0x40 DUP1 MLOAD SWAP2 SWAP1 SWAP3 AND DUP1 DUP3 MSTORE PUSH1 0x20 DUP3 ADD SWAP4 SWAP1 SWAP4 MSTORE DUP2 MLOAD PUSH32 0xD52B2B9B7E9EE655FCB95D2E5B9E0C9F69E7EF2B8E9D2D0EA78402D576D22E22 SWAP3 SWAP2 DUP2 SWAP1 SUB SWAP1 SWAP2 ADD SWAP1 LOG1 PUSH1 0x0 SWAP4 SWAP3 POP POP POP JUMP JUMPDEST PUSH2 0x149C JUMP JUMPDEST PUSH1 0x0 DUP1 PUSH1 0x0 DUP1 PUSH1 0x0 DUP1 PUSH2 0x204C DUP8 PUSH1 0x0 DUP1 PUSH1 0x0 PUSH2 0x447C JUMP JUMPDEST SWAP3 POP SWAP3 POP SWAP3 POP DUP3 PUSH1 0x11 DUP2 GT ISZERO PUSH2 0x205E JUMPI INVALID JUMPDEST SWAP8 SWAP2 SWAP7 POP SWAP5 POP SWAP3 POP POP POP JUMP JUMPDEST PUSH1 0x0 DUP1 SLOAD PUSH1 0x1 PUSH1 0x1 PUSH1 0xA0 SHL SUB AND CALLER EQ PUSH2 0x2089 JUMPI PUSH2 0x1868 PUSH1 0x1 PUSH1 0x13 PUSH2 0x4042 JUMP JUMPDEST PUSH1 0xA DUP1 SLOAD PUSH1 0x1 PUSH1 0x1 PUSH1 0xA0 SHL SUB DUP5 DUP2 AND PUSH1 0x1 PUSH1 0x1 PUSH1 0xA0 SHL SUB NOT DUP4 AND OR SWAP3 DUP4 SWAP1 SSTORE PUSH1 0x40 DUP1 MLOAD SWAP3 DUP3 AND DUP1 DUP5 MSTORE SWAP4 SWAP1 SWAP2 AND PUSH1 0x20 DUP4 ADD MSTORE DUP1 MLOAD PUSH32 0x613B6EE6A04F0D09F390E4D9318894B9F6AC7FD83897CD8D18896BA579C401E SWAP3 DUP2 SWAP1 SUB SWAP1 SWAP2 ADD SWAP1 LOG1 PUSH1 0x0 PUSH2 0x1E33 JUMP JUMPDEST PUSH1 0x1 PUSH1 0x1 PUSH1 0xA0 SHL SUB DUP6 AND PUSH1 0x0 SWAP1 DUP2 MSTORE PUSH1 0x9 PUSH1 0x20 MSTORE PUSH1 0x40 DUP2 KECCAK256 SLOAD PUSH1 0xFF AND ISZERO DUP1 PUSH2 0x212F JUMPI POP PUSH1 0x1 PUSH1 0x1 PUSH1 0xA0 SHL SUB DUP6 AND PUSH1 0x0 SWAP1 DUP2 MSTORE PUSH1 0x9 PUSH1 0x20 MSTORE PUSH1 0x40 SWAP1 KECCAK256 SLOAD PUSH1 0xFF AND ISZERO JUMPDEST ISZERO PUSH2 0x213E JUMPI PUSH1 0x9 JUMPDEST SWAP1 POP PUSH2 0x226C JUMP JUMPDEST PUSH1 0x0 DUP1 PUSH2 0x214A DUP6 PUSH2 0x4D0D JUMP JUMPDEST SWAP2 SWAP4 POP SWAP1 SWAP2 POP PUSH1 0x0 SWAP1 POP DUP3 PUSH1 0x11 DUP2 GT ISZERO PUSH2 0x2160 JUMPI INVALID JUMPDEST EQ PUSH2 0x217A JUMPI DUP2 PUSH1 0x11 DUP2 GT ISZERO PUSH2 0x2171 JUMPI INVALID JUMPDEST SWAP3 POP POP POP PUSH2 0x226C JUMP JUMPDEST DUP1 PUSH2 0x2186 JUMPI PUSH1 0x3 PUSH2 0x2171 JUMP JUMPDEST PUSH1 0x0 DUP9 PUSH1 0x1 PUSH1 0x1 PUSH1 0xA0 SHL SUB AND PUSH4 0x95DD9193 DUP8 PUSH1 0x40 MLOAD DUP3 PUSH4 0xFFFFFFFF AND PUSH1 0xE0 SHL DUP2 MSTORE PUSH1 0x4 ADD DUP1 DUP3 PUSH1 0x1 PUSH1 0x1 PUSH1 0xA0 SHL SUB AND PUSH1 0x1 PUSH1 0x1 PUSH1 0xA0 SHL SUB AND DUP2 MSTORE PUSH1 0x20 ADD SWAP2 POP POP PUSH1 0x20 PUSH1 0x40 MLOAD DUP1 DUP4 SUB DUP2 DUP7 DUP1 EXTCODESIZE ISZERO DUP1 ISZERO PUSH2 0x21DE JUMPI PUSH1 0x0 DUP1 REVERT JUMPDEST POP GAS STATICCALL ISZERO DUP1 ISZERO PUSH2 0x21F2 JUMPI RETURNDATASIZE PUSH1 0x0 DUP1 RETURNDATACOPY RETURNDATASIZE PUSH1 0x0 REVERT JUMPDEST POP POP POP POP PUSH1 0x40 MLOAD RETURNDATASIZE PUSH1 0x20 DUP2 LT ISZERO PUSH2 0x2208 JUMPI PUSH1 0x0 DUP1 REVERT JUMPDEST POP MLOAD PUSH1 0x40 DUP1 MLOAD PUSH1 0x20 DUP2 ADD SWAP1 SWAP2 MSTORE PUSH1 0x5 SLOAD DUP2 MSTORE SWAP1 SWAP2 POP PUSH1 0x0 SWAP1 DUP2 SWAP1 PUSH2 0x222C SWAP1 DUP5 PUSH2 0x4D2D JUMP JUMPDEST SWAP1 SWAP3 POP SWAP1 POP PUSH1 0x0 DUP3 PUSH1 0x3 DUP2 GT ISZERO PUSH2 0x223F JUMPI INVALID JUMPDEST EQ PUSH2 0x2253 JUMPI PUSH1 0xB JUMPDEST SWAP6 POP POP POP POP POP POP PUSH2 0x226C JUMP JUMPDEST DUP1 DUP8 GT ISZERO PUSH2 0x2262 JUMPI PUSH1 0x11 PUSH2 0x2247 JUMP JUMPDEST PUSH1 0x0 SWAP6 POP POP POP POP POP POP JUMPDEST SWAP6 SWAP5 POP POP POP POP POP JUMP JUMPDEST PUSH1 0x0 SLOAD PUSH1 0x1 PUSH1 0x1 PUSH1 0xA0 SHL SUB AND CALLER EQ DUP1 PUSH2 0x2298 JUMPI POP PUSH1 0x15 SLOAD PUSH1 0x1 PUSH1 0x1 PUSH1 0xA0 SHL SUB AND CALLER EQ JUMPDEST PUSH2 0x22D3 JUMPI PUSH1 0x40 MLOAD PUSH3 0x461BCD PUSH1 0xE5 SHL DUP2 MSTORE PUSH1 0x4 ADD DUP1 DUP1 PUSH1 0x20 ADD DUP3 DUP2 SUB DUP3 MSTORE PUSH1 0x35 DUP2 MSTORE PUSH1 0x20 ADD DUP1 PUSH2 0x5EBF PUSH1 0x35 SWAP2 CODECOPY PUSH1 0x40 ADD SWAP2 POP POP PUSH1 0x40 MLOAD DUP1 SWAP2 SUB SWAP1 REVERT JUMPDEST DUP3 DUP2 DUP2 ISZERO DUP1 ISZERO SWAP1 PUSH2 0x22E3 JUMPI POP DUP1 DUP3 EQ JUMPDEST PUSH2 0x2324 JUMPI PUSH1 0x40 DUP1 MLOAD PUSH3 0x461BCD PUSH1 0xE5 SHL DUP2 MSTORE PUSH1 0x20 PUSH1 0x4 DUP3 ADD MSTORE PUSH1 0xD PUSH1 0x24 DUP3 ADD MSTORE PUSH13 0x1A5B9D985B1A59081A5B9C1D5D PUSH1 0x9A SHL PUSH1 0x44 DUP3 ADD MSTORE SWAP1 MLOAD SWAP1 DUP2 SWAP1 SUB PUSH1 0x64 ADD SWAP1 REVERT JUMPDEST PUSH1 0x0 JUMPDEST DUP3 DUP2 LT ISZERO PUSH2 0x23FC JUMPI DUP5 DUP5 DUP3 DUP2 DUP2 LT PUSH2 0x233B JUMPI INVALID JUMPDEST SWAP1 POP PUSH1 0x20 MUL ADD CALLDATALOAD PUSH1 0x16 PUSH1 0x0 DUP10 DUP10 DUP6 DUP2 DUP2 LT PUSH2 0x2352 JUMPI INVALID JUMPDEST SWAP1 POP PUSH1 0x20 MUL ADD CALLDATALOAD PUSH1 0x1 PUSH1 0x1 PUSH1 0xA0 SHL SUB AND PUSH1 0x1 PUSH1 0x1 PUSH1 0xA0 SHL SUB AND PUSH1 0x1 PUSH1 0x1 PUSH1 0xA0 SHL SUB AND DUP2 MSTORE PUSH1 0x20 ADD SWAP1 DUP2 MSTORE PUSH1 0x20 ADD PUSH1 0x0 KECCAK256 DUP2 SWAP1 SSTORE POP DUP7 DUP7 DUP3 DUP2 DUP2 LT PUSH2 0x2392 JUMPI INVALID JUMPDEST SWAP1 POP PUSH1 0x20 MUL ADD CALLDATALOAD PUSH1 0x1 PUSH1 0x1 PUSH1 0xA0 SHL SUB AND PUSH1 0x1 PUSH1 0x1 PUSH1 0xA0 SHL SUB AND PUSH32 0x6F1951B2AAD10F3FC81B86D91105B413A5B3F847A34BBC5CE1904201B14438F6 DUP7 DUP7 DUP5 DUP2 DUP2 LT PUSH2 0x23D8 JUMPI INVALID JUMPDEST SWAP1 POP PUSH1 0x20 MUL ADD CALLDATALOAD PUSH1 0x40 MLOAD DUP1 DUP3 DUP2 MSTORE PUSH1 0x20 ADD SWAP2 POP POP PUSH1 0x40 MLOAD DUP1 SWAP2 SUB SWAP1 LOG2 PUSH1 0x1 ADD PUSH2 0x2327 JUMP JUMPDEST POP POP POP POP POP POP POP JUMP JUMPDEST PUSH1 0x0 JUMPDEST DUP4 MLOAD DUP2 LT ISZERO PUSH2 0x1612 JUMPI PUSH1 0x0 DUP5 DUP3 DUP2 MLOAD DUP2 LT PUSH2 0x241F JUMPI INVALID JUMPDEST PUSH1 0x20 SWAP1 DUP2 MUL SWAP2 SWAP1 SWAP2 ADD DUP2 ADD MLOAD PUSH1 0x1 PUSH1 0x1 PUSH1 0xA0 SHL SUB DUP2 AND PUSH1 0x0 SWAP1 DUP2 MSTORE PUSH1 0x9 SWAP1 SWAP3 MSTORE PUSH1 0x40 SWAP1 SWAP2 KECCAK256 SLOAD SWAP1 SWAP2 POP PUSH1 0xFF AND PUSH2 0x2494 JUMPI PUSH1 0x40 DUP1 MLOAD PUSH3 0x461BCD PUSH1 0xE5 SHL DUP2 MSTORE PUSH1 0x20 PUSH1 0x4 DUP3 ADD MSTORE PUSH1 0x15 PUSH1 0x24 DUP3 ADD MSTORE PUSH21 0x1B585C9AD95D081B5D5CDD081899481B1A5CDD1959 PUSH1 0x5A SHL PUSH1 0x44 DUP3 ADD MSTORE SWAP1 MLOAD SWAP1 DUP2 SWAP1 SUB PUSH1 0x64 ADD SWAP1 REVERT JUMPDEST PUSH1 0x1 DUP5 ISZERO ISZERO EQ ISZERO PUSH2 0x255C JUMPI PUSH2 0x24A7 PUSH2 0x5D59 JUMP JUMPDEST PUSH1 0x40 MLOAD DUP1 PUSH1 0x20 ADD PUSH1 0x40 MSTORE DUP1 DUP4 PUSH1 0x1 PUSH1 0x1 PUSH1 0xA0 SHL SUB AND PUSH4 0xAA5AF0FD PUSH1 0x40 MLOAD DUP2 PUSH4 0xFFFFFFFF AND PUSH1 0xE0 SHL DUP2 MSTORE PUSH1 0x4 ADD PUSH1 0x20 PUSH1 0x40 MLOAD DUP1 DUP4 SUB DUP2 DUP7 DUP1 EXTCODESIZE ISZERO DUP1 ISZERO PUSH2 0x24EB JUMPI PUSH1 0x0 DUP1 REVERT JUMPDEST POP GAS STATICCALL ISZERO DUP1 ISZERO PUSH2 0x24FF JUMPI RETURNDATASIZE PUSH1 0x0 DUP1 RETURNDATACOPY RETURNDATASIZE PUSH1 0x0 REVERT JUMPDEST POP POP POP POP PUSH1 0x40 MLOAD RETURNDATASIZE PUSH1 0x20 DUP2 LT ISZERO PUSH2 0x2515 JUMPI PUSH1 0x0 DUP1 REVERT JUMPDEST POP MLOAD SWAP1 MSTORE SWAP1 POP PUSH2 0x2525 DUP3 DUP3 PUSH2 0x3BD0 JUMP JUMPDEST PUSH1 0x0 JUMPDEST DUP8 MLOAD DUP2 LT ISZERO PUSH2 0x2559 JUMPI PUSH2 0x2551 DUP4 DUP10 DUP4 DUP2 MLOAD DUP2 LT PUSH2 0x2541 JUMPI INVALID JUMPDEST PUSH1 0x20 MUL PUSH1 0x20 ADD ADD MLOAD DUP5 PUSH1 0x1 PUSH2 0x3E58 JUMP JUMPDEST PUSH1 0x1 ADD PUSH2 0x2528 JUMP JUMPDEST POP POP JUMPDEST PUSH1 0x1 DUP4 ISZERO ISZERO EQ ISZERO PUSH2 0x25A5 JUMPI PUSH2 0x2570 DUP2 PUSH2 0x4897 JUMP JUMPDEST PUSH1 0x0 JUMPDEST DUP7 MLOAD DUP2 LT ISZERO PUSH2 0x25A3 JUMPI PUSH2 0x259B DUP3 DUP9 DUP4 DUP2 MLOAD DUP2 LT PUSH2 0x258C JUMPI INVALID JUMPDEST PUSH1 0x20 MUL PUSH1 0x20 ADD ADD MLOAD PUSH1 0x1 PUSH2 0x4B15 JUMP JUMPDEST PUSH1 0x1 ADD PUSH2 0x2573 JUMP JUMPDEST POP JUMPDEST POP PUSH1 0x1 ADD PUSH2 0x2408 JUMP JUMPDEST PUSH2 0x25B6 PUSH2 0x4D81 JUMP JUMPDEST PUSH2 0x2607 JUMPI PUSH1 0x40 DUP1 MLOAD PUSH3 0x461BCD PUSH1 0xE5 SHL DUP2 MSTORE PUSH1 0x20 PUSH1 0x4 DUP3 ADD MSTORE PUSH1 0x1F PUSH1 0x24 DUP3 ADD MSTORE PUSH32 0x6F6E6C792061646D696E2063616E206368616E676520636F6D70207261746500 PUSH1 0x44 DUP3 ADD MSTORE SWAP1 MLOAD SWAP1 DUP2 SWAP1 SUB PUSH1 0x64 ADD SWAP1 REVERT JUMPDEST PUSH1 0xE DUP1 SLOAD SWAP1 DUP3 SWAP1 SSTORE PUSH1 0x40 DUP1 MLOAD DUP3 DUP2 MSTORE PUSH1 0x20 DUP2 ADD DUP5 SWAP1 MSTORE DUP2 MLOAD PUSH32 0xC227C9272633C3A307D9845BF2BC2509CEFB20D655B5F3C1002D8E1E3F22C8B0 SWAP3 SWAP2 DUP2 SWAP1 SUB SWAP1 SWAP2 ADD SWAP1 LOG1 PUSH2 0x1B33 PUSH2 0x40B7 JUMP JUMPDEST PUSH1 0x10 PUSH1 0x20 MSTORE PUSH1 0x0 SWAP1 DUP2 MSTORE PUSH1 0x40 SWAP1 KECCAK256 SLOAD PUSH1 0x1 PUSH1 0x1 PUSH1 0xE0 SHL SUB DUP2 AND SWAP1 PUSH1 0x1 PUSH1 0xE0 SHL SWAP1 DIV PUSH4 0xFFFFFFFF AND DUP3 JUMP JUMPDEST PUSH1 0xC PUSH1 0x20 MSTORE PUSH1 0x0 SWAP1 DUP2 MSTORE PUSH1 0x40 SWAP1 KECCAK256 SLOAD PUSH1 0xFF AND DUP2 JUMP JUMPDEST PUSH1 0xB PUSH1 0x20 MSTORE PUSH1 0x0 SWAP1 DUP2 MSTORE PUSH1 0x40 SWAP1 KECCAK256 SLOAD PUSH1 0xFF AND DUP2 JUMP JUMPDEST PUSH7 0x38D7EA4C68000 DUP2 JUMP JUMPDEST PUSH1 0x4 SLOAD PUSH1 0x1 PUSH1 0x1 PUSH1 0xA0 SHL SUB AND DUP2 JUMP JUMPDEST PUSH1 0xA SLOAD PUSH1 0x1 PUSH1 0xB0 SHL SWAP1 DIV PUSH1 0xFF AND DUP2 JUMP JUMPDEST PUSH1 0x11 PUSH1 0x20 MSTORE PUSH1 0x0 SWAP1 DUP2 MSTORE PUSH1 0x40 SWAP1 KECCAK256 SLOAD PUSH1 0x1 PUSH1 0x1 PUSH1 0xE0 SHL SUB DUP2 AND SWAP1 PUSH1 0x1 PUSH1 0xE0 SHL SWAP1 DIV PUSH4 0xFFFFFFFF AND DUP3 JUMP JUMPDEST PUSH1 0x9 PUSH1 0x20 MSTORE PUSH1 0x0 SWAP1 DUP2 MSTORE PUSH1 0x40 SWAP1 KECCAK256 DUP1 SLOAD PUSH1 0x1 DUP3 ADD SLOAD PUSH1 0x3 SWAP1 SWAP3 ADD SLOAD PUSH1 0xFF SWAP2 DUP3 AND SWAP3 SWAP2 AND DUP4 JUMP JUMPDEST PUSH1 0xA SLOAD PUSH1 0x0 SWAP1 PUSH1 0x1 PUSH1 0x1 PUSH1 0xA0 SHL SUB AND CALLER EQ DUP1 PUSH2 0x2746 JUMPI POP PUSH1 0x0 SLOAD PUSH1 0x1 PUSH1 0x1 PUSH1 0xA0 SHL SUB AND CALLER EQ JUMPDEST PUSH2 0x2781 JUMPI PUSH1 0x40 MLOAD PUSH3 0x461BCD PUSH1 0xE5 SHL DUP2 MSTORE PUSH1 0x4 ADD DUP1 DUP1 PUSH1 0x20 ADD DUP3 DUP2 SUB DUP3 MSTORE PUSH1 0x27 DUP2 MSTORE PUSH1 0x20 ADD DUP1 PUSH2 0x5E72 PUSH1 0x27 SWAP2 CODECOPY PUSH1 0x40 ADD SWAP2 POP POP PUSH1 0x40 MLOAD DUP1 SWAP2 SUB SWAP1 REVERT JUMPDEST PUSH1 0x0 SLOAD PUSH1 0x1 PUSH1 0x1 PUSH1 0xA0 SHL SUB AND CALLER EQ DUP1 PUSH2 0x279C JUMPI POP PUSH1 0x1 DUP3 ISZERO ISZERO EQ JUMPDEST PUSH2 0x27E6 JUMPI PUSH1 0x40 DUP1 MLOAD PUSH3 0x461BCD PUSH1 0xE5 SHL DUP2 MSTORE PUSH1 0x20 PUSH1 0x4 DUP3 ADD MSTORE PUSH1 0x16 PUSH1 0x24 DUP3 ADD MSTORE PUSH22 0x6F6E6C792061646D696E2063616E20756E7061757365 PUSH1 0x50 SHL PUSH1 0x44 DUP3 ADD MSTORE SWAP1 MLOAD SWAP1 DUP2 SWAP1 SUB PUSH1 0x64 ADD SWAP1 REVERT JUMPDEST PUSH1 0xA DUP1 SLOAD DUP4 ISZERO ISZERO PUSH1 0x1 PUSH1 0xB0 SHL DUP2 MUL PUSH1 0xFF PUSH1 0xB0 SHL NOT SWAP1 SWAP3 AND SWAP2 SWAP1 SWAP2 OR SWAP1 SWAP2 SSTORE PUSH1 0x40 DUP1 MLOAD PUSH1 0x20 DUP2 ADD SWAP3 SWAP1 SWAP3 MSTORE DUP1 DUP3 MSTORE PUSH1 0x8 DUP3 DUP3 ADD MSTORE PUSH8 0x2A3930B739B332B9 PUSH1 0xC1 SHL PUSH1 0x60 DUP4 ADD MSTORE MLOAD PUSH32 0xEF159D9A32B2472E32B098F954F3CE62D232939F1C207070B584DF1814DE2DE0 SWAP2 DUP2 SWAP1 SUB PUSH1 0x80 ADD SWAP1 LOG1 POP SWAP1 JUMP JUMPDEST PUSH1 0x1 PUSH1 0x1 PUSH1 0xA0 SHL SUB DUP1 DUP3 AND PUSH1 0x0 SWAP1 DUP2 MSTORE PUSH1 0x9 PUSH1 0x20 SWAP1 DUP2 MSTORE PUSH1 0x40 DUP1 DUP4 KECCAK256 SWAP4 DUP7 AND DUP4 MSTORE PUSH1 0x2 SWAP1 SWAP4 ADD SWAP1 MSTORE KECCAK256 SLOAD PUSH1 0xFF AND SWAP3 SWAP2 POP POP JUMP JUMPDEST PUSH1 0x7 SLOAD DUP2 JUMP JUMPDEST PUSH20 0xC00E94CB662C3520282E6F5717214004A7F26888 SWAP1 JUMP JUMPDEST PUSH1 0x0 DUP1 SLOAD PUSH1 0x1 PUSH1 0x1 PUSH1 0xA0 SHL SUB AND CALLER EQ PUSH2 0x28C9 JUMPI PUSH2 0x1868 PUSH1 0x1 PUSH1 0x12 PUSH2 0x4042 JUMP JUMPDEST PUSH1 0x1 PUSH1 0x1 PUSH1 0xA0 SHL SUB DUP3 AND PUSH1 0x0 SWAP1 DUP2 MSTORE PUSH1 0x9 PUSH1 0x20 MSTORE PUSH1 0x40 SWAP1 KECCAK256 SLOAD PUSH1 0xFF AND ISZERO PUSH2 0x28F6 JUMPI PUSH2 0x1868 PUSH1 0xA PUSH1 0x11 PUSH2 0x4042 JUMP JUMPDEST DUP2 PUSH1 0x1 PUSH1 0x1 PUSH1 0xA0 SHL SUB AND PUSH4 0xFE9C44AE PUSH1 0x40 MLOAD DUP2 PUSH4 0xFFFFFFFF AND PUSH1 0xE0 SHL DUP2 MSTORE PUSH1 0x4 ADD PUSH1 0x20 PUSH1 0x40 MLOAD DUP1 DUP4 SUB DUP2 DUP7 DUP1 EXTCODESIZE ISZERO DUP1 ISZERO PUSH2 0x292F JUMPI PUSH1 0x0 DUP1 REVERT JUMPDEST POP GAS STATICCALL ISZERO DUP1 ISZERO PUSH2 0x2943 JUMPI RETURNDATASIZE PUSH1 0x0 DUP1 RETURNDATACOPY RETURNDATASIZE PUSH1 0x0 REVERT JUMPDEST POP POP POP POP PUSH1 0x40 MLOAD RETURNDATASIZE PUSH1 0x20 DUP2 LT ISZERO PUSH2 0x2959 JUMPI PUSH1 0x0 DUP1 REVERT JUMPDEST POP POP PUSH1 0x40 DUP1 MLOAD PUSH1 0x60 DUP2 ADD DUP3 MSTORE PUSH1 0x1 DUP1 DUP3 MSTORE PUSH1 0x0 PUSH1 0x20 DUP4 DUP2 ADD DUP3 DUP2 MSTORE DUP5 DUP7 ADD DUP4 DUP2 MSTORE PUSH1 0x1 PUSH1 0x1 PUSH1 0xA0 SHL SUB DUP10 AND DUP5 MSTORE PUSH1 0x9 SWAP1 SWAP3 MSTORE SWAP5 SWAP1 SWAP2 KECCAK256 SWAP3 MLOAD DUP4 SLOAD SWAP1 ISZERO ISZERO PUSH1 0xFF NOT SWAP2 DUP3 AND OR DUP5 SSTORE SWAP4 MLOAD SWAP2 DUP4 ADD SWAP2 SWAP1 SWAP2 SSTORE MLOAD PUSH1 0x3 SWAP1 SWAP2 ADD DUP1 SLOAD SWAP2 ISZERO ISZERO SWAP2 SWAP1 SWAP3 AND OR SWAP1 SSTORE PUSH2 0x29C3 DUP3 PUSH2 0x4DAA JUMP JUMPDEST PUSH1 0x40 DUP1 MLOAD PUSH1 0x1 PUSH1 0x1 PUSH1 0xA0 SHL SUB DUP5 AND DUP2 MSTORE SWAP1 MLOAD PUSH32 0xCF583BB0C569EB967F806B11601C4CB93C10310485C67ADD5F8362C2F212321F SWAP2 DUP2 SWAP1 SUB PUSH1 0x20 ADD SWAP1 LOG1 PUSH1 0x0 SWAP3 SWAP2 POP POP JUMP JUMPDEST PUSH15 0xC097CE7BC90715B34B9F1000000000 DUP2 JUMP JUMPDEST PUSH1 0xE SLOAD DUP2 JUMP JUMPDEST PUSH1 0x60 DUP1 PUSH1 0x8 PUSH1 0x0 DUP5 PUSH1 0x1 PUSH1 0x1 PUSH1 0xA0 SHL SUB AND PUSH1 0x1 PUSH1 0x1 PUSH1 0xA0 SHL SUB AND DUP2 MSTORE PUSH1 0x20 ADD SWAP1 DUP2 MSTORE PUSH1 0x20 ADD PUSH1 0x0 KECCAK256 DUP1 SLOAD DUP1 PUSH1 0x20 MUL PUSH1 0x20 ADD PUSH1 0x40 MLOAD SWAP1 DUP2 ADD PUSH1 0x40 MSTORE DUP1 SWAP3 SWAP2 SWAP1 DUP2 DUP2 MSTORE PUSH1 0x20 ADD DUP3 DUP1 SLOAD DUP1 ISZERO PUSH2 0x2A9C JUMPI PUSH1 0x20 MUL DUP3 ADD SWAP2 SWAP1 PUSH1 0x0 MSTORE PUSH1 0x20 PUSH1 0x0 KECCAK256 SWAP1 JUMPDEST DUP2 SLOAD PUSH1 0x1 PUSH1 0x1 PUSH1 0xA0 SHL SUB AND DUP2 MSTORE PUSH1 0x1 SWAP1 SWAP2 ADD SWAP1 PUSH1 0x20 ADD DUP1 DUP4 GT PUSH2 0x2A7E JUMPI JUMPDEST POP SWAP4 SWAP8 SWAP7 POP POP POP POP POP POP POP JUMP JUMPDEST PUSH1 0xA SLOAD PUSH1 0x1 PUSH1 0xB8 SHL SWAP1 DIV PUSH1 0xFF AND DUP2 JUMP JUMPDEST PUSH1 0x60 PUSH1 0xD DUP1 SLOAD DUP1 PUSH1 0x20 MUL PUSH1 0x20 ADD PUSH1 0x40 MLOAD SWAP1 DUP2 ADD PUSH1 0x40 MSTORE DUP1 SWAP3 SWAP2 SWAP1 DUP2 DUP2 MSTORE PUSH1 0x20 ADD DUP3 DUP1 SLOAD DUP1 ISZERO PUSH2 0x2B11 JUMPI PUSH1 0x20 MUL DUP3 ADD SWAP2 SWAP1 PUSH1 0x0 MSTORE PUSH1 0x20 PUSH1 0x0 KECCAK256 SWAP1 JUMPDEST DUP2 SLOAD PUSH1 0x1 PUSH1 0x1 PUSH1 0xA0 SHL SUB AND DUP2 MSTORE PUSH1 0x1 SWAP1 SWAP2 ADD SWAP1 PUSH1 0x20 ADD DUP1 DUP4 GT PUSH2 0x2AF3 JUMPI JUMPDEST POP POP POP POP POP SWAP1 POP SWAP1 JUMP JUMPDEST PUSH1 0x12 PUSH1 0x20 SWAP1 DUP2 MSTORE PUSH1 0x0 SWAP3 DUP4 MSTORE PUSH1 0x40 DUP1 DUP5 KECCAK256 SWAP1 SWAP2 MSTORE SWAP1 DUP3 MSTORE SWAP1 KECCAK256 SLOAD DUP2 JUMP JUMPDEST PUSH1 0x2 SLOAD PUSH1 0x1 PUSH1 0x1 PUSH1 0xA0 SHL SUB AND DUP2 JUMP JUMPDEST PUSH1 0xA SLOAD PUSH1 0x0 SWAP1 PUSH1 0x1 PUSH1 0xB0 SHL SWAP1 DIV PUSH1 0xFF AND ISZERO PUSH2 0x2B9E JUMPI PUSH1 0x40 DUP1 MLOAD PUSH3 0x461BCD PUSH1 0xE5 SHL DUP2 MSTORE PUSH1 0x20 PUSH1 0x4 DUP3 ADD MSTORE PUSH1 0x12 PUSH1 0x24 DUP3 ADD MSTORE PUSH18 0x1D1C985B9CD9995C881A5CC81C185D5CD959 PUSH1 0x72 SHL PUSH1 0x44 DUP3 ADD MSTORE SWAP1 MLOAD SWAP1 DUP2 SWAP1 SUB PUSH1 0x64 ADD SWAP1 REVERT JUMPDEST PUSH1 0x0 PUSH2 0x2BAB DUP7 DUP7 DUP6 PUSH2 0x4E88 JUMP JUMPDEST SWAP1 POP DUP1 ISZERO PUSH2 0x2BBA JUMPI SWAP1 POP PUSH2 0x16E9 JUMP JUMPDEST PUSH2 0x2BC3 DUP7 PUSH2 0x4897 JUMP JUMPDEST PUSH2 0x2BCF DUP7 DUP7 PUSH1 0x0 PUSH2 0x4B15 JUMP JUMPDEST PUSH2 0x16E3 DUP7 DUP6 PUSH1 0x0 PUSH2 0x4B15 JUMP JUMPDEST PUSH1 0x60 PUSH1 0x0 DUP3 MLOAD SWAP1 POP PUSH1 0x60 DUP2 PUSH1 0x40 MLOAD SWAP1 DUP1 DUP3 MSTORE DUP1 PUSH1 0x20 MUL PUSH1 0x20 ADD DUP3 ADD PUSH1 0x40 MSTORE DUP1 ISZERO PUSH2 0x2C0F JUMPI DUP2 PUSH1 0x20 ADD PUSH1 0x20 DUP3 MUL DUP1 CODESIZE DUP4 CODECOPY ADD SWAP1 POP JUMPDEST POP SWAP1 POP PUSH1 0x0 JUMPDEST DUP3 DUP2 LT ISZERO PUSH2 0x2C6A JUMPI PUSH1 0x0 DUP6 DUP3 DUP2 MLOAD DUP2 LT PUSH2 0x2C2B JUMPI INVALID JUMPDEST PUSH1 0x20 MUL PUSH1 0x20 ADD ADD MLOAD SWAP1 POP PUSH2 0x2C3F DUP2 CALLER PUSH2 0x4F34 JUMP JUMPDEST PUSH1 0x11 DUP2 GT ISZERO PUSH2 0x2C4A JUMPI INVALID JUMPDEST DUP4 DUP4 DUP2 MLOAD DUP2 LT PUSH2 0x2C56 JUMPI INVALID JUMPDEST PUSH1 0x20 SWAP1 DUP2 MUL SWAP2 SWAP1 SWAP2 ADD ADD MSTORE POP PUSH1 0x1 ADD PUSH2 0x2C15 JUMP JUMPDEST POP SWAP4 SWAP3 POP POP POP JUMP JUMPDEST PUSH1 0x4 DUP1 SLOAD PUSH1 0x40 DUP1 MLOAD PUSH4 0xFC57D4DF PUSH1 0xE0 SHL DUP2 MSTORE PUSH1 0x1 PUSH1 0x1 PUSH1 0xA0 SHL SUB DUP8 DUP2 AND SWAP5 DUP3 ADD SWAP5 SWAP1 SWAP5 MSTORE SWAP1 MLOAD PUSH1 0x0 SWAP4 DUP5 SWAP4 DUP5 SWAP4 SWAP2 AND SWAP2 PUSH4 0xFC57D4DF SWAP2 PUSH1 0x24 DUP1 DUP3 ADD SWAP3 PUSH1 0x20 SWAP3 SWAP1 SWAP2 SWAP1 DUP3 SWAP1 SUB ADD DUP2 DUP7 DUP1 EXTCODESIZE ISZERO DUP1 ISZERO PUSH2 0x2CC8 JUMPI PUSH1 0x0 DUP1 REVERT JUMPDEST POP GAS STATICCALL ISZERO DUP1 ISZERO PUSH2 0x2CDC JUMPI RETURNDATASIZE PUSH1 0x0 DUP1 RETURNDATACOPY RETURNDATASIZE PUSH1 0x0 REVERT JUMPDEST POP POP POP POP PUSH1 0x40 MLOAD RETURNDATASIZE PUSH1 0x20 DUP2 LT ISZERO PUSH2 0x2CF2 JUMPI PUSH1 0x0 DUP1 REVERT JUMPDEST POP MLOAD PUSH1 0x4 DUP1 SLOAD PUSH1 0x40 DUP1 MLOAD PUSH4 0xFC57D4DF PUSH1 0xE0 SHL DUP2 MSTORE PUSH1 0x1 PUSH1 0x1 PUSH1 0xA0 SHL SUB DUP11 DUP2 AND SWAP5 DUP3 ADD SWAP5 SWAP1 SWAP5 MSTORE SWAP1 MLOAD SWAP4 SWAP5 POP PUSH1 0x0 SWAP4 SWAP3 SWAP1 SWAP2 AND SWAP2 PUSH4 0xFC57D4DF SWAP2 PUSH1 0x24 DUP1 DUP3 ADD SWAP3 PUSH1 0x20 SWAP3 SWAP1 SWAP2 SWAP1 DUP3 SWAP1 SUB ADD DUP2 DUP7 DUP1 EXTCODESIZE ISZERO DUP1 ISZERO PUSH2 0x2D4B JUMPI PUSH1 0x0 DUP1 REVERT JUMPDEST POP GAS STATICCALL ISZERO DUP1 ISZERO PUSH2 0x2D5F JUMPI RETURNDATASIZE PUSH1 0x0 DUP1 RETURNDATACOPY RETURNDATASIZE PUSH1 0x0 REVERT JUMPDEST POP POP POP POP PUSH1 0x40 MLOAD RETURNDATASIZE PUSH1 0x20 DUP2 LT ISZERO PUSH2 0x2D75 JUMPI PUSH1 0x0 DUP1 REVERT JUMPDEST POP MLOAD SWAP1 POP DUP2 ISZERO DUP1 PUSH2 0x2D84 JUMPI POP DUP1 ISZERO JUMPDEST ISZERO PUSH2 0x2D99 JUMPI PUSH1 0xD SWAP4 POP PUSH1 0x0 SWAP3 POP PUSH2 0x2EDF SWAP2 POP POP JUMP JUMPDEST PUSH1 0x0 DUP7 PUSH1 0x1 PUSH1 0x1 PUSH1 0xA0 SHL SUB AND PUSH4 0x182DF0F5 PUSH1 0x40 MLOAD DUP2 PUSH4 0xFFFFFFFF AND PUSH1 0xE0 SHL DUP2 MSTORE PUSH1 0x4 ADD PUSH1 0x20 PUSH1 0x40 MLOAD DUP1 DUP4 SUB DUP2 DUP7 DUP1 EXTCODESIZE ISZERO DUP1 ISZERO PUSH2 0x2DD4 JUMPI PUSH1 0x0 DUP1 REVERT JUMPDEST POP GAS STATICCALL ISZERO DUP1 ISZERO PUSH2 0x2DE8 JUMPI RETURNDATASIZE PUSH1 0x0 DUP1 RETURNDATACOPY RETURNDATASIZE PUSH1 0x0 REVERT JUMPDEST POP POP POP POP PUSH1 0x40 MLOAD RETURNDATASIZE PUSH1 0x20 DUP2 LT ISZERO PUSH2 0x2DFE JUMPI PUSH1 0x0 DUP1 REVERT JUMPDEST POP MLOAD SWAP1 POP PUSH1 0x0 PUSH2 0x2E0C PUSH2 0x5D59 JUMP JUMPDEST PUSH2 0x2E14 PUSH2 0x5D59 JUMP JUMPDEST PUSH2 0x2E1C PUSH2 0x5D59 JUMP JUMPDEST PUSH1 0x0 PUSH2 0x2E2A PUSH1 0x6 SLOAD DUP10 PUSH2 0x5055 JUMP JUMPDEST SWAP5 POP SWAP1 POP PUSH1 0x0 DUP2 PUSH1 0x3 DUP2 GT ISZERO PUSH2 0x2E3C JUMPI INVALID JUMPDEST EQ PUSH2 0x2E58 JUMPI PUSH1 0xB JUMPDEST SWAP10 POP PUSH1 0x0 SWAP9 POP PUSH2 0x2EDF SWAP8 POP POP POP POP POP POP POP POP JUMP JUMPDEST PUSH2 0x2E62 DUP8 DUP8 PUSH2 0x5055 JUMP JUMPDEST SWAP4 POP SWAP1 POP PUSH1 0x0 DUP2 PUSH1 0x3 DUP2 GT ISZERO PUSH2 0x2E74 JUMPI INVALID JUMPDEST EQ PUSH2 0x2E80 JUMPI PUSH1 0xB PUSH2 0x2E44 JUMP JUMPDEST PUSH2 0x2E8A DUP5 DUP5 PUSH2 0x5090 JUMP JUMPDEST SWAP3 POP SWAP1 POP PUSH1 0x0 DUP2 PUSH1 0x3 DUP2 GT ISZERO PUSH2 0x2E9C JUMPI INVALID JUMPDEST EQ PUSH2 0x2EA8 JUMPI PUSH1 0xB PUSH2 0x2E44 JUMP JUMPDEST PUSH2 0x2EB2 DUP3 DUP13 PUSH2 0x4D2D JUMP JUMPDEST SWAP6 POP SWAP1 POP PUSH1 0x0 DUP2 PUSH1 0x3 DUP2 GT ISZERO PUSH2 0x2EC4 JUMPI INVALID JUMPDEST EQ PUSH2 0x2ED0 JUMPI PUSH1 0xB PUSH2 0x2E44 JUMP JUMPDEST PUSH1 0x0 SWAP10 POP SWAP4 SWAP8 POP POP POP POP POP POP POP POP JUMPDEST SWAP4 POP SWAP4 SWAP2 POP POP JUMP JUMPDEST PUSH1 0x13 PUSH1 0x20 SWAP1 DUP2 MSTORE PUSH1 0x0 SWAP3 DUP4 MSTORE PUSH1 0x40 DUP1 DUP5 KECCAK256 SWAP1 SWAP2 MSTORE SWAP1 DUP3 MSTORE SWAP1 KECCAK256 SLOAD DUP2 JUMP JUMPDEST PUSH1 0x14 PUSH1 0x20 MSTORE PUSH1 0x0 SWAP1 DUP2 MSTORE PUSH1 0x40 SWAP1 KECCAK256 SLOAD DUP2 JUMP JUMPDEST PUSH2 0x2F1E PUSH2 0x4D81 JUMP JUMPDEST PUSH2 0x2F6F JUMPI PUSH1 0x40 DUP1 MLOAD PUSH3 0x461BCD PUSH1 0xE5 SHL DUP2 MSTORE PUSH1 0x20 PUSH1 0x4 DUP3 ADD MSTORE PUSH1 0x1E PUSH1 0x24 DUP3 ADD MSTORE PUSH32 0x6F6E6C792061646D696E2063616E2061646420636F6D70206D61726B65740000 PUSH1 0x44 DUP3 ADD MSTORE SWAP1 MLOAD SWAP1 DUP2 SWAP1 SUB PUSH1 0x64 ADD SWAP1 REVERT JUMPDEST PUSH1 0x0 JUMPDEST DUP2 MLOAD DUP2 LT ISZERO PUSH2 0x2F9F JUMPI PUSH2 0x2F97 DUP3 DUP3 DUP2 MLOAD DUP2 LT PUSH2 0x2F8A JUMPI INVALID JUMPDEST PUSH1 0x20 MUL PUSH1 0x20 ADD ADD MLOAD PUSH2 0x50A8 JUMP JUMPDEST PUSH1 0x1 ADD PUSH2 0x2F72 JUMP JUMPDEST POP PUSH2 0x15FD PUSH2 0x40B7 JUMP JUMPDEST PUSH1 0xA SLOAD PUSH1 0x0 SWAP1 PUSH1 0x1 PUSH1 0xB8 SHL SWAP1 DIV PUSH1 0xFF AND ISZERO PUSH2 0x2FFC JUMPI PUSH1 0x40 DUP1 MLOAD PUSH3 0x461BCD PUSH1 0xE5 SHL DUP2 MSTORE PUSH1 0x20 PUSH1 0x4 DUP3 ADD MSTORE PUSH1 0xF PUSH1 0x24 DUP3 ADD MSTORE PUSH15 0x1CD95A5E99481A5CC81C185D5CD959 PUSH1 0x8A SHL PUSH1 0x44 DUP3 ADD MSTORE SWAP1 MLOAD SWAP1 DUP2 SWAP1 SUB PUSH1 0x64 ADD SWAP1 REVERT JUMPDEST PUSH1 0x1 PUSH1 0x1 PUSH1 0xA0 SHL SUB DUP7 AND PUSH1 0x0 SWAP1 DUP2 MSTORE PUSH1 0x9 PUSH1 0x20 MSTORE PUSH1 0x40 SWAP1 KECCAK256 SLOAD PUSH1 0xFF AND ISZERO DUP1 PUSH2 0x303D JUMPI POP PUSH1 0x1 PUSH1 0x1 PUSH1 0xA0 SHL SUB DUP6 AND PUSH1 0x0 SWAP1 DUP2 MSTORE PUSH1 0x9 PUSH1 0x20 MSTORE PUSH1 0x40 SWAP1 KECCAK256 SLOAD PUSH1 0xFF AND ISZERO JUMPDEST ISZERO PUSH2 0x3049 JUMPI PUSH1 0x9 PUSH2 0x2137 JUMP JUMPDEST DUP5 PUSH1 0x1 PUSH1 0x1 PUSH1 0xA0 SHL SUB AND PUSH4 0x5FE3B567 PUSH1 0x40 MLOAD DUP2 PUSH4 0xFFFFFFFF AND PUSH1 0xE0 SHL DUP2 MSTORE PUSH1 0x4 ADD PUSH1 0x20 PUSH1 0x40 MLOAD DUP1 DUP4 SUB DUP2 DUP7 DUP1 EXTCODESIZE ISZERO DUP1 ISZERO PUSH2 0x3082 JUMPI PUSH1 0x0 DUP1 REVERT JUMPDEST POP GAS STATICCALL ISZERO DUP1 ISZERO PUSH2 0x3096 JUMPI RETURNDATASIZE PUSH1 0x0 DUP1 RETURNDATACOPY RETURNDATASIZE PUSH1 0x0 REVERT JUMPDEST POP POP POP POP PUSH1 0x40 MLOAD RETURNDATASIZE PUSH1 0x20 DUP2 LT ISZERO PUSH2 0x30AC JUMPI PUSH1 0x0 DUP1 REVERT JUMPDEST POP MLOAD PUSH1 0x40 DUP1 MLOAD PUSH4 0x5FE3B567 PUSH1 0xE0 SHL DUP2 MSTORE SWAP1 MLOAD PUSH1 0x1 PUSH1 0x1 PUSH1 0xA0 SHL SUB SWAP3 DUP4 AND SWAP3 DUP10 AND SWAP2 PUSH4 0x5FE3B567 SWAP2 PUSH1 0x4 DUP1 DUP4 ADD SWAP3 PUSH1 0x20 SWAP3 SWAP2 SWAP1 DUP3 SWAP1 SUB ADD DUP2 DUP7 DUP1 EXTCODESIZE ISZERO DUP1 ISZERO PUSH2 0x30F2 JUMPI PUSH1 0x0 DUP1 REVERT JUMPDEST POP GAS STATICCALL ISZERO DUP1 ISZERO PUSH2 0x3106 JUMPI RETURNDATASIZE PUSH1 0x0 DUP1 RETURNDATACOPY RETURNDATASIZE PUSH1 0x0 REVERT JUMPDEST POP POP POP POP PUSH1 0x40 MLOAD RETURNDATASIZE PUSH1 0x20 DUP2 LT ISZERO PUSH2 0x311C JUMPI PUSH1 0x0 DUP1 REVERT JUMPDEST POP MLOAD PUSH1 0x1 PUSH1 0x1 PUSH1 0xA0 SHL SUB AND EQ PUSH2 0x3133 JUMPI PUSH1 0x2 PUSH2 0x2137 JUMP JUMPDEST PUSH2 0x313C DUP7 PUSH2 0x4897 JUMP JUMPDEST PUSH2 0x3148 DUP7 DUP5 PUSH1 0x0 PUSH2 0x4B15 JUMP JUMPDEST PUSH2 0x3154 DUP7 DUP6 PUSH1 0x0 PUSH2 0x4B15 JUMP JUMPDEST PUSH1 0x0 SWAP7 SWAP6 POP POP POP POP POP POP JUMP JUMPDEST PUSH1 0x0 DUP1 SLOAD PUSH1 0x1 PUSH1 0x1 PUSH1 0xA0 SHL SUB AND CALLER EQ PUSH2 0x317F JUMPI PUSH2 0x1868 PUSH1 0x1 PUSH1 0xD PUSH2 0x4042 JUMP JUMPDEST PUSH1 0x7 DUP1 SLOAD SWAP1 DUP4 SWAP1 SSTORE PUSH1 0x40 DUP1 MLOAD DUP3 DUP2 MSTORE PUSH1 0x20 DUP2 ADD DUP6 SWAP1 MSTORE DUP2 MLOAD PUSH32 0x7093CF1EB653F749C3FF531D6DF7F92764536A7FA0D13530CD26E070780C32EA SWAP3 SWAP2 DUP2 SWAP1 SUB SWAP1 SWAP2 ADD SWAP1 LOG1 PUSH1 0x0 PUSH2 0x1E33 JUMP JUMPDEST PUSH1 0x1 PUSH1 0x1 PUSH1 0xA0 SHL SUB DUP4 AND PUSH1 0x0 SWAP1 DUP2 MSTORE PUSH1 0xC PUSH1 0x20 MSTORE PUSH1 0x40 DUP2 KECCAK256 SLOAD PUSH1 0xFF AND ISZERO PUSH2 0x322A JUMPI PUSH1 0x40 DUP1 MLOAD PUSH3 0x461BCD PUSH1 0xE5 SHL DUP2 MSTORE PUSH1 0x20 PUSH1 0x4 DUP3 ADD MSTORE PUSH1 0x10 PUSH1 0x24 DUP3 ADD MSTORE PUSH16 0x189BDC9C9BDDC81A5CC81C185D5CD959 PUSH1 0x82 SHL PUSH1 0x44 DUP3 ADD MSTORE SWAP1 MLOAD SWAP1 DUP2 SWAP1 SUB PUSH1 0x64 ADD SWAP1 REVERT JUMPDEST PUSH1 0x1 PUSH1 0x1 PUSH1 0xA0 SHL SUB DUP5 AND PUSH1 0x0 SWAP1 DUP2 MSTORE PUSH1 0x9 PUSH1 0x20 MSTORE PUSH1 0x40 SWAP1 KECCAK256 SLOAD PUSH1 0xFF AND PUSH2 0x3251 JUMPI PUSH1 0x9 PUSH2 0x1E11 JUMP JUMPDEST PUSH1 0x1 PUSH1 0x1 PUSH1 0xA0 SHL SUB DUP1 DUP6 AND PUSH1 0x0 SWAP1 DUP2 MSTORE PUSH1 0x9 PUSH1 0x20 SWAP1 DUP2 MSTORE PUSH1 0x40 DUP1 DUP4 KECCAK256 SWAP4 DUP8 AND DUP4 MSTORE PUSH1 0x2 SWAP1 SWAP4 ADD SWAP1 MSTORE KECCAK256 SLOAD PUSH1 0xFF AND PUSH2 0x3341 JUMPI CALLER PUSH1 0x1 PUSH1 0x1 PUSH1 0xA0 SHL SUB DUP6 AND EQ PUSH2 0x32D7 JUMPI PUSH1 0x40 DUP1 MLOAD PUSH3 0x461BCD PUSH1 0xE5 SHL DUP2 MSTORE PUSH1 0x20 PUSH1 0x4 DUP3 ADD MSTORE PUSH1 0x15 PUSH1 0x24 DUP3 ADD MSTORE PUSH21 0x39B2B73232B91036BAB9BA1031329031AA37B5B2B7 PUSH1 0x59 SHL PUSH1 0x44 DUP3 ADD MSTORE SWAP1 MLOAD SWAP1 DUP2 SWAP1 SUB PUSH1 0x64 ADD SWAP1 REVERT JUMPDEST PUSH1 0x0 PUSH2 0x32E3 CALLER DUP6 PUSH2 0x4F34 JUMP JUMPDEST SWAP1 POP PUSH1 0x0 DUP2 PUSH1 0x11 DUP2 GT ISZERO PUSH2 0x32F3 JUMPI INVALID JUMPDEST EQ PUSH2 0x330C JUMPI DUP1 PUSH1 0x11 DUP2 GT ISZERO PUSH2 0x3304 JUMPI INVALID JUMPDEST SWAP2 POP POP PUSH2 0x1E33 JUMP JUMPDEST PUSH1 0x1 PUSH1 0x1 PUSH1 0xA0 SHL SUB DUP1 DUP7 AND PUSH1 0x0 SWAP1 DUP2 MSTORE PUSH1 0x9 PUSH1 0x20 SWAP1 DUP2 MSTORE PUSH1 0x40 DUP1 DUP4 KECCAK256 SWAP4 DUP9 AND DUP4 MSTORE PUSH1 0x2 SWAP1 SWAP4 ADD SWAP1 MSTORE KECCAK256 SLOAD PUSH1 0xFF AND PUSH2 0x333F JUMPI INVALID JUMPDEST POP JUMPDEST PUSH1 0x4 DUP1 SLOAD PUSH1 0x40 DUP1 MLOAD PUSH4 0xFC57D4DF PUSH1 0xE0 SHL DUP2 MSTORE PUSH1 0x1 PUSH1 0x1 PUSH1 0xA0 SHL SUB DUP9 DUP2 AND SWAP5 DUP3 ADD SWAP5 SWAP1 SWAP5 MSTORE SWAP1 MLOAD SWAP3 SWAP1 SWAP2 AND SWAP2 PUSH4 0xFC57D4DF SWAP2 PUSH1 0x24 DUP1 DUP3 ADD SWAP3 PUSH1 0x20 SWAP3 SWAP1 SWAP2 SWAP1 DUP3 SWAP1 SUB ADD DUP2 DUP7 DUP1 EXTCODESIZE ISZERO DUP1 ISZERO PUSH2 0x3392 JUMPI PUSH1 0x0 DUP1 REVERT JUMPDEST POP GAS STATICCALL ISZERO DUP1 ISZERO PUSH2 0x33A6 JUMPI RETURNDATASIZE PUSH1 0x0 DUP1 RETURNDATACOPY RETURNDATASIZE PUSH1 0x0 REVERT JUMPDEST POP POP POP POP PUSH1 0x40 MLOAD RETURNDATASIZE PUSH1 0x20 DUP2 LT ISZERO PUSH2 0x33BC JUMPI PUSH1 0x0 DUP1 REVERT JUMPDEST POP MLOAD PUSH2 0x33C9 JUMPI PUSH1 0xD PUSH2 0x1E11 JUMP JUMPDEST PUSH1 0x1 PUSH1 0x1 PUSH1 0xA0 SHL SUB DUP5 AND PUSH1 0x0 SWAP1 DUP2 MSTORE PUSH1 0x16 PUSH1 0x20 MSTORE PUSH1 0x40 SWAP1 KECCAK256 SLOAD DUP1 ISZERO PUSH2 0x3514 JUMPI PUSH1 0x0 DUP6 PUSH1 0x1 PUSH1 0x1 PUSH1 0xA0 SHL SUB AND PUSH4 0x47BD3718 PUSH1 0x40 MLOAD DUP2 PUSH4 0xFFFFFFFF AND PUSH1 0xE0 SHL DUP2 MSTORE PUSH1 0x4 ADD PUSH1 0x20 PUSH1 0x40 MLOAD DUP1 DUP4 SUB DUP2 DUP7 DUP1 EXTCODESIZE ISZERO DUP1 ISZERO PUSH2 0x3423 JUMPI PUSH1 0x0 DUP1 REVERT JUMPDEST POP GAS STATICCALL ISZERO DUP1 ISZERO PUSH2 0x3437 JUMPI RETURNDATASIZE PUSH1 0x0 DUP1 RETURNDATACOPY RETURNDATASIZE PUSH1 0x0 REVERT JUMPDEST POP POP POP POP PUSH1 0x40 MLOAD RETURNDATASIZE PUSH1 0x20 DUP2 LT ISZERO PUSH2 0x344D JUMPI PUSH1 0x0 DUP1 REVERT JUMPDEST POP MLOAD SWAP1 POP PUSH1 0x0 DUP1 PUSH2 0x345E DUP4 DUP8 PUSH2 0x53C3 JUMP JUMPDEST SWAP1 SWAP3 POP SWAP1 POP PUSH1 0x0 DUP3 PUSH1 0x3 DUP2 GT ISZERO PUSH2 0x3471 JUMPI INVALID JUMPDEST EQ PUSH2 0x34BC JUMPI PUSH1 0x40 DUP1 MLOAD PUSH3 0x461BCD PUSH1 0xE5 SHL DUP2 MSTORE PUSH1 0x20 PUSH1 0x4 DUP3 ADD MSTORE PUSH1 0x16 PUSH1 0x24 DUP3 ADD MSTORE PUSH22 0x746F74616C20626F72726F7773206F766572666C6F77 PUSH1 0x50 SHL PUSH1 0x44 DUP3 ADD MSTORE SWAP1 MLOAD SWAP1 DUP2 SWAP1 SUB PUSH1 0x64 ADD SWAP1 REVERT JUMPDEST DUP4 DUP2 LT PUSH2 0x3510 JUMPI PUSH1 0x40 DUP1 MLOAD PUSH3 0x461BCD PUSH1 0xE5 SHL DUP2 MSTORE PUSH1 0x20 PUSH1 0x4 DUP3 ADD MSTORE PUSH1 0x19 PUSH1 0x24 DUP3 ADD MSTORE PUSH32 0x6D61726B657420626F72726F7720636170207265616368656400000000000000 PUSH1 0x44 DUP3 ADD MSTORE SWAP1 MLOAD SWAP1 DUP2 SWAP1 SUB PUSH1 0x64 ADD SWAP1 REVERT JUMPDEST POP POP POP JUMPDEST PUSH1 0x0 DUP1 PUSH2 0x3524 DUP7 DUP9 PUSH1 0x0 DUP9 PUSH2 0x447C JUMP JUMPDEST SWAP2 SWAP4 POP SWAP1 SWAP2 POP PUSH1 0x0 SWAP1 POP DUP3 PUSH1 0x11 DUP2 GT ISZERO PUSH2 0x353A JUMPI INVALID JUMPDEST EQ PUSH2 0x3555 JUMPI DUP2 PUSH1 0x11 DUP2 GT ISZERO PUSH2 0x354B JUMPI INVALID JUMPDEST SWAP4 POP POP POP POP PUSH2 0x1E33 JUMP JUMPDEST DUP1 ISZERO PUSH2 0x3562 JUMPI PUSH1 0x4 PUSH2 0x354B JUMP JUMPDEST PUSH2 0x356A PUSH2 0x5D59 JUMP JUMPDEST PUSH1 0x40 MLOAD DUP1 PUSH1 0x20 ADD PUSH1 0x40 MSTORE DUP1 DUP10 PUSH1 0x1 PUSH1 0x1 PUSH1 0xA0 SHL SUB AND PUSH4 0xAA5AF0FD PUSH1 0x40 MLOAD DUP2 PUSH4 0xFFFFFFFF AND PUSH1 0xE0 SHL DUP2 MSTORE PUSH1 0x4 ADD PUSH1 0x20 PUSH1 0x40 MLOAD DUP1 DUP4 SUB DUP2 DUP7 DUP1 EXTCODESIZE ISZERO DUP1 ISZERO PUSH2 0x35AE JUMPI PUSH1 0x0 DUP1 REVERT JUMPDEST POP GAS STATICCALL ISZERO DUP1 ISZERO PUSH2 0x35C2 JUMPI RETURNDATASIZE PUSH1 0x0 DUP1 RETURNDATACOPY RETURNDATASIZE PUSH1 0x0 REVERT JUMPDEST POP POP POP POP PUSH1 0x40 MLOAD RETURNDATASIZE PUSH1 0x20 DUP2 LT ISZERO PUSH2 0x35D8 JUMPI PUSH1 0x0 DUP1 REVERT JUMPDEST POP MLOAD SWAP1 MSTORE SWAP1 POP PUSH2 0x35E8 DUP9 DUP3 PUSH2 0x3BD0 JUMP JUMPDEST PUSH2 0x35F5 DUP9 DUP9 DUP4 PUSH1 0x0 PUSH2 0x3E58 JUMP JUMPDEST PUSH1 0x0 SWAP9 SWAP8 POP POP POP POP POP POP POP POP JUMP JUMPDEST PUSH1 0x8 PUSH1 0x20 MSTORE DUP2 PUSH1 0x0 MSTORE PUSH1 0x40 PUSH1 0x0 KECCAK256 DUP2 DUP2 SLOAD DUP2 LT PUSH2 0x361C JUMPI INVALID JUMPDEST PUSH1 0x0 SWAP2 DUP3 MSTORE PUSH1 0x20 SWAP1 SWAP2 KECCAK256 ADD SLOAD PUSH1 0x1 PUSH1 0x1 PUSH1 0xA0 SHL SUB AND SWAP2 POP DUP3 SWAP1 POP JUMP JUMPDEST PUSH1 0x3 SLOAD PUSH1 0x1 PUSH1 0x1 PUSH1 0xA0 SHL SUB AND DUP2 JUMP JUMPDEST PUSH1 0x0 DUP1 SLOAD PUSH1 0x1 PUSH1 0x1 PUSH1 0xA0 SHL SUB AND CALLER EQ PUSH2 0x366D JUMPI PUSH2 0x3666 PUSH1 0x1 PUSH1 0x6 PUSH2 0x4042 JUMP JUMPDEST SWAP1 POP PUSH2 0x1439 JUMP JUMPDEST PUSH1 0x1 PUSH1 0x1 PUSH1 0xA0 SHL SUB DUP4 AND PUSH1 0x0 SWAP1 DUP2 MSTORE PUSH1 0x9 PUSH1 0x20 MSTORE PUSH1 0x40 SWAP1 KECCAK256 DUP1 SLOAD PUSH1 0xFF AND PUSH2 0x36A2 JUMPI PUSH2 0x369A PUSH1 0x9 PUSH1 0x7 PUSH2 0x4042 JUMP JUMPDEST SWAP2 POP POP PUSH2 0x1439 JUMP JUMPDEST PUSH2 0x36AA PUSH2 0x5D59 JUMP JUMPDEST POP PUSH1 0x40 DUP1 MLOAD PUSH1 0x20 DUP2 ADD SWAP1 SWAP2 MSTORE DUP4 DUP2 MSTORE PUSH2 0x36C1 PUSH2 0x5D59 JUMP JUMPDEST POP PUSH1 0x40 DUP1 MLOAD PUSH1 0x20 DUP2 ADD SWAP1 SWAP2 MSTORE PUSH8 0xC7D713B49DA0000 DUP2 MSTORE PUSH2 0x36E2 DUP2 DUP4 PUSH2 0x40B0 JUMP JUMPDEST ISZERO PUSH2 0x36FD JUMPI PUSH2 0x36F3 PUSH1 0x6 PUSH1 0x8 PUSH2 0x4042 JUMP JUMPDEST SWAP4 POP POP POP POP PUSH2 0x1439 JUMP JUMPDEST DUP5 ISZERO DUP1 ISZERO SWAP1 PUSH2 0x3786 JUMPI POP PUSH1 0x4 DUP1 SLOAD PUSH1 0x40 DUP1 MLOAD PUSH4 0xFC57D4DF PUSH1 0xE0 SHL DUP2 MSTORE PUSH1 0x1 PUSH1 0x1 PUSH1 0xA0 SHL SUB DUP11 DUP2 AND SWAP5 DUP3 ADD SWAP5 SWAP1 SWAP5 MSTORE SWAP1 MLOAD SWAP3 SWAP1 SWAP2 AND SWAP2 PUSH4 0xFC57D4DF SWAP2 PUSH1 0x24 DUP1 DUP3 ADD SWAP3 PUSH1 0x20 SWAP3 SWAP1 SWAP2 SWAP1 DUP3 SWAP1 SUB ADD DUP2 DUP7 DUP1 EXTCODESIZE ISZERO DUP1 ISZERO PUSH2 0x3758 JUMPI PUSH1 0x0 DUP1 REVERT JUMPDEST POP GAS STATICCALL ISZERO DUP1 ISZERO PUSH2 0x376C JUMPI RETURNDATASIZE PUSH1 0x0 DUP1 RETURNDATACOPY RETURNDATASIZE PUSH1 0x0 REVERT JUMPDEST POP POP POP POP PUSH1 0x40 MLOAD RETURNDATASIZE PUSH1 0x20 DUP2 LT ISZERO PUSH2 0x3782 JUMPI PUSH1 0x0 DUP1 REVERT JUMPDEST POP MLOAD ISZERO JUMPDEST ISZERO PUSH2 0x3797 JUMPI PUSH2 0x36F3 PUSH1 0xD PUSH1 0x9 PUSH2 0x4042 JUMP JUMPDEST PUSH1 0x1 DUP4 ADD DUP1 SLOAD SWAP1 DUP7 SWAP1 SSTORE PUSH1 0x40 DUP1 MLOAD PUSH1 0x1 PUSH1 0x1 PUSH1 0xA0 SHL SUB DUP10 AND DUP2 MSTORE PUSH1 0x20 DUP2 ADD DUP4 SWAP1 MSTORE DUP1 DUP3 ADD DUP9 SWAP1 MSTORE SWAP1 MLOAD PUSH32 0x70483E6592CD5182D45AC970E05BC62CDCC90E9D8EF2C2DBE686CF383BCD7FC5 SWAP2 DUP2 SWAP1 SUB PUSH1 0x60 ADD SWAP1 LOG1 PUSH1 0x0 SWAP8 SWAP7 POP POP POP POP POP POP POP JUMP JUMPDEST PUSH1 0xA SLOAD PUSH1 0x1 PUSH1 0xA8 SHL SWAP1 DIV PUSH1 0xFF AND DUP2 JUMP JUMPDEST PUSH1 0x5 SLOAD DUP2 JUMP JUMPDEST PUSH2 0x15FD DUP2 PUSH1 0xD DUP1 SLOAD DUP1 PUSH1 0x20 MUL PUSH1 0x20 ADD PUSH1 0x40 MLOAD SWAP1 DUP2 ADD PUSH1 0x40 MSTORE DUP1 SWAP3 SWAP2 SWAP1 DUP2 DUP2 MSTORE PUSH1 0x20 ADD DUP3 DUP1 SLOAD DUP1 ISZERO PUSH2 0x3867 JUMPI PUSH1 0x20 MUL DUP3 ADD SWAP2 SWAP1 PUSH1 0x0 MSTORE PUSH1 0x20 PUSH1 0x0 KECCAK256 SWAP1 JUMPDEST DUP2 SLOAD PUSH1 0x1 PUSH1 0x1 PUSH1 0xA0 SHL SUB AND DUP2 MSTORE PUSH1 0x1 SWAP1 SWAP2 ADD SWAP1 PUSH1 0x20 ADD DUP1 DUP4 GT PUSH2 0x3849 JUMPI JUMPDEST POP POP POP POP POP PUSH2 0x143F JUMP JUMPDEST PUSH1 0x0 DUP1 PUSH2 0x387F DUP6 DUP6 DUP6 PUSH2 0x4E88 JUMP JUMPDEST SWAP1 POP DUP1 ISZERO PUSH2 0x388E JUMPI SWAP1 POP PUSH2 0x1E33 JUMP JUMPDEST PUSH2 0x3897 DUP6 PUSH2 0x4897 JUMP JUMPDEST PUSH2 0x38A3 DUP6 DUP6 PUSH1 0x0 PUSH2 0x4B15 JUMP JUMPDEST PUSH1 0x0 SWAP6 SWAP5 POP POP POP POP POP JUMP JUMPDEST PUSH1 0x0 DUP1 DUP3 SWAP1 POP PUSH1 0x0 DUP1 PUSH1 0x0 DUP4 PUSH1 0x1 PUSH1 0x1 PUSH1 0xA0 SHL SUB AND PUSH4 0xC37F68E2 CALLER PUSH1 0x40 MLOAD DUP3 PUSH4 0xFFFFFFFF AND PUSH1 0xE0 SHL DUP2 MSTORE PUSH1 0x4 ADD DUP1 DUP3 PUSH1 0x1 PUSH1 0x1 PUSH1 0xA0 SHL SUB AND PUSH1 0x1 PUSH1 0x1 PUSH1 0xA0 SHL SUB AND DUP2 MSTORE PUSH1 0x20 ADD SWAP2 POP POP PUSH1 0x80 PUSH1 0x40 MLOAD DUP1 DUP4 SUB DUP2 DUP7 DUP1 EXTCODESIZE ISZERO DUP1 ISZERO PUSH2 0x390F JUMPI PUSH1 0x0 DUP1 REVERT JUMPDEST POP GAS STATICCALL ISZERO DUP1 ISZERO PUSH2 0x3923 JUMPI RETURNDATASIZE PUSH1 0x0 DUP1 RETURNDATACOPY RETURNDATASIZE PUSH1 0x0 REVERT JUMPDEST POP POP POP POP PUSH1 0x40 MLOAD RETURNDATASIZE PUSH1 0x80 DUP2 LT ISZERO PUSH2 0x3939 JUMPI PUSH1 0x0 DUP1 REVERT JUMPDEST POP DUP1 MLOAD PUSH1 0x20 DUP3 ADD MLOAD PUSH1 0x40 SWAP1 SWAP3 ADD MLOAD SWAP1 SWAP5 POP SWAP1 SWAP3 POP SWAP1 POP DUP3 ISZERO PUSH2 0x398C JUMPI PUSH1 0x40 MLOAD PUSH3 0x461BCD PUSH1 0xE5 SHL DUP2 MSTORE PUSH1 0x4 ADD DUP1 DUP1 PUSH1 0x20 ADD DUP3 DUP2 SUB DUP3 MSTORE PUSH1 0x25 DUP2 MSTORE PUSH1 0x20 ADD DUP1 PUSH2 0x5EF4 PUSH1 0x25 SWAP2 CODECOPY PUSH1 0x40 ADD SWAP2 POP POP PUSH1 0x40 MLOAD DUP1 SWAP2 SUB SWAP1 REVERT JUMPDEST DUP1 ISZERO PUSH2 0x39A9 JUMPI PUSH2 0x399E PUSH1 0xC PUSH1 0x2 PUSH2 0x4042 JUMP JUMPDEST SWAP5 POP POP POP POP POP PUSH2 0x1844 JUMP JUMPDEST PUSH1 0x0 PUSH2 0x39B6 DUP8 CALLER DUP6 PUSH2 0x4E88 JUMP JUMPDEST SWAP1 POP DUP1 ISZERO PUSH2 0x39D7 JUMPI PUSH2 0x39CB PUSH1 0xE PUSH1 0x3 DUP4 PUSH2 0x53E9 JUMP JUMPDEST SWAP6 POP POP POP POP POP POP PUSH2 0x1844 JUMP JUMPDEST PUSH1 0x1 PUSH1 0x1 PUSH1 0xA0 SHL SUB DUP6 AND PUSH1 0x0 SWAP1 DUP2 MSTORE PUSH1 0x9 PUSH1 0x20 SWAP1 DUP2 MSTORE PUSH1 0x40 DUP1 DUP4 KECCAK256 CALLER DUP5 MSTORE PUSH1 0x2 DUP2 ADD SWAP1 SWAP3 MSTORE SWAP1 SWAP2 KECCAK256 SLOAD PUSH1 0xFF AND PUSH2 0x3A16 JUMPI PUSH1 0x0 SWAP7 POP POP POP POP POP POP POP PUSH2 0x1844 JUMP JUMPDEST CALLER PUSH1 0x0 SWAP1 DUP2 MSTORE PUSH1 0x2 DUP3 ADD PUSH1 0x20 SWAP1 DUP2 MSTORE PUSH1 0x40 DUP1 DUP4 KECCAK256 DUP1 SLOAD PUSH1 0xFF NOT AND SWAP1 SSTORE PUSH1 0x8 DUP3 MSTORE SWAP2 DUP3 SWAP1 KECCAK256 DUP1 SLOAD DUP4 MLOAD DUP2 DUP5 MUL DUP2 ADD DUP5 ADD SWAP1 SWAP5 MSTORE DUP1 DUP5 MSTORE PUSH1 0x60 SWAP4 SWAP3 DUP4 ADD DUP3 DUP3 DUP1 ISZERO PUSH2 0x3A88 JUMPI PUSH1 0x20 MUL DUP3 ADD SWAP2 SWAP1 PUSH1 0x0 MSTORE PUSH1 0x20 PUSH1 0x0 KECCAK256 SWAP1 JUMPDEST DUP2 SLOAD PUSH1 0x1 PUSH1 0x1 PUSH1 0xA0 SHL SUB AND DUP2 MSTORE PUSH1 0x1 SWAP1 SWAP2 ADD SWAP1 PUSH1 0x20 ADD DUP1 DUP4 GT PUSH2 0x3A6A JUMPI JUMPDEST POP POP DUP4 MLOAD SWAP4 SWAP5 POP DUP4 SWAP3 POP PUSH1 0x0 SWAP2 POP POP JUMPDEST DUP3 DUP2 LT ISZERO PUSH2 0x3ADD JUMPI DUP10 PUSH1 0x1 PUSH1 0x1 PUSH1 0xA0 SHL SUB AND DUP5 DUP3 DUP2 MLOAD DUP2 LT PUSH2 0x3AB6 JUMPI INVALID JUMPDEST PUSH1 0x20 MUL PUSH1 0x20 ADD ADD MLOAD PUSH1 0x1 PUSH1 0x1 PUSH1 0xA0 SHL SUB AND EQ ISZERO PUSH2 0x3AD5 JUMPI DUP1 SWAP2 POP PUSH2 0x3ADD JUMP JUMPDEST PUSH1 0x1 ADD PUSH2 0x3A98 JUMP JUMPDEST POP DUP2 DUP2 LT PUSH2 0x3AE7 JUMPI INVALID JUMPDEST CALLER PUSH1 0x0 SWAP1 DUP2 MSTORE PUSH1 0x8 PUSH1 0x20 MSTORE PUSH1 0x40 SWAP1 KECCAK256 DUP1 SLOAD DUP2 SWAP1 PUSH1 0x0 NOT DUP2 ADD SWAP1 DUP2 LT PUSH2 0x3B08 JUMPI INVALID JUMPDEST SWAP1 PUSH1 0x0 MSTORE PUSH1 0x20 PUSH1 0x0 KECCAK256 ADD PUSH1 0x0 SWAP1 SLOAD SWAP1 PUSH2 0x100 EXP SWAP1 DIV PUSH1 0x1 PUSH1 0x1 PUSH1 0xA0 SHL SUB AND DUP2 DUP4 DUP2 SLOAD DUP2 LT PUSH2 0x3B32 JUMPI INVALID JUMPDEST PUSH1 0x0 SWAP2 DUP3 MSTORE PUSH1 0x20 SWAP1 SWAP2 KECCAK256 ADD DUP1 SLOAD PUSH1 0x1 PUSH1 0x1 PUSH1 0xA0 SHL SUB NOT AND PUSH1 0x1 PUSH1 0x1 PUSH1 0xA0 SHL SUB SWAP3 SWAP1 SWAP3 AND SWAP2 SWAP1 SWAP2 OR SWAP1 SSTORE DUP1 SLOAD PUSH2 0x3B6B DUP3 PUSH1 0x0 NOT DUP4 ADD PUSH2 0x5D6C JUMP JUMPDEST POP PUSH1 0x40 DUP1 MLOAD PUSH1 0x1 PUSH1 0x1 PUSH1 0xA0 SHL SUB DUP13 AND DUP2 MSTORE CALLER PUSH1 0x20 DUP3 ADD MSTORE DUP2 MLOAD PUSH32 0xE699A64C18B07AC5B7301AA273F36A2287239EB9501D81950672794AFBA29A0D SWAP3 SWAP2 DUP2 SWAP1 SUB SWAP1 SWAP2 ADD SWAP1 LOG1 PUSH1 0x0 SWAP13 SWAP12 POP POP POP POP POP POP POP POP POP POP POP POP JUMP JUMPDEST PUSH1 0x0 SLOAD PUSH1 0x1 PUSH1 0x1 PUSH1 0xA0 SHL SUB AND DUP2 JUMP JUMPDEST PUSH1 0x1 PUSH1 0x1 PUSH1 0xA0 SHL SUB DUP3 AND PUSH1 0x0 SWAP1 DUP2 MSTORE PUSH1 0x11 PUSH1 0x20 SWAP1 DUP2 MSTORE PUSH1 0x40 DUP1 DUP4 KECCAK256 PUSH1 0xF SWAP1 SWAP3 MSTORE DUP3 KECCAK256 SLOAD SWAP1 SWAP2 PUSH2 0x3BFD PUSH2 0x1CE8 JUMP JUMPDEST DUP4 SLOAD SWAP1 SWAP2 POP PUSH1 0x0 SWAP1 PUSH2 0x3C1D SWAP1 DUP4 SWAP1 PUSH1 0x1 PUSH1 0xE0 SHL SWAP1 DIV PUSH4 0xFFFFFFFF AND PUSH2 0x544F JUMP JUMPDEST SWAP1 POP PUSH1 0x0 DUP2 GT DUP1 ISZERO PUSH2 0x3C2F JUMPI POP PUSH1 0x0 DUP4 GT JUMPDEST ISZERO PUSH2 0x3DFE JUMPI PUSH1 0x0 PUSH2 0x3CA4 DUP8 PUSH1 0x1 PUSH1 0x1 PUSH1 0xA0 SHL SUB AND PUSH4 0x47BD3718 PUSH1 0x40 MLOAD DUP2 PUSH4 0xFFFFFFFF AND PUSH1 0xE0 SHL DUP2 MSTORE PUSH1 0x4 ADD PUSH1 0x20 PUSH1 0x40 MLOAD DUP1 DUP4 SUB DUP2 DUP7 DUP1 EXTCODESIZE ISZERO DUP1 ISZERO PUSH2 0x3C72 JUMPI PUSH1 0x0 DUP1 REVERT JUMPDEST POP GAS STATICCALL ISZERO DUP1 ISZERO PUSH2 0x3C86 JUMPI RETURNDATASIZE PUSH1 0x0 DUP1 RETURNDATACOPY RETURNDATASIZE PUSH1 0x0 REVERT JUMPDEST POP POP POP POP PUSH1 0x40 MLOAD RETURNDATASIZE PUSH1 0x20 DUP2 LT ISZERO PUSH2 0x3C9C JUMPI PUSH1 0x0 DUP1 REVERT JUMPDEST POP MLOAD DUP8 PUSH2 0x5489 JUMP JUMPDEST SWAP1 POP PUSH1 0x0 PUSH2 0x3CB2 DUP4 DUP7 PUSH2 0x54A7 JUMP JUMPDEST SWAP1 POP PUSH2 0x3CBC PUSH2 0x5D59 JUMP JUMPDEST PUSH1 0x0 DUP4 GT PUSH2 0x3CD9 JUMPI PUSH1 0x40 MLOAD DUP1 PUSH1 0x20 ADD PUSH1 0x40 MSTORE DUP1 PUSH1 0x0 DUP2 MSTORE POP PUSH2 0x3CE3 JUMP JUMPDEST PUSH2 0x3CE3 DUP3 DUP5 PUSH2 0x54E9 JUMP JUMPDEST SWAP1 POP PUSH2 0x3CED PUSH2 0x5D59 JUMP JUMPDEST PUSH1 0x40 DUP1 MLOAD PUSH1 0x20 DUP2 ADD SWAP1 SWAP2 MSTORE DUP9 SLOAD PUSH1 0x1 PUSH1 0x1 PUSH1 0xE0 SHL SUB AND DUP2 MSTORE PUSH2 0x3D0F SWAP1 DUP4 PUSH2 0x5527 JUMP JUMPDEST SWAP1 POP PUSH1 0x40 MLOAD DUP1 PUSH1 0x40 ADD PUSH1 0x40 MSTORE DUP1 PUSH2 0x3D5F DUP4 PUSH1 0x0 ADD MLOAD PUSH1 0x40 MLOAD DUP1 PUSH1 0x40 ADD PUSH1 0x40 MSTORE DUP1 PUSH1 0x1A DUP2 MSTORE PUSH1 0x20 ADD PUSH32 0x6E657720696E6465782065786365656473203232342062697473000000000000 DUP2 MSTORE POP PUSH2 0x554C JUMP JUMPDEST PUSH1 0x1 PUSH1 0x1 PUSH1 0xE0 SHL SUB AND DUP2 MSTORE PUSH1 0x20 ADD PUSH2 0x3D9A DUP9 PUSH1 0x40 MLOAD DUP1 PUSH1 0x40 ADD PUSH1 0x40 MSTORE DUP1 PUSH1 0x1C DUP2 MSTORE PUSH1 0x20 ADD PUSH1 0x0 DUP1 MLOAD PUSH1 0x20 PUSH2 0x5F19 DUP4 CODECOPY DUP2 MLOAD SWAP2 MSTORE DUP2 MSTORE POP PUSH2 0x55E6 JUMP JUMPDEST PUSH4 0xFFFFFFFF SWAP1 DUP2 AND SWAP1 SWAP2 MSTORE PUSH1 0x1 PUSH1 0x1 PUSH1 0xA0 SHL SUB DUP13 AND PUSH1 0x0 SWAP1 DUP2 MSTORE PUSH1 0x11 PUSH1 0x20 SWAP1 DUP2 MSTORE PUSH1 0x40 SWAP1 SWAP2 KECCAK256 DUP4 MLOAD DUP2 SLOAD SWAP5 SWAP1 SWAP3 ADD MLOAD SWAP1 SWAP3 AND PUSH1 0x1 PUSH1 0xE0 SHL MUL PUSH1 0x1 PUSH1 0x1 PUSH1 0xE0 SHL SUB SWAP2 DUP3 AND PUSH1 0x1 PUSH1 0x1 PUSH1 0xE0 SHL SUB NOT SWAP1 SWAP5 AND SWAP4 SWAP1 SWAP4 OR AND SWAP2 SWAP1 SWAP2 OR SWAP1 SSTORE POP PUSH2 0x1CED SWAP3 POP POP POP JUMP JUMPDEST DUP1 ISZERO PUSH2 0x1CED JUMPI PUSH2 0x3E31 DUP3 PUSH1 0x40 MLOAD DUP1 PUSH1 0x40 ADD PUSH1 0x40 MSTORE DUP1 PUSH1 0x1C DUP2 MSTORE PUSH1 0x20 ADD PUSH1 0x0 DUP1 MLOAD PUSH1 0x20 PUSH2 0x5F19 DUP4 CODECOPY DUP2 MLOAD SWAP2 MSTORE DUP2 MSTORE POP PUSH2 0x55E6 JUMP JUMPDEST DUP5 SLOAD PUSH4 0xFFFFFFFF SWAP2 SWAP1 SWAP2 AND PUSH1 0x1 PUSH1 0xE0 SHL MUL PUSH1 0x1 PUSH1 0x1 PUSH1 0xE0 SHL SUB SWAP1 SWAP2 AND OR DUP5 SSTORE POP POP POP POP POP POP JUMP JUMPDEST PUSH1 0x1 PUSH1 0x1 PUSH1 0xA0 SHL SUB DUP5 AND PUSH1 0x0 SWAP1 DUP2 MSTORE PUSH1 0x11 PUSH1 0x20 MSTORE PUSH1 0x40 SWAP1 KECCAK256 PUSH2 0x3E78 PUSH2 0x5D59 JUMP JUMPDEST POP PUSH1 0x40 DUP1 MLOAD PUSH1 0x20 DUP2 ADD SWAP1 SWAP2 MSTORE DUP2 SLOAD PUSH1 0x1 PUSH1 0x1 PUSH1 0xE0 SHL SUB AND DUP2 MSTORE PUSH2 0x3E99 PUSH2 0x5D59 JUMP JUMPDEST POP PUSH1 0x40 DUP1 MLOAD PUSH1 0x20 DUP1 DUP3 ADD DUP4 MSTORE PUSH1 0x1 PUSH1 0x1 PUSH1 0xA0 SHL SUB DUP1 DUP11 AND PUSH1 0x0 SWAP1 DUP2 MSTORE PUSH1 0x13 DUP4 MSTORE DUP5 DUP2 KECCAK256 SWAP2 DUP11 AND DUP1 DUP3 MSTORE DUP3 DUP5 MSTORE SWAP5 DUP2 KECCAK256 DUP1 SLOAD DUP6 MSTORE DUP7 MLOAD SWAP6 SWAP1 SWAP2 MSTORE SWAP2 MSTORE SWAP2 SWAP1 SWAP2 SSTORE DUP1 MLOAD ISZERO PUSH2 0x23FC JUMPI PUSH2 0x3EE7 PUSH2 0x5D59 JUMP JUMPDEST PUSH2 0x3EF1 DUP4 DUP4 PUSH2 0x563B JUMP JUMPDEST SWAP1 POP PUSH1 0x0 PUSH2 0x3F80 DUP10 PUSH1 0x1 PUSH1 0x1 PUSH1 0xA0 SHL SUB AND PUSH4 0x95DD9193 DUP11 PUSH1 0x40 MLOAD DUP3 PUSH4 0xFFFFFFFF AND PUSH1 0xE0 SHL DUP2 MSTORE PUSH1 0x4 ADD DUP1 DUP3 PUSH1 0x1 PUSH1 0x1 PUSH1 0xA0 SHL SUB AND PUSH1 0x1 PUSH1 0x1 PUSH1 0xA0 SHL SUB AND DUP2 MSTORE PUSH1 0x20 ADD SWAP2 POP POP PUSH1 0x20 PUSH1 0x40 MLOAD DUP1 DUP4 SUB DUP2 DUP7 DUP1 EXTCODESIZE ISZERO DUP1 ISZERO PUSH2 0x3F4E JUMPI PUSH1 0x0 DUP1 REVERT JUMPDEST POP GAS STATICCALL ISZERO DUP1 ISZERO PUSH2 0x3F62 JUMPI RETURNDATASIZE PUSH1 0x0 DUP1 RETURNDATACOPY RETURNDATASIZE PUSH1 0x0 REVERT JUMPDEST POP POP POP POP PUSH1 0x40 MLOAD RETURNDATASIZE PUSH1 0x20 DUP2 LT ISZERO PUSH2 0x3F78 JUMPI PUSH1 0x0 DUP1 REVERT JUMPDEST POP MLOAD DUP9 PUSH2 0x5489 JUMP JUMPDEST SWAP1 POP PUSH1 0x0 PUSH2 0x3F8E DUP3 DUP5 PUSH2 0x5660 JUMP JUMPDEST PUSH1 0x1 PUSH1 0x1 PUSH1 0xA0 SHL SUB DUP11 AND PUSH1 0x0 SWAP1 DUP2 MSTORE PUSH1 0x14 PUSH1 0x20 MSTORE PUSH1 0x40 DUP2 KECCAK256 SLOAD SWAP2 SWAP3 POP SWAP1 PUSH2 0x3FB5 SWAP1 DUP4 PUSH2 0x568F JUMP JUMPDEST SWAP1 POP PUSH2 0x3FD6 DUP11 DUP3 DUP11 PUSH2 0x3FCE JUMPI PUSH7 0x38D7EA4C68000 PUSH2 0x3FD1 JUMP JUMPDEST PUSH1 0x0 JUMPDEST PUSH2 0x56C5 JUMP JUMPDEST PUSH1 0x1 PUSH1 0x1 PUSH1 0xA0 SHL SUB DUP1 DUP13 AND PUSH1 0x0 DUP2 DUP2 MSTORE PUSH1 0x14 PUSH1 0x20 SWAP1 DUP2 MSTORE PUSH1 0x40 SWAP2 DUP3 SWAP1 KECCAK256 SWAP5 SWAP1 SWAP5 SSTORE DUP10 MLOAD DUP2 MLOAD DUP8 DUP2 MSTORE SWAP5 DUP6 ADD MSTORE DUP1 MLOAD SWAP2 SWAP4 SWAP3 DUP16 AND SWAP3 PUSH32 0x1FC3ECC087D8D2D15E23D0032AF5A47059C3892D003D8E139FDCB6BB327C99A6 SWAP3 SWAP1 DUP2 SWAP1 SUB SWAP1 SWAP2 ADD SWAP1 LOG3 POP POP POP POP POP POP POP POP POP POP POP JUMP JUMPDEST PUSH1 0x0 PUSH32 0x45B96FE442630264581B197E84BBADA861235052C5A1AADFFF9EA4E40A969AA0 DUP4 PUSH1 0x11 DUP2 GT ISZERO PUSH2 0x4071 JUMPI INVALID JUMPDEST DUP4 PUSH1 0x13 DUP2 GT ISZERO PUSH2 0x407D JUMPI INVALID JUMPDEST PUSH1 0x40 DUP1 MLOAD SWAP3 DUP4 MSTORE PUSH1 0x20 DUP4 ADD SWAP2 SWAP1 SWAP2 MSTORE PUSH1 0x0 DUP3 DUP3 ADD MSTORE MLOAD SWAP1 DUP2 SWAP1 SUB PUSH1 0x60 ADD SWAP1 LOG1 DUP3 PUSH1 0x11 DUP2 GT ISZERO PUSH2 0x1E33 JUMPI INVALID JUMPDEST MLOAD SWAP1 MLOAD GT ISZERO SWAP1 JUMP JUMPDEST MLOAD SWAP1 MLOAD LT SWAP1 JUMP JUMPDEST PUSH1 0x60 PUSH1 0xD DUP1 SLOAD DUP1 PUSH1 0x20 MUL PUSH1 0x20 ADD PUSH1 0x40 MLOAD SWAP1 DUP2 ADD PUSH1 0x40 MSTORE DUP1 SWAP3 SWAP2 SWAP1 DUP2 DUP2 MSTORE PUSH1 0x20 ADD DUP3 DUP1 SLOAD DUP1 ISZERO PUSH2 0x410F JUMPI PUSH1 0x20 MUL DUP3 ADD SWAP2 SWAP1 PUSH1 0x0 MSTORE PUSH1 0x20 PUSH1 0x0 KECCAK256 SWAP1 JUMPDEST DUP2 SLOAD PUSH1 0x1 PUSH1 0x1 PUSH1 0xA0 SHL SUB AND DUP2 MSTORE PUSH1 0x1 SWAP1 SWAP2 ADD SWAP1 PUSH1 0x20 ADD DUP1 DUP4 GT PUSH2 0x40F1 JUMPI JUMPDEST POP SWAP4 SWAP5 POP PUSH1 0x0 SWAP4 POP POP POP POP JUMPDEST DUP2 MLOAD DUP2 LT ISZERO PUSH2 0x41D5 JUMPI PUSH1 0x0 DUP3 DUP3 DUP2 MLOAD DUP2 LT PUSH2 0x4132 JUMPI INVALID JUMPDEST PUSH1 0x20 MUL PUSH1 0x20 ADD ADD MLOAD SWAP1 POP PUSH2 0x4144 PUSH2 0x5D59 JUMP JUMPDEST PUSH1 0x40 MLOAD DUP1 PUSH1 0x20 ADD PUSH1 0x40 MSTORE DUP1 DUP4 PUSH1 0x1 PUSH1 0x1 PUSH1 0xA0 SHL SUB AND PUSH4 0xAA5AF0FD PUSH1 0x40 MLOAD DUP2 PUSH4 0xFFFFFFFF AND PUSH1 0xE0 SHL DUP2 MSTORE PUSH1 0x4 ADD PUSH1 0x20 PUSH1 0x40 MLOAD DUP1 DUP4 SUB DUP2 DUP7 DUP1 EXTCODESIZE ISZERO DUP1 ISZERO PUSH2 0x4188 JUMPI PUSH1 0x0 DUP1 REVERT JUMPDEST POP GAS STATICCALL ISZERO DUP1 ISZERO PUSH2 0x419C JUMPI RETURNDATASIZE PUSH1 0x0 DUP1 RETURNDATACOPY RETURNDATASIZE PUSH1 0x0 REVERT JUMPDEST POP POP POP POP PUSH1 0x40 MLOAD RETURNDATASIZE PUSH1 0x20 DUP2 LT ISZERO PUSH2 0x41B2 JUMPI PUSH1 0x0 DUP1 REVERT JUMPDEST POP MLOAD SWAP1 MSTORE SWAP1 POP PUSH2 0x41C1 DUP3 PUSH2 0x4897 JUMP JUMPDEST PUSH2 0x41CB DUP3 DUP3 PUSH2 0x3BD0 JUMP JUMPDEST POP POP PUSH1 0x1 ADD PUSH2 0x411B JUMP JUMPDEST POP PUSH2 0x41DE PUSH2 0x5D59 JUMP JUMPDEST PUSH1 0x40 MLOAD DUP1 PUSH1 0x20 ADD PUSH1 0x40 MSTORE DUP1 PUSH1 0x0 DUP2 MSTORE POP SWAP1 POP PUSH1 0x60 DUP3 MLOAD PUSH1 0x40 MLOAD SWAP1 DUP1 DUP3 MSTORE DUP1 PUSH1 0x20 MUL PUSH1 0x20 ADD DUP3 ADD PUSH1 0x40 MSTORE DUP1 ISZERO PUSH2 0x422D JUMPI DUP2 PUSH1 0x20 ADD JUMPDEST PUSH2 0x421A PUSH2 0x5D59 JUMP JUMPDEST DUP2 MSTORE PUSH1 0x20 ADD SWAP1 PUSH1 0x1 SWAP1 SUB SWAP1 DUP2 PUSH2 0x4212 JUMPI SWAP1 POP JUMPDEST POP SWAP1 POP PUSH1 0x0 JUMPDEST DUP4 MLOAD DUP2 LT ISZERO PUSH2 0x43B3 JUMPI PUSH1 0x0 DUP5 DUP3 DUP2 MLOAD DUP2 LT PUSH2 0x424A JUMPI INVALID JUMPDEST PUSH1 0x20 SWAP1 DUP2 MUL SWAP2 SWAP1 SWAP2 ADD DUP2 ADD MLOAD PUSH1 0x1 PUSH1 0x1 PUSH1 0xA0 SHL SUB DUP2 AND PUSH1 0x0 SWAP1 DUP2 MSTORE PUSH1 0x9 SWAP1 SWAP3 MSTORE PUSH1 0x40 SWAP1 SWAP2 KECCAK256 PUSH1 0x3 ADD SLOAD SWAP1 SWAP2 POP PUSH1 0xFF AND ISZERO PUSH2 0x43AA JUMPI PUSH2 0x4286 PUSH2 0x5D59 JUMP JUMPDEST PUSH1 0x40 DUP1 MLOAD PUSH1 0x20 DUP1 DUP3 ADD DUP1 DUP5 MSTORE PUSH1 0x4 SLOAD PUSH4 0xFC57D4DF PUSH1 0xE0 SHL SWAP1 SWAP2 MSTORE PUSH1 0x1 PUSH1 0x1 PUSH1 0xA0 SHL SUB DUP7 DUP2 AND PUSH1 0x24 DUP6 ADD MSTORE SWAP4 MLOAD SWAP3 SWAP4 DUP5 SWAP4 SWAP2 AND SWAP2 PUSH4 0xFC57D4DF SWAP2 PUSH1 0x44 DUP1 DUP7 ADD SWAP3 SWAP2 SWAP1 DUP2 DUP8 SUB ADD DUP2 DUP7 DUP1 EXTCODESIZE ISZERO DUP1 ISZERO PUSH2 0x42DB JUMPI PUSH1 0x0 DUP1 REVERT JUMPDEST POP GAS STATICCALL ISZERO DUP1 ISZERO PUSH2 0x42EF JUMPI RETURNDATASIZE PUSH1 0x0 DUP1 RETURNDATACOPY RETURNDATASIZE PUSH1 0x0 REVERT JUMPDEST POP POP POP POP PUSH1 0x40 MLOAD RETURNDATASIZE PUSH1 0x20 DUP2 LT ISZERO PUSH2 0x4305 JUMPI PUSH1 0x0 DUP1 REVERT JUMPDEST POP MLOAD SWAP1 MSTORE SWAP1 POP PUSH2 0x4313 PUSH2 0x5D59 JUMP JUMPDEST PUSH2 0x4381 DUP3 DUP5 PUSH1 0x1 PUSH1 0x1 PUSH1 0xA0 SHL SUB AND PUSH4 0x47BD3718 PUSH1 0x40 MLOAD DUP2 PUSH4 0xFFFFFFFF AND PUSH1 0xE0 SHL DUP2 MSTORE PUSH1 0x4 ADD PUSH1 0x20 PUSH1 0x40 MLOAD DUP1 DUP4 SUB DUP2 DUP7 DUP1 EXTCODESIZE ISZERO DUP1 ISZERO PUSH2 0x4350 JUMPI PUSH1 0x0 DUP1 REVERT JUMPDEST POP GAS STATICCALL ISZERO DUP1 ISZERO PUSH2 0x4364 JUMPI RETURNDATASIZE PUSH1 0x0 DUP1 RETURNDATACOPY RETURNDATASIZE PUSH1 0x0 REVERT JUMPDEST POP POP POP POP PUSH1 0x40 MLOAD RETURNDATASIZE PUSH1 0x20 DUP2 LT ISZERO PUSH2 0x437A JUMPI PUSH1 0x0 DUP1 REVERT JUMPDEST POP MLOAD PUSH2 0x580A JUMP JUMPDEST SWAP1 POP DUP1 DUP6 DUP6 DUP2 MLOAD DUP2 LT PUSH2 0x4390 JUMPI INVALID JUMPDEST PUSH1 0x20 MUL PUSH1 0x20 ADD ADD DUP2 SWAP1 MSTORE POP PUSH2 0x43A5 DUP7 DUP3 PUSH2 0x5527 JUMP JUMPDEST SWAP6 POP POP POP JUMPDEST POP PUSH1 0x1 ADD PUSH2 0x4233 JUMP JUMPDEST POP PUSH1 0x0 JUMPDEST DUP4 MLOAD DUP2 LT ISZERO PUSH2 0x1CE2 JUMPI PUSH1 0x0 PUSH1 0xD DUP3 DUP2 SLOAD DUP2 LT PUSH2 0x43CF JUMPI INVALID JUMPDEST PUSH1 0x0 SWAP2 DUP3 MSTORE PUSH1 0x20 DUP3 KECCAK256 ADD SLOAD DUP6 MLOAD PUSH1 0x1 PUSH1 0x1 PUSH1 0xA0 SHL SUB SWAP1 SWAP2 AND SWAP3 POP PUSH2 0x43F4 JUMPI PUSH1 0x0 PUSH2 0x441C JUMP JUMPDEST PUSH2 0x441C PUSH1 0xE SLOAD PUSH2 0x4417 DUP7 DUP7 DUP2 MLOAD DUP2 LT PUSH2 0x4409 JUMPI INVALID JUMPDEST PUSH1 0x20 MUL PUSH1 0x20 ADD ADD MLOAD DUP9 PUSH2 0x582B JUMP JUMPDEST PUSH2 0x585E JUMP JUMPDEST PUSH1 0x1 PUSH1 0x1 PUSH1 0xA0 SHL SUB DUP4 AND PUSH1 0x0 DUP2 DUP2 MSTORE PUSH1 0xF PUSH1 0x20 SWAP1 DUP2 MSTORE PUSH1 0x40 SWAP2 DUP3 SWAP1 KECCAK256 DUP5 SWAP1 SSTORE DUP2 MLOAD DUP5 DUP2 MSTORE SWAP2 MLOAD SWAP4 SWAP5 POP SWAP2 SWAP3 PUSH32 0x2AB93F65628379309F36CB125E90D7C902454A545C4F8B8CB0794AF75C24B807 SWAP3 SWAP2 DUP2 SWAP1 SUB SWAP1 SWAP2 ADD SWAP1 LOG2 POP POP PUSH1 0x1 ADD PUSH2 0x43B7 JUMP JUMPDEST PUSH1 0x0 DUP1 PUSH1 0x0 PUSH2 0x4489 PUSH2 0x5D90 JUMP JUMPDEST PUSH1 0x1 PUSH1 0x1 PUSH1 0xA0 SHL SUB DUP9 AND PUSH1 0x0 SWAP1 DUP2 MSTORE PUSH1 0x8 PUSH1 0x20 SWAP1 DUP2 MSTORE PUSH1 0x40 DUP1 DUP4 KECCAK256 DUP1 SLOAD DUP3 MLOAD DUP2 DUP6 MUL DUP2 ADD DUP6 ADD SWAP1 SWAP4 MSTORE DUP1 DUP4 MSTORE DUP5 SWAP4 PUSH1 0x60 SWAP4 SWAP3 SWAP2 SWAP1 DUP4 ADD DUP3 DUP3 DUP1 ISZERO PUSH2 0x44F6 JUMPI PUSH1 0x20 MUL DUP3 ADD SWAP2 SWAP1 PUSH1 0x0 MSTORE PUSH1 0x20 PUSH1 0x0 KECCAK256 SWAP1 JUMPDEST DUP2 SLOAD PUSH1 0x1 PUSH1 0x1 PUSH1 0xA0 SHL SUB AND DUP2 MSTORE PUSH1 0x1 SWAP1 SWAP2 ADD SWAP1 PUSH1 0x20 ADD DUP1 DUP4 GT PUSH2 0x44D8 JUMPI JUMPDEST POP SWAP4 SWAP5 POP PUSH1 0x0 SWAP4 POP POP POP POP JUMPDEST DUP2 MLOAD DUP2 LT ISZERO PUSH2 0x4852 JUMPI PUSH1 0x0 DUP3 DUP3 DUP2 MLOAD DUP2 LT PUSH2 0x4519 JUMPI INVALID JUMPDEST PUSH1 0x20 MUL PUSH1 0x20 ADD ADD MLOAD SWAP1 POP DUP1 PUSH1 0x1 PUSH1 0x1 PUSH1 0xA0 SHL SUB AND PUSH4 0xC37F68E2 DUP15 PUSH1 0x40 MLOAD DUP3 PUSH4 0xFFFFFFFF AND PUSH1 0xE0 SHL DUP2 MSTORE PUSH1 0x4 ADD DUP1 DUP3 PUSH1 0x1 PUSH1 0x1 PUSH1 0xA0 SHL SUB AND PUSH1 0x1 PUSH1 0x1 PUSH1 0xA0 SHL SUB AND DUP2 MSTORE PUSH1 0x20 ADD SWAP2 POP POP PUSH1 0x80 PUSH1 0x40 MLOAD DUP1 DUP4 SUB DUP2 DUP7 DUP1 EXTCODESIZE ISZERO DUP1 ISZERO PUSH2 0x4579 JUMPI PUSH1 0x0 DUP1 REVERT JUMPDEST POP GAS STATICCALL ISZERO DUP1 ISZERO PUSH2 0x458D JUMPI RETURNDATASIZE PUSH1 0x0 DUP1 RETURNDATACOPY RETURNDATASIZE PUSH1 0x0 REVERT JUMPDEST POP POP POP POP PUSH1 0x40 MLOAD RETURNDATASIZE PUSH1 0x80 DUP2 LT ISZERO PUSH2 0x45A3 JUMPI PUSH1 0x0 DUP1 REVERT JUMPDEST POP DUP1 MLOAD PUSH1 0x20 DUP3 ADD MLOAD PUSH1 0x40 DUP1 DUP5 ADD MLOAD PUSH1 0x60 SWAP5 DUP6 ADD MLOAD PUSH1 0x80 DUP13 ADD MSTORE SWAP4 DUP11 ADD SWAP4 SWAP1 SWAP4 MSTORE SWAP2 DUP9 ADD SWAP2 SWAP1 SWAP2 MSTORE SWAP5 POP DUP5 ISZERO PUSH2 0x45E9 JUMPI POP PUSH1 0xF SWAP8 POP PUSH1 0x0 SWAP7 POP DUP7 SWAP6 POP PUSH2 0x1D85 SWAP5 POP POP POP POP POP JUMP JUMPDEST PUSH1 0x40 DUP1 MLOAD PUSH1 0x20 DUP1 DUP3 ADD DUP4 MSTORE PUSH1 0x1 PUSH1 0x1 PUSH1 0xA0 SHL SUB DUP1 DUP6 AND PUSH1 0x0 DUP2 DUP2 MSTORE PUSH1 0x9 DUP5 MSTORE DUP6 SWAP1 KECCAK256 PUSH1 0x1 ADD SLOAD DUP5 MSTORE PUSH1 0xC0 DUP12 ADD SWAP4 SWAP1 SWAP4 MSTORE DUP4 MLOAD DUP1 DUP4 ADD DUP6 MSTORE PUSH1 0x80 DUP12 ADD MLOAD DUP2 MSTORE PUSH1 0xE0 DUP12 ADD MSTORE PUSH1 0x4 DUP1 SLOAD DUP6 MLOAD PUSH4 0xFC57D4DF PUSH1 0xE0 SHL DUP2 MSTORE SWAP2 DUP3 ADD SWAP5 SWAP1 SWAP5 MSTORE SWAP4 MLOAD SWAP3 AND SWAP3 PUSH4 0xFC57D4DF SWAP3 PUSH1 0x24 DUP1 DUP4 ADD SWAP4 SWAP3 DUP3 SWAP1 SUB ADD DUP2 DUP7 DUP1 EXTCODESIZE ISZERO DUP1 ISZERO PUSH2 0x4669 JUMPI PUSH1 0x0 DUP1 REVERT JUMPDEST POP GAS STATICCALL ISZERO DUP1 ISZERO PUSH2 0x467D JUMPI RETURNDATASIZE PUSH1 0x0 DUP1 RETURNDATACOPY RETURNDATASIZE PUSH1 0x0 REVERT JUMPDEST POP POP POP POP PUSH1 0x40 MLOAD RETURNDATASIZE PUSH1 0x20 DUP2 LT ISZERO PUSH2 0x4693 JUMPI PUSH1 0x0 DUP1 REVERT JUMPDEST POP MLOAD PUSH1 0xA0 DUP8 ADD DUP2 SWAP1 MSTORE PUSH2 0x46B7 JUMPI POP PUSH1 0xD SWAP8 POP PUSH1 0x0 SWAP7 POP DUP7 SWAP6 POP PUSH2 0x1D85 SWAP5 POP POP POP POP POP JUMP JUMPDEST PUSH1 0x40 DUP1 MLOAD PUSH1 0x20 DUP2 ADD SWAP1 SWAP2 MSTORE PUSH1 0xA0 DUP8 ADD MLOAD DUP2 MSTORE PUSH2 0x100 DUP8 ADD DUP2 SWAP1 MSTORE PUSH1 0xC0 DUP8 ADD MLOAD PUSH1 0xE0 DUP9 ADD MLOAD PUSH2 0x46E4 SWAP3 PUSH2 0x5877 JUMP JUMPDEST PUSH2 0x120 DUP9 ADD MSTORE SWAP4 POP PUSH1 0x0 DUP5 PUSH1 0x3 DUP2 GT ISZERO PUSH2 0x46FA JUMPI INVALID JUMPDEST EQ PUSH2 0x4716 JUMPI POP PUSH1 0xB SWAP8 POP PUSH1 0x0 SWAP7 POP DUP7 SWAP6 POP PUSH2 0x1D85 SWAP5 POP POP POP POP POP JUMP JUMPDEST PUSH2 0x472E DUP7 PUSH2 0x120 ADD MLOAD DUP8 PUSH1 0x40 ADD MLOAD DUP9 PUSH1 0x0 ADD MLOAD PUSH2 0x58CF JUMP JUMPDEST DUP8 MSTORE SWAP4 POP PUSH1 0x0 DUP5 PUSH1 0x3 DUP2 GT ISZERO PUSH2 0x4740 JUMPI INVALID JUMPDEST EQ PUSH2 0x475C JUMPI POP PUSH1 0xB SWAP8 POP PUSH1 0x0 SWAP7 POP DUP7 SWAP6 POP PUSH2 0x1D85 SWAP5 POP POP POP POP POP JUMP JUMPDEST PUSH2 0x4774 DUP7 PUSH2 0x100 ADD MLOAD DUP8 PUSH1 0x60 ADD MLOAD DUP9 PUSH1 0x20 ADD MLOAD PUSH2 0x58CF JUMP JUMPDEST PUSH1 0x20 DUP9 ADD MSTORE SWAP4 POP PUSH1 0x0 DUP5 PUSH1 0x3 DUP2 GT ISZERO PUSH2 0x4789 JUMPI INVALID JUMPDEST EQ PUSH2 0x47A5 JUMPI POP PUSH1 0xB SWAP8 POP PUSH1 0x0 SWAP7 POP DUP7 SWAP6 POP PUSH2 0x1D85 SWAP5 POP POP POP POP POP JUMP JUMPDEST DUP12 PUSH1 0x1 PUSH1 0x1 PUSH1 0xA0 SHL SUB AND DUP2 PUSH1 0x1 PUSH1 0x1 PUSH1 0xA0 SHL SUB AND EQ ISZERO PUSH2 0x4849 JUMPI PUSH2 0x47D3 DUP7 PUSH2 0x120 ADD MLOAD DUP13 DUP9 PUSH1 0x20 ADD MLOAD PUSH2 0x58CF JUMP JUMPDEST PUSH1 0x20 DUP9 ADD MSTORE SWAP4 POP PUSH1 0x0 DUP5 PUSH1 0x3 DUP2 GT ISZERO PUSH2 0x47E8 JUMPI INVALID JUMPDEST EQ PUSH2 0x4804 JUMPI POP PUSH1 0xB SWAP8 POP PUSH1 0x0 SWAP7 POP DUP7 SWAP6 POP PUSH2 0x1D85 SWAP5 POP POP POP POP POP JUMP JUMPDEST PUSH2 0x4818 DUP7 PUSH2 0x100 ADD MLOAD DUP12 DUP9 PUSH1 0x20 ADD MLOAD PUSH2 0x58CF JUMP JUMPDEST PUSH1 0x20 DUP9 ADD MSTORE SWAP4 POP PUSH1 0x0 DUP5 PUSH1 0x3 DUP2 GT ISZERO PUSH2 0x482D JUMPI INVALID JUMPDEST EQ PUSH2 0x4849 JUMPI POP PUSH1 0xB SWAP8 POP PUSH1 0x0 SWAP7 POP DUP7 SWAP6 POP PUSH2 0x1D85 SWAP5 POP POP POP POP POP JUMP JUMPDEST POP PUSH1 0x1 ADD PUSH2 0x4502 JUMP JUMPDEST POP PUSH1 0x20 DUP5 ADD MLOAD DUP5 MLOAD GT ISZERO PUSH2 0x4879 JUMPI POP POP POP PUSH1 0x20 DUP2 ADD MLOAD SWAP1 MLOAD PUSH1 0x0 SWAP5 POP SUB SWAP2 POP DUP3 SWAP1 POP PUSH2 0x1D85 JUMP JUMPDEST POP POP DUP2 MLOAD PUSH1 0x20 SWAP1 SWAP3 ADD MLOAD PUSH1 0x0 SWAP6 POP DUP6 SWAP5 POP SWAP2 SWAP1 SWAP2 SUB SWAP2 POP PUSH2 0x1D85 SWAP1 POP JUMP JUMPDEST PUSH1 0x1 PUSH1 0x1 PUSH1 0xA0 SHL SUB DUP2 AND PUSH1 0x0 SWAP1 DUP2 MSTORE PUSH1 0x10 PUSH1 0x20 SWAP1 DUP2 MSTORE PUSH1 0x40 DUP1 DUP4 KECCAK256 PUSH1 0xF SWAP1 SWAP3 MSTORE DUP3 KECCAK256 SLOAD SWAP1 SWAP2 PUSH2 0x48C4 PUSH2 0x1CE8 JUMP JUMPDEST DUP4 SLOAD SWAP1 SWAP2 POP PUSH1 0x0 SWAP1 PUSH2 0x48E4 SWAP1 DUP4 SWAP1 PUSH1 0x1 PUSH1 0xE0 SHL SWAP1 DIV PUSH4 0xFFFFFFFF AND PUSH2 0x544F JUMP JUMPDEST SWAP1 POP PUSH1 0x0 DUP2 GT DUP1 ISZERO PUSH2 0x48F6 JUMPI POP PUSH1 0x0 DUP4 GT JUMPDEST ISZERO PUSH2 0x4ABC JUMPI PUSH1 0x0 DUP6 PUSH1 0x1 PUSH1 0x1 PUSH1 0xA0 SHL SUB AND PUSH4 0x18160DDD PUSH1 0x40 MLOAD DUP2 PUSH4 0xFFFFFFFF AND PUSH1 0xE0 SHL DUP2 MSTORE PUSH1 0x4 ADD PUSH1 0x20 PUSH1 0x40 MLOAD DUP1 DUP4 SUB DUP2 DUP7 DUP1 EXTCODESIZE ISZERO DUP1 ISZERO PUSH2 0x4936 JUMPI PUSH1 0x0 DUP1 REVERT JUMPDEST POP GAS STATICCALL ISZERO DUP1 ISZERO PUSH2 0x494A JUMPI RETURNDATASIZE PUSH1 0x0 DUP1 RETURNDATACOPY RETURNDATASIZE PUSH1 0x0 REVERT JUMPDEST POP POP POP POP PUSH1 0x40 MLOAD RETURNDATASIZE PUSH1 0x20 DUP2 LT ISZERO PUSH2 0x4960 JUMPI PUSH1 0x0 DUP1 REVERT JUMPDEST POP MLOAD SWAP1 POP PUSH1 0x0 PUSH2 0x4970 DUP4 DUP7 PUSH2 0x54A7 JUMP JUMPDEST SWAP1 POP PUSH2 0x497A PUSH2 0x5D59 JUMP JUMPDEST PUSH1 0x0 DUP4 GT PUSH2 0x4997 JUMPI PUSH1 0x40 MLOAD DUP1 PUSH1 0x20 ADD PUSH1 0x40 MSTORE DUP1 PUSH1 0x0 DUP2 MSTORE POP PUSH2 0x49A1 JUMP JUMPDEST PUSH2 0x49A1 DUP3 DUP5 PUSH2 0x54E9 JUMP JUMPDEST SWAP1 POP PUSH2 0x49AB PUSH2 0x5D59 JUMP JUMPDEST PUSH1 0x40 DUP1 MLOAD PUSH1 0x20 DUP2 ADD SWAP1 SWAP2 MSTORE DUP9 SLOAD PUSH1 0x1 PUSH1 0x1 PUSH1 0xE0 SHL SUB AND DUP2 MSTORE PUSH2 0x49CD SWAP1 DUP4 PUSH2 0x5527 JUMP JUMPDEST SWAP1 POP PUSH1 0x40 MLOAD DUP1 PUSH1 0x40 ADD PUSH1 0x40 MSTORE DUP1 PUSH2 0x4A1D DUP4 PUSH1 0x0 ADD MLOAD PUSH1 0x40 MLOAD DUP1 PUSH1 0x40 ADD PUSH1 0x40 MSTORE DUP1 PUSH1 0x1A DUP2 MSTORE PUSH1 0x20 ADD PUSH32 0x6E657720696E6465782065786365656473203232342062697473000000000000 DUP2 MSTORE POP PUSH2 0x554C JUMP JUMPDEST PUSH1 0x1 PUSH1 0x1 PUSH1 0xE0 SHL SUB AND DUP2 MSTORE PUSH1 0x20 ADD PUSH2 0x4A58 DUP9 PUSH1 0x40 MLOAD DUP1 PUSH1 0x40 ADD PUSH1 0x40 MSTORE DUP1 PUSH1 0x1C DUP2 MSTORE PUSH1 0x20 ADD PUSH1 0x0 DUP1 MLOAD PUSH1 0x20 PUSH2 0x5F19 DUP4 CODECOPY DUP2 MLOAD SWAP2 MSTORE DUP2 MSTORE POP PUSH2 0x55E6 JUMP JUMPDEST PUSH4 0xFFFFFFFF SWAP1 DUP2 AND SWAP1 SWAP2 MSTORE PUSH1 0x1 PUSH1 0x1 PUSH1 0xA0 SHL SUB DUP12 AND PUSH1 0x0 SWAP1 DUP2 MSTORE PUSH1 0x10 PUSH1 0x20 SWAP1 DUP2 MSTORE PUSH1 0x40 SWAP1 SWAP2 KECCAK256 DUP4 MLOAD DUP2 SLOAD SWAP5 SWAP1 SWAP3 ADD MLOAD SWAP1 SWAP3 AND PUSH1 0x1 PUSH1 0xE0 SHL MUL PUSH1 0x1 PUSH1 0x1 PUSH1 0xE0 SHL SUB SWAP2 DUP3 AND PUSH1 0x1 PUSH1 0x1 PUSH1 0xE0 SHL SUB NOT SWAP1 SWAP5 AND SWAP4 SWAP1 SWAP4 OR AND SWAP2 SWAP1 SWAP2 OR SWAP1 SSTORE POP PUSH2 0x1612 SWAP3 POP POP POP JUMP JUMPDEST DUP1 ISZERO PUSH2 0x1612 JUMPI PUSH2 0x4AEF DUP3 PUSH1 0x40 MLOAD DUP1 PUSH1 0x40 ADD PUSH1 0x40 MSTORE DUP1 PUSH1 0x1C DUP2 MSTORE PUSH1 0x20 ADD PUSH1 0x0 DUP1 MLOAD PUSH1 0x20 PUSH2 0x5F19 DUP4 CODECOPY DUP2 MLOAD SWAP2 MSTORE DUP2 MSTORE POP PUSH2 0x55E6 JUMP JUMPDEST DUP5 SLOAD PUSH4 0xFFFFFFFF SWAP2 SWAP1 SWAP2 AND PUSH1 0x1 PUSH1 0xE0 SHL MUL PUSH1 0x1 PUSH1 0x1 PUSH1 0xE0 SHL SUB SWAP1 SWAP2 AND OR DUP5 SSTORE POP POP POP POP POP JUMP JUMPDEST PUSH1 0x1 PUSH1 0x1 PUSH1 0xA0 SHL SUB DUP4 AND PUSH1 0x0 SWAP1 DUP2 MSTORE PUSH1 0x10 PUSH1 0x20 MSTORE PUSH1 0x40 SWAP1 KECCAK256 PUSH2 0x4B35 PUSH2 0x5D59 JUMP JUMPDEST POP PUSH1 0x40 DUP1 MLOAD PUSH1 0x20 DUP2 ADD SWAP1 SWAP2 MSTORE DUP2 SLOAD PUSH1 0x1 PUSH1 0x1 PUSH1 0xE0 SHL SUB AND DUP2 MSTORE PUSH2 0x4B56 PUSH2 0x5D59 JUMP JUMPDEST POP PUSH1 0x40 DUP1 MLOAD PUSH1 0x20 DUP1 DUP3 ADD DUP4 MSTORE PUSH1 0x1 PUSH1 0x1 PUSH1 0xA0 SHL SUB DUP1 DUP10 AND PUSH1 0x0 SWAP1 DUP2 MSTORE PUSH1 0x12 DUP4 MSTORE DUP5 DUP2 KECCAK256 SWAP2 DUP10 AND DUP1 DUP3 MSTORE DUP3 DUP5 MSTORE SWAP5 DUP2 KECCAK256 DUP1 SLOAD DUP6 MSTORE DUP7 MLOAD SWAP6 SWAP1 SWAP2 MSTORE SWAP2 MSTORE SWAP2 SWAP1 SWAP2 SSTORE DUP1 MLOAD ISZERO DUP1 ISZERO PUSH2 0x4BA4 JUMPI POP DUP2 MLOAD ISZERO ISZERO JUMPDEST ISZERO PUSH2 0x4BBC JUMPI PUSH15 0xC097CE7BC90715B34B9F1000000000 DUP2 MSTORE JUMPDEST PUSH2 0x4BC4 PUSH2 0x5D59 JUMP JUMPDEST PUSH2 0x4BCE DUP4 DUP4 PUSH2 0x563B JUMP JUMPDEST SWAP1 POP PUSH1 0x0 DUP8 PUSH1 0x1 PUSH1 0x1 PUSH1 0xA0 SHL SUB AND PUSH4 0x70A08231 DUP9 PUSH1 0x40 MLOAD DUP3 PUSH4 0xFFFFFFFF AND PUSH1 0xE0 SHL DUP2 MSTORE PUSH1 0x4 ADD DUP1 DUP3 PUSH1 0x1 PUSH1 0x1 PUSH1 0xA0 SHL SUB AND PUSH1 0x1 PUSH1 0x1 PUSH1 0xA0 SHL SUB AND DUP2 MSTORE PUSH1 0x20 ADD SWAP2 POP POP PUSH1 0x20 PUSH1 0x40 MLOAD DUP1 DUP4 SUB DUP2 DUP7 DUP1 EXTCODESIZE ISZERO DUP1 ISZERO PUSH2 0x4C28 JUMPI PUSH1 0x0 DUP1 REVERT JUMPDEST POP GAS STATICCALL ISZERO DUP1 ISZERO PUSH2 0x4C3C JUMPI RETURNDATASIZE PUSH1 0x0 DUP1 RETURNDATACOPY RETURNDATASIZE PUSH1 0x0 REVERT JUMPDEST POP POP POP POP PUSH1 0x40 MLOAD RETURNDATASIZE PUSH1 0x20 DUP2 LT ISZERO PUSH2 0x4C52 JUMPI PUSH1 0x0 DUP1 REVERT JUMPDEST POP MLOAD SWAP1 POP PUSH1 0x0 PUSH2 0x4C62 DUP3 DUP5 PUSH2 0x5660 JUMP JUMPDEST PUSH1 0x1 PUSH1 0x1 PUSH1 0xA0 SHL SUB DUP10 AND PUSH1 0x0 SWAP1 DUP2 MSTORE PUSH1 0x14 PUSH1 0x20 MSTORE PUSH1 0x40 DUP2 KECCAK256 SLOAD SWAP2 SWAP3 POP SWAP1 PUSH2 0x4C89 SWAP1 DUP4 PUSH2 0x568F JUMP JUMPDEST SWAP1 POP PUSH2 0x4CA2 DUP10 DUP3 DUP11 PUSH2 0x3FCE JUMPI PUSH7 0x38D7EA4C68000 PUSH2 0x3FD1 JUMP JUMPDEST PUSH1 0x1 PUSH1 0x1 PUSH1 0xA0 SHL SUB DUP1 DUP12 AND PUSH1 0x0 DUP2 DUP2 MSTORE PUSH1 0x14 PUSH1 0x20 SWAP1 DUP2 MSTORE PUSH1 0x40 SWAP2 DUP3 SWAP1 KECCAK256 SWAP5 SWAP1 SWAP5 SSTORE DUP10 MLOAD DUP2 MLOAD DUP8 DUP2 MSTORE SWAP5 DUP6 ADD MSTORE DUP1 MLOAD SWAP2 SWAP4 SWAP3 DUP15 AND SWAP3 PUSH32 0x2CAECD17D02F56FA897705DCC740DA2D237C373F70686F4E0D9BD3BF0400EA7A SWAP3 SWAP1 DUP2 SWAP1 SUB SWAP1 SWAP2 ADD SWAP1 LOG3 POP POP POP POP POP POP POP POP POP POP JUMP JUMPDEST PUSH1 0x0 DUP1 PUSH1 0x0 PUSH2 0x4D20 DUP5 PUSH1 0x0 DUP1 PUSH1 0x0 PUSH2 0x447C JUMP JUMPDEST SWAP3 POP SWAP3 POP SWAP3 POP SWAP2 SWAP4 SWAP1 SWAP3 POP JUMP JUMPDEST PUSH1 0x0 DUP1 PUSH1 0x0 PUSH2 0x4D3A PUSH2 0x5D59 JUMP JUMPDEST PUSH2 0x4D44 DUP7 DUP7 PUSH2 0x591C JUMP JUMPDEST SWAP1 SWAP3 POP SWAP1 POP PUSH1 0x0 DUP3 PUSH1 0x3 DUP2 GT ISZERO PUSH2 0x4D57 JUMPI INVALID JUMPDEST EQ PUSH2 0x4D68 JUMPI POP SWAP2 POP PUSH1 0x0 SWAP1 POP PUSH2 0x4D7A JUMP JUMPDEST PUSH1 0x0 PUSH2 0x4D73 DUP3 PUSH2 0x5984 JUMP JUMPDEST SWAP4 POP SWAP4 POP POP POP JUMPDEST SWAP3 POP SWAP3 SWAP1 POP JUMP JUMPDEST PUSH1 0x0 DUP1 SLOAD PUSH1 0x1 PUSH1 0x1 PUSH1 0xA0 SHL SUB AND CALLER EQ DUP1 PUSH2 0x4DA5 JUMPI POP PUSH1 0x2 SLOAD PUSH1 0x1 PUSH1 0x1 PUSH1 0xA0 SHL SUB AND CALLER EQ JUMPDEST SWAP1 POP SWAP1 JUMP JUMPDEST PUSH1 0x0 JUMPDEST PUSH1 0xD SLOAD DUP2 LT ISZERO PUSH2 0x4E35 JUMPI DUP2 PUSH1 0x1 PUSH1 0x1 PUSH1 0xA0 SHL SUB AND PUSH1 0xD DUP3 DUP2 SLOAD DUP2 LT PUSH2 0x4DCE JUMPI INVALID JUMPDEST PUSH1 0x0 SWAP2 DUP3 MSTORE PUSH1 0x20 SWAP1 SWAP2 KECCAK256 ADD SLOAD PUSH1 0x1 PUSH1 0x1 PUSH1 0xA0 SHL SUB AND EQ ISZERO PUSH2 0x4E2D JUMPI PUSH1 0x40 DUP1 MLOAD PUSH3 0x461BCD PUSH1 0xE5 SHL DUP2 MSTORE PUSH1 0x20 PUSH1 0x4 DUP3 ADD MSTORE PUSH1 0x14 PUSH1 0x24 DUP3 ADD MSTORE PUSH20 0x1B585C9AD95D08185B1C9958591E481859191959 PUSH1 0x62 SHL PUSH1 0x44 DUP3 ADD MSTORE SWAP1 MLOAD SWAP1 DUP2 SWAP1 SUB PUSH1 0x64 ADD SWAP1 REVERT JUMPDEST PUSH1 0x1 ADD PUSH2 0x4DAD JUMP JUMPDEST POP PUSH1 0xD DUP1 SLOAD PUSH1 0x1 DUP2 ADD DUP3 SSTORE PUSH1 0x0 SWAP2 SWAP1 SWAP2 MSTORE PUSH32 0xD7B6990105719101DABEB77144F2A3385C8033ACD3AF97E9423A695E81AD1EB5 ADD DUP1 SLOAD PUSH1 0x1 PUSH1 0x1 PUSH1 0xA0 SHL SUB NOT AND PUSH1 0x1 PUSH1 0x1 PUSH1 0xA0 SHL SUB SWAP3 SWAP1 SWAP3 AND SWAP2 SWAP1 SWAP2 OR SWAP1 SSTORE JUMP JUMPDEST PUSH1 0x1 PUSH1 0x1 PUSH1 0xA0 SHL SUB DUP4 AND PUSH1 0x0 SWAP1 DUP2 MSTORE PUSH1 0x9 PUSH1 0x20 MSTORE PUSH1 0x40 DUP2 KECCAK256 SLOAD PUSH1 0xFF AND PUSH2 0x4EAF JUMPI PUSH1 0x9 PUSH2 0x1E11 JUMP JUMPDEST PUSH1 0x1 PUSH1 0x1 PUSH1 0xA0 SHL SUB DUP1 DUP6 AND PUSH1 0x0 SWAP1 DUP2 MSTORE PUSH1 0x9 PUSH1 0x20 SWAP1 DUP2 MSTORE PUSH1 0x40 DUP1 DUP4 KECCAK256 SWAP4 DUP8 AND DUP4 MSTORE PUSH1 0x2 SWAP1 SWAP4 ADD SWAP1 MSTORE KECCAK256 SLOAD PUSH1 0xFF AND PUSH2 0x4EE7 JUMPI PUSH1 0x0 PUSH2 0x1E11 JUMP JUMPDEST PUSH1 0x0 DUP1 PUSH2 0x4EF7 DUP6 DUP8 DUP7 PUSH1 0x0 PUSH2 0x447C JUMP JUMPDEST SWAP2 SWAP4 POP SWAP1 SWAP2 POP PUSH1 0x0 SWAP1 POP DUP3 PUSH1 0x11 DUP2 GT ISZERO PUSH2 0x4F0D JUMPI INVALID JUMPDEST EQ PUSH2 0x4F27 JUMPI DUP2 PUSH1 0x11 DUP2 GT ISZERO PUSH2 0x4F1E JUMPI INVALID JUMPDEST SWAP3 POP POP POP PUSH2 0x1E33 JUMP JUMPDEST DUP1 ISZERO PUSH2 0x3154 JUMPI PUSH1 0x4 PUSH2 0x4F1E JUMP JUMPDEST PUSH1 0x1 PUSH1 0x1 PUSH1 0xA0 SHL SUB DUP3 AND PUSH1 0x0 SWAP1 DUP2 MSTORE PUSH1 0x9 PUSH1 0x20 MSTORE PUSH1 0x40 DUP2 KECCAK256 DUP1 SLOAD PUSH1 0xFF AND PUSH2 0x4F5F JUMPI PUSH1 0x9 SWAP2 POP POP PUSH2 0x1439 JUMP JUMPDEST PUSH1 0x1 PUSH1 0x1 PUSH1 0xA0 SHL SUB DUP4 AND PUSH1 0x0 SWAP1 DUP2 MSTORE PUSH1 0x2 DUP3 ADD PUSH1 0x20 MSTORE PUSH1 0x40 SWAP1 KECCAK256 SLOAD PUSH1 0xFF AND ISZERO ISZERO PUSH1 0x1 EQ ISZERO PUSH2 0x4F91 JUMPI PUSH1 0x0 SWAP2 POP POP PUSH2 0x1439 JUMP JUMPDEST PUSH1 0x7 SLOAD PUSH1 0x1 PUSH1 0x1 PUSH1 0xA0 SHL SUB DUP5 AND PUSH1 0x0 SWAP1 DUP2 MSTORE PUSH1 0x8 PUSH1 0x20 MSTORE PUSH1 0x40 SWAP1 KECCAK256 SLOAD LT PUSH2 0x4FBC JUMPI PUSH1 0x10 SWAP2 POP POP PUSH2 0x1439 JUMP JUMPDEST PUSH1 0x1 PUSH1 0x1 PUSH1 0xA0 SHL SUB DUP1 DUP5 AND PUSH1 0x0 DUP2 DUP2 MSTORE PUSH1 0x2 DUP5 ADD PUSH1 0x20 SWAP1 DUP2 MSTORE PUSH1 0x40 DUP1 DUP4 KECCAK256 DUP1 SLOAD PUSH1 0xFF NOT AND PUSH1 0x1 SWAP1 DUP2 OR SWAP1 SWAP2 SSTORE PUSH1 0x8 DUP4 MSTORE DUP2 DUP5 KECCAK256 DUP1 SLOAD SWAP2 DUP3 ADD DUP2 SSTORE DUP5 MSTORE SWAP3 DUP3 SWAP1 KECCAK256 SWAP1 SWAP3 ADD DUP1 SLOAD SWAP5 DUP10 AND PUSH1 0x1 PUSH1 0x1 PUSH1 0xA0 SHL SUB NOT SWAP1 SWAP6 AND DUP6 OR SWAP1 SSTORE DUP2 MLOAD SWAP4 DUP5 MSTORE DUP4 ADD SWAP2 SWAP1 SWAP2 MSTORE DUP1 MLOAD PUSH32 0x3AB23AB0D51CCCC0C3085AEC51F99228625AA1A922B3A8CA89A26B0F2027A1A5 SWAP3 DUP2 SWAP1 SUB SWAP1 SWAP2 ADD SWAP1 LOG1 POP PUSH1 0x0 SWAP4 SWAP3 POP POP POP JUMP JUMPDEST PUSH1 0x0 PUSH2 0x505F PUSH2 0x5D59 JUMP JUMPDEST PUSH2 0x5085 PUSH1 0x40 MLOAD DUP1 PUSH1 0x20 ADD PUSH1 0x40 MSTORE DUP1 DUP7 DUP2 MSTORE POP PUSH1 0x40 MLOAD DUP1 PUSH1 0x20 ADD PUSH1 0x40 MSTORE DUP1 DUP7 DUP2 MSTORE POP PUSH2 0x5993 JUMP JUMPDEST SWAP2 POP SWAP2 POP SWAP3 POP SWAP3 SWAP1 POP JUMP JUMPDEST PUSH1 0x0 PUSH2 0x509A PUSH2 0x5D59 JUMP JUMPDEST DUP4 MLOAD DUP4 MLOAD PUSH2 0x5085 SWAP2 SWAP1 PUSH2 0x5A7C JUMP JUMPDEST PUSH1 0x1 PUSH1 0x1 PUSH1 0xA0 SHL SUB DUP2 AND PUSH1 0x0 SWAP1 DUP2 MSTORE PUSH1 0x9 PUSH1 0x20 MSTORE PUSH1 0x40 SWAP1 KECCAK256 DUP1 SLOAD PUSH1 0xFF AND ISZERO ISZERO PUSH1 0x1 EQ PUSH2 0x511B JUMPI PUSH1 0x40 DUP1 MLOAD PUSH3 0x461BCD PUSH1 0xE5 SHL DUP2 MSTORE PUSH1 0x20 PUSH1 0x4 DUP3 ADD MSTORE PUSH1 0x19 PUSH1 0x24 DUP3 ADD MSTORE PUSH32 0x636F6D70206D61726B6574206973206E6F74206C697374656400000000000000 PUSH1 0x44 DUP3 ADD MSTORE SWAP1 MLOAD SWAP1 DUP2 SWAP1 SUB PUSH1 0x64 ADD SWAP1 REVERT JUMPDEST PUSH1 0x3 DUP2 ADD SLOAD PUSH1 0xFF AND ISZERO PUSH2 0x5175 JUMPI PUSH1 0x40 DUP1 MLOAD PUSH3 0x461BCD PUSH1 0xE5 SHL DUP2 MSTORE PUSH1 0x20 PUSH1 0x4 DUP3 ADD MSTORE PUSH1 0x19 PUSH1 0x24 DUP3 ADD MSTORE PUSH32 0x636F6D70206D61726B657420616C726561647920616464656400000000000000 PUSH1 0x44 DUP3 ADD MSTORE SWAP1 MLOAD SWAP1 DUP2 SWAP1 SUB PUSH1 0x64 ADD SWAP1 REVERT JUMPDEST PUSH1 0x3 DUP2 ADD DUP1 SLOAD PUSH1 0xFF NOT AND PUSH1 0x1 SWAP1 DUP2 OR SWAP1 SWAP2 SSTORE PUSH1 0x40 DUP1 MLOAD PUSH1 0x1 PUSH1 0x1 PUSH1 0xA0 SHL SUB DUP6 AND DUP2 MSTORE PUSH1 0x20 DUP2 ADD SWAP3 SWAP1 SWAP3 MSTORE DUP1 MLOAD PUSH32 0x93C1F3E36ED71139F466A4CE8C9751790E2E33F5AFB2DF0DCFB3AEABE55D5AA2 SWAP3 DUP2 SWAP1 SUB SWAP1 SWAP2 ADD SWAP1 LOG1 PUSH1 0x1 PUSH1 0x1 PUSH1 0xA0 SHL SUB DUP3 AND PUSH1 0x0 SWAP1 DUP2 MSTORE PUSH1 0x10 PUSH1 0x20 MSTORE PUSH1 0x40 SWAP1 KECCAK256 SLOAD PUSH1 0x1 PUSH1 0x1 PUSH1 0xE0 SHL SUB AND ISZERO DUP1 ISZERO PUSH2 0x521D JUMPI POP PUSH1 0x1 PUSH1 0x1 PUSH1 0xA0 SHL SUB DUP3 AND PUSH1 0x0 SWAP1 DUP2 MSTORE PUSH1 0x10 PUSH1 0x20 MSTORE PUSH1 0x40 SWAP1 KECCAK256 SLOAD PUSH1 0x1 PUSH1 0xE0 SHL SWAP1 DIV PUSH4 0xFFFFFFFF AND ISZERO JUMPDEST ISZERO PUSH2 0x52DA JUMPI PUSH1 0x40 MLOAD DUP1 PUSH1 0x40 ADD PUSH1 0x40 MSTORE DUP1 PUSH15 0xC097CE7BC90715B34B9F1000000000 PUSH1 0x1 PUSH1 0x1 PUSH1 0xE0 SHL SUB AND DUP2 MSTORE PUSH1 0x20 ADD PUSH2 0x527F PUSH2 0x5256 PUSH2 0x1CE8 JUMP JUMPDEST PUSH1 0x40 MLOAD DUP1 PUSH1 0x40 ADD PUSH1 0x40 MSTORE DUP1 PUSH1 0x1C DUP2 MSTORE PUSH1 0x20 ADD PUSH1 0x0 DUP1 MLOAD PUSH1 0x20 PUSH2 0x5F19 DUP4 CODECOPY DUP2 MLOAD SWAP2 MSTORE DUP2 MSTORE POP PUSH2 0x55E6 JUMP JUMPDEST PUSH4 0xFFFFFFFF SWAP1 DUP2 AND SWAP1 SWAP2 MSTORE PUSH1 0x1 PUSH1 0x1 PUSH1 0xA0 SHL SUB DUP5 AND PUSH1 0x0 SWAP1 DUP2 MSTORE PUSH1 0x10 PUSH1 0x20 SWAP1 DUP2 MSTORE PUSH1 0x40 SWAP1 SWAP2 KECCAK256 DUP4 MLOAD DUP2 SLOAD SWAP5 SWAP1 SWAP3 ADD MLOAD SWAP1 SWAP3 AND PUSH1 0x1 PUSH1 0xE0 SHL MUL PUSH1 0x1 PUSH1 0x1 PUSH1 0xE0 SHL SUB SWAP2 DUP3 AND PUSH1 0x1 PUSH1 0x1 PUSH1 0xE0 SHL SUB NOT SWAP1 SWAP5 AND SWAP4 SWAP1 SWAP4 OR AND SWAP2 SWAP1 SWAP2 OR SWAP1 SSTORE JUMPDEST PUSH1 0x1 PUSH1 0x1 PUSH1 0xA0 SHL SUB DUP3 AND PUSH1 0x0 SWAP1 DUP2 MSTORE PUSH1 0x11 PUSH1 0x20 MSTORE PUSH1 0x40 SWAP1 KECCAK256 SLOAD PUSH1 0x1 PUSH1 0x1 PUSH1 0xE0 SHL SUB AND ISZERO DUP1 ISZERO PUSH2 0x532C JUMPI POP PUSH1 0x1 PUSH1 0x1 PUSH1 0xA0 SHL SUB DUP3 AND PUSH1 0x0 SWAP1 DUP2 MSTORE PUSH1 0x11 PUSH1 0x20 MSTORE PUSH1 0x40 SWAP1 KECCAK256 SLOAD PUSH1 0x1 PUSH1 0xE0 SHL SWAP1 DIV PUSH4 0xFFFFFFFF AND ISZERO JUMPDEST ISZERO PUSH2 0x1B33 JUMPI PUSH1 0x40 MLOAD DUP1 PUSH1 0x40 ADD PUSH1 0x40 MSTORE DUP1 PUSH15 0xC097CE7BC90715B34B9F1000000000 PUSH1 0x1 PUSH1 0x1 PUSH1 0xE0 SHL SUB AND DUP2 MSTORE PUSH1 0x20 ADD PUSH2 0x5365 PUSH2 0x5256 PUSH2 0x1CE8 JUMP JUMPDEST PUSH4 0xFFFFFFFF SWAP1 DUP2 AND SWAP1 SWAP2 MSTORE PUSH1 0x1 PUSH1 0x1 PUSH1 0xA0 SHL SUB DUP5 AND PUSH1 0x0 SWAP1 DUP2 MSTORE PUSH1 0x11 PUSH1 0x20 SWAP1 DUP2 MSTORE PUSH1 0x40 SWAP1 SWAP2 KECCAK256 DUP4 MLOAD DUP2 SLOAD SWAP5 SWAP1 SWAP3 ADD MLOAD SWAP1 SWAP3 AND PUSH1 0x1 PUSH1 0xE0 SHL MUL PUSH1 0x1 PUSH1 0x1 PUSH1 0xE0 SHL SUB SWAP2 DUP3 AND PUSH1 0x1 PUSH1 0x1 PUSH1 0xE0 SHL SUB NOT SWAP1 SWAP5 AND SWAP4 SWAP1 SWAP4 OR AND SWAP2 SWAP1 SWAP2 OR SWAP1 SSTORE POP POP JUMP JUMPDEST PUSH1 0x0 DUP1 DUP4 DUP4 ADD DUP5 DUP2 LT PUSH2 0x53DB JUMPI PUSH1 0x0 SWAP3 POP SWAP1 POP PUSH2 0x4D7A JUMP JUMPDEST POP PUSH1 0x2 SWAP2 POP PUSH1 0x0 SWAP1 POP PUSH2 0x4D7A JUMP JUMPDEST PUSH1 0x0 PUSH32 0x45B96FE442630264581B197E84BBADA861235052C5A1AADFFF9EA4E40A969AA0 DUP5 PUSH1 0x11 DUP2 GT ISZERO PUSH2 0x5418 JUMPI INVALID JUMPDEST DUP5 PUSH1 0x13 DUP2 GT ISZERO PUSH2 0x5424 JUMPI INVALID JUMPDEST PUSH1 0x40 DUP1 MLOAD SWAP3 DUP4 MSTORE PUSH1 0x20 DUP4 ADD SWAP2 SWAP1 SWAP2 MSTORE DUP2 DUP2 ADD DUP6 SWAP1 MSTORE MLOAD SWAP1 DUP2 SWAP1 SUB PUSH1 0x60 ADD SWAP1 LOG1 DUP4 PUSH1 0x11 DUP2 GT ISZERO PUSH2 0x1E30 JUMPI INVALID JUMPDEST PUSH1 0x0 PUSH2 0x1E33 DUP4 DUP4 PUSH1 0x40 MLOAD DUP1 PUSH1 0x40 ADD PUSH1 0x40 MSTORE DUP1 PUSH1 0x15 DUP2 MSTORE PUSH1 0x20 ADD PUSH21 0x7375627472616374696F6E20756E646572666C6F77 PUSH1 0x58 SHL DUP2 MSTORE POP PUSH2 0x5B2C JUMP JUMPDEST PUSH1 0x0 PUSH2 0x1E33 PUSH2 0x54A0 DUP5 PUSH8 0xDE0B6B3A7640000 PUSH2 0x54A7 JUMP JUMPDEST DUP4 MLOAD PUSH2 0x5B86 JUMP JUMPDEST PUSH1 0x0 PUSH2 0x1E33 DUP4 DUP4 PUSH1 0x40 MLOAD DUP1 PUSH1 0x40 ADD PUSH1 0x40 MSTORE DUP1 PUSH1 0x17 DUP2 MSTORE PUSH1 0x20 ADD PUSH32 0x6D756C7469706C69636174696F6E206F766572666C6F77000000000000000000 DUP2 MSTORE POP PUSH2 0x5BB9 JUMP JUMPDEST PUSH2 0x54F1 PUSH2 0x5D59 JUMP JUMPDEST PUSH1 0x40 MLOAD DUP1 PUSH1 0x20 ADD PUSH1 0x40 MSTORE DUP1 PUSH2 0x551E PUSH2 0x5518 DUP7 PUSH15 0xC097CE7BC90715B34B9F1000000000 PUSH2 0x54A7 JUMP JUMPDEST DUP6 PUSH2 0x5B86 JUMP JUMPDEST SWAP1 MSTORE SWAP4 SWAP3 POP POP POP JUMP JUMPDEST PUSH2 0x552F PUSH2 0x5D59 JUMP JUMPDEST PUSH1 0x40 MLOAD DUP1 PUSH1 0x20 ADD PUSH1 0x40 MSTORE DUP1 PUSH2 0x551E DUP6 PUSH1 0x0 ADD MLOAD DUP6 PUSH1 0x0 ADD MLOAD PUSH2 0x568F JUMP JUMPDEST PUSH1 0x0 DUP2 PUSH1 0x1 PUSH1 0xE0 SHL DUP5 LT PUSH2 0x55DE JUMPI PUSH1 0x40 MLOAD PUSH3 0x461BCD PUSH1 0xE5 SHL DUP2 MSTORE PUSH1 0x4 ADD DUP1 DUP1 PUSH1 0x20 ADD DUP3 DUP2 SUB DUP3 MSTORE DUP4 DUP2 DUP2 MLOAD DUP2 MSTORE PUSH1 0x20 ADD SWAP2 POP DUP1 MLOAD SWAP1 PUSH1 0x20 ADD SWAP1 DUP1 DUP4 DUP4 PUSH1 0x0 JUMPDEST DUP4 DUP2 LT ISZERO PUSH2 0x55A3 JUMPI DUP2 DUP2 ADD MLOAD DUP4 DUP3 ADD MSTORE PUSH1 0x20 ADD PUSH2 0x558B JUMP JUMPDEST POP POP POP POP SWAP1 POP SWAP1 DUP2 ADD SWAP1 PUSH1 0x1F AND DUP1 ISZERO PUSH2 0x55D0 JUMPI DUP1 DUP3 SUB DUP1 MLOAD PUSH1 0x1 DUP4 PUSH1 0x20 SUB PUSH2 0x100 EXP SUB NOT AND DUP2 MSTORE PUSH1 0x20 ADD SWAP2 POP JUMPDEST POP SWAP3 POP POP POP PUSH1 0x40 MLOAD DUP1 SWAP2 SUB SWAP1 REVERT JUMPDEST POP SWAP2 SWAP3 SWAP2 POP POP JUMP JUMPDEST PUSH1 0x0 DUP2 PUSH1 0x1 PUSH1 0x20 SHL DUP5 LT PUSH2 0x55DE JUMPI PUSH1 0x40 MLOAD PUSH3 0x461BCD PUSH1 0xE5 SHL DUP2 MSTORE PUSH1 0x20 PUSH1 0x4 DUP3 ADD DUP2 DUP2 MSTORE DUP4 MLOAD PUSH1 0x24 DUP5 ADD MSTORE DUP4 MLOAD SWAP1 SWAP3 DUP4 SWAP3 PUSH1 0x44 SWAP1 SWAP2 ADD SWAP2 SWAP1 DUP6 ADD SWAP1 DUP1 DUP4 DUP4 PUSH1 0x0 DUP4 ISZERO PUSH2 0x55A3 JUMPI DUP2 DUP2 ADD MLOAD DUP4 DUP3 ADD MSTORE PUSH1 0x20 ADD PUSH2 0x558B JUMP JUMPDEST PUSH2 0x5643 PUSH2 0x5D59 JUMP JUMPDEST PUSH1 0x40 MLOAD DUP1 PUSH1 0x20 ADD PUSH1 0x40 MSTORE DUP1 PUSH2 0x551E DUP6 PUSH1 0x0 ADD MLOAD DUP6 PUSH1 0x0 ADD MLOAD PUSH2 0x544F JUMP JUMPDEST PUSH1 0x0 PUSH15 0xC097CE7BC90715B34B9F1000000000 PUSH2 0x5680 DUP5 DUP5 PUSH1 0x0 ADD MLOAD PUSH2 0x54A7 JUMP JUMPDEST DUP2 PUSH2 0x5687 JUMPI INVALID JUMPDEST DIV SWAP4 SWAP3 POP POP POP JUMP JUMPDEST PUSH1 0x0 PUSH2 0x1E33 DUP4 DUP4 PUSH1 0x40 MLOAD DUP1 PUSH1 0x40 ADD PUSH1 0x40 MSTORE DUP1 PUSH1 0x11 DUP2 MSTORE PUSH1 0x20 ADD PUSH17 0x6164646974696F6E206F766572666C6F77 PUSH1 0x78 SHL DUP2 MSTORE POP PUSH2 0x5C38 JUMP JUMPDEST PUSH1 0x0 DUP2 DUP4 LT ISZERO DUP1 ISZERO PUSH2 0x56D7 JUMPI POP PUSH1 0x0 DUP4 GT JUMPDEST ISZERO PUSH2 0x5802 JUMPI PUSH1 0x0 PUSH2 0x56E6 PUSH2 0x2892 JUMP JUMPDEST PUSH1 0x40 DUP1 MLOAD PUSH4 0x70A08231 PUSH1 0xE0 SHL DUP2 MSTORE ADDRESS PUSH1 0x4 DUP3 ADD MSTORE SWAP1 MLOAD SWAP2 SWAP3 POP PUSH1 0x0 SWAP2 PUSH1 0x1 PUSH1 0x1 PUSH1 0xA0 SHL SUB DUP5 AND SWAP2 PUSH4 0x70A08231 SWAP2 PUSH1 0x24 DUP1 DUP4 ADD SWAP3 PUSH1 0x20 SWAP3 SWAP2 SWAP1 DUP3 SWAP1 SUB ADD DUP2 DUP7 DUP1 EXTCODESIZE ISZERO DUP1 ISZERO PUSH2 0x5732 JUMPI PUSH1 0x0 DUP1 REVERT JUMPDEST POP GAS STATICCALL ISZERO DUP1 ISZERO PUSH2 0x5746 JUMPI RETURNDATASIZE PUSH1 0x0 DUP1 RETURNDATACOPY RETURNDATASIZE PUSH1 0x0 REVERT JUMPDEST POP POP POP POP PUSH1 0x40 MLOAD RETURNDATASIZE PUSH1 0x20 DUP2 LT ISZERO PUSH2 0x575C JUMPI PUSH1 0x0 DUP1 REVERT JUMPDEST POP MLOAD SWAP1 POP DUP1 DUP6 GT PUSH2 0x57FF JUMPI DUP2 PUSH1 0x1 PUSH1 0x1 PUSH1 0xA0 SHL SUB AND PUSH4 0xA9059CBB DUP8 DUP8 PUSH1 0x40 MLOAD DUP4 PUSH4 0xFFFFFFFF AND PUSH1 0xE0 SHL DUP2 MSTORE PUSH1 0x4 ADD DUP1 DUP4 PUSH1 0x1 PUSH1 0x1 PUSH1 0xA0 SHL SUB AND PUSH1 0x1 PUSH1 0x1 PUSH1 0xA0 SHL SUB AND DUP2 MSTORE PUSH1 0x20 ADD DUP3 DUP2 MSTORE PUSH1 0x20 ADD SWAP3 POP POP POP PUSH1 0x20 PUSH1 0x40 MLOAD DUP1 DUP4 SUB DUP2 PUSH1 0x0 DUP8 DUP1 EXTCODESIZE ISZERO DUP1 ISZERO PUSH2 0x57C7 JUMPI PUSH1 0x0 DUP1 REVERT JUMPDEST POP GAS CALL ISZERO DUP1 ISZERO PUSH2 0x57DB JUMPI RETURNDATASIZE PUSH1 0x0 DUP1 RETURNDATACOPY RETURNDATASIZE PUSH1 0x0 REVERT JUMPDEST POP POP POP POP PUSH1 0x40 MLOAD RETURNDATASIZE PUSH1 0x20 DUP2 LT ISZERO PUSH2 0x57F1 JUMPI PUSH1 0x0 DUP1 REVERT JUMPDEST POP PUSH1 0x0 SWAP4 POP PUSH2 0x1E33 SWAP3 POP POP POP JUMP JUMPDEST POP POP JUMPDEST POP SWAP1 SWAP3 SWAP2 POP POP JUMP JUMPDEST PUSH2 0x5812 PUSH2 0x5D59 JUMP JUMPDEST PUSH1 0x40 MLOAD DUP1 PUSH1 0x20 ADD PUSH1 0x40 MSTORE DUP1 PUSH2 0x551E DUP6 PUSH1 0x0 ADD MLOAD DUP6 PUSH2 0x54A7 JUMP JUMPDEST PUSH2 0x5833 PUSH2 0x5D59 JUMP JUMPDEST PUSH1 0x40 MLOAD DUP1 PUSH1 0x20 ADD PUSH1 0x40 MSTORE DUP1 PUSH2 0x551E PUSH2 0x5857 DUP7 PUSH1 0x0 ADD MLOAD PUSH8 0xDE0B6B3A7640000 PUSH2 0x54A7 JUMP JUMPDEST DUP6 MLOAD PUSH2 0x5B86 JUMP JUMPDEST PUSH1 0x0 PUSH8 0xDE0B6B3A7640000 PUSH2 0x5680 DUP5 DUP5 PUSH1 0x0 ADD MLOAD PUSH2 0x54A7 JUMP JUMPDEST PUSH1 0x0 PUSH2 0x5881 PUSH2 0x5D59 JUMP JUMPDEST PUSH1 0x0 PUSH2 0x588B PUSH2 0x5D59 JUMP JUMPDEST PUSH2 0x5895 DUP8 DUP8 PUSH2 0x5993 JUMP JUMPDEST SWAP1 SWAP3 POP SWAP1 POP PUSH1 0x0 DUP3 PUSH1 0x3 DUP2 GT ISZERO PUSH2 0x58A8 JUMPI INVALID JUMPDEST EQ PUSH2 0x58B7 JUMPI SWAP1 SWAP3 POP SWAP1 POP PUSH2 0x2EDF JUMP JUMPDEST PUSH2 0x58C1 DUP2 DUP7 PUSH2 0x5993 JUMP JUMPDEST SWAP4 POP SWAP4 POP POP POP SWAP4 POP SWAP4 SWAP2 POP POP JUMP JUMPDEST PUSH1 0x0 DUP1 PUSH1 0x0 PUSH2 0x58DC PUSH2 0x5D59 JUMP JUMPDEST PUSH2 0x58E6 DUP8 DUP8 PUSH2 0x591C JUMP JUMPDEST SWAP1 SWAP3 POP SWAP1 POP PUSH1 0x0 DUP3 PUSH1 0x3 DUP2 GT ISZERO PUSH2 0x58F9 JUMPI INVALID JUMPDEST EQ PUSH2 0x590A JUMPI POP SWAP2 POP PUSH1 0x0 SWAP1 POP PUSH2 0x2EDF JUMP JUMPDEST PUSH2 0x58C1 PUSH2 0x5916 DUP3 PUSH2 0x5984 JUMP JUMPDEST DUP7 PUSH2 0x53C3 JUMP JUMPDEST PUSH1 0x0 PUSH2 0x5926 PUSH2 0x5D59 JUMP JUMPDEST PUSH1 0x0 DUP1 PUSH2 0x5937 DUP7 PUSH1 0x0 ADD MLOAD DUP7 PUSH2 0x5C8D JUMP JUMPDEST SWAP1 SWAP3 POP SWAP1 POP PUSH1 0x0 DUP3 PUSH1 0x3 DUP2 GT ISZERO PUSH2 0x594A JUMPI INVALID JUMPDEST EQ PUSH2 0x5969 JUMPI POP PUSH1 0x40 DUP1 MLOAD PUSH1 0x20 DUP2 ADD SWAP1 SWAP2 MSTORE PUSH1 0x0 DUP2 MSTORE SWAP1 SWAP3 POP SWAP1 POP PUSH2 0x4D7A JUMP JUMPDEST PUSH1 0x40 DUP1 MLOAD PUSH1 0x20 DUP2 ADD SWAP1 SWAP2 MSTORE SWAP1 DUP2 MSTORE PUSH1 0x0 SWAP7 SWAP1 SWAP6 POP SWAP4 POP POP POP POP JUMP JUMPDEST MLOAD PUSH8 0xDE0B6B3A7640000 SWAP1 DIV SWAP1 JUMP JUMPDEST PUSH1 0x0 PUSH2 0x599D PUSH2 0x5D59 JUMP JUMPDEST PUSH1 0x0 DUP1 PUSH2 0x59B2 DUP7 PUSH1 0x0 ADD MLOAD DUP7 PUSH1 0x0 ADD MLOAD PUSH2 0x5C8D JUMP JUMPDEST SWAP1 SWAP3 POP SWAP1 POP PUSH1 0x0 DUP3 PUSH1 0x3 DUP2 GT ISZERO PUSH2 0x59C5 JUMPI INVALID JUMPDEST EQ PUSH2 0x59E4 JUMPI POP PUSH1 0x40 DUP1 MLOAD PUSH1 0x20 DUP2 ADD SWAP1 SWAP2 MSTORE PUSH1 0x0 DUP2 MSTORE SWAP1 SWAP3 POP SWAP1 POP PUSH2 0x4D7A JUMP JUMPDEST PUSH1 0x0 DUP1 PUSH2 0x59F9 PUSH8 0x6F05B59D3B20000 DUP5 PUSH2 0x53C3 JUMP JUMPDEST SWAP1 SWAP3 POP SWAP1 POP PUSH1 0x0 DUP3 PUSH1 0x3 DUP2 GT ISZERO PUSH2 0x5A0C JUMPI INVALID JUMPDEST EQ PUSH2 0x5A2E JUMPI POP PUSH1 0x40 DUP1 MLOAD PUSH1 0x20 DUP2 ADD SWAP1 SWAP2 MSTORE PUSH1 0x0 DUP2 MSTORE SWAP1 SWAP5 POP SWAP3 POP PUSH2 0x4D7A SWAP2 POP POP JUMP JUMPDEST PUSH1 0x0 DUP1 PUSH2 0x5A43 DUP4 PUSH8 0xDE0B6B3A7640000 PUSH2 0x5CCC JUMP JUMPDEST SWAP1 SWAP3 POP SWAP1 POP PUSH1 0x0 DUP3 PUSH1 0x3 DUP2 GT ISZERO PUSH2 0x5A56 JUMPI INVALID JUMPDEST EQ PUSH2 0x5A5D JUMPI INVALID JUMPDEST PUSH1 0x40 DUP1 MLOAD PUSH1 0x20 DUP2 ADD SWAP1 SWAP2 MSTORE SWAP1 DUP2 MSTORE PUSH1 0x0 SWAP11 SWAP1 SWAP10 POP SWAP8 POP POP POP POP POP POP POP POP JUMP JUMPDEST PUSH1 0x0 PUSH2 0x5A86 PUSH2 0x5D59 JUMP JUMPDEST PUSH1 0x0 DUP1 PUSH2 0x5A9B DUP7 PUSH8 0xDE0B6B3A7640000 PUSH2 0x5C8D JUMP JUMPDEST SWAP1 SWAP3 POP SWAP1 POP PUSH1 0x0 DUP3 PUSH1 0x3 DUP2 GT ISZERO PUSH2 0x5AAE JUMPI INVALID JUMPDEST EQ PUSH2 0x5ACD JUMPI POP PUSH1 0x40 DUP1 MLOAD PUSH1 0x20 DUP2 ADD SWAP1 SWAP2 MSTORE PUSH1 0x0 DUP2 MSTORE SWAP1 SWAP3 POP SWAP1 POP PUSH2 0x4D7A JUMP JUMPDEST PUSH1 0x0 DUP1 PUSH2 0x5ADA DUP4 DUP9 PUSH2 0x5CCC JUMP JUMPDEST SWAP1 SWAP3 POP SWAP1 POP PUSH1 0x0 DUP3 PUSH1 0x3 DUP2 GT ISZERO PUSH2 0x5AED JUMPI INVALID JUMPDEST EQ PUSH2 0x5B0F JUMPI POP PUSH1 0x40 DUP1 MLOAD PUSH1 0x20 DUP2 ADD SWAP1 SWAP2 MSTORE PUSH1 0x0 DUP2 MSTORE SWAP1 SWAP5 POP SWAP3 POP PUSH2 0x4D7A SWAP2 POP POP JUMP JUMPDEST PUSH1 0x40 DUP1 MLOAD PUSH1 0x20 DUP2 ADD SWAP1 SWAP2 MSTORE SWAP1 DUP2 MSTORE PUSH1 0x0 SWAP9 SWAP1 SWAP8 POP SWAP6 POP POP POP POP POP POP JUMP JUMPDEST PUSH1 0x0 DUP2 DUP5 DUP5 GT ISZERO PUSH2 0x5B7E JUMPI PUSH1 0x40 MLOAD PUSH3 0x461BCD PUSH1 0xE5 SHL DUP2 MSTORE PUSH1 0x20 PUSH1 0x4 DUP3 ADD DUP2 DUP2 MSTORE DUP4 MLOAD PUSH1 0x24 DUP5 ADD MSTORE DUP4 MLOAD SWAP1 SWAP3 DUP4 SWAP3 PUSH1 0x44 SWAP1 SWAP2 ADD SWAP2 SWAP1 DUP6 ADD SWAP1 DUP1 DUP4 DUP4 PUSH1 0x0 DUP4 ISZERO PUSH2 0x55A3 JUMPI DUP2 DUP2 ADD MLOAD DUP4 DUP3 ADD MSTORE PUSH1 0x20 ADD PUSH2 0x558B JUMP JUMPDEST POP POP POP SWAP1 SUB SWAP1 JUMP JUMPDEST PUSH1 0x0 PUSH2 0x1E33 DUP4 DUP4 PUSH1 0x40 MLOAD DUP1 PUSH1 0x40 ADD PUSH1 0x40 MSTORE DUP1 PUSH1 0xE DUP2 MSTORE PUSH1 0x20 ADD PUSH14 0x646976696465206279207A65726F PUSH1 0x90 SHL DUP2 MSTORE POP PUSH2 0x5CF7 JUMP JUMPDEST PUSH1 0x0 DUP4 ISZERO DUP1 PUSH2 0x5BC6 JUMPI POP DUP3 ISZERO JUMPDEST ISZERO PUSH2 0x5BD3 JUMPI POP PUSH1 0x0 PUSH2 0x1E33 JUMP JUMPDEST DUP4 DUP4 MUL DUP4 DUP6 DUP3 DUP2 PUSH2 0x5BE0 JUMPI INVALID JUMPDEST DIV EQ DUP4 SWAP1 PUSH2 0x5C2F JUMPI PUSH1 0x40 MLOAD PUSH3 0x461BCD PUSH1 0xE5 SHL DUP2 MSTORE PUSH1 0x20 PUSH1 0x4 DUP3 ADD DUP2 DUP2 MSTORE DUP4 MLOAD PUSH1 0x24 DUP5 ADD MSTORE DUP4 MLOAD SWAP1 SWAP3 DUP4 SWAP3 PUSH1 0x44 SWAP1 SWAP2 ADD SWAP2 SWAP1 DUP6 ADD SWAP1 DUP1 DUP4 DUP4 PUSH1 0x0 DUP4 ISZERO PUSH2 0x55A3 JUMPI DUP2 DUP2 ADD MLOAD DUP4 DUP3 ADD MSTORE PUSH1 0x20 ADD PUSH2 0x558B JUMP JUMPDEST POP SWAP5 SWAP4 POP POP POP POP JUMP JUMPDEST PUSH1 0x0 DUP4 DUP4 ADD DUP3 DUP6 DUP3 LT ISZERO PUSH2 0x5C2F JUMPI PUSH1 0x40 MLOAD PUSH3 0x461BCD PUSH1 0xE5 SHL DUP2 MSTORE PUSH1 0x20 PUSH1 0x4 DUP3 ADD DUP2 DUP2 MSTORE DUP4 MLOAD PUSH1 0x24 DUP5 ADD MSTORE DUP4 MLOAD SWAP1 SWAP3 DUP4 SWAP3 PUSH1 0x44 SWAP1 SWAP2 ADD SWAP2 SWAP1 DUP6 ADD SWAP1 DUP1 DUP4 DUP4 PUSH1 0x0 DUP4 ISZERO PUSH2 0x55A3 JUMPI DUP2 DUP2 ADD MLOAD DUP4 DUP3 ADD MSTORE PUSH1 0x20 ADD PUSH2 0x558B JUMP JUMPDEST PUSH1 0x0 DUP1 DUP4 PUSH2 0x5CA0 JUMPI POP PUSH1 0x0 SWAP1 POP DUP1 PUSH2 0x4D7A JUMP JUMPDEST DUP4 DUP4 MUL DUP4 DUP6 DUP3 DUP2 PUSH2 0x5CAD JUMPI INVALID JUMPDEST DIV EQ PUSH2 0x5CC1 JUMPI POP PUSH1 0x2 SWAP2 POP PUSH1 0x0 SWAP1 POP PUSH2 0x4D7A JUMP JUMPDEST PUSH1 0x0 SWAP3 POP SWAP1 POP PUSH2 0x4D7A JUMP JUMPDEST PUSH1 0x0 DUP1 DUP3 PUSH2 0x5CE0 JUMPI POP PUSH1 0x1 SWAP1 POP PUSH1 0x0 PUSH2 0x4D7A JUMP JUMPDEST PUSH1 0x0 DUP4 DUP6 DUP2 PUSH2 0x5CEB JUMPI INVALID JUMPDEST DIV SWAP2 POP SWAP2 POP SWAP3 POP SWAP3 SWAP1 POP JUMP JUMPDEST PUSH1 0x0 DUP2 DUP4 PUSH2 0x5D46 JUMPI PUSH1 0x40 MLOAD PUSH3 0x461BCD PUSH1 0xE5 SHL DUP2 MSTORE PUSH1 0x20 PUSH1 0x4 DUP3 ADD DUP2 DUP2 MSTORE DUP4 MLOAD PUSH1 0x24 DUP5 ADD MSTORE DUP4 MLOAD SWAP1 SWAP3 DUP4 SWAP3 PUSH1 0x44 SWAP1 SWAP2 ADD SWAP2 SWAP1 DUP6 ADD SWAP1 DUP1 DUP4 DUP4 PUSH1 0x0 DUP4 ISZERO PUSH2 0x55A3 JUMPI DUP2 DUP2 ADD MLOAD DUP4 DUP3 ADD MSTORE PUSH1 0x20 ADD PUSH2 0x558B JUMP JUMPDEST POP DUP3 DUP5 DUP2 PUSH2 0x5D50 JUMPI INVALID JUMPDEST DIV SWAP5 SWAP4 POP POP POP POP JUMP JUMPDEST PUSH1 0x40 MLOAD DUP1 PUSH1 0x20 ADD PUSH1 0x40 MSTORE DUP1 PUSH1 0x0 DUP2 MSTORE POP SWAP1 JUMP JUMPDEST DUP2 SLOAD DUP2 DUP4 SSTORE DUP2 DUP2 GT ISZERO PUSH2 0x149C JUMPI PUSH1 0x0 DUP4 DUP2 MSTORE PUSH1 0x20 SWAP1 KECCAK256 PUSH2 0x149C SWAP2 DUP2 ADD SWAP1 DUP4 ADD PUSH2 0x5DFA JUMP JUMPDEST PUSH1 0x40 MLOAD DUP1 PUSH2 0x140 ADD PUSH1 0x40 MSTORE DUP1 PUSH1 0x0 DUP2 MSTORE PUSH1 0x20 ADD PUSH1 0x0 DUP2 MSTORE PUSH1 0x20 ADD PUSH1 0x0 DUP2 MSTORE PUSH1 0x20 ADD PUSH1 0x0 DUP2 MSTORE PUSH1 0x20 ADD PUSH1 0x0 DUP2 MSTORE PUSH1 0x20 ADD PUSH1 0x0 DUP2 MSTORE PUSH1 0x20 ADD PUSH2 0x5DCE PUSH2 0x5D59 JUMP JUMPDEST DUP2 MSTORE PUSH1 0x20 ADD PUSH2 0x5DDB PUSH2 0x5D59 JUMP JUMPDEST DUP2 MSTORE PUSH1 0x20 ADD PUSH2 0x5DE8 PUSH2 0x5D59 JUMP JUMPDEST DUP2 MSTORE PUSH1 0x20 ADD PUSH2 0x5DF5 PUSH2 0x5D59 JUMP JUMPDEST SWAP1 MSTORE SWAP1 JUMP JUMPDEST PUSH2 0x1CEA SWAP2 SWAP1 JUMPDEST DUP1 DUP3 GT ISZERO PUSH2 0x5E14 JUMPI PUSH1 0x0 DUP2 SSTORE PUSH1 0x1 ADD PUSH2 0x5E00 JUMP JUMPDEST POP SWAP1 JUMP INVALID PUSH4 0x616E6E6F PUSH21 0x2070617573652061206D61726B6574207468617420 PUSH10 0x73206E6F74206C697374 PUSH6 0x646F6E6C7920 PUSH6 0x787465726E61 PUSH13 0x6C79206F776E6564206163636F PUSH22 0x6E7473206D6179207265667265736820737065656473 PUSH16 0x6E6C7920706175736520677561726469 PUSH2 0x6E20 PUSH2 0x6E64 KECCAK256 PUSH2 0x646D PUSH10 0x6E2063616E2070617573 PUSH6 0x6F6E6C792061 PUSH5 0x6D696E2063 PUSH2 0x6E20 PUSH20 0x657420626F72726F772063617020677561726469 PUSH2 0x6E6F PUSH15 0x6C792061646D696E206F7220626F72 PUSH19 0x6F772063617020677561726469616E2063616E KECCAK256 PUSH20 0x657420626F72726F772063617073657869744D61 PUSH19 0x6B65743A206765744163636F756E74536E6170 PUSH20 0x686F74206661696C6564626C6F636B206E756D62 PUSH6 0x722065786365 PUSH6 0x647320333220 PUSH3 0x697473 STOP STOP STOP STOP PUSH16 0x6E6C7920756E6974726F6C6C65722061 PUSH5 0x6D696E2063 PUSH2 0x6E20 PUSH4 0x68616E67 PUSH6 0x20627261696E PUSH20 0xA265627A7A72315820DBE1C00699B2E8832F0D72 0x2C GASLIMIT SWAP15 TIMESTAMP SIGNEXTEND DUP14 SIGNEXTEND 0x2B 0xC2 0xDE ADDRESS CALLCODE 0x2F TIMESTAMP 0xC7 0x4F 0x4D 0xDF 0xE1 PUSH10 0x7C64736F6C6343000511 STOP ORIGIN "
    }
  },
  "humanReadableAbi": [
    "constructor()",
    "event ActionPaused(string action, bool pauseState)",
    "event ActionPaused(address cToken, string action, bool pauseState)",
    "event CompSpeedUpdated(address indexed cToken, uint256 newSpeed)",
    "event DistributedBorrowerComp(address indexed cToken, address indexed borrower, uint256 compDelta, uint256 compBorrowIndex)",
    "event DistributedSupplierComp(address indexed cToken, address indexed supplier, uint256 compDelta, uint256 compSupplyIndex)",
    "event Failure(uint256 error, uint256 info, uint256 detail)",
    "event MarketComped(address cToken, bool isComped)",
    "event MarketEntered(address cToken, address account)",
    "event MarketExited(address cToken, address account)",
    "event MarketListed(address cToken)",
    "event NewBorrowCap(address indexed cToken, uint256 newBorrowCap)",
    "event NewBorrowCapGuardian(address oldBorrowCapGuardian, address newBorrowCapGuardian)",
    "event NewCloseFactor(uint256 oldCloseFactorMantissa, uint256 newCloseFactorMantissa)",
    "event NewCollateralFactor(address cToken, uint256 oldCollateralFactorMantissa, uint256 newCollateralFactorMantissa)",
    "event NewCompRate(uint256 oldCompRate, uint256 newCompRate)",
    "event NewLiquidationIncentive(uint256 oldLiquidationIncentiveMantissa, uint256 newLiquidationIncentiveMantissa)",
    "event NewMaxAssets(uint256 oldMaxAssets, uint256 newMaxAssets)",
    "event NewPauseGuardian(address oldPauseGuardian, address newPauseGuardian)",
    "event NewPriceOracle(address oldPriceOracle, address newPriceOracle)",
    "function _addCompMarkets(address[] cTokens)",
    "function _become(address unitroller)",
    "function _borrowGuardianPaused() view returns(bool)",
    "function _dropCompMarket(address cToken)",
    "function _mintGuardianPaused() view returns(bool)",
    "function _setBorrowCapGuardian(address newBorrowCapGuardian)",
    "function _setBorrowPaused(address cToken, bool state) returns(bool)",
    "function _setCloseFactor(uint256 newCloseFactorMantissa) returns(uint256)",
    "function _setCollateralFactor(address cToken, uint256 newCollateralFactorMantissa) returns(uint256)",
    "function _setCompRate(uint256 compRate_)",
    "function _setLiquidationIncentive(uint256 newLiquidationIncentiveMantissa) returns(uint256)",
    "function _setMarketBorrowCaps(address[] cTokens, uint256[] newBorrowCaps)",
    "function _setMaxAssets(uint256 newMaxAssets) returns(uint256)",
    "function _setMintPaused(address cToken, bool state) returns(bool)",
    "function _setPauseGuardian(address newPauseGuardian) returns(uint256)",
    "function _setPriceOracle(address newOracle) returns(uint256)",
    "function _setSeizePaused(bool state) returns(bool)",
    "function _setTransferPaused(bool state) returns(bool)",
    "function _supportMarket(address cToken) returns(uint256)",
    "function accountAssets(address, uint256) view returns(address)",
    "function admin() view returns(address)",
    "function allMarkets(uint256) view returns(address)",
    "function borrowAllowed(address cToken, address borrower, uint256 borrowAmount) returns(uint256)",
    "function borrowCapGuardian() view returns(address)",
    "function borrowCaps(address) view returns(uint256)",
    "function borrowGuardianPaused(address) view returns(bool)",
    "function borrowVerify(address cToken, address borrower, uint256 borrowAmount)",
    "function checkMembership(address account, address cToken) view returns(bool)",
    "function claimComp(address holder, address[] cTokens)",
    "function claimComp(address[] holders, address[] cTokens, bool borrowers, bool suppliers)",
    "function claimComp(address holder)",
    "function closeFactorMantissa() view returns(uint256)",
    "function compAccrued(address) view returns(uint256)",
    "function compBorrowState(address) view returns(uint224 index, uint32 block)",
    "function compBorrowerIndex(address, address) view returns(uint256)",
    "function compClaimThreshold() view returns(uint256)",
    "function compInitialIndex() view returns(uint224)",
    "function compRate() view returns(uint256)",
    "function compSpeeds(address) view returns(uint256)",
    "function compSupplierIndex(address, address) view returns(uint256)",
    "function compSupplyState(address) view returns(uint224 index, uint32 block)",
    "function comptrollerImplementation() view returns(address)",
    "function enterMarkets(address[] cTokens) returns(uint256[])",
    "function exitMarket(address cTokenAddress) returns(uint256)",
    "function getAccountLiquidity(address account) view returns(uint256, uint256, uint256)",
    "function getAllMarkets() view returns(address[])",
    "function getAssetsIn(address account) view returns(address[])",
    "function getBlockNumber() view returns(uint256)",
    "function getCompAddress() view returns(address)",
    "function getHypotheticalAccountLiquidity(address account, address cTokenModify, uint256 redeemTokens, uint256 borrowAmount) view returns(uint256, uint256, uint256)",
    "function isComptroller() view returns(bool)",
    "function liquidateBorrowAllowed(address cTokenBorrowed, address cTokenCollateral, address liquidator, address borrower, uint256 repayAmount) returns(uint256)",
    "function liquidateBorrowVerify(address cTokenBorrowed, address cTokenCollateral, address liquidator, address borrower, uint256 actualRepayAmount, uint256 seizeTokens)",
    "function liquidateCalculateSeizeTokens(address cTokenBorrowed, address cTokenCollateral, uint256 actualRepayAmount) view returns(uint256, uint256)",
    "function liquidationIncentiveMantissa() view returns(uint256)",
    "function markets(address) view returns(bool isListed, uint256 collateralFactorMantissa, bool isComped)",
    "function maxAssets() view returns(uint256)",
    "function mintAllowed(address cToken, address minter, uint256 mintAmount) returns(uint256)",
    "function mintGuardianPaused(address) view returns(bool)",
    "function mintVerify(address cToken, address minter, uint256 actualMintAmount, uint256 mintTokens)",
    "function oracle() view returns(address)",
    "function pauseGuardian() view returns(address)",
    "function pendingAdmin() view returns(address)",
    "function pendingComptrollerImplementation() view returns(address)",
    "function redeemAllowed(address cToken, address redeemer, uint256 redeemTokens) returns(uint256)",
    "function redeemVerify(address cToken, address redeemer, uint256 redeemAmount, uint256 redeemTokens)",
    "function refreshCompSpeeds()",
    "function repayBorrowAllowed(address cToken, address payer, address borrower, uint256 repayAmount) returns(uint256)",
    "function repayBorrowVerify(address cToken, address payer, address borrower, uint256 actualRepayAmount, uint256 borrowerIndex)",
    "function seizeAllowed(address cTokenCollateral, address cTokenBorrowed, address liquidator, address borrower, uint256 seizeTokens) returns(uint256)",
    "function seizeGuardianPaused() view returns(bool)",
    "function seizeVerify(address cTokenCollateral, address cTokenBorrowed, address liquidator, address borrower, uint256 seizeTokens)",
    "function transferAllowed(address cToken, address src, address dst, uint256 transferTokens) returns(uint256)",
    "function transferGuardianPaused() view returns(bool)",
    "function transferVerify(address cToken, address src, address dst, uint256 transferTokens)"
  ]
}