{
  "abi": [
    {
      "inputs": [
        {
          "internalType": "uint256",
          "name": "jumpMultiplierPerYear",
          "type": "uint256"
        },
        {
          "internalType": "uint256",
          "name": "kink_",
          "type": "uint256"
        },
        {
          "internalType": "address",
          "name": "pot_",
          "type": "address"
        },
        {
          "internalType": "address",
          "name": "jug_",
          "type": "address"
        },
        {
          "internalType": "address",
          "name": "owner_",
          "type": "address"
        }
      ],
      "payable": false,
      "stateMutability": "nonpayable",
      "type": "constructor"
    },
    {
      "anonymous": false,
      "inputs": [
        {
          "indexed": false,
          "internalType": "uint256",
          "name": "baseRatePerBlock",
          "type": "uint256"
        },
        {
          "indexed": false,
          "internalType": "uint256",
          "name": "multiplierPerBlock",
          "type": "uint256"
        },
        {
          "indexed": false,
          "internalType": "uint256",
          "name": "jumpMultiplierPerBlock",
          "type": "uint256"
        },
        {
          "indexed": false,
          "internalType": "uint256",
          "name": "kink",
          "type": "uint256"
        }
      ],
      "name": "NewInterestParams",
      "type": "event"
    },
    {
      "constant": true,
      "inputs": [],
      "name": "assumedOneMinusReserveFactorMantissa",
      "outputs": [
        {
          "internalType": "uint256",
          "name": "",
          "type": "uint256"
        }
      ],
      "payable": false,
      "stateMutability": "view",
      "type": "function"
    },
    {
      "constant": true,
      "inputs": [],
      "name": "baseRatePerBlock",
      "outputs": [
        {
          "internalType": "uint256",
          "name": "",
          "type": "uint256"
        }
      ],
      "payable": false,
      "stateMutability": "view",
      "type": "function"
    },
    {
      "constant": true,
      "inputs": [],
      "name": "blocksPerYear",
      "outputs": [
        {
          "internalType": "uint256",
          "name": "",
          "type": "uint256"
        }
      ],
      "payable": false,
      "stateMutability": "view",
      "type": "function"
    },
    {
      "constant": true,
      "inputs": [],
      "name": "dsrPerBlock",
      "outputs": [
        {
          "internalType": "uint256",
          "name": "",
          "type": "uint256"
        }
      ],
      "payable": false,
      "stateMutability": "view",
      "type": "function"
    },
    {
      "constant": true,
      "inputs": [],
      "name": "gapPerBlock",
      "outputs": [
        {
          "internalType": "uint256",
          "name": "",
          "type": "uint256"
        }
      ],
      "payable": false,
      "stateMutability": "view",
      "type": "function"
    },
    {
      "constant": true,
      "inputs": [
        {
          "internalType": "uint256",
          "name": "cash",
          "type": "uint256"
        },
        {
          "internalType": "uint256",
          "name": "borrows",
          "type": "uint256"
        },
        {
          "internalType": "uint256",
          "name": "reserves",
          "type": "uint256"
        }
      ],
      "name": "getBorrowRate",
      "outputs": [
        {
          "internalType": "uint256",
          "name": "",
          "type": "uint256"
        }
      ],
      "payable": false,
      "stateMutability": "view",
      "type": "function"
    },
    {
      "constant": true,
      "inputs": [
        {
          "internalType": "uint256",
          "name": "cash",
          "type": "uint256"
        },
        {
          "internalType": "uint256",
          "name": "borrows",
          "type": "uint256"
        },
        {
          "internalType": "uint256",
          "name": "reserves",
          "type": "uint256"
        },
        {
          "internalType": "uint256",
          "name": "reserveFactorMantissa",
          "type": "uint256"
        }
      ],
      "name": "getSupplyRate",
      "outputs": [
        {
          "internalType": "uint256",
          "name": "",
          "type": "uint256"
        }
      ],
      "payable": false,
      "stateMutability": "view",
      "type": "function"
    },
    {
      "constant": true,
      "inputs": [],
      "name": "isInterestRateModel",
      "outputs": [
        {
          "internalType": "bool",
          "name": "",
          "type": "bool"
        }
      ],
      "payable": false,
      "stateMutability": "view",
      "type": "function"
    },
    {
      "constant": true,
      "inputs": [],
      "name": "jumpMultiplierPerBlock",
      "outputs": [
        {
          "internalType": "uint256",
          "name": "",
          "type": "uint256"
        }
      ],
      "payable": false,
      "stateMutability": "view",
      "type": "function"
    },
    {
      "constant": true,
      "inputs": [],
      "name": "kink",
      "outputs": [
        {
          "internalType": "uint256",
          "name": "",
          "type": "uint256"
        }
      ],
      "payable": false,
      "stateMutability": "view",
      "type": "function"
    },
    {
      "constant": true,
      "inputs": [],
      "name": "multiplierPerBlock",
      "outputs": [
        {
          "internalType": "uint256",
          "name": "",
          "type": "uint256"
        }
      ],
      "payable": false,
      "stateMutability": "view",
      "type": "function"
    },
    {
      "constant": true,
      "inputs": [],
      "name": "owner",
      "outputs": [
        {
          "internalType": "address",
          "name": "",
          "type": "address"
        }
      ],
      "payable": false,
      "stateMutability": "view",
      "type": "function"
    },
    {
      "constant": false,
      "inputs": [],
      "name": "poke",
      "outputs": [],
      "payable": false,
      "stateMutability": "nonpayable",
      "type": "function"
    },
    {
      "constant": false,
      "inputs": [
        {
          "internalType": "uint256",
          "name": "baseRatePerYear",
          "type": "uint256"
        },
        {
          "internalType": "uint256",
          "name": "gapPerYear",
          "type": "uint256"
        },
        {
          "internalType": "uint256",
          "name": "jumpMultiplierPerYear",
          "type": "uint256"
        },
        {
          "internalType": "uint256",
          "name": "kink_",
          "type": "uint256"
        }
      ],
      "name": "updateJumpRateModel",
      "outputs": [],
      "payable": false,
      "stateMutability": "nonpayable",
      "type": "function"
    },
    {
      "constant": true,
      "inputs": [
        {
          "internalType": "uint256",
          "name": "cash",
          "type": "uint256"
        },
        {
          "internalType": "uint256",
          "name": "borrows",
          "type": "uint256"
        },
        {
          "internalType": "uint256",
          "name": "reserves",
          "type": "uint256"
        }
      ],
      "name": "utilizationRate",
      "outputs": [
        {
          "internalType": "uint256",
          "name": "",
          "type": "uint256"
        }
      ],
      "payable": false,
      "stateMutability": "pure",
      "type": "function"
    }
  ],
  "evm": {
    "bytecode": {
      "linkReferences": {},
      "object": "60806040523480156200001157600080fd5b50604051620012ce380380620012ce833981810160405260a08110156200003757600080fd5b508051602082015160408301516060840151608090940151600080546001600160a01b0319166001600160a01b038316178155939492939192918086868483808484846200008884808585620000f8565b5050505050505050505062201480668e1bc9bf04000081620000a657fe5b04600555600680546001600160a01b038086166001600160a01b0319928316179092556007805492851692909116919091179055620000ed6001600160e01b03620001ea16565b505050505062000777565b6200011562201480856200046660201b620008641790919060201c565b6002556200016d620001376220148083620004b9602090811b6200080b17901c565b62000159670de0b6b3a764000086620004b960201b6200080b1790919060201c565b6200046660201b620008641790919060201c565b6001556200018b826220148062000466602090811b6200086417901c565b60038190556004829055600254600154604080519283526020830191909152818101929092526060810183905290517f6960ab234c7ef4b0c9197100f5393cfcde7c453ac910a27bd2000aa1dd4c068d9181900360800190a150505050565b60075460408051636cb1c69b60e11b8152644554482d4160d81b600482015281516000936001600160a01b03169263d9638d369260248082019391829003018186803b1580156200023a57600080fd5b505afa1580156200024f573d6000803e3d6000fd5b505050506040513d60408110156200026657600080fd5b505160075460408051635001f3b560e01b815290519293506000926200035192600f926200033d926b033b2e3c9fd0803ce8000000926200015992670de0b6b3a7640000928692869262000329926001600160a01b0390921691635001f3b591600480820192602092909190829003018186803b158015620002e757600080fd5b505afa158015620002fc573d6000803e3d6000fd5b505050506040513d60208110156200031357600080fd5b50518b9062000517602090811b6200076617901c565b6200057260201b620007c91790919060201c565b620004b960201b6200080b1790919060201c565b905062000380670d2f13f7789f000062000159670de0b6b3a76400006200033d6001600160e01b03620005bc16565b6002819055811115620003e157620003d860045462000159670de0b6b3a76400006200033d600554620003c4600254886200057260201b620007c91790919060201c565b6200051760201b620007661790919060201c565b60015562000410565b6200040c60045462000159670de0b6b3a7640000600554620004b960201b6200080b1790919060201c565b6001555b600254600154600354600454604080519485526020850193909352838301919091526060830152517f6960ab234c7ef4b0c9197100f5393cfcde7c453ac910a27bd2000aa1dd4c068d9181900360800190a15050565b6000620004b083836040518060400160405280601a81526020017f536166654d6174683a206469766973696f6e206279207a65726f0000000000008152506200067360201b60201c565b90505b92915050565b600082620004ca57506000620004b3565b82820282848281620004d857fe5b0414620004b05760405162461bcd60e51b8152600401808060200182810382526021815260200180620012ad6021913960400191505060405180910390fd5b600082820183811015620004b0576040805162461bcd60e51b815260206004820152601b60248201527f536166654d6174683a206164646974696f6e206f766572666c6f770000000000604482015290519081900360640190fd5b6000620004b083836040518060400160405280601f81526020017f536166654d6174683a207375627472616374696f6e20756e646572666c6f77008152506200071a60201b60201c565b60006200066e600f6200033d633b9aca00620001596b033b2e3c9fd0803ce8000000600660009054906101000a90046001600160a01b03166001600160a01b031663487bf0826040518163ffffffff1660e01b815260040160206040518083038186803b1580156200062d57600080fd5b505afa15801562000642573d6000803e3d6000fd5b505050506040513d60208110156200065957600080fd5b50519062000572602090811b620007c917901c565b905090565b60008183620007035760405162461bcd60e51b81526004018080602001828103825283818151815260200191508051906020019080838360005b83811015620006c7578181015183820152602001620006ad565b50505050905090810190601f168015620006f55780820380516001836020036101000a031916815260200191505b509250505060405180910390fd5b5060008385816200071057fe5b0495945050505050565b600081848411156200076f5760405162461bcd60e51b8152602060048201818152835160248401528351909283926044909101919085019080838360008315620006c7578181015183820152602001620006ad565b505050900390565b610b2680620007876000396000f3fe608060405234801561001057600080fd5b50600436106100f55760003560e01c80638da5cb5b11610097578063b9f9850a11610066578063b9f9850a14610226578063f14039de1461022e578063f52d21f314610236578063fd2da3391461023e576100f5565b80638da5cb5b146101c357806396456c5c146101e7578063a385fb96146101ef578063b8168816146101f7576100f5565b80632191f92a116100d35780632191f92a1461016e5780636dac7cd51461018a5780636e71e2d8146101925780638726bb89146101bb576100f5565b806315f24053146100fa57806318178358146101355780632037f3e71461013f575b600080fd5b6101236004803603606081101561011057600080fd5b5080359060208101359060400135610246565b60408051918252519081900360200190f35b61013d61025d565b005b61013d6004803603608081101561015557600080fd5b508035906020810135906040810135906060013561049b565b610176610508565b604080519115158252519081900360200190f35b61012361050d565b610123600480360360608110156101a857600080fd5b5080359060208101359060400135610519565b610123610557565b6101cb61055d565b604080516001600160a01b039092168252519081900360200190f35b61012361056c565b610123610616565b6101236004803603608081101561020d57600080fd5b508035906020810135906040810135906060013561061d565b610123610691565b610123610697565b61012361069d565b6101236106a3565b60006102538484846106a9565b90505b9392505050565b60075460408051636cb1c69b60e11b8152644554482d4160d81b600482015281516000936001600160a01b03169263d9638d369260248082019391829003018186803b1580156102ac57600080fd5b505afa1580156102c0573d6000803e3d6000fd5b505050506040513d60408110156102d657600080fd5b505160075460408051635001f3b560e01b815290519293506000926103af92600f92610397926b033b2e3c9fd0803ce8000000926103a392670de0b6b3a7640000928692869261038b926001600160a01b0390921691635001f3b591600480820192602092909190829003018186803b15801561035257600080fd5b505afa158015610366573d6000803e3d6000fd5b505050506040513d602081101561037c57600080fd5b50518b9063ffffffff61076616565b9063ffffffff6107c916565b9063ffffffff61080b16565b9063ffffffff61086416565b90506103d1670d2f13f7789f00006103a3670de0b6b3a764000061039761056c565b600281905581111561041e576104166004546103a3670de0b6b3a764000061039760055461040a600254886107c990919063ffffffff16565b9063ffffffff61076616565b600155610445565b6104416004546103a3670de0b6b3a764000060055461080b90919063ffffffff16565b6001555b600254600154600354600454604080519485526020850193909352838301919091526060830152517f6960ab234c7ef4b0c9197100f5393cfcde7c453ac910a27bd2000aa1dd4c068d9181900360800190a15050565b6000546001600160a01b031633146104e45760405162461bcd60e51b8152600401808060200182810382526026815260200180610acc6026913960400191505060405180910390fd5b6220148083046005556104fa60008084846108a6565b61050261025d565b50505050565b600181565b670d2f13f7789f000081565b60008261052857506000610256565b61025361053f8361038b878763ffffffff61076616565b6103a385670de0b6b3a764000063ffffffff61080b16565b60015481565b6000546001600160a01b031681565b6000610611600f610397633b9aca006103a36b033b2e3c9fd0803ce8000000600660009054906101000a90046001600160a01b03166001600160a01b031663487bf0826040518163ffffffff1660e01b815260040160206040518083038186803b1580156105d957600080fd5b505afa1580156105ed573d6000803e3d6000fd5b505050506040513d602081101561060357600080fd5b50519063ffffffff6107c916565b905090565b6220148081565b60008061062c86868686610947565b905060006106448561038b898963ffffffff61076616565b90508061065357509050610689565b6000610671826103a361066461056c565b8b9063ffffffff61080b16565b9050610683818463ffffffff61076616565b93505050505b949350505050565b60035481565b60025481565b60055481565b60045481565b6000806106b7858585610519565b905060045481116106f1576106e960025461040a670de0b6b3a76400006103a36001548661080b90919063ffffffff16565b915050610256565b600061071c60025461040a670de0b6b3a76400006103a360015460045461080b90919063ffffffff16565b90506000610735600454846107c990919063ffffffff16565b905061075c8261040a670de0b6b3a76400006103a36003548661080b90919063ffffffff16565b9350505050610256565b6000828201838110156107c0576040805162461bcd60e51b815260206004820152601b60248201527f536166654d6174683a206164646974696f6e206f766572666c6f770000000000604482015290519081900360640190fd5b90505b92915050565b60006107c083836040518060400160405280601f81526020017f536166654d6174683a207375627472616374696f6e20756e646572666c6f77008152506109ae565b60008261081a575060006107c3565b8282028284828161082757fe5b04146107c05760405162461bcd60e51b8152600401808060200182810382526021815260200180610aab6021913960400191505060405180910390fd5b60006107c083836040518060400160405280601a81526020017f536166654d6174683a206469766973696f6e206279207a65726f000000000000815250610a45565b6108b9846220148063ffffffff61086416565b6002556108d261053f622014808363ffffffff61080b16565b6001556108e8826220148063ffffffff61086416565b60038190556004829055600254600154604080519283526020830191909152818101929092526060810183905290517f6960ab234c7ef4b0c9197100f5393cfcde7c453ac910a27bd2000aa1dd4c068d9181900360800190a150505050565b600080610962670de0b6b3a76400008463ffffffff6107c916565b905060006109718787876106a9565b90506000610991670de0b6b3a76400006103a3848663ffffffff61080b16565b9050610683670de0b6b3a76400006103a3836103978c8c8c610519565b60008184841115610a3d5760405162461bcd60e51b81526004018080602001828103825283818151815260200191508051906020019080838360005b83811015610a025781810151838201526020016109ea565b50505050905090810190601f168015610a2f5780820380516001836020036101000a031916815260200191505b509250505060405180910390fd5b505050900390565b60008183610a945760405162461bcd60e51b8152602060048201818152835160248401528351909283926044909101919085019080838360008315610a025781810151838201526020016109ea565b506000838581610aa057fe5b049594505050505056fe536166654d6174683a206d756c7469706c69636174696f6e206f766572666c6f776f6e6c7920746865206f776e6572206d61792063616c6c20746869732066756e6374696f6e2ea265627a7a72315820cf86c0d9e409963addf77a04ffd29537fd9fd6f5fbb92ffcd383afc972333ab164736f6c63430005110032536166654d6174683a206d756c7469706c69636174696f6e206f766572666c6f77",
      "opcodes": "PUSH1 0x80 PUSH1 0x40 MSTORE CALLVALUE DUP1 ISZERO PUSH3 0x11 JUMPI PUSH1 0x0 DUP1 REVERT JUMPDEST POP PUSH1 0x40 MLOAD PUSH3 0x12CE CODESIZE SUB DUP1 PUSH3 0x12CE DUP4 CODECOPY DUP2 DUP2 ADD PUSH1 0x40 MSTORE PUSH1 0xA0 DUP2 LT ISZERO PUSH3 0x37 JUMPI PUSH1 0x0 DUP1 REVERT JUMPDEST POP DUP1 MLOAD PUSH1 0x20 DUP3 ADD MLOAD PUSH1 0x40 DUP4 ADD MLOAD PUSH1 0x60 DUP5 ADD MLOAD PUSH1 0x80 SWAP1 SWAP5 ADD MLOAD PUSH1 0x0 DUP1 SLOAD PUSH1 0x1 PUSH1 0x1 PUSH1 0xA0 SHL SUB NOT AND PUSH1 0x1 PUSH1 0x1 PUSH1 0xA0 SHL SUB DUP4 AND OR DUP2 SSTORE SWAP4 SWAP5 SWAP3 SWAP4 SWAP2 SWAP3 SWAP2 DUP1 DUP7 DUP7 DUP5 DUP4 DUP1 DUP5 DUP5 DUP5 PUSH3 0x88 DUP5 DUP1 DUP6 DUP6 PUSH3 0xF8 JUMP JUMPDEST POP POP POP POP POP POP POP POP POP POP PUSH3 0x201480 PUSH7 0x8E1BC9BF040000 DUP2 PUSH3 0xA6 JUMPI INVALID JUMPDEST DIV PUSH1 0x5 SSTORE PUSH1 0x6 DUP1 SLOAD PUSH1 0x1 PUSH1 0x1 PUSH1 0xA0 SHL SUB DUP1 DUP7 AND PUSH1 0x1 PUSH1 0x1 PUSH1 0xA0 SHL SUB NOT SWAP3 DUP4 AND OR SWAP1 SWAP3 SSTORE PUSH1 0x7 DUP1 SLOAD SWAP3 DUP6 AND SWAP3 SWAP1 SWAP2 AND SWAP2 SWAP1 SWAP2 OR SWAP1 SSTORE PUSH3 0xED PUSH1 0x1 PUSH1 0x1 PUSH1 0xE0 SHL SUB PUSH3 0x1EA AND JUMP JUMPDEST POP POP POP POP POP PUSH3 0x777 JUMP JUMPDEST PUSH3 0x115 PUSH3 0x201480 DUP6 PUSH3 0x466 PUSH1 0x20 SHL PUSH3 0x864 OR SWAP1 SWAP2 SWAP1 PUSH1 0x20 SHR JUMP JUMPDEST PUSH1 0x2 SSTORE PUSH3 0x16D PUSH3 0x137 PUSH3 0x201480 DUP4 PUSH3 0x4B9 PUSH1 0x20 SWAP1 DUP2 SHL PUSH3 0x80B OR SWAP1 SHR JUMP JUMPDEST PUSH3 0x159 PUSH8 0xDE0B6B3A7640000 DUP7 PUSH3 0x4B9 PUSH1 0x20 SHL PUSH3 0x80B OR SWAP1 SWAP2 SWAP1 PUSH1 0x20 SHR JUMP JUMPDEST PUSH3 0x466 PUSH1 0x20 SHL PUSH3 0x864 OR SWAP1 SWAP2 SWAP1 PUSH1 0x20 SHR JUMP JUMPDEST PUSH1 0x1 SSTORE PUSH3 0x18B DUP3 PUSH3 0x201480 PUSH3 0x466 PUSH1 0x20 SWAP1 DUP2 SHL PUSH3 0x864 OR SWAP1 SHR JUMP JUMPDEST PUSH1 0x3 DUP2 SWAP1 SSTORE PUSH1 0x4 DUP3 SWAP1 SSTORE PUSH1 0x2 SLOAD PUSH1 0x1 SLOAD PUSH1 0x40 DUP1 MLOAD SWAP3 DUP4 MSTORE PUSH1 0x20 DUP4 ADD SWAP2 SWAP1 SWAP2 MSTORE DUP2 DUP2 ADD SWAP3 SWAP1 SWAP3 MSTORE PUSH1 0x60 DUP2 ADD DUP4 SWAP1 MSTORE SWAP1 MLOAD PUSH32 0x6960AB234C7EF4B0C9197100F5393CFCDE7C453AC910A27BD2000AA1DD4C068D SWAP2 DUP2 SWAP1 SUB PUSH1 0x80 ADD SWAP1 LOG1 POP POP POP POP JUMP JUMPDEST PUSH1 0x7 SLOAD PUSH1 0x40 DUP1 MLOAD PUSH4 0x6CB1C69B PUSH1 0xE1 SHL DUP2 MSTORE PUSH5 0x4554482D41 PUSH1 0xD8 SHL PUSH1 0x4 DUP3 ADD MSTORE DUP2 MLOAD PUSH1 0x0 SWAP4 PUSH1 0x1 PUSH1 0x1 PUSH1 0xA0 SHL SUB AND SWAP3 PUSH4 0xD9638D36 SWAP3 PUSH1 0x24 DUP1 DUP3 ADD SWAP4 SWAP2 DUP3 SWAP1 SUB ADD DUP2 DUP7 DUP1 EXTCODESIZE ISZERO DUP1 ISZERO PUSH3 0x23A JUMPI PUSH1 0x0 DUP1 REVERT JUMPDEST POP GAS STATICCALL ISZERO DUP1 ISZERO PUSH3 0x24F JUMPI RETURNDATASIZE PUSH1 0x0 DUP1 RETURNDATACOPY RETURNDATASIZE PUSH1 0x0 REVERT JUMPDEST POP POP POP POP PUSH1 0x40 MLOAD RETURNDATASIZE PUSH1 0x40 DUP2 LT ISZERO PUSH3 0x266 JUMPI PUSH1 0x0 DUP1 REVERT JUMPDEST POP MLOAD PUSH1 0x7 SLOAD PUSH1 0x40 DUP1 MLOAD PUSH4 0x5001F3B5 PUSH1 0xE0 SHL DUP2 MSTORE SWAP1 MLOAD SWAP3 SWAP4 POP PUSH1 0x0 SWAP3 PUSH3 0x351 SWAP3 PUSH1 0xF SWAP3 PUSH3 0x33D SWAP3 PUSH12 0x33B2E3C9FD0803CE8000000 SWAP3 PUSH3 0x159 SWAP3 PUSH8 0xDE0B6B3A7640000 SWAP3 DUP7 SWAP3 DUP7 SWAP3 PUSH3 0x329 SWAP3 PUSH1 0x1 PUSH1 0x1 PUSH1 0xA0 SHL SUB SWAP1 SWAP3 AND SWAP2 PUSH4 0x5001F3B5 SWAP2 PUSH1 0x4 DUP1 DUP3 ADD SWAP3 PUSH1 0x20 SWAP3 SWAP1 SWAP2 SWAP1 DUP3 SWAP1 SUB ADD DUP2 DUP7 DUP1 EXTCODESIZE ISZERO DUP1 ISZERO PUSH3 0x2E7 JUMPI PUSH1 0x0 DUP1 REVERT JUMPDEST POP GAS STATICCALL ISZERO DUP1 ISZERO PUSH3 0x2FC JUMPI RETURNDATASIZE PUSH1 0x0 DUP1 RETURNDATACOPY RETURNDATASIZE PUSH1 0x0 REVERT JUMPDEST POP POP POP POP PUSH1 0x40 MLOAD RETURNDATASIZE PUSH1 0x20 DUP2 LT ISZERO PUSH3 0x313 JUMPI PUSH1 0x0 DUP1 REVERT JUMPDEST POP MLOAD DUP12 SWAP1 PUSH3 0x517 PUSH1 0x20 SWAP1 DUP2 SHL PUSH3 0x766 OR SWAP1 SHR JUMP JUMPDEST PUSH3 0x572 PUSH1 0x20 SHL PUSH3 0x7C9 OR SWAP1 SWAP2 SWAP1 PUSH1 0x20 SHR JUMP JUMPDEST PUSH3 0x4B9 PUSH1 0x20 SHL PUSH3 0x80B OR SWAP1 SWAP2 SWAP1 PUSH1 0x20 SHR JUMP JUMPDEST SWAP1 POP PUSH3 0x380 PUSH8 0xD2F13F7789F0000 PUSH3 0x159 PUSH8 0xDE0B6B3A7640000 PUSH3 0x33D PUSH1 0x1 PUSH1 0x1 PUSH1 0xE0 SHL SUB PUSH3 0x5BC AND JUMP JUMPDEST PUSH1 0x2 DUP2 SWAP1 SSTORE DUP2 GT ISZERO PUSH3 0x3E1 JUMPI PUSH3 0x3D8 PUSH1 0x4 SLOAD PUSH3 0x159 PUSH8 0xDE0B6B3A7640000 PUSH3 0x33D PUSH1 0x5 SLOAD PUSH3 0x3C4 PUSH1 0x2 SLOAD DUP9 PUSH3 0x572 PUSH1 0x20 SHL PUSH3 0x7C9 OR SWAP1 SWAP2 SWAP1 PUSH1 0x20 SHR JUMP JUMPDEST PUSH3 0x517 PUSH1 0x20 SHL PUSH3 0x766 OR SWAP1 SWAP2 SWAP1 PUSH1 0x20 SHR JUMP JUMPDEST PUSH1 0x1 SSTORE PUSH3 0x410 JUMP JUMPDEST PUSH3 0x40C PUSH1 0x4 SLOAD PUSH3 0x159 PUSH8 0xDE0B6B3A7640000 PUSH1 0x5 SLOAD PUSH3 0x4B9 PUSH1 0x20 SHL PUSH3 0x80B OR SWAP1 SWAP2 SWAP1 PUSH1 0x20 SHR JUMP JUMPDEST PUSH1 0x1 SSTORE JUMPDEST PUSH1 0x2 SLOAD PUSH1 0x1 SLOAD PUSH1 0x3 SLOAD PUSH1 0x4 SLOAD PUSH1 0x40 DUP1 MLOAD SWAP5 DUP6 MSTORE PUSH1 0x20 DUP6 ADD SWAP4 SWAP1 SWAP4 MSTORE DUP4 DUP4 ADD SWAP2 SWAP1 SWAP2 MSTORE PUSH1 0x60 DUP4 ADD MSTORE MLOAD PUSH32 0x6960AB234C7EF4B0C9197100F5393CFCDE7C453AC910A27BD2000AA1DD4C068D SWAP2 DUP2 SWAP1 SUB PUSH1 0x80 ADD SWAP1 LOG1 POP POP JUMP JUMPDEST PUSH1 0x0 PUSH3 0x4B0 DUP4 DUP4 PUSH1 0x40 MLOAD DUP1 PUSH1 0x40 ADD PUSH1 0x40 MSTORE DUP1 PUSH1 0x1A DUP2 MSTORE PUSH1 0x20 ADD PUSH32 0x536166654D6174683A206469766973696F6E206279207A65726F000000000000 DUP2 MSTORE POP PUSH3 0x673 PUSH1 0x20 SHL PUSH1 0x20 SHR JUMP JUMPDEST SWAP1 POP JUMPDEST SWAP3 SWAP2 POP POP JUMP JUMPDEST PUSH1 0x0 DUP3 PUSH3 0x4CA JUMPI POP PUSH1 0x0 PUSH3 0x4B3 JUMP JUMPDEST DUP3 DUP3 MUL DUP3 DUP5 DUP3 DUP2 PUSH3 0x4D8 JUMPI INVALID JUMPDEST DIV EQ PUSH3 0x4B0 JUMPI PUSH1 0x40 MLOAD PUSH3 0x461BCD PUSH1 0xE5 SHL DUP2 MSTORE PUSH1 0x4 ADD DUP1 DUP1 PUSH1 0x20 ADD DUP3 DUP2 SUB DUP3 MSTORE PUSH1 0x21 DUP2 MSTORE PUSH1 0x20 ADD DUP1 PUSH3 0x12AD PUSH1 0x21 SWAP2 CODECOPY PUSH1 0x40 ADD SWAP2 POP POP PUSH1 0x40 MLOAD DUP1 SWAP2 SUB SWAP1 REVERT JUMPDEST PUSH1 0x0 DUP3 DUP3 ADD DUP4 DUP2 LT ISZERO PUSH3 0x4B0 JUMPI PUSH1 0x40 DUP1 MLOAD PUSH3 0x461BCD PUSH1 0xE5 SHL DUP2 MSTORE PUSH1 0x20 PUSH1 0x4 DUP3 ADD MSTORE PUSH1 0x1B PUSH1 0x24 DUP3 ADD MSTORE PUSH32 0x536166654D6174683A206164646974696F6E206F766572666C6F770000000000 PUSH1 0x44 DUP3 ADD MSTORE SWAP1 MLOAD SWAP1 DUP2 SWAP1 SUB PUSH1 0x64 ADD SWAP1 REVERT JUMPDEST PUSH1 0x0 PUSH3 0x4B0 DUP4 DUP4 PUSH1 0x40 MLOAD DUP1 PUSH1 0x40 ADD PUSH1 0x40 MSTORE DUP1 PUSH1 0x1F DUP2 MSTORE PUSH1 0x20 ADD PUSH32 0x536166654D6174683A207375627472616374696F6E20756E646572666C6F7700 DUP2 MSTORE POP PUSH3 0x71A PUSH1 0x20 SHL PUSH1 0x20 SHR JUMP JUMPDEST PUSH1 0x0 PUSH3 0x66E PUSH1 0xF PUSH3 0x33D PUSH4 0x3B9ACA00 PUSH3 0x159 PUSH12 0x33B2E3C9FD0803CE8000000 PUSH1 0x6 PUSH1 0x0 SWAP1 SLOAD SWAP1 PUSH2 0x100 EXP SWAP1 DIV PUSH1 0x1 PUSH1 0x1 PUSH1 0xA0 SHL SUB AND PUSH1 0x1 PUSH1 0x1 PUSH1 0xA0 SHL SUB AND PUSH4 0x487BF082 PUSH1 0x40 MLOAD DUP2 PUSH4 0xFFFFFFFF AND PUSH1 0xE0 SHL DUP2 MSTORE PUSH1 0x4 ADD PUSH1 0x20 PUSH1 0x40 MLOAD DUP1 DUP4 SUB DUP2 DUP7 DUP1 EXTCODESIZE ISZERO DUP1 ISZERO PUSH3 0x62D JUMPI PUSH1 0x0 DUP1 REVERT JUMPDEST POP GAS STATICCALL ISZERO DUP1 ISZERO PUSH3 0x642 JUMPI RETURNDATASIZE PUSH1 0x0 DUP1 RETURNDATACOPY RETURNDATASIZE PUSH1 0x0 REVERT JUMPDEST POP POP POP POP PUSH1 0x40 MLOAD RETURNDATASIZE PUSH1 0x20 DUP2 LT ISZERO PUSH3 0x659 JUMPI PUSH1 0x0 DUP1 REVERT JUMPDEST POP MLOAD SWAP1 PUSH3 0x572 PUSH1 0x20 SWAP1 DUP2 SHL PUSH3 0x7C9 OR SWAP1 SHR JUMP JUMPDEST SWAP1 POP SWAP1 JUMP JUMPDEST PUSH1 0x0 DUP2 DUP4 PUSH3 0x703 JUMPI PUSH1 0x40 MLOAD PUSH3 0x461BCD PUSH1 0xE5 SHL DUP2 MSTORE PUSH1 0x4 ADD DUP1 DUP1 PUSH1 0x20 ADD DUP3 DUP2 SUB DUP3 MSTORE DUP4 DUP2 DUP2 MLOAD DUP2 MSTORE PUSH1 0x20 ADD SWAP2 POP DUP1 MLOAD SWAP1 PUSH1 0x20 ADD SWAP1 DUP1 DUP4 DUP4 PUSH1 0x0 JUMPDEST DUP4 DUP2 LT ISZERO PUSH3 0x6C7 JUMPI DUP2 DUP2 ADD MLOAD DUP4 DUP3 ADD MSTORE PUSH1 0x20 ADD PUSH3 0x6AD JUMP JUMPDEST POP POP POP POP SWAP1 POP SWAP1 DUP2 ADD SWAP1 PUSH1 0x1F AND DUP1 ISZERO PUSH3 0x6F5 JUMPI DUP1 DUP3 SUB DUP1 MLOAD PUSH1 0x1 DUP4 PUSH1 0x20 SUB PUSH2 0x100 EXP SUB NOT AND DUP2 MSTORE PUSH1 0x20 ADD SWAP2 POP JUMPDEST POP SWAP3 POP POP POP PUSH1 0x40 MLOAD DUP1 SWAP2 SUB SWAP1 REVERT JUMPDEST POP PUSH1 0x0 DUP4 DUP6 DUP2 PUSH3 0x710 JUMPI INVALID JUMPDEST DIV SWAP6 SWAP5 POP POP POP POP POP JUMP JUMPDEST PUSH1 0x0 DUP2 DUP5 DUP5 GT ISZERO PUSH3 0x76F JUMPI PUSH1 0x40 MLOAD PUSH3 0x461BCD PUSH1 0xE5 SHL DUP2 MSTORE PUSH1 0x20 PUSH1 0x4 DUP3 ADD DUP2 DUP2 MSTORE DUP4 MLOAD PUSH1 0x24 DUP5 ADD MSTORE DUP4 MLOAD SWAP1 SWAP3 DUP4 SWAP3 PUSH1 0x44 SWAP1 SWAP2 ADD SWAP2 SWAP1 DUP6 ADD SWAP1 DUP1 DUP4 DUP4 PUSH1 0x0 DUP4 ISZERO PUSH3 0x6C7 JUMPI DUP2 DUP2 ADD MLOAD DUP4 DUP3 ADD MSTORE PUSH1 0x20 ADD PUSH3 0x6AD JUMP JUMPDEST POP POP POP SWAP1 SUB SWAP1 JUMP JUMPDEST PUSH2 0xB26 DUP1 PUSH3 0x787 PUSH1 0x0 CODECOPY PUSH1 0x0 RETURN INVALID PUSH1 0x80 PUSH1 0x40 MSTORE CALLVALUE DUP1 ISZERO PUSH2 0x10 JUMPI PUSH1 0x0 DUP1 REVERT JUMPDEST POP PUSH1 0x4 CALLDATASIZE LT PUSH2 0xF5 JUMPI PUSH1 0x0 CALLDATALOAD PUSH1 0xE0 SHR DUP1 PUSH4 0x8DA5CB5B GT PUSH2 0x97 JUMPI DUP1 PUSH4 0xB9F9850A GT PUSH2 0x66 JUMPI DUP1 PUSH4 0xB9F9850A EQ PUSH2 0x226 JUMPI DUP1 PUSH4 0xF14039DE EQ PUSH2 0x22E JUMPI DUP1 PUSH4 0xF52D21F3 EQ PUSH2 0x236 JUMPI DUP1 PUSH4 0xFD2DA339 EQ PUSH2 0x23E JUMPI PUSH2 0xF5 JUMP JUMPDEST DUP1 PUSH4 0x8DA5CB5B EQ PUSH2 0x1C3 JUMPI DUP1 PUSH4 0x96456C5C EQ PUSH2 0x1E7 JUMPI DUP1 PUSH4 0xA385FB96 EQ PUSH2 0x1EF JUMPI DUP1 PUSH4 0xB8168816 EQ PUSH2 0x1F7 JUMPI PUSH2 0xF5 JUMP JUMPDEST DUP1 PUSH4 0x2191F92A GT PUSH2 0xD3 JUMPI DUP1 PUSH4 0x2191F92A EQ PUSH2 0x16E JUMPI DUP1 PUSH4 0x6DAC7CD5 EQ PUSH2 0x18A JUMPI DUP1 PUSH4 0x6E71E2D8 EQ PUSH2 0x192 JUMPI DUP1 PUSH4 0x8726BB89 EQ PUSH2 0x1BB JUMPI PUSH2 0xF5 JUMP JUMPDEST DUP1 PUSH4 0x15F24053 EQ PUSH2 0xFA JUMPI DUP1 PUSH4 0x18178358 EQ PUSH2 0x135 JUMPI DUP1 PUSH4 0x2037F3E7 EQ PUSH2 0x13F JUMPI JUMPDEST PUSH1 0x0 DUP1 REVERT JUMPDEST PUSH2 0x123 PUSH1 0x4 DUP1 CALLDATASIZE SUB PUSH1 0x60 DUP2 LT ISZERO PUSH2 0x110 JUMPI PUSH1 0x0 DUP1 REVERT JUMPDEST POP DUP1 CALLDATALOAD SWAP1 PUSH1 0x20 DUP2 ADD CALLDATALOAD SWAP1 PUSH1 0x40 ADD CALLDATALOAD PUSH2 0x246 JUMP JUMPDEST PUSH1 0x40 DUP1 MLOAD SWAP2 DUP3 MSTORE MLOAD SWAP1 DUP2 SWAP1 SUB PUSH1 0x20 ADD SWAP1 RETURN JUMPDEST PUSH2 0x13D PUSH2 0x25D JUMP JUMPDEST STOP JUMPDEST PUSH2 0x13D PUSH1 0x4 DUP1 CALLDATASIZE SUB PUSH1 0x80 DUP2 LT ISZERO PUSH2 0x155 JUMPI PUSH1 0x0 DUP1 REVERT JUMPDEST POP DUP1 CALLDATALOAD SWAP1 PUSH1 0x20 DUP2 ADD CALLDATALOAD SWAP1 PUSH1 0x40 DUP2 ADD CALLDATALOAD SWAP1 PUSH1 0x60 ADD CALLDATALOAD PUSH2 0x49B JUMP JUMPDEST PUSH2 0x176 PUSH2 0x508 JUMP JUMPDEST PUSH1 0x40 DUP1 MLOAD SWAP2 ISZERO ISZERO DUP3 MSTORE MLOAD SWAP1 DUP2 SWAP1 SUB PUSH1 0x20 ADD SWAP1 RETURN JUMPDEST PUSH2 0x123 PUSH2 0x50D JUMP JUMPDEST PUSH2 0x123 PUSH1 0x4 DUP1 CALLDATASIZE SUB PUSH1 0x60 DUP2 LT ISZERO PUSH2 0x1A8 JUMPI PUSH1 0x0 DUP1 REVERT JUMPDEST POP DUP1 CALLDATALOAD SWAP1 PUSH1 0x20 DUP2 ADD CALLDATALOAD SWAP1 PUSH1 0x40 ADD CALLDATALOAD PUSH2 0x519 JUMP JUMPDEST PUSH2 0x123 PUSH2 0x557 JUMP JUMPDEST PUSH2 0x1CB PUSH2 0x55D JUMP JUMPDEST PUSH1 0x40 DUP1 MLOAD PUSH1 0x1 PUSH1 0x1 PUSH1 0xA0 SHL SUB SWAP1 SWAP3 AND DUP3 MSTORE MLOAD SWAP1 DUP2 SWAP1 SUB PUSH1 0x20 ADD SWAP1 RETURN JUMPDEST PUSH2 0x123 PUSH2 0x56C JUMP JUMPDEST PUSH2 0x123 PUSH2 0x616 JUMP JUMPDEST PUSH2 0x123 PUSH1 0x4 DUP1 CALLDATASIZE SUB PUSH1 0x80 DUP2 LT ISZERO PUSH2 0x20D JUMPI PUSH1 0x0 DUP1 REVERT JUMPDEST POP DUP1 CALLDATALOAD SWAP1 PUSH1 0x20 DUP2 ADD CALLDATALOAD SWAP1 PUSH1 0x40 DUP2 ADD CALLDATALOAD SWAP1 PUSH1 0x60 ADD CALLDATALOAD PUSH2 0x61D JUMP JUMPDEST PUSH2 0x123 PUSH2 0x691 JUMP JUMPDEST PUSH2 0x123 PUSH2 0x697 JUMP JUMPDEST PUSH2 0x123 PUSH2 0x69D JUMP JUMPDEST PUSH2 0x123 PUSH2 0x6A3 JUMP JUMPDEST PUSH1 0x0 PUSH2 0x253 DUP5 DUP5 DUP5 PUSH2 0x6A9 JUMP JUMPDEST SWAP1 POP JUMPDEST SWAP4 SWAP3 POP POP POP JUMP JUMPDEST PUSH1 0x7 SLOAD PUSH1 0x40 DUP1 MLOAD PUSH4 0x6CB1C69B PUSH1 0xE1 SHL DUP2 MSTORE PUSH5 0x4554482D41 PUSH1 0xD8 SHL PUSH1 0x4 DUP3 ADD MSTORE DUP2 MLOAD PUSH1 0x0 SWAP4 PUSH1 0x1 PUSH1 0x1 PUSH1 0xA0 SHL SUB AND SWAP3 PUSH4 0xD9638D36 SWAP3 PUSH1 0x24 DUP1 DUP3 ADD SWAP4 SWAP2 DUP3 SWAP1 SUB ADD DUP2 DUP7 DUP1 EXTCODESIZE ISZERO DUP1 ISZERO PUSH2 0x2AC JUMPI PUSH1 0x0 DUP1 REVERT JUMPDEST POP GAS STATICCALL ISZERO DUP1 ISZERO PUSH2 0x2C0 JUMPI RETURNDATASIZE PUSH1 0x0 DUP1 RETURNDATACOPY RETURNDATASIZE PUSH1 0x0 REVERT JUMPDEST POP POP POP POP PUSH1 0x40 MLOAD RETURNDATASIZE PUSH1 0x40 DUP2 LT ISZERO PUSH2 0x2D6 JUMPI PUSH1 0x0 DUP1 REVERT JUMPDEST POP MLOAD PUSH1 0x7 SLOAD PUSH1 0x40 DUP1 MLOAD PUSH4 0x5001F3B5 PUSH1 0xE0 SHL DUP2 MSTORE SWAP1 MLOAD SWAP3 SWAP4 POP PUSH1 0x0 SWAP3 PUSH2 0x3AF SWAP3 PUSH1 0xF SWAP3 PUSH2 0x397 SWAP3 PUSH12 0x33B2E3C9FD0803CE8000000 SWAP3 PUSH2 0x3A3 SWAP3 PUSH8 0xDE0B6B3A7640000 SWAP3 DUP7 SWAP3 DUP7 SWAP3 PUSH2 0x38B SWAP3 PUSH1 0x1 PUSH1 0x1 PUSH1 0xA0 SHL SUB SWAP1 SWAP3 AND SWAP2 PUSH4 0x5001F3B5 SWAP2 PUSH1 0x4 DUP1 DUP3 ADD SWAP3 PUSH1 0x20 SWAP3 SWAP1 SWAP2 SWAP1 DUP3 SWAP1 SUB ADD DUP2 DUP7 DUP1 EXTCODESIZE ISZERO DUP1 ISZERO PUSH2 0x352 JUMPI PUSH1 0x0 DUP1 REVERT JUMPDEST POP GAS STATICCALL ISZERO DUP1 ISZERO PUSH2 0x366 JUMPI RETURNDATASIZE PUSH1 0x0 DUP1 RETURNDATACOPY RETURNDATASIZE PUSH1 0x0 REVERT JUMPDEST POP POP POP POP PUSH1 0x40 MLOAD RETURNDATASIZE PUSH1 0x20 DUP2 LT ISZERO PUSH2 0x37C JUMPI PUSH1 0x0 DUP1 REVERT JUMPDEST POP MLOAD DUP12 SWAP1 PUSH4 0xFFFFFFFF PUSH2 0x766 AND JUMP JUMPDEST SWAP1 PUSH4 0xFFFFFFFF PUSH2 0x7C9 AND JUMP JUMPDEST SWAP1 PUSH4 0xFFFFFFFF PUSH2 0x80B AND JUMP JUMPDEST SWAP1 PUSH4 0xFFFFFFFF PUSH2 0x864 AND JUMP JUMPDEST SWAP1 POP PUSH2 0x3D1 PUSH8 0xD2F13F7789F0000 PUSH2 0x3A3 PUSH8 0xDE0B6B3A7640000 PUSH2 0x397 PUSH2 0x56C JUMP JUMPDEST PUSH1 0x2 DUP2 SWAP1 SSTORE DUP2 GT ISZERO PUSH2 0x41E JUMPI PUSH2 0x416 PUSH1 0x4 SLOAD PUSH2 0x3A3 PUSH8 0xDE0B6B3A7640000 PUSH2 0x397 PUSH1 0x5 SLOAD PUSH2 0x40A PUSH1 0x2 SLOAD DUP9 PUSH2 0x7C9 SWAP1 SWAP2 SWAP1 PUSH4 0xFFFFFFFF AND JUMP JUMPDEST SWAP1 PUSH4 0xFFFFFFFF PUSH2 0x766 AND JUMP JUMPDEST PUSH1 0x1 SSTORE PUSH2 0x445 JUMP JUMPDEST PUSH2 0x441 PUSH1 0x4 SLOAD PUSH2 0x3A3 PUSH8 0xDE0B6B3A7640000 PUSH1 0x5 SLOAD PUSH2 0x80B SWAP1 SWAP2 SWAP1 PUSH4 0xFFFFFFFF AND JUMP JUMPDEST PUSH1 0x1 SSTORE JUMPDEST PUSH1 0x2 SLOAD PUSH1 0x1 SLOAD PUSH1 0x3 SLOAD PUSH1 0x4 SLOAD PUSH1 0x40 DUP1 MLOAD SWAP5 DUP6 MSTORE PUSH1 0x20 DUP6 ADD SWAP4 SWAP1 SWAP4 MSTORE DUP4 DUP4 ADD SWAP2 SWAP1 SWAP2 MSTORE PUSH1 0x60 DUP4 ADD MSTORE MLOAD PUSH32 0x6960AB234C7EF4B0C9197100F5393CFCDE7C453AC910A27BD2000AA1DD4C068D SWAP2 DUP2 SWAP1 SUB PUSH1 0x80 ADD SWAP1 LOG1 POP POP JUMP JUMPDEST PUSH1 0x0 SLOAD PUSH1 0x1 PUSH1 0x1 PUSH1 0xA0 SHL SUB AND CALLER EQ PUSH2 0x4E4 JUMPI PUSH1 0x40 MLOAD PUSH3 0x461BCD PUSH1 0xE5 SHL DUP2 MSTORE PUSH1 0x4 ADD DUP1 DUP1 PUSH1 0x20 ADD DUP3 DUP2 SUB DUP3 MSTORE PUSH1 0x26 DUP2 MSTORE PUSH1 0x20 ADD DUP1 PUSH2 0xACC PUSH1 0x26 SWAP2 CODECOPY PUSH1 0x40 ADD SWAP2 POP POP PUSH1 0x40 MLOAD DUP1 SWAP2 SUB SWAP1 REVERT JUMPDEST PUSH3 0x201480 DUP4 DIV PUSH1 0x5 SSTORE PUSH2 0x4FA PUSH1 0x0 DUP1 DUP5 DUP5 PUSH2 0x8A6 JUMP JUMPDEST PUSH2 0x502 PUSH2 0x25D JUMP JUMPDEST POP POP POP POP JUMP JUMPDEST PUSH1 0x1 DUP2 JUMP JUMPDEST PUSH8 0xD2F13F7789F0000 DUP2 JUMP JUMPDEST PUSH1 0x0 DUP3 PUSH2 0x528 JUMPI POP PUSH1 0x0 PUSH2 0x256 JUMP JUMPDEST PUSH2 0x253 PUSH2 0x53F DUP4 PUSH2 0x38B DUP8 DUP8 PUSH4 0xFFFFFFFF PUSH2 0x766 AND JUMP JUMPDEST PUSH2 0x3A3 DUP6 PUSH8 0xDE0B6B3A7640000 PUSH4 0xFFFFFFFF PUSH2 0x80B AND JUMP JUMPDEST PUSH1 0x1 SLOAD DUP2 JUMP JUMPDEST PUSH1 0x0 SLOAD PUSH1 0x1 PUSH1 0x1 PUSH1 0xA0 SHL SUB AND DUP2 JUMP JUMPDEST PUSH1 0x0 PUSH2 0x611 PUSH1 0xF PUSH2 0x397 PUSH4 0x3B9ACA00 PUSH2 0x3A3 PUSH12 0x33B2E3C9FD0803CE8000000 PUSH1 0x6 PUSH1 0x0 SWAP1 SLOAD SWAP1 PUSH2 0x100 EXP SWAP1 DIV PUSH1 0x1 PUSH1 0x1 PUSH1 0xA0 SHL SUB AND PUSH1 0x1 PUSH1 0x1 PUSH1 0xA0 SHL SUB AND PUSH4 0x487BF082 PUSH1 0x40 MLOAD DUP2 PUSH4 0xFFFFFFFF AND PUSH1 0xE0 SHL DUP2 MSTORE PUSH1 0x4 ADD PUSH1 0x20 PUSH1 0x40 MLOAD DUP1 DUP4 SUB DUP2 DUP7 DUP1 EXTCODESIZE ISZERO DUP1 ISZERO PUSH2 0x5D9 JUMPI PUSH1 0x0 DUP1 REVERT JUMPDEST POP GAS STATICCALL ISZERO DUP1 ISZERO PUSH2 0x5ED JUMPI RETURNDATASIZE PUSH1 0x0 DUP1 RETURNDATACOPY RETURNDATASIZE PUSH1 0x0 REVERT JUMPDEST POP POP POP POP PUSH1 0x40 MLOAD RETURNDATASIZE PUSH1 0x20 DUP2 LT ISZERO PUSH2 0x603 JUMPI PUSH1 0x0 DUP1 REVERT JUMPDEST POP MLOAD SWAP1 PUSH4 0xFFFFFFFF PUSH2 0x7C9 AND JUMP JUMPDEST SWAP1 POP SWAP1 JUMP JUMPDEST PUSH3 0x201480 DUP2 JUMP JUMPDEST PUSH1 0x0 DUP1 PUSH2 0x62C DUP7 DUP7 DUP7 DUP7 PUSH2 0x947 JUMP JUMPDEST SWAP1 POP PUSH1 0x0 PUSH2 0x644 DUP6 PUSH2 0x38B DUP10 DUP10 PUSH4 0xFFFFFFFF PUSH2 0x766 AND JUMP JUMPDEST SWAP1 POP DUP1 PUSH2 0x653 JUMPI POP SWAP1 POP PUSH2 0x689 JUMP JUMPDEST PUSH1 0x0 PUSH2 0x671 DUP3 PUSH2 0x3A3 PUSH2 0x664 PUSH2 0x56C JUMP JUMPDEST DUP12 SWAP1 PUSH4 0xFFFFFFFF PUSH2 0x80B AND JUMP JUMPDEST SWAP1 POP PUSH2 0x683 DUP2 DUP5 PUSH4 0xFFFFFFFF PUSH2 0x766 AND JUMP JUMPDEST SWAP4 POP POP POP POP JUMPDEST SWAP5 SWAP4 POP POP POP POP JUMP JUMPDEST PUSH1 0x3 SLOAD DUP2 JUMP JUMPDEST PUSH1 0x2 SLOAD DUP2 JUMP JUMPDEST PUSH1 0x5 SLOAD DUP2 JUMP JUMPDEST PUSH1 0x4 SLOAD DUP2 JUMP JUMPDEST PUSH1 0x0 DUP1 PUSH2 0x6B7 DUP6 DUP6 DUP6 PUSH2 0x519 JUMP JUMPDEST SWAP1 POP PUSH1 0x4 SLOAD DUP2 GT PUSH2 0x6F1 JUMPI PUSH2 0x6E9 PUSH1 0x2 SLOAD PUSH2 0x40A PUSH8 0xDE0B6B3A7640000 PUSH2 0x3A3 PUSH1 0x1 SLOAD DUP7 PUSH2 0x80B SWAP1 SWAP2 SWAP1 PUSH4 0xFFFFFFFF AND JUMP JUMPDEST SWAP2 POP POP PUSH2 0x256 JUMP JUMPDEST PUSH1 0x0 PUSH2 0x71C PUSH1 0x2 SLOAD PUSH2 0x40A PUSH8 0xDE0B6B3A7640000 PUSH2 0x3A3 PUSH1 0x1 SLOAD PUSH1 0x4 SLOAD PUSH2 0x80B SWAP1 SWAP2 SWAP1 PUSH4 0xFFFFFFFF AND JUMP JUMPDEST SWAP1 POP PUSH1 0x0 PUSH2 0x735 PUSH1 0x4 SLOAD DUP5 PUSH2 0x7C9 SWAP1 SWAP2 SWAP1 PUSH4 0xFFFFFFFF AND JUMP JUMPDEST SWAP1 POP PUSH2 0x75C DUP3 PUSH2 0x40A PUSH8 0xDE0B6B3A7640000 PUSH2 0x3A3 PUSH1 0x3 SLOAD DUP7 PUSH2 0x80B SWAP1 SWAP2 SWAP1 PUSH4 0xFFFFFFFF AND JUMP JUMPDEST SWAP4 POP POP POP POP PUSH2 0x256 JUMP JUMPDEST PUSH1 0x0 DUP3 DUP3 ADD DUP4 DUP2 LT ISZERO PUSH2 0x7C0 JUMPI PUSH1 0x40 DUP1 MLOAD PUSH3 0x461BCD PUSH1 0xE5 SHL DUP2 MSTORE PUSH1 0x20 PUSH1 0x4 DUP3 ADD MSTORE PUSH1 0x1B PUSH1 0x24 DUP3 ADD MSTORE PUSH32 0x536166654D6174683A206164646974696F6E206F766572666C6F770000000000 PUSH1 0x44 DUP3 ADD MSTORE SWAP1 MLOAD SWAP1 DUP2 SWAP1 SUB PUSH1 0x64 ADD SWAP1 REVERT JUMPDEST SWAP1 POP JUMPDEST SWAP3 SWAP2 POP POP JUMP JUMPDEST PUSH1 0x0 PUSH2 0x7C0 DUP4 DUP4 PUSH1 0x40 MLOAD DUP1 PUSH1 0x40 ADD PUSH1 0x40 MSTORE DUP1 PUSH1 0x1F DUP2 MSTORE PUSH1 0x20 ADD PUSH32 0x536166654D6174683A207375627472616374696F6E20756E646572666C6F7700 DUP2 MSTORE POP PUSH2 0x9AE JUMP JUMPDEST PUSH1 0x0 DUP3 PUSH2 0x81A JUMPI POP PUSH1 0x0 PUSH2 0x7C3 JUMP JUMPDEST DUP3 DUP3 MUL DUP3 DUP5 DUP3 DUP2 PUSH2 0x827 JUMPI INVALID JUMPDEST DIV EQ PUSH2 0x7C0 JUMPI PUSH1 0x40 MLOAD PUSH3 0x461BCD PUSH1 0xE5 SHL DUP2 MSTORE PUSH1 0x4 ADD DUP1 DUP1 PUSH1 0x20 ADD DUP3 DUP2 SUB DUP3 MSTORE PUSH1 0x21 DUP2 MSTORE PUSH1 0x20 ADD DUP1 PUSH2 0xAAB PUSH1 0x21 SWAP2 CODECOPY PUSH1 0x40 ADD SWAP2 POP POP PUSH1 0x40 MLOAD DUP1 SWAP2 SUB SWAP1 REVERT JUMPDEST PUSH1 0x0 PUSH2 0x7C0 DUP4 DUP4 PUSH1 0x40 MLOAD DUP1 PUSH1 0x40 ADD PUSH1 0x40 MSTORE DUP1 PUSH1 0x1A DUP2 MSTORE PUSH1 0x20 ADD PUSH32 0x536166654D6174683A206469766973696F6E206279207A65726F000000000000 DUP2 MSTORE POP PUSH2 0xA45 JUMP JUMPDEST PUSH2 0x8B9 DUP5 PUSH3 0x201480 PUSH4 0xFFFFFFFF PUSH2 0x864 AND JUMP JUMPDEST PUSH1 0x2 SSTORE PUSH2 0x8D2 PUSH2 0x53F PUSH3 0x201480 DUP4 PUSH4 0xFFFFFFFF PUSH2 0x80B AND JUMP JUMPDEST PUSH1 0x1 SSTORE PUSH2 0x8E8 DUP3 PUSH3 0x201480 PUSH4 0xFFFFFFFF PUSH2 0x864 AND JUMP JUMPDEST PUSH1 0x3 DUP2 SWAP1 SSTORE PUSH1 0x4 DUP3 SWAP1 SSTORE PUSH1 0x2 SLOAD PUSH1 0x1 SLOAD PUSH1 0x40 DUP1 MLOAD SWAP3 DUP4 MSTORE PUSH1 0x20 DUP4 ADD SWAP2 SWAP1 SWAP2 MSTORE DUP2 DUP2 ADD SWAP3 SWAP1 SWAP3 MSTORE PUSH1 0x60 DUP2 ADD DUP4 SWAP1 MSTORE SWAP1 MLOAD PUSH32 0x6960AB234C7EF4B0C9197100F5393CFCDE7C453AC910A27BD2000AA1DD4C068D SWAP2 DUP2 SWAP1 SUB PUSH1 0x80 ADD SWAP1 LOG1 POP POP POP POP JUMP JUMPDEST PUSH1 0x0 DUP1 PUSH2 0x962 PUSH8 0xDE0B6B3A7640000 DUP5 PUSH4 0xFFFFFFFF PUSH2 0x7C9 AND JUMP JUMPDEST SWAP1 POP PUSH1 0x0 PUSH2 0x971 DUP8 DUP8 DUP8 PUSH2 0x6A9 JUMP JUMPDEST SWAP1 POP PUSH1 0x0 PUSH2 0x991 PUSH8 0xDE0B6B3A7640000 PUSH2 0x3A3 DUP5 DUP7 PUSH4 0xFFFFFFFF PUSH2 0x80B AND JUMP JUMPDEST SWAP1 POP PUSH2 0x683 PUSH8 0xDE0B6B3A7640000 PUSH2 0x3A3 DUP4 PUSH2 0x397 DUP13 DUP13 DUP13 PUSH2 0x519 JUMP JUMPDEST PUSH1 0x0 DUP2 DUP5 DUP5 GT ISZERO PUSH2 0xA3D JUMPI PUSH1 0x40 MLOAD PUSH3 0x461BCD PUSH1 0xE5 SHL DUP2 MSTORE PUSH1 0x4 ADD DUP1 DUP1 PUSH1 0x20 ADD DUP3 DUP2 SUB DUP3 MSTORE DUP4 DUP2 DUP2 MLOAD DUP2 MSTORE PUSH1 0x20 ADD SWAP2 POP DUP1 MLOAD SWAP1 PUSH1 0x20 ADD SWAP1 DUP1 DUP4 DUP4 PUSH1 0x0 JUMPDEST DUP4 DUP2 LT ISZERO PUSH2 0xA02 JUMPI DUP2 DUP2 ADD MLOAD DUP4 DUP3 ADD MSTORE PUSH1 0x20 ADD PUSH2 0x9EA JUMP JUMPDEST POP POP POP POP SWAP1 POP SWAP1 DUP2 ADD SWAP1 PUSH1 0x1F AND DUP1 ISZERO PUSH2 0xA2F JUMPI DUP1 DUP3 SUB DUP1 MLOAD PUSH1 0x1 DUP4 PUSH1 0x20 SUB PUSH2 0x100 EXP SUB NOT AND DUP2 MSTORE PUSH1 0x20 ADD SWAP2 POP JUMPDEST POP SWAP3 POP POP POP PUSH1 0x40 MLOAD DUP1 SWAP2 SUB SWAP1 REVERT JUMPDEST POP POP POP SWAP1 SUB SWAP1 JUMP JUMPDEST PUSH1 0x0 DUP2 DUP4 PUSH2 0xA94 JUMPI PUSH1 0x40 MLOAD PUSH3 0x461BCD PUSH1 0xE5 SHL DUP2 MSTORE PUSH1 0x20 PUSH1 0x4 DUP3 ADD DUP2 DUP2 MSTORE DUP4 MLOAD PUSH1 0x24 DUP5 ADD MSTORE DUP4 MLOAD SWAP1 SWAP3 DUP4 SWAP3 PUSH1 0x44 SWAP1 SWAP2 ADD SWAP2 SWAP1 DUP6 ADD SWAP1 DUP1 DUP4 DUP4 PUSH1 0x0 DUP4 ISZERO PUSH2 0xA02 JUMPI DUP2 DUP2 ADD MLOAD DUP4 DUP3 ADD MSTORE PUSH1 0x20 ADD PUSH2 0x9EA JUMP JUMPDEST POP PUSH1 0x0 DUP4 DUP6 DUP2 PUSH2 0xAA0 JUMPI INVALID JUMPDEST DIV SWAP6 SWAP5 POP POP POP POP POP JUMP INVALID MSTORE8 PUSH2 0x6665 0x4D PUSH2 0x7468 GASPRICE KECCAK256 PUSH14 0x756C7469706C69636174696F6E20 PUSH16 0x766572666C6F776F6E6C792074686520 PUSH16 0x776E6572206D61792063616C6C207468 PUSH10 0x732066756E6374696F6E 0x2E LOG2 PUSH6 0x627A7A723158 KECCAK256 0xCF DUP7 0xC0 0xD9 0xE4 MULMOD SWAP7 GASPRICE 0xDD 0xF7 PUSH27 0x4FFD29537FD9FD6F5FBB92FFCD383AFC972333AB164736F6C6343 STOP SDIV GT STOP ORIGIN MSTORE8 PUSH2 0x6665 0x4D PUSH2 0x7468 GASPRICE KECCAK256 PUSH14 0x756C7469706C69636174696F6E20 PUSH16 0x766572666C6F77000000000000000000 "
    }
  },
  "humanReadableAbi": [
    "constructor(uint256 jumpMultiplierPerYear, uint256 kink_, address pot_, address jug_, address owner_)",
    "event NewInterestParams(uint256 baseRatePerBlock, uint256 multiplierPerBlock, uint256 jumpMultiplierPerBlock, uint256 kink)",
    "function assumedOneMinusReserveFactorMantissa() view returns(uint256)",
    "function baseRatePerBlock() view returns(uint256)",
    "function blocksPerYear() view returns(uint256)",
    "function dsrPerBlock() view returns(uint256)",
    "function gapPerBlock() view returns(uint256)",
    "function getBorrowRate(uint256 cash, uint256 borrows, uint256 reserves) view returns(uint256)",
    "function getSupplyRate(uint256 cash, uint256 borrows, uint256 reserves, uint256 reserveFactorMantissa) view returns(uint256)",
    "function isInterestRateModel() view returns(bool)",
    "function jumpMultiplierPerBlock() view returns(uint256)",
    "function kink() view returns(uint256)",
    "function multiplierPerBlock() view returns(uint256)",
    "function owner() view returns(address)",
    "function poke()",
    "function updateJumpRateModel(uint256 baseRatePerYear, uint256 gapPerYear, uint256 jumpMultiplierPerYear, uint256 kink_)",
    "function utilizationRate(uint256 cash, uint256 borrows, uint256 reserves) pure returns(uint256)"
  ]
}