{
  "abi": [
    {
      "inputs": [
        {
          "internalType": "contract CEther",
          "name": "cEther_",
          "type": "address"
        }
      ],
      "payable": false,
      "stateMutability": "nonpayable",
      "type": "constructor"
    },
    {
      "constant": true,
      "inputs": [],
      "name": "cEther",
      "outputs": [
        {
          "internalType": "contract CEther",
          "name": "",
          "type": "address"
        }
      ],
      "payable": false,
      "stateMutability": "view",
      "type": "function"
    },
    {
      "constant": false,
      "inputs": [
        {
          "internalType": "address",
          "name": "borrower",
          "type": "address"
        }
      ],
      "name": "repayBehalf",
      "outputs": [],
      "payable": true,
      "stateMutability": "payable",
      "type": "function"
    },
    {
      "constant": false,
      "inputs": [
        {
          "internalType": "address",
          "name": "borrower",
          "type": "address"
        },
        {
          "internalType": "contract CEther",
          "name": "cEther_",
          "type": "address"
        }
      ],
      "name": "repayBehalfExplicit",
      "outputs": [],
      "payable": true,
      "stateMutability": "payable",
      "type": "function"
    }
  ],
  "evm": {
    "bytecode": {
      "linkReferences": {},
      "object": "608060405234801561001057600080fd5b506040516103363803806103368339818101604052602081101561003357600080fd5b5051600080546001600160a01b039092166001600160a01b03199092169190911790556102d1806100656000396000f3fe6080604052600436106100345760003560e01c806319b68c0014610039578063367b7f051461006a5780639f35c3d51461009a575b600080fd5b34801561004557600080fd5b5061004e6100c0565b604080516001600160a01b039092168252519081900360200190f35b6100986004803603604081101561008057600080fd5b506001600160a01b03813581169160200135166100cf565b005b610098600480360360208110156100b057600080fd5b50356001600160a01b0316610282565b6000546001600160a01b031681565b60003490506000826001600160a01b03166317bfdfbc856040518263ffffffff1660e01b815260040180826001600160a01b03166001600160a01b03168152602001915050602060405180830381600087803b15801561012e57600080fd5b505af1158015610142573d6000803e3d6000fd5b505050506040513d602081101561015857600080fd5b505190508082111561020a57826001600160a01b031663e597461982866040518363ffffffff1660e01b815260040180826001600160a01b03166001600160a01b031681526020019150506000604051808303818588803b1580156101bc57600080fd5b505af11580156101d0573d6000803e3d6000fd5b505060405133935084860380156108fc02935091506000818181858888f19350505050158015610204573d6000803e3d6000fd5b5061027c565b826001600160a01b031663e597461983866040518363ffffffff1660e01b815260040180826001600160a01b03166001600160a01b031681526020019150506000604051808303818588803b15801561026257600080fd5b505af1158015610276573d6000803e3d6000fd5b50505050505b50505050565b6000546102999082906001600160a01b03166100cf565b5056fea265627a7a72315820d0f127a9007a8c30124c5116f638e5e53217d8ffbba84fc8cf61f9e6652d223d64736f6c63430005110032",
      "opcodes": "PUSH1 0x80 PUSH1 0x40 MSTORE CALLVALUE DUP1 ISZERO PUSH2 0x10 JUMPI PUSH1 0x0 DUP1 REVERT JUMPDEST POP PUSH1 0x40 MLOAD PUSH2 0x336 CODESIZE SUB DUP1 PUSH2 0x336 DUP4 CODECOPY DUP2 DUP2 ADD PUSH1 0x40 MSTORE PUSH1 0x20 DUP2 LT ISZERO PUSH2 0x33 JUMPI PUSH1 0x0 DUP1 REVERT JUMPDEST POP MLOAD PUSH1 0x0 DUP1 SLOAD PUSH1 0x1 PUSH1 0x1 PUSH1 0xA0 SHL SUB SWAP1 SWAP3 AND PUSH1 0x1 PUSH1 0x1 PUSH1 0xA0 SHL SUB NOT SWAP1 SWAP3 AND SWAP2 SWAP1 SWAP2 OR SWAP1 SSTORE PUSH2 0x2D1 DUP1 PUSH2 0x65 PUSH1 0x0 CODECOPY PUSH1 0x0 RETURN INVALID PUSH1 0x80 PUSH1 0x40 MSTORE PUSH1 0x4 CALLDATASIZE LT PUSH2 0x34 JUMPI PUSH1 0x0 CALLDATALOAD PUSH1 0xE0 SHR DUP1 PUSH4 0x19B68C00 EQ PUSH2 0x39 JUMPI DUP1 PUSH4 0x367B7F05 EQ PUSH2 0x6A JUMPI DUP1 PUSH4 0x9F35C3D5 EQ PUSH2 0x9A JUMPI JUMPDEST PUSH1 0x0 DUP1 REVERT JUMPDEST CALLVALUE DUP1 ISZERO PUSH2 0x45 JUMPI PUSH1 0x0 DUP1 REVERT JUMPDEST POP PUSH2 0x4E PUSH2 0xC0 JUMP JUMPDEST PUSH1 0x40 DUP1 MLOAD PUSH1 0x1 PUSH1 0x1 PUSH1 0xA0 SHL SUB SWAP1 SWAP3 AND DUP3 MSTORE MLOAD SWAP1 DUP2 SWAP1 SUB PUSH1 0x20 ADD SWAP1 RETURN JUMPDEST PUSH2 0x98 PUSH1 0x4 DUP1 CALLDATASIZE SUB PUSH1 0x40 DUP2 LT ISZERO PUSH2 0x80 JUMPI PUSH1 0x0 DUP1 REVERT JUMPDEST POP PUSH1 0x1 PUSH1 0x1 PUSH1 0xA0 SHL SUB DUP2 CALLDATALOAD DUP2 AND SWAP2 PUSH1 0x20 ADD CALLDATALOAD AND PUSH2 0xCF JUMP JUMPDEST STOP JUMPDEST PUSH2 0x98 PUSH1 0x4 DUP1 CALLDATASIZE SUB PUSH1 0x20 DUP2 LT ISZERO PUSH2 0xB0 JUMPI PUSH1 0x0 DUP1 REVERT JUMPDEST POP CALLDATALOAD PUSH1 0x1 PUSH1 0x1 PUSH1 0xA0 SHL SUB AND PUSH2 0x282 JUMP JUMPDEST PUSH1 0x0 SLOAD PUSH1 0x1 PUSH1 0x1 PUSH1 0xA0 SHL SUB AND DUP2 JUMP JUMPDEST PUSH1 0x0 CALLVALUE SWAP1 POP PUSH1 0x0 DUP3 PUSH1 0x1 PUSH1 0x1 PUSH1 0xA0 SHL SUB AND PUSH4 0x17BFDFBC DUP6 PUSH1 0x40 MLOAD DUP3 PUSH4 0xFFFFFFFF AND PUSH1 0xE0 SHL DUP2 MSTORE PUSH1 0x4 ADD DUP1 DUP3 PUSH1 0x1 PUSH1 0x1 PUSH1 0xA0 SHL SUB AND PUSH1 0x1 PUSH1 0x1 PUSH1 0xA0 SHL SUB AND DUP2 MSTORE PUSH1 0x20 ADD SWAP2 POP POP PUSH1 0x20 PUSH1 0x40 MLOAD DUP1 DUP4 SUB DUP2 PUSH1 0x0 DUP8 DUP1 EXTCODESIZE ISZERO DUP1 ISZERO PUSH2 0x12E JUMPI PUSH1 0x0 DUP1 REVERT JUMPDEST POP GAS CALL ISZERO DUP1 ISZERO PUSH2 0x142 JUMPI RETURNDATASIZE PUSH1 0x0 DUP1 RETURNDATACOPY RETURNDATASIZE PUSH1 0x0 REVERT JUMPDEST POP POP POP POP PUSH1 0x40 MLOAD RETURNDATASIZE PUSH1 0x20 DUP2 LT ISZERO PUSH2 0x158 JUMPI PUSH1 0x0 DUP1 REVERT JUMPDEST POP MLOAD SWAP1 POP DUP1 DUP3 GT ISZERO PUSH2 0x20A JUMPI DUP3 PUSH1 0x1 PUSH1 0x1 PUSH1 0xA0 SHL SUB AND PUSH4 0xE5974619 DUP3 DUP7 PUSH1 0x40 MLOAD DUP4 PUSH4 0xFFFFFFFF AND PUSH1 0xE0 SHL DUP2 MSTORE PUSH1 0x4 ADD DUP1 DUP3 PUSH1 0x1 PUSH1 0x1 PUSH1 0xA0 SHL SUB AND PUSH1 0x1 PUSH1 0x1 PUSH1 0xA0 SHL SUB AND DUP2 MSTORE PUSH1 0x20 ADD SWAP2 POP POP PUSH1 0x0 PUSH1 0x40 MLOAD DUP1 DUP4 SUB DUP2 DUP6 DUP9 DUP1 EXTCODESIZE ISZERO DUP1 ISZERO PUSH2 0x1BC JUMPI PUSH1 0x0 DUP1 REVERT JUMPDEST POP GAS CALL ISZERO DUP1 ISZERO PUSH2 0x1D0 JUMPI RETURNDATASIZE PUSH1 0x0 DUP1 RETURNDATACOPY RETURNDATASIZE PUSH1 0x0 REVERT JUMPDEST POP POP PUSH1 0x40 MLOAD CALLER SWAP4 POP DUP5 DUP7 SUB DUP1 ISZERO PUSH2 0x8FC MUL SWAP4 POP SWAP2 POP PUSH1 0x0 DUP2 DUP2 DUP2 DUP6 DUP9 DUP9 CALL SWAP4 POP POP POP POP ISZERO DUP1 ISZERO PUSH2 0x204 JUMPI RETURNDATASIZE PUSH1 0x0 DUP1 RETURNDATACOPY RETURNDATASIZE PUSH1 0x0 REVERT JUMPDEST POP PUSH2 0x27C JUMP JUMPDEST DUP3 PUSH1 0x1 PUSH1 0x1 PUSH1 0xA0 SHL SUB AND PUSH4 0xE5974619 DUP4 DUP7 PUSH1 0x40 MLOAD DUP4 PUSH4 0xFFFFFFFF AND PUSH1 0xE0 SHL DUP2 MSTORE PUSH1 0x4 ADD DUP1 DUP3 PUSH1 0x1 PUSH1 0x1 PUSH1 0xA0 SHL SUB AND PUSH1 0x1 PUSH1 0x1 PUSH1 0xA0 SHL SUB AND DUP2 MSTORE PUSH1 0x20 ADD SWAP2 POP POP PUSH1 0x0 PUSH1 0x40 MLOAD DUP1 DUP4 SUB DUP2 DUP6 DUP9 DUP1 EXTCODESIZE ISZERO DUP1 ISZERO PUSH2 0x262 JUMPI PUSH1 0x0 DUP1 REVERT JUMPDEST POP GAS CALL ISZERO DUP1 ISZERO PUSH2 0x276 JUMPI RETURNDATASIZE PUSH1 0x0 DUP1 RETURNDATACOPY RETURNDATASIZE PUSH1 0x0 REVERT JUMPDEST POP POP POP POP POP JUMPDEST POP POP POP POP JUMP JUMPDEST PUSH1 0x0 SLOAD PUSH2 0x299 SWAP1 DUP3 SWAP1 PUSH1 0x1 PUSH1 0x1 PUSH1 0xA0 SHL SUB AND PUSH2 0xCF JUMP JUMPDEST POP JUMP INVALID LOG2 PUSH6 0x627A7A723158 KECCAK256 0xD0 CALL 0x27 0xA9 STOP PUSH27 0x8C30124C5116F638E5E53217D8FFBBA84FC8CF61F9E6652D223D64 PUSH20 0x6F6C634300051100320000000000000000000000 "
    }
  },
  "humanReadableAbi": [
    "constructor(address cEther_)",
    "function cEther() view returns(address)",
    "function repayBehalf(address borrower) payable",
    "function repayBehalfExplicit(address borrower, address cEther_) payable"
  ]
}