{
  "_format": "hh-sol-artifact-1",
  "contractName": "MulWork",
  "sourceName": "contracts/MulWork.sol",
  "abi": [
    {
      "inputs": [
        {
          "internalType": "contract IERC721",
          "name": "_gpToken",
          "type": "address"
        },
        {
          "internalType": "contract IMulBank",
          "name": "_bank",
          "type": "address"
        }
      ],
      "stateMutability": "nonpayable",
      "type": "constructor"
    },
    {
      "anonymous": false,
      "inputs": [
        {
          "indexed": true,
          "internalType": "address",
          "name": "user",
          "type": "address"
        },
        {
          "indexed": false,
          "internalType": "uint256",
          "name": "tokenId",
          "type": "uint256"
        }
      ],
      "name": "AccountCreated",
      "type": "event"
    },
    {
      "anonymous": false,
      "inputs": [
        {
          "indexed": true,
          "internalType": "address",
          "name": "permission",
          "type": "address"
        }
      ],
      "name": "AddPermission",
      "type": "event"
    },
    {
      "anonymous": false,
      "inputs": [
        {
          "indexed": true,
          "internalType": "address",
          "name": "permission",
          "type": "address"
        }
      ],
      "name": "DelPermission",
      "type": "event"
    },
    {
      "anonymous": false,
      "inputs": [
        {
          "indexed": true,
          "internalType": "address",
          "name": "previousOwner",
          "type": "address"
        },
        {
          "indexed": true,
          "internalType": "address",
          "name": "newOwner",
          "type": "address"
        }
      ],
      "name": "OwnershipTransferred",
      "type": "event"
    },
    {
      "anonymous": false,
      "inputs": [
        {
          "indexed": true,
          "internalType": "address",
          "name": "token",
          "type": "address"
        },
        {
          "indexed": false,
          "internalType": "uint256",
          "name": "amount",
          "type": "uint256"
        }
      ],
      "name": "SetBaseQuota",
      "type": "event"
    },
    {
      "anonymous": false,
      "inputs": [
        {
          "indexed": true,
          "internalType": "address",
          "name": "user",
          "type": "address"
        },
        {
          "indexed": false,
          "internalType": "address",
          "name": "token",
          "type": "address"
        },
        {
          "indexed": false,
          "internalType": "int128",
          "name": "profit",
          "type": "int128"
        }
      ],
      "name": "Settle",
      "type": "event"
    },
    {
      "inputs": [],
      "name": "GPToken",
      "outputs": [
        {
          "internalType": "contract IERC721",
          "name": "",
          "type": "address"
        }
      ],
      "stateMutability": "view",
      "type": "function"
    },
    {
      "inputs": [],
      "name": "MAG",
      "outputs": [
        {
          "internalType": "uint256",
          "name": "",
          "type": "uint256"
        }
      ],
      "stateMutability": "view",
      "type": "function"
    },
    {
      "inputs": [
        {
          "internalType": "address",
          "name": "_addPermission",
          "type": "address"
        }
      ],
      "name": "addPermission",
      "outputs": [
        {
          "internalType": "bool",
          "name": "",
          "type": "bool"
        }
      ],
      "stateMutability": "nonpayable",
      "type": "function"
    },
    {
      "inputs": [],
      "name": "bank",
      "outputs": [
        {
          "internalType": "contract IMulBank",
          "name": "",
          "type": "address"
        }
      ],
      "stateMutability": "view",
      "type": "function"
    },
    {
      "inputs": [],
      "name": "basePercent",
      "outputs": [
        {
          "internalType": "uint256",
          "name": "",
          "type": "uint256"
        }
      ],
      "stateMutability": "view",
      "type": "function"
    },
    {
      "inputs": [
        {
          "internalType": "address",
          "name": "",
          "type": "address"
        }
      ],
      "name": "baseQuota",
      "outputs": [
        {
          "internalType": "uint256",
          "name": "",
          "type": "uint256"
        }
      ],
      "stateMutability": "view",
      "type": "function"
    },
    {
      "inputs": [],
      "name": "cntOfWorker",
      "outputs": [
        {
          "internalType": "uint256",
          "name": "",
          "type": "uint256"
        }
      ],
      "stateMutability": "view",
      "type": "function"
    },
    {
      "inputs": [
        {
          "internalType": "uint256",
          "name": "tokenId",
          "type": "uint256"
        }
      ],
      "name": "createAccount",
      "outputs": [],
      "stateMutability": "nonpayable",
      "type": "function"
    },
    {
      "inputs": [
        {
          "internalType": "address",
          "name": "_delPermission",
          "type": "address"
        }
      ],
      "name": "delPermission",
      "outputs": [
        {
          "internalType": "bool",
          "name": "",
          "type": "bool"
        }
      ],
      "stateMutability": "nonpayable",
      "type": "function"
    },
    {
      "inputs": [
        {
          "internalType": "uint256",
          "name": "_index",
          "type": "uint256"
        }
      ],
      "name": "getPermission",
      "outputs": [
        {
          "internalType": "address",
          "name": "",
          "type": "address"
        }
      ],
      "stateMutability": "view",
      "type": "function"
    },
    {
      "inputs": [],
      "name": "getPermissionLength",
      "outputs": [
        {
          "internalType": "uint256",
          "name": "",
          "type": "uint256"
        }
      ],
      "stateMutability": "view",
      "type": "function"
    },
    {
      "inputs": [
        {
          "internalType": "address",
          "name": "user",
          "type": "address"
        },
        {
          "internalType": "address",
          "name": "token",
          "type": "address"
        }
      ],
      "name": "getRemainQuota",
      "outputs": [
        {
          "internalType": "uint256",
          "name": "",
          "type": "uint256"
        }
      ],
      "stateMutability": "view",
      "type": "function"
    },
    {
      "inputs": [
        {
          "internalType": "address",
          "name": "account",
          "type": "address"
        }
      ],
      "name": "isPermission",
      "outputs": [
        {
          "internalType": "bool",
          "name": "",
          "type": "bool"
        }
      ],
      "stateMutability": "view",
      "type": "function"
    },
    {
      "inputs": [
        {
          "internalType": "address",
          "name": "",
          "type": "address"
        },
        {
          "internalType": "address",
          "name": "",
          "type": "address"
        },
        {
          "internalType": "uint256",
          "name": "",
          "type": "uint256"
        },
        {
          "internalType": "bytes",
          "name": "",
          "type": "bytes"
        }
      ],
      "name": "onERC721Received",
      "outputs": [
        {
          "internalType": "bytes4",
          "name": "",
          "type": "bytes4"
        }
      ],
      "stateMutability": "nonpayable",
      "type": "function"
    },
    {
      "inputs": [],
      "name": "owner",
      "outputs": [
        {
          "internalType": "address",
          "name": "",
          "type": "address"
        }
      ],
      "stateMutability": "view",
      "type": "function"
    },
    {
      "inputs": [
        {
          "internalType": "address",
          "name": "",
          "type": "address"
        },
        {
          "internalType": "address",
          "name": "",
          "type": "address"
        }
      ],
      "name": "profits",
      "outputs": [
        {
          "internalType": "int128",
          "name": "",
          "type": "int128"
        }
      ],
      "stateMutability": "view",
      "type": "function"
    },
    {
      "inputs": [],
      "name": "renounceOwnership",
      "outputs": [],
      "stateMutability": "nonpayable",
      "type": "function"
    },
    {
      "inputs": [
        {
          "internalType": "address[]",
          "name": "tokens",
          "type": "address[]"
        },
        {
          "internalType": "uint256[]",
          "name": "amounts",
          "type": "uint256[]"
        }
      ],
      "name": "setBaseQuota",
      "outputs": [],
      "stateMutability": "nonpayable",
      "type": "function"
    },
    {
      "inputs": [
        {
          "internalType": "address",
          "name": "user",
          "type": "address"
        },
        {
          "internalType": "address",
          "name": "token",
          "type": "address"
        },
        {
          "internalType": "int128",
          "name": "profit",
          "type": "int128"
        }
      ],
      "name": "settle",
      "outputs": [],
      "stateMutability": "nonpayable",
      "type": "function"
    },
    {
      "inputs": [
        {
          "internalType": "address",
          "name": "newOwner",
          "type": "address"
        }
      ],
      "name": "transferOwnership",
      "outputs": [],
      "stateMutability": "nonpayable",
      "type": "function"
    },
    {
      "inputs": [
        {
          "internalType": "address",
          "name": "newContract",
          "type": "address"
        },
        {
          "internalType": "uint256[]",
          "name": "tokenIds",
          "type": "uint256[]"
        }
      ],
      "name": "upgrade",
      "outputs": [],
      "stateMutability": "nonpayable",
      "type": "function"
    },
    {
      "inputs": [
        {
          "internalType": "address",
          "name": "",
          "type": "address"
        }
      ],
      "name": "workers",
      "outputs": [
        {
          "internalType": "bool",
          "name": "created",
          "type": "bool"
        },
        {
          "internalType": "uint256",
          "name": "totalProfit",
          "type": "uint256"
        },
        {
          "internalType": "uint256",
          "name": "createTime",
          "type": "uint256"
        },
        {
          "internalType": "uint256",
          "name": "lastWorkTime",
          "type": "uint256"
        },
        {
          "internalType": "uint256",
          "name": "workerId",
          "type": "uint256"
        }
      ],
      "stateMutability": "view",
      "type": "function"
    }
  ],
  "bytecode": "0x6080604052670de0b6b3a764000060095534801561001c57600080fd5b5060405161155c38038061155c8339818101604052604081101561003f57600080fd5b5080516020909101516000610052610167565b600080546001600160a01b0319166001600160a01b0383169081178255604051929350917f8be0079c531659141344cd1fd0a4f28419497f9722a3daafe3b4186f6b6457e0908290a3506001600160a01b0382166100e9576040805162461bcd60e51b815260206004820152600f60248201526e494e56414c49445f4144445245535360881b604482015290519081900360640190fd5b6001600160a01b038116610136576040805162461bcd60e51b815260206004820152600f60248201526e494e56414c49445f4144445245535360881b604482015290519081900360640190fd5b600380546001600160a01b039384166001600160a01b0319918216179091556004805492909316911617905561016b565b3390565b6113e28061017a6000396000f3fe608060405234801561001057600080fd5b50600436106101425760003560e01c806376cdb03b116100b8578063cab139151161007c578063cab1391514610567578063de83768d14610584578063e0faa9a2146105aa578063e5b03e5c146105d0578063f2fde38b146105fe578063ffb5e2761461062457610142565b806376cdb03b146104065780638d7ae3751461040e5780638da5cb5b14610531578063b1af99cf14610539578063c5ac0ded1461055f57610142565b80634d0a5dbd1161010a5780634d0a5dbd1461034b5780634ffc82ea146103855780635a604f8a1461038d57806367dd2f7d146103b1578063715018a6146103f657806374d3896d146103fe57610142565b80630587564114610147578063150b7a02146101fa5780634048a257146102a557806346783030146102f85780634c4be8a614610331575b600080fd5b6101f86004803603604081101561015d57600080fd5b6001600160a01b038235169190810190604081016020820135600160201b81111561018757600080fd5b82018360208201111561019957600080fd5b803590602001918460208302840111600160201b831117156101ba57600080fd5b919080806020026020016040519081016040528093929190818152602001838360200280828437600092019190915250929550610641945050505050565b005b6102886004803603608081101561021057600080fd5b6001600160a01b03823581169260208101359091169160408201359190810190608081016060820135600160201b81111561024a57600080fd5b82018360208201111561025c57600080fd5b803590602001918460018302840111600160201b8311171561027d57600080fd5b50909250905061075f565b604080516001600160e01b03199092168252519081900360200190f35b6102cb600480360360208110156102bb57600080fd5b50356001600160a01b0316610770565b60408051951515865260208601949094528484019290925260608401526080830152519081900360a00190f35b6101f86004803603606081101561030e57600080fd5b506001600160a01b03813581169160208101359091169060400135600f0b6107a3565b61033961089b565b60408051918252519081900360200190f35b6103716004803603602081101561036157600080fd5b50356001600160a01b03166108a7565b604080519115158252519081900360200190f35b610339610995565b6103956109a6565b604080516001600160a01b039092168252519081900360200190f35b6103df600480360360408110156103c757600080fd5b506001600160a01b03813581169160200135166109b5565b60408051600f9290920b8252519081900360200190f35b6101f86109d5565b610339610a81565b610395610a87565b6101f86004803603604081101561042457600080fd5b810190602081018135600160201b81111561043e57600080fd5b82018360208201111561045057600080fd5b803590602001918460208302840111600160201b8311171561047157600080fd5b9190808060200260200160405190810160405280939291908181526020018383602002808284376000920191909152509295949360208101935035915050600160201b8111156104c057600080fd5b8201836020820111156104d257600080fd5b803590602001918460208302840111600160201b831117156104f357600080fd5b919080806020026020016040519081016040528093929190818152602001838360200280828437600092019190915250929550610a96945050505050565b610395610bc8565b6103716004803603602081101561054f57600080fd5b50356001600160a01b0316610bd7565b610339610cbf565b6101f86004803603602081101561057d57600080fd5b5035610cc5565b6103396004803603602081101561059a57600080fd5b50356001600160a01b0316610e33565b610371600480360360208110156105c057600080fd5b50356001600160a01b0316610e45565b610339600480360360408110156105e657600080fd5b506001600160a01b0381358116916020013516610e52565b6101f86004803603602081101561061457600080fd5b50356001600160a01b0316610f2b565b6103956004803603602081101561063a57600080fd5b503561102d565b6106496110fb565b6001600160a01b031661065a610bc8565b6001600160a01b0316146106a3576040805162461bcd60e51b8152602060048201819052602482015260008051602061138d833981519152604482015290519081900360640190fd5b805160005b818110156107595760035483516001600160a01b03909116906342842e0e90309087908790869081106106d757fe5b60200260200101516040518463ffffffff1660e01b815260040180846001600160a01b03168152602001836001600160a01b031681526020018281526020019350505050600060405180830381600087803b15801561073557600080fd5b505af1158015610749573d6000803e3d6000fd5b5050600190920191506106a89050565b50505050565b630a85bd0160e11b95945050505050565b6005602052600090815260409020805460018201546002830154600384015460049094015460ff90931693919290919085565b6107ac33610e45565b6107fd576040805162461bcd60e51b815260206004820152601c60248201527f63616c6c6572206973206e6f7420746865207065726d697373696f6e00000000604482015290519081900360640190fd5b6001600160a01b0383811660008181526006602090815260408083209487168084529482529182902080546fffffffffffffffffffffffffffffffff1981166fffffffffffffffffffffffffffffffff600f92830b8901830b1617909155825194855285900b90840152805191927f90c143b0bd980bf201d8470a79b91a7568e5761f47dfbea58c356273ba7f75b7929081900390910190a2505050565b670de0b6b3a764000081565b60006108b16110fb565b6001600160a01b03166108c2610bc8565b6001600160a01b03161461090b576040805162461bcd60e51b8152602060048201819052602482015260008051602061138d833981519152604482015290519081900360640190fd5b6001600160a01b0382166109505760405162461bcd60e51b815260040180806020018281038252602c8152602001806112ed602c913960400191505060405180910390fd5b6040516001600160a01b038316907fd8dc9578ceae094520aff2ba139a77dd24473034f8dbc74d85f6b02768c3377990600090a261098f6001836110ff565b92915050565b60006109a1600161111b565b905090565b6003546001600160a01b031681565b6006602090815260009283526040808420909152908252902054600f0b81565b6109dd6110fb565b6001600160a01b03166109ee610bc8565b6001600160a01b031614610a37576040805162461bcd60e51b8152602060048201819052602482015260008051602061138d833981519152604482015290519081900360640190fd5b600080546040516001600160a01b03909116907f8be0079c531659141344cd1fd0a4f28419497f9722a3daafe3b4186f6b6457e0908390a3600080546001600160a01b0319169055565b60085481565b6004546001600160a01b031681565b610a9e6110fb565b6001600160a01b0316610aaf610bc8565b6001600160a01b031614610af8576040805162461bcd60e51b8152602060048201819052602482015260008051602061138d833981519152604482015290519081900360640190fd5b60005b8251811015610bc357818181518110610b1057fe5b602002602001015160076000858481518110610b2857fe5b60200260200101516001600160a01b03166001600160a01b0316815260200190815260200160002081905550828181518110610b6057fe5b60200260200101516001600160a01b03167f0482cc9ffeaa5452a85748de82a8a022ee94e56ad2defaa2356aa4c98a3f6969838381518110610b9e57fe5b60200260200101516040518082815260200191505060405180910390a2600101610afb565b505050565b6000546001600160a01b031690565b6000610be16110fb565b6001600160a01b0316610bf2610bc8565b6001600160a01b031614610c3b576040805162461bcd60e51b8152602060048201819052602482015260008051602061138d833981519152604482015290519081900360640190fd5b6001600160a01b038216610c805760405162461bcd60e51b815260040180806020018281038252602c815260200180611361602c913960400191505060405180910390fd5b6040516001600160a01b038316907ff63eb610adad478002288c0957a6037ba30c916a12eb8b9fc01fed014f1dc15790600090a261098f600183611126565b60095481565b3360009081526005602052604090205460ff1615610d1c576040805162461bcd60e51b815260206004820152600f60248201526e105314915051164810d49150551151608a1b604482015290519081900360640190fd5b60035460408051632142170760e11b81523360048201523060248201526044810184905290516001600160a01b03909216916342842e0e9160648082019260009290919082900301818387803b158015610d7557600080fd5b505af1158015610d89573d6000803e3d6000fd5b5050600880546001908101918290556040805160a081018252828152600060208083018281524384860190815260608501848152608086019889523380865260058552948790209551865460ff191690151517865591519685019690965594516002840155935160038301559351600490910155805186815290519294507f7325fb14450d3e5eb288c620b4ff1d6b43a41b33b4a4f143ae88cd4c12f99ea393508290030190a250565b60076020526000908152604090205481565b600061098f60018361113b565b6001600160a01b0382166000908152600560209081526040808320815160a081018352815460ff1615158082526001830154948201949094526002820154928101929092526003810154606083015260040154608082015290610eb957600091505061098f565b6001600160a01b038085166000908152600660209081526040808320938716835292815282822054600790915291812054600f92830b92908301900b8112610f02576000610f1e565b6001600160a01b03851660009081526007602052604090205482015b600f0b9695505050505050565b610f336110fb565b6001600160a01b0316610f44610bc8565b6001600160a01b031614610f8d576040805162461bcd60e51b8152602060048201819052602482015260008051602061138d833981519152604482015290519081900360640190fd5b6001600160a01b038116610fd25760405162461bcd60e51b815260040180806020018281038252602681526020018061133b6026913960400191505060405180910390fd5b600080546040516001600160a01b03808516939216917f8be0079c531659141344cd1fd0a4f28419497f9722a3daafe3b4186f6b6457e091a3600080546001600160a01b0319166001600160a01b0392909216919091179055565b60006110376110fb565b6001600160a01b0316611048610bc8565b6001600160a01b031614611091576040805162461bcd60e51b8152602060048201819052602482015260008051602061138d833981519152604482015290519081900360640190fd5b600161109b610995565b038211156110f0576040805162461bcd60e51b815260206004820152601d60248201527f4d756c7469706c653a20696e646578206f7574206f6620626f756e6473000000604482015290519081900360640190fd5b61098f600183611150565b3390565b6000611114836001600160a01b03841661115c565b9392505050565b600061098f826111a6565b6000611114836001600160a01b0384166111aa565b6000611114836001600160a01b038416611270565b60006111148383611288565b60006111688383611270565b61119e5750815460018181018455600084815260208082209093018490558454848252828601909352604090209190915561098f565b50600061098f565b5490565b6000818152600183016020526040812054801561126657835460001980830191908101906000908790839081106111dd57fe5b90600052602060002001549050808760000184815481106111fa57fe5b60009182526020808320909101929092558281526001898101909252604090209084019055865487908061122a57fe5b6001900381819060005260206000200160009055905586600101600087815260200190815260200160002060009055600194505050505061098f565b600091505061098f565b60009081526001919091016020526040902054151590565b815460009082106112ca5760405162461bcd60e51b81526004018080602001828103825260228152602001806113196022913960400191505060405180910390fd5b8260000182815481106112d957fe5b906000526020600020015490509291505056fe4d756c7469706c653a205f6164645065726d697373696f6e20697320746865207a65726f2061646472657373456e756d657261626c655365743a20696e646578206f7574206f6620626f756e64734f776e61626c653a206e6577206f776e657220697320746865207a65726f20616464726573734d756c7469706c653a205f64656c5065726d697373696f6e20697320746865207a65726f20616464726573734f776e61626c653a2063616c6c6572206973206e6f7420746865206f776e6572a2646970667358221220f74b3ca24996be6c5d717b1f5ad292c90f90ebf7ab979c9fd1ae991b7f18590564736f6c63430007060033",
  "linkReferences": {},
  "deployedLinkReferences": {}
}