{
  "_format": "hh-sol-artifact-1",
  "contractName": "MulWork",
  "sourceName": "contracts/MulWork.sol",
  "abi": [
    {
      "inputs": [
        {
          "internalType": "contract IERC721",
          "name": "_gpToken",
          "type": "address"
        },
        {
          "internalType": "contract IMulBank",
          "name": "_bank",
          "type": "address"
        }
      ],
      "stateMutability": "nonpayable",
      "type": "constructor"
    },
    {
      "anonymous": false,
      "inputs": [
        {
          "indexed": true,
          "internalType": "address",
          "name": "user",
          "type": "address"
        },
        {
          "indexed": false,
          "internalType": "uint256",
          "name": "tokenId",
          "type": "uint256"
        }
      ],
      "name": "AccountCreated",
      "type": "event"
    },
    {
      "anonymous": false,
      "inputs": [
        {
          "indexed": true,
          "internalType": "address",
          "name": "permission",
          "type": "address"
        }
      ],
      "name": "AddPermission",
      "type": "event"
    },
    {
      "anonymous": false,
      "inputs": [
        {
          "indexed": true,
          "internalType": "address",
          "name": "permission",
          "type": "address"
        }
      ],
      "name": "DelPermission",
      "type": "event"
    },
    {
      "anonymous": false,
      "inputs": [
        {
          "indexed": true,
          "internalType": "address",
          "name": "previousOwner",
          "type": "address"
        },
        {
          "indexed": true,
          "internalType": "address",
          "name": "newOwner",
          "type": "address"
        }
      ],
      "name": "OwnershipTransferred",
      "type": "event"
    },
    {
      "anonymous": false,
      "inputs": [
        {
          "indexed": true,
          "internalType": "address",
          "name": "token",
          "type": "address"
        },
        {
          "indexed": false,
          "internalType": "uint256",
          "name": "amount",
          "type": "uint256"
        }
      ],
      "name": "SetBaseQuota",
      "type": "event"
    },
    {
      "anonymous": false,
      "inputs": [
        {
          "indexed": false,
          "internalType": "address",
          "name": "worker",
          "type": "address"
        },
        {
          "indexed": true,
          "internalType": "address",
          "name": "token",
          "type": "address"
        },
        {
          "indexed": false,
          "internalType": "int128",
          "name": "amount",
          "type": "int128"
        }
      ],
      "name": "SetExtraQuota",
      "type": "event"
    },
    {
      "anonymous": false,
      "inputs": [
        {
          "indexed": true,
          "internalType": "address",
          "name": "user",
          "type": "address"
        },
        {
          "indexed": false,
          "internalType": "address",
          "name": "token",
          "type": "address"
        },
        {
          "indexed": false,
          "internalType": "int128",
          "name": "profit",
          "type": "int128"
        }
      ],
      "name": "Settle",
      "type": "event"
    },
    {
      "inputs": [],
      "name": "GPToken",
      "outputs": [
        {
          "internalType": "contract IERC721",
          "name": "",
          "type": "address"
        }
      ],
      "stateMutability": "view",
      "type": "function"
    },
    {
      "inputs": [],
      "name": "MAG",
      "outputs": [
        {
          "internalType": "uint256",
          "name": "",
          "type": "uint256"
        }
      ],
      "stateMutability": "view",
      "type": "function"
    },
    {
      "inputs": [
        {
          "internalType": "address",
          "name": "_addPermission",
          "type": "address"
        }
      ],
      "name": "addPermission",
      "outputs": [
        {
          "internalType": "bool",
          "name": "",
          "type": "bool"
        }
      ],
      "stateMutability": "nonpayable",
      "type": "function"
    },
    {
      "inputs": [],
      "name": "bank",
      "outputs": [
        {
          "internalType": "contract IMulBank",
          "name": "",
          "type": "address"
        }
      ],
      "stateMutability": "view",
      "type": "function"
    },
    {
      "inputs": [
        {
          "internalType": "address",
          "name": "",
          "type": "address"
        }
      ],
      "name": "baseQuota",
      "outputs": [
        {
          "internalType": "uint256",
          "name": "",
          "type": "uint256"
        }
      ],
      "stateMutability": "view",
      "type": "function"
    },
    {
      "inputs": [],
      "name": "cntOfWorker",
      "outputs": [
        {
          "internalType": "uint256",
          "name": "",
          "type": "uint256"
        }
      ],
      "stateMutability": "view",
      "type": "function"
    },
    {
      "inputs": [
        {
          "internalType": "uint256",
          "name": "tokenId",
          "type": "uint256"
        }
      ],
      "name": "createAccount",
      "outputs": [],
      "stateMutability": "nonpayable",
      "type": "function"
    },
    {
      "inputs": [
        {
          "internalType": "address",
          "name": "_delPermission",
          "type": "address"
        }
      ],
      "name": "delPermission",
      "outputs": [
        {
          "internalType": "bool",
          "name": "",
          "type": "bool"
        }
      ],
      "stateMutability": "nonpayable",
      "type": "function"
    },
    {
      "inputs": [
        {
          "internalType": "address",
          "name": "",
          "type": "address"
        }
      ],
      "name": "extraQuota",
      "outputs": [
        {
          "internalType": "int128",
          "name": "",
          "type": "int128"
        }
      ],
      "stateMutability": "view",
      "type": "function"
    },
    {
      "inputs": [
        {
          "internalType": "uint256",
          "name": "_index",
          "type": "uint256"
        }
      ],
      "name": "getPermission",
      "outputs": [
        {
          "internalType": "address",
          "name": "",
          "type": "address"
        }
      ],
      "stateMutability": "view",
      "type": "function"
    },
    {
      "inputs": [],
      "name": "getPermissionLength",
      "outputs": [
        {
          "internalType": "uint256",
          "name": "",
          "type": "uint256"
        }
      ],
      "stateMutability": "view",
      "type": "function"
    },
    {
      "inputs": [
        {
          "internalType": "address",
          "name": "user",
          "type": "address"
        },
        {
          "internalType": "address",
          "name": "token",
          "type": "address"
        }
      ],
      "name": "getRemainQuota",
      "outputs": [
        {
          "internalType": "uint256",
          "name": "",
          "type": "uint256"
        }
      ],
      "stateMutability": "view",
      "type": "function"
    },
    {
      "inputs": [
        {
          "internalType": "address",
          "name": "account",
          "type": "address"
        }
      ],
      "name": "isPermission",
      "outputs": [
        {
          "internalType": "bool",
          "name": "",
          "type": "bool"
        }
      ],
      "stateMutability": "view",
      "type": "function"
    },
    {
      "inputs": [
        {
          "internalType": "address",
          "name": "",
          "type": "address"
        },
        {
          "internalType": "address",
          "name": "",
          "type": "address"
        },
        {
          "internalType": "uint256",
          "name": "",
          "type": "uint256"
        },
        {
          "internalType": "bytes",
          "name": "",
          "type": "bytes"
        }
      ],
      "name": "onERC721Received",
      "outputs": [
        {
          "internalType": "bytes4",
          "name": "",
          "type": "bytes4"
        }
      ],
      "stateMutability": "nonpayable",
      "type": "function"
    },
    {
      "inputs": [],
      "name": "owner",
      "outputs": [
        {
          "internalType": "address",
          "name": "",
          "type": "address"
        }
      ],
      "stateMutability": "view",
      "type": "function"
    },
    {
      "inputs": [
        {
          "internalType": "address",
          "name": "",
          "type": "address"
        },
        {
          "internalType": "address",
          "name": "",
          "type": "address"
        }
      ],
      "name": "profits",
      "outputs": [
        {
          "internalType": "int128",
          "name": "",
          "type": "int128"
        }
      ],
      "stateMutability": "view",
      "type": "function"
    },
    {
      "inputs": [],
      "name": "renounceOwnership",
      "outputs": [],
      "stateMutability": "nonpayable",
      "type": "function"
    },
    {
      "inputs": [
        {
          "internalType": "address[]",
          "name": "tokens",
          "type": "address[]"
        },
        {
          "internalType": "uint256[]",
          "name": "amounts",
          "type": "uint256[]"
        }
      ],
      "name": "setBaseQuota",
      "outputs": [],
      "stateMutability": "nonpayable",
      "type": "function"
    },
    {
      "inputs": [
        {
          "internalType": "address",
          "name": "worker",
          "type": "address"
        },
        {
          "internalType": "address[]",
          "name": "tokens",
          "type": "address[]"
        },
        {
          "internalType": "int128[]",
          "name": "amounts",
          "type": "int128[]"
        }
      ],
      "name": "setExtraQuota",
      "outputs": [],
      "stateMutability": "nonpayable",
      "type": "function"
    },
    {
      "inputs": [
        {
          "internalType": "address",
          "name": "user",
          "type": "address"
        },
        {
          "internalType": "address",
          "name": "token",
          "type": "address"
        },
        {
          "internalType": "int128",
          "name": "profit",
          "type": "int128"
        }
      ],
      "name": "settle",
      "outputs": [],
      "stateMutability": "nonpayable",
      "type": "function"
    },
    {
      "inputs": [
        {
          "internalType": "address",
          "name": "newOwner",
          "type": "address"
        }
      ],
      "name": "transferOwnership",
      "outputs": [],
      "stateMutability": "nonpayable",
      "type": "function"
    },
    {
      "inputs": [
        {
          "internalType": "address",
          "name": "newContract",
          "type": "address"
        },
        {
          "internalType": "uint256[]",
          "name": "tokenIds",
          "type": "uint256[]"
        }
      ],
      "name": "upgrade",
      "outputs": [],
      "stateMutability": "nonpayable",
      "type": "function"
    },
    {
      "inputs": [
        {
          "internalType": "address",
          "name": "",
          "type": "address"
        }
      ],
      "name": "workers",
      "outputs": [
        {
          "internalType": "bool",
          "name": "created",
          "type": "bool"
        },
        {
          "internalType": "uint256",
          "name": "totalProfit",
          "type": "uint256"
        },
        {
          "internalType": "uint256",
          "name": "createTime",
          "type": "uint256"
        },
        {
          "internalType": "uint256",
          "name": "lastWorkTime",
          "type": "uint256"
        },
        {
          "internalType": "uint256",
          "name": "workerId",
          "type": "uint256"
        }
      ],
      "stateMutability": "view",
      "type": "function"
    }
  ],
  "bytecode": "0x608060405234801561001057600080fd5b5060405161180b38038061180b8339818101604052604081101561003357600080fd5b508051602090910151600061004661015b565b600080546001600160a01b0319166001600160a01b0383169081178255604051929350917f8be0079c531659141344cd1fd0a4f28419497f9722a3daafe3b4186f6b6457e0908290a3506001600160a01b0382166100dd576040805162461bcd60e51b815260206004820152600f60248201526e494e56414c49445f4144445245535360881b604482015290519081900360640190fd5b6001600160a01b03811661012a576040805162461bcd60e51b815260206004820152600f60248201526e494e56414c49445f4144445245535360881b604482015290519081900360640190fd5b600380546001600160a01b039384166001600160a01b0319918216179091556004805492909316911617905561015f565b3390565b61169d8061016e6000396000f3fe608060405234801561001057600080fd5b506004361061014d5760003560e01c806374d3896d116100c3578063cab139151161007c578063cab13915146106c3578063de83768d146106e0578063e0faa9a214610706578063e5b03e5c1461072c578063f2fde38b1461075a578063ffb5e276146107805761014d565b806374d3896d1461053c57806376cdb03b146105445780638d7ae3751461054c5780638da5cb5b1461066f578063a855023014610677578063b1af99cf1461069d5761014d565b80634d0a5dbd116101155780634d0a5dbd146103565780634d879376146103905780634ffc82ea146104c35780635a604f8a146104cb57806367dd2f7d146104ef578063715018a6146105345761014d565b80630587564114610152578063150b7a02146102055780634048a257146102b057806346783030146103035780634c4be8a61461033c575b600080fd5b6102036004803603604081101561016857600080fd5b6001600160a01b038235169190810190604081016020820135600160201b81111561019257600080fd5b8201836020820111156101a457600080fd5b803590602001918460208302840111600160201b831117156101c557600080fd5b91908080602002602001604051908101604052809392919081815260200183836020028082843760009201919091525092955061079d945050505050565b005b6102936004803603608081101561021b57600080fd5b6001600160a01b03823581169260208101359091169160408201359190810190608081016060820135600160201b81111561025557600080fd5b82018360208201111561026757600080fd5b803590602001918460018302840111600160201b8311171561028857600080fd5b5090925090506108bb565b604080516001600160e01b03199092168252519081900360200190f35b6102d6600480360360208110156102c657600080fd5b50356001600160a01b03166108cc565b60408051951515865260208601949094528484019290925260608401526080830152519081900360a00190f35b6102036004803603606081101561031957600080fd5b506001600160a01b03813581169160208101359091169060400135600f0b6108ff565b6103446109ee565b60408051918252519081900360200190f35b61037c6004803603602081101561036c57600080fd5b50356001600160a01b03166109fa565b604080519115158252519081900360200190f35b610203600480360360608110156103a657600080fd5b6001600160a01b038235169190810190604081016020820135600160201b8111156103d057600080fd5b8201836020820111156103e257600080fd5b803590602001918460208302840111600160201b8311171561040357600080fd5b9190808060200260200160405190810160405280939291908181526020018383602002808284376000920191909152509295949360208101935035915050600160201b81111561045257600080fd5b82018360208201111561046457600080fd5b803590602001918460208302840111600160201b8311171561048557600080fd5b919080806020026020016040519081016040528093929190818152602001838360200280828437600092019190915250929550610ae8945050505050565b610344610c4c565b6104d3610c5d565b604080516001600160a01b039092168252519081900360200190f35b61051d6004803603604081101561050557600080fd5b506001600160a01b0381358116916020013516610c6c565b60408051600f9290920b8252519081900360200190f35b610203610c8c565b610344610d38565b6104d3610d3e565b6102036004803603604081101561056257600080fd5b810190602081018135600160201b81111561057c57600080fd5b82018360208201111561058e57600080fd5b803590602001918460208302840111600160201b831117156105af57600080fd5b9190808060200260200160405190810160405280939291908181526020018383602002808284376000920191909152509295949360208101935035915050600160201b8111156105fe57600080fd5b82018360208201111561061057600080fd5b803590602001918460208302840111600160201b8311171561063157600080fd5b919080806020026020016040519081016040528093929190818152602001838360200280828437600092019190915250929550610d4d945050505050565b6104d3610e7f565b61051d6004803603602081101561068d57600080fd5b50356001600160a01b0316610e8e565b61037c600480360360208110156106b357600080fd5b50356001600160a01b0316610ea3565b610203600480360360208110156106d957600080fd5b5035610f8b565b610344600480360360208110156106f657600080fd5b50356001600160a01b03166110f9565b61037c6004803603602081101561071c57600080fd5b50356001600160a01b031661110b565b6103446004803603604081101561074257600080fd5b506001600160a01b0381358116916020013516611118565b6102036004803603602081101561077057600080fd5b50356001600160a01b03166111e6565b6104d36004803603602081101561079657600080fd5b50356112e8565b6107a56113b6565b6001600160a01b03166107b6610e7f565b6001600160a01b0316146107ff576040805162461bcd60e51b81526020600482018190526024820152600080516020611648833981519152604482015290519081900360640190fd5b805160005b818110156108b55760035483516001600160a01b03909116906342842e0e903090879087908690811061083357fe5b60200260200101516040518463ffffffff1660e01b815260040180846001600160a01b03168152602001836001600160a01b031681526020018281526020019350505050600060405180830381600087803b15801561089157600080fd5b505af11580156108a5573d6000803e3d6000fd5b5050600190920191506108049050565b50505050565b630a85bd0160e11b95945050505050565b6005602052600090815260409020805460018201546002830154600384015460049094015460ff90931693919290919085565b6109083361110b565b610959576040805162461bcd60e51b815260206004820152601c60248201527f63616c6c6572206973206e6f7420746865207065726d697373696f6e00000000604482015290519081900360640190fd5b6001600160a01b0383811660008181526006602090815260408083209487168084529482529182902080546fffffffffffffffffffffffffffffffff1981166001600160801b03600f92830b8901830b1617909155825194855285900b90840152805191927f90c143b0bd980bf201d8470a79b91a7568e5761f47dfbea58c356273ba7f75b7929081900390910190a2505050565b670de0b6b3a764000081565b6000610a046113b6565b6001600160a01b0316610a15610e7f565b6001600160a01b031614610a5e576040805162461bcd60e51b81526020600482018190526024820152600080516020611648833981519152604482015290519081900360640190fd5b6001600160a01b038216610aa35760405162461bcd60e51b815260040180806020018281038252602c8152602001806115a8602c913960400191505060405180910390fd5b6040516001600160a01b038316907fd8dc9578ceae094520aff2ba139a77dd24473034f8dbc74d85f6b02768c3377990600090a2610ae26001836113ba565b92915050565b610af06113b6565b6001600160a01b0316610b01610e7f565b6001600160a01b031614610b4a576040805162461bcd60e51b81526020600482018190526024820152600080516020611648833981519152604482015290519081900360640190fd5b60005b82518110156108b557818181518110610b6257fe5b602002602001015160086000858481518110610b7a57fe5b60200260200101516001600160a01b03166001600160a01b0316815260200190815260200160002060006101000a8154816001600160801b030219169083600f0b6001600160801b03160217905550828181518110610bd557fe5b60200260200101516001600160a01b03167f5f4ff88251ddfae35decc81c48e140c16b51550462616e40f9c29ff363b8512785848481518110610c1457fe5b602002602001015160405180836001600160a01b0316815260200182600f0b81526020019250505060405180910390a2600101610b4d565b6000610c5860016113d6565b905090565b6003546001600160a01b031681565b6006602090815260009283526040808420909152908252902054600f0b81565b610c946113b6565b6001600160a01b0316610ca5610e7f565b6001600160a01b031614610cee576040805162461bcd60e51b81526020600482018190526024820152600080516020611648833981519152604482015290519081900360640190fd5b600080546040516001600160a01b03909116907f8be0079c531659141344cd1fd0a4f28419497f9722a3daafe3b4186f6b6457e0908390a3600080546001600160a01b0319169055565b60095481565b6004546001600160a01b031681565b610d556113b6565b6001600160a01b0316610d66610e7f565b6001600160a01b031614610daf576040805162461bcd60e51b81526020600482018190526024820152600080516020611648833981519152604482015290519081900360640190fd5b60005b8251811015610e7a57818181518110610dc757fe5b602002602001015160076000858481518110610ddf57fe5b60200260200101516001600160a01b03166001600160a01b0316815260200190815260200160002081905550828181518110610e1757fe5b60200260200101516001600160a01b03167f0482cc9ffeaa5452a85748de82a8a022ee94e56ad2defaa2356aa4c98a3f6969838381518110610e5557fe5b60200260200101516040518082815260200191505060405180910390a2600101610db2565b505050565b6000546001600160a01b031690565b600860205260009081526040902054600f0b81565b6000610ead6113b6565b6001600160a01b0316610ebe610e7f565b6001600160a01b031614610f07576040805162461bcd60e51b81526020600482018190526024820152600080516020611648833981519152604482015290519081900360640190fd5b6001600160a01b038216610f4c5760405162461bcd60e51b815260040180806020018281038252602c81526020018061161c602c913960400191505060405180910390fd5b6040516001600160a01b038316907ff63eb610adad478002288c0957a6037ba30c916a12eb8b9fc01fed014f1dc15790600090a2610ae26001836113e1565b3360009081526005602052604090205460ff1615610fe2576040805162461bcd60e51b815260206004820152600f60248201526e105314915051164810d49150551151608a1b604482015290519081900360640190fd5b60035460408051632142170760e11b81523360048201523060248201526044810184905290516001600160a01b03909216916342842e0e9160648082019260009290919082900301818387803b15801561103b57600080fd5b505af115801561104f573d6000803e3d6000fd5b5050600980546001908101918290556040805160a081018252828152600060208083018281524384860190815260608501848152608086019889523380865260058552948790209551865460ff191690151517865591519685019690965594516002840155935160038301559351600490910155805186815290519294507f7325fb14450d3e5eb288c620b4ff1d6b43a41b33b4a4f143ae88cd4c12f99ea393508290030190a250565b60076020526000908152604090205481565b6000610ae26001836113f6565b6001600160a01b0382166000908152600560209081526040808320815160a081018352815460ff161515808252600183015494820194909452600282015492810192909252600381015460608301526004015460808201529061117f576000915050610ae2565b6001600160a01b0380851660009081526006602090815260408083209387168352928152828220546008825283832054600790925292822054600f93840b9391820b019182840190910b136111d55760006111d9565b8181015b600f0b9695505050505050565b6111ee6113b6565b6001600160a01b03166111ff610e7f565b6001600160a01b031614611248576040805162461bcd60e51b81526020600482018190526024820152600080516020611648833981519152604482015290519081900360640190fd5b6001600160a01b03811661128d5760405162461bcd60e51b81526004018080602001828103825260268152602001806115f66026913960400191505060405180910390fd5b600080546040516001600160a01b03808516939216917f8be0079c531659141344cd1fd0a4f28419497f9722a3daafe3b4186f6b6457e091a3600080546001600160a01b0319166001600160a01b0392909216919091179055565b60006112f26113b6565b6001600160a01b0316611303610e7f565b6001600160a01b03161461134c576040805162461bcd60e51b81526020600482018190526024820152600080516020611648833981519152604482015290519081900360640190fd5b6001611356610c4c565b038211156113ab576040805162461bcd60e51b815260206004820152601d60248201527f4d756c7469706c653a20696e646578206f7574206f6620626f756e6473000000604482015290519081900360640190fd5b610ae260018361140b565b3390565b60006113cf836001600160a01b038416611417565b9392505050565b6000610ae282611461565b60006113cf836001600160a01b038416611465565b60006113cf836001600160a01b03841661152b565b60006113cf8383611543565b6000611423838361152b565b61145957508154600181810184556000848152602080822090930184905584548482528286019093526040902091909155610ae2565b506000610ae2565b5490565b60008181526001830160205260408120548015611521578354600019808301919081019060009087908390811061149857fe5b90600052602060002001549050808760000184815481106114b557fe5b6000918252602080832090910192909255828152600189810190925260409020908401905586548790806114e557fe5b60019003818190600052602060002001600090559055866001016000878152602001908152602001600020600090556001945050505050610ae2565b6000915050610ae2565b60009081526001919091016020526040902054151590565b815460009082106115855760405162461bcd60e51b81526004018080602001828103825260228152602001806115d46022913960400191505060405180910390fd5b82600001828154811061159457fe5b906000526020600020015490509291505056fe4d756c7469706c653a205f6164645065726d697373696f6e20697320746865207a65726f2061646472657373456e756d657261626c655365743a20696e646578206f7574206f6620626f756e64734f776e61626c653a206e6577206f776e657220697320746865207a65726f20616464726573734d756c7469706c653a205f64656c5065726d697373696f6e20697320746865207a65726f20616464726573734f776e61626c653a2063616c6c6572206973206e6f7420746865206f776e6572a26469706673582212201594f40ba266ff95e8ea18ab19162c119cf0b218abb06d369c2f5971818fe39d64736f6c63430007060033",
  "linkReferences": {},
  "deployedLinkReferences": {}
}