{
  "_format": "hh-sol-artifact-1",
  "contractName": "Permission",
  "sourceName": "contracts/base/Permission.sol",
  "abi": [
    {
      "anonymous": false,
      "inputs": [
        {
          "indexed": true,
          "internalType": "address",
          "name": "permission",
          "type": "address"
        }
      ],
      "name": "AddPermission",
      "type": "event"
    },
    {
      "anonymous": false,
      "inputs": [
        {
          "indexed": true,
          "internalType": "address",
          "name": "permission",
          "type": "address"
        }
      ],
      "name": "DelPermission",
      "type": "event"
    },
    {
      "anonymous": false,
      "inputs": [
        {
          "indexed": true,
          "internalType": "address",
          "name": "previousOwner",
          "type": "address"
        },
        {
          "indexed": true,
          "internalType": "address",
          "name": "newOwner",
          "type": "address"
        }
      ],
      "name": "OwnershipTransferred",
      "type": "event"
    },
    {
      "inputs": [
        {
          "internalType": "address",
          "name": "_addPermission",
          "type": "address"
        }
      ],
      "name": "addPermission",
      "outputs": [
        {
          "internalType": "bool",
          "name": "",
          "type": "bool"
        }
      ],
      "stateMutability": "nonpayable",
      "type": "function"
    },
    {
      "inputs": [
        {
          "internalType": "address",
          "name": "_delPermission",
          "type": "address"
        }
      ],
      "name": "delPermission",
      "outputs": [
        {
          "internalType": "bool",
          "name": "",
          "type": "bool"
        }
      ],
      "stateMutability": "nonpayable",
      "type": "function"
    },
    {
      "inputs": [
        {
          "internalType": "uint256",
          "name": "_index",
          "type": "uint256"
        }
      ],
      "name": "getPermission",
      "outputs": [
        {
          "internalType": "address",
          "name": "",
          "type": "address"
        }
      ],
      "stateMutability": "view",
      "type": "function"
    },
    {
      "inputs": [],
      "name": "getPermissionLength",
      "outputs": [
        {
          "internalType": "uint256",
          "name": "",
          "type": "uint256"
        }
      ],
      "stateMutability": "view",
      "type": "function"
    },
    {
      "inputs": [
        {
          "internalType": "address",
          "name": "account",
          "type": "address"
        }
      ],
      "name": "isPermission",
      "outputs": [
        {
          "internalType": "bool",
          "name": "",
          "type": "bool"
        }
      ],
      "stateMutability": "view",
      "type": "function"
    },
    {
      "inputs": [],
      "name": "owner",
      "outputs": [
        {
          "internalType": "address",
          "name": "",
          "type": "address"
        }
      ],
      "stateMutability": "view",
      "type": "function"
    },
    {
      "inputs": [],
      "name": "renounceOwnership",
      "outputs": [],
      "stateMutability": "nonpayable",
      "type": "function"
    },
    {
      "inputs": [
        {
          "internalType": "address",
          "name": "newOwner",
          "type": "address"
        }
      ],
      "name": "transferOwnership",
      "outputs": [],
      "stateMutability": "nonpayable",
      "type": "function"
    }
  ],
  "bytecode": "0x608060405234801561001057600080fd5b50600061001b61006a565b600080546001600160a01b0319166001600160a01b0383169081178255604051929350917f8be0079c531659141344cd1fd0a4f28419497f9722a3daafe3b4186f6b6457e0908290a35061006e565b3390565b6109048061007d6000396000f3fe608060405234801561001057600080fd5b50600436106100885760003560e01c8063b1af99cf1161005b578063b1af99cf1461010f578063e0faa9a214610135578063f2fde38b1461015b578063ffb5e2761461018157610088565b80634d0a5dbd1461008d5780634ffc82ea146100c7578063715018a6146100e15780638da5cb5b146100eb575b600080fd5b6100b3600480360360208110156100a357600080fd5b50356001600160a01b031661019e565b604080519115158252519081900360200190f35b6100cf61028c565b60408051918252519081900360200190f35b6100e961029d565b005b6100f3610349565b604080516001600160a01b039092168252519081900360200190f35b6100b36004803603602081101561012557600080fd5b50356001600160a01b0316610358565b6100b36004803603602081101561014b57600080fd5b50356001600160a01b0316610440565b6100e96004803603602081101561017157600080fd5b50356001600160a01b031661044d565b6100f36004803603602081101561019757600080fd5b503561054f565b60006101a861061d565b6001600160a01b03166101b9610349565b6001600160a01b031614610202576040805162461bcd60e51b815260206004820181905260248201526000805160206108af833981519152604482015290519081900360640190fd5b6001600160a01b0382166102475760405162461bcd60e51b815260040180806020018281038252602c81526020018061080f602c913960400191505060405180910390fd5b6040516001600160a01b038316907fd8dc9578ceae094520aff2ba139a77dd24473034f8dbc74d85f6b02768c3377990600090a2610286600183610621565b92915050565b6000610298600161063d565b905090565b6102a561061d565b6001600160a01b03166102b6610349565b6001600160a01b0316146102ff576040805162461bcd60e51b815260206004820181905260248201526000805160206108af833981519152604482015290519081900360640190fd5b600080546040516001600160a01b03909116907f8be0079c531659141344cd1fd0a4f28419497f9722a3daafe3b4186f6b6457e0908390a3600080546001600160a01b0319169055565b6000546001600160a01b031690565b600061036261061d565b6001600160a01b0316610373610349565b6001600160a01b0316146103bc576040805162461bcd60e51b815260206004820181905260248201526000805160206108af833981519152604482015290519081900360640190fd5b6001600160a01b0382166104015760405162461bcd60e51b815260040180806020018281038252602c815260200180610883602c913960400191505060405180910390fd5b6040516001600160a01b038316907ff63eb610adad478002288c0957a6037ba30c916a12eb8b9fc01fed014f1dc15790600090a2610286600183610648565b600061028660018361065d565b61045561061d565b6001600160a01b0316610466610349565b6001600160a01b0316146104af576040805162461bcd60e51b815260206004820181905260248201526000805160206108af833981519152604482015290519081900360640190fd5b6001600160a01b0381166104f45760405162461bcd60e51b815260040180806020018281038252602681526020018061085d6026913960400191505060405180910390fd5b600080546040516001600160a01b03808516939216917f8be0079c531659141344cd1fd0a4f28419497f9722a3daafe3b4186f6b6457e091a3600080546001600160a01b0319166001600160a01b0392909216919091179055565b600061055961061d565b6001600160a01b031661056a610349565b6001600160a01b0316146105b3576040805162461bcd60e51b815260206004820181905260248201526000805160206108af833981519152604482015290519081900360640190fd5b60016105bd61028c565b03821115610612576040805162461bcd60e51b815260206004820152601d60248201527f4d756c7469706c653a20696e646578206f7574206f6620626f756e6473000000604482015290519081900360640190fd5b610286600183610672565b3390565b6000610636836001600160a01b03841661067e565b9392505050565b6000610286826106c8565b6000610636836001600160a01b0384166106cc565b6000610636836001600160a01b038416610792565b600061063683836107aa565b600061068a8383610792565b6106c057508154600181810184556000848152602080822090930184905584548482528286019093526040902091909155610286565b506000610286565b5490565b6000818152600183016020526040812054801561078857835460001980830191908101906000908790839081106106ff57fe5b906000526020600020015490508087600001848154811061071c57fe5b60009182526020808320909101929092558281526001898101909252604090209084019055865487908061074c57fe5b60019003818190600052602060002001600090559055866001016000878152602001908152602001600020600090556001945050505050610286565b6000915050610286565b60009081526001919091016020526040902054151590565b815460009082106107ec5760405162461bcd60e51b815260040180806020018281038252602281526020018061083b6022913960400191505060405180910390fd5b8260000182815481106107fb57fe5b906000526020600020015490509291505056fe4d756c7469706c653a205f6164645065726d697373696f6e20697320746865207a65726f2061646472657373456e756d657261626c655365743a20696e646578206f7574206f6620626f756e64734f776e61626c653a206e6577206f776e657220697320746865207a65726f20616464726573734d756c7469706c653a205f64656c5065726d697373696f6e20697320746865207a65726f20616464726573734f776e61626c653a2063616c6c6572206973206e6f7420746865206f776e6572a2646970667358221220407c0e09709d08e56b2268744f9e1ec22f608fdb00c588f976380056f14503c264736f6c63430007060033",
  "linkReferences": {},
  "deployedLinkReferences": {}
}