{
  "_format": "hh-sol-artifact-1",
  "contractName": "UniswapV3Strategy",
  "sourceName": "contracts/UniswapV3Strategy.sol",
  "abi": [
    {
      "inputs": [
        {
          "internalType": "contract IUniswapV3Factory",
          "name": "_factory",
          "type": "address"
        },
        {
          "internalType": "contract IMulWork",
          "name": "_work",
          "type": "address"
        },
        {
          "internalType": "contract IMulBank",
          "name": "_bank",
          "type": "address"
        }
      ],
      "stateMutability": "nonpayable",
      "type": "constructor"
    },
    {
      "anonymous": false,
      "inputs": [
        {
          "indexed": true,
          "internalType": "address",
          "name": "user",
          "type": "address"
        },
        {
          "indexed": false,
          "internalType": "uint256",
          "name": "positionId",
          "type": "uint256"
        },
        {
          "indexed": false,
          "internalType": "uint256",
          "name": "amount0",
          "type": "uint256"
        },
        {
          "indexed": false,
          "internalType": "uint256",
          "name": "amount1",
          "type": "uint256"
        },
        {
          "indexed": false,
          "internalType": "uint128",
          "name": "liquidity",
          "type": "uint128"
        }
      ],
      "name": "Add",
      "type": "event"
    },
    {
      "anonymous": false,
      "inputs": [
        {
          "indexed": true,
          "internalType": "address",
          "name": "user",
          "type": "address"
        },
        {
          "indexed": false,
          "internalType": "uint256",
          "name": "positionId",
          "type": "uint256"
        },
        {
          "indexed": false,
          "internalType": "uint256",
          "name": "fee0",
          "type": "uint256"
        },
        {
          "indexed": false,
          "internalType": "uint256",
          "name": "fee1",
          "type": "uint256"
        }
      ],
      "name": "Collect",
      "type": "event"
    },
    {
      "anonymous": false,
      "inputs": [
        {
          "indexed": true,
          "internalType": "address",
          "name": "user",
          "type": "address"
        },
        {
          "indexed": false,
          "internalType": "uint256",
          "name": "positionId",
          "type": "uint256"
        },
        {
          "indexed": false,
          "internalType": "uint256",
          "name": "amount0",
          "type": "uint256"
        },
        {
          "indexed": false,
          "internalType": "uint256",
          "name": "amount1",
          "type": "uint256"
        },
        {
          "indexed": false,
          "internalType": "bool",
          "name": "hedge",
          "type": "bool"
        }
      ],
      "name": "Divest",
      "type": "event"
    },
    {
      "anonymous": false,
      "inputs": [
        {
          "indexed": true,
          "internalType": "address",
          "name": "user",
          "type": "address"
        },
        {
          "indexed": false,
          "internalType": "uint256",
          "name": "positionId",
          "type": "uint256"
        },
        {
          "indexed": false,
          "internalType": "address",
          "name": "pool",
          "type": "address"
        },
        {
          "indexed": false,
          "internalType": "address",
          "name": "token0",
          "type": "address"
        },
        {
          "indexed": false,
          "internalType": "address",
          "name": "token1",
          "type": "address"
        },
        {
          "indexed": false,
          "internalType": "uint256",
          "name": "invest0",
          "type": "uint256"
        },
        {
          "indexed": false,
          "internalType": "uint256",
          "name": "invest1",
          "type": "uint256"
        },
        {
          "indexed": false,
          "internalType": "uint128",
          "name": "liquidity",
          "type": "uint128"
        }
      ],
      "name": "Invest",
      "type": "event"
    },
    {
      "anonymous": false,
      "inputs": [
        {
          "indexed": true,
          "internalType": "address",
          "name": "previousOwner",
          "type": "address"
        },
        {
          "indexed": true,
          "internalType": "address",
          "name": "newOwner",
          "type": "address"
        }
      ],
      "name": "OwnershipTransferred",
      "type": "event"
    },
    {
      "anonymous": false,
      "inputs": [
        {
          "indexed": true,
          "internalType": "address",
          "name": "user",
          "type": "address"
        },
        {
          "indexed": false,
          "internalType": "uint256",
          "name": "positionId",
          "type": "uint256"
        },
        {
          "indexed": false,
          "internalType": "uint256",
          "name": "exit0",
          "type": "uint256"
        },
        {
          "indexed": false,
          "internalType": "uint256",
          "name": "exit1",
          "type": "uint256"
        },
        {
          "indexed": false,
          "internalType": "uint256",
          "name": "invest0",
          "type": "uint256"
        },
        {
          "indexed": false,
          "internalType": "uint256",
          "name": "invest1",
          "type": "uint256"
        },
        {
          "indexed": false,
          "internalType": "uint128",
          "name": "liquidity",
          "type": "uint128"
        },
        {
          "indexed": false,
          "internalType": "bool",
          "name": "hedge",
          "type": "bool"
        }
      ],
      "name": "Switching",
      "type": "event"
    },
    {
      "inputs": [],
      "name": "_nextId",
      "outputs": [
        {
          "internalType": "uint176",
          "name": "",
          "type": "uint176"
        }
      ],
      "stateMutability": "view",
      "type": "function"
    },
    {
      "inputs": [
        {
          "internalType": "uint256",
          "name": "positionId",
          "type": "uint256"
        },
        {
          "internalType": "uint256",
          "name": "amount0Desired",
          "type": "uint256"
        },
        {
          "internalType": "uint256",
          "name": "amount1Desired",
          "type": "uint256"
        }
      ],
      "name": "add",
      "outputs": [
        {
          "internalType": "uint256",
          "name": "amount0",
          "type": "uint256"
        },
        {
          "internalType": "uint256",
          "name": "amount1",
          "type": "uint256"
        },
        {
          "internalType": "uint128",
          "name": "liquidity",
          "type": "uint128"
        }
      ],
      "stateMutability": "nonpayable",
      "type": "function"
    },
    {
      "inputs": [],
      "name": "bank",
      "outputs": [
        {
          "internalType": "contract IMulBank",
          "name": "",
          "type": "address"
        }
      ],
      "stateMutability": "view",
      "type": "function"
    },
    {
      "inputs": [
        {
          "internalType": "uint256",
          "name": "positionId",
          "type": "uint256"
        }
      ],
      "name": "collect",
      "outputs": [
        {
          "internalType": "uint128",
          "name": "fee0",
          "type": "uint128"
        },
        {
          "internalType": "uint128",
          "name": "fee1",
          "type": "uint128"
        }
      ],
      "stateMutability": "nonpayable",
      "type": "function"
    },
    {
      "inputs": [
        {
          "internalType": "uint256",
          "name": "positionId",
          "type": "uint256"
        },
        {
          "internalType": "bool",
          "name": "hedge",
          "type": "bool"
        }
      ],
      "name": "divest",
      "outputs": [
        {
          "internalType": "uint256",
          "name": "amount0",
          "type": "uint256"
        },
        {
          "internalType": "uint256",
          "name": "amount1",
          "type": "uint256"
        }
      ],
      "stateMutability": "nonpayable",
      "type": "function"
    },
    {
      "inputs": [],
      "name": "factory",
      "outputs": [
        {
          "internalType": "contract IUniswapV3Factory",
          "name": "",
          "type": "address"
        }
      ],
      "stateMutability": "view",
      "type": "function"
    },
    {
      "inputs": [
        {
          "components": [
            {
              "internalType": "address",
              "name": "token0",
              "type": "address"
            },
            {
              "internalType": "address",
              "name": "token1",
              "type": "address"
            },
            {
              "internalType": "uint24",
              "name": "fee",
              "type": "uint24"
            },
            {
              "internalType": "uint256",
              "name": "amount0Desired",
              "type": "uint256"
            },
            {
              "internalType": "uint256",
              "name": "amount1Desired",
              "type": "uint256"
            },
            {
              "internalType": "int24",
              "name": "tickLower",
              "type": "int24"
            },
            {
              "internalType": "int24",
              "name": "tickUpper",
              "type": "int24"
            }
          ],
          "internalType": "struct UniswapV3Strategy.MintParams",
          "name": "params",
          "type": "tuple"
        }
      ],
      "name": "invest",
      "outputs": [
        {
          "internalType": "uint256",
          "name": "amount0",
          "type": "uint256"
        },
        {
          "internalType": "uint256",
          "name": "amount1",
          "type": "uint256"
        },
        {
          "internalType": "uint128",
          "name": "liquidity",
          "type": "uint128"
        }
      ],
      "stateMutability": "nonpayable",
      "type": "function"
    },
    {
      "inputs": [],
      "name": "owner",
      "outputs": [
        {
          "internalType": "address",
          "name": "",
          "type": "address"
        }
      ],
      "stateMutability": "view",
      "type": "function"
    },
    {
      "inputs": [
        {
          "internalType": "uint256",
          "name": "",
          "type": "uint256"
        }
      ],
      "name": "positions",
      "outputs": [
        {
          "internalType": "bool",
          "name": "close",
          "type": "bool"
        },
        {
          "internalType": "address",
          "name": "token0",
          "type": "address"
        },
        {
          "internalType": "address",
          "name": "token1",
          "type": "address"
        },
        {
          "internalType": "uint24",
          "name": "fee",
          "type": "uint24"
        },
        {
          "internalType": "uint256",
          "name": "debt0",
          "type": "uint256"
        },
        {
          "internalType": "uint256",
          "name": "debt1",
          "type": "uint256"
        },
        {
          "internalType": "address",
          "name": "operator",
          "type": "address"
        },
        {
          "internalType": "uint256",
          "name": "exit0",
          "type": "uint256"
        },
        {
          "internalType": "uint256",
          "name": "exit1",
          "type": "uint256"
        },
        {
          "components": [
            {
              "internalType": "int24",
              "name": "tickLower",
              "type": "int24"
            },
            {
              "internalType": "int24",
              "name": "tickUpper",
              "type": "int24"
            },
            {
              "internalType": "uint256",
              "name": "feeGrowthInside0LastX128",
              "type": "uint256"
            },
            {
              "internalType": "uint256",
              "name": "feeGrowthInside1LastX128",
              "type": "uint256"
            },
            {
              "internalType": "uint128",
              "name": "liquidity",
              "type": "uint128"
            },
            {
              "internalType": "uint256",
              "name": "fee0",
              "type": "uint256"
            },
            {
              "internalType": "uint256",
              "name": "fee1",
              "type": "uint256"
            }
          ],
          "internalType": "struct UniswapV3Strategy.Tick",
          "name": "tick",
          "type": "tuple"
        }
      ],
      "stateMutability": "view",
      "type": "function"
    },
    {
      "inputs": [],
      "name": "renounceOwnership",
      "outputs": [],
      "stateMutability": "nonpayable",
      "type": "function"
    },
    {
      "inputs": [
        {
          "internalType": "uint256",
          "name": "positionId",
          "type": "uint256"
        },
        {
          "components": [
            {
              "internalType": "int24",
              "name": "tickLower",
              "type": "int24"
            },
            {
              "internalType": "int24",
              "name": "tickUpper",
              "type": "int24"
            },
            {
              "internalType": "uint256",
              "name": "amount0Desired",
              "type": "uint256"
            },
            {
              "internalType": "uint256",
              "name": "amount1Desired",
              "type": "uint256"
            }
          ],
          "internalType": "struct UniswapV3Strategy.SwitchParams",
          "name": "params",
          "type": "tuple"
        },
        {
          "internalType": "bool",
          "name": "hedge",
          "type": "bool"
        }
      ],
      "name": "switching",
      "outputs": [
        {
          "internalType": "uint256",
          "name": "amount0",
          "type": "uint256"
        },
        {
          "internalType": "uint256",
          "name": "amount1",
          "type": "uint256"
        },
        {
          "internalType": "uint128",
          "name": "liquidity",
          "type": "uint128"
        },
        {
          "internalType": "uint256",
          "name": "exit0",
          "type": "uint256"
        },
        {
          "internalType": "uint256",
          "name": "exit1",
          "type": "uint256"
        }
      ],
      "stateMutability": "nonpayable",
      "type": "function"
    },
    {
      "inputs": [
        {
          "internalType": "address",
          "name": "newOwner",
          "type": "address"
        }
      ],
      "name": "transferOwnership",
      "outputs": [],
      "stateMutability": "nonpayable",
      "type": "function"
    },
    {
      "inputs": [
        {
          "internalType": "uint256",
          "name": "amount0Owed",
          "type": "uint256"
        },
        {
          "internalType": "uint256",
          "name": "amount1Owed",
          "type": "uint256"
        },
        {
          "internalType": "bytes",
          "name": "data",
          "type": "bytes"
        }
      ],
      "name": "uniswapV3MintCallback",
      "outputs": [],
      "stateMutability": "nonpayable",
      "type": "function"
    },
    {
      "inputs": [],
      "name": "work",
      "outputs": [
        {
          "internalType": "contract IMulWork",
          "name": "",
          "type": "address"
        }
      ],
      "stateMutability": "view",
      "type": "function"
    }
  ],
  "bytecode": "0x6080604052600580546001600160b01b03191690553480156200002157600080fd5b5060405162003e1938038062003e19833981016040819052620000449162000169565b60006200005062000165565b600080546001600160a01b0319166001600160a01b0383169081178255604051929350917f8be0079c531659141344cd1fd0a4f28419497f9722a3daafe3b4186f6b6457e0908290a350600180556001600160a01b038316620000d05760405162461bcd60e51b8152600401620000c790620001bc565b60405180910390fd5b6001600160a01b038216620000f95760405162461bcd60e51b8152600401620000c790620001bc565b6001600160a01b038116620001225760405162461bcd60e51b8152600401620000c790620001bc565b600280546001600160a01b039485166001600160a01b031991821617909155600480549385169382169390931790925560038054919093169116179055620001fe565b3390565b6000806000606084860312156200017e578283fd5b83516200018b81620001e5565b60208501519093506200019e81620001e5565b6040850151909250620001b181620001e5565b809150509250925092565b6020808252600f908201526e494e56414c49445f4144445245535360881b604082015260600190565b6001600160a01b0381168114620001fb57600080fd5b50565b613c0b806200020e6000396000f3fe608060405234801561001057600080fd5b50600436106100ea5760003560e01c806399fbab881161008c578063d348799711610066578063d3487997146101d2578063e503750e146101e5578063f2f2fff514610206578063f2fde38b1461021b576100ea565b806399fbab8814610180578063c45a0155146101a9578063ce3f865f146101b1576100ea565b8063715018a6116100c8578063715018a61461015357806376cdb03b1461015d5780638da5cb5b146101655780639461f6801461016d576100ea565b8063322e9f04146100ef578063385af4201461010d578063505fb46c14610131575b600080fd5b6100f761022e565b6040516101049190613639565b60405180910390f35b61012061011b3660046134d7565b61023d565b604051610104959493929190613ab1565b61014461013f36600461360e565b6107c3565b60405161010493929190613a92565b61015b610a8b565b005b6100f7610b49565b6100f7610b58565b61014461017b36600461328e565b610b67565b61019361018e366004613478565b610f44565b6040516101049a999897969594939291906137da565b6100f7611029565b6101c46101bf366004613478565b611038565b6040516101049291906139e4565b61015b6101e0366004613593565b611587565b6101f86101f33660046134a8565b61168f565b604051610104929190613a84565b61020e611abe565b60405161010491906139fe565b61015b6102293660046131a2565b611acd565b6004546001600160a01b031681565b60008060008060008760006006828154811061025557fe5b60009182526020918290206040805161014081018252600d909302909101805460ff8116151584526001600160a01b036101009182900481168587015260018301548082168686015262ffffff600160a01b90910416606080870191909152600280850154608080890191909152600386015460a0808a01919091526004870154851660c0808b01918252600589015460e0808d019190915260068a0154988c019890985289519788018a52600789015480860b860b860b895263010000009004850b850b90940b9a87019a909a52600887015497860197909752600986015492850192909252600a8501546001600160801b031691840191909152600b84015494830194909452600c9092015492810192909252610120830191909152915190925033911614801561038757508051155b80156103a557506000816101200151608001516001600160801b0316115b6103ca5760405162461bcd60e51b81526004016103c19061392f565b60405180910390fd5b600060068b815481106103d957fe5b90600052602060002090600d0201905060008160070190506103fa8c611038565b505060038101546001600160801b038881169116141580610426575080548b51600291820b820b910b14155b806104475750805460208c0151600290810b6301000000909204810b900b14155b6104635760405162461bcd60e51b81526004016103c1906138ed565b60025482546001840154604051630b4c774160e11b81526000936001600160a01b0390811693631698ee82936104b593610100909204831692811691600160a01b90910462ffffff16906004016136cb565b60206040518083038186803b1580156104cd57600080fd5b505afa1580156104e1573d6000803e3d6000fd5b505050506040513d601f19601f8201168201806040525081019061050591906131be565b8254600384015460405163a34123a760e01b81529293506001600160a01b0384169263a34123a79261055692600282810b936301000000909304900b916001600160801b039091169060040161389d565b6040805180830381600087803b15801561056f57600080fd5b505af1158015610583573d6000803e3d6000fd5b505050506040513d601f19601f820116820180604052508101906105a79190613570565b83546040516309e3d67b60e31b81529299509097506001600160a01b03831691634f1eb3d8916105f0913091600281810b926301000000909204900b908d908d9060040161377a565b6040805180830381600087803b15801561060957600080fd5b505af115801561061d573d6000803e3d6000fd5b505050506040513d601f19601f820116820180604052508101906106419190613340565b505061064f8d88888e611be1565b6040805160e081018252845461010090046001600160a01b0390811682526001860154908116602080840191909152600160a01b90910462ffffff1682840152918e01516060808301919091528e015160808201528d51600290810b60a0830152918e015190910b60c08201526106c5906122e6565b809b50819c50829d50839450505050508b600001518260000160006101000a81548162ffffff021916908360020b62ffffff1602179055508b602001518260000160036101000a81548162ffffff021916908360020b62ffffff160217905550898360020181905550888360030181905550878260030160006101000a8154816001600160801b0302191690836001600160801b0316021790555060008b9050336001600160a01b03167fc2fd7a46f29b0467608410312b942515730e861ac81beb56729658c67d70639b8f8a8a8f8f8f886040516107aa9796959493929190613b1e565b60405180910390a2505050505050939792965093509350565b6000806000856000600682815481106107d857fe5b60009182526020918290206040805161014081018252600d909302909101805460ff8116151584526001600160a01b036101009182900481168587015260018301548082168686015262ffffff600160a01b90910416606080870191909152600280850154608080890191909152600386015460a0808a01919091526004870154851660c0808b01918252600589015460e0808d019190915260068a0154988c019890985289519788018a52600789015480860b860b860b895263010000009004850b850b90940b9a87019a909a52600887015497860197909752600986015492850192909252600a8501546001600160801b031691840191909152600b84015494830194909452600c9092015492810192909252610120830191909152915190925033911614801561090a57508051155b801561092857506000816101200151608001516001600160801b0316115b6109445760405162461bcd60e51b81526004016103c19061392f565b60006006898154811061095357fe5b600091825260208083206040805160e081018252600d94909402909101805461010090046001600160a01b039081168552600182015490811693850193909352600160a01b90920462ffffff1690830152606082018b9052608082018a90526007810154600281810b810b60a08501526301000000909104810b900b60c083015292506109df906122e6565b9199509750955090506109f18a611038565b5050600a820180546001600160801b038082168801166001600160801b03199091161790556002820154610a25908861268c565b60028301556003820154610a39908761268c565b600383015560405133907f4e26bf96a4004dbd9e7a6bf889ebc8fbb0b98057476634c8a62ce133ed35ec3a90610a76908d908b908b908b90613afa565b60405180910390a25050505093509350939050565b610a936126ef565b6001600160a01b0316610aa4610b58565b6001600160a01b031614610aff576040805162461bcd60e51b815260206004820181905260248201527f4f776e61626c653a2063616c6c6572206973206e6f7420746865206f776e6572604482015290519081900360640190fd5b600080546040516001600160a01b03909116907f8be0079c531659141344cd1fd0a4f28419497f9722a3daafe3b4186f6b6457e0908390a3600080546001600160a01b0319169055565b6003546001600160a01b031681565b6000546001600160a01b031690565b6000808080610b83610b7e368790038701876132a5565b6122e6565b9196509450925090506000610bb730610ba260c0890160a08a016131f6565b610bb260e08a0160c08b016131f6565b6126f3565b9050600080836001600160a01b031663514ea4bf846040518263ffffffff1660e01b8152600401610be89190613894565b60a06040518083038186803b158015610c0057600080fd5b505afa158015610c14573d6000803e3d6000fd5b505050506040513d601f19601f82011682018060405250810190610c389190613372565b5050925092505060006040518060e001604052808a60a0016020810190610c5f91906131f6565b60020b8152602001610c7760e08c0160c08d016131f6565b60020b8152602001848152602001838152602001876001600160801b03168152602001600081526020016000815250905060066040518061014001604052806000151581526020018b6000016020810190610cd291906131a2565b6001600160a01b031681526020018b6020016020810190610cf391906131a2565b6001600160a01b03168152602001610d1160608d0160408e0161345e565b62ffffff908116825260208083018d905260408084018d90523360608086018290526000608080880182905260a080890183905260c09889018c90528a5460018082018d559b8452928790208a51600d9094020180548b89015160ff1990911694151594909417610100600160a81b0319166101006001600160a01b0395861681029190911782558b8801519c820180548d8801516001600160a01b03199182169f88169f909f1762ffffff60a01b1916600160a01b9f8d169f909f029e909e1790558b8401516002808401919091558c84015160038401558c8c0151600484018054909f16961695909517909c5560e08b01516005808301919091559b8b01516006820155610120909a0151805160078c018054838b015162ffffff1990911692870b8c169290921765ffffff000000191663010000009290960b909a16029390931790975593810151600889015590810151600988015591820151600a870180546001600160801b0319166001600160801b0390921691909117905592810151600b86015590920151600c90930192909255915490917f277685e2349c727f8c026893d1d41063f1e92d4092c5d38613f40eac70f3c6f2916001600160b01b0316908890610ee3908e018e6131a2565b8d6020016020810190610ef691906131a2565b8d8d8d604051610f0c9796959493929190613a12565b60405180910390a25050600580546001600160b01b03808216600101166001600160b01b031990911617905550939592945090925050565b60068181548110610f5457600080fd5b6000918252602091829020600d91909102018054600182015460028084015460038501546004860154600587015460068801546040805160e08101825260078b015480890b890b890b825263010000009004880b880b90970b9a87019a909a5260088901549986019990995260098801546060860152600a8801546001600160801b03166080860152600b88015460a0860152600c9097015460c085015260ff861698506101009095046001600160a01b039081169781861697600160a01b90960462ffffff1696939592949190931692908a565b6002546001600160a01b031681565b6000808260006006828154811061104b57fe5b60009182526020918290206040805161014081018252600d909302909101805460ff8116151584526001600160a01b036101009182900481168587015260018301548082168686015262ffffff600160a01b90910416606080870191909152600280850154608080890191909152600386015460a0808a01919091526004870154851660c0808b01918252600589015460e0808d019190915260068a0154988c019890985289519788018a52600789015480860b860b860b895263010000009004850b850b90940b9a87019a909a52600887015497860197909752600986015492850192909252600a8501546001600160801b031691840191909152600b84015494830194909452600c9092015492810192909252610120830191909152915190925033911614801561117d57508051155b801561119b57506000816101200151608001516001600160801b0316115b6111b75760405162461bcd60e51b81526004016103c19061392f565b6000600686815481106111c657fe5b600091825260208220600254600d929092020180546001820154604051630b4c774160e11b81529295506007860194936001600160a01b0390811693631698ee829361122e93610100909104831692811691600160a01b90910462ffffff16906004016136cb565b60206040518083038186803b15801561124657600080fd5b505afa15801561125a573d6000803e3d6000fd5b505050506040513d601f19601f8201168201806040525081019061127e91906131be565b825460405163a34123a760e01b81529192506001600160a01b0383169163a34123a7916112c091600282810b9263010000009004900b9060009060040161389d565b6040805180830381600087803b1580156112d957600080fd5b505af11580156112ed573d6000803e3d6000fd5b505050506040513d601f19601f820116820180604052508101906113119190613570565b5050815460009081906001600160a01b0384169063514ea4bf90611345903090600281810b9163010000009004900b6126f3565b6040518263ffffffff1660e01b81526004016113619190613894565b60a06040518083038186803b15801561137957600080fd5b505afa15801561138d573d6000803e3d6000fd5b505050506040513d601f19601f820116820180604052508101906113b19190613372565b5050600187015460038801549295509093506113de92508403906001600160801b0316600160801b61274d565b60028501546003860154919a5061140691908303906001600160801b0316600160801b61274d565b84546040516309e3d67b60e31b81529199506001600160a01b03851691634f1eb3d89161144c913091600281810b926301000000909204900b908f908f9060040161377a565b6040805180830381600087803b15801561146557600080fd5b505af1158015611479573d6000803e3d6000fd5b505050506040513d601f19601f8201168201806040525081019061149d9190613340565b6004860154919a5098506114ba906001600160801b038b1661268c565b600485015560058401546114d7906001600160801b038a1661268c565b600585015584546114ff9061010090046001600160a01b03166001600160801b038b166127fc565b6001850154611520906001600160a01b03166001600160801b038a166127fc565b600184018290556002840181905560048501546040516001600160a01b03909116907fde5e3abbba77c313e4f5881ab0685bbbbb54f38b5cfbdd6230e88642a5df29f190611573908d908d908d90613a65565b60405180910390a250505050505050915091565b600061159582840184613212565b600254815160208301516040808501519051630b4c774160e11b81529495506001600160a01b0390931693631698ee82936115d49392916004016136cb565b60206040518083038186803b1580156115ec57600080fd5b505afa158015611600573d6000803e3d6000fd5b505050506040513d601f19601f8201168201806040525081019061162491906131be565b6001600160a01b0316336001600160a01b0316146116545760405162461bcd60e51b81526004016103c1906138c3565b841561166e5761166e8160000151826060015187336129f9565b8315611688576116888160200151826060015186336129f9565b5050505050565b600080836000600682815481106116a257fe5b60009182526020918290206040805161014081018252600d909302909101805460ff8116151584526001600160a01b036101009182900481168587015260018301548082168686015262ffffff600160a01b90910416606080870191909152600280850154608080890191909152600386015460a0808a01919091526004870154851660c0808b01918252600589015460e0808d019190915260068a0154988c019890985289519788018a52600789015480860b860b860b895263010000009004850b850b90940b9a87019a909a52600887015497860197909752600986015492850192909252600a8501546001600160801b031691840191909152600b84015494830194909452600c909201549281019290925261012083019190915291519092503391161480156117d457508051155b80156117f257506000816101200151608001516001600160801b0316115b61180e5760405162461bcd60e51b81526004016103c19061392f565b60006006878154811061181d57fe5b90600052602060002090600d0201905061183687611038565b505060025481546001830154604051630b4c774160e11b81526000936001600160a01b0390811693631698ee829361188a93610100909204831692811691600160a01b90910462ffffff16906004016136cb565b60206040518083038186803b1580156118a257600080fd5b505afa1580156118b6573d6000803e3d6000fd5b505050506040513d601f19601f820116820180604052508101906118da91906131be565b6007830154600a84015460405163a34123a760e01b81529293506001600160a01b0384169263a34123a79261192e92600282810b936301000000909304900b916001600160801b039091169060040161389d565b6040805180830381600087803b15801561194757600080fd5b505af115801561195b573d6000803e3d6000fd5b505050506040513d601f19601f8201168201806040525081019061197f9190613570565b60078401546040516309e3d67b60e31b81529298509096506001600160a01b03831691634f1eb3d8916119cb913091600281810b926301000000909204900b908c908c9060040161377a565b6040805180830381600087803b1580156119e457600080fd5b505af11580156119f8573d6000803e3d6000fd5b505050506040513d601f19601f82011682018060405250810190611a1c9190613340565b5050611a2a8887878a611be1565b600a820180546001600160801b031916905586611a475785611a4d565b81600201545b600583015586611a5d5784611a63565b81600301545b6006830155815460ff1916600117825560405133907f3105919a400b7455f9cd5da3bdb75241feab87461ff048af36e4d98ab44a997790611aab908b908a908a908d90613add565b60405180910390a2505050509250929050565b6005546001600160b01b031681565b611ad56126ef565b6001600160a01b0316611ae6610b58565b6001600160a01b031614611b41576040805162461bcd60e51b815260206004820181905260248201527f4f776e61626c653a2063616c6c6572206973206e6f7420746865206f776e6572604482015290519081900360640190fd5b6001600160a01b038116611b865760405162461bcd60e51b8152600401808060200182810382526026815260200180613b8f6026913960400191505060405180910390fd5b600080546040516001600160a01b03808516939216917f8be0079c531659141344cd1fd0a4f28419497f9722a3daafe3b4186f6b6457e091a3600080546001600160a01b0319166001600160a01b0392909216919091179055565b60026001541415611c39576040805162461bcd60e51b815260206004820152601f60248201527f5265656e7472616e637947756172643a207265656e7472616e742063616c6c00604482015290519081900360640190fd5b6002600181905550600060068581548110611c5057fe5b90600052602060002090600d020190508115611eea578060020154841115611da857805460028201546101009091046001600160a01b03169063a9059cbb903390611c9c908890612b6f565b6040518363ffffffff1660e01b8152600401611cb9929190613698565b602060405180830381600087803b158015611cd357600080fd5b505af1158015611ce7573d6000803e3d6000fd5b505050506040513d601f19601f82011682018060405250810190611d0b91906131da565b50600181015460038201546001600160a01b03909116906323b872dd9033903090611d369088612b6f565b6040518463ffffffff1660e01b8152600401611d5493929190613674565b602060405180830381600087803b158015611d6e57600080fd5b505af1158015611d82573d6000803e3d6000fd5b505050506040513d601f19601f82011682018060405250810190611da691906131da565b505b8060030154831115611eea57805460028201546101009091046001600160a01b0316906323b872dd9033903090611ddf9089612b6f565b6040518463ffffffff1660e01b8152600401611dfd93929190613674565b602060405180830381600087803b158015611e1757600080fd5b505af1158015611e2b573d6000803e3d6000fd5b505050506040513d601f19601f82011682018060405250810190611e4f91906131da565b50600181015460038201546001600160a01b039091169063a9059cbb903390611e79908790612b6f565b6040518363ffffffff1660e01b8152600401611e96929190613698565b602060405180830381600087803b158015611eb057600080fd5b505af1158015611ec4573d6000803e3d6000fd5b505050506040513d601f19601f82011682018060405250810190611ee891906131da565b505b80546040516370a0823160e01b815260009161010090046001600160a01b0316906370a0823190611f1f903090600401613639565b60206040518083038186803b158015611f3757600080fd5b505afa158015611f4b573d6000803e3d6000fd5b505050506040513d601f19601f82011682018060405250810190611f6f9190613490565b60018301546040516370a0823160e01b81529192506000916001600160a01b03909116906370a0823190611fa7903090600401613639565b60206040518083038186803b158015611fbf57600080fd5b505afa158015611fd3573d6000803e3d6000fd5b505050506040513d601f19601f82011682018060405250810190611ff79190613490565b60048054858201548654604051630467830360e41b81529495506001600160a01b039283169463467830309461203d94938416936101009093049092169188910161364d565b600060405180830381600087803b15801561205757600080fd5b505af115801561206b573d6000803e3d6000fd5b505060048054868201546001880154604051630467830360e41b81526001600160a01b039384169650634678303095506120af94928416939091169187910161364d565b600060405180830381600087803b1580156120c957600080fd5b505af11580156120dd573d6000803e3d6000fd5b5050845460035460405163a9059cbb60e01b81526101009092046001600160a01b03908116945063a9059cbb935061211c929116908690600401613698565b602060405180830381600087803b15801561213657600080fd5b505af115801561214a573d6000803e3d6000fd5b505050506040513d601f19601f8201168201806040525081019061216e91906131da565b50600183015460035460405163a9059cbb60e01b81526001600160a01b039283169263a9059cbb926121a7929116908590600401613698565b602060405180830381600087803b1580156121c157600080fd5b505af11580156121d5573d6000803e3d6000fd5b505050506040513d601f19601f820116820180604052508101906121f991906131da565b506003548354600285015460405163192400d360e01b81526001600160a01b039384169363192400d3936122399361010090910490911691600401613698565b600060405180830381600087803b15801561225357600080fd5b505af1158015612267573d6000803e3d6000fd5b50506003805460018701549187015460405163192400d360e01b81526001600160a01b03928316955063192400d394506122a79390921691600401613698565b600060405180830381600087803b1580156122c157600080fd5b505af11580156122d5573d6000803e3d6000fd5b505060018055505050505050505050565b600254815160208301516040808501519051630b4c774160e11b81526000948594859485946001600160a01b0390931693631698ee829361232b9392916004016136cb565b60206040518083038186803b15801561234357600080fd5b505afa158015612357573d6000803e3d6000fd5b505050506040513d601f19601f8201168201806040525081019061237b91906131be565b9350836001600160a01b0316630dfe16816040518163ffffffff1660e01b815260040160206040518083038186803b1580156123b657600080fd5b505afa1580156123ca573d6000803e3d6000fd5b505050506040513d601f19601f820116820180604052508101906123ee91906131be565b6001600160a01b031685600001516001600160a01b03161480156124975750836001600160a01b031663d21220a76040518163ffffffff1660e01b815260040160206040518083038186803b15801561244657600080fd5b505afa15801561245a573d6000803e3d6000fd5b505050506040513d601f19601f8201168201806040525081019061247e91906131be565b6001600160a01b031685602001516001600160a01b0316145b6124b35760405162461bcd60e51b81526004016103c190613910565b6000846001600160a01b0316633850c7bd6040518163ffffffff1660e01b815260040160e06040518083038186803b1580156124ee57600080fd5b505afa158015612502573d6000803e3d6000fd5b505050506040513d601f19601f8201168201806040525081019061252691906133c8565b505050505050905061255b8161253f8860a00151612bcc565b61254c8960c00151612bcc565b89606001518a60800151612efe565b91506000826001600160801b0316116125865760405162461bcd60e51b81526004016103c19061397b565b846001600160a01b0316633c8a7d8d308860a001518960c001518660405180608001604052808d600001516001600160a01b031681526020018d602001516001600160a01b031681526020018d6040015162ffffff168152602001336001600160a01b03168152506040516020016125fe91906139a6565b6040516020818303038152906040526040518663ffffffff1660e01b815260040161262d9594939291906136f3565b6040805180830381600087803b15801561264657600080fd5b505af115801561265a573d6000803e3d6000fd5b505050506040513d601f19601f8201168201806040525081019061267e9190613570565b959790965091935090915050565b6000828201838110156126e6576040805162461bcd60e51b815260206004820152601b60248201527f536166654d6174683a206164646974696f6e206f766572666c6f770000000000604482015290519081900360640190fd5b90505b92915050565b3390565b604080516bffffffffffffffffffffffff19606086901b16602080830191909152600285810b60e890811b60348501529085900b901b60378301528251601a818403018152603a90920190925280519101205b9392505050565b6000808060001985870986860292508281109083900303905080612783576000841161277857600080fd5b508290049050612746565b80841161278f57600080fd5b6000848688096000868103871696879004966002600389028118808a02820302808a02820302808a02820302808a02820302808a02820302808a02909103029181900381900460010186841190950394909402919094039290920491909117919091029150509392505050565b60026001541415612854576040805162461bcd60e51b815260206004820152601f60248201527f5265656e7472616e637947756172643a207265656e7472616e742063616c6c00604482015290519081900360640190fd5b600260015580156129f1576000612877600a612871846009612fc2565b9061301b565b60035460405163a9059cbb60e01b81529192506001600160a01b038086169263a9059cbb926128ac9216908590600401613698565b602060405180830381600087803b1580156128c657600080fd5b505af11580156128da573d6000803e3d6000fd5b505050506040513d601f19601f820116820180604052508101906128fe91906131da565b5060048054604051630467830360e41b81526001600160a01b0390911691634678303091612932913391889187910161364d565b600060405180830381600087803b15801561294c57600080fd5b505af1158015612960573d6000803e3d6000fd5b5050506001600160a01b038416905063a9059cbb3361297f8585612b6f565b6040518363ffffffff1660e01b815260040161299c929190613698565b602060405180830381600087803b1580156129b657600080fd5b505af11580156129ca573d6000803e3d6000fd5b505050506040513d601f19601f820116820180604052508101906129ee91906131da565b50505b505060018055565b6004805460405163396c0f9760e21b815284926001600160a01b039092169163e5b03e5c91612a2c9188918a91016136b1565b60206040518083038186803b158015612a4457600080fd5b505afa158015612a58573d6000803e3d6000fd5b505050506040513d601f19601f82011682018060405250810190612a7c9190613490565b1015612a9a5760405162461bcd60e51b81526004016103c190613952565b600354604051636c665a5560e01b81526001600160a01b0390911690636c665a5590612ace908790869086906004016137b7565b600060405180830381600087803b158015612ae857600080fd5b505af1158015612afc573d6000803e3d6000fd5b505060048054604051630467830360e41b81526001600160a01b03909116935063467830309250612b3791879189916000899003910161364d565b600060405180830381600087803b158015612b5157600080fd5b505af1158015612b65573d6000803e3d6000fd5b5050505050505050565b600082821115612bc6576040805162461bcd60e51b815260206004820152601e60248201527f536166654d6174683a207375627472616374696f6e206f766572666c6f770000604482015290519081900360640190fd5b50900390565b60008060008360020b12612be3578260020b612beb565b8260020b6000035b9050620d89e8811115612c29576040805162461bcd60e51b81526020600482015260016024820152601560fa1b604482015290519081900360640190fd5b600060018216612c3d57600160801b612c4f565b6ffffcb933bd6fad37aa2d162d1a5940015b70ffffffffffffffffffffffffffffffffff1690506002821615612c83576ffff97272373d413259a46990580e213a0260801c5b6004821615612ca2576ffff2e50f5f656932ef12357cf3c7fdcc0260801c5b6008821615612cc1576fffe5caca7e10e4e61c3624eaa0941cd00260801c5b6010821615612ce0576fffcb9843d60f6159c9db58835c9266440260801c5b6020821615612cff576fff973b41fa98c081472e6896dfb254c00260801c5b6040821615612d1e576fff2ea16466c96a3843ec78b326b528610260801c5b6080821615612d3d576ffe5dee046a99a2a811c461f1969c30530260801c5b610100821615612d5d576ffcbe86c7900a88aedcffc83b479aa3a40260801c5b610200821615612d7d576ff987a7253ac413176f2b074cf7815e540260801c5b610400821615612d9d576ff3392b0822b70005940c7a398e4b70f30260801c5b610800821615612dbd576fe7159475a2c29b7443b29c7fa6e889d90260801c5b611000821615612ddd576fd097f3bdfd2022b8845ad8f792aa58250260801c5b612000821615612dfd576fa9f746462d870fdf8a65dc1f90e061e50260801c5b614000821615612e1d576f70d869a156d2a1b890bb3df62baf32f70260801c5b618000821615612e3d576f31be135f97d08fd981231505542fcfa60260801c5b62010000821615612e5e576f09aa508b5b7a84e1c677de54f3e99bc90260801c5b62020000821615612e7e576e5d6af8dedb81196699c329225ee6040260801c5b62040000821615612e9d576d2216e584f5fa1ea926041bedfe980260801c5b62080000821615612eba576b048a170391f7dc42444e8fa20260801c5b60008460020b1315612ed5578060001981612ed157fe5b0490505b640100000000810615612ee9576001612eec565b60005b60ff16602082901c0192505050919050565b6000836001600160a01b0316856001600160a01b03161115612f1e579293925b846001600160a01b0316866001600160a01b031611612f4957612f42858585613082565b9050612fb9565b836001600160a01b0316866001600160a01b03161015612fab576000612f70878686613082565b90506000612f7f8789866130e5565b9050806001600160801b0316826001600160801b031610612fa05780612fa2565b815b92505050612fb9565b612fb68585846130e5565b90505b95945050505050565b600082612fd1575060006126e9565b82820282848281612fde57fe5b04146126e65760405162461bcd60e51b8152600401808060200182810382526021815260200180613bb56021913960400191505060405180910390fd5b6000808211613071576040805162461bcd60e51b815260206004820152601a60248201527f536166654d6174683a206469766973696f6e206279207a65726f000000000000604482015290519081900360640190fd5b81838161307a57fe5b049392505050565b6000826001600160a01b0316846001600160a01b031611156130a2579192915b60006130c5856001600160a01b0316856001600160a01b0316600160601b61274d565b9050612fb96130e084838888036001600160a01b031661274d565b61312a565b6000826001600160a01b0316846001600160a01b03161115613105579192915b6131226130e083600160601b8787036001600160a01b031661274d565b949350505050565b806001600160801b038116811461314057600080fd5b919050565b803561314081613b59565b803561314081613b71565b803561314081613b7f565b80516001600160801b038116811461314057600080fd5b805161ffff8116811461314057600080fd5b803562ffffff8116811461314057600080fd5b6000602082840312156131b3578081fd5b81356126e681613b59565b6000602082840312156131cf578081fd5b81516126e681613b59565b6000602082840312156131eb578081fd5b81516126e681613b71565b600060208284031215613207578081fd5b81356126e681613b7f565b600060808284031215613223578081fd5b6040516080810181811067ffffffffffffffff8211171561324057fe5b604052823561324e81613b59565b8152602083013561325e81613b59565b602082015261326f6040840161318f565b6040820152606083013561328281613b59565b60608201529392505050565b600060e0828403121561329f578081fd5b50919050565b600060e082840312156132b6578081fd5b60405160e0810181811067ffffffffffffffff821117156132d357fe5b6040526132df83613145565b81526132ed60208401613145565b60208201526132fe6040840161318f565b6040820152606083013560608201526080830135608082015261332360a0840161315b565b60a082015261333460c0840161315b565b60c08201529392505050565b60008060408385031215613352578081fd5b61335b83613166565b915061336960208401613166565b90509250929050565b600080600080600060a08688031215613389578081fd5b61339286613166565b945060208601519350604086015192506133ae60608701613166565b91506133bc60808701613166565b90509295509295909350565b600080600080600080600060e0888a0312156133e2578485fd5b87516133ed81613b59565b60208901519097506133fe81613b7f565b955061340c6040890161317d565b945061341a6060890161317d565b93506134286080890161317d565b925060a088015160ff8116811461343d578283fd5b60c089015190925061344e81613b71565b8091505092959891949750929550565b60006020828403121561346f578081fd5b6127468261318f565b600060208284031215613489578081fd5b5035919050565b6000602082840312156134a1578081fd5b5051919050565b600080604083850312156134ba578182fd5b8235915060208301356134cc81613b71565b809150509250929050565b600080600083850360c08112156134ec578182fd5b843593506080601f1982011215613501578182fd5b506040516080810181811067ffffffffffffffff8211171561351f57fe5b604052602085013561353081613b7f565b8152604085013561354081613b7f565b60208201526060858101356040830152608086013590820152915061356760a08501613150565b90509250925092565b60008060408385031215613582578182fd5b505080516020909101519092909150565b600080600080606085870312156135a8578182fd5b8435935060208501359250604085013567ffffffffffffffff808211156135cd578384fd5b818701915087601f8301126135e0578384fd5b8135818111156135ee578485fd5b8860208285010111156135ff578485fd5b95989497505060200194505050565b600080600060608486031215613622578081fd5b505081359360208301359350604090920135919050565b6001600160a01b0391909116815260200190565b6001600160a01b039384168152919092166020820152600f9190910b604082015260600190565b6001600160a01b039384168152919092166020820152604081019190915260600190565b6001600160a01b03929092168252602082015260400190565b6001600160a01b0392831681529116602082015260400190565b6001600160a01b03938416815291909216602082015262ffffff909116604082015260600190565b600060018060a01b038716825260208660020b818401528560020b60408401526001600160801b038516606084015260a0608084015283518060a0850152825b8181101561374f5785810183015185820160c001528201613733565b81811115613760578360c083870101525b50601f01601f19169290920160c001979650505050505050565b6001600160a01b03959095168552600293840b60208601529190920b60408401526001600160801b03918216606084015216608082015260a00190565b6001600160a01b0393841681526020810192909252909116604082015260600190565b6000610200820190508b1515825260018060a01b03808c166020840152808b16604084015262ffffff8a1660608401528860808401528760a084015280871660c0840152508460e083015283610100830152825160020b610120830152602083015160020b610140830152604083015161016083015260608301516101808301526001600160801b036080840151166101a083015260a08301516101c083015260c08301516101e08301529b9a5050505050505050505050565b90815260200190565b600293840b81529190920b60208201526001600160801b03909116604082015260600190565b60208082526010908201526f494e56414c49442043414c4c4241434b60801b604082015260600190565b6020808252600990820152684e4f204348414e474560b81b604082015260600190565b60208082526005908201526427a92222a960d91b604082015260600190565b6020808252600990820152682327a92124a22222a760b91b604082015260600190565b6020808252600f908201526e4e4f20454e4f5547482051554f544160881b604082015260600190565b602080825260119082015270494e56414c4944204c495155494449545960781b604082015260600190565b81516001600160a01b03908116825260208084015182169083015260408084015162ffffff1690830152606092830151169181019190915260800190565b6001600160801b0392831681529116602082015260400190565b6001600160b01b0391909116815260200190565b6001600160b01b039790971687526001600160a01b0395861660208801529385166040870152919093166060850152608084019290925260a08301919091526001600160801b031660c082015260e00190565b9283526001600160801b03918216602084015216604082015260600190565b918252602082015260400190565b92835260208301919091526001600160801b0316604082015260600190565b94855260208501939093526001600160801b039190911660408401526060830152608082015260a00190565b938452602084019290925260408301521515606082015260800190565b938452602084019290925260408301526001600160801b0316606082015260800190565b96875260208701959095526040860193909352606085019190915260808401526001600160801b031660a0830152151560c082015260e00190565b6001600160a01b0381168114613b6e57600080fd5b50565b8015158114613b6e57600080fd5b8060020b8114613b6e57600080fdfe4f776e61626c653a206e6577206f776e657220697320746865207a65726f2061646472657373536166654d6174683a206d756c7469706c69636174696f6e206f766572666c6f77a264697066735822122004746045c775a5d9c5f71e3fe4cc3014be671772570c77bd2e9fe64f02f6560864736f6c63430007060033",
  "linkReferences": {},
  "deployedLinkReferences": {}
}