{
  "_format": "hh-sol-artifact-1",
  "contractName": "UniswapV3Strategy",
  "sourceName": "contracts/UniswapV3Strategy.sol",
  "abi": [
    {
      "inputs": [
        {
          "internalType": "contract IUniswapV3Factory",
          "name": "_factory",
          "type": "address"
        },
        {
          "internalType": "contract IUniswapV3WorkCenter",
          "name": "_work",
          "type": "address"
        },
        {
          "internalType": "contract IMulBank",
          "name": "_bank",
          "type": "address"
        },
        {
          "internalType": "address",
          "name": "_devAddr",
          "type": "address"
        }
      ],
      "stateMutability": "nonpayable",
      "type": "constructor"
    },
    {
      "anonymous": false,
      "inputs": [
        {
          "indexed": true,
          "internalType": "address",
          "name": "user",
          "type": "address"
        },
        {
          "indexed": false,
          "internalType": "uint256",
          "name": "positionId",
          "type": "uint256"
        },
        {
          "indexed": false,
          "internalType": "uint256",
          "name": "amount0",
          "type": "uint256"
        },
        {
          "indexed": false,
          "internalType": "uint256",
          "name": "amount1",
          "type": "uint256"
        },
        {
          "indexed": false,
          "internalType": "uint128",
          "name": "liquidity",
          "type": "uint128"
        }
      ],
      "name": "Add",
      "type": "event"
    },
    {
      "anonymous": false,
      "inputs": [
        {
          "indexed": true,
          "internalType": "address",
          "name": "user",
          "type": "address"
        },
        {
          "indexed": false,
          "internalType": "address[]",
          "name": "tokens",
          "type": "address[]"
        },
        {
          "indexed": false,
          "internalType": "uint256[]",
          "name": "commision",
          "type": "uint256[]"
        },
        {
          "indexed": false,
          "internalType": "uint256",
          "name": "devPercent",
          "type": "uint256"
        },
        {
          "indexed": false,
          "internalType": "uint256",
          "name": "gpPercent",
          "type": "uint256"
        },
        {
          "indexed": false,
          "internalType": "address",
          "name": "to",
          "type": "address"
        }
      ],
      "name": "ClaimCommision",
      "type": "event"
    },
    {
      "anonymous": false,
      "inputs": [
        {
          "indexed": true,
          "internalType": "address",
          "name": "user",
          "type": "address"
        },
        {
          "indexed": false,
          "internalType": "uint256",
          "name": "positionId",
          "type": "uint256"
        },
        {
          "indexed": false,
          "internalType": "uint256",
          "name": "fee0",
          "type": "uint256"
        },
        {
          "indexed": false,
          "internalType": "uint256",
          "name": "fee1",
          "type": "uint256"
        }
      ],
      "name": "Collect",
      "type": "event"
    },
    {
      "anonymous": false,
      "inputs": [
        {
          "indexed": true,
          "internalType": "address",
          "name": "user",
          "type": "address"
        },
        {
          "indexed": false,
          "internalType": "uint256",
          "name": "positionId",
          "type": "uint256"
        },
        {
          "indexed": false,
          "internalType": "uint256",
          "name": "amount0",
          "type": "uint256"
        },
        {
          "indexed": false,
          "internalType": "uint256",
          "name": "amount1",
          "type": "uint256"
        }
      ],
      "name": "Divest",
      "type": "event"
    },
    {
      "anonymous": false,
      "inputs": [
        {
          "indexed": true,
          "internalType": "address",
          "name": "user",
          "type": "address"
        },
        {
          "indexed": false,
          "internalType": "uint256",
          "name": "positionId",
          "type": "uint256"
        },
        {
          "indexed": false,
          "internalType": "address",
          "name": "pool",
          "type": "address"
        },
        {
          "indexed": false,
          "internalType": "address",
          "name": "token0",
          "type": "address"
        },
        {
          "indexed": false,
          "internalType": "address",
          "name": "token1",
          "type": "address"
        },
        {
          "indexed": false,
          "internalType": "uint256",
          "name": "invest0",
          "type": "uint256"
        },
        {
          "indexed": false,
          "internalType": "uint256",
          "name": "invest1",
          "type": "uint256"
        },
        {
          "indexed": false,
          "internalType": "uint128",
          "name": "liquidity",
          "type": "uint128"
        }
      ],
      "name": "Invest",
      "type": "event"
    },
    {
      "anonymous": false,
      "inputs": [
        {
          "indexed": true,
          "internalType": "address",
          "name": "previousOwner",
          "type": "address"
        },
        {
          "indexed": true,
          "internalType": "address",
          "name": "newOwner",
          "type": "address"
        }
      ],
      "name": "OwnershipTransferred",
      "type": "event"
    },
    {
      "anonymous": false,
      "inputs": [
        {
          "indexed": true,
          "internalType": "address",
          "name": "user",
          "type": "address"
        },
        {
          "indexed": false,
          "internalType": "address",
          "name": "pool",
          "type": "address"
        },
        {
          "indexed": false,
          "internalType": "int256",
          "name": "amount0",
          "type": "int256"
        },
        {
          "indexed": false,
          "internalType": "int256",
          "name": "amount1",
          "type": "int256"
        }
      ],
      "name": "Swap",
      "type": "event"
    },
    {
      "anonymous": false,
      "inputs": [
        {
          "indexed": true,
          "internalType": "address",
          "name": "user",
          "type": "address"
        },
        {
          "indexed": false,
          "internalType": "uint256",
          "name": "positionId",
          "type": "uint256"
        },
        {
          "indexed": false,
          "internalType": "uint256",
          "name": "exit0",
          "type": "uint256"
        },
        {
          "indexed": false,
          "internalType": "uint256",
          "name": "exit1",
          "type": "uint256"
        },
        {
          "indexed": false,
          "internalType": "uint256",
          "name": "invest0",
          "type": "uint256"
        },
        {
          "indexed": false,
          "internalType": "uint256",
          "name": "invest1",
          "type": "uint256"
        },
        {
          "indexed": false,
          "internalType": "uint128",
          "name": "liquidity",
          "type": "uint128"
        }
      ],
      "name": "Switching",
      "type": "event"
    },
    {
      "anonymous": false,
      "inputs": [
        {
          "indexed": false,
          "internalType": "address",
          "name": "oldAddr",
          "type": "address"
        },
        {
          "indexed": false,
          "internalType": "address",
          "name": "newAddr",
          "type": "address"
        }
      ],
      "name": "UpdateDev",
      "type": "event"
    },
    {
      "anonymous": false,
      "inputs": [
        {
          "indexed": false,
          "internalType": "address",
          "name": "oldAddr",
          "type": "address"
        },
        {
          "indexed": false,
          "internalType": "address",
          "name": "newAddr",
          "type": "address"
        }
      ],
      "name": "UpdateManage",
      "type": "event"
    },
    {
      "inputs": [],
      "name": "WETH9",
      "outputs": [
        {
          "internalType": "address",
          "name": "",
          "type": "address"
        }
      ],
      "stateMutability": "view",
      "type": "function"
    },
    {
      "inputs": [],
      "name": "_nextId",
      "outputs": [
        {
          "internalType": "uint176",
          "name": "",
          "type": "uint176"
        }
      ],
      "stateMutability": "view",
      "type": "function"
    },
    {
      "inputs": [
        {
          "internalType": "uint256",
          "name": "positionId",
          "type": "uint256"
        },
        {
          "internalType": "uint256",
          "name": "amount0Desired",
          "type": "uint256"
        },
        {
          "internalType": "uint256",
          "name": "amount1Desired",
          "type": "uint256"
        }
      ],
      "name": "add",
      "outputs": [
        {
          "internalType": "uint256",
          "name": "amount0",
          "type": "uint256"
        },
        {
          "internalType": "uint256",
          "name": "amount1",
          "type": "uint256"
        },
        {
          "internalType": "uint128",
          "name": "liquidity",
          "type": "uint128"
        }
      ],
      "stateMutability": "nonpayable",
      "type": "function"
    },
    {
      "inputs": [],
      "name": "bank",
      "outputs": [
        {
          "internalType": "contract IMulBank",
          "name": "",
          "type": "address"
        }
      ],
      "stateMutability": "view",
      "type": "function"
    },
    {
      "inputs": [
        {
          "internalType": "address",
          "name": "to",
          "type": "address"
        }
      ],
      "name": "claimCommision",
      "outputs": [
        {
          "internalType": "address[]",
          "name": "tokens",
          "type": "address[]"
        },
        {
          "internalType": "uint256[]",
          "name": "commision",
          "type": "uint256[]"
        }
      ],
      "stateMutability": "nonpayable",
      "type": "function"
    },
    {
      "inputs": [
        {
          "internalType": "uint256",
          "name": "positionId",
          "type": "uint256"
        }
      ],
      "name": "collect",
      "outputs": [
        {
          "internalType": "uint128",
          "name": "fee0",
          "type": "uint128"
        },
        {
          "internalType": "uint128",
          "name": "fee1",
          "type": "uint128"
        }
      ],
      "stateMutability": "nonpayable",
      "type": "function"
    },
    {
      "inputs": [],
      "name": "devAddr",
      "outputs": [
        {
          "internalType": "address",
          "name": "",
          "type": "address"
        }
      ],
      "stateMutability": "view",
      "type": "function"
    },
    {
      "inputs": [
        {
          "internalType": "uint256",
          "name": "positionId",
          "type": "uint256"
        }
      ],
      "name": "divest",
      "outputs": [
        {
          "internalType": "uint256",
          "name": "amount0",
          "type": "uint256"
        },
        {
          "internalType": "uint256",
          "name": "amount1",
          "type": "uint256"
        }
      ],
      "stateMutability": "nonpayable",
      "type": "function"
    },
    {
      "inputs": [],
      "name": "factory",
      "outputs": [
        {
          "internalType": "contract IUniswapV3Factory",
          "name": "",
          "type": "address"
        }
      ],
      "stateMutability": "view",
      "type": "function"
    },
    {
      "inputs": [
        {
          "components": [
            {
              "internalType": "address",
              "name": "token0",
              "type": "address"
            },
            {
              "internalType": "address",
              "name": "token1",
              "type": "address"
            },
            {
              "internalType": "uint24",
              "name": "fee",
              "type": "uint24"
            },
            {
              "internalType": "uint256",
              "name": "amount0Desired",
              "type": "uint256"
            },
            {
              "internalType": "uint256",
              "name": "amount1Desired",
              "type": "uint256"
            },
            {
              "internalType": "int24",
              "name": "tickLower",
              "type": "int24"
            },
            {
              "internalType": "int24",
              "name": "tickUpper",
              "type": "int24"
            }
          ],
          "internalType": "struct UniswapV3Strategy.MintParams",
          "name": "params",
          "type": "tuple"
        }
      ],
      "name": "invest",
      "outputs": [
        {
          "internalType": "uint256",
          "name": "amount0",
          "type": "uint256"
        },
        {
          "internalType": "uint256",
          "name": "amount1",
          "type": "uint256"
        },
        {
          "internalType": "uint128",
          "name": "liquidity",
          "type": "uint128"
        }
      ],
      "stateMutability": "nonpayable",
      "type": "function"
    },
    {
      "inputs": [],
      "name": "owner",
      "outputs": [
        {
          "internalType": "address",
          "name": "",
          "type": "address"
        }
      ],
      "stateMutability": "view",
      "type": "function"
    },
    {
      "inputs": [
        {
          "internalType": "uint256",
          "name": "",
          "type": "uint256"
        }
      ],
      "name": "positions",
      "outputs": [
        {
          "internalType": "bool",
          "name": "close",
          "type": "bool"
        },
        {
          "internalType": "address",
          "name": "token0",
          "type": "address"
        },
        {
          "internalType": "address",
          "name": "token1",
          "type": "address"
        },
        {
          "internalType": "uint24",
          "name": "fee",
          "type": "uint24"
        },
        {
          "internalType": "uint256",
          "name": "debt0",
          "type": "uint256"
        },
        {
          "internalType": "uint256",
          "name": "debt1",
          "type": "uint256"
        },
        {
          "internalType": "address",
          "name": "operator",
          "type": "address"
        },
        {
          "internalType": "uint256",
          "name": "exit0",
          "type": "uint256"
        },
        {
          "internalType": "uint256",
          "name": "exit1",
          "type": "uint256"
        },
        {
          "components": [
            {
              "internalType": "int24",
              "name": "tickLower",
              "type": "int24"
            },
            {
              "internalType": "int24",
              "name": "tickUpper",
              "type": "int24"
            },
            {
              "internalType": "uint256",
              "name": "feeGrowthInside0LastX128",
              "type": "uint256"
            },
            {
              "internalType": "uint256",
              "name": "feeGrowthInside1LastX128",
              "type": "uint256"
            },
            {
              "internalType": "uint128",
              "name": "liquidity",
              "type": "uint128"
            }
          ],
          "internalType": "struct UniswapV3Strategy.Tick",
          "name": "tick",
          "type": "tuple"
        }
      ],
      "stateMutability": "view",
      "type": "function"
    },
    {
      "inputs": [],
      "name": "renounceOwnership",
      "outputs": [],
      "stateMutability": "nonpayable",
      "type": "function"
    },
    {
      "inputs": [
        {
          "components": [
            {
              "internalType": "address",
              "name": "token0",
              "type": "address"
            },
            {
              "internalType": "address",
              "name": "token1",
              "type": "address"
            },
            {
              "internalType": "uint24",
              "name": "fee",
              "type": "uint24"
            },
            {
              "internalType": "int256",
              "name": "amountSpecified",
              "type": "int256"
            },
            {
              "internalType": "uint256",
              "name": "amountOutMin",
              "type": "uint256"
            },
            {
              "internalType": "uint256",
              "name": "amountInMax",
              "type": "uint256"
            },
            {
              "internalType": "bool",
              "name": "zeroOne",
              "type": "bool"
            }
          ],
          "internalType": "struct UniswapV3Strategy.SwapParams",
          "name": "params",
          "type": "tuple"
        }
      ],
      "name": "swap",
      "outputs": [
        {
          "internalType": "int256",
          "name": "amount0",
          "type": "int256"
        },
        {
          "internalType": "int256",
          "name": "amount1",
          "type": "int256"
        }
      ],
      "stateMutability": "nonpayable",
      "type": "function"
    },
    {
      "inputs": [
        {
          "components": [
            {
              "internalType": "address",
              "name": "token0",
              "type": "address"
            },
            {
              "internalType": "address",
              "name": "token1",
              "type": "address"
            },
            {
              "internalType": "uint24",
              "name": "fee",
              "type": "uint24"
            },
            {
              "internalType": "int256",
              "name": "amountSpecified",
              "type": "int256"
            },
            {
              "internalType": "uint256",
              "name": "amountOutMin",
              "type": "uint256"
            },
            {
              "internalType": "uint256",
              "name": "amountInMax",
              "type": "uint256"
            },
            {
              "internalType": "bool",
              "name": "zeroOne",
              "type": "bool"
            }
          ],
          "internalType": "struct UniswapV3Strategy.SwapParams",
          "name": "params",
          "type": "tuple"
        }
      ],
      "name": "swapByOwner",
      "outputs": [
        {
          "internalType": "int256",
          "name": "amount0",
          "type": "int256"
        },
        {
          "internalType": "int256",
          "name": "amount1",
          "type": "int256"
        }
      ],
      "stateMutability": "nonpayable",
      "type": "function"
    },
    {
      "inputs": [
        {
          "internalType": "uint256",
          "name": "positionId",
          "type": "uint256"
        },
        {
          "components": [
            {
              "internalType": "int24",
              "name": "tickLower",
              "type": "int24"
            },
            {
              "internalType": "int24",
              "name": "tickUpper",
              "type": "int24"
            },
            {
              "internalType": "uint256",
              "name": "amount0Desired",
              "type": "uint256"
            },
            {
              "internalType": "uint256",
              "name": "amount1Desired",
              "type": "uint256"
            }
          ],
          "internalType": "struct UniswapV3Strategy.SwitchParams",
          "name": "params",
          "type": "tuple"
        }
      ],
      "name": "switching",
      "outputs": [
        {
          "internalType": "uint256",
          "name": "amount0",
          "type": "uint256"
        },
        {
          "internalType": "uint256",
          "name": "amount1",
          "type": "uint256"
        },
        {
          "internalType": "uint128",
          "name": "liquidity",
          "type": "uint128"
        },
        {
          "internalType": "uint256",
          "name": "exit0",
          "type": "uint256"
        },
        {
          "internalType": "uint256",
          "name": "exit1",
          "type": "uint256"
        }
      ],
      "stateMutability": "nonpayable",
      "type": "function"
    },
    {
      "inputs": [
        {
          "internalType": "address",
          "name": "newOwner",
          "type": "address"
        }
      ],
      "name": "transferOwnership",
      "outputs": [],
      "stateMutability": "nonpayable",
      "type": "function"
    },
    {
      "inputs": [
        {
          "internalType": "uint256",
          "name": "amount0Owed",
          "type": "uint256"
        },
        {
          "internalType": "uint256",
          "name": "amount1Owed",
          "type": "uint256"
        },
        {
          "internalType": "bytes",
          "name": "data",
          "type": "bytes"
        }
      ],
      "name": "uniswapV3MintCallback",
      "outputs": [],
      "stateMutability": "nonpayable",
      "type": "function"
    },
    {
      "inputs": [
        {
          "internalType": "int256",
          "name": "amount0Delta",
          "type": "int256"
        },
        {
          "internalType": "int256",
          "name": "amount1Delta",
          "type": "int256"
        },
        {
          "internalType": "bytes",
          "name": "_data",
          "type": "bytes"
        }
      ],
      "name": "uniswapV3SwapCallback",
      "outputs": [],
      "stateMutability": "nonpayable",
      "type": "function"
    },
    {
      "inputs": [
        {
          "internalType": "address",
          "name": "_devAddr",
          "type": "address"
        }
      ],
      "name": "updateDev",
      "outputs": [],
      "stateMutability": "nonpayable",
      "type": "function"
    },
    {
      "inputs": [],
      "name": "work",
      "outputs": [
        {
          "internalType": "contract IUniswapV3WorkCenter",
          "name": "",
          "type": "address"
        }
      ],
      "stateMutability": "view",
      "type": "function"
    },
    {
      "stateMutability": "payable",
      "type": "receive"
    }
  ],
  "bytecode": "0x60a0604052600680546001600160b01b03191690553480156200002157600080fd5b50604051620053663803806200536683398101604081905262000044916200023a565b60006200005062000210565b600080546001600160a01b0319166001600160a01b0383169081178255604051929350917f8be0079c531659141344cd1fd0a4f28419497f9722a3daafe3b4186f6b6457e0908290a350600180556001600160a01b038416620000d05760405162461bcd60e51b8152600401620000c790620002a1565b60405180910390fd5b6001600160a01b038316620000f95760405162461bcd60e51b8152600401620000c790620002a1565b6001600160a01b038216620001225760405162461bcd60e51b8152600401620000c790620002a1565b600280546001600160a01b03199081166001600160a01b0387811691909117909255600480548216868416178155600380548316868516179081905560078054909316858516179092553060601b608052604080516312a9293f60e21b815290519290931692634aa4a4fc9281830192602092829003018186803b158015620001aa57600080fd5b505afa158015620001bf573d6000803e3d6000fd5b505050506040513d601f19601f82011682018060405250810190620001e5919062000214565b600580546001600160a01b0319166001600160a01b039290921691909117905550620002e392505050565b3390565b60006020828403121562000226578081fd5b81516200023381620002ca565b9392505050565b6000806000806080858703121562000250578283fd5b84516200025d81620002ca565b60208601519094506200027081620002ca565b60408601519093506200028381620002ca565b60608601519092506200029681620002ca565b939692955090935050565b6020808252600f908201526e494e56414c49445f4144445245535360881b604082015260600190565b6001600160a01b0381168114620002e057600080fd5b50565b60805160601c61505162000315600039806104f2528061096552806113805280611cfa528061227b52506150516000f3fe60806040526004361061012e5760003560e01c8063934c1938116100ab578063ce3f865f1161006f578063ce3f865f14610373578063d3487997146103a1578063da09c72c146103c1578063f2f2fff5146103d6578063f2fde38b146103f8578063fa461e331461041857610168565b8063934c1938146102ba5780639461f680146102da57806399fbab88146102fa578063b0a75d3314610330578063c45a01551461035e57610168565b8063505fb46c116100f2578063505fb46c1461022c578063715018a61461025b57806376cdb03b146102705780638ca17995146102855780638da5cb5b146102a557610168565b80631ee2adc31461016d578063322e9f04146101a457806334f4e8e1146101c65780634aa4a4fc146101f75780634f22342d1461020c57610168565b36610168576005546001600160a01b031633146101665760405162461bcd60e51b815260040161015d90614cd5565b60405180910390fd5b005b600080fd5b34801561017957600080fd5b5061018d6101883660046144fc565b610438565b60405161019b929190614baf565b60405180910390f35b3480156101b057600080fd5b506101b9610897565b60405161019b9190614895565b3480156101d257600080fd5b506101e66101e13660046146ec565b6108a6565b60405161019b959493929190614ea6565b34801561020357600080fd5b506101b9610fd1565b34801561021857600080fd5b5061018d6102273660046144fc565b610fe0565b34801561023857600080fd5b5061024c610247366004614777565b6112c4565b60405161019b93929190614e87565b34801561026757600080fd5b50610166611698565b34801561027c57600080fd5b506101b9611744565b34801561029157600080fd5b5061018d6102a03660046146bc565b611753565b3480156102b157600080fd5b506101b9611b64565b3480156102c657600080fd5b506101666102d5366004614288565b611b73565b3480156102e657600080fd5b5061024c6102f536600461444a565b611c3e565b34801561030657600080fd5b5061031a6103153660046146bc565b6120f0565b60405161019b9a99989796959493929190614adc565b34801561033c57600080fd5b5061035061034b366004614288565b6121c1565b60405161019b929190614a6b565b34801561036a57600080fd5b506101b9612597565b34801561037f57600080fd5b5061039361038e3660046146bc565b6125a6565b60405161019b929190614de7565b3480156103ad57600080fd5b506101666103bc3660046143de565b612ccf565b3480156103cd57600080fd5b506101b9612e54565b3480156103e257600080fd5b506103eb612e63565b60405161019b9190614e01565b34801561040457600080fd5b50610166610413366004614288565b612e72565b34801561042457600080fd5b506101666104333660046143de565b612f74565b600080600360009054906101000a90046001600160a01b03166001600160a01b03166373e029986040518163ffffffff1660e01b815260040160206040518083038186803b15801561048957600080fd5b505afa15801561049d573d6000803e3d6000fd5b505050506040513d601f19601f820116820180604052508101906104c19190614383565b6104dd5760405162461bcd60e51b815260040161015d90614bbd565b33321480156105145750306001600160a01b037f000000000000000000000000000000000000000000000000000000000000000016145b6105305760405162461bcd60e51b815260040161015d90614d3c565b600254835160208501516040808701519051630b4c774160e11b81526000946001600160a01b031693631698ee8293610570939192909190600401614989565b60206040518083038186803b15801561058857600080fd5b505afa15801561059c573d6000803e3d6000fd5b505050506040513d601f19601f820116820180604052508101906105c091906142a4565b60048054604051633111fc1760e11b815292935060009283926001600160a01b0390921691636223f82e916105f99133918891016148a9565b604080518083038186803b15801561061057600080fd5b505afa158015610624573d6000803e3d6000fd5b505050506040513d601f19601f8201168201806040525081019061064891906143bb565b60035460c089015160608a01519395509193506001600160a01b038681169363128acb08939190921691816106915773fffd8963efd1fc6a506488495d951d5263988d25610698565b6401000276a45b60405180608001604052808d600001516001600160a01b031681526020018d602001516001600160a01b031681526020018d6040015162ffffff168152602001336001600160a01b03168152506040516020016106f59190614dd9565b6040516020818303038152906040526040518663ffffffff1660e01b81526004016107249594939291906149b1565b6040805180830381600087803b15801561073d57600080fd5b505af1158015610751573d6000803e3d6000fd5b505050506040513d601f19601f8201168201806040525081019061077591906143bb565b60c08801519196509450801561078b5750848212155b806107a357508560c001511580156107a35750838112155b6107bf5760405162461bcd60e51b815260040161015d90614d86565b606086015160001280156108105760008087136107df57866000036107e4565b856000035b9050876080015181101561080a5760405162461bcd60e51b815260040161015d90614d1e565b50610849565b600080871361081f5785610821565b865b90508760a001518111156108475760405162461bcd60e51b815260040161015d90614d1e565b505b336001600160a01b03167fa4228e1eb11eb9b31069d9ed20e7af9a010ca1a02d4855cee54e08e188fcc32c858888604051610886939291906149ec565b60405180910390a250505050915091565b6004546001600160a01b031681565b6000806000806000600360009054906101000a90046001600160a01b03166001600160a01b03166373e029986040518163ffffffff1660e01b815260040160206040518083038186803b1580156108fc57600080fd5b505afa158015610910573d6000803e3d6000fd5b505050506040513d601f19601f820116820180604052508101906109349190614383565b6109505760405162461bcd60e51b815260040161015d90614bbd565b33321480156109875750306001600160a01b037f000000000000000000000000000000000000000000000000000000000000000016145b6109a35760405162461bcd60e51b815260040161015d90614d3c565b866000600882815481106109b357fe5b60009182526020918290206040805161014081018252600b909302909101805460ff8116151584526001600160a01b036101009182900481168587015260018301548082168686015262ffffff600160a01b90910416606080870191909152600280850154608080890191909152600386015460a0808a01919091526004870154851660c08a01908152600588015460e08b01526006880154968a019690965287519081018852600787015480840b840b840b825263010000009004830b830b90920b98820198909852600885015495810195909552600984015490850152600a909201546001600160801b03169483019490945261012083019190915291519092503391161480610add5750610ac8611b64565b6001600160a01b0316336001600160a01b0316145b610af95760405162461bcd60e51b815260040161015d90614c5c565b8051158015610b1a57506000816101200151608001516001600160801b0316115b610b365760405162461bcd60e51b815260040161015d90614cae565b600060088a81548110610b4557fe5b90600052602060002090600b020190506000816007019050610b668b6125a6565b505080548a51600291820b820b910b141580610b985750805460208b0151600290810b6301000000909204810b900b14155b610bb45760405162461bcd60e51b815260040161015d90614beb565b60025482546001840154604051630b4c774160e11b81526000936001600160a01b0390811693631698ee8293610c0693610100909204831692811691600160a01b90910462ffffff1690600401614989565b60206040518083038186803b158015610c1e57600080fd5b505afa158015610c32573d6000803e3d6000fd5b505050506040513d601f19601f82011682018060405250810190610c5691906142a4565b8254600384015460405163a34123a760e01b81529293506001600160a01b0384169263a34123a792610ca792600282810b936301000000909304900b916001600160801b0390911690600401614b89565b6040805180830381600087803b158015610cc057600080fd5b505af1158015610cd4573d6000803e3d6000fd5b505050506040513d601f19601f82011682018060405250810190610cf891906143bb565b83546040516309e3d67b60e31b81529299509097506001600160a01b03831691634f1eb3d891610d41913091600281810b926301000000909204900b908d908d90600401614910565b6040805180830381600087803b158015610d5a57600080fd5b505af1158015610d6e573d6000803e3d6000fd5b505050506040513d601f19601f82011682018060405250810190610d929190614584565b5050610d9e8c82613093565b6040805160e081018252845461010090046001600160a01b0390811682526001860154908116602080840191909152600160a01b90910462ffffff1682840152918d01516060808301919091528d015160808201528c51600290810b60a0830152918d015190910b60c0820152610e14906133c4565b809b50819c50829d50839450505050508a600001518260000160006101000a81548162ffffff021916908360020b62ffffff1602179055508a602001518260000160036101000a81548162ffffff021916908360020b62ffffff160217905550898360020181905550888360030181905550878260030160006101000a8154816001600160801b0302191690836001600160801b03160217905550806001600160a01b031663514ea4bf610eeb308560000160009054906101000a900460020b8660000160039054906101000a900460020b61376a565b6040518263ffffffff1660e01b8152600401610f079190614b80565b60a06040518083038186803b158015610f1f57600080fd5b505afa158015610f33573d6000803e3d6000fd5b505050506040513d601f19601f82011682018060405250810190610f5791906145b6565b9091929350905050836001016000856002016000849190505583919050555050336001600160a01b03167fac5f524e27716331e4a51cc66fa8c5214162347ac93bb8180289a25ebd9d5a688d89898e8e8e604051610fba96959493929190614f0c565b60405180910390a250505050509295509295909350565b6005546001600160a01b031681565b600080610feb6137c4565b6001600160a01b0316610ffc611b64565b6001600160a01b031614611045576040805162461bcd60e51b81526020600482018190526024820152600080516020614ffc833981519152604482015290519081900360640190fd5b600254835160208501516040808701519051630b4c774160e11b81526000946001600160a01b031693631698ee8293611085939192909190600401614989565b60206040518083038186803b15801561109d57600080fd5b505afa1580156110b1573d6000803e3d6000fd5b505050506040513d601f19601f820116820180604052508101906110d591906142a4565b60035460c086015160608701519293506001600160a01b038085169363128acb089390911691908161111b5773fffd8963efd1fc6a506488495d951d5263988d25611122565b6401000276a45b604080516080810182528b516001600160a01b0390811682526020808e0151909116818301528c83015162ffffff16828401526000606083015291516111689201614dd9565b6040516020818303038152906040526040518663ffffffff1660e01b81526004016111979594939291906149b1565b6040805180830381600087803b1580156111b057600080fd5b505af11580156111c4573d6000803e3d6000fd5b505050506040513d601f19601f820116820180604052508101906111e891906143bb565b60608601519194509250600012801561123e57600080851361120d5784600003611212565b836000035b905085608001518110156112385760405162461bcd60e51b815260040161015d90614d1e565b50611277565b600080851361124d578361124f565b845b90508560a001518111156112755760405162461bcd60e51b815260040161015d90614d1e565b505b60006001600160a01b03167fa4228e1eb11eb9b31069d9ed20e7af9a010ca1a02d4855cee54e08e188fcc32c8386866040516112b5939291906149ec565b60405180910390a25050915091565b6000806000600360009054906101000a90046001600160a01b03166001600160a01b03166373e029986040518163ffffffff1660e01b815260040160206040518083038186803b15801561131757600080fd5b505afa15801561132b573d6000803e3d6000fd5b505050506040513d601f19601f8201168201806040525081019061134f9190614383565b61136b5760405162461bcd60e51b815260040161015d90614bbd565b33321480156113a25750306001600160a01b037f000000000000000000000000000000000000000000000000000000000000000016145b6113be5760405162461bcd60e51b815260040161015d90614d3c565b856000600882815481106113ce57fe5b60009182526020918290206040805161014081018252600b909302909101805460ff8116151584526001600160a01b036101009182900481168587015260018301548082168686015262ffffff600160a01b90910416606080870191909152600280850154608080890191909152600386015460a0808a01919091526004870154851660c08a01908152600588015460e08b01526006880154968a019690965287519081018852600787015480840b840b840b825263010000009004830b830b90920b98820198909852600885015495810195909552600984015490850152600a909201546001600160801b031694830194909452610120830191909152915190925033911614806114f857506114e3611b64565b6001600160a01b0316336001600160a01b0316145b6115145760405162461bcd60e51b815260040161015d90614c5c565b805115801561153557506000816101200151608001516001600160801b0316115b6115515760405162461bcd60e51b815260040161015d90614cae565b60006008898154811061156057fe5b600091825260208083206040805160e081018252600b94909402909101805461010090046001600160a01b039081168552600182015490811693850193909352600160a01b90920462ffffff1690830152606082018b9052608082018a90526007810154600281810b810b60a08501526301000000909104810b900b60c083015292506115ec906133c4565b9199509750955090506115fe8a6125a6565b5050600a820180546001600160801b038082168801166001600160801b0319909116179055600282015461163290886137c8565b6002830155600382015461164690876137c8565b600383015560405133907f4e26bf96a4004dbd9e7a6bf889ebc8fbb0b98057476634c8a62ce133ed35ec3a90611683908d908b908b908b90614ee8565b60405180910390a25050505093509350939050565b6116a06137c4565b6001600160a01b03166116b1611b64565b6001600160a01b0316146116fa576040805162461bcd60e51b81526020600482018190526024820152600080516020614ffc833981519152604482015290519081900360640190fd5b600080546040516001600160a01b03909116907f8be0079c531659141344cd1fd0a4f28419497f9722a3daafe3b4186f6b6457e0908390a3600080546001600160a01b0319169055565b6003546001600160a01b031681565b6000808260006008828154811061176657fe5b60009182526020918290206040805161014081018252600b909302909101805460ff8116151584526001600160a01b036101009182900481168587015260018301548082168686015262ffffff600160a01b90910416606080870191909152600280850154608080890191909152600386015460a0808a01919091526004870154851660c08a01908152600588015460e08b01526006880154968a019690965287519081018852600787015480840b840b840b825263010000009004830b830b90920b98820198909852600885015495810195909552600984015490850152600a909201546001600160801b03169483019490945261012083019190915291519092503391161480611890575061187b611b64565b6001600160a01b0316336001600160a01b0316145b6118ac5760405162461bcd60e51b815260040161015d90614c5c565b80511580156118cd57506000816101200151608001516001600160801b0316115b6118e95760405162461bcd60e51b815260040161015d90614cae565b6000600886815481106118f857fe5b90600052602060002090600b02019050611911866125a6565b505060025481546001830154604051630b4c774160e11b81526000936001600160a01b0390811693631698ee829361196593610100909204831692811691600160a01b90910462ffffff1690600401614989565b60206040518083038186803b15801561197d57600080fd5b505afa158015611991573d6000803e3d6000fd5b505050506040513d601f19601f820116820180604052508101906119b591906142a4565b6007830154600a84015460405163a34123a760e01b81529293506001600160a01b0384169263a34123a792611a0992600282810b936301000000909304900b916001600160801b0390911690600401614b89565b6040805180830381600087803b158015611a2257600080fd5b505af1158015611a36573d6000803e3d6000fd5b505050506040513d601f19601f82011682018060405250810190611a5a91906143bb565b60078401546040516309e3d67b60e31b81529298509096506001600160a01b03831691634f1eb3d891611aa6913091600281810b926301000000909204900b908c908c90600401614910565b6040805180830381600087803b158015611abf57600080fd5b505af1158015611ad3573d6000803e3d6000fd5b505050506040513d601f19601f82011682018060405250810190611af79190614584565b5050611b038782613093565b600a820180546001600160801b03191690556005820186905560068201859055815460ff1916600117825560405133907f51527f281a5cab89f6d95e0051766e4abe2f4390765a23b856ae420c28f1414c90610886908a908a908a90614ed2565b6000546001600160a01b031690565b611b7b6137c4565b6001600160a01b0316611b8c611b64565b6001600160a01b031614611bd5576040805162461bcd60e51b81526020600482018190526024820152600080516020614ffc833981519152604482015290519081900360640190fd5b6007546040517f3fce9d7d330a5a5fdddc43ed93d6ea4968d4fd6727aab8843d2a6016f1bf4b7791611c14916001600160a01b039091169084906148a9565b60405180910390a1600780546001600160a01b0319166001600160a01b0392909216919091179055565b6000806000600360009054906101000a90046001600160a01b03166001600160a01b03166373e029986040518163ffffffff1660e01b815260040160206040518083038186803b158015611c9157600080fd5b505afa158015611ca5573d6000803e3d6000fd5b505050506040513d601f19601f82011682018060405250810190611cc99190614383565b611ce55760405162461bcd60e51b815260040161015d90614bbd565b3332148015611d1c5750306001600160a01b037f000000000000000000000000000000000000000000000000000000000000000016145b611d385760405162461bcd60e51b815260040161015d90614d3c565b6000611d51611d4c36879003870187614461565b6133c4565b9196509450925090506000611d8530611d7060c0890160a08a0161439f565b611d8060e08a0160c08b0161439f565b61376a565b9050600080836001600160a01b031663514ea4bf846040518263ffffffff1660e01b8152600401611db69190614b80565b60a06040518083038186803b158015611dce57600080fd5b505afa158015611de2573d6000803e3d6000fd5b505050506040513d601f19601f82011682018060405250810190611e0691906145b6565b5050925092505060006040518060a001604052808a60a0016020810190611e2d919061439f565b60020b8152602001611e4560e08c0160c08d0161439f565b60020b8152602001848152602001838152602001876001600160801b0316815250905060086040518061014001604052806000151581526020018b6000016020810190611e929190614288565b6001600160a01b031681526020018b6020016020810190611eb39190614288565b6001600160a01b03168152602001611ed160608d0160408e016146a2565b62ffffff908116825260208083018d905260408084018d90523360608086018290526000608080880182905260a080890183905260c09889018c90528a5460018082018d559b8452928790208a51600b9094020180548b89015160ff1990911694151594909417610100600160a81b0319166101006001600160a01b0395861681029190911782558b8801519c820180548d8801516001600160a01b03199182169f88169f909f1762ffffff60a01b1916600160a01b9f8d169f909f029e909e1790558b840151600280840191909155928c01516003830155998b0151600482018054909d16941693909317909a5560e08901516005830155968801516006808301919091556101209098015180516007830180548389015162ffffff19909116928d0b8a169290921765ffffff0000001916630100000092909c0b90981602999099179095559187015160088501559086015160098401559490920151600a90910180546001600160801b0319166001600160801b0390921691909117905590547f277685e2349c727f8c026893d1d41063f1e92d4092c5d38613f40eac70f3c6f2916001600160b01b0390911690889061208f908e018e614288565b8d60200160208101906120a29190614288565b8d8d8d6040516120b89796959493929190614e15565b60405180910390a25050600680546001600160b01b03808216600101166001600160b01b031990911617905550939592945090925050565b6008818154811061210057600080fd5b6000918252602091829020600b91909102018054600182015460028084015460038501546004860154600587015460068801546040805160a08101825260078b015480890b890b890b825263010000009004880b880b90970b9a87019a909a5260088901549986019990995260098801546060860152600a909701546001600160801b0316608085015260ff861698506101009095046001600160a01b039081169781861697600160a01b90960462ffffff1696939592949190931692908a565b606080600360009054906101000a90046001600160a01b03166001600160a01b03166373e029986040518163ffffffff1660e01b815260040160206040518083038186803b15801561221257600080fd5b505afa158015612226573d6000803e3d6000fd5b505050506040513d601f19601f8201168201806040525081019061224a9190614383565b6122665760405162461bcd60e51b815260040161015d90614bbd565b333214801561229d5750306001600160a01b037f000000000000000000000000000000000000000000000000000000000000000016145b6122b95760405162461bcd60e51b815260040161015d90614d3c565b60048054604051630f41a04d60e11b81526001600160a01b0390911691631e83409a916122e891339101614895565b600060405180830381600087803b15801561230257600080fd5b505af1158015612316573d6000803e3d6000fd5b505050506040513d6000823e601f3d908101601f1916820160405261233e91908101906142c0565b60048054604051637ea1915960e01b815293955091935060009283926001600160a01b031691637ea191599161237691339101614895565b602060405180830381600087803b15801561239057600080fd5b505af11580156123a4573d6000803e3d6000fd5b505050506040513d601f19601f820116820180604052508101906123c891906146d4565b90506000600460009054906101000a90046001600160a01b03166001600160a01b031663fc3c28af6040518163ffffffff1660e01b8152600401602060405180830381600087803b15801561241c57600080fd5b505af1158015612430573d6000803e3d6000fd5b505050506040513d601f19601f8201168201806040525081019061245491906146d4565b905060005b855181101561252857600085828151811061247057fe5b602002602001015111156125205760006124b26127106124ac8589868151811061249657fe5b602002602001015161382b90919063ffffffff16565b90613884565b90506124e18783815181106124c357fe5b602090810291909101015160075483906001600160a01b03166138eb565b60006124f96127106124ac878a878151811061249657fe5b905061251988848151811061250a57fe5b6020026020010151828b6138eb565b6001955050505b600101612459565b50826125465760405162461bcd60e51b815260040161015d90614cf8565b336001600160a01b03167fc43c77f762220ae6f0e226f5948a446a43635876c160c29ecebe259fedf3a4e1868684868b604051612587959493929190614a90565b60405180910390a2505050915091565b6002546001600160a01b031681565b60008060026001541415612601576040805162461bcd60e51b815260206004820152601f60248201527f5265656e7472616e637947756172643a207265656e7472616e742063616c6c00604482015290519081900360640190fd5b60026001819055508260006008828154811061261957fe5b60009182526020918290206040805161014081018252600b909302909101805460ff8116151584526001600160a01b036101009182900481168587015260018301548082168686015262ffffff600160a01b90910416606080870191909152600280850154608080890191909152600386015460a0808a01919091526004870154851660c08a01908152600588015460e08b01526006880154968a019690965287519081018852600787015480840b840b840b825263010000009004830b830b90920b98820198909852600885015495810195909552600984015490850152600a909201546001600160801b03169483019490945261012083019190915291519092503391161480612743575061272e611b64565b6001600160a01b0316336001600160a01b0316145b61275f5760405162461bcd60e51b815260040161015d90614c5c565b805115801561278057506000816101200151608001516001600160801b0316115b61279c5760405162461bcd60e51b815260040161015d90614cae565b6000600886815481106127ab57fe5b600091825260208220600254600b929092020180546001820154604051630b4c774160e11b81529295506007860194936001600160a01b0390811693631698ee829361281393610100909104831692811691600160a01b90910462ffffff1690600401614989565b60206040518083038186803b15801561282b57600080fd5b505afa15801561283f573d6000803e3d6000fd5b505050506040513d601f19601f8201168201806040525081019061286391906142a4565b825460405163a34123a760e01b81529192506001600160a01b0383169163a34123a7916128a591600282810b9263010000009004900b90600090600401614b89565b6040805180830381600087803b1580156128be57600080fd5b505af11580156128d2573d6000803e3d6000fd5b505050506040513d601f19601f820116820180604052508101906128f691906143bb565b5050815460009081906001600160a01b0384169063514ea4bf9061292a903090600281810b9163010000009004900b61376a565b6040518263ffffffff1660e01b81526004016129469190614b80565b60a06040518083038186803b15801561295e57600080fd5b505afa158015612972573d6000803e3d6000fd5b505050506040513d601f19601f8201168201806040525081019061299691906145b6565b5050600187015460038801549295509093506129c392508403906001600160801b0316600160801b613a71565b60028501546003860154919a506129eb91908303906001600160801b0316600160801b613a71565b84546040516309e3d67b60e31b81529199506001600160a01b03851691634f1eb3d891612a31913091600281810b926301000000909204900b908f908f90600401614910565b6040805180830381600087803b158015612a4a57600080fd5b505af1158015612a5e573d6000803e3d6000fd5b505050506040513d601f19601f82011682018060405250810190612a829190614584565b6001860184905560028601839055865460035460405163a9059cbb60e01b8152939c50919a506001600160a01b0361010090910481169263a9059cbb92612acf9216908d90600401614a0d565b602060405180830381600087803b158015612ae957600080fd5b505af1158015612afd573d6000803e3d6000fd5b505050506040513d601f19601f82011682018060405250810190612b219190614383565b50600185015460035460405163a9059cbb60e01b81526001600160a01b039283169263a9059cbb92612b5a929116908c90600401614a0d565b602060405180830381600087803b158015612b7457600080fd5b505af1158015612b88573d6000803e3d6000fd5b505050506040513d601f19601f82011682018060405250810190612bac9190614383565b50600460009054906101000a90046001600160a01b03166001600160a01b031663402609618660040160009054906101000a90046001600160a01b0316858860000160019054906101000a90046001600160a01b03168960010160009054906101000a90046001600160a01b03168e8e6040518763ffffffff1660e01b8152600401612c3d9695949392919061494d565b600060405180830381600087803b158015612c5757600080fd5b505af1158015612c6b573d6000803e3d6000fd5b50505060048601546040516001600160a01b0390911691507fde5e3abbba77c313e4f5881ab0685bbbbb54f38b5cfbdd6230e88642a5df29f190612cb4908d908d908d90614e68565b60405180910390a25050505050505060018081905550915091565b6000612cdd8284018461442f565b600254815160208301516040808501519051630b4c774160e11b81529495506001600160a01b0390931693631698ee8293612d1c939291600401614989565b60206040518083038186803b158015612d3457600080fd5b505afa158015612d48573d6000803e3d6000fd5b505050506040513d601f19601f82011682018060405250810190612d6c91906142a4565b6001600160a01b0316336001600160a01b031614612d9c5760405162461bcd60e51b815260040161015d90614c7f565b8415612db657612db6816000015182606001518733613b20565b8315612dd057612dd0816020015182606001518633613b20565b60048054606083015183516020850151604051634026096160e01b81526001600160a01b0390941694634026096194612e1b949333939092909160008e810392908e9003910161494d565b600060405180830381600087803b158015612e3557600080fd5b505af1158015612e49573d6000803e3d6000fd5b505050505050505050565b6007546001600160a01b031681565b6006546001600160b01b031681565b612e7a6137c4565b6001600160a01b0316612e8b611b64565b6001600160a01b031614612ed4576040805162461bcd60e51b81526020600482018190526024820152600080516020614ffc833981519152604482015290519081900360640190fd5b6001600160a01b038116612f195760405162461bcd60e51b8152600401808060200182810382526026815260200180614fb56026913960400191505060405180910390fd5b600080546040516001600160a01b03808516939216917f8be0079c531659141344cd1fd0a4f28419497f9722a3daafe3b4186f6b6457e091a3600080546001600160a01b0319166001600160a01b0392909216919091179055565b6000841380612f835750600083135b612f8c57600080fd5b6000612f9a8284018461442f565b600254815160208301516040808501519051630b4c774160e11b81529495506001600160a01b0390931693631698ee8293612fd9939291600401614989565b60206040518083038186803b158015612ff157600080fd5b505afa158015613005573d6000803e3d6000fd5b505050506040513d601f19601f8201168201806040525081019061302991906142a4565b6001600160a01b0316336001600160a01b0316146130595760405162461bcd60e51b815260040161015d90614c0e565b600085131561307657613076816000015182606001518733613b20565b6000841315612dd057612dd0816020015182606001518633613b20565b600260015414156130eb576040805162461bcd60e51b815260206004820152601f60248201527f5265656e7472616e637947756172643a207265656e7472616e742063616c6c00604482015290519081900360640190fd5b600260018190555060006008838154811061310257fe5b600091825260208220600b9091020180546040516370a0823160e01b81529193506001600160a01b0361010090910416906370a0823190613147903090600401614895565b60206040518083038186803b15801561315f57600080fd5b505afa158015613173573d6000803e3d6000fd5b505050506040513d601f19601f8201168201806040525081019061319791906146d4565b60018301546040516370a0823160e01b81529192506000916001600160a01b03909116906370a08231906131cf903090600401614895565b60206040518083038186803b1580156131e757600080fd5b505afa1580156131fb573d6000803e3d6000fd5b505050506040513d601f19601f8201168201806040525081019061321f91906146d4565b600480548582015486546001880154604051634026096160e01b81529596506001600160a01b039384169563402609619561326e95948516948c94610100900481169316918a918a910161494d565b600060405180830381600087803b15801561328857600080fd5b505af115801561329c573d6000803e3d6000fd5b5050845460035460405163a9059cbb60e01b81526101009092046001600160a01b03908116945063a9059cbb93506132db929116908690600401614a2f565b602060405180830381600087803b1580156132f557600080fd5b505af1158015613309573d6000803e3d6000fd5b505050506040513d601f19601f8201168201806040525081019061332d9190614383565b50600183015460035460405163a9059cbb60e01b81526001600160a01b039283169263a9059cbb92613366929116908590600401614a2f565b602060405180830381600087803b15801561338057600080fd5b505af1158015613394573d6000803e3d6000fd5b505050506040513d601f19601f820116820180604052508101906133b89190614383565b50506001805550505050565b600254815160208301516040808501519051630b4c774160e11b81526000948594859485946001600160a01b0390931693631698ee8293613409939291600401614989565b60206040518083038186803b15801561342157600080fd5b505afa158015613435573d6000803e3d6000fd5b505050506040513d601f19601f8201168201806040525081019061345991906142a4565b9350836001600160a01b0316630dfe16816040518163ffffffff1660e01b815260040160206040518083038186803b15801561349457600080fd5b505afa1580156134a8573d6000803e3d6000fd5b505050506040513d601f19601f820116820180604052508101906134cc91906142a4565b6001600160a01b031685600001516001600160a01b03161480156135755750836001600160a01b031663d21220a76040518163ffffffff1660e01b815260040160206040518083038186803b15801561352457600080fd5b505afa158015613538573d6000803e3d6000fd5b505050506040513d601f19601f8201168201806040525081019061355c91906142a4565b6001600160a01b031685602001516001600160a01b0316145b6135915760405162461bcd60e51b815260040161015d90614c3d565b6000846001600160a01b0316633850c7bd6040518163ffffffff1660e01b815260040160e06040518083038186803b1580156135cc57600080fd5b505afa1580156135e0573d6000803e3d6000fd5b505050506040513d601f19601f82011682018060405250810190613604919061460c565b50505050505090506136398161361d8860a00151613c3f565b61362a8960c00151613c3f565b89606001518a60800151613f71565b91506000826001600160801b0316116136645760405162461bcd60e51b815260040161015d90614dae565b846001600160a01b0316633c8a7d8d308860a001518960c001518660405180608001604052808d600001516001600160a01b031681526020018d602001516001600160a01b031681526020018d6040015162ffffff168152602001336001600160a01b03168152506040516020016136dc9190614dd9565b6040516020818303038152906040526040518663ffffffff1660e01b815260040161370b9594939291906148c3565b6040805180830381600087803b15801561372457600080fd5b505af1158015613738573d6000803e3d6000fd5b505050506040513d601f19601f8201168201806040525081019061375c91906143bb565b959790965091935090915050565b604080516bffffffffffffffffffffffff19606086901b16602080830191909152600285810b60e890811b60348501529085900b901b60378301528251601a818403018152603a90920190925280519101205b9392505050565b3390565b600082820183811015613822576040805162461bcd60e51b815260206004820152601b60248201527f536166654d6174683a206164646974696f6e206f766572666c6f770000000000604482015290519081900360640190fd5b90505b92915050565b60008261383a57506000613825565b8282028284828161384757fe5b04146138225760405162461bcd60e51b8152600401808060200182810382526021815260200180614fdb6021913960400191505060405180910390fd5b60008082116138da576040805162461bcd60e51b815260206004820152601a60248201527f536166654d6174683a206469766973696f6e206279207a65726f000000000000604482015290519081900360640190fd5b8183816138e357fe5b049392505050565b6005546001600160a01b0384811691161415613a055760035460405163f0fcc6bb60e01b81526001600160a01b039091169063f0fcc6bb9061393590869086903090600401614a48565b600060405180830381600087803b15801561394f57600080fd5b505af1158015613963573d6000803e3d6000fd5b5050600554604051632e1a7d4d60e01b81526001600160a01b039091169250632e1a7d4d9150613997908590600401614b80565b600060405180830381600087803b1580156139b157600080fd5b505af11580156139c5573d6000803e3d6000fd5b50506040516001600160a01b038416925084156108fc02915084906000818181858888f193505050501580156139ff573d6000803e3d6000fd5b50613a6c565b60035460405163f0fcc6bb60e01b81526001600160a01b039091169063f0fcc6bb90613a3990869086908690600401614a48565b600060405180830381600087803b158015613a5357600080fd5b505af1158015613a67573d6000803e3d6000fd5b505050505b505050565b6000808060001985870986860292508281109083900303905080613aa75760008411613a9c57600080fd5b5082900490506137bd565b808411613ab357600080fd5b6000848688096000868103871696879004966002600389028118808a02820302808a02820302808a02820302808a02820302808a02820302808a02909103029181900381900460010186841190950394909402919094039290920491909117919091029150509392505050565b6001600160a01b0383161580613bb757506004805460405163396c0f9760e21b815284926001600160a01b039092169163e5b03e5c91613b649188918a91016148a9565b60206040518083038186803b158015613b7c57600080fd5b505afa158015613b90573d6000803e3d6000fd5b505050506040513d601f19601f82011682018060405250810190613bb491906146d4565b10155b613bd35760405162461bcd60e51b815260040161015d90614d5d565b60035460405163f0fcc6bb60e01b81526001600160a01b039091169063f0fcc6bb90613c0790879086908690600401614a48565b600060405180830381600087803b158015613c2157600080fd5b505af1158015613c35573d6000803e3d6000fd5b5050505050505050565b60008060008360020b12613c56578260020b613c5e565b8260020b6000035b9050620d89e8811115613c9c576040805162461bcd60e51b81526020600482015260016024820152601560fa1b604482015290519081900360640190fd5b600060018216613cb057600160801b613cc2565b6ffffcb933bd6fad37aa2d162d1a5940015b70ffffffffffffffffffffffffffffffffff1690506002821615613cf6576ffff97272373d413259a46990580e213a0260801c5b6004821615613d15576ffff2e50f5f656932ef12357cf3c7fdcc0260801c5b6008821615613d34576fffe5caca7e10e4e61c3624eaa0941cd00260801c5b6010821615613d53576fffcb9843d60f6159c9db58835c9266440260801c5b6020821615613d72576fff973b41fa98c081472e6896dfb254c00260801c5b6040821615613d91576fff2ea16466c96a3843ec78b326b528610260801c5b6080821615613db0576ffe5dee046a99a2a811c461f1969c30530260801c5b610100821615613dd0576ffcbe86c7900a88aedcffc83b479aa3a40260801c5b610200821615613df0576ff987a7253ac413176f2b074cf7815e540260801c5b610400821615613e10576ff3392b0822b70005940c7a398e4b70f30260801c5b610800821615613e30576fe7159475a2c29b7443b29c7fa6e889d90260801c5b611000821615613e50576fd097f3bdfd2022b8845ad8f792aa58250260801c5b612000821615613e70576fa9f746462d870fdf8a65dc1f90e061e50260801c5b614000821615613e90576f70d869a156d2a1b890bb3df62baf32f70260801c5b618000821615613eb0576f31be135f97d08fd981231505542fcfa60260801c5b62010000821615613ed1576f09aa508b5b7a84e1c677de54f3e99bc90260801c5b62020000821615613ef1576e5d6af8dedb81196699c329225ee6040260801c5b62040000821615613f10576d2216e584f5fa1ea926041bedfe980260801c5b62080000821615613f2d576b048a170391f7dc42444e8fa20260801c5b60008460020b1315613f48578060001981613f4457fe5b0490505b640100000000810615613f5c576001613f5f565b60005b60ff16602082901c0192505050919050565b6000836001600160a01b0316856001600160a01b03161115613f91579293925b846001600160a01b0316866001600160a01b031611613fbc57613fb5858585614035565b905061402c565b836001600160a01b0316866001600160a01b0316101561401e576000613fe3878686614035565b90506000613ff2878986614098565b9050806001600160801b0316826001600160801b0316106140135780614015565b815b9250505061402c565b614029858584614098565b90505b95945050505050565b6000826001600160a01b0316846001600160a01b03161115614055579192915b6000614078856001600160a01b0316856001600160a01b0316600160601b613a71565b905061402c61409384838888036001600160a01b0316613a71565b6140dd565b6000826001600160a01b0316846001600160a01b031611156140b8579192915b6140d561409383600160601b8787036001600160a01b0316613a71565b949350505050565b806001600160801b03811681146140f357600080fd5b919050565b80356140f381614f7f565b600082601f830112614113578081fd5b8151602061412861412383614f61565b614f3d565b8281528181019085830183850287018401881015614144578586fd5b855b8581101561416257815184529284019290840190600101614146565b5090979650505050505050565b80356140f381614f97565b60008083601f84011261418b578182fd5b50813567ffffffffffffffff8111156141a2578182fd5b6020830191508360208285010111156141ba57600080fd5b9250929050565b80356140f381614fa5565b6000608082840312156141dd578081fd5b6040516080810181811067ffffffffffffffff821117156141fa57fe5b604052905080823561420b81614f7f565b8152602083013561421b81614f7f565b602082015261422c60408401614275565b6040820152606083013561423f81614f7f565b6060919091015292915050565b80516001600160801b03811681146140f357600080fd5b805161ffff811681146140f357600080fd5b803562ffffff811681146140f357600080fd5b600060208284031215614299578081fd5b813561382281614f7f565b6000602082840312156142b5578081fd5b815161382281614f7f565b600080604083850312156142d2578081fd5b825167ffffffffffffffff808211156142e9578283fd5b818501915085601f8301126142fc578283fd5b8151602061430c61412383614f61565b82815281810190858301838502870184018b1015614328578788fd5b8796505b8487101561435357805161433f81614f7f565b83526001969096019591830191830161432c565b509188015191965090935050508082111561436c578283fd5b5061437985828601614103565b9150509250929050565b600060208284031215614394578081fd5b815161382281614f97565b6000602082840312156143b0578081fd5b813561382281614fa5565b600080604083850312156143cd578182fd5b505080516020909101519092909150565b600080600080606085870312156143f3578182fd5b8435935060208501359250604085013567ffffffffffffffff811115614417578283fd5b6144238782880161417a565b95989497509550505050565b600060808284031215614440578081fd5b6137bd83836141cc565b600060e0828403121561445b578081fd5b50919050565b600060e08284031215614472578081fd5b60405160e0810181811067ffffffffffffffff8211171561448f57fe5b60405261449b836140f8565b81526144a9602084016140f8565b60208201526144ba60408401614275565b604082015260608301356060820152608083013560808201526144df60a084016141c1565b60a08201526144f060c084016141c1565b60c08201529392505050565b600060e0828403121561450d578081fd5b60405160e0810181811067ffffffffffffffff8211171561452a57fe5b604052614536836140f8565b8152614544602084016140f8565b602082015261455560408401614275565b6040820152606083013560608201526080830135608082015260a083013560a08201526144f060c0840161416f565b60008060408385031215614596578182fd5b61459f8361424c565b91506145ad6020840161424c565b90509250929050565b600080600080600060a086880312156145cd578283fd5b6145d68661424c565b945060208601519350604086015192506145f26060870161424c565b91506146006080870161424c565b90509295509295909350565b600080600080600080600060e0888a031215614626578485fd5b875161463181614f7f565b602089015190975061464281614fa5565b955061465060408901614263565b945061465e60608901614263565b935061466c60808901614263565b925060a088015160ff81168114614681578283fd5b60c089015190925061469281614f97565b8091505092959891949750929550565b6000602082840312156146b3578081fd5b6137bd82614275565b6000602082840312156146cd578081fd5b5035919050565b6000602082840312156146e5578081fd5b5051919050565b60008082840360a08112156146ff578283fd5b833592506080601f1982011215614714578182fd5b506040516080810181811067ffffffffffffffff8211171561473257fe5b604052602084013561474381614fa5565b8152604084013561475381614fa5565b60208201526060848101356040830152608090940135938101939093525092909150565b60008060006060848603121561478b578081fd5b505081359360208301359350604090920135919050565b6000815180845260208085019450808401835b838110156147da5781516001600160a01b0316875295820195908201906001016147b5565b509495945050505050565b6000815180845260208085019450808401835b838110156147da578151875295820195908201906001016147f8565b60008151808452815b818110156148395760208185018101518683018201520161481d565b8181111561484a5782602083870101525b50601f01601f19169290920160200192915050565b80516001600160a01b03908116835260208083015182169084015260408083015162ffffff169084015260609182015116910152565b6001600160a01b0391909116815260200190565b6001600160a01b0392831681529116602082015260400190565b600060018060a01b03871682528560020b60208301528460020b60408301526001600160801b038416606083015260a0608083015261490560a0830184614814565b979650505050505050565b6001600160a01b03959095168552600293840b60208601529190920b60408401526001600160801b03918216606084015216608082015260a00190565b6001600160a01b0396871681529486166020860152928516604085015293166060830152600f92830b608083015290910b60a082015260c00190565b6001600160a01b03938416815291909216602082015262ffffff909116604082015260600190565b6001600160a01b0386811682528515156020830152604082018590528316606082015260a06080820181905260009061490590830184614814565b6001600160a01b039390931683526020830191909152604082015260600190565b6001600160a01b039290921682526001600160801b0316602082015260400190565b6001600160a01b03929092168252602082015260400190565b6001600160a01b0393841681526020810192909252909116604082015260600190565b600060408252614a7e60408301856147a2565b828103602084015261402c81856147e5565b600060a08252614aa360a08301886147a2565b8281036020840152614ab581886147e5565b6040840196909652505060608101929092526001600160a01b031660809091015292915050565b60006101c0820190508b1515825260018060a01b03808c166020840152808b16604084015262ffffff8a1660608401528860808401528760a084015280871660c0840152508460e083015283610100830152825160020b610120830152602083015160020b610140830152604083015161016083015260608301516101808301526001600160801b036080840151166101a08301529b9a5050505050505050505050565b90815260200190565b600293840b81529190920b60208201526001600160801b03909116604082015260600190565b918252602082015260400190565b6020808252601490820152734e4f5420434c4f534520504552494f44204e4f5760601b604082015260600190565b6020808252600990820152684e4f204348414e474560b81b604082015260600190565b602080825260159082015274494e56414c494420535741502043414c4c4241434b60581b604082015260600190565b60208082526005908201526427a92222a960d91b604082015260600190565b6020808252600990820152682327a92124a22222a760b91b604082015260600190565b602080825260159082015274494e56414c4944204d494e542043414c4c4241434b60581b604082015260600190565b6020808252600d908201526c414c524541445920434c4f534560981b604082015260600190565b6020808252600990820152684e6f7420574554483960b81b604082015260600190565b6020808252600c908201526b27279021a7a6a6a4a9a4a7a760a11b604082015260600190565b6020808252600490820152630534c49560e41b604082015260600190565b6020808252600790820152666e6f7420656f6160c81b604082015260600190565b6020808252600f908201526e4e4f20454e4f5547482051554f544160881b604082015260600190565b6020808252600e908201526d1253959053125108105353d5539560921b604082015260600190565b602080825260119082015270494e56414c4944204c495155494449545960781b604082015260600190565b60808101613825828461485f565b6001600160801b0392831681529116602082015260400190565b6001600160b01b0391909116815260200190565b6001600160b01b039790971687526001600160a01b0395861660208801529385166040870152919093166060850152608084019290925260a08301919091526001600160801b031660c082015260e00190565b9283526001600160801b03918216602084015216604082015260600190565b92835260208301919091526001600160801b0316604082015260600190565b94855260208501939093526001600160801b039190911660408401526060830152608082015260a00190565b9283526020830191909152604082015260600190565b938452602084019290925260408301526001600160801b0316606082015260800190565b95865260208601949094526040850192909252606084015260808301526001600160801b031660a082015260c00190565b60405181810167ffffffffffffffff81118282101715614f5957fe5b604052919050565b600067ffffffffffffffff821115614f7557fe5b5060209081020190565b6001600160a01b0381168114614f9457600080fd5b50565b8015158114614f9457600080fd5b8060020b8114614f9457600080fdfe4f776e61626c653a206e6577206f776e657220697320746865207a65726f2061646472657373536166654d6174683a206d756c7469706c69636174696f6e206f766572666c6f774f776e61626c653a2063616c6c6572206973206e6f7420746865206f776e6572a26469706673582212205a8e3428b4ad789a1c8c864ea8497fb23276a4d462d75eac766580e8b0f5f6c464736f6c63430007060033",
  "linkReferences": {},
  "deployedLinkReferences": {}
}