{
  "_format": "hh-sol-artifact-1",
  "contractName": "UniswapV3Strategy",
  "sourceName": "contracts/UniswapV3Strategy.sol",
  "abi": [
    {
      "inputs": [
        {
          "internalType": "contract IUniswapV3Factory",
          "name": "_factory",
          "type": "address"
        },
        {
          "internalType": "contract IMulWork",
          "name": "_work",
          "type": "address"
        },
        {
          "internalType": "contract IMulBank",
          "name": "_bank",
          "type": "address"
        }
      ],
      "stateMutability": "nonpayable",
      "type": "constructor"
    },
    {
      "anonymous": false,
      "inputs": [
        {
          "indexed": true,
          "internalType": "address",
          "name": "user",
          "type": "address"
        },
        {
          "indexed": false,
          "internalType": "uint256",
          "name": "positionId",
          "type": "uint256"
        },
        {
          "indexed": false,
          "internalType": "uint256",
          "name": "amount0",
          "type": "uint256"
        },
        {
          "indexed": false,
          "internalType": "uint256",
          "name": "amount1",
          "type": "uint256"
        },
        {
          "indexed": false,
          "internalType": "uint128",
          "name": "liquidity",
          "type": "uint128"
        }
      ],
      "name": "Add",
      "type": "event"
    },
    {
      "anonymous": false,
      "inputs": [
        {
          "indexed": true,
          "internalType": "address",
          "name": "user",
          "type": "address"
        },
        {
          "indexed": false,
          "internalType": "uint256",
          "name": "positionId",
          "type": "uint256"
        },
        {
          "indexed": false,
          "internalType": "uint256",
          "name": "fee0",
          "type": "uint256"
        },
        {
          "indexed": false,
          "internalType": "uint256",
          "name": "fee1",
          "type": "uint256"
        }
      ],
      "name": "Collect",
      "type": "event"
    },
    {
      "anonymous": false,
      "inputs": [
        {
          "indexed": true,
          "internalType": "address",
          "name": "user",
          "type": "address"
        },
        {
          "indexed": false,
          "internalType": "uint256",
          "name": "positionId",
          "type": "uint256"
        },
        {
          "indexed": false,
          "internalType": "uint256",
          "name": "amount0",
          "type": "uint256"
        },
        {
          "indexed": false,
          "internalType": "uint256",
          "name": "amount1",
          "type": "uint256"
        }
      ],
      "name": "Divest",
      "type": "event"
    },
    {
      "anonymous": false,
      "inputs": [
        {
          "indexed": true,
          "internalType": "address",
          "name": "user",
          "type": "address"
        },
        {
          "indexed": false,
          "internalType": "uint256",
          "name": "positionId",
          "type": "uint256"
        },
        {
          "indexed": false,
          "internalType": "address",
          "name": "pool",
          "type": "address"
        },
        {
          "indexed": false,
          "internalType": "address",
          "name": "token0",
          "type": "address"
        },
        {
          "indexed": false,
          "internalType": "address",
          "name": "token1",
          "type": "address"
        },
        {
          "indexed": false,
          "internalType": "uint256",
          "name": "invest0",
          "type": "uint256"
        },
        {
          "indexed": false,
          "internalType": "uint256",
          "name": "invest1",
          "type": "uint256"
        },
        {
          "indexed": false,
          "internalType": "uint128",
          "name": "liquidity",
          "type": "uint128"
        }
      ],
      "name": "Invest",
      "type": "event"
    },
    {
      "anonymous": false,
      "inputs": [
        {
          "indexed": true,
          "internalType": "address",
          "name": "previousOwner",
          "type": "address"
        },
        {
          "indexed": true,
          "internalType": "address",
          "name": "newOwner",
          "type": "address"
        }
      ],
      "name": "OwnershipTransferred",
      "type": "event"
    },
    {
      "anonymous": false,
      "inputs": [
        {
          "indexed": true,
          "internalType": "address",
          "name": "user",
          "type": "address"
        },
        {
          "indexed": false,
          "internalType": "address",
          "name": "pool",
          "type": "address"
        },
        {
          "indexed": false,
          "internalType": "int256",
          "name": "amount0",
          "type": "int256"
        },
        {
          "indexed": false,
          "internalType": "int256",
          "name": "amount1",
          "type": "int256"
        }
      ],
      "name": "Swap",
      "type": "event"
    },
    {
      "anonymous": false,
      "inputs": [
        {
          "indexed": true,
          "internalType": "address",
          "name": "user",
          "type": "address"
        },
        {
          "indexed": false,
          "internalType": "uint256",
          "name": "positionId",
          "type": "uint256"
        },
        {
          "indexed": false,
          "internalType": "uint256",
          "name": "exit0",
          "type": "uint256"
        },
        {
          "indexed": false,
          "internalType": "uint256",
          "name": "exit1",
          "type": "uint256"
        },
        {
          "indexed": false,
          "internalType": "uint256",
          "name": "invest0",
          "type": "uint256"
        },
        {
          "indexed": false,
          "internalType": "uint256",
          "name": "invest1",
          "type": "uint256"
        },
        {
          "indexed": false,
          "internalType": "uint128",
          "name": "liquidity",
          "type": "uint128"
        }
      ],
      "name": "Switching",
      "type": "event"
    },
    {
      "inputs": [],
      "name": "_nextId",
      "outputs": [
        {
          "internalType": "uint176",
          "name": "",
          "type": "uint176"
        }
      ],
      "stateMutability": "view",
      "type": "function"
    },
    {
      "inputs": [
        {
          "internalType": "uint256",
          "name": "positionId",
          "type": "uint256"
        },
        {
          "internalType": "uint256",
          "name": "amount0Desired",
          "type": "uint256"
        },
        {
          "internalType": "uint256",
          "name": "amount1Desired",
          "type": "uint256"
        }
      ],
      "name": "add",
      "outputs": [
        {
          "internalType": "uint256",
          "name": "amount0",
          "type": "uint256"
        },
        {
          "internalType": "uint256",
          "name": "amount1",
          "type": "uint256"
        },
        {
          "internalType": "uint128",
          "name": "liquidity",
          "type": "uint128"
        }
      ],
      "stateMutability": "nonpayable",
      "type": "function"
    },
    {
      "inputs": [],
      "name": "bank",
      "outputs": [
        {
          "internalType": "contract IMulBank",
          "name": "",
          "type": "address"
        }
      ],
      "stateMutability": "view",
      "type": "function"
    },
    {
      "inputs": [
        {
          "internalType": "uint256",
          "name": "positionId",
          "type": "uint256"
        }
      ],
      "name": "collect",
      "outputs": [
        {
          "internalType": "uint128",
          "name": "fee0",
          "type": "uint128"
        },
        {
          "internalType": "uint128",
          "name": "fee1",
          "type": "uint128"
        }
      ],
      "stateMutability": "nonpayable",
      "type": "function"
    },
    {
      "inputs": [
        {
          "internalType": "uint256",
          "name": "positionId",
          "type": "uint256"
        }
      ],
      "name": "divest",
      "outputs": [
        {
          "internalType": "uint256",
          "name": "amount0",
          "type": "uint256"
        },
        {
          "internalType": "uint256",
          "name": "amount1",
          "type": "uint256"
        }
      ],
      "stateMutability": "nonpayable",
      "type": "function"
    },
    {
      "inputs": [],
      "name": "factory",
      "outputs": [
        {
          "internalType": "contract IUniswapV3Factory",
          "name": "",
          "type": "address"
        }
      ],
      "stateMutability": "view",
      "type": "function"
    },
    {
      "inputs": [
        {
          "components": [
            {
              "internalType": "address",
              "name": "token0",
              "type": "address"
            },
            {
              "internalType": "address",
              "name": "token1",
              "type": "address"
            },
            {
              "internalType": "uint24",
              "name": "fee",
              "type": "uint24"
            },
            {
              "internalType": "uint256",
              "name": "amount0Desired",
              "type": "uint256"
            },
            {
              "internalType": "uint256",
              "name": "amount1Desired",
              "type": "uint256"
            },
            {
              "internalType": "int24",
              "name": "tickLower",
              "type": "int24"
            },
            {
              "internalType": "int24",
              "name": "tickUpper",
              "type": "int24"
            }
          ],
          "internalType": "struct UniswapV3Strategy.MintParams",
          "name": "params",
          "type": "tuple"
        }
      ],
      "name": "invest",
      "outputs": [
        {
          "internalType": "uint256",
          "name": "amount0",
          "type": "uint256"
        },
        {
          "internalType": "uint256",
          "name": "amount1",
          "type": "uint256"
        },
        {
          "internalType": "uint128",
          "name": "liquidity",
          "type": "uint128"
        }
      ],
      "stateMutability": "nonpayable",
      "type": "function"
    },
    {
      "inputs": [],
      "name": "owner",
      "outputs": [
        {
          "internalType": "address",
          "name": "",
          "type": "address"
        }
      ],
      "stateMutability": "view",
      "type": "function"
    },
    {
      "inputs": [
        {
          "internalType": "uint256",
          "name": "",
          "type": "uint256"
        }
      ],
      "name": "positions",
      "outputs": [
        {
          "internalType": "bool",
          "name": "close",
          "type": "bool"
        },
        {
          "internalType": "address",
          "name": "token0",
          "type": "address"
        },
        {
          "internalType": "address",
          "name": "token1",
          "type": "address"
        },
        {
          "internalType": "uint24",
          "name": "fee",
          "type": "uint24"
        },
        {
          "internalType": "uint256",
          "name": "debt0",
          "type": "uint256"
        },
        {
          "internalType": "uint256",
          "name": "debt1",
          "type": "uint256"
        },
        {
          "internalType": "address",
          "name": "operator",
          "type": "address"
        },
        {
          "internalType": "uint256",
          "name": "exit0",
          "type": "uint256"
        },
        {
          "internalType": "uint256",
          "name": "exit1",
          "type": "uint256"
        },
        {
          "components": [
            {
              "internalType": "int24",
              "name": "tickLower",
              "type": "int24"
            },
            {
              "internalType": "int24",
              "name": "tickUpper",
              "type": "int24"
            },
            {
              "internalType": "uint256",
              "name": "feeGrowthInside0LastX128",
              "type": "uint256"
            },
            {
              "internalType": "uint256",
              "name": "feeGrowthInside1LastX128",
              "type": "uint256"
            },
            {
              "internalType": "uint128",
              "name": "liquidity",
              "type": "uint128"
            }
          ],
          "internalType": "struct UniswapV3Strategy.Tick",
          "name": "tick",
          "type": "tuple"
        }
      ],
      "stateMutability": "view",
      "type": "function"
    },
    {
      "inputs": [],
      "name": "renounceOwnership",
      "outputs": [],
      "stateMutability": "nonpayable",
      "type": "function"
    },
    {
      "inputs": [],
      "name": "rewardAddr",
      "outputs": [
        {
          "internalType": "address",
          "name": "",
          "type": "address"
        }
      ],
      "stateMutability": "view",
      "type": "function"
    },
    {
      "inputs": [
        {
          "components": [
            {
              "internalType": "address",
              "name": "token0",
              "type": "address"
            },
            {
              "internalType": "address",
              "name": "token1",
              "type": "address"
            },
            {
              "internalType": "uint24",
              "name": "fee",
              "type": "uint24"
            },
            {
              "internalType": "int256",
              "name": "amountSpecified",
              "type": "int256"
            },
            {
              "internalType": "uint256",
              "name": "amountOutMin",
              "type": "uint256"
            },
            {
              "internalType": "uint256",
              "name": "amountInMax",
              "type": "uint256"
            },
            {
              "internalType": "bool",
              "name": "zeroOne",
              "type": "bool"
            }
          ],
          "internalType": "struct UniswapV3Strategy.SwapParams",
          "name": "params",
          "type": "tuple"
        }
      ],
      "name": "swap",
      "outputs": [
        {
          "internalType": "int256",
          "name": "amount0",
          "type": "int256"
        },
        {
          "internalType": "int256",
          "name": "amount1",
          "type": "int256"
        }
      ],
      "stateMutability": "nonpayable",
      "type": "function"
    },
    {
      "inputs": [
        {
          "internalType": "uint256",
          "name": "positionId",
          "type": "uint256"
        },
        {
          "components": [
            {
              "internalType": "int24",
              "name": "tickLower",
              "type": "int24"
            },
            {
              "internalType": "int24",
              "name": "tickUpper",
              "type": "int24"
            },
            {
              "internalType": "uint256",
              "name": "amount0Desired",
              "type": "uint256"
            },
            {
              "internalType": "uint256",
              "name": "amount1Desired",
              "type": "uint256"
            }
          ],
          "internalType": "struct UniswapV3Strategy.SwitchParams",
          "name": "params",
          "type": "tuple"
        }
      ],
      "name": "switching",
      "outputs": [
        {
          "internalType": "uint256",
          "name": "amount0",
          "type": "uint256"
        },
        {
          "internalType": "uint256",
          "name": "amount1",
          "type": "uint256"
        },
        {
          "internalType": "uint128",
          "name": "liquidity",
          "type": "uint128"
        },
        {
          "internalType": "uint256",
          "name": "exit0",
          "type": "uint256"
        },
        {
          "internalType": "uint256",
          "name": "exit1",
          "type": "uint256"
        }
      ],
      "stateMutability": "nonpayable",
      "type": "function"
    },
    {
      "inputs": [
        {
          "internalType": "address",
          "name": "newOwner",
          "type": "address"
        }
      ],
      "name": "transferOwnership",
      "outputs": [],
      "stateMutability": "nonpayable",
      "type": "function"
    },
    {
      "inputs": [
        {
          "internalType": "uint256",
          "name": "amount0Owed",
          "type": "uint256"
        },
        {
          "internalType": "uint256",
          "name": "amount1Owed",
          "type": "uint256"
        },
        {
          "internalType": "bytes",
          "name": "data",
          "type": "bytes"
        }
      ],
      "name": "uniswapV3MintCallback",
      "outputs": [],
      "stateMutability": "nonpayable",
      "type": "function"
    },
    {
      "inputs": [
        {
          "internalType": "int256",
          "name": "amount0Delta",
          "type": "int256"
        },
        {
          "internalType": "int256",
          "name": "amount1Delta",
          "type": "int256"
        },
        {
          "internalType": "bytes",
          "name": "_data",
          "type": "bytes"
        }
      ],
      "name": "uniswapV3SwapCallback",
      "outputs": [],
      "stateMutability": "nonpayable",
      "type": "function"
    },
    {
      "inputs": [],
      "name": "work",
      "outputs": [
        {
          "internalType": "contract IMulWork",
          "name": "",
          "type": "address"
        }
      ],
      "stateMutability": "view",
      "type": "function"
    }
  ],
  "bytecode": "0x6080604052600580546001600160b01b03191690553480156200002157600080fd5b506040516200433338038062004333833981016040819052620000449162000169565b60006200005062000165565b600080546001600160a01b0319166001600160a01b0383169081178255604051929350917f8be0079c531659141344cd1fd0a4f28419497f9722a3daafe3b4186f6b6457e0908290a350600180556001600160a01b038316620000d05760405162461bcd60e51b8152600401620000c790620001bc565b60405180910390fd5b6001600160a01b038216620000f95760405162461bcd60e51b8152600401620000c790620001bc565b6001600160a01b038116620001225760405162461bcd60e51b8152600401620000c790620001bc565b600280546001600160a01b039485166001600160a01b031991821617909155600480549385169382169390931790925560038054919093169116179055620001fe565b3390565b6000806000606084860312156200017e578283fd5b83516200018b81620001e5565b60208501519093506200019e81620001e5565b6040850151909250620001b181620001e5565b809150509250925092565b6020808252600f908201526e494e56414c49445f4144445245535360881b604082015260600190565b6001600160a01b0381168114620001fb57600080fd5b50565b614125806200020e6000396000f3fe608060405234801561001057600080fd5b506004361061010b5760003560e01c80638da5cb5b116100a2578063ce3f865f11610071578063ce3f865f1461020e578063d34879971461022f578063f2f2fff514610242578063f2fde38b14610257578063fa461e331461026a5761010b565b80638da5cb5b146101c25780639461f680146101ca57806399fbab88146101dd578063c45a0155146102065761010b565b80637015e95e116100de5780637015e95e14610195578063715018a61461019d57806376cdb03b146101a75780638ca17995146101af5761010b565b80631ee2adc314610110578063322e9f041461013a57806334f4e8e11461014f578063505fb46c14610173575b600080fd5b61012361011e36600461376a565b61027d565b604051610131929190613cf4565b60405180910390f35b610142610693565b6040516101319190613a6d565b61016261015d36600461395a565b6106a2565b604051610131959493929190613ffd565b6101866101813660046139f7565b610d57565b60405161013193929190613fde565b6101426110b5565b6101a56110c4565b005b610142611182565b6101236101bd36600461392a565b611191565b61014261157f565b6101866101d8366004613629565b61158e565b6101f06101eb36600461392a565b6119ec565b6040516101319a99989796959493929190613c21565b610142611abd565b61022161021c36600461392a565b611acc565b604051610131929190613f3e565b6101a561023d36600461355c565b612140565b61024a6122c9565b6040516101319190613f58565b6101a56102653660046134c9565b6122d8565b6101a561027836600461355c565b6123ec565b600080600360009054906101000a90046001600160a01b03166001600160a01b03166373e029986040518163ffffffff1660e01b815260040160206040518083038186803b1580156102ce57600080fd5b505afa1580156102e2573d6000803e3d6000fd5b505050506040513d601f19601f820116820180604052508101906103069190613501565b61032b5760405162461bcd60e51b815260040161032290613d02565b60405180910390fd5b600254835160208501516040808701519051630b4c774160e11b81526000946001600160a01b031693631698ee829361036b939192909190600401613ad7565b60206040518083038186803b15801561038357600080fd5b505afa158015610397573d6000803e3d6000fd5b505050506040513d601f19601f820116820180604052508101906103bb91906134e5565b60048054604051633111fc1760e11b815292935060009283926001600160a01b0390921691636223f82e916103f4913391889101613a81565b604080518083038186803b15801561040b57600080fd5b505afa15801561041f573d6000803e3d6000fd5b505050506040513d601f19601f820116820180604052508101906104439190613539565b91509150826001600160a01b031663128acb08308860c0015189606001518a60c001516104845773fffd8963efd1fc6a506488495d951d5263988d2561048b565b6401000276a45b6040518060a001604052808d600001516001600160a01b031681526020018d602001516001600160a01b031681526020018d6040015162ffffff168152602001336001600160a01b03168152602001600115158152506040516020016104f19190613ef2565b6040516020818303038152906040526040518663ffffffff1660e01b8152600401610520959493929190613aff565b6040805180830381600087803b15801561053957600080fd5b505af115801561054d573d6000803e3d6000fd5b505050506040513d601f19601f820116820180604052508101906105719190613539565b60c0880151919650945080156105875750848212155b8061059f57508560c0015115801561059f5750838112155b6105bb5760405162461bcd60e51b815260040161032290613e61565b6060860151600012801561060c5760008087136105db57866000036105e0565b856000035b905087608001518110156106065760405162461bcd60e51b815260040161032290613e1a565b50610645565b600080871361061b578561061d565b865b90508760a001518111156106435760405162461bcd60e51b815260040161032290613e1a565b505b336001600160a01b03167fa4228e1eb11eb9b31069d9ed20e7af9a010ca1a02d4855cee54e08e188fcc32c85888860405161068293929190613bc4565b60405180910390a250505050915091565b6004546001600160a01b031681565b6000806000806000600360009054906101000a90046001600160a01b03166001600160a01b03166373e029986040518163ffffffff1660e01b815260040160206040518083038186803b1580156106f857600080fd5b505afa15801561070c573d6000803e3d6000fd5b505050506040513d601f19601f820116820180604052508101906107309190613501565b61074c5760405162461bcd60e51b815260040161032290613d02565b8660006007828154811061075c57fe5b60009182526020918290206040805161014081018252600b909302909101805460ff8116151584526001600160a01b036101009182900481168587015260018301548082168686015262ffffff600160a01b90910416606080870191909152600280850154608080890191909152600386015460a0808a01919091526004870154851660c08a01908152600588015460e08b01526006880154968a019690965287519081018852600787015480840b840b840b825263010000009004830b830b90920b98820198909852600885015495810195909552600984015490850152600a909201546001600160801b03169483019490945261012083019190915291519092503391161461087f5760405162461bcd60e51b815260040161032290613da1565b80511580156108a057506000816101200151608001516001600160801b0316115b6108bc5760405162461bcd60e51b815260040161032290613df3565b600060078a815481106108cb57fe5b90600052602060002090600b0201905060008160070190506108ec8b611acc565b505080548a51600291820b820b910b14158061091e5750805460208b0151600290810b6301000000909204810b900b14155b61093a5760405162461bcd60e51b815260040161032290613d30565b60025482546001840154604051630b4c774160e11b81526000936001600160a01b0390811693631698ee829361098c93610100909204831692811691600160a01b90910462ffffff1690600401613ad7565b60206040518083038186803b1580156109a457600080fd5b505afa1580156109b8573d6000803e3d6000fd5b505050506040513d601f19601f820116820180604052508101906109dc91906134e5565b8254600384015460405163a34123a760e01b81529293506001600160a01b0384169263a34123a792610a2d92600282810b936301000000909304900b916001600160801b0390911690600401613cce565b6040805180830381600087803b158015610a4657600080fd5b505af1158015610a5a573d6000803e3d6000fd5b505050506040513d601f19601f82011682018060405250810190610a7e91906139e5565b83546040516309e3d67b60e31b81529299509097506001600160a01b03831691634f1eb3d891610ac7913091600281810b926301000000909204900b908d908d90600401613b87565b6040805180830381600087803b158015610ae057600080fd5b505af1158015610af4573d6000803e3d6000fd5b505050506040513d601f19601f82011682018060405250810190610b1891906137f2565b5050610b248c82612571565b6040805160e081018252845461010090046001600160a01b0390811682526001860154908116602080840191909152600160a01b90910462ffffff1682840152918d01516060808301919091528d015160808201528c51600290810b60a0830152918d015190910b60c0820152610b9a90612981565b809b50819c50829d50839450505050508a600001518260000160006101000a81548162ffffff021916908360020b62ffffff1602179055508a602001518260000160036101000a81548162ffffff021916908360020b62ffffff160217905550898360020181905550888360030181905550878260030160006101000a8154816001600160801b0302191690836001600160801b03160217905550806001600160a01b031663514ea4bf610c71308560000160009054906101000a900460020b8660000160039054906101000a900460020b612d27565b6040518263ffffffff1660e01b8152600401610c8d9190613cc5565b60a06040518083038186803b158015610ca557600080fd5b505afa158015610cb9573d6000803e3d6000fd5b505050506040513d601f19601f82011682018060405250810190610cdd9190613824565b9091929350905050836001016000856002016000849190505583919050555050336001600160a01b03167fac5f524e27716331e4a51cc66fa8c5214162347ac93bb8180289a25ebd9d5a688d89898e8e8e604051610d4096959493929190614063565b60405180910390a250505050509295509295909350565b6000806000600360009054906101000a90046001600160a01b03166001600160a01b03166373e029986040518163ffffffff1660e01b815260040160206040518083038186803b158015610daa57600080fd5b505afa158015610dbe573d6000803e3d6000fd5b505050506040513d601f19601f82011682018060405250810190610de29190613501565b610dfe5760405162461bcd60e51b815260040161032290613d02565b85600060078281548110610e0e57fe5b60009182526020918290206040805161014081018252600b909302909101805460ff8116151584526001600160a01b036101009182900481168587015260018301548082168686015262ffffff600160a01b90910416606080870191909152600280850154608080890191909152600386015460a0808a01919091526004870154851660c08a01908152600588015460e08b01526006880154968a019690965287519081018852600787015480840b840b840b825263010000009004830b830b90920b98820198909852600885015495810195909552600984015490850152600a909201546001600160801b031694830194909452610120830191909152915190925033911614610f315760405162461bcd60e51b815260040161032290613da1565b8051158015610f5257506000816101200151608001516001600160801b0316115b610f6e5760405162461bcd60e51b815260040161032290613df3565b600060078981548110610f7d57fe5b600091825260208083206040805160e081018252600b94909402909101805461010090046001600160a01b039081168552600182015490811693850193909352600160a01b90920462ffffff1690830152606082018b9052608082018a90526007810154600281810b810b60a08501526301000000909104810b900b60c0830152925061100990612981565b91995097509550905061101b8a611acc565b5050600a820180546001600160801b038082168801166001600160801b0319909116179055600282015461104f9088612d81565b600283015560038201546110639087612d81565b600383015560405133907f4e26bf96a4004dbd9e7a6bf889ebc8fbb0b98057476634c8a62ce133ed35ec3a906110a0908d908b908b908b9061403f565b60405180910390a25050505093509350939050565b6006546001600160a01b031681565b6110cc612ddb565b6001600160a01b03166110dd61157f565b6001600160a01b031614611138576040805162461bcd60e51b815260206004820181905260248201527f4f776e61626c653a2063616c6c6572206973206e6f7420746865206f776e6572604482015290519081900360640190fd5b600080546040516001600160a01b03909116907f8be0079c531659141344cd1fd0a4f28419497f9722a3daafe3b4186f6b6457e0908390a3600080546001600160a01b0319169055565b6003546001600160a01b031681565b600080826000600782815481106111a457fe5b60009182526020918290206040805161014081018252600b909302909101805460ff8116151584526001600160a01b036101009182900481168587015260018301548082168686015262ffffff600160a01b90910416606080870191909152600280850154608080890191909152600386015460a0808a01919091526004870154851660c08a01908152600588015460e08b01526006880154968a019690965287519081018852600787015480840b840b840b825263010000009004830b830b90920b98820198909852600885015495810195909552600984015490850152600a909201546001600160801b0316948301949094526101208301919091529151909250339116146112c75760405162461bcd60e51b815260040161032290613da1565b80511580156112e857506000816101200151608001516001600160801b0316115b6113045760405162461bcd60e51b815260040161032290613df3565b60006007868154811061131357fe5b90600052602060002090600b0201905061132c86611acc565b505060025481546001830154604051630b4c774160e11b81526000936001600160a01b0390811693631698ee829361138093610100909204831692811691600160a01b90910462ffffff1690600401613ad7565b60206040518083038186803b15801561139857600080fd5b505afa1580156113ac573d6000803e3d6000fd5b505050506040513d601f19601f820116820180604052508101906113d091906134e5565b6007830154600a84015460405163a34123a760e01b81529293506001600160a01b0384169263a34123a79261142492600282810b936301000000909304900b916001600160801b0390911690600401613cce565b6040805180830381600087803b15801561143d57600080fd5b505af1158015611451573d6000803e3d6000fd5b505050506040513d601f19601f8201168201806040525081019061147591906139e5565b60078401546040516309e3d67b60e31b81529298509096506001600160a01b03831691634f1eb3d8916114c1913091600281810b926301000000909204900b908c908c90600401613b87565b6040805180830381600087803b1580156114da57600080fd5b505af11580156114ee573d6000803e3d6000fd5b505050506040513d601f19601f8201168201806040525081019061151291906137f2565b505061151e8782612571565b600a820180546001600160801b03191690556005820186905560068201859055815460ff1916600117825560405133907f51527f281a5cab89f6d95e0051766e4abe2f4390765a23b856ae420c28f1414c90610682908a908a908a90614029565b6000546001600160a01b031690565b6000806000600360009054906101000a90046001600160a01b03166001600160a01b03166373e029986040518163ffffffff1660e01b815260040160206040518083038186803b1580156115e157600080fd5b505afa1580156115f5573d6000803e3d6000fd5b505050506040513d601f19601f820116820180604052508101906116199190613501565b6116355760405162461bcd60e51b815260040161032290613d02565b600061164e61164936879003870187613640565b612981565b91965094509250905060006116823061166d60c0890160a08a0161351d565b61167d60e08a0160c08b0161351d565b612d27565b9050600080836001600160a01b031663514ea4bf846040518263ffffffff1660e01b81526004016116b39190613cc5565b60a06040518083038186803b1580156116cb57600080fd5b505afa1580156116df573d6000803e3d6000fd5b505050506040513d601f19601f820116820180604052508101906117039190613824565b5050925092505060006040518060a001604052808a60a001602081019061172a919061351d565b60020b815260200161174260e08c0160c08d0161351d565b60020b8152602001848152602001838152602001876001600160801b0316815250905060076040518061014001604052806000151581526020018b600001602081019061178f91906134c9565b6001600160a01b031681526020018b60200160208101906117b091906134c9565b6001600160a01b031681526020016117ce60608d0160408e01613910565b62ffffff908116825260208083018d905260408084018d90523360608086018290526000608080880182905260a080890183905260c09889018c90528a5460018082018d559b8452928790208a51600b9094020180548b89015160ff1990911694151594909417610100600160a81b0319166101006001600160a01b0395861681029190911782558b8801519c820180548d8801516001600160a01b03199182169f88169f909f1762ffffff60a01b1916600160a01b9f8d169f909f029e909e1790558b840151600280840191909155928c01516003830155998b0151600482018054909d16941693909317909a5560e08901516005808401919091559789015160068301556101209098015180516007830180548389015162ffffff19909116928d0b8a169290921765ffffff0000001916630100000092909c0b90981602999099179095559187015160088501559086015160098401559490930151600a90910180546001600160801b0319166001600160801b03909216919091179055547f277685e2349c727f8c026893d1d41063f1e92d4092c5d38613f40eac70f3c6f2916001600160b01b0390911690889061198b908e018e6134c9565b8d602001602081019061199e91906134c9565b8d8d8d6040516119b49796959493929190613f6c565b60405180910390a25050600580546001600160b01b03808216600101166001600160b01b031990911617905550939592945090925050565b600781815481106119fc57600080fd5b6000918252602091829020600b91909102018054600182015460028084015460038501546004860154600587015460068801546040805160a08101825260078b015480890b890b890b825263010000009004880b880b90970b9a87019a909a5260088901549986019990995260098801546060860152600a909701546001600160801b0316608085015260ff861698506101009095046001600160a01b039081169781861697600160a01b90960462ffffff1696939592949190931692908a565b6002546001600160a01b031681565b60008060026001541415611b27576040805162461bcd60e51b815260206004820152601f60248201527f5265656e7472616e637947756172643a207265656e7472616e742063616c6c00604482015290519081900360640190fd5b600260015560035460408051630e7c053360e31b815290516001600160a01b03909216916373e0299891600480820192602092909190829003018186803b158015611b7157600080fd5b505afa158015611b85573d6000803e3d6000fd5b505050506040513d601f19601f82011682018060405250810190611ba99190613501565b611bc55760405162461bcd60e51b815260040161032290613d02565b82600060078281548110611bd557fe5b60009182526020918290206040805161014081018252600b909302909101805460ff8116151584526001600160a01b036101009182900481168587015260018301548082168686015262ffffff600160a01b90910416606080870191909152600280850154608080890191909152600386015460a0808a01919091526004870154851660c08a01908152600588015460e08b01526006880154968a019690965287519081018852600787015480840b840b840b825263010000009004830b830b90920b98820198909852600885015495810195909552600984015490850152600a909201546001600160801b031694830194909452610120830191909152915190925033911614611cf85760405162461bcd60e51b815260040161032290613da1565b8051158015611d1957506000816101200151608001516001600160801b0316115b611d355760405162461bcd60e51b815260040161032290613df3565b600060078681548110611d4457fe5b600091825260208220600254600b929092020180546001820154604051630b4c774160e11b81529295506007860194936001600160a01b0390811693631698ee8293611dac93610100909104831692811691600160a01b90910462ffffff1690600401613ad7565b60206040518083038186803b158015611dc457600080fd5b505afa158015611dd8573d6000803e3d6000fd5b505050506040513d601f19601f82011682018060405250810190611dfc91906134e5565b825460405163a34123a760e01b81529192506001600160a01b0383169163a34123a791611e3e91600282810b9263010000009004900b90600090600401613cce565b6040805180830381600087803b158015611e5757600080fd5b505af1158015611e6b573d6000803e3d6000fd5b505050506040513d601f19601f82011682018060405250810190611e8f91906139e5565b5050815460009081906001600160a01b0384169063514ea4bf90611ec3903090600281810b9163010000009004900b612d27565b6040518263ffffffff1660e01b8152600401611edf9190613cc5565b60a06040518083038186803b158015611ef757600080fd5b505afa158015611f0b573d6000803e3d6000fd5b505050506040513d601f19601f82011682018060405250810190611f2f9190613824565b505060018701546003880154929550909350611f5c92508403906001600160801b0316600160801b612ddf565b60028501546003860154919a50611f8491908303906001600160801b0316600160801b612ddf565b84546040516309e3d67b60e31b81529199506001600160a01b03851691634f1eb3d891611fca913091600281810b926301000000909204900b908f908f90600401613b87565b6040805180830381600087803b158015611fe357600080fd5b505af1158015611ff7573d6000803e3d6000fd5b505050506040513d601f19601f8201168201806040525081019061201b91906137f2565b809950819a505050818460010181905550808460020181905550600460009054906101000a90046001600160a01b03166001600160a01b0316634026096133858860000160019054906101000a90046001600160a01b03168960010160009054906101000a90046001600160a01b03168e8e6040518763ffffffff1660e01b81526004016120ae96959493929190613a9b565b600060405180830381600087803b1580156120c857600080fd5b505af11580156120dc573d6000803e3d6000fd5b50505060048601546040516001600160a01b0390911691507fde5e3abbba77c313e4f5881ab0685bbbbb54f38b5cfbdd6230e88642a5df29f190612125908d908d908d90613fbf565b60405180910390a25050505050505060018081905550915091565b600061214e828401846135ad565b600254815160208301516040808501519051630b4c774160e11b81529495506001600160a01b0390931693631698ee829361218d939291600401613ad7565b60206040518083038186803b1580156121a557600080fd5b505afa1580156121b9573d6000803e3d6000fd5b505050506040513d601f19601f820116820180604052508101906121dd91906134e5565b6001600160a01b0316336001600160a01b03161461220d5760405162461bcd60e51b815260040161032290613dc4565b8415612229576122298160000151826060015187336001612e8e565b8315612245576122458160200151826060015186336001612e8e565b60048054606083015183516020850151604051634026096160e01b81526001600160a01b0390941694634026096194612290949333939092909160008e810392908e90039101613a9b565b600060405180830381600087803b1580156122aa57600080fd5b505af11580156122be573d6000803e3d6000fd5b505050505050505050565b6005546001600160b01b031681565b6122e0612ddb565b6001600160a01b03166122f161157f565b6001600160a01b03161461234c576040805162461bcd60e51b815260206004820181905260248201527f4f776e61626c653a2063616c6c6572206973206e6f7420746865206f776e6572604482015290519081900360640190fd5b6001600160a01b0381166123915760405162461bcd60e51b81526004018080602001828103825260268152602001806140ca6026913960400191505060405180910390fd5b600080546040516001600160a01b03808516939216917f8be0079c531659141344cd1fd0a4f28419497f9722a3daafe3b4186f6b6457e091a3600080546001600160a01b0319166001600160a01b0392909216919091179055565b60008413806123fb5750600083135b61240457600080fd5b6000612412828401846136db565b600254815160208301516040808501519051630b4c774160e11b81529495506001600160a01b0390931693631698ee8293612451939291600401613ad7565b60206040518083038186803b15801561246957600080fd5b505afa15801561247d573d6000803e3d6000fd5b505050506040513d601f19601f820116820180604052508101906124a191906134e5565b6001600160a01b0316336001600160a01b0316146124d15760405162461bcd60e51b815260040161032290613d53565b60008513156124f3576124f38160000151826060015187338560800151612e8e565b6000841315612515576125158160200151826060015186338560800151612e8e565b80608001511561256a5760048054606083015183516020850151604051634026096160e01b81526001600160a01b0390941694634026096194612290949333939092909160008e810392908e90039101613a9b565b5050505050565b600260015414156125c9576040805162461bcd60e51b815260206004820152601f60248201527f5265656e7472616e637947756172643a207265656e7472616e742063616c6c00604482015290519081900360640190fd5b60026001819055506000600783815481106125e057fe5b600091825260208220600b9091020180546040516370a0823160e01b81529193506001600160a01b0361010090910416906370a0823190612625903090600401613a6d565b60206040518083038186803b15801561263d57600080fd5b505afa158015612651573d6000803e3d6000fd5b505050506040513d601f19601f820116820180604052508101906126759190613942565b60018301546040516370a0823160e01b81529192506000916001600160a01b03909116906370a08231906126ad903090600401613a6d565b60206040518083038186803b1580156126c557600080fd5b505afa1580156126d9573d6000803e3d6000fd5b505050506040513d601f19601f820116820180604052508101906126fd9190613942565b600480548582015486546001880154604051634026096160e01b81529596506001600160a01b039384169563402609619561274c95948516948c94610100900481169316918a918a9101613a9b565b600060405180830381600087803b15801561276657600080fd5b505af115801561277a573d6000803e3d6000fd5b5050845460035460405163a9059cbb60e01b81526101009092046001600160a01b03908116945063a9059cbb93506127b9929116908690600401613be5565b602060405180830381600087803b1580156127d357600080fd5b505af11580156127e7573d6000803e3d6000fd5b505050506040513d601f19601f8201168201806040525081019061280b9190613501565b50600183015460035460405163a9059cbb60e01b81526001600160a01b039283169263a9059cbb92612844929116908590600401613be5565b602060405180830381600087803b15801561285e57600080fd5b505af1158015612872573d6000803e3d6000fd5b505050506040513d601f19601f820116820180604052508101906128969190613501565b506003548354600285015460405163192400d360e01b81526001600160a01b039384169363192400d3936128d69361010090910490911691600401613be5565b600060405180830381600087803b1580156128f057600080fd5b505af1158015612904573d6000803e3d6000fd5b50506003805460018701549187015460405163192400d360e01b81526001600160a01b03928316955063192400d394506129449390921691600401613be5565b600060405180830381600087803b15801561295e57600080fd5b505af1158015612972573d6000803e3d6000fd5b50506001805550505050505050565b600254815160208301516040808501519051630b4c774160e11b81526000948594859485946001600160a01b0390931693631698ee82936129c6939291600401613ad7565b60206040518083038186803b1580156129de57600080fd5b505afa1580156129f2573d6000803e3d6000fd5b505050506040513d601f19601f82011682018060405250810190612a1691906134e5565b9350836001600160a01b0316630dfe16816040518163ffffffff1660e01b815260040160206040518083038186803b158015612a5157600080fd5b505afa158015612a65573d6000803e3d6000fd5b505050506040513d601f19601f82011682018060405250810190612a8991906134e5565b6001600160a01b031685600001516001600160a01b0316148015612b325750836001600160a01b031663d21220a76040518163ffffffff1660e01b815260040160206040518083038186803b158015612ae157600080fd5b505afa158015612af5573d6000803e3d6000fd5b505050506040513d601f19601f82011682018060405250810190612b1991906134e5565b6001600160a01b031685602001516001600160a01b0316145b612b4e5760405162461bcd60e51b815260040161032290613d82565b6000846001600160a01b0316633850c7bd6040518163ffffffff1660e01b815260040160e06040518083038186803b158015612b8957600080fd5b505afa158015612b9d573d6000803e3d6000fd5b505050506040513d601f19601f82011682018060405250810190612bc1919061387a565b5050505050509050612bf681612bda8860a00151612f6c565b612be78960c00151612f6c565b89606001518a6080015161329e565b91506000826001600160801b031611612c215760405162461bcd60e51b815260040161032290613e89565b846001600160a01b0316633c8a7d8d308860a001518960c001518660405180608001604052808d600001516001600160a01b031681526020018d602001516001600160a01b031681526020018d6040015162ffffff168152602001336001600160a01b0316815250604051602001612c999190613eb4565b6040516020818303038152906040526040518663ffffffff1660e01b8152600401612cc8959493929190613b45565b6040805180830381600087803b158015612ce157600080fd5b505af1158015612cf5573d6000803e3d6000fd5b505050506040513d601f19601f82011682018060405250810190612d1991906139e5565b959790965091935090915050565b604080516bffffffffffffffffffffffff19606086901b16602080830191909152600285810b60e890811b60348501529085900b901b60378301528251601a818403018152603a90920190925280519101205b9392505050565b600082820183811015612d7a576040805162461bcd60e51b815260206004820152601b60248201527f536166654d6174683a206164646974696f6e206f766572666c6f770000000000604482015290519081900360640190fd5b3390565b6000808060001985870986860292508281109083900303905080612e155760008411612e0a57600080fd5b508290049050612d7a565b808411612e2157600080fd5b6000848688096000868103871696879004966002600389028118808a02820302808a02820302808a02820302808a02820302808a02820302808a02909103029181900381900460010186841190950394909402919094039290920491909117919091029150509392505050565b808015612f1c57506004805460405163396c0f9760e21b815285926001600160a01b039092169163e5b03e5c91612ec99189918b9101613a81565b60206040518083038186803b158015612ee157600080fd5b505afa158015612ef5573d6000803e3d6000fd5b505050506040513d601f19601f82011682018060405250810190612f199190613942565b10155b612f385760405162461bcd60e51b815260040161032290613e38565b600354604051636c665a5560e01b81526001600160a01b0390911690636c665a559061229090889087908790600401613bfe565b60008060008360020b12612f83578260020b612f8b565b8260020b6000035b9050620d89e8811115612fc9576040805162461bcd60e51b81526020600482015260016024820152601560fa1b604482015290519081900360640190fd5b600060018216612fdd57600160801b612fef565b6ffffcb933bd6fad37aa2d162d1a5940015b70ffffffffffffffffffffffffffffffffff1690506002821615613023576ffff97272373d413259a46990580e213a0260801c5b6004821615613042576ffff2e50f5f656932ef12357cf3c7fdcc0260801c5b6008821615613061576fffe5caca7e10e4e61c3624eaa0941cd00260801c5b6010821615613080576fffcb9843d60f6159c9db58835c9266440260801c5b602082161561309f576fff973b41fa98c081472e6896dfb254c00260801c5b60408216156130be576fff2ea16466c96a3843ec78b326b528610260801c5b60808216156130dd576ffe5dee046a99a2a811c461f1969c30530260801c5b6101008216156130fd576ffcbe86c7900a88aedcffc83b479aa3a40260801c5b61020082161561311d576ff987a7253ac413176f2b074cf7815e540260801c5b61040082161561313d576ff3392b0822b70005940c7a398e4b70f30260801c5b61080082161561315d576fe7159475a2c29b7443b29c7fa6e889d90260801c5b61100082161561317d576fd097f3bdfd2022b8845ad8f792aa58250260801c5b61200082161561319d576fa9f746462d870fdf8a65dc1f90e061e50260801c5b6140008216156131bd576f70d869a156d2a1b890bb3df62baf32f70260801c5b6180008216156131dd576f31be135f97d08fd981231505542fcfa60260801c5b620100008216156131fe576f09aa508b5b7a84e1c677de54f3e99bc90260801c5b6202000082161561321e576e5d6af8dedb81196699c329225ee6040260801c5b6204000082161561323d576d2216e584f5fa1ea926041bedfe980260801c5b6208000082161561325a576b048a170391f7dc42444e8fa20260801c5b60008460020b131561327557806000198161327157fe5b0490505b64010000000081061561328957600161328c565b60005b60ff16602082901c0192505050919050565b6000836001600160a01b0316856001600160a01b031611156132be579293925b846001600160a01b0316866001600160a01b0316116132e9576132e2858585613362565b9050613359565b836001600160a01b0316866001600160a01b0316101561334b576000613310878686613362565b9050600061331f8789866133c5565b9050806001600160801b0316826001600160801b0316106133405780613342565b815b92505050613359565b6133568585846133c5565b90505b95945050505050565b6000826001600160a01b0316846001600160a01b03161115613382579192915b60006133a5856001600160a01b0316856001600160a01b0316600160601b612ddf565b90506133596133c084838888036001600160a01b0316612ddf565b61340a565b6000826001600160a01b0316846001600160a01b031611156133e5579192915b6134026133c083600160601b8787036001600160a01b0316612ddf565b949350505050565b806001600160801b038116811461342057600080fd5b919050565b803561342081614094565b8035613420816140ac565b60008083601f84011261344c578182fd5b50813567ffffffffffffffff811115613463578182fd5b60208301915083602082850101111561347b57600080fd5b9250929050565b8035613420816140ba565b80516001600160801b038116811461342057600080fd5b805161ffff8116811461342057600080fd5b803562ffffff8116811461342057600080fd5b6000602082840312156134da578081fd5b8135612d7a81614094565b6000602082840312156134f6578081fd5b8151612d7a81614094565b600060208284031215613512578081fd5b8151612d7a816140ac565b60006020828403121561352e578081fd5b8135612d7a816140ba565b6000806040838503121561354b578081fd5b505080516020909101519092909150565b60008060008060608587031215613571578182fd5b8435935060208501359250604085013567ffffffffffffffff811115613595578283fd5b6135a18782880161343b565b95989497509550505050565b6000608082840312156135be578081fd5b6040516080810181811067ffffffffffffffff821117156135db57fe5b60405282356135e981614094565b815260208301356135f981614094565b602082015261360a604084016134b6565b6040820152606083013561361d81614094565b60608201529392505050565b600060e0828403121561363a578081fd5b50919050565b600060e08284031215613651578081fd5b60405160e0810181811067ffffffffffffffff8211171561366e57fe5b60405261367a83613425565b815261368860208401613425565b6020820152613699604084016134b6565b604082015260608301356060820152608083013560808201526136be60a08401613482565b60a08201526136cf60c08401613482565b60c08201529392505050565b600060a082840312156136ec578081fd5b60405160a0810181811067ffffffffffffffff8211171561370957fe5b604052823561371781614094565b8152602083013561372781614094565b6020820152613738604084016134b6565b6040820152606083013561374b81614094565b6060820152608083013561375e816140ac565b60808201529392505050565b600060e0828403121561377b578081fd5b60405160e0810181811067ffffffffffffffff8211171561379857fe5b6040526137a483613425565b81526137b260208401613425565b60208201526137c3604084016134b6565b6040820152606083013560608201526080830135608082015260a083013560a08201526136cf60c08401613430565b60008060408385031215613804578182fd5b61380d8361348d565b915061381b6020840161348d565b90509250929050565b600080600080600060a0868803121561383b578283fd5b6138448661348d565b945060208601519350604086015192506138606060870161348d565b915061386e6080870161348d565b90509295509295909350565b600080600080600080600060e0888a031215613894578485fd5b875161389f81614094565b60208901519097506138b0816140ba565b95506138be604089016134a4565b94506138cc606089016134a4565b93506138da608089016134a4565b925060a088015160ff811681146138ef578283fd5b60c0890151909250613900816140ac565b8091505092959891949750929550565b600060208284031215613921578081fd5b612d7a826134b6565b60006020828403121561393b578081fd5b5035919050565b600060208284031215613953578081fd5b5051919050565b60008082840360a081121561396d578283fd5b833592506080601f1982011215613982578182fd5b506040516080810181811067ffffffffffffffff821117156139a057fe5b60405260208401356139b1816140ba565b815260408401356139c1816140ba565b60208201526060848101356040830152608090940135938101939093525092909150565b6000806040838503121561354b578182fd5b600080600060608486031215613a0b578081fd5b505081359360208301359350604090920135919050565b60008151808452815b81811015613a4757602081850181015186830182015201613a2b565b81811115613a585782602083870101525b50601f01601f19169290920160200192915050565b6001600160a01b0391909116815260200190565b6001600160a01b0392831681529116602082015260400190565b6001600160a01b0396871681529486166020860152928516604085015293166060830152600f92830b608083015290910b60a082015260c00190565b6001600160a01b03938416815291909216602082015262ffffff909116604082015260600190565b6001600160a01b0386811682528515156020830152604082018590528316606082015260a060808201819052600090613b3a90830184613a22565b979650505050505050565b600060018060a01b03871682528560020b60208301528460020b60408301526001600160801b038416606083015260a06080830152613b3a60a0830184613a22565b6001600160a01b03959095168552600293840b60208601529190920b60408401526001600160801b03918216606084015216608082015260a00190565b6001600160a01b039390931683526020830191909152604082015260600190565b6001600160a01b03929092168252602082015260400190565b6001600160a01b0393841681526020810192909252909116604082015260600190565b60006101c0820190508b1515825260018060a01b03808c166020840152808b16604084015262ffffff8a1660608401528860808401528760a084015280871660c0840152508460e083015283610100830152825160020b610120830152602083015160020b610140830152604083015161016083015260608301516101808301526001600160801b036080840151166101a08301529b9a5050505050505050505050565b90815260200190565b600293840b81529190920b60208201526001600160801b03909116604082015260600190565b918252602082015260400190565b6020808252601490820152734e4f5420434c4f534520504552494f44204e4f5760601b604082015260600190565b6020808252600990820152684e4f204348414e474560b81b604082015260600190565b602080825260159082015274494e56414c494420535741502043414c4c4241434b60581b604082015260600190565b60208082526005908201526427a92222a960d91b604082015260600190565b6020808252600990820152682327a92124a22222a760b91b604082015260600190565b602080825260159082015274494e56414c4944204d494e542043414c4c4241434b60581b604082015260600190565b6020808252600d908201526c414c524541445920434c4f534560981b604082015260600190565b6020808252600490820152630534c49560e41b604082015260600190565b6020808252600f908201526e4e4f20454e4f5547482051554f544160881b604082015260600190565b6020808252600e908201526d1253959053125108105353d5539560921b604082015260600190565b602080825260119082015270494e56414c4944204c495155494449545960781b604082015260600190565b81516001600160a01b03908116825260208084015182169083015260408084015162ffffff1690830152606092830151169181019190915260800190565b81516001600160a01b03908116825260208084015182169083015260408084015162ffffff16908301526060808401519091169082015260809182015115159181019190915260a00190565b6001600160801b0392831681529116602082015260400190565b6001600160b01b0391909116815260200190565b6001600160b01b039790971687526001600160a01b0395861660208801529385166040870152919093166060850152608084019290925260a08301919091526001600160801b031660c082015260e00190565b9283526001600160801b03918216602084015216604082015260600190565b92835260208301919091526001600160801b0316604082015260600190565b94855260208501939093526001600160801b039190911660408401526060830152608082015260a00190565b9283526020830191909152604082015260600190565b938452602084019290925260408301526001600160801b0316606082015260800190565b95865260208601949094526040850192909252606084015260808301526001600160801b031660a082015260c00190565b6001600160a01b03811681146140a957600080fd5b50565b80151581146140a957600080fd5b8060020b81146140a957600080fdfe4f776e61626c653a206e6577206f776e657220697320746865207a65726f2061646472657373a26469706673582212200c085a0274ff52cd9e774df8409abd29725f690c0b38b69be9afe99f50cc8b0f64736f6c63430007060033",
  "linkReferences": {},
  "deployedLinkReferences": {}
}