{
  "_format": "hh-sol-artifact-1",
  "contractName": "UniswapV3Strategy",
  "sourceName": "contracts/UniswapV3Strategy.sol",
  "abi": [
    {
      "inputs": [
        {
          "internalType": "contract IUniswapV3Factory",
          "name": "_factory",
          "type": "address"
        },
        {
          "internalType": "contract IMulWork",
          "name": "_work",
          "type": "address"
        },
        {
          "internalType": "contract IMulBank",
          "name": "_bank",
          "type": "address"
        }
      ],
      "stateMutability": "nonpayable",
      "type": "constructor"
    },
    {
      "anonymous": false,
      "inputs": [
        {
          "indexed": true,
          "internalType": "address",
          "name": "user",
          "type": "address"
        },
        {
          "indexed": false,
          "internalType": "uint256",
          "name": "positionId",
          "type": "uint256"
        },
        {
          "indexed": false,
          "internalType": "uint256",
          "name": "amount0",
          "type": "uint256"
        },
        {
          "indexed": false,
          "internalType": "uint256",
          "name": "amount1",
          "type": "uint256"
        },
        {
          "indexed": false,
          "internalType": "uint128",
          "name": "liquidity",
          "type": "uint128"
        }
      ],
      "name": "Add",
      "type": "event"
    },
    {
      "anonymous": false,
      "inputs": [
        {
          "indexed": true,
          "internalType": "address",
          "name": "user",
          "type": "address"
        },
        {
          "indexed": false,
          "internalType": "uint256",
          "name": "positionId",
          "type": "uint256"
        },
        {
          "indexed": false,
          "internalType": "uint256",
          "name": "fee0",
          "type": "uint256"
        },
        {
          "indexed": false,
          "internalType": "uint256",
          "name": "fee1",
          "type": "uint256"
        },
        {
          "indexed": false,
          "internalType": "uint256",
          "name": "feePercent",
          "type": "uint256"
        }
      ],
      "name": "Collect",
      "type": "event"
    },
    {
      "anonymous": false,
      "inputs": [
        {
          "indexed": true,
          "internalType": "address",
          "name": "user",
          "type": "address"
        },
        {
          "indexed": false,
          "internalType": "uint256",
          "name": "positionId",
          "type": "uint256"
        },
        {
          "indexed": false,
          "internalType": "uint256",
          "name": "amount0",
          "type": "uint256"
        },
        {
          "indexed": false,
          "internalType": "uint256",
          "name": "amount1",
          "type": "uint256"
        },
        {
          "indexed": false,
          "internalType": "bool",
          "name": "hedge",
          "type": "bool"
        }
      ],
      "name": "Divest",
      "type": "event"
    },
    {
      "anonymous": false,
      "inputs": [
        {
          "indexed": true,
          "internalType": "address",
          "name": "user",
          "type": "address"
        },
        {
          "indexed": false,
          "internalType": "uint256",
          "name": "positionId",
          "type": "uint256"
        },
        {
          "indexed": false,
          "internalType": "address",
          "name": "pool",
          "type": "address"
        },
        {
          "indexed": false,
          "internalType": "address",
          "name": "token0",
          "type": "address"
        },
        {
          "indexed": false,
          "internalType": "address",
          "name": "token1",
          "type": "address"
        },
        {
          "indexed": false,
          "internalType": "uint256",
          "name": "invest0",
          "type": "uint256"
        },
        {
          "indexed": false,
          "internalType": "uint256",
          "name": "invest1",
          "type": "uint256"
        },
        {
          "indexed": false,
          "internalType": "uint128",
          "name": "liquidity",
          "type": "uint128"
        }
      ],
      "name": "Invest",
      "type": "event"
    },
    {
      "anonymous": false,
      "inputs": [
        {
          "indexed": true,
          "internalType": "address",
          "name": "previousOwner",
          "type": "address"
        },
        {
          "indexed": true,
          "internalType": "address",
          "name": "newOwner",
          "type": "address"
        }
      ],
      "name": "OwnershipTransferred",
      "type": "event"
    },
    {
      "anonymous": false,
      "inputs": [
        {
          "indexed": true,
          "internalType": "address",
          "name": "user",
          "type": "address"
        },
        {
          "indexed": false,
          "internalType": "uint256",
          "name": "positionId",
          "type": "uint256"
        },
        {
          "indexed": false,
          "internalType": "uint256",
          "name": "exit0",
          "type": "uint256"
        },
        {
          "indexed": false,
          "internalType": "uint256",
          "name": "exit1",
          "type": "uint256"
        },
        {
          "indexed": false,
          "internalType": "uint256",
          "name": "invest0",
          "type": "uint256"
        },
        {
          "indexed": false,
          "internalType": "uint256",
          "name": "invest1",
          "type": "uint256"
        },
        {
          "indexed": false,
          "internalType": "uint128",
          "name": "liquidity",
          "type": "uint128"
        },
        {
          "indexed": false,
          "internalType": "bool",
          "name": "hedge",
          "type": "bool"
        }
      ],
      "name": "Switching",
      "type": "event"
    },
    {
      "anonymous": false,
      "inputs": [
        {
          "indexed": false,
          "internalType": "uint256",
          "name": "newPercent",
          "type": "uint256"
        }
      ],
      "name": "UpdateFeePercent",
      "type": "event"
    },
    {
      "inputs": [],
      "name": "WETH9",
      "outputs": [
        {
          "internalType": "address",
          "name": "",
          "type": "address"
        }
      ],
      "stateMutability": "view",
      "type": "function"
    },
    {
      "inputs": [],
      "name": "_nextId",
      "outputs": [
        {
          "internalType": "uint176",
          "name": "",
          "type": "uint176"
        }
      ],
      "stateMutability": "view",
      "type": "function"
    },
    {
      "inputs": [
        {
          "internalType": "uint256",
          "name": "positionId",
          "type": "uint256"
        },
        {
          "internalType": "uint256",
          "name": "amount0Desired",
          "type": "uint256"
        },
        {
          "internalType": "uint256",
          "name": "amount1Desired",
          "type": "uint256"
        }
      ],
      "name": "add",
      "outputs": [
        {
          "internalType": "uint256",
          "name": "amount0",
          "type": "uint256"
        },
        {
          "internalType": "uint256",
          "name": "amount1",
          "type": "uint256"
        },
        {
          "internalType": "uint128",
          "name": "liquidity",
          "type": "uint128"
        }
      ],
      "stateMutability": "nonpayable",
      "type": "function"
    },
    {
      "inputs": [],
      "name": "bank",
      "outputs": [
        {
          "internalType": "contract IMulBank",
          "name": "",
          "type": "address"
        }
      ],
      "stateMutability": "view",
      "type": "function"
    },
    {
      "inputs": [
        {
          "internalType": "uint256",
          "name": "positionId",
          "type": "uint256"
        }
      ],
      "name": "collect",
      "outputs": [
        {
          "internalType": "uint128",
          "name": "fee0",
          "type": "uint128"
        },
        {
          "internalType": "uint128",
          "name": "fee1",
          "type": "uint128"
        }
      ],
      "stateMutability": "nonpayable",
      "type": "function"
    },
    {
      "inputs": [
        {
          "internalType": "uint256",
          "name": "positionId",
          "type": "uint256"
        },
        {
          "internalType": "bool",
          "name": "hedge",
          "type": "bool"
        }
      ],
      "name": "divest",
      "outputs": [
        {
          "internalType": "uint256",
          "name": "amount0",
          "type": "uint256"
        },
        {
          "internalType": "uint256",
          "name": "amount1",
          "type": "uint256"
        }
      ],
      "stateMutability": "payable",
      "type": "function"
    },
    {
      "inputs": [],
      "name": "factory",
      "outputs": [
        {
          "internalType": "contract IUniswapV3Factory",
          "name": "",
          "type": "address"
        }
      ],
      "stateMutability": "view",
      "type": "function"
    },
    {
      "inputs": [],
      "name": "feePercent",
      "outputs": [
        {
          "internalType": "uint256",
          "name": "",
          "type": "uint256"
        }
      ],
      "stateMutability": "view",
      "type": "function"
    },
    {
      "inputs": [
        {
          "components": [
            {
              "internalType": "address",
              "name": "token0",
              "type": "address"
            },
            {
              "internalType": "address",
              "name": "token1",
              "type": "address"
            },
            {
              "internalType": "uint24",
              "name": "fee",
              "type": "uint24"
            },
            {
              "internalType": "uint256",
              "name": "amount0Desired",
              "type": "uint256"
            },
            {
              "internalType": "uint256",
              "name": "amount1Desired",
              "type": "uint256"
            },
            {
              "internalType": "int24",
              "name": "tickLower",
              "type": "int24"
            },
            {
              "internalType": "int24",
              "name": "tickUpper",
              "type": "int24"
            }
          ],
          "internalType": "struct UniswapV3Strategy.MintParams",
          "name": "params",
          "type": "tuple"
        }
      ],
      "name": "invest",
      "outputs": [
        {
          "internalType": "uint256",
          "name": "amount0",
          "type": "uint256"
        },
        {
          "internalType": "uint256",
          "name": "amount1",
          "type": "uint256"
        },
        {
          "internalType": "uint128",
          "name": "liquidity",
          "type": "uint128"
        }
      ],
      "stateMutability": "nonpayable",
      "type": "function"
    },
    {
      "inputs": [
        {
          "internalType": "uint256",
          "name": "positionId",
          "type": "uint256"
        }
      ],
      "name": "liquidation",
      "outputs": [],
      "stateMutability": "nonpayable",
      "type": "function"
    },
    {
      "inputs": [],
      "name": "owner",
      "outputs": [
        {
          "internalType": "address",
          "name": "",
          "type": "address"
        }
      ],
      "stateMutability": "view",
      "type": "function"
    },
    {
      "inputs": [
        {
          "internalType": "uint256",
          "name": "",
          "type": "uint256"
        }
      ],
      "name": "positions",
      "outputs": [
        {
          "internalType": "bool",
          "name": "close",
          "type": "bool"
        },
        {
          "internalType": "address",
          "name": "token0",
          "type": "address"
        },
        {
          "internalType": "address",
          "name": "token1",
          "type": "address"
        },
        {
          "internalType": "uint24",
          "name": "fee",
          "type": "uint24"
        },
        {
          "internalType": "uint256",
          "name": "debt0",
          "type": "uint256"
        },
        {
          "internalType": "uint256",
          "name": "debt1",
          "type": "uint256"
        },
        {
          "internalType": "address",
          "name": "operator",
          "type": "address"
        },
        {
          "internalType": "uint256",
          "name": "exit0",
          "type": "uint256"
        },
        {
          "internalType": "uint256",
          "name": "exit1",
          "type": "uint256"
        },
        {
          "components": [
            {
              "internalType": "int24",
              "name": "tickLower",
              "type": "int24"
            },
            {
              "internalType": "int24",
              "name": "tickUpper",
              "type": "int24"
            },
            {
              "internalType": "uint256",
              "name": "feeGrowthInside0LastX128",
              "type": "uint256"
            },
            {
              "internalType": "uint256",
              "name": "feeGrowthInside1LastX128",
              "type": "uint256"
            },
            {
              "internalType": "uint128",
              "name": "liquidity",
              "type": "uint128"
            },
            {
              "internalType": "uint256",
              "name": "fee0",
              "type": "uint256"
            },
            {
              "internalType": "uint256",
              "name": "fee1",
              "type": "uint256"
            }
          ],
          "internalType": "struct UniswapV3Strategy.Tick",
          "name": "tick",
          "type": "tuple"
        }
      ],
      "stateMutability": "view",
      "type": "function"
    },
    {
      "inputs": [],
      "name": "renounceOwnership",
      "outputs": [],
      "stateMutability": "nonpayable",
      "type": "function"
    },
    {
      "inputs": [
        {
          "internalType": "uint256",
          "name": "positionId",
          "type": "uint256"
        },
        {
          "components": [
            {
              "internalType": "int24",
              "name": "tickLower",
              "type": "int24"
            },
            {
              "internalType": "int24",
              "name": "tickUpper",
              "type": "int24"
            },
            {
              "internalType": "uint256",
              "name": "amount0Desired",
              "type": "uint256"
            },
            {
              "internalType": "uint256",
              "name": "amount1Desired",
              "type": "uint256"
            }
          ],
          "internalType": "struct UniswapV3Strategy.SwitchParams",
          "name": "params",
          "type": "tuple"
        },
        {
          "internalType": "bool",
          "name": "hedge",
          "type": "bool"
        }
      ],
      "name": "switching",
      "outputs": [
        {
          "internalType": "uint256",
          "name": "amount0",
          "type": "uint256"
        },
        {
          "internalType": "uint256",
          "name": "amount1",
          "type": "uint256"
        },
        {
          "internalType": "uint128",
          "name": "liquidity",
          "type": "uint128"
        },
        {
          "internalType": "uint256",
          "name": "exit0",
          "type": "uint256"
        },
        {
          "internalType": "uint256",
          "name": "exit1",
          "type": "uint256"
        }
      ],
      "stateMutability": "payable",
      "type": "function"
    },
    {
      "inputs": [
        {
          "internalType": "address",
          "name": "newOwner",
          "type": "address"
        }
      ],
      "name": "transferOwnership",
      "outputs": [],
      "stateMutability": "nonpayable",
      "type": "function"
    },
    {
      "inputs": [
        {
          "internalType": "uint256",
          "name": "amount0Owed",
          "type": "uint256"
        },
        {
          "internalType": "uint256",
          "name": "amount1Owed",
          "type": "uint256"
        },
        {
          "internalType": "bytes",
          "name": "data",
          "type": "bytes"
        }
      ],
      "name": "uniswapV3MintCallback",
      "outputs": [],
      "stateMutability": "nonpayable",
      "type": "function"
    },
    {
      "inputs": [
        {
          "internalType": "uint256",
          "name": "_newPercent",
          "type": "uint256"
        }
      ],
      "name": "updateFeePercent",
      "outputs": [],
      "stateMutability": "nonpayable",
      "type": "function"
    },
    {
      "inputs": [],
      "name": "work",
      "outputs": [
        {
          "internalType": "contract IMulWork",
          "name": "",
          "type": "address"
        }
      ],
      "stateMutability": "view",
      "type": "function"
    },
    {
      "stateMutability": "payable",
      "type": "receive"
    }
  ],
  "bytecode": "0x6080604052600680546001600160b01b03191690556117706007556008805460ff191690553480156200003157600080fd5b506040516200422038038062004220833981016040819052620000549162000235565b6000620000606200020b565b600080546001600160a01b0319166001600160a01b0383169081178255604051929350917f8be0079c531659141344cd1fd0a4f28419497f9722a3daafe3b4186f6b6457e0908290a350600180556001600160a01b038316620000e05760405162461bcd60e51b8152600401620000d79062000288565b60405180910390fd5b6001600160a01b038216620001095760405162461bcd60e51b8152600401620000d79062000288565b6001600160a01b038116620001325760405162461bcd60e51b8152600401620000d79062000288565b600280546001600160a01b038086166001600160a01b031992831617909255600480548584169083161781556003805485851693169290921791829055604080516312a9293f60e21b815290519290931692634aa4a4fc9281830192602092829003018186803b158015620001a657600080fd5b505afa158015620001bb573d6000803e3d6000fd5b505050506040513d601f19601f82011682018060405250810190620001e191906200020f565b600580546001600160a01b0319166001600160a01b039290921691909117905550620002ca915050565b3390565b60006020828403121562000221578081fd5b81516200022e81620002b1565b9392505050565b6000806000606084860312156200024a578182fd5b83516200025781620002b1565b60208501519093506200026a81620002b1565b60408501519092506200027d81620002b1565b809150509250925092565b6020808252600f908201526e494e56414c49445f4144445245535360881b604082015260600190565b6001600160a01b0381168114620002c757600080fd5b50565b613f4680620002da6000396000f3fe60806040526004361061010d5760003560e01c80639461f68011610095578063d348799711610064578063d3487997146102f9578063e503750e14610319578063f05c5fed1461033a578063f2f2fff51461035a578063f2fde38b1461037c57610147565b80639461f6801461026057806399fbab8814610280578063c45a0155146102b6578063ce3f865f146102cb57610147565b8063715018a6116100dc578063715018a6146101df57806376cdb03b146101f45780637f0d0f6b146102095780637fd6f15c146102295780638da5cb5b1461024b57610147565b8063322e9f041461014c578063385af420146101775780634aa4a4fc1461019b578063505fb46c146101b057610147565b36610147576005546001600160a01b031633146101455760405162461bcd60e51b815260040161013c90613c19565b60405180910390fd5b005b600080fd5b34801561015857600080fd5b5061016161039c565b60405161016e9190613900565b60405180910390f35b61018a61018536600461379e565b6103ab565b60405161016e959493929190613dcc565b3480156101a757600080fd5b50610161610933565b3480156101bc57600080fd5b506101d06101cb3660046138d5565b610942565b60405161016e93929190613dad565b3480156101eb57600080fd5b50610145610c17565b34801561020057600080fd5b50610161610cc3565b34801561021557600080fd5b5061014561022436600461373f565b610cd2565b34801561023557600080fd5b5061023e610d44565b60405161016e9190613b5b565b34801561025757600080fd5b50610161610d4a565b34801561026c57600080fd5b506101d061027b366004613555565b610d59565b34801561028c57600080fd5b506102a061029b36600461373f565b611136565b60405161016e9a99989796959493929190613aa1565b3480156102c257600080fd5b5061016161121b565b3480156102d757600080fd5b506102eb6102e636600461373f565b61122a565b60405161016e929190613cf9565b34801561030557600080fd5b5061014561031436600461385a565b611792565b61032c61032736600461376f565b61189a565b60405161016e929190613d9f565b34801561034657600080fd5b5061014561035536600461373f565b611cd8565b34801561036657600080fd5b5061036f611d7a565b60405161016e9190613d13565b34801561038857600080fd5b50610145610397366004613469565b611d89565b6004546001600160a01b031681565b6000806000806000876000600982815481106103c357fe5b60009182526020918290206040805161014081018252600d909302909101805460ff8116151584526001600160a01b036101009182900481168587015260018301548082168686015262ffffff600160a01b90910416606080870191909152600280850154608080890191909152600386015460a0808a01919091526004870154851660c0808b01918252600589015460e0808d019190915260068a0154988c019890985289519788018a52600789015480860b860b860b895263010000009004850b850b90940b9a87019a909a52600887015497860197909752600986015492850192909252600a8501546001600160801b031691840191909152600b84015494830194909452600c909201549281019290925261012083019190915291519092503391161480156104f557508051155b801561051357506000816101200151608001516001600160801b0316115b61052f5760405162461bcd60e51b815260040161013c90613bf6565b600060098b8154811061053e57fe5b600091825260209091206008805460ff19166001179055600d9091020190506007810161056a8c61122a565b505060038101546001600160801b038881169116141580610596575080548b51600291820b820b910b14155b806105b75750805460208c0151600290810b6301000000909204810b900b14155b6105d35760405162461bcd60e51b815260040161013c90613bb4565b60025482546001840154604051630b4c774160e11b81526000936001600160a01b0390811693631698ee829361062593610100909204831692811691600160a01b90910462ffffff1690600401613a56565b60206040518083038186803b15801561063d57600080fd5b505afa158015610651573d6000803e3d6000fd5b505050506040513d601f19601f820116820180604052508101906106759190613485565b8254600384015460405163a34123a760e01b81529293506001600160a01b0384169263a34123a7926106c692600282810b936301000000909304900b916001600160801b0390911690600401613b64565b6040805180830381600087803b1580156106df57600080fd5b505af11580156106f3573d6000803e3d6000fd5b505050506040513d601f19601f820116820180604052508101906107179190613837565b83546040516309e3d67b60e31b81529299509097506001600160a01b03831691634f1eb3d891610760913091600281810b926301000000909204900b908d908d906004016139e6565b6040805180830381600087803b15801561077957600080fd5b505af115801561078d573d6000803e3d6000fd5b505050506040513d601f19601f820116820180604052508101906107b19190613607565b50506107bf8d88888e611e8b565b6040805160e081018252845461010090046001600160a01b0390811682526001860154908116602080840191909152600160a01b90910462ffffff1682840152918e01516060808301919091528e015160808201528d51600290810b60a0830152918e015190910b60c082015261083590612413565b809b50819c50829d50839450505050508b600001518260000160006101000a81548162ffffff021916908360020b62ffffff1602179055508b602001518260000160036101000a81548162ffffff021916908360020b62ffffff160217905550898360020181905550888360030181905550878260030160006101000a8154816001600160801b0302191690836001600160801b0316021790555060008b9050336001600160a01b03167fc2fd7a46f29b0467608410312b942515730e861ac81beb56729658c67d70639b8f8a8a8f8f8f8860405161091a9796959493929190613e39565b60405180910390a2505050505050939792965093509350565b6005546001600160a01b031681565b60008060008560006009828154811061095757fe5b60009182526020918290206040805161014081018252600d909302909101805460ff8116151584526001600160a01b036101009182900481168587015260018301548082168686015262ffffff600160a01b90910416606080870191909152600280850154608080890191909152600386015460a0808a01919091526004870154851660c0808b01918252600589015460e0808d019190915260068a0154988c019890985289519788018a52600789015480860b860b860b895263010000009004850b850b90940b9a87019a909a52600887015497860197909752600986015492850192909252600a8501546001600160801b031691840191909152600b84015494830194909452600c90920154928101929092526101208301919091529151909250339116148015610a8957508051155b8015610aa757506000816101200151608001516001600160801b0316115b610ac35760405162461bcd60e51b815260040161013c90613bf6565b600060098981548110610ad257fe5b600091825260208083206040805160e081018252600d94909402909101805461010090046001600160a01b039081168552600182015490811693850193909352600160a01b90920462ffffff1690830152606082018b9052608082018a90526007810154600281810b810b60a08501526301000000909104810b900b60c08301529250610b5e90612413565b6008805460ff19166001179055919950975095509050610b7d8a61122a565b5050600a820180546001600160801b038082168801166001600160801b03199091161790556002820154610bb190886127b9565b60028301556003820154610bc590876127b9565b600383015560405133907f4e26bf96a4004dbd9e7a6bf889ebc8fbb0b98057476634c8a62ce133ed35ec3a90610c02908d908b908b908b90613e15565b60405180910390a25050505093509350939050565b610c1f61281c565b6001600160a01b0316610c30610d4a565b6001600160a01b031614610c79576040805162461bcd60e51b81526020600482018190526024820152600080516020613ef1833981519152604482015290519081900360640190fd5b600080546040516001600160a01b03909116907f8be0079c531659141344cd1fd0a4f28419497f9722a3daafe3b4186f6b6457e0908390a3600080546001600160a01b0319169055565b6003546001600160a01b031681565b610cda61281c565b6001600160a01b0316610ceb610d4a565b6001600160a01b031614610d34576040805162461bcd60e51b81526020600482018190526024820152600080516020613ef1833981519152604482015290519081900360640190fd5b610d3f81600061189a565b505050565b60075481565b6000546001600160a01b031690565b6000808080610d75610d703687900387018761356c565b612413565b9196509450925090506000610da930610d9460c0890160a08a016134bd565b610da460e08a0160c08b016134bd565b612820565b9050600080836001600160a01b031663514ea4bf846040518263ffffffff1660e01b8152600401610dda9190613b5b565b60a06040518083038186803b158015610df257600080fd5b505afa158015610e06573d6000803e3d6000fd5b505050506040513d601f19601f82011682018060405250810190610e2a9190613639565b5050925092505060006040518060e001604052808a60a0016020810190610e5191906134bd565b60020b8152602001610e6960e08c0160c08d016134bd565b60020b8152602001848152602001838152602001876001600160801b03168152602001600081526020016000815250905060096040518061014001604052806000151581526020018b6000016020810190610ec49190613469565b6001600160a01b031681526020018b6020016020810190610ee59190613469565b6001600160a01b03168152602001610f0360608d0160408e01613725565b62ffffff908116825260208083018d905260408084018d90523360608086018290526000608080880182905260a080890183905260c09889018c90528a5460018082018d559b8452928790208a51600d9094020180548b89015160ff1990911694151594909417610100600160a81b0319166101006001600160a01b0395861681029190911782558b8801519c820180548d8801516001600160a01b03199182169f88169f909f1762ffffff60a01b1916600160a01b9f8d169f909f029e909e1790558b8401516002808401919091558c84015160038401558c8c0151600484018054909f16961695909517909c5560e08b015160058201559a8a01516006808d0191909155610120909a0151805160078d018054838b015162ffffff1990911692870b8c169290921765ffffff000000191663010000009290960b909a1602939093179097559381015160088a015590810151600989015591820151600a880180546001600160801b0319166001600160801b0390921691909117905592810151600b87015590920151600c9094019390935590547f277685e2349c727f8c026893d1d41063f1e92d4092c5d38613f40eac70f3c6f2916001600160b01b039091169088906110d5908e018e613469565b8d60200160208101906110e89190613469565b8d8d8d6040516110fe9796959493929190613d27565b60405180910390a25050600680546001600160b01b03808216600101166001600160b01b031990911617905550939592945090925050565b6009818154811061114657600080fd5b6000918252602091829020600d91909102018054600182015460028084015460038501546004860154600587015460068801546040805160e08101825260078b015480890b890b890b825263010000009004880b880b90970b9a87019a909a5260088901549986019990995260098801546060860152600a8801546001600160801b03166080860152600b88015460a0860152600c9097015460c085015260ff861698506101009095046001600160a01b039081169781861697600160a01b90960462ffffff1696939592949190931692908a565b6002546001600160a01b031681565b6000808260006009828154811061123d57fe5b60009182526020918290206040805161014081018252600d909302909101805460ff8116151584526001600160a01b036101009182900481168587015260018301548082168686015262ffffff600160a01b90910416606080870191909152600280850154608080890191909152600386015460a0808a01919091526004870154851660c0808b01918252600589015460e0808d019190915260068a0154988c019890985289519788018a52600789015480860b860b860b895263010000009004850b850b90940b9a87019a909a52600887015497860197909752600986015492850192909252600a8501546001600160801b031691840191909152600b84015494830194909452600c9092015492810192909252610120830191909152915190925033911614801561136f57508051155b801561138d57506000816101200151608001516001600160801b0316115b6113a95760405162461bcd60e51b815260040161013c90613bf6565b6000600986815481106113b857fe5b600091825260208220600254600d929092020180546001820154604051630b4c774160e11b81529295506007860194936001600160a01b0390811693631698ee829361142093610100909104831692811691600160a01b90910462ffffff1690600401613a56565b60206040518083038186803b15801561143857600080fd5b505afa15801561144c573d6000803e3d6000fd5b505050506040513d601f19601f820116820180604052508101906114709190613485565b825460405163a34123a760e01b81529192506001600160a01b0383169163a34123a7916114b291600282810b9263010000009004900b90600090600401613b64565b6040805180830381600087803b1580156114cb57600080fd5b505af11580156114df573d6000803e3d6000fd5b505050506040513d601f19601f820116820180604052508101906115039190613837565b5050815460009081906001600160a01b0384169063514ea4bf90611537903090600281810b9163010000009004900b612820565b6040518263ffffffff1660e01b81526004016115539190613b5b565b60a06040518083038186803b15801561156b57600080fd5b505afa15801561157f573d6000803e3d6000fd5b505050506040513d601f19601f820116820180604052508101906115a39190613639565b5050600187015460038801549295509093506115d092508403906001600160801b0316600160801b61287a565b60028501546003860154919a506115f891908303906001600160801b0316600160801b61287a565b60085490985060ff16156117865783546040516309e3d67b60e31b81526001600160a01b03851691634f1eb3d891611648913091600282810b9263010000009004900b908f908f906004016139e6565b6040805180830381600087803b15801561166157600080fd5b505af1158015611675573d6000803e3d6000fd5b505050506040513d601f19601f820116820180604052508101906116999190613607565b6004860154919a5098506116b6906001600160801b038b166127b9565b600485015560058401546116d3906001600160801b038a166127b9565b600585015584546116fb9061010090046001600160a01b03166001600160801b038b16612929565b600185015461171c906001600160a01b03166001600160801b038a16612929565b6008805460ff19169055600184018290556002840181905560048501546007546040516001600160a01b03909216917fd6c03b3590140168667643c811785f10f111cdb4e6152f736dbc011ad11d17049161177d918e918e918e9190613d7a565b60405180910390a25b50505050505050915091565b60006117a0828401846134d9565b600254815160208301516040808501519051630b4c774160e11b81529495506001600160a01b0390931693631698ee82936117df939291600401613a56565b60206040518083038186803b1580156117f757600080fd5b505afa15801561180b573d6000803e3d6000fd5b505050506040513d601f19601f8201168201806040525081019061182f9190613485565b6001600160a01b0316336001600160a01b03161461185f5760405162461bcd60e51b815260040161013c90613b8a565b841561187957611879816000015182606001518733612abd565b831561189357611893816020015182606001518633612abd565b5050505050565b600080836000600982815481106118ad57fe5b60009182526020918290206040805161014081018252600d909302909101805460ff8116151584526001600160a01b036101009182900481168587015260018301548082168686015262ffffff600160a01b90910416606080870191909152600280850154608080890191909152600386015460a0808a01919091526004870154851660c0808b01918252600589015460e0808d019190915260068a0154988c019890985289519788018a52600789015480860b860b860b895263010000009004850b850b90940b9a87019a909a52600887015497860197909752600986015492850192909252600a8501546001600160801b031691840191909152600b84015494830194909452600c909201549281019290925261012083019190915291519092503391161480156119df57508051155b80156119fd57506000816101200151608001516001600160801b0316115b611a195760405162461bcd60e51b815260040161013c90613bf6565b600060098781548110611a2857fe5b600091825260209091206008805460ff19166001179055600d909102019050611a508761122a565b505060025481546001830154604051630b4c774160e11b81526000936001600160a01b0390811693631698ee8293611aa493610100909204831692811691600160a01b90910462ffffff1690600401613a56565b60206040518083038186803b158015611abc57600080fd5b505afa158015611ad0573d6000803e3d6000fd5b505050506040513d601f19601f82011682018060405250810190611af49190613485565b6007830154600a84015460405163a34123a760e01b81529293506001600160a01b0384169263a34123a792611b4892600282810b936301000000909304900b916001600160801b0390911690600401613b64565b6040805180830381600087803b158015611b6157600080fd5b505af1158015611b75573d6000803e3d6000fd5b505050506040513d601f19601f82011682018060405250810190611b999190613837565b60078401546040516309e3d67b60e31b81529298509096506001600160a01b03831691634f1eb3d891611be5913091600281810b926301000000909204900b908c908c906004016139e6565b6040805180830381600087803b158015611bfe57600080fd5b505af1158015611c12573d6000803e3d6000fd5b505050506040513d601f19601f82011682018060405250810190611c369190613607565b5050611c448887878a611e8b565b600a820180546001600160801b031916905586611c615785611c67565b81600201545b600583015586611c775784611c7d565b81600301545b6006830155815460ff1916600117825560405133907f3105919a400b7455f9cd5da3bdb75241feab87461ff048af36e4d98ab44a997790611cc5908b908a908a908d90613df8565b60405180910390a2505050509250929050565b611ce061281c565b6001600160a01b0316611cf1610d4a565b6001600160a01b031614611d3a576040805162461bcd60e51b81526020600482018190526024820152600080516020613ef1833981519152604482015290519081900360640190fd5b60078190556040517fdb5160cb520340c5b40cde4e18cb6fa0375a88f0fd4ab8027bf402759debec8290611d6f908390613b5b565b60405180910390a150565b6006546001600160b01b031681565b611d9161281c565b6001600160a01b0316611da2610d4a565b6001600160a01b031614611deb576040805162461bcd60e51b81526020600482018190526024820152600080516020613ef1833981519152604482015290519081900360640190fd5b6001600160a01b038116611e305760405162461bcd60e51b8152600401808060200182810382526026815260200180613eaa6026913960400191505060405180910390fd5b600080546040516001600160a01b03808516939216917f8be0079c531659141344cd1fd0a4f28419497f9722a3daafe3b4186f6b6457e091a3600080546001600160a01b0319166001600160a01b0392909216919091179055565b60026001541415611ee3576040805162461bcd60e51b815260206004820152601f60248201527f5265656e7472616e637947756172643a207265656e7472616e742063616c6c00604482015290519081900360640190fd5b6002600181905550600060098581548110611efa57fe5b90600052602060002090600d020190508115611ff9578060020154841115611f6d5780546002820154611f469161010090046001600160a01b031690611f41908790612c33565b612c90565b60018101546003820154611f6d916001600160a01b031690611f689086612c33565b612dbf565b8060030154831115611fc05780546002820154611f9d9161010090046001600160a01b031690611f689087612c33565b60018101546003820154611fc0916001600160a01b031690611f41908690612c33565b4715611ff45760405133904780156108fc02916000818181858888f19350505050158015611ff2573d6000803e3d6000fd5b505b612017565b34156120175760405162461bcd60e51b815260040161013c90613c3c565b80546040516370a0823160e01b815260009161010090046001600160a01b0316906370a082319061204c903090600401613900565b60206040518083038186803b15801561206457600080fd5b505afa158015612078573d6000803e3d6000fd5b505050506040513d601f19601f8201168201806040525081019061209c9190613757565b60018301546040516370a0823160e01b81529192506000916001600160a01b03909116906370a08231906120d4903090600401613900565b60206040518083038186803b1580156120ec57600080fd5b505afa158015612100573d6000803e3d6000fd5b505050506040513d601f19601f820116820180604052508101906121249190613757565b60048054858201548654604051630467830360e41b81529495506001600160a01b039283169463467830309461216a949384169361010090930490921691889101613938565b600060405180830381600087803b15801561218457600080fd5b505af1158015612198573d6000803e3d6000fd5b505060048054868201546001880154604051630467830360e41b81526001600160a01b039384169650634678303095506121dc949284169390911691879101613938565b600060405180830381600087803b1580156121f657600080fd5b505af115801561220a573d6000803e3d6000fd5b5050845460035460405163a9059cbb60e01b81526101009092046001600160a01b03908116945063a9059cbb9350612249929116908690600401613a23565b602060405180830381600087803b15801561226357600080fd5b505af1158015612277573d6000803e3d6000fd5b505050506040513d601f19601f8201168201806040525081019061229b91906134a1565b50600183015460035460405163a9059cbb60e01b81526001600160a01b039283169263a9059cbb926122d4929116908590600401613a23565b602060405180830381600087803b1580156122ee57600080fd5b505af1158015612302573d6000803e3d6000fd5b505050506040513d601f19601f8201168201806040525081019061232691906134a1565b506003548354600285015460405163192400d360e01b81526001600160a01b039384169363192400d3936123669361010090910490911691600401613a23565b600060405180830381600087803b15801561238057600080fd5b505af1158015612394573d6000803e3d6000fd5b50506003805460018701549187015460405163192400d360e01b81526001600160a01b03928316955063192400d394506123d49390921691600401613a23565b600060405180830381600087803b1580156123ee57600080fd5b505af1158015612402573d6000803e3d6000fd5b505060018055505050505050505050565b600254815160208301516040808501519051630b4c774160e11b81526000948594859485946001600160a01b0390931693631698ee8293612458939291600401613a56565b60206040518083038186803b15801561247057600080fd5b505afa158015612484573d6000803e3d6000fd5b505050506040513d601f19601f820116820180604052508101906124a89190613485565b9350836001600160a01b0316630dfe16816040518163ffffffff1660e01b815260040160206040518083038186803b1580156124e357600080fd5b505afa1580156124f7573d6000803e3d6000fd5b505050506040513d601f19601f8201168201806040525081019061251b9190613485565b6001600160a01b031685600001516001600160a01b03161480156125c45750836001600160a01b031663d21220a76040518163ffffffff1660e01b815260040160206040518083038186803b15801561257357600080fd5b505afa158015612587573d6000803e3d6000fd5b505050506040513d601f19601f820116820180604052508101906125ab9190613485565b6001600160a01b031685602001516001600160a01b0316145b6125e05760405162461bcd60e51b815260040161013c90613bd7565b6000846001600160a01b0316633850c7bd6040518163ffffffff1660e01b815260040160e06040518083038186803b15801561261b57600080fd5b505afa15801561262f573d6000803e3d6000fd5b505050506040513d601f19601f82011682018060405250810190612653919061368f565b50505050505090506126888161266c8860a00151612e93565b6126798960c00151612e93565b89606001518a608001516131c5565b91506000826001600160801b0316116126b35760405162461bcd60e51b815260040161013c90613c90565b846001600160a01b0316633c8a7d8d308860a001518960c001518660405180608001604052808d600001516001600160a01b031681526020018d602001516001600160a01b031681526020018d6040015162ffffff168152602001336001600160a01b031681525060405160200161272b9190613cbb565b6040516020818303038152906040526040518663ffffffff1660e01b815260040161275a95949392919061395f565b6040805180830381600087803b15801561277357600080fd5b505af1158015612787573d6000803e3d6000fd5b505050506040513d601f19601f820116820180604052508101906127ab9190613837565b959790965091935090915050565b600082820183811015612813576040805162461bcd60e51b815260206004820152601b60248201527f536166654d6174683a206164646974696f6e206f766572666c6f770000000000604482015290519081900360640190fd5b90505b92915050565b3390565b604080516bffffffffffffffffffffffff19606086901b16602080830191909152600285810b60e890811b60348501529085900b901b60378301528251601a818403018152603a90920190925280519101205b9392505050565b60008080600019858709868602925082811090839003039050806128b057600084116128a557600080fd5b508290049050612873565b8084116128bc57600080fd5b6000848688096000868103871696879004966002600389028118808a02820302808a02820302808a02820302808a02820302808a02820302808a02909103029181900381900460010186841190950394909402919094039290920491909117919091029150509392505050565b60026001541415612981576040805162461bcd60e51b815260206004820152601f60248201527f5265656e7472616e637947756172643a207265656e7472616e742063616c6c00604482015290519081900360640190fd5b60026001558015612ab55760006129af6127106129a96007548561328990919063ffffffff16565b906132e2565b60035460405163a9059cbb60e01b81529192506001600160a01b038086169263a9059cbb926129e49216908590600401613a23565b602060405180830381600087803b1580156129fe57600080fd5b505af1158015612a12573d6000803e3d6000fd5b505050506040513d601f19601f82011682018060405250810190612a3691906134a1565b5060048054604051630467830360e41b81526001600160a01b0390911691634678303091612a6a9133918891879101613938565b600060405180830381600087803b158015612a8457600080fd5b505af1158015612a98573d6000803e3d6000fd5b50505050612ab383611f418385612c3390919063ffffffff16565b505b505060018055565b6004805460405163396c0f9760e21b815284926001600160a01b039092169163e5b03e5c91612af09188918a9101613a3c565b60206040518083038186803b158015612b0857600080fd5b505afa158015612b1c573d6000803e3d6000fd5b505050506040513d601f19601f82011682018060405250810190612b409190613757565b1015612b5e5760405162461bcd60e51b815260040161013c90613c67565b600354604051636c665a5560e01b81526001600160a01b0390911690636c665a5590612b9290879086908690600401613a7e565b600060405180830381600087803b158015612bac57600080fd5b505af1158015612bc0573d6000803e3d6000fd5b505060048054604051630467830360e41b81526001600160a01b03909116935063467830309250612bfb918791899160008990039101613938565b600060405180830381600087803b158015612c1557600080fd5b505af1158015612c29573d6000803e3d6000fd5b5050505050505050565b600082821115612c8a576040805162461bcd60e51b815260206004820152601e60248201527f536166654d6174683a207375627472616374696f6e206f766572666c6f770000604482015290519081900360640190fd5b50900390565b6005546001600160a01b0383811691161415612d3b57600554604051632e1a7d4d60e01b81526001600160a01b0390911690632e1a7d4d90612cd6908490600401613b5b565b600060405180830381600087803b158015612cf057600080fd5b505af1158015612d04573d6000803e3d6000fd5b505060405133925083156108fc02915083906000818181858888f19350505050158015612d35573d6000803e3d6000fd5b50612dbb565b60405163a9059cbb60e01b81526001600160a01b0383169063a9059cbb90612d699033908590600401613a23565b602060405180830381600087803b158015612d8357600080fd5b505af1158015612d97573d6000803e3d6000fd5b505050506040513d601f19601f82011682018060405250810190610d3f91906134a1565b5050565b6005546001600160a01b0383811691161415612e635780341015612df55760405162461bcd60e51b815260040161013c90613c3c565b600560009054906101000a90046001600160a01b03166001600160a01b031663d0e30db0826040518263ffffffff1660e01b81526004016000604051808303818588803b158015612e4557600080fd5b505af1158015612e59573d6000803e3d6000fd5b5050505050612dbb565b6040516323b872dd60e01b81526001600160a01b038316906323b872dd90612d6990339030908690600401613914565b60008060008360020b12612eaa578260020b612eb2565b8260020b6000035b9050620d89e8811115612ef0576040805162461bcd60e51b81526020600482015260016024820152601560fa1b604482015290519081900360640190fd5b600060018216612f0457600160801b612f16565b6ffffcb933bd6fad37aa2d162d1a5940015b70ffffffffffffffffffffffffffffffffff1690506002821615612f4a576ffff97272373d413259a46990580e213a0260801c5b6004821615612f69576ffff2e50f5f656932ef12357cf3c7fdcc0260801c5b6008821615612f88576fffe5caca7e10e4e61c3624eaa0941cd00260801c5b6010821615612fa7576fffcb9843d60f6159c9db58835c9266440260801c5b6020821615612fc6576fff973b41fa98c081472e6896dfb254c00260801c5b6040821615612fe5576fff2ea16466c96a3843ec78b326b528610260801c5b6080821615613004576ffe5dee046a99a2a811c461f1969c30530260801c5b610100821615613024576ffcbe86c7900a88aedcffc83b479aa3a40260801c5b610200821615613044576ff987a7253ac413176f2b074cf7815e540260801c5b610400821615613064576ff3392b0822b70005940c7a398e4b70f30260801c5b610800821615613084576fe7159475a2c29b7443b29c7fa6e889d90260801c5b6110008216156130a4576fd097f3bdfd2022b8845ad8f792aa58250260801c5b6120008216156130c4576fa9f746462d870fdf8a65dc1f90e061e50260801c5b6140008216156130e4576f70d869a156d2a1b890bb3df62baf32f70260801c5b618000821615613104576f31be135f97d08fd981231505542fcfa60260801c5b62010000821615613125576f09aa508b5b7a84e1c677de54f3e99bc90260801c5b62020000821615613145576e5d6af8dedb81196699c329225ee6040260801c5b62040000821615613164576d2216e584f5fa1ea926041bedfe980260801c5b62080000821615613181576b048a170391f7dc42444e8fa20260801c5b60008460020b131561319c57806000198161319857fe5b0490505b6401000000008106156131b05760016131b3565b60005b60ff16602082901c0192505050919050565b6000836001600160a01b0316856001600160a01b031611156131e5579293925b846001600160a01b0316866001600160a01b03161161321057613209858585613349565b9050613280565b836001600160a01b0316866001600160a01b03161015613272576000613237878686613349565b905060006132468789866133ac565b9050806001600160801b0316826001600160801b0316106132675780613269565b815b92505050613280565b61327d8585846133ac565b90505b95945050505050565b60008261329857506000612816565b828202828482816132a557fe5b04146128135760405162461bcd60e51b8152600401808060200182810382526021815260200180613ed06021913960400191505060405180910390fd5b6000808211613338576040805162461bcd60e51b815260206004820152601a60248201527f536166654d6174683a206469766973696f6e206279207a65726f000000000000604482015290519081900360640190fd5b81838161334157fe5b049392505050565b6000826001600160a01b0316846001600160a01b03161115613369579192915b600061338c856001600160a01b0316856001600160a01b0316600160601b61287a565b90506132806133a784838888036001600160a01b031661287a565b6133f1565b6000826001600160a01b0316846001600160a01b031611156133cc579192915b6133e96133a783600160601b8787036001600160a01b031661287a565b949350505050565b806001600160801b038116811461340757600080fd5b919050565b803561340781613e74565b803561340781613e8c565b803561340781613e9a565b80516001600160801b038116811461340757600080fd5b805161ffff8116811461340757600080fd5b803562ffffff8116811461340757600080fd5b60006020828403121561347a578081fd5b813561281381613e74565b600060208284031215613496578081fd5b815161281381613e74565b6000602082840312156134b2578081fd5b815161281381613e8c565b6000602082840312156134ce578081fd5b813561281381613e9a565b6000608082840312156134ea578081fd5b6040516080810181811067ffffffffffffffff8211171561350757fe5b604052823561351581613e74565b8152602083013561352581613e74565b602082015261353660408401613456565b6040820152606083013561354981613e74565b60608201529392505050565b600060e08284031215613566578081fd5b50919050565b600060e0828403121561357d578081fd5b60405160e0810181811067ffffffffffffffff8211171561359a57fe5b6040526135a68361340c565b81526135b46020840161340c565b60208201526135c560408401613456565b604082015260608301356060820152608083013560808201526135ea60a08401613422565b60a08201526135fb60c08401613422565b60c08201529392505050565b60008060408385031215613619578081fd5b6136228361342d565b91506136306020840161342d565b90509250929050565b600080600080600060a08688031215613650578081fd5b6136598661342d565b945060208601519350604086015192506136756060870161342d565b91506136836080870161342d565b90509295509295909350565b600080600080600080600060e0888a0312156136a9578485fd5b87516136b481613e74565b60208901519097506136c581613e9a565b95506136d360408901613444565b94506136e160608901613444565b93506136ef60808901613444565b925060a088015160ff81168114613704578283fd5b60c089015190925061371581613e8c565b8091505092959891949750929550565b600060208284031215613736578081fd5b61287382613456565b600060208284031215613750578081fd5b5035919050565b600060208284031215613768578081fd5b5051919050565b60008060408385031215613781578182fd5b82359150602083013561379381613e8c565b809150509250929050565b600080600083850360c08112156137b3578182fd5b843593506080601f19820112156137c8578182fd5b506040516080810181811067ffffffffffffffff821117156137e657fe5b60405260208501356137f781613e9a565b8152604085013561380781613e9a565b60208201526060858101356040830152608086013590820152915061382e60a08501613417565b90509250925092565b60008060408385031215613849578182fd5b505080516020909101519092909150565b6000806000806060858703121561386f578182fd5b8435935060208501359250604085013567ffffffffffffffff80821115613894578384fd5b818701915087601f8301126138a7578384fd5b8135818111156138b5578485fd5b8860208285010111156138c6578485fd5b95989497505060200194505050565b6000806000606084860312156138e9578081fd5b505081359360208301359350604090920135919050565b6001600160a01b0391909116815260200190565b6001600160a01b039384168152919092166020820152604081019190915260600190565b6001600160a01b039384168152919092166020820152600f9190910b604082015260600190565b600060018060a01b038716825260208660020b818401528560020b60408401526001600160801b038516606084015260a0608084015283518060a0850152825b818110156139bb5785810183015185820160c00152820161399f565b818111156139cc578360c083870101525b50601f01601f19169290920160c001979650505050505050565b6001600160a01b03959095168552600293840b60208601529190920b60408401526001600160801b03918216606084015216608082015260a00190565b6001600160a01b03929092168252602082015260400190565b6001600160a01b0392831681529116602082015260400190565b6001600160a01b03938416815291909216602082015262ffffff909116604082015260600190565b6001600160a01b0393841681526020810192909252909116604082015260600190565b6000610200820190508b1515825260018060a01b03808c166020840152808b16604084015262ffffff8a1660608401528860808401528760a084015280871660c0840152508460e083015283610100830152825160020b610120830152602083015160020b610140830152604083015161016083015260608301516101808301526001600160801b036080840151166101a083015260a08301516101c083015260c08301516101e08301529b9a5050505050505050505050565b90815260200190565b600293840b81529190920b60208201526001600160801b03909116604082015260600190565b60208082526010908201526f494e56414c49442043414c4c4241434b60801b604082015260600190565b6020808252600990820152684e4f204348414e474560b81b604082015260600190565b60208082526005908201526427a92222a960d91b604082015260600190565b6020808252600990820152682327a92124a22222a760b91b604082015260600190565b6020808252600990820152684e6f7420574554483960b81b604082015260600190565b602080825260119082015270494e56414c4944204554482056414c554560781b604082015260600190565b6020808252600f908201526e4e4f20454e4f5547482051554f544160881b604082015260600190565b602080825260119082015270494e56414c4944204c495155494449545960781b604082015260600190565b81516001600160a01b03908116825260208084015182169083015260408084015162ffffff1690830152606092830151169181019190915260800190565b6001600160801b0392831681529116602082015260400190565b6001600160b01b0391909116815260200190565b6001600160b01b039790971687526001600160a01b0395861660208801529385166040870152919093166060850152608084019290925260a08301919091526001600160801b031660c082015260e00190565b9384526001600160801b03928316602085015291166040830152606082015260800190565b918252602082015260400190565b92835260208301919091526001600160801b0316604082015260600190565b94855260208501939093526001600160801b039190911660408401526060830152608082015260a00190565b938452602084019290925260408301521515606082015260800190565b938452602084019290925260408301526001600160801b0316606082015260800190565b96875260208701959095526040860193909352606085019190915260808401526001600160801b031660a0830152151560c082015260e00190565b6001600160a01b0381168114613e8957600080fd5b50565b8015158114613e8957600080fd5b8060020b8114613e8957600080fdfe4f776e61626c653a206e6577206f776e657220697320746865207a65726f2061646472657373536166654d6174683a206d756c7469706c69636174696f6e206f766572666c6f774f776e61626c653a2063616c6c6572206973206e6f7420746865206f776e6572a2646970667358221220e318abf3e934249745914f14ced0df9c3c494a1b4044d769244f4f209d59542464736f6c63430007060033",
  "linkReferences": {},
  "deployedLinkReferences": {}
}