{
  "_format": "hh-sol-artifact-1",
  "contractName": "UniswapV3Strategy",
  "sourceName": "contracts/UniswapV3Strategy.sol",
  "abi": [
    {
      "inputs": [
        {
          "internalType": "contract IUniswapV3Factory",
          "name": "_factory",
          "type": "address"
        },
        {
          "internalType": "contract IUniswapV3WorkCenter",
          "name": "_work",
          "type": "address"
        },
        {
          "internalType": "contract IMulBank",
          "name": "_bank",
          "type": "address"
        },
        {
          "internalType": "address",
          "name": "_devAddr",
          "type": "address"
        },
        {
          "internalType": "address",
          "name": "_manageAddr",
          "type": "address"
        }
      ],
      "stateMutability": "nonpayable",
      "type": "constructor"
    },
    {
      "anonymous": false,
      "inputs": [
        {
          "indexed": true,
          "internalType": "address",
          "name": "user",
          "type": "address"
        },
        {
          "indexed": false,
          "internalType": "uint256",
          "name": "positionId",
          "type": "uint256"
        },
        {
          "indexed": false,
          "internalType": "uint256",
          "name": "amount0",
          "type": "uint256"
        },
        {
          "indexed": false,
          "internalType": "uint256",
          "name": "amount1",
          "type": "uint256"
        },
        {
          "indexed": false,
          "internalType": "uint128",
          "name": "liquidity",
          "type": "uint128"
        }
      ],
      "name": "Add",
      "type": "event"
    },
    {
      "anonymous": false,
      "inputs": [
        {
          "indexed": true,
          "internalType": "address",
          "name": "user",
          "type": "address"
        },
        {
          "indexed": false,
          "internalType": "address[]",
          "name": "tokens",
          "type": "address[]"
        },
        {
          "indexed": false,
          "internalType": "uint256[]",
          "name": "commision",
          "type": "uint256[]"
        },
        {
          "indexed": false,
          "internalType": "uint256",
          "name": "devPercent",
          "type": "uint256"
        },
        {
          "indexed": false,
          "internalType": "uint256",
          "name": "gpPercent",
          "type": "uint256"
        }
      ],
      "name": "ClaimCommision",
      "type": "event"
    },
    {
      "anonymous": false,
      "inputs": [
        {
          "indexed": true,
          "internalType": "address",
          "name": "user",
          "type": "address"
        },
        {
          "indexed": false,
          "internalType": "uint256",
          "name": "positionId",
          "type": "uint256"
        },
        {
          "indexed": false,
          "internalType": "uint256",
          "name": "fee0",
          "type": "uint256"
        },
        {
          "indexed": false,
          "internalType": "uint256",
          "name": "fee1",
          "type": "uint256"
        }
      ],
      "name": "Collect",
      "type": "event"
    },
    {
      "anonymous": false,
      "inputs": [
        {
          "indexed": true,
          "internalType": "address",
          "name": "user",
          "type": "address"
        },
        {
          "indexed": false,
          "internalType": "uint256",
          "name": "positionId",
          "type": "uint256"
        },
        {
          "indexed": false,
          "internalType": "uint256",
          "name": "amount0",
          "type": "uint256"
        },
        {
          "indexed": false,
          "internalType": "uint256",
          "name": "amount1",
          "type": "uint256"
        }
      ],
      "name": "Divest",
      "type": "event"
    },
    {
      "anonymous": false,
      "inputs": [
        {
          "indexed": true,
          "internalType": "address",
          "name": "user",
          "type": "address"
        },
        {
          "indexed": false,
          "internalType": "uint256",
          "name": "positionId",
          "type": "uint256"
        },
        {
          "indexed": false,
          "internalType": "address",
          "name": "pool",
          "type": "address"
        },
        {
          "indexed": false,
          "internalType": "address",
          "name": "token0",
          "type": "address"
        },
        {
          "indexed": false,
          "internalType": "address",
          "name": "token1",
          "type": "address"
        },
        {
          "indexed": false,
          "internalType": "uint256",
          "name": "invest0",
          "type": "uint256"
        },
        {
          "indexed": false,
          "internalType": "uint256",
          "name": "invest1",
          "type": "uint256"
        },
        {
          "indexed": false,
          "internalType": "uint128",
          "name": "liquidity",
          "type": "uint128"
        }
      ],
      "name": "Invest",
      "type": "event"
    },
    {
      "anonymous": false,
      "inputs": [
        {
          "indexed": true,
          "internalType": "address",
          "name": "previousOwner",
          "type": "address"
        },
        {
          "indexed": true,
          "internalType": "address",
          "name": "newOwner",
          "type": "address"
        }
      ],
      "name": "OwnershipTransferred",
      "type": "event"
    },
    {
      "anonymous": false,
      "inputs": [
        {
          "indexed": true,
          "internalType": "address",
          "name": "user",
          "type": "address"
        },
        {
          "indexed": false,
          "internalType": "address",
          "name": "pool",
          "type": "address"
        },
        {
          "indexed": false,
          "internalType": "int256",
          "name": "amount0",
          "type": "int256"
        },
        {
          "indexed": false,
          "internalType": "int256",
          "name": "amount1",
          "type": "int256"
        }
      ],
      "name": "Swap",
      "type": "event"
    },
    {
      "anonymous": false,
      "inputs": [
        {
          "indexed": true,
          "internalType": "address",
          "name": "user",
          "type": "address"
        },
        {
          "indexed": false,
          "internalType": "uint256",
          "name": "positionId",
          "type": "uint256"
        },
        {
          "indexed": false,
          "internalType": "uint256",
          "name": "exit0",
          "type": "uint256"
        },
        {
          "indexed": false,
          "internalType": "uint256",
          "name": "exit1",
          "type": "uint256"
        },
        {
          "indexed": false,
          "internalType": "uint256",
          "name": "invest0",
          "type": "uint256"
        },
        {
          "indexed": false,
          "internalType": "uint256",
          "name": "invest1",
          "type": "uint256"
        },
        {
          "indexed": false,
          "internalType": "uint128",
          "name": "liquidity",
          "type": "uint128"
        }
      ],
      "name": "Switching",
      "type": "event"
    },
    {
      "inputs": [],
      "name": "_nextId",
      "outputs": [
        {
          "internalType": "uint176",
          "name": "",
          "type": "uint176"
        }
      ],
      "stateMutability": "view",
      "type": "function"
    },
    {
      "inputs": [
        {
          "internalType": "uint256",
          "name": "positionId",
          "type": "uint256"
        },
        {
          "internalType": "uint256",
          "name": "amount0Desired",
          "type": "uint256"
        },
        {
          "internalType": "uint256",
          "name": "amount1Desired",
          "type": "uint256"
        }
      ],
      "name": "add",
      "outputs": [
        {
          "internalType": "uint256",
          "name": "amount0",
          "type": "uint256"
        },
        {
          "internalType": "uint256",
          "name": "amount1",
          "type": "uint256"
        },
        {
          "internalType": "uint128",
          "name": "liquidity",
          "type": "uint128"
        }
      ],
      "stateMutability": "nonpayable",
      "type": "function"
    },
    {
      "inputs": [],
      "name": "bank",
      "outputs": [
        {
          "internalType": "contract IMulBank",
          "name": "",
          "type": "address"
        }
      ],
      "stateMutability": "view",
      "type": "function"
    },
    {
      "inputs": [
        {
          "internalType": "address",
          "name": "to",
          "type": "address"
        }
      ],
      "name": "claimCommision",
      "outputs": [],
      "stateMutability": "nonpayable",
      "type": "function"
    },
    {
      "inputs": [
        {
          "internalType": "uint256",
          "name": "positionId",
          "type": "uint256"
        }
      ],
      "name": "collect",
      "outputs": [
        {
          "internalType": "uint128",
          "name": "fee0",
          "type": "uint128"
        },
        {
          "internalType": "uint128",
          "name": "fee1",
          "type": "uint128"
        }
      ],
      "stateMutability": "nonpayable",
      "type": "function"
    },
    {
      "inputs": [],
      "name": "devAddr",
      "outputs": [
        {
          "internalType": "address",
          "name": "",
          "type": "address"
        }
      ],
      "stateMutability": "view",
      "type": "function"
    },
    {
      "inputs": [],
      "name": "devPercent",
      "outputs": [
        {
          "internalType": "uint256",
          "name": "",
          "type": "uint256"
        }
      ],
      "stateMutability": "view",
      "type": "function"
    },
    {
      "inputs": [
        {
          "internalType": "uint256",
          "name": "positionId",
          "type": "uint256"
        }
      ],
      "name": "divest",
      "outputs": [
        {
          "internalType": "uint256",
          "name": "amount0",
          "type": "uint256"
        },
        {
          "internalType": "uint256",
          "name": "amount1",
          "type": "uint256"
        }
      ],
      "stateMutability": "nonpayable",
      "type": "function"
    },
    {
      "inputs": [],
      "name": "factory",
      "outputs": [
        {
          "internalType": "contract IUniswapV3Factory",
          "name": "",
          "type": "address"
        }
      ],
      "stateMutability": "view",
      "type": "function"
    },
    {
      "inputs": [
        {
          "components": [
            {
              "internalType": "address",
              "name": "token0",
              "type": "address"
            },
            {
              "internalType": "address",
              "name": "token1",
              "type": "address"
            },
            {
              "internalType": "uint24",
              "name": "fee",
              "type": "uint24"
            },
            {
              "internalType": "uint256",
              "name": "amount0Desired",
              "type": "uint256"
            },
            {
              "internalType": "uint256",
              "name": "amount1Desired",
              "type": "uint256"
            },
            {
              "internalType": "int24",
              "name": "tickLower",
              "type": "int24"
            },
            {
              "internalType": "int24",
              "name": "tickUpper",
              "type": "int24"
            }
          ],
          "internalType": "struct UniswapV3Strategy.MintParams",
          "name": "params",
          "type": "tuple"
        }
      ],
      "name": "invest",
      "outputs": [
        {
          "internalType": "uint256",
          "name": "amount0",
          "type": "uint256"
        },
        {
          "internalType": "uint256",
          "name": "amount1",
          "type": "uint256"
        },
        {
          "internalType": "uint128",
          "name": "liquidity",
          "type": "uint128"
        }
      ],
      "stateMutability": "nonpayable",
      "type": "function"
    },
    {
      "inputs": [],
      "name": "manageAddr",
      "outputs": [
        {
          "internalType": "address",
          "name": "",
          "type": "address"
        }
      ],
      "stateMutability": "view",
      "type": "function"
    },
    {
      "inputs": [],
      "name": "owner",
      "outputs": [
        {
          "internalType": "address",
          "name": "",
          "type": "address"
        }
      ],
      "stateMutability": "view",
      "type": "function"
    },
    {
      "inputs": [
        {
          "internalType": "uint256",
          "name": "",
          "type": "uint256"
        }
      ],
      "name": "positions",
      "outputs": [
        {
          "internalType": "bool",
          "name": "close",
          "type": "bool"
        },
        {
          "internalType": "address",
          "name": "token0",
          "type": "address"
        },
        {
          "internalType": "address",
          "name": "token1",
          "type": "address"
        },
        {
          "internalType": "uint24",
          "name": "fee",
          "type": "uint24"
        },
        {
          "internalType": "uint256",
          "name": "debt0",
          "type": "uint256"
        },
        {
          "internalType": "uint256",
          "name": "debt1",
          "type": "uint256"
        },
        {
          "internalType": "address",
          "name": "operator",
          "type": "address"
        },
        {
          "internalType": "uint256",
          "name": "exit0",
          "type": "uint256"
        },
        {
          "internalType": "uint256",
          "name": "exit1",
          "type": "uint256"
        },
        {
          "components": [
            {
              "internalType": "int24",
              "name": "tickLower",
              "type": "int24"
            },
            {
              "internalType": "int24",
              "name": "tickUpper",
              "type": "int24"
            },
            {
              "internalType": "uint256",
              "name": "feeGrowthInside0LastX128",
              "type": "uint256"
            },
            {
              "internalType": "uint256",
              "name": "feeGrowthInside1LastX128",
              "type": "uint256"
            },
            {
              "internalType": "uint128",
              "name": "liquidity",
              "type": "uint128"
            }
          ],
          "internalType": "struct UniswapV3Strategy.Tick",
          "name": "tick",
          "type": "tuple"
        }
      ],
      "stateMutability": "view",
      "type": "function"
    },
    {
      "inputs": [],
      "name": "renounceOwnership",
      "outputs": [],
      "stateMutability": "nonpayable",
      "type": "function"
    },
    {
      "inputs": [
        {
          "components": [
            {
              "internalType": "address",
              "name": "token0",
              "type": "address"
            },
            {
              "internalType": "address",
              "name": "token1",
              "type": "address"
            },
            {
              "internalType": "uint24",
              "name": "fee",
              "type": "uint24"
            },
            {
              "internalType": "int256",
              "name": "amountSpecified",
              "type": "int256"
            },
            {
              "internalType": "uint256",
              "name": "amountOutMin",
              "type": "uint256"
            },
            {
              "internalType": "uint256",
              "name": "amountInMax",
              "type": "uint256"
            },
            {
              "internalType": "bool",
              "name": "zeroOne",
              "type": "bool"
            }
          ],
          "internalType": "struct UniswapV3Strategy.SwapParams",
          "name": "params",
          "type": "tuple"
        }
      ],
      "name": "swap",
      "outputs": [
        {
          "internalType": "int256",
          "name": "amount0",
          "type": "int256"
        },
        {
          "internalType": "int256",
          "name": "amount1",
          "type": "int256"
        }
      ],
      "stateMutability": "nonpayable",
      "type": "function"
    },
    {
      "inputs": [
        {
          "internalType": "uint256",
          "name": "positionId",
          "type": "uint256"
        },
        {
          "components": [
            {
              "internalType": "int24",
              "name": "tickLower",
              "type": "int24"
            },
            {
              "internalType": "int24",
              "name": "tickUpper",
              "type": "int24"
            },
            {
              "internalType": "uint256",
              "name": "amount0Desired",
              "type": "uint256"
            },
            {
              "internalType": "uint256",
              "name": "amount1Desired",
              "type": "uint256"
            }
          ],
          "internalType": "struct UniswapV3Strategy.SwitchParams",
          "name": "params",
          "type": "tuple"
        }
      ],
      "name": "switching",
      "outputs": [
        {
          "internalType": "uint256",
          "name": "amount0",
          "type": "uint256"
        },
        {
          "internalType": "uint256",
          "name": "amount1",
          "type": "uint256"
        },
        {
          "internalType": "uint128",
          "name": "liquidity",
          "type": "uint128"
        },
        {
          "internalType": "uint256",
          "name": "exit0",
          "type": "uint256"
        },
        {
          "internalType": "uint256",
          "name": "exit1",
          "type": "uint256"
        }
      ],
      "stateMutability": "nonpayable",
      "type": "function"
    },
    {
      "inputs": [
        {
          "internalType": "address",
          "name": "newOwner",
          "type": "address"
        }
      ],
      "name": "transferOwnership",
      "outputs": [],
      "stateMutability": "nonpayable",
      "type": "function"
    },
    {
      "inputs": [
        {
          "internalType": "uint256",
          "name": "amount0Owed",
          "type": "uint256"
        },
        {
          "internalType": "uint256",
          "name": "amount1Owed",
          "type": "uint256"
        },
        {
          "internalType": "bytes",
          "name": "data",
          "type": "bytes"
        }
      ],
      "name": "uniswapV3MintCallback",
      "outputs": [],
      "stateMutability": "nonpayable",
      "type": "function"
    },
    {
      "inputs": [
        {
          "internalType": "int256",
          "name": "amount0Delta",
          "type": "int256"
        },
        {
          "internalType": "int256",
          "name": "amount1Delta",
          "type": "int256"
        },
        {
          "internalType": "bytes",
          "name": "_data",
          "type": "bytes"
        }
      ],
      "name": "uniswapV3SwapCallback",
      "outputs": [],
      "stateMutability": "nonpayable",
      "type": "function"
    },
    {
      "inputs": [],
      "name": "work",
      "outputs": [
        {
          "internalType": "contract IUniswapV3WorkCenter",
          "name": "",
          "type": "address"
        }
      ],
      "stateMutability": "view",
      "type": "function"
    }
  ],
  "bytecode": "0x6080604052600580546001600160b01b03191690556103e86006553480156200002757600080fd5b50604051620049ff380380620049ff8339810160408190526200004a916200018f565b6000620000566200018b565b600080546001600160a01b0319166001600160a01b0383169081178255604051929350917f8be0079c531659141344cd1fd0a4f28419497f9722a3daafe3b4186f6b6457e0908290a350600180556001600160a01b038516620000d65760405162461bcd60e51b8152600401620000cd906200020e565b60405180910390fd5b6001600160a01b038416620000ff5760405162461bcd60e51b8152600401620000cd906200020e565b6001600160a01b038316620001285760405162461bcd60e51b8152600401620000cd906200020e565b600280546001600160a01b03199081166001600160a01b0397881617909155600480548216958716959095179094556003805485169386169390931790925560078054841691851691909117905560088054909216921691909117905562000250565b3390565b600080600080600060a08688031215620001a7578081fd5b8551620001b48162000237565b6020870151909550620001c78162000237565b6040870151909450620001da8162000237565b6060870151909350620001ed8162000237565b6080870151909250620002008162000237565b809150509295509295909350565b6020808252600f908201526e494e56414c49445f4144445245535360881b604082015260600190565b6001600160a01b03811681146200024d57600080fd5b50565b61479f80620002606000396000f3fe608060405234801561001057600080fd5b506004361061012c5760003560e01c8063b0a75d33116100ad578063da09c72c11610071578063da09c72c14610276578063f2f2fff51461027e578063f2fde38b14610293578063fa461e33146102a6578063fc3c28af146102b95761012c565b8063b0a75d331461021f578063b1ce619b14610232578063c45a01551461023a578063ce3f865f14610242578063d3487997146102635761012c565b806376cdb03b116100f457806376cdb03b146101c05780638ca17995146101c85780638da5cb5b146101db5780639461f680146101e357806399fbab88146101f65761012c565b80631ee2adc314610131578063322e9f041461015b57806334f4e8e114610170578063505fb46c14610194578063715018a6146101b6575b600080fd5b61014461013f366004613ce0565b6102ce565b6040516101529291906142e5565b60405180910390f35b6101636106e4565b6040516101529190613fd1565b61018361017e366004613ed0565b6106f3565b604051610152959493929190614614565b6101a76101a2366004613f5b565b610da8565b604051610152939291906145f5565b6101be611106565b005b6101636111c4565b6101446101d6366004613ea0565b6111d3565b6101636115c1565b6101a76101f1366004613b9f565b6115d0565b610209610204366004613ea0565b611a2e565b6040516101529a99989796959493929190614212565b6101be61022d36600461397c565b611aff565b610163611e17565b610163611e26565b610255610250366004613ea0565b611e35565b604051610152929190614555565b6101be610271366004613ad2565b6124a9565b610163612632565b610286612641565b604051610152919061456f565b6101be6102a136600461397c565b612650565b6101be6102b4366004613ad2565b612764565b6102c16128e9565b60405161015291906142b6565b600080600360009054906101000a90046001600160a01b03166001600160a01b03166373e029986040518163ffffffff1660e01b815260040160206040518083038186803b15801561031f57600080fd5b505afa158015610333573d6000803e3d6000fd5b505050506040513d601f19601f820116820180604052508101906103579190613a77565b61037c5760405162461bcd60e51b8152600401610373906142f3565b60405180910390fd5b600254835160208501516040808701519051630b4c774160e11b81526000946001600160a01b031693631698ee82936103bc93919290919060040161403b565b60206040518083038186803b1580156103d457600080fd5b505afa1580156103e8573d6000803e3d6000fd5b505050506040513d601f19601f8201168201806040525081019061040c9190613998565b60048054604051633111fc1760e11b815292935060009283926001600160a01b0390921691636223f82e91610445913391889101613fe5565b604080518083038186803b15801561045c57600080fd5b505afa158015610470573d6000803e3d6000fd5b505050506040513d601f19601f820116820180604052508101906104949190613aaf565b91509150826001600160a01b031663128acb08308860c0015189606001518a60c001516104d55773fffd8963efd1fc6a506488495d951d5263988d256104dc565b6401000276a45b6040518060a001604052808d600001516001600160a01b031681526020018d602001516001600160a01b031681526020018d6040015162ffffff168152602001336001600160a01b03168152602001600115158152506040516020016105429190614509565b6040516020818303038152906040526040518663ffffffff1660e01b8152600401610571959493929190614063565b6040805180830381600087803b15801561058a57600080fd5b505af115801561059e573d6000803e3d6000fd5b505050506040513d601f19601f820116820180604052508101906105c29190613aaf565b60c0880151919650945080156105d85750848212155b806105f057508560c001511580156105f05750838112155b61060c5760405162461bcd60e51b815260040161037390614478565b6060860151600012801561065d57600080871361062c5786600003610631565b856000035b905087608001518110156106575760405162461bcd60e51b815260040161037390614431565b50610696565b600080871361066c578561066e565b865b90508760a001518111156106945760405162461bcd60e51b815260040161037390614431565b505b336001600160a01b03167fa4228e1eb11eb9b31069d9ed20e7af9a010ca1a02d4855cee54e08e188fcc32c8588886040516106d393929190614128565b60405180910390a250505050915091565b6004546001600160a01b031681565b6000806000806000600360009054906101000a90046001600160a01b03166001600160a01b03166373e029986040518163ffffffff1660e01b815260040160206040518083038186803b15801561074957600080fd5b505afa15801561075d573d6000803e3d6000fd5b505050506040513d601f19601f820116820180604052508101906107819190613a77565b61079d5760405162461bcd60e51b8152600401610373906142f3565b866000600982815481106107ad57fe5b60009182526020918290206040805161014081018252600b909302909101805460ff8116151584526001600160a01b036101009182900481168587015260018301548082168686015262ffffff600160a01b90910416606080870191909152600280850154608080890191909152600386015460a0808a01919091526004870154851660c08a01908152600588015460e08b01526006880154968a019690965287519081018852600787015480840b840b840b825263010000009004830b830b90920b98820198909852600885015495810195909552600984015490850152600a909201546001600160801b0316948301949094526101208301919091529151909250339116146108d05760405162461bcd60e51b815260040161037390614392565b80511580156108f157506000816101200151608001516001600160801b0316115b61090d5760405162461bcd60e51b8152600401610373906143e4565b600060098a8154811061091c57fe5b90600052602060002090600b02019050600081600701905061093d8b611e35565b505080548a51600291820b820b910b14158061096f5750805460208b0151600290810b6301000000909204810b900b14155b61098b5760405162461bcd60e51b815260040161037390614321565b60025482546001840154604051630b4c774160e11b81526000936001600160a01b0390811693631698ee82936109dd93610100909204831692811691600160a01b90910462ffffff169060040161403b565b60206040518083038186803b1580156109f557600080fd5b505afa158015610a09573d6000803e3d6000fd5b505050506040513d601f19601f82011682018060405250810190610a2d9190613998565b8254600384015460405163a34123a760e01b81529293506001600160a01b0384169263a34123a792610a7e92600282810b936301000000909304900b916001600160801b03909116906004016142bf565b6040805180830381600087803b158015610a9757600080fd5b505af1158015610aab573d6000803e3d6000fd5b505050506040513d601f19601f82011682018060405250810190610acf9190613aaf565b83546040516309e3d67b60e31b81529299509097506001600160a01b03831691634f1eb3d891610b18913091600281810b926301000000909204900b908d908d906004016140eb565b6040805180830381600087803b158015610b3157600080fd5b505af1158015610b45573d6000803e3d6000fd5b505050506040513d601f19601f82011682018060405250810190610b699190613d68565b5050610b758c826128ef565b6040805160e081018252845461010090046001600160a01b0390811682526001860154908116602080840191909152600160a01b90910462ffffff1682840152918d01516060808301919091528d015160808201528c51600290810b60a0830152918d015190910b60c0820152610beb90612cff565b809b50819c50829d50839450505050508a600001518260000160006101000a81548162ffffff021916908360020b62ffffff1602179055508a602001518260000160036101000a81548162ffffff021916908360020b62ffffff160217905550898360020181905550888360030181905550878260030160006101000a8154816001600160801b0302191690836001600160801b03160217905550806001600160a01b031663514ea4bf610cc2308560000160009054906101000a900460020b8660000160039054906101000a900460020b6130a5565b6040518263ffffffff1660e01b8152600401610cde91906142b6565b60a06040518083038186803b158015610cf657600080fd5b505afa158015610d0a573d6000803e3d6000fd5b505050506040513d601f19601f82011682018060405250810190610d2e9190613d9a565b9091929350905050836001016000856002016000849190505583919050555050336001600160a01b03167fac5f524e27716331e4a51cc66fa8c5214162347ac93bb8180289a25ebd9d5a688d89898e8e8e604051610d919695949392919061467a565b60405180910390a250505050509295509295909350565b6000806000600360009054906101000a90046001600160a01b03166001600160a01b03166373e029986040518163ffffffff1660e01b815260040160206040518083038186803b158015610dfb57600080fd5b505afa158015610e0f573d6000803e3d6000fd5b505050506040513d601f19601f82011682018060405250810190610e339190613a77565b610e4f5760405162461bcd60e51b8152600401610373906142f3565b85600060098281548110610e5f57fe5b60009182526020918290206040805161014081018252600b909302909101805460ff8116151584526001600160a01b036101009182900481168587015260018301548082168686015262ffffff600160a01b90910416606080870191909152600280850154608080890191909152600386015460a0808a01919091526004870154851660c08a01908152600588015460e08b01526006880154968a019690965287519081018852600787015480840b840b840b825263010000009004830b830b90920b98820198909852600885015495810195909552600984015490850152600a909201546001600160801b031694830194909452610120830191909152915190925033911614610f825760405162461bcd60e51b815260040161037390614392565b8051158015610fa357506000816101200151608001516001600160801b0316115b610fbf5760405162461bcd60e51b8152600401610373906143e4565b600060098981548110610fce57fe5b600091825260208083206040805160e081018252600b94909402909101805461010090046001600160a01b039081168552600182015490811693850193909352600160a01b90920462ffffff1690830152606082018b9052608082018a90526007810154600281810b810b60a08501526301000000909104810b900b60c0830152925061105a90612cff565b91995097509550905061106c8a611e35565b5050600a820180546001600160801b038082168801166001600160801b031990911617905560028201546110a090886130ff565b600283015560038201546110b490876130ff565b600383015560405133907f4e26bf96a4004dbd9e7a6bf889ebc8fbb0b98057476634c8a62ce133ed35ec3a906110f1908d908b908b908b90614656565b60405180910390a25050505093509350939050565b61110e613162565b6001600160a01b031661111f6115c1565b6001600160a01b03161461117a576040805162461bcd60e51b815260206004820181905260248201527f4f776e61626c653a2063616c6c6572206973206e6f7420746865206f776e6572604482015290519081900360640190fd5b600080546040516001600160a01b03909116907f8be0079c531659141344cd1fd0a4f28419497f9722a3daafe3b4186f6b6457e0908390a3600080546001600160a01b0319169055565b6003546001600160a01b031681565b600080826000600982815481106111e657fe5b60009182526020918290206040805161014081018252600b909302909101805460ff8116151584526001600160a01b036101009182900481168587015260018301548082168686015262ffffff600160a01b90910416606080870191909152600280850154608080890191909152600386015460a0808a01919091526004870154851660c08a01908152600588015460e08b01526006880154968a019690965287519081018852600787015480840b840b840b825263010000009004830b830b90920b98820198909852600885015495810195909552600984015490850152600a909201546001600160801b0316948301949094526101208301919091529151909250339116146113095760405162461bcd60e51b815260040161037390614392565b805115801561132a57506000816101200151608001516001600160801b0316115b6113465760405162461bcd60e51b8152600401610373906143e4565b60006009868154811061135557fe5b90600052602060002090600b0201905061136e86611e35565b505060025481546001830154604051630b4c774160e11b81526000936001600160a01b0390811693631698ee82936113c293610100909204831692811691600160a01b90910462ffffff169060040161403b565b60206040518083038186803b1580156113da57600080fd5b505afa1580156113ee573d6000803e3d6000fd5b505050506040513d601f19601f820116820180604052508101906114129190613998565b6007830154600a84015460405163a34123a760e01b81529293506001600160a01b0384169263a34123a79261146692600282810b936301000000909304900b916001600160801b03909116906004016142bf565b6040805180830381600087803b15801561147f57600080fd5b505af1158015611493573d6000803e3d6000fd5b505050506040513d601f19601f820116820180604052508101906114b79190613aaf565b60078401546040516309e3d67b60e31b81529298509096506001600160a01b03831691634f1eb3d891611503913091600281810b926301000000909204900b908c908c906004016140eb565b6040805180830381600087803b15801561151c57600080fd5b505af1158015611530573d6000803e3d6000fd5b505050506040513d601f19601f820116820180604052508101906115549190613d68565b505061156087826128ef565b600a820180546001600160801b03191690556005820186905560068201859055815460ff1916600117825560405133907f51527f281a5cab89f6d95e0051766e4abe2f4390765a23b856ae420c28f1414c906106d3908a908a908a90614640565b6000546001600160a01b031690565b6000806000600360009054906101000a90046001600160a01b03166001600160a01b03166373e029986040518163ffffffff1660e01b815260040160206040518083038186803b15801561162357600080fd5b505afa158015611637573d6000803e3d6000fd5b505050506040513d601f19601f8201168201806040525081019061165b9190613a77565b6116775760405162461bcd60e51b8152600401610373906142f3565b600061169061168b36879003870187613bb6565b612cff565b91965094509250905060006116c4306116af60c0890160a08a01613a93565b6116bf60e08a0160c08b01613a93565b6130a5565b9050600080836001600160a01b031663514ea4bf846040518263ffffffff1660e01b81526004016116f591906142b6565b60a06040518083038186803b15801561170d57600080fd5b505afa158015611721573d6000803e3d6000fd5b505050506040513d601f19601f820116820180604052508101906117459190613d9a565b5050925092505060006040518060a001604052808a60a001602081019061176c9190613a93565b60020b815260200161178460e08c0160c08d01613a93565b60020b8152602001848152602001838152602001876001600160801b0316815250905060096040518061014001604052806000151581526020018b60000160208101906117d1919061397c565b6001600160a01b031681526020018b60200160208101906117f2919061397c565b6001600160a01b0316815260200161181060608d0160408e01613e86565b62ffffff908116825260208083018d905260408084018d90523360608086018290526000608080880182905260a080890183905260c09889018c90528a5460018082018d559b8452928790208a51600b9094020180548b89015160ff1990911694151594909417610100600160a81b0319166101006001600160a01b0395861681029190911782558b8801519c820180548d8801516001600160a01b03199182169f88169f909f1762ffffff60a01b1916600160a01b9f8d169f909f029e909e1790558b840151600280840191909155928c01516003830155998b0151600482018054909d16941693909317909a5560e08901516005808401919091559789015160068301556101209098015180516007830180548389015162ffffff19909116928d0b8a169290921765ffffff0000001916630100000092909c0b90981602999099179095559187015160088501559086015160098401559490930151600a90910180546001600160801b0319166001600160801b03909216919091179055547f277685e2349c727f8c026893d1d41063f1e92d4092c5d38613f40eac70f3c6f2916001600160b01b039091169088906119cd908e018e61397c565b8d60200160208101906119e0919061397c565b8d8d8d6040516119f69796959493929190614583565b60405180910390a25050600580546001600160b01b03808216600101166001600160b01b031990911617905550939592945090925050565b60098181548110611a3e57600080fd5b6000918252602091829020600b91909102018054600182015460028084015460038501546004860154600587015460068801546040805160a08101825260078b015480890b890b890b825263010000009004880b880b90970b9a87019a909a5260088901549986019990995260098801546060860152600a909701546001600160801b0316608085015260ff861698506101009095046001600160a01b039081169781861697600160a01b90960462ffffff1696939592949190931692908a565b60048054604051630f41a04d60e11b815260009283926001600160a01b031691631e83409a91611b3191339101613fd1565b600060405180830381600087803b158015611b4b57600080fd5b505af1158015611b5f573d6000803e3d6000fd5b505050506040513d6000823e601f3d908101601f19168201604052611b8791908101906139b4565b60048054604051631c50c23960e21b815293955091935060009283926001600160a01b03169163714308e491611bbf91339101613fd1565b602060405180830381600087803b158015611bd957600080fd5b505af1158015611bed573d6000803e3d6000fd5b505050506040513d601f19601f82011682018060405250810190611c119190613eb8565b905060005b8451811015611da9576000848281518110611c2d57fe5b60200260200101511115611da1576000611c71612710611c6b600654888681518110611c5557fe5b602002602001015161316690919063ffffffff16565b906131bf565b60035487519192506001600160a01b0316906342c9f9b190889085908110611c9557fe5b602002602001015183600760009054906101000a90046001600160a01b03166040518463ffffffff1660e01b8152600401611cd293929190614162565b600060405180830381600087803b158015611cec57600080fd5b505af1158015611d00573d6000803e3d6000fd5b505050506000611d1c612710611c6b86898781518110611c5557fe5b60035488519192506001600160a01b0316906342c9f9b190899086908110611d4057fe5b6020026020010151838b6040518463ffffffff1660e01b8152600401611d6893929190614162565b600060405180830381600087803b158015611d8257600080fd5b505af1158015611d96573d6000803e3d6000fd5b505050506001945050505b600101611c16565b5081611dc75760405162461bcd60e51b81526004016103739061440b565b336001600160a01b03167fb9d2b492fb7a9bffe038c3b6689884eb3a79c9d16457d94b305ac0ce35fa6ff7858560065485604051611e089493929190614185565b60405180910390a25050505050565b6008546001600160a01b031681565b6002546001600160a01b031681565b60008060026001541415611e90576040805162461bcd60e51b815260206004820152601f60248201527f5265656e7472616e637947756172643a207265656e7472616e742063616c6c00604482015290519081900360640190fd5b600260015560035460408051630e7c053360e31b815290516001600160a01b03909216916373e0299891600480820192602092909190829003018186803b158015611eda57600080fd5b505afa158015611eee573d6000803e3d6000fd5b505050506040513d601f19601f82011682018060405250810190611f129190613a77565b611f2e5760405162461bcd60e51b8152600401610373906142f3565b82600060098281548110611f3e57fe5b60009182526020918290206040805161014081018252600b909302909101805460ff8116151584526001600160a01b036101009182900481168587015260018301548082168686015262ffffff600160a01b90910416606080870191909152600280850154608080890191909152600386015460a0808a01919091526004870154851660c08a01908152600588015460e08b01526006880154968a019690965287519081018852600787015480840b840b840b825263010000009004830b830b90920b98820198909852600885015495810195909552600984015490850152600a909201546001600160801b0316948301949094526101208301919091529151909250339116146120615760405162461bcd60e51b815260040161037390614392565b805115801561208257506000816101200151608001516001600160801b0316115b61209e5760405162461bcd60e51b8152600401610373906143e4565b6000600986815481106120ad57fe5b600091825260208220600254600b929092020180546001820154604051630b4c774160e11b81529295506007860194936001600160a01b0390811693631698ee829361211593610100909104831692811691600160a01b90910462ffffff169060040161403b565b60206040518083038186803b15801561212d57600080fd5b505afa158015612141573d6000803e3d6000fd5b505050506040513d601f19601f820116820180604052508101906121659190613998565b825460405163a34123a760e01b81529192506001600160a01b0383169163a34123a7916121a791600282810b9263010000009004900b906000906004016142bf565b6040805180830381600087803b1580156121c057600080fd5b505af11580156121d4573d6000803e3d6000fd5b505050506040513d601f19601f820116820180604052508101906121f89190613aaf565b5050815460009081906001600160a01b0384169063514ea4bf9061222c903090600281810b9163010000009004900b6130a5565b6040518263ffffffff1660e01b815260040161224891906142b6565b60a06040518083038186803b15801561226057600080fd5b505afa158015612274573d6000803e3d6000fd5b505050506040513d601f19601f820116820180604052508101906122989190613d9a565b5050600187015460038801549295509093506122c592508403906001600160801b0316600160801b613226565b60028501546003860154919a506122ed91908303906001600160801b0316600160801b613226565b84546040516309e3d67b60e31b81529199506001600160a01b03851691634f1eb3d891612333913091600281810b926301000000909204900b908f908f906004016140eb565b6040805180830381600087803b15801561234c57600080fd5b505af1158015612360573d6000803e3d6000fd5b505050506040513d601f19601f820116820180604052508101906123849190613d68565b809950819a505050818460010181905550808460020181905550600460009054906101000a90046001600160a01b03166001600160a01b0316634026096133858860000160019054906101000a90046001600160a01b03168960010160009054906101000a90046001600160a01b03168e8e6040518763ffffffff1660e01b815260040161241796959493929190613fff565b600060405180830381600087803b15801561243157600080fd5b505af1158015612445573d6000803e3d6000fd5b50505060048601546040516001600160a01b0390911691507fde5e3abbba77c313e4f5881ab0685bbbbb54f38b5cfbdd6230e88642a5df29f19061248e908d908d908d906145d6565b60405180910390a25050505050505060018081905550915091565b60006124b782840184613b23565b600254815160208301516040808501519051630b4c774160e11b81529495506001600160a01b0390931693631698ee82936124f693929160040161403b565b60206040518083038186803b15801561250e57600080fd5b505afa158015612522573d6000803e3d6000fd5b505050506040513d601f19601f820116820180604052508101906125469190613998565b6001600160a01b0316336001600160a01b0316146125765760405162461bcd60e51b8152600401610373906143b5565b84156125925761259281600001518260600151873360016132d5565b83156125ae576125ae81602001518260600151863360016132d5565b60048054606083015183516020850151604051634026096160e01b81526001600160a01b03909416946340260961946125f9949333939092909160008e810392908e90039101613fff565b600060405180830381600087803b15801561261357600080fd5b505af1158015612627573d6000803e3d6000fd5b505050505050505050565b6007546001600160a01b031681565b6005546001600160b01b031681565b612658613162565b6001600160a01b03166126696115c1565b6001600160a01b0316146126c4576040805162461bcd60e51b815260206004820181905260248201527f4f776e61626c653a2063616c6c6572206973206e6f7420746865206f776e6572604482015290519081900360640190fd5b6001600160a01b0381166127095760405162461bcd60e51b81526004018080602001828103825260268152602001806147236026913960400191505060405180910390fd5b600080546040516001600160a01b03808516939216917f8be0079c531659141344cd1fd0a4f28419497f9722a3daafe3b4186f6b6457e091a3600080546001600160a01b0319166001600160a01b0392909216919091179055565b60008413806127735750600083135b61277c57600080fd5b600061278a82840184613c51565b600254815160208301516040808501519051630b4c774160e11b81529495506001600160a01b0390931693631698ee82936127c993929160040161403b565b60206040518083038186803b1580156127e157600080fd5b505afa1580156127f5573d6000803e3d6000fd5b505050506040513d601f19601f820116820180604052508101906128199190613998565b6001600160a01b0316336001600160a01b0316146128495760405162461bcd60e51b815260040161037390614344565b600085131561286b5761286b81600001518260600151873385608001516132d5565b600084131561288d5761288d81602001518260600151863385608001516132d5565b8060800151156128e25760048054606083015183516020850151604051634026096160e01b81526001600160a01b03909416946340260961946125f9949333939092909160008e810392908e90039101613fff565b5050505050565b60065481565b60026001541415612947576040805162461bcd60e51b815260206004820152601f60248201527f5265656e7472616e637947756172643a207265656e7472616e742063616c6c00604482015290519081900360640190fd5b600260018190555060006009838154811061295e57fe5b600091825260208220600b9091020180546040516370a0823160e01b81529193506001600160a01b0361010090910416906370a08231906129a3903090600401613fd1565b60206040518083038186803b1580156129bb57600080fd5b505afa1580156129cf573d6000803e3d6000fd5b505050506040513d601f19601f820116820180604052508101906129f39190613eb8565b60018301546040516370a0823160e01b81529192506000916001600160a01b03909116906370a0823190612a2b903090600401613fd1565b60206040518083038186803b158015612a4357600080fd5b505afa158015612a57573d6000803e3d6000fd5b505050506040513d601f19601f82011682018060405250810190612a7b9190613eb8565b600480548582015486546001880154604051634026096160e01b81529596506001600160a01b0393841695634026096195612aca95948516948c94610100900481169316918a918a9101613fff565b600060405180830381600087803b158015612ae457600080fd5b505af1158015612af8573d6000803e3d6000fd5b5050845460035460405163a9059cbb60e01b81526101009092046001600160a01b03908116945063a9059cbb9350612b37929116908690600401614149565b602060405180830381600087803b158015612b5157600080fd5b505af1158015612b65573d6000803e3d6000fd5b505050506040513d601f19601f82011682018060405250810190612b899190613a77565b50600183015460035460405163a9059cbb60e01b81526001600160a01b039283169263a9059cbb92612bc2929116908590600401614149565b602060405180830381600087803b158015612bdc57600080fd5b505af1158015612bf0573d6000803e3d6000fd5b505050506040513d601f19601f82011682018060405250810190612c149190613a77565b506003548354600285015460405163192400d360e01b81526001600160a01b039384169363192400d393612c549361010090910490911691600401614149565b600060405180830381600087803b158015612c6e57600080fd5b505af1158015612c82573d6000803e3d6000fd5b50506003805460018701549187015460405163192400d360e01b81526001600160a01b03928316955063192400d39450612cc29390921691600401614149565b600060405180830381600087803b158015612cdc57600080fd5b505af1158015612cf0573d6000803e3d6000fd5b50506001805550505050505050565b600254815160208301516040808501519051630b4c774160e11b81526000948594859485946001600160a01b0390931693631698ee8293612d4493929160040161403b565b60206040518083038186803b158015612d5c57600080fd5b505afa158015612d70573d6000803e3d6000fd5b505050506040513d601f19601f82011682018060405250810190612d949190613998565b9350836001600160a01b0316630dfe16816040518163ffffffff1660e01b815260040160206040518083038186803b158015612dcf57600080fd5b505afa158015612de3573d6000803e3d6000fd5b505050506040513d601f19601f82011682018060405250810190612e079190613998565b6001600160a01b031685600001516001600160a01b0316148015612eb05750836001600160a01b031663d21220a76040518163ffffffff1660e01b815260040160206040518083038186803b158015612e5f57600080fd5b505afa158015612e73573d6000803e3d6000fd5b505050506040513d601f19601f82011682018060405250810190612e979190613998565b6001600160a01b031685602001516001600160a01b0316145b612ecc5760405162461bcd60e51b815260040161037390614373565b6000846001600160a01b0316633850c7bd6040518163ffffffff1660e01b815260040160e06040518083038186803b158015612f0757600080fd5b505afa158015612f1b573d6000803e3d6000fd5b505050506040513d601f19601f82011682018060405250810190612f3f9190613df0565b5050505050509050612f7481612f588860a001516133b3565b612f658960c001516133b3565b89606001518a608001516136e5565b91506000826001600160801b031611612f9f5760405162461bcd60e51b8152600401610373906144a0565b846001600160a01b0316633c8a7d8d308860a001518960c001518660405180608001604052808d600001516001600160a01b031681526020018d602001516001600160a01b031681526020018d6040015162ffffff168152602001336001600160a01b031681525060405160200161301791906144cb565b6040516020818303038152906040526040518663ffffffff1660e01b81526004016130469594939291906140a9565b6040805180830381600087803b15801561305f57600080fd5b505af1158015613073573d6000803e3d6000fd5b505050506040513d601f19601f820116820180604052508101906130979190613aaf565b959790965091935090915050565b604080516bffffffffffffffffffffffff19606086901b16602080830191909152600285810b60e890811b60348501529085900b901b60378301528251601a818403018152603a90920190925280519101205b9392505050565b600082820183811015613159576040805162461bcd60e51b815260206004820152601b60248201527f536166654d6174683a206164646974696f6e206f766572666c6f770000000000604482015290519081900360640190fd5b90505b92915050565b3390565b6000826131755750600061315c565b8282028284828161318257fe5b04146131595760405162461bcd60e51b81526004018080602001828103825260218152602001806147496021913960400191505060405180910390fd5b6000808211613215576040805162461bcd60e51b815260206004820152601a60248201527f536166654d6174683a206469766973696f6e206279207a65726f000000000000604482015290519081900360640190fd5b81838161321e57fe5b049392505050565b600080806000198587098686029250828110908390030390508061325c576000841161325157600080fd5b5082900490506130f8565b80841161326857600080fd5b6000848688096000868103871696879004966002600389028118808a02820302808a02820302808a02820302808a02820302808a02820302808a02909103029181900381900460010186841190950394909402919094039290920491909117919091029150509392505050565b80801561336357506004805460405163396c0f9760e21b815285926001600160a01b039092169163e5b03e5c916133109189918b9101613fe5565b60206040518083038186803b15801561332857600080fd5b505afa15801561333c573d6000803e3d6000fd5b505050506040513d601f19601f820116820180604052508101906133609190613eb8565b10155b61337f5760405162461bcd60e51b81526004016103739061444f565b600354604051636c665a5560e01b81526001600160a01b0390911690636c665a55906125f990889087908790600401614162565b60008060008360020b126133ca578260020b6133d2565b8260020b6000035b9050620d89e8811115613410576040805162461bcd60e51b81526020600482015260016024820152601560fa1b604482015290519081900360640190fd5b60006001821661342457600160801b613436565b6ffffcb933bd6fad37aa2d162d1a5940015b70ffffffffffffffffffffffffffffffffff169050600282161561346a576ffff97272373d413259a46990580e213a0260801c5b6004821615613489576ffff2e50f5f656932ef12357cf3c7fdcc0260801c5b60088216156134a8576fffe5caca7e10e4e61c3624eaa0941cd00260801c5b60108216156134c7576fffcb9843d60f6159c9db58835c9266440260801c5b60208216156134e6576fff973b41fa98c081472e6896dfb254c00260801c5b6040821615613505576fff2ea16466c96a3843ec78b326b528610260801c5b6080821615613524576ffe5dee046a99a2a811c461f1969c30530260801c5b610100821615613544576ffcbe86c7900a88aedcffc83b479aa3a40260801c5b610200821615613564576ff987a7253ac413176f2b074cf7815e540260801c5b610400821615613584576ff3392b0822b70005940c7a398e4b70f30260801c5b6108008216156135a4576fe7159475a2c29b7443b29c7fa6e889d90260801c5b6110008216156135c4576fd097f3bdfd2022b8845ad8f792aa58250260801c5b6120008216156135e4576fa9f746462d870fdf8a65dc1f90e061e50260801c5b614000821615613604576f70d869a156d2a1b890bb3df62baf32f70260801c5b618000821615613624576f31be135f97d08fd981231505542fcfa60260801c5b62010000821615613645576f09aa508b5b7a84e1c677de54f3e99bc90260801c5b62020000821615613665576e5d6af8dedb81196699c329225ee6040260801c5b62040000821615613684576d2216e584f5fa1ea926041bedfe980260801c5b620800008216156136a1576b048a170391f7dc42444e8fa20260801c5b60008460020b13156136bc5780600019816136b857fe5b0490505b6401000000008106156136d05760016136d3565b60005b60ff16602082901c0192505050919050565b6000836001600160a01b0316856001600160a01b03161115613705579293925b846001600160a01b0316866001600160a01b031611613730576137298585856137a9565b90506137a0565b836001600160a01b0316866001600160a01b031610156137925760006137578786866137a9565b9050600061376687898661380c565b9050806001600160801b0316826001600160801b0316106137875780613789565b815b925050506137a0565b61379d85858461380c565b90505b95945050505050565b6000826001600160a01b0316846001600160a01b031611156137c9579192915b60006137ec856001600160a01b0316856001600160a01b0316600160601b613226565b90506137a061380784838888036001600160a01b0316613226565b613851565b6000826001600160a01b0316846001600160a01b0316111561382c579192915b61384961380783600160601b8787036001600160a01b0316613226565b949350505050565b806001600160801b038116811461386757600080fd5b919050565b8035613867816146ed565b600082601f830112613887578081fd5b8151602061389c613897836146cf565b6146ab565b82815281810190858301838502870184018810156138b8578586fd5b855b858110156138d6578151845292840192908401906001016138ba565b5090979650505050505050565b803561386781614705565b60008083601f8401126138ff578182fd5b50813567ffffffffffffffff811115613916578182fd5b60208301915083602082850101111561392e57600080fd5b9250929050565b803561386781614713565b80516001600160801b038116811461386757600080fd5b805161ffff8116811461386757600080fd5b803562ffffff8116811461386757600080fd5b60006020828403121561398d578081fd5b8135613159816146ed565b6000602082840312156139a9578081fd5b8151613159816146ed565b600080604083850312156139c6578081fd5b825167ffffffffffffffff808211156139dd578283fd5b818501915085601f8301126139f0578283fd5b81516020613a00613897836146cf565b82815281810190858301838502870184018b1015613a1c578788fd5b8796505b84871015613a47578051613a33816146ed565b835260019690960195918301918301613a20565b5091880151919650909350505080821115613a60578283fd5b50613a6d85828601613877565b9150509250929050565b600060208284031215613a88578081fd5b815161315981614705565b600060208284031215613aa4578081fd5b813561315981614713565b60008060408385031215613ac1578182fd5b505080516020909101519092909150565b60008060008060608587031215613ae7578182fd5b8435935060208501359250604085013567ffffffffffffffff811115613b0b578283fd5b613b17878288016138ee565b95989497509550505050565b600060808284031215613b34578081fd5b6040516080810181811067ffffffffffffffff82111715613b5157fe5b6040528235613b5f816146ed565b81526020830135613b6f816146ed565b6020820152613b8060408401613969565b60408201526060830135613b93816146ed565b60608201529392505050565b600060e08284031215613bb0578081fd5b50919050565b600060e08284031215613bc7578081fd5b60405160e0810181811067ffffffffffffffff82111715613be457fe5b604052613bf08361386c565b8152613bfe6020840161386c565b6020820152613c0f60408401613969565b60408201526060830135606082015260808301356080820152613c3460a08401613935565b60a0820152613c4560c08401613935565b60c08201529392505050565b600060a08284031215613c62578081fd5b60405160a0810181811067ffffffffffffffff82111715613c7f57fe5b6040528235613c8d816146ed565b81526020830135613c9d816146ed565b6020820152613cae60408401613969565b60408201526060830135613cc1816146ed565b60608201526080830135613cd481614705565b60808201529392505050565b600060e08284031215613cf1578081fd5b60405160e0810181811067ffffffffffffffff82111715613d0e57fe5b604052613d1a8361386c565b8152613d286020840161386c565b6020820152613d3960408401613969565b6040820152606083013560608201526080830135608082015260a083013560a0820152613c4560c084016138e3565b60008060408385031215613d7a578182fd5b613d8383613940565b9150613d9160208401613940565b90509250929050565b600080600080600060a08688031215613db1578283fd5b613dba86613940565b94506020860151935060408601519250613dd660608701613940565b9150613de460808701613940565b90509295509295909350565b600080600080600080600060e0888a031215613e0a578485fd5b8751613e15816146ed565b6020890151909750613e2681614713565b9550613e3460408901613957565b9450613e4260608901613957565b9350613e5060808901613957565b925060a088015160ff81168114613e65578283fd5b60c0890151909250613e7681614705565b8091505092959891949750929550565b600060208284031215613e97578081fd5b6130f882613969565b600060208284031215613eb1578081fd5b5035919050565b600060208284031215613ec9578081fd5b5051919050565b60008082840360a0811215613ee3578283fd5b833592506080601f1982011215613ef8578182fd5b506040516080810181811067ffffffffffffffff82111715613f1657fe5b6040526020840135613f2781614713565b81526040840135613f3781614713565b60208201526060848101356040830152608090940135938101939093525092909150565b600080600060608486031215613f6f578081fd5b505081359360208301359350604090920135919050565b60008151808452815b81811015613fab57602081850181015186830182015201613f8f565b81811115613fbc5782602083870101525b50601f01601f19169290920160200192915050565b6001600160a01b0391909116815260200190565b6001600160a01b0392831681529116602082015260400190565b6001600160a01b0396871681529486166020860152928516604085015293166060830152600f92830b608083015290910b60a082015260c00190565b6001600160a01b03938416815291909216602082015262ffffff909116604082015260600190565b6001600160a01b0386811682528515156020830152604082018590528316606082015260a06080820181905260009061409e90830184613f86565b979650505050505050565b600060018060a01b03871682528560020b60208301528460020b60408301526001600160801b038416606083015260a0608083015261409e60a0830184613f86565b6001600160a01b03959095168552600293840b60208601529190920b60408401526001600160801b03918216606084015216608082015260a00190565b6001600160a01b039390931683526020830191909152604082015260600190565b6001600160a01b03929092168252602082015260400190565b6001600160a01b0393841681526020810192909252909116604082015260600190565b6080808252855190820181905260009060209060a0840190828901845b828110156141c75781516001600160a01b0316845292840192908401906001016141a2565b50505083810382850152865180825287830191830190845b818110156141fb578351835292840192918401916001016141df565b505060408501969096525050506060015292915050565b60006101c0820190508b1515825260018060a01b03808c166020840152808b16604084015262ffffff8a1660608401528860808401528760a084015280871660c0840152508460e083015283610100830152825160020b610120830152602083015160020b610140830152604083015161016083015260608301516101808301526001600160801b036080840151166101a08301529b9a5050505050505050505050565b90815260200190565b600293840b81529190920b60208201526001600160801b03909116604082015260600190565b918252602082015260400190565b6020808252601490820152734e4f5420434c4f534520504552494f44204e4f5760601b604082015260600190565b6020808252600990820152684e4f204348414e474560b81b604082015260600190565b602080825260159082015274494e56414c494420535741502043414c4c4241434b60581b604082015260600190565b60208082526005908201526427a92222a960d91b604082015260600190565b6020808252600990820152682327a92124a22222a760b91b604082015260600190565b602080825260159082015274494e56414c4944204d494e542043414c4c4241434b60581b604082015260600190565b6020808252600d908201526c414c524541445920434c4f534560981b604082015260600190565b6020808252600c908201526b27279021a7a6a6a4a9a4a7a760a11b604082015260600190565b6020808252600490820152630534c49560e41b604082015260600190565b6020808252600f908201526e4e4f20454e4f5547482051554f544160881b604082015260600190565b6020808252600e908201526d1253959053125108105353d5539560921b604082015260600190565b602080825260119082015270494e56414c4944204c495155494449545960781b604082015260600190565b81516001600160a01b03908116825260208084015182169083015260408084015162ffffff1690830152606092830151169181019190915260800190565b81516001600160a01b03908116825260208084015182169083015260408084015162ffffff16908301526060808401519091169082015260809182015115159181019190915260a00190565b6001600160801b0392831681529116602082015260400190565b6001600160b01b0391909116815260200190565b6001600160b01b039790971687526001600160a01b0395861660208801529385166040870152919093166060850152608084019290925260a08301919091526001600160801b031660c082015260e00190565b9283526001600160801b03918216602084015216604082015260600190565b92835260208301919091526001600160801b0316604082015260600190565b94855260208501939093526001600160801b039190911660408401526060830152608082015260a00190565b9283526020830191909152604082015260600190565b938452602084019290925260408301526001600160801b0316606082015260800190565b95865260208601949094526040850192909252606084015260808301526001600160801b031660a082015260c00190565b60405181810167ffffffffffffffff811182821017156146c757fe5b604052919050565b600067ffffffffffffffff8211156146e357fe5b5060209081020190565b6001600160a01b038116811461470257600080fd5b50565b801515811461470257600080fd5b8060020b811461470257600080fdfe4f776e61626c653a206e6577206f776e657220697320746865207a65726f2061646472657373536166654d6174683a206d756c7469706c69636174696f6e206f766572666c6f77a264697066735822122054418bfd9907b7ca693881cc76d374cd7b92ed53d06a4441b5c6f6fd52182ebd64736f6c63430007060033",
  "linkReferences": {},
  "deployedLinkReferences": {}
}