{
  "_format": "hh-sol-artifact-1",
  "contractName": "UniswapV3Strategy",
  "sourceName": "contracts/UniswapV3Strategy.sol",
  "abi": [
    {
      "inputs": [
        {
          "internalType": "contract IUniswapV3Factory",
          "name": "_factory",
          "type": "address"
        },
        {
          "internalType": "contract IMulWork",
          "name": "_work",
          "type": "address"
        },
        {
          "internalType": "contract IMulBank",
          "name": "_bank",
          "type": "address"
        },
        {
          "internalType": "address",
          "name": "_rewardAddr",
          "type": "address"
        }
      ],
      "stateMutability": "nonpayable",
      "type": "constructor"
    },
    {
      "anonymous": false,
      "inputs": [
        {
          "indexed": true,
          "internalType": "address",
          "name": "user",
          "type": "address"
        },
        {
          "indexed": false,
          "internalType": "uint256",
          "name": "positionId",
          "type": "uint256"
        },
        {
          "indexed": false,
          "internalType": "uint256",
          "name": "amount0",
          "type": "uint256"
        },
        {
          "indexed": false,
          "internalType": "uint256",
          "name": "amount1",
          "type": "uint256"
        },
        {
          "indexed": false,
          "internalType": "uint128",
          "name": "liquidity",
          "type": "uint128"
        }
      ],
      "name": "Add",
      "type": "event"
    },
    {
      "anonymous": false,
      "inputs": [
        {
          "indexed": true,
          "internalType": "address",
          "name": "user",
          "type": "address"
        },
        {
          "indexed": false,
          "internalType": "uint256",
          "name": "positionId",
          "type": "uint256"
        },
        {
          "indexed": false,
          "internalType": "uint256",
          "name": "amount0",
          "type": "uint256"
        },
        {
          "indexed": false,
          "internalType": "uint256",
          "name": "amount1",
          "type": "uint256"
        }
      ],
      "name": "Divest",
      "type": "event"
    },
    {
      "anonymous": false,
      "inputs": [
        {
          "indexed": true,
          "internalType": "address",
          "name": "user",
          "type": "address"
        },
        {
          "indexed": false,
          "internalType": "uint256",
          "name": "positionId",
          "type": "uint256"
        },
        {
          "indexed": false,
          "internalType": "address",
          "name": "pool",
          "type": "address"
        },
        {
          "indexed": false,
          "internalType": "address",
          "name": "token0",
          "type": "address"
        },
        {
          "indexed": false,
          "internalType": "address",
          "name": "token1",
          "type": "address"
        },
        {
          "indexed": false,
          "internalType": "uint256",
          "name": "invest0",
          "type": "uint256"
        },
        {
          "indexed": false,
          "internalType": "uint256",
          "name": "invest1",
          "type": "uint256"
        },
        {
          "indexed": false,
          "internalType": "uint128",
          "name": "liquidity",
          "type": "uint128"
        }
      ],
      "name": "Invest",
      "type": "event"
    },
    {
      "anonymous": false,
      "inputs": [
        {
          "indexed": true,
          "internalType": "address",
          "name": "previousOwner",
          "type": "address"
        },
        {
          "indexed": true,
          "internalType": "address",
          "name": "newOwner",
          "type": "address"
        }
      ],
      "name": "OwnershipTransferred",
      "type": "event"
    },
    {
      "anonymous": false,
      "inputs": [
        {
          "indexed": true,
          "internalType": "address",
          "name": "user",
          "type": "address"
        },
        {
          "indexed": false,
          "internalType": "uint256",
          "name": "positionId",
          "type": "uint256"
        },
        {
          "indexed": false,
          "internalType": "uint256",
          "name": "exit0",
          "type": "uint256"
        },
        {
          "indexed": false,
          "internalType": "uint256",
          "name": "exit1",
          "type": "uint256"
        },
        {
          "indexed": false,
          "internalType": "uint256",
          "name": "invest0",
          "type": "uint256"
        },
        {
          "indexed": false,
          "internalType": "uint256",
          "name": "invest1",
          "type": "uint256"
        },
        {
          "indexed": false,
          "internalType": "uint128",
          "name": "liquidity",
          "type": "uint128"
        }
      ],
      "name": "Switching",
      "type": "event"
    },
    {
      "inputs": [],
      "name": "_nextId",
      "outputs": [
        {
          "internalType": "uint176",
          "name": "",
          "type": "uint176"
        }
      ],
      "stateMutability": "view",
      "type": "function"
    },
    {
      "inputs": [
        {
          "internalType": "uint256",
          "name": "positionId",
          "type": "uint256"
        },
        {
          "internalType": "uint256",
          "name": "amount0Desired",
          "type": "uint256"
        },
        {
          "internalType": "uint256",
          "name": "amount1Desired",
          "type": "uint256"
        }
      ],
      "name": "add",
      "outputs": [
        {
          "internalType": "uint256",
          "name": "amount0",
          "type": "uint256"
        },
        {
          "internalType": "uint256",
          "name": "amount1",
          "type": "uint256"
        },
        {
          "internalType": "uint128",
          "name": "liquidity",
          "type": "uint128"
        }
      ],
      "stateMutability": "nonpayable",
      "type": "function"
    },
    {
      "inputs": [],
      "name": "bank",
      "outputs": [
        {
          "internalType": "contract IMulBank",
          "name": "",
          "type": "address"
        }
      ],
      "stateMutability": "view",
      "type": "function"
    },
    {
      "inputs": [
        {
          "internalType": "uint256",
          "name": "positionId",
          "type": "uint256"
        }
      ],
      "name": "collect",
      "outputs": [
        {
          "internalType": "uint128",
          "name": "fee0",
          "type": "uint128"
        },
        {
          "internalType": "uint128",
          "name": "fee1",
          "type": "uint128"
        }
      ],
      "stateMutability": "nonpayable",
      "type": "function"
    },
    {
      "inputs": [
        {
          "internalType": "uint256",
          "name": "positionId",
          "type": "uint256"
        }
      ],
      "name": "divest",
      "outputs": [
        {
          "internalType": "uint256",
          "name": "amount0",
          "type": "uint256"
        },
        {
          "internalType": "uint256",
          "name": "amount1",
          "type": "uint256"
        }
      ],
      "stateMutability": "nonpayable",
      "type": "function"
    },
    {
      "inputs": [],
      "name": "factory",
      "outputs": [
        {
          "internalType": "contract IUniswapV3Factory",
          "name": "",
          "type": "address"
        }
      ],
      "stateMutability": "view",
      "type": "function"
    },
    {
      "inputs": [
        {
          "components": [
            {
              "internalType": "address",
              "name": "token0",
              "type": "address"
            },
            {
              "internalType": "address",
              "name": "token1",
              "type": "address"
            },
            {
              "internalType": "uint24",
              "name": "fee",
              "type": "uint24"
            },
            {
              "internalType": "uint256",
              "name": "amount0Desired",
              "type": "uint256"
            },
            {
              "internalType": "uint256",
              "name": "amount1Desired",
              "type": "uint256"
            },
            {
              "internalType": "int24",
              "name": "tickLower",
              "type": "int24"
            },
            {
              "internalType": "int24",
              "name": "tickUpper",
              "type": "int24"
            }
          ],
          "internalType": "struct UniswapV3Strategy.MintParams",
          "name": "params",
          "type": "tuple"
        }
      ],
      "name": "invest",
      "outputs": [
        {
          "internalType": "uint256",
          "name": "amount0",
          "type": "uint256"
        },
        {
          "internalType": "uint256",
          "name": "amount1",
          "type": "uint256"
        },
        {
          "internalType": "uint128",
          "name": "liquidity",
          "type": "uint128"
        }
      ],
      "stateMutability": "nonpayable",
      "type": "function"
    },
    {
      "inputs": [],
      "name": "owner",
      "outputs": [
        {
          "internalType": "address",
          "name": "",
          "type": "address"
        }
      ],
      "stateMutability": "view",
      "type": "function"
    },
    {
      "inputs": [
        {
          "internalType": "uint256",
          "name": "",
          "type": "uint256"
        }
      ],
      "name": "positions",
      "outputs": [
        {
          "internalType": "bool",
          "name": "close",
          "type": "bool"
        },
        {
          "internalType": "address",
          "name": "token0",
          "type": "address"
        },
        {
          "internalType": "address",
          "name": "token1",
          "type": "address"
        },
        {
          "internalType": "uint24",
          "name": "fee",
          "type": "uint24"
        },
        {
          "internalType": "uint256",
          "name": "debt0",
          "type": "uint256"
        },
        {
          "internalType": "uint256",
          "name": "debt1",
          "type": "uint256"
        },
        {
          "internalType": "address",
          "name": "operator",
          "type": "address"
        },
        {
          "internalType": "uint256",
          "name": "exit0",
          "type": "uint256"
        },
        {
          "internalType": "uint256",
          "name": "exit1",
          "type": "uint256"
        },
        {
          "components": [
            {
              "internalType": "int24",
              "name": "tickLower",
              "type": "int24"
            },
            {
              "internalType": "int24",
              "name": "tickUpper",
              "type": "int24"
            },
            {
              "internalType": "uint256",
              "name": "feeGrowthInside0LastX128",
              "type": "uint256"
            },
            {
              "internalType": "uint256",
              "name": "feeGrowthInside1LastX128",
              "type": "uint256"
            },
            {
              "internalType": "uint128",
              "name": "liquidity",
              "type": "uint128"
            }
          ],
          "internalType": "struct UniswapV3Strategy.Tick",
          "name": "tick",
          "type": "tuple"
        }
      ],
      "stateMutability": "view",
      "type": "function"
    },
    {
      "inputs": [],
      "name": "renounceOwnership",
      "outputs": [],
      "stateMutability": "nonpayable",
      "type": "function"
    },
    {
      "inputs": [],
      "name": "rewardAddr",
      "outputs": [
        {
          "internalType": "address",
          "name": "",
          "type": "address"
        }
      ],
      "stateMutability": "view",
      "type": "function"
    },
    {
      "inputs": [
        {
          "components": [
            {
              "internalType": "address",
              "name": "token0",
              "type": "address"
            },
            {
              "internalType": "address",
              "name": "token1",
              "type": "address"
            },
            {
              "internalType": "uint24",
              "name": "fee",
              "type": "uint24"
            },
            {
              "internalType": "int256",
              "name": "amountSpecified",
              "type": "int256"
            },
            {
              "internalType": "int256",
              "name": "amountRequire",
              "type": "int256"
            },
            {
              "internalType": "bool",
              "name": "zeroOne",
              "type": "bool"
            }
          ],
          "internalType": "struct UniswapV3Strategy.SwapParams",
          "name": "params",
          "type": "tuple"
        }
      ],
      "name": "swap",
      "outputs": [
        {
          "internalType": "int256",
          "name": "amount0",
          "type": "int256"
        },
        {
          "internalType": "int256",
          "name": "amount1",
          "type": "int256"
        }
      ],
      "stateMutability": "nonpayable",
      "type": "function"
    },
    {
      "inputs": [
        {
          "internalType": "uint256",
          "name": "positionId",
          "type": "uint256"
        },
        {
          "components": [
            {
              "internalType": "int24",
              "name": "tickLower",
              "type": "int24"
            },
            {
              "internalType": "int24",
              "name": "tickUpper",
              "type": "int24"
            },
            {
              "internalType": "uint256",
              "name": "amount0Desired",
              "type": "uint256"
            },
            {
              "internalType": "uint256",
              "name": "amount1Desired",
              "type": "uint256"
            }
          ],
          "internalType": "struct UniswapV3Strategy.SwitchParams",
          "name": "params",
          "type": "tuple"
        }
      ],
      "name": "switching",
      "outputs": [
        {
          "internalType": "uint256",
          "name": "amount0",
          "type": "uint256"
        },
        {
          "internalType": "uint256",
          "name": "amount1",
          "type": "uint256"
        },
        {
          "internalType": "uint128",
          "name": "liquidity",
          "type": "uint128"
        },
        {
          "internalType": "uint256",
          "name": "exit0",
          "type": "uint256"
        },
        {
          "internalType": "uint256",
          "name": "exit1",
          "type": "uint256"
        }
      ],
      "stateMutability": "nonpayable",
      "type": "function"
    },
    {
      "inputs": [
        {
          "internalType": "address",
          "name": "newOwner",
          "type": "address"
        }
      ],
      "name": "transferOwnership",
      "outputs": [],
      "stateMutability": "nonpayable",
      "type": "function"
    },
    {
      "inputs": [
        {
          "internalType": "uint256",
          "name": "amount0Owed",
          "type": "uint256"
        },
        {
          "internalType": "uint256",
          "name": "amount1Owed",
          "type": "uint256"
        },
        {
          "internalType": "bytes",
          "name": "data",
          "type": "bytes"
        }
      ],
      "name": "uniswapV3MintCallback",
      "outputs": [],
      "stateMutability": "nonpayable",
      "type": "function"
    },
    {
      "inputs": [
        {
          "internalType": "int256",
          "name": "amount0Delta",
          "type": "int256"
        },
        {
          "internalType": "int256",
          "name": "amount1Delta",
          "type": "int256"
        },
        {
          "internalType": "bytes",
          "name": "_data",
          "type": "bytes"
        }
      ],
      "name": "uniswapV3SwapCallback",
      "outputs": [],
      "stateMutability": "nonpayable",
      "type": "function"
    },
    {
      "inputs": [],
      "name": "work",
      "outputs": [
        {
          "internalType": "contract IMulWork",
          "name": "",
          "type": "address"
        }
      ],
      "stateMutability": "view",
      "type": "function"
    }
  ],
  "bytecode": "0x6080604052600580546001600160b01b03191690553480156200002157600080fd5b5060405162003d4238038062003d428339810160408190526200004491620001a3565b6000620000506200019f565b600080546001600160a01b0319166001600160a01b0383169081178255604051929350917f8be0079c531659141344cd1fd0a4f28419497f9722a3daafe3b4186f6b6457e0908290a350600180556001600160a01b038416620000d05760405162461bcd60e51b8152600401620000c7906200020a565b60405180910390fd5b6001600160a01b038316620000f95760405162461bcd60e51b8152600401620000c7906200020a565b6001600160a01b038216620001225760405162461bcd60e51b8152600401620000c7906200020a565b6001600160a01b0381166200014b5760405162461bcd60e51b8152600401620000c7906200020a565b600280546001600160a01b039586166001600160a01b03199182161790915560048054948616948216949094179093556003805492851692841692909217909155600680549190931691161790556200024c565b3390565b60008060008060808587031215620001b9578384fd5b8451620001c68162000233565b6020860151909450620001d98162000233565b6040860151909350620001ec8162000233565b6060860151909250620001ff8162000233565b939692955090935050565b6020808252600f908201526e494e56414c49445f4144445245535360881b604082015260600190565b6001600160a01b03811681146200024957600080fd5b50565b613ae6806200025c6000396000f3fe608060405234801561001057600080fd5b506004361061010b5760003560e01c80639461f680116100a2578063d348799711610071578063d34879971461021c578063e34814751461022f578063f2f2fff514610242578063f2fde38b14610257578063fa461e331461026a5761010b565b80639461f680146101b757806399fbab88146101ca578063c45a0155146101f3578063ce3f865f146101fb5761010b565b8063715018a6116100de578063715018a61461017c57806376cdb03b146101865780638ca179951461018e5780638da5cb5b146101af5761010b565b8063322e9f041461011057806334f4e8e11461012e578063505fb46c146101525780637015e95e14610174575b600080fd5b61011861027d565b6040516101259190613555565b60405180910390f35b61014161013c366004613442565b61028c565b6040516101259594939291906139be565b6101656101603660046134df565b610896565b6040516101259392919061399f565b610118610b3e565b610184610b4d565b005b610118610c0b565b6101a161019c366004613412565b610c1a565b6040516101259291906137bb565b610118611007565b6101656101c5366004613109565b611016565b6101dd6101d8366004613412565b6113d0565b6040516101259a999897969594939291906136e8565b6101186114a1565b61020e610209366004613412565b6114b0565b60405161012592919061391e565b61018461022a36600461303c565b611a2d565b6101a161023d36600461324a565b611bb6565b61024a611db2565b6040516101259190613938565b610184610265366004612fa9565b611dc1565b61018461027836600461303c565b611ed5565b6004546001600160a01b031681565b6000806000806000866000600782815481106102a457fe5b60009182526020918290206040805161014081018252600b909302909101805460ff8116151584526001600160a01b036101009182900481168587015260018301548082168686015262ffffff600160a01b90910416606080870191909152600280850154608080890191909152600386015460a0808a01919091526004870154851660c08a01908152600588015460e08b01526006880154968a019690965287519081018852600787015480840b840b840b825263010000009004830b830b90920b98820198909852600885015495810195909552600984015490850152600a909201546001600160801b03169483019490945261012083019190915291519092503391161480156103b657508051155b80156103d457506000816101200151608001516001600160801b0316115b6103f95760405162461bcd60e51b81526004016103f09061383a565b60405180910390fd5b600060078a8154811061040857fe5b90600052602060002090600b0201905060008160070190506104298b6114b0565b505080548a51600291820b820b910b14158061045b5750805460208b0151600290810b6301000000909204810b900b14155b6104775760405162461bcd60e51b81526004016103f0906137c9565b60025482546001840154604051630b4c774160e11b81526000936001600160a01b0390811693631698ee82936104c993610100909204831692811691600160a01b90910462ffffff16906004016135bf565b60206040518083038186803b1580156104e157600080fd5b505afa1580156104f5573d6000803e3d6000fd5b505050506040513d601f19601f820116820180604052508101906105199190612fc5565b8254600384015460405163a34123a760e01b81529293506001600160a01b0384169263a34123a79261056a92600282810b936301000000909304900b916001600160801b0390911690600401613795565b6040805180830381600087803b15801561058357600080fd5b505af1158015610597573d6000803e3d6000fd5b505050506040513d601f19601f820116820180604052508101906105bb91906134cd565b83546040516309e3d67b60e31b81529299509097506001600160a01b03831691634f1eb3d891610604913091600281810b926301000000909204900b908d908d9060040161366f565b6040805180830381600087803b15801561061d57600080fd5b505af1158015610631573d6000803e3d6000fd5b505050506040513d601f19601f8201168201806040525081019061065591906132da565b50506106638c82898961205a565b6040805160e081018252845461010090046001600160a01b0390811682526001860154908116602080840191909152600160a01b90910462ffffff1682840152918d01516060808301919091528d015160808201528c51600290810b60a0830152918d015190910b60c08201526106d99061246c565b809b50819c50829d50839450505050508a600001518260000160006101000a81548162ffffff021916908360020b62ffffff1602179055508a602001518260000160036101000a81548162ffffff021916908360020b62ffffff160217905550898360020181905550888360030181905550878260030160006101000a8154816001600160801b0302191690836001600160801b03160217905550806001600160a01b031663514ea4bf6107b0308560000160009054906101000a900460020b8660000160039054906101000a900460020b612812565b6040518263ffffffff1660e01b81526004016107cc919061378c565b60a06040518083038186803b1580156107e457600080fd5b505afa1580156107f8573d6000803e3d6000fd5b505050506040513d601f19601f8201168201806040525081019061081c919061330c565b9091929350905050836001016000856002016000849190505583919050555050336001600160a01b03167fac5f524e27716331e4a51cc66fa8c5214162347ac93bb8180289a25ebd9d5a688d89898e8e8e60405161087f96959493929190613a24565b60405180910390a250505050509295509295909350565b6000806000856000600782815481106108ab57fe5b60009182526020918290206040805161014081018252600b909302909101805460ff8116151584526001600160a01b036101009182900481168587015260018301548082168686015262ffffff600160a01b90910416606080870191909152600280850154608080890191909152600386015460a0808a01919091526004870154851660c08a01908152600588015460e08b01526006880154968a019690965287519081018852600787015480840b840b840b825263010000009004830b830b90920b98820198909852600885015495810195909552600984015490850152600a909201546001600160801b03169483019490945261012083019190915291519092503391161480156109bd57508051155b80156109db57506000816101200151608001516001600160801b0316115b6109f75760405162461bcd60e51b81526004016103f09061383a565b600060078981548110610a0657fe5b600091825260208083206040805160e081018252600b94909402909101805461010090046001600160a01b039081168552600182015490811693850193909352600160a01b90920462ffffff1690830152606082018b9052608082018a90526007810154600281810b810b60a08501526301000000909104810b900b60c08301529250610a929061246c565b919950975095509050610aa48a6114b0565b5050600a820180546001600160801b038082168801166001600160801b03199091161790556002820154610ad8908861286c565b60028301556003820154610aec908761286c565b600383015560405133907f4e26bf96a4004dbd9e7a6bf889ebc8fbb0b98057476634c8a62ce133ed35ec3a90610b29908d908b908b908b90613a00565b60405180910390a25050505093509350939050565b6006546001600160a01b031681565b610b556128c6565b6001600160a01b0316610b66611007565b6001600160a01b031614610bc1576040805162461bcd60e51b815260206004820181905260248201527f4f776e61626c653a2063616c6c6572206973206e6f7420746865206f776e6572604482015290519081900360640190fd5b600080546040516001600160a01b03909116907f8be0079c531659141344cd1fd0a4f28419497f9722a3daafe3b4186f6b6457e0908390a3600080546001600160a01b0319169055565b6003546001600160a01b031681565b60008082600060078281548110610c2d57fe5b60009182526020918290206040805161014081018252600b909302909101805460ff8116151584526001600160a01b036101009182900481168587015260018301548082168686015262ffffff600160a01b90910416606080870191909152600280850154608080890191909152600386015460a0808a01919091526004870154851660c08a01908152600588015460e08b01526006880154968a019690965287519081018852600787015480840b840b840b825263010000009004830b830b90920b98820198909852600885015495810195909552600984015490850152600a909201546001600160801b0316948301949094526101208301919091529151909250339116148015610d3f57508051155b8015610d5d57506000816101200151608001516001600160801b0316115b610d795760405162461bcd60e51b81526004016103f09061383a565b600060078681548110610d8857fe5b90600052602060002090600b02019050610da1866114b0565b505060025481546001830154604051630b4c774160e11b81526000936001600160a01b0390811693631698ee8293610df593610100909204831692811691600160a01b90910462ffffff16906004016135bf565b60206040518083038186803b158015610e0d57600080fd5b505afa158015610e21573d6000803e3d6000fd5b505050506040513d601f19601f82011682018060405250810190610e459190612fc5565b6007830154600a84015460405163a34123a760e01b81529293506001600160a01b0384169263a34123a792610e9992600282810b936301000000909304900b916001600160801b0390911690600401613795565b6040805180830381600087803b158015610eb257600080fd5b505af1158015610ec6573d6000803e3d6000fd5b505050506040513d601f19601f82011682018060405250810190610eea91906134cd565b60078401546040516309e3d67b60e31b81529298509096506001600160a01b03831691634f1eb3d891610f36913091600281810b926301000000909204900b908c908c9060040161366f565b6040805180830381600087803b158015610f4f57600080fd5b505af1158015610f63573d6000803e3d6000fd5b505050506040513d601f19601f82011682018060405250810190610f8791906132da565b5050610f958782888861205a565b600a820180546001600160801b03191690556005820186905560068201859055815460ff1916600117825560405133907f51527f281a5cab89f6d95e0051766e4abe2f4390765a23b856ae420c28f1414c90610ff6908a908a908a906139ea565b60405180910390a250505050915091565b6000546001600160a01b031690565b600080808061103261102d36879003870187613120565b61246c565b91965094509250905060006110663061105160c0890160a08a01612ffd565b61106160e08a0160c08b01612ffd565b612812565b9050600080836001600160a01b031663514ea4bf846040518263ffffffff1660e01b8152600401611097919061378c565b60a06040518083038186803b1580156110af57600080fd5b505afa1580156110c3573d6000803e3d6000fd5b505050506040513d601f19601f820116820180604052508101906110e7919061330c565b5050925092505060006040518060a001604052808a60a001602081019061110e9190612ffd565b60020b815260200161112660e08c0160c08d01612ffd565b60020b8152602001848152602001838152602001876001600160801b0316815250905060076040518061014001604052806000151581526020018b60000160208101906111739190612fa9565b6001600160a01b031681526020018b60200160208101906111949190612fa9565b6001600160a01b031681526020016111b260608d0160408e016133f8565b62ffffff908116825260208083018d905260408084018d90523360608086018290526000608080880182905260a080890183905260c09889018c90528a5460018082018d559b8452928790208a51600b9094020180548b89015160ff1990911694151594909417610100600160a81b0319166101006001600160a01b0395861681029190911782558b8801519c820180548d8801516001600160a01b03199182169f88169f909f1762ffffff60a01b1916600160a01b9f8d169f909f029e909e1790558b840151600280840191909155928c01516003830155998b0151600482018054909d16941693909317909a5560e08901516005808401919091559789015160068301556101209098015180516007830180548389015162ffffff19909116928d0b8a169290921765ffffff0000001916630100000092909c0b90981602999099179095559187015160088501559086015160098401559490930151600a90910180546001600160801b0319166001600160801b03909216919091179055547f277685e2349c727f8c026893d1d41063f1e92d4092c5d38613f40eac70f3c6f2916001600160b01b0390911690889061136f908e018e612fa9565b8d60200160208101906113829190612fa9565b8d8d8d604051611398979695949392919061394c565b60405180910390a25050600580546001600160b01b03808216600101166001600160b01b031990911617905550939592945090925050565b600781815481106113e057600080fd5b6000918252602091829020600b91909102018054600182015460028084015460038501546004860154600587015460068801546040805160a08101825260078b015480890b890b890b825263010000009004880b880b90970b9a87019a909a5260088901549986019990995260098801546060860152600a909701546001600160801b0316608085015260ff861698506101009095046001600160a01b039081169781861697600160a01b90960462ffffff1696939592949190931692908a565b6002546001600160a01b031681565b6000806002600154141561150b576040805162461bcd60e51b815260206004820152601f60248201527f5265656e7472616e637947756172643a207265656e7472616e742063616c6c00604482015290519081900360640190fd5b60026001819055508260006007828154811061152357fe5b60009182526020918290206040805161014081018252600b909302909101805460ff8116151584526001600160a01b036101009182900481168587015260018301548082168686015262ffffff600160a01b90910416606080870191909152600280850154608080890191909152600386015460a0808a01919091526004870154851660c08a01908152600588015460e08b01526006880154968a019690965287519081018852600787015480840b840b840b825263010000009004830b830b90920b98820198909852600885015495810195909552600984015490850152600a909201546001600160801b031694830194909452610120830191909152915190925033911614801561163557508051155b801561165357506000816101200151608001516001600160801b0316115b61166f5760405162461bcd60e51b81526004016103f09061383a565b60006007868154811061167e57fe5b600091825260208220600254600b929092020180546001820154604051630b4c774160e11b81529295506007860194936001600160a01b0390811693631698ee82936116e693610100909104831692811691600160a01b90910462ffffff16906004016135bf565b60206040518083038186803b1580156116fe57600080fd5b505afa158015611712573d6000803e3d6000fd5b505050506040513d601f19601f820116820180604052508101906117369190612fc5565b825460405163a34123a760e01b81529192506001600160a01b0383169163a34123a79161177891600282810b9263010000009004900b90600090600401613795565b6040805180830381600087803b15801561179157600080fd5b505af11580156117a5573d6000803e3d6000fd5b505050506040513d601f19601f820116820180604052508101906117c991906134cd565b5050815460009081906001600160a01b0384169063514ea4bf906117fd903090600281810b9163010000009004900b612812565b6040518263ffffffff1660e01b8152600401611819919061378c565b60a06040518083038186803b15801561183157600080fd5b505afa158015611845573d6000803e3d6000fd5b505050506040513d601f19601f82011682018060405250810190611869919061330c565b50506001870154600388015492955090935061189692508403906001600160801b0316600160801b6128ca565b60028501546003860154919a506118be91908303906001600160801b0316600160801b6128ca565b84546040516309e3d67b60e31b81529199506001600160a01b03851691634f1eb3d891611904913091600281810b926301000000909204900b908f908f9060040161366f565b6040805180830381600087803b15801561191d57600080fd5b505af1158015611931573d6000803e3d6000fd5b505050506040513d601f19601f8201168201806040525081019061195591906132da565b809950819a505050818460010181905550808460020181905550600460009054906101000a90046001600160a01b03166001600160a01b0316634026096133858860000160019054906101000a90046001600160a01b03168960010160009054906101000a90046001600160a01b03168e8e6040518763ffffffff1660e01b81526004016119e896959493929190613583565b600060405180830381600087803b158015611a0257600080fd5b505af1158015611a16573d6000803e3d6000fd5b505050505050505050505060018081905550915091565b6000611a3b8284018461308d565b600254815160208301516040808501519051630b4c774160e11b81529495506001600160a01b0390931693631698ee8293611a7a9392916004016135bf565b60206040518083038186803b158015611a9257600080fd5b505afa158015611aa6573d6000803e3d6000fd5b505050506040513d601f19601f82011682018060405250810190611aca9190612fc5565b6001600160a01b0316336001600160a01b031614611afa5760405162461bcd60e51b81526004016103f09061385d565b8415611b1657611b168160000151826060015187336001612979565b8315611b3257611b328160200151826060015186336001612979565b60048054606083015183516020850151604051634026096160e01b81526001600160a01b0390941694634026096194611b7d949333939092909160008e810392908e90039101613583565b600060405180830381600087803b158015611b9757600080fd5b505af1158015611bab573d6000803e3d6000fd5b505050505050505050565b600254815160208301516040808501519051630b4c774160e11b8152600094859485946001600160a01b0390921693631698ee8293611bf99391906004016135bf565b60206040518083038186803b158015611c1157600080fd5b505afa158015611c25573d6000803e3d6000fd5b505050506040513d601f19601f82011682018060405250810190611c499190612fc5565b60048054604051633111fc1760e11b815292935060009283926001600160a01b0390921691636223f82e91611c82913391889101613569565b604080518083038186803b158015611c9957600080fd5b505afa158015611cad573d6000803e3d6000fd5b505050506040513d601f19601f82011682018060405250810190611cd19190613019565b91509150826001600160a01b031663128acb08308860a00151896060015160008067ffffffffffffffff81118015611d0857600080fd5b506040519080825280601f01601f191660200182016040528015611d33576020820181803683370190505b506040518663ffffffff1660e01b8152600401611d549594939291906135e7565b6040805180830381600087803b158015611d6d57600080fd5b505af1158015611d81573d6000803e3d6000fd5b505050506040513d601f19601f82011682018060405250810190611da59190613019565b9097909650945050505050565b6005546001600160b01b031681565b611dc96128c6565b6001600160a01b0316611dda611007565b6001600160a01b031614611e35576040805162461bcd60e51b815260206004820181905260248201527f4f776e61626c653a2063616c6c6572206973206e6f7420746865206f776e6572604482015290519081900360640190fd5b6001600160a01b038116611e7a5760405162461bcd60e51b8152600401808060200182810382526026815260200180613a8b6026913960400191505060405180910390fd5b600080546040516001600160a01b03808516939216917f8be0079c531659141344cd1fd0a4f28419497f9722a3daafe3b4186f6b6457e091a3600080546001600160a01b0319166001600160a01b0392909216919091179055565b6000841380611ee45750600083135b611eed57600080fd5b6000611efb828401846131bb565b600254815160208301516040808501519051630b4c774160e11b81529495506001600160a01b0390931693631698ee8293611f3a9392916004016135bf565b60206040518083038186803b158015611f5257600080fd5b505afa158015611f66573d6000803e3d6000fd5b505050506040513d601f19601f82011682018060405250810190611f8a9190612fc5565b6001600160a01b0316336001600160a01b031614611fba5760405162461bcd60e51b81526004016103f0906137ec565b6000851315611fdc57611fdc8160000151826060015187338560800151612979565b6000841315611ffe57611ffe8160200151826060015186338560800151612979565b8060800151156120535760048054606083015183516020850151604051634026096160e01b81526001600160a01b0390941694634026096194611b7d949333939092909160008e810392908e90039101613583565b5050505050565b600260015414156120b2576040805162461bcd60e51b815260206004820152601f60248201527f5265656e7472616e637947756172643a207265656e7472616e742063616c6c00604482015290519081900360640190fd5b60026001819055506000600785815481106120c957fe5b600091825260208220600b9091020180546040516370a0823160e01b81529193506001600160a01b0361010090910416906370a082319061210e903090600401613555565b60206040518083038186803b15801561212657600080fd5b505afa15801561213a573d6000803e3d6000fd5b505050506040513d601f19601f8201168201806040525081019061215e919061342a565b60018301546040516370a0823160e01b81529192506000916001600160a01b03909116906370a0823190612196903090600401613555565b60206040518083038186803b1580156121ae57600080fd5b505afa1580156121c2573d6000803e3d6000fd5b505050506040513d601f19601f820116820180604052508101906121e6919061342a565b600480548582015486546001880154604051634026096160e01b81529596506001600160a01b039384169563402609619561223595948516948e94610100900481169316918a918a9101613583565b600060405180830381600087803b15801561224f57600080fd5b505af1158015612263573d6000803e3d6000fd5b5050845460035460405163a9059cbb60e01b81526101009092046001600160a01b03908116945063a9059cbb93506122a29291169086906004016136ac565b602060405180830381600087803b1580156122bc57600080fd5b505af11580156122d0573d6000803e3d6000fd5b505050506040513d601f19601f820116820180604052508101906122f49190612fe1565b50600183015460035460405163a9059cbb60e01b81526001600160a01b039283169263a9059cbb9261232d9291169085906004016136ac565b602060405180830381600087803b15801561234757600080fd5b505af115801561235b573d6000803e3d6000fd5b505050506040513d601f19601f8201168201806040525081019061237f9190612fe1565b506003548354600285015460405163192400d360e01b81526001600160a01b039384169363192400d3936123bf93610100909104909116916004016136ac565b600060405180830381600087803b1580156123d957600080fd5b505af11580156123ed573d6000803e3d6000fd5b50506003805460018701549187015460405163192400d360e01b81526001600160a01b03928316955063192400d3945061242d93909216916004016136ac565b600060405180830381600087803b15801561244757600080fd5b505af115801561245b573d6000803e3d6000fd5b505060018055505050505050505050565b600254815160208301516040808501519051630b4c774160e11b81526000948594859485946001600160a01b0390931693631698ee82936124b19392916004016135bf565b60206040518083038186803b1580156124c957600080fd5b505afa1580156124dd573d6000803e3d6000fd5b505050506040513d601f19601f820116820180604052508101906125019190612fc5565b9350836001600160a01b0316630dfe16816040518163ffffffff1660e01b815260040160206040518083038186803b15801561253c57600080fd5b505afa158015612550573d6000803e3d6000fd5b505050506040513d601f19601f820116820180604052508101906125749190612fc5565b6001600160a01b031685600001516001600160a01b031614801561261d5750836001600160a01b031663d21220a76040518163ffffffff1660e01b815260040160206040518083038186803b1580156125cc57600080fd5b505afa1580156125e0573d6000803e3d6000fd5b505050506040513d601f19601f820116820180604052508101906126049190612fc5565b6001600160a01b031685602001516001600160a01b0316145b6126395760405162461bcd60e51b81526004016103f09061381b565b6000846001600160a01b0316633850c7bd6040518163ffffffff1660e01b815260040160e06040518083038186803b15801561267457600080fd5b505afa158015612688573d6000803e3d6000fd5b505050506040513d601f19601f820116820180604052508101906126ac9190613362565b50505050505090506126e1816126c58860a00151612a57565b6126d28960c00151612a57565b89606001518a60800151612d89565b91506000826001600160801b03161161270c5760405162461bcd60e51b81526004016103f0906138b5565b846001600160a01b0316633c8a7d8d308860a001518960c001518660405180608001604052808d600001516001600160a01b031681526020018d602001516001600160a01b031681526020018d6040015162ffffff168152602001336001600160a01b031681525060405160200161278491906138e0565b6040516020818303038152906040526040518663ffffffff1660e01b81526004016127b395949392919061362d565b6040805180830381600087803b1580156127cc57600080fd5b505af11580156127e0573d6000803e3d6000fd5b505050506040513d601f19601f8201168201806040525081019061280491906134cd565b959790965091935090915050565b604080516bffffffffffffffffffffffff19606086901b16602080830191909152600285810b60e890811b60348501529085900b901b60378301528251601a818403018152603a90920190925280519101205b9392505050565b600082820183811015612865576040805162461bcd60e51b815260206004820152601b60248201527f536166654d6174683a206164646974696f6e206f766572666c6f770000000000604482015290519081900360640190fd5b3390565b600080806000198587098686029250828110908390030390508061290057600084116128f557600080fd5b508290049050612865565b80841161290c57600080fd5b6000848688096000868103871696879004966002600389028118808a02820302808a02820302808a02820302808a02820302808a02820302808a02909103029181900381900460010186841190950394909402919094039290920491909117919091029150509392505050565b808015612a0757506004805460405163396c0f9760e21b815285926001600160a01b039092169163e5b03e5c916129b49189918b9101613569565b60206040518083038186803b1580156129cc57600080fd5b505afa1580156129e0573d6000803e3d6000fd5b505050506040513d601f19601f82011682018060405250810190612a04919061342a565b10155b612a235760405162461bcd60e51b81526004016103f09061388c565b600354604051636c665a5560e01b81526001600160a01b0390911690636c665a5590611b7d908890879087906004016136c5565b60008060008360020b12612a6e578260020b612a76565b8260020b6000035b9050620d89e8811115612ab4576040805162461bcd60e51b81526020600482015260016024820152601560fa1b604482015290519081900360640190fd5b600060018216612ac857600160801b612ada565b6ffffcb933bd6fad37aa2d162d1a5940015b70ffffffffffffffffffffffffffffffffff1690506002821615612b0e576ffff97272373d413259a46990580e213a0260801c5b6004821615612b2d576ffff2e50f5f656932ef12357cf3c7fdcc0260801c5b6008821615612b4c576fffe5caca7e10e4e61c3624eaa0941cd00260801c5b6010821615612b6b576fffcb9843d60f6159c9db58835c9266440260801c5b6020821615612b8a576fff973b41fa98c081472e6896dfb254c00260801c5b6040821615612ba9576fff2ea16466c96a3843ec78b326b528610260801c5b6080821615612bc8576ffe5dee046a99a2a811c461f1969c30530260801c5b610100821615612be8576ffcbe86c7900a88aedcffc83b479aa3a40260801c5b610200821615612c08576ff987a7253ac413176f2b074cf7815e540260801c5b610400821615612c28576ff3392b0822b70005940c7a398e4b70f30260801c5b610800821615612c48576fe7159475a2c29b7443b29c7fa6e889d90260801c5b611000821615612c68576fd097f3bdfd2022b8845ad8f792aa58250260801c5b612000821615612c88576fa9f746462d870fdf8a65dc1f90e061e50260801c5b614000821615612ca8576f70d869a156d2a1b890bb3df62baf32f70260801c5b618000821615612cc8576f31be135f97d08fd981231505542fcfa60260801c5b62010000821615612ce9576f09aa508b5b7a84e1c677de54f3e99bc90260801c5b62020000821615612d09576e5d6af8dedb81196699c329225ee6040260801c5b62040000821615612d28576d2216e584f5fa1ea926041bedfe980260801c5b62080000821615612d45576b048a170391f7dc42444e8fa20260801c5b60008460020b1315612d60578060001981612d5c57fe5b0490505b640100000000810615612d74576001612d77565b60005b60ff16602082901c0192505050919050565b6000836001600160a01b0316856001600160a01b03161115612da9579293925b846001600160a01b0316866001600160a01b031611612dd457612dcd858585612e4d565b9050612e44565b836001600160a01b0316866001600160a01b03161015612e36576000612dfb878686612e4d565b90506000612e0a878986612eb0565b9050806001600160801b0316826001600160801b031610612e2b5780612e2d565b815b92505050612e44565b612e41858584612eb0565b90505b95945050505050565b6000826001600160a01b0316846001600160a01b03161115612e6d579192915b6000612e90856001600160a01b0316856001600160a01b0316600160601b6128ca565b9050612e44612eab84838888036001600160a01b03166128ca565b612ef5565b6000826001600160a01b0316846001600160a01b03161115612ed0579192915b612eed612eab83600160601b8787036001600160a01b03166128ca565b949350505050565b806001600160801b0381168114612f0b57600080fd5b919050565b8035612f0b81613a55565b60008083601f840112612f2c578182fd5b50813567ffffffffffffffff811115612f43578182fd5b602083019150836020828501011115612f5b57600080fd5b9250929050565b8035612f0b81613a7b565b80516001600160801b0381168114612f0b57600080fd5b805161ffff81168114612f0b57600080fd5b803562ffffff81168114612f0b57600080fd5b600060208284031215612fba578081fd5b813561286581613a55565b600060208284031215612fd6578081fd5b815161286581613a55565b600060208284031215612ff2578081fd5b815161286581613a6d565b60006020828403121561300e578081fd5b813561286581613a7b565b6000806040838503121561302b578081fd5b505080516020909101519092909150565b60008060008060608587031215613051578182fd5b8435935060208501359250604085013567ffffffffffffffff811115613075578283fd5b61308187828801612f1b565b95989497509550505050565b60006080828403121561309e578081fd5b6040516080810181811067ffffffffffffffff821117156130bb57fe5b60405282356130c981613a55565b815260208301356130d981613a55565b60208201526130ea60408401612f96565b604082015260608301356130fd81613a55565b60608201529392505050565b600060e0828403121561311a578081fd5b50919050565b600060e08284031215613131578081fd5b60405160e0810181811067ffffffffffffffff8211171561314e57fe5b60405261315a83612f10565b815261316860208401612f10565b602082015261317960408401612f96565b6040820152606083013560608201526080830135608082015261319e60a08401612f62565b60a08201526131af60c08401612f62565b60c08201529392505050565b600060a082840312156131cc578081fd5b60405160a0810181811067ffffffffffffffff821117156131e957fe5b60405282356131f781613a55565b8152602083013561320781613a55565b602082015261321860408401612f96565b6040820152606083013561322b81613a55565b6060820152608083013561323e81613a6d565b60808201529392505050565b600060c0828403121561325b578081fd5b60405160c0810181811067ffffffffffffffff8211171561327857fe5b604052823561328681613a55565b8152602083013561329681613a55565b60208201526132a760408401612f96565b6040820152606083013560608201526080830135608082015260a08301356132ce81613a6d565b60a08201529392505050565b600080604083850312156132ec578182fd5b6132f583612f6d565b915061330360208401612f6d565b90509250929050565b600080600080600060a08688031215613323578283fd5b61332c86612f6d565b9450602086015193506040860151925061334860608701612f6d565b915061335660808701612f6d565b90509295509295909350565b600080600080600080600060e0888a03121561337c578485fd5b875161338781613a55565b602089015190975061339881613a7b565b95506133a660408901612f84565b94506133b460608901612f84565b93506133c260808901612f84565b925060a088015160ff811681146133d7578283fd5b60c08901519092506133e881613a6d565b8091505092959891949750929550565b600060208284031215613409578081fd5b61286582612f96565b600060208284031215613423578081fd5b5035919050565b60006020828403121561343b578081fd5b5051919050565b60008082840360a0811215613455578283fd5b833592506080601f198201121561346a578182fd5b506040516080810181811067ffffffffffffffff8211171561348857fe5b604052602084013561349981613a7b565b815260408401356134a981613a7b565b60208201526060848101356040830152608090940135938101939093525092909150565b6000806040838503121561302b578182fd5b6000806000606084860312156134f3578081fd5b505081359360208301359350604090920135919050565b60008151808452815b8181101561352f57602081850181015186830182015201613513565b818111156135405782602083870101525b50601f01601f19169290920160200192915050565b6001600160a01b0391909116815260200190565b6001600160a01b0392831681529116602082015260400190565b6001600160a01b0396871681529486166020860152928516604085015293166060830152600f92830b608083015290910b60a082015260c00190565b6001600160a01b03938416815291909216602082015262ffffff909116604082015260600190565b6001600160a01b0386811682528515156020830152604082018590528316606082015260a0608082018190526000906136229083018461350a565b979650505050505050565b600060018060a01b03871682528560020b60208301528460020b60408301526001600160801b038416606083015260a0608083015261362260a083018461350a565b6001600160a01b03959095168552600293840b60208601529190920b60408401526001600160801b03918216606084015216608082015260a00190565b6001600160a01b03929092168252602082015260400190565b6001600160a01b0393841681526020810192909252909116604082015260600190565b60006101c0820190508b1515825260018060a01b03808c166020840152808b16604084015262ffffff8a1660608401528860808401528760a084015280871660c0840152508460e083015283610100830152825160020b610120830152602083015160020b610140830152604083015161016083015260608301516101808301526001600160801b036080840151166101a08301529b9a5050505050505050505050565b90815260200190565b600293840b81529190920b60208201526001600160801b03909116604082015260600190565b918252602082015260400190565b6020808252600990820152684e4f204348414e474560b81b604082015260600190565b602080825260159082015274494e56414c494420535741502043414c4c4241434b60581b604082015260600190565b60208082526005908201526427a92222a960d91b604082015260600190565b6020808252600990820152682327a92124a22222a760b91b604082015260600190565b602080825260159082015274494e56414c4944204d494e542043414c4c4241434b60581b604082015260600190565b6020808252600f908201526e4e4f20454e4f5547482051554f544160881b604082015260600190565b602080825260119082015270494e56414c4944204c495155494449545960781b604082015260600190565b81516001600160a01b03908116825260208084015182169083015260408084015162ffffff1690830152606092830151169181019190915260800190565b6001600160801b0392831681529116602082015260400190565b6001600160b01b0391909116815260200190565b6001600160b01b039790971687526001600160a01b0395861660208801529385166040870152919093166060850152608084019290925260a08301919091526001600160801b031660c082015260e00190565b92835260208301919091526001600160801b0316604082015260600190565b94855260208501939093526001600160801b039190911660408401526060830152608082015260a00190565b9283526020830191909152604082015260600190565b938452602084019290925260408301526001600160801b0316606082015260800190565b95865260208601949094526040850192909252606084015260808301526001600160801b031660a082015260c00190565b6001600160a01b0381168114613a6a57600080fd5b50565b8015158114613a6a57600080fd5b8060020b8114613a6a57600080fdfe4f776e61626c653a206e6577206f776e657220697320746865207a65726f2061646472657373a2646970667358221220f4304e901e3caeacfdf6bf314be27c2a1666f5458f6ab679c5be4462e0b2b6b264736f6c63430007060033",
  "linkReferences": {},
  "deployedLinkReferences": {}
}