{
  "_format": "hh-sol-artifact-1",
  "contractName": "UniswapV3Strategy",
  "sourceName": "contracts/UniswapV3Strategy.sol",
  "abi": [
    {
      "inputs": [
        {
          "internalType": "contract IUniswapV3Factory",
          "name": "_factory",
          "type": "address"
        },
        {
          "internalType": "contract IMulWork",
          "name": "_work",
          "type": "address"
        },
        {
          "internalType": "contract IMulBank",
          "name": "_bank",
          "type": "address"
        }
      ],
      "stateMutability": "nonpayable",
      "type": "constructor"
    },
    {
      "anonymous": false,
      "inputs": [
        {
          "indexed": true,
          "internalType": "address",
          "name": "user",
          "type": "address"
        },
        {
          "indexed": false,
          "internalType": "uint256",
          "name": "positionId",
          "type": "uint256"
        },
        {
          "indexed": false,
          "internalType": "uint256",
          "name": "amount0",
          "type": "uint256"
        },
        {
          "indexed": false,
          "internalType": "uint256",
          "name": "amount1",
          "type": "uint256"
        },
        {
          "indexed": false,
          "internalType": "uint128",
          "name": "liquidity",
          "type": "uint128"
        }
      ],
      "name": "Add",
      "type": "event"
    },
    {
      "anonymous": false,
      "inputs": [
        {
          "indexed": true,
          "internalType": "address",
          "name": "user",
          "type": "address"
        },
        {
          "indexed": false,
          "internalType": "uint256",
          "name": "positionId",
          "type": "uint256"
        },
        {
          "indexed": false,
          "internalType": "uint256",
          "name": "fee0",
          "type": "uint256"
        },
        {
          "indexed": false,
          "internalType": "uint256",
          "name": "fee1",
          "type": "uint256"
        },
        {
          "indexed": false,
          "internalType": "uint256",
          "name": "feePercent",
          "type": "uint256"
        }
      ],
      "name": "Collect",
      "type": "event"
    },
    {
      "anonymous": false,
      "inputs": [
        {
          "indexed": true,
          "internalType": "address",
          "name": "user",
          "type": "address"
        },
        {
          "indexed": false,
          "internalType": "uint256",
          "name": "positionId",
          "type": "uint256"
        },
        {
          "indexed": false,
          "internalType": "uint256",
          "name": "amount0",
          "type": "uint256"
        },
        {
          "indexed": false,
          "internalType": "uint256",
          "name": "amount1",
          "type": "uint256"
        },
        {
          "indexed": false,
          "internalType": "bool",
          "name": "hedge",
          "type": "bool"
        }
      ],
      "name": "Divest",
      "type": "event"
    },
    {
      "anonymous": false,
      "inputs": [
        {
          "indexed": true,
          "internalType": "address",
          "name": "user",
          "type": "address"
        },
        {
          "indexed": false,
          "internalType": "uint256",
          "name": "positionId",
          "type": "uint256"
        },
        {
          "indexed": false,
          "internalType": "address",
          "name": "pool",
          "type": "address"
        },
        {
          "indexed": false,
          "internalType": "address",
          "name": "token0",
          "type": "address"
        },
        {
          "indexed": false,
          "internalType": "address",
          "name": "token1",
          "type": "address"
        },
        {
          "indexed": false,
          "internalType": "uint256",
          "name": "invest0",
          "type": "uint256"
        },
        {
          "indexed": false,
          "internalType": "uint256",
          "name": "invest1",
          "type": "uint256"
        },
        {
          "indexed": false,
          "internalType": "uint128",
          "name": "liquidity",
          "type": "uint128"
        }
      ],
      "name": "Invest",
      "type": "event"
    },
    {
      "anonymous": false,
      "inputs": [
        {
          "indexed": true,
          "internalType": "address",
          "name": "previousOwner",
          "type": "address"
        },
        {
          "indexed": true,
          "internalType": "address",
          "name": "newOwner",
          "type": "address"
        }
      ],
      "name": "OwnershipTransferred",
      "type": "event"
    },
    {
      "anonymous": false,
      "inputs": [
        {
          "indexed": true,
          "internalType": "address",
          "name": "user",
          "type": "address"
        },
        {
          "indexed": false,
          "internalType": "uint256",
          "name": "positionId",
          "type": "uint256"
        },
        {
          "indexed": false,
          "internalType": "uint256",
          "name": "exit0",
          "type": "uint256"
        },
        {
          "indexed": false,
          "internalType": "uint256",
          "name": "exit1",
          "type": "uint256"
        },
        {
          "indexed": false,
          "internalType": "uint256",
          "name": "invest0",
          "type": "uint256"
        },
        {
          "indexed": false,
          "internalType": "uint256",
          "name": "invest1",
          "type": "uint256"
        },
        {
          "indexed": false,
          "internalType": "uint128",
          "name": "liquidity",
          "type": "uint128"
        },
        {
          "indexed": false,
          "internalType": "bool",
          "name": "hedge",
          "type": "bool"
        }
      ],
      "name": "Switching",
      "type": "event"
    },
    {
      "anonymous": false,
      "inputs": [
        {
          "indexed": false,
          "internalType": "uint256",
          "name": "newPercent",
          "type": "uint256"
        }
      ],
      "name": "UpdateFeePercent",
      "type": "event"
    },
    {
      "inputs": [],
      "name": "WETH9",
      "outputs": [
        {
          "internalType": "address",
          "name": "",
          "type": "address"
        }
      ],
      "stateMutability": "view",
      "type": "function"
    },
    {
      "inputs": [],
      "name": "_nextId",
      "outputs": [
        {
          "internalType": "uint176",
          "name": "",
          "type": "uint176"
        }
      ],
      "stateMutability": "view",
      "type": "function"
    },
    {
      "inputs": [
        {
          "internalType": "uint256",
          "name": "positionId",
          "type": "uint256"
        },
        {
          "internalType": "uint256",
          "name": "amount0Desired",
          "type": "uint256"
        },
        {
          "internalType": "uint256",
          "name": "amount1Desired",
          "type": "uint256"
        }
      ],
      "name": "add",
      "outputs": [
        {
          "internalType": "uint256",
          "name": "amount0",
          "type": "uint256"
        },
        {
          "internalType": "uint256",
          "name": "amount1",
          "type": "uint256"
        },
        {
          "internalType": "uint128",
          "name": "liquidity",
          "type": "uint128"
        }
      ],
      "stateMutability": "nonpayable",
      "type": "function"
    },
    {
      "inputs": [],
      "name": "bank",
      "outputs": [
        {
          "internalType": "contract IMulBank",
          "name": "",
          "type": "address"
        }
      ],
      "stateMutability": "view",
      "type": "function"
    },
    {
      "inputs": [
        {
          "internalType": "uint256",
          "name": "positionId",
          "type": "uint256"
        }
      ],
      "name": "collect",
      "outputs": [
        {
          "internalType": "uint128",
          "name": "fee0",
          "type": "uint128"
        },
        {
          "internalType": "uint128",
          "name": "fee1",
          "type": "uint128"
        }
      ],
      "stateMutability": "nonpayable",
      "type": "function"
    },
    {
      "inputs": [
        {
          "internalType": "uint256",
          "name": "positionId",
          "type": "uint256"
        },
        {
          "internalType": "bool",
          "name": "hedge",
          "type": "bool"
        }
      ],
      "name": "divest",
      "outputs": [
        {
          "internalType": "uint256",
          "name": "amount0",
          "type": "uint256"
        },
        {
          "internalType": "uint256",
          "name": "amount1",
          "type": "uint256"
        }
      ],
      "stateMutability": "payable",
      "type": "function"
    },
    {
      "inputs": [],
      "name": "factory",
      "outputs": [
        {
          "internalType": "contract IUniswapV3Factory",
          "name": "",
          "type": "address"
        }
      ],
      "stateMutability": "view",
      "type": "function"
    },
    {
      "inputs": [],
      "name": "feePercent",
      "outputs": [
        {
          "internalType": "uint256",
          "name": "",
          "type": "uint256"
        }
      ],
      "stateMutability": "view",
      "type": "function"
    },
    {
      "inputs": [
        {
          "components": [
            {
              "internalType": "address",
              "name": "token0",
              "type": "address"
            },
            {
              "internalType": "address",
              "name": "token1",
              "type": "address"
            },
            {
              "internalType": "uint24",
              "name": "fee",
              "type": "uint24"
            },
            {
              "internalType": "uint256",
              "name": "amount0Desired",
              "type": "uint256"
            },
            {
              "internalType": "uint256",
              "name": "amount1Desired",
              "type": "uint256"
            },
            {
              "internalType": "int24",
              "name": "tickLower",
              "type": "int24"
            },
            {
              "internalType": "int24",
              "name": "tickUpper",
              "type": "int24"
            }
          ],
          "internalType": "struct UniswapV3Strategy.MintParams",
          "name": "params",
          "type": "tuple"
        }
      ],
      "name": "invest",
      "outputs": [
        {
          "internalType": "uint256",
          "name": "amount0",
          "type": "uint256"
        },
        {
          "internalType": "uint256",
          "name": "amount1",
          "type": "uint256"
        },
        {
          "internalType": "uint128",
          "name": "liquidity",
          "type": "uint128"
        }
      ],
      "stateMutability": "nonpayable",
      "type": "function"
    },
    {
      "inputs": [
        {
          "internalType": "uint256",
          "name": "positionId",
          "type": "uint256"
        }
      ],
      "name": "liquidation",
      "outputs": [],
      "stateMutability": "nonpayable",
      "type": "function"
    },
    {
      "inputs": [],
      "name": "owner",
      "outputs": [
        {
          "internalType": "address",
          "name": "",
          "type": "address"
        }
      ],
      "stateMutability": "view",
      "type": "function"
    },
    {
      "inputs": [
        {
          "internalType": "uint256",
          "name": "",
          "type": "uint256"
        }
      ],
      "name": "positions",
      "outputs": [
        {
          "internalType": "bool",
          "name": "close",
          "type": "bool"
        },
        {
          "internalType": "address",
          "name": "token0",
          "type": "address"
        },
        {
          "internalType": "address",
          "name": "token1",
          "type": "address"
        },
        {
          "internalType": "uint24",
          "name": "fee",
          "type": "uint24"
        },
        {
          "internalType": "uint256",
          "name": "debt0",
          "type": "uint256"
        },
        {
          "internalType": "uint256",
          "name": "debt1",
          "type": "uint256"
        },
        {
          "internalType": "address",
          "name": "operator",
          "type": "address"
        },
        {
          "internalType": "uint256",
          "name": "exit0",
          "type": "uint256"
        },
        {
          "internalType": "uint256",
          "name": "exit1",
          "type": "uint256"
        },
        {
          "components": [
            {
              "internalType": "int24",
              "name": "tickLower",
              "type": "int24"
            },
            {
              "internalType": "int24",
              "name": "tickUpper",
              "type": "int24"
            },
            {
              "internalType": "uint256",
              "name": "feeGrowthInside0LastX128",
              "type": "uint256"
            },
            {
              "internalType": "uint256",
              "name": "feeGrowthInside1LastX128",
              "type": "uint256"
            },
            {
              "internalType": "uint128",
              "name": "liquidity",
              "type": "uint128"
            },
            {
              "internalType": "uint256",
              "name": "fee0",
              "type": "uint256"
            },
            {
              "internalType": "uint256",
              "name": "fee1",
              "type": "uint256"
            }
          ],
          "internalType": "struct UniswapV3Strategy.Tick",
          "name": "tick",
          "type": "tuple"
        }
      ],
      "stateMutability": "view",
      "type": "function"
    },
    {
      "inputs": [],
      "name": "renounceOwnership",
      "outputs": [],
      "stateMutability": "nonpayable",
      "type": "function"
    },
    {
      "inputs": [
        {
          "internalType": "uint256",
          "name": "positionId",
          "type": "uint256"
        },
        {
          "components": [
            {
              "internalType": "int24",
              "name": "tickLower",
              "type": "int24"
            },
            {
              "internalType": "int24",
              "name": "tickUpper",
              "type": "int24"
            },
            {
              "internalType": "uint256",
              "name": "amount0Desired",
              "type": "uint256"
            },
            {
              "internalType": "uint256",
              "name": "amount1Desired",
              "type": "uint256"
            }
          ],
          "internalType": "struct UniswapV3Strategy.SwitchParams",
          "name": "params",
          "type": "tuple"
        },
        {
          "internalType": "bool",
          "name": "hedge",
          "type": "bool"
        }
      ],
      "name": "switching",
      "outputs": [
        {
          "internalType": "uint256",
          "name": "amount0",
          "type": "uint256"
        },
        {
          "internalType": "uint256",
          "name": "amount1",
          "type": "uint256"
        },
        {
          "internalType": "uint128",
          "name": "liquidity",
          "type": "uint128"
        },
        {
          "internalType": "uint256",
          "name": "exit0",
          "type": "uint256"
        },
        {
          "internalType": "uint256",
          "name": "exit1",
          "type": "uint256"
        }
      ],
      "stateMutability": "payable",
      "type": "function"
    },
    {
      "inputs": [
        {
          "internalType": "address",
          "name": "newOwner",
          "type": "address"
        }
      ],
      "name": "transferOwnership",
      "outputs": [],
      "stateMutability": "nonpayable",
      "type": "function"
    },
    {
      "inputs": [
        {
          "internalType": "uint256",
          "name": "amount0Owed",
          "type": "uint256"
        },
        {
          "internalType": "uint256",
          "name": "amount1Owed",
          "type": "uint256"
        },
        {
          "internalType": "bytes",
          "name": "data",
          "type": "bytes"
        }
      ],
      "name": "uniswapV3MintCallback",
      "outputs": [],
      "stateMutability": "nonpayable",
      "type": "function"
    },
    {
      "inputs": [
        {
          "internalType": "uint256",
          "name": "_newPercent",
          "type": "uint256"
        }
      ],
      "name": "updateFeePercent",
      "outputs": [],
      "stateMutability": "nonpayable",
      "type": "function"
    },
    {
      "inputs": [],
      "name": "work",
      "outputs": [
        {
          "internalType": "contract IMulWork",
          "name": "",
          "type": "address"
        }
      ],
      "stateMutability": "view",
      "type": "function"
    },
    {
      "stateMutability": "payable",
      "type": "receive"
    }
  ],
  "bytecode": "0x6080604052600680546001600160b01b03191690556117706007553480156200002757600080fd5b50604051620041ff380380620041ff8339810160408190526200004a916200022b565b60006200005662000201565b600080546001600160a01b0319166001600160a01b0383169081178255604051929350917f8be0079c531659141344cd1fd0a4f28419497f9722a3daafe3b4186f6b6457e0908290a350600180556001600160a01b038316620000d65760405162461bcd60e51b8152600401620000cd906200027e565b60405180910390fd5b6001600160a01b038216620000ff5760405162461bcd60e51b8152600401620000cd906200027e565b6001600160a01b038116620001285760405162461bcd60e51b8152600401620000cd906200027e565b600280546001600160a01b038086166001600160a01b031992831617909255600480548584169083161781556003805485851693169290921791829055604080516312a9293f60e21b815290519290931692634aa4a4fc9281830192602092829003018186803b1580156200019c57600080fd5b505afa158015620001b1573d6000803e3d6000fd5b505050506040513d601f19601f82011682018060405250810190620001d7919062000205565b600580546001600160a01b0319166001600160a01b039290921691909117905550620002c0915050565b3390565b60006020828403121562000217578081fd5b81516200022481620002a7565b9392505050565b60008060006060848603121562000240578182fd5b83516200024d81620002a7565b60208501519093506200026081620002a7565b60408501519092506200027381620002a7565b809150509250925092565b6020808252600f908201526e494e56414c49445f4144445245535360881b604082015260600190565b6001600160a01b0381168114620002bd57600080fd5b50565b613f2f80620002d06000396000f3fe60806040526004361061010d5760003560e01c80639461f68011610095578063d348799711610064578063d3487997146102f9578063e503750e14610319578063f05c5fed1461033a578063f2f2fff51461035a578063f2fde38b1461037c57610147565b80639461f6801461026057806399fbab8814610280578063c45a0155146102b6578063ce3f865f146102cb57610147565b8063715018a6116100dc578063715018a6146101df57806376cdb03b146101f45780637f0d0f6b146102095780637fd6f15c146102295780638da5cb5b1461024b57610147565b8063322e9f041461014c578063385af420146101775780634aa4a4fc1461019b578063505fb46c146101b057610147565b36610147576005546001600160a01b031633146101455760405162461bcd60e51b815260040161013c90613c02565b60405180910390fd5b005b600080fd5b34801561015857600080fd5b5061016161039c565b60405161016e91906138e9565b60405180910390f35b61018a610185366004613787565b6103ab565b60405161016e959493929190613db5565b3480156101a757600080fd5b50610161610928565b3480156101bc57600080fd5b506101d06101cb3660046138be565b610937565b60405161016e93929190613d96565b3480156101eb57600080fd5b50610145610bff565b34801561020057600080fd5b50610161610cab565b34801561021557600080fd5b50610145610224366004613728565b610cba565b34801561023557600080fd5b5061023e610d2c565b60405161016e9190613b44565b34801561025757600080fd5b50610161610d32565b34801561026c57600080fd5b506101d061027b36600461353e565b610d41565b34801561028c57600080fd5b506102a061029b366004613728565b61111e565b60405161016e9a99989796959493929190613a8a565b3480156102c257600080fd5b50610161611203565b3480156102d757600080fd5b506102eb6102e6366004613728565b611212565b60405161016e929190613ce2565b34801561030557600080fd5b50610145610314366004613843565b61176e565b61032c610327366004613758565b611876565b60405161016e929190613d88565b34801561034657600080fd5b50610145610355366004613728565b611ca5565b34801561036657600080fd5b5061036f611d47565b60405161016e9190613cfc565b34801561038857600080fd5b50610145610397366004613452565b611d56565b6004546001600160a01b031681565b6000806000806000876000600882815481106103c357fe5b60009182526020918290206040805161014081018252600d909302909101805460ff8116151584526001600160a01b036101009182900481168587015260018301548082168686015262ffffff600160a01b90910416606080870191909152600280850154608080890191909152600386015460a0808a01919091526004870154851660c0808b01918252600589015460e0808d019190915260068a0154988c019890985289519788018a52600789015480860b860b860b895263010000009004850b850b90940b9a87019a909a52600887015497860197909752600986015492850192909252600a8501546001600160801b031691840191909152600b84015494830194909452600c909201549281019290925261012083019190915291519092503391161480156104f557508051155b801561051357506000816101200151608001516001600160801b0316115b61052f5760405162461bcd60e51b815260040161013c90613bdf565b600060088b8154811061053e57fe5b90600052602060002090600d02019050600081600701905061055f8c611212565b505060038101546001600160801b03888116911614158061058b575080548b51600291820b820b910b14155b806105ac5750805460208c0151600290810b6301000000909204810b900b14155b6105c85760405162461bcd60e51b815260040161013c90613b9d565b60025482546001840154604051630b4c774160e11b81526000936001600160a01b0390811693631698ee829361061a93610100909204831692811691600160a01b90910462ffffff1690600401613a3f565b60206040518083038186803b15801561063257600080fd5b505afa158015610646573d6000803e3d6000fd5b505050506040513d601f19601f8201168201806040525081019061066a919061346e565b8254600384015460405163a34123a760e01b81529293506001600160a01b0384169263a34123a7926106bb92600282810b936301000000909304900b916001600160801b0390911690600401613b4d565b6040805180830381600087803b1580156106d457600080fd5b505af11580156106e8573d6000803e3d6000fd5b505050506040513d601f19601f8201168201806040525081019061070c9190613820565b83546040516309e3d67b60e31b81529299509097506001600160a01b03831691634f1eb3d891610755913091600281810b926301000000909204900b908d908d906004016139cf565b6040805180830381600087803b15801561076e57600080fd5b505af1158015610782573d6000803e3d6000fd5b505050506040513d601f19601f820116820180604052508101906107a691906135f0565b50506107b48d88888e611e58565b6040805160e081018252845461010090046001600160a01b0390811682526001860154908116602080840191909152600160a01b90910462ffffff1682840152918e01516060808301919091528e015160808201528d51600290810b60a0830152918e015190910b60c082015261082a90612389565b809b50819c50829d50839450505050508b600001518260000160006101000a81548162ffffff021916908360020b62ffffff1602179055508b602001518260000160036101000a81548162ffffff021916908360020b62ffffff160217905550898360020181905550888360030181905550878260030160006101000a8154816001600160801b0302191690836001600160801b0316021790555060008b9050336001600160a01b03167fc2fd7a46f29b0467608410312b942515730e861ac81beb56729658c67d70639b8f8a8a8f8f8f8860405161090f9796959493929190613e22565b60405180910390a2505050505050939792965093509350565b6005546001600160a01b031681565b60008060008560006008828154811061094c57fe5b60009182526020918290206040805161014081018252600d909302909101805460ff8116151584526001600160a01b036101009182900481168587015260018301548082168686015262ffffff600160a01b90910416606080870191909152600280850154608080890191909152600386015460a0808a01919091526004870154851660c0808b01918252600589015460e0808d019190915260068a0154988c019890985289519788018a52600789015480860b860b860b895263010000009004850b850b90940b9a87019a909a52600887015497860197909752600986015492850192909252600a8501546001600160801b031691840191909152600b84015494830194909452600c90920154928101929092526101208301919091529151909250339116148015610a7e57508051155b8015610a9c57506000816101200151608001516001600160801b0316115b610ab85760405162461bcd60e51b815260040161013c90613bdf565b600060088981548110610ac757fe5b600091825260208083206040805160e081018252600d94909402909101805461010090046001600160a01b039081168552600182015490811693850193909352600160a01b90920462ffffff1690830152606082018b9052608082018a90526007810154600281810b810b60a08501526301000000909104810b900b60c08301529250610b5390612389565b919950975095509050610b658a611212565b5050600a820180546001600160801b038082168801166001600160801b03199091161790556002820154610b99908861272f565b60028301556003820154610bad908761272f565b600383015560405133907f4e26bf96a4004dbd9e7a6bf889ebc8fbb0b98057476634c8a62ce133ed35ec3a90610bea908d908b908b908b90613dfe565b60405180910390a25050505093509350939050565b610c07612792565b6001600160a01b0316610c18610d32565b6001600160a01b031614610c61576040805162461bcd60e51b81526020600482018190526024820152600080516020613eda833981519152604482015290519081900360640190fd5b600080546040516001600160a01b03909116907f8be0079c531659141344cd1fd0a4f28419497f9722a3daafe3b4186f6b6457e0908390a3600080546001600160a01b0319169055565b6003546001600160a01b031681565b610cc2612792565b6001600160a01b0316610cd3610d32565b6001600160a01b031614610d1c576040805162461bcd60e51b81526020600482018190526024820152600080516020613eda833981519152604482015290519081900360640190fd5b610d27816000611876565b505050565b60075481565b6000546001600160a01b031690565b6000808080610d5d610d5836879003870187613555565b612389565b9196509450925090506000610d9130610d7c60c0890160a08a016134a6565b610d8c60e08a0160c08b016134a6565b612796565b9050600080836001600160a01b031663514ea4bf846040518263ffffffff1660e01b8152600401610dc29190613b44565b60a06040518083038186803b158015610dda57600080fd5b505afa158015610dee573d6000803e3d6000fd5b505050506040513d601f19601f82011682018060405250810190610e129190613622565b5050925092505060006040518060e001604052808a60a0016020810190610e3991906134a6565b60020b8152602001610e5160e08c0160c08d016134a6565b60020b8152602001848152602001838152602001876001600160801b03168152602001600081526020016000815250905060086040518061014001604052806000151581526020018b6000016020810190610eac9190613452565b6001600160a01b031681526020018b6020016020810190610ecd9190613452565b6001600160a01b03168152602001610eeb60608d0160408e0161370e565b62ffffff908116825260208083018d905260408084018d90523360608086018290526000608080880182905260a080890183905260c09889018c90528a5460018082018d559b8452928790208a51600d9094020180548b89015160ff1990911694151594909417610100600160a81b0319166101006001600160a01b0395861681029190911782558b8801519c820180548d8801516001600160a01b03199182169f88169f909f1762ffffff60a01b1916600160a01b9f8d169f909f029e909e1790558b8401516002808401919091558c84015160038401558c8c0151600484018054909f16961695909517909c5560e08b015160058201559a8a01516006808d0191909155610120909a0151805160078d018054838b015162ffffff1990911692870b8c169290921765ffffff000000191663010000009290960b909a1602939093179097559381015160088a015590810151600989015591820151600a880180546001600160801b0319166001600160801b0390921691909117905592810151600b87015590920151600c9094019390935590547f277685e2349c727f8c026893d1d41063f1e92d4092c5d38613f40eac70f3c6f2916001600160b01b039091169088906110bd908e018e613452565b8d60200160208101906110d09190613452565b8d8d8d6040516110e69796959493929190613d10565b60405180910390a25050600680546001600160b01b03808216600101166001600160b01b031990911617905550939592945090925050565b6008818154811061112e57600080fd5b6000918252602091829020600d91909102018054600182015460028084015460038501546004860154600587015460068801546040805160e08101825260078b015480890b890b890b825263010000009004880b880b90970b9a87019a909a5260088901549986019990995260098801546060860152600a8801546001600160801b03166080860152600b88015460a0860152600c9097015460c085015260ff861698506101009095046001600160a01b039081169781861697600160a01b90960462ffffff1696939592949190931692908a565b6002546001600160a01b031681565b6000808260006008828154811061122557fe5b60009182526020918290206040805161014081018252600d909302909101805460ff8116151584526001600160a01b036101009182900481168587015260018301548082168686015262ffffff600160a01b90910416606080870191909152600280850154608080890191909152600386015460a0808a01919091526004870154851660c0808b01918252600589015460e0808d019190915260068a0154988c019890985289519788018a52600789015480860b860b860b895263010000009004850b850b90940b9a87019a909a52600887015497860197909752600986015492850192909252600a8501546001600160801b031691840191909152600b84015494830194909452600c9092015492810192909252610120830191909152915190925033911614801561135757508051155b801561137557506000816101200151608001516001600160801b0316115b6113915760405162461bcd60e51b815260040161013c90613bdf565b6000600886815481106113a057fe5b600091825260208220600254600d929092020180546001820154604051630b4c774160e11b81529295506007860194936001600160a01b0390811693631698ee829361140893610100909104831692811691600160a01b90910462ffffff1690600401613a3f565b60206040518083038186803b15801561142057600080fd5b505afa158015611434573d6000803e3d6000fd5b505050506040513d601f19601f82011682018060405250810190611458919061346e565b825460405163a34123a760e01b81529192506001600160a01b0383169163a34123a79161149a91600282810b9263010000009004900b90600090600401613b4d565b6040805180830381600087803b1580156114b357600080fd5b505af11580156114c7573d6000803e3d6000fd5b505050506040513d601f19601f820116820180604052508101906114eb9190613820565b5050815460009081906001600160a01b0384169063514ea4bf9061151f903090600281810b9163010000009004900b612796565b6040518263ffffffff1660e01b815260040161153b9190613b44565b60a06040518083038186803b15801561155357600080fd5b505afa158015611567573d6000803e3d6000fd5b505050506040513d601f19601f8201168201806040525081019061158b9190613622565b5050600187015460038801549295509093506115b892508403906001600160801b0316600160801b6127f0565b60028501546003860154919a506115e091908303906001600160801b0316600160801b6127f0565b84546040516309e3d67b60e31b81529199506001600160a01b03851691634f1eb3d891611626913091600281810b926301000000909204900b908f908f906004016139cf565b6040805180830381600087803b15801561163f57600080fd5b505af1158015611653573d6000803e3d6000fd5b505050506040513d601f19601f8201168201806040525081019061167791906135f0565b90995097503330141561171157600484015461169c906001600160801b038b1661272f565b600485015560058401546116b9906001600160801b038a1661272f565b600585015584546116e19061010090046001600160a01b03166001600160801b038b1661289f565b6001850154611702906001600160a01b03166001600160801b038a1661289f565b60018401829055600284018190555b60048501546007546040516001600160a01b03909216917fd6c03b3590140168667643c811785f10f111cdb4e6152f736dbc011ad11d17049161175a918e918e918e9190613d63565b60405180910390a250505050505050915091565b600061177c828401846134c2565b600254815160208301516040808501519051630b4c774160e11b81529495506001600160a01b0390931693631698ee82936117bb939291600401613a3f565b60206040518083038186803b1580156117d357600080fd5b505afa1580156117e7573d6000803e3d6000fd5b505050506040513d601f19601f8201168201806040525081019061180b919061346e565b6001600160a01b0316336001600160a01b03161461183b5760405162461bcd60e51b815260040161013c90613b73565b841561185557611855816000015182606001518733612aa7565b831561186f5761186f816020015182606001518633612aa7565b5050505050565b6000808360006008828154811061188957fe5b60009182526020918290206040805161014081018252600d909302909101805460ff8116151584526001600160a01b036101009182900481168587015260018301548082168686015262ffffff600160a01b90910416606080870191909152600280850154608080890191909152600386015460a0808a01919091526004870154851660c0808b01918252600589015460e0808d019190915260068a0154988c019890985289519788018a52600789015480860b860b860b895263010000009004850b850b90940b9a87019a909a52600887015497860197909752600986015492850192909252600a8501546001600160801b031691840191909152600b84015494830194909452600c909201549281019290925261012083019190915291519092503391161480156119bb57508051155b80156119d957506000816101200151608001516001600160801b0316115b6119f55760405162461bcd60e51b815260040161013c90613bdf565b600060088781548110611a0457fe5b90600052602060002090600d02019050611a1d87611212565b505060025481546001830154604051630b4c774160e11b81526000936001600160a01b0390811693631698ee8293611a7193610100909204831692811691600160a01b90910462ffffff1690600401613a3f565b60206040518083038186803b158015611a8957600080fd5b505afa158015611a9d573d6000803e3d6000fd5b505050506040513d601f19601f82011682018060405250810190611ac1919061346e565b6007830154600a84015460405163a34123a760e01b81529293506001600160a01b0384169263a34123a792611b1592600282810b936301000000909304900b916001600160801b0390911690600401613b4d565b6040805180830381600087803b158015611b2e57600080fd5b505af1158015611b42573d6000803e3d6000fd5b505050506040513d601f19601f82011682018060405250810190611b669190613820565b60078401546040516309e3d67b60e31b81529298509096506001600160a01b03831691634f1eb3d891611bb2913091600281810b926301000000909204900b908c908c906004016139cf565b6040805180830381600087803b158015611bcb57600080fd5b505af1158015611bdf573d6000803e3d6000fd5b505050506040513d601f19601f82011682018060405250810190611c0391906135f0565b5050611c118887878a611e58565b600a820180546001600160801b031916905586611c2e5785611c34565b81600201545b600583015586611c445784611c4a565b81600301545b6006830155815460ff1916600117825560405133907f3105919a400b7455f9cd5da3bdb75241feab87461ff048af36e4d98ab44a997790611c92908b908a908a908d90613de1565b60405180910390a2505050509250929050565b611cad612792565b6001600160a01b0316611cbe610d32565b6001600160a01b031614611d07576040805162461bcd60e51b81526020600482018190526024820152600080516020613eda833981519152604482015290519081900360640190fd5b60078190556040517fdb5160cb520340c5b40cde4e18cb6fa0375a88f0fd4ab8027bf402759debec8290611d3c908390613b44565b60405180910390a150565b6006546001600160b01b031681565b611d5e612792565b6001600160a01b0316611d6f610d32565b6001600160a01b031614611db8576040805162461bcd60e51b81526020600482018190526024820152600080516020613eda833981519152604482015290519081900360640190fd5b6001600160a01b038116611dfd5760405162461bcd60e51b8152600401808060200182810382526026815260200180613e936026913960400191505060405180910390fd5b600080546040516001600160a01b03808516939216917f8be0079c531659141344cd1fd0a4f28419497f9722a3daafe3b4186f6b6457e091a3600080546001600160a01b0319166001600160a01b0392909216919091179055565b60026001541415611eb0576040805162461bcd60e51b815260206004820152601f60248201527f5265656e7472616e637947756172643a207265656e7472616e742063616c6c00604482015290519081900360640190fd5b6002600181905550600060088581548110611ec757fe5b90600052602060002090600d020190508115611f8d578060020154841115611f3a5780546002820154611f139161010090046001600160a01b031690611f0e908790612c1d565b612c7a565b60018101546003820154611f3a916001600160a01b031690611f359086612c1d565b612da9565b8060030154831115611f8d5780546002820154611f6a9161010090046001600160a01b031690611f359087612c1d565b60018101546003820154611f8d916001600160a01b031690611f0e908690612c1d565b80546040516370a0823160e01b815260009161010090046001600160a01b0316906370a0823190611fc29030906004016138e9565b60206040518083038186803b158015611fda57600080fd5b505afa158015611fee573d6000803e3d6000fd5b505050506040513d601f19601f820116820180604052508101906120129190613740565b60018301546040516370a0823160e01b81529192506000916001600160a01b03909116906370a082319061204a9030906004016138e9565b60206040518083038186803b15801561206257600080fd5b505afa158015612076573d6000803e3d6000fd5b505050506040513d601f19601f8201168201806040525081019061209a9190613740565b60048054858201548654604051630467830360e41b81529495506001600160a01b03928316946346783030946120e0949384169361010090930490921691889101613921565b600060405180830381600087803b1580156120fa57600080fd5b505af115801561210e573d6000803e3d6000fd5b505060048054868201546001880154604051630467830360e41b81526001600160a01b03938416965063467830309550612152949284169390911691879101613921565b600060405180830381600087803b15801561216c57600080fd5b505af1158015612180573d6000803e3d6000fd5b5050845460035460405163a9059cbb60e01b81526101009092046001600160a01b03908116945063a9059cbb93506121bf929116908690600401613a0c565b602060405180830381600087803b1580156121d957600080fd5b505af11580156121ed573d6000803e3d6000fd5b505050506040513d601f19601f82011682018060405250810190612211919061348a565b50600183015460035460405163a9059cbb60e01b81526001600160a01b039283169263a9059cbb9261224a929116908590600401613a0c565b602060405180830381600087803b15801561226457600080fd5b505af1158015612278573d6000803e3d6000fd5b505050506040513d601f19601f8201168201806040525081019061229c919061348a565b506003548354600285015460405163192400d360e01b81526001600160a01b039384169363192400d3936122dc9361010090910490911691600401613a0c565b600060405180830381600087803b1580156122f657600080fd5b505af115801561230a573d6000803e3d6000fd5b50506003805460018701549187015460405163192400d360e01b81526001600160a01b03928316955063192400d3945061234a9390921691600401613a0c565b600060405180830381600087803b15801561236457600080fd5b505af1158015612378573d6000803e3d6000fd5b505060018055505050505050505050565b600254815160208301516040808501519051630b4c774160e11b81526000948594859485946001600160a01b0390931693631698ee82936123ce939291600401613a3f565b60206040518083038186803b1580156123e657600080fd5b505afa1580156123fa573d6000803e3d6000fd5b505050506040513d601f19601f8201168201806040525081019061241e919061346e565b9350836001600160a01b0316630dfe16816040518163ffffffff1660e01b815260040160206040518083038186803b15801561245957600080fd5b505afa15801561246d573d6000803e3d6000fd5b505050506040513d601f19601f82011682018060405250810190612491919061346e565b6001600160a01b031685600001516001600160a01b031614801561253a5750836001600160a01b031663d21220a76040518163ffffffff1660e01b815260040160206040518083038186803b1580156124e957600080fd5b505afa1580156124fd573d6000803e3d6000fd5b505050506040513d601f19601f82011682018060405250810190612521919061346e565b6001600160a01b031685602001516001600160a01b0316145b6125565760405162461bcd60e51b815260040161013c90613bc0565b6000846001600160a01b0316633850c7bd6040518163ffffffff1660e01b815260040160e06040518083038186803b15801561259157600080fd5b505afa1580156125a5573d6000803e3d6000fd5b505050506040513d601f19601f820116820180604052508101906125c99190613678565b50505050505090506125fe816125e28860a00151612e7c565b6125ef8960c00151612e7c565b89606001518a608001516131ae565b91506000826001600160801b0316116126295760405162461bcd60e51b815260040161013c90613c79565b846001600160a01b0316633c8a7d8d308860a001518960c001518660405180608001604052808d600001516001600160a01b031681526020018d602001516001600160a01b031681526020018d6040015162ffffff168152602001336001600160a01b03168152506040516020016126a19190613ca4565b6040516020818303038152906040526040518663ffffffff1660e01b81526004016126d0959493929190613948565b6040805180830381600087803b1580156126e957600080fd5b505af11580156126fd573d6000803e3d6000fd5b505050506040513d601f19601f820116820180604052508101906127219190613820565b959790965091935090915050565b600082820183811015612789576040805162461bcd60e51b815260206004820152601b60248201527f536166654d6174683a206164646974696f6e206f766572666c6f770000000000604482015290519081900360640190fd5b90505b92915050565b3390565b604080516bffffffffffffffffffffffff19606086901b16602080830191909152600285810b60e890811b60348501529085900b901b60378301528251601a818403018152603a90920190925280519101205b9392505050565b6000808060001985870986860292508281109083900303905080612826576000841161281b57600080fd5b5082900490506127e9565b80841161283257600080fd5b6000848688096000868103871696879004966002600389028118808a02820302808a02820302808a02820302808a02820302808a02820302808a02909103029181900381900460010186841190950394909402919094039290920491909117919091029150509392505050565b600260015414156128f7576040805162461bcd60e51b815260206004820152601f60248201527f5265656e7472616e637947756172643a207265656e7472616e742063616c6c00604482015290519081900360640190fd5b60026001558015612a9f57600061292561271061291f6007548561327290919063ffffffff16565b906132cb565b60035460405163a9059cbb60e01b81529192506001600160a01b038086169263a9059cbb9261295a9216908590600401613a0c565b602060405180830381600087803b15801561297457600080fd5b505af1158015612988573d6000803e3d6000fd5b505050506040513d601f19601f820116820180604052508101906129ac919061348a565b5060048054604051630467830360e41b81526001600160a01b03909116916346783030916129e09133918891879101613921565b600060405180830381600087803b1580156129fa57600080fd5b505af1158015612a0e573d6000803e3d6000fd5b5050506001600160a01b038416905063a9059cbb33612a2d8585612c1d565b6040518363ffffffff1660e01b8152600401612a4a929190613a0c565b602060405180830381600087803b158015612a6457600080fd5b505af1158015612a78573d6000803e3d6000fd5b505050506040513d601f19601f82011682018060405250810190612a9c919061348a565b50505b505060018055565b6004805460405163396c0f9760e21b815284926001600160a01b039092169163e5b03e5c91612ada9188918a9101613a25565b60206040518083038186803b158015612af257600080fd5b505afa158015612b06573d6000803e3d6000fd5b505050506040513d601f19601f82011682018060405250810190612b2a9190613740565b1015612b485760405162461bcd60e51b815260040161013c90613c50565b600354604051636c665a5560e01b81526001600160a01b0390911690636c665a5590612b7c90879086908690600401613a67565b600060405180830381600087803b158015612b9657600080fd5b505af1158015612baa573d6000803e3d6000fd5b505060048054604051630467830360e41b81526001600160a01b03909116935063467830309250612be5918791899160008990039101613921565b600060405180830381600087803b158015612bff57600080fd5b505af1158015612c13573d6000803e3d6000fd5b5050505050505050565b600082821115612c74576040805162461bcd60e51b815260206004820152601e60248201527f536166654d6174683a207375627472616374696f6e206f766572666c6f770000604482015290519081900360640190fd5b50900390565b6005546001600160a01b0383811691161415612d2557600554604051632e1a7d4d60e01b81526001600160a01b0390911690632e1a7d4d90612cc0908490600401613b44565b600060405180830381600087803b158015612cda57600080fd5b505af1158015612cee573d6000803e3d6000fd5b505060405133925083156108fc02915083906000818181858888f19350505050158015612d1f573d6000803e3d6000fd5b50612da5565b60405163a9059cbb60e01b81526001600160a01b0383169063a9059cbb90612d539033908590600401613a0c565b602060405180830381600087803b158015612d6d57600080fd5b505af1158015612d81573d6000803e3d6000fd5b505050506040513d601f19601f82011682018060405250810190610d27919061348a565b5050565b6005546001600160a01b0383811691161415612e4c57803414612dde5760405162461bcd60e51b815260040161013c90613c25565b600560009054906101000a90046001600160a01b03166001600160a01b031663d0e30db0346040518263ffffffff1660e01b81526004016000604051808303818588803b158015612e2e57600080fd5b505af1158015612e42573d6000803e3d6000fd5b5050505050612da5565b6040516323b872dd60e01b81526001600160a01b038316906323b872dd90612d53903390309086906004016138fd565b60008060008360020b12612e93578260020b612e9b565b8260020b6000035b9050620d89e8811115612ed9576040805162461bcd60e51b81526020600482015260016024820152601560fa1b604482015290519081900360640190fd5b600060018216612eed57600160801b612eff565b6ffffcb933bd6fad37aa2d162d1a5940015b70ffffffffffffffffffffffffffffffffff1690506002821615612f33576ffff97272373d413259a46990580e213a0260801c5b6004821615612f52576ffff2e50f5f656932ef12357cf3c7fdcc0260801c5b6008821615612f71576fffe5caca7e10e4e61c3624eaa0941cd00260801c5b6010821615612f90576fffcb9843d60f6159c9db58835c9266440260801c5b6020821615612faf576fff973b41fa98c081472e6896dfb254c00260801c5b6040821615612fce576fff2ea16466c96a3843ec78b326b528610260801c5b6080821615612fed576ffe5dee046a99a2a811c461f1969c30530260801c5b61010082161561300d576ffcbe86c7900a88aedcffc83b479aa3a40260801c5b61020082161561302d576ff987a7253ac413176f2b074cf7815e540260801c5b61040082161561304d576ff3392b0822b70005940c7a398e4b70f30260801c5b61080082161561306d576fe7159475a2c29b7443b29c7fa6e889d90260801c5b61100082161561308d576fd097f3bdfd2022b8845ad8f792aa58250260801c5b6120008216156130ad576fa9f746462d870fdf8a65dc1f90e061e50260801c5b6140008216156130cd576f70d869a156d2a1b890bb3df62baf32f70260801c5b6180008216156130ed576f31be135f97d08fd981231505542fcfa60260801c5b6201000082161561310e576f09aa508b5b7a84e1c677de54f3e99bc90260801c5b6202000082161561312e576e5d6af8dedb81196699c329225ee6040260801c5b6204000082161561314d576d2216e584f5fa1ea926041bedfe980260801c5b6208000082161561316a576b048a170391f7dc42444e8fa20260801c5b60008460020b131561318557806000198161318157fe5b0490505b64010000000081061561319957600161319c565b60005b60ff16602082901c0192505050919050565b6000836001600160a01b0316856001600160a01b031611156131ce579293925b846001600160a01b0316866001600160a01b0316116131f9576131f2858585613332565b9050613269565b836001600160a01b0316866001600160a01b0316101561325b576000613220878686613332565b9050600061322f878986613395565b9050806001600160801b0316826001600160801b0316106132505780613252565b815b92505050613269565b613266858584613395565b90505b95945050505050565b6000826132815750600061278c565b8282028284828161328e57fe5b04146127895760405162461bcd60e51b8152600401808060200182810382526021815260200180613eb96021913960400191505060405180910390fd5b6000808211613321576040805162461bcd60e51b815260206004820152601a60248201527f536166654d6174683a206469766973696f6e206279207a65726f000000000000604482015290519081900360640190fd5b81838161332a57fe5b049392505050565b6000826001600160a01b0316846001600160a01b03161115613352579192915b6000613375856001600160a01b0316856001600160a01b0316600160601b6127f0565b905061326961339084838888036001600160a01b03166127f0565b6133da565b6000826001600160a01b0316846001600160a01b031611156133b5579192915b6133d261339083600160601b8787036001600160a01b03166127f0565b949350505050565b806001600160801b03811681146133f057600080fd5b919050565b80356133f081613e5d565b80356133f081613e75565b80356133f081613e83565b80516001600160801b03811681146133f057600080fd5b805161ffff811681146133f057600080fd5b803562ffffff811681146133f057600080fd5b600060208284031215613463578081fd5b813561278981613e5d565b60006020828403121561347f578081fd5b815161278981613e5d565b60006020828403121561349b578081fd5b815161278981613e75565b6000602082840312156134b7578081fd5b813561278981613e83565b6000608082840312156134d3578081fd5b6040516080810181811067ffffffffffffffff821117156134f057fe5b60405282356134fe81613e5d565b8152602083013561350e81613e5d565b602082015261351f6040840161343f565b6040820152606083013561353281613e5d565b60608201529392505050565b600060e0828403121561354f578081fd5b50919050565b600060e08284031215613566578081fd5b60405160e0810181811067ffffffffffffffff8211171561358357fe5b60405261358f836133f5565b815261359d602084016133f5565b60208201526135ae6040840161343f565b604082015260608301356060820152608083013560808201526135d360a0840161340b565b60a08201526135e460c0840161340b565b60c08201529392505050565b60008060408385031215613602578081fd5b61360b83613416565b915061361960208401613416565b90509250929050565b600080600080600060a08688031215613639578081fd5b61364286613416565b9450602086015193506040860151925061365e60608701613416565b915061366c60808701613416565b90509295509295909350565b600080600080600080600060e0888a031215613692578485fd5b875161369d81613e5d565b60208901519097506136ae81613e83565b95506136bc6040890161342d565b94506136ca6060890161342d565b93506136d86080890161342d565b925060a088015160ff811681146136ed578283fd5b60c08901519092506136fe81613e75565b8091505092959891949750929550565b60006020828403121561371f578081fd5b6127e98261343f565b600060208284031215613739578081fd5b5035919050565b600060208284031215613751578081fd5b5051919050565b6000806040838503121561376a578182fd5b82359150602083013561377c81613e75565b809150509250929050565b600080600083850360c081121561379c578182fd5b843593506080601f19820112156137b1578182fd5b506040516080810181811067ffffffffffffffff821117156137cf57fe5b60405260208501356137e081613e83565b815260408501356137f081613e83565b60208201526060858101356040830152608086013590820152915061381760a08501613400565b90509250925092565b60008060408385031215613832578182fd5b505080516020909101519092909150565b60008060008060608587031215613858578182fd5b8435935060208501359250604085013567ffffffffffffffff8082111561387d578384fd5b818701915087601f830112613890578384fd5b81358181111561389e578485fd5b8860208285010111156138af578485fd5b95989497505060200194505050565b6000806000606084860312156138d2578081fd5b505081359360208301359350604090920135919050565b6001600160a01b0391909116815260200190565b6001600160a01b039384168152919092166020820152604081019190915260600190565b6001600160a01b039384168152919092166020820152600f9190910b604082015260600190565b600060018060a01b038716825260208660020b818401528560020b60408401526001600160801b038516606084015260a0608084015283518060a0850152825b818110156139a45785810183015185820160c001528201613988565b818111156139b5578360c083870101525b50601f01601f19169290920160c001979650505050505050565b6001600160a01b03959095168552600293840b60208601529190920b60408401526001600160801b03918216606084015216608082015260a00190565b6001600160a01b03929092168252602082015260400190565b6001600160a01b0392831681529116602082015260400190565b6001600160a01b03938416815291909216602082015262ffffff909116604082015260600190565b6001600160a01b0393841681526020810192909252909116604082015260600190565b6000610200820190508b1515825260018060a01b03808c166020840152808b16604084015262ffffff8a1660608401528860808401528760a084015280871660c0840152508460e083015283610100830152825160020b610120830152602083015160020b610140830152604083015161016083015260608301516101808301526001600160801b036080840151166101a083015260a08301516101c083015260c08301516101e08301529b9a5050505050505050505050565b90815260200190565b600293840b81529190920b60208201526001600160801b03909116604082015260600190565b60208082526010908201526f494e56414c49442043414c4c4241434b60801b604082015260600190565b6020808252600990820152684e4f204348414e474560b81b604082015260600190565b60208082526005908201526427a92222a960d91b604082015260600190565b6020808252600990820152682327a92124a22222a760b91b604082015260600190565b6020808252600990820152684e6f7420574554483960b81b604082015260600190565b602080825260119082015270494e56414c4944204554482056414c554560781b604082015260600190565b6020808252600f908201526e4e4f20454e4f5547482051554f544160881b604082015260600190565b602080825260119082015270494e56414c4944204c495155494449545960781b604082015260600190565b81516001600160a01b03908116825260208084015182169083015260408084015162ffffff1690830152606092830151169181019190915260800190565b6001600160801b0392831681529116602082015260400190565b6001600160b01b0391909116815260200190565b6001600160b01b039790971687526001600160a01b0395861660208801529385166040870152919093166060850152608084019290925260a08301919091526001600160801b031660c082015260e00190565b9384526001600160801b03928316602085015291166040830152606082015260800190565b918252602082015260400190565b92835260208301919091526001600160801b0316604082015260600190565b94855260208501939093526001600160801b039190911660408401526060830152608082015260a00190565b938452602084019290925260408301521515606082015260800190565b938452602084019290925260408301526001600160801b0316606082015260800190565b96875260208701959095526040860193909352606085019190915260808401526001600160801b031660a0830152151560c082015260e00190565b6001600160a01b0381168114613e7257600080fd5b50565b8015158114613e7257600080fd5b8060020b8114613e7257600080fdfe4f776e61626c653a206e6577206f776e657220697320746865207a65726f2061646472657373536166654d6174683a206d756c7469706c69636174696f6e206f766572666c6f774f776e61626c653a2063616c6c6572206973206e6f7420746865206f776e6572a264697066735822122009eaa9cb27ef23bb9008484c60c5cc308460d856f6529e2290e886252d5fef5764736f6c63430007060033",
  "linkReferences": {},
  "deployedLinkReferences": {}
}