{
  "_format": "hh-sol-artifact-1",
  "contractName": "UniswapV3Strategy",
  "sourceName": "contracts/UniswapV3Strategy.sol",
  "abi": [
    {
      "inputs": [
        {
          "internalType": "contract IUniswapV3Factory",
          "name": "_factory",
          "type": "address"
        },
        {
          "internalType": "contract IUniswapV3WorkCenter",
          "name": "_work",
          "type": "address"
        },
        {
          "internalType": "contract IMulBank",
          "name": "_bank",
          "type": "address"
        },
        {
          "internalType": "address",
          "name": "_devAddr",
          "type": "address"
        },
        {
          "internalType": "address",
          "name": "_manageAddr",
          "type": "address"
        }
      ],
      "stateMutability": "nonpayable",
      "type": "constructor"
    },
    {
      "anonymous": false,
      "inputs": [
        {
          "indexed": true,
          "internalType": "address",
          "name": "user",
          "type": "address"
        },
        {
          "indexed": false,
          "internalType": "uint256",
          "name": "positionId",
          "type": "uint256"
        },
        {
          "indexed": false,
          "internalType": "uint256",
          "name": "amount0",
          "type": "uint256"
        },
        {
          "indexed": false,
          "internalType": "uint256",
          "name": "amount1",
          "type": "uint256"
        },
        {
          "indexed": false,
          "internalType": "uint128",
          "name": "liquidity",
          "type": "uint128"
        }
      ],
      "name": "Add",
      "type": "event"
    },
    {
      "anonymous": false,
      "inputs": [
        {
          "indexed": true,
          "internalType": "address",
          "name": "user",
          "type": "address"
        },
        {
          "indexed": false,
          "internalType": "address[]",
          "name": "tokens",
          "type": "address[]"
        },
        {
          "indexed": false,
          "internalType": "uint256[]",
          "name": "commision",
          "type": "uint256[]"
        },
        {
          "indexed": false,
          "internalType": "uint256",
          "name": "devPercent",
          "type": "uint256"
        },
        {
          "indexed": false,
          "internalType": "uint256",
          "name": "gpPercent",
          "type": "uint256"
        },
        {
          "indexed": false,
          "internalType": "address",
          "name": "to",
          "type": "address"
        }
      ],
      "name": "ClaimCommision",
      "type": "event"
    },
    {
      "anonymous": false,
      "inputs": [
        {
          "indexed": true,
          "internalType": "address",
          "name": "user",
          "type": "address"
        },
        {
          "indexed": false,
          "internalType": "uint256",
          "name": "positionId",
          "type": "uint256"
        },
        {
          "indexed": false,
          "internalType": "uint256",
          "name": "fee0",
          "type": "uint256"
        },
        {
          "indexed": false,
          "internalType": "uint256",
          "name": "fee1",
          "type": "uint256"
        }
      ],
      "name": "Collect",
      "type": "event"
    },
    {
      "anonymous": false,
      "inputs": [
        {
          "indexed": true,
          "internalType": "address",
          "name": "user",
          "type": "address"
        },
        {
          "indexed": false,
          "internalType": "uint256",
          "name": "positionId",
          "type": "uint256"
        },
        {
          "indexed": false,
          "internalType": "uint256",
          "name": "amount0",
          "type": "uint256"
        },
        {
          "indexed": false,
          "internalType": "uint256",
          "name": "amount1",
          "type": "uint256"
        }
      ],
      "name": "Divest",
      "type": "event"
    },
    {
      "anonymous": false,
      "inputs": [
        {
          "indexed": true,
          "internalType": "address",
          "name": "user",
          "type": "address"
        },
        {
          "indexed": false,
          "internalType": "uint256",
          "name": "positionId",
          "type": "uint256"
        },
        {
          "indexed": false,
          "internalType": "address",
          "name": "pool",
          "type": "address"
        },
        {
          "indexed": false,
          "internalType": "address",
          "name": "token0",
          "type": "address"
        },
        {
          "indexed": false,
          "internalType": "address",
          "name": "token1",
          "type": "address"
        },
        {
          "indexed": false,
          "internalType": "uint256",
          "name": "invest0",
          "type": "uint256"
        },
        {
          "indexed": false,
          "internalType": "uint256",
          "name": "invest1",
          "type": "uint256"
        },
        {
          "indexed": false,
          "internalType": "uint128",
          "name": "liquidity",
          "type": "uint128"
        }
      ],
      "name": "Invest",
      "type": "event"
    },
    {
      "anonymous": false,
      "inputs": [
        {
          "indexed": true,
          "internalType": "address",
          "name": "previousOwner",
          "type": "address"
        },
        {
          "indexed": true,
          "internalType": "address",
          "name": "newOwner",
          "type": "address"
        }
      ],
      "name": "OwnershipTransferred",
      "type": "event"
    },
    {
      "anonymous": false,
      "inputs": [
        {
          "indexed": true,
          "internalType": "address",
          "name": "user",
          "type": "address"
        },
        {
          "indexed": false,
          "internalType": "address",
          "name": "pool",
          "type": "address"
        },
        {
          "indexed": false,
          "internalType": "int256",
          "name": "amount0",
          "type": "int256"
        },
        {
          "indexed": false,
          "internalType": "int256",
          "name": "amount1",
          "type": "int256"
        }
      ],
      "name": "Swap",
      "type": "event"
    },
    {
      "anonymous": false,
      "inputs": [
        {
          "indexed": true,
          "internalType": "address",
          "name": "user",
          "type": "address"
        },
        {
          "indexed": false,
          "internalType": "uint256",
          "name": "positionId",
          "type": "uint256"
        },
        {
          "indexed": false,
          "internalType": "uint256",
          "name": "exit0",
          "type": "uint256"
        },
        {
          "indexed": false,
          "internalType": "uint256",
          "name": "exit1",
          "type": "uint256"
        },
        {
          "indexed": false,
          "internalType": "uint256",
          "name": "invest0",
          "type": "uint256"
        },
        {
          "indexed": false,
          "internalType": "uint256",
          "name": "invest1",
          "type": "uint256"
        },
        {
          "indexed": false,
          "internalType": "uint128",
          "name": "liquidity",
          "type": "uint128"
        }
      ],
      "name": "Switching",
      "type": "event"
    },
    {
      "anonymous": false,
      "inputs": [
        {
          "indexed": false,
          "internalType": "address",
          "name": "oldAddr",
          "type": "address"
        },
        {
          "indexed": false,
          "internalType": "address",
          "name": "newAddr",
          "type": "address"
        }
      ],
      "name": "UpdateDev",
      "type": "event"
    },
    {
      "anonymous": false,
      "inputs": [
        {
          "indexed": false,
          "internalType": "address",
          "name": "oldAddr",
          "type": "address"
        },
        {
          "indexed": false,
          "internalType": "address",
          "name": "newAddr",
          "type": "address"
        }
      ],
      "name": "UpdateManage",
      "type": "event"
    },
    {
      "inputs": [],
      "name": "_nextId",
      "outputs": [
        {
          "internalType": "uint176",
          "name": "",
          "type": "uint176"
        }
      ],
      "stateMutability": "view",
      "type": "function"
    },
    {
      "inputs": [
        {
          "internalType": "uint256",
          "name": "positionId",
          "type": "uint256"
        },
        {
          "internalType": "uint256",
          "name": "amount0Desired",
          "type": "uint256"
        },
        {
          "internalType": "uint256",
          "name": "amount1Desired",
          "type": "uint256"
        }
      ],
      "name": "add",
      "outputs": [
        {
          "internalType": "uint256",
          "name": "amount0",
          "type": "uint256"
        },
        {
          "internalType": "uint256",
          "name": "amount1",
          "type": "uint256"
        },
        {
          "internalType": "uint128",
          "name": "liquidity",
          "type": "uint128"
        }
      ],
      "stateMutability": "nonpayable",
      "type": "function"
    },
    {
      "inputs": [],
      "name": "bank",
      "outputs": [
        {
          "internalType": "contract IMulBank",
          "name": "",
          "type": "address"
        }
      ],
      "stateMutability": "view",
      "type": "function"
    },
    {
      "inputs": [
        {
          "internalType": "address",
          "name": "to",
          "type": "address"
        }
      ],
      "name": "claimCommision",
      "outputs": [
        {
          "internalType": "address[]",
          "name": "tokens",
          "type": "address[]"
        },
        {
          "internalType": "uint256[]",
          "name": "commision",
          "type": "uint256[]"
        }
      ],
      "stateMutability": "nonpayable",
      "type": "function"
    },
    {
      "inputs": [
        {
          "internalType": "uint256",
          "name": "positionId",
          "type": "uint256"
        }
      ],
      "name": "collect",
      "outputs": [
        {
          "internalType": "uint128",
          "name": "fee0",
          "type": "uint128"
        },
        {
          "internalType": "uint128",
          "name": "fee1",
          "type": "uint128"
        }
      ],
      "stateMutability": "nonpayable",
      "type": "function"
    },
    {
      "inputs": [],
      "name": "devAddr",
      "outputs": [
        {
          "internalType": "address",
          "name": "",
          "type": "address"
        }
      ],
      "stateMutability": "view",
      "type": "function"
    },
    {
      "inputs": [
        {
          "internalType": "uint256",
          "name": "positionId",
          "type": "uint256"
        }
      ],
      "name": "divest",
      "outputs": [
        {
          "internalType": "uint256",
          "name": "amount0",
          "type": "uint256"
        },
        {
          "internalType": "uint256",
          "name": "amount1",
          "type": "uint256"
        }
      ],
      "stateMutability": "nonpayable",
      "type": "function"
    },
    {
      "inputs": [],
      "name": "factory",
      "outputs": [
        {
          "internalType": "contract IUniswapV3Factory",
          "name": "",
          "type": "address"
        }
      ],
      "stateMutability": "view",
      "type": "function"
    },
    {
      "inputs": [
        {
          "components": [
            {
              "internalType": "address",
              "name": "token0",
              "type": "address"
            },
            {
              "internalType": "address",
              "name": "token1",
              "type": "address"
            },
            {
              "internalType": "uint24",
              "name": "fee",
              "type": "uint24"
            },
            {
              "internalType": "uint256",
              "name": "amount0Desired",
              "type": "uint256"
            },
            {
              "internalType": "uint256",
              "name": "amount1Desired",
              "type": "uint256"
            },
            {
              "internalType": "int24",
              "name": "tickLower",
              "type": "int24"
            },
            {
              "internalType": "int24",
              "name": "tickUpper",
              "type": "int24"
            }
          ],
          "internalType": "struct UniswapV3Strategy.MintParams",
          "name": "params",
          "type": "tuple"
        }
      ],
      "name": "invest",
      "outputs": [
        {
          "internalType": "uint256",
          "name": "amount0",
          "type": "uint256"
        },
        {
          "internalType": "uint256",
          "name": "amount1",
          "type": "uint256"
        },
        {
          "internalType": "uint128",
          "name": "liquidity",
          "type": "uint128"
        }
      ],
      "stateMutability": "nonpayable",
      "type": "function"
    },
    {
      "inputs": [],
      "name": "manageAddr",
      "outputs": [
        {
          "internalType": "address",
          "name": "",
          "type": "address"
        }
      ],
      "stateMutability": "view",
      "type": "function"
    },
    {
      "inputs": [],
      "name": "owner",
      "outputs": [
        {
          "internalType": "address",
          "name": "",
          "type": "address"
        }
      ],
      "stateMutability": "view",
      "type": "function"
    },
    {
      "inputs": [
        {
          "internalType": "uint256",
          "name": "",
          "type": "uint256"
        }
      ],
      "name": "positions",
      "outputs": [
        {
          "internalType": "bool",
          "name": "close",
          "type": "bool"
        },
        {
          "internalType": "address",
          "name": "token0",
          "type": "address"
        },
        {
          "internalType": "address",
          "name": "token1",
          "type": "address"
        },
        {
          "internalType": "uint24",
          "name": "fee",
          "type": "uint24"
        },
        {
          "internalType": "uint256",
          "name": "debt0",
          "type": "uint256"
        },
        {
          "internalType": "uint256",
          "name": "debt1",
          "type": "uint256"
        },
        {
          "internalType": "address",
          "name": "operator",
          "type": "address"
        },
        {
          "internalType": "uint256",
          "name": "exit0",
          "type": "uint256"
        },
        {
          "internalType": "uint256",
          "name": "exit1",
          "type": "uint256"
        },
        {
          "components": [
            {
              "internalType": "int24",
              "name": "tickLower",
              "type": "int24"
            },
            {
              "internalType": "int24",
              "name": "tickUpper",
              "type": "int24"
            },
            {
              "internalType": "uint256",
              "name": "feeGrowthInside0LastX128",
              "type": "uint256"
            },
            {
              "internalType": "uint256",
              "name": "feeGrowthInside1LastX128",
              "type": "uint256"
            },
            {
              "internalType": "uint128",
              "name": "liquidity",
              "type": "uint128"
            }
          ],
          "internalType": "struct UniswapV3Strategy.Tick",
          "name": "tick",
          "type": "tuple"
        }
      ],
      "stateMutability": "view",
      "type": "function"
    },
    {
      "inputs": [],
      "name": "renounceOwnership",
      "outputs": [],
      "stateMutability": "nonpayable",
      "type": "function"
    },
    {
      "inputs": [
        {
          "components": [
            {
              "internalType": "address",
              "name": "token0",
              "type": "address"
            },
            {
              "internalType": "address",
              "name": "token1",
              "type": "address"
            },
            {
              "internalType": "uint24",
              "name": "fee",
              "type": "uint24"
            },
            {
              "internalType": "int256",
              "name": "amountSpecified",
              "type": "int256"
            },
            {
              "internalType": "uint256",
              "name": "amountOutMin",
              "type": "uint256"
            },
            {
              "internalType": "uint256",
              "name": "amountInMax",
              "type": "uint256"
            },
            {
              "internalType": "bool",
              "name": "zeroOne",
              "type": "bool"
            }
          ],
          "internalType": "struct UniswapV3Strategy.SwapParams",
          "name": "params",
          "type": "tuple"
        }
      ],
      "name": "swap",
      "outputs": [
        {
          "internalType": "int256",
          "name": "amount0",
          "type": "int256"
        },
        {
          "internalType": "int256",
          "name": "amount1",
          "type": "int256"
        }
      ],
      "stateMutability": "nonpayable",
      "type": "function"
    },
    {
      "inputs": [
        {
          "components": [
            {
              "internalType": "address",
              "name": "token0",
              "type": "address"
            },
            {
              "internalType": "address",
              "name": "token1",
              "type": "address"
            },
            {
              "internalType": "uint24",
              "name": "fee",
              "type": "uint24"
            },
            {
              "internalType": "int256",
              "name": "amountSpecified",
              "type": "int256"
            },
            {
              "internalType": "uint256",
              "name": "amountOutMin",
              "type": "uint256"
            },
            {
              "internalType": "uint256",
              "name": "amountInMax",
              "type": "uint256"
            },
            {
              "internalType": "bool",
              "name": "zeroOne",
              "type": "bool"
            }
          ],
          "internalType": "struct UniswapV3Strategy.SwapParams",
          "name": "params",
          "type": "tuple"
        }
      ],
      "name": "swapByOwner",
      "outputs": [
        {
          "internalType": "int256",
          "name": "amount0",
          "type": "int256"
        },
        {
          "internalType": "int256",
          "name": "amount1",
          "type": "int256"
        }
      ],
      "stateMutability": "nonpayable",
      "type": "function"
    },
    {
      "inputs": [
        {
          "internalType": "uint256",
          "name": "positionId",
          "type": "uint256"
        },
        {
          "components": [
            {
              "internalType": "int24",
              "name": "tickLower",
              "type": "int24"
            },
            {
              "internalType": "int24",
              "name": "tickUpper",
              "type": "int24"
            },
            {
              "internalType": "uint256",
              "name": "amount0Desired",
              "type": "uint256"
            },
            {
              "internalType": "uint256",
              "name": "amount1Desired",
              "type": "uint256"
            }
          ],
          "internalType": "struct UniswapV3Strategy.SwitchParams",
          "name": "params",
          "type": "tuple"
        }
      ],
      "name": "switching",
      "outputs": [
        {
          "internalType": "uint256",
          "name": "amount0",
          "type": "uint256"
        },
        {
          "internalType": "uint256",
          "name": "amount1",
          "type": "uint256"
        },
        {
          "internalType": "uint128",
          "name": "liquidity",
          "type": "uint128"
        },
        {
          "internalType": "uint256",
          "name": "exit0",
          "type": "uint256"
        },
        {
          "internalType": "uint256",
          "name": "exit1",
          "type": "uint256"
        }
      ],
      "stateMutability": "nonpayable",
      "type": "function"
    },
    {
      "inputs": [
        {
          "internalType": "address",
          "name": "newOwner",
          "type": "address"
        }
      ],
      "name": "transferOwnership",
      "outputs": [],
      "stateMutability": "nonpayable",
      "type": "function"
    },
    {
      "inputs": [
        {
          "internalType": "uint256",
          "name": "amount0Owed",
          "type": "uint256"
        },
        {
          "internalType": "uint256",
          "name": "amount1Owed",
          "type": "uint256"
        },
        {
          "internalType": "bytes",
          "name": "data",
          "type": "bytes"
        }
      ],
      "name": "uniswapV3MintCallback",
      "outputs": [],
      "stateMutability": "nonpayable",
      "type": "function"
    },
    {
      "inputs": [
        {
          "internalType": "int256",
          "name": "amount0Delta",
          "type": "int256"
        },
        {
          "internalType": "int256",
          "name": "amount1Delta",
          "type": "int256"
        },
        {
          "internalType": "bytes",
          "name": "_data",
          "type": "bytes"
        }
      ],
      "name": "uniswapV3SwapCallback",
      "outputs": [],
      "stateMutability": "nonpayable",
      "type": "function"
    },
    {
      "inputs": [
        {
          "internalType": "address",
          "name": "_devAddr",
          "type": "address"
        }
      ],
      "name": "updateDev",
      "outputs": [],
      "stateMutability": "nonpayable",
      "type": "function"
    },
    {
      "inputs": [
        {
          "internalType": "address",
          "name": "_manageAddr",
          "type": "address"
        }
      ],
      "name": "updateManage",
      "outputs": [],
      "stateMutability": "nonpayable",
      "type": "function"
    },
    {
      "inputs": [],
      "name": "work",
      "outputs": [
        {
          "internalType": "contract IUniswapV3WorkCenter",
          "name": "",
          "type": "address"
        }
      ],
      "stateMutability": "view",
      "type": "function"
    }
  ],
  "bytecode": "0x60a0604052600580546001600160b01b03191690553480156200002157600080fd5b506040516200519238038062005192833981016040819052620000449162000190565b6000620000506200018c565b600080546001600160a01b0319166001600160a01b0383169081178255604051929350917f8be0079c531659141344cd1fd0a4f28419497f9722a3daafe3b4186f6b6457e0908290a350600180556001600160a01b038516620000d05760405162461bcd60e51b8152600401620000c7906200020f565b60405180910390fd5b6001600160a01b038416620000f95760405162461bcd60e51b8152600401620000c7906200020f565b6001600160a01b038316620001225760405162461bcd60e51b8152600401620000c7906200020f565b600280546001600160a01b03199081166001600160a01b039788161790915560048054821695871695909517909455600380548516938616939093179092556006805484169185169190911790556007805490921692169190911790553060601b60805262000251565b3390565b600080600080600060a08688031215620001a8578081fd5b8551620001b58162000238565b6020870151909550620001c88162000238565b6040870151909450620001db8162000238565b6060870151909350620001ee8162000238565b6080870151909250620002018162000238565b809150509295509295909350565b6020808252600f908201526e494e56414c49445f4144445245535360881b604082015260600190565b6001600160a01b03811681146200024e57600080fd5b50565b60805160601c614f0f62000283600039806103d9528061084c52806112585280611c9d52806126325250614f0f6000f3fe608060405234801561001057600080fd5b50600436106101425760003560e01c80639461f680116100b8578063ce3f865f1161007c578063ce3f865f1461029f578063d3487997146102c0578063da09c72c146102d3578063f2f2fff5146102db578063f2fde38b146102f0578063fa461e331461030357610142565b80639461f6801461023257806399fbab8814610245578063b0a75d331461026e578063b1ce619b1461028f578063c45a01551461029757610142565b806351f8e8cd1161010a57806351f8e8cd146101df578063715018a6146101f457806376cdb03b146101fc5780638ca17995146102045780638da5cb5b14610217578063934c19381461021f57610142565b80631ee2adc314610147578063322e9f041461017157806334f4e8e1146101865780634f22342d146101aa578063505fb46c146101bd575b600080fd5b61015a6101553660046143dd565b610316565b604051610168929190614a90565b60405180910390f35b61017961077e565b6040516101689190614776565b6101996101943660046145cd565b61078d565b604051610168959493929190614d64565b61015a6101b83660046143dd565b610eb8565b6101d06101cb366004614658565b61119c565b60405161016893929190614d45565b6101f26101ed366004614169565b611570565b005b6101f261163b565b6101796116e7565b61015a61021236600461459d565b6116f6565b610179611b07565b6101f261022d366004614169565b611b16565b6101d061024036600461432b565b611be1565b61025861025336600461459d565b612092565b6040516101689a999897969594939291906149bd565b61028161027c366004614169565b612163565b60405161016892919061494c565b610179612506565b610179612515565b6102b26102ad36600461459d565b612524565b604051610168929190614ca5565b6101f26102ce3660046142bf565b612d36565b610179612ebb565b6102e3612eca565b6040516101689190614cbf565b6101f26102fe366004614169565b612ed9565b6101f26103113660046142bf565b612fdb565b600080600360009054906101000a90046001600160a01b03166001600160a01b03166373e029986040518163ffffffff1660e01b815260040160206040518083038186803b15801561036757600080fd5b505afa15801561037b573d6000803e3d6000fd5b505050506040513d601f19601f8201168201806040525081019061039f9190614264565b6103c45760405162461bcd60e51b81526004016103bb90614a9e565b60405180910390fd5b33321480156103fb5750306001600160a01b037f000000000000000000000000000000000000000000000000000000000000000016145b6104175760405162461bcd60e51b81526004016103bb90614bfa565b600254835160208501516040808701519051630b4c774160e11b81526000946001600160a01b031693631698ee82936104579391929091906004016147e0565b60206040518083038186803b15801561046f57600080fd5b505afa158015610483573d6000803e3d6000fd5b505050506040513d601f19601f820116820180604052508101906104a79190614185565b60048054604051633111fc1760e11b815292935060009283926001600160a01b0390921691636223f82e916104e091339188910161478a565b604080518083038186803b1580156104f757600080fd5b505afa15801561050b573d6000803e3d6000fd5b505050506040513d601f19601f8201168201806040525081019061052f919061429c565b60035460c089015160608a01519395509193506001600160a01b038681169363128acb08939190921691816105785773fffd8963efd1fc6a506488495d951d5263988d2561057f565b6401000276a45b60405180608001604052808d600001516001600160a01b031681526020018d602001516001600160a01b031681526020018d6040015162ffffff168152602001336001600160a01b03168152506040516020016105dc9190614c97565b6040516020818303038152906040526040518663ffffffff1660e01b815260040161060b959493929190614808565b6040805180830381600087803b15801561062457600080fd5b505af1158015610638573d6000803e3d6000fd5b505050506040513d601f19601f8201168201806040525081019061065c919061429c565b60c0880151919650945080156106725750848212155b8061068a57508560c0015115801561068a5750838112155b6106a65760405162461bcd60e51b81526004016103bb90614c44565b606086015160001280156106f75760008087136106c657866000036106cb565b856000035b905087608001518110156106f15760405162461bcd60e51b81526004016103bb90614bdc565b50610730565b60008087136107065785610708565b865b90508760a0015181111561072e5760405162461bcd60e51b81526004016103bb90614bdc565b505b336001600160a01b03167fa4228e1eb11eb9b31069d9ed20e7af9a010ca1a02d4855cee54e08e188fcc32c85888860405161076d939291906148cd565b60405180910390a250505050915091565b6004546001600160a01b031681565b6000806000806000600360009054906101000a90046001600160a01b03166001600160a01b03166373e029986040518163ffffffff1660e01b815260040160206040518083038186803b1580156107e357600080fd5b505afa1580156107f7573d6000803e3d6000fd5b505050506040513d601f19601f8201168201806040525081019061081b9190614264565b6108375760405162461bcd60e51b81526004016103bb90614a9e565b333214801561086e5750306001600160a01b037f000000000000000000000000000000000000000000000000000000000000000016145b61088a5760405162461bcd60e51b81526004016103bb90614bfa565b8660006008828154811061089a57fe5b60009182526020918290206040805161014081018252600b909302909101805460ff8116151584526001600160a01b036101009182900481168587015260018301548082168686015262ffffff600160a01b90910416606080870191909152600280850154608080890191909152600386015460a0808a01919091526004870154851660c08a01908152600588015460e08b01526006880154968a019690965287519081018852600787015480840b840b840b825263010000009004830b830b90920b98820198909852600885015495810195909552600984015490850152600a909201546001600160801b031694830194909452610120830191909152915190925033911614806109c457506109af611b07565b6001600160a01b0316336001600160a01b0316145b6109e05760405162461bcd60e51b81526004016103bb90614b3d565b8051158015610a0157506000816101200151608001516001600160801b0316115b610a1d5760405162461bcd60e51b81526004016103bb90614b8f565b600060088a81548110610a2c57fe5b90600052602060002090600b020190506000816007019050610a4d8b612524565b505080548a51600291820b820b910b141580610a7f5750805460208b0151600290810b6301000000909204810b900b14155b610a9b5760405162461bcd60e51b81526004016103bb90614acc565b60025482546001840154604051630b4c774160e11b81526000936001600160a01b0390811693631698ee8293610aed93610100909204831692811691600160a01b90910462ffffff16906004016147e0565b60206040518083038186803b158015610b0557600080fd5b505afa158015610b19573d6000803e3d6000fd5b505050506040513d601f19601f82011682018060405250810190610b3d9190614185565b8254600384015460405163a34123a760e01b81529293506001600160a01b0384169263a34123a792610b8e92600282810b936301000000909304900b916001600160801b0390911690600401614a6a565b6040805180830381600087803b158015610ba757600080fd5b505af1158015610bbb573d6000803e3d6000fd5b505050506040513d601f19601f82011682018060405250810190610bdf919061429c565b83546040516309e3d67b60e31b81529299509097506001600160a01b03831691634f1eb3d891610c28913091600281810b926301000000909204900b908d908d90600401614890565b6040805180830381600087803b158015610c4157600080fd5b505af1158015610c55573d6000803e3d6000fd5b505050506040513d601f19601f82011682018060405250810190610c799190614465565b5050610c858c826130fa565b6040805160e081018252845461010090046001600160a01b0390811682526001860154908116602080840191909152600160a01b90910462ffffff1682840152918d01516060808301919091528d015160808201528c51600290810b60a0830152918d015190910b60c0820152610cfb9061342b565b809b50819c50829d50839450505050508a600001518260000160006101000a81548162ffffff021916908360020b62ffffff1602179055508a602001518260000160036101000a81548162ffffff021916908360020b62ffffff160217905550898360020181905550888360030181905550878260030160006101000a8154816001600160801b0302191690836001600160801b03160217905550806001600160a01b031663514ea4bf610dd2308560000160009054906101000a900460020b8660000160039054906101000a900460020b6137d1565b6040518263ffffffff1660e01b8152600401610dee9190614a61565b60a06040518083038186803b158015610e0657600080fd5b505afa158015610e1a573d6000803e3d6000fd5b505050506040513d601f19601f82011682018060405250810190610e3e9190614497565b9091929350905050836001016000856002016000849190505583919050555050336001600160a01b03167fac5f524e27716331e4a51cc66fa8c5214162347ac93bb8180289a25ebd9d5a688d89898e8e8e604051610ea196959493929190614dca565b60405180910390a250505050509295509295909350565b600080610ec361382b565b6001600160a01b0316610ed4611b07565b6001600160a01b031614610f1d576040805162461bcd60e51b81526020600482018190526024820152600080516020614eba833981519152604482015290519081900360640190fd5b600254835160208501516040808701519051630b4c774160e11b81526000946001600160a01b031693631698ee8293610f5d9391929091906004016147e0565b60206040518083038186803b158015610f7557600080fd5b505afa158015610f89573d6000803e3d6000fd5b505050506040513d601f19601f82011682018060405250810190610fad9190614185565b60035460c086015160608701519293506001600160a01b038085169363128acb0893909116919081610ff35773fffd8963efd1fc6a506488495d951d5263988d25610ffa565b6401000276a45b604080516080810182528b516001600160a01b0390811682526020808e0151909116818301528c83015162ffffff16828401526000606083015291516110409201614c97565b6040516020818303038152906040526040518663ffffffff1660e01b815260040161106f959493929190614808565b6040805180830381600087803b15801561108857600080fd5b505af115801561109c573d6000803e3d6000fd5b505050506040513d601f19601f820116820180604052508101906110c0919061429c565b6060860151919450925060001280156111165760008085136110e557846000036110ea565b836000035b905085608001518110156111105760405162461bcd60e51b81526004016103bb90614bdc565b5061114f565b60008085136111255783611127565b845b90508560a0015181111561114d5760405162461bcd60e51b81526004016103bb90614bdc565b505b60006001600160a01b03167fa4228e1eb11eb9b31069d9ed20e7af9a010ca1a02d4855cee54e08e188fcc32c83868660405161118d939291906148cd565b60405180910390a25050915091565b6000806000600360009054906101000a90046001600160a01b03166001600160a01b03166373e029986040518163ffffffff1660e01b815260040160206040518083038186803b1580156111ef57600080fd5b505afa158015611203573d6000803e3d6000fd5b505050506040513d601f19601f820116820180604052508101906112279190614264565b6112435760405162461bcd60e51b81526004016103bb90614a9e565b333214801561127a5750306001600160a01b037f000000000000000000000000000000000000000000000000000000000000000016145b6112965760405162461bcd60e51b81526004016103bb90614bfa565b856000600882815481106112a657fe5b60009182526020918290206040805161014081018252600b909302909101805460ff8116151584526001600160a01b036101009182900481168587015260018301548082168686015262ffffff600160a01b90910416606080870191909152600280850154608080890191909152600386015460a0808a01919091526004870154851660c08a01908152600588015460e08b01526006880154968a019690965287519081018852600787015480840b840b840b825263010000009004830b830b90920b98820198909852600885015495810195909552600984015490850152600a909201546001600160801b031694830194909452610120830191909152915190925033911614806113d057506113bb611b07565b6001600160a01b0316336001600160a01b0316145b6113ec5760405162461bcd60e51b81526004016103bb90614b3d565b805115801561140d57506000816101200151608001516001600160801b0316115b6114295760405162461bcd60e51b81526004016103bb90614b8f565b60006008898154811061143857fe5b600091825260208083206040805160e081018252600b94909402909101805461010090046001600160a01b039081168552600182015490811693850193909352600160a01b90920462ffffff1690830152606082018b9052608082018a90526007810154600281810b810b60a08501526301000000909104810b900b60c083015292506114c49061342b565b9199509750955090506114d68a612524565b5050600a820180546001600160801b038082168801166001600160801b0319909116179055600282015461150a908861382f565b6002830155600382015461151e908761382f565b600383015560405133907f4e26bf96a4004dbd9e7a6bf889ebc8fbb0b98057476634c8a62ce133ed35ec3a9061155b908d908b908b908b90614da6565b60405180910390a25050505093509350939050565b61157861382b565b6001600160a01b0316611589611b07565b6001600160a01b0316146115d2576040805162461bcd60e51b81526020600482018190526024820152600080516020614eba833981519152604482015290519081900360640190fd5b6007546040517f44f80bbe0438ea45def0cd459677289097cd4b605293a407cdc28d7da874426591611611916001600160a01b0390911690849061478a565b60405180910390a1600780546001600160a01b0319166001600160a01b0392909216919091179055565b61164361382b565b6001600160a01b0316611654611b07565b6001600160a01b03161461169d576040805162461bcd60e51b81526020600482018190526024820152600080516020614eba833981519152604482015290519081900360640190fd5b600080546040516001600160a01b03909116907f8be0079c531659141344cd1fd0a4f28419497f9722a3daafe3b4186f6b6457e0908390a3600080546001600160a01b0319169055565b6003546001600160a01b031681565b6000808260006008828154811061170957fe5b60009182526020918290206040805161014081018252600b909302909101805460ff8116151584526001600160a01b036101009182900481168587015260018301548082168686015262ffffff600160a01b90910416606080870191909152600280850154608080890191909152600386015460a0808a01919091526004870154851660c08a01908152600588015460e08b01526006880154968a019690965287519081018852600787015480840b840b840b825263010000009004830b830b90920b98820198909852600885015495810195909552600984015490850152600a909201546001600160801b03169483019490945261012083019190915291519092503391161480611833575061181e611b07565b6001600160a01b0316336001600160a01b0316145b61184f5760405162461bcd60e51b81526004016103bb90614b3d565b805115801561187057506000816101200151608001516001600160801b0316115b61188c5760405162461bcd60e51b81526004016103bb90614b8f565b60006008868154811061189b57fe5b90600052602060002090600b020190506118b486612524565b505060025481546001830154604051630b4c774160e11b81526000936001600160a01b0390811693631698ee829361190893610100909204831692811691600160a01b90910462ffffff16906004016147e0565b60206040518083038186803b15801561192057600080fd5b505afa158015611934573d6000803e3d6000fd5b505050506040513d601f19601f820116820180604052508101906119589190614185565b6007830154600a84015460405163a34123a760e01b81529293506001600160a01b0384169263a34123a7926119ac92600282810b936301000000909304900b916001600160801b0390911690600401614a6a565b6040805180830381600087803b1580156119c557600080fd5b505af11580156119d9573d6000803e3d6000fd5b505050506040513d601f19601f820116820180604052508101906119fd919061429c565b60078401546040516309e3d67b60e31b81529298509096506001600160a01b03831691634f1eb3d891611a49913091600281810b926301000000909204900b908c908c90600401614890565b6040805180830381600087803b158015611a6257600080fd5b505af1158015611a76573d6000803e3d6000fd5b505050506040513d601f19601f82011682018060405250810190611a9a9190614465565b5050611aa687826130fa565b600a820180546001600160801b03191690556005820186905560068201859055815460ff1916600117825560405133907f51527f281a5cab89f6d95e0051766e4abe2f4390765a23b856ae420c28f1414c9061076d908a908a908a90614d90565b6000546001600160a01b031690565b611b1e61382b565b6001600160a01b0316611b2f611b07565b6001600160a01b031614611b78576040805162461bcd60e51b81526020600482018190526024820152600080516020614eba833981519152604482015290519081900360640190fd5b6006546040517f3fce9d7d330a5a5fdddc43ed93d6ea4968d4fd6727aab8843d2a6016f1bf4b7791611bb7916001600160a01b0390911690849061478a565b60405180910390a1600680546001600160a01b0319166001600160a01b0392909216919091179055565b6000806000600360009054906101000a90046001600160a01b03166001600160a01b03166373e029986040518163ffffffff1660e01b815260040160206040518083038186803b158015611c3457600080fd5b505afa158015611c48573d6000803e3d6000fd5b505050506040513d601f19601f82011682018060405250810190611c6c9190614264565b611c885760405162461bcd60e51b81526004016103bb90614a9e565b3332148015611cbf5750306001600160a01b037f000000000000000000000000000000000000000000000000000000000000000016145b611cdb5760405162461bcd60e51b81526004016103bb90614bfa565b6000611cf4611cef36879003870187614342565b61342b565b9196509450925090506000611d2830611d1360c0890160a08a01614280565b611d2360e08a0160c08b01614280565b6137d1565b9050600080836001600160a01b031663514ea4bf846040518263ffffffff1660e01b8152600401611d599190614a61565b60a06040518083038186803b158015611d7157600080fd5b505afa158015611d85573d6000803e3d6000fd5b505050506040513d601f19601f82011682018060405250810190611da99190614497565b5050925092505060006040518060a001604052808a60a0016020810190611dd09190614280565b60020b8152602001611de860e08c0160c08d01614280565b60020b8152602001848152602001838152602001876001600160801b0316815250905060086040518061014001604052806000151581526020018b6000016020810190611e359190614169565b6001600160a01b031681526020018b6020016020810190611e569190614169565b6001600160a01b03168152602001611e7460608d0160408e01614583565b62ffffff908116825260208083018d905260408084018d90523360608086018290526000608080880182905260a080890183905260c09889018c90528a5460018082018d559b8452928790208a51600b9094020180548b89015160ff1990911694151594909417610100600160a81b0319166101006001600160a01b0395861681029190911782558b8801519c820180548d8801516001600160a01b03199182169f88169f909f1762ffffff60a01b1916600160a01b9f8d169f909f029e909e1790558b840151600280840191909155928c01516003830155998b0151600482018054909d16941693909317909a5560e08901516005808401919091559789015160068301556101209098015180516007830180548389015162ffffff19909116928d0b8a169290921765ffffff0000001916630100000092909c0b90981602999099179095559187015160088501559086015160098401559490930151600a90910180546001600160801b0319166001600160801b03909216919091179055547f277685e2349c727f8c026893d1d41063f1e92d4092c5d38613f40eac70f3c6f2916001600160b01b03909116908890612031908e018e614169565b8d60200160208101906120449190614169565b8d8d8d60405161205a9796959493929190614cd3565b60405180910390a25050600580546001600160b01b03808216600101166001600160b01b031990911617905550939592945090925050565b600881815481106120a257600080fd5b6000918252602091829020600b91909102018054600182015460028084015460038501546004860154600587015460068801546040805160a08101825260078b015480890b890b890b825263010000009004880b880b90970b9a87019a909a5260088901549986019990995260098801546060860152600a909701546001600160801b0316608085015260ff861698506101009095046001600160a01b039081169781861697600160a01b90960462ffffff1696939592949190931692908a565b60048054604051630f41a04d60e11b815260609283926001600160a01b031691631e83409a9161219591339101614776565b600060405180830381600087803b1580156121af57600080fd5b505af11580156121c3573d6000803e3d6000fd5b505050506040513d6000823e601f3d908101601f191682016040526121eb91908101906141a1565b60048054604051637ea1915960e01b815293955091935060009283926001600160a01b031691637ea191599161222391339101614776565b602060405180830381600087803b15801561223d57600080fd5b505af1158015612251573d6000803e3d6000fd5b505050506040513d601f19601f8201168201806040525081019061227591906145b5565b90506000600460009054906101000a90046001600160a01b03166001600160a01b031663fc3c28af6040518163ffffffff1660e01b8152600401602060405180830381600087803b1580156122c957600080fd5b505af11580156122dd573d6000803e3d6000fd5b505050506040513d601f19601f8201168201806040525081019061230191906145b5565b905060005b855181101561249757600085828151811061231d57fe5b6020026020010151111561248f57600061235f6127106123598589868151811061234357fe5b602002602001015161389290919063ffffffff16565b906138eb565b60035488519192506001600160a01b03169063f0fcc6bb9089908590811061238357fe5b602002602001015183600660009054906101000a90046001600160a01b03166040518463ffffffff1660e01b81526004016123c093929190614929565b600060405180830381600087803b1580156123da57600080fd5b505af11580156123ee573d6000803e3d6000fd5b50505050600061240a612710612359878a878151811061234357fe5b60035489519192506001600160a01b03169063f0fcc6bb908a908690811061242e57fe5b6020026020010151838c6040518463ffffffff1660e01b815260040161245693929190614929565b600060405180830381600087803b15801561247057600080fd5b505af1158015612484573d6000803e3d6000fd5b505050506001955050505b600101612306565b50826124b55760405162461bcd60e51b81526004016103bb90614bb6565b336001600160a01b03167fc43c77f762220ae6f0e226f5948a446a43635876c160c29ecebe259fedf3a4e1868684868b6040516124f6959493929190614971565b60405180910390a2505050915091565b6007546001600160a01b031681565b6002546001600160a01b031681565b6000806002600154141561257f576040805162461bcd60e51b815260206004820152601f60248201527f5265656e7472616e637947756172643a207265656e7472616e742063616c6c00604482015290519081900360640190fd5b600260015560035460408051630e7c053360e31b815290516001600160a01b03909216916373e0299891600480820192602092909190829003018186803b1580156125c957600080fd5b505afa1580156125dd573d6000803e3d6000fd5b505050506040513d601f19601f820116820180604052508101906126019190614264565b61261d5760405162461bcd60e51b81526004016103bb90614a9e565b33321480156126545750306001600160a01b037f000000000000000000000000000000000000000000000000000000000000000016145b6126705760405162461bcd60e51b81526004016103bb90614bfa565b8260006008828154811061268057fe5b60009182526020918290206040805161014081018252600b909302909101805460ff8116151584526001600160a01b036101009182900481168587015260018301548082168686015262ffffff600160a01b90910416606080870191909152600280850154608080890191909152600386015460a0808a01919091526004870154851660c08a01908152600588015460e08b01526006880154968a019690965287519081018852600787015480840b840b840b825263010000009004830b830b90920b98820198909852600885015495810195909552600984015490850152600a909201546001600160801b031694830194909452610120830191909152915190925033911614806127aa5750612795611b07565b6001600160a01b0316336001600160a01b0316145b6127c65760405162461bcd60e51b81526004016103bb90614b3d565b80511580156127e757506000816101200151608001516001600160801b0316115b6128035760405162461bcd60e51b81526004016103bb90614b8f565b60006008868154811061281257fe5b600091825260208220600254600b929092020180546001820154604051630b4c774160e11b81529295506007860194936001600160a01b0390811693631698ee829361287a93610100909104831692811691600160a01b90910462ffffff16906004016147e0565b60206040518083038186803b15801561289257600080fd5b505afa1580156128a6573d6000803e3d6000fd5b505050506040513d601f19601f820116820180604052508101906128ca9190614185565b825460405163a34123a760e01b81529192506001600160a01b0383169163a34123a79161290c91600282810b9263010000009004900b90600090600401614a6a565b6040805180830381600087803b15801561292557600080fd5b505af1158015612939573d6000803e3d6000fd5b505050506040513d601f19601f8201168201806040525081019061295d919061429c565b5050815460009081906001600160a01b0384169063514ea4bf90612991903090600281810b9163010000009004900b6137d1565b6040518263ffffffff1660e01b81526004016129ad9190614a61565b60a06040518083038186803b1580156129c557600080fd5b505afa1580156129d9573d6000803e3d6000fd5b505050506040513d601f19601f820116820180604052508101906129fd9190614497565b505060018701546003880154929550909350612a2a92508403906001600160801b0316600160801b613952565b60028501546003860154919a50612a5291908303906001600160801b0316600160801b613952565b84546040516309e3d67b60e31b81529199506001600160a01b03851691634f1eb3d891612a98913091600281810b926301000000909204900b908f908f90600401614890565b6040805180830381600087803b158015612ab157600080fd5b505af1158015612ac5573d6000803e3d6000fd5b505050506040513d601f19601f82011682018060405250810190612ae99190614465565b6001860184905560028601839055865460035460405163a9059cbb60e01b8152939c50919a506001600160a01b0361010090910481169263a9059cbb92612b369216908d906004016148ee565b602060405180830381600087803b158015612b5057600080fd5b505af1158015612b64573d6000803e3d6000fd5b505050506040513d601f19601f82011682018060405250810190612b889190614264565b50600185015460035460405163a9059cbb60e01b81526001600160a01b039283169263a9059cbb92612bc1929116908c906004016148ee565b602060405180830381600087803b158015612bdb57600080fd5b505af1158015612bef573d6000803e3d6000fd5b505050506040513d601f19601f82011682018060405250810190612c139190614264565b50600460009054906101000a90046001600160a01b03166001600160a01b031663402609618660040160009054906101000a90046001600160a01b0316858860000160019054906101000a90046001600160a01b03168960010160009054906101000a90046001600160a01b03168e8e6040518763ffffffff1660e01b8152600401612ca4969594939291906147a4565b600060405180830381600087803b158015612cbe57600080fd5b505af1158015612cd2573d6000803e3d6000fd5b50505060048601546040516001600160a01b0390911691507fde5e3abbba77c313e4f5881ab0685bbbbb54f38b5cfbdd6230e88642a5df29f190612d1b908d908d908d90614d26565b60405180910390a25050505050505060018081905550915091565b6000612d4482840184614310565b600254815160208301516040808501519051630b4c774160e11b81529495506001600160a01b0390931693631698ee8293612d839392916004016147e0565b60206040518083038186803b158015612d9b57600080fd5b505afa158015612daf573d6000803e3d6000fd5b505050506040513d601f19601f82011682018060405250810190612dd39190614185565b6001600160a01b0316336001600160a01b031614612e035760405162461bcd60e51b81526004016103bb90614b60565b8415612e1d57612e1d816000015182606001518733613a01565b8315612e3757612e37816020015182606001518633613a01565b60048054606083015183516020850151604051634026096160e01b81526001600160a01b0390941694634026096194612e82949333939092909160008e810392908e900391016147a4565b600060405180830381600087803b158015612e9c57600080fd5b505af1158015612eb0573d6000803e3d6000fd5b505050505050505050565b6006546001600160a01b031681565b6005546001600160b01b031681565b612ee161382b565b6001600160a01b0316612ef2611b07565b6001600160a01b031614612f3b576040805162461bcd60e51b81526020600482018190526024820152600080516020614eba833981519152604482015290519081900360640190fd5b6001600160a01b038116612f805760405162461bcd60e51b8152600401808060200182810382526026815260200180614e736026913960400191505060405180910390fd5b600080546040516001600160a01b03808516939216917f8be0079c531659141344cd1fd0a4f28419497f9722a3daafe3b4186f6b6457e091a3600080546001600160a01b0319166001600160a01b0392909216919091179055565b6000841380612fea5750600083135b612ff357600080fd5b600061300182840184614310565b600254815160208301516040808501519051630b4c774160e11b81529495506001600160a01b0390931693631698ee82936130409392916004016147e0565b60206040518083038186803b15801561305857600080fd5b505afa15801561306c573d6000803e3d6000fd5b505050506040513d601f19601f820116820180604052508101906130909190614185565b6001600160a01b0316336001600160a01b0316146130c05760405162461bcd60e51b81526004016103bb90614aef565b60008513156130dd576130dd816000015182606001518733613a01565b6000841315612e3757612e37816020015182606001518633613a01565b60026001541415613152576040805162461bcd60e51b815260206004820152601f60248201527f5265656e7472616e637947756172643a207265656e7472616e742063616c6c00604482015290519081900360640190fd5b600260018190555060006008838154811061316957fe5b600091825260208220600b9091020180546040516370a0823160e01b81529193506001600160a01b0361010090910416906370a08231906131ae903090600401614776565b60206040518083038186803b1580156131c657600080fd5b505afa1580156131da573d6000803e3d6000fd5b505050506040513d601f19601f820116820180604052508101906131fe91906145b5565b60018301546040516370a0823160e01b81529192506000916001600160a01b03909116906370a0823190613236903090600401614776565b60206040518083038186803b15801561324e57600080fd5b505afa158015613262573d6000803e3d6000fd5b505050506040513d601f19601f8201168201806040525081019061328691906145b5565b600480548582015486546001880154604051634026096160e01b81529596506001600160a01b03938416956340260961956132d595948516948c94610100900481169316918a918a91016147a4565b600060405180830381600087803b1580156132ef57600080fd5b505af1158015613303573d6000803e3d6000fd5b5050845460035460405163a9059cbb60e01b81526101009092046001600160a01b03908116945063a9059cbb9350613342929116908690600401614910565b602060405180830381600087803b15801561335c57600080fd5b505af1158015613370573d6000803e3d6000fd5b505050506040513d601f19601f820116820180604052508101906133949190614264565b50600183015460035460405163a9059cbb60e01b81526001600160a01b039283169263a9059cbb926133cd929116908590600401614910565b602060405180830381600087803b1580156133e757600080fd5b505af11580156133fb573d6000803e3d6000fd5b505050506040513d601f19601f8201168201806040525081019061341f9190614264565b50506001805550505050565b600254815160208301516040808501519051630b4c774160e11b81526000948594859485946001600160a01b0390931693631698ee82936134709392916004016147e0565b60206040518083038186803b15801561348857600080fd5b505afa15801561349c573d6000803e3d6000fd5b505050506040513d601f19601f820116820180604052508101906134c09190614185565b9350836001600160a01b0316630dfe16816040518163ffffffff1660e01b815260040160206040518083038186803b1580156134fb57600080fd5b505afa15801561350f573d6000803e3d6000fd5b505050506040513d601f19601f820116820180604052508101906135339190614185565b6001600160a01b031685600001516001600160a01b03161480156135dc5750836001600160a01b031663d21220a76040518163ffffffff1660e01b815260040160206040518083038186803b15801561358b57600080fd5b505afa15801561359f573d6000803e3d6000fd5b505050506040513d601f19601f820116820180604052508101906135c39190614185565b6001600160a01b031685602001516001600160a01b0316145b6135f85760405162461bcd60e51b81526004016103bb90614b1e565b6000846001600160a01b0316633850c7bd6040518163ffffffff1660e01b815260040160e06040518083038186803b15801561363357600080fd5b505afa158015613647573d6000803e3d6000fd5b505050506040513d601f19601f8201168201806040525081019061366b91906144ed565b50505050505090506136a0816136848860a00151613b20565b6136918960c00151613b20565b89606001518a60800151613e52565b91506000826001600160801b0316116136cb5760405162461bcd60e51b81526004016103bb90614c6c565b846001600160a01b0316633c8a7d8d308860a001518960c001518660405180608001604052808d600001516001600160a01b031681526020018d602001516001600160a01b031681526020018d6040015162ffffff168152602001336001600160a01b03168152506040516020016137439190614c97565b6040516020818303038152906040526040518663ffffffff1660e01b815260040161377295949392919061484e565b6040805180830381600087803b15801561378b57600080fd5b505af115801561379f573d6000803e3d6000fd5b505050506040513d601f19601f820116820180604052508101906137c3919061429c565b959790965091935090915050565b604080516bffffffffffffffffffffffff19606086901b16602080830191909152600285810b60e890811b60348501529085900b901b60378301528251601a818403018152603a90920190925280519101205b9392505050565b3390565b600082820183811015613889576040805162461bcd60e51b815260206004820152601b60248201527f536166654d6174683a206164646974696f6e206f766572666c6f770000000000604482015290519081900360640190fd5b90505b92915050565b6000826138a15750600061388c565b828202828482816138ae57fe5b04146138895760405162461bcd60e51b8152600401808060200182810382526021815260200180614e996021913960400191505060405180910390fd5b6000808211613941576040805162461bcd60e51b815260206004820152601a60248201527f536166654d6174683a206469766973696f6e206279207a65726f000000000000604482015290519081900360640190fd5b81838161394a57fe5b049392505050565b6000808060001985870986860292508281109083900303905080613988576000841161397d57600080fd5b508290049050613824565b80841161399457600080fd5b6000848688096000868103871696879004966002600389028118808a02820302808a02820302808a02820302808a02820302808a02820302808a02909103029181900381900460010186841190950394909402919094039290920491909117919091029150509392505050565b6001600160a01b0383161580613a9857506004805460405163396c0f9760e21b815284926001600160a01b039092169163e5b03e5c91613a459188918a910161478a565b60206040518083038186803b158015613a5d57600080fd5b505afa158015613a71573d6000803e3d6000fd5b505050506040513d601f19601f82011682018060405250810190613a9591906145b5565b10155b613ab45760405162461bcd60e51b81526004016103bb90614c1b565b60035460405163f0fcc6bb60e01b81526001600160a01b039091169063f0fcc6bb90613ae890879086908690600401614929565b600060405180830381600087803b158015613b0257600080fd5b505af1158015613b16573d6000803e3d6000fd5b5050505050505050565b60008060008360020b12613b37578260020b613b3f565b8260020b6000035b9050620d89e8811115613b7d576040805162461bcd60e51b81526020600482015260016024820152601560fa1b604482015290519081900360640190fd5b600060018216613b9157600160801b613ba3565b6ffffcb933bd6fad37aa2d162d1a5940015b70ffffffffffffffffffffffffffffffffff1690506002821615613bd7576ffff97272373d413259a46990580e213a0260801c5b6004821615613bf6576ffff2e50f5f656932ef12357cf3c7fdcc0260801c5b6008821615613c15576fffe5caca7e10e4e61c3624eaa0941cd00260801c5b6010821615613c34576fffcb9843d60f6159c9db58835c9266440260801c5b6020821615613c53576fff973b41fa98c081472e6896dfb254c00260801c5b6040821615613c72576fff2ea16466c96a3843ec78b326b528610260801c5b6080821615613c91576ffe5dee046a99a2a811c461f1969c30530260801c5b610100821615613cb1576ffcbe86c7900a88aedcffc83b479aa3a40260801c5b610200821615613cd1576ff987a7253ac413176f2b074cf7815e540260801c5b610400821615613cf1576ff3392b0822b70005940c7a398e4b70f30260801c5b610800821615613d11576fe7159475a2c29b7443b29c7fa6e889d90260801c5b611000821615613d31576fd097f3bdfd2022b8845ad8f792aa58250260801c5b612000821615613d51576fa9f746462d870fdf8a65dc1f90e061e50260801c5b614000821615613d71576f70d869a156d2a1b890bb3df62baf32f70260801c5b618000821615613d91576f31be135f97d08fd981231505542fcfa60260801c5b62010000821615613db2576f09aa508b5b7a84e1c677de54f3e99bc90260801c5b62020000821615613dd2576e5d6af8dedb81196699c329225ee6040260801c5b62040000821615613df1576d2216e584f5fa1ea926041bedfe980260801c5b62080000821615613e0e576b048a170391f7dc42444e8fa20260801c5b60008460020b1315613e29578060001981613e2557fe5b0490505b640100000000810615613e3d576001613e40565b60005b60ff16602082901c0192505050919050565b6000836001600160a01b0316856001600160a01b03161115613e72579293925b846001600160a01b0316866001600160a01b031611613e9d57613e96858585613f16565b9050613f0d565b836001600160a01b0316866001600160a01b03161015613eff576000613ec4878686613f16565b90506000613ed3878986613f79565b9050806001600160801b0316826001600160801b031610613ef45780613ef6565b815b92505050613f0d565b613f0a858584613f79565b90505b95945050505050565b6000826001600160a01b0316846001600160a01b03161115613f36579192915b6000613f59856001600160a01b0316856001600160a01b0316600160601b613952565b9050613f0d613f7484838888036001600160a01b0316613952565b613fbe565b6000826001600160a01b0316846001600160a01b03161115613f99579192915b613fb6613f7483600160601b8787036001600160a01b0316613952565b949350505050565b806001600160801b0381168114613fd457600080fd5b919050565b8035613fd481614e3d565b600082601f830112613ff4578081fd5b8151602061400961400483614e1f565b614dfb565b8281528181019085830183850287018401881015614025578586fd5b855b8581101561404357815184529284019290840190600101614027565b5090979650505050505050565b8035613fd481614e55565b60008083601f84011261406c578182fd5b50813567ffffffffffffffff811115614083578182fd5b60208301915083602082850101111561409b57600080fd5b9250929050565b8035613fd481614e63565b6000608082840312156140be578081fd5b6040516080810181811067ffffffffffffffff821117156140db57fe5b60405290508082356140ec81614e3d565b815260208301356140fc81614e3d565b602082015261410d60408401614156565b6040820152606083013561412081614e3d565b6060919091015292915050565b80516001600160801b0381168114613fd457600080fd5b805161ffff81168114613fd457600080fd5b803562ffffff81168114613fd457600080fd5b60006020828403121561417a578081fd5b813561388981614e3d565b600060208284031215614196578081fd5b815161388981614e3d565b600080604083850312156141b3578081fd5b825167ffffffffffffffff808211156141ca578283fd5b818501915085601f8301126141dd578283fd5b815160206141ed61400483614e1f565b82815281810190858301838502870184018b1015614209578788fd5b8796505b8487101561423457805161422081614e3d565b83526001969096019591830191830161420d565b509188015191965090935050508082111561424d578283fd5b5061425a85828601613fe4565b9150509250929050565b600060208284031215614275578081fd5b815161388981614e55565b600060208284031215614291578081fd5b813561388981614e63565b600080604083850312156142ae578182fd5b505080516020909101519092909150565b600080600080606085870312156142d4578182fd5b8435935060208501359250604085013567ffffffffffffffff8111156142f8578283fd5b6143048782880161405b565b95989497509550505050565b600060808284031215614321578081fd5b61382483836140ad565b600060e0828403121561433c578081fd5b50919050565b600060e08284031215614353578081fd5b60405160e0810181811067ffffffffffffffff8211171561437057fe5b60405261437c83613fd9565b815261438a60208401613fd9565b602082015261439b60408401614156565b604082015260608301356060820152608083013560808201526143c060a084016140a2565b60a08201526143d160c084016140a2565b60c08201529392505050565b600060e082840312156143ee578081fd5b60405160e0810181811067ffffffffffffffff8211171561440b57fe5b60405261441783613fd9565b815261442560208401613fd9565b602082015261443660408401614156565b6040820152606083013560608201526080830135608082015260a083013560a08201526143d160c08401614050565b60008060408385031215614477578182fd5b6144808361412d565b915061448e6020840161412d565b90509250929050565b600080600080600060a086880312156144ae578283fd5b6144b78661412d565b945060208601519350604086015192506144d36060870161412d565b91506144e16080870161412d565b90509295509295909350565b600080600080600080600060e0888a031215614507578485fd5b875161451281614e3d565b602089015190975061452381614e63565b955061453160408901614144565b945061453f60608901614144565b935061454d60808901614144565b925060a088015160ff81168114614562578283fd5b60c089015190925061457381614e55565b8091505092959891949750929550565b600060208284031215614594578081fd5b61382482614156565b6000602082840312156145ae578081fd5b5035919050565b6000602082840312156145c6578081fd5b5051919050565b60008082840360a08112156145e0578283fd5b833592506080601f19820112156145f5578182fd5b506040516080810181811067ffffffffffffffff8211171561461357fe5b604052602084013561462481614e63565b8152604084013561463481614e63565b60208201526060848101356040830152608090940135938101939093525092909150565b60008060006060848603121561466c578081fd5b505081359360208301359350604090920135919050565b6000815180845260208085019450808401835b838110156146bb5781516001600160a01b031687529582019590820190600101614696565b509495945050505050565b6000815180845260208085019450808401835b838110156146bb578151875295820195908201906001016146d9565b60008151808452815b8181101561471a576020818501810151868301820152016146fe565b8181111561472b5782602083870101525b50601f01601f19169290920160200192915050565b80516001600160a01b03908116835260208083015182169084015260408083015162ffffff169084015260609182015116910152565b6001600160a01b0391909116815260200190565b6001600160a01b0392831681529116602082015260400190565b6001600160a01b0396871681529486166020860152928516604085015293166060830152600f92830b608083015290910b60a082015260c00190565b6001600160a01b03938416815291909216602082015262ffffff909116604082015260600190565b6001600160a01b0386811682528515156020830152604082018590528316606082015260a060808201819052600090614843908301846146f5565b979650505050505050565b600060018060a01b03871682528560020b60208301528460020b60408301526001600160801b038416606083015260a0608083015261484360a08301846146f5565b6001600160a01b03959095168552600293840b60208601529190920b60408401526001600160801b03918216606084015216608082015260a00190565b6001600160a01b039390931683526020830191909152604082015260600190565b6001600160a01b039290921682526001600160801b0316602082015260400190565b6001600160a01b03929092168252602082015260400190565b6001600160a01b0393841681526020810192909252909116604082015260600190565b60006040825261495f6040830185614683565b8281036020840152613f0d81856146c6565b600060a0825261498460a0830188614683565b828103602084015261499681886146c6565b6040840196909652505060608101929092526001600160a01b031660809091015292915050565b60006101c0820190508b1515825260018060a01b03808c166020840152808b16604084015262ffffff8a1660608401528860808401528760a084015280871660c0840152508460e083015283610100830152825160020b610120830152602083015160020b610140830152604083015161016083015260608301516101808301526001600160801b036080840151166101a08301529b9a5050505050505050505050565b90815260200190565b600293840b81529190920b60208201526001600160801b03909116604082015260600190565b918252602082015260400190565b6020808252601490820152734e4f5420434c4f534520504552494f44204e4f5760601b604082015260600190565b6020808252600990820152684e4f204348414e474560b81b604082015260600190565b602080825260159082015274494e56414c494420535741502043414c4c4241434b60581b604082015260600190565b60208082526005908201526427a92222a960d91b604082015260600190565b6020808252600990820152682327a92124a22222a760b91b604082015260600190565b602080825260159082015274494e56414c4944204d494e542043414c4c4241434b60581b604082015260600190565b6020808252600d908201526c414c524541445920434c4f534560981b604082015260600190565b6020808252600c908201526b27279021a7a6a6a4a9a4a7a760a11b604082015260600190565b6020808252600490820152630534c49560e41b604082015260600190565b6020808252600790820152666e6f7420656f6160c81b604082015260600190565b6020808252600f908201526e4e4f20454e4f5547482051554f544160881b604082015260600190565b6020808252600e908201526d1253959053125108105353d5539560921b604082015260600190565b602080825260119082015270494e56414c4944204c495155494449545960781b604082015260600190565b6080810161388c8284614740565b6001600160801b0392831681529116602082015260400190565b6001600160b01b0391909116815260200190565b6001600160b01b039790971687526001600160a01b0395861660208801529385166040870152919093166060850152608084019290925260a08301919091526001600160801b031660c082015260e00190565b9283526001600160801b03918216602084015216604082015260600190565b92835260208301919091526001600160801b0316604082015260600190565b94855260208501939093526001600160801b039190911660408401526060830152608082015260a00190565b9283526020830191909152604082015260600190565b938452602084019290925260408301526001600160801b0316606082015260800190565b95865260208601949094526040850192909252606084015260808301526001600160801b031660a082015260c00190565b60405181810167ffffffffffffffff81118282101715614e1757fe5b604052919050565b600067ffffffffffffffff821115614e3357fe5b5060209081020190565b6001600160a01b0381168114614e5257600080fd5b50565b8015158114614e5257600080fd5b8060020b8114614e5257600080fdfe4f776e61626c653a206e6577206f776e657220697320746865207a65726f2061646472657373536166654d6174683a206d756c7469706c69636174696f6e206f766572666c6f774f776e61626c653a2063616c6c6572206973206e6f7420746865206f776e6572a264697066735822122017e325dc98a95f7218b42b7931fc46b0c578d79b2189d7162b8b87d6c27e168864736f6c63430007060033",
  "linkReferences": {},
  "deployedLinkReferences": {}
}