{
  "_format": "hh-sol-artifact-1",
  "contractName": "UniswapV3Strategy",
  "sourceName": "contracts/UniswapV3Strategy.sol",
  "abi": [
    {
      "inputs": [
        {
          "internalType": "contract IUniswapV3Factory",
          "name": "_factory",
          "type": "address"
        },
        {
          "internalType": "contract IUniswapV3WorkCenter",
          "name": "_work",
          "type": "address"
        },
        {
          "internalType": "contract IMulBank",
          "name": "_bank",
          "type": "address"
        },
        {
          "internalType": "address",
          "name": "_devAddr",
          "type": "address"
        }
      ],
      "stateMutability": "nonpayable",
      "type": "constructor"
    },
    {
      "anonymous": false,
      "inputs": [
        {
          "indexed": true,
          "internalType": "address",
          "name": "user",
          "type": "address"
        },
        {
          "indexed": false,
          "internalType": "uint256",
          "name": "positionId",
          "type": "uint256"
        },
        {
          "indexed": false,
          "internalType": "uint256",
          "name": "amount0",
          "type": "uint256"
        },
        {
          "indexed": false,
          "internalType": "uint256",
          "name": "amount1",
          "type": "uint256"
        },
        {
          "indexed": false,
          "internalType": "uint128",
          "name": "liquidity",
          "type": "uint128"
        }
      ],
      "name": "Add",
      "type": "event"
    },
    {
      "anonymous": false,
      "inputs": [
        {
          "indexed": true,
          "internalType": "address",
          "name": "user",
          "type": "address"
        },
        {
          "indexed": false,
          "internalType": "address[]",
          "name": "tokens",
          "type": "address[]"
        },
        {
          "indexed": false,
          "internalType": "uint256[]",
          "name": "commision",
          "type": "uint256[]"
        },
        {
          "indexed": false,
          "internalType": "uint256",
          "name": "devPercent",
          "type": "uint256"
        },
        {
          "indexed": false,
          "internalType": "uint256",
          "name": "gpPercent",
          "type": "uint256"
        },
        {
          "indexed": false,
          "internalType": "address",
          "name": "to",
          "type": "address"
        }
      ],
      "name": "ClaimCommision",
      "type": "event"
    },
    {
      "anonymous": false,
      "inputs": [
        {
          "indexed": true,
          "internalType": "address",
          "name": "user",
          "type": "address"
        },
        {
          "indexed": false,
          "internalType": "uint256",
          "name": "positionId",
          "type": "uint256"
        },
        {
          "indexed": false,
          "internalType": "uint256",
          "name": "fee0",
          "type": "uint256"
        },
        {
          "indexed": false,
          "internalType": "uint256",
          "name": "fee1",
          "type": "uint256"
        }
      ],
      "name": "Collect",
      "type": "event"
    },
    {
      "anonymous": false,
      "inputs": [
        {
          "indexed": true,
          "internalType": "address",
          "name": "user",
          "type": "address"
        },
        {
          "indexed": false,
          "internalType": "uint256",
          "name": "positionId",
          "type": "uint256"
        },
        {
          "indexed": false,
          "internalType": "uint256",
          "name": "amount0",
          "type": "uint256"
        },
        {
          "indexed": false,
          "internalType": "uint256",
          "name": "amount1",
          "type": "uint256"
        }
      ],
      "name": "Divest",
      "type": "event"
    },
    {
      "anonymous": false,
      "inputs": [
        {
          "indexed": true,
          "internalType": "address",
          "name": "user",
          "type": "address"
        },
        {
          "indexed": false,
          "internalType": "uint256",
          "name": "positionId",
          "type": "uint256"
        },
        {
          "indexed": false,
          "internalType": "address",
          "name": "pool",
          "type": "address"
        },
        {
          "indexed": false,
          "internalType": "address",
          "name": "token0",
          "type": "address"
        },
        {
          "indexed": false,
          "internalType": "address",
          "name": "token1",
          "type": "address"
        },
        {
          "indexed": false,
          "internalType": "uint256",
          "name": "invest0",
          "type": "uint256"
        },
        {
          "indexed": false,
          "internalType": "uint256",
          "name": "invest1",
          "type": "uint256"
        },
        {
          "indexed": false,
          "internalType": "uint128",
          "name": "liquidity",
          "type": "uint128"
        }
      ],
      "name": "Invest",
      "type": "event"
    },
    {
      "anonymous": false,
      "inputs": [
        {
          "indexed": true,
          "internalType": "address",
          "name": "previousOwner",
          "type": "address"
        },
        {
          "indexed": true,
          "internalType": "address",
          "name": "newOwner",
          "type": "address"
        }
      ],
      "name": "OwnershipTransferred",
      "type": "event"
    },
    {
      "anonymous": false,
      "inputs": [
        {
          "indexed": true,
          "internalType": "address",
          "name": "user",
          "type": "address"
        },
        {
          "indexed": false,
          "internalType": "address",
          "name": "pool",
          "type": "address"
        },
        {
          "indexed": false,
          "internalType": "int256",
          "name": "amount0",
          "type": "int256"
        },
        {
          "indexed": false,
          "internalType": "int256",
          "name": "amount1",
          "type": "int256"
        }
      ],
      "name": "Swap",
      "type": "event"
    },
    {
      "anonymous": false,
      "inputs": [
        {
          "indexed": true,
          "internalType": "address",
          "name": "user",
          "type": "address"
        },
        {
          "indexed": false,
          "internalType": "uint256",
          "name": "positionId",
          "type": "uint256"
        },
        {
          "indexed": false,
          "internalType": "uint256",
          "name": "exit0",
          "type": "uint256"
        },
        {
          "indexed": false,
          "internalType": "uint256",
          "name": "exit1",
          "type": "uint256"
        },
        {
          "indexed": false,
          "internalType": "uint256",
          "name": "invest0",
          "type": "uint256"
        },
        {
          "indexed": false,
          "internalType": "uint256",
          "name": "invest1",
          "type": "uint256"
        },
        {
          "indexed": false,
          "internalType": "uint128",
          "name": "liquidity",
          "type": "uint128"
        }
      ],
      "name": "Switching",
      "type": "event"
    },
    {
      "anonymous": false,
      "inputs": [
        {
          "indexed": false,
          "internalType": "address",
          "name": "oldAddr",
          "type": "address"
        },
        {
          "indexed": false,
          "internalType": "address",
          "name": "newAddr",
          "type": "address"
        }
      ],
      "name": "UpdateDev",
      "type": "event"
    },
    {
      "anonymous": false,
      "inputs": [
        {
          "indexed": false,
          "internalType": "address",
          "name": "oldAddr",
          "type": "address"
        },
        {
          "indexed": false,
          "internalType": "address",
          "name": "newAddr",
          "type": "address"
        }
      ],
      "name": "UpdateManage",
      "type": "event"
    },
    {
      "inputs": [],
      "name": "WETH9",
      "outputs": [
        {
          "internalType": "address",
          "name": "",
          "type": "address"
        }
      ],
      "stateMutability": "view",
      "type": "function"
    },
    {
      "inputs": [],
      "name": "_nextId",
      "outputs": [
        {
          "internalType": "uint176",
          "name": "",
          "type": "uint176"
        }
      ],
      "stateMutability": "view",
      "type": "function"
    },
    {
      "inputs": [
        {
          "internalType": "uint256",
          "name": "positionId",
          "type": "uint256"
        },
        {
          "internalType": "uint256",
          "name": "amount0Desired",
          "type": "uint256"
        },
        {
          "internalType": "uint256",
          "name": "amount1Desired",
          "type": "uint256"
        }
      ],
      "name": "add",
      "outputs": [
        {
          "internalType": "uint256",
          "name": "amount0",
          "type": "uint256"
        },
        {
          "internalType": "uint256",
          "name": "amount1",
          "type": "uint256"
        },
        {
          "internalType": "uint128",
          "name": "liquidity",
          "type": "uint128"
        }
      ],
      "stateMutability": "nonpayable",
      "type": "function"
    },
    {
      "inputs": [],
      "name": "bank",
      "outputs": [
        {
          "internalType": "contract IMulBank",
          "name": "",
          "type": "address"
        }
      ],
      "stateMutability": "view",
      "type": "function"
    },
    {
      "inputs": [
        {
          "internalType": "address",
          "name": "to",
          "type": "address"
        }
      ],
      "name": "claimCommision",
      "outputs": [
        {
          "internalType": "address[]",
          "name": "tokens",
          "type": "address[]"
        },
        {
          "internalType": "uint256[]",
          "name": "commision",
          "type": "uint256[]"
        }
      ],
      "stateMutability": "nonpayable",
      "type": "function"
    },
    {
      "inputs": [
        {
          "internalType": "uint256",
          "name": "positionId",
          "type": "uint256"
        }
      ],
      "name": "collect",
      "outputs": [
        {
          "internalType": "uint128",
          "name": "fee0",
          "type": "uint128"
        },
        {
          "internalType": "uint128",
          "name": "fee1",
          "type": "uint128"
        }
      ],
      "stateMutability": "nonpayable",
      "type": "function"
    },
    {
      "inputs": [],
      "name": "devAddr",
      "outputs": [
        {
          "internalType": "address",
          "name": "",
          "type": "address"
        }
      ],
      "stateMutability": "view",
      "type": "function"
    },
    {
      "inputs": [
        {
          "internalType": "uint256",
          "name": "positionId",
          "type": "uint256"
        }
      ],
      "name": "divest",
      "outputs": [
        {
          "internalType": "uint256",
          "name": "amount0",
          "type": "uint256"
        },
        {
          "internalType": "uint256",
          "name": "amount1",
          "type": "uint256"
        }
      ],
      "stateMutability": "nonpayable",
      "type": "function"
    },
    {
      "inputs": [],
      "name": "factory",
      "outputs": [
        {
          "internalType": "contract IUniswapV3Factory",
          "name": "",
          "type": "address"
        }
      ],
      "stateMutability": "view",
      "type": "function"
    },
    {
      "inputs": [
        {
          "components": [
            {
              "internalType": "address",
              "name": "token0",
              "type": "address"
            },
            {
              "internalType": "address",
              "name": "token1",
              "type": "address"
            },
            {
              "internalType": "uint24",
              "name": "fee",
              "type": "uint24"
            },
            {
              "internalType": "uint256",
              "name": "amount0Desired",
              "type": "uint256"
            },
            {
              "internalType": "uint256",
              "name": "amount1Desired",
              "type": "uint256"
            },
            {
              "internalType": "int24",
              "name": "tickLower",
              "type": "int24"
            },
            {
              "internalType": "int24",
              "name": "tickUpper",
              "type": "int24"
            }
          ],
          "internalType": "struct UniswapV3Strategy.MintParams",
          "name": "params",
          "type": "tuple"
        }
      ],
      "name": "invest",
      "outputs": [
        {
          "internalType": "uint256",
          "name": "amount0",
          "type": "uint256"
        },
        {
          "internalType": "uint256",
          "name": "amount1",
          "type": "uint256"
        },
        {
          "internalType": "uint128",
          "name": "liquidity",
          "type": "uint128"
        }
      ],
      "stateMutability": "nonpayable",
      "type": "function"
    },
    {
      "inputs": [],
      "name": "owner",
      "outputs": [
        {
          "internalType": "address",
          "name": "",
          "type": "address"
        }
      ],
      "stateMutability": "view",
      "type": "function"
    },
    {
      "inputs": [
        {
          "internalType": "uint256",
          "name": "",
          "type": "uint256"
        }
      ],
      "name": "positions",
      "outputs": [
        {
          "internalType": "bool",
          "name": "close",
          "type": "bool"
        },
        {
          "internalType": "address",
          "name": "token0",
          "type": "address"
        },
        {
          "internalType": "address",
          "name": "token1",
          "type": "address"
        },
        {
          "internalType": "uint24",
          "name": "fee",
          "type": "uint24"
        },
        {
          "internalType": "uint256",
          "name": "debt0",
          "type": "uint256"
        },
        {
          "internalType": "uint256",
          "name": "debt1",
          "type": "uint256"
        },
        {
          "internalType": "address",
          "name": "operator",
          "type": "address"
        },
        {
          "internalType": "uint256",
          "name": "exit0",
          "type": "uint256"
        },
        {
          "internalType": "uint256",
          "name": "exit1",
          "type": "uint256"
        },
        {
          "components": [
            {
              "internalType": "int24",
              "name": "tickLower",
              "type": "int24"
            },
            {
              "internalType": "int24",
              "name": "tickUpper",
              "type": "int24"
            },
            {
              "internalType": "uint256",
              "name": "feeGrowthInside0LastX128",
              "type": "uint256"
            },
            {
              "internalType": "uint256",
              "name": "feeGrowthInside1LastX128",
              "type": "uint256"
            },
            {
              "internalType": "uint128",
              "name": "liquidity",
              "type": "uint128"
            }
          ],
          "internalType": "struct UniswapV3Strategy.Tick",
          "name": "tick",
          "type": "tuple"
        }
      ],
      "stateMutability": "view",
      "type": "function"
    },
    {
      "inputs": [],
      "name": "renounceOwnership",
      "outputs": [],
      "stateMutability": "nonpayable",
      "type": "function"
    },
    {
      "inputs": [
        {
          "components": [
            {
              "internalType": "address",
              "name": "token0",
              "type": "address"
            },
            {
              "internalType": "address",
              "name": "token1",
              "type": "address"
            },
            {
              "internalType": "uint24",
              "name": "fee",
              "type": "uint24"
            },
            {
              "internalType": "int256",
              "name": "amountSpecified",
              "type": "int256"
            },
            {
              "internalType": "uint256",
              "name": "amountOutMin",
              "type": "uint256"
            },
            {
              "internalType": "uint256",
              "name": "amountInMax",
              "type": "uint256"
            },
            {
              "internalType": "bool",
              "name": "zeroOne",
              "type": "bool"
            }
          ],
          "internalType": "struct UniswapV3Strategy.SwapParams",
          "name": "params",
          "type": "tuple"
        }
      ],
      "name": "swap",
      "outputs": [
        {
          "internalType": "int256",
          "name": "amount0",
          "type": "int256"
        },
        {
          "internalType": "int256",
          "name": "amount1",
          "type": "int256"
        }
      ],
      "stateMutability": "nonpayable",
      "type": "function"
    },
    {
      "inputs": [
        {
          "components": [
            {
              "internalType": "address",
              "name": "token0",
              "type": "address"
            },
            {
              "internalType": "address",
              "name": "token1",
              "type": "address"
            },
            {
              "internalType": "uint24",
              "name": "fee",
              "type": "uint24"
            },
            {
              "internalType": "int256",
              "name": "amountSpecified",
              "type": "int256"
            },
            {
              "internalType": "uint256",
              "name": "amountOutMin",
              "type": "uint256"
            },
            {
              "internalType": "uint256",
              "name": "amountInMax",
              "type": "uint256"
            },
            {
              "internalType": "bool",
              "name": "zeroOne",
              "type": "bool"
            }
          ],
          "internalType": "struct UniswapV3Strategy.SwapParams",
          "name": "params",
          "type": "tuple"
        }
      ],
      "name": "swapByOwner",
      "outputs": [
        {
          "internalType": "int256",
          "name": "amount0",
          "type": "int256"
        },
        {
          "internalType": "int256",
          "name": "amount1",
          "type": "int256"
        }
      ],
      "stateMutability": "nonpayable",
      "type": "function"
    },
    {
      "inputs": [
        {
          "internalType": "uint256",
          "name": "positionId",
          "type": "uint256"
        },
        {
          "components": [
            {
              "internalType": "int24",
              "name": "tickLower",
              "type": "int24"
            },
            {
              "internalType": "int24",
              "name": "tickUpper",
              "type": "int24"
            },
            {
              "internalType": "uint256",
              "name": "amount0Desired",
              "type": "uint256"
            },
            {
              "internalType": "uint256",
              "name": "amount1Desired",
              "type": "uint256"
            }
          ],
          "internalType": "struct UniswapV3Strategy.SwitchParams",
          "name": "params",
          "type": "tuple"
        }
      ],
      "name": "switching",
      "outputs": [
        {
          "internalType": "uint256",
          "name": "amount0",
          "type": "uint256"
        },
        {
          "internalType": "uint256",
          "name": "amount1",
          "type": "uint256"
        },
        {
          "internalType": "uint128",
          "name": "liquidity",
          "type": "uint128"
        },
        {
          "internalType": "uint256",
          "name": "exit0",
          "type": "uint256"
        },
        {
          "internalType": "uint256",
          "name": "exit1",
          "type": "uint256"
        }
      ],
      "stateMutability": "nonpayable",
      "type": "function"
    },
    {
      "inputs": [
        {
          "internalType": "address",
          "name": "newOwner",
          "type": "address"
        }
      ],
      "name": "transferOwnership",
      "outputs": [],
      "stateMutability": "nonpayable",
      "type": "function"
    },
    {
      "inputs": [
        {
          "internalType": "uint256",
          "name": "amount0Owed",
          "type": "uint256"
        },
        {
          "internalType": "uint256",
          "name": "amount1Owed",
          "type": "uint256"
        },
        {
          "internalType": "bytes",
          "name": "data",
          "type": "bytes"
        }
      ],
      "name": "uniswapV3MintCallback",
      "outputs": [],
      "stateMutability": "nonpayable",
      "type": "function"
    },
    {
      "inputs": [
        {
          "internalType": "int256",
          "name": "amount0Delta",
          "type": "int256"
        },
        {
          "internalType": "int256",
          "name": "amount1Delta",
          "type": "int256"
        },
        {
          "internalType": "bytes",
          "name": "_data",
          "type": "bytes"
        }
      ],
      "name": "uniswapV3SwapCallback",
      "outputs": [],
      "stateMutability": "nonpayable",
      "type": "function"
    },
    {
      "inputs": [
        {
          "internalType": "address",
          "name": "_devAddr",
          "type": "address"
        }
      ],
      "name": "updateDev",
      "outputs": [],
      "stateMutability": "nonpayable",
      "type": "function"
    },
    {
      "inputs": [],
      "name": "work",
      "outputs": [
        {
          "internalType": "contract IUniswapV3WorkCenter",
          "name": "",
          "type": "address"
        }
      ],
      "stateMutability": "view",
      "type": "function"
    }
  ],
  "bytecode": "0x60a0604052600680546001600160b01b03191690553480156200002157600080fd5b50604051620051123803806200511283398101604081905262000044916200023a565b60006200005062000210565b600080546001600160a01b0319166001600160a01b0383169081178255604051929350917f8be0079c531659141344cd1fd0a4f28419497f9722a3daafe3b4186f6b6457e0908290a350600180556001600160a01b038416620000d05760405162461bcd60e51b8152600401620000c790620002a1565b60405180910390fd5b6001600160a01b038316620000f95760405162461bcd60e51b8152600401620000c790620002a1565b6001600160a01b038216620001225760405162461bcd60e51b8152600401620000c790620002a1565b600280546001600160a01b03199081166001600160a01b0387811691909117909255600480548216868416178155600380548316868516179081905560078054909316858516179092553060601b608052604080516312a9293f60e21b815290519290931692634aa4a4fc9281830192602092829003018186803b158015620001aa57600080fd5b505afa158015620001bf573d6000803e3d6000fd5b505050506040513d601f19601f82011682018060405250810190620001e5919062000214565b600580546001600160a01b0319166001600160a01b039290921691909117905550620002e392505050565b3390565b60006020828403121562000226578081fd5b81516200023381620002ca565b9392505050565b6000806000806080858703121562000250578283fd5b84516200025d81620002ca565b60208601519094506200027081620002ca565b60408601519093506200028381620002ca565b60608601519092506200029681620002ca565b939692955090935050565b6020808252600f908201526e494e56414c49445f4144445245535360881b604082015260600190565b6001600160a01b0381168114620002e057600080fd5b50565b60805160601c614e0262000310600039806103bb528061082e52806112495280611bc35250614e026000f3fe608060405234801561001057600080fd5b50600436106101375760003560e01c8063934c1938116100b8578063ce3f865f1161007c578063ce3f865f14610281578063d3487997146102a2578063da09c72c146102b5578063f2f2fff5146102bd578063f2fde38b146102d2578063fa461e33146102e557610137565b8063934c1938146102095780639461f6801461021c57806399fbab881461022f578063b0a75d3314610258578063c45a01551461027957610137565b8063505fb46c116100ff578063505fb46c146101ba578063715018a6146101dc57806376cdb03b146101e65780638ca17995146101ee5780638da5cb5b1461020157610137565b80631ee2adc31461013c578063322e9f041461016657806334f4e8e11461017b5780634aa4a4fc1461019f5780634f22342d146101a7575b600080fd5b61014f61014a3660046142d0565b6102f8565b60405161015d929190614983565b60405180910390f35b61016e610760565b60405161015d9190614669565b61018e6101893660046144c0565b61076f565b60405161015d959493929190614c57565b61016e610e9a565b61014f6101b53660046142d0565b610ea9565b6101cd6101c836600461454b565b61118d565b60405161015d93929190614c38565b6101e4611561565b005b61016e61160d565b61014f6101fc366004614490565b61161c565b61016e611a2d565b6101e461021736600461405c565b611a3c565b6101cd61022a36600461421e565b611b07565b61024261023d366004614490565b611fb9565b60405161015d9a999897969594939291906148b0565b61026b61026636600461405c565b61208a565b60405161015d92919061483f565b61016e61236b565b61029461028f366004614490565b61237a565b60405161015d929190614b98565b6101e46102b03660046141b2565b612aa3565b61016e612c28565b6102c5612c37565b60405161015d9190614bb2565b6101e46102e036600461405c565b612c46565b6101e46102f33660046141b2565b612d48565b600080600360009054906101000a90046001600160a01b03166001600160a01b03166373e029986040518163ffffffff1660e01b815260040160206040518083038186803b15801561034957600080fd5b505afa15801561035d573d6000803e3d6000fd5b505050506040513d601f19601f820116820180604052508101906103819190614157565b6103a65760405162461bcd60e51b815260040161039d90614991565b60405180910390fd5b33321480156103dd5750306001600160a01b037f000000000000000000000000000000000000000000000000000000000000000016145b6103f95760405162461bcd60e51b815260040161039d90614aed565b600254835160208501516040808701519051630b4c774160e11b81526000946001600160a01b031693631698ee82936104399391929091906004016146d3565b60206040518083038186803b15801561045157600080fd5b505afa158015610465573d6000803e3d6000fd5b505050506040513d601f19601f820116820180604052508101906104899190614078565b60048054604051633111fc1760e11b815292935060009283926001600160a01b0390921691636223f82e916104c291339188910161467d565b604080518083038186803b1580156104d957600080fd5b505afa1580156104ed573d6000803e3d6000fd5b505050506040513d601f19601f82011682018060405250810190610511919061418f565b60035460c089015160608a01519395509193506001600160a01b038681169363128acb089391909216918161055a5773fffd8963efd1fc6a506488495d951d5263988d25610561565b6401000276a45b60405180608001604052808d600001516001600160a01b031681526020018d602001516001600160a01b031681526020018d6040015162ffffff168152602001336001600160a01b03168152506040516020016105be9190614b8a565b6040516020818303038152906040526040518663ffffffff1660e01b81526004016105ed9594939291906146fb565b6040805180830381600087803b15801561060657600080fd5b505af115801561061a573d6000803e3d6000fd5b505050506040513d601f19601f8201168201806040525081019061063e919061418f565b60c0880151919650945080156106545750848212155b8061066c57508560c0015115801561066c5750838112155b6106885760405162461bcd60e51b815260040161039d90614b37565b606086015160001280156106d95760008087136106a857866000036106ad565b856000035b905087608001518110156106d35760405162461bcd60e51b815260040161039d90614acf565b50610712565b60008087136106e857856106ea565b865b90508760a001518111156107105760405162461bcd60e51b815260040161039d90614acf565b505b336001600160a01b03167fa4228e1eb11eb9b31069d9ed20e7af9a010ca1a02d4855cee54e08e188fcc32c85888860405161074f939291906147c0565b60405180910390a250505050915091565b6004546001600160a01b031681565b6000806000806000600360009054906101000a90046001600160a01b03166001600160a01b03166373e029986040518163ffffffff1660e01b815260040160206040518083038186803b1580156107c557600080fd5b505afa1580156107d9573d6000803e3d6000fd5b505050506040513d601f19601f820116820180604052508101906107fd9190614157565b6108195760405162461bcd60e51b815260040161039d90614991565b33321480156108505750306001600160a01b037f000000000000000000000000000000000000000000000000000000000000000016145b61086c5760405162461bcd60e51b815260040161039d90614aed565b8660006008828154811061087c57fe5b60009182526020918290206040805161014081018252600b909302909101805460ff8116151584526001600160a01b036101009182900481168587015260018301548082168686015262ffffff600160a01b90910416606080870191909152600280850154608080890191909152600386015460a0808a01919091526004870154851660c08a01908152600588015460e08b01526006880154968a019690965287519081018852600787015480840b840b840b825263010000009004830b830b90920b98820198909852600885015495810195909552600984015490850152600a909201546001600160801b031694830194909452610120830191909152915190925033911614806109a65750610991611a2d565b6001600160a01b0316336001600160a01b0316145b6109c25760405162461bcd60e51b815260040161039d90614a30565b80511580156109e357506000816101200151608001516001600160801b0316115b6109ff5760405162461bcd60e51b815260040161039d90614a82565b600060088a81548110610a0e57fe5b90600052602060002090600b020190506000816007019050610a2f8b61237a565b505080548a51600291820b820b910b141580610a615750805460208b0151600290810b6301000000909204810b900b14155b610a7d5760405162461bcd60e51b815260040161039d906149bf565b60025482546001840154604051630b4c774160e11b81526000936001600160a01b0390811693631698ee8293610acf93610100909204831692811691600160a01b90910462ffffff16906004016146d3565b60206040518083038186803b158015610ae757600080fd5b505afa158015610afb573d6000803e3d6000fd5b505050506040513d601f19601f82011682018060405250810190610b1f9190614078565b8254600384015460405163a34123a760e01b81529293506001600160a01b0384169263a34123a792610b7092600282810b936301000000909304900b916001600160801b039091169060040161495d565b6040805180830381600087803b158015610b8957600080fd5b505af1158015610b9d573d6000803e3d6000fd5b505050506040513d601f19601f82011682018060405250810190610bc1919061418f565b83546040516309e3d67b60e31b81529299509097506001600160a01b03831691634f1eb3d891610c0a913091600281810b926301000000909204900b908d908d90600401614783565b6040805180830381600087803b158015610c2357600080fd5b505af1158015610c37573d6000803e3d6000fd5b505050506040513d601f19601f82011682018060405250810190610c5b9190614358565b5050610c678c82612e67565b6040805160e081018252845461010090046001600160a01b0390811682526001860154908116602080840191909152600160a01b90910462ffffff1682840152918d01516060808301919091528d015160808201528c51600290810b60a0830152918d015190910b60c0820152610cdd90613198565b809b50819c50829d50839450505050508a600001518260000160006101000a81548162ffffff021916908360020b62ffffff1602179055508a602001518260000160036101000a81548162ffffff021916908360020b62ffffff160217905550898360020181905550888360030181905550878260030160006101000a8154816001600160801b0302191690836001600160801b03160217905550806001600160a01b031663514ea4bf610db4308560000160009054906101000a900460020b8660000160039054906101000a900460020b61353e565b6040518263ffffffff1660e01b8152600401610dd09190614954565b60a06040518083038186803b158015610de857600080fd5b505afa158015610dfc573d6000803e3d6000fd5b505050506040513d601f19601f82011682018060405250810190610e20919061438a565b9091929350905050836001016000856002016000849190505583919050555050336001600160a01b03167fac5f524e27716331e4a51cc66fa8c5214162347ac93bb8180289a25ebd9d5a688d89898e8e8e604051610e8396959493929190614cbd565b60405180910390a250505050509295509295909350565b6005546001600160a01b031681565b600080610eb4613598565b6001600160a01b0316610ec5611a2d565b6001600160a01b031614610f0e576040805162461bcd60e51b81526020600482018190526024820152600080516020614dad833981519152604482015290519081900360640190fd5b600254835160208501516040808701519051630b4c774160e11b81526000946001600160a01b031693631698ee8293610f4e9391929091906004016146d3565b60206040518083038186803b158015610f6657600080fd5b505afa158015610f7a573d6000803e3d6000fd5b505050506040513d601f19601f82011682018060405250810190610f9e9190614078565b60035460c086015160608701519293506001600160a01b038085169363128acb0893909116919081610fe45773fffd8963efd1fc6a506488495d951d5263988d25610feb565b6401000276a45b604080516080810182528b516001600160a01b0390811682526020808e0151909116818301528c83015162ffffff16828401526000606083015291516110319201614b8a565b6040516020818303038152906040526040518663ffffffff1660e01b81526004016110609594939291906146fb565b6040805180830381600087803b15801561107957600080fd5b505af115801561108d573d6000803e3d6000fd5b505050506040513d601f19601f820116820180604052508101906110b1919061418f565b6060860151919450925060001280156111075760008085136110d657846000036110db565b836000035b905085608001518110156111015760405162461bcd60e51b815260040161039d90614acf565b50611140565b60008085136111165783611118565b845b90508560a0015181111561113e5760405162461bcd60e51b815260040161039d90614acf565b505b60006001600160a01b03167fa4228e1eb11eb9b31069d9ed20e7af9a010ca1a02d4855cee54e08e188fcc32c83868660405161117e939291906147c0565b60405180910390a25050915091565b6000806000600360009054906101000a90046001600160a01b03166001600160a01b03166373e029986040518163ffffffff1660e01b815260040160206040518083038186803b1580156111e057600080fd5b505afa1580156111f4573d6000803e3d6000fd5b505050506040513d601f19601f820116820180604052508101906112189190614157565b6112345760405162461bcd60e51b815260040161039d90614991565b333214801561126b5750306001600160a01b037f000000000000000000000000000000000000000000000000000000000000000016145b6112875760405162461bcd60e51b815260040161039d90614aed565b8560006008828154811061129757fe5b60009182526020918290206040805161014081018252600b909302909101805460ff8116151584526001600160a01b036101009182900481168587015260018301548082168686015262ffffff600160a01b90910416606080870191909152600280850154608080890191909152600386015460a0808a01919091526004870154851660c08a01908152600588015460e08b01526006880154968a019690965287519081018852600787015480840b840b840b825263010000009004830b830b90920b98820198909852600885015495810195909552600984015490850152600a909201546001600160801b031694830194909452610120830191909152915190925033911614806113c157506113ac611a2d565b6001600160a01b0316336001600160a01b0316145b6113dd5760405162461bcd60e51b815260040161039d90614a30565b80511580156113fe57506000816101200151608001516001600160801b0316115b61141a5760405162461bcd60e51b815260040161039d90614a82565b60006008898154811061142957fe5b600091825260208083206040805160e081018252600b94909402909101805461010090046001600160a01b039081168552600182015490811693850193909352600160a01b90920462ffffff1690830152606082018b9052608082018a90526007810154600281810b810b60a08501526301000000909104810b900b60c083015292506114b590613198565b9199509750955090506114c78a61237a565b5050600a820180546001600160801b038082168801166001600160801b031990911617905560028201546114fb908861359c565b6002830155600382015461150f908761359c565b600383015560405133907f4e26bf96a4004dbd9e7a6bf889ebc8fbb0b98057476634c8a62ce133ed35ec3a9061154c908d908b908b908b90614c99565b60405180910390a25050505093509350939050565b611569613598565b6001600160a01b031661157a611a2d565b6001600160a01b0316146115c3576040805162461bcd60e51b81526020600482018190526024820152600080516020614dad833981519152604482015290519081900360640190fd5b600080546040516001600160a01b03909116907f8be0079c531659141344cd1fd0a4f28419497f9722a3daafe3b4186f6b6457e0908390a3600080546001600160a01b0319169055565b6003546001600160a01b031681565b6000808260006008828154811061162f57fe5b60009182526020918290206040805161014081018252600b909302909101805460ff8116151584526001600160a01b036101009182900481168587015260018301548082168686015262ffffff600160a01b90910416606080870191909152600280850154608080890191909152600386015460a0808a01919091526004870154851660c08a01908152600588015460e08b01526006880154968a019690965287519081018852600787015480840b840b840b825263010000009004830b830b90920b98820198909852600885015495810195909552600984015490850152600a909201546001600160801b031694830194909452610120830191909152915190925033911614806117595750611744611a2d565b6001600160a01b0316336001600160a01b0316145b6117755760405162461bcd60e51b815260040161039d90614a30565b805115801561179657506000816101200151608001516001600160801b0316115b6117b25760405162461bcd60e51b815260040161039d90614a82565b6000600886815481106117c157fe5b90600052602060002090600b020190506117da8661237a565b505060025481546001830154604051630b4c774160e11b81526000936001600160a01b0390811693631698ee829361182e93610100909204831692811691600160a01b90910462ffffff16906004016146d3565b60206040518083038186803b15801561184657600080fd5b505afa15801561185a573d6000803e3d6000fd5b505050506040513d601f19601f8201168201806040525081019061187e9190614078565b6007830154600a84015460405163a34123a760e01b81529293506001600160a01b0384169263a34123a7926118d292600282810b936301000000909304900b916001600160801b039091169060040161495d565b6040805180830381600087803b1580156118eb57600080fd5b505af11580156118ff573d6000803e3d6000fd5b505050506040513d601f19601f82011682018060405250810190611923919061418f565b60078401546040516309e3d67b60e31b81529298509096506001600160a01b03831691634f1eb3d89161196f913091600281810b926301000000909204900b908c908c90600401614783565b6040805180830381600087803b15801561198857600080fd5b505af115801561199c573d6000803e3d6000fd5b505050506040513d601f19601f820116820180604052508101906119c09190614358565b50506119cc8782612e67565b600a820180546001600160801b03191690556005820186905560068201859055815460ff1916600117825560405133907f51527f281a5cab89f6d95e0051766e4abe2f4390765a23b856ae420c28f1414c9061074f908a908a908a90614c83565b6000546001600160a01b031690565b611a44613598565b6001600160a01b0316611a55611a2d565b6001600160a01b031614611a9e576040805162461bcd60e51b81526020600482018190526024820152600080516020614dad833981519152604482015290519081900360640190fd5b6007546040517f3fce9d7d330a5a5fdddc43ed93d6ea4968d4fd6727aab8843d2a6016f1bf4b7791611add916001600160a01b0390911690849061467d565b60405180910390a1600780546001600160a01b0319166001600160a01b0392909216919091179055565b6000806000600360009054906101000a90046001600160a01b03166001600160a01b03166373e029986040518163ffffffff1660e01b815260040160206040518083038186803b158015611b5a57600080fd5b505afa158015611b6e573d6000803e3d6000fd5b505050506040513d601f19601f82011682018060405250810190611b929190614157565b611bae5760405162461bcd60e51b815260040161039d90614991565b3332148015611be55750306001600160a01b037f000000000000000000000000000000000000000000000000000000000000000016145b611c015760405162461bcd60e51b815260040161039d90614aed565b6000611c1a611c1536879003870187614235565b613198565b9196509450925090506000611c4e30611c3960c0890160a08a01614173565b611c4960e08a0160c08b01614173565b61353e565b9050600080836001600160a01b031663514ea4bf846040518263ffffffff1660e01b8152600401611c7f9190614954565b60a06040518083038186803b158015611c9757600080fd5b505afa158015611cab573d6000803e3d6000fd5b505050506040513d601f19601f82011682018060405250810190611ccf919061438a565b5050925092505060006040518060a001604052808a60a0016020810190611cf69190614173565b60020b8152602001611d0e60e08c0160c08d01614173565b60020b8152602001848152602001838152602001876001600160801b0316815250905060086040518061014001604052806000151581526020018b6000016020810190611d5b919061405c565b6001600160a01b031681526020018b6020016020810190611d7c919061405c565b6001600160a01b03168152602001611d9a60608d0160408e01614476565b62ffffff908116825260208083018d905260408084018d90523360608086018290526000608080880182905260a080890183905260c09889018c90528a5460018082018d559b8452928790208a51600b9094020180548b89015160ff1990911694151594909417610100600160a81b0319166101006001600160a01b0395861681029190911782558b8801519c820180548d8801516001600160a01b03199182169f88169f909f1762ffffff60a01b1916600160a01b9f8d169f909f029e909e1790558b840151600280840191909155928c01516003830155998b0151600482018054909d16941693909317909a5560e08901516005830155968801516006808301919091556101209098015180516007830180548389015162ffffff19909116928d0b8a169290921765ffffff0000001916630100000092909c0b90981602999099179095559187015160088501559086015160098401559490920151600a90910180546001600160801b0319166001600160801b0390921691909117905590547f277685e2349c727f8c026893d1d41063f1e92d4092c5d38613f40eac70f3c6f2916001600160b01b03909116908890611f58908e018e61405c565b8d6020016020810190611f6b919061405c565b8d8d8d604051611f819796959493929190614bc6565b60405180910390a25050600680546001600160b01b03808216600101166001600160b01b031990911617905550939592945090925050565b60088181548110611fc957600080fd5b6000918252602091829020600b91909102018054600182015460028084015460038501546004860154600587015460068801546040805160a08101825260078b015480890b890b890b825263010000009004880b880b90970b9a87019a909a5260088901549986019990995260098801546060860152600a909701546001600160801b0316608085015260ff861698506101009095046001600160a01b039081169781861697600160a01b90960462ffffff1696939592949190931692908a565b60048054604051630f41a04d60e11b815260609283926001600160a01b031691631e83409a916120bc91339101614669565b600060405180830381600087803b1580156120d657600080fd5b505af11580156120ea573d6000803e3d6000fd5b505050506040513d6000823e601f3d908101601f191682016040526121129190810190614094565b60048054604051637ea1915960e01b815293955091935060009283926001600160a01b031691637ea191599161214a91339101614669565b602060405180830381600087803b15801561216457600080fd5b505af1158015612178573d6000803e3d6000fd5b505050506040513d601f19601f8201168201806040525081019061219c91906144a8565b90506000600460009054906101000a90046001600160a01b03166001600160a01b031663fc3c28af6040518163ffffffff1660e01b8152600401602060405180830381600087803b1580156121f057600080fd5b505af1158015612204573d6000803e3d6000fd5b505050506040513d601f19601f8201168201806040525081019061222891906144a8565b905060005b85518110156122fc57600085828151811061224457fe5b602002602001015111156122f45760006122866127106122808589868151811061226a57fe5b60200260200101516135ff90919063ffffffff16565b90613658565b90506122b587838151811061229757fe5b602090810291909101015160075483906001600160a01b03166136bf565b60006122cd612710612280878a878151811061226a57fe5b90506122ed8884815181106122de57fe5b6020026020010151828b6136bf565b6001955050505b60010161222d565b508261231a5760405162461bcd60e51b815260040161039d90614aa9565b336001600160a01b03167fc43c77f762220ae6f0e226f5948a446a43635876c160c29ecebe259fedf3a4e1868684868b60405161235b959493929190614864565b60405180910390a2505050915091565b6002546001600160a01b031681565b600080600260015414156123d5576040805162461bcd60e51b815260206004820152601f60248201527f5265656e7472616e637947756172643a207265656e7472616e742063616c6c00604482015290519081900360640190fd5b6002600181905550826000600882815481106123ed57fe5b60009182526020918290206040805161014081018252600b909302909101805460ff8116151584526001600160a01b036101009182900481168587015260018301548082168686015262ffffff600160a01b90910416606080870191909152600280850154608080890191909152600386015460a0808a01919091526004870154851660c08a01908152600588015460e08b01526006880154968a019690965287519081018852600787015480840b840b840b825263010000009004830b830b90920b98820198909852600885015495810195909552600984015490850152600a909201546001600160801b031694830194909452610120830191909152915190925033911614806125175750612502611a2d565b6001600160a01b0316336001600160a01b0316145b6125335760405162461bcd60e51b815260040161039d90614a30565b805115801561255457506000816101200151608001516001600160801b0316115b6125705760405162461bcd60e51b815260040161039d90614a82565b60006008868154811061257f57fe5b600091825260208220600254600b929092020180546001820154604051630b4c774160e11b81529295506007860194936001600160a01b0390811693631698ee82936125e793610100909104831692811691600160a01b90910462ffffff16906004016146d3565b60206040518083038186803b1580156125ff57600080fd5b505afa158015612613573d6000803e3d6000fd5b505050506040513d601f19601f820116820180604052508101906126379190614078565b825460405163a34123a760e01b81529192506001600160a01b0383169163a34123a79161267991600282810b9263010000009004900b9060009060040161495d565b6040805180830381600087803b15801561269257600080fd5b505af11580156126a6573d6000803e3d6000fd5b505050506040513d601f19601f820116820180604052508101906126ca919061418f565b5050815460009081906001600160a01b0384169063514ea4bf906126fe903090600281810b9163010000009004900b61353e565b6040518263ffffffff1660e01b815260040161271a9190614954565b60a06040518083038186803b15801561273257600080fd5b505afa158015612746573d6000803e3d6000fd5b505050506040513d601f19601f8201168201806040525081019061276a919061438a565b50506001870154600388015492955090935061279792508403906001600160801b0316600160801b613845565b60028501546003860154919a506127bf91908303906001600160801b0316600160801b613845565b84546040516309e3d67b60e31b81529199506001600160a01b03851691634f1eb3d891612805913091600281810b926301000000909204900b908f908f90600401614783565b6040805180830381600087803b15801561281e57600080fd5b505af1158015612832573d6000803e3d6000fd5b505050506040513d601f19601f820116820180604052508101906128569190614358565b6001860184905560028601839055865460035460405163a9059cbb60e01b8152939c50919a506001600160a01b0361010090910481169263a9059cbb926128a39216908d906004016147e1565b602060405180830381600087803b1580156128bd57600080fd5b505af11580156128d1573d6000803e3d6000fd5b505050506040513d601f19601f820116820180604052508101906128f59190614157565b50600185015460035460405163a9059cbb60e01b81526001600160a01b039283169263a9059cbb9261292e929116908c906004016147e1565b602060405180830381600087803b15801561294857600080fd5b505af115801561295c573d6000803e3d6000fd5b505050506040513d601f19601f820116820180604052508101906129809190614157565b50600460009054906101000a90046001600160a01b03166001600160a01b031663402609618660040160009054906101000a90046001600160a01b0316858860000160019054906101000a90046001600160a01b03168960010160009054906101000a90046001600160a01b03168e8e6040518763ffffffff1660e01b8152600401612a1196959493929190614697565b600060405180830381600087803b158015612a2b57600080fd5b505af1158015612a3f573d6000803e3d6000fd5b50505060048601546040516001600160a01b0390911691507fde5e3abbba77c313e4f5881ab0685bbbbb54f38b5cfbdd6230e88642a5df29f190612a88908d908d908d90614c19565b60405180910390a25050505050505060018081905550915091565b6000612ab182840184614203565b600254815160208301516040808501519051630b4c774160e11b81529495506001600160a01b0390931693631698ee8293612af09392916004016146d3565b60206040518083038186803b158015612b0857600080fd5b505afa158015612b1c573d6000803e3d6000fd5b505050506040513d601f19601f82011682018060405250810190612b409190614078565b6001600160a01b0316336001600160a01b031614612b705760405162461bcd60e51b815260040161039d90614a53565b8415612b8a57612b8a8160000151826060015187336138f4565b8315612ba457612ba48160200151826060015186336138f4565b60048054606083015183516020850151604051634026096160e01b81526001600160a01b0390941694634026096194612bef949333939092909160008e810392908e90039101614697565b600060405180830381600087803b158015612c0957600080fd5b505af1158015612c1d573d6000803e3d6000fd5b505050505050505050565b6007546001600160a01b031681565b6006546001600160b01b031681565b612c4e613598565b6001600160a01b0316612c5f611a2d565b6001600160a01b031614612ca8576040805162461bcd60e51b81526020600482018190526024820152600080516020614dad833981519152604482015290519081900360640190fd5b6001600160a01b038116612ced5760405162461bcd60e51b8152600401808060200182810382526026815260200180614d666026913960400191505060405180910390fd5b600080546040516001600160a01b03808516939216917f8be0079c531659141344cd1fd0a4f28419497f9722a3daafe3b4186f6b6457e091a3600080546001600160a01b0319166001600160a01b0392909216919091179055565b6000841380612d575750600083135b612d6057600080fd5b6000612d6e82840184614203565b600254815160208301516040808501519051630b4c774160e11b81529495506001600160a01b0390931693631698ee8293612dad9392916004016146d3565b60206040518083038186803b158015612dc557600080fd5b505afa158015612dd9573d6000803e3d6000fd5b505050506040513d601f19601f82011682018060405250810190612dfd9190614078565b6001600160a01b0316336001600160a01b031614612e2d5760405162461bcd60e51b815260040161039d906149e2565b6000851315612e4a57612e4a8160000151826060015187336138f4565b6000841315612ba457612ba48160200151826060015186336138f4565b60026001541415612ebf576040805162461bcd60e51b815260206004820152601f60248201527f5265656e7472616e637947756172643a207265656e7472616e742063616c6c00604482015290519081900360640190fd5b6002600181905550600060088381548110612ed657fe5b600091825260208220600b9091020180546040516370a0823160e01b81529193506001600160a01b0361010090910416906370a0823190612f1b903090600401614669565b60206040518083038186803b158015612f3357600080fd5b505afa158015612f47573d6000803e3d6000fd5b505050506040513d601f19601f82011682018060405250810190612f6b91906144a8565b60018301546040516370a0823160e01b81529192506000916001600160a01b03909116906370a0823190612fa3903090600401614669565b60206040518083038186803b158015612fbb57600080fd5b505afa158015612fcf573d6000803e3d6000fd5b505050506040513d601f19601f82011682018060405250810190612ff391906144a8565b600480548582015486546001880154604051634026096160e01b81529596506001600160a01b039384169563402609619561304295948516948c94610100900481169316918a918a9101614697565b600060405180830381600087803b15801561305c57600080fd5b505af1158015613070573d6000803e3d6000fd5b5050845460035460405163a9059cbb60e01b81526101009092046001600160a01b03908116945063a9059cbb93506130af929116908690600401614803565b602060405180830381600087803b1580156130c957600080fd5b505af11580156130dd573d6000803e3d6000fd5b505050506040513d601f19601f820116820180604052508101906131019190614157565b50600183015460035460405163a9059cbb60e01b81526001600160a01b039283169263a9059cbb9261313a929116908590600401614803565b602060405180830381600087803b15801561315457600080fd5b505af1158015613168573d6000803e3d6000fd5b505050506040513d601f19601f8201168201806040525081019061318c9190614157565b50506001805550505050565b600254815160208301516040808501519051630b4c774160e11b81526000948594859485946001600160a01b0390931693631698ee82936131dd9392916004016146d3565b60206040518083038186803b1580156131f557600080fd5b505afa158015613209573d6000803e3d6000fd5b505050506040513d601f19601f8201168201806040525081019061322d9190614078565b9350836001600160a01b0316630dfe16816040518163ffffffff1660e01b815260040160206040518083038186803b15801561326857600080fd5b505afa15801561327c573d6000803e3d6000fd5b505050506040513d601f19601f820116820180604052508101906132a09190614078565b6001600160a01b031685600001516001600160a01b03161480156133495750836001600160a01b031663d21220a76040518163ffffffff1660e01b815260040160206040518083038186803b1580156132f857600080fd5b505afa15801561330c573d6000803e3d6000fd5b505050506040513d601f19601f820116820180604052508101906133309190614078565b6001600160a01b031685602001516001600160a01b0316145b6133655760405162461bcd60e51b815260040161039d90614a11565b6000846001600160a01b0316633850c7bd6040518163ffffffff1660e01b815260040160e06040518083038186803b1580156133a057600080fd5b505afa1580156133b4573d6000803e3d6000fd5b505050506040513d601f19601f820116820180604052508101906133d891906143e0565b505050505050905061340d816133f18860a00151613a13565b6133fe8960c00151613a13565b89606001518a60800151613d45565b91506000826001600160801b0316116134385760405162461bcd60e51b815260040161039d90614b5f565b846001600160a01b0316633c8a7d8d308860a001518960c001518660405180608001604052808d600001516001600160a01b031681526020018d602001516001600160a01b031681526020018d6040015162ffffff168152602001336001600160a01b03168152506040516020016134b09190614b8a565b6040516020818303038152906040526040518663ffffffff1660e01b81526004016134df959493929190614741565b6040805180830381600087803b1580156134f857600080fd5b505af115801561350c573d6000803e3d6000fd5b505050506040513d601f19601f82011682018060405250810190613530919061418f565b959790965091935090915050565b604080516bffffffffffffffffffffffff19606086901b16602080830191909152600285810b60e890811b60348501529085900b901b60378301528251601a818403018152603a90920190925280519101205b9392505050565b3390565b6000828201838110156135f6576040805162461bcd60e51b815260206004820152601b60248201527f536166654d6174683a206164646974696f6e206f766572666c6f770000000000604482015290519081900360640190fd5b90505b92915050565b60008261360e575060006135f9565b8282028284828161361b57fe5b04146135f65760405162461bcd60e51b8152600401808060200182810382526021815260200180614d8c6021913960400191505060405180910390fd5b60008082116136ae576040805162461bcd60e51b815260206004820152601a60248201527f536166654d6174683a206469766973696f6e206279207a65726f000000000000604482015290519081900360640190fd5b8183816136b757fe5b049392505050565b6005546001600160a01b03848116911614156137d95760035460405163f0fcc6bb60e01b81526001600160a01b039091169063f0fcc6bb906137099086908690309060040161481c565b600060405180830381600087803b15801561372357600080fd5b505af1158015613737573d6000803e3d6000fd5b5050600554604051632e1a7d4d60e01b81526001600160a01b039091169250632e1a7d4d915061376b908590600401614954565b600060405180830381600087803b15801561378557600080fd5b505af1158015613799573d6000803e3d6000fd5b50506040516001600160a01b038416925084156108fc02915084906000818181858888f193505050501580156137d3573d6000803e3d6000fd5b50613840565b60035460405163f0fcc6bb60e01b81526001600160a01b039091169063f0fcc6bb9061380d9086908690869060040161481c565b600060405180830381600087803b15801561382757600080fd5b505af115801561383b573d6000803e3d6000fd5b505050505b505050565b600080806000198587098686029250828110908390030390508061387b576000841161387057600080fd5b508290049050613591565b80841161388757600080fd5b6000848688096000868103871696879004966002600389028118808a02820302808a02820302808a02820302808a02820302808a02820302808a02909103029181900381900460010186841190950394909402919094039290920491909117919091029150509392505050565b6001600160a01b038316158061398b57506004805460405163396c0f9760e21b815284926001600160a01b039092169163e5b03e5c916139389188918a910161467d565b60206040518083038186803b15801561395057600080fd5b505afa158015613964573d6000803e3d6000fd5b505050506040513d601f19601f8201168201806040525081019061398891906144a8565b10155b6139a75760405162461bcd60e51b815260040161039d90614b0e565b60035460405163f0fcc6bb60e01b81526001600160a01b039091169063f0fcc6bb906139db9087908690869060040161481c565b600060405180830381600087803b1580156139f557600080fd5b505af1158015613a09573d6000803e3d6000fd5b5050505050505050565b60008060008360020b12613a2a578260020b613a32565b8260020b6000035b9050620d89e8811115613a70576040805162461bcd60e51b81526020600482015260016024820152601560fa1b604482015290519081900360640190fd5b600060018216613a8457600160801b613a96565b6ffffcb933bd6fad37aa2d162d1a5940015b70ffffffffffffffffffffffffffffffffff1690506002821615613aca576ffff97272373d413259a46990580e213a0260801c5b6004821615613ae9576ffff2e50f5f656932ef12357cf3c7fdcc0260801c5b6008821615613b08576fffe5caca7e10e4e61c3624eaa0941cd00260801c5b6010821615613b27576fffcb9843d60f6159c9db58835c9266440260801c5b6020821615613b46576fff973b41fa98c081472e6896dfb254c00260801c5b6040821615613b65576fff2ea16466c96a3843ec78b326b528610260801c5b6080821615613b84576ffe5dee046a99a2a811c461f1969c30530260801c5b610100821615613ba4576ffcbe86c7900a88aedcffc83b479aa3a40260801c5b610200821615613bc4576ff987a7253ac413176f2b074cf7815e540260801c5b610400821615613be4576ff3392b0822b70005940c7a398e4b70f30260801c5b610800821615613c04576fe7159475a2c29b7443b29c7fa6e889d90260801c5b611000821615613c24576fd097f3bdfd2022b8845ad8f792aa58250260801c5b612000821615613c44576fa9f746462d870fdf8a65dc1f90e061e50260801c5b614000821615613c64576f70d869a156d2a1b890bb3df62baf32f70260801c5b618000821615613c84576f31be135f97d08fd981231505542fcfa60260801c5b62010000821615613ca5576f09aa508b5b7a84e1c677de54f3e99bc90260801c5b62020000821615613cc5576e5d6af8dedb81196699c329225ee6040260801c5b62040000821615613ce4576d2216e584f5fa1ea926041bedfe980260801c5b62080000821615613d01576b048a170391f7dc42444e8fa20260801c5b60008460020b1315613d1c578060001981613d1857fe5b0490505b640100000000810615613d30576001613d33565b60005b60ff16602082901c0192505050919050565b6000836001600160a01b0316856001600160a01b03161115613d65579293925b846001600160a01b0316866001600160a01b031611613d9057613d89858585613e09565b9050613e00565b836001600160a01b0316866001600160a01b03161015613df2576000613db7878686613e09565b90506000613dc6878986613e6c565b9050806001600160801b0316826001600160801b031610613de75780613de9565b815b92505050613e00565b613dfd858584613e6c565b90505b95945050505050565b6000826001600160a01b0316846001600160a01b03161115613e29579192915b6000613e4c856001600160a01b0316856001600160a01b0316600160601b613845565b9050613e00613e6784838888036001600160a01b0316613845565b613eb1565b6000826001600160a01b0316846001600160a01b03161115613e8c579192915b613ea9613e6783600160601b8787036001600160a01b0316613845565b949350505050565b806001600160801b0381168114613ec757600080fd5b919050565b8035613ec781614d30565b600082601f830112613ee7578081fd5b81516020613efc613ef783614d12565b614cee565b8281528181019085830183850287018401881015613f18578586fd5b855b85811015613f3657815184529284019290840190600101613f1a565b5090979650505050505050565b8035613ec781614d48565b60008083601f840112613f5f578182fd5b50813567ffffffffffffffff811115613f76578182fd5b602083019150836020828501011115613f8e57600080fd5b9250929050565b8035613ec781614d56565b600060808284031215613fb1578081fd5b6040516080810181811067ffffffffffffffff82111715613fce57fe5b6040529050808235613fdf81614d30565b81526020830135613fef81614d30565b602082015261400060408401614049565b6040820152606083013561401381614d30565b6060919091015292915050565b80516001600160801b0381168114613ec757600080fd5b805161ffff81168114613ec757600080fd5b803562ffffff81168114613ec757600080fd5b60006020828403121561406d578081fd5b81356135f681614d30565b600060208284031215614089578081fd5b81516135f681614d30565b600080604083850312156140a6578081fd5b825167ffffffffffffffff808211156140bd578283fd5b818501915085601f8301126140d0578283fd5b815160206140e0613ef783614d12565b82815281810190858301838502870184018b10156140fc578788fd5b8796505b8487101561412757805161411381614d30565b835260019690960195918301918301614100565b5091880151919650909350505080821115614140578283fd5b5061414d85828601613ed7565b9150509250929050565b600060208284031215614168578081fd5b81516135f681614d48565b600060208284031215614184578081fd5b81356135f681614d56565b600080604083850312156141a1578182fd5b505080516020909101519092909150565b600080600080606085870312156141c7578182fd5b8435935060208501359250604085013567ffffffffffffffff8111156141eb578283fd5b6141f787828801613f4e565b95989497509550505050565b600060808284031215614214578081fd5b6135918383613fa0565b600060e0828403121561422f578081fd5b50919050565b600060e08284031215614246578081fd5b60405160e0810181811067ffffffffffffffff8211171561426357fe5b60405261426f83613ecc565b815261427d60208401613ecc565b602082015261428e60408401614049565b604082015260608301356060820152608083013560808201526142b360a08401613f95565b60a08201526142c460c08401613f95565b60c08201529392505050565b600060e082840312156142e1578081fd5b60405160e0810181811067ffffffffffffffff821117156142fe57fe5b60405261430a83613ecc565b815261431860208401613ecc565b602082015261432960408401614049565b6040820152606083013560608201526080830135608082015260a083013560a08201526142c460c08401613f43565b6000806040838503121561436a578182fd5b61437383614020565b915061438160208401614020565b90509250929050565b600080600080600060a086880312156143a1578283fd5b6143aa86614020565b945060208601519350604086015192506143c660608701614020565b91506143d460808701614020565b90509295509295909350565b600080600080600080600060e0888a0312156143fa578485fd5b875161440581614d30565b602089015190975061441681614d56565b955061442460408901614037565b945061443260608901614037565b935061444060808901614037565b925060a088015160ff81168114614455578283fd5b60c089015190925061446681614d48565b8091505092959891949750929550565b600060208284031215614487578081fd5b61359182614049565b6000602082840312156144a1578081fd5b5035919050565b6000602082840312156144b9578081fd5b5051919050565b60008082840360a08112156144d3578283fd5b833592506080601f19820112156144e8578182fd5b506040516080810181811067ffffffffffffffff8211171561450657fe5b604052602084013561451781614d56565b8152604084013561452781614d56565b60208201526060848101356040830152608090940135938101939093525092909150565b60008060006060848603121561455f578081fd5b505081359360208301359350604090920135919050565b6000815180845260208085019450808401835b838110156145ae5781516001600160a01b031687529582019590820190600101614589565b509495945050505050565b6000815180845260208085019450808401835b838110156145ae578151875295820195908201906001016145cc565b60008151808452815b8181101561460d576020818501810151868301820152016145f1565b8181111561461e5782602083870101525b50601f01601f19169290920160200192915050565b80516001600160a01b03908116835260208083015182169084015260408083015162ffffff169084015260609182015116910152565b6001600160a01b0391909116815260200190565b6001600160a01b0392831681529116602082015260400190565b6001600160a01b0396871681529486166020860152928516604085015293166060830152600f92830b608083015290910b60a082015260c00190565b6001600160a01b03938416815291909216602082015262ffffff909116604082015260600190565b6001600160a01b0386811682528515156020830152604082018590528316606082015260a060808201819052600090614736908301846145e8565b979650505050505050565b600060018060a01b03871682528560020b60208301528460020b60408301526001600160801b038416606083015260a0608083015261473660a08301846145e8565b6001600160a01b03959095168552600293840b60208601529190920b60408401526001600160801b03918216606084015216608082015260a00190565b6001600160a01b039390931683526020830191909152604082015260600190565b6001600160a01b039290921682526001600160801b0316602082015260400190565b6001600160a01b03929092168252602082015260400190565b6001600160a01b0393841681526020810192909252909116604082015260600190565b6000604082526148526040830185614576565b8281036020840152613e0081856145b9565b600060a0825261487760a0830188614576565b828103602084015261488981886145b9565b6040840196909652505060608101929092526001600160a01b031660809091015292915050565b60006101c0820190508b1515825260018060a01b03808c166020840152808b16604084015262ffffff8a1660608401528860808401528760a084015280871660c0840152508460e083015283610100830152825160020b610120830152602083015160020b610140830152604083015161016083015260608301516101808301526001600160801b036080840151166101a08301529b9a5050505050505050505050565b90815260200190565b600293840b81529190920b60208201526001600160801b03909116604082015260600190565b918252602082015260400190565b6020808252601490820152734e4f5420434c4f534520504552494f44204e4f5760601b604082015260600190565b6020808252600990820152684e4f204348414e474560b81b604082015260600190565b602080825260159082015274494e56414c494420535741502043414c4c4241434b60581b604082015260600190565b60208082526005908201526427a92222a960d91b604082015260600190565b6020808252600990820152682327a92124a22222a760b91b604082015260600190565b602080825260159082015274494e56414c4944204d494e542043414c4c4241434b60581b604082015260600190565b6020808252600d908201526c414c524541445920434c4f534560981b604082015260600190565b6020808252600c908201526b27279021a7a6a6a4a9a4a7a760a11b604082015260600190565b6020808252600490820152630534c49560e41b604082015260600190565b6020808252600790820152666e6f7420656f6160c81b604082015260600190565b6020808252600f908201526e4e4f20454e4f5547482051554f544160881b604082015260600190565b6020808252600e908201526d1253959053125108105353d5539560921b604082015260600190565b602080825260119082015270494e56414c4944204c495155494449545960781b604082015260600190565b608081016135f98284614633565b6001600160801b0392831681529116602082015260400190565b6001600160b01b0391909116815260200190565b6001600160b01b039790971687526001600160a01b0395861660208801529385166040870152919093166060850152608084019290925260a08301919091526001600160801b031660c082015260e00190565b9283526001600160801b03918216602084015216604082015260600190565b92835260208301919091526001600160801b0316604082015260600190565b94855260208501939093526001600160801b039190911660408401526060830152608082015260a00190565b9283526020830191909152604082015260600190565b938452602084019290925260408301526001600160801b0316606082015260800190565b95865260208601949094526040850192909252606084015260808301526001600160801b031660a082015260c00190565b60405181810167ffffffffffffffff81118282101715614d0a57fe5b604052919050565b600067ffffffffffffffff821115614d2657fe5b5060209081020190565b6001600160a01b0381168114614d4557600080fd5b50565b8015158114614d4557600080fd5b8060020b8114614d4557600080fdfe4f776e61626c653a206e6577206f776e657220697320746865207a65726f2061646472657373536166654d6174683a206d756c7469706c69636174696f6e206f766572666c6f774f776e61626c653a2063616c6c6572206973206e6f7420746865206f776e6572a26469706673582212207258e540f630610d36e1b341481bb56c8f670842e589e3f2d982bfb10dc9c6d764736f6c63430007060033",
  "linkReferences": {},
  "deployedLinkReferences": {}
}