{
  "_format": "hh-sol-artifact-1",
  "contractName": "MulWork",
  "sourceName": "contracts/UniswapV3WorkCenter.sol",
  "abi": [
    {
      "inputs": [
        {
          "internalType": "contract IERC721",
          "name": "_gpToken",
          "type": "address"
        }
      ],
      "stateMutability": "nonpayable",
      "type": "constructor"
    },
    {
      "anonymous": false,
      "inputs": [
        {
          "indexed": true,
          "internalType": "address",
          "name": "user",
          "type": "address"
        },
        {
          "indexed": false,
          "internalType": "uint256",
          "name": "workerId",
          "type": "uint256"
        }
      ],
      "name": "AccountCreated",
      "type": "event"
    },
    {
      "anonymous": false,
      "inputs": [
        {
          "indexed": true,
          "internalType": "address",
          "name": "permission",
          "type": "address"
        }
      ],
      "name": "AddPermission",
      "type": "event"
    },
    {
      "anonymous": false,
      "inputs": [
        {
          "indexed": true,
          "internalType": "address",
          "name": "permission",
          "type": "address"
        }
      ],
      "name": "DelPermission",
      "type": "event"
    },
    {
      "anonymous": false,
      "inputs": [
        {
          "indexed": true,
          "internalType": "address",
          "name": "previousOwner",
          "type": "address"
        },
        {
          "indexed": true,
          "internalType": "address",
          "name": "newOwner",
          "type": "address"
        }
      ],
      "name": "OwnershipTransferred",
      "type": "event"
    },
    {
      "anonymous": false,
      "inputs": [
        {
          "indexed": false,
          "internalType": "address",
          "name": "worker",
          "type": "address"
        },
        {
          "indexed": false,
          "internalType": "address[]",
          "name": "tokens",
          "type": "address[]"
        },
        {
          "indexed": false,
          "internalType": "int128[]",
          "name": "amounts",
          "type": "int128[]"
        }
      ],
      "name": "SetQuota",
      "type": "event"
    },
    {
      "anonymous": false,
      "inputs": [
        {
          "indexed": false,
          "internalType": "address",
          "name": "worker",
          "type": "address"
        },
        {
          "indexed": false,
          "internalType": "address[]",
          "name": "pools",
          "type": "address[]"
        },
        {
          "indexed": false,
          "internalType": "bool[]",
          "name": "enable",
          "type": "bool[]"
        }
      ],
      "name": "SetWhiteList",
      "type": "event"
    },
    {
      "anonymous": false,
      "inputs": [
        {
          "indexed": false,
          "internalType": "address",
          "name": "worker",
          "type": "address"
        },
        {
          "indexed": false,
          "internalType": "address",
          "name": "poolAddress",
          "type": "address"
        },
        {
          "indexed": false,
          "internalType": "address",
          "name": "token0",
          "type": "address"
        },
        {
          "indexed": false,
          "internalType": "address",
          "name": "token1",
          "type": "address"
        },
        {
          "indexed": false,
          "internalType": "int128",
          "name": "profit0",
          "type": "int128"
        },
        {
          "indexed": false,
          "internalType": "int128",
          "name": "profit1",
          "type": "int128"
        }
      ],
      "name": "Settle",
      "type": "event"
    },
    {
      "anonymous": false,
      "inputs": [
        {
          "indexed": false,
          "internalType": "address[]",
          "name": "pools",
          "type": "address[]"
        },
        {
          "indexed": false,
          "internalType": "bool[]",
          "name": "enable",
          "type": "bool[]"
        }
      ],
      "name": "SwitchPool",
      "type": "event"
    },
    {
      "anonymous": false,
      "inputs": [
        {
          "indexed": false,
          "internalType": "address[]",
          "name": "workers",
          "type": "address[]"
        },
        {
          "indexed": false,
          "internalType": "bool[]",
          "name": "enable",
          "type": "bool[]"
        }
      ],
      "name": "SwitchSwap",
      "type": "event"
    },
    {
      "inputs": [],
      "name": "GPToken",
      "outputs": [
        {
          "internalType": "contract IERC721",
          "name": "",
          "type": "address"
        }
      ],
      "stateMutability": "view",
      "type": "function"
    },
    {
      "inputs": [
        {
          "internalType": "address",
          "name": "_addPermission",
          "type": "address"
        }
      ],
      "name": "addPermission",
      "outputs": [
        {
          "internalType": "bool",
          "name": "",
          "type": "bool"
        }
      ],
      "stateMutability": "nonpayable",
      "type": "function"
    },
    {
      "inputs": [],
      "name": "cntOfWorker",
      "outputs": [
        {
          "internalType": "uint256",
          "name": "",
          "type": "uint256"
        }
      ],
      "stateMutability": "view",
      "type": "function"
    },
    {
      "inputs": [
        {
          "internalType": "address",
          "name": "",
          "type": "address"
        }
      ],
      "name": "commonPools",
      "outputs": [
        {
          "internalType": "bool",
          "name": "",
          "type": "bool"
        }
      ],
      "stateMutability": "view",
      "type": "function"
    },
    {
      "inputs": [
        {
          "internalType": "address",
          "name": "_delPermission",
          "type": "address"
        }
      ],
      "name": "delPermission",
      "outputs": [
        {
          "internalType": "bool",
          "name": "",
          "type": "bool"
        }
      ],
      "stateMutability": "nonpayable",
      "type": "function"
    },
    {
      "inputs": [
        {
          "internalType": "uint256",
          "name": "_index",
          "type": "uint256"
        }
      ],
      "name": "getPermission",
      "outputs": [
        {
          "internalType": "address",
          "name": "",
          "type": "address"
        }
      ],
      "stateMutability": "view",
      "type": "function"
    },
    {
      "inputs": [],
      "name": "getPermissionLength",
      "outputs": [
        {
          "internalType": "uint256",
          "name": "",
          "type": "uint256"
        }
      ],
      "stateMutability": "view",
      "type": "function"
    },
    {
      "inputs": [
        {
          "internalType": "address",
          "name": "worker",
          "type": "address"
        },
        {
          "internalType": "address",
          "name": "token",
          "type": "address"
        }
      ],
      "name": "getRemainQuota",
      "outputs": [
        {
          "internalType": "uint256",
          "name": "",
          "type": "uint256"
        }
      ],
      "stateMutability": "view",
      "type": "function"
    },
    {
      "inputs": [
        {
          "internalType": "address",
          "name": "worker",
          "type": "address"
        },
        {
          "internalType": "address",
          "name": "poolAddress",
          "type": "address"
        }
      ],
      "name": "getSwapQuota",
      "outputs": [
        {
          "internalType": "int256",
          "name": "amount0",
          "type": "int256"
        },
        {
          "internalType": "int256",
          "name": "amount1",
          "type": "int256"
        }
      ],
      "stateMutability": "view",
      "type": "function"
    },
    {
      "inputs": [
        {
          "internalType": "address",
          "name": "account",
          "type": "address"
        }
      ],
      "name": "isPermission",
      "outputs": [
        {
          "internalType": "bool",
          "name": "",
          "type": "bool"
        }
      ],
      "stateMutability": "view",
      "type": "function"
    },
    {
      "inputs": [
        {
          "internalType": "address",
          "name": "from",
          "type": "address"
        },
        {
          "internalType": "address",
          "name": "",
          "type": "address"
        },
        {
          "internalType": "uint256",
          "name": "workerId",
          "type": "uint256"
        },
        {
          "internalType": "bytes",
          "name": "",
          "type": "bytes"
        }
      ],
      "name": "onERC721Received",
      "outputs": [
        {
          "internalType": "bytes4",
          "name": "",
          "type": "bytes4"
        }
      ],
      "stateMutability": "nonpayable",
      "type": "function"
    },
    {
      "inputs": [],
      "name": "owner",
      "outputs": [
        {
          "internalType": "address",
          "name": "",
          "type": "address"
        }
      ],
      "stateMutability": "view",
      "type": "function"
    },
    {
      "inputs": [
        {
          "internalType": "address",
          "name": "",
          "type": "address"
        }
      ],
      "name": "poolList",
      "outputs": [
        {
          "components": [
            {
              "internalType": "int128",
              "name": "unbalance0",
              "type": "int128"
            },
            {
              "internalType": "int128",
              "name": "unbalance1",
              "type": "int128"
            }
          ],
          "internalType": "struct MulWork.Info",
          "name": "total",
          "type": "tuple"
        }
      ],
      "stateMutability": "view",
      "type": "function"
    },
    {
      "inputs": [
        {
          "internalType": "address",
          "name": "",
          "type": "address"
        },
        {
          "internalType": "address",
          "name": "",
          "type": "address"
        }
      ],
      "name": "profits",
      "outputs": [
        {
          "internalType": "int128",
          "name": "",
          "type": "int128"
        }
      ],
      "stateMutability": "view",
      "type": "function"
    },
    {
      "inputs": [
        {
          "internalType": "address",
          "name": "",
          "type": "address"
        },
        {
          "internalType": "address",
          "name": "",
          "type": "address"
        }
      ],
      "name": "quotas",
      "outputs": [
        {
          "internalType": "int128",
          "name": "",
          "type": "int128"
        }
      ],
      "stateMutability": "view",
      "type": "function"
    },
    {
      "inputs": [],
      "name": "renounceOwnership",
      "outputs": [],
      "stateMutability": "nonpayable",
      "type": "function"
    },
    {
      "inputs": [
        {
          "internalType": "address",
          "name": "worker",
          "type": "address"
        },
        {
          "internalType": "address[]",
          "name": "tokens",
          "type": "address[]"
        },
        {
          "internalType": "int128[]",
          "name": "amounts",
          "type": "int128[]"
        }
      ],
      "name": "setQuota",
      "outputs": [],
      "stateMutability": "nonpayable",
      "type": "function"
    },
    {
      "inputs": [
        {
          "internalType": "address",
          "name": "worker",
          "type": "address"
        },
        {
          "internalType": "address[]",
          "name": "pools",
          "type": "address[]"
        },
        {
          "internalType": "bool[]",
          "name": "enable",
          "type": "bool[]"
        }
      ],
      "name": "setWhiteList",
      "outputs": [],
      "stateMutability": "nonpayable",
      "type": "function"
    },
    {
      "inputs": [
        {
          "internalType": "address",
          "name": "worker",
          "type": "address"
        },
        {
          "internalType": "address",
          "name": "poolAddress",
          "type": "address"
        },
        {
          "internalType": "address",
          "name": "token0",
          "type": "address"
        },
        {
          "internalType": "address",
          "name": "token1",
          "type": "address"
        },
        {
          "internalType": "int128",
          "name": "profit0",
          "type": "int128"
        },
        {
          "internalType": "int128",
          "name": "profit1",
          "type": "int128"
        }
      ],
      "name": "settle",
      "outputs": [],
      "stateMutability": "nonpayable",
      "type": "function"
    },
    {
      "inputs": [
        {
          "internalType": "address[]",
          "name": "pools",
          "type": "address[]"
        },
        {
          "internalType": "bool[]",
          "name": "enable",
          "type": "bool[]"
        }
      ],
      "name": "switchPool",
      "outputs": [],
      "stateMutability": "nonpayable",
      "type": "function"
    },
    {
      "inputs": [
        {
          "internalType": "address[]",
          "name": "users",
          "type": "address[]"
        },
        {
          "internalType": "bool[]",
          "name": "enable",
          "type": "bool[]"
        }
      ],
      "name": "switchSwap",
      "outputs": [],
      "stateMutability": "nonpayable",
      "type": "function"
    },
    {
      "inputs": [
        {
          "internalType": "address",
          "name": "newOwner",
          "type": "address"
        }
      ],
      "name": "transferOwnership",
      "outputs": [],
      "stateMutability": "nonpayable",
      "type": "function"
    },
    {
      "inputs": [
        {
          "internalType": "address",
          "name": "",
          "type": "address"
        },
        {
          "internalType": "address",
          "name": "",
          "type": "address"
        }
      ],
      "name": "whilelist",
      "outputs": [
        {
          "internalType": "bool",
          "name": "",
          "type": "bool"
        }
      ],
      "stateMutability": "view",
      "type": "function"
    },
    {
      "inputs": [
        {
          "internalType": "address",
          "name": "",
          "type": "address"
        }
      ],
      "name": "workers",
      "outputs": [
        {
          "internalType": "bool",
          "name": "created",
          "type": "bool"
        },
        {
          "internalType": "uint256",
          "name": "workerId",
          "type": "uint256"
        }
      ],
      "stateMutability": "view",
      "type": "function"
    }
  ],
  "bytecode": "0x60806040523480156200001157600080fd5b5060405162001c4438038062001c448339810160408190526200003491620000e6565b600062000040620000e2565b600080546001600160a01b0319166001600160a01b0383169081178255604051929350917f8be0079c531659141344cd1fd0a4f28419497f9722a3daafe3b4186f6b6457e0908290a3506001600160a01b038116620000bc5760405162461bcd60e51b8152600401620000b39062000116565b60405180910390fd5b600380546001600160a01b0319166001600160a01b03929092169190911790556200013f565b3390565b600060208284031215620000f8578081fd5b81516001600160a01b03811681146200010f578182fd5b9392505050565b6020808252600f908201526e494e56414c49445f4144445245535360881b604082015260600190565b611af5806200014f6000396000f3fe608060405234801561001057600080fd5b50600436106101585760003560e01c8063715018a6116100c3578063de7ceed71161007c578063de7ceed7146102f1578063e0faa9a214610304578063e0fe5f6214610317578063e5b03e5c1461032a578063f2fde38b1461033d578063ffb5e2761461035057610158565b8063715018a61461029357806374d3896d1461029b5780638da5cb5b146102a3578063a36cc981146102ab578063b1af99cf146102cb578063be199988146102de57610158565b80634ffc82ea116101155780634ffc82ea146102025780635530d414146102175780635a604f8a146102375780636223f82e1461024c57806367dd2f7d1461026d5780636b0d4a851461028057610158565b8063048c279d1461015d578063150b7a02146101725780632e0bc7941461019b57806340260961146101bb5780634048a257146101ce5780634d0a5dbd146101ef575b600080fd5b61017061016b366004611617565b610363565b005b610185610180366004611510565b6104d1565b6040516101929190611914565b60405180910390f35b6101ae6101a936600461146b565b610598565b60405161019291906118f9565b6101706101c936600461149d565b6105b8565b6101e16101dc366004611451565b610743565b604051610192929190611904565b6101ae6101fd366004611451565b610762565b61020a610852565b60405161019291906119b4565b61022a61022536600461146b565b610863565b6040516101929190611929565b61023f610883565b60405161019291906117d3565b61025f61025a36600461146b565b610892565b604051610192929190611937565b61022a61027b36600461146b565b61090f565b6101ae61028e366004611451565b61092f565b610170610944565b61020a6109f0565b61023f6109f6565b6102be6102b9366004611451565b610a05565b6040516101929190611996565b6101ae6102d9366004611451565b610a43565b6101706102ec3660046116e6565b610b2b565b6101706102ff3660046115a6565b610c35565b6101ae610312366004611451565b610d79565b6101706103253660046116e6565b610d86565b61020a61033836600461146b565b610ea5565b61017061034b366004611451565b610f37565b61023f61035e366004611747565b611039565b61036b611107565b6001600160a01b031661037c6109f6565b6001600160a01b0316146103c5576040805162461bcd60e51b81526020600482018190526024820152600080516020611aa0833981519152604482015290519081900360640190fd5b80518251146103ef5760405162461bcd60e51b81526004016103e69061196e565b60405180910390fd5b60005b82518110156104905781818151811061040757fe5b602002602001015160096000866001600160a01b03166001600160a01b03168152602001908152602001600020600085848151811061044257fe5b6020908102919091018101516001600160a01b031682528101919091526040016000208054600f9290920b6001600160801b03166001600160801b03199092169190911790556001016103f2565b507f292df989b33bea9d7aafea2b337d596aa50f428a5c79a270761988e8088045298383836040516104c493929190611863565b60405180910390a1505050565b6001600160a01b03851660009081526007602052604081205460ff161561050a5760405162461bcd60e51b81526004016103e690611945565b600b805460019081019182905560408051808201825282815260208082019485523360008181526007909252908390209151825460ff19169015151782559351920191909155517f7325fb14450d3e5eb288c620b4ff1d6b43a41b33b4a4f143ae88cd4c12f99ea39061057e9087906119b4565b60405180910390a250630a85bd0160e11b95945050505050565b600560209081526000928352604080842090915290825290205460ff1681565b6105c133610d79565b610612576040805162461bcd60e51b815260206004820152601c60248201527f63616c6c6572206973206e6f7420746865207065726d697373696f6e00000000604482015290519081900360640190fd5b61061c868661110b565b61062557600080fd5b6001600160a01b038681166000818152600860209081526040808320898616845282528083208054600f81810b8a01810b6001600160801b039081166001600160801b0319938416179093558a88168652838620805480830b8b01830b8516908416179055968c1685526006845282852095855292859052928190208054600160801b81880b8a01880b861691851691909117818104880b8901880b861682029086161790915560018501805480880b8a01880b8616941693909317818104870b880190960b841602949092169390931790925590517f99683c72c1b2ee68a2edb8e71d65029c1436f23107d81af43bec913911b8f00490610732908990899089908990899089906117e7565b60405180910390a150505050505050565b6007602052600090815260409020805460019091015460ff9091169082565b600061076c611107565b6001600160a01b031661077d6109f6565b6001600160a01b0316146107c6576040805162461bcd60e51b81526020600482018190526024820152600080516020611aa0833981519152604482015290519081900360640190fd5b6001600160a01b03821661080b5760405162461bcd60e51b815260040180806020018281038252602c815260200180611a00602c913960400191505060405180910390fd5b6040516001600160a01b038316907fd8dc9578ceae094520aff2ba139a77dd24473034f8dbc74d85f6b02768c3377990600090a261084a600183611168565b90505b919050565b600061085e600161117d565b905090565b6009602090815260009283526040808420909152908252902054600f0b81565b6003546001600160a01b031681565b60008061089f848461110b565b6108ae57506000905080610908565b50506001600160a01b038082166000908152600660209081526040808320938616835292815290829020825180840190935254600f81810b810b810b808552600160801b909204810b810b810b93909201839052810b91900b5b9250929050565b6008602090815260009283526040808420909152908252902054600f0b81565b60046020526000908152604090205460ff1681565b61094c611107565b6001600160a01b031661095d6109f6565b6001600160a01b0316146109a6576040805162461bcd60e51b81526020600482018190526024820152600080516020611aa0833981519152604482015290519081900360640190fd5b600080546040516001600160a01b03909116907f8be0079c531659141344cd1fd0a4f28419497f9722a3daafe3b4186f6b6457e0908390a3600080546001600160a01b0319169055565b600b5481565b6000546001600160a01b031690565b600660209081526000918252604091829020825180840190935260010154600f81810b810b810b8452600160801b909104810b810b900b9082015281565b6000610a4d611107565b6001600160a01b0316610a5e6109f6565b6001600160a01b031614610aa7576040805162461bcd60e51b81526020600482018190526024820152600080516020611aa0833981519152604482015290519081900360640190fd5b6001600160a01b038216610aec5760405162461bcd60e51b815260040180806020018281038252602c815260200180611a74602c913960400191505060405180910390fd5b6040516001600160a01b038316907ff63eb610adad478002288c0957a6037ba30c916a12eb8b9fc01fed014f1dc15790600090a261084a600183611188565b610b33611107565b6001600160a01b0316610b446109f6565b6001600160a01b031614610b8d576040805162461bcd60e51b81526020600482018190526024820152600080516020611aa0833981519152604482015290519081900360640190fd5b60005b8251811015610bf757818181518110610ba557fe5b6020026020010151600a6000858481518110610bbd57fe5b6020908102919091018101516001600160a01b03168252810191909152604001600020805460ff1916911515919091179055600101610b90565b507faa8091f5556474368088a7b1472399d627da2db018a0aebd778756a01f7a34b08282604051610c299291906118cb565b60405180910390a15050565b610c3d611107565b6001600160a01b0316610c4e6109f6565b6001600160a01b031614610c97576040805162461bcd60e51b81526020600482018190526024820152600080516020611aa0833981519152604482015290519081900360640190fd5b8051825114610cb85760405162461bcd60e51b81526004016103e69061196e565b60005b8251811015610d4557818181518110610cd057fe5b602002602001015160056000866001600160a01b03166001600160a01b031681526020019081526020016000206000858481518110610d0b57fe5b6020908102919091018101516001600160a01b03168252810191909152604001600020805460ff1916911515919091179055600101610cbb565b507f8fac9a2e6c851309527986fec7868b63105d23c332a0eb04326efb2a752344898383836040516104c493929190611823565b600061084a60018361119d565b610d8e611107565b6001600160a01b0316610d9f6109f6565b6001600160a01b031614610de8576040805162461bcd60e51b81526020600482018190526024820152600080516020611aa0833981519152604482015290519081900360640190fd5b8051825114610e095760405162461bcd60e51b81526004016103e69061196e565b60005b8251811015610e7357818181518110610e2157fe5b602002602001015160046000858481518110610e3957fe5b6020908102919091018101516001600160a01b03168252810191909152604001600020805460ff1916911515919091179055600101610e0c565b507f06513198a4a9281d22613b8b140b08f6935d30776ca881da51d7b0efb03d748b8282604051610c299291906118cb565b6001600160a01b03821660009081526007602052604081205460ff16610ecd57506000610f31565b6001600160a01b038084166000818152600860209081526040808320948716808452948252808320549383526009825280832094835293905291822054600f91820b9290820b91828401900b13610f25576000610f29565b8181015b600f0b925050505b92915050565b610f3f611107565b6001600160a01b0316610f506109f6565b6001600160a01b031614610f99576040805162461bcd60e51b81526020600482018190526024820152600080516020611aa0833981519152604482015290519081900360640190fd5b6001600160a01b038116610fde5760405162461bcd60e51b8152600401808060200182810382526026815260200180611a4e6026913960400191505060405180910390fd5b600080546040516001600160a01b03808516939216917f8be0079c531659141344cd1fd0a4f28419497f9722a3daafe3b4186f6b6457e091a3600080546001600160a01b0319166001600160a01b0392909216919091179055565b6000611043611107565b6001600160a01b03166110546109f6565b6001600160a01b03161461109d576040805162461bcd60e51b81526020600482018190526024820152600080516020611aa0833981519152604482015290519081900360640190fd5b60016110a7610852565b038211156110fc576040805162461bcd60e51b815260206004820152601d60248201527f4d756c7469706c653a20696e646578206f7574206f6620626f756e6473000000604482015290519081900360640190fd5b61084a6001836111b2565b3390565b6001600160a01b03811660009081526004602052604081205460ff1615156001148061116157506001600160a01b0380841660009081526005602090815260408083209386168352929052205460ff1615156001145b9392505050565b6000611161836001600160a01b0384166111be565b600061084a82611208565b6000611161836001600160a01b03841661120c565b6000611161836001600160a01b0384166112d2565b600061116183836112ea565b60006111ca83836112d2565b61120057508154600181810184556000848152602080822090930184905584548482528286019093526040902091909155610f31565b506000610f31565b5490565b600081815260018301602052604081205480156112c8578354600019808301919081019060009087908390811061123f57fe5b906000526020600020015490508087600001848154811061125c57fe5b60009182526020808320909101929092558281526001898101909252604090209084019055865487908061128c57fe5b60019003818190600052602060002001600090559055866001016000878152602001908152602001600020600090556001945050505050610f31565b6000915050610f31565b60009081526001919091016020526040902054151590565b8154600090821061132c5760405162461bcd60e51b8152600401808060200182810382526022815260200180611a2c6022913960400191505060405180910390fd5b82600001828154811061133b57fe5b9060005260206000200154905092915050565b80356001600160a01b038116811461084d57600080fd5b600082601f830112611375578081fd5b8135602061138a611385836119e1565b6119bd565b82815281810190858301838502870184018810156113a6578586fd5b855b858110156113cb576113b98261134e565b845292840192908401906001016113a8565b5090979650505050505050565b600082601f8301126113e8578081fd5b813560206113f8611385836119e1565b8281528181019085830183850287018401881015611414578586fd5b855b858110156113cb578135801515811461142d578788fd5b84529284019290840190600101611416565b8035600f81900b811461084d57600080fd5b600060208284031215611462578081fd5b6111618261134e565b6000806040838503121561147d578081fd5b6114868361134e565b91506114946020840161134e565b90509250929050565b60008060008060008060c087890312156114b5578182fd5b6114be8761134e565b95506114cc6020880161134e565b94506114da6040880161134e565b93506114e86060880161134e565b92506114f66080880161143f565b915061150460a0880161143f565b90509295509295509295565b600080600080600060808688031215611527578081fd5b6115308661134e565b945061153e6020870161134e565b935060408601359250606086013567ffffffffffffffff80821115611561578283fd5b818801915088601f830112611574578283fd5b813581811115611582578384fd5b896020828501011115611593578384fd5b9699959850939650602001949392505050565b6000806000606084860312156115ba578283fd5b6115c38461134e565b9250602084013567ffffffffffffffff808211156115df578384fd5b6115eb87838801611365565b93506040860135915080821115611600578283fd5b5061160d868287016113d8565b9150509250925092565b60008060006060848603121561162b578283fd5b6116348461134e565b925060208085013567ffffffffffffffff80821115611651578485fd5b61165d88838901611365565b94506040870135915080821115611672578384fd5b508501601f81018713611683578283fd5b8035611691611385826119e1565b81815283810190838501858402850186018b10156116ad578687fd5b8694505b838510156116d6576116c28161143f565b8352600194909401939185019185016116b1565b5080955050505050509250925092565b600080604083850312156116f8578182fd5b823567ffffffffffffffff8082111561170f578384fd5b61171b86838701611365565b93506020850135915080821115611730578283fd5b5061173d858286016113d8565b9150509250929050565b600060208284031215611758578081fd5b5035919050565b6000815180845260208085019450808401835b838110156117975781516001600160a01b031687529582019590820190600101611772565b509495945050505050565b6000815180845260208085019450808401835b838110156117975781511515875295820195908201906001016117b5565b6001600160a01b0391909116815260200190565b6001600160a01b0396871681529486166020860152928516604085015293166060830152600f92830b608083015290910b60a082015260c00190565b6001600160a01b03841681526060602082018190526000906118479083018561175f565b828103604084015261185981856117a2565b9695505050505050565b6001600160a01b0384168152606060208083018290526000916118889084018661175f565b8381036040850152845180825282860191830190845b818110156118bd578351600f0b8352928401929184019160010161189e565b509098975050505050505050565b6000604082526118de604083018561175f565b82810360208401526118f081856117a2565b95945050505050565b901515815260200190565b9115158252602082015260400190565b6001600160e01b031991909116815260200190565b600f9190910b815260200190565b918252602082015260400190565b6020808252600f908201526e105314915051164810d49150551151608a1b604082015260600190565b6020808252600e908201526d12539590531251081193d493505560921b604082015260600190565b8151600f90810b8252602092830151900b9181019190915260400190565b90815260200190565b60405181810167ffffffffffffffff811182821017156119d957fe5b604052919050565b600067ffffffffffffffff8211156119f557fe5b506020908102019056fe4d756c7469706c653a205f6164645065726d697373696f6e20697320746865207a65726f2061646472657373456e756d657261626c655365743a20696e646578206f7574206f6620626f756e64734f776e61626c653a206e6577206f776e657220697320746865207a65726f20616464726573734d756c7469706c653a205f64656c5065726d697373696f6e20697320746865207a65726f20616464726573734f776e61626c653a2063616c6c6572206973206e6f7420746865206f776e6572a26469706673582212204d1179614ea6f43d72eae2bd641076ccdcc17f8adc87873472839cec5b35ae0d64736f6c63430007060033",
  "linkReferences": {},
  "deployedLinkReferences": {}
}