{
  "_format": "hh-sol-artifact-1",
  "contractName": "UniswapV3WorkCenter",
  "sourceName": "contracts/UniswapV3WorkCenter.sol",
  "abi": [
    {
      "inputs": [
        {
          "internalType": "contract IERC721",
          "name": "_gpToken",
          "type": "address"
        }
      ],
      "stateMutability": "nonpayable",
      "type": "constructor"
    },
    {
      "anonymous": false,
      "inputs": [
        {
          "indexed": true,
          "internalType": "address",
          "name": "user",
          "type": "address"
        },
        {
          "indexed": false,
          "internalType": "uint256",
          "name": "workerId",
          "type": "uint256"
        }
      ],
      "name": "AccountCreated",
      "type": "event"
    },
    {
      "anonymous": false,
      "inputs": [
        {
          "indexed": true,
          "internalType": "address",
          "name": "permission",
          "type": "address"
        }
      ],
      "name": "AddPermission",
      "type": "event"
    },
    {
      "anonymous": false,
      "inputs": [
        {
          "indexed": true,
          "internalType": "address",
          "name": "permission",
          "type": "address"
        }
      ],
      "name": "DelPermission",
      "type": "event"
    },
    {
      "anonymous": false,
      "inputs": [
        {
          "indexed": true,
          "internalType": "address",
          "name": "previousOwner",
          "type": "address"
        },
        {
          "indexed": true,
          "internalType": "address",
          "name": "newOwner",
          "type": "address"
        }
      ],
      "name": "OwnershipTransferred",
      "type": "event"
    },
    {
      "anonymous": false,
      "inputs": [
        {
          "indexed": false,
          "internalType": "address",
          "name": "worker",
          "type": "address"
        },
        {
          "indexed": false,
          "internalType": "address[]",
          "name": "tokens",
          "type": "address[]"
        },
        {
          "indexed": false,
          "internalType": "uint256[]",
          "name": "amounts",
          "type": "uint256[]"
        }
      ],
      "name": "SetQuota",
      "type": "event"
    },
    {
      "anonymous": false,
      "inputs": [
        {
          "indexed": false,
          "internalType": "address",
          "name": "worker",
          "type": "address"
        },
        {
          "indexed": false,
          "internalType": "address[]",
          "name": "pools",
          "type": "address[]"
        },
        {
          "indexed": false,
          "internalType": "bool[]",
          "name": "enable",
          "type": "bool[]"
        }
      ],
      "name": "SetWhiteList",
      "type": "event"
    },
    {
      "anonymous": false,
      "inputs": [
        {
          "indexed": false,
          "internalType": "address",
          "name": "worker",
          "type": "address"
        },
        {
          "indexed": false,
          "internalType": "address",
          "name": "poolAddress",
          "type": "address"
        },
        {
          "indexed": false,
          "internalType": "address",
          "name": "token0",
          "type": "address"
        },
        {
          "indexed": false,
          "internalType": "address",
          "name": "token1",
          "type": "address"
        },
        {
          "indexed": false,
          "internalType": "int128",
          "name": "profit0",
          "type": "int128"
        },
        {
          "indexed": false,
          "internalType": "int128",
          "name": "profit1",
          "type": "int128"
        }
      ],
      "name": "Settle",
      "type": "event"
    },
    {
      "anonymous": false,
      "inputs": [
        {
          "indexed": false,
          "internalType": "address[]",
          "name": "pools",
          "type": "address[]"
        },
        {
          "indexed": false,
          "internalType": "bool[]",
          "name": "enable",
          "type": "bool[]"
        }
      ],
      "name": "SwitchPool",
      "type": "event"
    },
    {
      "anonymous": false,
      "inputs": [
        {
          "indexed": false,
          "internalType": "address[]",
          "name": "workers",
          "type": "address[]"
        },
        {
          "indexed": false,
          "internalType": "bool[]",
          "name": "enable",
          "type": "bool[]"
        }
      ],
      "name": "SwitchSwap",
      "type": "event"
    },
    {
      "anonymous": false,
      "inputs": [
        {
          "indexed": false,
          "internalType": "address",
          "name": "worker",
          "type": "address"
        },
        {
          "indexed": false,
          "internalType": "uint256",
          "name": "oldPercent",
          "type": "uint256"
        },
        {
          "indexed": false,
          "internalType": "uint256",
          "name": "newPercent",
          "type": "uint256"
        }
      ],
      "name": "UpdatePercent",
      "type": "event"
    },
    {
      "inputs": [],
      "name": "GPToken",
      "outputs": [
        {
          "internalType": "contract IERC721",
          "name": "",
          "type": "address"
        }
      ],
      "stateMutability": "view",
      "type": "function"
    },
    {
      "inputs": [
        {
          "internalType": "address",
          "name": "_addPermission",
          "type": "address"
        }
      ],
      "name": "addPermission",
      "outputs": [
        {
          "internalType": "bool",
          "name": "",
          "type": "bool"
        }
      ],
      "stateMutability": "nonpayable",
      "type": "function"
    },
    {
      "inputs": [
        {
          "internalType": "address",
          "name": "worker",
          "type": "address"
        }
      ],
      "name": "claim",
      "outputs": [
        {
          "internalType": "address[]",
          "name": "tokens",
          "type": "address[]"
        },
        {
          "internalType": "uint256[]",
          "name": "commision",
          "type": "uint256[]"
        }
      ],
      "stateMutability": "nonpayable",
      "type": "function"
    },
    {
      "inputs": [],
      "name": "cntOfWorker",
      "outputs": [
        {
          "internalType": "uint256",
          "name": "",
          "type": "uint256"
        }
      ],
      "stateMutability": "view",
      "type": "function"
    },
    {
      "inputs": [
        {
          "internalType": "address",
          "name": "",
          "type": "address"
        }
      ],
      "name": "commonPools",
      "outputs": [
        {
          "internalType": "bool",
          "name": "",
          "type": "bool"
        }
      ],
      "stateMutability": "view",
      "type": "function"
    },
    {
      "inputs": [
        {
          "internalType": "address",
          "name": "_delPermission",
          "type": "address"
        }
      ],
      "name": "delPermission",
      "outputs": [
        {
          "internalType": "bool",
          "name": "",
          "type": "bool"
        }
      ],
      "stateMutability": "nonpayable",
      "type": "function"
    },
    {
      "inputs": [
        {
          "internalType": "uint256",
          "name": "_index",
          "type": "uint256"
        }
      ],
      "name": "getPermission",
      "outputs": [
        {
          "internalType": "address",
          "name": "",
          "type": "address"
        }
      ],
      "stateMutability": "view",
      "type": "function"
    },
    {
      "inputs": [],
      "name": "getPermissionLength",
      "outputs": [
        {
          "internalType": "uint256",
          "name": "",
          "type": "uint256"
        }
      ],
      "stateMutability": "view",
      "type": "function"
    },
    {
      "inputs": [
        {
          "internalType": "address",
          "name": "worker",
          "type": "address"
        },
        {
          "internalType": "address",
          "name": "token",
          "type": "address"
        }
      ],
      "name": "getRemainQuota",
      "outputs": [
        {
          "internalType": "uint256",
          "name": "",
          "type": "uint256"
        }
      ],
      "stateMutability": "view",
      "type": "function"
    },
    {
      "inputs": [
        {
          "internalType": "address",
          "name": "worker",
          "type": "address"
        },
        {
          "internalType": "address",
          "name": "poolAddress",
          "type": "address"
        }
      ],
      "name": "getSwapQuota",
      "outputs": [
        {
          "internalType": "int256",
          "name": "amount0",
          "type": "int256"
        },
        {
          "internalType": "int256",
          "name": "amount1",
          "type": "int256"
        }
      ],
      "stateMutability": "view",
      "type": "function"
    },
    {
      "inputs": [
        {
          "internalType": "address",
          "name": "account",
          "type": "address"
        }
      ],
      "name": "isPermission",
      "outputs": [
        {
          "internalType": "bool",
          "name": "",
          "type": "bool"
        }
      ],
      "stateMutability": "view",
      "type": "function"
    },
    {
      "inputs": [
        {
          "internalType": "address",
          "name": "from",
          "type": "address"
        },
        {
          "internalType": "address",
          "name": "",
          "type": "address"
        },
        {
          "internalType": "uint256",
          "name": "workerId",
          "type": "uint256"
        },
        {
          "internalType": "bytes",
          "name": "",
          "type": "bytes"
        }
      ],
      "name": "onERC721Received",
      "outputs": [
        {
          "internalType": "bytes4",
          "name": "",
          "type": "bytes4"
        }
      ],
      "stateMutability": "nonpayable",
      "type": "function"
    },
    {
      "inputs": [],
      "name": "owner",
      "outputs": [
        {
          "internalType": "address",
          "name": "",
          "type": "address"
        }
      ],
      "stateMutability": "view",
      "type": "function"
    },
    {
      "inputs": [
        {
          "internalType": "address",
          "name": "",
          "type": "address"
        }
      ],
      "name": "poolList",
      "outputs": [
        {
          "components": [
            {
              "internalType": "int128",
              "name": "unbalance0",
              "type": "int128"
            },
            {
              "internalType": "int128",
              "name": "unbalance1",
              "type": "int128"
            }
          ],
          "internalType": "struct UniswapV3WorkCenter.Info",
          "name": "total",
          "type": "tuple"
        }
      ],
      "stateMutability": "view",
      "type": "function"
    },
    {
      "inputs": [
        {
          "internalType": "address",
          "name": "",
          "type": "address"
        },
        {
          "internalType": "address",
          "name": "",
          "type": "address"
        }
      ],
      "name": "profits",
      "outputs": [
        {
          "internalType": "int128",
          "name": "",
          "type": "int128"
        }
      ],
      "stateMutability": "view",
      "type": "function"
    },
    {
      "inputs": [
        {
          "internalType": "address",
          "name": "",
          "type": "address"
        },
        {
          "internalType": "address",
          "name": "",
          "type": "address"
        }
      ],
      "name": "quotas",
      "outputs": [
        {
          "internalType": "uint256",
          "name": "",
          "type": "uint256"
        }
      ],
      "stateMutability": "view",
      "type": "function"
    },
    {
      "inputs": [],
      "name": "renounceOwnership",
      "outputs": [],
      "stateMutability": "nonpayable",
      "type": "function"
    },
    {
      "inputs": [
        {
          "internalType": "address",
          "name": "worker",
          "type": "address"
        },
        {
          "internalType": "address[]",
          "name": "tokens",
          "type": "address[]"
        },
        {
          "internalType": "uint256[]",
          "name": "amounts",
          "type": "uint256[]"
        }
      ],
      "name": "setQuota",
      "outputs": [],
      "stateMutability": "nonpayable",
      "type": "function"
    },
    {
      "inputs": [
        {
          "internalType": "address",
          "name": "worker",
          "type": "address"
        },
        {
          "internalType": "address[]",
          "name": "pools",
          "type": "address[]"
        },
        {
          "internalType": "bool[]",
          "name": "enable",
          "type": "bool[]"
        }
      ],
      "name": "setWhiteList",
      "outputs": [],
      "stateMutability": "nonpayable",
      "type": "function"
    },
    {
      "inputs": [
        {
          "internalType": "address",
          "name": "worker",
          "type": "address"
        },
        {
          "internalType": "address",
          "name": "poolAddress",
          "type": "address"
        },
        {
          "internalType": "address",
          "name": "token0",
          "type": "address"
        },
        {
          "internalType": "address",
          "name": "token1",
          "type": "address"
        },
        {
          "internalType": "int128",
          "name": "profit0",
          "type": "int128"
        },
        {
          "internalType": "int128",
          "name": "profit1",
          "type": "int128"
        }
      ],
      "name": "settle",
      "outputs": [],
      "stateMutability": "nonpayable",
      "type": "function"
    },
    {
      "inputs": [
        {
          "internalType": "address[]",
          "name": "pools",
          "type": "address[]"
        },
        {
          "internalType": "bool[]",
          "name": "enable",
          "type": "bool[]"
        }
      ],
      "name": "switchPool",
      "outputs": [],
      "stateMutability": "nonpayable",
      "type": "function"
    },
    {
      "inputs": [
        {
          "internalType": "address[]",
          "name": "users",
          "type": "address[]"
        },
        {
          "internalType": "bool[]",
          "name": "enable",
          "type": "bool[]"
        }
      ],
      "name": "switchSwap",
      "outputs": [],
      "stateMutability": "nonpayable",
      "type": "function"
    },
    {
      "inputs": [
        {
          "internalType": "address",
          "name": "newOwner",
          "type": "address"
        }
      ],
      "name": "transferOwnership",
      "outputs": [],
      "stateMutability": "nonpayable",
      "type": "function"
    },
    {
      "inputs": [
        {
          "internalType": "address",
          "name": "worker",
          "type": "address"
        },
        {
          "internalType": "uint256",
          "name": "newPercent",
          "type": "uint256"
        }
      ],
      "name": "updateCommisionPercent",
      "outputs": [],
      "stateMutability": "nonpayable",
      "type": "function"
    },
    {
      "inputs": [
        {
          "internalType": "address",
          "name": "",
          "type": "address"
        },
        {
          "internalType": "address",
          "name": "",
          "type": "address"
        }
      ],
      "name": "whilelist",
      "outputs": [
        {
          "internalType": "bool",
          "name": "",
          "type": "bool"
        }
      ],
      "stateMutability": "view",
      "type": "function"
    },
    {
      "inputs": [
        {
          "internalType": "address",
          "name": "",
          "type": "address"
        }
      ],
      "name": "workers",
      "outputs": [
        {
          "internalType": "bool",
          "name": "created",
          "type": "bool"
        },
        {
          "internalType": "uint256",
          "name": "workerId",
          "type": "uint256"
        }
      ],
      "stateMutability": "view",
      "type": "function"
    }
  ],
  "bytecode": "0x60806040523480156200001157600080fd5b506040516200229b3803806200229b8339810160408190526200003491620000e6565b600062000040620000e2565b600080546001600160a01b0319166001600160a01b0383169081178255604051929350917f8be0079c531659141344cd1fd0a4f28419497f9722a3daafe3b4186f6b6457e0908290a3506001600160a01b038116620000bc5760405162461bcd60e51b8152600401620000b39062000116565b60405180910390fd5b600380546001600160a01b0319166001600160a01b03929092169190911790556200013f565b3390565b600060208284031215620000f8578081fd5b81516001600160a01b03811681146200010f578182fd5b9392505050565b6020808252600f908201526e494e56414c49445f4144445245535360881b604082015260600190565b61214c806200014f6000396000f3fe608060405234801561001057600080fd5b506004361061018e5760003560e01c8063715018a6116100de578063de7ceed711610097578063e5b03e5c11610071578063e5b03e5c14610381578063f2fde38b14610394578063f6b11170146103a7578063ffb5e276146103ba5761018e565b8063de7ceed714610348578063e0faa9a21461035b578063e0fe5f621461036e5761018e565b8063715018a6146102ea57806374d3896d146102f25780638da5cb5b146102fa578063a36cc98114610302578063b1af99cf14610322578063be199988146103355761018e565b80634ffc82ea1161014b5780636223f82e116101255780636223f82e1461028357806367dd2f7d146102a45780636b0d4a85146102c457806370882e31146102d75761018e565b80634ffc82ea146102465780635530d4141461025b5780635a604f8a1461026e5761018e565b8063150b7a02146101935780631e83409a146101bc5780632e0bc794146101dd57806340260961146101fd5780634048a257146102125780634d0a5dbd14610233575b600080fd5b6101a66101a1366004611a7d565b6103cd565b6040516101b39190611ee6565b60405180910390f35b6101cf6101ca3660046119be565b6104de565b6040516101b3929190611ea6565b6101f06101eb3660046119d8565b61074a565b6040516101b39190611ecb565b61021061020b366004611a0a565b61076a565b005b6102256102203660046119be565b610a9f565b6040516101b3929190611ed6565b6101f06102413660046119be565b610abe565b61024e610bae565b6040516101b3919061200b565b61024e6102693660046119d8565b610bbf565b610276610bdc565b6040516101b39190611d91565b6102966102913660046119d8565b610beb565b6040516101b3929190611f09565b6102b76102b23660046119d8565b610c68565b6040516101b39190611efb565b6101f06102d23660046119be565b610c88565b6102106102e5366004611c4c565b610c9d565b610210610d70565b61024e610e1c565b610276610e22565b6103156103103660046119be565b610e31565b6040516101b39190611fed565b6101f06103303660046119be565b610e6f565b610210610343366004611c75565b610f57565b610210610356366004611b13565b611061565b6101f06103693660046119be565b6111b2565b61021061037c366004611c75565b6111bf565b61024e61038f3660046119d8565b6112de565b6102106103a23660046119be565b61136e565b6102106103b5366004611b84565b611470565b6102766103c8366004611cd6565b6115a6565b6001600160a01b03851660009081526007602052604081205460ff161561040f5760405162461bcd60e51b815260040161040690611f41565b60405180910390fd5b6003546001600160a01b031633146104395760405162461bcd60e51b815260040161040690611f17565b600e805460019081019182905560408051808201825282815260208082019485526001600160a01b038b166000818152600783528481209351845460ff191690151517845595519290940191909155600a9052918290206107d0905590517f7325fb14450d3e5eb288c620b4ff1d6b43a41b33b4a4f143ae88cd4c12f99ea3906104c490879061200b565b60405180910390a250630a85bd0160e11b95945050505050565b6060806104ea336111b2565b61053b576040805162461bcd60e51b815260206004820152601c60248201527f63616c6c6572206973206e6f7420746865207065726d697373696f6e00000000604482015290519081900360640190fd5b6001600160a01b0383166000908152600d6020526040908190205481516002808252606082019093529091816020016020820280368337505060408051600280825260608201835293965092915060208301908036833701905050915060005b818110156106c3576001600160a01b0385166000908152600d602052604081208054839081106105c757fe5b60009182526020808320909101546001600160a01b038981168452600b83526040808520919092168085529252822054909250600f90810b900b121561061f5760405162461bcd60e51b815260040161040690611f8e565b8085838151811061062c57fe5b6001600160a01b039283166020918202929092018101919091528782166000908152600b8252604080822093851682529290915220548451600f91820b90910b9085908490811061067957fe5b6020908102919091018101919091526001600160a01b038088166000908152600b8352604080822094909216815292909152902080546001600160801b031916905560010161059b565b50506001600160a01b0383166000908152600c6020526040812054905b81811015610743576001600160a01b0385166000908152600c6020526040812080548390811061070c57fe5b60009182526020808320909101546001600160a01b039081168352600682526040808420918a1684529152812055506001016106e0565b5050915091565b600560209081526000928352604080842090915290825290205460ff1681565b610773336111b2565b6107c4576040805162461bcd60e51b815260206004820152601c60248201527f63616c6c6572206973206e6f7420746865207065726d697373696f6e00000000604482015290519081900360640190fd5b6107ce8686611674565b6107ea5760405162461bcd60e51b815260040161040690611f6a565b6001600160a01b038681166000818152600b6020908152604080832089861680855290835281842080546001600160801b03198082166fffffffffffffffffffffffffffffffff600f93840b8d01840b8116919091179093558b89168752848720805480831690840b8c01840b8516179055978d168652600685528386209686528685528386208054808a1690830b8c01830b841617808416600160801b91829004840b8c01840b8516820217909155600188810180549a8b169a840b8d01840b85169a909a1780851690839004840b8c0190930b9093160217909655600d83528184209084529094019052919091205460ff1661093d576001600160a01b038088166000908152600d60208181526040808420948a1680855260018681018452918520805460ff1916831790559282528454908101855593835290912090910180546001600160a01b03191690911790555b6001600160a01b038088166000908152600d60209081526040808320938816835260019093019052205460ff166109c9576001600160a01b038088166000908152600d6020818152604080842094891680855260018681018452918520805460ff1916831790559282528454908101855593835290912090910180546001600160a01b03191690911790555b6001600160a01b038088166000908152600c60209081526040808320938a16835260019093019052205460ff16610a55576001600160a01b038088166000908152600c60208181526040808420948b1680855260018681018452918520805460ff1916831790559282528454908101855593835290912090910180546001600160a01b03191690911790555b7f99683c72c1b2ee68a2edb8e71d65029c1436f23107d81af43bec913911b8f004878787878787604051610a8e96959493929190611da5565b60405180910390a150505050505050565b6007602052600090815260409020805460019091015460ff9091169082565b6000610ac86116d1565b6001600160a01b0316610ad9610e22565b6001600160a01b031614610b22576040805162461bcd60e51b815260206004820181905260248201526000805160206120f7833981519152604482015290519081900360640190fd5b6001600160a01b038216610b675760405162461bcd60e51b815260040180806020018281038252602c815260200180612057602c913960400191505060405180910390fd5b6040516001600160a01b038316907fd8dc9578ceae094520aff2ba139a77dd24473034f8dbc74d85f6b02768c3377990600090a2610ba66001836116d5565b90505b919050565b6000610bba60016116ea565b905090565b600860209081526000928352604080842090915290825290205481565b6003546001600160a01b031681565b600080610bf88484611674565b610c0757506000905080610c61565b50506001600160a01b038082166000908152600660209081526040808320938616835292815290829020825180840190935254600f81810b810b810b808552600160801b909204810b810b810b93909201839052810b91900b5b9250929050565b600b602090815260009283526040808420909152908252902054600f0b81565b60046020526000908152604090205460ff1681565b610ca56116d1565b6001600160a01b0316610cb6610e22565b6001600160a01b031614610cff576040805162461bcd60e51b815260206004820181905260248201526000805160206120f7833981519152604482015290519081900360640190fd5b6001600160a01b0382166000908152600a6020526040908190205490517fdb45ba51bff19cd4fc5ecceed909fe1a52b43d66ce4157138af957a5f65597ac91610d4c918591908590611e57565b60405180910390a16001600160a01b039091166000908152600a6020526040902055565b610d786116d1565b6001600160a01b0316610d89610e22565b6001600160a01b031614610dd2576040805162461bcd60e51b815260206004820181905260248201526000805160206120f7833981519152604482015290519081900360640190fd5b600080546040516001600160a01b03909116907f8be0079c531659141344cd1fd0a4f28419497f9722a3daafe3b4186f6b6457e0908390a3600080546001600160a01b0319169055565b600e5481565b6000546001600160a01b031690565b600660209081526000918252604091829020825180840190935260010154600f81810b810b810b8452600160801b909104810b810b900b9082015281565b6000610e796116d1565b6001600160a01b0316610e8a610e22565b6001600160a01b031614610ed3576040805162461bcd60e51b815260206004820181905260248201526000805160206120f7833981519152604482015290519081900360640190fd5b6001600160a01b038216610f185760405162461bcd60e51b815260040180806020018281038252602c8152602001806120cb602c913960400191505060405180910390fd5b6040516001600160a01b038316907ff63eb610adad478002288c0957a6037ba30c916a12eb8b9fc01fed014f1dc15790600090a2610ba66001836116f5565b610f5f6116d1565b6001600160a01b0316610f70610e22565b6001600160a01b031614610fb9576040805162461bcd60e51b815260206004820181905260248201526000805160206120f7833981519152604482015290519081900360640190fd5b60005b825181101561102357818181518110610fd157fe5b602002602001015160096000858481518110610fe957fe5b6020908102919091018101516001600160a01b03168252810191909152604001600020805460ff1916911515919091179055600101610fbc565b507faa8091f5556474368088a7b1472399d627da2db018a0aebd778756a01f7a34b08282604051611055929190611e78565b60405180910390a15050565b6110696116d1565b6001600160a01b031661107a610e22565b6001600160a01b0316146110c3576040805162461bcd60e51b815260206004820181905260248201526000805160206120f7833981519152604482015290519081900360640190fd5b80518251146110e45760405162461bcd60e51b815260040161040690611fc5565b60005b8251811015611171578181815181106110fc57fe5b602002602001015160056000866001600160a01b03166001600160a01b03168152602001908152602001600020600085848151811061113757fe5b6020908102919091018101516001600160a01b03168252810191909152604001600020805460ff19169115159190911790556001016110e7565b507f8fac9a2e6c851309527986fec7868b63105d23c332a0eb04326efb2a752344898383836040516111a593929190611de1565b60405180910390a1505050565b6000610ba660018361170a565b6111c76116d1565b6001600160a01b03166111d8610e22565b6001600160a01b031614611221576040805162461bcd60e51b815260206004820181905260248201526000805160206120f7833981519152604482015290519081900360640190fd5b80518251146112425760405162461bcd60e51b815260040161040690611fc5565b60005b82518110156112ac5781818151811061125a57fe5b60200260200101516004600085848151811061127257fe5b6020908102919091018101516001600160a01b03168252810191909152604001600020805460ff1916911515919091179055600101611245565b507f06513198a4a9281d22613b8b140b08f6935d30776ca881da51d7b0efb03d748b8282604051611055929190611e78565b6001600160a01b03821660009081526007602052604081205460ff1661130657506000611368565b6001600160a01b038084166000818152600b60209081526040808320948716808452948252808320549383526008825280832094835293905291822054600f91820b929091828401900b1361135c576000611360565b8181015b600f0b925050505b92915050565b6113766116d1565b6001600160a01b0316611387610e22565b6001600160a01b0316146113d0576040805162461bcd60e51b815260206004820181905260248201526000805160206120f7833981519152604482015290519081900360640190fd5b6001600160a01b0381166114155760405162461bcd60e51b81526004018080602001828103825260268152602001806120a56026913960400191505060405180910390fd5b600080546040516001600160a01b03808516939216917f8be0079c531659141344cd1fd0a4f28419497f9722a3daafe3b4186f6b6457e091a3600080546001600160a01b0319166001600160a01b0392909216919091179055565b6114786116d1565b6001600160a01b0316611489610e22565b6001600160a01b0316146114d2576040805162461bcd60e51b815260206004820181905260248201526000805160206120f7833981519152604482015290519081900360640190fd5b80518251146114f35760405162461bcd60e51b815260040161040690611fc5565b60005b82518110156115725781818151811061150b57fe5b602002602001015160086000866001600160a01b03166001600160a01b03168152602001908152602001600020600085848151811061154657fe5b6020908102919091018101516001600160a01b03168252810191909152604001600020556001016114f6565b507fd3ef330df13fcdca3be6f710d093bc1fa7c744f0385e52c51e093fc46d2033098383836040516111a593929190611e21565b60006115b06116d1565b6001600160a01b03166115c1610e22565b6001600160a01b03161461160a576040805162461bcd60e51b815260206004820181905260248201526000805160206120f7833981519152604482015290519081900360640190fd5b6001611614610bae565b03821115611669576040805162461bcd60e51b815260206004820152601d60248201527f4d756c7469706c653a20696e646578206f7574206f6620626f756e6473000000604482015290519081900360640190fd5b610ba660018361171f565b6001600160a01b03811660009081526004602052604081205460ff161515600114806116ca57506001600160a01b0380841660009081526005602090815260408083209386168352929052205460ff1615156001145b9392505050565b3390565b60006116ca836001600160a01b03841661172b565b6000610ba682611775565b60006116ca836001600160a01b038416611779565b60006116ca836001600160a01b03841661183f565b60006116ca8383611857565b6000611737838361183f565b61176d57508154600181810184556000848152602080822090930184905584548482528286019093526040902091909155611368565b506000611368565b5490565b6000818152600183016020526040812054801561183557835460001980830191908101906000908790839081106117ac57fe5b90600052602060002001549050808760000184815481106117c957fe5b6000918252602080832090910192909255828152600189810190925260409020908401905586548790806117f957fe5b60019003818190600052602060002001600090559055866001016000878152602001908152602001600020600090556001945050505050611368565b6000915050611368565b60009081526001919091016020526040902054151590565b815460009082106118995760405162461bcd60e51b81526004018080602001828103825260228152602001806120836022913960400191505060405180910390fd5b8260000182815481106118a857fe5b9060005260206000200154905092915050565b80356001600160a01b0381168114610ba957600080fd5b600082601f8301126118e2578081fd5b813560206118f76118f283612038565b612014565b8281528181019085830183850287018401881015611913578586fd5b855b8581101561193857611926826118bb565b84529284019290840190600101611915565b5090979650505050505050565b600082601f830112611955578081fd5b813560206119656118f283612038565b8281528181019085830183850287018401881015611981578586fd5b855b85811015611938578135801515811461199a578788fd5b84529284019290840190600101611983565b8035600f81900b8114610ba957600080fd5b6000602082840312156119cf578081fd5b6116ca826118bb565b600080604083850312156119ea578081fd5b6119f3836118bb565b9150611a01602084016118bb565b90509250929050565b60008060008060008060c08789031215611a22578182fd5b611a2b876118bb565b9550611a39602088016118bb565b9450611a47604088016118bb565b9350611a55606088016118bb565b9250611a63608088016119ac565b9150611a7160a088016119ac565b90509295509295509295565b600080600080600060808688031215611a94578081fd5b611a9d866118bb565b9450611aab602087016118bb565b935060408601359250606086013567ffffffffffffffff80821115611ace578283fd5b818801915088601f830112611ae1578283fd5b813581811115611aef578384fd5b896020828501011115611b00578384fd5b9699959850939650602001949392505050565b600080600060608486031215611b27578283fd5b611b30846118bb565b9250602084013567ffffffffffffffff80821115611b4c578384fd5b611b58878388016118d2565b93506040860135915080821115611b6d578283fd5b50611b7a86828701611945565b9150509250925092565b600080600060608486031215611b98578283fd5b611ba1846118bb565b925060208085013567ffffffffffffffff80821115611bbe578485fd5b611bca888389016118d2565b94506040870135915080821115611bdf578384fd5b508501601f81018713611bf0578283fd5b8035611bfe6118f282612038565b81815283810190838501858402850186018b1015611c1a578687fd5b8694505b83851015611c3c578035835260019490940193918501918501611c1e565b5080955050505050509250925092565b60008060408385031215611c5e578182fd5b611c67836118bb565b946020939093013593505050565b60008060408385031215611c87578182fd5b823567ffffffffffffffff80821115611c9e578384fd5b611caa868387016118d2565b93506020850135915080821115611cbf578283fd5b50611ccc85828601611945565b9150509250929050565b600060208284031215611ce7578081fd5b5035919050565b6000815180845260208085019450808401835b83811015611d265781516001600160a01b031687529582019590820190600101611d01565b509495945050505050565b6000815180845260208085019450808401835b83811015611d26578151151587529582019590820190600101611d44565b6000815180845260208085019450808401835b83811015611d2657815187529582019590820190600101611d75565b6001600160a01b0391909116815260200190565b6001600160a01b0396871681529486166020860152928516604085015293166060830152600f92830b608083015290910b60a082015260c00190565b6001600160a01b0384168152606060208201819052600090611e0590830185611cee565b8281036040840152611e178185611d31565b9695505050505050565b6001600160a01b0384168152606060208201819052600090611e4590830185611cee565b8281036040840152611e178185611d62565b6001600160a01b039390931683526020830191909152604082015260600190565b600060408252611e8b6040830185611cee565b8281036020840152611e9d8185611d31565b95945050505050565b600060408252611eb96040830185611cee565b8281036020840152611e9d8185611d62565b901515815260200190565b9115158252602082015260400190565b6001600160e01b031991909116815260200190565b600f9190910b815260200190565b918252602082015260400190565b60208082526010908201526f24a72b20a624a21023a8102a27a5a2a760811b604082015260600190565b6020808252600f908201526e105314915051164810d49150551151608a1b604082015260600190565b6020808252600a90820152691393d50814115493525560b21b604082015260600190565b6020808252601d908201527f50524f464954204d5553542047524541544552205448414e205a45524f000000604082015260600190565b6020808252600e908201526d12539590531251081193d493505560921b604082015260600190565b8151600f90810b8252602092830151900b9181019190915260400190565b90815260200190565b60405181810167ffffffffffffffff8111828210171561203057fe5b604052919050565b600067ffffffffffffffff82111561204c57fe5b506020908102019056fe4d756c7469706c653a205f6164645065726d697373696f6e20697320746865207a65726f2061646472657373456e756d657261626c655365743a20696e646578206f7574206f6620626f756e64734f776e61626c653a206e6577206f776e657220697320746865207a65726f20616464726573734d756c7469706c653a205f64656c5065726d697373696f6e20697320746865207a65726f20616464726573734f776e61626c653a2063616c6c6572206973206e6f7420746865206f776e6572a2646970667358221220e6765b526316e2ad664e6a3bb9c5a12d88836c0397c70702f101d931ce8d391964736f6c63430007060033",
  "linkReferences": {},
  "deployedLinkReferences": {}
}