{
  "_format": "hh-sol-artifact-1",
  "contractName": "UniswapV3WorkCenter",
  "sourceName": "contracts/UniswapV3WorkCenter.sol",
  "abi": [
    {
      "inputs": [
        {
          "internalType": "contract IERC721",
          "name": "_gpToken",
          "type": "address"
        }
      ],
      "stateMutability": "nonpayable",
      "type": "constructor"
    },
    {
      "anonymous": false,
      "inputs": [
        {
          "indexed": true,
          "internalType": "address",
          "name": "user",
          "type": "address"
        },
        {
          "indexed": false,
          "internalType": "uint256",
          "name": "workerId",
          "type": "uint256"
        }
      ],
      "name": "AccountCreated",
      "type": "event"
    },
    {
      "anonymous": false,
      "inputs": [
        {
          "indexed": true,
          "internalType": "address",
          "name": "permission",
          "type": "address"
        }
      ],
      "name": "AddPermission",
      "type": "event"
    },
    {
      "anonymous": false,
      "inputs": [
        {
          "indexed": true,
          "internalType": "address",
          "name": "permission",
          "type": "address"
        }
      ],
      "name": "DelPermission",
      "type": "event"
    },
    {
      "anonymous": false,
      "inputs": [
        {
          "indexed": true,
          "internalType": "address",
          "name": "previousOwner",
          "type": "address"
        },
        {
          "indexed": true,
          "internalType": "address",
          "name": "newOwner",
          "type": "address"
        }
      ],
      "name": "OwnershipTransferred",
      "type": "event"
    },
    {
      "anonymous": false,
      "inputs": [
        {
          "indexed": false,
          "internalType": "address",
          "name": "worker",
          "type": "address"
        },
        {
          "indexed": false,
          "internalType": "address[]",
          "name": "tokens",
          "type": "address[]"
        },
        {
          "indexed": false,
          "internalType": "uint256[]",
          "name": "amounts",
          "type": "uint256[]"
        }
      ],
      "name": "SetQuota",
      "type": "event"
    },
    {
      "anonymous": false,
      "inputs": [
        {
          "indexed": false,
          "internalType": "address",
          "name": "worker",
          "type": "address"
        },
        {
          "indexed": false,
          "internalType": "address[]",
          "name": "pools",
          "type": "address[]"
        },
        {
          "indexed": false,
          "internalType": "bool[]",
          "name": "enable",
          "type": "bool[]"
        }
      ],
      "name": "SetWhiteList",
      "type": "event"
    },
    {
      "anonymous": false,
      "inputs": [
        {
          "indexed": false,
          "internalType": "address",
          "name": "worker",
          "type": "address"
        },
        {
          "indexed": false,
          "internalType": "address",
          "name": "poolAddress",
          "type": "address"
        },
        {
          "indexed": false,
          "internalType": "address",
          "name": "token0",
          "type": "address"
        },
        {
          "indexed": false,
          "internalType": "address",
          "name": "token1",
          "type": "address"
        },
        {
          "indexed": false,
          "internalType": "int128",
          "name": "profit0",
          "type": "int128"
        },
        {
          "indexed": false,
          "internalType": "int128",
          "name": "profit1",
          "type": "int128"
        }
      ],
      "name": "Settle",
      "type": "event"
    },
    {
      "anonymous": false,
      "inputs": [
        {
          "indexed": false,
          "internalType": "address[]",
          "name": "pools",
          "type": "address[]"
        },
        {
          "indexed": false,
          "internalType": "bool[]",
          "name": "enable",
          "type": "bool[]"
        }
      ],
      "name": "SwitchPool",
      "type": "event"
    },
    {
      "anonymous": false,
      "inputs": [
        {
          "indexed": false,
          "internalType": "address[]",
          "name": "workers",
          "type": "address[]"
        },
        {
          "indexed": false,
          "internalType": "bool[]",
          "name": "enable",
          "type": "bool[]"
        }
      ],
      "name": "SwitchSwap",
      "type": "event"
    },
    {
      "anonymous": false,
      "inputs": [
        {
          "indexed": false,
          "internalType": "address",
          "name": "worker",
          "type": "address"
        },
        {
          "indexed": false,
          "internalType": "uint256",
          "name": "oldPercent",
          "type": "uint256"
        },
        {
          "indexed": false,
          "internalType": "uint256",
          "name": "newPercent",
          "type": "uint256"
        }
      ],
      "name": "UpdatePercent",
      "type": "event"
    },
    {
      "inputs": [],
      "name": "GPToken",
      "outputs": [
        {
          "internalType": "contract IERC721",
          "name": "",
          "type": "address"
        }
      ],
      "stateMutability": "view",
      "type": "function"
    },
    {
      "inputs": [
        {
          "internalType": "address",
          "name": "_addPermission",
          "type": "address"
        }
      ],
      "name": "addPermission",
      "outputs": [
        {
          "internalType": "bool",
          "name": "",
          "type": "bool"
        }
      ],
      "stateMutability": "nonpayable",
      "type": "function"
    },
    {
      "inputs": [
        {
          "internalType": "address",
          "name": "worker",
          "type": "address"
        }
      ],
      "name": "claim",
      "outputs": [
        {
          "internalType": "address[]",
          "name": "tokens",
          "type": "address[]"
        },
        {
          "internalType": "uint256[]",
          "name": "commision",
          "type": "uint256[]"
        }
      ],
      "stateMutability": "nonpayable",
      "type": "function"
    },
    {
      "inputs": [],
      "name": "cntOfWorker",
      "outputs": [
        {
          "internalType": "uint256",
          "name": "",
          "type": "uint256"
        }
      ],
      "stateMutability": "view",
      "type": "function"
    },
    {
      "inputs": [
        {
          "internalType": "address",
          "name": "",
          "type": "address"
        }
      ],
      "name": "commonPools",
      "outputs": [
        {
          "internalType": "bool",
          "name": "",
          "type": "bool"
        }
      ],
      "stateMutability": "view",
      "type": "function"
    },
    {
      "inputs": [
        {
          "internalType": "address",
          "name": "_delPermission",
          "type": "address"
        }
      ],
      "name": "delPermission",
      "outputs": [
        {
          "internalType": "bool",
          "name": "",
          "type": "bool"
        }
      ],
      "stateMutability": "nonpayable",
      "type": "function"
    },
    {
      "inputs": [
        {
          "internalType": "uint256",
          "name": "_index",
          "type": "uint256"
        }
      ],
      "name": "getPermission",
      "outputs": [
        {
          "internalType": "address",
          "name": "",
          "type": "address"
        }
      ],
      "stateMutability": "view",
      "type": "function"
    },
    {
      "inputs": [],
      "name": "getPermissionLength",
      "outputs": [
        {
          "internalType": "uint256",
          "name": "",
          "type": "uint256"
        }
      ],
      "stateMutability": "view",
      "type": "function"
    },
    {
      "inputs": [
        {
          "internalType": "address",
          "name": "worker",
          "type": "address"
        },
        {
          "internalType": "address",
          "name": "token",
          "type": "address"
        }
      ],
      "name": "getRemainQuota",
      "outputs": [
        {
          "internalType": "uint256",
          "name": "",
          "type": "uint256"
        }
      ],
      "stateMutability": "view",
      "type": "function"
    },
    {
      "inputs": [
        {
          "internalType": "address",
          "name": "worker",
          "type": "address"
        },
        {
          "internalType": "address",
          "name": "poolAddress",
          "type": "address"
        }
      ],
      "name": "getSwapQuota",
      "outputs": [
        {
          "internalType": "int256",
          "name": "amount0",
          "type": "int256"
        },
        {
          "internalType": "int256",
          "name": "amount1",
          "type": "int256"
        }
      ],
      "stateMutability": "view",
      "type": "function"
    },
    {
      "inputs": [
        {
          "internalType": "address",
          "name": "account",
          "type": "address"
        }
      ],
      "name": "isPermission",
      "outputs": [
        {
          "internalType": "bool",
          "name": "",
          "type": "bool"
        }
      ],
      "stateMutability": "view",
      "type": "function"
    },
    {
      "inputs": [
        {
          "internalType": "address",
          "name": "from",
          "type": "address"
        },
        {
          "internalType": "address",
          "name": "",
          "type": "address"
        },
        {
          "internalType": "uint256",
          "name": "workerId",
          "type": "uint256"
        },
        {
          "internalType": "bytes",
          "name": "",
          "type": "bytes"
        }
      ],
      "name": "onERC721Received",
      "outputs": [
        {
          "internalType": "bytes4",
          "name": "",
          "type": "bytes4"
        }
      ],
      "stateMutability": "nonpayable",
      "type": "function"
    },
    {
      "inputs": [],
      "name": "owner",
      "outputs": [
        {
          "internalType": "address",
          "name": "",
          "type": "address"
        }
      ],
      "stateMutability": "view",
      "type": "function"
    },
    {
      "inputs": [
        {
          "internalType": "address",
          "name": "",
          "type": "address"
        }
      ],
      "name": "poolList",
      "outputs": [
        {
          "components": [
            {
              "internalType": "int128",
              "name": "unbalance0",
              "type": "int128"
            },
            {
              "internalType": "int128",
              "name": "unbalance1",
              "type": "int128"
            }
          ],
          "internalType": "struct UniswapV3WorkCenter.Info",
          "name": "total",
          "type": "tuple"
        }
      ],
      "stateMutability": "view",
      "type": "function"
    },
    {
      "inputs": [
        {
          "internalType": "address",
          "name": "",
          "type": "address"
        },
        {
          "internalType": "address",
          "name": "",
          "type": "address"
        }
      ],
      "name": "profits",
      "outputs": [
        {
          "internalType": "int128",
          "name": "",
          "type": "int128"
        }
      ],
      "stateMutability": "view",
      "type": "function"
    },
    {
      "inputs": [
        {
          "internalType": "address",
          "name": "",
          "type": "address"
        },
        {
          "internalType": "address",
          "name": "",
          "type": "address"
        }
      ],
      "name": "quotas",
      "outputs": [
        {
          "internalType": "uint256",
          "name": "",
          "type": "uint256"
        }
      ],
      "stateMutability": "view",
      "type": "function"
    },
    {
      "inputs": [],
      "name": "renounceOwnership",
      "outputs": [],
      "stateMutability": "nonpayable",
      "type": "function"
    },
    {
      "inputs": [
        {
          "internalType": "address",
          "name": "worker",
          "type": "address"
        },
        {
          "internalType": "address[]",
          "name": "tokens",
          "type": "address[]"
        },
        {
          "internalType": "uint256[]",
          "name": "amounts",
          "type": "uint256[]"
        }
      ],
      "name": "setQuota",
      "outputs": [],
      "stateMutability": "nonpayable",
      "type": "function"
    },
    {
      "inputs": [
        {
          "internalType": "address",
          "name": "worker",
          "type": "address"
        },
        {
          "internalType": "address[]",
          "name": "pools",
          "type": "address[]"
        },
        {
          "internalType": "bool[]",
          "name": "enable",
          "type": "bool[]"
        }
      ],
      "name": "setWhiteList",
      "outputs": [],
      "stateMutability": "nonpayable",
      "type": "function"
    },
    {
      "inputs": [
        {
          "internalType": "address",
          "name": "worker",
          "type": "address"
        },
        {
          "internalType": "address",
          "name": "poolAddress",
          "type": "address"
        },
        {
          "internalType": "address",
          "name": "token0",
          "type": "address"
        },
        {
          "internalType": "address",
          "name": "token1",
          "type": "address"
        },
        {
          "internalType": "int128",
          "name": "profit0",
          "type": "int128"
        },
        {
          "internalType": "int128",
          "name": "profit1",
          "type": "int128"
        }
      ],
      "name": "settle",
      "outputs": [],
      "stateMutability": "nonpayable",
      "type": "function"
    },
    {
      "inputs": [
        {
          "internalType": "address[]",
          "name": "pools",
          "type": "address[]"
        },
        {
          "internalType": "bool[]",
          "name": "enable",
          "type": "bool[]"
        }
      ],
      "name": "switchPool",
      "outputs": [],
      "stateMutability": "nonpayable",
      "type": "function"
    },
    {
      "inputs": [
        {
          "internalType": "address[]",
          "name": "users",
          "type": "address[]"
        },
        {
          "internalType": "bool[]",
          "name": "enable",
          "type": "bool[]"
        }
      ],
      "name": "switchSwap",
      "outputs": [],
      "stateMutability": "nonpayable",
      "type": "function"
    },
    {
      "inputs": [
        {
          "internalType": "address",
          "name": "newOwner",
          "type": "address"
        }
      ],
      "name": "transferOwnership",
      "outputs": [],
      "stateMutability": "nonpayable",
      "type": "function"
    },
    {
      "inputs": [
        {
          "internalType": "address",
          "name": "worker",
          "type": "address"
        },
        {
          "internalType": "uint256",
          "name": "newPercent",
          "type": "uint256"
        }
      ],
      "name": "updateCommisionPercent",
      "outputs": [],
      "stateMutability": "nonpayable",
      "type": "function"
    },
    {
      "inputs": [
        {
          "internalType": "address",
          "name": "",
          "type": "address"
        },
        {
          "internalType": "address",
          "name": "",
          "type": "address"
        }
      ],
      "name": "whilelist",
      "outputs": [
        {
          "internalType": "bool",
          "name": "",
          "type": "bool"
        }
      ],
      "stateMutability": "view",
      "type": "function"
    },
    {
      "inputs": [
        {
          "internalType": "address",
          "name": "",
          "type": "address"
        }
      ],
      "name": "workers",
      "outputs": [
        {
          "internalType": "bool",
          "name": "created",
          "type": "bool"
        },
        {
          "internalType": "uint256",
          "name": "workerId",
          "type": "uint256"
        }
      ],
      "stateMutability": "view",
      "type": "function"
    }
  ],
  "bytecode": "0x60806040523480156200001157600080fd5b50604051620022f3380380620022f38339810160408190526200003491620000e6565b600062000040620000e2565b600080546001600160a01b0319166001600160a01b0383169081178255604051929350917f8be0079c531659141344cd1fd0a4f28419497f9722a3daafe3b4186f6b6457e0908290a3506001600160a01b038116620000bc5760405162461bcd60e51b8152600401620000b39062000116565b60405180910390fd5b600380546001600160a01b0319166001600160a01b03929092169190911790556200013f565b3390565b600060208284031215620000f8578081fd5b81516001600160a01b03811681146200010f578182fd5b9392505050565b6020808252600f908201526e494e56414c49445f4144445245535360881b604082015260600190565b6121a4806200014f6000396000f3fe608060405234801561001057600080fd5b506004361061018e5760003560e01c8063715018a6116100de578063de7ceed711610097578063e5b03e5c11610071578063e5b03e5c14610381578063f2fde38b14610394578063f6b11170146103a7578063ffb5e276146103ba5761018e565b8063de7ceed714610348578063e0faa9a21461035b578063e0fe5f621461036e5761018e565b8063715018a6146102ea57806374d3896d146102f25780638da5cb5b146102fa578063a36cc98114610302578063b1af99cf14610322578063be199988146103355761018e565b80634ffc82ea1161014b5780636223f82e116101255780636223f82e1461028357806367dd2f7d146102a45780636b0d4a85146102c457806370882e31146102d75761018e565b80634ffc82ea146102465780635530d4141461025b5780635a604f8a1461026e5761018e565b8063150b7a02146101935780631e83409a146101bc5780632e0bc794146101dd57806340260961146101fd5780634048a257146102125780634d0a5dbd14610233575b600080fd5b6101a66101a1366004611ab5565b6103cd565b6040516101b39190611f1e565b60405180910390f35b6101cf6101ca3660046119f6565b6104de565b6040516101b3929190611ede565b6101f06101eb366004611a10565b610782565b6040516101b39190611f03565b61021061020b366004611a42565b6107a2565b005b6102256102203660046119f6565b610ad7565b6040516101b3929190611f0e565b6101f06102413660046119f6565b610af6565b61024e610be6565b6040516101b39190612063565b61024e610269366004611a10565b610bf7565b610276610c14565b6040516101b39190611dc9565b610296610291366004611a10565b610c23565b6040516101b3929190611f41565b6102b76102b2366004611a10565b610ca0565b6040516101b39190611f33565b6101f06102d23660046119f6565b610cc0565b6102106102e5366004611c84565b610cd5565b610210610da8565b61024e610e54565b610276610e5a565b6103156103103660046119f6565b610e69565b6040516101b39190612045565b6101f06103303660046119f6565b610ea7565b610210610343366004611cad565b610f8f565b610210610356366004611b4b565b611099565b6101f06103693660046119f6565b6111ea565b61021061037c366004611cad565b6111f7565b61024e61038f366004611a10565b611316565b6102106103a23660046119f6565b6113a6565b6102106103b5366004611bbc565b6114a8565b6102766103c8366004611d0e565b6115de565b6001600160a01b03851660009081526007602052604081205460ff161561040f5760405162461bcd60e51b815260040161040690611f79565b60405180910390fd5b6003546001600160a01b031633146104395760405162461bcd60e51b815260040161040690611f4f565b600e805460019081019182905560408051808201825282815260208082019485526001600160a01b038b166000818152600783528481209351845460ff191690151517845595519290940191909155600a9052918290206107d0905590517f7325fb14450d3e5eb288c620b4ff1d6b43a41b33b4a4f143ae88cd4c12f99ea3906104c4908790612063565b60405180910390a250630a85bd0160e11b95945050505050565b6060806104ea336111ea565b61053b576040805162461bcd60e51b815260206004820152601c60248201527f63616c6c6572206973206e6f7420746865207065726d697373696f6e00000000604482015290519081900360640190fd5b6001600160a01b03831660009081526007602052604090205460ff166105735760405162461bcd60e51b815260040161040690612025565b6001600160a01b0383166000908152600d6020526040908190205481516002808252606082019093529091816020016020820280368337505060408051600280825260608201835293965092915060208301908036833701905050915060005b818110156106fb576001600160a01b0385166000908152600d602052604081208054839081106105ff57fe5b60009182526020808320909101546001600160a01b038981168452600b83526040808520919092168085529252822054909250600f90810b900b12156106575760405162461bcd60e51b815260040161040690611fc6565b8085838151811061066457fe5b6001600160a01b039283166020918202929092018101919091528782166000908152600b8252604080822093851682529290915220548451600f91820b90910b908590849081106106b157fe5b6020908102919091018101919091526001600160a01b038088166000908152600b8352604080822094909216815292909152902080546001600160801b03191690556001016105d3565b50506001600160a01b0383166000908152600c6020526040812054905b8181101561077b576001600160a01b0385166000908152600c6020526040812080548390811061074457fe5b60009182526020808320909101546001600160a01b039081168352600682526040808420918a168452915281205550600101610718565b5050915091565b600560209081526000928352604080842090915290825290205460ff1681565b6107ab336111ea565b6107fc576040805162461bcd60e51b815260206004820152601c60248201527f63616c6c6572206973206e6f7420746865207065726d697373696f6e00000000604482015290519081900360640190fd5b61080686866116ac565b6108225760405162461bcd60e51b815260040161040690611fa2565b6001600160a01b038681166000818152600b6020908152604080832089861680855290835281842080546001600160801b03198082166fffffffffffffffffffffffffffffffff600f93840b8d01840b8116919091179093558b89168752848720805480831690840b8c01840b8516179055978d168652600685528386209686528685528386208054808a1690830b8c01830b841617808416600160801b91829004840b8c01840b8516820217909155600188810180549a8b169a840b8d01840b85169a909a1780851690839004840b8c0190930b9093160217909655600d83528184209084529094019052919091205460ff16610975576001600160a01b038088166000908152600d60208181526040808420948a1680855260018681018452918520805460ff1916831790559282528454908101855593835290912090910180546001600160a01b03191690911790555b6001600160a01b038088166000908152600d60209081526040808320938816835260019093019052205460ff16610a01576001600160a01b038088166000908152600d6020818152604080842094891680855260018681018452918520805460ff1916831790559282528454908101855593835290912090910180546001600160a01b03191690911790555b6001600160a01b038088166000908152600c60209081526040808320938a16835260019093019052205460ff16610a8d576001600160a01b038088166000908152600c60208181526040808420948b1680855260018681018452918520805460ff1916831790559282528454908101855593835290912090910180546001600160a01b03191690911790555b7f99683c72c1b2ee68a2edb8e71d65029c1436f23107d81af43bec913911b8f004878787878787604051610ac696959493929190611ddd565b60405180910390a150505050505050565b6007602052600090815260409020805460019091015460ff9091169082565b6000610b00611709565b6001600160a01b0316610b11610e5a565b6001600160a01b031614610b5a576040805162461bcd60e51b8152602060048201819052602482015260008051602061214f833981519152604482015290519081900360640190fd5b6001600160a01b038216610b9f5760405162461bcd60e51b815260040180806020018281038252602c8152602001806120af602c913960400191505060405180910390fd5b6040516001600160a01b038316907fd8dc9578ceae094520aff2ba139a77dd24473034f8dbc74d85f6b02768c3377990600090a2610bde60018361170d565b90505b919050565b6000610bf26001611722565b905090565b600860209081526000928352604080842090915290825290205481565b6003546001600160a01b031681565b600080610c3084846116ac565b610c3f57506000905080610c99565b50506001600160a01b038082166000908152600660209081526040808320938616835292815290829020825180840190935254600f81810b810b810b808552600160801b909204810b810b810b93909201839052810b91900b5b9250929050565b600b602090815260009283526040808420909152908252902054600f0b81565b60046020526000908152604090205460ff1681565b610cdd611709565b6001600160a01b0316610cee610e5a565b6001600160a01b031614610d37576040805162461bcd60e51b8152602060048201819052602482015260008051602061214f833981519152604482015290519081900360640190fd5b6001600160a01b0382166000908152600a6020526040908190205490517fdb45ba51bff19cd4fc5ecceed909fe1a52b43d66ce4157138af957a5f65597ac91610d84918591908590611e8f565b60405180910390a16001600160a01b039091166000908152600a6020526040902055565b610db0611709565b6001600160a01b0316610dc1610e5a565b6001600160a01b031614610e0a576040805162461bcd60e51b8152602060048201819052602482015260008051602061214f833981519152604482015290519081900360640190fd5b600080546040516001600160a01b03909116907f8be0079c531659141344cd1fd0a4f28419497f9722a3daafe3b4186f6b6457e0908390a3600080546001600160a01b0319169055565b600e5481565b6000546001600160a01b031690565b600660209081526000918252604091829020825180840190935260010154600f81810b810b810b8452600160801b909104810b810b900b9082015281565b6000610eb1611709565b6001600160a01b0316610ec2610e5a565b6001600160a01b031614610f0b576040805162461bcd60e51b8152602060048201819052602482015260008051602061214f833981519152604482015290519081900360640190fd5b6001600160a01b038216610f505760405162461bcd60e51b815260040180806020018281038252602c815260200180612123602c913960400191505060405180910390fd5b6040516001600160a01b038316907ff63eb610adad478002288c0957a6037ba30c916a12eb8b9fc01fed014f1dc15790600090a2610bde60018361172d565b610f97611709565b6001600160a01b0316610fa8610e5a565b6001600160a01b031614610ff1576040805162461bcd60e51b8152602060048201819052602482015260008051602061214f833981519152604482015290519081900360640190fd5b60005b825181101561105b5781818151811061100957fe5b60200260200101516009600085848151811061102157fe5b6020908102919091018101516001600160a01b03168252810191909152604001600020805460ff1916911515919091179055600101610ff4565b507faa8091f5556474368088a7b1472399d627da2db018a0aebd778756a01f7a34b0828260405161108d929190611eb0565b60405180910390a15050565b6110a1611709565b6001600160a01b03166110b2610e5a565b6001600160a01b0316146110fb576040805162461bcd60e51b8152602060048201819052602482015260008051602061214f833981519152604482015290519081900360640190fd5b805182511461111c5760405162461bcd60e51b815260040161040690611ffd565b60005b82518110156111a95781818151811061113457fe5b602002602001015160056000866001600160a01b03166001600160a01b03168152602001908152602001600020600085848151811061116f57fe5b6020908102919091018101516001600160a01b03168252810191909152604001600020805460ff191691151591909117905560010161111f565b507f8fac9a2e6c851309527986fec7868b63105d23c332a0eb04326efb2a752344898383836040516111dd93929190611e19565b60405180910390a1505050565b6000610bde600183611742565b6111ff611709565b6001600160a01b0316611210610e5a565b6001600160a01b031614611259576040805162461bcd60e51b8152602060048201819052602482015260008051602061214f833981519152604482015290519081900360640190fd5b805182511461127a5760405162461bcd60e51b815260040161040690611ffd565b60005b82518110156112e45781818151811061129257fe5b6020026020010151600460008584815181106112aa57fe5b6020908102919091018101516001600160a01b03168252810191909152604001600020805460ff191691151591909117905560010161127d565b507f06513198a4a9281d22613b8b140b08f6935d30776ca881da51d7b0efb03d748b828260405161108d929190611eb0565b6001600160a01b03821660009081526007602052604081205460ff1661133e575060006113a0565b6001600160a01b038084166000818152600b60209081526040808320948716808452948252808320549383526008825280832094835293905291822054600f91820b929091828401900b13611394576000611398565b8181015b600f0b925050505b92915050565b6113ae611709565b6001600160a01b03166113bf610e5a565b6001600160a01b031614611408576040805162461bcd60e51b8152602060048201819052602482015260008051602061214f833981519152604482015290519081900360640190fd5b6001600160a01b03811661144d5760405162461bcd60e51b81526004018080602001828103825260268152602001806120fd6026913960400191505060405180910390fd5b600080546040516001600160a01b03808516939216917f8be0079c531659141344cd1fd0a4f28419497f9722a3daafe3b4186f6b6457e091a3600080546001600160a01b0319166001600160a01b0392909216919091179055565b6114b0611709565b6001600160a01b03166114c1610e5a565b6001600160a01b03161461150a576040805162461bcd60e51b8152602060048201819052602482015260008051602061214f833981519152604482015290519081900360640190fd5b805182511461152b5760405162461bcd60e51b815260040161040690611ffd565b60005b82518110156115aa5781818151811061154357fe5b602002602001015160086000866001600160a01b03166001600160a01b03168152602001908152602001600020600085848151811061157e57fe5b6020908102919091018101516001600160a01b031682528101919091526040016000205560010161152e565b507fd3ef330df13fcdca3be6f710d093bc1fa7c744f0385e52c51e093fc46d2033098383836040516111dd93929190611e59565b60006115e8611709565b6001600160a01b03166115f9610e5a565b6001600160a01b031614611642576040805162461bcd60e51b8152602060048201819052602482015260008051602061214f833981519152604482015290519081900360640190fd5b600161164c610be6565b038211156116a1576040805162461bcd60e51b815260206004820152601d60248201527f4d756c7469706c653a20696e646578206f7574206f6620626f756e6473000000604482015290519081900360640190fd5b610bde600183611757565b6001600160a01b03811660009081526004602052604081205460ff1615156001148061170257506001600160a01b0380841660009081526005602090815260408083209386168352929052205460ff1615156001145b9392505050565b3390565b6000611702836001600160a01b038416611763565b6000610bde826117ad565b6000611702836001600160a01b0384166117b1565b6000611702836001600160a01b038416611877565b6000611702838361188f565b600061176f8383611877565b6117a5575081546001818101845560008481526020808220909301849055845484825282860190935260409020919091556113a0565b5060006113a0565b5490565b6000818152600183016020526040812054801561186d57835460001980830191908101906000908790839081106117e457fe5b906000526020600020015490508087600001848154811061180157fe5b60009182526020808320909101929092558281526001898101909252604090209084019055865487908061183157fe5b600190038181906000526020600020016000905590558660010160008781526020019081526020016000206000905560019450505050506113a0565b60009150506113a0565b60009081526001919091016020526040902054151590565b815460009082106118d15760405162461bcd60e51b81526004018080602001828103825260228152602001806120db6022913960400191505060405180910390fd5b8260000182815481106118e057fe5b9060005260206000200154905092915050565b80356001600160a01b0381168114610be157600080fd5b600082601f83011261191a578081fd5b8135602061192f61192a83612090565b61206c565b828152818101908583018385028701840188101561194b578586fd5b855b858110156119705761195e826118f3565b8452928401929084019060010161194d565b5090979650505050505050565b600082601f83011261198d578081fd5b8135602061199d61192a83612090565b82815281810190858301838502870184018810156119b9578586fd5b855b8581101561197057813580151581146119d2578788fd5b845292840192908401906001016119bb565b8035600f81900b8114610be157600080fd5b600060208284031215611a07578081fd5b611702826118f3565b60008060408385031215611a22578081fd5b611a2b836118f3565b9150611a39602084016118f3565b90509250929050565b60008060008060008060c08789031215611a5a578182fd5b611a63876118f3565b9550611a71602088016118f3565b9450611a7f604088016118f3565b9350611a8d606088016118f3565b9250611a9b608088016119e4565b9150611aa960a088016119e4565b90509295509295509295565b600080600080600060808688031215611acc578081fd5b611ad5866118f3565b9450611ae3602087016118f3565b935060408601359250606086013567ffffffffffffffff80821115611b06578283fd5b818801915088601f830112611b19578283fd5b813581811115611b27578384fd5b896020828501011115611b38578384fd5b9699959850939650602001949392505050565b600080600060608486031215611b5f578283fd5b611b68846118f3565b9250602084013567ffffffffffffffff80821115611b84578384fd5b611b908783880161190a565b93506040860135915080821115611ba5578283fd5b50611bb28682870161197d565b9150509250925092565b600080600060608486031215611bd0578283fd5b611bd9846118f3565b925060208085013567ffffffffffffffff80821115611bf6578485fd5b611c028883890161190a565b94506040870135915080821115611c17578384fd5b508501601f81018713611c28578283fd5b8035611c3661192a82612090565b81815283810190838501858402850186018b1015611c52578687fd5b8694505b83851015611c74578035835260019490940193918501918501611c56565b5080955050505050509250925092565b60008060408385031215611c96578182fd5b611c9f836118f3565b946020939093013593505050565b60008060408385031215611cbf578182fd5b823567ffffffffffffffff80821115611cd6578384fd5b611ce28683870161190a565b93506020850135915080821115611cf7578283fd5b50611d048582860161197d565b9150509250929050565b600060208284031215611d1f578081fd5b5035919050565b6000815180845260208085019450808401835b83811015611d5e5781516001600160a01b031687529582019590820190600101611d39565b509495945050505050565b6000815180845260208085019450808401835b83811015611d5e578151151587529582019590820190600101611d7c565b6000815180845260208085019450808401835b83811015611d5e57815187529582019590820190600101611dad565b6001600160a01b0391909116815260200190565b6001600160a01b0396871681529486166020860152928516604085015293166060830152600f92830b608083015290910b60a082015260c00190565b6001600160a01b0384168152606060208201819052600090611e3d90830185611d26565b8281036040840152611e4f8185611d69565b9695505050505050565b6001600160a01b0384168152606060208201819052600090611e7d90830185611d26565b8281036040840152611e4f8185611d9a565b6001600160a01b039390931683526020830191909152604082015260600190565b600060408252611ec36040830185611d26565b8281036020840152611ed58185611d69565b95945050505050565b600060408252611ef16040830185611d26565b8281036020840152611ed58185611d9a565b901515815260200190565b9115158252602082015260400190565b6001600160e01b031991909116815260200190565b600f9190910b815260200190565b918252602082015260400190565b60208082526010908201526f24a72b20a624a21023a8102a27a5a2a760811b604082015260600190565b6020808252600f908201526e105314915051164810d49150551151608a1b604082015260600190565b6020808252600a90820152691393d50814115493525560b21b604082015260600190565b6020808252601d908201527f50524f464954204d5553542047524541544552205448414e205a45524f000000604082015260600190565b6020808252600e908201526d12539590531251081193d493505560921b604082015260600190565b60208082526006908201526504e4f542047560d41b604082015260600190565b8151600f90810b8252602092830151900b9181019190915260400190565b90815260200190565b60405181810167ffffffffffffffff8111828210171561208857fe5b604052919050565b600067ffffffffffffffff8211156120a457fe5b506020908102019056fe4d756c7469706c653a205f6164645065726d697373696f6e20697320746865207a65726f2061646472657373456e756d657261626c655365743a20696e646578206f7574206f6620626f756e64734f776e61626c653a206e6577206f776e657220697320746865207a65726f20616464726573734d756c7469706c653a205f64656c5065726d697373696f6e20697320746865207a65726f20616464726573734f776e61626c653a2063616c6c6572206973206e6f7420746865206f776e6572a264697066735822122083a8d5d651febf4960afbcb78aaa2ae562e32d6c01f34a4ee084c081981166b264736f6c63430007060033",
  "linkReferences": {},
  "deployedLinkReferences": {}
}