{
  "_format": "hh-sol-artifact-1",
  "contractName": "UniswapV3WorkCenter",
  "sourceName": "contracts/UniswapV3WorkCenter.sol",
  "abi": [
    {
      "inputs": [
        {
          "internalType": "contract IERC721",
          "name": "_gpToken",
          "type": "address"
        }
      ],
      "stateMutability": "nonpayable",
      "type": "constructor"
    },
    {
      "anonymous": false,
      "inputs": [
        {
          "indexed": true,
          "internalType": "address",
          "name": "user",
          "type": "address"
        },
        {
          "indexed": false,
          "internalType": "uint256",
          "name": "workerId",
          "type": "uint256"
        }
      ],
      "name": "AccountCreated",
      "type": "event"
    },
    {
      "anonymous": false,
      "inputs": [
        {
          "indexed": true,
          "internalType": "address",
          "name": "permission",
          "type": "address"
        }
      ],
      "name": "AddPermission",
      "type": "event"
    },
    {
      "anonymous": false,
      "inputs": [
        {
          "indexed": true,
          "internalType": "address",
          "name": "permission",
          "type": "address"
        }
      ],
      "name": "DelPermission",
      "type": "event"
    },
    {
      "anonymous": false,
      "inputs": [
        {
          "indexed": true,
          "internalType": "address",
          "name": "previousOwner",
          "type": "address"
        },
        {
          "indexed": true,
          "internalType": "address",
          "name": "newOwner",
          "type": "address"
        }
      ],
      "name": "OwnershipTransferred",
      "type": "event"
    },
    {
      "anonymous": false,
      "inputs": [
        {
          "indexed": false,
          "internalType": "uint256",
          "name": "newPeriod",
          "type": "uint256"
        }
      ],
      "name": "SetPeriod",
      "type": "event"
    },
    {
      "anonymous": false,
      "inputs": [
        {
          "indexed": false,
          "internalType": "address",
          "name": "worker",
          "type": "address"
        },
        {
          "indexed": false,
          "internalType": "address[]",
          "name": "tokens",
          "type": "address[]"
        },
        {
          "indexed": false,
          "internalType": "uint256[]",
          "name": "amounts",
          "type": "uint256[]"
        }
      ],
      "name": "SetQuota",
      "type": "event"
    },
    {
      "anonymous": false,
      "inputs": [
        {
          "indexed": false,
          "internalType": "address",
          "name": "worker",
          "type": "address"
        },
        {
          "indexed": false,
          "internalType": "address[]",
          "name": "pools",
          "type": "address[]"
        },
        {
          "indexed": false,
          "internalType": "bool[]",
          "name": "enable",
          "type": "bool[]"
        }
      ],
      "name": "SetWhiteList",
      "type": "event"
    },
    {
      "anonymous": false,
      "inputs": [
        {
          "indexed": false,
          "internalType": "address",
          "name": "worker",
          "type": "address"
        },
        {
          "indexed": false,
          "internalType": "address",
          "name": "poolAddress",
          "type": "address"
        },
        {
          "indexed": false,
          "internalType": "address",
          "name": "token0",
          "type": "address"
        },
        {
          "indexed": false,
          "internalType": "address",
          "name": "token1",
          "type": "address"
        },
        {
          "indexed": false,
          "internalType": "int128",
          "name": "profit0",
          "type": "int128"
        },
        {
          "indexed": false,
          "internalType": "int128",
          "name": "profit1",
          "type": "int128"
        }
      ],
      "name": "Settle",
      "type": "event"
    },
    {
      "anonymous": false,
      "inputs": [
        {
          "indexed": false,
          "internalType": "address[]",
          "name": "workers",
          "type": "address[]"
        },
        {
          "indexed": false,
          "internalType": "bool[]",
          "name": "enable",
          "type": "bool[]"
        }
      ],
      "name": "SwitchClaim",
      "type": "event"
    },
    {
      "anonymous": false,
      "inputs": [
        {
          "indexed": false,
          "internalType": "address[]",
          "name": "pools",
          "type": "address[]"
        },
        {
          "indexed": false,
          "internalType": "bool[]",
          "name": "enable",
          "type": "bool[]"
        }
      ],
      "name": "SwitchPool",
      "type": "event"
    },
    {
      "anonymous": false,
      "inputs": [
        {
          "indexed": false,
          "internalType": "address[]",
          "name": "workers",
          "type": "address[]"
        },
        {
          "indexed": false,
          "internalType": "bool[]",
          "name": "enable",
          "type": "bool[]"
        }
      ],
      "name": "SwitchSwap",
      "type": "event"
    },
    {
      "anonymous": false,
      "inputs": [
        {
          "indexed": false,
          "internalType": "uint256",
          "name": "oldPercent",
          "type": "uint256"
        },
        {
          "indexed": false,
          "internalType": "uint256",
          "name": "newPercent",
          "type": "uint256"
        }
      ],
      "name": "UpdateDevPercent",
      "type": "event"
    },
    {
      "anonymous": false,
      "inputs": [
        {
          "indexed": false,
          "internalType": "address",
          "name": "worker",
          "type": "address"
        },
        {
          "indexed": false,
          "internalType": "uint256",
          "name": "oldPercent",
          "type": "uint256"
        },
        {
          "indexed": false,
          "internalType": "uint256",
          "name": "newPercent",
          "type": "uint256"
        }
      ],
      "name": "UpdateGPPercent",
      "type": "event"
    },
    {
      "inputs": [],
      "name": "GPToken",
      "outputs": [
        {
          "internalType": "contract IERC721",
          "name": "",
          "type": "address"
        }
      ],
      "stateMutability": "view",
      "type": "function"
    },
    {
      "inputs": [
        {
          "internalType": "address",
          "name": "_addPermission",
          "type": "address"
        }
      ],
      "name": "addPermission",
      "outputs": [
        {
          "internalType": "bool",
          "name": "",
          "type": "bool"
        }
      ],
      "stateMutability": "nonpayable",
      "type": "function"
    },
    {
      "inputs": [
        {
          "internalType": "address",
          "name": "",
          "type": "address"
        }
      ],
      "name": "canClaim",
      "outputs": [
        {
          "internalType": "bool",
          "name": "",
          "type": "bool"
        }
      ],
      "stateMutability": "view",
      "type": "function"
    },
    {
      "inputs": [
        {
          "internalType": "address",
          "name": "",
          "type": "address"
        }
      ],
      "name": "canSwap",
      "outputs": [
        {
          "internalType": "bool",
          "name": "",
          "type": "bool"
        }
      ],
      "stateMutability": "view",
      "type": "function"
    },
    {
      "inputs": [
        {
          "internalType": "address",
          "name": "worker",
          "type": "address"
        }
      ],
      "name": "claim",
      "outputs": [
        {
          "internalType": "address[]",
          "name": "tokens",
          "type": "address[]"
        },
        {
          "internalType": "uint256[]",
          "name": "commision",
          "type": "uint256[]"
        }
      ],
      "stateMutability": "nonpayable",
      "type": "function"
    },
    {
      "inputs": [],
      "name": "cntOfWorker",
      "outputs": [
        {
          "internalType": "uint256",
          "name": "",
          "type": "uint256"
        }
      ],
      "stateMutability": "view",
      "type": "function"
    },
    {
      "inputs": [
        {
          "internalType": "address",
          "name": "",
          "type": "address"
        }
      ],
      "name": "commisionPercent",
      "outputs": [
        {
          "internalType": "uint256",
          "name": "",
          "type": "uint256"
        }
      ],
      "stateMutability": "view",
      "type": "function"
    },
    {
      "inputs": [
        {
          "internalType": "address",
          "name": "",
          "type": "address"
        }
      ],
      "name": "commonPools",
      "outputs": [
        {
          "internalType": "bool",
          "name": "",
          "type": "bool"
        }
      ],
      "stateMutability": "view",
      "type": "function"
    },
    {
      "inputs": [
        {
          "internalType": "address",
          "name": "_delPermission",
          "type": "address"
        }
      ],
      "name": "delPermission",
      "outputs": [
        {
          "internalType": "bool",
          "name": "",
          "type": "bool"
        }
      ],
      "stateMutability": "nonpayable",
      "type": "function"
    },
    {
      "inputs": [],
      "name": "devPercent",
      "outputs": [
        {
          "internalType": "uint256",
          "name": "",
          "type": "uint256"
        }
      ],
      "stateMutability": "view",
      "type": "function"
    },
    {
      "inputs": [
        {
          "internalType": "uint256",
          "name": "_index",
          "type": "uint256"
        }
      ],
      "name": "getPermission",
      "outputs": [
        {
          "internalType": "address",
          "name": "",
          "type": "address"
        }
      ],
      "stateMutability": "view",
      "type": "function"
    },
    {
      "inputs": [],
      "name": "getPermissionLength",
      "outputs": [
        {
          "internalType": "uint256",
          "name": "",
          "type": "uint256"
        }
      ],
      "stateMutability": "view",
      "type": "function"
    },
    {
      "inputs": [
        {
          "internalType": "address",
          "name": "worker",
          "type": "address"
        },
        {
          "internalType": "address",
          "name": "token",
          "type": "address"
        }
      ],
      "name": "getRemainQuota",
      "outputs": [
        {
          "internalType": "uint256",
          "name": "",
          "type": "uint256"
        }
      ],
      "stateMutability": "view",
      "type": "function"
    },
    {
      "inputs": [
        {
          "internalType": "address",
          "name": "worker",
          "type": "address"
        },
        {
          "internalType": "address",
          "name": "poolAddress",
          "type": "address"
        }
      ],
      "name": "getSwapQuota",
      "outputs": [
        {
          "internalType": "int256",
          "name": "amount0",
          "type": "int256"
        },
        {
          "internalType": "int256",
          "name": "amount1",
          "type": "int256"
        }
      ],
      "stateMutability": "view",
      "type": "function"
    },
    {
      "inputs": [
        {
          "internalType": "address",
          "name": "account",
          "type": "address"
        }
      ],
      "name": "isPermission",
      "outputs": [
        {
          "internalType": "bool",
          "name": "",
          "type": "bool"
        }
      ],
      "stateMutability": "view",
      "type": "function"
    },
    {
      "inputs": [
        {
          "internalType": "address",
          "name": "from",
          "type": "address"
        },
        {
          "internalType": "address",
          "name": "",
          "type": "address"
        },
        {
          "internalType": "uint256",
          "name": "workerId",
          "type": "uint256"
        },
        {
          "internalType": "bytes",
          "name": "",
          "type": "bytes"
        }
      ],
      "name": "onERC721Received",
      "outputs": [
        {
          "internalType": "bytes4",
          "name": "",
          "type": "bytes4"
        }
      ],
      "stateMutability": "nonpayable",
      "type": "function"
    },
    {
      "inputs": [],
      "name": "owner",
      "outputs": [
        {
          "internalType": "address",
          "name": "",
          "type": "address"
        }
      ],
      "stateMutability": "view",
      "type": "function"
    },
    {
      "inputs": [],
      "name": "period",
      "outputs": [
        {
          "internalType": "uint256",
          "name": "",
          "type": "uint256"
        }
      ],
      "stateMutability": "view",
      "type": "function"
    },
    {
      "inputs": [
        {
          "internalType": "uint256",
          "name": "",
          "type": "uint256"
        },
        {
          "internalType": "address",
          "name": "",
          "type": "address"
        }
      ],
      "name": "poolInfo",
      "outputs": [
        {
          "internalType": "int128",
          "name": "unbalance0",
          "type": "int128"
        },
        {
          "internalType": "int128",
          "name": "unbalance1",
          "type": "int128"
        }
      ],
      "stateMutability": "view",
      "type": "function"
    },
    {
      "inputs": [
        {
          "internalType": "uint256",
          "name": "",
          "type": "uint256"
        },
        {
          "internalType": "address",
          "name": "",
          "type": "address"
        },
        {
          "internalType": "address",
          "name": "",
          "type": "address"
        }
      ],
      "name": "profits",
      "outputs": [
        {
          "internalType": "int128",
          "name": "",
          "type": "int128"
        }
      ],
      "stateMutability": "view",
      "type": "function"
    },
    {
      "inputs": [
        {
          "internalType": "address",
          "name": "",
          "type": "address"
        },
        {
          "internalType": "address",
          "name": "",
          "type": "address"
        }
      ],
      "name": "quotas",
      "outputs": [
        {
          "internalType": "uint256",
          "name": "",
          "type": "uint256"
        }
      ],
      "stateMutability": "view",
      "type": "function"
    },
    {
      "inputs": [],
      "name": "renounceOwnership",
      "outputs": [],
      "stateMutability": "nonpayable",
      "type": "function"
    },
    {
      "inputs": [
        {
          "internalType": "uint256",
          "name": "_period",
          "type": "uint256"
        }
      ],
      "name": "setPeriod",
      "outputs": [],
      "stateMutability": "nonpayable",
      "type": "function"
    },
    {
      "inputs": [
        {
          "internalType": "address",
          "name": "worker",
          "type": "address"
        },
        {
          "internalType": "address[]",
          "name": "tokens",
          "type": "address[]"
        },
        {
          "internalType": "uint256[]",
          "name": "amounts",
          "type": "uint256[]"
        }
      ],
      "name": "setQuota",
      "outputs": [],
      "stateMutability": "nonpayable",
      "type": "function"
    },
    {
      "inputs": [
        {
          "internalType": "address",
          "name": "worker",
          "type": "address"
        },
        {
          "internalType": "address[]",
          "name": "pools",
          "type": "address[]"
        },
        {
          "internalType": "bool[]",
          "name": "enable",
          "type": "bool[]"
        }
      ],
      "name": "setWhiteList",
      "outputs": [],
      "stateMutability": "nonpayable",
      "type": "function"
    },
    {
      "inputs": [
        {
          "internalType": "address",
          "name": "worker",
          "type": "address"
        },
        {
          "internalType": "address",
          "name": "poolAddress",
          "type": "address"
        },
        {
          "internalType": "address",
          "name": "token0",
          "type": "address"
        },
        {
          "internalType": "address",
          "name": "token1",
          "type": "address"
        },
        {
          "internalType": "int128",
          "name": "profit0",
          "type": "int128"
        },
        {
          "internalType": "int128",
          "name": "profit1",
          "type": "int128"
        }
      ],
      "name": "settle",
      "outputs": [],
      "stateMutability": "nonpayable",
      "type": "function"
    },
    {
      "inputs": [
        {
          "internalType": "address[]",
          "name": "users",
          "type": "address[]"
        },
        {
          "internalType": "bool[]",
          "name": "enable",
          "type": "bool[]"
        }
      ],
      "name": "switchClaim",
      "outputs": [],
      "stateMutability": "nonpayable",
      "type": "function"
    },
    {
      "inputs": [
        {
          "internalType": "address[]",
          "name": "pools",
          "type": "address[]"
        },
        {
          "internalType": "bool[]",
          "name": "enable",
          "type": "bool[]"
        }
      ],
      "name": "switchPool",
      "outputs": [],
      "stateMutability": "nonpayable",
      "type": "function"
    },
    {
      "inputs": [
        {
          "internalType": "address[]",
          "name": "users",
          "type": "address[]"
        },
        {
          "internalType": "bool[]",
          "name": "enable",
          "type": "bool[]"
        }
      ],
      "name": "switchSwap",
      "outputs": [],
      "stateMutability": "nonpayable",
      "type": "function"
    },
    {
      "inputs": [
        {
          "internalType": "address",
          "name": "newOwner",
          "type": "address"
        }
      ],
      "name": "transferOwnership",
      "outputs": [],
      "stateMutability": "nonpayable",
      "type": "function"
    },
    {
      "inputs": [
        {
          "internalType": "address",
          "name": "worker",
          "type": "address"
        },
        {
          "internalType": "uint256",
          "name": "newPercent",
          "type": "uint256"
        }
      ],
      "name": "updateCommisionPercent",
      "outputs": [],
      "stateMutability": "nonpayable",
      "type": "function"
    },
    {
      "inputs": [
        {
          "internalType": "uint256",
          "name": "newPercent",
          "type": "uint256"
        }
      ],
      "name": "updateDevPercent",
      "outputs": [],
      "stateMutability": "nonpayable",
      "type": "function"
    },
    {
      "inputs": [
        {
          "internalType": "uint256",
          "name": "",
          "type": "uint256"
        },
        {
          "internalType": "address",
          "name": "",
          "type": "address"
        },
        {
          "internalType": "address",
          "name": "",
          "type": "address"
        }
      ],
      "name": "userInfo",
      "outputs": [
        {
          "internalType": "int128",
          "name": "unbalance0",
          "type": "int128"
        },
        {
          "internalType": "int128",
          "name": "unbalance1",
          "type": "int128"
        }
      ],
      "stateMutability": "view",
      "type": "function"
    },
    {
      "inputs": [
        {
          "internalType": "address",
          "name": "",
          "type": "address"
        },
        {
          "internalType": "address",
          "name": "",
          "type": "address"
        }
      ],
      "name": "whitelist",
      "outputs": [
        {
          "internalType": "bool",
          "name": "",
          "type": "bool"
        }
      ],
      "stateMutability": "view",
      "type": "function"
    },
    {
      "inputs": [
        {
          "internalType": "address",
          "name": "",
          "type": "address"
        }
      ],
      "name": "workers",
      "outputs": [
        {
          "internalType": "bool",
          "name": "created",
          "type": "bool"
        },
        {
          "internalType": "uint256",
          "name": "workerId",
          "type": "uint256"
        }
      ],
      "stateMutability": "view",
      "type": "function"
    }
  ],
  "bytecode": "0x60806040526103e8600e553480156200001757600080fd5b5060405162002f8838038062002f888339810160408190526200003a91620000ec565b600062000046620000e8565b600080546001600160a01b0319166001600160a01b0383169081178255604051929350917f8be0079c531659141344cd1fd0a4f28419497f9722a3daafe3b4186f6b6457e0908290a3506001600160a01b038116620000c25760405162461bcd60e51b8152600401620000b9906200011c565b60405180910390fd5b600380546001600160a01b0319166001600160a01b039290921691909117905562000145565b3390565b600060208284031215620000fe578081fd5b81516001600160a01b038116811462000115578182fd5b9392505050565b6020808252600f908201526e494e56414c49445f4144445245535360881b604082015260600190565b612e3380620001556000396000f3fe608060405234801561001057600080fd5b50600436106102115760003560e01c80637ea1915911610125578063e0faa9a2116100ad578063ef78d4fd1161007c578063ef78d4fd1461049d578063f2fde38b146104a5578063f6b11170146104b8578063fc3c28af146104cb578063ffb5e276146104d357610211565b8063e0faa9a214610444578063e0fe5f6214610457578063e5b03e5c1461046a578063ef3b42241461047d57610211565b8063b092145e116100f4578063b092145e146103e5578063b1af99cf146103f8578063be1999881461040b578063bf3506c11461041e578063de7ceed71461043157610211565b80637ea19159146103a457806381ea4ee7146103b75780638da5cb5b146103ca57806392bc3117146103d257610211565b80634d0a5dbd116101a85780636223f82e116101775780636223f82e1461034d5780636b0d4a851461036e57806370882e3114610381578063715018a61461039457806374d3896d1461039c57610211565b80634d0a5dbd146102f05780634ffc82ea146103105780635530d414146103255780635a604f8a1461033857610211565b80631e83409a116101e45780631e83409a1461027a5780632e0a62bc1461029b57806340260961146102bc5780634048a257146102cf57610211565b80630b397a12146102165780630d6a088d1461022b5780630f3a9f651461023e578063150b7a0214610251575b600080fd5b6102296102243660046128ab565b6104e6565b005b61022961023936600461284a565b6105b2565b61022961024c3660046128ab565b6106dd565b61026461025f366004612652565b61077f565b6040516102719190612b18565b60405180910390f35b61028d610288366004612593565b6108aa565b604051610271929190612ad8565b6102ae6102a93660046128e5565b610eca565b604051610271929190612b3b565b6102296102ca3660046125df565b610efc565b6102e26102dd366004612593565b6115a1565b604051610271929190612b08565b6103036102fe366004612593565b6115c0565b6040516102719190612afd565b6103186116b0565b6040516102719190612cf2565b6103186103333660046125ad565b6116c1565b6103406116de565b60405161027191906129c3565b61036061035b3660046125ad565b6116ed565b604051610271929190612b4f565b61030361037c366004612593565b61179f565b61022961038f366004612821565b6117b4565b6102296118a9565b610318611955565b6103186103b2366004612593565b61195b565b6102ae6103c53660046128c3565b61196d565b610340611999565b6103036103e0366004612593565b6119a8565b6103036103f33660046125ad565b6119bd565b610303610406366004612593565b6119dd565b61022961041936600461284a565b611ac5565b61030361042c366004612593565b611be4565b61022961043f3660046126e8565b611bf9565b610303610452366004612593565b611d4a565b61022961046536600461284a565b611d57565b6103186104783660046125ad565b611e76565b61049061048b3660046128e5565b611f11565b6040516102719190612b2d565b610318611f37565b6102296104b3366004612593565b611f3d565b6102296104c6366004612759565b61203f565b610318612175565b6103406104e13660046128ab565b61217b565b6104ee612249565b6001600160a01b03166104ff611999565b6001600160a01b031614610548576040805162461bcd60e51b81526020600482018190526024820152600080516020612dde833981519152604482015290519081900360640190fd5b61271081106105725760405162461bcd60e51b815260040161056990612cca565b60405180910390fd5b7f31b8257650b36f22415e02cfe0eb160d2da56bd0f089b2c44ddc61236a386410600e54826040516105a5929190612b4f565b60405180910390a1600e55565b6105ba612249565b6001600160a01b03166105cb611999565b6001600160a01b031614610614576040805162461bcd60e51b81526020600482018190526024820152600080516020612dde833981519152604482015290519081900360640190fd5b80518251146106355760405162461bcd60e51b815260040161056990612c5b565b60005b825181101561069f5781818151811061064d57fe5b6020026020010151600b600085848151811061066557fe5b6020908102919091018101516001600160a01b03168252810191909152604001600020805460ff1916911515919091179055600101610638565b507fd00365f44002e3ae2ee0c6affdbdef7107a4b8c685f7251f1cc54cd1141cf46e82826040516106d1929190612aaa565b60405180910390a15050565b6106e5612249565b6001600160a01b03166106f6611999565b6001600160a01b03161461073f576040805162461bcd60e51b81526020600482018190526024820152600080516020612dde833981519152604482015290519081900360640190fd5b60128190556040517f1445a8659aa0e3feb1c4a3ea8344a4e720c388d7ce59ab4824248fbc3bd1ef9490610774908390612cf2565b60405180910390a150565b6001600160a01b03851660009081526008602052604081205460ff16156107b85760405162461bcd60e51b815260040161056990612b87565b6003546001600160a01b031633146107e25760405162461bcd60e51b815260040161056990612b5d565b6011805460019081019182905560408051808201825282815260208082019485526001600160a01b038b166000818152600883528481209351845490151560ff19918216178555965193860193909355600c82528383206107d09055600a82528383208054871686179055600b90915290829020805490941690921790925590517f7325fb14450d3e5eb288c620b4ff1d6b43a41b33b4a4f143ae88cd4c12f99ea390610890908790612cf2565b60405180910390a250630a85bd0160e11b95945050505050565b6060806108b633611d4a565b610907576040805162461bcd60e51b815260206004820152601c60248201527f63616c6c6572206973206e6f7420746865207065726d697373696f6e00000000604482015290519081900360640190fd5b6001600160a01b03831660009081526008602052604090205460ff1661093f5760405162461bcd60e51b815260040161056990612c83565b6001600160a01b0383166000908152600b602052604090205460ff166109775760405162461bcd60e51b815260040161056990612ca3565b60125460009081526010602090815260408083206001600160a01b03871684529091529020548067ffffffffffffffff811180156109b457600080fd5b506040519080825280602002602001820160405280156109de578160200160208202803683370190505b5092508067ffffffffffffffff811180156109f857600080fd5b50604051908082528060200260200182016040528015610a22578160200160208202803683370190505b50915060005b81811015610b7b5760125460009081526010602090815260408083206001600160a01b03891684529091528120805483908110610a6157fe5b60009182526020808320909101546012548352600d825260408084206001600160a01b038b8116865290845281852092168085529190925290822054909250600f90810b900b1215610ac55760405162461bcd60e51b815260040161056990612bfd565b80858381518110610ad257fe5b6001600160a01b039283166020918202929092018101919091526012546000908152600d825260408082208a85168352835280822093851682529290915220548451600f91820b90910b90859084908110610b2957fe5b6020908102919091018101919091526012546000908152600d825260408082206001600160a01b03808b16845290845281832094168252929091522080546001600160801b0319169055600101610a28565b50506012546000908152600f602090815260408083206001600160a01b0387168452825280832054600c90925290912054600e546127109082011115610bd35760405162461bcd60e51b815260040161056990612c34565b60005b82811015610ec2576012546000908152600f602090815260408083206001600160a01b038a1684529091528120805483908110610c0f57fe5b6000918252602080832090910154600e5460125484526007835260408085206001600160a01b03938416808752908552818620938d168652929093529183205490935061271091600f91820b90870102900b600e5460125460009081526007602090815260408083206001600160a01b038981168552908352818420908f1684529091528120549390920593509091612710918701600160801b909104600f90810b91909102900b059050816006600060125481526020019081526020016000206000856001600160a01b03166001600160a01b0316815260200190815260200160002060000160008282829054906101000a9004600f0b0392506101000a8154816001600160801b030219169083600f0b6001600160801b03160217905550806006600060125481526020019081526020016000206000856001600160a01b03166001600160a01b0316815260200190815260200160002060000160108282829054906101000a9004600f0b0392506101000a8154816001600160801b030219169083600f0b6001600160801b0316021790555060006007600060125481526020019081526020016000206000856001600160a01b03166001600160a01b0316815260200190815260200160002060008b6001600160a01b03166001600160a01b0316815260200190815260200160002060000160006101000a8154816001600160801b030219169083600f0b6001600160801b0316021790555060006007600060125481526020019081526020016000206000856001600160a01b03166001600160a01b0316815260200190815260200160002060008b6001600160a01b03166001600160a01b0316815260200190815260200160002060000160106101000a8154816001600160801b030219169083600f0b6001600160801b031602179055505050508080600101915050610bd6565b505050915091565b6007602090815260009384526040808520825292845282842090528252902054600f81810b91600160801b9004900b82565b610f0533611d4a565b610f56576040805162461bcd60e51b815260206004820152601c60248201527f63616c6c6572206973206e6f7420746865207065726d697373696f6e00000000604482015290519081900360640190fd5b610f60868661224d565b610f7c5760405162461bcd60e51b815260040161056990612bb0565b6001600160a01b038616156114d65781600d600060125481526020019081526020016000206000886001600160a01b03166001600160a01b031681526020019081526020016000206000866001600160a01b03166001600160a01b0316815260200190815260200160002060009054906101000a9004600f0b01600d600060125481526020019081526020016000206000886001600160a01b03166001600160a01b031681526020019081526020016000206000866001600160a01b03166001600160a01b0316815260200190815260200160002060006101000a8154816001600160801b030219169083600f0b6001600160801b0316021790555080600d600060125481526020019081526020016000206000886001600160a01b03166001600160a01b031681526020019081526020016000206000856001600160a01b03166001600160a01b0316815260200190815260200160002060009054906101000a9004600f0b01600d600060125481526020019081526020016000206000886001600160a01b03166001600160a01b031681526020019081526020016000206000856001600160a01b03166001600160a01b0316815260200190815260200160002060006101000a8154816001600160801b030219169083600f0b6001600160801b03160217905550816007600060125481526020019081526020016000206000876001600160a01b03166001600160a01b031681526020019081526020016000206000886001600160a01b03166001600160a01b0316815260200190815260200160002060000160008282829054906101000a9004600f0b0192506101000a8154816001600160801b030219169083600f0b6001600160801b03160217905550806007600060125481526020019081526020016000206000876001600160a01b03166001600160a01b031681526020019081526020016000206000886001600160a01b03166001600160a01b0316815260200190815260200160002060000160108282829054906101000a9004600f0b0192506101000a8154816001600160801b030219169083600f0b6001600160801b031602179055506010600060125481526020019081526020016000206000876001600160a01b03166001600160a01b031681526020019081526020016000206001016000856001600160a01b03166001600160a01b0316815260200190815260200160002060009054906101000a900460ff16611378576012805460009081526010602081815260408084206001600160a01b03808d16808752918452828620908b1680875260019182018552838720805460ff19168317905596548652938352818520908552825283208054928301815583529091200180546001600160a01b03191690911790555b60125460009081526010602090815260408083206001600160a01b03808b168552908352818420908716845260010190915290205460ff16611427576012805460009081526010602081815260408084206001600160a01b03808d16808752918452828620908a1680875260019182018552838720805460ff19168317905596548652938352818520908552825283208054928301815583529091200180546001600160a01b03191690911790555b6012546000908152600f602090815260408083206001600160a01b03808b168552908352818420908916845260010190915290205460ff166114d657601280546000908152600f602081815260408084206001600160a01b03808d16808752918452828620908c1680875260019182018552838720805460ff19168317905596548652938352818520908552825283208054928301815583529091200180546001600160a01b03191690911790555b6012805460009081526006602081815260408084206001600160a01b038b168086529083528185208054600f81810b8b01810b6001600160801b039081166001600160801b03199093169290921790925596548652938352818520908552909152918290208054600160801b808204840b870190930b85169092029190931617909155517f99683c72c1b2ee68a2edb8e71d65029c1436f23107d81af43bec913911b8f00490611591908890889088908890889088906129d7565b60405180910390a1505050505050565b6008602052600090815260409020805460019091015460ff9091169082565b60006115ca612249565b6001600160a01b03166115db611999565b6001600160a01b031614611624576040805162461bcd60e51b81526020600482018190526024820152600080516020612dde833981519152604482015290519081900360640190fd5b6001600160a01b0382166116695760405162461bcd60e51b815260040180806020018281038252602c815260200180612d3e602c913960400191505060405180910390fd5b6040516001600160a01b038316907fd8dc9578ceae094520aff2ba139a77dd24473034f8dbc74d85f6b02768c3377990600090a26116a86001836122aa565b90505b919050565b60006116bc60016122bf565b905090565b600960209081526000928352604080842090915290825290205481565b6003546001600160a01b031681565b6000806116fa848461224d565b61170957506000905080611798565b6001600160a01b0384166000908152600a602052604090205460ff1661173457506000905080611798565b505060125460009081526007602090815260408083206001600160a01b0380861685529083528184209086168452825291829020825180840190935254600f81810b810b810b808552600160801b909204810b810b810b93909201839052810b91900b5b9250929050565b60046020526000908152604090205460ff1681565b6117bc612249565b6001600160a01b03166117cd611999565b6001600160a01b031614611816576040805162461bcd60e51b81526020600482018190526024820152600080516020612dde833981519152604482015290519081900360640190fd5b6113888111156118385760405162461bcd60e51b815260040161056990612bd4565b6001600160a01b0382166000908152600c6020526040908190205490517fc22e4fb352951336b4fee4a8de2369baa813a23fd70ed7145bba07c438a763c491611885918591908590612a89565b60405180910390a16001600160a01b039091166000908152600c6020526040902055565b6118b1612249565b6001600160a01b03166118c2611999565b6001600160a01b03161461190b576040805162461bcd60e51b81526020600482018190526024820152600080516020612dde833981519152604482015290519081900360640190fd5b600080546040516001600160a01b03909116907f8be0079c531659141344cd1fd0a4f28419497f9722a3daafe3b4186f6b6457e0908390a3600080546001600160a01b0319169055565b60115481565b600c6020526000908152604090205481565b6006602090815260009283526040808420909152908252902054600f81810b91600160801b9004900b82565b6000546001600160a01b031690565b600a6020526000908152604090205460ff1681565b600560209081526000928352604080842090915290825290205460ff1681565b60006119e7612249565b6001600160a01b03166119f8611999565b6001600160a01b031614611a41576040805162461bcd60e51b81526020600482018190526024820152600080516020612dde833981519152604482015290519081900360640190fd5b6001600160a01b038216611a865760405162461bcd60e51b815260040180806020018281038252602c815260200180612db2602c913960400191505060405180910390fd5b6040516001600160a01b038316907ff63eb610adad478002288c0957a6037ba30c916a12eb8b9fc01fed014f1dc15790600090a26116a86001836122ca565b611acd612249565b6001600160a01b0316611ade611999565b6001600160a01b031614611b27576040805162461bcd60e51b81526020600482018190526024820152600080516020612dde833981519152604482015290519081900360640190fd5b8051825114611b485760405162461bcd60e51b815260040161056990612c5b565b60005b8251811015611bb257818181518110611b6057fe5b6020026020010151600a6000858481518110611b7857fe5b6020908102919091018101516001600160a01b03168252810191909152604001600020805460ff1916911515919091179055600101611b4b565b507faa8091f5556474368088a7b1472399d627da2db018a0aebd778756a01f7a34b082826040516106d1929190612aaa565b600b6020526000908152604090205460ff1681565b611c01612249565b6001600160a01b0316611c12611999565b6001600160a01b031614611c5b576040805162461bcd60e51b81526020600482018190526024820152600080516020612dde833981519152604482015290519081900360640190fd5b8051825114611c7c5760405162461bcd60e51b815260040161056990612c5b565b60005b8251811015611d0957818181518110611c9457fe5b602002602001015160056000866001600160a01b03166001600160a01b031681526020019081526020016000206000858481518110611ccf57fe5b6020908102919091018101516001600160a01b03168252810191909152604001600020805460ff1916911515919091179055600101611c7f565b507f8fac9a2e6c851309527986fec7868b63105d23c332a0eb04326efb2a75234489838383604051611d3d93929190612a13565b60405180910390a1505050565b60006116a86001836122df565b611d5f612249565b6001600160a01b0316611d70611999565b6001600160a01b031614611db9576040805162461bcd60e51b81526020600482018190526024820152600080516020612dde833981519152604482015290519081900360640190fd5b8051825114611dda5760405162461bcd60e51b815260040161056990612c5b565b60005b8251811015611e4457818181518110611df257fe5b602002602001015160046000858481518110611e0a57fe5b6020908102919091018101516001600160a01b03168252810191909152604001600020805460ff1916911515919091179055600101611ddd565b507f06513198a4a9281d22613b8b140b08f6935d30776ca881da51d7b0efb03d748b82826040516106d1929190612aaa565b6001600160a01b03821660009081526008602052604081205460ff16611e9e57506000611f0b565b6012546000908152600d602090815260408083206001600160a01b038088168086529184528285209087168086529084528285205491855260098452828520908552909252822054600f91820b929091828401900b13611eff576000611f03565b8181015b600f0b925050505b92915050565b600d602090815260009384526040808520825292845282842090528252902054600f0b81565b60125481565b611f45612249565b6001600160a01b0316611f56611999565b6001600160a01b031614611f9f576040805162461bcd60e51b81526020600482018190526024820152600080516020612dde833981519152604482015290519081900360640190fd5b6001600160a01b038116611fe45760405162461bcd60e51b8152600401808060200182810382526026815260200180612d8c6026913960400191505060405180910390fd5b600080546040516001600160a01b03808516939216917f8be0079c531659141344cd1fd0a4f28419497f9722a3daafe3b4186f6b6457e091a3600080546001600160a01b0319166001600160a01b0392909216919091179055565b612047612249565b6001600160a01b0316612058611999565b6001600160a01b0316146120a1576040805162461bcd60e51b81526020600482018190526024820152600080516020612dde833981519152604482015290519081900360640190fd5b80518251146120c25760405162461bcd60e51b815260040161056990612c5b565b60005b8251811015612141578181815181106120da57fe5b602002602001015160096000866001600160a01b03166001600160a01b03168152602001908152602001600020600085848151811061211557fe5b6020908102919091018101516001600160a01b03168252810191909152604001600020556001016120c5565b507fd3ef330df13fcdca3be6f710d093bc1fa7c744f0385e52c51e093fc46d203309838383604051611d3d93929190612a53565b600e5481565b6000612185612249565b6001600160a01b0316612196611999565b6001600160a01b0316146121df576040805162461bcd60e51b81526020600482018190526024820152600080516020612dde833981519152604482015290519081900360640190fd5b60016121e96116b0565b0382111561223e576040805162461bcd60e51b815260206004820152601d60248201527f4d756c7469706c653a20696e646578206f7574206f6620626f756e6473000000604482015290519081900360640190fd5b6116a86001836122f4565b3390565b6001600160a01b03811660009081526004602052604081205460ff161515600114806122a357506001600160a01b0380841660009081526005602090815260408083209386168352929052205460ff1615156001145b9392505050565b60006122a3836001600160a01b038416612300565b60006116a88261234a565b60006122a3836001600160a01b03841661234e565b60006122a3836001600160a01b038416612414565b60006122a3838361242c565b600061230c8383612414565b61234257508154600181810184556000848152602080822090930184905584548482528286019093526040902091909155611f0b565b506000611f0b565b5490565b6000818152600183016020526040812054801561240a578354600019808301919081019060009087908390811061238157fe5b906000526020600020015490508087600001848154811061239e57fe5b6000918252602080832090910192909255828152600189810190925260409020908401905586548790806123ce57fe5b60019003818190600052602060002001600090559055866001016000878152602001908152602001600020600090556001945050505050611f0b565b6000915050611f0b565b60009081526001919091016020526040902054151590565b8154600090821061246e5760405162461bcd60e51b8152600401808060200182810382526022815260200180612d6a6022913960400191505060405180910390fd5b82600001828154811061247d57fe5b9060005260206000200154905092915050565b80356001600160a01b03811681146116ab57600080fd5b600082601f8301126124b7578081fd5b813560206124cc6124c783612d1f565b612cfb565b82815281810190858301838502870184018810156124e8578586fd5b855b8581101561250d576124fb82612490565b845292840192908401906001016124ea565b5090979650505050505050565b600082601f83011261252a578081fd5b8135602061253a6124c783612d1f565b8281528181019085830183850287018401881015612556578586fd5b855b8581101561250d578135801515811461256f578788fd5b84529284019290840190600101612558565b8035600f81900b81146116ab57600080fd5b6000602082840312156125a4578081fd5b6122a382612490565b600080604083850312156125bf578081fd5b6125c883612490565b91506125d660208401612490565b90509250929050565b60008060008060008060c087890312156125f7578182fd5b61260087612490565b955061260e60208801612490565b945061261c60408801612490565b935061262a60608801612490565b925061263860808801612581565b915061264660a08801612581565b90509295509295509295565b600080600080600060808688031215612669578081fd5b61267286612490565b945061268060208701612490565b935060408601359250606086013567ffffffffffffffff808211156126a3578283fd5b818801915088601f8301126126b6578283fd5b8135818111156126c4578384fd5b8960208285010111156126d5578384fd5b9699959850939650602001949392505050565b6000806000606084860312156126fc578283fd5b61270584612490565b9250602084013567ffffffffffffffff80821115612721578384fd5b61272d878388016124a7565b93506040860135915080821115612742578283fd5b5061274f8682870161251a565b9150509250925092565b60008060006060848603121561276d578283fd5b61277684612490565b925060208085013567ffffffffffffffff80821115612793578485fd5b61279f888389016124a7565b945060408701359150808211156127b4578384fd5b508501601f810187136127c5578283fd5b80356127d36124c782612d1f565b81815283810190838501858402850186018b10156127ef578687fd5b8694505b838510156128115780358352600194909401939185019185016127f3565b5080955050505050509250925092565b60008060408385031215612833578182fd5b61283c83612490565b946020939093013593505050565b6000806040838503121561285c578182fd5b823567ffffffffffffffff80821115612873578384fd5b61287f868387016124a7565b93506020850135915080821115612894578283fd5b506128a18582860161251a565b9150509250929050565b6000602082840312156128bc578081fd5b5035919050565b600080604083850312156128d5578182fd5b823591506125d660208401612490565b6000806000606084860312156128f9578081fd5b8335925061290960208501612490565b915061291760408501612490565b90509250925092565b6000815180845260208085019450808401835b838110156129585781516001600160a01b031687529582019590820190600101612933565b509495945050505050565b6000815180845260208085019450808401835b83811015612958578151151587529582019590820190600101612976565b6000815180845260208085019450808401835b83811015612958578151875295820195908201906001016129a7565b6001600160a01b0391909116815260200190565b6001600160a01b0396871681529486166020860152928516604085015293166060830152600f92830b608083015290910b60a082015260c00190565b6001600160a01b0384168152606060208201819052600090612a3790830185612920565b8281036040840152612a498185612963565b9695505050505050565b6001600160a01b0384168152606060208201819052600090612a7790830185612920565b8281036040840152612a498185612994565b6001600160a01b039390931683526020830191909152604082015260600190565b600060408252612abd6040830185612920565b8281036020840152612acf8185612963565b95945050505050565b600060408252612aeb6040830185612920565b8281036020840152612acf8185612994565b901515815260200190565b9115158252602082015260400190565b6001600160e01b031991909116815260200190565b600f9190910b815260200190565b600f92830b8152910b602082015260400190565b918252602082015260400190565b60208082526010908201526f24a72b20a624a21023a8102a27a5a2a760811b604082015260600190565b6020808252600f908201526e105314915051164810d49150551151608a1b604082015260600190565b6020808252600a90820152691393d50814115493525560b21b604082015260600190565b6020808252600f908201526e125395905312510814115490d15395608a1b604082015260600190565b6020808252601d908201527f50524f464954204d5553542047524541544552205448414e205a45524f000000604082015260600190565b6020808252600d908201526c2aa725a727aba71022a92927a960991b604082015260600190565b6020808252600e908201526d12539590531251081193d493505560921b604082015260600190565b60208082526006908201526504e4f542047560d41b604082015260600190565b6020808252600d908201526c43414e204e4f5420434c49414d60981b604082015260600190565b6020808252600e908201526d494e56414c494420504152414d5360901b604082015260600190565b90815260200190565b60405181810167ffffffffffffffff81118282101715612d1757fe5b604052919050565b600067ffffffffffffffff821115612d3357fe5b506020908102019056fe4d756c7469706c653a205f6164645065726d697373696f6e20697320746865207a65726f2061646472657373456e756d657261626c655365743a20696e646578206f7574206f6620626f756e64734f776e61626c653a206e6577206f776e657220697320746865207a65726f20616464726573734d756c7469706c653a205f64656c5065726d697373696f6e20697320746865207a65726f20616464726573734f776e61626c653a2063616c6c6572206973206e6f7420746865206f776e6572a2646970667358221220af94620176a9b15d79c77d8a230683e5fe6632d0f42cd07bc153fbdae36ed23364736f6c63430007060033",
  "linkReferences": {},
  "deployedLinkReferences": {}
}