{
  "_format": "hh-sol-artifact-1",
  "contractName": "UniswapV3WorkCenter",
  "sourceName": "contracts/UniswapV3WorkCenter.sol",
  "abi": [
    {
      "inputs": [
        {
          "internalType": "contract IERC721",
          "name": "_gpToken",
          "type": "address"
        }
      ],
      "stateMutability": "nonpayable",
      "type": "constructor"
    },
    {
      "anonymous": false,
      "inputs": [
        {
          "indexed": true,
          "internalType": "address",
          "name": "user",
          "type": "address"
        },
        {
          "indexed": false,
          "internalType": "uint256",
          "name": "workerId",
          "type": "uint256"
        }
      ],
      "name": "AccountCreated",
      "type": "event"
    },
    {
      "anonymous": false,
      "inputs": [
        {
          "indexed": true,
          "internalType": "address",
          "name": "permission",
          "type": "address"
        }
      ],
      "name": "AddPermission",
      "type": "event"
    },
    {
      "anonymous": false,
      "inputs": [
        {
          "indexed": true,
          "internalType": "address",
          "name": "permission",
          "type": "address"
        }
      ],
      "name": "DelPermission",
      "type": "event"
    },
    {
      "anonymous": false,
      "inputs": [
        {
          "indexed": true,
          "internalType": "address",
          "name": "previousOwner",
          "type": "address"
        },
        {
          "indexed": true,
          "internalType": "address",
          "name": "newOwner",
          "type": "address"
        }
      ],
      "name": "OwnershipTransferred",
      "type": "event"
    },
    {
      "anonymous": false,
      "inputs": [
        {
          "indexed": false,
          "internalType": "address",
          "name": "worker",
          "type": "address"
        },
        {
          "indexed": false,
          "internalType": "address[]",
          "name": "tokens",
          "type": "address[]"
        },
        {
          "indexed": false,
          "internalType": "uint256[]",
          "name": "amounts",
          "type": "uint256[]"
        }
      ],
      "name": "SetQuota",
      "type": "event"
    },
    {
      "anonymous": false,
      "inputs": [
        {
          "indexed": false,
          "internalType": "address",
          "name": "worker",
          "type": "address"
        },
        {
          "indexed": false,
          "internalType": "address[]",
          "name": "pools",
          "type": "address[]"
        },
        {
          "indexed": false,
          "internalType": "bool[]",
          "name": "enable",
          "type": "bool[]"
        }
      ],
      "name": "SetWhiteList",
      "type": "event"
    },
    {
      "anonymous": false,
      "inputs": [
        {
          "indexed": false,
          "internalType": "address",
          "name": "worker",
          "type": "address"
        },
        {
          "indexed": false,
          "internalType": "address",
          "name": "poolAddress",
          "type": "address"
        },
        {
          "indexed": false,
          "internalType": "address",
          "name": "token0",
          "type": "address"
        },
        {
          "indexed": false,
          "internalType": "address",
          "name": "token1",
          "type": "address"
        },
        {
          "indexed": false,
          "internalType": "int128",
          "name": "profit0",
          "type": "int128"
        },
        {
          "indexed": false,
          "internalType": "int128",
          "name": "profit1",
          "type": "int128"
        }
      ],
      "name": "Settle",
      "type": "event"
    },
    {
      "anonymous": false,
      "inputs": [
        {
          "indexed": false,
          "internalType": "address[]",
          "name": "pools",
          "type": "address[]"
        },
        {
          "indexed": false,
          "internalType": "bool[]",
          "name": "enable",
          "type": "bool[]"
        }
      ],
      "name": "SwitchPool",
      "type": "event"
    },
    {
      "anonymous": false,
      "inputs": [
        {
          "indexed": false,
          "internalType": "address[]",
          "name": "workers",
          "type": "address[]"
        },
        {
          "indexed": false,
          "internalType": "bool[]",
          "name": "enable",
          "type": "bool[]"
        }
      ],
      "name": "SwitchSwap",
      "type": "event"
    },
    {
      "anonymous": false,
      "inputs": [
        {
          "indexed": false,
          "internalType": "uint256",
          "name": "oldPercent",
          "type": "uint256"
        },
        {
          "indexed": false,
          "internalType": "uint256",
          "name": "newPercent",
          "type": "uint256"
        }
      ],
      "name": "UpdateDevPercent",
      "type": "event"
    },
    {
      "anonymous": false,
      "inputs": [
        {
          "indexed": false,
          "internalType": "address",
          "name": "worker",
          "type": "address"
        },
        {
          "indexed": false,
          "internalType": "uint256",
          "name": "oldPercent",
          "type": "uint256"
        },
        {
          "indexed": false,
          "internalType": "uint256",
          "name": "newPercent",
          "type": "uint256"
        }
      ],
      "name": "UpdateGPPercent",
      "type": "event"
    },
    {
      "inputs": [],
      "name": "GPToken",
      "outputs": [
        {
          "internalType": "contract IERC721",
          "name": "",
          "type": "address"
        }
      ],
      "stateMutability": "view",
      "type": "function"
    },
    {
      "inputs": [
        {
          "internalType": "address",
          "name": "_addPermission",
          "type": "address"
        }
      ],
      "name": "addPermission",
      "outputs": [
        {
          "internalType": "bool",
          "name": "",
          "type": "bool"
        }
      ],
      "stateMutability": "nonpayable",
      "type": "function"
    },
    {
      "inputs": [
        {
          "internalType": "address",
          "name": "",
          "type": "address"
        }
      ],
      "name": "canSwap",
      "outputs": [
        {
          "internalType": "bool",
          "name": "",
          "type": "bool"
        }
      ],
      "stateMutability": "view",
      "type": "function"
    },
    {
      "inputs": [
        {
          "internalType": "address",
          "name": "worker",
          "type": "address"
        }
      ],
      "name": "claim",
      "outputs": [
        {
          "internalType": "address[]",
          "name": "tokens",
          "type": "address[]"
        },
        {
          "internalType": "uint256[]",
          "name": "commision",
          "type": "uint256[]"
        }
      ],
      "stateMutability": "nonpayable",
      "type": "function"
    },
    {
      "inputs": [],
      "name": "cntOfWorker",
      "outputs": [
        {
          "internalType": "uint256",
          "name": "",
          "type": "uint256"
        }
      ],
      "stateMutability": "view",
      "type": "function"
    },
    {
      "inputs": [
        {
          "internalType": "address",
          "name": "",
          "type": "address"
        }
      ],
      "name": "commisionPercent",
      "outputs": [
        {
          "internalType": "uint256",
          "name": "",
          "type": "uint256"
        }
      ],
      "stateMutability": "view",
      "type": "function"
    },
    {
      "inputs": [
        {
          "internalType": "address",
          "name": "",
          "type": "address"
        }
      ],
      "name": "commonPools",
      "outputs": [
        {
          "internalType": "bool",
          "name": "",
          "type": "bool"
        }
      ],
      "stateMutability": "view",
      "type": "function"
    },
    {
      "inputs": [
        {
          "internalType": "address",
          "name": "_delPermission",
          "type": "address"
        }
      ],
      "name": "delPermission",
      "outputs": [
        {
          "internalType": "bool",
          "name": "",
          "type": "bool"
        }
      ],
      "stateMutability": "nonpayable",
      "type": "function"
    },
    {
      "inputs": [],
      "name": "devPercent",
      "outputs": [
        {
          "internalType": "uint256",
          "name": "",
          "type": "uint256"
        }
      ],
      "stateMutability": "view",
      "type": "function"
    },
    {
      "inputs": [
        {
          "internalType": "uint256",
          "name": "_index",
          "type": "uint256"
        }
      ],
      "name": "getPermission",
      "outputs": [
        {
          "internalType": "address",
          "name": "",
          "type": "address"
        }
      ],
      "stateMutability": "view",
      "type": "function"
    },
    {
      "inputs": [],
      "name": "getPermissionLength",
      "outputs": [
        {
          "internalType": "uint256",
          "name": "",
          "type": "uint256"
        }
      ],
      "stateMutability": "view",
      "type": "function"
    },
    {
      "inputs": [
        {
          "internalType": "address",
          "name": "worker",
          "type": "address"
        },
        {
          "internalType": "address",
          "name": "token",
          "type": "address"
        }
      ],
      "name": "getRemainQuota",
      "outputs": [
        {
          "internalType": "uint256",
          "name": "",
          "type": "uint256"
        }
      ],
      "stateMutability": "view",
      "type": "function"
    },
    {
      "inputs": [
        {
          "internalType": "address",
          "name": "worker",
          "type": "address"
        },
        {
          "internalType": "address",
          "name": "poolAddress",
          "type": "address"
        }
      ],
      "name": "getSwapQuota",
      "outputs": [
        {
          "internalType": "int256",
          "name": "amount0",
          "type": "int256"
        },
        {
          "internalType": "int256",
          "name": "amount1",
          "type": "int256"
        }
      ],
      "stateMutability": "view",
      "type": "function"
    },
    {
      "inputs": [
        {
          "internalType": "address",
          "name": "account",
          "type": "address"
        }
      ],
      "name": "isPermission",
      "outputs": [
        {
          "internalType": "bool",
          "name": "",
          "type": "bool"
        }
      ],
      "stateMutability": "view",
      "type": "function"
    },
    {
      "inputs": [
        {
          "internalType": "address",
          "name": "from",
          "type": "address"
        },
        {
          "internalType": "address",
          "name": "",
          "type": "address"
        },
        {
          "internalType": "uint256",
          "name": "workerId",
          "type": "uint256"
        },
        {
          "internalType": "bytes",
          "name": "",
          "type": "bytes"
        }
      ],
      "name": "onERC721Received",
      "outputs": [
        {
          "internalType": "bytes4",
          "name": "",
          "type": "bytes4"
        }
      ],
      "stateMutability": "nonpayable",
      "type": "function"
    },
    {
      "inputs": [],
      "name": "owner",
      "outputs": [
        {
          "internalType": "address",
          "name": "",
          "type": "address"
        }
      ],
      "stateMutability": "view",
      "type": "function"
    },
    {
      "inputs": [],
      "name": "period",
      "outputs": [
        {
          "internalType": "uint256",
          "name": "",
          "type": "uint256"
        }
      ],
      "stateMutability": "view",
      "type": "function"
    },
    {
      "inputs": [
        {
          "internalType": "uint256",
          "name": "",
          "type": "uint256"
        },
        {
          "internalType": "address",
          "name": "",
          "type": "address"
        }
      ],
      "name": "poolInfo",
      "outputs": [
        {
          "internalType": "int128",
          "name": "unbalance0",
          "type": "int128"
        },
        {
          "internalType": "int128",
          "name": "unbalance1",
          "type": "int128"
        }
      ],
      "stateMutability": "view",
      "type": "function"
    },
    {
      "inputs": [
        {
          "internalType": "uint256",
          "name": "",
          "type": "uint256"
        },
        {
          "internalType": "address",
          "name": "",
          "type": "address"
        },
        {
          "internalType": "address",
          "name": "",
          "type": "address"
        }
      ],
      "name": "profits",
      "outputs": [
        {
          "internalType": "int128",
          "name": "",
          "type": "int128"
        }
      ],
      "stateMutability": "view",
      "type": "function"
    },
    {
      "inputs": [
        {
          "internalType": "address",
          "name": "",
          "type": "address"
        },
        {
          "internalType": "address",
          "name": "",
          "type": "address"
        }
      ],
      "name": "quotas",
      "outputs": [
        {
          "internalType": "uint256",
          "name": "",
          "type": "uint256"
        }
      ],
      "stateMutability": "view",
      "type": "function"
    },
    {
      "inputs": [],
      "name": "renounceOwnership",
      "outputs": [],
      "stateMutability": "nonpayable",
      "type": "function"
    },
    {
      "inputs": [
        {
          "internalType": "uint256",
          "name": "_period",
          "type": "uint256"
        }
      ],
      "name": "setPeriod",
      "outputs": [],
      "stateMutability": "nonpayable",
      "type": "function"
    },
    {
      "inputs": [
        {
          "internalType": "address",
          "name": "worker",
          "type": "address"
        },
        {
          "internalType": "address[]",
          "name": "tokens",
          "type": "address[]"
        },
        {
          "internalType": "uint256[]",
          "name": "amounts",
          "type": "uint256[]"
        }
      ],
      "name": "setQuota",
      "outputs": [],
      "stateMutability": "nonpayable",
      "type": "function"
    },
    {
      "inputs": [
        {
          "internalType": "address",
          "name": "worker",
          "type": "address"
        },
        {
          "internalType": "address[]",
          "name": "pools",
          "type": "address[]"
        },
        {
          "internalType": "bool[]",
          "name": "enable",
          "type": "bool[]"
        }
      ],
      "name": "setWhiteList",
      "outputs": [],
      "stateMutability": "nonpayable",
      "type": "function"
    },
    {
      "inputs": [
        {
          "internalType": "address",
          "name": "worker",
          "type": "address"
        },
        {
          "internalType": "address",
          "name": "poolAddress",
          "type": "address"
        },
        {
          "internalType": "address",
          "name": "token0",
          "type": "address"
        },
        {
          "internalType": "address",
          "name": "token1",
          "type": "address"
        },
        {
          "internalType": "int128",
          "name": "profit0",
          "type": "int128"
        },
        {
          "internalType": "int128",
          "name": "profit1",
          "type": "int128"
        }
      ],
      "name": "settle",
      "outputs": [],
      "stateMutability": "nonpayable",
      "type": "function"
    },
    {
      "inputs": [
        {
          "internalType": "address[]",
          "name": "pools",
          "type": "address[]"
        },
        {
          "internalType": "bool[]",
          "name": "enable",
          "type": "bool[]"
        }
      ],
      "name": "switchPool",
      "outputs": [],
      "stateMutability": "nonpayable",
      "type": "function"
    },
    {
      "inputs": [
        {
          "internalType": "address[]",
          "name": "users",
          "type": "address[]"
        },
        {
          "internalType": "bool[]",
          "name": "enable",
          "type": "bool[]"
        }
      ],
      "name": "switchSwap",
      "outputs": [],
      "stateMutability": "nonpayable",
      "type": "function"
    },
    {
      "inputs": [
        {
          "internalType": "address",
          "name": "newOwner",
          "type": "address"
        }
      ],
      "name": "transferOwnership",
      "outputs": [],
      "stateMutability": "nonpayable",
      "type": "function"
    },
    {
      "inputs": [
        {
          "internalType": "address",
          "name": "worker",
          "type": "address"
        },
        {
          "internalType": "uint256",
          "name": "newPercent",
          "type": "uint256"
        }
      ],
      "name": "updateCommisionPercent",
      "outputs": [],
      "stateMutability": "nonpayable",
      "type": "function"
    },
    {
      "inputs": [
        {
          "internalType": "uint256",
          "name": "newPercent",
          "type": "uint256"
        }
      ],
      "name": "updateDevPercent",
      "outputs": [],
      "stateMutability": "nonpayable",
      "type": "function"
    },
    {
      "inputs": [
        {
          "internalType": "uint256",
          "name": "",
          "type": "uint256"
        },
        {
          "internalType": "address",
          "name": "",
          "type": "address"
        },
        {
          "internalType": "address",
          "name": "",
          "type": "address"
        }
      ],
      "name": "userInfo",
      "outputs": [
        {
          "internalType": "int128",
          "name": "unbalance0",
          "type": "int128"
        },
        {
          "internalType": "int128",
          "name": "unbalance1",
          "type": "int128"
        }
      ],
      "stateMutability": "view",
      "type": "function"
    },
    {
      "inputs": [
        {
          "internalType": "address",
          "name": "",
          "type": "address"
        },
        {
          "internalType": "address",
          "name": "",
          "type": "address"
        }
      ],
      "name": "whitelist",
      "outputs": [
        {
          "internalType": "bool",
          "name": "",
          "type": "bool"
        }
      ],
      "stateMutability": "view",
      "type": "function"
    },
    {
      "inputs": [
        {
          "internalType": "address",
          "name": "",
          "type": "address"
        }
      ],
      "name": "workers",
      "outputs": [
        {
          "internalType": "bool",
          "name": "created",
          "type": "bool"
        },
        {
          "internalType": "uint256",
          "name": "workerId",
          "type": "uint256"
        }
      ],
      "stateMutability": "view",
      "type": "function"
    }
  ],
  "bytecode": "0x60806040526103e8600d553480156200001757600080fd5b5060405162002d0f38038062002d0f8339810160408190526200003a91620000ec565b600062000046620000e8565b600080546001600160a01b0319166001600160a01b0383169081178255604051929350917f8be0079c531659141344cd1fd0a4f28419497f9722a3daafe3b4186f6b6457e0908290a3506001600160a01b038116620000c25760405162461bcd60e51b8152600401620000b9906200011c565b60405180910390fd5b600380546001600160a01b0319166001600160a01b039290921691909117905562000145565b3390565b600060208284031215620000fe578081fd5b81516001600160a01b038116811462000115578182fd5b9392505050565b6020808252600f908201526e494e56414c49445f4144445245535360881b604082015260600190565b612bba80620001556000396000f3fe608060405234801561001057600080fd5b50600436106101fb5760003560e01c80637ea191591161011a578063e0faa9a2116100ad578063ef78d4fd1161007c578063ef78d4fd14610461578063f2fde38b14610469578063f6b111701461047c578063fc3c28af1461048f578063ffb5e27614610497576101fb565b8063e0faa9a214610408578063e0fe5f621461041b578063e5b03e5c1461042e578063ef3b422414610441576101fb565b8063b092145e116100e9578063b092145e146103bc578063b1af99cf146103cf578063be199988146103e2578063de7ceed7146103f5576101fb565b80637ea191591461037b57806381ea4ee71461038e5780638da5cb5b146103a157806392bc3117146103a9576101fb565b80634ffc82ea116101925780636b0d4a85116101615780636b0d4a851461034557806370882e3114610358578063715018a61461036b57806374d3896d14610373576101fb565b80634ffc82ea146102e75780635530d414146102fc5780635a604f8a1461030f5780636223f82e14610324576101fb565b80632e0a62bc116101ce5780632e0a62bc1461027257806340260961146102935780634048a257146102a65780634d0a5dbd146102c7576101fb565b80630b397a12146102005780630f3a9f6514610215578063150b7a02146102285780631e83409a14610251575b600080fd5b61021361020e366004612659565b6104aa565b005b610213610223366004612659565b610576565b61023b610236366004612400565b6105dd565b60405161024891906128c6565b60405180910390f35b61026461025f366004612341565b6106e5565b604051610248929190612886565b610285610280366004612693565b610ccd565b6040516102489291906128e9565b6102136102a136600461238d565b610cff565b6102b96102b4366004612341565b6113a4565b6040516102489291906128b6565b6102da6102d5366004612341565b6113c3565b60405161024891906128ab565b6102ef6114b3565b6040516102489190612a79565b6102ef61030a36600461235b565b6114c4565b6103176114e1565b6040516102489190612771565b61033761033236600461235b565b6114f0565b6040516102489291906128fd565b6102da610353366004612341565b611577565b6102136103663660046125cf565b61158c565b610213611681565b6102ef61172d565b6102ef610389366004612341565b611733565b61028561039c366004612671565b611745565b610317611771565b6102da6103b7366004612341565b611780565b6102da6103ca36600461235b565b611795565b6102da6103dd366004612341565b6117b5565b6102136103f03660046125f8565b61189d565b610213610403366004612496565b6119a7565b6102da610416366004612341565b611af8565b6102136104293660046125f8565b611b05565b6102ef61043c36600461235b565b611c24565b61045461044f366004612693565b611cbf565b60405161024891906128db565b6102ef611ce5565b610213610477366004612341565b611ceb565b61021361048a366004612507565b611ded565b6102ef611f23565b6103176104a5366004612659565b611f29565b6104b2611ff7565b6001600160a01b03166104c3611771565b6001600160a01b03161461050c576040805162461bcd60e51b81526020600482018190526024820152600080516020612b65833981519152604482015290519081900360640190fd5b61271081106105365760405162461bcd60e51b815260040161052d90612a51565b60405180910390fd5b7f31b8257650b36f22415e02cfe0eb160d2da56bd0f089b2c44ddc61236a386410600d54826040516105699291906128fd565b60405180910390a1600d55565b61057e611ff7565b6001600160a01b031661058f611771565b6001600160a01b0316146105d8576040805162461bcd60e51b81526020600482018190526024820152600080516020612b65833981519152604482015290519081900360640190fd5b601155565b6001600160a01b03851660009081526008602052604081205460ff16156106165760405162461bcd60e51b815260040161052d90612935565b6003546001600160a01b031633146106405760405162461bcd60e51b815260040161052d9061290b565b6010805460019081019182905560408051808201825282815260208082019485526001600160a01b038b166000818152600883528481209351845460ff191690151517845595519290940191909155600b9052918290206107d0905590517f7325fb14450d3e5eb288c620b4ff1d6b43a41b33b4a4f143ae88cd4c12f99ea3906106cb908790612a79565b60405180910390a250630a85bd0160e11b95945050505050565b6060806106f133611af8565b610742576040805162461bcd60e51b815260206004820152601c60248201527f63616c6c6572206973206e6f7420746865207065726d697373696f6e00000000604482015290519081900360640190fd5b6001600160a01b03831660009081526008602052604090205460ff1661077a5760405162461bcd60e51b815260040161052d90612a31565b6011546000908152600f602090815260408083206001600160a01b03871684529091529020548067ffffffffffffffff811180156107b757600080fd5b506040519080825280602002602001820160405280156107e1578160200160208202803683370190505b5092508067ffffffffffffffff811180156107fb57600080fd5b50604051908082528060200260200182016040528015610825578160200160208202803683370190505b50915060005b8181101561097e576011546000908152600f602090815260408083206001600160a01b0389168452909152812080548390811061086457fe5b60009182526020808320909101546011548352600c825260408084206001600160a01b038b8116865290845281852092168085529190925290822054909250600f90810b900b12156108c85760405162461bcd60e51b815260040161052d906129ab565b808583815181106108d557fe5b6001600160a01b039283166020918202929092018101919091526011546000908152600c825260408082208a85168352835280822093851682529290915220548451600f91820b90910b9085908490811061092c57fe5b6020908102919091018101919091526011546000908152600c825260408082206001600160a01b03808b16845290845281832094168252929091522080546001600160801b031916905560010161082b565b50506011546000908152600e602090815260408083206001600160a01b0387168452825280832054600b90925290912054600d5461271090820111156109d65760405162461bcd60e51b815260040161052d906129e2565b60005b82811015610cc5576011546000908152600e602090815260408083206001600160a01b038a1684529091528120805483908110610a1257fe5b6000918252602080832090910154600d5460115484526007835260408085206001600160a01b03938416808752908552818620938d168652929093529183205490935061271091600f91820b90870102900b600d5460115460009081526007602090815260408083206001600160a01b038981168552908352818420908f1684529091528120549390920593509091612710918701600160801b909104600f90810b91909102900b059050816006600060115481526020019081526020016000206000856001600160a01b03166001600160a01b0316815260200190815260200160002060000160008282829054906101000a9004600f0b0392506101000a8154816001600160801b030219169083600f0b6001600160801b03160217905550806006600060115481526020019081526020016000206000856001600160a01b03166001600160a01b0316815260200190815260200160002060000160108282829054906101000a9004600f0b0392506101000a8154816001600160801b030219169083600f0b6001600160801b0316021790555060006007600060115481526020019081526020016000206000856001600160a01b03166001600160a01b0316815260200190815260200160002060008b6001600160a01b03166001600160a01b0316815260200190815260200160002060000160006101000a8154816001600160801b030219169083600f0b6001600160801b0316021790555060006007600060115481526020019081526020016000206000856001600160a01b03166001600160a01b0316815260200190815260200160002060008b6001600160a01b03166001600160a01b0316815260200190815260200160002060000160106101000a8154816001600160801b030219169083600f0b6001600160801b0316021790555050505080806001019150506109d9565b505050915091565b6007602090815260009384526040808520825292845282842090528252902054600f81810b91600160801b9004900b82565b610d0833611af8565b610d59576040805162461bcd60e51b815260206004820152601c60248201527f63616c6c6572206973206e6f7420746865207065726d697373696f6e00000000604482015290519081900360640190fd5b610d638686611ffb565b610d7f5760405162461bcd60e51b815260040161052d9061295e565b6001600160a01b038616156112d95781600c600060115481526020019081526020016000206000886001600160a01b03166001600160a01b031681526020019081526020016000206000866001600160a01b03166001600160a01b0316815260200190815260200160002060009054906101000a9004600f0b01600c600060115481526020019081526020016000206000886001600160a01b03166001600160a01b031681526020019081526020016000206000866001600160a01b03166001600160a01b0316815260200190815260200160002060006101000a8154816001600160801b030219169083600f0b6001600160801b0316021790555080600c600060115481526020019081526020016000206000886001600160a01b03166001600160a01b031681526020019081526020016000206000856001600160a01b03166001600160a01b0316815260200190815260200160002060009054906101000a9004600f0b01600c600060115481526020019081526020016000206000886001600160a01b03166001600160a01b031681526020019081526020016000206000856001600160a01b03166001600160a01b0316815260200190815260200160002060006101000a8154816001600160801b030219169083600f0b6001600160801b03160217905550816007600060115481526020019081526020016000206000876001600160a01b03166001600160a01b031681526020019081526020016000206000886001600160a01b03166001600160a01b0316815260200190815260200160002060000160008282829054906101000a9004600f0b0192506101000a8154816001600160801b030219169083600f0b6001600160801b03160217905550806007600060115481526020019081526020016000206000876001600160a01b03166001600160a01b031681526020019081526020016000206000886001600160a01b03166001600160a01b0316815260200190815260200160002060000160108282829054906101000a9004600f0b0192506101000a8154816001600160801b030219169083600f0b6001600160801b03160217905550600f600060115481526020019081526020016000206000876001600160a01b03166001600160a01b031681526020019081526020016000206001016000856001600160a01b03166001600160a01b0316815260200190815260200160002060009054906101000a900460ff1661117b57601180546000908152600f602081815260408084206001600160a01b03808d16808752918452828620908b1680875260019182018552838720805460ff19168317905596548652938352818520908552825283208054928301815583529091200180546001600160a01b03191690911790555b6011546000908152600f602090815260408083206001600160a01b03808b168552908352818420908716845260010190915290205460ff1661122a57601180546000908152600f602081815260408084206001600160a01b03808d16808752918452828620908a1680875260019182018552838720805460ff19168317905596548652938352818520908552825283208054928301815583529091200180546001600160a01b03191690911790555b6011546000908152600e602090815260408083206001600160a01b03808b168552908352818420908916845260010190915290205460ff166112d957601180546000908152600e602081815260408084206001600160a01b03808d16808752918452828620908c1680875260019182018552838720805460ff19168317905596548652938352818520908552825283208054928301815583529091200180546001600160a01b03191690911790555b6011805460009081526006602081815260408084206001600160a01b038b168086529083528185208054600f81810b8b01810b6001600160801b039081166001600160801b03199093169290921790925596548652938352818520908552909152918290208054600160801b808204840b870190930b85169092029190931617909155517f99683c72c1b2ee68a2edb8e71d65029c1436f23107d81af43bec913911b8f0049061139490889088908890889088908890612785565b60405180910390a1505050505050565b6008602052600090815260409020805460019091015460ff9091169082565b60006113cd611ff7565b6001600160a01b03166113de611771565b6001600160a01b031614611427576040805162461bcd60e51b81526020600482018190526024820152600080516020612b65833981519152604482015290519081900360640190fd5b6001600160a01b03821661146c5760405162461bcd60e51b815260040180806020018281038252602c815260200180612ac5602c913960400191505060405180910390fd5b6040516001600160a01b038316907fd8dc9578ceae094520aff2ba139a77dd24473034f8dbc74d85f6b02768c3377990600090a26114ab600183612058565b90505b919050565b60006114bf600161206d565b905090565b600960209081526000928352604080842090915290825290205481565b6003546001600160a01b031681565b6000806114fd8484611ffb565b61150c57506000905080611570565b505060115460009081526007602090815260408083206001600160a01b0380861685529083528184209086168452825291829020825180840190935254600f81810b810b810b808552600160801b909204810b810b810b93909201839052810b91900b5b9250929050565b60046020526000908152604090205460ff1681565b611594611ff7565b6001600160a01b03166115a5611771565b6001600160a01b0316146115ee576040805162461bcd60e51b81526020600482018190526024820152600080516020612b65833981519152604482015290519081900360640190fd5b6113888111156116105760405162461bcd60e51b815260040161052d90612982565b6001600160a01b0382166000908152600b6020526040908190205490517fc22e4fb352951336b4fee4a8de2369baa813a23fd70ed7145bba07c438a763c49161165d918591908590612837565b60405180910390a16001600160a01b039091166000908152600b6020526040902055565b611689611ff7565b6001600160a01b031661169a611771565b6001600160a01b0316146116e3576040805162461bcd60e51b81526020600482018190526024820152600080516020612b65833981519152604482015290519081900360640190fd5b600080546040516001600160a01b03909116907f8be0079c531659141344cd1fd0a4f28419497f9722a3daafe3b4186f6b6457e0908390a3600080546001600160a01b0319169055565b60105481565b600b6020526000908152604090205481565b6006602090815260009283526040808420909152908252902054600f81810b91600160801b9004900b82565b6000546001600160a01b031690565b600a6020526000908152604090205460ff1681565b600560209081526000928352604080842090915290825290205460ff1681565b60006117bf611ff7565b6001600160a01b03166117d0611771565b6001600160a01b031614611819576040805162461bcd60e51b81526020600482018190526024820152600080516020612b65833981519152604482015290519081900360640190fd5b6001600160a01b03821661185e5760405162461bcd60e51b815260040180806020018281038252602c815260200180612b39602c913960400191505060405180910390fd5b6040516001600160a01b038316907ff63eb610adad478002288c0957a6037ba30c916a12eb8b9fc01fed014f1dc15790600090a26114ab600183612078565b6118a5611ff7565b6001600160a01b03166118b6611771565b6001600160a01b0316146118ff576040805162461bcd60e51b81526020600482018190526024820152600080516020612b65833981519152604482015290519081900360640190fd5b60005b82518110156119695781818151811061191757fe5b6020026020010151600a600085848151811061192f57fe5b6020908102919091018101516001600160a01b03168252810191909152604001600020805460ff1916911515919091179055600101611902565b507faa8091f5556474368088a7b1472399d627da2db018a0aebd778756a01f7a34b0828260405161199b929190612858565b60405180910390a15050565b6119af611ff7565b6001600160a01b03166119c0611771565b6001600160a01b031614611a09576040805162461bcd60e51b81526020600482018190526024820152600080516020612b65833981519152604482015290519081900360640190fd5b8051825114611a2a5760405162461bcd60e51b815260040161052d90612a09565b60005b8251811015611ab757818181518110611a4257fe5b602002602001015160056000866001600160a01b03166001600160a01b031681526020019081526020016000206000858481518110611a7d57fe5b6020908102919091018101516001600160a01b03168252810191909152604001600020805460ff1916911515919091179055600101611a2d565b507f8fac9a2e6c851309527986fec7868b63105d23c332a0eb04326efb2a75234489838383604051611aeb939291906127c1565b60405180910390a1505050565b60006114ab60018361208d565b611b0d611ff7565b6001600160a01b0316611b1e611771565b6001600160a01b031614611b67576040805162461bcd60e51b81526020600482018190526024820152600080516020612b65833981519152604482015290519081900360640190fd5b8051825114611b885760405162461bcd60e51b815260040161052d90612a09565b60005b8251811015611bf257818181518110611ba057fe5b602002602001015160046000858481518110611bb857fe5b6020908102919091018101516001600160a01b03168252810191909152604001600020805460ff1916911515919091179055600101611b8b565b507f06513198a4a9281d22613b8b140b08f6935d30776ca881da51d7b0efb03d748b828260405161199b929190612858565b6001600160a01b03821660009081526008602052604081205460ff16611c4c57506000611cb9565b6011546000908152600c602090815260408083206001600160a01b038088168086529184528285209087168086529084528285205491855260098452828520908552909252822054600f91820b929091828401900b13611cad576000611cb1565b8181015b600f0b925050505b92915050565b600c602090815260009384526040808520825292845282842090528252902054600f0b81565b60115481565b611cf3611ff7565b6001600160a01b0316611d04611771565b6001600160a01b031614611d4d576040805162461bcd60e51b81526020600482018190526024820152600080516020612b65833981519152604482015290519081900360640190fd5b6001600160a01b038116611d925760405162461bcd60e51b8152600401808060200182810382526026815260200180612b136026913960400191505060405180910390fd5b600080546040516001600160a01b03808516939216917f8be0079c531659141344cd1fd0a4f28419497f9722a3daafe3b4186f6b6457e091a3600080546001600160a01b0319166001600160a01b0392909216919091179055565b611df5611ff7565b6001600160a01b0316611e06611771565b6001600160a01b031614611e4f576040805162461bcd60e51b81526020600482018190526024820152600080516020612b65833981519152604482015290519081900360640190fd5b8051825114611e705760405162461bcd60e51b815260040161052d90612a09565b60005b8251811015611eef57818181518110611e8857fe5b602002602001015160096000866001600160a01b03166001600160a01b031681526020019081526020016000206000858481518110611ec357fe5b6020908102919091018101516001600160a01b0316825281019190915260400160002055600101611e73565b507fd3ef330df13fcdca3be6f710d093bc1fa7c744f0385e52c51e093fc46d203309838383604051611aeb93929190612801565b600d5481565b6000611f33611ff7565b6001600160a01b0316611f44611771565b6001600160a01b031614611f8d576040805162461bcd60e51b81526020600482018190526024820152600080516020612b65833981519152604482015290519081900360640190fd5b6001611f976114b3565b03821115611fec576040805162461bcd60e51b815260206004820152601d60248201527f4d756c7469706c653a20696e646578206f7574206f6620626f756e6473000000604482015290519081900360640190fd5b6114ab6001836120a2565b3390565b6001600160a01b03811660009081526004602052604081205460ff1615156001148061205157506001600160a01b0380841660009081526005602090815260408083209386168352929052205460ff1615156001145b9392505050565b6000612051836001600160a01b0384166120ae565b60006114ab826120f8565b6000612051836001600160a01b0384166120fc565b6000612051836001600160a01b0384166121c2565b600061205183836121da565b60006120ba83836121c2565b6120f057508154600181810184556000848152602080822090930184905584548482528286019093526040902091909155611cb9565b506000611cb9565b5490565b600081815260018301602052604081205480156121b8578354600019808301919081019060009087908390811061212f57fe5b906000526020600020015490508087600001848154811061214c57fe5b60009182526020808320909101929092558281526001898101909252604090209084019055865487908061217c57fe5b60019003818190600052602060002001600090559055866001016000878152602001908152602001600020600090556001945050505050611cb9565b6000915050611cb9565b60009081526001919091016020526040902054151590565b8154600090821061221c5760405162461bcd60e51b8152600401808060200182810382526022815260200180612af16022913960400191505060405180910390fd5b82600001828154811061222b57fe5b9060005260206000200154905092915050565b80356001600160a01b03811681146114ae57600080fd5b600082601f830112612265578081fd5b8135602061227a61227583612aa6565b612a82565b8281528181019085830183850287018401881015612296578586fd5b855b858110156122bb576122a98261223e565b84529284019290840190600101612298565b5090979650505050505050565b600082601f8301126122d8578081fd5b813560206122e861227583612aa6565b8281528181019085830183850287018401881015612304578586fd5b855b858110156122bb578135801515811461231d578788fd5b84529284019290840190600101612306565b8035600f81900b81146114ae57600080fd5b600060208284031215612352578081fd5b6120518261223e565b6000806040838503121561236d578081fd5b6123768361223e565b91506123846020840161223e565b90509250929050565b60008060008060008060c087890312156123a5578182fd5b6123ae8761223e565b95506123bc6020880161223e565b94506123ca6040880161223e565b93506123d86060880161223e565b92506123e66080880161232f565b91506123f460a0880161232f565b90509295509295509295565b600080600080600060808688031215612417578081fd5b6124208661223e565b945061242e6020870161223e565b935060408601359250606086013567ffffffffffffffff80821115612451578283fd5b818801915088601f830112612464578283fd5b813581811115612472578384fd5b896020828501011115612483578384fd5b9699959850939650602001949392505050565b6000806000606084860312156124aa578283fd5b6124b38461223e565b9250602084013567ffffffffffffffff808211156124cf578384fd5b6124db87838801612255565b935060408601359150808211156124f0578283fd5b506124fd868287016122c8565b9150509250925092565b60008060006060848603121561251b578283fd5b6125248461223e565b925060208085013567ffffffffffffffff80821115612541578485fd5b61254d88838901612255565b94506040870135915080821115612562578384fd5b508501601f81018713612573578283fd5b803561258161227582612aa6565b81815283810190838501858402850186018b101561259d578687fd5b8694505b838510156125bf5780358352600194909401939185019185016125a1565b5080955050505050509250925092565b600080604083850312156125e1578182fd5b6125ea8361223e565b946020939093013593505050565b6000806040838503121561260a578182fd5b823567ffffffffffffffff80821115612621578384fd5b61262d86838701612255565b93506020850135915080821115612642578283fd5b5061264f858286016122c8565b9150509250929050565b60006020828403121561266a578081fd5b5035919050565b60008060408385031215612683578182fd5b823591506123846020840161223e565b6000806000606084860312156126a7578081fd5b833592506126b76020850161223e565b91506126c56040850161223e565b90509250925092565b6000815180845260208085019450808401835b838110156127065781516001600160a01b0316875295820195908201906001016126e1565b509495945050505050565b6000815180845260208085019450808401835b83811015612706578151151587529582019590820190600101612724565b6000815180845260208085019450808401835b8381101561270657815187529582019590820190600101612755565b6001600160a01b0391909116815260200190565b6001600160a01b0396871681529486166020860152928516604085015293166060830152600f92830b608083015290910b60a082015260c00190565b6001600160a01b03841681526060602082018190526000906127e5908301856126ce565b82810360408401526127f78185612711565b9695505050505050565b6001600160a01b0384168152606060208201819052600090612825908301856126ce565b82810360408401526127f78185612742565b6001600160a01b039390931683526020830191909152604082015260600190565b60006040825261286b60408301856126ce565b828103602084015261287d8185612711565b95945050505050565b60006040825261289960408301856126ce565b828103602084015261287d8185612742565b901515815260200190565b9115158252602082015260400190565b6001600160e01b031991909116815260200190565b600f9190910b815260200190565b600f92830b8152910b602082015260400190565b918252602082015260400190565b60208082526010908201526f24a72b20a624a21023a8102a27a5a2a760811b604082015260600190565b6020808252600f908201526e105314915051164810d49150551151608a1b604082015260600190565b6020808252600a90820152691393d50814115493525560b21b604082015260600190565b6020808252600f908201526e125395905312510814115490d15395608a1b604082015260600190565b6020808252601d908201527f50524f464954204d5553542047524541544552205448414e205a45524f000000604082015260600190565b6020808252600d908201526c2aa725a727aba71022a92927a960991b604082015260600190565b6020808252600e908201526d12539590531251081193d493505560921b604082015260600190565b60208082526006908201526504e4f542047560d41b604082015260600190565b6020808252600e908201526d494e56414c494420504152414d5360901b604082015260600190565b90815260200190565b60405181810167ffffffffffffffff81118282101715612a9e57fe5b604052919050565b600067ffffffffffffffff821115612aba57fe5b506020908102019056fe4d756c7469706c653a205f6164645065726d697373696f6e20697320746865207a65726f2061646472657373456e756d657261626c655365743a20696e646578206f7574206f6620626f756e64734f776e61626c653a206e6577206f776e657220697320746865207a65726f20616464726573734d756c7469706c653a205f64656c5065726d697373696f6e20697320746865207a65726f20616464726573734f776e61626c653a2063616c6c6572206973206e6f7420746865206f776e6572a26469706673582212206ef63e1841f8da9f338c2eb895b05691ced14e2ce42a37edf0a8e97bda2ed59964736f6c63430007060033",
  "linkReferences": {},
  "deployedLinkReferences": {}
}