{
  "_format": "hh-sol-artifact-1",
  "contractName": "UniswapV3WorkCenter",
  "sourceName": "contracts/UniswapV3WorkCenter.sol",
  "abi": [
    {
      "inputs": [
        {
          "internalType": "contract IERC721",
          "name": "_gpToken",
          "type": "address"
        }
      ],
      "stateMutability": "nonpayable",
      "type": "constructor"
    },
    {
      "anonymous": false,
      "inputs": [
        {
          "indexed": true,
          "internalType": "address",
          "name": "user",
          "type": "address"
        },
        {
          "indexed": false,
          "internalType": "uint256",
          "name": "workerId",
          "type": "uint256"
        }
      ],
      "name": "AccountCreated",
      "type": "event"
    },
    {
      "anonymous": false,
      "inputs": [
        {
          "indexed": true,
          "internalType": "address",
          "name": "permission",
          "type": "address"
        }
      ],
      "name": "AddPermission",
      "type": "event"
    },
    {
      "anonymous": false,
      "inputs": [
        {
          "indexed": true,
          "internalType": "address",
          "name": "permission",
          "type": "address"
        }
      ],
      "name": "DelPermission",
      "type": "event"
    },
    {
      "anonymous": false,
      "inputs": [
        {
          "indexed": true,
          "internalType": "address",
          "name": "previousOwner",
          "type": "address"
        },
        {
          "indexed": true,
          "internalType": "address",
          "name": "newOwner",
          "type": "address"
        }
      ],
      "name": "OwnershipTransferred",
      "type": "event"
    },
    {
      "anonymous": false,
      "inputs": [
        {
          "indexed": false,
          "internalType": "address",
          "name": "worker",
          "type": "address"
        },
        {
          "indexed": false,
          "internalType": "address[]",
          "name": "tokens",
          "type": "address[]"
        },
        {
          "indexed": false,
          "internalType": "uint256[]",
          "name": "amounts",
          "type": "uint256[]"
        }
      ],
      "name": "SetQuota",
      "type": "event"
    },
    {
      "anonymous": false,
      "inputs": [
        {
          "indexed": false,
          "internalType": "address",
          "name": "worker",
          "type": "address"
        },
        {
          "indexed": false,
          "internalType": "address[]",
          "name": "pools",
          "type": "address[]"
        },
        {
          "indexed": false,
          "internalType": "bool[]",
          "name": "enable",
          "type": "bool[]"
        }
      ],
      "name": "SetWhiteList",
      "type": "event"
    },
    {
      "anonymous": false,
      "inputs": [
        {
          "indexed": false,
          "internalType": "address",
          "name": "worker",
          "type": "address"
        },
        {
          "indexed": false,
          "internalType": "address",
          "name": "poolAddress",
          "type": "address"
        },
        {
          "indexed": false,
          "internalType": "address",
          "name": "token0",
          "type": "address"
        },
        {
          "indexed": false,
          "internalType": "address",
          "name": "token1",
          "type": "address"
        },
        {
          "indexed": false,
          "internalType": "int128",
          "name": "profit0",
          "type": "int128"
        },
        {
          "indexed": false,
          "internalType": "int128",
          "name": "profit1",
          "type": "int128"
        }
      ],
      "name": "Settle",
      "type": "event"
    },
    {
      "anonymous": false,
      "inputs": [
        {
          "indexed": false,
          "internalType": "address[]",
          "name": "workers",
          "type": "address[]"
        },
        {
          "indexed": false,
          "internalType": "bool[]",
          "name": "enable",
          "type": "bool[]"
        }
      ],
      "name": "SwitchClaim",
      "type": "event"
    },
    {
      "anonymous": false,
      "inputs": [
        {
          "indexed": false,
          "internalType": "address[]",
          "name": "pools",
          "type": "address[]"
        },
        {
          "indexed": false,
          "internalType": "bool[]",
          "name": "enable",
          "type": "bool[]"
        }
      ],
      "name": "SwitchPool",
      "type": "event"
    },
    {
      "anonymous": false,
      "inputs": [
        {
          "indexed": false,
          "internalType": "address[]",
          "name": "workers",
          "type": "address[]"
        },
        {
          "indexed": false,
          "internalType": "bool[]",
          "name": "enable",
          "type": "bool[]"
        }
      ],
      "name": "SwitchSwap",
      "type": "event"
    },
    {
      "anonymous": false,
      "inputs": [
        {
          "indexed": false,
          "internalType": "uint256",
          "name": "oldPercent",
          "type": "uint256"
        },
        {
          "indexed": false,
          "internalType": "uint256",
          "name": "newPercent",
          "type": "uint256"
        }
      ],
      "name": "UpdateDevPercent",
      "type": "event"
    },
    {
      "anonymous": false,
      "inputs": [
        {
          "indexed": false,
          "internalType": "address",
          "name": "worker",
          "type": "address"
        },
        {
          "indexed": false,
          "internalType": "uint256",
          "name": "oldPercent",
          "type": "uint256"
        },
        {
          "indexed": false,
          "internalType": "uint256",
          "name": "newPercent",
          "type": "uint256"
        }
      ],
      "name": "UpdateGPPercent",
      "type": "event"
    },
    {
      "inputs": [],
      "name": "GPToken",
      "outputs": [
        {
          "internalType": "contract IERC721",
          "name": "",
          "type": "address"
        }
      ],
      "stateMutability": "view",
      "type": "function"
    },
    {
      "inputs": [
        {
          "internalType": "address",
          "name": "_addPermission",
          "type": "address"
        }
      ],
      "name": "addPermission",
      "outputs": [
        {
          "internalType": "bool",
          "name": "",
          "type": "bool"
        }
      ],
      "stateMutability": "nonpayable",
      "type": "function"
    },
    {
      "inputs": [
        {
          "internalType": "address",
          "name": "",
          "type": "address"
        }
      ],
      "name": "canClaim",
      "outputs": [
        {
          "internalType": "bool",
          "name": "",
          "type": "bool"
        }
      ],
      "stateMutability": "view",
      "type": "function"
    },
    {
      "inputs": [
        {
          "internalType": "address",
          "name": "",
          "type": "address"
        }
      ],
      "name": "canSwap",
      "outputs": [
        {
          "internalType": "bool",
          "name": "",
          "type": "bool"
        }
      ],
      "stateMutability": "view",
      "type": "function"
    },
    {
      "inputs": [
        {
          "internalType": "address",
          "name": "worker",
          "type": "address"
        }
      ],
      "name": "claim",
      "outputs": [
        {
          "internalType": "address[]",
          "name": "tokens",
          "type": "address[]"
        },
        {
          "internalType": "uint256[]",
          "name": "commision",
          "type": "uint256[]"
        }
      ],
      "stateMutability": "nonpayable",
      "type": "function"
    },
    {
      "inputs": [],
      "name": "cntOfWorker",
      "outputs": [
        {
          "internalType": "uint256",
          "name": "",
          "type": "uint256"
        }
      ],
      "stateMutability": "view",
      "type": "function"
    },
    {
      "inputs": [
        {
          "internalType": "address",
          "name": "",
          "type": "address"
        }
      ],
      "name": "commisionPercent",
      "outputs": [
        {
          "internalType": "uint256",
          "name": "",
          "type": "uint256"
        }
      ],
      "stateMutability": "view",
      "type": "function"
    },
    {
      "inputs": [
        {
          "internalType": "address",
          "name": "",
          "type": "address"
        }
      ],
      "name": "commonPools",
      "outputs": [
        {
          "internalType": "bool",
          "name": "",
          "type": "bool"
        }
      ],
      "stateMutability": "view",
      "type": "function"
    },
    {
      "inputs": [
        {
          "internalType": "address",
          "name": "_delPermission",
          "type": "address"
        }
      ],
      "name": "delPermission",
      "outputs": [
        {
          "internalType": "bool",
          "name": "",
          "type": "bool"
        }
      ],
      "stateMutability": "nonpayable",
      "type": "function"
    },
    {
      "inputs": [],
      "name": "devPercent",
      "outputs": [
        {
          "internalType": "uint256",
          "name": "",
          "type": "uint256"
        }
      ],
      "stateMutability": "view",
      "type": "function"
    },
    {
      "inputs": [
        {
          "internalType": "uint256",
          "name": "_index",
          "type": "uint256"
        }
      ],
      "name": "getPermission",
      "outputs": [
        {
          "internalType": "address",
          "name": "",
          "type": "address"
        }
      ],
      "stateMutability": "view",
      "type": "function"
    },
    {
      "inputs": [],
      "name": "getPermissionLength",
      "outputs": [
        {
          "internalType": "uint256",
          "name": "",
          "type": "uint256"
        }
      ],
      "stateMutability": "view",
      "type": "function"
    },
    {
      "inputs": [
        {
          "internalType": "address",
          "name": "worker",
          "type": "address"
        },
        {
          "internalType": "address",
          "name": "token",
          "type": "address"
        }
      ],
      "name": "getRemainQuota",
      "outputs": [
        {
          "internalType": "uint256",
          "name": "",
          "type": "uint256"
        }
      ],
      "stateMutability": "view",
      "type": "function"
    },
    {
      "inputs": [
        {
          "internalType": "address",
          "name": "worker",
          "type": "address"
        },
        {
          "internalType": "address",
          "name": "poolAddress",
          "type": "address"
        }
      ],
      "name": "getSwapQuota",
      "outputs": [
        {
          "internalType": "int256",
          "name": "amount0",
          "type": "int256"
        },
        {
          "internalType": "int256",
          "name": "amount1",
          "type": "int256"
        }
      ],
      "stateMutability": "view",
      "type": "function"
    },
    {
      "inputs": [
        {
          "internalType": "address",
          "name": "account",
          "type": "address"
        }
      ],
      "name": "isPermission",
      "outputs": [
        {
          "internalType": "bool",
          "name": "",
          "type": "bool"
        }
      ],
      "stateMutability": "view",
      "type": "function"
    },
    {
      "inputs": [
        {
          "internalType": "address",
          "name": "from",
          "type": "address"
        },
        {
          "internalType": "address",
          "name": "",
          "type": "address"
        },
        {
          "internalType": "uint256",
          "name": "workerId",
          "type": "uint256"
        },
        {
          "internalType": "bytes",
          "name": "",
          "type": "bytes"
        }
      ],
      "name": "onERC721Received",
      "outputs": [
        {
          "internalType": "bytes4",
          "name": "",
          "type": "bytes4"
        }
      ],
      "stateMutability": "nonpayable",
      "type": "function"
    },
    {
      "inputs": [],
      "name": "owner",
      "outputs": [
        {
          "internalType": "address",
          "name": "",
          "type": "address"
        }
      ],
      "stateMutability": "view",
      "type": "function"
    },
    {
      "inputs": [],
      "name": "period",
      "outputs": [
        {
          "internalType": "uint256",
          "name": "",
          "type": "uint256"
        }
      ],
      "stateMutability": "view",
      "type": "function"
    },
    {
      "inputs": [
        {
          "internalType": "uint256",
          "name": "",
          "type": "uint256"
        },
        {
          "internalType": "address",
          "name": "",
          "type": "address"
        }
      ],
      "name": "poolInfo",
      "outputs": [
        {
          "internalType": "int128",
          "name": "unbalance0",
          "type": "int128"
        },
        {
          "internalType": "int128",
          "name": "unbalance1",
          "type": "int128"
        }
      ],
      "stateMutability": "view",
      "type": "function"
    },
    {
      "inputs": [
        {
          "internalType": "uint256",
          "name": "",
          "type": "uint256"
        },
        {
          "internalType": "address",
          "name": "",
          "type": "address"
        },
        {
          "internalType": "address",
          "name": "",
          "type": "address"
        }
      ],
      "name": "profits",
      "outputs": [
        {
          "internalType": "int128",
          "name": "",
          "type": "int128"
        }
      ],
      "stateMutability": "view",
      "type": "function"
    },
    {
      "inputs": [
        {
          "internalType": "address",
          "name": "",
          "type": "address"
        },
        {
          "internalType": "address",
          "name": "",
          "type": "address"
        }
      ],
      "name": "quotas",
      "outputs": [
        {
          "internalType": "uint256",
          "name": "",
          "type": "uint256"
        }
      ],
      "stateMutability": "view",
      "type": "function"
    },
    {
      "inputs": [],
      "name": "renounceOwnership",
      "outputs": [],
      "stateMutability": "nonpayable",
      "type": "function"
    },
    {
      "inputs": [
        {
          "internalType": "uint256",
          "name": "_period",
          "type": "uint256"
        }
      ],
      "name": "setPeriod",
      "outputs": [],
      "stateMutability": "nonpayable",
      "type": "function"
    },
    {
      "inputs": [
        {
          "internalType": "address",
          "name": "worker",
          "type": "address"
        },
        {
          "internalType": "address[]",
          "name": "tokens",
          "type": "address[]"
        },
        {
          "internalType": "uint256[]",
          "name": "amounts",
          "type": "uint256[]"
        }
      ],
      "name": "setQuota",
      "outputs": [],
      "stateMutability": "nonpayable",
      "type": "function"
    },
    {
      "inputs": [
        {
          "internalType": "address",
          "name": "worker",
          "type": "address"
        },
        {
          "internalType": "address[]",
          "name": "pools",
          "type": "address[]"
        },
        {
          "internalType": "bool[]",
          "name": "enable",
          "type": "bool[]"
        }
      ],
      "name": "setWhiteList",
      "outputs": [],
      "stateMutability": "nonpayable",
      "type": "function"
    },
    {
      "inputs": [
        {
          "internalType": "address",
          "name": "worker",
          "type": "address"
        },
        {
          "internalType": "address",
          "name": "poolAddress",
          "type": "address"
        },
        {
          "internalType": "address",
          "name": "token0",
          "type": "address"
        },
        {
          "internalType": "address",
          "name": "token1",
          "type": "address"
        },
        {
          "internalType": "int128",
          "name": "profit0",
          "type": "int128"
        },
        {
          "internalType": "int128",
          "name": "profit1",
          "type": "int128"
        }
      ],
      "name": "settle",
      "outputs": [],
      "stateMutability": "nonpayable",
      "type": "function"
    },
    {
      "inputs": [
        {
          "internalType": "address[]",
          "name": "users",
          "type": "address[]"
        },
        {
          "internalType": "bool[]",
          "name": "enable",
          "type": "bool[]"
        }
      ],
      "name": "switchClaim",
      "outputs": [],
      "stateMutability": "nonpayable",
      "type": "function"
    },
    {
      "inputs": [
        {
          "internalType": "address[]",
          "name": "pools",
          "type": "address[]"
        },
        {
          "internalType": "bool[]",
          "name": "enable",
          "type": "bool[]"
        }
      ],
      "name": "switchPool",
      "outputs": [],
      "stateMutability": "nonpayable",
      "type": "function"
    },
    {
      "inputs": [
        {
          "internalType": "address[]",
          "name": "users",
          "type": "address[]"
        },
        {
          "internalType": "bool[]",
          "name": "enable",
          "type": "bool[]"
        }
      ],
      "name": "switchSwap",
      "outputs": [],
      "stateMutability": "nonpayable",
      "type": "function"
    },
    {
      "inputs": [
        {
          "internalType": "address",
          "name": "newOwner",
          "type": "address"
        }
      ],
      "name": "transferOwnership",
      "outputs": [],
      "stateMutability": "nonpayable",
      "type": "function"
    },
    {
      "inputs": [
        {
          "internalType": "address",
          "name": "worker",
          "type": "address"
        },
        {
          "internalType": "uint256",
          "name": "newPercent",
          "type": "uint256"
        }
      ],
      "name": "updateCommisionPercent",
      "outputs": [],
      "stateMutability": "nonpayable",
      "type": "function"
    },
    {
      "inputs": [
        {
          "internalType": "uint256",
          "name": "newPercent",
          "type": "uint256"
        }
      ],
      "name": "updateDevPercent",
      "outputs": [],
      "stateMutability": "nonpayable",
      "type": "function"
    },
    {
      "inputs": [
        {
          "internalType": "uint256",
          "name": "",
          "type": "uint256"
        },
        {
          "internalType": "address",
          "name": "",
          "type": "address"
        },
        {
          "internalType": "address",
          "name": "",
          "type": "address"
        }
      ],
      "name": "userInfo",
      "outputs": [
        {
          "internalType": "int128",
          "name": "unbalance0",
          "type": "int128"
        },
        {
          "internalType": "int128",
          "name": "unbalance1",
          "type": "int128"
        }
      ],
      "stateMutability": "view",
      "type": "function"
    },
    {
      "inputs": [
        {
          "internalType": "address",
          "name": "",
          "type": "address"
        },
        {
          "internalType": "address",
          "name": "",
          "type": "address"
        }
      ],
      "name": "whitelist",
      "outputs": [
        {
          "internalType": "bool",
          "name": "",
          "type": "bool"
        }
      ],
      "stateMutability": "view",
      "type": "function"
    },
    {
      "inputs": [
        {
          "internalType": "address",
          "name": "",
          "type": "address"
        }
      ],
      "name": "workers",
      "outputs": [
        {
          "internalType": "bool",
          "name": "created",
          "type": "bool"
        },
        {
          "internalType": "uint256",
          "name": "workerId",
          "type": "uint256"
        }
      ],
      "stateMutability": "view",
      "type": "function"
    }
  ],
  "bytecode": "0x60806040526103e8600e553480156200001757600080fd5b5060405162002f0b38038062002f0b8339810160408190526200003a91620000ec565b600062000046620000e8565b600080546001600160a01b0319166001600160a01b0383169081178255604051929350917f8be0079c531659141344cd1fd0a4f28419497f9722a3daafe3b4186f6b6457e0908290a3506001600160a01b038116620000c25760405162461bcd60e51b8152600401620000b9906200011c565b60405180910390fd5b600380546001600160a01b0319166001600160a01b039290921691909117905562000145565b3390565b600060208284031215620000fe578081fd5b81516001600160a01b038116811462000115578182fd5b9392505050565b6020808252600f908201526e494e56414c49445f4144445245535360881b604082015260600190565b612db680620001556000396000f3fe608060405234801561001057600080fd5b50600436106102115760003560e01c80637ea1915911610125578063e0faa9a2116100ad578063ef78d4fd1161007c578063ef78d4fd1461049d578063f2fde38b146104a5578063f6b11170146104b8578063fc3c28af146104cb578063ffb5e276146104d357610211565b8063e0faa9a214610444578063e0fe5f6214610457578063e5b03e5c1461046a578063ef3b42241461047d57610211565b8063b092145e116100f4578063b092145e146103e5578063b1af99cf146103f8578063be1999881461040b578063bf3506c11461041e578063de7ceed71461043157610211565b80637ea19159146103a457806381ea4ee7146103b75780638da5cb5b146103ca57806392bc3117146103d257610211565b80634d0a5dbd116101a85780636223f82e116101775780636223f82e1461034d5780636b0d4a851461036e57806370882e3114610381578063715018a61461039457806374d3896d1461039c57610211565b80634d0a5dbd146102f05780634ffc82ea146103105780635530d414146103255780635a604f8a1461033857610211565b80631e83409a116101e45780631e83409a1461027a5780632e0a62bc1461029b57806340260961146102bc5780634048a257146102cf57610211565b80630b397a12146102165780630d6a088d1461022b5780630f3a9f651461023e578063150b7a0214610251575b600080fd5b61022961022436600461282e565b6104e6565b005b6102296102393660046127cd565b6105b2565b61022961024c36600461282e565b6106bc565b61026461025f3660046125d5565b610723565b6040516102719190612a9b565b60405180910390f35b61028d610288366004612516565b61084e565b604051610271929190612a5b565b6102ae6102a9366004612868565b610e6e565b604051610271929190612abe565b6102296102ca366004612562565b610ea0565b6102e26102dd366004612516565b611545565b604051610271929190612a8b565b6103036102fe366004612516565b611564565b6040516102719190612a80565b610318611654565b6040516102719190612c75565b610318610333366004612530565b611665565b610340611682565b6040516102719190612946565b61036061035b366004612530565b611691565b604051610271929190612ad2565b61030361037c366004612516565b611743565b61022961038f3660046127a4565b611758565b61022961184d565b6103186118f9565b6103186103b2366004612516565b6118ff565b6102ae6103c5366004612846565b611911565b61034061193d565b6103036103e0366004612516565b61194c565b6103036103f3366004612530565b611961565b610303610406366004612516565b611981565b6102296104193660046127cd565b611a69565b61030361042c366004612516565b611b67565b61022961043f36600461266b565b611b7c565b610303610452366004612516565b611ccd565b6102296104653660046127cd565b611cda565b610318610478366004612530565b611df9565b61049061048b366004612868565b611e94565b6040516102719190612ab0565b610318611eba565b6102296104b3366004612516565b611ec0565b6102296104c63660046126dc565b611fc2565b6103186120f8565b6103406104e136600461282e565b6120fe565b6104ee6121cc565b6001600160a01b03166104ff61193d565b6001600160a01b031614610548576040805162461bcd60e51b81526020600482018190526024820152600080516020612d61833981519152604482015290519081900360640190fd5b61271081106105725760405162461bcd60e51b815260040161056990612c4d565b60405180910390fd5b7f31b8257650b36f22415e02cfe0eb160d2da56bd0f089b2c44ddc61236a386410600e54826040516105a5929190612ad2565b60405180910390a1600e55565b6105ba6121cc565b6001600160a01b03166105cb61193d565b6001600160a01b031614610614576040805162461bcd60e51b81526020600482018190526024820152600080516020612d61833981519152604482015290519081900360640190fd5b60005b825181101561067e5781818151811061062c57fe5b6020026020010151600b600085848151811061064457fe5b6020908102919091018101516001600160a01b03168252810191909152604001600020805460ff1916911515919091179055600101610617565b507fd00365f44002e3ae2ee0c6affdbdef7107a4b8c685f7251f1cc54cd1141cf46e82826040516106b0929190612a2d565b60405180910390a15050565b6106c46121cc565b6001600160a01b03166106d561193d565b6001600160a01b03161461071e576040805162461bcd60e51b81526020600482018190526024820152600080516020612d61833981519152604482015290519081900360640190fd5b601255565b6001600160a01b03851660009081526008602052604081205460ff161561075c5760405162461bcd60e51b815260040161056990612b0a565b6003546001600160a01b031633146107865760405162461bcd60e51b815260040161056990612ae0565b6011805460019081019182905560408051808201825282815260208082019485526001600160a01b038b166000818152600883528481209351845490151560ff19918216178555965193860193909355600c82528383206107d09055600a82528383208054871686179055600b90915290829020805490941690921790925590517f7325fb14450d3e5eb288c620b4ff1d6b43a41b33b4a4f143ae88cd4c12f99ea390610834908790612c75565b60405180910390a250630a85bd0160e11b95945050505050565b60608061085a33611ccd565b6108ab576040805162461bcd60e51b815260206004820152601c60248201527f63616c6c6572206973206e6f7420746865207065726d697373696f6e00000000604482015290519081900360640190fd5b6001600160a01b03831660009081526008602052604090205460ff166108e35760405162461bcd60e51b815260040161056990612c06565b6001600160a01b0383166000908152600b602052604090205460ff1661091b5760405162461bcd60e51b815260040161056990612c26565b60125460009081526010602090815260408083206001600160a01b03871684529091529020548067ffffffffffffffff8111801561095857600080fd5b50604051908082528060200260200182016040528015610982578160200160208202803683370190505b5092508067ffffffffffffffff8111801561099c57600080fd5b506040519080825280602002602001820160405280156109c6578160200160208202803683370190505b50915060005b81811015610b1f5760125460009081526010602090815260408083206001600160a01b03891684529091528120805483908110610a0557fe5b60009182526020808320909101546012548352600d825260408084206001600160a01b038b8116865290845281852092168085529190925290822054909250600f90810b900b1215610a695760405162461bcd60e51b815260040161056990612b80565b80858381518110610a7657fe5b6001600160a01b039283166020918202929092018101919091526012546000908152600d825260408082208a85168352835280822093851682529290915220548451600f91820b90910b90859084908110610acd57fe5b6020908102919091018101919091526012546000908152600d825260408082206001600160a01b03808b16845290845281832094168252929091522080546001600160801b03191690556001016109cc565b50506012546000908152600f602090815260408083206001600160a01b0387168452825280832054600c90925290912054600e546127109082011115610b775760405162461bcd60e51b815260040161056990612bb7565b60005b82811015610e66576012546000908152600f602090815260408083206001600160a01b038a1684529091528120805483908110610bb357fe5b6000918252602080832090910154600e5460125484526007835260408085206001600160a01b03938416808752908552818620938d168652929093529183205490935061271091600f91820b90870102900b600e5460125460009081526007602090815260408083206001600160a01b038981168552908352818420908f1684529091528120549390920593509091612710918701600160801b909104600f90810b91909102900b059050816006600060125481526020019081526020016000206000856001600160a01b03166001600160a01b0316815260200190815260200160002060000160008282829054906101000a9004600f0b0392506101000a8154816001600160801b030219169083600f0b6001600160801b03160217905550806006600060125481526020019081526020016000206000856001600160a01b03166001600160a01b0316815260200190815260200160002060000160108282829054906101000a9004600f0b0392506101000a8154816001600160801b030219169083600f0b6001600160801b0316021790555060006007600060125481526020019081526020016000206000856001600160a01b03166001600160a01b0316815260200190815260200160002060008b6001600160a01b03166001600160a01b0316815260200190815260200160002060000160006101000a8154816001600160801b030219169083600f0b6001600160801b0316021790555060006007600060125481526020019081526020016000206000856001600160a01b03166001600160a01b0316815260200190815260200160002060008b6001600160a01b03166001600160a01b0316815260200190815260200160002060000160106101000a8154816001600160801b030219169083600f0b6001600160801b031602179055505050508080600101915050610b7a565b505050915091565b6007602090815260009384526040808520825292845282842090528252902054600f81810b91600160801b9004900b82565b610ea933611ccd565b610efa576040805162461bcd60e51b815260206004820152601c60248201527f63616c6c6572206973206e6f7420746865207065726d697373696f6e00000000604482015290519081900360640190fd5b610f0486866121d0565b610f205760405162461bcd60e51b815260040161056990612b33565b6001600160a01b0386161561147a5781600d600060125481526020019081526020016000206000886001600160a01b03166001600160a01b031681526020019081526020016000206000866001600160a01b03166001600160a01b0316815260200190815260200160002060009054906101000a9004600f0b01600d600060125481526020019081526020016000206000886001600160a01b03166001600160a01b031681526020019081526020016000206000866001600160a01b03166001600160a01b0316815260200190815260200160002060006101000a8154816001600160801b030219169083600f0b6001600160801b0316021790555080600d600060125481526020019081526020016000206000886001600160a01b03166001600160a01b031681526020019081526020016000206000856001600160a01b03166001600160a01b0316815260200190815260200160002060009054906101000a9004600f0b01600d600060125481526020019081526020016000206000886001600160a01b03166001600160a01b031681526020019081526020016000206000856001600160a01b03166001600160a01b0316815260200190815260200160002060006101000a8154816001600160801b030219169083600f0b6001600160801b03160217905550816007600060125481526020019081526020016000206000876001600160a01b03166001600160a01b031681526020019081526020016000206000886001600160a01b03166001600160a01b0316815260200190815260200160002060000160008282829054906101000a9004600f0b0192506101000a8154816001600160801b030219169083600f0b6001600160801b03160217905550806007600060125481526020019081526020016000206000876001600160a01b03166001600160a01b031681526020019081526020016000206000886001600160a01b03166001600160a01b0316815260200190815260200160002060000160108282829054906101000a9004600f0b0192506101000a8154816001600160801b030219169083600f0b6001600160801b031602179055506010600060125481526020019081526020016000206000876001600160a01b03166001600160a01b031681526020019081526020016000206001016000856001600160a01b03166001600160a01b0316815260200190815260200160002060009054906101000a900460ff1661131c576012805460009081526010602081815260408084206001600160a01b03808d16808752918452828620908b1680875260019182018552838720805460ff19168317905596548652938352818520908552825283208054928301815583529091200180546001600160a01b03191690911790555b60125460009081526010602090815260408083206001600160a01b03808b168552908352818420908716845260010190915290205460ff166113cb576012805460009081526010602081815260408084206001600160a01b03808d16808752918452828620908a1680875260019182018552838720805460ff19168317905596548652938352818520908552825283208054928301815583529091200180546001600160a01b03191690911790555b6012546000908152600f602090815260408083206001600160a01b03808b168552908352818420908916845260010190915290205460ff1661147a57601280546000908152600f602081815260408084206001600160a01b03808d16808752918452828620908c1680875260019182018552838720805460ff19168317905596548652938352818520908552825283208054928301815583529091200180546001600160a01b03191690911790555b6012805460009081526006602081815260408084206001600160a01b038b168086529083528185208054600f81810b8b01810b6001600160801b039081166001600160801b03199093169290921790925596548652938352818520908552909152918290208054600160801b808204840b870190930b85169092029190931617909155517f99683c72c1b2ee68a2edb8e71d65029c1436f23107d81af43bec913911b8f004906115359088908890889088908890889061295a565b60405180910390a1505050505050565b6008602052600090815260409020805460019091015460ff9091169082565b600061156e6121cc565b6001600160a01b031661157f61193d565b6001600160a01b0316146115c8576040805162461bcd60e51b81526020600482018190526024820152600080516020612d61833981519152604482015290519081900360640190fd5b6001600160a01b03821661160d5760405162461bcd60e51b815260040180806020018281038252602c815260200180612cc1602c913960400191505060405180910390fd5b6040516001600160a01b038316907fd8dc9578ceae094520aff2ba139a77dd24473034f8dbc74d85f6b02768c3377990600090a261164c60018361222d565b90505b919050565b60006116606001612242565b905090565b600960209081526000928352604080842090915290825290205481565b6003546001600160a01b031681565b60008061169e84846121d0565b6116ad5750600090508061173c565b6001600160a01b0384166000908152600a602052604090205460ff166116d85750600090508061173c565b505060125460009081526007602090815260408083206001600160a01b0380861685529083528184209086168452825291829020825180840190935254600f81810b810b810b808552600160801b909204810b810b810b93909201839052810b91900b5b9250929050565b60046020526000908152604090205460ff1681565b6117606121cc565b6001600160a01b031661177161193d565b6001600160a01b0316146117ba576040805162461bcd60e51b81526020600482018190526024820152600080516020612d61833981519152604482015290519081900360640190fd5b6113888111156117dc5760405162461bcd60e51b815260040161056990612b57565b6001600160a01b0382166000908152600c6020526040908190205490517fc22e4fb352951336b4fee4a8de2369baa813a23fd70ed7145bba07c438a763c491611829918591908590612a0c565b60405180910390a16001600160a01b039091166000908152600c6020526040902055565b6118556121cc565b6001600160a01b031661186661193d565b6001600160a01b0316146118af576040805162461bcd60e51b81526020600482018190526024820152600080516020612d61833981519152604482015290519081900360640190fd5b600080546040516001600160a01b03909116907f8be0079c531659141344cd1fd0a4f28419497f9722a3daafe3b4186f6b6457e0908390a3600080546001600160a01b0319169055565b60115481565b600c6020526000908152604090205481565b6006602090815260009283526040808420909152908252902054600f81810b91600160801b9004900b82565b6000546001600160a01b031690565b600a6020526000908152604090205460ff1681565b600560209081526000928352604080842090915290825290205460ff1681565b600061198b6121cc565b6001600160a01b031661199c61193d565b6001600160a01b0316146119e5576040805162461bcd60e51b81526020600482018190526024820152600080516020612d61833981519152604482015290519081900360640190fd5b6001600160a01b038216611a2a5760405162461bcd60e51b815260040180806020018281038252602c815260200180612d35602c913960400191505060405180910390fd5b6040516001600160a01b038316907ff63eb610adad478002288c0957a6037ba30c916a12eb8b9fc01fed014f1dc15790600090a261164c60018361224d565b611a716121cc565b6001600160a01b0316611a8261193d565b6001600160a01b031614611acb576040805162461bcd60e51b81526020600482018190526024820152600080516020612d61833981519152604482015290519081900360640190fd5b60005b8251811015611b3557818181518110611ae357fe5b6020026020010151600a6000858481518110611afb57fe5b6020908102919091018101516001600160a01b03168252810191909152604001600020805460ff1916911515919091179055600101611ace565b507faa8091f5556474368088a7b1472399d627da2db018a0aebd778756a01f7a34b082826040516106b0929190612a2d565b600b6020526000908152604090205460ff1681565b611b846121cc565b6001600160a01b0316611b9561193d565b6001600160a01b031614611bde576040805162461bcd60e51b81526020600482018190526024820152600080516020612d61833981519152604482015290519081900360640190fd5b8051825114611bff5760405162461bcd60e51b815260040161056990612bde565b60005b8251811015611c8c57818181518110611c1757fe5b602002602001015160056000866001600160a01b03166001600160a01b031681526020019081526020016000206000858481518110611c5257fe5b6020908102919091018101516001600160a01b03168252810191909152604001600020805460ff1916911515919091179055600101611c02565b507f8fac9a2e6c851309527986fec7868b63105d23c332a0eb04326efb2a75234489838383604051611cc093929190612996565b60405180910390a1505050565b600061164c600183612262565b611ce26121cc565b6001600160a01b0316611cf361193d565b6001600160a01b031614611d3c576040805162461bcd60e51b81526020600482018190526024820152600080516020612d61833981519152604482015290519081900360640190fd5b8051825114611d5d5760405162461bcd60e51b815260040161056990612bde565b60005b8251811015611dc757818181518110611d7557fe5b602002602001015160046000858481518110611d8d57fe5b6020908102919091018101516001600160a01b03168252810191909152604001600020805460ff1916911515919091179055600101611d60565b507f06513198a4a9281d22613b8b140b08f6935d30776ca881da51d7b0efb03d748b82826040516106b0929190612a2d565b6001600160a01b03821660009081526008602052604081205460ff16611e2157506000611e8e565b6012546000908152600d602090815260408083206001600160a01b038088168086529184528285209087168086529084528285205491855260098452828520908552909252822054600f91820b929091828401900b13611e82576000611e86565b8181015b600f0b925050505b92915050565b600d602090815260009384526040808520825292845282842090528252902054600f0b81565b60125481565b611ec86121cc565b6001600160a01b0316611ed961193d565b6001600160a01b031614611f22576040805162461bcd60e51b81526020600482018190526024820152600080516020612d61833981519152604482015290519081900360640190fd5b6001600160a01b038116611f675760405162461bcd60e51b8152600401808060200182810382526026815260200180612d0f6026913960400191505060405180910390fd5b600080546040516001600160a01b03808516939216917f8be0079c531659141344cd1fd0a4f28419497f9722a3daafe3b4186f6b6457e091a3600080546001600160a01b0319166001600160a01b0392909216919091179055565b611fca6121cc565b6001600160a01b0316611fdb61193d565b6001600160a01b031614612024576040805162461bcd60e51b81526020600482018190526024820152600080516020612d61833981519152604482015290519081900360640190fd5b80518251146120455760405162461bcd60e51b815260040161056990612bde565b60005b82518110156120c45781818151811061205d57fe5b602002602001015160096000866001600160a01b03166001600160a01b03168152602001908152602001600020600085848151811061209857fe5b6020908102919091018101516001600160a01b0316825281019190915260400160002055600101612048565b507fd3ef330df13fcdca3be6f710d093bc1fa7c744f0385e52c51e093fc46d203309838383604051611cc0939291906129d6565b600e5481565b60006121086121cc565b6001600160a01b031661211961193d565b6001600160a01b031614612162576040805162461bcd60e51b81526020600482018190526024820152600080516020612d61833981519152604482015290519081900360640190fd5b600161216c611654565b038211156121c1576040805162461bcd60e51b815260206004820152601d60248201527f4d756c7469706c653a20696e646578206f7574206f6620626f756e6473000000604482015290519081900360640190fd5b61164c600183612277565b3390565b6001600160a01b03811660009081526004602052604081205460ff1615156001148061222657506001600160a01b0380841660009081526005602090815260408083209386168352929052205460ff1615156001145b9392505050565b6000612226836001600160a01b038416612283565b600061164c826122cd565b6000612226836001600160a01b0384166122d1565b6000612226836001600160a01b038416612397565b600061222683836123af565b600061228f8383612397565b6122c557508154600181810184556000848152602080822090930184905584548482528286019093526040902091909155611e8e565b506000611e8e565b5490565b6000818152600183016020526040812054801561238d578354600019808301919081019060009087908390811061230457fe5b906000526020600020015490508087600001848154811061232157fe5b60009182526020808320909101929092558281526001898101909252604090209084019055865487908061235157fe5b60019003818190600052602060002001600090559055866001016000878152602001908152602001600020600090556001945050505050611e8e565b6000915050611e8e565b60009081526001919091016020526040902054151590565b815460009082106123f15760405162461bcd60e51b8152600401808060200182810382526022815260200180612ced6022913960400191505060405180910390fd5b82600001828154811061240057fe5b9060005260206000200154905092915050565b80356001600160a01b038116811461164f57600080fd5b600082601f83011261243a578081fd5b8135602061244f61244a83612ca2565b612c7e565b828152818101908583018385028701840188101561246b578586fd5b855b858110156124905761247e82612413565b8452928401929084019060010161246d565b5090979650505050505050565b600082601f8301126124ad578081fd5b813560206124bd61244a83612ca2565b82815281810190858301838502870184018810156124d9578586fd5b855b8581101561249057813580151581146124f2578788fd5b845292840192908401906001016124db565b8035600f81900b811461164f57600080fd5b600060208284031215612527578081fd5b61222682612413565b60008060408385031215612542578081fd5b61254b83612413565b915061255960208401612413565b90509250929050565b60008060008060008060c0878903121561257a578182fd5b61258387612413565b955061259160208801612413565b945061259f60408801612413565b93506125ad60608801612413565b92506125bb60808801612504565b91506125c960a08801612504565b90509295509295509295565b6000806000806000608086880312156125ec578081fd5b6125f586612413565b945061260360208701612413565b935060408601359250606086013567ffffffffffffffff80821115612626578283fd5b818801915088601f830112612639578283fd5b813581811115612647578384fd5b896020828501011115612658578384fd5b9699959850939650602001949392505050565b60008060006060848603121561267f578283fd5b61268884612413565b9250602084013567ffffffffffffffff808211156126a4578384fd5b6126b08783880161242a565b935060408601359150808211156126c5578283fd5b506126d28682870161249d565b9150509250925092565b6000806000606084860312156126f0578283fd5b6126f984612413565b925060208085013567ffffffffffffffff80821115612716578485fd5b6127228883890161242a565b94506040870135915080821115612737578384fd5b508501601f81018713612748578283fd5b803561275661244a82612ca2565b81815283810190838501858402850186018b1015612772578687fd5b8694505b83851015612794578035835260019490940193918501918501612776565b5080955050505050509250925092565b600080604083850312156127b6578182fd5b6127bf83612413565b946020939093013593505050565b600080604083850312156127df578182fd5b823567ffffffffffffffff808211156127f6578384fd5b6128028683870161242a565b93506020850135915080821115612817578283fd5b506128248582860161249d565b9150509250929050565b60006020828403121561283f578081fd5b5035919050565b60008060408385031215612858578182fd5b8235915061255960208401612413565b60008060006060848603121561287c578081fd5b8335925061288c60208501612413565b915061289a60408501612413565b90509250925092565b6000815180845260208085019450808401835b838110156128db5781516001600160a01b0316875295820195908201906001016128b6565b509495945050505050565b6000815180845260208085019450808401835b838110156128db5781511515875295820195908201906001016128f9565b6000815180845260208085019450808401835b838110156128db5781518752958201959082019060010161292a565b6001600160a01b0391909116815260200190565b6001600160a01b0396871681529486166020860152928516604085015293166060830152600f92830b608083015290910b60a082015260c00190565b6001600160a01b03841681526060602082018190526000906129ba908301856128a3565b82810360408401526129cc81856128e6565b9695505050505050565b6001600160a01b03841681526060602082018190526000906129fa908301856128a3565b82810360408401526129cc8185612917565b6001600160a01b039390931683526020830191909152604082015260600190565b600060408252612a4060408301856128a3565b8281036020840152612a5281856128e6565b95945050505050565b600060408252612a6e60408301856128a3565b8281036020840152612a528185612917565b901515815260200190565b9115158252602082015260400190565b6001600160e01b031991909116815260200190565b600f9190910b815260200190565b600f92830b8152910b602082015260400190565b918252602082015260400190565b60208082526010908201526f24a72b20a624a21023a8102a27a5a2a760811b604082015260600190565b6020808252600f908201526e105314915051164810d49150551151608a1b604082015260600190565b6020808252600a90820152691393d50814115493525560b21b604082015260600190565b6020808252600f908201526e125395905312510814115490d15395608a1b604082015260600190565b6020808252601d908201527f50524f464954204d5553542047524541544552205448414e205a45524f000000604082015260600190565b6020808252600d908201526c2aa725a727aba71022a92927a960991b604082015260600190565b6020808252600e908201526d12539590531251081193d493505560921b604082015260600190565b60208082526006908201526504e4f542047560d41b604082015260600190565b6020808252600d908201526c43414e204e4f5420434c49414d60981b604082015260600190565b6020808252600e908201526d494e56414c494420504152414d5360901b604082015260600190565b90815260200190565b60405181810167ffffffffffffffff81118282101715612c9a57fe5b604052919050565b600067ffffffffffffffff821115612cb657fe5b506020908102019056fe4d756c7469706c653a205f6164645065726d697373696f6e20697320746865207a65726f2061646472657373456e756d657261626c655365743a20696e646578206f7574206f6620626f756e64734f776e61626c653a206e6577206f776e657220697320746865207a65726f20616464726573734d756c7469706c653a205f64656c5065726d697373696f6e20697320746865207a65726f20616464726573734f776e61626c653a2063616c6c6572206973206e6f7420746865206f776e6572a2646970667358221220acbc8c10c64645225f4d1c790ed5badd583537b99289b4cfd070e2a39a59ba6264736f6c63430007060033",
  "linkReferences": {},
  "deployedLinkReferences": {}
}